{
  "abi": [
    {
      "inputs": [
        {
          "internalType": "string",
          "name": "_name",
          "type": "string"
        },
        {
          "internalType": "address",
          "name": "_depositToken",
          "type": "address"
        },
        {
          "internalType": "address",
          "name": "_rewardToken",
          "type": "address"
        },
        {
          "internalType": "address",
          "name": "_stakingContract",
          "type": "address"
        },
        {
          "internalType": "address",
          "name": "_rewardContract",
          "type": "address"
        },
        {
          "internalType": "address",
          "name": "_swapPairRewardZap",
          "type": "address"
        },
        {
          "components": [
            {
              "internalType": "address",
              "name": "reward",
              "type": "address"
            },
            {
              "internalType": "address",
              "name": "swapPair",
              "type": "address"
            }
          ],
          "internalType": "struct CurveStrategyForLPV2.Reward[]",
          "name": "_rewards",
          "type": "tuple[]"
        },
        {
          "components": [
            {
              "internalType": "enum CurveSwap.PoolType",
              "name": "poolType",
              "type": "uint8"
            },
            {
              "internalType": "address",
              "name": "swapPairRewardZap",
              "type": "address"
            },
            {
              "internalType": "address",
              "name": "zapToken",
              "type": "address"
            },
            {
              "internalType": "address",
              "name": "zapContract",
              "type": "address"
            },
            {
              "internalType": "uint256",
              "name": "zapTokenIndex",
              "type": "uint256"
            },
            {
              "internalType": "uint256",
              "name": "maxSlippage",
              "type": "uint256"
            }
          ],
          "internalType": "struct CurveSwap.Settings",
          "name": "_zapSettings",
          "type": "tuple"
        },
        {
          "internalType": "address",
          "name": "_timelock",
          "type": "address"
        },
        {
          "components": [
            {
              "internalType": "uint256",
              "name": "minTokensToReinvest",
              "type": "uint256"
            },
            {
              "internalType": "uint256",
              "name": "devFeeBips",
              "type": "uint256"
            },
            {
              "internalType": "uint256",
              "name": "reinvestRewardBips",
              "type": "uint256"
            }
          ],
          "internalType": "struct YakStrategy.StrategySettings",
          "name": "_strategySettings",
          "type": "tuple"
        }
      ],
      "stateMutability": "nonpayable",
      "type": "constructor"
    },
    {
      "anonymous": false,
      "inputs": [
        {
          "indexed": true,
          "internalType": "address",
          "name": "account",
          "type": "address"
        }
      ],
      "name": "AllowDepositor",
      "type": "event"
    },
    {
      "anonymous": false,
      "inputs": [
        {
          "indexed": true,
          "internalType": "address",
          "name": "owner",
          "type": "address"
        },
        {
          "indexed": true,
          "internalType": "address",
          "name": "spender",
          "type": "address"
        },
        {
          "indexed": false,
          "internalType": "uint256",
          "name": "value",
          "type": "uint256"
        }
      ],
      "name": "Approval",
      "type": "event"
    },
    {
      "anonymous": false,
      "inputs": [
        {
          "indexed": true,
          "internalType": "address",
          "name": "account",
          "type": "address"
        },
        {
          "indexed": false,
          "internalType": "uint256",
          "name": "amount",
          "type": "uint256"
        }
      ],
      "name": "Deposit",
      "type": "event"
    },
    {
      "anonymous": false,
      "inputs": [
        {
          "indexed": false,
          "internalType": "bool",
          "name": "newValue",
          "type": "bool"
        }
      ],
      "name": "DepositsEnabled",
      "type": "event"
    },
    {
      "anonymous": false,
      "inputs": [
        {
          "indexed": true,
          "internalType": "address",
          "name": "previousOwner",
          "type": "address"
        },
        {
          "indexed": true,
          "internalType": "address",
          "name": "newOwner",
          "type": "address"
        }
      ],
      "name": "OwnershipTransferred",
      "type": "event"
    },
    {
      "anonymous": false,
      "inputs": [
        {
          "indexed": false,
          "internalType": "address",
          "name": "token",
          "type": "address"
        },
        {
          "indexed": false,
          "internalType": "uint256",
          "name": "amount",
          "type": "uint256"
        }
      ],
      "name": "Recovered",
      "type": "event"
    },
    {
      "anonymous": false,
      "inputs": [
        {
          "indexed": false,
          "internalType": "uint256",
          "name": "newTotalDeposits",
          "type": "uint256"
        },
        {
          "indexed": false,
          "internalType": "uint256",
          "name": "newTotalSupply",
          "type": "uint256"
        }
      ],
      "name": "Reinvest",
      "type": "event"
    },
    {
      "anonymous": false,
      "inputs": [
        {
          "indexed": true,
          "internalType": "address",
          "name": "account",
          "type": "address"
        }
      ],
      "name": "RemoveDepositor",
      "type": "event"
    },
    {
      "anonymous": false,
      "inputs": [
        {
          "indexed": true,
          "internalType": "address",
          "name": "from",
          "type": "address"
        },
        {
          "indexed": true,
          "internalType": "address",
          "name": "to",
          "type": "address"
        },
        {
          "indexed": false,
          "internalType": "uint256",
          "name": "value",
          "type": "uint256"
        }
      ],
      "name": "Transfer",
      "type": "event"
    },
    {
      "anonymous": false,
      "inputs": [
        {
          "indexed": false,
          "internalType": "uint256",
          "name": "oldValue",
          "type": "uint256"
        },
        {
          "indexed": false,
          "internalType": "uint256",
          "name": "newValue",
          "type": "uint256"
        }
      ],
      "name": "UpdateAdminFee",
      "type": "event"
    },
    {
      "anonymous": false,
      "inputs": [
        {
          "indexed": false,
          "internalType": "address",
          "name": "oldValue",
          "type": "address"
        },
        {
          "indexed": false,
          "internalType": "address",
          "name": "newValue",
          "type": "address"
        }
      ],
      "name": "UpdateDevAddr",
      "type": "event"
    },
    {
      "anonymous": false,
      "inputs": [
        {
          "indexed": false,
          "internalType": "uint256",
          "name": "oldValue",
          "type": "uint256"
        },
        {
          "indexed": false,
          "internalType": "uint256",
          "name": "newValue",
          "type": "uint256"
        }
      ],
      "name": "UpdateDevFee",
      "type": "event"
    },
    {
      "anonymous": false,
      "inputs": [
        {
          "indexed": false,
          "internalType": "uint256",
          "name": "oldValue",
          "type": "uint256"
        },
        {
          "indexed": false,
          "internalType": "uint256",
          "name": "newValue",
          "type": "uint256"
        }
      ],
      "name": "UpdateMaxTokensToDepositWithoutReinvest",
      "type": "event"
    },
    {
      "anonymous": false,
      "inputs": [
        {
          "indexed": false,
          "internalType": "uint256",
          "name": "oldValue",
          "type": "uint256"
        },
        {
          "indexed": false,
          "internalType": "uint256",
          "name": "newValue",
          "type": "uint256"
        }
      ],
      "name": "UpdateMinTokensToReinvest",
      "type": "event"
    },
    {
      "anonymous": false,
      "inputs": [
        {
          "indexed": false,
          "internalType": "uint256",
          "name": "oldValue",
          "type": "uint256"
        },
        {
          "indexed": false,
          "internalType": "uint256",
          "name": "newValue",
          "type": "uint256"
        }
      ],
      "name": "UpdateReinvestReward",
      "type": "event"
    },
    {
      "anonymous": false,
      "inputs": [
        {
          "indexed": true,
          "internalType": "address",
          "name": "account",
          "type": "address"
        },
        {
          "indexed": false,
          "internalType": "uint256",
          "name": "amount",
          "type": "uint256"
        }
      ],
      "name": "Withdraw",
      "type": "event"
    },
    {
      "inputs": [],
      "name": "ADMIN_FEE_BIPS",
      "outputs": [
        {
          "internalType": "uint256",
          "name": "",
          "type": "uint256"
        }
      ],
      "stateMutability": "view",
      "type": "function"
    },
    {
      "inputs": [],
      "name": "DEPOSITS_ENABLED",
      "outputs": [
        {
          "internalType": "bool",
          "name": "",
          "type": "bool"
        }
      ],
      "stateMutability": "view",
      "type": "function"
    },
    {
      "inputs": [],
      "name": "DEV_FEE_BIPS",
      "outputs": [
        {
          "internalType": "uint256",
          "name": "",
          "type": "uint256"
        }
      ],
      "stateMutability": "view",
      "type": "function"
    },
    {
      "inputs": [],
      "name": "DOMAIN_TYPEHASH",
      "outputs": [
        {
          "internalType": "bytes32",
          "name": "",
          "type": "bytes32"
        }
      ],
      "stateMutability": "view",
      "type": "function"
    },
    {
      "inputs": [],
      "name": "MAX_TOKENS_TO_DEPOSIT_WITHOUT_REINVEST",
      "outputs": [
        {
          "internalType": "uint256",
          "name": "",
          "type": "uint256"
        }
      ],
      "stateMutability": "view",
      "type": "function"
    },
    {
      "inputs": [],
      "name": "MIN_TOKENS_TO_REINVEST",
      "outputs": [
        {
          "internalType": "uint256",
          "name": "",
          "type": "uint256"
        }
      ],
      "stateMutability": "view",
      "type": "function"
    },
    {
      "inputs": [],
      "name": "PERMIT_TYPEHASH",
      "outputs": [
        {
          "internalType": "bytes32",
          "name": "",
          "type": "bytes32"
        }
      ],
      "stateMutability": "view",
      "type": "function"
    },
    {
      "inputs": [],
      "name": "REINVEST_REWARD_BIPS",
      "outputs": [
        {
          "internalType": "uint256",
          "name": "",
          "type": "uint256"
        }
      ],
      "stateMutability": "view",
      "type": "function"
    },
    {
      "inputs": [],
      "name": "VERSION_HASH",
      "outputs": [
        {
          "internalType": "bytes32",
          "name": "",
          "type": "bytes32"
        }
      ],
      "stateMutability": "view",
      "type": "function"
    },
    {
      "inputs": [
        {
          "internalType": "address",
          "name": "_rewardToken",
          "type": "address"
        }
      ],
      "name": "_calculateRewards",
      "outputs": [
        {
          "internalType": "uint256",
          "name": "",
          "type": "uint256"
        }
      ],
      "stateMutability": "view",
      "type": "function"
    },
    {
      "inputs": [
        {
          "internalType": "address",
          "name": "rewardToken",
          "type": "address"
        },
        {
          "internalType": "address",
          "name": "swapPair",
          "type": "address"
        }
      ],
      "name": "addReward",
      "outputs": [],
      "stateMutability": "nonpayable",
      "type": "function"
    },
    {
      "inputs": [
        {
          "internalType": "address",
          "name": "depositor",
          "type": "address"
        }
      ],
      "name": "allowDepositor",
      "outputs": [],
      "stateMutability": "nonpayable",
      "type": "function"
    },
    {
      "inputs": [
        {
          "internalType": "address",
          "name": "account",
          "type": "address"
        },
        {
          "internalType": "address",
          "name": "spender",
          "type": "address"
        }
      ],
      "name": "allowance",
      "outputs": [
        {
          "internalType": "uint256",
          "name": "",
          "type": "uint256"
        }
      ],
      "stateMutability": "view",
      "type": "function"
    },
    {
      "inputs": [
        {
          "internalType": "address",
          "name": "",
          "type": "address"
        }
      ],
      "name": "allowedDepositors",
      "outputs": [
        {
          "internalType": "bool",
          "name": "",
          "type": "bool"
        }
      ],
      "stateMutability": "view",
      "type": "function"
    },
    {
      "inputs": [
        {
          "internalType": "address",
          "name": "spender",
          "type": "address"
        },
        {
          "internalType": "uint256",
          "name": "amount",
          "type": "uint256"
        }
      ],
      "name": "approve",
      "outputs": [
        {
          "internalType": "bool",
          "name": "",
          "type": "bool"
        }
      ],
      "stateMutability": "nonpayable",
      "type": "function"
    },
    {
      "inputs": [
        {
          "internalType": "address",
          "name": "account",
          "type": "address"
        }
      ],
      "name": "balanceOf",
      "outputs": [
        {
          "internalType": "uint256",
          "name": "",
          "type": "uint256"
        }
      ],
      "stateMutability": "view",
      "type": "function"
    },
    {
      "inputs": [],
      "name": "checkReward",
      "outputs": [
        {
          "internalType": "uint256",
          "name": "",
          "type": "uint256"
        }
      ],
      "stateMutability": "view",
      "type": "function"
    },
    {
      "inputs": [],
      "name": "decimals",
      "outputs": [
        {
          "internalType": "uint8",
          "name": "",
          "type": "uint8"
        }
      ],
      "stateMutability": "view",
      "type": "function"
    },
    {
      "inputs": [
        {
          "internalType": "uint256",
          "name": "amount",
          "type": "uint256"
        }
      ],
      "name": "deposit",
      "outputs": [],
      "stateMutability": "nonpayable",
      "type": "function"
    },
    {
      "inputs": [
        {
          "internalType": "address",
          "name": "account",
          "type": "address"
        },
        {
          "internalType": "uint256",
          "name": "amount",
          "type": "uint256"
        }
      ],
      "name": "depositFor",
      "outputs": [],
      "stateMutability": "nonpayable",
      "type": "function"
    },
    {
      "inputs": [],
      "name": "depositToken",
      "outputs": [
        {
          "internalType": "contract IERC20",
          "name": "",
          "type": "address"
        }
      ],
      "stateMutability": "view",
      "type": "function"
    },
    {
      "inputs": [
        {
          "internalType": "uint256",
          "name": "amount",
          "type": "uint256"
        },
        {
          "internalType": "uint256",
          "name": "deadline",
          "type": "uint256"
        },
        {
          "internalType": "uint8",
          "name": "v",
          "type": "uint8"
        },
        {
          "internalType": "bytes32",
          "name": "r",
          "type": "bytes32"
        },
        {
          "internalType": "bytes32",
          "name": "s",
          "type": "bytes32"
        }
      ],
      "name": "depositWithPermit",
      "outputs": [],
      "stateMutability": "nonpayable",
      "type": "function"
    },
    {
      "inputs": [],
      "name": "devAddr",
      "outputs": [
        {
          "internalType": "address",
          "name": "",
          "type": "address"
        }
      ],
      "stateMutability": "view",
      "type": "function"
    },
    {
      "inputs": [],
      "name": "estimateDeployedBalance",
      "outputs": [
        {
          "internalType": "uint256",
          "name": "",
          "type": "uint256"
        }
      ],
      "stateMutability": "view",
      "type": "function"
    },
    {
      "inputs": [],
      "name": "estimateReinvestReward",
      "outputs": [
        {
          "internalType": "uint256",
          "name": "",
          "type": "uint256"
        }
      ],
      "stateMutability": "view",
      "type": "function"
    },
    {
      "inputs": [
        {
          "internalType": "uint256",
          "name": "amount",
          "type": "uint256"
        }
      ],
      "name": "getDepositTokensForShares",
      "outputs": [
        {
          "internalType": "uint256",
          "name": "",
          "type": "uint256"
        }
      ],
      "stateMutability": "view",
      "type": "function"
    },
    {
      "inputs": [],
      "name": "getDomainSeparator",
      "outputs": [
        {
          "internalType": "bytes32",
          "name": "",
          "type": "bytes32"
        }
      ],
      "stateMutability": "view",
      "type": "function"
    },
    {
      "inputs": [
        {
          "internalType": "uint256",
          "name": "amount",
          "type": "uint256"
        }
      ],
      "name": "getSharesForDepositTokens",
      "outputs": [
        {
          "internalType": "uint256",
          "name": "",
          "type": "uint256"
        }
      ],
      "stateMutability": "view",
      "type": "function"
    },
    {
      "inputs": [],
      "name": "name",
      "outputs": [
        {
          "internalType": "string",
          "name": "",
          "type": "string"
        }
      ],
      "stateMutability": "view",
      "type": "function"
    },
    {
      "inputs": [
        {
          "internalType": "address",
          "name": "",
          "type": "address"
        }
      ],
      "name": "nonces",
      "outputs": [
        {
          "internalType": "uint256",
          "name": "",
          "type": "uint256"
        }
      ],
      "stateMutability": "view",
      "type": "function"
    },
    {
      "inputs": [],
      "name": "numberOfAllowedDepositors",
      "outputs": [
        {
          "internalType": "uint256",
          "name": "",
          "type": "uint256"
        }
      ],
      "stateMutability": "view",
      "type": "function"
    },
    {
      "inputs": [],
      "name": "owner",
      "outputs": [
        {
          "internalType": "address",
          "name": "",
          "type": "address"
        }
      ],
      "stateMutability": "view",
      "type": "function"
    },
    {
      "inputs": [
        {
          "internalType": "address",
          "name": "owner",
          "type": "address"
        },
        {
          "internalType": "address",
          "name": "spender",
          "type": "address"
        },
        {
          "internalType": "uint256",
          "name": "value",
          "type": "uint256"
        },
        {
          "internalType": "uint256",
          "name": "deadline",
          "type": "uint256"
        },
        {
          "internalType": "uint8",
          "name": "v",
          "type": "uint8"
        },
        {
          "internalType": "bytes32",
          "name": "r",
          "type": "bytes32"
        },
        {
          "internalType": "bytes32",
          "name": "s",
          "type": "bytes32"
        }
      ],
      "name": "permit",
      "outputs": [],
      "stateMutability": "nonpayable",
      "type": "function"
    },
    {
      "inputs": [
        {
          "internalType": "uint256",
          "name": "amount",
          "type": "uint256"
        }
      ],
      "name": "recoverAVAX",
      "outputs": [],
      "stateMutability": "nonpayable",
      "type": "function"
    },
    {
      "inputs": [
        {
          "internalType": "address",
          "name": "tokenAddress",
          "type": "address"
        },
        {
          "internalType": "uint256",
          "name": "tokenAmount",
          "type": "uint256"
        }
      ],
      "name": "recoverERC20",
      "outputs": [],
      "stateMutability": "nonpayable",
      "type": "function"
    },
    {
      "inputs": [],
      "name": "reinvest",
      "outputs": [],
      "stateMutability": "nonpayable",
      "type": "function"
    },
    {
      "inputs": [
        {
          "internalType": "address",
          "name": "depositor",
          "type": "address"
        }
      ],
      "name": "removeDepositor",
      "outputs": [],
      "stateMutability": "nonpayable",
      "type": "function"
    },
    {
      "inputs": [
        {
          "internalType": "address",
          "name": "rewardToken",
          "type": "address"
        }
      ],
      "name": "removeReward",
      "outputs": [],
      "stateMutability": "nonpayable",
      "type": "function"
    },
    {
      "inputs": [],
      "name": "renounceOwnership",
      "outputs": [],
      "stateMutability": "nonpayable",
      "type": "function"
    },
    {
      "inputs": [
        {
          "internalType": "uint256",
          "name": "minReturnAmountAccepted",
          "type": "uint256"
        },
        {
          "internalType": "bool",
          "name": "disableDeposits",
          "type": "bool"
        }
      ],
      "name": "rescueDeployedFunds",
      "outputs": [],
      "stateMutability": "nonpayable",
      "type": "function"
    },
    {
      "inputs": [
        {
          "internalType": "address",
          "name": "token",
          "type": "address"
        },
        {
          "internalType": "address",
          "name": "spender",
          "type": "address"
        }
      ],
      "name": "revokeAllowance",
      "outputs": [],
      "stateMutability": "nonpayable",
      "type": "function"
    },
    {
      "inputs": [],
      "name": "rewardContract",
      "outputs": [
        {
          "internalType": "address",
          "name": "",
          "type": "address"
        }
      ],
      "stateMutability": "view",
      "type": "function"
    },
    {
      "inputs": [],
      "name": "rewardToken",
      "outputs": [
        {
          "internalType": "contract IERC20",
          "name": "",
          "type": "address"
        }
      ],
      "stateMutability": "view",
      "type": "function"
    },
    {
      "inputs": [
        {
          "internalType": "uint256",
          "name": "",
          "type": "uint256"
        }
      ],
      "name": "rewards",
      "outputs": [
        {
          "internalType": "address",
          "name": "reward",
          "type": "address"
        },
        {
          "internalType": "address",
          "name": "swapPair",
          "type": "address"
        }
      ],
      "stateMutability": "view",
      "type": "function"
    },
    {
      "inputs": [],
      "name": "setAllowances",
      "outputs": [],
      "stateMutability": "nonpayable",
      "type": "function"
    },
    {
      "inputs": [],
      "name": "stakingContract",
      "outputs": [
        {
          "internalType": "contract ICurveRewardsGauge",
          "name": "",
          "type": "address"
        }
      ],
      "stateMutability": "view",
      "type": "function"
    },
    {
      "inputs": [],
      "name": "symbol",
      "outputs": [
        {
          "internalType": "string",
          "name": "",
          "type": "string"
        }
      ],
      "stateMutability": "view",
      "type": "function"
    },
    {
      "inputs": [],
      "name": "totalDeposits",
      "outputs": [
        {
          "internalType": "uint256",
          "name": "",
          "type": "uint256"
        }
      ],
      "stateMutability": "view",
      "type": "function"
    },
    {
      "inputs": [],
      "name": "totalSupply",
      "outputs": [
        {
          "internalType": "uint256",
          "name": "",
          "type": "uint256"
        }
      ],
      "stateMutability": "view",
      "type": "function"
    },
    {
      "inputs": [
        {
          "internalType": "address",
          "name": "dst",
          "type": "address"
        },
        {
          "internalType": "uint256",
          "name": "amount",
          "type": "uint256"
        }
      ],
      "name": "transfer",
      "outputs": [
        {
          "internalType": "bool",
          "name": "",
          "type": "bool"
        }
      ],
      "stateMutability": "nonpayable",
      "type": "function"
    },
    {
      "inputs": [
        {
          "internalType": "address",
          "name": "src",
          "type": "address"
        },
        {
          "internalType": "address",
          "name": "dst",
          "type": "address"
        },
        {
          "internalType": "uint256",
          "name": "amount",
          "type": "uint256"
        }
      ],
      "name": "transferFrom",
      "outputs": [
        {
          "internalType": "bool",
          "name": "",
          "type": "bool"
        }
      ],
      "stateMutability": "nonpayable",
      "type": "function"
    },
    {
      "inputs": [
        {
          "internalType": "address",
          "name": "newOwner",
          "type": "address"
        }
      ],
      "name": "transferOwnership",
      "outputs": [],
      "stateMutability": "nonpayable",
      "type": "function"
    },
    {
      "inputs": [
        {
          "internalType": "uint256",
          "name": "newValue",
          "type": "uint256"
        }
      ],
      "name": "updateAdminFee",
      "outputs": [],
      "stateMutability": "nonpayable",
      "type": "function"
    },
    {
      "inputs": [
        {
          "internalType": "bool",
          "name": "newValue",
          "type": "bool"
        }
      ],
      "name": "updateDepositsEnabled",
      "outputs": [],
      "stateMutability": "nonpayable",
      "type": "function"
    },
    {
      "inputs": [
        {
          "internalType": "address",
          "name": "newValue",
          "type": "address"
        }
      ],
      "name": "updateDevAddr",
      "outputs": [],
      "stateMutability": "nonpayable",
      "type": "function"
    },
    {
      "inputs": [
        {
          "internalType": "uint256",
          "name": "newValue",
          "type": "uint256"
        }
      ],
      "name": "updateDevFee",
      "outputs": [],
      "stateMutability": "nonpayable",
      "type": "function"
    },
    {
      "inputs": [
        {
          "internalType": "uint256",
          "name": "slippageBips",
          "type": "uint256"
        }
      ],
      "name": "updateMaxSwapSlippage",
      "outputs": [],
      "stateMutability": "nonpayable",
      "type": "function"
    },
    {
      "inputs": [
        {
          "internalType": "uint256",
          "name": "newValue",
          "type": "uint256"
        }
      ],
      "name": "updateMaxTokensToDepositWithoutReinvest",
      "outputs": [],
      "stateMutability": "nonpayable",
      "type": "function"
    },
    {
      "inputs": [
        {
          "internalType": "uint256",
          "name": "newValue",
          "type": "uint256"
        }
      ],
      "name": "updateMinTokensToReinvest",
      "outputs": [],
      "stateMutability": "nonpayable",
      "type": "function"
    },
    {
      "inputs": [
        {
          "internalType": "uint256",
          "name": "newValue",
          "type": "uint256"
        }
      ],
      "name": "updateReinvestReward",
      "outputs": [],
      "stateMutability": "nonpayable",
      "type": "function"
    },
    {
      "inputs": [
        {
          "internalType": "uint256",
          "name": "amount",
          "type": "uint256"
        }
      ],
      "name": "withdraw",
      "outputs": [],
      "stateMutability": "nonpayable",
      "type": "function"
    }
  ],
  "bytecode": {
    "object": "0x60c060405260096080819052685969656c642059616b60b81b60a09081526200002c9160009190620017fc565b506040805180820190915260038082526216549560ea1b60209092019182526200005991600191620017fc565b503480156200006757600080fd5b5060405162006abc38038062006abc8339810160408190526200008a9162001ba4565b600680546001600160a01b03191633908117909155604051829190819060009060008051602062006a7c833981519152908290a3508051620000cc906200053f565b6020810151620000dc90620005cb565b6040810151620000ec9062000682565b508951620001029060009060208d0190620017fc565b50600c8054336001600160a01b031991821617909155600a805482166001600160a01b038c811691909117909155600b805483168b83161790556013805483168a831617905560148054909216888216179091558516620001bc5760405162461bcd60e51b815260206004820152602960248201527f5377617020706169722030206973206e656365737361727920627574206e6f74604482015268081cdd5c1c1b1a595960ba1b60648201526084015b60405180910390fd5b82604001516001600160a01b0316856001600160a01b0316630dfe16816040518163ffffffff1660e01b8152600401602060405180830381865afa15801562000209573d6000803e3d6000fd5b505050506040513d601f19601f820116820180604052508101906200022f919062001ca7565b6001600160a01b03161480620002be575082604001516001600160a01b0316856001600160a01b031663d21220a76040518163ffffffff1660e01b8152600401602060405180830381865afa1580156200028d573d6000803e3d6000fd5b505050506040513d601f19601f82011682018060405250810190620002b3919062001ca7565b6001600160a01b0316145b620003405760405162461bcd60e51b815260206004820152604560248201527f53776170207061697220737570706c69656420646f6573206e6f74206861766560448201527f207468652072657761726420746f6b656e206173206f6e65206f662069742773606482015264103830b4b960d91b608482015260a401620001b3565b60005b8451811015620003cf57601b85828151811062000364576200036462001cc5565b602090810291909101810151825460018181018555600094855293839020825160029092020180546001600160a01b039283166001600160a01b0319918216178255929093015192909301805492909316911617905580620003c68162001cf1565b91505062000343565b50601580546001600160a01b0319166001600160a01b038716179055620004028362000739602090811b620025ee17901c565b601580546001600160401b0392909216600160a01b02600160a01b600160e01b0319909216919091179055825160168054859290829060ff1916600183600581111562000453576200045362001d0d565b0217905550602082015181546001600160a01b0391821661010002610100600160a81b031990911617825560408301516001830180549183166001600160a01b031992831617905560608401516002840180549190931691161790556080820151600382015560a090910151600490910155620004cf62000a53565b60a0830151620004df9062000b9c565b620004eb600162000bfd565b620004f68262000ca7565b60408051600080825260208201527fc7606d21ac05cd309191543e409f0845c016120563783d70e4f41419dc0ef234910160405180910390a1505050505050505050506200206a565b6006546001600160a01b031633146200058a5760405162461bcd60e51b8152602060048201819052602482015260008051602062006a5c8339815191526044820152606401620001b3565b600d5460408051918252602082018390527f481f79ac3a523b6d6db3c5a720e190e986d1cc1b41adcdf50f9caef849901100910160405180910390a1600d55565b6006546001600160a01b03163314620006165760405162461bcd60e51b8152602060048201819052602482015260008051602062006a5c8339815191526044820152606401620001b3565b612710620006356011548362000da460201b620028661790919060201c565b11156200064157600080fd5b60125460408051918252602082018390527f2a42303d002f0ba6cfe8259c91d4684443fb0b3de286ba74991175d651726131910160405180910390a1601255565b6006546001600160a01b03163314620006cd5760405162461bcd60e51b8152602060048201819052602482015260008051602062006a5c8339815191526044820152606401620001b3565b612710620006ec6012548362000da460201b620028661790919060201c565b1115620006f857600080fd5b60115460408051918252602082018390527fe7f97d51d307dc44045597c9978bec0f842e6bb40d19b9444084cfa30d9ed4f2910160405180910390a1601155565b620041446200188b60201b17806000835160058111156200075e576200075e62001d0d565b036200084a5760608301516080840151604051630b9947eb60e41b81526001600160a01b039092169163b9947eb0916200079e9160040190815260200190565b602060405180830381865afa158015620007bc573d6000803e3d6000fd5b505050506040513d601f19601f82011682018060405250810190620007e2919062001ca7565b6001600160a01b031683604001516001600160a01b031614620008375760405162461bcd60e51b8152602060048201526015602482015260008051602062006a9c8339815191526044820152606401620001b3565b506200287262000db960201b1762000a4d565b60018351600581111562000862576200086262001d0d565b036200094e5760608301516080840151604051630b9947eb60e41b81526001600160a01b039092169163b9947eb091620008a29160040190815260200190565b602060405180830381865afa158015620008c0573d6000803e3d6000fd5b505050506040513d601f19601f82011682018060405250810190620008e6919062001ca7565b6001600160a01b031683604001516001600160a01b0316146200093b5760405162461bcd60e51b8152602060048201526015602482015260008051602062006a9c8339815191526044820152606401620001b3565b50620029f262000f7e60201b1762000a4d565b60028351600581111562000966576200096662001d0d565b0362000a4d5760608301516080840151604051630b9947eb60e41b81526001600160a01b039092169163b9947eb091620009a69160040190815260200190565b602060405180830381865afa158015620009c4573d6000803e3d6000fd5b505050506040513d601f19601f82011682018060405250810190620009ea919062001ca7565b6001600160a01b031683604001516001600160a01b03161462000a3f5760405162461bcd60e51b8152602060048201526015602482015260008051602062006a9c8339815191526044820152606401620001b3565b5062002ba36200116060201b175b92915050565b6006546001600160a01b0316331462000a9e5760405162461bcd60e51b8152602060048201819052602482015260008051602062006a5c8339815191526044820152606401620001b3565b600a5460135460405163095ea7b360e01b81526001600160a01b039182166004820152600019602482015291169063095ea7b3906044016020604051808303816000875af115801562000af5573d6000803e3d6000fd5b505050506040513d601f19601f8201168201806040525081019062000b1b919062001d23565b5060175460185460405163095ea7b360e01b81526001600160a01b039182166004820152600019602482015291169063095ea7b3906044016020604051808303816000875af115801562000b73573d6000803e3d6000fd5b505050506040513d601f19601f8201168201806040525081019062000b99919062001d23565b50565b600c546001600160a01b0316331462000bf85760405162461bcd60e51b815260206004820152601460248201527f59616b53747261746567793a3a6f6e6c794465760000000000000000000000006044820152606401620001b3565b601a55565b6006546001600160a01b0316331462000c485760405162461bcd60e51b8152602060048201819052602482015260008051602062006a5c8339815191526044820152606401620001b3565b600f5481151560ff90911615150362000c6057600080fd5b600f805460ff19168215159081179091556040519081527f7b014ed3854e7f5cb0218d58b3c6ae7d53a68bb0af2f67bfb029ea42c38a7e859060200160405180910390a150565b6006546001600160a01b0316331462000cf25760405162461bcd60e51b8152602060048201819052602482015260008051602062006a5c8339815191526044820152606401620001b3565b6001600160a01b03811662000d595760405162461bcd60e51b815260206004820152602660248201527f4f776e61626c653a206e6577206f776e657220697320746865207a65726f206160448201526564647265737360d01b6064820152608401620001b3565b6006546040516001600160a01b0380841692169060008051602062006a7c83398151915290600090a3600680546001600160a01b0319166001600160a01b0392909216919091179055565b600062000db2828462001d47565b9392505050565b60008062000ddd868685604001518660200151620012b760201b62002ccc1760201c565b905060006040518060600160405280600081526020016000815260200160008152509050818185608001516003811062000e1b5762000e1b62001cc5565b60200201526060840151604051633883e11960e01b81526000916001600160a01b031690633883e1199062000e5890859060019060040162001d87565b602060405180830381865afa15801562000e76573d6000803e3d6000fd5b505050506040513d601f19601f8201168201806040525081019062000e9c919062001da6565b9050600062000ed961271062000ec58860a00151856200144560201b62002e401790919060201c565b6200145360201b62002e4c1790919060201c565b905085606001516001600160a01b0316632b6e993a8462000f0984866200146160201b62002e581790919060201c565b60016040518463ffffffff1660e01b815260040162000f2b9392919062001dc0565b6020604051808303816000875af115801562000f4b573d6000803e3d6000fd5b505050506040513d601f19601f8201168201806040525081019062000f71919062001da6565b9998505050505050505050565b60008062000fa2868685604001518660200151620012b760201b62002ccc1760201c565b905060006040518060a001604052806000815260200160008152602001600081526020016000815260200160008152509050818185608001516005811062000fee5762000fee62001cc5565b60200201526060840151604051637ede89c560e01b81526000916001600160a01b031690637ede89c5906200102b90859060019060040162001e0b565b602060405180830381865afa15801562001049573d6000803e3d6000fd5b505050506040513d601f19601f820116820180604052508101906200106f919062001da6565b905060006200109861271062000ec58860a00151856200144560201b62002e401790919060201c565b905085606001516001600160a01b0316638473849984620010c884866200146160201b62002e581790919060201c565b6040518363ffffffff1660e01b8152600401620010e792919062001e2a565b600060405180830381600087803b1580156200110257600080fd5b505af115801562001117573d6000803e3d6000fd5b50506040516370a0823160e01b81523060048201526001600160a01b038a1692506370a082319150602401602060405180830381865afa15801562000f4b573d6000803e3d6000fd5b60008062001184868685604001518660200151620012b760201b62002ccc1760201c565b90506000604051806040016040528060008152602001600081525090508181856080015160028110620011bb57620011bb62001cc5565b6020020152606084015160405163ed8e84f360e01b81526000916001600160a01b03169063ed8e84f390620011f890859060019060040162001e6c565b602060405180830381865afa15801562001216573d6000803e3d6000fd5b505050506040513d601f19601f820116820180604052508101906200123c919062001da6565b905060006200126561271062000ec58860a00151856200144560201b62002e401790919060201c565b905085606001516001600160a01b031663ee22be23846200129584866200146160201b62002e581790919060201c565b60016040518463ffffffff1660e01b8152600401620010e79392919062001e8b565b600080620012c685856200146f565b509050600080846001600160a01b0316630902f1ac6040518163ffffffff1660e01b8152600401606060405180830381865afa1580156200130b573d6000803e3d6000fd5b505050506040513d601f19601f8201168201806040525081019062001331919062001ec9565b5091509150866001600160a01b0316836001600160a01b0316146200135257905b6000806200136e8a6001600160701b03808716908616620014a2565b9050886001600160a01b0316856001600160a01b0316146200138c57905b620013b1878b8b6001600160a01b03166200153f60201b62002e64179092919060201c565b6040805160008152602081019182905263022c0d9f60e01b9091526001600160a01b0388169063022c0d9f90620013f2908590859030906024810162001f4d565b600060405180830381600087803b1580156200140d57600080fd5b505af115801562001422573d6000803e3d6000fd5b5050505081811162001435578162001437565b805b9a9950505050505050505050565b600062000db2828462001f86565b600062000db2828462001fa8565b600062000db2828462001fcb565b600080826001600160a01b0316846001600160a01b0316106200149457828462001497565b83835b915091509250929050565b600080620014c16103e5866200144560201b62002e401790919060201c565b90506000620014df84836200144560201b62002e401790919060201c565b905060006200151883620015046103e8896200144560201b62002e401790919060201c565b62000da460201b620028661790919060201c565b90506200153481836200145360201b62002e4c1790919060201c565b979650505050505050565b604080516001600160a01b038416602482015260448082018490528251808303909101815260649091019091526020810180516001600160e01b0390811663a9059cbb60e01b17909152620015979185916200159c16565b505050565b6000620015f8826040518060400160405280602081526020017f5361666545524332303a206c6f772d6c6576656c2063616c6c206661696c6564815250856001600160a01b03166200167a60201b62002ebb179092919060201c565b80519091501562001597578080602001905181019062001619919062001d23565b620015975760405162461bcd60e51b815260206004820152602a60248201527f5361666545524332303a204552433230206f7065726174696f6e20646964206e6044820152691bdd081cdd58d8d9595960b21b6064820152608401620001b3565b60606200168b848460008562001693565b949350505050565b606082471015620016f65760405162461bcd60e51b815260206004820152602660248201527f416464726573733a20696e73756666696369656e742062616c616e636520666f6044820152651c8818d85b1b60d21b6064820152608401620001b3565b6001600160a01b0385163b6200174f5760405162461bcd60e51b815260206004820152601d60248201527f416464726573733a2063616c6c20746f206e6f6e2d636f6e74726163740000006044820152606401620001b3565b600080866001600160a01b031685876040516200176d919062001fe5565b60006040518083038185875af1925050503d8060008114620017ac576040519150601f19603f3d011682016040523d82523d6000602084013e620017b1565b606091505b5090925090506200153482828660608315620017cf57508162000db2565b825115620017e05782518084602001fd5b8160405162461bcd60e51b8152600401620001b3919062002003565b8280546200180a9062002018565b90600052602060002090601f0160209004810192826200182e576000855562001879565b82601f106200184957805160ff191683800117855562001879565b8280016001018555821562001879579182015b82811115620018795782518255916020019190600101906200185c565b506200188792915062001897565b5090565b6200189562002054565b565b5b8082111562001887576000815560010162001898565b634e487b7160e01b600052604160045260246000fd5b604080519081016001600160401b0381118282101715620018e957620018e9620018ae565b60405290565b604051601f8201601f191681016001600160401b03811182821017156200191a576200191a620018ae565b604052919050565b60005b838110156200193f57818101518382015260200162001925565b838111156200194f576000848401525b50505050565b600082601f8301126200196757600080fd5b81516001600160401b03811115620019835762001983620018ae565b62001998601f8201601f1916602001620018ef565b818152846020838601011115620019ae57600080fd5b6200168b82602083016020870162001922565b80516001600160a01b0381168114620019d957600080fd5b919050565b600082601f830112620019f057600080fd5b815160206001600160401b0382111562001a0e5762001a0e620018ae565b62001a1e818360051b01620018ef565b82815260069290921b8401810191818101908684111562001a3e57600080fd5b8286015b8481101562001a94576040818903121562001a5d5760008081fd5b62001a67620018c4565b62001a7282620019c1565b815262001a81858301620019c1565b8186015283529183019160400162001a42565b509695505050505050565b600060c0828403121562001ab257600080fd5b60405160c081016001600160401b038111828210171562001ad75762001ad7620018ae565b806040525080915082516006811062001aef57600080fd5b815262001aff60208401620019c1565b602082015262001b1260408401620019c1565b604082015262001b2560608401620019c1565b60608201526080830151608082015260a083015160a08201525092915050565b60006060828403121562001b5857600080fd5b604051606081016001600160401b038111828210171562001b7d5762001b7d620018ae565b80604052508091508251815260208301516020820152604083015160408201525092915050565b6000806000806000806000806000806102208b8d03121562001bc557600080fd5b8a516001600160401b038082111562001bdd57600080fd5b62001beb8e838f0162001955565b9b5062001bfb60208e01620019c1565b9a5062001c0b60408e01620019c1565b995062001c1b60608e01620019c1565b985062001c2b60808e01620019c1565b975062001c3b60a08e01620019c1565b965060c08d015191508082111562001c5257600080fd5b5062001c618d828e01620019de565b94505062001c738c60e08d0162001a9f565b925062001c846101a08c01620019c1565b915062001c968c6101c08d0162001b45565b90509295989b9194979a5092959850565b60006020828403121562001cba57600080fd5b62000db282620019c1565b634e487b7160e01b600052603260045260246000fd5b634e487b7160e01b600052601160045260246000fd5b60006001820162001d065762001d0662001cdb565b5060010190565b634e487b7160e01b600052602160045260246000fd5b60006020828403121562001d3657600080fd5b8151801515811462000db257600080fd5b6000821982111562001d5d5762001d5d62001cdb565b500190565b8060005b60038110156200194f57815184526020938401939091019060010162001d66565b6080810162001d97828562001d62565b82151560608301529392505050565b60006020828403121562001db957600080fd5b5051919050565b60a0810162001dd0828662001d62565b8360608301528215156080830152949350505050565b8060005b60058110156200194f57815184526020938401939091019060010162001dea565b60c0810162001e1b828562001de6565b82151560a08301529392505050565b60c0810162001e3a828562001de6565b8260a08301529392505050565b8060005b60028110156200194f57815184526020938401939091019060010162001e4b565b6060810162001e7c828562001e47565b82151560408301529392505050565b6080810162001e9b828662001e47565b8360408301528215156060830152949350505050565b80516001600160701b0381168114620019d957600080fd5b60008060006060848603121562001edf57600080fd5b62001eea8462001eb1565b925062001efa6020850162001eb1565b9150604084015163ffffffff8116811462001f1457600080fd5b809150509250925092565b6000815180845262001f3981602086016020860162001922565b601f01601f19169290920160200192915050565b84815283602082015260018060a01b038316604082015260806060820152600062001f7c608083018462001f1f565b9695505050505050565b600081600019048311821515161562001fa35762001fa362001cdb565b500290565b60008262001fc657634e487b7160e01b600052601260045260246000fd5b500490565b60008282101562001fe05762001fe062001cdb565b500390565b6000825162001ff981846020870162001922565b9190910192915050565b60208152600062000db2602083018462001f1f565b600181811c908216806200202d57607f821691505b6020821081036200204e57634e487b7160e01b600052602260045260246000fd5b50919050565b634e487b7160e01b600052605160045260246000fd5b6149e2806200207a6000396000f3fe608060405234801561001057600080fd5b50600436106103af5760003560e01c80638b73e606116101f4578063c4b24a461161011a578063e21ac825116100ad578063f2fde38b1161007c578063f2fde38b14610829578063f301af421461083c578063f7c618c11461086f578063fdb5a03e1461088257600080fd5b8063e21ac825146107e8578063eab89a5a146107fb578063ed24911d1461080e578063ee99205c1461081657600080fd5b8063da09c72c116100e9578063da09c72c14610781578063dbd9a4d414610794578063dd62ed3e1461079c578063dd8ce4d6146107d557600080fd5b8063c4b24a4614610740578063c89039c514610748578063cff1b6ef1461075b578063d505accf1461076e57600080fd5b8063a8ae2b7c11610192578063b52a321f11610161578063b52a321f1461070f578063b6b55f251461071c578063b9e57b801461072f578063bd079f551461073757600080fd5b8063a8ae2b7c146106c3578063a9059cbb146106d6578063abff1963146106e9578063ac0d31ff146106fc57600080fd5b806395d89b41116101ce57806395d89b411461066e57806399729ec1146106765780639e4e731814610689578063a4d5e67c146106b057600080fd5b80638b73e606146106375780638da5cb5b1461064a5780639291d5631461065b57600080fd5b80634bebd1e7116102d9578063715018a6116102775780637ecebe00116102465780637ecebe00146105e857806381837230146106085780638980f11f1461061b5780638aff733d1461062e57600080fd5b8063715018a6146105bb578063789139bc146105c35780637ae26773146105cc5780637d882097146105df57600080fd5b80635ea682ea116102b35780635ea682ea1461054b5780636687039c146105545780636ea69d621461056757806370a082311461059257600080fd5b80634bebd1e7146105125780634e77ace5146105255780634ebb79161461053857600080fd5b80632e1a7d4d116103515780633bdc6e72116103205780633bdc6e72146104c057806340b47e1a146104c9578063483c2ef0146104dc5780634a970be7146104ff57600080fd5b80632e1a7d4d146104575780632f4f21e21461046c57806330adf81f1461047f578063313ce567146104a657600080fd5b80630f23475d1161038d5780630f23475d1461040c57806318160ddd1461041457806320606b701461041d57806323b872dd1461044457600080fd5b806306fdde03146103b457806307677111146103d2578063095ea7b3146103e9575b600080fd5b6103bc61088a565b6040516103c991906141a6565b60405180910390f35b6103db60105481565b6040519081526020016103c9565b6103fc6103f73660046141ce565b610918565b60405190151581526020016103c9565b6103db61092e565b6103db60025481565b6103db7f8b73c3c69bb8fe3d512ecc4cf759cc79239f7b179b0ffacaa9a75d522b39400f81565b6103fc6104523660046141fa565b6109a0565b61046a61046536600461423b565b610a84565b005b61046a61047a3660046141ce565b610b5a565b6103db7f6e71edae12b1b97f4d1f60370fef10105fa2faae0126114a169c64845d6126c981565b6104ae601281565b60405160ff90911681526020016103c9565b6103db60075481565b61046a6104d7366004614254565b610b68565b6103fc6104ea36600461428d565b60086020526000908152604090205460ff1681565b61046a61050d3660046142c0565b610c34565b61046a61052036600461428d565b610ccd565b61046a610533366004614315565b610dcc565b61046a61054636600461423b565b610e55565b6103db60125481565b6103db61056236600461428d565b610ef1565b60145461057a906001600160a01b031681565b6040516001600160a01b0390911681526020016103c9565b6103db6105a036600461428d565b6001600160a01b031660009081526004602052604090205490565b61046a61143b565b6103db600e5481565b61046a6105da366004614254565b6114af565b6103db60095481565b6103db6105f636600461428d565b60056020526000908152604090205481565b61046a61061636600461423b565b611555565b61046a6106293660046141ce565b6115c0565b6103db60115481565b61046a61064536600461428d565b6116b7565b6006546001600160a01b031661057a565b61046a61066936600461428d565b611838565b6103bc6118cb565b61046a61068436600461423b565b6118d8565b6103db7fc89efdaa54c0f20c7adf612882df0950f5a951637e0307cdcb4c672f298b8bc681565b61046a6106be36600461428d565b611966565b61046a6106d136600461423b565b611b59565b6103fc6106e43660046141ce565b611be7565b61046a6106f736600461423b565b611bf4565b61046a61070a366004614332565b611c23565b600f546103fc9060ff1681565b61046a61072a36600461423b565b611ecb565b6103db611ed8565b6103db600d5481565b6103db611f17565b600a5461057a906001600160a01b031681565b61046a61076936600461423b565b611fe3565b61046a61077c366004614357565b612059565b600c5461057a906001600160a01b031681565b61046a61215e565b6103db6107aa366004614254565b6001600160a01b03918216600090815260036020908152604080832093909416825291909152205490565b6103db6107e336600461423b565b61227d565b61046a6107f636600461423b565b6122c2565b6103db61080936600461423b565b61232d565b6103db612370565b60135461057a906001600160a01b031681565b61046a61083736600461428d565b612410565b61084f61084a36600461423b565b6124fb565b604080516001600160a01b039384168152929091166020830152016103c9565b600b5461057a906001600160a01b031681565b61046a612534565b60008054610897906143c5565b80601f01602080910402602001604051908101604052809291908181526020018280546108c3906143c5565b80156109105780601f106108e557610100808354040283529160200191610910565b820191906000526020600020905b8154815290600101906020018083116108f357829003601f168201915b505050505081565b6000610925338484612ed2565b50600192915050565b6013546040516370a0823160e01b81523060048201526000916001600160a01b0316906370a0823190602401602060405180830381865afa158015610977573d6000803e3d6000fd5b505050506040513d601f19601f8201168201806040525081019061099b91906143ff565b905090565b6001600160a01b0383166000818152600360209081526040808320338085529252822054919290919082148015906109da57506000198114155b15610a6b576000610a06856040518060600160405280602f8152602001614929602f9139849190612fe0565b6001600160a01b038881166000818152600360209081526040808320948916808452948252918290208590559051848152939450919290917f8c5be1e5ebec7d5bd14f71427d1e84f3dd0314c0f7b2291e5b200ac8c7c3b925910160405180910390a3505b610a7686868661300c565b6001925050505b9392505050565b6000610a8f8261232d565b905060008111610ae65760405162461bcd60e51b815260206004820152601e60248201527f43757276655374726174656779466f724c5056323a3a7769746864726177000060448201526064015b60405180910390fd5b610aef8161313f565b600a54610b06906001600160a01b0316338361319a565b610b10338361326c565b600954610b1d9082612e58565b60095560405181815233907f884edad9ce6fa2440d8a54cc123490eb96d2768479d49ff9c7366125a9424364906020015b60405180910390a25050565b610b648282613342565b5050565b600c546001600160a01b03163314610b925760405162461bcd60e51b8152600401610add90614418565b604080518082019091526001600160a01b03928316815290821660208201908152601b8054600181018255600091909152915160029092027f3ad8aa4f87544323a9d1e5dd902f40c356527a7955687113db5f9a85ad579dc1810180549385166001600160a01b031994851617905590517f3ad8aa4f87544323a9d1e5dd902f40c356527a7955687113db5f9a85ad579dc29091018054919093169116179055565b600a5460405163d505accf60e01b8152336004820152306024820152604481018790526064810186905260ff8516608482015260a4810184905260c481018390526001600160a01b039091169063d505accf9060e401600060405180830381600087803b158015610ca457600080fd5b505af1158015610cb8573d6000803e3d6000fd5b50505050610cc63386613342565b5050505050565b6006546001600160a01b03163314610cf75760405162461bcd60e51b8152600401610add90614446565b6001600160a01b03811660009081526008602052604090205460ff1615610d605760405162461bcd60e51b815260206004820152601c60248201527f5065726d697373696f6e65643a3a616c6c6f774465706f7369746f72000000006044820152606401610add565b6001600160a01b0381166000908152600860205260409020805460ff19166001908117909155600754610d9291612866565b6007556040516001600160a01b038216907fc0a1035c16faf8d1304056d92c00edf028f87e62b8235a938f00af9e3c0312c590600090a250565b6006546001600160a01b03163314610df65760405162461bcd60e51b8152600401610add90614446565b600f5481151560ff909116151503610e0d57600080fd5b600f805460ff19168215159081179091556040519081527f7b014ed3854e7f5cb0218d58b3c6ae7d53a68bb0af2f67bfb029ea42c38a7e85906020015b60405180910390a150565b6006546001600160a01b03163314610e7f5760405162461bcd60e51b8152600401610add90614446565b60008111610e8c57600080fd5b604051339082156108fc029083906000818181858888f19350505050158015610eb9573d6000803e3d6000fd5b506040805160008152602081018390527f8c1256b8896378cd5044f80c202f9772b9d77dc85c8a6eb51967210b09bfaa289101610e4a565b60145460009081906001600160a01b031615610f1957506014546001600160a01b0316610f93565b601360009054906101000a90046001600160a01b03166001600160a01b031663bf88a6ff6040518163ffffffff1660e01b8152600401602060405180830381865afa158015610f6c573d6000803e3d6000fd5b505050506040513d601f19601f82011682018060405250810190610f909190614486565b90505b6000816001600160a01b031663629d46c26040518163ffffffff1660e01b8152600401602060405180830381865afa158015610fd3573d6000803e3d6000fd5b505050506040513d601f19601f82011682018060405250810190610ff791906143ff565b604051632474e32f60e11b81526001600160a01b0386811660048301529192506000918416906348e9c65e9060240160c060405180830381865afa158015611043573d6000803e3d6000fd5b505050506040513d601f19601f8201168201806040525081019061106791906144b9565b6013546040516370a0823160e01b81526001600160a01b039182166004820152919250600091908716906370a0823190602401602060405180830381865afa1580156110b7573d6000803e3d6000fd5b505050506040513d601f19601f820116820180604052508101906110db91906143ff565b90506000826040015184426110f0919061455c565b6110fa9190614573565b905060006111088383612866565b90506000611217601360009054906101000a90046001600160a01b03166001600160a01b03166318160ddd6040518163ffffffff1660e01b8152600401602060405180830381865afa158015611162573d6000803e3d6000fd5b505050506040513d601f19601f8201168201806040525081019061118691906143ff565b601354604051631fd3c42f60e31b81526001600160a01b038d81166004830152611211926112029291169063fe9e217890602401602060405180830381865afa1580156111d7573d6000803e3d6000fd5b505050506040513d601f19601f820116820180604052508101906111fb91906143ff565b8690612e58565b678ac7230489e8000090612e40565b90612e4c565b6013546040516373861fb360e01b81526001600160a01b038c81166004830152929350600092849216906373861fb390602401602060405180830381865afa158015611267573d6000803e3d6000fd5b505050506040513d601f19601f8201168201806040525081019061128b91906143ff565b6112959190614592565b601354604051631e0b980b60e31b81526001600160a01b038d811660048301523060248301529293506000929091169063f05cc05890604401602060405180830381865afa1580156112eb573d6000803e3d6000fd5b505050506040513d601f19601f8201168201806040525081019061130f91906143ff565b90506000828210156113a9576113a6678ac7230489e800006112116113348686612e58565b6013546040516370a0823160e01b81523060048201526001600160a01b03909116906370a0823190602401602060405180830381865afa15801561137c573d6000803e3d6000fd5b505050506040513d601f19601f820116820180604052508101906113a091906143ff565b90612e40565b90505b601354604051630cff5bdd60e21b81523060048201526001600160a01b038e8116602483015260009216906333fd6f7490604401602060405180830381865afa1580156113fa573d6000803e3d6000fd5b505050506040513d601f19601f8201168201806040525081019061141e91906143ff565b905061142a8183612866565b9d9c50505050505050505050505050565b6006546001600160a01b031633146114655760405162461bcd60e51b8152600401610add90614446565b6006546040516000916001600160a01b0316907f8be0079c531659141344cd1fd0a4f28419497f9722a3daafe3b4186f6b6457e0908390a3600680546001600160a01b0319169055565b6006546001600160a01b031633146114d95760405162461bcd60e51b8152600401610add90614446565b60405163095ea7b360e01b81526001600160a01b0382811660048301526000602483015283169063095ea7b3906044016020604051808303816000875af1158015611528573d6000803e3d6000fd5b505050506040513d601f19601f8201168201806040525081019061154c91906145aa565b610b6457600080fd5b6006546001600160a01b0316331461157f5760405162461bcd60e51b8152600401610add90614446565b600d5460408051918252602082018390527f481f79ac3a523b6d6db3c5a720e190e986d1cc1b41adcdf50f9caef849901100910160405180910390a1600d55565b6006546001600160a01b031633146115ea5760405162461bcd60e51b8152600401610add90614446565b600081116115f757600080fd5b60405163a9059cbb60e01b8152336004820152602481018290526001600160a01b0383169063a9059cbb906044016020604051808303816000875af1158015611644573d6000803e3d6000fd5b505050506040513d601f19601f8201168201806040525081019061166891906145aa565b61167157600080fd5b604080516001600160a01b0384168152602081018390527f8c1256b8896378cd5044f80c202f9772b9d77dc85c8a6eb51967210b09bfaa28910160405180910390a15050565b6006546001600160a01b031633146116e15760405162461bcd60e51b8152600401610add90614446565b6000600754116117505760405162461bcd60e51b815260206004820152603460248201527f5065726d697373696f6e65643a3a72656d6f76654465706f7369746f722c206e6044820152736f20616c6c6f776564206465706f7369746f727360601b6064820152608401610add565b6001600160a01b03811660009081526008602052604090205460ff1615156001146117d05760405162461bcd60e51b815260206004820152602a60248201527f5065726d697373696f6e65643a3a72656d6f76654465706f7369746f722c206e6044820152691bdd08185b1b1bddd95960b21b6064820152608401610add565b6001600160a01b0381166000908152600860205260409020805460ff191690556007546117fe906001612e58565b6007556040516001600160a01b038216907f0e86f6608b536e5339a25b65ff531f5ea91e1313d056ecd4752b35cbd16137d490600090a250565b600c546001600160a01b031633146118625760405162461bcd60e51b8152600401610add90614418565b600c54604080516001600160a01b03928316815291831660208301527fa8e91499ed37682f43cffb045fcc7d379a91e8c9a14e6321877ee34dee564c00910160405180910390a1600c80546001600160a01b0319166001600160a01b0392909216919091179055565b60018054610897906143c5565b6006546001600160a01b031633146119025760405162461bcd60e51b8152600401610add90614446565b61271061191a6011548361286690919063ffffffff16565b111561192557600080fd5b60125460408051918252602082018390527f2a42303d002f0ba6cfe8259c91d4684443fb0b3de286ba74991175d651726131910160405180910390a1601255565b600c546001600160a01b031633146119905760405162461bcd60e51b8152600401610add90614418565b6000805b601b548110156119f457826001600160a01b0316601b82815481106119bb576119bb6145c7565b60009182526020909120600290910201546001600160a01b0316036119e2578091506119f4565b806119ec816145dd565b915050611994565b50816001600160a01b0316601b8281548110611a1257611a126145c7565b60009182526020909120600290910201546001600160a01b031614611a895760405162461bcd60e51b815260206004820152602760248201527f43757276655374726174656779466f724c5056323a3a526577617264206e6f7460448201526620666f756e642160c81b6064820152608401610add565b601b8054611a999060019061455c565b81548110611aa957611aa96145c7565b9060005260206000209060020201601b8281548110611aca57611aca6145c7565b60009182526020909120825460029092020180546001600160a01b039283166001600160a01b0319918216178255600193840154939091018054939092169216919091179055601b805480611b2157611b216145f6565b60008281526020902060026000199092019182020180546001600160a01b031990811682556001919091018054909116905590555050565b6006546001600160a01b03163314611b835760405162461bcd60e51b8152600401610add90614446565b612710611b9b6012548361286690919063ffffffff16565b1115611ba657600080fd5b60115460408051918252602082018390527fe7f97d51d307dc44045597c9978bec0f842e6bb40d19b9444084cfa30d9ed4f2910160405180910390a1601155565b600061092533848461300c565b600c546001600160a01b03163314611c1e5760405162461bcd60e51b8152600401610add90614418565b601a55565b6006546001600160a01b03163314611c4d5760405162461bcd60e51b8152600401610add90614446565b600a546040516370a0823160e01b81523060048201526000916001600160a01b0316906370a0823190602401602060405180830381865afa158015611c96573d6000803e3d6000fd5b505050506040513d601f19601f82011682018060405250810190611cba91906143ff565b6013546040516370a0823160e01b81523060048201529192506001600160a01b031690632e1a7d4d9082906370a0823190602401602060405180830381865afa158015611d0b573d6000803e3d6000fd5b505050506040513d601f19601f82011682018060405250810190611d2f91906143ff565b6040518263ffffffff1660e01b8152600401611d4d91815260200190565b600060405180830381600087803b158015611d6757600080fd5b505af1158015611d7b573d6000803e3d6000fd5b5050600a546040516370a0823160e01b8152306004820152600093506001600160a01b0390911691506370a0823190602401602060405180830381865afa158015611dca573d6000803e3d6000fd5b505050506040513d601f19601f82011682018060405250810190611dee91906143ff565b905083611dfb8284612e58565b1015611e5b5760405162461bcd60e51b815260206004820152602960248201527f43757276655374726174656779466f724c5056323a3a7265736375654465706c6044820152686f79656446756e647360b81b6064820152608401610add565b60098190556002546040805183815260208101929092527fc7606d21ac05cd309191543e409f0845c016120563783d70e4f41419dc0ef234910160405180910390a1600f5460ff1615156001148015611eb657506001831515145b15611ec557611ec56000610dcc565b50505050565b611ed53382613342565b50565b600080611ee3611f17565b9050600d548110611f0f57611f0961271061121160115484612e4090919063ffffffff16565b91505090565b600091505090565b601b54600090818167ffffffffffffffff811115611f3757611f376144a3565b604051908082528060200260200182016040528015611f60578160200160208202803683370190505b50905060005b82811015611fd257611fa3601b8281548110611f8457611f846145c7565b60009182526020909120600290910201546001600160a01b0316610ef1565b828281518110611fb557611fb56145c7565b602090810291909101015280611fca816145dd565b915050611f66565b50611fdc8161353d565b9250505090565b6006546001600160a01b0316331461200d5760405162461bcd60e51b8152600401610add90614446565b801561201857600080fd5b60105460408051918252602082018390527f3cc372f330f95ac9540626dc8a25f5bf21ba607215a5d58304cb804d446f104a910160405180910390a1601055565b4284101561209b5760405162461bcd60e51b815260206004820152600f60248201526e1c195c9b5a5d0e8e995e1c1a5c9959608a1b6044820152606401610add565b6001600160a01b038716600090815260056020526040812080547f6e71edae12b1b97f4d1f60370fef10105fa2faae0126114a169c64845d6126c9918a918a918a9190866120e8836145dd565b909155506040805160208101969096526001600160a01b0394851690860152929091166060840152608083015260a082015260c0810186905260e0016040516020818303038152906040528051906020012090506121498882868686613671565b612154888888612ed2565b5050505050505050565b6006546001600160a01b031633146121885760405162461bcd60e51b8152600401610add90614446565b600a5460135460405163095ea7b360e01b81526001600160a01b039182166004820152600019602482015291169063095ea7b3906044016020604051808303816000875af11580156121de573d6000803e3d6000fd5b505050506040513d601f19601f8201168201806040525081019061220291906145aa565b5060175460185460405163095ea7b360e01b81526001600160a01b039182166004820152600019602482015291169063095ea7b3906044016020604051808303816000875af1158015612259573d6000803e3d6000fd5b505050506040513d601f19601f82011682018060405250810190611ed591906145aa565b6000612296600954600254612e4090919063ffffffff16565b6000036122a1575090565b6122bc60095461121160025485612e4090919063ffffffff16565b92915050565b6006546001600160a01b031633146122ec5760405162461bcd60e51b8152600401610add90614446565b600e5460408051918252602082018390527fa5dae50539d56dfe1fb5273d883b0c39bc76750a25d036fc5fbd09ad8fd5f57f910160405180910390a1600e55565b6000612346600954600254612e4090919063ffffffff16565b60000361235557506000919050565b6122bc60025461121160095485612e4090919063ffffffff16565b60007f8b73c3c69bb8fe3d512ecc4cf759cc79239f7b179b0ffacaa9a75d522b39400f60001b60006040516123a5919061460c565b6040519081900390207fc89efdaa54c0f20c7adf612882df0950f5a951637e0307cdcb4c672f298b8bc646604080516020810195909552840192909252606083015260808201523060a082015260c00160405160208183030381529060405280519060200120905090565b6006546001600160a01b0316331461243a5760405162461bcd60e51b8152600401610add90614446565b6001600160a01b03811661249f5760405162461bcd60e51b815260206004820152602660248201527f4f776e61626c653a206e6577206f776e657220697320746865207a65726f206160448201526564647265737360d01b6064820152608401610add565b6006546040516001600160a01b038084169216907f8be0079c531659141344cd1fd0a4f28419497f9722a3daafe3b4186f6b6457e090600090a3600680546001600160a01b0319166001600160a01b0392909216919091179055565b601b818154811061250b57600080fd5b6000918252602090912060029091020180546001909101546001600160a01b0391821692501682565b32331461257a5760405162461bcd60e51b815260206004820152601460248201527359616b53747261746567793a3a6f6e6c79454f4160601b6044820152606401610add565b600061258461379d565b905060006125918261353d565b9050600d548110156125e55760405162461bcd60e51b815260206004820152601e60248201527f43757276655374726174656779466f724c5056323a3a7265696e7665737400006044820152606401610add565b610b64826139d8565b61414480600083516005811115612607576126076146a7565b036126c35760608301516080840151604051630b9947eb60e41b81526001600160a01b039092169163b9947eb0916126459160040190815260200190565b602060405180830381865afa158015612662573d6000803e3d6000fd5b505050506040513d601f19601f820116820180604052508101906126869190614486565b6001600160a01b031683604001516001600160a01b0316146126ba5760405162461bcd60e51b8152600401610add906146bd565b506128726122bc565b6001835160058111156126d8576126d86146a7565b036127945760608301516080840151604051630b9947eb60e41b81526001600160a01b039092169163b9947eb0916127169160040190815260200190565b602060405180830381865afa158015612733573d6000803e3d6000fd5b505050506040513d601f19601f820116820180604052508101906127579190614486565b6001600160a01b031683604001516001600160a01b03161461278b5760405162461bcd60e51b8152600401610add906146bd565b506129f26122bc565b6002835160058111156127a9576127a96146a7565b036122bc5760608301516080840151604051630b9947eb60e41b81526001600160a01b039092169163b9947eb0916127e79160040190815260200190565b602060405180830381865afa158015612804573d6000803e3d6000fd5b505050506040513d601f19601f820116820180604052508101906128289190614486565b6001600160a01b031683604001516001600160a01b03161461285c5760405162461bcd60e51b8152600401610add906146bd565b50612ba392915050565b6000610a7d8284614592565b600080612889868685604001518660200151612ccc565b90506000604051806060016040528060008152602001600081526020016000815250905081818560800151600381106128c4576128c46145c7565b60200201526060840151604051633883e11960e01b81526000916001600160a01b031690633883e119906128ff90859060019060040161470f565b602060405180830381865afa15801561291c573d6000803e3d6000fd5b505050506040513d601f19601f8201168201806040525081019061294091906143ff565b905060006129616127106112118860a0015185612e4090919063ffffffff16565b60608701519091506001600160a01b0316632b6e993a846129828585612e58565b60016040518463ffffffff1660e01b81526004016129a29392919061472c565b6020604051808303816000875af11580156129c1573d6000803e3d6000fd5b505050506040513d601f19601f820116820180604052508101906129e591906143ff565b9998505050505050505050565b600080612a09868685604001518660200151612ccc565b905060006040518060a0016040528060008152602001600081526020016000815260200160008152602001600081525090508181856080015160058110612a5257612a526145c7565b60200201526060840151604051637ede89c560e01b81526000916001600160a01b031690637ede89c590612a8d908590600190600401614773565b602060405180830381865afa158015612aaa573d6000803e3d6000fd5b505050506040513d601f19601f82011682018060405250810190612ace91906143ff565b90506000612aef6127106112118860a0015185612e4090919063ffffffff16565b60608701519091506001600160a01b0316638473849984612b108585612e58565b6040518363ffffffff1660e01b8152600401612b2d929190614790565b600060405180830381600087803b158015612b4757600080fd5b505af1158015612b5b573d6000803e3d6000fd5b50506040516370a0823160e01b81523060048201526001600160a01b038a1692506370a082319150602401602060405180830381865afa1580156129c1573d6000803e3d6000fd5b600080612bba868685604001518660200151612ccc565b90506000604051806040016040528060008152602001600081525090508181856080015160028110612bee57612bee6145c7565b6020020152606084015160405163ed8e84f360e01b81526000916001600160a01b03169063ed8e84f390612c299085906001906004016147ce565b602060405180830381865afa158015612c46573d6000803e3d6000fd5b505050506040513d601f19601f82011682018060405250810190612c6a91906143ff565b90506000612c8b6127106112118860a0015185612e4090919063ffffffff16565b60608701519091506001600160a01b031663ee22be2384612cac8585612e58565b60016040518463ffffffff1660e01b8152600401612b2d939291906147eb565b600080612cd98585613b8d565b509050600080846001600160a01b0316630902f1ac6040518163ffffffff1660e01b8152600401606060405180830381865afa158015612d1d573d6000803e3d6000fd5b505050506040513d601f19601f82011682018060405250810190612d419190614826565b5091509150866001600160a01b0316836001600160a01b031614612d6157905b600080612d818a856001600160701b0316856001600160701b0316613bbe565b9050886001600160a01b0316856001600160a01b031614612d9e57905b612db26001600160a01b038a16888c612e64565b6040805160008152602081019182905263022c0d9f60e01b9091526001600160a01b0388169063022c0d9f90612df19085908590309060248101614876565b600060405180830381600087803b158015612e0b57600080fd5b505af1158015612e1f573d6000803e3d6000fd5b50505050818111612e305781612e32565b805b9a9950505050505050505050565b6000610a7d8284614573565b6000610a7d82846148ad565b6000610a7d828461455c565b604080516001600160a01b038416602482015260448082018490528251808303909101815260649091019091526020810180516001600160e01b031663a9059cbb60e01b179052612eb6908490613c0c565b505050565b6060612eca8484600085613cde565b949350505050565b6001600160a01b038316612f285760405162461bcd60e51b815260206004820152601c60248201527f5f617070726f76653a3a6f776e6572207a65726f2061646472657373000000006044820152606401610add565b6001600160a01b038216612f7e5760405162461bcd60e51b815260206004820152601e60248201527f5f617070726f76653a3a7370656e646572207a65726f206164647265737300006044820152606401610add565b6001600160a01b0383811660008181526003602090815260408083209487168084529482529182902085905590518481527f8c5be1e5ebec7d5bd14f71427d1e84f3dd0314c0f7b2291e5b200ac8c7c3b92591015b60405180910390a3505050565b600081848411156130045760405162461bcd60e51b8152600401610add91906141a6565b505050900390565b6001600160a01b03821661307f5760405162461bcd60e51b815260206004820152603460248201527f5f7472616e73666572546f6b656e733a2063616e6e6f74207472616e7366657260448201527320746f20746865207a65726f206164647265737360601b6064820152608401610add565b6130bc816040518060600160405280602e815260200161497f602e91396001600160a01b0386166000908152600460205260409020549190612fe0565b6001600160a01b0380851660009081526004602052604080822093909355908416815220546130eb9082612866565b6001600160a01b0380841660008181526004602052604090819020939093559151908516907fddf252ad1be2c89b69c2b068fc378daa952ba7f163c4a11628f55a4df523b3ef90612fd39085815260200190565b601354604051632e1a7d4d60e01b8152600481018390526001600160a01b0390911690632e1a7d4d906024015b600060405180830381600087803b15801561318657600080fd5b505af1158015610cc6573d6000803e3d6000fd5b60405163a9059cbb60e01b81526001600160a01b0383811660048301526024820183905284169063a9059cbb906044016020604051808303816000875af11580156131e9573d6000803e3d6000fd5b505050506040513d601f19601f8201168201806040525081019061320d91906145aa565b612eb65760405162461bcd60e51b815260206004820152602a60248201527f43757276655374726174656779466f724c5056323a3a5452414e534645525f466044820152691493d357d1905253115160b21b6064820152608401610add565b6132a981604051806060016040528060278152602001614958602791396001600160a01b0385166000908152600460205260409020549190612fe0565b60046000846001600160a01b03166001600160a01b03168152602001908152602001600020819055506132f981604051806060016040528060278152602001614902602791396002549190612fe0565b6002556040518181526000906001600160a01b038416907fddf252ad1be2c89b69c2b068fc378daa952ba7f163c4a11628f55a4df523b3ef906020015b60405180910390a35050565b600754156133c5573360009081526008602052604090205460ff1615156001146133c55760405162461bcd60e51b815260206004820152602e60248201527f5065726d697373696f6e65643a3a6f6e6c79416c6c6f7765644465706f73697460448201526d1ccb081b9bdd08185b1b1bddd95960921b6064820152608401610add565b600f5460ff16151560011461341c5760405162461bcd60e51b815260206004820152601e60248201527f43757276655374726174656779466f724c5056323a3a5f6465706f73697400006044820152606401610add565b600e541561345357600061342e61379d565b9050600061343b8261353d565b9050600e5481111561345057613450826139d8565b50505b600a546040516323b872dd60e01b8152336004820152306024820152604481018390526001600160a01b03909116906323b872dd906064016020604051808303816000875af11580156134aa573d6000803e3d6000fd5b505050506040513d601f19601f820116820180604052508101906134ce91906145aa565b6134d757600080fd5b6134e081613e04565b6134f2826134ed8361227d565b613e97565b6009546134ff9082612866565b6009556040518181526001600160a01b038316907fe1fffcc4923d04b559f4d29a8bfc6cda04eb5b0d3c460751c2402c5c5cc9109c90602001610b4e565b600080805b601b5481101561366a57600b54601b80546001600160a01b03909216918390811061356f5761356f6145c7565b60009182526020909120600290910201546001600160a01b0316146136295761362261361b8583815181106135a6576135a66145c7565b6020026020010151601b84815481106135c1576135c16145c7565b6000918252602090912060029091020154600b54601b80546001600160a01b039384169390921691879081106135f9576135f96145c7565b60009182526020909120600160029092020101546001600160a01b0316613f1b565b8390612866565b9150613658565b61365584828151811061363e5761363e6145c7565b60200260200101518361286690919063ffffffff16565b91505b80613662816145dd565b915050613542565b5092915050565b600061367b612370565b60405161190160f01b602082015260228101919091526042810186905260620160408051601f198184030181528282528051602091820120600080855291840180845281905260ff88169284019290925260608301869052608083018590529092509060019060a0016020604051602081039080840390855afa158015613706573d6000803e3d6000fd5b5050604051601f1901519150506001600160a01b0381161580159061373c5750866001600160a01b0316816001600160a01b0316145b6137945760405162461bcd60e51b8152602060048201526024808201527f417263683a3a76616c69646174655369673a20696e76616c6964207369676e616044820152637475726560e01b6064820152608401610add565b50505050505050565b6013546040805163bf88a6ff60e01b815290516060926001600160a01b03169163bf88a6ff9160048083019260209291908290030181865afa1580156137e7573d6000803e3d6000fd5b505050506040513d601f19601f8201168201806040525081019061380b9190614486565b6001600160a01b0316631afe22a66040518163ffffffff1660e01b8152600401600060405180830381600087803b15801561384557600080fd5b505af1158015613859573d6000803e3d6000fd5b50505050601360009054906101000a90046001600160a01b03166001600160a01b031663e6f1daf26040518163ffffffff1660e01b8152600401600060405180830381600087803b1580156138ad57600080fd5b505af11580156138c1573d6000803e3d6000fd5b5050601b549150600090508167ffffffffffffffff8111156138e5576138e56144a3565b60405190808252806020026020018201604052801561390e578160200160208202803683370190505b50905060005b8281101561366a57601b818154811061392f5761392f6145c7565b60009182526020909120600290910201546040516370a0823160e01b81523060048201526001600160a01b03909116906370a0823190602401602060405180830381865afa158015613985573d6000803e3d6000fd5b505050506040513d601f19601f820116820180604052508101906139a991906143ff565b8282815181106139bb576139bb6145c7565b6020908102919091010152806139d0816145dd565b915050613914565b60006139e382613fd9565b90506000613a0261271061121160125485612e4090919063ffffffff16565b90508015613a2757600b54600c54613a27916001600160a01b0390811691168361319a565b6000613a4461271061121160115486612e4090919063ffffffff16565b90508015613a6357600b54613a63906001600160a01b0316338361319a565b6000613b27613a7c83613a768787612e58565b90612e58565b600b54600a546040805160c08101909152601680546001600160a01b039485169490931692829060ff166005811115613ab757613ab76146a7565b6005811115613ac857613ac86146a7565b8152815461010090046001600160a01b03908116602083015260018301548116604083015260028301541660608201526003820154608082015260049091015460a090910152601554600160a01b90048015614144021763ffffffff16565b9050613b3281613e04565b600954613b3f9082612866565b60098190556002546040517fc7606d21ac05cd309191543e409f0845c016120563783d70e4f41419dc0ef23492613b7e92908252602082015260400190565b60405180910390a15050505050565b600080826001600160a01b0316846001600160a01b031610613bb0578284613bb3565b83835b915091509250929050565b600080613bcd856103e5612e40565b90506000613bdb8285612e40565b90506000613bf583613bef886103e8612e40565b90612866565b9050613c018282612e4c565b979650505050505050565b6000613c61826040518060400160405280602081526020017f5361666545524332303a206c6f772d6c6576656c2063616c6c206661696c6564815250856001600160a01b0316612ebb9092919063ffffffff16565b805190915015612eb65780806020019051810190613c7f91906145aa565b612eb65760405162461bcd60e51b815260206004820152602a60248201527f5361666545524332303a204552433230206f7065726174696f6e20646964206e6044820152691bdd081cdd58d8d9595960b21b6064820152608401610add565b606082471015613d3f5760405162461bcd60e51b815260206004820152602660248201527f416464726573733a20696e73756666696369656e742062616c616e636520666f6044820152651c8818d85b1b60d21b6064820152608401610add565b6001600160a01b0385163b613d965760405162461bcd60e51b815260206004820152601d60248201527f416464726573733a2063616c6c20746f206e6f6e2d636f6e74726163740000006044820152606401610add565b600080866001600160a01b03168587604051613db291906148cf565b60006040518083038185875af1925050503d8060008114613def576040519150601f19603f3d011682016040523d82523d6000602084013e613df4565b606091505b5091509150613c0182828661410b565b60008111613e665760405162461bcd60e51b815260206004820152602960248201527f43757276655374726174656779466f724c5056323a3a5f7374616b654465706f604482015268736974546f6b656e7360b81b6064820152608401610add565b60135460405163b6b55f2560e01b8152600481018390526001600160a01b039091169063b6b55f259060240161316c565b600254613ea49082612866565b6002556001600160a01b038216600090815260046020526040902054613eca9082612866565b6001600160a01b0383166000818152600460205260408082209390935591519091907fddf252ad1be2c89b69c2b068fc378daa952ba7f163c4a11628f55a4df523b3ef906133369085815260200190565b600080613f288585613b8d565b509050600080846001600160a01b0316630902f1ac6040518163ffffffff1660e01b8152600401606060405180830381865afa158015613f6c573d6000803e3d6000fd5b505050506040513d601f19601f82011682018060405250810190613f909190614826565b5091509150866001600160a01b0316836001600160a01b031614613fb057905b613fcd88836001600160701b0316836001600160701b0316613bbe565b98975050505050505050565b600080805b601b5481101561366a57600b54601b80546001600160a01b03909216918390811061400b5761400b6145c7565b60009182526020909120600290910201546001600160a01b0316146140e157600084828151811061403e5761403e6145c7565b602002602001015111156140dc576140d961361b858381518110614064576140646145c7565b6020026020010151601b848154811061407f5761407f6145c7565b6000918252602090912060029091020154600b54601b80546001600160a01b039384169390921691879081106140b7576140b76145c7565b60009182526020909120600160029092020101546001600160a01b0316612ccc565b91505b6140f9565b6140f684828151811061363e5761363e6145c7565b91505b80614103816145dd565b915050613fde565b6060831561411a575081610a7d565b82511561412a5782518084602001fd5b8160405162461bcd60e51b8152600401610add91906141a6565b61414c6148eb565b565b60005b83811015614169578181015183820152602001614151565b83811115611ec55750506000910152565b6000815180845261419281602086016020860161414e565b601f01601f19169290920160200192915050565b602081526000610a7d602083018461417a565b6001600160a01b0381168114611ed557600080fd5b600080604083850312156141e157600080fd5b82356141ec816141b9565b946020939093013593505050565b60008060006060848603121561420f57600080fd5b833561421a816141b9565b9250602084013561422a816141b9565b929592945050506040919091013590565b60006020828403121561424d57600080fd5b5035919050565b6000806040838503121561426757600080fd5b8235614272816141b9565b91506020830135614282816141b9565b809150509250929050565b60006020828403121561429f57600080fd5b8135610a7d816141b9565b803560ff811681146142bb57600080fd5b919050565b600080600080600060a086880312156142d857600080fd5b85359450602086013593506142ef604087016142aa565b94979396509394606081013594506080013592915050565b8015158114611ed557600080fd5b60006020828403121561432757600080fd5b8135610a7d81614307565b6000806040838503121561434557600080fd5b82359150602083013561428281614307565b600080600080600080600060e0888a03121561437257600080fd5b873561437d816141b9565b9650602088013561438d816141b9565b955060408801359450606088013593506143a9608089016142aa565b925060a0880135915060c0880135905092959891949750929550565b600181811c908216806143d957607f821691505b6020821081036143f957634e487b7160e01b600052602260045260246000fd5b50919050565b60006020828403121561441157600080fd5b5051919050565b6020808252601490820152732cb0b5a9ba3930ba32b3bc9d1d37b7363ca232bb60611b604082015260600190565b6020808252818101527f4f776e61626c653a2063616c6c6572206973206e6f7420746865206f776e6572604082015260600190565b80516142bb816141b9565b60006020828403121561449857600080fd5b8151610a7d816141b9565b634e487b7160e01b600052604160045260246000fd5b600060c082840312156144cb57600080fd5b60405160c0810181811067ffffffffffffffff821117156144fc57634e487b7160e01b600052604160045260246000fd5b6040526145088361447b565b81526020830151602082015260408301516040820152606083015160608201526080830151608082015260a083015160a08201528091505092915050565b634e487b7160e01b600052601160045260246000fd5b60008282101561456e5761456e614546565b500390565b600081600019048311821515161561458d5761458d614546565b500290565b600082198211156145a5576145a5614546565b500190565b6000602082840312156145bc57600080fd5b8151610a7d81614307565b634e487b7160e01b600052603260045260246000fd5b6000600182016145ef576145ef614546565b5060010190565b634e487b7160e01b600052603160045260246000fd5b600080835481600182811c91508083168061462857607f831692505b6020808410820361464757634e487b7160e01b86526022600452602486fd5b81801561465b576001811461466c57614699565b60ff19861689528489019650614699565b60008a81526020902060005b868110156146915781548b820152908501908301614678565b505084890196505b509498975050505050505050565b634e487b7160e01b600052602160045260246000fd5b6020808252601590820152740aee4dedcce40f4c2e040e8ded6cadc40d2dcc8caf605b1b604082015260600190565b8060005b6003811015611ec55781518452602093840193909101906001016146f0565b6080810161471d82856146ec565b82151560608301529392505050565b60a0810161473a82866146ec565b8360608301528215156080830152949350505050565b8060005b6005811015611ec5578151845260209384019390910190600101614754565b60c081016147818285614750565b82151560a08301529392505050565b60c0810161479e8285614750565b8260a08301529392505050565b8060005b6002811015611ec55781518452602093840193909101906001016147af565b606081016147dc82856147ab565b82151560408301529392505050565b608081016147f982866147ab565b8360408301528215156060830152949350505050565b80516001600160701b03811681146142bb57600080fd5b60008060006060848603121561483b57600080fd5b6148448461480f565b92506148526020850161480f565b9150604084015163ffffffff8116811461486b57600080fd5b809150509250925092565b84815283602082015260018060a01b03831660408201526080606082015260006148a3608083018461417a565b9695505050505050565b6000826148ca57634e487b7160e01b600052601260045260246000fd5b500490565b600082516148e181846020870161414e565b9190910192915050565b634e487b7160e01b600052605160045260246000fdfe5f6275726e3a206275726e20616d6f756e74206578636565647320746f74616c20737570706c797472616e7366657246726f6d3a207472616e7366657220616d6f756e74206578636565647320616c6c6f77616e63655f6275726e3a206275726e20616d6f756e7420657863656564732066726f6d2062616c616e63655f7472616e73666572546f6b656e733a207472616e7366657220657863656564732066726f6d2062616c616e6365a264697066735822122081e153411f6c0e34b03c55c1817e96d45f4d6db461fbea864cbd8affdad2164b64736f6c634300080d00334f776e61626c653a2063616c6c6572206973206e6f7420746865206f776e65728be0079c531659141344cd1fd0a4f28419497f9722a3daafe3b4186f6b6457e057726f6e67207a617020746f6b656e20696e6465780000000000000000000000",
    "linkReferences": {}
  },
  "methodIdentifiers": {
    "ADMIN_FEE_BIPS()": "07677111",
    "DEPOSITS_ENABLED()": "b52a321f",
    "DEV_FEE_BIPS()": "5ea682ea",
    "DOMAIN_TYPEHASH()": "20606b70",
    "MAX_TOKENS_TO_DEPOSIT_WITHOUT_REINVEST()": "789139bc",
    "MIN_TOKENS_TO_REINVEST()": "bd079f55",
    "PERMIT_TYPEHASH()": "30adf81f",
    "REINVEST_REWARD_BIPS()": "8aff733d",
    "VERSION_HASH()": "9e4e7318",
    "_calculateRewards(address)": "6687039c",
    "addReward(address,address)": "40b47e1a",
    "allowDepositor(address)": "4bebd1e7",
    "allowance(address,address)": "dd62ed3e",
    "allowedDepositors(address)": "483c2ef0",
    "approve(address,uint256)": "095ea7b3",
    "balanceOf(address)": "70a08231",
    "checkReward()": "c4b24a46",
    "decimals()": "313ce567",
    "deposit(uint256)": "b6b55f25",
    "depositFor(address,uint256)": "2f4f21e2",
    "depositToken()": "c89039c5",
    "depositWithPermit(uint256,uint256,uint8,bytes32,bytes32)": "4a970be7",
    "devAddr()": "da09c72c",
    "estimateDeployedBalance()": "0f23475d",
    "estimateReinvestReward()": "b9e57b80",
    "getDepositTokensForShares(uint256)": "eab89a5a",
    "getDomainSeparator()": "ed24911d",
    "getSharesForDepositTokens(uint256)": "dd8ce4d6",
    "name()": "06fdde03",
    "nonces(address)": "7ecebe00",
    "numberOfAllowedDepositors()": "3bdc6e72",
    "owner()": "8da5cb5b",
    "permit(address,address,uint256,uint256,uint8,bytes32,bytes32)": "d505accf",
    "recoverAVAX(uint256)": "4ebb7916",
    "recoverERC20(address,uint256)": "8980f11f",
    "reinvest()": "fdb5a03e",
    "removeDepositor(address)": "8b73e606",
    "removeReward(address)": "a4d5e67c",
    "renounceOwnership()": "715018a6",
    "rescueDeployedFunds(uint256,bool)": "ac0d31ff",
    "revokeAllowance(address,address)": "7ae26773",
    "rewardContract()": "6ea69d62",
    "rewardToken()": "f7c618c1",
    "rewards(uint256)": "f301af42",
    "setAllowances()": "dbd9a4d4",
    "stakingContract()": "ee99205c",
    "symbol()": "95d89b41",
    "totalDeposits()": "7d882097",
    "totalSupply()": "18160ddd",
    "transfer(address,uint256)": "a9059cbb",
    "transferFrom(address,address,uint256)": "23b872dd",
    "transferOwnership(address)": "f2fde38b",
    "updateAdminFee(uint256)": "cff1b6ef",
    "updateDepositsEnabled(bool)": "4e77ace5",
    "updateDevAddr(address)": "9291d563",
    "updateDevFee(uint256)": "99729ec1",
    "updateMaxSwapSlippage(uint256)": "abff1963",
    "updateMaxTokensToDepositWithoutReinvest(uint256)": "e21ac825",
    "updateMinTokensToReinvest(uint256)": "81837230",
    "updateReinvestReward(uint256)": "a8ae2b7c",
    "withdraw(uint256)": "2e1a7d4d"
  },
  "id": 67
}