{
  "abi": [
    {
      "inputs": [
        {
          "internalType": "string",
          "name": "_name",
          "type": "string"
        },
        {
          "internalType": "address",
          "name": "_rewardController",
          "type": "address"
        },
        {
          "internalType": "address",
          "name": "_tokenDelegator",
          "type": "address"
        },
        {
          "internalType": "address",
          "name": "_rewardToken0",
          "type": "address"
        },
        {
          "internalType": "address",
          "name": "_swapPairToken0",
          "type": "address"
        },
        {
          "internalType": "address",
          "name": "_timelock",
          "type": "address"
        },
        {
          "internalType": "uint256",
          "name": "_minMinting",
          "type": "uint256"
        },
        {
          "internalType": "uint256",
          "name": "_leverageLevel",
          "type": "uint256"
        },
        {
          "internalType": "uint256",
          "name": "_leverageBips",
          "type": "uint256"
        },
        {
          "components": [
            {
              "internalType": "uint256",
              "name": "minTokensToReinvest",
              "type": "uint256"
            },
            {
              "internalType": "uint256",
              "name": "devFeeBips",
              "type": "uint256"
            },
            {
              "internalType": "uint256",
              "name": "reinvestRewardBips",
              "type": "uint256"
            }
          ],
          "internalType": "struct YakStrategyV2.StrategySettings",
          "name": "_strategySettings",
          "type": "tuple"
        }
      ],
      "stateMutability": "nonpayable",
      "type": "constructor"
    },
    {
      "anonymous": false,
      "inputs": [
        {
          "indexed": true,
          "internalType": "address",
          "name": "account",
          "type": "address"
        }
      ],
      "name": "AllowDepositor",
      "type": "event"
    },
    {
      "anonymous": false,
      "inputs": [
        {
          "indexed": true,
          "internalType": "address",
          "name": "owner",
          "type": "address"
        },
        {
          "indexed": true,
          "internalType": "address",
          "name": "spender",
          "type": "address"
        },
        {
          "indexed": false,
          "internalType": "uint256",
          "name": "value",
          "type": "uint256"
        }
      ],
      "name": "Approval",
      "type": "event"
    },
    {
      "anonymous": false,
      "inputs": [
        {
          "indexed": true,
          "internalType": "address",
          "name": "account",
          "type": "address"
        },
        {
          "indexed": false,
          "internalType": "uint256",
          "name": "amount",
          "type": "uint256"
        }
      ],
      "name": "Deposit",
      "type": "event"
    },
    {
      "anonymous": false,
      "inputs": [
        {
          "indexed": false,
          "internalType": "bool",
          "name": "newValue",
          "type": "bool"
        }
      ],
      "name": "DepositsEnabled",
      "type": "event"
    },
    {
      "anonymous": false,
      "inputs": [
        {
          "indexed": true,
          "internalType": "address",
          "name": "previousOwner",
          "type": "address"
        },
        {
          "indexed": true,
          "internalType": "address",
          "name": "newOwner",
          "type": "address"
        }
      ],
      "name": "OwnershipTransferred",
      "type": "event"
    },
    {
      "anonymous": false,
      "inputs": [
        {
          "indexed": false,
          "internalType": "address",
          "name": "token",
          "type": "address"
        },
        {
          "indexed": false,
          "internalType": "uint256",
          "name": "amount",
          "type": "uint256"
        }
      ],
      "name": "Recovered",
      "type": "event"
    },
    {
      "anonymous": false,
      "inputs": [
        {
          "indexed": false,
          "internalType": "uint256",
          "name": "newTotalDeposits",
          "type": "uint256"
        },
        {
          "indexed": false,
          "internalType": "uint256",
          "name": "newTotalSupply",
          "type": "uint256"
        }
      ],
      "name": "Reinvest",
      "type": "event"
    },
    {
      "anonymous": false,
      "inputs": [
        {
          "indexed": true,
          "internalType": "address",
          "name": "account",
          "type": "address"
        }
      ],
      "name": "RemoveDepositor",
      "type": "event"
    },
    {
      "anonymous": false,
      "inputs": [
        {
          "indexed": true,
          "internalType": "address",
          "name": "from",
          "type": "address"
        },
        {
          "indexed": true,
          "internalType": "address",
          "name": "to",
          "type": "address"
        },
        {
          "indexed": false,
          "internalType": "uint256",
          "name": "value",
          "type": "uint256"
        }
      ],
      "name": "Transfer",
      "type": "event"
    },
    {
      "anonymous": false,
      "inputs": [
        {
          "indexed": false,
          "internalType": "uint256",
          "name": "oldValue",
          "type": "uint256"
        },
        {
          "indexed": false,
          "internalType": "uint256",
          "name": "newValue",
          "type": "uint256"
        }
      ],
      "name": "UpdateAdminFee",
      "type": "event"
    },
    {
      "anonymous": false,
      "inputs": [
        {
          "indexed": false,
          "internalType": "address",
          "name": "oldValue",
          "type": "address"
        },
        {
          "indexed": false,
          "internalType": "address",
          "name": "newValue",
          "type": "address"
        }
      ],
      "name": "UpdateDevAddr",
      "type": "event"
    },
    {
      "anonymous": false,
      "inputs": [
        {
          "indexed": false,
          "internalType": "uint256",
          "name": "oldValue",
          "type": "uint256"
        },
        {
          "indexed": false,
          "internalType": "uint256",
          "name": "newValue",
          "type": "uint256"
        }
      ],
      "name": "UpdateDevFee",
      "type": "event"
    },
    {
      "anonymous": false,
      "inputs": [
        {
          "indexed": false,
          "internalType": "uint256",
          "name": "oldValue",
          "type": "uint256"
        },
        {
          "indexed": false,
          "internalType": "uint256",
          "name": "newValue",
          "type": "uint256"
        }
      ],
      "name": "UpdateMaxTokensToDepositWithoutReinvest",
      "type": "event"
    },
    {
      "anonymous": false,
      "inputs": [
        {
          "indexed": false,
          "internalType": "uint256",
          "name": "oldValue",
          "type": "uint256"
        },
        {
          "indexed": false,
          "internalType": "uint256",
          "name": "newValue",
          "type": "uint256"
        }
      ],
      "name": "UpdateMinTokensToReinvest",
      "type": "event"
    },
    {
      "anonymous": false,
      "inputs": [
        {
          "indexed": false,
          "internalType": "uint256",
          "name": "oldValue",
          "type": "uint256"
        },
        {
          "indexed": false,
          "internalType": "uint256",
          "name": "newValue",
          "type": "uint256"
        }
      ],
      "name": "UpdateReinvestReward",
      "type": "event"
    },
    {
      "anonymous": false,
      "inputs": [
        {
          "indexed": true,
          "internalType": "address",
          "name": "account",
          "type": "address"
        },
        {
          "indexed": false,
          "internalType": "uint256",
          "name": "amount",
          "type": "uint256"
        }
      ],
      "name": "Withdraw",
      "type": "event"
    },
    {
      "inputs": [],
      "name": "ADMIN_FEE_BIPS",
      "outputs": [
        {
          "internalType": "uint256",
          "name": "",
          "type": "uint256"
        }
      ],
      "stateMutability": "view",
      "type": "function"
    },
    {
      "inputs": [],
      "name": "DEPOSITS_ENABLED",
      "outputs": [
        {
          "internalType": "bool",
          "name": "",
          "type": "bool"
        }
      ],
      "stateMutability": "view",
      "type": "function"
    },
    {
      "inputs": [],
      "name": "DEV_FEE_BIPS",
      "outputs": [
        {
          "internalType": "uint256",
          "name": "",
          "type": "uint256"
        }
      ],
      "stateMutability": "view",
      "type": "function"
    },
    {
      "inputs": [],
      "name": "DOMAIN_TYPEHASH",
      "outputs": [
        {
          "internalType": "bytes32",
          "name": "",
          "type": "bytes32"
        }
      ],
      "stateMutability": "view",
      "type": "function"
    },
    {
      "inputs": [],
      "name": "MAX_TOKENS_TO_DEPOSIT_WITHOUT_REINVEST",
      "outputs": [
        {
          "internalType": "uint256",
          "name": "",
          "type": "uint256"
        }
      ],
      "stateMutability": "view",
      "type": "function"
    },
    {
      "inputs": [],
      "name": "MIN_TOKENS_TO_REINVEST",
      "outputs": [
        {
          "internalType": "uint256",
          "name": "",
          "type": "uint256"
        }
      ],
      "stateMutability": "view",
      "type": "function"
    },
    {
      "inputs": [],
      "name": "PERMIT_TYPEHASH",
      "outputs": [
        {
          "internalType": "bytes32",
          "name": "",
          "type": "bytes32"
        }
      ],
      "stateMutability": "view",
      "type": "function"
    },
    {
      "inputs": [],
      "name": "REINVEST_REWARD_BIPS",
      "outputs": [
        {
          "internalType": "uint256",
          "name": "",
          "type": "uint256"
        }
      ],
      "stateMutability": "view",
      "type": "function"
    },
    {
      "inputs": [],
      "name": "VERSION_HASH",
      "outputs": [
        {
          "internalType": "bytes32",
          "name": "",
          "type": "bytes32"
        }
      ],
      "stateMutability": "view",
      "type": "function"
    },
    {
      "inputs": [
        {
          "internalType": "address",
          "name": "depositor",
          "type": "address"
        }
      ],
      "name": "allowDepositor",
      "outputs": [],
      "stateMutability": "nonpayable",
      "type": "function"
    },
    {
      "inputs": [
        {
          "internalType": "address",
          "name": "account",
          "type": "address"
        },
        {
          "internalType": "address",
          "name": "spender",
          "type": "address"
        }
      ],
      "name": "allowance",
      "outputs": [
        {
          "internalType": "uint256",
          "name": "",
          "type": "uint256"
        }
      ],
      "stateMutability": "view",
      "type": "function"
    },
    {
      "inputs": [
        {
          "internalType": "address",
          "name": "",
          "type": "address"
        }
      ],
      "name": "allowedDepositors",
      "outputs": [
        {
          "internalType": "bool",
          "name": "",
          "type": "bool"
        }
      ],
      "stateMutability": "view",
      "type": "function"
    },
    {
      "inputs": [
        {
          "internalType": "address",
          "name": "spender",
          "type": "address"
        },
        {
          "internalType": "uint256",
          "name": "amount",
          "type": "uint256"
        }
      ],
      "name": "approve",
      "outputs": [
        {
          "internalType": "bool",
          "name": "",
          "type": "bool"
        }
      ],
      "stateMutability": "nonpayable",
      "type": "function"
    },
    {
      "inputs": [
        {
          "internalType": "address",
          "name": "account",
          "type": "address"
        }
      ],
      "name": "balanceOf",
      "outputs": [
        {
          "internalType": "uint256",
          "name": "",
          "type": "uint256"
        }
      ],
      "stateMutability": "view",
      "type": "function"
    },
    {
      "inputs": [],
      "name": "checkReward",
      "outputs": [
        {
          "internalType": "uint256",
          "name": "",
          "type": "uint256"
        }
      ],
      "stateMutability": "view",
      "type": "function"
    },
    {
      "inputs": [],
      "name": "decimals",
      "outputs": [
        {
          "internalType": "uint8",
          "name": "",
          "type": "uint8"
        }
      ],
      "stateMutability": "view",
      "type": "function"
    },
    {
      "inputs": [
        {
          "internalType": "uint256",
          "name": "",
          "type": "uint256"
        }
      ],
      "name": "deposit",
      "outputs": [],
      "stateMutability": "pure",
      "type": "function"
    },
    {
      "inputs": [],
      "name": "deposit",
      "outputs": [],
      "stateMutability": "payable",
      "type": "function"
    },
    {
      "inputs": [
        {
          "internalType": "address",
          "name": "",
          "type": "address"
        },
        {
          "internalType": "uint256",
          "name": "",
          "type": "uint256"
        }
      ],
      "name": "depositFor",
      "outputs": [],
      "stateMutability": "pure",
      "type": "function"
    },
    {
      "inputs": [
        {
          "internalType": "address",
          "name": "account",
          "type": "address"
        }
      ],
      "name": "depositFor",
      "outputs": [],
      "stateMutability": "payable",
      "type": "function"
    },
    {
      "inputs": [],
      "name": "depositToken",
      "outputs": [
        {
          "internalType": "contract IERC20",
          "name": "",
          "type": "address"
        }
      ],
      "stateMutability": "view",
      "type": "function"
    },
    {
      "inputs": [
        {
          "internalType": "uint256",
          "name": "",
          "type": "uint256"
        },
        {
          "internalType": "uint256",
          "name": "",
          "type": "uint256"
        },
        {
          "internalType": "uint8",
          "name": "",
          "type": "uint8"
        },
        {
          "internalType": "bytes32",
          "name": "",
          "type": "bytes32"
        },
        {
          "internalType": "bytes32",
          "name": "",
          "type": "bytes32"
        }
      ],
      "name": "depositWithPermit",
      "outputs": [],
      "stateMutability": "pure",
      "type": "function"
    },
    {
      "inputs": [],
      "name": "devAddr",
      "outputs": [
        {
          "internalType": "address",
          "name": "",
          "type": "address"
        }
      ],
      "stateMutability": "view",
      "type": "function"
    },
    {
      "inputs": [],
      "name": "estimateDeployedBalance",
      "outputs": [
        {
          "internalType": "uint256",
          "name": "",
          "type": "uint256"
        }
      ],
      "stateMutability": "view",
      "type": "function"
    },
    {
      "inputs": [],
      "name": "estimateReinvestReward",
      "outputs": [
        {
          "internalType": "uint256",
          "name": "",
          "type": "uint256"
        }
      ],
      "stateMutability": "view",
      "type": "function"
    },
    {
      "inputs": [],
      "name": "getActualLeverage",
      "outputs": [
        {
          "internalType": "uint256",
          "name": "",
          "type": "uint256"
        }
      ],
      "stateMutability": "view",
      "type": "function"
    },
    {
      "inputs": [
        {
          "internalType": "uint256",
          "name": "amount",
          "type": "uint256"
        }
      ],
      "name": "getDepositTokensForShares",
      "outputs": [
        {
          "internalType": "uint256",
          "name": "",
          "type": "uint256"
        }
      ],
      "stateMutability": "view",
      "type": "function"
    },
    {
      "inputs": [],
      "name": "getDomainSeparator",
      "outputs": [
        {
          "internalType": "bytes32",
          "name": "",
          "type": "bytes32"
        }
      ],
      "stateMutability": "view",
      "type": "function"
    },
    {
      "inputs": [
        {
          "internalType": "uint256",
          "name": "amount",
          "type": "uint256"
        }
      ],
      "name": "getSharesForDepositTokens",
      "outputs": [
        {
          "internalType": "uint256",
          "name": "",
          "type": "uint256"
        }
      ],
      "stateMutability": "view",
      "type": "function"
    },
    {
      "inputs": [],
      "name": "name",
      "outputs": [
        {
          "internalType": "string",
          "name": "",
          "type": "string"
        }
      ],
      "stateMutability": "view",
      "type": "function"
    },
    {
      "inputs": [
        {
          "internalType": "address",
          "name": "",
          "type": "address"
        }
      ],
      "name": "nonces",
      "outputs": [
        {
          "internalType": "uint256",
          "name": "",
          "type": "uint256"
        }
      ],
      "stateMutability": "view",
      "type": "function"
    },
    {
      "inputs": [],
      "name": "numberOfAllowedDepositors",
      "outputs": [
        {
          "internalType": "uint256",
          "name": "",
          "type": "uint256"
        }
      ],
      "stateMutability": "view",
      "type": "function"
    },
    {
      "inputs": [],
      "name": "owner",
      "outputs": [
        {
          "internalType": "address",
          "name": "",
          "type": "address"
        }
      ],
      "stateMutability": "view",
      "type": "function"
    },
    {
      "inputs": [
        {
          "internalType": "address",
          "name": "owner",
          "type": "address"
        },
        {
          "internalType": "address",
          "name": "spender",
          "type": "address"
        },
        {
          "internalType": "uint256",
          "name": "value",
          "type": "uint256"
        },
        {
          "internalType": "uint256",
          "name": "deadline",
          "type": "uint256"
        },
        {
          "internalType": "uint8",
          "name": "v",
          "type": "uint8"
        },
        {
          "internalType": "bytes32",
          "name": "r",
          "type": "bytes32"
        },
        {
          "internalType": "bytes32",
          "name": "s",
          "type": "bytes32"
        }
      ],
      "name": "permit",
      "outputs": [],
      "stateMutability": "nonpayable",
      "type": "function"
    },
    {
      "inputs": [
        {
          "internalType": "uint256",
          "name": "amount",
          "type": "uint256"
        }
      ],
      "name": "recoverAVAX",
      "outputs": [],
      "stateMutability": "nonpayable",
      "type": "function"
    },
    {
      "inputs": [
        {
          "internalType": "address",
          "name": "tokenAddress",
          "type": "address"
        },
        {
          "internalType": "uint256",
          "name": "tokenAmount",
          "type": "uint256"
        }
      ],
      "name": "recoverERC20",
      "outputs": [],
      "stateMutability": "nonpayable",
      "type": "function"
    },
    {
      "inputs": [],
      "name": "reinvest",
      "outputs": [],
      "stateMutability": "nonpayable",
      "type": "function"
    },
    {
      "inputs": [
        {
          "internalType": "address",
          "name": "depositor",
          "type": "address"
        }
      ],
      "name": "removeDepositor",
      "outputs": [],
      "stateMutability": "nonpayable",
      "type": "function"
    },
    {
      "inputs": [],
      "name": "renounceOwnership",
      "outputs": [],
      "stateMutability": "nonpayable",
      "type": "function"
    },
    {
      "inputs": [
        {
          "internalType": "uint256",
          "name": "minReturnAmountAccepted",
          "type": "uint256"
        },
        {
          "internalType": "bool",
          "name": "",
          "type": "bool"
        }
      ],
      "name": "rescueDeployedFunds",
      "outputs": [],
      "stateMutability": "nonpayable",
      "type": "function"
    },
    {
      "inputs": [
        {
          "internalType": "address",
          "name": "token",
          "type": "address"
        },
        {
          "internalType": "address",
          "name": "spender",
          "type": "address"
        }
      ],
      "name": "revokeAllowance",
      "outputs": [],
      "stateMutability": "nonpayable",
      "type": "function"
    },
    {
      "inputs": [],
      "name": "rewardToken",
      "outputs": [
        {
          "internalType": "contract IERC20",
          "name": "",
          "type": "address"
        }
      ],
      "stateMutability": "view",
      "type": "function"
    },
    {
      "inputs": [],
      "name": "symbol",
      "outputs": [
        {
          "internalType": "string",
          "name": "",
          "type": "string"
        }
      ],
      "stateMutability": "view",
      "type": "function"
    },
    {
      "inputs": [],
      "name": "totalDeposits",
      "outputs": [
        {
          "internalType": "uint256",
          "name": "",
          "type": "uint256"
        }
      ],
      "stateMutability": "view",
      "type": "function"
    },
    {
      "inputs": [],
      "name": "totalSupply",
      "outputs": [
        {
          "internalType": "uint256",
          "name": "",
          "type": "uint256"
        }
      ],
      "stateMutability": "view",
      "type": "function"
    },
    {
      "inputs": [
        {
          "internalType": "address",
          "name": "dst",
          "type": "address"
        },
        {
          "internalType": "uint256",
          "name": "amount",
          "type": "uint256"
        }
      ],
      "name": "transfer",
      "outputs": [
        {
          "internalType": "bool",
          "name": "",
          "type": "bool"
        }
      ],
      "stateMutability": "nonpayable",
      "type": "function"
    },
    {
      "inputs": [
        {
          "internalType": "address",
          "name": "src",
          "type": "address"
        },
        {
          "internalType": "address",
          "name": "dst",
          "type": "address"
        },
        {
          "internalType": "uint256",
          "name": "amount",
          "type": "uint256"
        }
      ],
      "name": "transferFrom",
      "outputs": [
        {
          "internalType": "bool",
          "name": "",
          "type": "bool"
        }
      ],
      "stateMutability": "nonpayable",
      "type": "function"
    },
    {
      "inputs": [
        {
          "internalType": "address",
          "name": "newOwner",
          "type": "address"
        }
      ],
      "name": "transferOwnership",
      "outputs": [],
      "stateMutability": "nonpayable",
      "type": "function"
    },
    {
      "inputs": [
        {
          "internalType": "uint256",
          "name": "newValue",
          "type": "uint256"
        }
      ],
      "name": "updateAdminFee",
      "outputs": [],
      "stateMutability": "nonpayable",
      "type": "function"
    },
    {
      "inputs": [
        {
          "internalType": "bool",
          "name": "newValue",
          "type": "bool"
        }
      ],
      "name": "updateDepositsEnabled",
      "outputs": [],
      "stateMutability": "nonpayable",
      "type": "function"
    },
    {
      "inputs": [
        {
          "internalType": "address",
          "name": "newValue",
          "type": "address"
        }
      ],
      "name": "updateDevAddr",
      "outputs": [],
      "stateMutability": "nonpayable",
      "type": "function"
    },
    {
      "inputs": [
        {
          "internalType": "uint256",
          "name": "newValue",
          "type": "uint256"
        }
      ],
      "name": "updateDevFee",
      "outputs": [],
      "stateMutability": "nonpayable",
      "type": "function"
    },
    {
      "inputs": [
        {
          "internalType": "uint256",
          "name": "_leverageLevel",
          "type": "uint256"
        },
        {
          "internalType": "uint256",
          "name": "_leverageBips",
          "type": "uint256"
        },
        {
          "internalType": "uint256",
          "name": "_redeemLimitSafetyMargin",
          "type": "uint256"
        }
      ],
      "name": "updateLeverage",
      "outputs": [],
      "stateMutability": "nonpayable",
      "type": "function"
    },
    {
      "inputs": [
        {
          "internalType": "uint256",
          "name": "newValue",
          "type": "uint256"
        }
      ],
      "name": "updateMaxTokensToDepositWithoutReinvest",
      "outputs": [],
      "stateMutability": "nonpayable",
      "type": "function"
    },
    {
      "inputs": [
        {
          "internalType": "uint256",
          "name": "newValue",
          "type": "uint256"
        }
      ],
      "name": "updateMinTokensToReinvest",
      "outputs": [],
      "stateMutability": "nonpayable",
      "type": "function"
    },
    {
      "inputs": [
        {
          "internalType": "uint256",
          "name": "newValue",
          "type": "uint256"
        }
      ],
      "name": "updateReinvestReward",
      "outputs": [],
      "stateMutability": "nonpayable",
      "type": "function"
    },
    {
      "inputs": [
        {
          "internalType": "uint256",
          "name": "amount",
          "type": "uint256"
        }
      ],
      "name": "withdraw",
      "outputs": [],
      "stateMutability": "nonpayable",
      "type": "function"
    },
    {
      "stateMutability": "payable",
      "type": "receive"
    }
  ],
  "bytecode": {
    "object": "0x60c060405260096080819052685969656c642059616b60b81b60a09081526200002c916000919062000a3a565b506040805180820190915260038082526216549560ea1b6020909201918252620000599160019162000a3a565b503480156200006757600080fd5b5060405162005e7d38038062005e7d8339810160408190526200008a9162000ba5565b600680546001600160a01b03191633908117909155604051829190819060009060008051602062005e5d833981519152908290a3508051620000cc9062000244565b6020810151620000dc90620002d4565b6040810151620000ec906200038b565b5060016012558951620001079060009060208d019062000a3a565b50600980546001600160a01b03199081169091556013805482166001600160a01b038c8116919091179091556014805483168b8316179055601580548316918a16919091179055600a805473b31f66aa3c1e785363f0875a1b74e27b85fd66c792169190911790556019849055620001bd8383620001af6103e86200019b836103de62000442602090811b6200216817901c565b6200045760201b620021741790919060201c565b601792909255601855601a55565b600b80546001600160a01b03191633179055620001d962000465565b620001e48662000537565b620001f0600162000885565b620001fb856200092f565b60408051600080825260208201527fc7606d21ac05cd309191543e409f0845c016120563783d70e4f41419dc0ef234910160405180910390a15050505050505050505062000ed9565b6006546001600160a01b03163314620002935760405162461bcd60e51b8152602060048201819052602482015260008051602062005e3d83398151915260448201526064015b60405180910390fd5b600c5460408051918252602082018390527f481f79ac3a523b6d6db3c5a720e190e986d1cc1b41adcdf50f9caef849901100910160405180910390a1600c55565b6006546001600160a01b031633146200031f5760405162461bcd60e51b8152602060048201819052602482015260008051602062005e3d83398151915260448201526064016200028a565b6127106200033e6010548362000a2c60201b620021801790919060201c565b11156200034a57600080fd5b60115460408051918252602082018390527f2a42303d002f0ba6cfe8259c91d4684443fb0b3de286ba74991175d651726131910160405180910390a1601155565b6006546001600160a01b03163314620003d65760405162461bcd60e51b8152602060048201819052602482015260008051602062005e3d83398151915260448201526064016200028a565b612710620003f56011548362000a2c60201b620021801790919060201c565b11156200040157600080fd5b60105460408051918252602082018390527fe7f97d51d307dc44045597c9978bec0f842e6bb40d19b9444084cfa30d9ed4f2910160405180910390a1601055565b600062000450828462000d0a565b9392505050565b600062000450828462000d2c565b60408051600180825281830190925260009160208083019080368337505060145482519293506001600160a01b031691839150600090620004aa57620004aa62000d4f565b6001600160a01b039283166020918202929092010152601354604051631853304760e31b815291169063c299823890620004e990849060040162000d65565b6000604051808303816000875af115801562000509573d6000803e3d6000fd5b505050506040513d6000823e601f3d908101601f1916820160405262000533919081019062000db4565b5050565b6001600160a01b038116620005a15760405162461bcd60e51b815260206004820152602960248201527f5377617020706169722030206973206e656365737361727920627574206e6f74604482015268081cdd5c1c1b1a595960ba1b60648201526084016200028a565b806001600160a01b0316630dfe16816040518163ffffffff1660e01b8152600401602060405180830381865afa158015620005e0573d6000803e3d6000fd5b505050506040513d601f19601f8201168201806040525081019062000606919062000e64565b6015546001600160a01b0390811691161480620006955750806001600160a01b031663d21220a76040518163ffffffff1660e01b8152600401602060405180830381865afa1580156200065d573d6000803e3d6000fd5b505050506040513d601f19601f8201168201806040525081019062000683919062000e64565b6015546001600160a01b039081169116145b620006f35760405162461bcd60e51b815260206004820152602760248201527f537761702070616972203020646f6573206e6f74206d61746368207265776172604482015266064546f6b656e360cc1b60648201526084016200028a565b806001600160a01b0316630dfe16816040518163ffffffff1660e01b8152600401602060405180830381865afa15801562000732573d6000803e3d6000fd5b505050506040513d601f19601f8201168201806040525081019062000758919062000e64565b6001600160a01b031673b31f66aa3c1e785363f0875a1b74e27b85fd66c76001600160a01b03161480620008155750806001600160a01b031663d21220a76040518163ffffffff1660e01b8152600401602060405180830381865afa158015620007c6573d6000803e3d6000fd5b505050506040513d601f19601f82011682018060405250810190620007ec919062000e64565b6001600160a01b031673b31f66aa3c1e785363f0875a1b74e27b85fd66c76001600160a01b0316145b620008635760405162461bcd60e51b815260206004820181905260248201527f537761702070616972203020646f6573206e6f74206d6174636820574156415860448201526064016200028a565b601680546001600160a01b0319166001600160a01b0392909216919091179055565b6006546001600160a01b03163314620008d05760405162461bcd60e51b8152602060048201819052602482015260008051602062005e3d83398151915260448201526064016200028a565b600e5481151560ff909116151503620008e857600080fd5b600e805460ff19168215159081179091556040519081527f7b014ed3854e7f5cb0218d58b3c6ae7d53a68bb0af2f67bfb029ea42c38a7e859060200160405180910390a150565b6006546001600160a01b031633146200097a5760405162461bcd60e51b8152602060048201819052602482015260008051602062005e3d83398151915260448201526064016200028a565b6001600160a01b038116620009e15760405162461bcd60e51b815260206004820152602660248201527f4f776e61626c653a206e6577206f776e657220697320746865207a65726f206160448201526564647265737360d01b60648201526084016200028a565b6006546040516001600160a01b0380841692169060008051602062005e5d83398151915290600090a3600680546001600160a01b0319166001600160a01b0392909216919091179055565b600062000450828462000e82565b82805462000a489062000e9d565b90600052602060002090601f01602090048101928262000a6c576000855562000ab7565b82601f1062000a8757805160ff191683800117855562000ab7565b8280016001018555821562000ab7579182015b8281111562000ab757825182559160200191906001019062000a9a565b5062000ac592915062000ac9565b5090565b5b8082111562000ac5576000815560010162000aca565b634e487b7160e01b600052604160045260246000fd5b604051601f8201601f191681016001600160401b038111828210171562000b215762000b2162000ae0565b604052919050565b80516001600160a01b038116811462000b4157600080fd5b919050565b60006060828403121562000b5957600080fd5b604051606081016001600160401b038111828210171562000b7e5762000b7e62000ae0565b80604052508091508251815260208301516020820152604083015160408201525092915050565b6000806000806000806000806000806101808b8d03121562000bc657600080fd5b8a516001600160401b038082111562000bde57600080fd5b818d0191508d601f83011262000bf357600080fd5b81518181111562000c085762000c0862000ae0565b6020915062000c20601f8201601f1916830162000af6565b8181528f8383860101111562000c3557600080fd5b60005b8281101562000c5557848101840151828201850152830162000c38565b8281111562000c675760008484840101525b509c5062000c7990508d820162000b29565b9a50505062000c8b60408c0162000b29565b975062000c9b60608c0162000b29565b965062000cab60808c0162000b29565b955062000cbb60a08c0162000b29565b945060c08b0151935060e08b015192506101008b0151915062000ce38c6101208d0162000b46565b90509295989b9194979a5092959850565b634e487b7160e01b600052601160045260246000fd5b600081600019048311821515161562000d275762000d2762000cf4565b500290565b60008262000d4a57634e487b7160e01b600052601260045260246000fd5b500490565b634e487b7160e01b600052603260045260246000fd5b6020808252825182820181905260009190848201906040850190845b8181101562000da85783516001600160a01b03168352928401929184019160010162000d81565b50909695505050505050565b6000602080838503121562000dc857600080fd5b82516001600160401b038082111562000de057600080fd5b818501915085601f83011262000df557600080fd5b81518181111562000e0a5762000e0a62000ae0565b8060051b915062000e1d84830162000af6565b818152918301840191848101908884111562000e3857600080fd5b938501935b8385101562000e585784518252938501939085019062000e3d565b98975050505050505050565b60006020828403121562000e7757600080fd5b620004508262000b29565b6000821982111562000e985762000e9862000cf4565b500190565b600181811c9082168062000eb257607f821691505b60208210810362000ed357634e487b7160e01b600052602260045260246000fd5b50919050565b614f548062000ee96000396000f3fe60806040526004361061037a5760003560e01c80638da5cb5b116101d1578063c89039c511610102578063dd62ed3e116100a0578063ed24911d1161006f578063ed24911d14610ad0578063f2fde38b14610ae5578063f7c618c114610b05578063fdb5a03e14610b2557600080fd5b8063dd62ed3e14610a2a578063dd8ce4d614610a70578063e21ac82514610a90578063eab89a5a14610ab057600080fd5b8063d505accf116100dc578063d505accf146109b5578063d6ec2a49146109d5578063da09c72c146109f5578063db8dd95c14610a1557600080fd5b8063c89039c51461096d578063cff1b6ef1461098d578063d0e30db0146109ad57600080fd5b8063aa67c9191161016f578063b6b55f2511610149578063b6b55f2514610912578063b9e57b801461092d578063bd079f5514610942578063c4b24a461461095857600080fd5b8063aa67c919146108c5578063ac0d31ff146108d8578063b52a321f146108f857600080fd5b806399729ec1116101ab57806399729ec1146108315780639e4e731814610851578063a8ae2b7c14610885578063a9059cbb146108a557600080fd5b80638da5cb5b146107ca5780639291d563146107fc57806395d89b411461081c57600080fd5b80634bebd1e7116102ab5780637ae2677311610249578063818372301161022357806381837230146107545780638980f11f146107745780638aff733d146107945780638b73e606146107aa57600080fd5b80637ae26773146106f25780637d882097146107125780637ecebe001461072757600080fd5b80635ea682ea116102855780635ea682ea1461067b57806370a0823114610691578063715018a6146106c7578063789139bc146106dc57600080fd5b80634bebd1e71461061b5780634e77ace51461063b5780634ebb79161461065b57600080fd5b80632e1a7d4d11610318578063313ce567116102f2578063313ce567146105935780633bdc6e72146105ba578063483c2ef0146105d05780634a970be71461060057600080fd5b80632e1a7d4d146105245780632f4f21e21461054457806330adf81f1461055f57600080fd5b80630f23475d116103545780630f23475d146104a557806318160ddd146104ba57806320606b70146104d057806323b872dd1461050457600080fd5b806306fdde03146104265780630767711114610451578063095ea7b31461047557600080fd5b36610421576013546001600160a01b03163314806103ab57503373b31f66aa3c1e785363f0875a1b74e27b85fd66c7145b806103c057506014546001600160a01b031633145b61041f5760405162461bcd60e51b815260206004820152602560248201527f42656e7169537472617465677956313a3a7061796d656e7473206e6f7420616c6044820152641b1bddd95960da1b60648201526084015b60405180910390fd5b005b600080fd5b34801561043257600080fd5b5061043b610b3a565b60405161044891906147f3565b60405180910390f35b34801561045d57600080fd5b50610467600f5481565b604051908152602001610448565b34801561048157600080fd5b50610495610490366004614822565b610bc8565b6040519015158152602001610448565b3480156104b157600080fd5b50610467610bde565b3480156104c657600080fd5b5061046760025481565b3480156104dc57600080fd5b506104677f8b73c3c69bb8fe3d512ecc4cf759cc79239f7b179b0ffacaa9a75d522b39400f81565b34801561051057600080fd5b5061049561051f36600461484c565b610bed565b34801561053057600080fd5b5061041f61053f366004614888565b610cd1565b34801561055057600080fd5b5061041f610421366004614822565b34801561056b57600080fd5b506104677f6e71edae12b1b97f4d1f60370fef10105fa2faae0126114a169c64845d6126c981565b34801561059f57600080fd5b506105a8601281565b60405160ff9091168152602001610448565b3480156105c657600080fd5b5061046760075481565b3480156105dc57600080fd5b506104956105eb3660046148a1565b60086020526000908152604090205460ff1681565b34801561060c57600080fd5b5061041f6104213660046148cd565b34801561062757600080fd5b5061041f6106363660046148a1565b610e7e565b34801561064757600080fd5b5061041f610656366004614922565b610f7d565b34801561066757600080fd5b5061041f610676366004614888565b611006565b34801561068757600080fd5b5061046760115481565b34801561069d57600080fd5b506104676106ac3660046148a1565b6001600160a01b031660009081526004602052604090205490565b3480156106d357600080fd5b5061041f6110a2565b3480156106e857600080fd5b50610467600d5481565b3480156106fe57600080fd5b5061041f61070d36600461493f565b611116565b34801561071e57600080fd5b506104676111c0565b34801561073357600080fd5b506104676107423660046148a1565b60056020526000908152604090205481565b34801561076057600080fd5b5061041f61076f366004614888565b611266565b34801561078057600080fd5b5061041f61078f366004614822565b6112d1565b3480156107a057600080fd5b5061046760105481565b3480156107b657600080fd5b5061041f6107c53660046148a1565b6113c8565b3480156107d657600080fd5b506006546001600160a01b03165b6040516001600160a01b039091168152602001610448565b34801561080857600080fd5b5061041f6108173660046148a1565b611549565b34801561082857600080fd5b5061043b611603565b34801561083d57600080fd5b5061041f61084c366004614888565b611610565b34801561085d57600080fd5b506104677fc89efdaa54c0f20c7adf612882df0950f5a951637e0307cdcb4c672f298b8bc681565b34801561089157600080fd5b5061041f6108a0366004614888565b61169e565b3480156108b157600080fd5b506104956108c0366004614822565b61172c565b61041f6108d33660046148a1565b611739565b3480156108e457600080fd5b5061041f6108f3366004614972565b611772565b34801561090457600080fd5b50600e546104959060ff1681565b34801561091e57600080fd5b5061041f610421366004614888565b34801561093957600080fd5b506104676119d2565b34801561094e57600080fd5b50610467600c5481565b34801561096457600080fd5b50610467611a11565b34801561097957600080fd5b506009546107e4906001600160a01b031681565b34801561099957600080fd5b5061041f6109a8366004614888565b611a90565b61041f611b06565b3480156109c157600080fd5b5061041f6109d03660046149a2565b611b3e565b3480156109e157600080fd5b5061041f6109f0366004614a0c565b611c43565b348015610a0157600080fd5b50600b546107e4906001600160a01b031681565b348015610a2157600080fd5b50610467611dc7565b348015610a3657600080fd5b50610467610a4536600461493f565b6001600160a01b03918216600090815260036020908152604080832093909416825291909152205490565b348015610a7c57600080fd5b50610467610a8b366004614888565b611e87565b348015610a9c57600080fd5b5061041f610aab366004614888565b611ec7565b348015610abc57600080fd5b50610467610acb366004614888565b611f32565b348015610adc57600080fd5b50610467611f66565b348015610af157600080fd5b5061041f610b003660046148a1565b612006565b348015610b1157600080fd5b50600a546107e4906001600160a01b031681565b348015610b3157600080fd5b5061041f6120f1565b60008054610b4790614a38565b80601f0160208091040260200160405190810160405280929190818152602001828054610b7390614a38565b8015610bc05780601f10610b9557610100808354040283529160200191610bc0565b820191906000526020600020905b815481529060010190602001808311610ba357829003601f168201915b505050505081565b6000610bd533848461218c565b50600192915050565b6000610be86111c0565b905090565b6001600160a01b038316600081815260036020908152604080832033808552925282205491929091908214801590610c2757506000198114155b15610cb8576000610c53856040518060600160405280602f8152602001614e9b602f913984919061229a565b6001600160a01b038881166000818152600360209081526040808320948916808452948252918290208590559051848152939450919290917f8c5be1e5ebec7d5bd14f71427d1e84f3dd0314c0f7b2291e5b200ac8c7c3b925910160405180910390a3505b610cc38686866122c6565b6001925050505b9392505050565b600260125403610cf35760405162461bcd60e51b815260040161041690614a72565b60026012556019548111610d595760405162461bcd60e51b815260206004820152602760248201527f42656e7169537472617465677956313a3a62656c6f77206d696e696d756d20776044820152666974686472617760c81b6064820152608401610416565b6000610d79600254610d7384610d6d6123f9565b90612168565b90612174565b90508015610e7557610d8b33836124f3565b610d94816125c9565b604051600090339083908381818185875af1925050503d8060008114610dd6576040519150601f19603f3d011682016040523d82523d6000602084013e610ddb565b606091505b5050905080610e3e5760405162461bcd60e51b815260206004820152602960248201527f42656e7169537472617465677956313a3a7769746864726177207472616e7366604482015268195c8819985a5b195960ba1b6064820152608401610416565b60405182815233907f884edad9ce6fa2440d8a54cc123490eb96d2768479d49ff9c7366125a94243649060200160405180910390a2505b50506001601255565b6006546001600160a01b03163314610ea85760405162461bcd60e51b815260040161041690614aa9565b6001600160a01b03811660009081526008602052604090205460ff1615610f115760405162461bcd60e51b815260206004820152601c60248201527f5065726d697373696f6e65643a3a616c6c6f774465706f7369746f72000000006044820152606401610416565b6001600160a01b0381166000908152600860205260409020805460ff19166001908117909155600754610f4391612180565b6007556040516001600160a01b038216907fc0a1035c16faf8d1304056d92c00edf028f87e62b8235a938f00af9e3c0312c590600090a250565b6006546001600160a01b03163314610fa75760405162461bcd60e51b815260040161041690614aa9565b600e5481151560ff909116151503610fbe57600080fd5b600e805460ff19168215159081179091556040519081527f7b014ed3854e7f5cb0218d58b3c6ae7d53a68bb0af2f67bfb029ea42c38a7e85906020015b60405180910390a150565b6006546001600160a01b031633146110305760405162461bcd60e51b815260040161041690614aa9565b6000811161103d57600080fd5b604051339082156108fc029083906000818181858888f1935050505015801561106a573d6000803e3d6000fd5b506040805160008152602081018390527f8c1256b8896378cd5044f80c202f9772b9d77dc85c8a6eb51967210b09bfaa289101610ffb565b6006546001600160a01b031633146110cc5760405162461bcd60e51b815260040161041690614aa9565b6006546040516000916001600160a01b0316907f8be0079c531659141344cd1fd0a4f28419497f9722a3daafe3b4186f6b6457e0908390a3600680546001600160a01b0319169055565b6006546001600160a01b031633146111405760405162461bcd60e51b815260040161041690614aa9565b60405163095ea7b360e01b81526001600160a01b0382811660048301526000602483015283169063095ea7b3906044016020604051808303816000875af115801561118f573d6000803e3d6000fd5b505050506040513d601f19601f820116820180604052508101906111b39190614ade565b6111bc57600080fd5b5050565b6014546040516361bfb47160e11b81523060048201526000918291829182916001600160a01b039091169063c37f68e290602401608060405180830381865afa158015611211573d6000803e3d6000fd5b505050506040513d601f19601f820116820180604052508101906112359190614afb565b9195509350915061125e905082611258670de0b6b3a7640000610d738786612168565b90612661565b935050505090565b6006546001600160a01b031633146112905760405162461bcd60e51b815260040161041690614aa9565b600c5460408051918252602082018390527f481f79ac3a523b6d6db3c5a720e190e986d1cc1b41adcdf50f9caef849901100910160405180910390a1600c55565b6006546001600160a01b031633146112fb5760405162461bcd60e51b815260040161041690614aa9565b6000811161130857600080fd5b60405163a9059cbb60e01b8152336004820152602481018290526001600160a01b0383169063a9059cbb906044016020604051808303816000875af1158015611355573d6000803e3d6000fd5b505050506040513d601f19601f820116820180604052508101906113799190614ade565b61138257600080fd5b604080516001600160a01b0384168152602081018390527f8c1256b8896378cd5044f80c202f9772b9d77dc85c8a6eb51967210b09bfaa28910160405180910390a15050565b6006546001600160a01b031633146113f25760405162461bcd60e51b815260040161041690614aa9565b6000600754116114615760405162461bcd60e51b815260206004820152603460248201527f5065726d697373696f6e65643a3a72656d6f76654465706f7369746f722c206e6044820152736f20616c6c6f776564206465706f7369746f727360601b6064820152608401610416565b6001600160a01b03811660009081526008602052604090205460ff1615156001146114e15760405162461bcd60e51b815260206004820152602a60248201527f5065726d697373696f6e65643a3a72656d6f76654465706f7369746f722c206e6044820152691bdd08185b1b1bddd95960b21b6064820152608401610416565b6001600160a01b0381166000908152600860205260409020805460ff1916905560075461150f906001612661565b6007556040516001600160a01b038216907f0e86f6608b536e5339a25b65ff531f5ea91e1313d056ecd4752b35cbd16137d490600090a250565b600b546001600160a01b0316331461159a5760405162461bcd60e51b81526020600482015260146024820152732cb0b5a9ba3930ba32b3bc9d1d37b7363ca232bb60611b6044820152606401610416565b600b54604080516001600160a01b03928316815291831660208301527fa8e91499ed37682f43cffb045fcc7d379a91e8c9a14e6321877ee34dee564c00910160405180910390a1600b80546001600160a01b0319166001600160a01b0392909216919091179055565b60018054610b4790614a38565b6006546001600160a01b0316331461163a5760405162461bcd60e51b815260040161041690614aa9565b6127106116526010548361218090919063ffffffff16565b111561165d57600080fd5b60115460408051918252602082018390527f2a42303d002f0ba6cfe8259c91d4684443fb0b3de286ba74991175d651726131910160405180910390a1601155565b6006546001600160a01b031633146116c85760405162461bcd60e51b815260040161041690614aa9565b6127106116e06011548361218090919063ffffffff16565b11156116eb57600080fd5b60105460408051918252602082018390527fe7f97d51d307dc44045597c9978bec0f842e6bb40d19b9444084cfa30d9ed4f2910160405180910390a1601055565b6000610bd53384846122c6565b60026012540361175b5760405162461bcd60e51b815260040161041690614a72565b600260125561176a813461266d565b506001601255565b6006546001600160a01b0316331461179c5760405162461bcd60e51b815260040161041690614aa9565b6014546040516305eff7ef60e21b815230600482015247916000916001600160a01b03909116906317bfdfbc906024016020604051808303816000875af11580156117eb573d6000803e3d6000fd5b505050506040513d601f19601f8201168201806040525081019061180f9190614b31565b601454604051633af9e66960e01b81523060048201529192506000916001600160a01b0390911690633af9e669906024016020604051808303816000875af115801561185f573d6000803e3d6000fd5b505050506040513d601f19601f820116820180604052508101906118839190614b31565b90506118976118928284612661565b612812565b60145460405163852a12e360e01b8152600481018390526001600160a01b039091169063852a12e3906024016020604051808303816000875af11580156118e2573d6000803e3d6000fd5b505050506040513d601f19601f820116820180604052508101906119069190614b31565b5047856119138286612661565b101561196d5760405162461bcd60e51b8152602060048201526024808201527f42656e7169537472617465677956313a3a7265736375654465706c6f79656446604482015263756e647360e01b6064820152608401610416565b7fc7606d21ac05cd309191543e409f0845c016120563783d70e4f41419dc0ef2346119966111c0565b6002546040805192835260208301919091520160405180910390a1600e5460ff1615156001036119ca576119ca6000610f7d565b505050505050565b6000806119dd611a11565b9050600c548110611a0957611a03612710610d736010548461216890919063ffffffff16565b91505090565b600091505090565b6013546014546000918291611a34916001600160a01b0390811691168330612b6b565b601354601454919250600091611a59916001600160a01b039081169116600130612b6b565b601554600a54601654929350600092611a849286926001600160a01b03918216929082169116612c1c565b905061125e8282612180565b6006546001600160a01b03163314611aba5760405162461bcd60e51b815260040161041690614aa9565b8015611ac557600080fd5b600f5460408051918252602082018390527f3cc372f330f95ac9540626dc8a25f5bf21ba607215a5d58304cb804d446f104a910160405180910390a1600f55565b600260125403611b285760405162461bcd60e51b815260040161041690614a72565b6002601255611b37333461266d565b6001601255565b42841015611b805760405162461bcd60e51b815260206004820152600f60248201526e1c195c9b5a5d0e8e995e1c1a5c9959608a1b6044820152606401610416565b6001600160a01b038716600090815260056020526040812080547f6e71edae12b1b97f4d1f60370fef10105fa2faae0126114a169c64845d6126c9918a918a918a919086611bcd83614b60565b909155506040805160208101969096526001600160a01b0394851690860152929091166060840152608083015260a082015260c0810186905260e001604051602081830303815290604052805190602001209050611c2e8882868686612cda565b611c3988888861218c565b5050505050505050565b600b546001600160a01b03163314611c945760405162461bcd60e51b81526020600482015260146024820152732cb0b5a9ba3930ba32b3bc9d1d37b7363ca232bb60611b6044820152606401610416565b611ca8838383601792909255601855601a55565b601454604051633af9e66960e01b81523060048201526000916001600160a01b031690633af9e669906024016020604051808303816000875af1158015611cf3573d6000803e3d6000fd5b505050506040513d601f19601f82011682018060405250810190611d179190614b31565b6014546040516305eff7ef60e21b81523060048201529192506000916001600160a01b03909116906317bfdfbc906024016020604051808303816000875af1158015611d67573d6000803e3d6000fd5b505050506040513d601f19601f82011682018060405250810190611d8b9190614b31565b9050611d9a6118928383612661565b6000611da68383612661565b1115611dc057611dc0611db98383612661565b6000612dfd565b5050505050565b6014546040516361bfb47160e11b81523060048201526000918291829182916001600160a01b039091169063c37f68e290602401608060405180830381865afa158015611e18573d6000803e3d6000fd5b505050506040513d601f19601f82011682018060405250810190611e3c9190614afb565b9195509350915060009050611e5d670de0b6b3a7640000610d738685612168565b9050611e7e611e6c8285612661565b610d7383670de0b6b3a7640000612168565b94505050505090565b6000611e9d611e946111c0565b60025490612168565b600003611ea8575090565b611ec1611eb36111c0565b600254610d73908590612168565b92915050565b6006546001600160a01b03163314611ef15760405162461bcd60e51b815260040161041690614aa9565b600d5460408051918252602082018390527fa5dae50539d56dfe1fb5273d883b0c39bc76750a25d036fc5fbd09ad8fd5f57f910160405180910390a1600d55565b6000611f3f611e946111c0565b600003611f4e57506000919050565b611ec1600254610d73611f5f6111c0565b8590612168565b60007f8b73c3c69bb8fe3d512ecc4cf759cc79239f7b179b0ffacaa9a75d522b39400f60001b6000604051611f9b9190614b79565b6040519081900390207fc89efdaa54c0f20c7adf612882df0950f5a951637e0307cdcb4c672f298b8bc646604080516020810195909552840192909252606083015260808201523060a082015260c00160405160208183030381529060405280519060200120905090565b6006546001600160a01b031633146120305760405162461bcd60e51b815260040161041690614aa9565b6001600160a01b0381166120955760405162461bcd60e51b815260206004820152602660248201527f4f776e61626c653a206e6577206f776e657220697320746865207a65726f206160448201526564647265737360d01b6064820152608401610416565b6006546040516001600160a01b038084169216907f8be0079c531659141344cd1fd0a4f28419497f9722a3daafe3b4186f6b6457e090600090a3600680546001600160a01b0319166001600160a01b0392909216919091179055565b3233146121375760405162461bcd60e51b815260206004820152601460248201527359616b53747261746567793a3a6f6e6c79454f4160601b6044820152606401610416565b6002601254036121595760405162461bcd60e51b815260040161041690614a72565b6002601255611b37600061302e565b6000610cca8284614c14565b6000610cca8284614c33565b6000610cca8284614c55565b6001600160a01b0383166121e25760405162461bcd60e51b815260206004820152601c60248201527f5f617070726f76653a3a6f776e6572207a65726f2061646472657373000000006044820152606401610416565b6001600160a01b0382166122385760405162461bcd60e51b815260206004820152601e60248201527f5f617070726f76653a3a7370656e646572207a65726f206164647265737300006044820152606401610416565b6001600160a01b0383811660008181526003602090815260408083209487168084529482529182902085905590518481527f8c5be1e5ebec7d5bd14f71427d1e84f3dd0314c0f7b2291e5b200ac8c7c3b92591015b60405180910390a3505050565b600081848411156122be5760405162461bcd60e51b815260040161041691906147f3565b505050900390565b6001600160a01b0382166123395760405162461bcd60e51b815260206004820152603460248201527f5f7472616e73666572546f6b656e733a2063616e6e6f74207472616e7366657260448201527320746f20746865207a65726f206164647265737360601b6064820152608401610416565b612376816040518060600160405280602e8152602001614ef1602e91396001600160a01b038616600090815260046020526040902054919061229a565b6001600160a01b0380851660009081526004602052604080822093909355908416815220546123a59082612180565b6001600160a01b0380841660008181526004602052604090819020939093559151908516907fddf252ad1be2c89b69c2b068fc378daa952ba7f163c4a11628f55a4df523b3ef9061228d9085815260200190565b6014546040516305eff7ef60e21b815230600482015260009182916001600160a01b03909116906317bfdfbc906024016020604051808303816000875af1158015612448573d6000803e3d6000fd5b505050506040513d601f19601f8201168201806040525081019061246c9190614b31565b601454604051633af9e66960e01b81523060048201529192506000916001600160a01b0390911690633af9e669906024016020604051808303816000875af11580156124bc573d6000803e3d6000fd5b505050506040513d601f19601f820116820180604052508101906124e09190614b31565b90506124ec8183612661565b9250505090565b61253081604051806060016040528060278152602001614eca602791396001600160a01b038516600090815260046020526040902054919061229a565b60046000846001600160a01b03166001600160a01b031681526020019081526020016000208190555061258081604051806060016040528060278152602001614e7460279139600254919061229a565b6002556040518181526000906001600160a01b038416907fddf252ad1be2c89b69c2b068fc378daa952ba7f163c4a11628f55a4df523b3ef906020015b60405180910390a35050565b6125d281612812565b60145460405163852a12e360e01b8152600481018390526001600160a01b039091169063852a12e3906024016020604051808303816000875af115801561261d573d6000803e3d6000fd5b505050506040513d601f19601f820116820180604052508101906126419190614b31565b1561265e5760405162461bcd60e51b815260040161041690614c6d565b50565b6000610cca8284614cae565b600754156126f0573360009081526008602052604090205460ff1615156001146126f05760405162461bcd60e51b815260206004820152602e60248201527f5065726d697373696f6e65643a3a6f6e6c79416c6c6f7765644465706f73697460448201526d1ccb081b9bdd08185b1b1bddd95960921b6064820152608401610416565b600e5460ff1615156001146127475760405162461bcd60e51b815260206004820152601960248201527f42656e7169537472617465677956313a3a5f6465706f736974000000000000006044820152606401610416565b600d5415612770576000612759611a11565b9050600d5481111561276e5761276e8261302e565b505b80600061277b6123f9565b905060006127948260025461216890919063ffffffff16565b11156127b6576127b381610d736002548661216890919063ffffffff16565b91505b6127c08483613479565b6127c9836134fd565b836001600160a01b03167fe1fffcc4923d04b559f4d29a8bfc6cda04eb5b0d3c460751c2402c5c5cc9109c8460405161280491815260200190565b60405180910390a250505050565b6014546040516305eff7ef60e21b81523060048201526000916001600160a01b0316906317bfdfbc906024016020604051808303816000875af115801561285d573d6000803e3d6000fd5b505050506040513d601f19601f820116820180604052508101906128819190614b31565b601454604051633af9e66960e01b81523060048201529192506000916001600160a01b0390911690633af9e669906024016020604051808303816000875af11580156128d1573d6000803e3d6000fd5b505050506040513d601f19601f820116820180604052508101906128f59190614b31565b9050600061292d61290a856112588587612661565b611258601854610d73601754610d6d8a6112588b8b61266190919063ffffffff16565b9050600061293b8483612661565b90506000806129486136b8565b915091505b8215612b6257600061296186888585613740565b90508381111561296e5750825b60145460405163852a12e360e01b8152600481018390526001600160a01b039091169063852a12e3906024016020604051808303816000875af11580156129b9573d6000803e3d6000fd5b505050506040513d601f19601f820116820180604052508101906129dd9190614b31565b156129fa5760405162461bcd60e51b815260040161041690614c6d565b601460009054906101000a90046001600160a01b03166001600160a01b0316634e4d9fea826040518263ffffffff1660e01b81526004016000604051808303818588803b158015612a4a57600080fd5b505af1158015612a5e573d6000803e3d6000fd5b5050601454604051633af9e66960e01b81523060048201526001600160a01b039091169350633af9e669925060240190506020604051808303816000875af1158015612aae573d6000803e3d6000fd5b505050506040513d601f19601f82011682018060405250810190612ad29190614b31565b6014546040516305eff7ef60e21b81523060048201529197506001600160a01b0316906317bfdfbc906024016020604051808303816000875af1158015612b1d573d6000803e3d6000fd5b505050506040513d601f19601f82011682018060405250810190612b419190614b31565b9650868510612b505750612b62565b612b5a8786612661565b93505061294d565b50505050505050565b6040516305b9783d60e01b815260ff831660048201526001600160a01b03828116602483015260009182918716906305b9783d90604401602060405180830381865afa158015612bbf573d6000803e3d6000fd5b505050506040513d601f19601f82011682018060405250810190612be39190614b31565b9050612c10612bf487878787613778565b612c0a612c0389898989613956565b8490612180565b90612180565b9150505b949350505050565b600080612c298585613ad1565b509050600080846001600160a01b0316630902f1ac6040518163ffffffff1660e01b8152600401606060405180830381865afa158015612c6d573d6000803e3d6000fd5b505050506040513d601f19601f82011682018060405250810190612c919190614cf0565b5091509150866001600160a01b0316836001600160a01b031614612cb157905b612cce88836001600160701b0316836001600160701b0316613b02565b98975050505050505050565b6000612ce4611f66565b60405161190160f01b602082015260228101919091526042810186905260620160408051601f198184030181528282528051602091820120600080855291840180845281905260ff88169284019290925260608301869052608083018590529092509060019060a0016020604051602081039080840390855afa158015612d6f573d6000803e3d6000fd5b5050604051601f1901519150506001600160a01b03811615801590612da55750866001600160a01b0316816001600160a01b0316145b612b625760405162461bcd60e51b8152602060048201526024808201527f417263683a3a76616c69646174655369673a20696e76616c6964207369676e616044820152637475726560e01b6064820152608401610416565b600080612e086136b8565b9150915060008490506000612e32601854610d73601754610d6d898b61266190919063ffffffff16565b9050845b81831015612b62576000612e4c84838888613b4a565b905082612e598583612180565b1115612e6c57612e698385612661565b90505b601954811015612e7c5750612b62565b60145460405163317afabb60e21b8152600481018390526001600160a01b039091169063c5ebeaec906024016020604051808303816000875af1158015612ec7573d6000803e3d6000fd5b505050506040513d601f19601f82011682018060405250810190612eeb9190614b31565b15612f425760405162461bcd60e51b815260206004820152602160248201527f42656e7169537472617465677956313a3a626f72726f77696e67206661696c656044820152601960fa1b6064820152608401610416565b601460009054906101000a90046001600160a01b03166001600160a01b0316631249c58b826040518263ffffffff1660e01b81526004016000604051808303818588803b158015612f9257600080fd5b505af1158015612fa6573d6000803e3d6000fd5b5050601454604051633af9e66960e01b81523060048201526001600160a01b039091169350633af9e669925060240190506020604051808303816000875af1158015612ff6573d6000803e3d6000fd5b505050506040513d601f19601f8201168201806040525081019061301a9190614b31565b93506130268282612180565b915050612e36565b60408051600180825281830190925260009160208083019080368337505060145482519293506001600160a01b03169183915060009061307057613070614d33565b6001600160a01b039283166020918202929092010152601354604051633a22995760e11b815291169063744532ae906130b29060009030908690600401614d8d565b600060405180830381600087803b1580156130cc57600080fd5b505af11580156130e0573d6000803e3d6000fd5b5050601354604051633a22995760e11b81526001600160a01b03909116925063744532ae91506131199060019030908690600401614d8d565b600060405180830381600087803b15801561313357600080fd5b505af1158015613147573d6000803e3d6000fd5b50479250613159915082905084612661565b905080156131ca5773b31f66aa3c1e785363f0875a1b74e27b85fd66c76001600160a01b031663d0e30db0826040518263ffffffff1660e01b81526004016000604051808303818588803b1580156131b057600080fd5b505af11580156131c4573d6000803e3d6000fd5b50505050505b6015546040516370a0823160e01b81523060048201526000916001600160a01b0316906370a0823190602401602060405180830381865afa158015613213573d6000803e3d6000fd5b505050506040513d601f19601f820116820180604052508101906132379190614b31565b9050801561326657601554600a546016546132649284926001600160a01b03918216929082169116613b5e565b505b600a546040516370a0823160e01b81523060048201526000916001600160a01b0316906370a0823190602401602060405180830381865afa1580156132af573d6000803e3d6000fd5b505050506040513d601f19601f820116820180604052508101906132d39190614b31565b90508460000361332f57600c5481101561332f5760405162461bcd60e51b815260206004820152601960248201527f42656e7169537472617465677956333a3a7265696e76657374000000000000006044820152606401610416565b600061334c612710610d736011548561216890919063ffffffff16565b9050600061336b612710610d736010548661216890919063ffffffff16565b9050811561339057600a54600b54613390916001600160a01b03908116911684613ccf565b80156133ad57600a546133ad906001600160a01b03163383613ccf565b6133bb816112588585612661565b604051632e1a7d4d60e01b81526004810182905290935073b31f66aa3c1e785363f0875a1b74e27b85fd66c790632e1a7d4d90602401600060405180830381600087803b15801561340b57600080fd5b505af115801561341f573d6000803e3d6000fd5b5050505061342c836134fd565b7fc7606d21ac05cd309191543e409f0845c016120563783d70e4f41419dc0ef2346134556111c0565b6002546040805192835260208301919091520160405180910390a150505050505050565b6002546134869082612180565b6002556001600160a01b0382166000908152600460205260409020546134ac9082612180565b6001600160a01b0383166000818152600460205260408082209390935591519091907fddf252ad1be2c89b69c2b068fc378daa952ba7f163c4a11628f55a4df523b3ef906125bd9085815260200190565b600081116135595760405162461bcd60e51b8152602060048201526024808201527f42656e7169537472617465677956313a3a5f7374616b654465706f736974546f6044820152636b656e7360e01b6064820152608401610416565b601460009054906101000a90046001600160a01b03166001600160a01b0316631249c58b826040518263ffffffff1660e01b81526004016000604051808303818588803b1580156135a957600080fd5b505af11580156135bd573d6000803e3d6000fd5b50506014546040516305eff7ef60e21b8152306004820152600094506001600160a01b0390911692506317bfdfbc91506024016020604051808303816000875af115801561360f573d6000803e3d6000fd5b505050506040513d601f19601f820116820180604052508101906136339190614b31565b601454604051633af9e66960e01b81523060048201529192506000916001600160a01b0390911690633af9e669906024016020604051808303816000875af1158015613683573d6000803e3d6000fd5b505050506040513d601f19601f820116820180604052508101906136a79190614b31565b90506136b38183612dfd565b505050565b601354601454604051638e8f294b60e01b81526001600160a01b03918216600482015260009283928392911690638e8f294b906024016040805180830381865afa15801561370a573d6000803e3d6000fd5b505050506040513d601f19601f8201168201806040525081019061372e9190614dba565b94670de0b6b3a7640000945092505050565b600061376f601854610d73601a54610d6d61376888610d73898c61216890919063ffffffff16565b8a90612661565b95945050505050565b604080516020810191829052637937969d60e01b90915260ff831660248201526001600160a01b0384811660448301528281166064830152600091829181908816637937969d60848301602060405180830381865afa1580156137df573d6000803e3d6000fd5b505050506040513d601f19601f820116820180604052508101906138039190614b31565b90528051600093509091501561394d5760006040518060200160405280876001600160a01b031663aa5af0fd6040518163ffffffff1660e01b8152600401602060405180830381865afa15801561385e573d6000803e3d6000fd5b505050506040513d601f19601f820116820180604052508101906138829190614b31565b8152509050600060405180602001604052806138a08a8a8a87613d9c565b6001600160e01b0316905280519091501561394a5760006138c18285613fec565b6040516395dd919360e01b8152306004820152909150600090613939906001600160a01b038b16906395dd919390602401602060405180830381865afa15801561390f573d6000803e3d6000fd5b505050506040513d601f19601f820116820180604052508101906139339190614b31565b85614021565b9050613945818361403f565b955050505b50505b50949350505050565b600080604051806020016040528061396f888888614069565b6001600160e01b0316905260408051602081019182905263111d2e5760e31b90915260ff861660248201526001600160a01b0387811660448301528581166064830152919250600091819089166388e972b860848301602060405180830381865afa1580156139e2573d6000803e3d6000fd5b505050506040513d601f19601f82011682018060405250810190613a069190614b31565b90528051909150158015613a1a5750815115155b15613a32576ec097ce7bc90715b34b9f100000000081525b8151600090613a505760405180602001604052806000815250613a5a565b613a5a8383613fec565b6040516370a0823160e01b81526001600160a01b038781166004830152919250612cce918916906370a0823190602401602060405180830381865afa158015613aa7573d6000803e3d6000fd5b505050506040513d601f19601f82011682018060405250810190613acb9190614b31565b8261403f565b600080826001600160a01b0316846001600160a01b031610613af4578284613af7565b83835b915091509250929050565b600080613b11856103e5612168565b90506000613b1f8285612168565b90506000613b3383612c0a886103e8612168565b9050613b3f8282612174565b979650505050505050565b600061376f8461125884610d738988612168565b600080613b6b8585613ad1565b509050600080846001600160a01b0316630902f1ac6040518163ffffffff1660e01b8152600401606060405180830381865afa158015613baf573d6000803e3d6000fd5b505050506040513d601f19601f82011682018060405250810190613bd39190614cf0565b5091509150866001600160a01b0316836001600160a01b031614613bf357905b600080613c138a856001600160701b0316856001600160701b0316613b02565b9050886001600160a01b0316856001600160a01b031614613c3057905b613c446001600160a01b038a16888c6142af565b6040805160008152602081019182905263022c0d9f60e01b9091526001600160a01b0388169063022c0d9f90613c839085908590309060248101614de8565b600060405180830381600087803b158015613c9d57600080fd5b505af1158015613cb1573d6000803e3d6000fd5b50505050818111613cc25781613945565b9998505050505050505050565b60405163a9059cbb60e01b81526001600160a01b0383811660048301526024820183905284169063a9059cbb906044016020604051808303816000875af1158015613d1e573d6000803e3d6000fd5b505050506040513d601f19601f82011682018060405250810190613d429190614ade565b6136b35760405162461bcd60e51b815260206004820152602560248201527f42656e7169537472617465677956313a3a5452414e534645525f46524f4d5f46604482015264105253115160da1b6064820152608401610416565b6040516312ce829d60e21b815260ff831660048201526001600160a01b0384811660248301526000918291829190881690634b3a0a74906044016040805180830381865afa158015613df2573d6000803e3d6000fd5b505050506040513d601f19601f82011682018060405250810190613e169190614e1f565b6040516361bb7d6d60e11b815260ff881660048201526001600160a01b03898116602483015292945063ffffffff91909116925060009189169063c376fada90604401602060405180830381865afa158015613e76573d6000803e3d6000fd5b505050506040513d601f19601f82011682018060405250810190613e9a9190614b31565b90506000613ea84284614301565b9050600081118015613eba5750600082115b15613fdd576000613f2c896001600160a01b03166347bd37186040518163ffffffff1660e01b8152600401602060405180830381865afa158015613f02573d6000803e3d6000fd5b505050506040513d601f19601f82011682018060405250810190613f269190614b31565b88614021565b90506000613f3a838561433b565b90506000808311613f5a5760405180602001604052806000815250613f64565b613f64828461437d565b90506000613f8960405180602001604052808a6001600160e01b0316815250836143b9565b9050613fce81600001516040518060400160405280601a81526020017f6e657720696e64657820657863656564732032323420626974730000000000008152506143e5565b98505050505050505050612c14565b50600098975050505050505050565b604080516020810190915260008152604051806020016040528061401885600001518560000151614301565b90529392505050565b6000610cca61403884670de0b6b3a764000061433b565b8351614414565b60006ec097ce7bc90715b34b9f100000000061405f84846000015161433b565b610cca9190614c33565b60405163d81c5e4560e01b815260ff821660048201526001600160a01b038381166024830152600091829182919087169063d81c5e45906044016040805180830381865afa1580156140bf573d6000803e3d6000fd5b505050506040513d601f19601f820116820180604052508101906140e39190614e1f565b60405163cf9cfb6160e01b815260ff871660048201526001600160a01b03888116602483015292945063ffffffff91909116925060009188169063cf9cfb6190604401602060405180830381865afa158015614143573d6000803e3d6000fd5b505050506040513d601f19601f820116820180604052508101906141679190614b31565b905060006141754284614301565b90506000811180156141875750600082115b156142a1576000876001600160a01b03166318160ddd6040518163ffffffff1660e01b8152600401602060405180830381865afa1580156141cc573d6000803e3d6000fd5b505050506040513d601f19601f820116820180604052508101906141f09190614b31565b905060006141fe838561433b565b9050600080831161421e5760405180602001604052806000815250614228565b614228828461437d565b9050600061424d60405180602001604052808a6001600160e01b0316815250836143b9565b905061429281600001516040518060400160405280601a81526020017f6e657720696e64657820657863656564732032323420626974730000000000008152506143e5565b98505050505050505050610cca565b506000979650505050505050565b604080516001600160a01b038416602482015260448082018490528251808303909101815260649091019091526020810180516001600160e01b031663a9059cbb60e01b1790526136b3908490614447565b6000610cca8383604051806040016040528060158152602001747375627472616374696f6e20756e646572666c6f7760581b815250614519565b6000610cca83836040518060400160405280601781526020017f6d756c7469706c69636174696f6e206f766572666c6f77000000000000000000815250614548565b60408051602081019091526000815260405180602001604052806140186143b3866ec097ce7bc90715b34b9f100000000061433b565b85614414565b60408051602081019091526000815260405180602001604052806140188560000151856000015161459b565b600081600160e01b841061440c5760405162461bcd60e51b815260040161041691906147f3565b509192915050565b6000610cca83836040518060400160405280600e81526020016d646976696465206279207a65726f60901b8152506145d1565b600061449c826040518060400160405280602081526020017f5361666545524332303a206c6f772d6c6576656c2063616c6c206661696c6564815250856001600160a01b03166145fd9092919063ffffffff16565b8051909150156136b357808060200190518101906144ba9190614ade565b6136b35760405162461bcd60e51b815260206004820152602a60248201527f5361666545524332303a204552433230206f7065726174696f6e20646964206e6044820152691bdd081cdd58d8d9595960b21b6064820152608401610416565b6000818484111561453d5760405162461bcd60e51b815260040161041691906147f3565b50612c148385614cae565b6000831580614555575082155b1561456257506000610cca565b600061456e8486614c14565b90508361457b8683614c33565b14839061394d5760405162461bcd60e51b815260040161041691906147f3565b6000610cca8383604051806040016040528060118152602001706164646974696f6e206f766572666c6f7760781b81525061460c565b600081836145f25760405162461bcd60e51b815260040161041691906147f3565b50612c148385614c33565b6060612c14848460008561463d565b6000806146198486614c55565b9050828582101561394d5760405162461bcd60e51b815260040161041691906147f3565b60608247101561469e5760405162461bcd60e51b815260206004820152602660248201527f416464726573733a20696e73756666696369656e742062616c616e636520666f6044820152651c8818d85b1b60d21b6064820152608401610416565b6001600160a01b0385163b6146f55760405162461bcd60e51b815260206004820152601d60248201527f416464726573733a2063616c6c20746f206e6f6e2d636f6e74726163740000006044820152606401610416565b600080866001600160a01b031685876040516147119190614e57565b60006040518083038185875af1925050503d806000811461474e576040519150601f19603f3d011682016040523d82523d6000602084013e614753565b606091505b5091509150613b3f8282866060831561476d575081610cca565b82511561477d5782518084602001fd5b8160405162461bcd60e51b815260040161041691906147f3565b60005b838110156147b257818101518382015260200161479a565b838111156147c1576000848401525b50505050565b600081518084526147df816020860160208601614797565b601f01601f19169290920160200192915050565b602081526000610cca60208301846147c7565b80356001600160a01b038116811461481d57600080fd5b919050565b6000806040838503121561483557600080fd5b61483e83614806565b946020939093013593505050565b60008060006060848603121561486157600080fd5b61486a84614806565b925061487860208501614806565b9150604084013590509250925092565b60006020828403121561489a57600080fd5b5035919050565b6000602082840312156148b357600080fd5b610cca82614806565b803560ff8116811461481d57600080fd5b600080600080600060a086880312156148e557600080fd5b85359450602086013593506148fc604087016148bc565b94979396509394606081013594506080013592915050565b801515811461265e57600080fd5b60006020828403121561493457600080fd5b8135610cca81614914565b6000806040838503121561495257600080fd5b61495b83614806565b915061496960208401614806565b90509250929050565b6000806040838503121561498557600080fd5b82359150602083013561499781614914565b809150509250929050565b600080600080600080600060e0888a0312156149bd57600080fd5b6149c688614806565b96506149d460208901614806565b955060408801359450606088013593506149f0608089016148bc565b925060a0880135915060c0880135905092959891949750929550565b600080600060608486031215614a2157600080fd5b505081359360208301359350604090920135919050565b600181811c90821680614a4c57607f821691505b602082108103614a6c57634e487b7160e01b600052602260045260246000fd5b50919050565b6020808252601f908201527f5265656e7472616e637947756172643a207265656e7472616e742063616c6c00604082015260600190565b6020808252818101527f4f776e61626c653a2063616c6c6572206973206e6f7420746865206f776e6572604082015260600190565b600060208284031215614af057600080fd5b8151610cca81614914565b60008060008060808587031215614b1157600080fd5b505082516020840151604085015160609095015191969095509092509050565b600060208284031215614b4357600080fd5b5051919050565b634e487b7160e01b600052601160045260246000fd5b600060018201614b7257614b72614b4a565b5060010190565b600080835481600182811c915080831680614b9557607f831692505b60208084108203614bb457634e487b7160e01b86526022600452602486fd5b818015614bc85760018114614bd957614c06565b60ff19861689528489019650614c06565b60008a81526020902060005b86811015614bfe5781548b820152908501908301614be5565b505084890196505b509498975050505050505050565b6000816000190483118215151615614c2e57614c2e614b4a565b500290565b600082614c5057634e487b7160e01b600052601260045260246000fd5b500490565b60008219821115614c6857614c68614b4a565b500190565b60208082526021908201527f42656e7169537472617465677956323a3a6661696c656420746f2072656465656040820152606d60f81b606082015260800190565b600082821015614cc057614cc0614b4a565b500390565b80516001600160701b038116811461481d57600080fd5b805163ffffffff8116811461481d57600080fd5b600080600060608486031215614d0557600080fd5b614d0e84614cc5565b9250614d1c60208501614cc5565b9150614d2a60408501614cdc565b90509250925092565b634e487b7160e01b600052603260045260246000fd5b600081518084526020808501945080840160005b83811015614d825781516001600160a01b031687529582019590820190600101614d5d565b509495945050505050565b60ff841681526001600160a01b038316602082015260606040820181905260009061376f90830184614d49565b60008060408385031215614dcd57600080fd5b8251614dd881614914565b6020939093015192949293505050565b84815283602082015260018060a01b0383166040820152608060608201526000614e1560808301846147c7565b9695505050505050565b60008060408385031215614e3257600080fd5b82516001600160e01b0381168114614e4957600080fd5b915061496960208401614cdc565b60008251614e69818460208701614797565b919091019291505056fe5f6275726e3a206275726e20616d6f756e74206578636565647320746f74616c20737570706c797472616e7366657246726f6d3a207472616e7366657220616d6f756e74206578636565647320616c6c6f77616e63655f6275726e3a206275726e20616d6f756e7420657863656564732066726f6d2062616c616e63655f7472616e73666572546f6b656e733a207472616e7366657220657863656564732066726f6d2062616c616e6365a264697066735822122000c02c3ba83d97da21149b4ade257587547ae6363299ee716be7afa56dada3ca64736f6c634300080d00334f776e61626c653a2063616c6c6572206973206e6f7420746865206f776e65728be0079c531659141344cd1fd0a4f28419497f9722a3daafe3b4186f6b6457e0",
    "linkReferences": {}
  },
  "methodIdentifiers": {
    "ADMIN_FEE_BIPS()": "07677111",
    "DEPOSITS_ENABLED()": "b52a321f",
    "DEV_FEE_BIPS()": "5ea682ea",
    "DOMAIN_TYPEHASH()": "20606b70",
    "MAX_TOKENS_TO_DEPOSIT_WITHOUT_REINVEST()": "789139bc",
    "MIN_TOKENS_TO_REINVEST()": "bd079f55",
    "PERMIT_TYPEHASH()": "30adf81f",
    "REINVEST_REWARD_BIPS()": "8aff733d",
    "VERSION_HASH()": "9e4e7318",
    "allowDepositor(address)": "4bebd1e7",
    "allowance(address,address)": "dd62ed3e",
    "allowedDepositors(address)": "483c2ef0",
    "approve(address,uint256)": "095ea7b3",
    "balanceOf(address)": "70a08231",
    "checkReward()": "c4b24a46",
    "decimals()": "313ce567",
    "deposit()": "d0e30db0",
    "deposit(uint256)": "b6b55f25",
    "depositFor(address)": "aa67c919",
    "depositFor(address,uint256)": "2f4f21e2",
    "depositToken()": "c89039c5",
    "depositWithPermit(uint256,uint256,uint8,bytes32,bytes32)": "4a970be7",
    "devAddr()": "da09c72c",
    "estimateDeployedBalance()": "0f23475d",
    "estimateReinvestReward()": "b9e57b80",
    "getActualLeverage()": "db8dd95c",
    "getDepositTokensForShares(uint256)": "eab89a5a",
    "getDomainSeparator()": "ed24911d",
    "getSharesForDepositTokens(uint256)": "dd8ce4d6",
    "name()": "06fdde03",
    "nonces(address)": "7ecebe00",
    "numberOfAllowedDepositors()": "3bdc6e72",
    "owner()": "8da5cb5b",
    "permit(address,address,uint256,uint256,uint8,bytes32,bytes32)": "d505accf",
    "recoverAVAX(uint256)": "4ebb7916",
    "recoverERC20(address,uint256)": "8980f11f",
    "reinvest()": "fdb5a03e",
    "removeDepositor(address)": "8b73e606",
    "renounceOwnership()": "715018a6",
    "rescueDeployedFunds(uint256,bool)": "ac0d31ff",
    "revokeAllowance(address,address)": "7ae26773",
    "rewardToken()": "f7c618c1",
    "symbol()": "95d89b41",
    "totalDeposits()": "7d882097",
    "totalSupply()": "18160ddd",
    "transfer(address,uint256)": "a9059cbb",
    "transferFrom(address,address,uint256)": "23b872dd",
    "transferOwnership(address)": "f2fde38b",
    "updateAdminFee(uint256)": "cff1b6ef",
    "updateDepositsEnabled(bool)": "4e77ace5",
    "updateDevAddr(address)": "9291d563",
    "updateDevFee(uint256)": "99729ec1",
    "updateLeverage(uint256,uint256,uint256)": "d6ec2a49",
    "updateMaxTokensToDepositWithoutReinvest(uint256)": "e21ac825",
    "updateMinTokensToReinvest(uint256)": "81837230",
    "updateReinvestReward(uint256)": "a8ae2b7c",
    "withdraw(uint256)": "2e1a7d4d"
  },
  "id": 57
}