{
  "abi": [
    {
      "inputs": [
        {
          "internalType": "string",
          "name": "_name",
          "type": "string"
        },
        {
          "internalType": "address",
          "name": "_depositToken",
          "type": "address"
        },
        {
          "internalType": "address",
          "name": "_swapPairToken",
          "type": "address"
        },
        {
          "internalType": "address",
          "name": "_poolRewardToken",
          "type": "address"
        },
        {
          "internalType": "address",
          "name": "_swapPairPoolReward",
          "type": "address"
        },
        {
          "internalType": "address",
          "name": "_swapPairExtraReward",
          "type": "address"
        },
        {
          "internalType": "address",
          "name": "_stakingRewards",
          "type": "address"
        },
        {
          "internalType": "uint256",
          "name": "_pid",
          "type": "uint256"
        },
        {
          "internalType": "address",
          "name": "_timelock",
          "type": "address"
        },
        {
          "components": [
            {
              "internalType": "uint256",
              "name": "minTokensToReinvest",
              "type": "uint256"
            },
            {
              "internalType": "uint256",
              "name": "devFeeBips",
              "type": "uint256"
            },
            {
              "internalType": "uint256",
              "name": "reinvestRewardBips",
              "type": "uint256"
            }
          ],
          "internalType": "struct YakStrategyV2.StrategySettings",
          "name": "_strategySettings",
          "type": "tuple"
        }
      ],
      "stateMutability": "nonpayable",
      "type": "constructor"
    },
    {
      "anonymous": false,
      "inputs": [
        {
          "indexed": true,
          "internalType": "address",
          "name": "account",
          "type": "address"
        }
      ],
      "name": "AllowDepositor",
      "type": "event"
    },
    {
      "anonymous": false,
      "inputs": [
        {
          "indexed": true,
          "internalType": "address",
          "name": "owner",
          "type": "address"
        },
        {
          "indexed": true,
          "internalType": "address",
          "name": "spender",
          "type": "address"
        },
        {
          "indexed": false,
          "internalType": "uint256",
          "name": "value",
          "type": "uint256"
        }
      ],
      "name": "Approval",
      "type": "event"
    },
    {
      "anonymous": false,
      "inputs": [
        {
          "indexed": true,
          "internalType": "address",
          "name": "account",
          "type": "address"
        },
        {
          "indexed": false,
          "internalType": "uint256",
          "name": "amount",
          "type": "uint256"
        }
      ],
      "name": "Deposit",
      "type": "event"
    },
    {
      "anonymous": false,
      "inputs": [
        {
          "indexed": false,
          "internalType": "bool",
          "name": "newValue",
          "type": "bool"
        }
      ],
      "name": "DepositsEnabled",
      "type": "event"
    },
    {
      "anonymous": false,
      "inputs": [
        {
          "indexed": true,
          "internalType": "address",
          "name": "previousOwner",
          "type": "address"
        },
        {
          "indexed": true,
          "internalType": "address",
          "name": "newOwner",
          "type": "address"
        }
      ],
      "name": "OwnershipTransferred",
      "type": "event"
    },
    {
      "anonymous": false,
      "inputs": [
        {
          "indexed": false,
          "internalType": "address",
          "name": "token",
          "type": "address"
        },
        {
          "indexed": false,
          "internalType": "uint256",
          "name": "amount",
          "type": "uint256"
        }
      ],
      "name": "Recovered",
      "type": "event"
    },
    {
      "anonymous": false,
      "inputs": [
        {
          "indexed": false,
          "internalType": "uint256",
          "name": "newTotalDeposits",
          "type": "uint256"
        },
        {
          "indexed": false,
          "internalType": "uint256",
          "name": "newTotalSupply",
          "type": "uint256"
        }
      ],
      "name": "Reinvest",
      "type": "event"
    },
    {
      "anonymous": false,
      "inputs": [
        {
          "indexed": true,
          "internalType": "address",
          "name": "account",
          "type": "address"
        }
      ],
      "name": "RemoveDepositor",
      "type": "event"
    },
    {
      "anonymous": false,
      "inputs": [
        {
          "indexed": true,
          "internalType": "address",
          "name": "from",
          "type": "address"
        },
        {
          "indexed": true,
          "internalType": "address",
          "name": "to",
          "type": "address"
        },
        {
          "indexed": false,
          "internalType": "uint256",
          "name": "value",
          "type": "uint256"
        }
      ],
      "name": "Transfer",
      "type": "event"
    },
    {
      "anonymous": false,
      "inputs": [
        {
          "indexed": false,
          "internalType": "uint256",
          "name": "oldValue",
          "type": "uint256"
        },
        {
          "indexed": false,
          "internalType": "uint256",
          "name": "newValue",
          "type": "uint256"
        }
      ],
      "name": "UpdateAdminFee",
      "type": "event"
    },
    {
      "anonymous": false,
      "inputs": [
        {
          "indexed": false,
          "internalType": "address",
          "name": "oldValue",
          "type": "address"
        },
        {
          "indexed": false,
          "internalType": "address",
          "name": "newValue",
          "type": "address"
        }
      ],
      "name": "UpdateDevAddr",
      "type": "event"
    },
    {
      "anonymous": false,
      "inputs": [
        {
          "indexed": false,
          "internalType": "uint256",
          "name": "oldValue",
          "type": "uint256"
        },
        {
          "indexed": false,
          "internalType": "uint256",
          "name": "newValue",
          "type": "uint256"
        }
      ],
      "name": "UpdateDevFee",
      "type": "event"
    },
    {
      "anonymous": false,
      "inputs": [
        {
          "indexed": false,
          "internalType": "uint256",
          "name": "oldValue",
          "type": "uint256"
        },
        {
          "indexed": false,
          "internalType": "uint256",
          "name": "newValue",
          "type": "uint256"
        }
      ],
      "name": "UpdateMaxTokensToDepositWithoutReinvest",
      "type": "event"
    },
    {
      "anonymous": false,
      "inputs": [
        {
          "indexed": false,
          "internalType": "uint256",
          "name": "oldValue",
          "type": "uint256"
        },
        {
          "indexed": false,
          "internalType": "uint256",
          "name": "newValue",
          "type": "uint256"
        }
      ],
      "name": "UpdateMinTokensToReinvest",
      "type": "event"
    },
    {
      "anonymous": false,
      "inputs": [
        {
          "indexed": false,
          "internalType": "uint256",
          "name": "oldValue",
          "type": "uint256"
        },
        {
          "indexed": false,
          "internalType": "uint256",
          "name": "newValue",
          "type": "uint256"
        }
      ],
      "name": "UpdateReinvestReward",
      "type": "event"
    },
    {
      "anonymous": false,
      "inputs": [
        {
          "indexed": true,
          "internalType": "address",
          "name": "account",
          "type": "address"
        },
        {
          "indexed": false,
          "internalType": "uint256",
          "name": "amount",
          "type": "uint256"
        }
      ],
      "name": "Withdraw",
      "type": "event"
    },
    {
      "inputs": [],
      "name": "ADMIN_FEE_BIPS",
      "outputs": [
        {
          "internalType": "uint256",
          "name": "",
          "type": "uint256"
        }
      ],
      "stateMutability": "view",
      "type": "function"
    },
    {
      "inputs": [],
      "name": "DEPOSITS_ENABLED",
      "outputs": [
        {
          "internalType": "bool",
          "name": "",
          "type": "bool"
        }
      ],
      "stateMutability": "view",
      "type": "function"
    },
    {
      "inputs": [],
      "name": "DEV_FEE_BIPS",
      "outputs": [
        {
          "internalType": "uint256",
          "name": "",
          "type": "uint256"
        }
      ],
      "stateMutability": "view",
      "type": "function"
    },
    {
      "inputs": [],
      "name": "DOMAIN_TYPEHASH",
      "outputs": [
        {
          "internalType": "bytes32",
          "name": "",
          "type": "bytes32"
        }
      ],
      "stateMutability": "view",
      "type": "function"
    },
    {
      "inputs": [],
      "name": "MAX_TOKENS_TO_DEPOSIT_WITHOUT_REINVEST",
      "outputs": [
        {
          "internalType": "uint256",
          "name": "",
          "type": "uint256"
        }
      ],
      "stateMutability": "view",
      "type": "function"
    },
    {
      "inputs": [],
      "name": "MIN_TOKENS_TO_REINVEST",
      "outputs": [
        {
          "internalType": "uint256",
          "name": "",
          "type": "uint256"
        }
      ],
      "stateMutability": "view",
      "type": "function"
    },
    {
      "inputs": [],
      "name": "PERMIT_TYPEHASH",
      "outputs": [
        {
          "internalType": "bytes32",
          "name": "",
          "type": "bytes32"
        }
      ],
      "stateMutability": "view",
      "type": "function"
    },
    {
      "inputs": [],
      "name": "PID",
      "outputs": [
        {
          "internalType": "uint256",
          "name": "",
          "type": "uint256"
        }
      ],
      "stateMutability": "view",
      "type": "function"
    },
    {
      "inputs": [],
      "name": "REINVEST_REWARD_BIPS",
      "outputs": [
        {
          "internalType": "uint256",
          "name": "",
          "type": "uint256"
        }
      ],
      "stateMutability": "view",
      "type": "function"
    },
    {
      "inputs": [],
      "name": "VERSION_HASH",
      "outputs": [
        {
          "internalType": "bytes32",
          "name": "",
          "type": "bytes32"
        }
      ],
      "stateMutability": "view",
      "type": "function"
    },
    {
      "inputs": [
        {
          "internalType": "address",
          "name": "depositor",
          "type": "address"
        }
      ],
      "name": "allowDepositor",
      "outputs": [],
      "stateMutability": "nonpayable",
      "type": "function"
    },
    {
      "inputs": [
        {
          "internalType": "address",
          "name": "account",
          "type": "address"
        },
        {
          "internalType": "address",
          "name": "spender",
          "type": "address"
        }
      ],
      "name": "allowance",
      "outputs": [
        {
          "internalType": "uint256",
          "name": "",
          "type": "uint256"
        }
      ],
      "stateMutability": "view",
      "type": "function"
    },
    {
      "inputs": [
        {
          "internalType": "address",
          "name": "",
          "type": "address"
        }
      ],
      "name": "allowedDepositors",
      "outputs": [
        {
          "internalType": "bool",
          "name": "",
          "type": "bool"
        }
      ],
      "stateMutability": "view",
      "type": "function"
    },
    {
      "inputs": [
        {
          "internalType": "address",
          "name": "spender",
          "type": "address"
        },
        {
          "internalType": "uint256",
          "name": "amount",
          "type": "uint256"
        }
      ],
      "name": "approve",
      "outputs": [
        {
          "internalType": "bool",
          "name": "",
          "type": "bool"
        }
      ],
      "stateMutability": "nonpayable",
      "type": "function"
    },
    {
      "inputs": [
        {
          "internalType": "address",
          "name": "account",
          "type": "address"
        }
      ],
      "name": "balanceOf",
      "outputs": [
        {
          "internalType": "uint256",
          "name": "",
          "type": "uint256"
        }
      ],
      "stateMutability": "view",
      "type": "function"
    },
    {
      "inputs": [],
      "name": "checkReward",
      "outputs": [
        {
          "internalType": "uint256",
          "name": "",
          "type": "uint256"
        }
      ],
      "stateMutability": "view",
      "type": "function"
    },
    {
      "inputs": [],
      "name": "decimals",
      "outputs": [
        {
          "internalType": "uint8",
          "name": "",
          "type": "uint8"
        }
      ],
      "stateMutability": "view",
      "type": "function"
    },
    {
      "inputs": [
        {
          "internalType": "uint256",
          "name": "amount",
          "type": "uint256"
        }
      ],
      "name": "deposit",
      "outputs": [],
      "stateMutability": "nonpayable",
      "type": "function"
    },
    {
      "inputs": [
        {
          "internalType": "address",
          "name": "account",
          "type": "address"
        },
        {
          "internalType": "uint256",
          "name": "amount",
          "type": "uint256"
        }
      ],
      "name": "depositFor",
      "outputs": [],
      "stateMutability": "nonpayable",
      "type": "function"
    },
    {
      "inputs": [],
      "name": "depositToken",
      "outputs": [
        {
          "internalType": "contract IERC20",
          "name": "",
          "type": "address"
        }
      ],
      "stateMutability": "view",
      "type": "function"
    },
    {
      "inputs": [
        {
          "internalType": "uint256",
          "name": "amount",
          "type": "uint256"
        },
        {
          "internalType": "uint256",
          "name": "deadline",
          "type": "uint256"
        },
        {
          "internalType": "uint8",
          "name": "v",
          "type": "uint8"
        },
        {
          "internalType": "bytes32",
          "name": "r",
          "type": "bytes32"
        },
        {
          "internalType": "bytes32",
          "name": "s",
          "type": "bytes32"
        }
      ],
      "name": "depositWithPermit",
      "outputs": [],
      "stateMutability": "nonpayable",
      "type": "function"
    },
    {
      "inputs": [],
      "name": "devAddr",
      "outputs": [
        {
          "internalType": "address",
          "name": "",
          "type": "address"
        }
      ],
      "stateMutability": "view",
      "type": "function"
    },
    {
      "inputs": [],
      "name": "estimateDeployedBalance",
      "outputs": [
        {
          "internalType": "uint256",
          "name": "",
          "type": "uint256"
        }
      ],
      "stateMutability": "view",
      "type": "function"
    },
    {
      "inputs": [],
      "name": "estimateReinvestReward",
      "outputs": [
        {
          "internalType": "uint256",
          "name": "",
          "type": "uint256"
        }
      ],
      "stateMutability": "view",
      "type": "function"
    },
    {
      "inputs": [],
      "name": "extraToken",
      "outputs": [
        {
          "internalType": "address",
          "name": "",
          "type": "address"
        }
      ],
      "stateMutability": "view",
      "type": "function"
    },
    {
      "inputs": [
        {
          "internalType": "uint256",
          "name": "amount",
          "type": "uint256"
        }
      ],
      "name": "getDepositTokensForShares",
      "outputs": [
        {
          "internalType": "uint256",
          "name": "",
          "type": "uint256"
        }
      ],
      "stateMutability": "view",
      "type": "function"
    },
    {
      "inputs": [],
      "name": "getDomainSeparator",
      "outputs": [
        {
          "internalType": "bytes32",
          "name": "",
          "type": "bytes32"
        }
      ],
      "stateMutability": "view",
      "type": "function"
    },
    {
      "inputs": [
        {
          "internalType": "uint256",
          "name": "amount",
          "type": "uint256"
        }
      ],
      "name": "getSharesForDepositTokens",
      "outputs": [
        {
          "internalType": "uint256",
          "name": "",
          "type": "uint256"
        }
      ],
      "stateMutability": "view",
      "type": "function"
    },
    {
      "inputs": [],
      "name": "name",
      "outputs": [
        {
          "internalType": "string",
          "name": "",
          "type": "string"
        }
      ],
      "stateMutability": "view",
      "type": "function"
    },
    {
      "inputs": [
        {
          "internalType": "address",
          "name": "",
          "type": "address"
        }
      ],
      "name": "nonces",
      "outputs": [
        {
          "internalType": "uint256",
          "name": "",
          "type": "uint256"
        }
      ],
      "stateMutability": "view",
      "type": "function"
    },
    {
      "inputs": [],
      "name": "numberOfAllowedDepositors",
      "outputs": [
        {
          "internalType": "uint256",
          "name": "",
          "type": "uint256"
        }
      ],
      "stateMutability": "view",
      "type": "function"
    },
    {
      "inputs": [],
      "name": "owner",
      "outputs": [
        {
          "internalType": "address",
          "name": "",
          "type": "address"
        }
      ],
      "stateMutability": "view",
      "type": "function"
    },
    {
      "inputs": [
        {
          "internalType": "address",
          "name": "owner",
          "type": "address"
        },
        {
          "internalType": "address",
          "name": "spender",
          "type": "address"
        },
        {
          "internalType": "uint256",
          "name": "value",
          "type": "uint256"
        },
        {
          "internalType": "uint256",
          "name": "deadline",
          "type": "uint256"
        },
        {
          "internalType": "uint8",
          "name": "v",
          "type": "uint8"
        },
        {
          "internalType": "bytes32",
          "name": "r",
          "type": "bytes32"
        },
        {
          "internalType": "bytes32",
          "name": "s",
          "type": "bytes32"
        }
      ],
      "name": "permit",
      "outputs": [],
      "stateMutability": "nonpayable",
      "type": "function"
    },
    {
      "inputs": [],
      "name": "podLeader",
      "outputs": [
        {
          "internalType": "contract IAvaiPodLeader",
          "name": "",
          "type": "address"
        }
      ],
      "stateMutability": "view",
      "type": "function"
    },
    {
      "inputs": [
        {
          "internalType": "uint256",
          "name": "amount",
          "type": "uint256"
        }
      ],
      "name": "recoverAVAX",
      "outputs": [],
      "stateMutability": "nonpayable",
      "type": "function"
    },
    {
      "inputs": [
        {
          "internalType": "address",
          "name": "tokenAddress",
          "type": "address"
        },
        {
          "internalType": "uint256",
          "name": "tokenAmount",
          "type": "uint256"
        }
      ],
      "name": "recoverERC20",
      "outputs": [],
      "stateMutability": "nonpayable",
      "type": "function"
    },
    {
      "inputs": [],
      "name": "reinvest",
      "outputs": [],
      "stateMutability": "nonpayable",
      "type": "function"
    },
    {
      "inputs": [
        {
          "internalType": "address",
          "name": "depositor",
          "type": "address"
        }
      ],
      "name": "removeDepositor",
      "outputs": [],
      "stateMutability": "nonpayable",
      "type": "function"
    },
    {
      "inputs": [],
      "name": "renounceOwnership",
      "outputs": [],
      "stateMutability": "nonpayable",
      "type": "function"
    },
    {
      "inputs": [
        {
          "internalType": "uint256",
          "name": "minReturnAmountAccepted",
          "type": "uint256"
        },
        {
          "internalType": "bool",
          "name": "disableDeposits",
          "type": "bool"
        }
      ],
      "name": "rescueDeployedFunds",
      "outputs": [],
      "stateMutability": "nonpayable",
      "type": "function"
    },
    {
      "inputs": [
        {
          "internalType": "address",
          "name": "token",
          "type": "address"
        },
        {
          "internalType": "address",
          "name": "spender",
          "type": "address"
        }
      ],
      "name": "revokeAllowance",
      "outputs": [],
      "stateMutability": "nonpayable",
      "type": "function"
    },
    {
      "inputs": [],
      "name": "rewardToken",
      "outputs": [
        {
          "internalType": "contract IERC20",
          "name": "",
          "type": "address"
        }
      ],
      "stateMutability": "view",
      "type": "function"
    },
    {
      "inputs": [
        {
          "internalType": "address",
          "name": "_extraTokenSwapPair",
          "type": "address"
        }
      ],
      "name": "setExtraRewardSwapPair",
      "outputs": [],
      "stateMutability": "nonpayable",
      "type": "function"
    },
    {
      "inputs": [],
      "name": "swapPairExtraReward",
      "outputs": [
        {
          "internalType": "address",
          "name": "",
          "type": "address"
        }
      ],
      "stateMutability": "view",
      "type": "function"
    },
    {
      "inputs": [],
      "name": "symbol",
      "outputs": [
        {
          "internalType": "string",
          "name": "",
          "type": "string"
        }
      ],
      "stateMutability": "view",
      "type": "function"
    },
    {
      "inputs": [],
      "name": "totalDeposits",
      "outputs": [
        {
          "internalType": "uint256",
          "name": "",
          "type": "uint256"
        }
      ],
      "stateMutability": "view",
      "type": "function"
    },
    {
      "inputs": [],
      "name": "totalSupply",
      "outputs": [
        {
          "internalType": "uint256",
          "name": "",
          "type": "uint256"
        }
      ],
      "stateMutability": "view",
      "type": "function"
    },
    {
      "inputs": [
        {
          "internalType": "address",
          "name": "dst",
          "type": "address"
        },
        {
          "internalType": "uint256",
          "name": "amount",
          "type": "uint256"
        }
      ],
      "name": "transfer",
      "outputs": [
        {
          "internalType": "bool",
          "name": "",
          "type": "bool"
        }
      ],
      "stateMutability": "nonpayable",
      "type": "function"
    },
    {
      "inputs": [
        {
          "internalType": "address",
          "name": "src",
          "type": "address"
        },
        {
          "internalType": "address",
          "name": "dst",
          "type": "address"
        },
        {
          "internalType": "uint256",
          "name": "amount",
          "type": "uint256"
        }
      ],
      "name": "transferFrom",
      "outputs": [
        {
          "internalType": "bool",
          "name": "",
          "type": "bool"
        }
      ],
      "stateMutability": "nonpayable",
      "type": "function"
    },
    {
      "inputs": [
        {
          "internalType": "address",
          "name": "newOwner",
          "type": "address"
        }
      ],
      "name": "transferOwnership",
      "outputs": [],
      "stateMutability": "nonpayable",
      "type": "function"
    },
    {
      "inputs": [
        {
          "internalType": "uint256",
          "name": "newValue",
          "type": "uint256"
        }
      ],
      "name": "updateAdminFee",
      "outputs": [],
      "stateMutability": "nonpayable",
      "type": "function"
    },
    {
      "inputs": [
        {
          "internalType": "bool",
          "name": "newValue",
          "type": "bool"
        }
      ],
      "name": "updateDepositsEnabled",
      "outputs": [],
      "stateMutability": "nonpayable",
      "type": "function"
    },
    {
      "inputs": [
        {
          "internalType": "address",
          "name": "newValue",
          "type": "address"
        }
      ],
      "name": "updateDevAddr",
      "outputs": [],
      "stateMutability": "nonpayable",
      "type": "function"
    },
    {
      "inputs": [
        {
          "internalType": "uint256",
          "name": "newValue",
          "type": "uint256"
        }
      ],
      "name": "updateDevFee",
      "outputs": [],
      "stateMutability": "nonpayable",
      "type": "function"
    },
    {
      "inputs": [
        {
          "internalType": "uint256",
          "name": "newValue",
          "type": "uint256"
        }
      ],
      "name": "updateMaxTokensToDepositWithoutReinvest",
      "outputs": [],
      "stateMutability": "nonpayable",
      "type": "function"
    },
    {
      "inputs": [
        {
          "internalType": "uint256",
          "name": "newValue",
          "type": "uint256"
        }
      ],
      "name": "updateMinTokensToReinvest",
      "outputs": [],
      "stateMutability": "nonpayable",
      "type": "function"
    },
    {
      "inputs": [
        {
          "internalType": "uint256",
          "name": "newValue",
          "type": "uint256"
        }
      ],
      "name": "updateReinvestReward",
      "outputs": [],
      "stateMutability": "nonpayable",
      "type": "function"
    },
    {
      "inputs": [
        {
          "internalType": "uint256",
          "name": "amount",
          "type": "uint256"
        }
      ],
      "name": "withdraw",
      "outputs": [],
      "stateMutability": "nonpayable",
      "type": "function"
    },
    {
      "stateMutability": "payable",
      "type": "receive"
    }
  ],
  "bytecode": {
    "object": "0x60e0604052600960a0819052685969656c642059616b60b81b60c09081526200002c916000919062000d97565b506040805180820190915260038082526216549560ea1b6020909201918252620000599160019162000d97565b503480156200006757600080fd5b5060405162004f3c38038062004f3c8339810160408190526200008a9162000f02565b898973b31f66aa3c1e785363f0875a1b74e27b85fd66c78989898d888a8989898989898988888880600033600680546001600160a01b0319166001600160a01b0383169081179091556040519192509060009060008051602062004f1c833981519152908290a3508051620000ff9062000247565b60208101516200010f90620002d7565b60408101516200011f906200038e565b508851620001359060009060208c019062000d97565b50600980546001600160a01b03808b166001600160a01b031992831617909255600a8054928a16928216929092179091556080839052600b8054909116732d580f9cf2fb2d09bc411532988f2afda4e7beff1790556200019787878762000445565b620001a2846200071d565b620001ae6001620008ff565b620001b983620009a9565b60408051600080825260208201527fc7606d21ac05cd309191543e409f0845c016120563783d70e4f41419dc0ef234910160405180910390a15050505050505050506200020c8462000aa660201b60201c565b5050601780546001600160a01b0319166001600160a01b039d909d169c909c17909b5550620010e49f50505050505050505050505050505050565b6006546001600160a01b03163314620002965760405162461bcd60e51b8152602060048201819052602482015260008051602062004efc83398151915260448201526064015b60405180910390fd5b600c5460408051918252602082018390527f481f79ac3a523b6d6db3c5a720e190e986d1cc1b41adcdf50f9caef849901100910160405180910390a1600c55565b6006546001600160a01b03163314620003225760405162461bcd60e51b8152602060048201819052602482015260008051602062004efc83398151915260448201526064016200028d565b612710620003416010548362000b5d60201b62001e091790919060201c565b11156200034d57600080fd5b60115460408051918252602082018390527f2a42303d002f0ba6cfe8259c91d4684443fb0b3de286ba74991175d651726131910160405180910390a1601155565b6006546001600160a01b03163314620003d95760405162461bcd60e51b8152602060048201819052602482015260008051602062004efc83398151915260448201526064016200028d565b612710620003f86011548362000b5d60201b62001e091790919060201c565b11156200040457600080fd5b60105460408051918252602082018390527fe7f97d51d307dc44045597c9978bec0f842e6bb40d19b9444084cfa30d9ed4f2910160405180910390a1601055565b826001600160a01b0316826001600160a01b031614620006ee57806001600160a01b0316630dfe16816040518163ffffffff1660e01b8152600401602060405180830381865afa1580156200049e573d6000803e3d6000fd5b505050506040513d601f19601f82011682018060405250810190620004c4919062001063565b6001600160a01b0316826001600160a01b031603620005bf57826001600160a01b0316816001600160a01b031663d21220a76040518163ffffffff1660e01b8152600401602060405180830381865afa15801562000526573d6000803e3d6000fd5b505050506040513d601f19601f820116820180604052508101906200054c919062001063565b6001600160a01b031614620005b95760405162461bcd60e51b815260206004820152603f602482015260008051602062004edc83398151915260448201527f6f6573206e6f7420636f6e7461696e2065636f73797374656d20746f6b656e0060648201526084016200028d565b620006ee565b806001600160a01b031663d21220a76040518163ffffffff1660e01b8152600401602060405180830381865afa158015620005fe573d6000803e3d6000fd5b505050506040513d601f19601f8201168201806040525081019062000624919062001063565b6001600160a01b0316826001600160a01b0316036200068657826001600160a01b0316816001600160a01b0316630dfe16816040518163ffffffff1660e01b8152600401602060405180830381865afa15801562000526573d6000803e3d6000fd5b60405162461bcd60e51b8152602060048201526041602482015260008051602062004edc83398151915260448201527f6f6573206e6f7420636f6e7461696e20706f6f6c2072657761726420746f6b656064820152603760f91b608482015260a4016200028d565b601280546001600160a01b039384166001600160a01b0319918216179091556013805492909316911617905550565b6001600160a01b03811615620008e057600a5460408051630dfe168160e01b815290516001600160a01b0392831692841691630dfe16819160048083019260209291908290030181865afa1580156200077a573d6000803e3d6000fd5b505050506040513d601f19601f82011682018060405250810190620007a0919062001063565b6001600160a01b0316036200083a57806001600160a01b031663d21220a76040518163ffffffff1660e01b8152600401602060405180830381865afa158015620007ee573d6000803e3d6000fd5b505050506040513d601f19601f8201168201806040525081019062000814919062001063565b601580546001600160a01b0319166001600160a01b0392909216919091179055620008c0565b806001600160a01b0316630dfe16816040518163ffffffff1660e01b8152600401602060405180830381865afa15801562000879573d6000803e3d6000fd5b505050506040513d601f19601f820116820180604052508101906200089f919062001063565b601580546001600160a01b0319166001600160a01b03929092169190911790555b601480546001600160a01b0383166001600160a01b031990911617905550565b601480546001600160a01b031990811690915560158054909116905550565b6006546001600160a01b031633146200094a5760405162461bcd60e51b8152602060048201819052602482015260008051602062004efc83398151915260448201526064016200028d565b600e5481151560ff9091161515036200096257600080fd5b600e805460ff19168215159081179091556040519081527f7b014ed3854e7f5cb0218d58b3c6ae7d53a68bb0af2f67bfb029ea42c38a7e859060200160405180910390a150565b6006546001600160a01b03163314620009f45760405162461bcd60e51b8152602060048201819052602482015260008051602062004efc83398151915260448201526064016200028d565b6001600160a01b03811662000a5b5760405162461bcd60e51b815260206004820152602660248201527f4f776e61626c653a206e6577206f776e657220697320746865207a65726f206160448201526564647265737360d01b60648201526084016200028d565b6006546040516001600160a01b0380841692169060008051602062004f1c83398151915290600090a3600680546001600160a01b0319166001600160a01b0392909216919091179055565b600954600a5462000ad29183916001600160a01b03918216911662000b72602090811b62001e1517901c565b62000b3b5760405162461bcd60e51b815260206004820152603260248201527f7377617020746f6b656e20646f6573206e6f74206d61746368206465706f73696044820152713a1030b732103932bbb0b932103a37b5b2b760711b60648201526084016200028d565b601680546001600160a01b0319166001600160a01b0392909216919091179055565b600062000b6b828462001081565b9392505050565b6000836001600160a01b0316630dfe16816040518163ffffffff1660e01b8152600401602060405180830381865afa15801562000bb3573d6000803e3d6000fd5b505050506040513d601f19601f8201168201806040525081019062000bd9919062001063565b6001600160a01b0316836001600160a01b0316148062000c6e5750836001600160a01b031663d21220a76040518163ffffffff1660e01b8152600401602060405180830381865afa15801562000c33573d6000803e3d6000fd5b505050506040513d601f19601f8201168201806040525081019062000c59919062001063565b6001600160a01b0316836001600160a01b0316145b801562000d705750836001600160a01b0316630dfe16816040518163ffffffff1660e01b8152600401602060405180830381865afa15801562000cb5573d6000803e3d6000fd5b505050506040513d601f19601f8201168201806040525081019062000cdb919062001063565b6001600160a01b0316826001600160a01b0316148062000d705750836001600160a01b031663d21220a76040518163ffffffff1660e01b8152600401602060405180830381865afa15801562000d35573d6000803e3d6000fd5b505050506040513d601f19601f8201168201806040525081019062000d5b919062001063565b6001600160a01b0316826001600160a01b0316145b801562000d8f5750816001600160a01b0316836001600160a01b031614155b949350505050565b82805462000da590620010a8565b90600052602060002090601f01602090048101928262000dc9576000855562000e14565b82601f1062000de457805160ff191683800117855562000e14565b8280016001018555821562000e14579182015b8281111562000e1457825182559160200191906001019062000df7565b5062000e2292915062000e26565b5090565b5b8082111562000e22576000815560010162000e27565b634e487b7160e01b600052604160045260246000fd5b604051601f8201601f191681016001600160401b038111828210171562000e7e5762000e7e62000e3d565b604052919050565b80516001600160a01b038116811462000e9e57600080fd5b919050565b60006060828403121562000eb657600080fd5b604051606081016001600160401b038111828210171562000edb5762000edb62000e3d565b80604052508091508251815260208301516020820152604083015160408201525092915050565b6000806000806000806000806000806101808b8d03121562000f2357600080fd5b8a516001600160401b038082111562000f3b57600080fd5b818d0191508d601f83011262000f5057600080fd5b81518181111562000f655762000f6562000e3d565b6020915062000f7d601f8201601f1916830162000e53565b8181528f8383860101111562000f9257600080fd5b60005b8281101562000fb257848101840151828201850152830162000f95565b8281111562000fc45760008484840101525b509c5062000fd690508d820162000e86565b9a50505062000fe860408c0162000e86565b975062000ff860608c0162000e86565b96506200100860808c0162000e86565b95506200101860a08c0162000e86565b94506200102860c08c0162000e86565b935060e08b01519250620010406101008c0162000e86565b9150620010528c6101208d0162000ea3565b90509295989b9194979a5092959850565b6000602082840312156200107657600080fd5b62000b6b8262000e86565b60008219821115620010a357634e487b7160e01b600052601160045260246000fd5b500190565b600181811c90821680620010bd57607f821691505b602082108103620010de57634e487b7160e01b600052602260045260246000fd5b50919050565b608051613db26200112a6000396000818161061a015281816111b1015281816117a4015281816122c00152818161298e01528181612cc80152612f610152613db26000f3fe6080604052600436106103855760003560e01c80638aff733d116101d1578063b9e57b8011610102578063dd62ed3e116100a0578063ed24911d1161006f578063ed24911d14610ab4578063f2fde38b14610ac9578063f7c618c114610ae9578063fdb5a03e14610b0957600080fd5b8063dd62ed3e14610a0e578063dd8ce4d614610a54578063e21ac82514610a74578063eab89a5a14610a9457600080fd5b8063c89039c5116100dc578063c89039c51461098e578063cff1b6ef146109ae578063d505accf146109ce578063da09c72c146109ee57600080fd5b8063b9e57b801461094e578063bd079f5514610963578063c4b24a461461097957600080fd5b80639e4e73181161016f578063a9059cbb11610149578063a9059cbb146108d4578063ac0d31ff146108f4578063b52a321f14610914578063b6b55f251461092e57600080fd5b80639e4e731814610860578063a1a4ddeb14610894578063a8ae2b7c146108b457600080fd5b8063909ac8f4116101ab578063909ac8f4146107eb5780639291d5631461080b57806395d89b411461082b57806399729ec11461084057600080fd5b80638aff733d146107975780638b73e606146107ad5780638da5cb5b146107cd57600080fd5b80634bebd1e7116102b6578063762aad25116102545780637ecebe00116102235780637ecebe001461070a57806381837230146107375780638432e894146107575780638980f11f1461077757600080fd5b8063762aad2514610687578063789139bc146106bf5780637ae26773146106d55780637d882097146106f557600080fd5b80635ea682ea116102905780635ea682ea146105f25780635eaec0e41461060857806370a082311461063c578063715018a61461067257600080fd5b80634bebd1e7146105925780634e77ace5146105b25780634ebb7916146105d257600080fd5b80632e1a7d4d11610323578063313ce567116102fd578063313ce567146105055780633bdc6e721461052c578063483c2ef0146105425780634a970be71461057257600080fd5b80632e1a7d4d1461048f5780632f4f21e2146104b157806330adf81f146104d157600080fd5b80630f23475d1161035f5780630f23475d1461041057806318160ddd1461042557806320606b701461043b57806323b872dd1461046f57600080fd5b806306fdde031461039157806307677111146103bc578063095ea7b3146103e057600080fd5b3661038c57005b600080fd5b34801561039d57600080fd5b506103a6610b1e565b6040516103b391906137d8565b60405180910390f35b3480156103c857600080fd5b506103d2600f5481565b6040519081526020016103b3565b3480156103ec57600080fd5b506104006103fb366004613800565b610bac565b60405190151581526020016103b3565b34801561041c57600080fd5b506103d2610bc3565b34801561043157600080fd5b506103d260025481565b34801561044757600080fd5b506103d27f8b73c3c69bb8fe3d512ecc4cf759cc79239f7b179b0ffacaa9a75d522b39400f81565b34801561047b57600080fd5b5061040061048a36600461382c565b610bfe565b34801561049b57600080fd5b506104af6104aa36600461386d565b610ce2565b005b3480156104bd57600080fd5b506104af6104cc366004613800565b610dc4565b3480156104dd57600080fd5b506103d27f6e71edae12b1b97f4d1f60370fef10105fa2faae0126114a169c64845d6126c981565b34801561051157600080fd5b5061051a601281565b60405160ff90911681526020016103b3565b34801561053857600080fd5b506103d260075481565b34801561054e57600080fd5b5061040061055d366004613886565b60086020526000908152604090205460ff1681565b34801561057e57600080fd5b506104af61058d3660046138b9565b610dd2565b34801561059e57600080fd5b506104af6105ad366004613886565b610e6b565b3480156105be57600080fd5b506104af6105cd36600461390e565b610f6a565b3480156105de57600080fd5b506104af6105ed36600461386d565b610ff3565b3480156105fe57600080fd5b506103d260115481565b34801561061457600080fd5b506103d27f000000000000000000000000000000000000000000000000000000000000000081565b34801561064857600080fd5b506103d2610657366004613886565b6001600160a01b031660009081526004602052604090205490565b34801561067e57600080fd5b506104af61108f565b34801561069357600080fd5b506017546106a7906001600160a01b031681565b6040516001600160a01b0390911681526020016103b3565b3480156106cb57600080fd5b506103d2600d5481565b3480156106e157600080fd5b506104af6106f036600461392b565b611103565b34801561070157600080fd5b506103d26111a9565b34801561071657600080fd5b506103d2610725366004613886565b60056020526000908152604090205481565b34801561074357600080fd5b506104af61075236600461386d565b6111d6565b34801561076357600080fd5b506104af610772366004613886565b611241565b34801561078357600080fd5b506104af610792366004613800565b61129e565b3480156107a357600080fd5b506103d260105481565b3480156107b957600080fd5b506104af6107c8366004613886565b611395565b3480156107d957600080fd5b506006546001600160a01b03166106a7565b3480156107f757600080fd5b506014546106a7906001600160a01b031681565b34801561081757600080fd5b506104af610826366004613886565b611516565b34801561083757600080fd5b506103a66115d0565b34801561084c57600080fd5b506104af61085b36600461386d565b6115dd565b34801561086c57600080fd5b506103d27fc89efdaa54c0f20c7adf612882df0950f5a951637e0307cdcb4c672f298b8bc681565b3480156108a057600080fd5b506015546106a7906001600160a01b031681565b3480156108c057600080fd5b506104af6108cf36600461386d565b61166b565b3480156108e057600080fd5b506104006108ef366004613800565b6116f9565b34801561090057600080fd5b506104af61090f366004613964565b611706565b34801561092057600080fd5b50600e546104009060ff1681565b34801561093a57600080fd5b506104af61094936600461386d565b611914565b34801561095a57600080fd5b506103d261191e565b34801561096f57600080fd5b506103d2600c5481565b34801561098557600080fd5b506103d261195d565b34801561099a57600080fd5b506009546106a7906001600160a01b031681565b3480156109ba57600080fd5b506104af6109c936600461386d565b611971565b3480156109da57600080fd5b506104af6109e9366004613989565b6119e7565b3480156109fa57600080fd5b50600b546106a7906001600160a01b031681565b348015610a1a57600080fd5b506103d2610a2936600461392b565b6001600160a01b03918216600090815260036020908152604080832093909416825291909152205490565b348015610a6057600080fd5b506103d2610a6f36600461386d565b611aec565b348015610a8057600080fd5b506104af610a8f36600461386d565b611b26565b348015610aa057600080fd5b506103d2610aaf36600461386d565b611b91565b348015610ac057600080fd5b506103d2611bc5565b348015610ad557600080fd5b506104af610ae4366004613886565b611c65565b348015610af557600080fd5b50600a546106a7906001600160a01b031681565b348015610b1557600080fd5b506104af611d50565b60008054610b2b906139f7565b80601f0160208091040260200160405190810160405280929190818152602001828054610b57906139f7565b8015610ba45780601f10610b7957610100808354040283529160200191610ba4565b820191906000526020600020905b815481529060010190602001808311610b8757829003601f168201915b505050505081565b6000610bb933848461202a565b5060015b92915050565b600080610bce6111a9565b9050600080610bea6127105b610be48585612138565b90612144565b9050610bf68382612150565b935050505090565b6001600160a01b038316600081815260036020908152604080832033808552925282205491929091908214801590610c3857506000198114155b15610cc9576000610c64856040518060600160405280602f8152602001613cf9602f913984919061215c565b6001600160a01b038881166000818152600360209081526040808320948916808452948252918290208590559051848152939450919290917f8c5be1e5ebec7d5bd14f71427d1e84f3dd0314c0f7b2291e5b200ac8c7c3b925910160405180910390a3505b610cd4868686612188565b6001925050505b9392505050565b6000610ced82611b91565b905060008111610d445760405162461bcd60e51b815260206004820152601e60248201527f4d617374657243686566537472617465677956313a3a7769746864726177000060448201526064015b60405180910390fd5b610d4d816122bb565b600080610d5b612710610bda565b600954909150610d7e906001600160a01b031633610d798685612150565b6122e5565b610d8833856123bc565b60405183815233907f884edad9ce6fa2440d8a54cc123490eb96d2768479d49ff9c7366125a9424364906020015b60405180910390a250505050565b610dce8282612492565b5050565b60095460405163d505accf60e01b8152336004820152306024820152604481018790526064810186905260ff8516608482015260a4810184905260c481018390526001600160a01b039091169063d505accf9060e401600060405180830381600087803b158015610e4257600080fd5b505af1158015610e56573d6000803e3d6000fd5b50505050610e643386612492565b5050505050565b6006546001600160a01b03163314610e955760405162461bcd60e51b8152600401610d3b90613a31565b6001600160a01b03811660009081526008602052604090205460ff1615610efe5760405162461bcd60e51b815260206004820152601c60248201527f5065726d697373696f6e65643a3a616c6c6f774465706f7369746f72000000006044820152606401610d3b565b6001600160a01b0381166000908152600860205260409020805460ff19166001908117909155600754610f3091611e09565b6007556040516001600160a01b038216907fc0a1035c16faf8d1304056d92c00edf028f87e62b8235a938f00af9e3c0312c590600090a250565b6006546001600160a01b03163314610f945760405162461bcd60e51b8152600401610d3b90613a31565b600e5481151560ff909116151503610fab57600080fd5b600e805460ff19168215159081179091556040519081527f7b014ed3854e7f5cb0218d58b3c6ae7d53a68bb0af2f67bfb029ea42c38a7e85906020015b60405180910390a150565b6006546001600160a01b0316331461101d5760405162461bcd60e51b8152600401610d3b90613a31565b6000811161102a57600080fd5b604051339082156108fc029083906000818181858888f19350505050158015611057573d6000803e3d6000fd5b506040805160008152602081018390527f8c1256b8896378cd5044f80c202f9772b9d77dc85c8a6eb51967210b09bfaa289101610fe8565b6006546001600160a01b031633146110b95760405162461bcd60e51b8152600401610d3b90613a31565b6006546040516000916001600160a01b0316907f8be0079c531659141344cd1fd0a4f28419497f9722a3daafe3b4186f6b6457e0908390a3600680546001600160a01b0319169055565b6006546001600160a01b0316331461112d5760405162461bcd60e51b8152600401610d3b90613a31565b60405163095ea7b360e01b81526001600160a01b0382811660048301526000602483015283169063095ea7b3906044016020604051808303816000875af115801561117c573d6000803e3d6000fd5b505050506040513d601f19601f820116820180604052508101906111a09190613a66565b610dce57600080fd5b600080610bbd7f000000000000000000000000000000000000000000000000000000000000000030612660565b6006546001600160a01b031633146112005760405162461bcd60e51b8152600401610d3b90613a31565b600c5460408051918252602082018390527f481f79ac3a523b6d6db3c5a720e190e986d1cc1b41adcdf50f9caef849901100910160405180910390a1600c55565b600b546001600160a01b031633146112925760405162461bcd60e51b81526020600482015260146024820152732cb0b5a9ba3930ba32b3bc9d1d37b7363ca232bb60611b6044820152606401610d3b565b61129b816126dd565b50565b6006546001600160a01b031633146112c85760405162461bcd60e51b8152600401610d3b90613a31565b600081116112d557600080fd5b60405163a9059cbb60e01b8152336004820152602481018290526001600160a01b0383169063a9059cbb906044016020604051808303816000875af1158015611322573d6000803e3d6000fd5b505050506040513d601f19601f820116820180604052508101906113469190613a66565b61134f57600080fd5b604080516001600160a01b0384168152602081018390527f8c1256b8896378cd5044f80c202f9772b9d77dc85c8a6eb51967210b09bfaa28910160405180910390a15050565b6006546001600160a01b031633146113bf5760405162461bcd60e51b8152600401610d3b90613a31565b60006007541161142e5760405162461bcd60e51b815260206004820152603460248201527f5065726d697373696f6e65643a3a72656d6f76654465706f7369746f722c206e6044820152736f20616c6c6f776564206465706f7369746f727360601b6064820152608401610d3b565b6001600160a01b03811660009081526008602052604090205460ff1615156001146114ae5760405162461bcd60e51b815260206004820152602a60248201527f5065726d697373696f6e65643a3a72656d6f76654465706f7369746f722c206e6044820152691bdd08185b1b1bddd95960b21b6064820152608401610d3b565b6001600160a01b0381166000908152600860205260409020805460ff191690556007546114dc906001612150565b6007556040516001600160a01b038216907f0e86f6608b536e5339a25b65ff531f5ea91e1313d056ecd4752b35cbd16137d490600090a250565b600b546001600160a01b031633146115675760405162461bcd60e51b81526020600482015260146024820152732cb0b5a9ba3930ba32b3bc9d1d37b7363ca232bb60611b6044820152606401610d3b565b600b54604080516001600160a01b03928316815291831660208301527fa8e91499ed37682f43cffb045fcc7d379a91e8c9a14e6321877ee34dee564c00910160405180910390a1600b80546001600160a01b0319166001600160a01b0392909216919091179055565b60018054610b2b906139f7565b6006546001600160a01b031633146116075760405162461bcd60e51b8152600401610d3b90613a31565b61271061161f60105483611e0990919063ffffffff16565b111561162a57600080fd5b60115460408051918252602082018390527f2a42303d002f0ba6cfe8259c91d4684443fb0b3de286ba74991175d651726131910160405180910390a1601155565b6006546001600160a01b031633146116955760405162461bcd60e51b8152600401610d3b90613a31565b6127106116ad60115483611e0990919063ffffffff16565b11156116b857600080fd5b60105460408051918252602082018390527fe7f97d51d307dc44045597c9978bec0f842e6bb40d19b9444084cfa30d9ed4f2910160405180910390a1601055565b6000610bb9338484612188565b6006546001600160a01b031633146117305760405162461bcd60e51b8152600401610d3b90613a31565b6009546040516370a0823160e01b81523060048201526000916001600160a01b0316906370a0823190602401602060405180830381865afa158015611779573d6000803e3d6000fd5b505050506040513d601f19601f8201168201806040525081019061179d9190613a83565b90506117c87f00000000000000000000000000000000000000000000000000000000000000006128b3565b6009546040516370a0823160e01b81523060048201526000916001600160a01b0316906370a0823190602401602060405180830381865afa158015611811573d6000803e3d6000fd5b505050506040513d601f19601f820116820180604052508101906118359190613a83565b9050836118428284612150565b10156118a25760405162461bcd60e51b815260206004820152602960248201527f4d617374657243686566537472617465677956313a3a7265736375654465706c6044820152686f79656446756e647360b81b6064820152608401610d3b565b7fc7606d21ac05cd309191543e409f0845c016120563783d70e4f41419dc0ef2346118cb6111a9565b6002546040805192835260208301919091520160405180910390a1600e5460ff16151560011480156118ff57506001831515145b1561190e5761190e6000610f6a565b50505050565b61129b3382612492565b60008061192961195d565b9050600c5481106119555761194f612710610be46010548461213890919063ffffffff16565b91505090565b600091505090565b60008061196861290d565b95945050505050565b6006546001600160a01b0316331461199b5760405162461bcd60e51b8152600401610d3b90613a31565b80156119a657600080fd5b600f5460408051918252602082018390527f3cc372f330f95ac9540626dc8a25f5bf21ba607215a5d58304cb804d446f104a910160405180910390a1600f55565b42841015611a295760405162461bcd60e51b815260206004820152600f60248201526e1c195c9b5a5d0e8e995e1c1a5c9959608a1b6044820152606401610d3b565b6001600160a01b038716600090815260056020526040812080547f6e71edae12b1b97f4d1f60370fef10105fa2faae0126114a169c64845d6126c9918a918a918a919086611a7683613ab2565b909155506040805160208101969096526001600160a01b0394851690860152929091166060840152608083015260a082015260c0810186905260e001604051602081830303815290604052805190602001209050611ad78882868686612b97565b611ae288888861202a565b5050505050505050565b6000611b02611af96111a9565b60025490612138565b600003611b0d575090565b610bbd611b186111a9565b600254610be4908590612138565b6006546001600160a01b03163314611b505760405162461bcd60e51b8152600401610d3b90613a31565b600d5460408051918252602082018390527fa5dae50539d56dfe1fb5273d883b0c39bc76750a25d036fc5fbd09ad8fd5f57f910160405180910390a1600d55565b6000611b9e611af96111a9565b600003611bad57506000919050565b610bbd600254610be4611bbe6111a9565b8590612138565b60007f8b73c3c69bb8fe3d512ecc4cf759cc79239f7b179b0ffacaa9a75d522b39400f60001b6000604051611bfa9190613acb565b6040519081900390207fc89efdaa54c0f20c7adf612882df0950f5a951637e0307cdcb4c672f298b8bc646604080516020810195909552840192909252606083015260808201523060a082015260c00160405160208183030381529060405280519060200120905090565b6006546001600160a01b03163314611c8f5760405162461bcd60e51b8152600401610d3b90613a31565b6001600160a01b038116611cf45760405162461bcd60e51b815260206004820152602660248201527f4f776e61626c653a206e6577206f776e657220697320746865207a65726f206160448201526564647265737360d01b6064820152608401610d3b565b6006546040516001600160a01b038084169216907f8be0079c531659141344cd1fd0a4f28419497f9722a3daafe3b4186f6b6457e090600090a3600680546001600160a01b0319166001600160a01b0392909216919091179055565b323314611d965760405162461bcd60e51b815260206004820152601460248201527359616b53747261746567793a3a6f6e6c79454f4160601b6044820152606401610d3b565b600080600080611da461290d565b9350935093509350600c54811015611dfe5760405162461bcd60e51b815260206004820152601e60248201527f4d617374657243686566537472617465677956313a3a7265696e7665737400006044820152606401610d3b565b61190e828585612cc3565b6000610cdb8284613b66565b6000836001600160a01b0316630dfe16816040518163ffffffff1660e01b8152600401602060405180830381865afa158015611e55573d6000803e3d6000fd5b505050506040513d601f19601f82011682018060405250810190611e799190613b7e565b6001600160a01b0316836001600160a01b03161480611f0a5750836001600160a01b031663d21220a76040518163ffffffff1660e01b8152600401602060405180830381865afa158015611ed1573d6000803e3d6000fd5b505050506040513d601f19601f82011682018060405250810190611ef59190613b7e565b6001600160a01b0316836001600160a01b0316145b80156120045750836001600160a01b0316630dfe16816040518163ffffffff1660e01b8152600401602060405180830381865afa158015611f4f573d6000803e3d6000fd5b505050506040513d601f19601f82011682018060405250810190611f739190613b7e565b6001600160a01b0316826001600160a01b031614806120045750836001600160a01b031663d21220a76040518163ffffffff1660e01b8152600401602060405180830381865afa158015611fcb573d6000803e3d6000fd5b505050506040513d601f19601f82011682018060405250810190611fef9190613b7e565b6001600160a01b0316826001600160a01b0316145b80156120225750816001600160a01b0316836001600160a01b031614155b949350505050565b6001600160a01b0383166120805760405162461bcd60e51b815260206004820152601c60248201527f5f617070726f76653a3a6f776e6572207a65726f2061646472657373000000006044820152606401610d3b565b6001600160a01b0382166120d65760405162461bcd60e51b815260206004820152601e60248201527f5f617070726f76653a3a7370656e646572207a65726f206164647265737300006044820152606401610d3b565b6001600160a01b0383811660008181526003602090815260408083209487168084529482529182902085905590518481527f8c5be1e5ebec7d5bd14f71427d1e84f3dd0314c0f7b2291e5b200ac8c7c3b92591015b60405180910390a3505050565b6000610cdb8284613b9b565b6000610cdb8284613bba565b6000610cdb8284613bdc565b600081848411156121805760405162461bcd60e51b8152600401610d3b91906137d8565b505050900390565b6001600160a01b0382166121fb5760405162461bcd60e51b815260206004820152603460248201527f5f7472616e73666572546f6b656e733a2063616e6e6f74207472616e7366657260448201527320746f20746865207a65726f206164647265737360601b6064820152608401610d3b565b612238816040518060600160405280602e8152602001613d4f602e91396001600160a01b038616600090815260046020526040902054919061215c565b6001600160a01b0380851660009081526004602052604080822093909355908416815220546122679082611e09565b6001600160a01b0380841660008181526004602052604090819020939093559151908516907fddf252ad1be2c89b69c2b068fc378daa952ba7f163c4a11628f55a4df523b3ef9061212b9085815260200190565b61129b7f000000000000000000000000000000000000000000000000000000000000000082612e0c565b60405163a9059cbb60e01b81526001600160a01b0383811660048301526024820183905284169063a9059cbb906044016020604051808303816000875af1158015612334573d6000803e3d6000fd5b505050506040513d601f19601f820116820180604052508101906123589190613a66565b6123b75760405162461bcd60e51b815260206004820152602a60248201527f4d617374657243686566537472617465677956313a3a5452414e534645525f466044820152691493d357d1905253115160b21b6064820152608401610d3b565b505050565b6123f981604051806060016040528060278152602001613d28602791396001600160a01b038516600090815260046020526040902054919061215c565b60046000846001600160a01b03166001600160a01b031681526020019081526020016000208190555061244981604051806060016040528060278152602001613cd260279139600254919061215c565b6002556040518181526000906001600160a01b038416907fddf252ad1be2c89b69c2b068fc378daa952ba7f163c4a11628f55a4df523b3ef906020015b60405180910390a35050565b600e5460ff1615156001146124e95760405162461bcd60e51b815260206004820152601e60248201527f4d617374657243686566537472617465677956313a3a5f6465706f73697400006044820152606401610d3b565b600d5415612521576000806000806124ff61290d565b9350935093509350600d5481111561251c5761251c828585612cc3565b505050505b6009546040516323b872dd60e01b8152336004820152306024820152604481018390526001600160a01b03909116906323b872dd906064016020604051808303816000875af1158015612578573d6000803e3d6000fd5b505050506040513d601f19601f8201168201806040525081019061259c9190613a66565b6125f65760405162461bcd60e51b815260206004820152602560248201527f4d617374657243686566537472617465677956313a3a7472616e736665722066604482015264185a5b195960da1b6064820152608401610d3b565b600080612604612710610bda565b905061261c84612617610a6f8685612150565b612e76565b61262583612efa565b836001600160a01b03167fe1fffcc4923d04b559f4d29a8bfc6cda04eb5b0d3c460751c2402c5c5cc9109c84604051610db691815260200190565b6017546040516393f1a40b60e01b8152600481018490526001600160a01b03838116602483015260009216906393f1a40b906044016040805180830381865afa1580156126b1573d6000803e3d6000fd5b505050506040513d601f19601f820116820180604052508101906126d59190613bf3565b509392505050565b6001600160a01b0381161561289457600a5460408051630dfe168160e01b815290516001600160a01b0392831692841691630dfe16819160048083019260209291908290030181865afa158015612738573d6000803e3d6000fd5b505050506040513d601f19601f8201168201806040525081019061275c9190613b7e565b6001600160a01b0316036127f157806001600160a01b031663d21220a76040518163ffffffff1660e01b8152600401602060405180830381865afa1580156127a8573d6000803e3d6000fd5b505050506040513d601f19601f820116820180604052508101906127cc9190613b7e565b601580546001600160a01b0319166001600160a01b0392909216919091179055612874565b806001600160a01b0316630dfe16816040518163ffffffff1660e01b8152600401602060405180830381865afa15801561282f573d6000803e3d6000fd5b505050506040513d601f19601f820116820180604052508101906128539190613b7e565b601580546001600160a01b0319166001600160a01b03929092169190911790555b601480546001600160a01b0383166001600160a01b031990911617905550565b601480546001600160a01b031990811690915560158054909116905550565b601754604051632989754760e11b8152600481018390526001600160a01b0390911690635312ea8e90602401600060405180830381600087803b1580156128f957600080fd5b505af1158015610e64573d6000803e3d6000fd5b6012546040516370a0823160e01b815230600482015260009182918291829182916001600160a01b0316906370a0823190602401602060405180830381865afa15801561295e573d6000803e3d6000fd5b505050506040513d601f19601f820116820180604052508101906129829190613a83565b905060008060006129b37f000000000000000000000000000000000000000000000000000000000000000030612f86565b9194509250905060006129c68585611e09565b600a546012549192506000916001600160a01b039182169116036129ea5784612a0f565b601254600a54601354612a0f9285926001600160a01b03918216929082169116613010565b905060006001600160a01b03841615612afa5773b31f66aa3c1e785363f0875a1b74e27b85fd66c6196001600160a01b03851601612a4e575083612afa565b6014546001600160a01b031615612afa576015546040516370a0823160e01b8152306004820152612ad4916001600160a01b0316906370a0823190602401602060405180830381865afa158015612aa9573d6000803e3d6000fd5b505050506040513d601f19601f82011682018060405250810190612acd9190613a83565b8690611e09565b600a54601454919650612af791879187916001600160a01b039182169116613010565b90505b600a546040516370a0823160e01b8152306004820152600091612b739184916001600160a01b0316906370a0823190602401602060405180830381865afa158015612b49573d6000803e3d6000fd5b505050506040513d601f19601f82011682018060405250810190612b6d9190613a83565b90611e09565b90506000612b818285611e09565b949d969c50909a50929850939650505050505050565b6000612ba1611bc5565b60405161190160f01b602082015260228101919091526042810186905260620160408051601f198184030181528282528051602091820120600080855291840180845281905260ff88169284019290925260608301869052608083018590529092509060019060a0016020604051602081039080840390855afa158015612c2c573d6000803e3d6000fd5b5050604051601f1901519150506001600160a01b03811615801590612c625750866001600160a01b0316816001600160a01b0316145b612cba5760405162461bcd60e51b8152602060048201526024808201527f417263683a3a76616c69646174655369673a20696e76616c6964207369676e616044820152637475726560e01b6064820152608401610d3b565b50505050505050565b612cec7f00000000000000000000000000000000000000000000000000000000000000006130ce565b6000612d01612cfa8461319f565b8590611e09565b9050612d17612d1085846131e3565b8290611e09565b506000612d35612710610be46011548561213890919063ffffffff16565b90508015612d5a57600a54600b54612d5a916001600160a01b039081169116836122e5565b6000612d77612710610be46010548661213890919063ffffffff16565b90508015612d9657600a54612d96906001600160a01b031633836122e5565b6000612db4612daf83612da98787612150565b90612150565b613322565b9050612dbf81612efa565b7fc7606d21ac05cd309191543e409f0845c016120563783d70e4f41419dc0ef234612de86111a9565b6002546040805192835260208301919091520160405180910390a150505050505050565b601754604051630441a3e760e41b815260048101849052602481018390526001600160a01b039091169063441a3e70906044015b600060405180830381600087803b158015612e5a57600080fd5b505af1158015612e6e573d6000803e3d6000fd5b505050505050565b600254612e839082611e09565b6002556001600160a01b038216600090815260046020526040902054612ea99082611e09565b6001600160a01b0383166000818152600460205260408082209390935591519091907fddf252ad1be2c89b69c2b068fc378daa952ba7f163c4a11628f55a4df523b3ef906124869085815260200190565b60008111612f5c5760405162461bcd60e51b815260206004820152602960248201527f4d617374657243686566537472617465677956313a3a5f7374616b654465706f604482015268736974546f6b656e7360b81b6064820152608401610d3b565b61129b7f00000000000000000000000000000000000000000000000000000000000000008261334a565b6017546040516334637d4f60e21b8152600481018490526001600160a01b038381166024830152600092839283929091169063d18df53c90604401602060405180830381865afa158015612fde573d6000803e3d6000fd5b505050506040513d601f19601f820116820180604052508101906130029190613a83565b956000955085945092505050565b60008061301d8585613382565b509050600080846001600160a01b0316630902f1ac6040518163ffffffff1660e01b8152600401606060405180830381865afa158015613061573d6000803e3d6000fd5b505050506040513d601f19601f820116820180604052508101906130859190613c2e565b5091509150866001600160a01b0316836001600160a01b0316146130a557905b6130c288836001600160701b0316836001600160701b03166133b3565b98975050505050505050565b601754604051631c57762b60e31b815260048101839052600060248201526001600160a01b039091169063e2bbb15890604401600060405180830381600087803b15801561311b57600080fd5b505af115801561312f573d6000803e3d6000fd5b504792505081159050610dce5773b31f66aa3c1e785363f0875a1b74e27b85fd66c76001600160a01b031663d0e30db0826040518263ffffffff1660e01b81526004016000604051808303818588803b15801561318b57600080fd5b505af1158015612cba573d6000803e3d6000fd5b601254600a546000916001600160a01b039081169116036131be575090565b601254600a54601354610bbd9285926001600160a01b039182169290821691166133fb565b60008115613319576014546001600160a01b03161561322857601554600a546014546132219285926001600160a01b039182169290821691166133fb565b9050610bbd565b4780156132985773b31f66aa3c1e785363f0875a1b74e27b85fd66c76001600160a01b031663d0e30db0826040518263ffffffff1660e01b81526004016000604051808303818588803b15801561327e57600080fd5b505af1158015613292573d6000803e3d6000fd5b50505050505b6040516370a0823160e01b815230600482015261331190859073b31f66aa3c1e785363f0875a1b74e27b85fd66c7906370a0823190602401602060405180830381865afa1580156132ed573d6000803e3d6000fd5b505050506040513d601f19601f82011682018060405250810190612da99190613a83565b915050610bbd565b50600092915050565b600a54600954601654600092610bbd9285926001600160a01b039283169291821691166133fb565b601754604051631c57762b60e31b815260048101849052602481018390526001600160a01b039091169063e2bbb15890604401612e40565b600080826001600160a01b0316846001600160a01b0316106133a55782846133a8565b83835b915091509250929050565b6000806133c2856103e5612138565b905060006133d08285612138565b905060006133e483612b6d886103e8612138565b90506133f08282612144565b979650505050505050565b6000806134088585613382565b509050600080846001600160a01b0316630902f1ac6040518163ffffffff1660e01b8152600401606060405180830381865afa15801561344c573d6000803e3d6000fd5b505050506040513d601f19601f820116820180604052508101906134709190613c2e565b5091509150866001600160a01b0316836001600160a01b03161461349057905b6000806134b08a856001600160701b0316856001600160701b03166133b3565b9050886001600160a01b0316856001600160a01b0316146134cd57905b6134e16001600160a01b038a16888c61356f565b6040805160008152602081019182905263022c0d9f60e01b9091526001600160a01b0388169063022c0d9f906135209085908590309060248101613c7e565b600060405180830381600087803b15801561353a57600080fd5b505af115801561354e573d6000803e3d6000fd5b5050505081811161355f5781613561565b805b9a9950505050505050505050565b604080516001600160a01b03848116602483015260448083018590528351808403909101815260649092018352602080830180516001600160e01b031663a9059cbb60e01b17905283518085019094528084527f5361666545524332303a206c6f772d6c6576656c2063616c6c206661696c6564908401526123b7928692916000916135ff91851690849061367c565b8051909150156123b7578080602001905181019061361d9190613a66565b6123b75760405162461bcd60e51b815260206004820152602a60248201527f5361666545524332303a204552433230206f7065726174696f6e20646964206e6044820152691bdd081cdd58d8d9595960b21b6064820152608401610d3b565b60606120228484600085856001600160a01b0385163b6136de5760405162461bcd60e51b815260206004820152601d60248201527f416464726573733a2063616c6c20746f206e6f6e2d636f6e74726163740000006044820152606401610d3b565b600080866001600160a01b031685876040516136fa9190613cb5565b60006040518083038185875af1925050503d8060008114613737576040519150601f19603f3d011682016040523d82523d6000602084013e61373c565b606091505b50915091506133f082828660608315613756575081610cdb565b8251156137665782518084602001fd5b8160405162461bcd60e51b8152600401610d3b91906137d8565b60005b8381101561379b578181015183820152602001613783565b8381111561190e5750506000910152565b600081518084526137c4816020860160208601613780565b601f01601f19169290920160200192915050565b602081526000610cdb60208301846137ac565b6001600160a01b038116811461129b57600080fd5b6000806040838503121561381357600080fd5b823561381e816137eb565b946020939093013593505050565b60008060006060848603121561384157600080fd5b833561384c816137eb565b9250602084013561385c816137eb565b929592945050506040919091013590565b60006020828403121561387f57600080fd5b5035919050565b60006020828403121561389857600080fd5b8135610cdb816137eb565b803560ff811681146138b457600080fd5b919050565b600080600080600060a086880312156138d157600080fd5b85359450602086013593506138e8604087016138a3565b94979396509394606081013594506080013592915050565b801515811461129b57600080fd5b60006020828403121561392057600080fd5b8135610cdb81613900565b6000806040838503121561393e57600080fd5b8235613949816137eb565b91506020830135613959816137eb565b809150509250929050565b6000806040838503121561397757600080fd5b82359150602083013561395981613900565b600080600080600080600060e0888a0312156139a457600080fd5b87356139af816137eb565b965060208801356139bf816137eb565b955060408801359450606088013593506139db608089016138a3565b925060a0880135915060c0880135905092959891949750929550565b600181811c90821680613a0b57607f821691505b602082108103613a2b57634e487b7160e01b600052602260045260246000fd5b50919050565b6020808252818101527f4f776e61626c653a2063616c6c6572206973206e6f7420746865206f776e6572604082015260600190565b600060208284031215613a7857600080fd5b8151610cdb81613900565b600060208284031215613a9557600080fd5b5051919050565b634e487b7160e01b600052601160045260246000fd5b600060018201613ac457613ac4613a9c565b5060010190565b600080835481600182811c915080831680613ae757607f831692505b60208084108203613b0657634e487b7160e01b86526022600452602486fd5b818015613b1a5760018114613b2b57613b58565b60ff19861689528489019650613b58565b60008a81526020902060005b86811015613b505781548b820152908501908301613b37565b505084890196505b509498975050505050505050565b60008219821115613b7957613b79613a9c565b500190565b600060208284031215613b9057600080fd5b8151610cdb816137eb565b6000816000190483118215151615613bb557613bb5613a9c565b500290565b600082613bd757634e487b7160e01b600052601260045260246000fd5b500490565b600082821015613bee57613bee613a9c565b500390565b60008060408385031215613c0657600080fd5b505080516020909101519092909150565b80516001600160701b03811681146138b457600080fd5b600080600060608486031215613c4357600080fd5b613c4c84613c17565b9250613c5a60208501613c17565b9150604084015163ffffffff81168114613c7357600080fd5b809150509250925092565b84815283602082015260018060a01b0383166040820152608060608201526000613cab60808301846137ac565b9695505050505050565b60008251613cc7818460208701613780565b919091019291505056fe5f6275726e3a206275726e20616d6f756e74206578636565647320746f74616c20737570706c797472616e7366657246726f6d3a207472616e7366657220616d6f756e74206578636565647320616c6c6f77616e63655f6275726e3a206275726e20616d6f756e7420657863656564732066726f6d2062616c616e63655f7472616e73666572546f6b656e733a207472616e7366657220657863656564732066726f6d2062616c616e6365a2646970667358221220b01a0e5f3173a320d2dc51dc084c8058be08ddce20ace70199340577dca314c264736f6c634300080d003353776170207061697220277377617050616972506f6f6c5265776172642720644f776e61626c653a2063616c6c6572206973206e6f7420746865206f776e65728be0079c531659141344cd1fd0a4f28419497f9722a3daafe3b4186f6b6457e0",
    "linkReferences": {}
  },
  "methodIdentifiers": {
    "ADMIN_FEE_BIPS()": "07677111",
    "DEPOSITS_ENABLED()": "b52a321f",
    "DEV_FEE_BIPS()": "5ea682ea",
    "DOMAIN_TYPEHASH()": "20606b70",
    "MAX_TOKENS_TO_DEPOSIT_WITHOUT_REINVEST()": "789139bc",
    "MIN_TOKENS_TO_REINVEST()": "bd079f55",
    "PERMIT_TYPEHASH()": "30adf81f",
    "PID()": "5eaec0e4",
    "REINVEST_REWARD_BIPS()": "8aff733d",
    "VERSION_HASH()": "9e4e7318",
    "allowDepositor(address)": "4bebd1e7",
    "allowance(address,address)": "dd62ed3e",
    "allowedDepositors(address)": "483c2ef0",
    "approve(address,uint256)": "095ea7b3",
    "balanceOf(address)": "70a08231",
    "checkReward()": "c4b24a46",
    "decimals()": "313ce567",
    "deposit(uint256)": "b6b55f25",
    "depositFor(address,uint256)": "2f4f21e2",
    "depositToken()": "c89039c5",
    "depositWithPermit(uint256,uint256,uint8,bytes32,bytes32)": "4a970be7",
    "devAddr()": "da09c72c",
    "estimateDeployedBalance()": "0f23475d",
    "estimateReinvestReward()": "b9e57b80",
    "extraToken()": "a1a4ddeb",
    "getDepositTokensForShares(uint256)": "eab89a5a",
    "getDomainSeparator()": "ed24911d",
    "getSharesForDepositTokens(uint256)": "dd8ce4d6",
    "name()": "06fdde03",
    "nonces(address)": "7ecebe00",
    "numberOfAllowedDepositors()": "3bdc6e72",
    "owner()": "8da5cb5b",
    "permit(address,address,uint256,uint256,uint8,bytes32,bytes32)": "d505accf",
    "podLeader()": "762aad25",
    "recoverAVAX(uint256)": "4ebb7916",
    "recoverERC20(address,uint256)": "8980f11f",
    "reinvest()": "fdb5a03e",
    "removeDepositor(address)": "8b73e606",
    "renounceOwnership()": "715018a6",
    "rescueDeployedFunds(uint256,bool)": "ac0d31ff",
    "revokeAllowance(address,address)": "7ae26773",
    "rewardToken()": "f7c618c1",
    "setExtraRewardSwapPair(address)": "8432e894",
    "swapPairExtraReward()": "909ac8f4",
    "symbol()": "95d89b41",
    "totalDeposits()": "7d882097",
    "totalSupply()": "18160ddd",
    "transfer(address,uint256)": "a9059cbb",
    "transferFrom(address,address,uint256)": "23b872dd",
    "transferOwnership(address)": "f2fde38b",
    "updateAdminFee(uint256)": "cff1b6ef",
    "updateDepositsEnabled(bool)": "4e77ace5",
    "updateDevAddr(address)": "9291d563",
    "updateDevFee(uint256)": "99729ec1",
    "updateMaxTokensToDepositWithoutReinvest(uint256)": "e21ac825",
    "updateMinTokensToReinvest(uint256)": "81837230",
    "updateReinvestReward(uint256)": "a8ae2b7c",
    "withdraw(uint256)": "2e1a7d4d"
  },
  "id": 45
}