{
  "abi": [
    {
      "inputs": [
        {
          "internalType": "address",
          "name": "_gmxDepositor",
          "type": "address"
        },
        {
          "internalType": "address",
          "name": "_gmxRewardRouter",
          "type": "address"
        },
        {
          "internalType": "address",
          "name": "_devAddr",
          "type": "address"
        }
      ],
      "stateMutability": "nonpayable",
      "type": "constructor"
    },
    {
      "inputs": [
        {
          "internalType": "address",
          "name": "_strategy",
          "type": "address"
        }
      ],
      "name": "approveStrategy",
      "outputs": [],
      "stateMutability": "nonpayable",
      "type": "function"
    },
    {
      "inputs": [
        {
          "internalType": "address",
          "name": "",
          "type": "address"
        }
      ],
      "name": "approvedStrategies",
      "outputs": [
        {
          "internalType": "address",
          "name": "",
          "type": "address"
        }
      ],
      "stateMutability": "view",
      "type": "function"
    },
    {
      "inputs": [
        {
          "internalType": "uint256",
          "name": "_amount",
          "type": "uint256"
        }
      ],
      "name": "buyAndStakeGlp",
      "outputs": [
        {
          "internalType": "uint256",
          "name": "",
          "type": "uint256"
        }
      ],
      "stateMutability": "nonpayable",
      "type": "function"
    },
    {
      "inputs": [
        {
          "internalType": "address",
          "name": "rewardTracker",
          "type": "address"
        }
      ],
      "name": "claimReward",
      "outputs": [],
      "stateMutability": "nonpayable",
      "type": "function"
    },
    {
      "inputs": [],
      "name": "devAddr",
      "outputs": [
        {
          "internalType": "address",
          "name": "",
          "type": "address"
        }
      ],
      "stateMutability": "view",
      "type": "function"
    },
    {
      "inputs": [
        {
          "internalType": "uint256",
          "name": "_balance",
          "type": "uint256"
        }
      ],
      "name": "emergencyWithdrawGLP",
      "outputs": [],
      "stateMutability": "nonpayable",
      "type": "function"
    },
    {
      "inputs": [
        {
          "internalType": "uint256",
          "name": "_balance",
          "type": "uint256"
        }
      ],
      "name": "emergencyWithdrawGMX",
      "outputs": [],
      "stateMutability": "nonpayable",
      "type": "function"
    },
    {
      "inputs": [],
      "name": "gmxDepositor",
      "outputs": [
        {
          "internalType": "contract IGmxDepositor",
          "name": "",
          "type": "address"
        }
      ],
      "stateMutability": "view",
      "type": "function"
    },
    {
      "inputs": [],
      "name": "gmxRewardRouter",
      "outputs": [
        {
          "internalType": "address",
          "name": "",
          "type": "address"
        }
      ],
      "stateMutability": "view",
      "type": "function"
    },
    {
      "inputs": [
        {
          "internalType": "address",
          "name": "_rewardTracker",
          "type": "address"
        }
      ],
      "name": "pendingRewards",
      "outputs": [
        {
          "internalType": "uint256",
          "name": "",
          "type": "uint256"
        }
      ],
      "stateMutability": "view",
      "type": "function"
    },
    {
      "inputs": [
        {
          "internalType": "uint256",
          "name": "_amount",
          "type": "uint256"
        }
      ],
      "name": "stakeGmx",
      "outputs": [],
      "stateMutability": "nonpayable",
      "type": "function"
    },
    {
      "inputs": [
        {
          "internalType": "address",
          "name": "_rewardTracker",
          "type": "address"
        }
      ],
      "name": "totalDeposits",
      "outputs": [
        {
          "internalType": "uint256",
          "name": "",
          "type": "uint256"
        }
      ],
      "stateMutability": "view",
      "type": "function"
    },
    {
      "inputs": [
        {
          "internalType": "address",
          "name": "newValue",
          "type": "address"
        }
      ],
      "name": "updateDevAddr",
      "outputs": [],
      "stateMutability": "nonpayable",
      "type": "function"
    },
    {
      "inputs": [
        {
          "internalType": "uint256",
          "name": "_amount",
          "type": "uint256"
        }
      ],
      "name": "withdrawGlp",
      "outputs": [],
      "stateMutability": "nonpayable",
      "type": "function"
    },
    {
      "inputs": [
        {
          "internalType": "uint256",
          "name": "_amount",
          "type": "uint256"
        }
      ],
      "name": "withdrawGmx",
      "outputs": [],
      "stateMutability": "nonpayable",
      "type": "function"
    }
  ],
  "bytecode": {
    "object": "0x6101006040523480156200001257600080fd5b506040516200192738038062001927833981016040819052620000359162000175565b600080546001600160a01b0319166001600160a01b0383811691909117909155838116608052821660a08190526040805163067200c560e11b81529051630ce4018a916004808201926020929091908290030181865afa1580156200009e573d6000803e3d6000fd5b505050506040513d601f19601f82011682018060405250810190620000c49190620001bf565b6001600160a01b031660c0816001600160a01b031681525050816001600160a01b031663fa6db1bc6040518163ffffffff1660e01b8152600401602060405180830381865afa1580156200011c573d6000803e3d6000fd5b505050506040513d601f19601f82011682018060405250810190620001429190620001bf565b6001600160a01b031660e05250620001e4915050565b80516001600160a01b03811681146200017057600080fd5b919050565b6000806000606084860312156200018b57600080fd5b620001968462000158565b9250620001a66020850162000158565b9150620001b66040850162000158565b90509250925092565b600060208284031215620001d257600080fd5b620001dd8262000158565b9392505050565b60805160a05160c05160e051611685620002a26000396000818161068e0152610801015260008181610cb00152610da50152600081816101b20152818161077301528181610a2a01528181610d0701528181610dff015261113801526000818160ff015281816102730152818161065c0152818161070f015281816107cc0152818161096901528181610ac101528181610b5f01528181610c7e01528181610d6f01528181610e6701528181610ef5015261111501526116856000f3fe608060405234801561001057600080fd5b50600436106100f55760003560e01c80639d54b52411610097578063d279c19111610066578063d279c19114610210578063da09c72c14610223578063e940325614610236578063f3daeacc1461024957600080fd5b80639d54b524146101ad578063bf4d14d5146101d4578063c10300f714610174578063c613aec0146101e757600080fd5b806356615529116100d357806356615529146101745780635c72f4b51461018757806367860cce146101875780639291d5631461019a57600080fd5b8063026879dc146100fa57806331d7a2621461013e5780633b8ae3971461015f575b600080fd5b6101217f000000000000000000000000000000000000000000000000000000000000000081565b6040516001600160a01b0390911681526020015b60405180910390f35b61015161014c3660046113ca565b61025c565b604051908152602001610135565b61017261016d3660046113ca565b6102f0565b005b6101726101823660046113e7565b61045d565b6101726101953660046113e7565b6104fb565b6101726101a83660046113ca565b61056a565b6101217f000000000000000000000000000000000000000000000000000000000000000081565b6101516101e23660046113e7565b6105da565b6101216101f53660046113ca565b6001602052600090815260409020546001600160a01b031681565b61017261021e3660046113ca565b610869565b600054610121906001600160a01b031681565b6101516102443660046113ca565b61099a565b6101726102573660046113e7565b610bd2565b60405163402914f560e01b81526001600160a01b037f0000000000000000000000000000000000000000000000000000000000000000811660048301526000919083169063402914f590602401602060405180830381865afa1580156102c6573d6000803e3d6000fd5b505050506040513d601f19601f820116820180604052508101906102ea9190611400565b92915050565b6000546001600160a01b031633146103435760405162461bcd60e51b815260206004820152601160248201527023b6bc283937bc3c9d1d37b7363ca232bb60791b60448201526064015b60405180910390fd5b6000816001600160a01b031663c89039c56040518163ffffffff1660e01b8152600401602060405180830381865afa158015610383573d6000803e3d6000fd5b505050506040513d601f19601f820116820180604052508101906103a79190611419565b6001600160a01b03808216600090815260016020526040902054919250161561042d5760405162461bcd60e51b815260206004820152603260248201527f476d7850726f78793a3a537472617465677920666f72206465706f73697420746044820152711bdad95b88185b1c9958591e48185919195960721b606482015260840161033a565b6001600160a01b0390811660009081526001602052604090208054919092166001600160a01b0319909116179055565b7362edc0692bd897d2295872a9ffcac5425011c66160005260016020527fd9b87995a89b1c84b4bab64e3cd6e44e97280b5a5983d834af443d8e17a7f9b9546001600160a01b031633146104ef5760405162461bcd60e51b8152602060048201526019602482015278476d7850726f78793a3a6f6e6c79474d58537472617465677960381b604482015260640161033a565b6104f881610dfa565b50565b735643f4b25e36478ee1e90418d5343cb6591bcb9d60005260016020527f4c252107cf1470690ef2505b089a8ebb4870160623fd1d6a4afa8513ed4add90546001600160a01b031633146105615760405162461bcd60e51b815260040161033a90611436565b6104f881610f1d565b6000546001600160a01b031633146105b85760405162461bcd60e51b815260206004820152601160248201527023b6bc283937bc3c9d1d37b7363ca232bb60791b604482015260640161033a565b600080546001600160a01b0319166001600160a01b0392909216919091179055565b735643f4b25e36478ee1e90418d5343cb6591bcb9d600090815260016020527f4c252107cf1470690ef2505b089a8ebb4870160623fd1d6a4afa8513ed4add90546001600160a01b031633146106425760405162461bcd60e51b815260040161033a90611436565b61068173b31f66aa3c1e785363f0875a1b74e27b85fd66c77f000000000000000000000000000000000000000000000000000000000000000084610f52565b6040516001600160a01b037f0000000000000000000000000000000000000000000000000000000000000000166024820152604481018390526107379073b31f66aa3c1e785363f0875a1b74e27b85fd66c7906000906064015b60408051601f198184030181529190526020810180516001600160e01b031663095ea7b360e01b1790526001600160a01b037f000000000000000000000000000000000000000000000000000000000000000016929190610fa9565b5060405173b31f66aa3c1e785363f0875a1b74e27b85fd66c760248201526044810183905260006064820181905260848201819052906107f4907f000000000000000000000000000000000000000000000000000000000000000090839060a40160408051601f198184030181529190526020810180516001600160e01b031663364e231160e01b1790526001600160a01b037f000000000000000000000000000000000000000000000000000000000000000016929190610fa9565b6040516001600160a01b037f00000000000000000000000000000000000000000000000000000000000000001660248201526000604482018190529192506108549173b31f66aa3c1e785363f0875a1b74e27b85fd66c7916064016106db565b50610860816000611080565b9150505b919050565b735643f4b25e36478ee1e90418d5343cb6591bcb9d60005260016020527f4c252107cf1470690ef2505b089a8ebb4870160623fd1d6a4afa8513ed4add90546001600160a01b031633148061090457507362edc0692bd897d2295872a9ffcac5425011c66160005260016020527fd9b87995a89b1c84b4bab64e3cd6e44e97280b5a5983d834af443d8e17a7f9b9546001600160a01b031633145b6109205760405162461bcd60e51b815260040161033a90611436565b60405133602482015261099190829060009060440160408051601f198184030181529190526020810180516001600160e01b0316630f41a04d60e11b1790526001600160a01b037f000000000000000000000000000000000000000000000000000000000000000016929190610fa9565b506104f86110de565b600080336001600160a01b031663c89039c56040518163ffffffff1660e01b8152600401602060405180830381865afa1580156109db573d6000803e3d6000fd5b505050506040513d601f19601f820116820180604052508101906109ff9190611419565b90507362edc0692bd897d2295872a9ffcac5425011c660196001600160a01b03821601610b485760007f00000000000000000000000000000000000000000000000000000000000000006001600160a01b0316630ce4018a6040518163ffffffff1660e01b8152600401602060405180830381865afa158015610a86573d6000803e3d6000fd5b505050506040513d601f19601f82011682018060405250810190610aaa9190611419565b604051637aeceb1f60e11b81526001600160a01b037f00000000000000000000000000000000000000000000000000000000000000008116600483015284811660248301529192509082169063f5d9d63e90604401602060405180830381865afa158015610b1c573d6000803e3d6000fd5b505050506040513d601f19601f82011682018060405250810190610b409190611400565b949350505050565b6040516310c1c10360e01b81526001600160a01b037f0000000000000000000000000000000000000000000000000000000000000000811660048301528416906310c1c10390602401602060405180830381865afa158015610bae573d6000803e3d6000fd5b505050506040513d601f19601f820116820180604052508101906108609190611400565b7362edc0692bd897d2295872a9ffcac5425011c66160005260016020527fd9b87995a89b1c84b4bab64e3cd6e44e97280b5a5983d834af443d8e17a7f9b9546001600160a01b03163314610c645760405162461bcd60e51b8152602060048201526019602482015278476d7850726f78793a3a6f6e6c79474d58537472617465677960381b604482015260640161033a565b610ca37362edc0692bd897d2295872a9ffcac5425011c6617f000000000000000000000000000000000000000000000000000000000000000083610f52565b6040516001600160a01b037f000000000000000000000000000000000000000000000000000000000000000016602482015260448101829052610d01907362edc0692bd897d2295872a9ffcac5425011c661906000906064016106db565b50610d977f0000000000000000000000000000000000000000000000000000000000000000600083604051602401610d3b91815260200190565b60408051601f198184030181529190526020810180516001600160e01b0316633cf6bab360e21b1790526001600160a01b037f000000000000000000000000000000000000000000000000000000000000000016929190610fa9565b506040516001600160a01b037f0000000000000000000000000000000000000000000000000000000000000000166024820152600060448201819052610df6917362edc0692bd897d2295872a9ffcac5425011c66191906064016106db565b5050565b610e8f7f0000000000000000000000000000000000000000000000000000000000000000600083604051602401610e3391815260200190565b60408051601f198184030181529190526020810180516001600160e01b03166303c2c06960e11b1790526001600160a01b037f000000000000000000000000000000000000000000000000000000000000000016929190610fa9565b5060405133602482015260448101829052610df6907362edc0692bd897d2295872a9ffcac5425011c661906000906064015b60408051601f198184030181529190526020810180516001600160e01b031663a9059cbb60e01b1790526001600160a01b037f000000000000000000000000000000000000000000000000000000000000000016929190610fa9565b60405133602482015260448101829052610df690735643f4b25e36478ee1e90418d5343cb6591bcb9d90600090606401610ec1565b604080516001600160a01b038416602482015260448082018490528251808303909101815260649091019091526020810180516001600160e01b031663a9059cbb60e01b179052610fa4908490611160565b505050565b6060600080866001600160a01b031663b61d27f68787876040518463ffffffff1660e01b8152600401610fde939291906114c9565b6000604051808303816000875af1158015610ffd573d6000803e3d6000fd5b505050506040513d6000823e601f3d908101601f19168201604052611025919081019061151f565b91509150816110765760405162461bcd60e51b815260206004820152601c60248201527f476d7850726f78793a3a7361666545786563757465206661696c656400000000604482015260640161033a565b9695505050505050565b600061108d8260206115df565b835110156110d55760405162461bcd60e51b8152602060048201526015602482015274746f55696e743235365f6f75744f66426f756e647360581b604482015260640161033a565b50016020015190565b6040805160048152602481019091526020810180516001600160e01b0316637b4f102360e11b1790526104f8906001600160a01b037f000000000000000000000000000000000000000000000000000000000000000016907f000000000000000000000000000000000000000000000000000000000000000090600090610fa9565b60006111b5826040518060400160405280602081526020017f5361666545524332303a206c6f772d6c6576656c2063616c6c206661696c6564815250856001600160a01b03166112329092919063ffffffff16565b805190915015610fa457808060200190518101906111d39190611605565b610fa45760405162461bcd60e51b815260206004820152602a60248201527f5361666545524332303a204552433230206f7065726174696f6e20646964206e6044820152691bdd081cdd58d8d9595960b21b606482015260840161033a565b6060611241848460008561124b565b90505b9392505050565b6060824710156112ac5760405162461bcd60e51b815260206004820152602660248201527f416464726573733a20696e73756666696369656e742062616c616e636520666f6044820152651c8818d85b1b60d21b606482015260840161033a565b6001600160a01b0385163b6113035760405162461bcd60e51b815260206004820152601d60248201527f416464726573733a2063616c6c20746f206e6f6e2d636f6e7472616374000000604482015260640161033a565b600080866001600160a01b0316858760405161131f9190611620565b60006040518083038185875af1925050503d806000811461135c576040519150601f19603f3d011682016040523d82523d6000602084013e611361565b606091505b509150915061137182828661137c565b979650505050505050565b6060831561138b575081611244565b82511561139b5782518084602001fd5b8160405162461bcd60e51b815260040161033a919061163c565b6001600160a01b03811681146104f857600080fd5b6000602082840312156113dc57600080fd5b8135611244816113b5565b6000602082840312156113f957600080fd5b5035919050565b60006020828403121561141257600080fd5b5051919050565b60006020828403121561142b57600080fd5b8151611244816113b5565b60208082526018908201527f476d7850726f78793a6f6e6c79474c5053747261746567790000000000000000604082015260600190565b60005b83811015611488578181015183820152602001611470565b83811115611497576000848401525b50505050565b600081518084526114b581602086016020860161146d565b601f01601f19169290920160200192915050565b60018060a01b03841681528260208201526060604082015260006114f0606083018461149d565b95945050505050565b8051801515811461086457600080fd5b634e487b7160e01b600052604160045260246000fd5b6000806040838503121561153257600080fd5b61153b836114f9565b9150602083015167ffffffffffffffff8082111561155857600080fd5b818501915085601f83011261156c57600080fd5b81518181111561157e5761157e611509565b604051601f8201601f19908116603f011681019083821181831017156115a6576115a6611509565b816040528281528860208487010111156115bf57600080fd5b6115d083602083016020880161146d565b80955050505050509250929050565b6000821982111561160057634e487b7160e01b600052601160045260246000fd5b500190565b60006020828403121561161757600080fd5b611244826114f9565b6000825161163281846020870161146d565b9190910192915050565b602081526000611244602083018461149d56fea2646970667358221220caa617cba3c87add5c3c7b88148bac42905c20aab76193114cd33dabebf9ad5e64736f6c634300080d0033",
    "linkReferences": {}
  },
  "methodIdentifiers": {
    "approveStrategy(address)": "3b8ae397",
    "approvedStrategies(address)": "c613aec0",
    "buyAndStakeGlp(uint256)": "bf4d14d5",
    "claimReward(address)": "d279c191",
    "devAddr()": "da09c72c",
    "emergencyWithdrawGLP(uint256)": "67860cce",
    "emergencyWithdrawGMX(uint256)": "56615529",
    "gmxDepositor()": "026879dc",
    "gmxRewardRouter()": "9d54b524",
    "pendingRewards(address)": "31d7a262",
    "stakeGmx(uint256)": "f3daeacc",
    "totalDeposits(address)": "e9403256",
    "updateDevAddr(address)": "9291d563",
    "withdrawGlp(uint256)": "5c72f4b5",
    "withdrawGmx(uint256)": "c10300f7"
  },
  "id": 92
}