{
  "abi": [
    {
      "inputs": [
        {
          "internalType": "string",
          "name": "_name",
          "type": "string"
        },
        {
          "internalType": "address",
          "name": "_depositToken",
          "type": "address"
        },
        {
          "internalType": "address",
          "name": "_rewardToken",
          "type": "address"
        },
        {
          "internalType": "address",
          "name": "_poolRewardToken",
          "type": "address"
        },
        {
          "components": [
            {
              "internalType": "address",
              "name": "poolReward",
              "type": "address"
            },
            {
              "internalType": "address",
              "name": "extraReward",
              "type": "address"
            },
            {
              "internalType": "address",
              "name": "token0",
              "type": "address"
            },
            {
              "internalType": "address",
              "name": "token1",
              "type": "address"
            }
          ],
          "internalType": "struct MasterChefStrategyForLP.SwapPairs",
          "name": "_swapPairs",
          "type": "tuple"
        },
        {
          "internalType": "address",
          "name": "_stakingContract",
          "type": "address"
        },
        {
          "internalType": "uint256",
          "name": "_pid",
          "type": "uint256"
        },
        {
          "internalType": "address",
          "name": "_timelock",
          "type": "address"
        },
        {
          "components": [
            {
              "internalType": "uint256",
              "name": "minTokensToReinvest",
              "type": "uint256"
            },
            {
              "internalType": "uint256",
              "name": "devFeeBips",
              "type": "uint256"
            },
            {
              "internalType": "uint256",
              "name": "reinvestRewardBips",
              "type": "uint256"
            }
          ],
          "internalType": "struct YakStrategyV2.StrategySettings",
          "name": "_strategySettings",
          "type": "tuple"
        }
      ],
      "stateMutability": "nonpayable",
      "type": "constructor"
    },
    {
      "anonymous": false,
      "inputs": [
        {
          "indexed": true,
          "internalType": "address",
          "name": "account",
          "type": "address"
        }
      ],
      "name": "AllowDepositor",
      "type": "event"
    },
    {
      "anonymous": false,
      "inputs": [
        {
          "indexed": true,
          "internalType": "address",
          "name": "owner",
          "type": "address"
        },
        {
          "indexed": true,
          "internalType": "address",
          "name": "spender",
          "type": "address"
        },
        {
          "indexed": false,
          "internalType": "uint256",
          "name": "value",
          "type": "uint256"
        }
      ],
      "name": "Approval",
      "type": "event"
    },
    {
      "anonymous": false,
      "inputs": [
        {
          "indexed": true,
          "internalType": "address",
          "name": "account",
          "type": "address"
        },
        {
          "indexed": false,
          "internalType": "uint256",
          "name": "amount",
          "type": "uint256"
        }
      ],
      "name": "Deposit",
      "type": "event"
    },
    {
      "anonymous": false,
      "inputs": [
        {
          "indexed": false,
          "internalType": "bool",
          "name": "newValue",
          "type": "bool"
        }
      ],
      "name": "DepositsEnabled",
      "type": "event"
    },
    {
      "anonymous": false,
      "inputs": [
        {
          "indexed": true,
          "internalType": "address",
          "name": "previousOwner",
          "type": "address"
        },
        {
          "indexed": true,
          "internalType": "address",
          "name": "newOwner",
          "type": "address"
        }
      ],
      "name": "OwnershipTransferred",
      "type": "event"
    },
    {
      "anonymous": false,
      "inputs": [
        {
          "indexed": false,
          "internalType": "address",
          "name": "token",
          "type": "address"
        },
        {
          "indexed": false,
          "internalType": "uint256",
          "name": "amount",
          "type": "uint256"
        }
      ],
      "name": "Recovered",
      "type": "event"
    },
    {
      "anonymous": false,
      "inputs": [
        {
          "indexed": false,
          "internalType": "uint256",
          "name": "newTotalDeposits",
          "type": "uint256"
        },
        {
          "indexed": false,
          "internalType": "uint256",
          "name": "newTotalSupply",
          "type": "uint256"
        }
      ],
      "name": "Reinvest",
      "type": "event"
    },
    {
      "anonymous": false,
      "inputs": [
        {
          "indexed": true,
          "internalType": "address",
          "name": "account",
          "type": "address"
        }
      ],
      "name": "RemoveDepositor",
      "type": "event"
    },
    {
      "anonymous": false,
      "inputs": [
        {
          "indexed": true,
          "internalType": "address",
          "name": "from",
          "type": "address"
        },
        {
          "indexed": true,
          "internalType": "address",
          "name": "to",
          "type": "address"
        },
        {
          "indexed": false,
          "internalType": "uint256",
          "name": "value",
          "type": "uint256"
        }
      ],
      "name": "Transfer",
      "type": "event"
    },
    {
      "anonymous": false,
      "inputs": [
        {
          "indexed": false,
          "internalType": "uint256",
          "name": "oldValue",
          "type": "uint256"
        },
        {
          "indexed": false,
          "internalType": "uint256",
          "name": "newValue",
          "type": "uint256"
        }
      ],
      "name": "UpdateAdminFee",
      "type": "event"
    },
    {
      "anonymous": false,
      "inputs": [
        {
          "indexed": false,
          "internalType": "address",
          "name": "oldValue",
          "type": "address"
        },
        {
          "indexed": false,
          "internalType": "address",
          "name": "newValue",
          "type": "address"
        }
      ],
      "name": "UpdateDevAddr",
      "type": "event"
    },
    {
      "anonymous": false,
      "inputs": [
        {
          "indexed": false,
          "internalType": "uint256",
          "name": "oldValue",
          "type": "uint256"
        },
        {
          "indexed": false,
          "internalType": "uint256",
          "name": "newValue",
          "type": "uint256"
        }
      ],
      "name": "UpdateDevFee",
      "type": "event"
    },
    {
      "anonymous": false,
      "inputs": [
        {
          "indexed": false,
          "internalType": "uint256",
          "name": "oldValue",
          "type": "uint256"
        },
        {
          "indexed": false,
          "internalType": "uint256",
          "name": "newValue",
          "type": "uint256"
        }
      ],
      "name": "UpdateMaxTokensToDepositWithoutReinvest",
      "type": "event"
    },
    {
      "anonymous": false,
      "inputs": [
        {
          "indexed": false,
          "internalType": "uint256",
          "name": "oldValue",
          "type": "uint256"
        },
        {
          "indexed": false,
          "internalType": "uint256",
          "name": "newValue",
          "type": "uint256"
        }
      ],
      "name": "UpdateMinTokensToReinvest",
      "type": "event"
    },
    {
      "anonymous": false,
      "inputs": [
        {
          "indexed": false,
          "internalType": "uint256",
          "name": "oldValue",
          "type": "uint256"
        },
        {
          "indexed": false,
          "internalType": "uint256",
          "name": "newValue",
          "type": "uint256"
        }
      ],
      "name": "UpdateReinvestReward",
      "type": "event"
    },
    {
      "anonymous": false,
      "inputs": [
        {
          "indexed": true,
          "internalType": "address",
          "name": "account",
          "type": "address"
        },
        {
          "indexed": false,
          "internalType": "uint256",
          "name": "amount",
          "type": "uint256"
        }
      ],
      "name": "Withdraw",
      "type": "event"
    },
    {
      "inputs": [],
      "name": "ADMIN_FEE_BIPS",
      "outputs": [
        {
          "internalType": "uint256",
          "name": "",
          "type": "uint256"
        }
      ],
      "stateMutability": "view",
      "type": "function"
    },
    {
      "inputs": [],
      "name": "DEPOSITS_ENABLED",
      "outputs": [
        {
          "internalType": "bool",
          "name": "",
          "type": "bool"
        }
      ],
      "stateMutability": "view",
      "type": "function"
    },
    {
      "inputs": [],
      "name": "DEV_FEE_BIPS",
      "outputs": [
        {
          "internalType": "uint256",
          "name": "",
          "type": "uint256"
        }
      ],
      "stateMutability": "view",
      "type": "function"
    },
    {
      "inputs": [],
      "name": "DOMAIN_TYPEHASH",
      "outputs": [
        {
          "internalType": "bytes32",
          "name": "",
          "type": "bytes32"
        }
      ],
      "stateMutability": "view",
      "type": "function"
    },
    {
      "inputs": [],
      "name": "MAX_TOKENS_TO_DEPOSIT_WITHOUT_REINVEST",
      "outputs": [
        {
          "internalType": "uint256",
          "name": "",
          "type": "uint256"
        }
      ],
      "stateMutability": "view",
      "type": "function"
    },
    {
      "inputs": [],
      "name": "MIN_TOKENS_TO_REINVEST",
      "outputs": [
        {
          "internalType": "uint256",
          "name": "",
          "type": "uint256"
        }
      ],
      "stateMutability": "view",
      "type": "function"
    },
    {
      "inputs": [],
      "name": "PERMIT_TYPEHASH",
      "outputs": [
        {
          "internalType": "bytes32",
          "name": "",
          "type": "bytes32"
        }
      ],
      "stateMutability": "view",
      "type": "function"
    },
    {
      "inputs": [],
      "name": "PID",
      "outputs": [
        {
          "internalType": "uint256",
          "name": "",
          "type": "uint256"
        }
      ],
      "stateMutability": "view",
      "type": "function"
    },
    {
      "inputs": [],
      "name": "REINVEST_REWARD_BIPS",
      "outputs": [
        {
          "internalType": "uint256",
          "name": "",
          "type": "uint256"
        }
      ],
      "stateMutability": "view",
      "type": "function"
    },
    {
      "inputs": [],
      "name": "VERSION_HASH",
      "outputs": [
        {
          "internalType": "bytes32",
          "name": "",
          "type": "bytes32"
        }
      ],
      "stateMutability": "view",
      "type": "function"
    },
    {
      "inputs": [
        {
          "internalType": "address",
          "name": "depositor",
          "type": "address"
        }
      ],
      "name": "allowDepositor",
      "outputs": [],
      "stateMutability": "nonpayable",
      "type": "function"
    },
    {
      "inputs": [
        {
          "internalType": "address",
          "name": "account",
          "type": "address"
        },
        {
          "internalType": "address",
          "name": "spender",
          "type": "address"
        }
      ],
      "name": "allowance",
      "outputs": [
        {
          "internalType": "uint256",
          "name": "",
          "type": "uint256"
        }
      ],
      "stateMutability": "view",
      "type": "function"
    },
    {
      "inputs": [
        {
          "internalType": "address",
          "name": "",
          "type": "address"
        }
      ],
      "name": "allowedDepositors",
      "outputs": [
        {
          "internalType": "bool",
          "name": "",
          "type": "bool"
        }
      ],
      "stateMutability": "view",
      "type": "function"
    },
    {
      "inputs": [
        {
          "internalType": "address",
          "name": "spender",
          "type": "address"
        },
        {
          "internalType": "uint256",
          "name": "amount",
          "type": "uint256"
        }
      ],
      "name": "approve",
      "outputs": [
        {
          "internalType": "bool",
          "name": "",
          "type": "bool"
        }
      ],
      "stateMutability": "nonpayable",
      "type": "function"
    },
    {
      "inputs": [
        {
          "internalType": "address",
          "name": "account",
          "type": "address"
        }
      ],
      "name": "balanceOf",
      "outputs": [
        {
          "internalType": "uint256",
          "name": "",
          "type": "uint256"
        }
      ],
      "stateMutability": "view",
      "type": "function"
    },
    {
      "inputs": [],
      "name": "checkReward",
      "outputs": [
        {
          "internalType": "uint256",
          "name": "",
          "type": "uint256"
        }
      ],
      "stateMutability": "view",
      "type": "function"
    },
    {
      "inputs": [],
      "name": "decimals",
      "outputs": [
        {
          "internalType": "uint8",
          "name": "",
          "type": "uint8"
        }
      ],
      "stateMutability": "view",
      "type": "function"
    },
    {
      "inputs": [
        {
          "internalType": "uint256",
          "name": "amount",
          "type": "uint256"
        }
      ],
      "name": "deposit",
      "outputs": [],
      "stateMutability": "nonpayable",
      "type": "function"
    },
    {
      "inputs": [
        {
          "internalType": "address",
          "name": "account",
          "type": "address"
        },
        {
          "internalType": "uint256",
          "name": "amount",
          "type": "uint256"
        }
      ],
      "name": "depositFor",
      "outputs": [],
      "stateMutability": "nonpayable",
      "type": "function"
    },
    {
      "inputs": [],
      "name": "depositToken",
      "outputs": [
        {
          "internalType": "contract IERC20",
          "name": "",
          "type": "address"
        }
      ],
      "stateMutability": "view",
      "type": "function"
    },
    {
      "inputs": [
        {
          "internalType": "uint256",
          "name": "amount",
          "type": "uint256"
        },
        {
          "internalType": "uint256",
          "name": "deadline",
          "type": "uint256"
        },
        {
          "internalType": "uint8",
          "name": "v",
          "type": "uint8"
        },
        {
          "internalType": "bytes32",
          "name": "r",
          "type": "bytes32"
        },
        {
          "internalType": "bytes32",
          "name": "s",
          "type": "bytes32"
        }
      ],
      "name": "depositWithPermit",
      "outputs": [],
      "stateMutability": "nonpayable",
      "type": "function"
    },
    {
      "inputs": [],
      "name": "devAddr",
      "outputs": [
        {
          "internalType": "address",
          "name": "",
          "type": "address"
        }
      ],
      "stateMutability": "view",
      "type": "function"
    },
    {
      "inputs": [],
      "name": "estimateDeployedBalance",
      "outputs": [
        {
          "internalType": "uint256",
          "name": "",
          "type": "uint256"
        }
      ],
      "stateMutability": "view",
      "type": "function"
    },
    {
      "inputs": [],
      "name": "estimateReinvestReward",
      "outputs": [
        {
          "internalType": "uint256",
          "name": "",
          "type": "uint256"
        }
      ],
      "stateMutability": "view",
      "type": "function"
    },
    {
      "inputs": [],
      "name": "extraToken",
      "outputs": [
        {
          "internalType": "address",
          "name": "",
          "type": "address"
        }
      ],
      "stateMutability": "view",
      "type": "function"
    },
    {
      "inputs": [
        {
          "internalType": "uint256",
          "name": "amount",
          "type": "uint256"
        }
      ],
      "name": "getDepositTokensForShares",
      "outputs": [
        {
          "internalType": "uint256",
          "name": "",
          "type": "uint256"
        }
      ],
      "stateMutability": "view",
      "type": "function"
    },
    {
      "inputs": [],
      "name": "getDomainSeparator",
      "outputs": [
        {
          "internalType": "bytes32",
          "name": "",
          "type": "bytes32"
        }
      ],
      "stateMutability": "view",
      "type": "function"
    },
    {
      "inputs": [
        {
          "internalType": "uint256",
          "name": "amount",
          "type": "uint256"
        }
      ],
      "name": "getSharesForDepositTokens",
      "outputs": [
        {
          "internalType": "uint256",
          "name": "",
          "type": "uint256"
        }
      ],
      "stateMutability": "view",
      "type": "function"
    },
    {
      "inputs": [],
      "name": "name",
      "outputs": [
        {
          "internalType": "string",
          "name": "",
          "type": "string"
        }
      ],
      "stateMutability": "view",
      "type": "function"
    },
    {
      "inputs": [
        {
          "internalType": "address",
          "name": "",
          "type": "address"
        }
      ],
      "name": "nonces",
      "outputs": [
        {
          "internalType": "uint256",
          "name": "",
          "type": "uint256"
        }
      ],
      "stateMutability": "view",
      "type": "function"
    },
    {
      "inputs": [],
      "name": "numberOfAllowedDepositors",
      "outputs": [
        {
          "internalType": "uint256",
          "name": "",
          "type": "uint256"
        }
      ],
      "stateMutability": "view",
      "type": "function"
    },
    {
      "inputs": [],
      "name": "owner",
      "outputs": [
        {
          "internalType": "address",
          "name": "",
          "type": "address"
        }
      ],
      "stateMutability": "view",
      "type": "function"
    },
    {
      "inputs": [
        {
          "internalType": "address",
          "name": "owner",
          "type": "address"
        },
        {
          "internalType": "address",
          "name": "spender",
          "type": "address"
        },
        {
          "internalType": "uint256",
          "name": "value",
          "type": "uint256"
        },
        {
          "internalType": "uint256",
          "name": "deadline",
          "type": "uint256"
        },
        {
          "internalType": "uint8",
          "name": "v",
          "type": "uint8"
        },
        {
          "internalType": "bytes32",
          "name": "r",
          "type": "bytes32"
        },
        {
          "internalType": "bytes32",
          "name": "s",
          "type": "bytes32"
        }
      ],
      "name": "permit",
      "outputs": [],
      "stateMutability": "nonpayable",
      "type": "function"
    },
    {
      "inputs": [
        {
          "internalType": "uint256",
          "name": "amount",
          "type": "uint256"
        }
      ],
      "name": "recoverAVAX",
      "outputs": [],
      "stateMutability": "nonpayable",
      "type": "function"
    },
    {
      "inputs": [
        {
          "internalType": "address",
          "name": "tokenAddress",
          "type": "address"
        },
        {
          "internalType": "uint256",
          "name": "tokenAmount",
          "type": "uint256"
        }
      ],
      "name": "recoverERC20",
      "outputs": [],
      "stateMutability": "nonpayable",
      "type": "function"
    },
    {
      "inputs": [],
      "name": "reinvest",
      "outputs": [],
      "stateMutability": "nonpayable",
      "type": "function"
    },
    {
      "inputs": [
        {
          "internalType": "address",
          "name": "depositor",
          "type": "address"
        }
      ],
      "name": "removeDepositor",
      "outputs": [],
      "stateMutability": "nonpayable",
      "type": "function"
    },
    {
      "inputs": [],
      "name": "renounceOwnership",
      "outputs": [],
      "stateMutability": "nonpayable",
      "type": "function"
    },
    {
      "inputs": [
        {
          "internalType": "uint256",
          "name": "minReturnAmountAccepted",
          "type": "uint256"
        },
        {
          "internalType": "bool",
          "name": "disableDeposits",
          "type": "bool"
        }
      ],
      "name": "rescueDeployedFunds",
      "outputs": [],
      "stateMutability": "nonpayable",
      "type": "function"
    },
    {
      "inputs": [
        {
          "internalType": "address",
          "name": "token",
          "type": "address"
        },
        {
          "internalType": "address",
          "name": "spender",
          "type": "address"
        }
      ],
      "name": "revokeAllowance",
      "outputs": [],
      "stateMutability": "nonpayable",
      "type": "function"
    },
    {
      "inputs": [],
      "name": "rewardToken",
      "outputs": [
        {
          "internalType": "contract IERC20",
          "name": "",
          "type": "address"
        }
      ],
      "stateMutability": "view",
      "type": "function"
    },
    {
      "inputs": [
        {
          "internalType": "address",
          "name": "_extraTokenSwapPair",
          "type": "address"
        }
      ],
      "name": "setExtraRewardSwapPair",
      "outputs": [],
      "stateMutability": "nonpayable",
      "type": "function"
    },
    {
      "inputs": [],
      "name": "stakingContract",
      "outputs": [
        {
          "internalType": "contract IKassandraStaking",
          "name": "",
          "type": "address"
        }
      ],
      "stateMutability": "view",
      "type": "function"
    },
    {
      "inputs": [],
      "name": "swapPairExtraReward",
      "outputs": [
        {
          "internalType": "address",
          "name": "",
          "type": "address"
        }
      ],
      "stateMutability": "view",
      "type": "function"
    },
    {
      "inputs": [],
      "name": "symbol",
      "outputs": [
        {
          "internalType": "string",
          "name": "",
          "type": "string"
        }
      ],
      "stateMutability": "view",
      "type": "function"
    },
    {
      "inputs": [],
      "name": "totalDeposits",
      "outputs": [
        {
          "internalType": "uint256",
          "name": "",
          "type": "uint256"
        }
      ],
      "stateMutability": "view",
      "type": "function"
    },
    {
      "inputs": [],
      "name": "totalSupply",
      "outputs": [
        {
          "internalType": "uint256",
          "name": "",
          "type": "uint256"
        }
      ],
      "stateMutability": "view",
      "type": "function"
    },
    {
      "inputs": [
        {
          "internalType": "address",
          "name": "dst",
          "type": "address"
        },
        {
          "internalType": "uint256",
          "name": "amount",
          "type": "uint256"
        }
      ],
      "name": "transfer",
      "outputs": [
        {
          "internalType": "bool",
          "name": "",
          "type": "bool"
        }
      ],
      "stateMutability": "nonpayable",
      "type": "function"
    },
    {
      "inputs": [
        {
          "internalType": "address",
          "name": "src",
          "type": "address"
        },
        {
          "internalType": "address",
          "name": "dst",
          "type": "address"
        },
        {
          "internalType": "uint256",
          "name": "amount",
          "type": "uint256"
        }
      ],
      "name": "transferFrom",
      "outputs": [
        {
          "internalType": "bool",
          "name": "",
          "type": "bool"
        }
      ],
      "stateMutability": "nonpayable",
      "type": "function"
    },
    {
      "inputs": [
        {
          "internalType": "address",
          "name": "newOwner",
          "type": "address"
        }
      ],
      "name": "transferOwnership",
      "outputs": [],
      "stateMutability": "nonpayable",
      "type": "function"
    },
    {
      "inputs": [
        {
          "internalType": "uint256",
          "name": "newValue",
          "type": "uint256"
        }
      ],
      "name": "updateAdminFee",
      "outputs": [],
      "stateMutability": "nonpayable",
      "type": "function"
    },
    {
      "inputs": [
        {
          "internalType": "bool",
          "name": "newValue",
          "type": "bool"
        }
      ],
      "name": "updateDepositsEnabled",
      "outputs": [],
      "stateMutability": "nonpayable",
      "type": "function"
    },
    {
      "inputs": [
        {
          "internalType": "address",
          "name": "newValue",
          "type": "address"
        }
      ],
      "name": "updateDevAddr",
      "outputs": [],
      "stateMutability": "nonpayable",
      "type": "function"
    },
    {
      "inputs": [
        {
          "internalType": "uint256",
          "name": "newValue",
          "type": "uint256"
        }
      ],
      "name": "updateDevFee",
      "outputs": [],
      "stateMutability": "nonpayable",
      "type": "function"
    },
    {
      "inputs": [
        {
          "internalType": "uint256",
          "name": "newValue",
          "type": "uint256"
        }
      ],
      "name": "updateMaxTokensToDepositWithoutReinvest",
      "outputs": [],
      "stateMutability": "nonpayable",
      "type": "function"
    },
    {
      "inputs": [
        {
          "internalType": "uint256",
          "name": "newValue",
          "type": "uint256"
        }
      ],
      "name": "updateMinTokensToReinvest",
      "outputs": [],
      "stateMutability": "nonpayable",
      "type": "function"
    },
    {
      "inputs": [
        {
          "internalType": "uint256",
          "name": "newValue",
          "type": "uint256"
        }
      ],
      "name": "updateReinvestReward",
      "outputs": [],
      "stateMutability": "nonpayable",
      "type": "function"
    },
    {
      "inputs": [
        {
          "internalType": "uint256",
          "name": "amount",
          "type": "uint256"
        }
      ],
      "name": "withdraw",
      "outputs": [],
      "stateMutability": "nonpayable",
      "type": "function"
    }
  ],
  "bytecode": {
    "object": "0x60e0604052600960a0819052685969656c642059616b60b81b60c09081526200002c91600091906200167a565b506040805180820190915260038082526216549560ea1b602090920191825262000059916001916200167a565b503480156200006757600080fd5b506040516200577f3803806200577f8339810160408190526200008a9162001870565b88888888888688878787878787600001518860200151888888806000620000b66200024760201b60201c565b600680546001600160a01b0319166001600160a01b038316908117909155604051919250906000906000805160206200575f833981519152908290a350805162000100906200024b565b60208101516200011090620002db565b6040810151620001209062000392565b508851620001369060009060208c01906200167a565b50600980546001600160a01b03808b166001600160a01b031992831617909255600a8054928a16928216929092179091556080839052600b8054909116732d580f9cf2fb2d09bc411532988f2afda4e7beff1790556200019887878762000449565b620001a38462000721565b620001af600162000903565b620001ba83620009ad565b60408051600080825260208201527fc7606d21ac05cd309191543e409f0845c016120563783d70e4f41419dc0ef234910160405180910390a15050505050505050506200020f84878762000aaa60201b60201c565b5050601880546001600160a01b0319166001600160a01b039b909b169a909a179099555062001a429c50505050505050505050505050565b3390565b6006546001600160a01b031633146200029a5760405162461bcd60e51b815260206004820181905260248201526000805160206200573f83398151915260448201526064015b60405180910390fd5b600c5460408051918252602082018390527f481f79ac3a523b6d6db3c5a720e190e986d1cc1b41adcdf50f9caef849901100910160405180910390a1600c55565b6006546001600160a01b03163314620003265760405162461bcd60e51b815260206004820181905260248201526000805160206200573f833981519152604482015260640162000291565b61271062000345601054836200166560201b62001b151790919060201c565b11156200035157600080fd5b60115460408051918252602082018390527f2a42303d002f0ba6cfe8259c91d4684443fb0b3de286ba74991175d651726131910160405180910390a1601155565b6006546001600160a01b03163314620003dd5760405162461bcd60e51b815260206004820181905260248201526000805160206200573f833981519152604482015260640162000291565b612710620003fc601154836200166560201b62001b151790919060201c565b11156200040857600080fd5b60105460408051918252602082018390527fe7f97d51d307dc44045597c9978bec0f842e6bb40d19b9444084cfa30d9ed4f2910160405180910390a1601055565b826001600160a01b0316826001600160a01b031614620006f257806001600160a01b0316630dfe16816040518163ffffffff1660e01b8152600401602060405180830381865afa158015620004a2573d6000803e3d6000fd5b505050506040513d601f19601f82011682018060405250810190620004c89190620019c1565b6001600160a01b0316826001600160a01b031603620005c357826001600160a01b0316816001600160a01b031663d21220a76040518163ffffffff1660e01b8152600401602060405180830381865afa1580156200052a573d6000803e3d6000fd5b505050506040513d601f19601f82011682018060405250810190620005509190620019c1565b6001600160a01b031614620005bd5760405162461bcd60e51b815260206004820152603f60248201526000805160206200571f83398151915260448201527f6f6573206e6f7420636f6e7461696e2065636f73797374656d20746f6b656e00606482015260840162000291565b620006f2565b806001600160a01b031663d21220a76040518163ffffffff1660e01b8152600401602060405180830381865afa15801562000602573d6000803e3d6000fd5b505050506040513d601f19601f82011682018060405250810190620006289190620019c1565b6001600160a01b0316826001600160a01b0316036200068a57826001600160a01b0316816001600160a01b0316630dfe16816040518163ffffffff1660e01b8152600401602060405180830381865afa1580156200052a573d6000803e3d6000fd5b60405162461bcd60e51b815260206004820152604160248201526000805160206200571f83398151915260448201527f6f6573206e6f7420636f6e7461696e20706f6f6c2072657761726420746f6b656064820152603760f91b608482015260a40162000291565b601280546001600160a01b039384166001600160a01b0319918216179091556013805492909316911617905550565b6001600160a01b03811615620008e457600a5460408051630dfe168160e01b815290516001600160a01b0392831692841691630dfe16819160048083019260209291908290030181865afa1580156200077e573d6000803e3d6000fd5b505050506040513d601f19601f82011682018060405250810190620007a49190620019c1565b6001600160a01b0316036200083e57806001600160a01b031663d21220a76040518163ffffffff1660e01b8152600401602060405180830381865afa158015620007f2573d6000803e3d6000fd5b505050506040513d601f19601f82011682018060405250810190620008189190620019c1565b601580546001600160a01b0319166001600160a01b0392909216919091179055620008c4565b806001600160a01b0316630dfe16816040518163ffffffff1660e01b8152600401602060405180830381865afa1580156200087d573d6000803e3d6000fd5b505050506040513d601f19601f82011682018060405250810190620008a39190620019c1565b601580546001600160a01b0319166001600160a01b03929092169190911790555b601480546001600160a01b0383166001600160a01b031990911617905550565b601480546001600160a01b031990811690915560158054909116905550565b6006546001600160a01b031633146200094e5760405162461bcd60e51b815260206004820181905260248201526000805160206200573f833981519152604482015260640162000291565b600e5481151560ff9091161515036200096657600080fd5b600e805460ff19168215159081179091556040519081527f7b014ed3854e7f5cb0218d58b3c6ae7d53a68bb0af2f67bfb029ea42c38a7e859060200160405180910390a150565b6006546001600160a01b03163314620009f85760405162461bcd60e51b815260206004820181905260248201526000805160206200573f833981519152604482015260640162000291565b6001600160a01b03811662000a5f5760405162461bcd60e51b815260206004820152602660248201527f4f776e61626c653a206e6577206f776e657220697320746865207a65726f206160448201526564647265737360d01b606482015260840162000291565b6006546040516001600160a01b038084169216906000805160206200575f83398151915290600090a3600680546001600160a01b0319166001600160a01b0392909216919091179055565b600960009054906101000a90046001600160a01b03166001600160a01b0316630dfe16816040518163ffffffff1660e01b8152600401602060405180830381865afa15801562000afe573d6000803e3d6000fd5b505050506040513d601f19601f8201168201806040525081019062000b249190620019c1565b6001600160a01b0316826001600160a01b03161415801562000bd15750600960009054906101000a90046001600160a01b03166001600160a01b031663d21220a76040518163ffffffff1660e01b8152600401602060405180830381865afa15801562000b95573d6000803e3d6000fd5b505050506040513d601f19601f8201168201806040525081019062000bbb9190620019c1565b6001600160a01b0316826001600160a01b031614155b156200137c5760408301516001600160a01b031662000c455760405162461bcd60e51b815260206004820152602960248201527f5377617020706169722030206973206e656365737361727920627574206e6f74604482015268081cdd5c1c1b1a595960ba1b606482015260840162000291565b60608301516001600160a01b031662000cb35760405162461bcd60e51b815260206004820152602960248201527f5377617020706169722031206973206e656365737361727920627574206e6f74604482015268081cdd5c1c1b1a595960ba1b606482015260840162000291565b604080840151601680546001600160a01b039283166001600160a01b03199182168117909255606087015160178054918516919092161790558251630dfe168160e01b81529251918516929091630dfe1681916004808201926020929091908290030181865afa15801562000d2c573d6000803e3d6000fd5b505050506040513d601f19601f8201168201806040525081019062000d529190620019c1565b6001600160a01b0316148062000de057506016546040805163d21220a760e01b815290516001600160a01b0380861693169163d21220a79160048083019260209291908290030181865afa15801562000daf573d6000803e3d6000fd5b505050506040513d601f19601f8201168201806040525081019062000dd59190620019c1565b6001600160a01b0316145b62000e625760405162461bcd60e51b815260206004820152604560248201527f53776170207061697220737570706c69656420646f6573206e6f74206861766560448201527f207468652072657761726420746f6b656e206173206f6e65206f662069742773606482015264103830b4b960d91b608482015260a40162000291565b600960009054906101000a90046001600160a01b03166001600160a01b0316630dfe16816040518163ffffffff1660e01b8152600401602060405180830381865afa15801562000eb6573d6000803e3d6000fd5b505050506040513d601f19601f8201168201806040525081019062000edc9190620019c1565b6001600160a01b0316601660009054906101000a90046001600160a01b03166001600160a01b0316630dfe16816040518163ffffffff1660e01b8152600401602060405180830381865afa15801562000f39573d6000803e3d6000fd5b505050506040513d601f19601f8201168201806040525081019062000f5f9190620019c1565b6001600160a01b03161480620010785750600960009054906101000a90046001600160a01b03166001600160a01b0316630dfe16816040518163ffffffff1660e01b8152600401602060405180830381865afa15801562000fc4573d6000803e3d6000fd5b505050506040513d601f19601f8201168201806040525081019062000fea9190620019c1565b6001600160a01b0316601660009054906101000a90046001600160a01b03166001600160a01b031663d21220a76040518163ffffffff1660e01b8152600401602060405180830381865afa15801562001047573d6000803e3d6000fd5b505050506040513d601f19601f820116820180604052508101906200106d9190620019c1565b6001600160a01b0316145b620010ec5760405162461bcd60e51b815260206004820152603860248201527f537761702070616972203020737570706c69656420646f6573206e6f74206d6160448201527f74636820746865207061697220696e207175657374696f6e0000000000000000606482015260840162000291565b600960009054906101000a90046001600160a01b03166001600160a01b031663d21220a76040518163ffffffff1660e01b8152600401602060405180830381865afa15801562001140573d6000803e3d6000fd5b505050506040513d601f19601f82011682018060405250810190620011669190620019c1565b6001600160a01b0316601760009054906101000a90046001600160a01b03166001600160a01b0316630dfe16816040518163ffffffff1660e01b8152600401602060405180830381865afa158015620011c3573d6000803e3d6000fd5b505050506040513d601f19601f82011682018060405250810190620011e99190620019c1565b6001600160a01b03161480620013025750600960009054906101000a90046001600160a01b03166001600160a01b031663d21220a76040518163ffffffff1660e01b8152600401602060405180830381865afa1580156200124e573d6000803e3d6000fd5b505050506040513d601f19601f82011682018060405250810190620012749190620019c1565b6001600160a01b0316601760009054906101000a90046001600160a01b03166001600160a01b031663d21220a76040518163ffffffff1660e01b8152600401602060405180830381865afa158015620012d1573d6000803e3d6000fd5b505050506040513d601f19601f82011682018060405250810190620012f79190620019c1565b6001600160a01b0316145b620013765760405162461bcd60e51b815260206004820152603860248201527f537761702070616972203120737570706c69656420646f6573206e6f74206d6160448201527f74636820746865207061697220696e207175657374696f6e0000000000000000606482015260840162000291565b620014ed565b600960009054906101000a90046001600160a01b03166001600160a01b0316630dfe16816040518163ffffffff1660e01b8152600401602060405180830381865afa158015620013d0573d6000803e3d6000fd5b505050506040513d601f19601f82011682018060405250810190620013f69190620019c1565b6001600160a01b0316826001600160a01b0316036200143757600954601780546001600160a01b0319166001600160a01b03909216919091179055620014ed565b600960009054906101000a90046001600160a01b03166001600160a01b031663d21220a76040518163ffffffff1660e01b8152600401602060405180830381865afa1580156200148b573d6000803e3d6000fd5b505050506040513d601f19601f82011682018060405250810190620014b19190620019c1565b6001600160a01b0316826001600160a01b031603620014ed57600954601680546001600160a01b0319166001600160a01b039092169190911790555b82600001516001600160a01b0316630dfe16816040518163ffffffff1660e01b8152600401602060405180830381865afa15801562001530573d6000803e3d6000fd5b505050506040513d601f19601f82011682018060405250810190620015569190620019c1565b6001600160a01b0316816001600160a01b0316036200166057816001600160a01b031683600001516001600160a01b031663d21220a76040518163ffffffff1660e01b8152600401602060405180830381865afa158015620015bc573d6000803e3d6000fd5b505050506040513d601f19601f82011682018060405250810190620015e29190620019c1565b6001600160a01b031614620016605760405162461bcd60e51b815260206004820152603a60248201527f537761702070616972207377617050616972506f6f6c52657761726420646f6560448201527f73206e6f7420636f6e7461696e2072657761726420746f6b656e000000000000606482015260840162000291565b505050565b6000620016738284620019df565b9392505050565b828054620016889062001a06565b90600052602060002090601f016020900481019282620016ac5760008555620016f7565b82601f10620016c757805160ff1916838001178555620016f7565b82800160010185558215620016f7579182015b82811115620016f7578251825591602001919060010190620016da565b506200170592915062001709565b5090565b5b808211156200170557600081556001016200170a565b634e487b7160e01b600052604160045260246000fd5b604051601f8201601f191681016001600160401b038111828210171562001761576200176162001720565b604052919050565b80516001600160a01b03811681146200178157600080fd5b919050565b6000608082840312156200179957600080fd5b604051608081016001600160401b0381118282101715620017be57620017be62001720565b604052905080620017cf8362001769565b8152620017df6020840162001769565b6020820152620017f26040840162001769565b6040820152620018056060840162001769565b60608201525092915050565b6000606082840312156200182457600080fd5b604051606081016001600160401b038111828210171562001849576200184962001720565b80604052508091508251815260208301516020820152604083015160408201525092915050565b60008060008060008060008060006101c08a8c0312156200189057600080fd5b89516001600160401b0380821115620018a857600080fd5b818c0191508c601f830112620018bd57600080fd5b815181811115620018d257620018d262001720565b60209150620018ea601f8201601f1916830162001736565b8181528e83838601011115620018ff57600080fd5b60005b828110156200191f57848101840151828201850152830162001902565b82811115620019315760008484840101525b509b506200194390508c820162001769565b995050506200195560408b0162001769565b96506200196560608b0162001769565b9550620019768b60808c0162001786565b9450620019876101008b0162001769565b93506101208a01519250620019a06101408b0162001769565b9150620019b28b6101608c0162001811565b90509295985092959850929598565b600060208284031215620019d457600080fd5b620016738262001769565b6000821982111562001a0157634e487b7160e01b600052601160045260246000fd5b500190565b600181811c9082168062001a1b57607f821691505b60208210810362001a3c57634e487b7160e01b600052602260045260246000fd5b50919050565b608051613c9762001a886000396000818161052501528181610ebd015281816114b001528181611db7015281816124f9015281816128330152612acc0152613c976000f3fe608060405234801561001057600080fd5b506004361061038e5760003560e01c80638b73e606116101de578063bd079f551161010f578063dd8ce4d6116100ad578063ee99205c1161007c578063ee99205c146107e9578063f2fde38b146107fc578063f7c618c11461080f578063fdb5a03e1461082257600080fd5b8063dd8ce4d6146107a8578063e21ac825146107bb578063eab89a5a146107ce578063ed24911d146107e157600080fd5b8063cff1b6ef116100e9578063cff1b6ef14610736578063d505accf14610749578063da09c72c1461075c578063dd62ed3e1461076f57600080fd5b8063bd079f5514610712578063c4b24a461461071b578063c89039c51461072357600080fd5b8063a1a4ddeb1161017c578063ac0d31ff11610156578063ac0d31ff146106d7578063b52a321f146106ea578063b6b55f25146106f7578063b9e57b801461070a57600080fd5b8063a1a4ddeb1461069e578063a8ae2b7c146106b1578063a9059cbb146106c457600080fd5b80639291d563116101b85780639291d5631461064957806395d89b411461065c57806399729ec1146106645780639e4e73181461067757600080fd5b80638b73e606146105fe5780638da5cb5b14610611578063909ac8f41461063657600080fd5b80634bebd1e7116102c3578063789139bc11610261578063818372301161023057806381837230146105bc5780638432e894146105cf5780638980f11f146105e25780638aff733d146105f557600080fd5b8063789139bc146105785780637ae26773146105815780637d882097146105945780637ecebe001461059c57600080fd5b80635ea682ea1161029d5780635ea682ea146105175780635eaec0e41461052057806370a0823114610547578063715018a61461057057600080fd5b80634bebd1e7146104de5780634e77ace5146104f15780634ebb79161461050457600080fd5b80632e1a7d4d11610330578063313ce5671161030a578063313ce567146104855780633bdc6e721461049f578063483c2ef0146104a85780634a970be7146104cb57600080fd5b80632e1a7d4d146104365780632f4f21e21461044b57806330adf81f1461045e57600080fd5b80630f23475d1161036c5780630f23475d146103eb57806318160ddd146103f357806320606b70146103fc57806323b872dd1461042357600080fd5b806306fdde031461039357806307677111146103b1578063095ea7b3146103c8575b600080fd5b61039b61082a565b6040516103a891906136e1565b60405180910390f35b6103ba600f5481565b6040519081526020016103a8565b6103db6103d6366004613709565b6108b8565b60405190151581526020016103a8565b6103ba6108cf565b6103ba60025481565b6103ba7f8b73c3c69bb8fe3d512ecc4cf759cc79239f7b179b0ffacaa9a75d522b39400f81565b6103db610431366004613735565b61090a565b610449610444366004613776565b6109ee565b005b610449610459366004613709565b610ad0565b6103ba7f6e71edae12b1b97f4d1f60370fef10105fa2faae0126114a169c64845d6126c981565b61048d601281565b60405160ff90911681526020016103a8565b6103ba60075481565b6103db6104b636600461378f565b60086020526000908152604090205460ff1681565b6104496104d93660046137c2565b610ade565b6104496104ec36600461378f565b610b77565b6104496104ff366004613817565b610c76565b610449610512366004613776565b610cff565b6103ba60115481565b6103ba7f000000000000000000000000000000000000000000000000000000000000000081565b6103ba61055536600461378f565b6001600160a01b031660009081526004602052604090205490565b610449610d9b565b6103ba600d5481565b61044961058f366004613834565b610e0f565b6103ba610eb5565b6103ba6105aa36600461378f565b60056020526000908152604090205481565b6104496105ca366004613776565b610ee2565b6104496105dd36600461378f565b610f4d565b6104496105f0366004613709565b610faa565b6103ba60105481565b61044961060c36600461378f565b6110a1565b6006546001600160a01b03165b6040516001600160a01b0390911681526020016103a8565b60145461061e906001600160a01b031681565b61044961065736600461378f565b611222565b61039b6112dc565b610449610672366004613776565b6112e9565b6103ba7fc89efdaa54c0f20c7adf612882df0950f5a951637e0307cdcb4c672f298b8bc681565b60155461061e906001600160a01b031681565b6104496106bf366004613776565b611377565b6103db6106d2366004613709565b611405565b6104496106e536600461386d565b611412565b600e546103db9060ff1681565b610449610705366004613776565b611620565b6103ba61162a565b6103ba600c5481565b6103ba611669565b60095461061e906001600160a01b031681565b610449610744366004613776565b61167d565b610449610757366004613892565b6116f3565b600b5461061e906001600160a01b031681565b6103ba61077d366004613834565b6001600160a01b03918216600090815260036020908152604080832093909416825291909152205490565b6103ba6107b6366004613776565b6117f8565b6104496107c9366004613776565b611832565b6103ba6107dc366004613776565b61189d565b6103ba6118d1565b60185461061e906001600160a01b031681565b61044961080a36600461378f565b611971565b600a5461061e906001600160a01b031681565b610449611a5c565b6000805461083790613900565b80601f016020809104026020016040519081016040528092919081815260200182805461086390613900565b80156108b05780601f10610885576101008083540402835291602001916108b0565b820191906000526020600020905b81548152906001019060200180831161089357829003601f168201915b505050505081565b60006108c5338484611b21565b5060015b92915050565b6000806108da610eb5565b90506000806108f66127105b6108f08585611c2f565b90611c3b565b90506109028382611c47565b935050505090565b6001600160a01b03831660008181526003602090815260408083203380855292528220549192909190821480159061094457506000198114155b156109d5576000610970856040518060600160405280602f8152602001613bde602f9139849190611c53565b6001600160a01b038881166000818152600360209081526040808320948916808452948252918290208590559051848152939450919290917f8c5be1e5ebec7d5bd14f71427d1e84f3dd0314c0f7b2291e5b200ac8c7c3b925910160405180910390a3505b6109e0868686611c7f565b6001925050505b9392505050565b60006109f98261189d565b905060008111610a505760405162461bcd60e51b815260206004820152601e60248201527f4d617374657243686566537472617465677956313a3a7769746864726177000060448201526064015b60405180910390fd5b610a5981611db2565b600080610a676127106108e6565b600954909150610a8a906001600160a01b031633610a858685611c47565b611ddc565b610a943385611eb3565b60405183815233907f884edad9ce6fa2440d8a54cc123490eb96d2768479d49ff9c7366125a9424364906020015b60405180910390a250505050565b610ada8282611f89565b5050565b60095460405163d505accf60e01b8152336004820152306024820152604481018790526064810186905260ff8516608482015260a4810184905260c481018390526001600160a01b039091169063d505accf9060e401600060405180830381600087803b158015610b4e57600080fd5b505af1158015610b62573d6000803e3d6000fd5b50505050610b703386611f89565b5050505050565b6006546001600160a01b03163314610ba15760405162461bcd60e51b8152600401610a479061393a565b6001600160a01b03811660009081526008602052604090205460ff1615610c0a5760405162461bcd60e51b815260206004820152601c60248201527f5065726d697373696f6e65643a3a616c6c6f774465706f7369746f72000000006044820152606401610a47565b6001600160a01b0381166000908152600860205260409020805460ff19166001908117909155600754610c3c91611b15565b6007556040516001600160a01b038216907fc0a1035c16faf8d1304056d92c00edf028f87e62b8235a938f00af9e3c0312c590600090a250565b6006546001600160a01b03163314610ca05760405162461bcd60e51b8152600401610a479061393a565b600e5481151560ff909116151503610cb757600080fd5b600e805460ff19168215159081179091556040519081527f7b014ed3854e7f5cb0218d58b3c6ae7d53a68bb0af2f67bfb029ea42c38a7e85906020015b60405180910390a150565b6006546001600160a01b03163314610d295760405162461bcd60e51b8152600401610a479061393a565b60008111610d3657600080fd5b604051339082156108fc029083906000818181858888f19350505050158015610d63573d6000803e3d6000fd5b506040805160008152602081018390527f8c1256b8896378cd5044f80c202f9772b9d77dc85c8a6eb51967210b09bfaa289101610cf4565b6006546001600160a01b03163314610dc55760405162461bcd60e51b8152600401610a479061393a565b6006546040516000916001600160a01b0316907f8be0079c531659141344cd1fd0a4f28419497f9722a3daafe3b4186f6b6457e0908390a3600680546001600160a01b0319169055565b6006546001600160a01b03163314610e395760405162461bcd60e51b8152600401610a479061393a565b60405163095ea7b360e01b81526001600160a01b0382811660048301526000602483015283169063095ea7b3906044016020604051808303816000875af1158015610e88573d6000803e3d6000fd5b505050506040513d601f19601f82011682018060405250810190610eac919061396f565b610ada57600080fd5b6000806108c97f000000000000000000000000000000000000000000000000000000000000000030612157565b6006546001600160a01b03163314610f0c5760405162461bcd60e51b8152600401610a479061393a565b600c5460408051918252602082018390527f481f79ac3a523b6d6db3c5a720e190e986d1cc1b41adcdf50f9caef849901100910160405180910390a1600c55565b600b546001600160a01b03163314610f9e5760405162461bcd60e51b81526020600482015260146024820152732cb0b5a9ba3930ba32b3bc9d1d37b7363ca232bb60611b6044820152606401610a47565b610fa7816121cd565b50565b6006546001600160a01b03163314610fd45760405162461bcd60e51b8152600401610a479061393a565b60008111610fe157600080fd5b60405163a9059cbb60e01b8152336004820152602481018290526001600160a01b0383169063a9059cbb906044016020604051808303816000875af115801561102e573d6000803e3d6000fd5b505050506040513d601f19601f82011682018060405250810190611052919061396f565b61105b57600080fd5b604080516001600160a01b0384168152602081018390527f8c1256b8896378cd5044f80c202f9772b9d77dc85c8a6eb51967210b09bfaa28910160405180910390a15050565b6006546001600160a01b031633146110cb5760405162461bcd60e51b8152600401610a479061393a565b60006007541161113a5760405162461bcd60e51b815260206004820152603460248201527f5065726d697373696f6e65643a3a72656d6f76654465706f7369746f722c206e6044820152736f20616c6c6f776564206465706f7369746f727360601b6064820152608401610a47565b6001600160a01b03811660009081526008602052604090205460ff1615156001146111ba5760405162461bcd60e51b815260206004820152602a60248201527f5065726d697373696f6e65643a3a72656d6f76654465706f7369746f722c206e6044820152691bdd08185b1b1bddd95960b21b6064820152608401610a47565b6001600160a01b0381166000908152600860205260409020805460ff191690556007546111e8906001611c47565b6007556040516001600160a01b038216907f0e86f6608b536e5339a25b65ff531f5ea91e1313d056ecd4752b35cbd16137d490600090a250565b600b546001600160a01b031633146112735760405162461bcd60e51b81526020600482015260146024820152732cb0b5a9ba3930ba32b3bc9d1d37b7363ca232bb60611b6044820152606401610a47565b600b54604080516001600160a01b03928316815291831660208301527fa8e91499ed37682f43cffb045fcc7d379a91e8c9a14e6321877ee34dee564c00910160405180910390a1600b80546001600160a01b0319166001600160a01b0392909216919091179055565b6001805461083790613900565b6006546001600160a01b031633146113135760405162461bcd60e51b8152600401610a479061393a565b61271061132b60105483611b1590919063ffffffff16565b111561133657600080fd5b60115460408051918252602082018390527f2a42303d002f0ba6cfe8259c91d4684443fb0b3de286ba74991175d651726131910160405180910390a1601155565b6006546001600160a01b031633146113a15760405162461bcd60e51b8152600401610a479061393a565b6127106113b960115483611b1590919063ffffffff16565b11156113c457600080fd5b60105460408051918252602082018390527fe7f97d51d307dc44045597c9978bec0f842e6bb40d19b9444084cfa30d9ed4f2910160405180910390a1601055565b60006108c5338484611c7f565b6006546001600160a01b0316331461143c5760405162461bcd60e51b8152600401610a479061393a565b6009546040516370a0823160e01b81523060048201526000916001600160a01b0316906370a0823190602401602060405180830381865afa158015611485573d6000803e3d6000fd5b505050506040513d601f19601f820116820180604052508101906114a9919061398c565b90506114d47f00000000000000000000000000000000000000000000000000000000000000006123a3565b6009546040516370a0823160e01b81523060048201526000916001600160a01b0316906370a0823190602401602060405180830381865afa15801561151d573d6000803e3d6000fd5b505050506040513d601f19601f82011682018060405250810190611541919061398c565b90508361154e8284611c47565b10156115ae5760405162461bcd60e51b815260206004820152602960248201527f4d617374657243686566537472617465677956313a3a7265736375654465706c6044820152686f79656446756e647360b81b6064820152608401610a47565b7fc7606d21ac05cd309191543e409f0845c016120563783d70e4f41419dc0ef2346115d7610eb5565b6002546040805192835260208301919091520160405180910390a1600e5460ff161515600114801561160b57506001831515145b1561161a5761161a6000610c76565b50505050565b610fa73382611f89565b600080611635611669565b9050600c5481106116615761165b6127106108f060105484611c2f90919063ffffffff16565b91505090565b600091505090565b600080611674612478565b95945050505050565b6006546001600160a01b031633146116a75760405162461bcd60e51b8152600401610a479061393a565b80156116b257600080fd5b600f5460408051918252602082018390527f3cc372f330f95ac9540626dc8a25f5bf21ba607215a5d58304cb804d446f104a910160405180910390a1600f55565b428410156117355760405162461bcd60e51b815260206004820152600f60248201526e1c195c9b5a5d0e8e995e1c1a5c9959608a1b6044820152606401610a47565b6001600160a01b038716600090815260056020526040812080547f6e71edae12b1b97f4d1f60370fef10105fa2faae0126114a169c64845d6126c9918a918a918a919086611782836139bb565b909155506040805160208101969096526001600160a01b0394851690860152929091166060840152608083015260a082015260c0810186905260e0016040516020818303038152906040528051906020012090506117e38882868686612702565b6117ee888888611b21565b5050505050505050565b600061180e611805610eb5565b60025490611c2f565b600003611819575090565b6108c9611824610eb5565b6002546108f0908590611c2f565b6006546001600160a01b0316331461185c5760405162461bcd60e51b8152600401610a479061393a565b600d5460408051918252602082018390527fa5dae50539d56dfe1fb5273d883b0c39bc76750a25d036fc5fbd09ad8fd5f57f910160405180910390a1600d55565b60006118aa611805610eb5565b6000036118b957506000919050565b6108c96002546108f06118ca610eb5565b8590611c2f565b60007f8b73c3c69bb8fe3d512ecc4cf759cc79239f7b179b0ffacaa9a75d522b39400f60001b600060405161190691906139d4565b6040519081900390207fc89efdaa54c0f20c7adf612882df0950f5a951637e0307cdcb4c672f298b8bc646604080516020810195909552840192909252606083015260808201523060a082015260c00160405160208183030381529060405280519060200120905090565b6006546001600160a01b0316331461199b5760405162461bcd60e51b8152600401610a479061393a565b6001600160a01b038116611a005760405162461bcd60e51b815260206004820152602660248201527f4f776e61626c653a206e6577206f776e657220697320746865207a65726f206160448201526564647265737360d01b6064820152608401610a47565b6006546040516001600160a01b038084169216907f8be0079c531659141344cd1fd0a4f28419497f9722a3daafe3b4186f6b6457e090600090a3600680546001600160a01b0319166001600160a01b0392909216919091179055565b323314611aa25760405162461bcd60e51b815260206004820152601460248201527359616b53747261746567793a3a6f6e6c79454f4160601b6044820152606401610a47565b600080600080611ab0612478565b9350935093509350600c54811015611b0a5760405162461bcd60e51b815260206004820152601e60248201527f4d617374657243686566537472617465677956313a3a7265696e7665737400006044820152606401610a47565b61161a82858561282e565b60006109e78284613a6f565b6001600160a01b038316611b775760405162461bcd60e51b815260206004820152601c60248201527f5f617070726f76653a3a6f776e6572207a65726f2061646472657373000000006044820152606401610a47565b6001600160a01b038216611bcd5760405162461bcd60e51b815260206004820152601e60248201527f5f617070726f76653a3a7370656e646572207a65726f206164647265737300006044820152606401610a47565b6001600160a01b0383811660008181526003602090815260408083209487168084529482529182902085905590518481527f8c5be1e5ebec7d5bd14f71427d1e84f3dd0314c0f7b2291e5b200ac8c7c3b92591015b60405180910390a3505050565b60006109e78284613a87565b60006109e78284613aa6565b60006109e78284613ac8565b60008184841115611c775760405162461bcd60e51b8152600401610a4791906136e1565b505050900390565b6001600160a01b038216611cf25760405162461bcd60e51b815260206004820152603460248201527f5f7472616e73666572546f6b656e733a2063616e6e6f74207472616e7366657260448201527320746f20746865207a65726f206164647265737360601b6064820152608401610a47565b611d2f816040518060600160405280602e8152602001613c34602e91396001600160a01b0386166000908152600460205260409020549190611c53565b6001600160a01b038085166000908152600460205260408082209390935590841681522054611d5e9082611b15565b6001600160a01b0380841660008181526004602052604090819020939093559151908516907fddf252ad1be2c89b69c2b068fc378daa952ba7f163c4a11628f55a4df523b3ef90611c229085815260200190565b610fa77f000000000000000000000000000000000000000000000000000000000000000082612977565b60405163a9059cbb60e01b81526001600160a01b0383811660048301526024820183905284169063a9059cbb906044016020604051808303816000875af1158015611e2b573d6000803e3d6000fd5b505050506040513d601f19601f82011682018060405250810190611e4f919061396f565b611eae5760405162461bcd60e51b815260206004820152602a60248201527f4d617374657243686566537472617465677956313a3a5452414e534645525f466044820152691493d357d1905253115160b21b6064820152608401610a47565b505050565b611ef081604051806060016040528060278152602001613c0d602791396001600160a01b0385166000908152600460205260409020549190611c53565b60046000846001600160a01b03166001600160a01b0316815260200190815260200160002081905550611f4081604051806060016040528060278152602001613bb7602791396002549190611c53565b6002556040518181526000906001600160a01b038416907fddf252ad1be2c89b69c2b068fc378daa952ba7f163c4a11628f55a4df523b3ef906020015b60405180910390a35050565b600e5460ff161515600114611fe05760405162461bcd60e51b815260206004820152601e60248201527f4d617374657243686566537472617465677956313a3a5f6465706f73697400006044820152606401610a47565b600d541561201857600080600080611ff6612478565b9350935093509350600d548111156120135761201382858561282e565b505050505b6009546040516323b872dd60e01b8152336004820152306024820152604481018390526001600160a01b03909116906323b872dd906064016020604051808303816000875af115801561206f573d6000803e3d6000fd5b505050506040513d601f19601f82011682018060405250810190612093919061396f565b6120ed5760405162461bcd60e51b815260206004820152602560248201527f4d617374657243686566537472617465677956313a3a7472616e736665722066604482015264185a5b195960da1b6064820152608401610a47565b6000806120fb6127106108e6565b90506121138461210e6107b68685611c47565b6129e1565b61211c83612a65565b836001600160a01b03167fe1fffcc4923d04b559f4d29a8bfc6cda04eb5b0d3c460751c2402c5c5cc9109c84604051610ac291815260200190565b601854604051631b2b776160e11b8152600481018490526001600160a01b0383811660248301526000921690633656eec290604401602060405180830381865afa1580156121a9573d6000803e3d6000fd5b505050506040513d601f19601f820116820180604052508101906109e7919061398c565b6001600160a01b0381161561238457600a5460408051630dfe168160e01b815290516001600160a01b0392831692841691630dfe16819160048083019260209291908290030181865afa158015612228573d6000803e3d6000fd5b505050506040513d601f19601f8201168201806040525081019061224c9190613adf565b6001600160a01b0316036122e157806001600160a01b031663d21220a76040518163ffffffff1660e01b8152600401602060405180830381865afa158015612298573d6000803e3d6000fd5b505050506040513d601f19601f820116820180604052508101906122bc9190613adf565b601580546001600160a01b0319166001600160a01b0392909216919091179055612364565b806001600160a01b0316630dfe16816040518163ffffffff1660e01b8152600401602060405180830381865afa15801561231f573d6000803e3d6000fd5b505050506040513d601f19601f820116820180604052508101906123439190613adf565b601580546001600160a01b0319166001600160a01b03929092169190911790555b601480546001600160a01b0383166001600160a01b031990911617905550565b601480546001600160a01b031990811690915560158054909116905550565b60095460185460405163095ea7b360e01b81526001600160a01b0391821660048201526000602482015291169063095ea7b3906044016020604051808303816000875af11580156123f8573d6000803e3d6000fd5b505050506040513d601f19601f8201168201806040525081019061241c919061396f565b50601854604051637f8661a160e01b8152600481018390526001600160a01b0390911690637f8661a1906024015b600060405180830381600087803b15801561246457600080fd5b505af1158015610b70573d6000803e3d6000fd5b6012546040516370a0823160e01b815230600482015260009182918291829182916001600160a01b0316906370a0823190602401602060405180830381865afa1580156124c9573d6000803e3d6000fd5b505050506040513d601f19601f820116820180604052508101906124ed919061398c565b9050600080600061251e7f000000000000000000000000000000000000000000000000000000000000000030612af1565b9194509250905060006125318585611b15565b600a546012549192506000916001600160a01b03918216911603612555578461257a565b601254600a5460135461257a9285926001600160a01b03918216929082169116612b7c565b905060006001600160a01b038416156126655773b31f66aa3c1e785363f0875a1b74e27b85fd66c6196001600160a01b038516016125b9575083612665565b6014546001600160a01b031615612665576015546040516370a0823160e01b815230600482015261263f916001600160a01b0316906370a0823190602401602060405180830381865afa158015612614573d6000803e3d6000fd5b505050506040513d601f19601f82011682018060405250810190612638919061398c565b8690611b15565b600a5460145491965061266291879187916001600160a01b039182169116612b7c565b90505b600a546040516370a0823160e01b81523060048201526000916126de9184916001600160a01b0316906370a0823190602401602060405180830381865afa1580156126b4573d6000803e3d6000fd5b505050506040513d601f19601f820116820180604052508101906126d8919061398c565b90611b15565b905060006126ec8285611b15565b949d969c50909a50929850939650505050505050565b600061270c6118d1565b60405161190160f01b602082015260228101919091526042810186905260620160408051601f198184030181528282528051602091820120600080855291840180845281905260ff88169284019290925260608301869052608083018590529092509060019060a0016020604051602081039080840390855afa158015612797573d6000803e3d6000fd5b5050604051601f1901519150506001600160a01b038116158015906127cd5750866001600160a01b0316816001600160a01b0316145b6128255760405162461bcd60e51b8152602060048201526024808201527f417263683a3a76616c69646174655369673a20696e76616c6964207369676e616044820152637475726560e01b6064820152608401610a47565b50505050505050565b6128577f0000000000000000000000000000000000000000000000000000000000000000612c3a565b600061286c61286584612c6b565b8590611b15565b905061288261287b8584612caf565b8290611b15565b5060006128a06127106108f060115485611c2f90919063ffffffff16565b905080156128c557600a54600b546128c5916001600160a01b03908116911683611ddc565b60006128e26127106108f060105486611c2f90919063ffffffff16565b9050801561290157600a54612901906001600160a01b03163383611ddc565b600061291f61291a836129148787611c47565b90611c47565b612dee565b905061292a81612a65565b7fc7606d21ac05cd309191543e409f0845c016120563783d70e4f41419dc0ef234612953610eb5565b6002546040805192835260208301919091520160405180910390a150505050505050565b601854604051630441a3e760e41b815260048101849052602481018390526001600160a01b039091169063441a3e70906044015b600060405180830381600087803b1580156129c557600080fd5b505af11580156129d9573d6000803e3d6000fd5b505050505050565b6002546129ee9082611b15565b6002556001600160a01b038216600090815260046020526040902054612a149082611b15565b6001600160a01b0383166000818152600460205260408082209390935591519091907fddf252ad1be2c89b69c2b068fc378daa952ba7f163c4a11628f55a4df523b3ef90611f7d9085815260200190565b60008111612ac75760405162461bcd60e51b815260206004820152602960248201527f4d617374657243686566537472617465677956313a3a5f7374616b654465706f604482015268736974546f6b656e7360b81b6064820152608401610a47565b610fa77f000000000000000000000000000000000000000000000000000000000000000082612e1d565b6018546040516338e7023f60e21b8152600481018490526001600160a01b038381166024830152600092839283928392169063e39c08fc90604401602060405180830381865afa158015612b49573d6000803e3d6000fd5b505050506040513d601f19601f82011682018060405250810190612b6d919061398c565b96600096508695509350505050565b600080612b898585612edc565b509050600080846001600160a01b0316630902f1ac6040518163ffffffff1660e01b8152600401606060405180830381865afa158015612bcd573d6000803e3d6000fd5b505050506040513d601f19601f82011682018060405250810190612bf19190613b13565b5091509150866001600160a01b0316836001600160a01b031614612c1157905b612c2e88836001600160701b0316836001600160701b0316612f0d565b98975050505050505050565b601854604051631c4b774b60e01b8152600481018390526001600160a01b0390911690631c4b774b9060240161244a565b601254600a546000916001600160a01b03908116911603612c8a575090565b601254600a546013546108c99285926001600160a01b03918216929082169116612f55565b60008115612de5576014546001600160a01b031615612cf457601554600a54601454612ced9285926001600160a01b03918216929082169116612f55565b90506108c9565b478015612d645773b31f66aa3c1e785363f0875a1b74e27b85fd66c76001600160a01b031663d0e30db0826040518263ffffffff1660e01b81526004016000604051808303818588803b158015612d4a57600080fd5b505af1158015612d5e573d6000803e3d6000fd5b50505050505b6040516370a0823160e01b8152306004820152612ddd90859073b31f66aa3c1e785363f0875a1b74e27b85fd66c7906370a0823190602401602060405180830381865afa158015612db9573d6000803e3d6000fd5b505050506040513d601f19601f82011682018060405250810190612914919061398c565b9150506108c9565b50600092915050565b600a546009546016546017546000936108c99386936001600160a01b03928316939183169290811691166130c9565b60095460185460405163095ea7b360e01b81526001600160a01b0391821660048201526024810184905291169063095ea7b3906044016020604051808303816000875af1158015612e72573d6000803e3d6000fd5b505050506040513d601f19601f82011682018060405250810190612e96919061396f565b506018546040516340809acd60e01b81526004810184905260248101839052306044820181905260648201526001600160a01b03909116906340809acd906084016129ab565b600080826001600160a01b0316846001600160a01b031610612eff578284612f02565b83835b915091509250929050565b600080612f1c856103e5611c2f565b90506000612f2a8285611c2f565b90506000612f3e836126d8886103e8611c2f565b9050612f4a8282611c3b565b979650505050505050565b600080612f628585612edc565b509050600080846001600160a01b0316630902f1ac6040518163ffffffff1660e01b8152600401606060405180830381865afa158015612fa6573d6000803e3d6000fd5b505050506040513d601f19601f82011682018060405250810190612fca9190613b13565b5091509150866001600160a01b0316836001600160a01b031614612fea57905b60008061300a8a856001600160701b0316856001600160701b0316612f0d565b9050886001600160a01b0316856001600160a01b03161461302757905b61303b6001600160a01b038a16888c61326d565b6040805160008152602081019182905263022c0d9f60e01b9091526001600160a01b0388169063022c0d9f9061307a9085908590309060248101613b63565b600060405180830381600087803b15801561309457600080fd5b505af11580156130a8573d6000803e3d6000fd5b505050508181116130b957816130bb565b805b9a9950505050505050505050565b6000806130d7876002611c3b565b9050600081116131415760405162461bcd60e51b815260206004820152602f60248201527f4465784c6962726172793a3a5f636f6e76657274526577617264546f6b656e7360448201526e546f4465706f736974546f6b656e7360881b6064820152608401610a47565b6000856001600160a01b0316630dfe16816040518163ffffffff1660e01b8152600401602060405180830381865afa158015613181573d6000803e3d6000fd5b505050506040513d601f19601f820116820180604052508101906131a59190613adf565b9050816001600160a01b03888116908316146131ca576131c783898489612f55565b90505b6000876001600160a01b031663d21220a76040518163ffffffff1660e01b8152600401602060405180830381865afa15801561320a573d6000803e3d6000fd5b505050506040513d601f19601f8201168201806040525081019061322e9190613adf565b9050836001600160a01b038a81169083161461325357613250858b848a612f55565b90505b61325e8984836132bf565b9b9a5050505050505050505050565b604080516001600160a01b038416602482015260448082018490528251808303909101815260649091019091526020810180516001600160e01b031663a9059cbb60e01b179052611eae90849061349b565b6000806000856001600160a01b0316630902f1ac6040518163ffffffff1660e01b8152600401606060405180830381865afa158015613302573d6000803e3d6000fd5b505050506040513d601f19601f820116820180604052508101906133269190613b13565b5091509150600061334a86846001600160701b0316846001600160701b031661356d565b9050848111156133775784905061337485836001600160701b0316856001600160701b031661356d565b95505b6133ee8787896001600160a01b0316630dfe16816040518163ffffffff1660e01b8152600401602060405180830381865afa1580156133ba573d6000803e3d6000fd5b505050506040513d601f19601f820116820180604052508101906133de9190613adf565b6001600160a01b0316919061326d565b6134318782896001600160a01b031663d21220a76040518163ffffffff1660e01b8152600401602060405180830381865afa1580156133ba573d6000803e3d6000fd5b6040516335313c2160e11b81523060048201526001600160a01b03881690636a627842906024016020604051808303816000875af1158015613477573d6000803e3d6000fd5b505050506040513d601f19601f82011682018060405250810190612f4a919061398c565b60006134f0826040518060400160405280602081526020017f5361666545524332303a206c6f772d6c6576656c2063616c6c206661696c6564815250856001600160a01b03166135859092919063ffffffff16565b805190915015611eae578080602001905181019061350e919061396f565b611eae5760405162461bcd60e51b815260206004820152602a60248201527f5361666545524332303a204552433230206f7065726174696f6e20646964206e6044820152691bdd081cdd58d8d9595960b21b6064820152608401610a47565b600061357d836108f08685611c2f565b949350505050565b606061357d8484600085856001600160a01b0385163b6135e75760405162461bcd60e51b815260206004820152601d60248201527f416464726573733a2063616c6c20746f206e6f6e2d636f6e74726163740000006044820152606401610a47565b600080866001600160a01b031685876040516136039190613b9a565b60006040518083038185875af1925050503d8060008114613640576040519150601f19603f3d011682016040523d82523d6000602084013e613645565b606091505b5091509150612f4a8282866060831561365f5750816109e7565b82511561366f5782518084602001fd5b8160405162461bcd60e51b8152600401610a4791906136e1565b60005b838110156136a457818101518382015260200161368c565b8381111561161a5750506000910152565b600081518084526136cd816020860160208601613689565b601f01601f19169290920160200192915050565b6020815260006109e760208301846136b5565b6001600160a01b0381168114610fa757600080fd5b6000806040838503121561371c57600080fd5b8235613727816136f4565b946020939093013593505050565b60008060006060848603121561374a57600080fd5b8335613755816136f4565b92506020840135613765816136f4565b929592945050506040919091013590565b60006020828403121561378857600080fd5b5035919050565b6000602082840312156137a157600080fd5b81356109e7816136f4565b803560ff811681146137bd57600080fd5b919050565b600080600080600060a086880312156137da57600080fd5b85359450602086013593506137f1604087016137ac565b94979396509394606081013594506080013592915050565b8015158114610fa757600080fd5b60006020828403121561382957600080fd5b81356109e781613809565b6000806040838503121561384757600080fd5b8235613852816136f4565b91506020830135613862816136f4565b809150509250929050565b6000806040838503121561388057600080fd5b82359150602083013561386281613809565b600080600080600080600060e0888a0312156138ad57600080fd5b87356138b8816136f4565b965060208801356138c8816136f4565b955060408801359450606088013593506138e4608089016137ac565b925060a0880135915060c0880135905092959891949750929550565b600181811c9082168061391457607f821691505b60208210810361393457634e487b7160e01b600052602260045260246000fd5b50919050565b6020808252818101527f4f776e61626c653a2063616c6c6572206973206e6f7420746865206f776e6572604082015260600190565b60006020828403121561398157600080fd5b81516109e781613809565b60006020828403121561399e57600080fd5b5051919050565b634e487b7160e01b600052601160045260246000fd5b6000600182016139cd576139cd6139a5565b5060010190565b600080835481600182811c9150808316806139f057607f831692505b60208084108203613a0f57634e487b7160e01b86526022600452602486fd5b818015613a235760018114613a3457613a61565b60ff19861689528489019650613a61565b60008a81526020902060005b86811015613a595781548b820152908501908301613a40565b505084890196505b509498975050505050505050565b60008219821115613a8257613a826139a5565b500190565b6000816000190483118215151615613aa157613aa16139a5565b500290565b600082613ac357634e487b7160e01b600052601260045260246000fd5b500490565b600082821015613ada57613ada6139a5565b500390565b600060208284031215613af157600080fd5b81516109e7816136f4565b80516001600160701b03811681146137bd57600080fd5b600080600060608486031215613b2857600080fd5b613b3184613afc565b9250613b3f60208501613afc565b9150604084015163ffffffff81168114613b5857600080fd5b809150509250925092565b84815283602082015260018060a01b0383166040820152608060608201526000613b9060808301846136b5565b9695505050505050565b60008251613bac818460208701613689565b919091019291505056fe5f6275726e3a206275726e20616d6f756e74206578636565647320746f74616c20737570706c797472616e7366657246726f6d3a207472616e7366657220616d6f756e74206578636565647320616c6c6f77616e63655f6275726e3a206275726e20616d6f756e7420657863656564732066726f6d2062616c616e63655f7472616e73666572546f6b656e733a207472616e7366657220657863656564732066726f6d2062616c616e6365a2646970667358221220a8297def790fb0865680a945dae55c40487da8d81a40cbad43425352169b1cba64736f6c634300080d003353776170207061697220277377617050616972506f6f6c5265776172642720644f776e61626c653a2063616c6c6572206973206e6f7420746865206f776e65728be0079c531659141344cd1fd0a4f28419497f9722a3daafe3b4186f6b6457e0",
    "linkReferences": {}
  },
  "methodIdentifiers": {
    "ADMIN_FEE_BIPS()": "07677111",
    "DEPOSITS_ENABLED()": "b52a321f",
    "DEV_FEE_BIPS()": "5ea682ea",
    "DOMAIN_TYPEHASH()": "20606b70",
    "MAX_TOKENS_TO_DEPOSIT_WITHOUT_REINVEST()": "789139bc",
    "MIN_TOKENS_TO_REINVEST()": "bd079f55",
    "PERMIT_TYPEHASH()": "30adf81f",
    "PID()": "5eaec0e4",
    "REINVEST_REWARD_BIPS()": "8aff733d",
    "VERSION_HASH()": "9e4e7318",
    "allowDepositor(address)": "4bebd1e7",
    "allowance(address,address)": "dd62ed3e",
    "allowedDepositors(address)": "483c2ef0",
    "approve(address,uint256)": "095ea7b3",
    "balanceOf(address)": "70a08231",
    "checkReward()": "c4b24a46",
    "decimals()": "313ce567",
    "deposit(uint256)": "b6b55f25",
    "depositFor(address,uint256)": "2f4f21e2",
    "depositToken()": "c89039c5",
    "depositWithPermit(uint256,uint256,uint8,bytes32,bytes32)": "4a970be7",
    "devAddr()": "da09c72c",
    "estimateDeployedBalance()": "0f23475d",
    "estimateReinvestReward()": "b9e57b80",
    "extraToken()": "a1a4ddeb",
    "getDepositTokensForShares(uint256)": "eab89a5a",
    "getDomainSeparator()": "ed24911d",
    "getSharesForDepositTokens(uint256)": "dd8ce4d6",
    "name()": "06fdde03",
    "nonces(address)": "7ecebe00",
    "numberOfAllowedDepositors()": "3bdc6e72",
    "owner()": "8da5cb5b",
    "permit(address,address,uint256,uint256,uint8,bytes32,bytes32)": "d505accf",
    "recoverAVAX(uint256)": "4ebb7916",
    "recoverERC20(address,uint256)": "8980f11f",
    "reinvest()": "fdb5a03e",
    "removeDepositor(address)": "8b73e606",
    "renounceOwnership()": "715018a6",
    "rescueDeployedFunds(uint256,bool)": "ac0d31ff",
    "revokeAllowance(address,address)": "7ae26773",
    "rewardToken()": "f7c618c1",
    "setExtraRewardSwapPair(address)": "8432e894",
    "stakingContract()": "ee99205c",
    "swapPairExtraReward()": "909ac8f4",
    "symbol()": "95d89b41",
    "totalDeposits()": "7d882097",
    "totalSupply()": "18160ddd",
    "transfer(address,uint256)": "a9059cbb",
    "transferFrom(address,address,uint256)": "23b872dd",
    "transferOwnership(address)": "f2fde38b",
    "updateAdminFee(uint256)": "cff1b6ef",
    "updateDepositsEnabled(bool)": "4e77ace5",
    "updateDevAddr(address)": "9291d563",
    "updateDevFee(uint256)": "99729ec1",
    "updateMaxTokensToDepositWithoutReinvest(uint256)": "e21ac825",
    "updateMinTokensToReinvest(uint256)": "81837230",
    "updateReinvestReward(uint256)": "a8ae2b7c",
    "withdraw(uint256)": "2e1a7d4d"
  },
  "id": 103
}