{
  "abi": [
    {
      "inputs": [
        {
          "internalType": "string",
          "name": "_name",
          "type": "string"
        },
        {
          "internalType": "address",
          "name": "_depositToken",
          "type": "address"
        },
        {
          "internalType": "address",
          "name": "_rewardToken",
          "type": "address"
        },
        {
          "internalType": "address",
          "name": "_stakingContract",
          "type": "address"
        },
        {
          "internalType": "address",
          "name": "_swapPairToken0",
          "type": "address"
        },
        {
          "internalType": "address",
          "name": "_swapPairToken1",
          "type": "address"
        },
        {
          "internalType": "uint256",
          "name": "pid",
          "type": "uint256"
        },
        {
          "internalType": "address",
          "name": "_timelock",
          "type": "address"
        },
        {
          "components": [
            {
              "internalType": "uint256",
              "name": "minTokensToReinvest",
              "type": "uint256"
            },
            {
              "internalType": "uint256",
              "name": "devFeeBips",
              "type": "uint256"
            },
            {
              "internalType": "uint256",
              "name": "reinvestRewardBips",
              "type": "uint256"
            }
          ],
          "internalType": "struct YakStrategy.StrategySettings",
          "name": "_strategySettings",
          "type": "tuple"
        }
      ],
      "stateMutability": "nonpayable",
      "type": "constructor"
    },
    {
      "anonymous": false,
      "inputs": [
        {
          "indexed": true,
          "internalType": "address",
          "name": "account",
          "type": "address"
        }
      ],
      "name": "AllowDepositor",
      "type": "event"
    },
    {
      "anonymous": false,
      "inputs": [
        {
          "indexed": true,
          "internalType": "address",
          "name": "owner",
          "type": "address"
        },
        {
          "indexed": true,
          "internalType": "address",
          "name": "spender",
          "type": "address"
        },
        {
          "indexed": false,
          "internalType": "uint256",
          "name": "value",
          "type": "uint256"
        }
      ],
      "name": "Approval",
      "type": "event"
    },
    {
      "anonymous": false,
      "inputs": [
        {
          "indexed": true,
          "internalType": "address",
          "name": "account",
          "type": "address"
        },
        {
          "indexed": false,
          "internalType": "uint256",
          "name": "amount",
          "type": "uint256"
        }
      ],
      "name": "Deposit",
      "type": "event"
    },
    {
      "anonymous": false,
      "inputs": [
        {
          "indexed": false,
          "internalType": "bool",
          "name": "newValue",
          "type": "bool"
        }
      ],
      "name": "DepositsEnabled",
      "type": "event"
    },
    {
      "anonymous": false,
      "inputs": [
        {
          "indexed": true,
          "internalType": "address",
          "name": "previousOwner",
          "type": "address"
        },
        {
          "indexed": true,
          "internalType": "address",
          "name": "newOwner",
          "type": "address"
        }
      ],
      "name": "OwnershipTransferred",
      "type": "event"
    },
    {
      "anonymous": false,
      "inputs": [
        {
          "indexed": false,
          "internalType": "address",
          "name": "token",
          "type": "address"
        },
        {
          "indexed": false,
          "internalType": "uint256",
          "name": "amount",
          "type": "uint256"
        }
      ],
      "name": "Recovered",
      "type": "event"
    },
    {
      "anonymous": false,
      "inputs": [
        {
          "indexed": false,
          "internalType": "uint256",
          "name": "newTotalDeposits",
          "type": "uint256"
        },
        {
          "indexed": false,
          "internalType": "uint256",
          "name": "newTotalSupply",
          "type": "uint256"
        }
      ],
      "name": "Reinvest",
      "type": "event"
    },
    {
      "anonymous": false,
      "inputs": [
        {
          "indexed": true,
          "internalType": "address",
          "name": "account",
          "type": "address"
        }
      ],
      "name": "RemoveDepositor",
      "type": "event"
    },
    {
      "anonymous": false,
      "inputs": [
        {
          "indexed": true,
          "internalType": "address",
          "name": "from",
          "type": "address"
        },
        {
          "indexed": true,
          "internalType": "address",
          "name": "to",
          "type": "address"
        },
        {
          "indexed": false,
          "internalType": "uint256",
          "name": "value",
          "type": "uint256"
        }
      ],
      "name": "Transfer",
      "type": "event"
    },
    {
      "anonymous": false,
      "inputs": [
        {
          "indexed": false,
          "internalType": "uint256",
          "name": "oldValue",
          "type": "uint256"
        },
        {
          "indexed": false,
          "internalType": "uint256",
          "name": "newValue",
          "type": "uint256"
        }
      ],
      "name": "UpdateAdminFee",
      "type": "event"
    },
    {
      "anonymous": false,
      "inputs": [
        {
          "indexed": false,
          "internalType": "address",
          "name": "oldValue",
          "type": "address"
        },
        {
          "indexed": false,
          "internalType": "address",
          "name": "newValue",
          "type": "address"
        }
      ],
      "name": "UpdateDevAddr",
      "type": "event"
    },
    {
      "anonymous": false,
      "inputs": [
        {
          "indexed": false,
          "internalType": "uint256",
          "name": "oldValue",
          "type": "uint256"
        },
        {
          "indexed": false,
          "internalType": "uint256",
          "name": "newValue",
          "type": "uint256"
        }
      ],
      "name": "UpdateDevFee",
      "type": "event"
    },
    {
      "anonymous": false,
      "inputs": [
        {
          "indexed": false,
          "internalType": "uint256",
          "name": "oldValue",
          "type": "uint256"
        },
        {
          "indexed": false,
          "internalType": "uint256",
          "name": "newValue",
          "type": "uint256"
        }
      ],
      "name": "UpdateMaxTokensToDepositWithoutReinvest",
      "type": "event"
    },
    {
      "anonymous": false,
      "inputs": [
        {
          "indexed": false,
          "internalType": "uint256",
          "name": "oldValue",
          "type": "uint256"
        },
        {
          "indexed": false,
          "internalType": "uint256",
          "name": "newValue",
          "type": "uint256"
        }
      ],
      "name": "UpdateMinTokensToReinvest",
      "type": "event"
    },
    {
      "anonymous": false,
      "inputs": [
        {
          "indexed": false,
          "internalType": "uint256",
          "name": "oldValue",
          "type": "uint256"
        },
        {
          "indexed": false,
          "internalType": "uint256",
          "name": "newValue",
          "type": "uint256"
        }
      ],
      "name": "UpdateReinvestReward",
      "type": "event"
    },
    {
      "anonymous": false,
      "inputs": [
        {
          "indexed": true,
          "internalType": "address",
          "name": "account",
          "type": "address"
        },
        {
          "indexed": false,
          "internalType": "uint256",
          "name": "amount",
          "type": "uint256"
        }
      ],
      "name": "Withdraw",
      "type": "event"
    },
    {
      "inputs": [],
      "name": "ADMIN_FEE_BIPS",
      "outputs": [
        {
          "internalType": "uint256",
          "name": "",
          "type": "uint256"
        }
      ],
      "stateMutability": "view",
      "type": "function"
    },
    {
      "inputs": [],
      "name": "DEPOSITS_ENABLED",
      "outputs": [
        {
          "internalType": "bool",
          "name": "",
          "type": "bool"
        }
      ],
      "stateMutability": "view",
      "type": "function"
    },
    {
      "inputs": [],
      "name": "DEV_FEE_BIPS",
      "outputs": [
        {
          "internalType": "uint256",
          "name": "",
          "type": "uint256"
        }
      ],
      "stateMutability": "view",
      "type": "function"
    },
    {
      "inputs": [],
      "name": "DOMAIN_TYPEHASH",
      "outputs": [
        {
          "internalType": "bytes32",
          "name": "",
          "type": "bytes32"
        }
      ],
      "stateMutability": "view",
      "type": "function"
    },
    {
      "inputs": [],
      "name": "MAX_TOKENS_TO_DEPOSIT_WITHOUT_REINVEST",
      "outputs": [
        {
          "internalType": "uint256",
          "name": "",
          "type": "uint256"
        }
      ],
      "stateMutability": "view",
      "type": "function"
    },
    {
      "inputs": [],
      "name": "MIN_TOKENS_TO_REINVEST",
      "outputs": [
        {
          "internalType": "uint256",
          "name": "",
          "type": "uint256"
        }
      ],
      "stateMutability": "view",
      "type": "function"
    },
    {
      "inputs": [],
      "name": "PERMIT_TYPEHASH",
      "outputs": [
        {
          "internalType": "bytes32",
          "name": "",
          "type": "bytes32"
        }
      ],
      "stateMutability": "view",
      "type": "function"
    },
    {
      "inputs": [],
      "name": "PID",
      "outputs": [
        {
          "internalType": "uint256",
          "name": "",
          "type": "uint256"
        }
      ],
      "stateMutability": "view",
      "type": "function"
    },
    {
      "inputs": [],
      "name": "REINVEST_REWARD_BIPS",
      "outputs": [
        {
          "internalType": "uint256",
          "name": "",
          "type": "uint256"
        }
      ],
      "stateMutability": "view",
      "type": "function"
    },
    {
      "inputs": [],
      "name": "VERSION_HASH",
      "outputs": [
        {
          "internalType": "bytes32",
          "name": "",
          "type": "bytes32"
        }
      ],
      "stateMutability": "view",
      "type": "function"
    },
    {
      "inputs": [
        {
          "internalType": "address",
          "name": "depositor",
          "type": "address"
        }
      ],
      "name": "allowDepositor",
      "outputs": [],
      "stateMutability": "nonpayable",
      "type": "function"
    },
    {
      "inputs": [
        {
          "internalType": "address",
          "name": "account",
          "type": "address"
        },
        {
          "internalType": "address",
          "name": "spender",
          "type": "address"
        }
      ],
      "name": "allowance",
      "outputs": [
        {
          "internalType": "uint256",
          "name": "",
          "type": "uint256"
        }
      ],
      "stateMutability": "view",
      "type": "function"
    },
    {
      "inputs": [
        {
          "internalType": "address",
          "name": "",
          "type": "address"
        }
      ],
      "name": "allowedDepositors",
      "outputs": [
        {
          "internalType": "bool",
          "name": "",
          "type": "bool"
        }
      ],
      "stateMutability": "view",
      "type": "function"
    },
    {
      "inputs": [
        {
          "internalType": "address",
          "name": "spender",
          "type": "address"
        },
        {
          "internalType": "uint256",
          "name": "amount",
          "type": "uint256"
        }
      ],
      "name": "approve",
      "outputs": [
        {
          "internalType": "bool",
          "name": "",
          "type": "bool"
        }
      ],
      "stateMutability": "nonpayable",
      "type": "function"
    },
    {
      "inputs": [
        {
          "internalType": "address",
          "name": "account",
          "type": "address"
        }
      ],
      "name": "balanceOf",
      "outputs": [
        {
          "internalType": "uint256",
          "name": "",
          "type": "uint256"
        }
      ],
      "stateMutability": "view",
      "type": "function"
    },
    {
      "inputs": [],
      "name": "checkReward",
      "outputs": [
        {
          "internalType": "uint256",
          "name": "",
          "type": "uint256"
        }
      ],
      "stateMutability": "view",
      "type": "function"
    },
    {
      "inputs": [],
      "name": "decimals",
      "outputs": [
        {
          "internalType": "uint8",
          "name": "",
          "type": "uint8"
        }
      ],
      "stateMutability": "view",
      "type": "function"
    },
    {
      "inputs": [
        {
          "internalType": "uint256",
          "name": "amount",
          "type": "uint256"
        }
      ],
      "name": "deposit",
      "outputs": [],
      "stateMutability": "nonpayable",
      "type": "function"
    },
    {
      "inputs": [
        {
          "internalType": "address",
          "name": "account",
          "type": "address"
        },
        {
          "internalType": "uint256",
          "name": "amount",
          "type": "uint256"
        }
      ],
      "name": "depositFor",
      "outputs": [],
      "stateMutability": "nonpayable",
      "type": "function"
    },
    {
      "inputs": [],
      "name": "depositToken",
      "outputs": [
        {
          "internalType": "contract IERC20",
          "name": "",
          "type": "address"
        }
      ],
      "stateMutability": "view",
      "type": "function"
    },
    {
      "inputs": [
        {
          "internalType": "uint256",
          "name": "amount",
          "type": "uint256"
        },
        {
          "internalType": "uint256",
          "name": "deadline",
          "type": "uint256"
        },
        {
          "internalType": "uint8",
          "name": "v",
          "type": "uint8"
        },
        {
          "internalType": "bytes32",
          "name": "r",
          "type": "bytes32"
        },
        {
          "internalType": "bytes32",
          "name": "s",
          "type": "bytes32"
        }
      ],
      "name": "depositWithPermit",
      "outputs": [],
      "stateMutability": "nonpayable",
      "type": "function"
    },
    {
      "inputs": [],
      "name": "devAddr",
      "outputs": [
        {
          "internalType": "address",
          "name": "",
          "type": "address"
        }
      ],
      "stateMutability": "view",
      "type": "function"
    },
    {
      "inputs": [],
      "name": "estimateDeployedBalance",
      "outputs": [
        {
          "internalType": "uint256",
          "name": "",
          "type": "uint256"
        }
      ],
      "stateMutability": "view",
      "type": "function"
    },
    {
      "inputs": [],
      "name": "estimateReinvestReward",
      "outputs": [
        {
          "internalType": "uint256",
          "name": "",
          "type": "uint256"
        }
      ],
      "stateMutability": "view",
      "type": "function"
    },
    {
      "inputs": [
        {
          "internalType": "uint256",
          "name": "amount",
          "type": "uint256"
        }
      ],
      "name": "getDepositTokensForShares",
      "outputs": [
        {
          "internalType": "uint256",
          "name": "",
          "type": "uint256"
        }
      ],
      "stateMutability": "view",
      "type": "function"
    },
    {
      "inputs": [],
      "name": "getDomainSeparator",
      "outputs": [
        {
          "internalType": "bytes32",
          "name": "",
          "type": "bytes32"
        }
      ],
      "stateMutability": "view",
      "type": "function"
    },
    {
      "inputs": [
        {
          "internalType": "uint256",
          "name": "amount",
          "type": "uint256"
        }
      ],
      "name": "getSharesForDepositTokens",
      "outputs": [
        {
          "internalType": "uint256",
          "name": "",
          "type": "uint256"
        }
      ],
      "stateMutability": "view",
      "type": "function"
    },
    {
      "inputs": [],
      "name": "name",
      "outputs": [
        {
          "internalType": "string",
          "name": "",
          "type": "string"
        }
      ],
      "stateMutability": "view",
      "type": "function"
    },
    {
      "inputs": [
        {
          "internalType": "address",
          "name": "",
          "type": "address"
        }
      ],
      "name": "nonces",
      "outputs": [
        {
          "internalType": "uint256",
          "name": "",
          "type": "uint256"
        }
      ],
      "stateMutability": "view",
      "type": "function"
    },
    {
      "inputs": [],
      "name": "numberOfAllowedDepositors",
      "outputs": [
        {
          "internalType": "uint256",
          "name": "",
          "type": "uint256"
        }
      ],
      "stateMutability": "view",
      "type": "function"
    },
    {
      "inputs": [],
      "name": "owner",
      "outputs": [
        {
          "internalType": "address",
          "name": "",
          "type": "address"
        }
      ],
      "stateMutability": "view",
      "type": "function"
    },
    {
      "inputs": [
        {
          "internalType": "address",
          "name": "owner",
          "type": "address"
        },
        {
          "internalType": "address",
          "name": "spender",
          "type": "address"
        },
        {
          "internalType": "uint256",
          "name": "value",
          "type": "uint256"
        },
        {
          "internalType": "uint256",
          "name": "deadline",
          "type": "uint256"
        },
        {
          "internalType": "uint8",
          "name": "v",
          "type": "uint8"
        },
        {
          "internalType": "bytes32",
          "name": "r",
          "type": "bytes32"
        },
        {
          "internalType": "bytes32",
          "name": "s",
          "type": "bytes32"
        }
      ],
      "name": "permit",
      "outputs": [],
      "stateMutability": "nonpayable",
      "type": "function"
    },
    {
      "inputs": [
        {
          "internalType": "uint256",
          "name": "amount",
          "type": "uint256"
        }
      ],
      "name": "recoverAVAX",
      "outputs": [],
      "stateMutability": "nonpayable",
      "type": "function"
    },
    {
      "inputs": [
        {
          "internalType": "address",
          "name": "tokenAddress",
          "type": "address"
        },
        {
          "internalType": "uint256",
          "name": "tokenAmount",
          "type": "uint256"
        }
      ],
      "name": "recoverERC20",
      "outputs": [],
      "stateMutability": "nonpayable",
      "type": "function"
    },
    {
      "inputs": [],
      "name": "reinvest",
      "outputs": [],
      "stateMutability": "nonpayable",
      "type": "function"
    },
    {
      "inputs": [
        {
          "internalType": "address",
          "name": "depositor",
          "type": "address"
        }
      ],
      "name": "removeDepositor",
      "outputs": [],
      "stateMutability": "nonpayable",
      "type": "function"
    },
    {
      "inputs": [],
      "name": "renounceOwnership",
      "outputs": [],
      "stateMutability": "nonpayable",
      "type": "function"
    },
    {
      "inputs": [
        {
          "internalType": "uint256",
          "name": "minReturnAmountAccepted",
          "type": "uint256"
        },
        {
          "internalType": "bool",
          "name": "disableDeposits",
          "type": "bool"
        }
      ],
      "name": "rescueDeployedFunds",
      "outputs": [],
      "stateMutability": "nonpayable",
      "type": "function"
    },
    {
      "inputs": [
        {
          "internalType": "address",
          "name": "token",
          "type": "address"
        },
        {
          "internalType": "address",
          "name": "spender",
          "type": "address"
        }
      ],
      "name": "revokeAllowance",
      "outputs": [],
      "stateMutability": "nonpayable",
      "type": "function"
    },
    {
      "inputs": [],
      "name": "rewardToken",
      "outputs": [
        {
          "internalType": "contract IERC20",
          "name": "",
          "type": "address"
        }
      ],
      "stateMutability": "view",
      "type": "function"
    },
    {
      "inputs": [],
      "name": "setAllowances",
      "outputs": [],
      "stateMutability": "nonpayable",
      "type": "function"
    },
    {
      "inputs": [],
      "name": "stakingContract",
      "outputs": [
        {
          "internalType": "contract IYakChef",
          "name": "",
          "type": "address"
        }
      ],
      "stateMutability": "view",
      "type": "function"
    },
    {
      "inputs": [],
      "name": "symbol",
      "outputs": [
        {
          "internalType": "string",
          "name": "",
          "type": "string"
        }
      ],
      "stateMutability": "view",
      "type": "function"
    },
    {
      "inputs": [],
      "name": "totalDeposits",
      "outputs": [
        {
          "internalType": "uint256",
          "name": "",
          "type": "uint256"
        }
      ],
      "stateMutability": "view",
      "type": "function"
    },
    {
      "inputs": [],
      "name": "totalSupply",
      "outputs": [
        {
          "internalType": "uint256",
          "name": "",
          "type": "uint256"
        }
      ],
      "stateMutability": "view",
      "type": "function"
    },
    {
      "inputs": [
        {
          "internalType": "address",
          "name": "dst",
          "type": "address"
        },
        {
          "internalType": "uint256",
          "name": "amount",
          "type": "uint256"
        }
      ],
      "name": "transfer",
      "outputs": [
        {
          "internalType": "bool",
          "name": "",
          "type": "bool"
        }
      ],
      "stateMutability": "nonpayable",
      "type": "function"
    },
    {
      "inputs": [
        {
          "internalType": "address",
          "name": "src",
          "type": "address"
        },
        {
          "internalType": "address",
          "name": "dst",
          "type": "address"
        },
        {
          "internalType": "uint256",
          "name": "amount",
          "type": "uint256"
        }
      ],
      "name": "transferFrom",
      "outputs": [
        {
          "internalType": "bool",
          "name": "",
          "type": "bool"
        }
      ],
      "stateMutability": "nonpayable",
      "type": "function"
    },
    {
      "inputs": [
        {
          "internalType": "address",
          "name": "newOwner",
          "type": "address"
        }
      ],
      "name": "transferOwnership",
      "outputs": [],
      "stateMutability": "nonpayable",
      "type": "function"
    },
    {
      "inputs": [
        {
          "internalType": "uint256",
          "name": "newValue",
          "type": "uint256"
        }
      ],
      "name": "updateAdminFee",
      "outputs": [],
      "stateMutability": "nonpayable",
      "type": "function"
    },
    {
      "inputs": [
        {
          "internalType": "bool",
          "name": "newValue",
          "type": "bool"
        }
      ],
      "name": "updateDepositsEnabled",
      "outputs": [],
      "stateMutability": "nonpayable",
      "type": "function"
    },
    {
      "inputs": [
        {
          "internalType": "address",
          "name": "newValue",
          "type": "address"
        }
      ],
      "name": "updateDevAddr",
      "outputs": [],
      "stateMutability": "nonpayable",
      "type": "function"
    },
    {
      "inputs": [
        {
          "internalType": "uint256",
          "name": "newValue",
          "type": "uint256"
        }
      ],
      "name": "updateDevFee",
      "outputs": [],
      "stateMutability": "nonpayable",
      "type": "function"
    },
    {
      "inputs": [
        {
          "internalType": "uint256",
          "name": "newValue",
          "type": "uint256"
        }
      ],
      "name": "updateMaxTokensToDepositWithoutReinvest",
      "outputs": [],
      "stateMutability": "nonpayable",
      "type": "function"
    },
    {
      "inputs": [
        {
          "internalType": "uint256",
          "name": "newValue",
          "type": "uint256"
        }
      ],
      "name": "updateMinTokensToReinvest",
      "outputs": [],
      "stateMutability": "nonpayable",
      "type": "function"
    },
    {
      "inputs": [
        {
          "internalType": "uint256",
          "name": "newValue",
          "type": "uint256"
        }
      ],
      "name": "updateReinvestReward",
      "outputs": [],
      "stateMutability": "nonpayable",
      "type": "function"
    },
    {
      "inputs": [
        {
          "internalType": "uint256",
          "name": "amount",
          "type": "uint256"
        }
      ],
      "name": "withdraw",
      "outputs": [],
      "stateMutability": "nonpayable",
      "type": "function"
    },
    {
      "stateMutability": "payable",
      "type": "receive"
    }
  ],
  "bytecode": {
    "object": "0x60c060405260096080819052685969656c642059616b60b81b60a09081526200002c916000919062000658565b506040805180820190915260038082526216549560ea1b6020909201918252620000599160019162000658565b503480156200006757600080fd5b5060405162004165380380620041658339810160408190526200008a91620007c3565b600680546001600160a01b03191633908117909155604051829190819060009060008051602062004145833981519152908290a3508051620000cc90620001d3565b6020810151620000dc9062000263565b6040810151620000ec906200031a565b508851620001029060009060208c019062000658565b50600a80546001600160a01b03808b166001600160a01b031992831617909255600b80548a841690831617905560138054898416908316179055601480548884169083161790556015805492871692821692909217909155600c805490911633179055601683905562000174620003d1565b6200018060016200049c565b6200018b8262000546565b60408051600080825260208201527fc7606d21ac05cd309191543e409f0845c016120563783d70e4f41419dc0ef234910160405180910390a150505050505050505062000997565b6006546001600160a01b03163314620002225760405162461bcd60e51b815260206004820181905260248201526000805160206200412583398151915260448201526064015b60405180910390fd5b600d5460408051918252602082018390527f481f79ac3a523b6d6db3c5a720e190e986d1cc1b41adcdf50f9caef849901100910160405180910390a1600d55565b6006546001600160a01b03163314620002ae5760405162461bcd60e51b8152602060048201819052602482015260008051602062004125833981519152604482015260640162000219565b612710620002cd601154836200064360201b62001e5a1790919060201c565b1115620002d957600080fd5b60125460408051918252602082018390527f2a42303d002f0ba6cfe8259c91d4684443fb0b3de286ba74991175d651726131910160405180910390a1601255565b6006546001600160a01b03163314620003655760405162461bcd60e51b8152602060048201819052602482015260008051602062004125833981519152604482015260640162000219565b61271062000384601254836200064360201b62001e5a1790919060201c565b11156200039057600080fd5b60115460408051918252602082018390527fe7f97d51d307dc44045597c9978bec0f842e6bb40d19b9444084cfa30d9ed4f2910160405180910390a1601155565b6006546001600160a01b031633146200041c5760405162461bcd60e51b8152602060048201819052602482015260008051602062004125833981519152604482015260640162000219565b600a5460135460405163095ea7b360e01b81526001600160a01b039182166004820152600019602482015291169063095ea7b3906044016020604051808303816000875af115801562000473573d6000803e3d6000fd5b505050506040513d601f19601f8201168201806040525081019062000499919062000910565b50565b6006546001600160a01b03163314620004e75760405162461bcd60e51b8152602060048201819052602482015260008051602062004125833981519152604482015260640162000219565b600f5481151560ff909116151503620004ff57600080fd5b600f805460ff19168215159081179091556040519081527f7b014ed3854e7f5cb0218d58b3c6ae7d53a68bb0af2f67bfb029ea42c38a7e859060200160405180910390a150565b6006546001600160a01b03163314620005915760405162461bcd60e51b8152602060048201819052602482015260008051602062004125833981519152604482015260640162000219565b6001600160a01b038116620005f85760405162461bcd60e51b815260206004820152602660248201527f4f776e61626c653a206e6577206f776e657220697320746865207a65726f206160448201526564647265737360d01b606482015260840162000219565b6006546040516001600160a01b038084169216906000805160206200414583398151915290600090a3600680546001600160a01b0319166001600160a01b0392909216919091179055565b600062000651828462000934565b9392505050565b82805462000666906200095b565b90600052602060002090601f0160209004810192826200068a5760008555620006d5565b82601f10620006a557805160ff1916838001178555620006d5565b82800160010185558215620006d5579182015b82811115620006d5578251825591602001919060010190620006b8565b50620006e3929150620006e7565b5090565b5b80821115620006e35760008155600101620006e8565b634e487b7160e01b600052604160045260246000fd5b604051601f8201601f191681016001600160401b03811182821017156200073f576200073f620006fe565b604052919050565b80516001600160a01b03811681146200075f57600080fd5b919050565b6000606082840312156200077757600080fd5b604051606081016001600160401b03811182821017156200079c576200079c620006fe565b80604052508091508251815260208301516020820152604083015160408201525092915050565b60008060008060008060008060006101608a8c031215620007e357600080fd5b89516001600160401b0380821115620007fb57600080fd5b818c0191508c601f8301126200081057600080fd5b815181811115620008255762000825620006fe565b602091506200083d601f8201601f1916830162000714565b8181528e838386010111156200085257600080fd5b60005b828110156200087257848101840151828201850152830162000855565b82811115620008845760008484840101525b509b506200089690508c820162000747565b99505050620008a860408b0162000747565b9650620008b860608b0162000747565b9550620008c860808b0162000747565b9450620008d860a08b0162000747565b935060c08a01519250620008ef60e08b0162000747565b9150620009018b6101008c0162000764565b90509295985092959850929598565b6000602082840312156200092357600080fd5b815180151581146200065157600080fd5b600082198211156200095657634e487b7160e01b600052601160045260246000fd5b500190565b600181811c908216806200097057607f821691505b6020821081036200099157634e487b7160e01b600052602260045260246000fd5b50919050565b61377e80620009a76000396000f3fe60806040526004361061036f5760003560e01c80638b73e606116101c6578063c89039c5116100f7578063e21ac82511610095578063ee99205c1161006f578063ee99205c14610a27578063f2fde38b14610a47578063f7c618c114610a67578063fdb5a03e14610a8757600080fd5b8063e21ac825146109d2578063eab89a5a146109f2578063ed24911d14610a1257600080fd5b8063da09c72c116100d1578063da09c72c14610937578063dbd9a4d414610957578063dd62ed3e1461096c578063dd8ce4d6146109b257600080fd5b8063c89039c5146108d7578063cff1b6ef146108f7578063d505accf1461091757600080fd5b8063a9059cbb11610164578063b6b55f251161013e578063b6b55f2514610877578063b9e57b8014610897578063bd079f55146108ac578063c4b24a46146108c257600080fd5b8063a9059cbb1461081d578063ac0d31ff1461083d578063b52a321f1461085d57600080fd5b806395d89b41116101a057806395d89b411461079457806399729ec1146107a95780639e4e7318146107c9578063a8ae2b7c146107fd57600080fd5b80638b73e606146107225780638da5cb5b146107425780639291d5631461077457600080fd5b80634bebd1e7116102a0578063789139bc1161023e5780637ecebe00116102185780637ecebe001461069f57806381837230146106cc5780638980f11f146106ec5780638aff733d1461070c57600080fd5b8063789139bc146106535780637ae26773146106695780637d8820971461068957600080fd5b80635ea682ea1161027a5780635ea682ea146105dc5780635eaec0e4146105f257806370a0823114610608578063715018a61461063e57600080fd5b80634bebd1e71461057c5780634e77ace51461059c5780634ebb7916146105bc57600080fd5b80632e1a7d4d1161030d578063313ce567116102e7578063313ce567146104ef5780633bdc6e7214610516578063483c2ef01461052c5780634a970be71461055c57600080fd5b80632e1a7d4d146104795780632f4f21e21461049b57806330adf81f146104bb57600080fd5b80630f23475d116103495780630f23475d146103fa57806318160ddd1461040f57806320606b701461042557806323b872dd1461045957600080fd5b806306fdde031461037b57806307677111146103a6578063095ea7b3146103ca57600080fd5b3661037657005b600080fd5b34801561038757600080fd5b50610390610a9c565b60405161039d91906131a4565b60405180910390f35b3480156103b257600080fd5b506103bc60105481565b60405190815260200161039d565b3480156103d657600080fd5b506103ea6103e53660046131cc565b610b2a565b604051901515815260200161039d565b34801561040657600080fd5b506103bc610b40565b34801561041b57600080fd5b506103bc60025481565b34801561043157600080fd5b506103bc7f8b73c3c69bb8fe3d512ecc4cf759cc79239f7b179b0ffacaa9a75d522b39400f81565b34801561046557600080fd5b506103ea6104743660046131f8565b610bc2565b34801561048557600080fd5b50610499610494366004613239565b610ca6565b005b3480156104a757600080fd5b506104996104b63660046131cc565b610d2e565b3480156104c757600080fd5b506103bc7f6e71edae12b1b97f4d1f60370fef10105fa2faae0126114a169c64845d6126c981565b3480156104fb57600080fd5b50610504601281565b60405160ff909116815260200161039d565b34801561052257600080fd5b506103bc60075481565b34801561053857600080fd5b506103ea610547366004613252565b60086020526000908152604090205460ff1681565b34801561056857600080fd5b50610499610577366004613285565b610d38565b34801561058857600080fd5b50610499610597366004613252565b610dd1565b3480156105a857600080fd5b506104996105b73660046132da565b610ed9565b3480156105c857600080fd5b506104996105d7366004613239565b610f62565b3480156105e857600080fd5b506103bc60125481565b3480156105fe57600080fd5b506103bc60165481565b34801561061457600080fd5b506103bc610623366004613252565b6001600160a01b031660009081526004602052604090205490565b34801561064a57600080fd5b50610499610ffe565b34801561065f57600080fd5b506103bc600e5481565b34801561067557600080fd5b506104996106843660046132f7565b611072565b34801561069557600080fd5b506103bc60095481565b3480156106ab57600080fd5b506103bc6106ba366004613252565b60056020526000908152604090205481565b3480156106d857600080fd5b506104996106e7366004613239565b611118565b3480156106f857600080fd5b506104996107073660046131cc565b611183565b34801561071857600080fd5b506103bc60115481565b34801561072e57600080fd5b5061049961073d366004613252565b61127a565b34801561074e57600080fd5b506006546001600160a01b03165b6040516001600160a01b03909116815260200161039d565b34801561078057600080fd5b5061049961078f366004613252565b6113fb565b3480156107a057600080fd5b506103906114b5565b3480156107b557600080fd5b506104996107c4366004613239565b6114c2565b3480156107d557600080fd5b506103bc7fc89efdaa54c0f20c7adf612882df0950f5a951637e0307cdcb4c672f298b8bc681565b34801561080957600080fd5b50610499610818366004613239565b611550565b34801561082957600080fd5b506103ea6108383660046131cc565b6115de565b34801561084957600080fd5b50610499610858366004613330565b6115eb565b34801561086957600080fd5b50600f546103ea9060ff1681565b34801561088357600080fd5b50610499610892366004613239565b61182e565b3480156108a357600080fd5b506103bc61183b565b3480156108b857600080fd5b506103bc600d5481565b3480156108ce57600080fd5b506103bc611880565b3480156108e357600080fd5b50600a5461075c906001600160a01b031681565b34801561090357600080fd5b50610499610912366004613239565b611910565b34801561092357600080fd5b50610499610932366004613355565b611986565b34801561094357600080fd5b50600c5461075c906001600160a01b031681565b34801561096357600080fd5b50610499611a8b565b34801561097857600080fd5b506103bc6109873660046132f7565b6001600160a01b03918216600090815260036020908152604080832093909416825291909152205490565b3480156109be57600080fd5b506103bc6109cd366004613239565b611b2f565b3480156109de57600080fd5b506104996109ed366004613239565b611b74565b3480156109fe57600080fd5b506103bc610a0d366004613239565b611bdf565b348015610a1e57600080fd5b506103bc611c22565b348015610a3357600080fd5b5060135461075c906001600160a01b031681565b348015610a5357600080fd5b50610499610a62366004613252565b611cc2565b348015610a7357600080fd5b50600b5461075c906001600160a01b031681565b348015610a9357600080fd5b50610499611dad565b60008054610aa9906133c3565b80601f0160208091040260200160405190810160405280929190818152602001828054610ad5906133c3565b8015610b225780601f10610af757610100808354040283529160200191610b22565b820191906000526020600020905b815481529060010190602001808311610b0557829003601f168201915b505050505081565b6000610b37338484611e66565b50600192915050565b6013546016546040516393f1a40b60e01b8152600481019190915230602482015260009182916001600160a01b03909116906393f1a40b906044016040805180830381865afa158015610b97573d6000803e3d6000fd5b505050506040513d601f19601f82011682018060405250810190610bbb91906133fd565b5092915050565b6001600160a01b038316600081815260036020908152604080832033808552925282205491929091908214801590610bfc57506000198114155b15610c8d576000610c28856040518060600160405280602f81526020016136c5602f9139849190611f74565b6001600160a01b038881166000818152600360209081526040808320948916808452948252918290208590559051848152939450919290917f8c5be1e5ebec7d5bd14f71427d1e84f3dd0314c0f7b2291e5b200ac8c7c3b925910160405180910390a3505b610c98868686611fa0565b6001925050505b9392505050565b6000610cb182611bdf565b90508015610d2a57610cc2816120d3565b600a54610cd9906001600160a01b0316338361219f565b610ce33383612273565b600954610cf09082612349565b60095560405181815233907f884edad9ce6fa2440d8a54cc123490eb96d2768479d49ff9c7366125a9424364906020015b60405180910390a25b5050565b610d2a8282612355565b600a5460405163d505accf60e01b8152336004820152306024820152604481018790526064810186905260ff8516608482015260a4810184905260c481018390526001600160a01b039091169063d505accf9060e401600060405180830381600087803b158015610da857600080fd5b505af1158015610dbc573d6000803e3d6000fd5b50505050610dca3386612355565b5050505050565b6006546001600160a01b03163314610e045760405162461bcd60e51b8152600401610dfb90613421565b60405180910390fd5b6001600160a01b03811660009081526008602052604090205460ff1615610e6d5760405162461bcd60e51b815260206004820152601c60248201527f5065726d697373696f6e65643a3a616c6c6f774465706f7369746f72000000006044820152606401610dfb565b6001600160a01b0381166000908152600860205260409020805460ff19166001908117909155600754610e9f91611e5a565b6007556040516001600160a01b038216907fc0a1035c16faf8d1304056d92c00edf028f87e62b8235a938f00af9e3c0312c590600090a250565b6006546001600160a01b03163314610f035760405162461bcd60e51b8152600401610dfb90613421565b600f5481151560ff909116151503610f1a57600080fd5b600f805460ff19168215159081179091556040519081527f7b014ed3854e7f5cb0218d58b3c6ae7d53a68bb0af2f67bfb029ea42c38a7e85906020015b60405180910390a150565b6006546001600160a01b03163314610f8c5760405162461bcd60e51b8152600401610dfb90613421565b60008111610f9957600080fd5b604051339082156108fc029083906000818181858888f19350505050158015610fc6573d6000803e3d6000fd5b506040805160008152602081018390527f8c1256b8896378cd5044f80c202f9772b9d77dc85c8a6eb51967210b09bfaa289101610f57565b6006546001600160a01b031633146110285760405162461bcd60e51b8152600401610dfb90613421565b6006546040516000916001600160a01b0316907f8be0079c531659141344cd1fd0a4f28419497f9722a3daafe3b4186f6b6457e0908390a3600680546001600160a01b0319169055565b6006546001600160a01b0316331461109c5760405162461bcd60e51b8152600401610dfb90613421565b60405163095ea7b360e01b81526001600160a01b0382811660048301526000602483015283169063095ea7b3906044016020604051808303816000875af11580156110eb573d6000803e3d6000fd5b505050506040513d601f19601f8201168201806040525081019061110f9190613456565b610d2a57600080fd5b6006546001600160a01b031633146111425760405162461bcd60e51b8152600401610dfb90613421565b600d5460408051918252602082018390527f481f79ac3a523b6d6db3c5a720e190e986d1cc1b41adcdf50f9caef849901100910160405180910390a1600d55565b6006546001600160a01b031633146111ad5760405162461bcd60e51b8152600401610dfb90613421565b600081116111ba57600080fd5b60405163a9059cbb60e01b8152336004820152602481018290526001600160a01b0383169063a9059cbb906044016020604051808303816000875af1158015611207573d6000803e3d6000fd5b505050506040513d601f19601f8201168201806040525081019061122b9190613456565b61123457600080fd5b604080516001600160a01b0384168152602081018390527f8c1256b8896378cd5044f80c202f9772b9d77dc85c8a6eb51967210b09bfaa28910160405180910390a15050565b6006546001600160a01b031633146112a45760405162461bcd60e51b8152600401610dfb90613421565b6000600754116113135760405162461bcd60e51b815260206004820152603460248201527f5065726d697373696f6e65643a3a72656d6f76654465706f7369746f722c206e6044820152736f20616c6c6f776564206465706f7369746f727360601b6064820152608401610dfb565b6001600160a01b03811660009081526008602052604090205460ff1615156001146113935760405162461bcd60e51b815260206004820152602a60248201527f5065726d697373696f6e65643a3a72656d6f76654465706f7369746f722c206e6044820152691bdd08185b1b1bddd95960b21b6064820152608401610dfb565b6001600160a01b0381166000908152600860205260409020805460ff191690556007546113c1906001612349565b6007556040516001600160a01b038216907f0e86f6608b536e5339a25b65ff531f5ea91e1313d056ecd4752b35cbd16137d490600090a250565b600c546001600160a01b0316331461144c5760405162461bcd60e51b81526020600482015260146024820152732cb0b5a9ba3930ba32b3bc9d1d37b7363ca232bb60611b6044820152606401610dfb565b600c54604080516001600160a01b03928316815291831660208301527fa8e91499ed37682f43cffb045fcc7d379a91e8c9a14e6321877ee34dee564c00910160405180910390a1600c80546001600160a01b0319166001600160a01b0392909216919091179055565b60018054610aa9906133c3565b6006546001600160a01b031633146114ec5760405162461bcd60e51b8152600401610dfb90613421565b61271061150460115483611e5a90919063ffffffff16565b111561150f57600080fd5b60125460408051918252602082018390527f2a42303d002f0ba6cfe8259c91d4684443fb0b3de286ba74991175d651726131910160405180910390a1601255565b6006546001600160a01b0316331461157a5760405162461bcd60e51b8152600401610dfb90613421565b61271061159260125483611e5a90919063ffffffff16565b111561159d57600080fd5b60115460408051918252602082018390527fe7f97d51d307dc44045597c9978bec0f842e6bb40d19b9444084cfa30d9ed4f2910160405180910390a1601155565b6000610b37338484611fa0565b6006546001600160a01b031633146116155760405162461bcd60e51b8152600401610dfb90613421565b600a546040516370a0823160e01b81523060048201526000916001600160a01b0316906370a0823190602401602060405180830381865afa15801561165e573d6000803e3d6000fd5b505050506040513d601f19601f820116820180604052508101906116829190613473565b601354601654604051632989754760e11b815260048101919091529192506001600160a01b031690635312ea8e90602401600060405180830381600087803b1580156116cd57600080fd5b505af11580156116e1573d6000803e3d6000fd5b5050600a546040516370a0823160e01b8152306004820152600093506001600160a01b0390911691506370a0823190602401602060405180830381865afa158015611730573d6000803e3d6000fd5b505050506040513d601f19601f820116820180604052508101906117549190613473565b9050836117618284612349565b10156117be5760405162461bcd60e51b815260206004820152602660248201527f4d617374657259616b53747261746567793a3a7265736375654465706c6f79656044820152656446756e647360d01b6064820152608401610dfb565b60098190556002546040805183815260208101929092527fc7606d21ac05cd309191543e409f0845c016120563783d70e4f41419dc0ef234910160405180910390a1600f5460ff161515600114801561181957506001831515145b15611828576118286000610ed9565b50505050565b6118383382612355565b50565b600080611846611880565b9050600d5481106118785761187261271061186c6011548461254290919063ffffffff16565b9061254e565b91505090565b600091505090565b6013546016546040516334637d4f60e21b8152600481019190915230602482015260009182916001600160a01b039091169063d18df53c90604401602060405180830381865afa1580156118d8573d6000803e3d6000fd5b505050506040513d601f19601f820116820180604052508101906118fc9190613473565b9050476119098282611e5a565b9250505090565b6006546001600160a01b0316331461193a5760405162461bcd60e51b8152600401610dfb90613421565b801561194557600080fd5b60105460408051918252602082018390527f3cc372f330f95ac9540626dc8a25f5bf21ba607215a5d58304cb804d446f104a910160405180910390a1601055565b428410156119c85760405162461bcd60e51b815260206004820152600f60248201526e1c195c9b5a5d0e8e995e1c1a5c9959608a1b6044820152606401610dfb565b6001600160a01b038716600090815260056020526040812080547f6e71edae12b1b97f4d1f60370fef10105fa2faae0126114a169c64845d6126c9918a918a918a919086611a15836134a2565b909155506040805160208101969096526001600160a01b0394851690860152929091166060840152608083015260a082015260c0810186905260e001604051602081830303815290604052805190602001209050611a76888286868661255a565b611a81888888611e66565b5050505050505050565b6006546001600160a01b03163314611ab55760405162461bcd60e51b8152600401610dfb90613421565b600a5460135460405163095ea7b360e01b81526001600160a01b039182166004820152600019602482015291169063095ea7b3906044016020604051808303816000875af1158015611b0b573d6000803e3d6000fd5b505050506040513d601f19601f820116820180604052508101906118389190613456565b6000611b4860095460025461254290919063ffffffff16565b600003611b53575090565b611b6e60095461186c6002548561254290919063ffffffff16565b92915050565b6006546001600160a01b03163314611b9e5760405162461bcd60e51b8152600401610dfb90613421565b600e5460408051918252602082018390527fa5dae50539d56dfe1fb5273d883b0c39bc76750a25d036fc5fbd09ad8fd5f57f910160405180910390a1600e55565b6000611bf860095460025461254290919063ffffffff16565b600003611c0757506000919050565b611b6e60025461186c6009548561254290919063ffffffff16565b60007f8b73c3c69bb8fe3d512ecc4cf759cc79239f7b179b0ffacaa9a75d522b39400f60001b6000604051611c5791906134bb565b6040519081900390207fc89efdaa54c0f20c7adf612882df0950f5a951637e0307cdcb4c672f298b8bc646604080516020810195909552840192909252606083015260808201523060a082015260c00160405160208183030381529060405280519060200120905090565b6006546001600160a01b03163314611cec5760405162461bcd60e51b8152600401610dfb90613421565b6001600160a01b038116611d515760405162461bcd60e51b815260206004820152602660248201527f4f776e61626c653a206e6577206f776e657220697320746865207a65726f206160448201526564647265737360d01b6064820152608401610dfb565b6006546040516001600160a01b038084169216907f8be0079c531659141344cd1fd0a4f28419497f9722a3daafe3b4186f6b6457e090600090a3600680546001600160a01b0319166001600160a01b0392909216919091179055565b323314611df35760405162461bcd60e51b815260206004820152601460248201527359616b53747261746567793a3a6f6e6c79454f4160601b6044820152606401610dfb565b6000611dfd611880565b9050600d54811015611e515760405162461bcd60e51b815260206004820152601b60248201527f4d617374657259616b53747261746567793a3a7265696e7665737400000000006044820152606401610dfb565b61183881612686565b6000610c9f8284613556565b6001600160a01b038316611ebc5760405162461bcd60e51b815260206004820152601c60248201527f5f617070726f76653a3a6f776e6572207a65726f2061646472657373000000006044820152606401610dfb565b6001600160a01b038216611f125760405162461bcd60e51b815260206004820152601e60248201527f5f617070726f76653a3a7370656e646572207a65726f206164647265737300006044820152606401610dfb565b6001600160a01b0383811660008181526003602090815260408083209487168084529482529182902085905590518481527f8c5be1e5ebec7d5bd14f71427d1e84f3dd0314c0f7b2291e5b200ac8c7c3b92591015b60405180910390a3505050565b60008184841115611f985760405162461bcd60e51b8152600401610dfb91906131a4565b505050900390565b6001600160a01b0382166120135760405162461bcd60e51b815260206004820152603460248201527f5f7472616e73666572546f6b656e733a2063616e6e6f74207472616e7366657260448201527320746f20746865207a65726f206164647265737360601b6064820152608401610dfb565b612050816040518060600160405280602e815260200161371b602e91396001600160a01b0386166000908152600460205260409020549190611f74565b6001600160a01b03808516600090815260046020526040808220939093559084168152205461207f9082611e5a565b6001600160a01b0380841660008181526004602052604090819020939093559151908516907fddf252ad1be2c89b69c2b068fc378daa952ba7f163c4a11628f55a4df523b3ef90611f679085815260200190565b600081116121355760405162461bcd60e51b815260206004820152602960248201527f4d617374657259616b53747261746567793a3a5f77697468647261774465706f604482015268736974546f6b656e7360b81b6064820152608401610dfb565b601354601654604051630441a3e760e41b81526001600160a01b039092169163441a3e7091612171918590600401918252602082015260400190565b600060405180830381600087803b15801561218b57600080fd5b505af1158015610dca573d6000803e3d6000fd5b60405163a9059cbb60e01b81526001600160a01b0383811660048301526024820183905284169063a9059cbb906044016020604051808303816000875af11580156121ee573d6000803e3d6000fd5b505050506040513d601f19601f820116820180604052508101906122129190613456565b61226e5760405162461bcd60e51b815260206004820152602760248201527f4d617374657259616b53747261746567793a3a5452414e534645525f46524f4d60448201526617d1905253115160ca1b6064820152608401610dfb565b505050565b6122b0816040518060600160405280602781526020016136f4602791396001600160a01b0385166000908152600460205260409020549190611f74565b60046000846001600160a01b03166001600160a01b03168152602001908152602001600020819055506123008160405180606001604052806027815260200161369e602791396002549190611f74565b6002556040518181526000906001600160a01b038416907fddf252ad1be2c89b69c2b068fc378daa952ba7f163c4a11628f55a4df523b3ef906020015b60405180910390a35050565b6000610c9f828461356e565b600754156123d8573360009081526008602052604090205460ff1615156001146123d85760405162461bcd60e51b815260206004820152602e60248201527f5065726d697373696f6e65643a3a6f6e6c79416c6c6f7765644465706f73697460448201526d1ccb081b9bdd08185b1b1bddd95960921b6064820152608401610dfb565b600f5460ff16151560011461242f5760405162461bcd60e51b815260206004820152601b60248201527f4d617374657259616b53747261746567793a3a5f6465706f73697400000000006044820152606401610dfb565b600e5415612458576000612441611880565b9050600e548111156124565761245681612686565b505b600a546040516323b872dd60e01b8152336004820152306024820152604481018390526001600160a01b03909116906323b872dd906064016020604051808303816000875af11580156124af573d6000803e3d6000fd5b505050506040513d601f19601f820116820180604052508101906124d39190613456565b6124dc57600080fd5b6124e58161287a565b6124f7826124f283611b2f565b612915565b6009546125049082611e5a565b6009556040518181526001600160a01b038316907fe1fffcc4923d04b559f4d29a8bfc6cda04eb5b0d3c460751c2402c5c5cc9109c90602001610d21565b6000610c9f8284613585565b6000610c9f82846135a4565b6000612564611c22565b60405161190160f01b602082015260228101919091526042810186905260620160408051601f198184030181528282528051602091820120600080855291840180845281905260ff88169284019290925260608301869052608083018590529092509060019060a0016020604051602081039080840390855afa1580156125ef573d6000803e3d6000fd5b5050604051601f1901519150506001600160a01b038116158015906126255750866001600160a01b0316816001600160a01b0316145b61267d5760405162461bcd60e51b8152602060048201526024808201527f417263683a3a76616c69646174655369673a20696e76616c6964207369676e616044820152637475726560e01b6064820152608401610dfb565b50505050505050565b601354601654604051631c57762b60e31b81526004810191909152600060248201526001600160a01b039091169063e2bbb15890604401600060405180830381600087803b1580156126d757600080fd5b505af11580156126eb573d6000803e3d6000fd5b50505050600b60009054906101000a90046001600160a01b03166001600160a01b031663d0e30db0826040518263ffffffff1660e01b81526004016000604051808303818588803b15801561273f57600080fd5b505af1158015612753573d6000803e3d6000fd5b5050505050600061277561271061186c6012548561254290919063ffffffff16565b9050801561279a57600b54600c5461279a916001600160a01b0390811691168361219f565b60006127b761271061186c6011548661254290919063ffffffff16565b905080156127d657600b546127d6906001600160a01b0316338361219f565b60006128156127ef836127e98787612349565b90612349565b600b54600a546014546015546001600160a01b0393841693928316929182169116612999565b90506128208161287a565b60095461282d9082611e5a565b60098190556002546040517fc7606d21ac05cd309191543e409f0845c016120563783d70e4f41419dc0ef2349261286c92908252602082015260400190565b60405180910390a150505050565b600081116128d95760405162461bcd60e51b815260206004820152602660248201527f4d617374657259616b53747261746567793a3a5f7374616b654465706f736974604482015265546f6b656e7360d01b6064820152608401610dfb565b601354601654604051631c57762b60e31b81526001600160a01b039092169163e2bbb15891612171918590600401918252602082015260400190565b6002546129229082611e5a565b6002556001600160a01b0382166000908152600460205260409020546129489082611e5a565b6001600160a01b0383166000818152600460205260408082209390935591519091907fddf252ad1be2c89b69c2b068fc378daa952ba7f163c4a11628f55a4df523b3ef9061233d9085815260200190565b6000806129a787600261254e565b905060008111612a115760405162461bcd60e51b815260206004820152602f60248201527f4465784c6962726172793a3a5f636f6e76657274526577617264546f6b656e7360448201526e546f4465706f736974546f6b656e7360881b6064820152608401610dfb565b6000856001600160a01b0316630dfe16816040518163ffffffff1660e01b8152600401602060405180830381865afa158015612a51573d6000803e3d6000fd5b505050506040513d601f19601f82011682018060405250810190612a7591906135c6565b9050816001600160a01b0388811690831614612a9a57612a9783898489612b3d565b90505b6000876001600160a01b031663d21220a76040518163ffffffff1660e01b8152600401602060405180830381865afa158015612ada573d6000803e3d6000fd5b505050506040513d601f19601f82011682018060405250810190612afe91906135c6565b9050836001600160a01b038a811690831614612b2357612b20858b848a612b3d565b90505b612b2e898483612cb1565b9b9a5050505050505050505050565b600080612b4a8585612e98565b509050600080846001600160a01b0316630902f1ac6040518163ffffffff1660e01b8152600401606060405180830381865afa158015612b8e573d6000803e3d6000fd5b505050506040513d601f19601f82011682018060405250810190612bb291906135fa565b5091509150866001600160a01b0316836001600160a01b031614612bd257905b600080612bf28a856001600160701b0316856001600160701b0316612ec9565b9050886001600160a01b0316856001600160a01b031614612c0f57905b612c236001600160a01b038a16888c612f0c565b6040805160008152602081019182905263022c0d9f60e01b9091526001600160a01b0388169063022c0d9f90612c62908590859030906024810161364a565b600060405180830381600087803b158015612c7c57600080fd5b505af1158015612c90573d6000803e3d6000fd5b50505050818111612ca15781612ca3565b805b9a9950505050505050505050565b6000806000856001600160a01b0316630902f1ac6040518163ffffffff1660e01b8152600401606060405180830381865afa158015612cf4573d6000803e3d6000fd5b505050506040513d601f19601f82011682018060405250810190612d1891906135fa565b50915091506000612d3c86846001600160701b0316846001600160701b0316612f5e565b905084811115612d6957849050612d6685836001600160701b0316856001600160701b0316612f5e565b95505b612de08787896001600160a01b0316630dfe16816040518163ffffffff1660e01b8152600401602060405180830381865afa158015612dac573d6000803e3d6000fd5b505050506040513d601f19601f82011682018060405250810190612dd091906135c6565b6001600160a01b03169190612f0c565b612e238782896001600160a01b031663d21220a76040518163ffffffff1660e01b8152600401602060405180830381865afa158015612dac573d6000803e3d6000fd5b6040516335313c2160e11b81523060048201526001600160a01b03881690636a627842906024016020604051808303816000875af1158015612e69573d6000803e3d6000fd5b505050506040513d601f19601f82011682018060405250810190612e8d9190613473565b979650505050505050565b600080826001600160a01b0316846001600160a01b031610612ebb578284612ebe565b83835b915091509250929050565b600080612ed8856103e5612542565b90506000612ee68285612542565b90506000612f0083612efa886103e8612542565b90611e5a565b9050612e8d828261254e565b604080516001600160a01b038416602482015260448082018490528251808303909101815260649091019091526020810180516001600160e01b031663a9059cbb60e01b17905261226e908490612f76565b6000612f6e8361186c8685612542565b949350505050565b6000612fcb826040518060400160405280602081526020017f5361666545524332303a206c6f772d6c6576656c2063616c6c206661696c6564815250856001600160a01b03166130489092919063ffffffff16565b80519091501561226e5780806020019051810190612fe99190613456565b61226e5760405162461bcd60e51b815260206004820152602a60248201527f5361666545524332303a204552433230206f7065726174696f6e20646964206e6044820152691bdd081cdd58d8d9595960b21b6064820152608401610dfb565b6060612f6e8484600085856001600160a01b0385163b6130aa5760405162461bcd60e51b815260206004820152601d60248201527f416464726573733a2063616c6c20746f206e6f6e2d636f6e74726163740000006044820152606401610dfb565b600080866001600160a01b031685876040516130c69190613681565b60006040518083038185875af1925050503d8060008114613103576040519150601f19603f3d011682016040523d82523d6000602084013e613108565b606091505b5091509150612e8d82828660608315613122575081610c9f565b8251156131325782518084602001fd5b8160405162461bcd60e51b8152600401610dfb91906131a4565b60005b8381101561316757818101518382015260200161314f565b838111156118285750506000910152565b6000815180845261319081602086016020860161314c565b601f01601f19169290920160200192915050565b602081526000610c9f6020830184613178565b6001600160a01b038116811461183857600080fd5b600080604083850312156131df57600080fd5b82356131ea816131b7565b946020939093013593505050565b60008060006060848603121561320d57600080fd5b8335613218816131b7565b92506020840135613228816131b7565b929592945050506040919091013590565b60006020828403121561324b57600080fd5b5035919050565b60006020828403121561326457600080fd5b8135610c9f816131b7565b803560ff8116811461328057600080fd5b919050565b600080600080600060a0868803121561329d57600080fd5b85359450602086013593506132b46040870161326f565b94979396509394606081013594506080013592915050565b801515811461183857600080fd5b6000602082840312156132ec57600080fd5b8135610c9f816132cc565b6000806040838503121561330a57600080fd5b8235613315816131b7565b91506020830135613325816131b7565b809150509250929050565b6000806040838503121561334357600080fd5b823591506020830135613325816132cc565b600080600080600080600060e0888a03121561337057600080fd5b873561337b816131b7565b9650602088013561338b816131b7565b955060408801359450606088013593506133a76080890161326f565b925060a0880135915060c0880135905092959891949750929550565b600181811c908216806133d757607f821691505b6020821081036133f757634e487b7160e01b600052602260045260246000fd5b50919050565b6000806040838503121561341057600080fd5b505080516020909101519092909150565b6020808252818101527f4f776e61626c653a2063616c6c6572206973206e6f7420746865206f776e6572604082015260600190565b60006020828403121561346857600080fd5b8151610c9f816132cc565b60006020828403121561348557600080fd5b5051919050565b634e487b7160e01b600052601160045260246000fd5b6000600182016134b4576134b461348c565b5060010190565b600080835481600182811c9150808316806134d757607f831692505b602080841082036134f657634e487b7160e01b86526022600452602486fd5b81801561350a576001811461351b57613548565b60ff19861689528489019650613548565b60008a81526020902060005b868110156135405781548b820152908501908301613527565b505084890196505b509498975050505050505050565b600082198211156135695761356961348c565b500190565b6000828210156135805761358061348c565b500390565b600081600019048311821515161561359f5761359f61348c565b500290565b6000826135c157634e487b7160e01b600052601260045260246000fd5b500490565b6000602082840312156135d857600080fd5b8151610c9f816131b7565b80516001600160701b038116811461328057600080fd5b60008060006060848603121561360f57600080fd5b613618846135e3565b9250613626602085016135e3565b9150604084015163ffffffff8116811461363f57600080fd5b809150509250925092565b84815283602082015260018060a01b03831660408201526080606082015260006136776080830184613178565b9695505050505050565b6000825161369381846020870161314c565b919091019291505056fe5f6275726e3a206275726e20616d6f756e74206578636565647320746f74616c20737570706c797472616e7366657246726f6d3a207472616e7366657220616d6f756e74206578636565647320616c6c6f77616e63655f6275726e3a206275726e20616d6f756e7420657863656564732066726f6d2062616c616e63655f7472616e73666572546f6b656e733a207472616e7366657220657863656564732066726f6d2062616c616e6365a26469706673582212209227bc8ef4c16c8025dfd89c33fb08c173fb707bd6d42d3a5191e65ee04f51b864736f6c634300080d00334f776e61626c653a2063616c6c6572206973206e6f7420746865206f776e65728be0079c531659141344cd1fd0a4f28419497f9722a3daafe3b4186f6b6457e0",
    "linkReferences": {}
  },
  "methodIdentifiers": {
    "ADMIN_FEE_BIPS()": "07677111",
    "DEPOSITS_ENABLED()": "b52a321f",
    "DEV_FEE_BIPS()": "5ea682ea",
    "DOMAIN_TYPEHASH()": "20606b70",
    "MAX_TOKENS_TO_DEPOSIT_WITHOUT_REINVEST()": "789139bc",
    "MIN_TOKENS_TO_REINVEST()": "bd079f55",
    "PERMIT_TYPEHASH()": "30adf81f",
    "PID()": "5eaec0e4",
    "REINVEST_REWARD_BIPS()": "8aff733d",
    "VERSION_HASH()": "9e4e7318",
    "allowDepositor(address)": "4bebd1e7",
    "allowance(address,address)": "dd62ed3e",
    "allowedDepositors(address)": "483c2ef0",
    "approve(address,uint256)": "095ea7b3",
    "balanceOf(address)": "70a08231",
    "checkReward()": "c4b24a46",
    "decimals()": "313ce567",
    "deposit(uint256)": "b6b55f25",
    "depositFor(address,uint256)": "2f4f21e2",
    "depositToken()": "c89039c5",
    "depositWithPermit(uint256,uint256,uint8,bytes32,bytes32)": "4a970be7",
    "devAddr()": "da09c72c",
    "estimateDeployedBalance()": "0f23475d",
    "estimateReinvestReward()": "b9e57b80",
    "getDepositTokensForShares(uint256)": "eab89a5a",
    "getDomainSeparator()": "ed24911d",
    "getSharesForDepositTokens(uint256)": "dd8ce4d6",
    "name()": "06fdde03",
    "nonces(address)": "7ecebe00",
    "numberOfAllowedDepositors()": "3bdc6e72",
    "owner()": "8da5cb5b",
    "permit(address,address,uint256,uint256,uint8,bytes32,bytes32)": "d505accf",
    "recoverAVAX(uint256)": "4ebb7916",
    "recoverERC20(address,uint256)": "8980f11f",
    "reinvest()": "fdb5a03e",
    "removeDepositor(address)": "8b73e606",
    "renounceOwnership()": "715018a6",
    "rescueDeployedFunds(uint256,bool)": "ac0d31ff",
    "revokeAllowance(address,address)": "7ae26773",
    "rewardToken()": "f7c618c1",
    "setAllowances()": "dbd9a4d4",
    "stakingContract()": "ee99205c",
    "symbol()": "95d89b41",
    "totalDeposits()": "7d882097",
    "totalSupply()": "18160ddd",
    "transfer(address,uint256)": "a9059cbb",
    "transferFrom(address,address,uint256)": "23b872dd",
    "transferOwnership(address)": "f2fde38b",
    "updateAdminFee(uint256)": "cff1b6ef",
    "updateDepositsEnabled(bool)": "4e77ace5",
    "updateDevAddr(address)": "9291d563",
    "updateDevFee(uint256)": "99729ec1",
    "updateMaxTokensToDepositWithoutReinvest(uint256)": "e21ac825",
    "updateMinTokensToReinvest(uint256)": "81837230",
    "updateReinvestReward(uint256)": "a8ae2b7c",
    "withdraw(uint256)": "2e1a7d4d"
  },
  "id": 159
}