{
  "abi": [
    {
      "inputs": [
        {
          "internalType": "string",
          "name": "_name",
          "type": "string"
        },
        {
          "internalType": "address",
          "name": "_depositToken",
          "type": "address"
        },
        {
          "components": [
            {
              "internalType": "address",
              "name": "token0",
              "type": "address"
            },
            {
              "internalType": "address",
              "name": "token1",
              "type": "address"
            }
          ],
          "internalType": "struct VariableRewardsStrategyForLP.SwapPairs",
          "name": "_swapPairs",
          "type": "tuple"
        },
        {
          "components": [
            {
              "internalType": "address",
              "name": "reward",
              "type": "address"
            },
            {
              "internalType": "address",
              "name": "swapPair",
              "type": "address"
            }
          ],
          "internalType": "struct VariableRewardsStrategy.RewardSwapPairs[]",
          "name": "_rewardSwapPairs",
          "type": "tuple[]"
        },
        {
          "internalType": "address",
          "name": "_stakingContract",
          "type": "address"
        },
        {
          "internalType": "address",
          "name": "_boosterFeeCollector",
          "type": "address"
        },
        {
          "internalType": "address",
          "name": "_timelock",
          "type": "address"
        },
        {
          "components": [
            {
              "internalType": "uint256",
              "name": "minTokensToReinvest",
              "type": "uint256"
            },
            {
              "internalType": "uint256",
              "name": "devFeeBips",
              "type": "uint256"
            },
            {
              "internalType": "uint256",
              "name": "reinvestRewardBips",
              "type": "uint256"
            }
          ],
          "internalType": "struct YakStrategyV2.StrategySettings",
          "name": "_strategySettings",
          "type": "tuple"
        }
      ],
      "stateMutability": "nonpayable",
      "type": "constructor"
    },
    {
      "anonymous": false,
      "inputs": [
        {
          "indexed": false,
          "internalType": "address",
          "name": "rewardToken",
          "type": "address"
        },
        {
          "indexed": false,
          "internalType": "address",
          "name": "swapPair",
          "type": "address"
        }
      ],
      "name": "AddReward",
      "type": "event"
    },
    {
      "anonymous": false,
      "inputs": [
        {
          "indexed": true,
          "internalType": "address",
          "name": "account",
          "type": "address"
        }
      ],
      "name": "AllowDepositor",
      "type": "event"
    },
    {
      "anonymous": false,
      "inputs": [
        {
          "indexed": true,
          "internalType": "address",
          "name": "owner",
          "type": "address"
        },
        {
          "indexed": true,
          "internalType": "address",
          "name": "spender",
          "type": "address"
        },
        {
          "indexed": false,
          "internalType": "uint256",
          "name": "value",
          "type": "uint256"
        }
      ],
      "name": "Approval",
      "type": "event"
    },
    {
      "anonymous": false,
      "inputs": [
        {
          "indexed": true,
          "internalType": "address",
          "name": "account",
          "type": "address"
        },
        {
          "indexed": false,
          "internalType": "uint256",
          "name": "amount",
          "type": "uint256"
        }
      ],
      "name": "Deposit",
      "type": "event"
    },
    {
      "anonymous": false,
      "inputs": [
        {
          "indexed": false,
          "internalType": "bool",
          "name": "newValue",
          "type": "bool"
        }
      ],
      "name": "DepositsEnabled",
      "type": "event"
    },
    {
      "anonymous": false,
      "inputs": [
        {
          "indexed": true,
          "internalType": "address",
          "name": "previousOwner",
          "type": "address"
        },
        {
          "indexed": true,
          "internalType": "address",
          "name": "newOwner",
          "type": "address"
        }
      ],
      "name": "OwnershipTransferred",
      "type": "event"
    },
    {
      "anonymous": false,
      "inputs": [
        {
          "indexed": false,
          "internalType": "address",
          "name": "token",
          "type": "address"
        },
        {
          "indexed": false,
          "internalType": "uint256",
          "name": "amount",
          "type": "uint256"
        }
      ],
      "name": "Recovered",
      "type": "event"
    },
    {
      "anonymous": false,
      "inputs": [
        {
          "indexed": false,
          "internalType": "uint256",
          "name": "newTotalDeposits",
          "type": "uint256"
        },
        {
          "indexed": false,
          "internalType": "uint256",
          "name": "newTotalSupply",
          "type": "uint256"
        }
      ],
      "name": "Reinvest",
      "type": "event"
    },
    {
      "anonymous": false,
      "inputs": [
        {
          "indexed": true,
          "internalType": "address",
          "name": "account",
          "type": "address"
        }
      ],
      "name": "RemoveDepositor",
      "type": "event"
    },
    {
      "anonymous": false,
      "inputs": [
        {
          "indexed": false,
          "internalType": "address",
          "name": "rewardToken",
          "type": "address"
        }
      ],
      "name": "RemoveReward",
      "type": "event"
    },
    {
      "anonymous": false,
      "inputs": [
        {
          "indexed": true,
          "internalType": "address",
          "name": "from",
          "type": "address"
        },
        {
          "indexed": true,
          "internalType": "address",
          "name": "to",
          "type": "address"
        },
        {
          "indexed": false,
          "internalType": "uint256",
          "name": "value",
          "type": "uint256"
        }
      ],
      "name": "Transfer",
      "type": "event"
    },
    {
      "anonymous": false,
      "inputs": [
        {
          "indexed": false,
          "internalType": "uint256",
          "name": "oldValue",
          "type": "uint256"
        },
        {
          "indexed": false,
          "internalType": "uint256",
          "name": "newValue",
          "type": "uint256"
        }
      ],
      "name": "UpdateAdminFee",
      "type": "event"
    },
    {
      "anonymous": false,
      "inputs": [
        {
          "indexed": false,
          "internalType": "address",
          "name": "oldValue",
          "type": "address"
        },
        {
          "indexed": false,
          "internalType": "address",
          "name": "newValue",
          "type": "address"
        }
      ],
      "name": "UpdateDevAddr",
      "type": "event"
    },
    {
      "anonymous": false,
      "inputs": [
        {
          "indexed": false,
          "internalType": "uint256",
          "name": "oldValue",
          "type": "uint256"
        },
        {
          "indexed": false,
          "internalType": "uint256",
          "name": "newValue",
          "type": "uint256"
        }
      ],
      "name": "UpdateDevFee",
      "type": "event"
    },
    {
      "anonymous": false,
      "inputs": [
        {
          "indexed": false,
          "internalType": "uint256",
          "name": "oldValue",
          "type": "uint256"
        },
        {
          "indexed": false,
          "internalType": "uint256",
          "name": "newValue",
          "type": "uint256"
        }
      ],
      "name": "UpdateMaxTokensToDepositWithoutReinvest",
      "type": "event"
    },
    {
      "anonymous": false,
      "inputs": [
        {
          "indexed": false,
          "internalType": "uint256",
          "name": "oldValue",
          "type": "uint256"
        },
        {
          "indexed": false,
          "internalType": "uint256",
          "name": "newValue",
          "type": "uint256"
        }
      ],
      "name": "UpdateMinTokensToReinvest",
      "type": "event"
    },
    {
      "anonymous": false,
      "inputs": [
        {
          "indexed": false,
          "internalType": "uint256",
          "name": "oldValue",
          "type": "uint256"
        },
        {
          "indexed": false,
          "internalType": "uint256",
          "name": "newValue",
          "type": "uint256"
        }
      ],
      "name": "UpdateReinvestReward",
      "type": "event"
    },
    {
      "anonymous": false,
      "inputs": [
        {
          "indexed": true,
          "internalType": "address",
          "name": "account",
          "type": "address"
        },
        {
          "indexed": false,
          "internalType": "uint256",
          "name": "amount",
          "type": "uint256"
        }
      ],
      "name": "Withdraw",
      "type": "event"
    },
    {
      "inputs": [],
      "name": "ADMIN_FEE_BIPS",
      "outputs": [
        {
          "internalType": "uint256",
          "name": "",
          "type": "uint256"
        }
      ],
      "stateMutability": "view",
      "type": "function"
    },
    {
      "inputs": [],
      "name": "DEPOSITS_ENABLED",
      "outputs": [
        {
          "internalType": "bool",
          "name": "",
          "type": "bool"
        }
      ],
      "stateMutability": "view",
      "type": "function"
    },
    {
      "inputs": [],
      "name": "DEV_FEE_BIPS",
      "outputs": [
        {
          "internalType": "uint256",
          "name": "",
          "type": "uint256"
        }
      ],
      "stateMutability": "view",
      "type": "function"
    },
    {
      "inputs": [],
      "name": "DOMAIN_TYPEHASH",
      "outputs": [
        {
          "internalType": "bytes32",
          "name": "",
          "type": "bytes32"
        }
      ],
      "stateMutability": "view",
      "type": "function"
    },
    {
      "inputs": [],
      "name": "MAX_TOKENS_TO_DEPOSIT_WITHOUT_REINVEST",
      "outputs": [
        {
          "internalType": "uint256",
          "name": "",
          "type": "uint256"
        }
      ],
      "stateMutability": "view",
      "type": "function"
    },
    {
      "inputs": [],
      "name": "MIN_TOKENS_TO_REINVEST",
      "outputs": [
        {
          "internalType": "uint256",
          "name": "",
          "type": "uint256"
        }
      ],
      "stateMutability": "view",
      "type": "function"
    },
    {
      "inputs": [],
      "name": "PERMIT_TYPEHASH",
      "outputs": [
        {
          "internalType": "bytes32",
          "name": "",
          "type": "bytes32"
        }
      ],
      "stateMutability": "view",
      "type": "function"
    },
    {
      "inputs": [],
      "name": "REINVEST_REWARD_BIPS",
      "outputs": [
        {
          "internalType": "uint256",
          "name": "",
          "type": "uint256"
        }
      ],
      "stateMutability": "view",
      "type": "function"
    },
    {
      "inputs": [],
      "name": "VERSION_HASH",
      "outputs": [
        {
          "internalType": "bytes32",
          "name": "",
          "type": "bytes32"
        }
      ],
      "stateMutability": "view",
      "type": "function"
    },
    {
      "inputs": [
        {
          "internalType": "address",
          "name": "_rewardToken",
          "type": "address"
        },
        {
          "internalType": "address",
          "name": "_swapPair",
          "type": "address"
        }
      ],
      "name": "addReward",
      "outputs": [],
      "stateMutability": "nonpayable",
      "type": "function"
    },
    {
      "inputs": [
        {
          "internalType": "address",
          "name": "depositor",
          "type": "address"
        }
      ],
      "name": "allowDepositor",
      "outputs": [],
      "stateMutability": "nonpayable",
      "type": "function"
    },
    {
      "inputs": [
        {
          "internalType": "address",
          "name": "account",
          "type": "address"
        },
        {
          "internalType": "address",
          "name": "spender",
          "type": "address"
        }
      ],
      "name": "allowance",
      "outputs": [
        {
          "internalType": "uint256",
          "name": "",
          "type": "uint256"
        }
      ],
      "stateMutability": "view",
      "type": "function"
    },
    {
      "inputs": [
        {
          "internalType": "address",
          "name": "",
          "type": "address"
        }
      ],
      "name": "allowedDepositors",
      "outputs": [
        {
          "internalType": "bool",
          "name": "",
          "type": "bool"
        }
      ],
      "stateMutability": "view",
      "type": "function"
    },
    {
      "inputs": [
        {
          "internalType": "address",
          "name": "spender",
          "type": "address"
        },
        {
          "internalType": "uint256",
          "name": "amount",
          "type": "uint256"
        }
      ],
      "name": "approve",
      "outputs": [
        {
          "internalType": "bool",
          "name": "",
          "type": "bool"
        }
      ],
      "stateMutability": "nonpayable",
      "type": "function"
    },
    {
      "inputs": [
        {
          "internalType": "address",
          "name": "account",
          "type": "address"
        }
      ],
      "name": "balanceOf",
      "outputs": [
        {
          "internalType": "uint256",
          "name": "",
          "type": "uint256"
        }
      ],
      "stateMutability": "view",
      "type": "function"
    },
    {
      "inputs": [],
      "name": "boosterFeeCollector",
      "outputs": [
        {
          "internalType": "contract IBoosterFeeCollector",
          "name": "",
          "type": "address"
        }
      ],
      "stateMutability": "view",
      "type": "function"
    },
    {
      "inputs": [
        {
          "internalType": "uint256",
          "name": "_amount",
          "type": "uint256"
        }
      ],
      "name": "calculateDepositFee",
      "outputs": [
        {
          "internalType": "uint256",
          "name": "",
          "type": "uint256"
        }
      ],
      "stateMutability": "view",
      "type": "function"
    },
    {
      "inputs": [
        {
          "internalType": "uint256",
          "name": "_amount",
          "type": "uint256"
        }
      ],
      "name": "calculateWithdrawFee",
      "outputs": [
        {
          "internalType": "uint256",
          "name": "",
          "type": "uint256"
        }
      ],
      "stateMutability": "view",
      "type": "function"
    },
    {
      "inputs": [],
      "name": "checkReward",
      "outputs": [
        {
          "internalType": "uint256",
          "name": "",
          "type": "uint256"
        }
      ],
      "stateMutability": "view",
      "type": "function"
    },
    {
      "inputs": [],
      "name": "decimals",
      "outputs": [
        {
          "internalType": "uint8",
          "name": "",
          "type": "uint8"
        }
      ],
      "stateMutability": "view",
      "type": "function"
    },
    {
      "inputs": [
        {
          "internalType": "uint256",
          "name": "_amount",
          "type": "uint256"
        }
      ],
      "name": "deposit",
      "outputs": [],
      "stateMutability": "nonpayable",
      "type": "function"
    },
    {
      "inputs": [
        {
          "internalType": "address",
          "name": "_account",
          "type": "address"
        },
        {
          "internalType": "uint256",
          "name": "_amount",
          "type": "uint256"
        }
      ],
      "name": "depositFor",
      "outputs": [],
      "stateMutability": "nonpayable",
      "type": "function"
    },
    {
      "inputs": [],
      "name": "depositToken",
      "outputs": [
        {
          "internalType": "contract IERC20",
          "name": "",
          "type": "address"
        }
      ],
      "stateMutability": "view",
      "type": "function"
    },
    {
      "inputs": [
        {
          "internalType": "uint256",
          "name": "_amount",
          "type": "uint256"
        },
        {
          "internalType": "uint256",
          "name": "_deadline",
          "type": "uint256"
        },
        {
          "internalType": "uint8",
          "name": "_v",
          "type": "uint8"
        },
        {
          "internalType": "bytes32",
          "name": "_r",
          "type": "bytes32"
        },
        {
          "internalType": "bytes32",
          "name": "_s",
          "type": "bytes32"
        }
      ],
      "name": "depositWithPermit",
      "outputs": [],
      "stateMutability": "nonpayable",
      "type": "function"
    },
    {
      "inputs": [],
      "name": "devAddr",
      "outputs": [
        {
          "internalType": "address",
          "name": "",
          "type": "address"
        }
      ],
      "stateMutability": "view",
      "type": "function"
    },
    {
      "inputs": [],
      "name": "estimateDeployedBalance",
      "outputs": [
        {
          "internalType": "uint256",
          "name": "",
          "type": "uint256"
        }
      ],
      "stateMutability": "view",
      "type": "function"
    },
    {
      "inputs": [],
      "name": "estimateReinvestReward",
      "outputs": [
        {
          "internalType": "uint256",
          "name": "",
          "type": "uint256"
        }
      ],
      "stateMutability": "view",
      "type": "function"
    },
    {
      "inputs": [
        {
          "internalType": "uint256",
          "name": "amount",
          "type": "uint256"
        }
      ],
      "name": "getDepositTokensForShares",
      "outputs": [
        {
          "internalType": "uint256",
          "name": "",
          "type": "uint256"
        }
      ],
      "stateMutability": "view",
      "type": "function"
    },
    {
      "inputs": [],
      "name": "getDomainSeparator",
      "outputs": [
        {
          "internalType": "bytes32",
          "name": "",
          "type": "bytes32"
        }
      ],
      "stateMutability": "view",
      "type": "function"
    },
    {
      "inputs": [
        {
          "internalType": "uint256",
          "name": "amount",
          "type": "uint256"
        }
      ],
      "name": "getSharesForDepositTokens",
      "outputs": [
        {
          "internalType": "uint256",
          "name": "",
          "type": "uint256"
        }
      ],
      "stateMutability": "view",
      "type": "function"
    },
    {
      "inputs": [],
      "name": "name",
      "outputs": [
        {
          "internalType": "string",
          "name": "",
          "type": "string"
        }
      ],
      "stateMutability": "view",
      "type": "function"
    },
    {
      "inputs": [
        {
          "internalType": "address",
          "name": "",
          "type": "address"
        }
      ],
      "name": "nonces",
      "outputs": [
        {
          "internalType": "uint256",
          "name": "",
          "type": "uint256"
        }
      ],
      "stateMutability": "view",
      "type": "function"
    },
    {
      "inputs": [],
      "name": "numberOfAllowedDepositors",
      "outputs": [
        {
          "internalType": "uint256",
          "name": "",
          "type": "uint256"
        }
      ],
      "stateMutability": "view",
      "type": "function"
    },
    {
      "inputs": [],
      "name": "owner",
      "outputs": [
        {
          "internalType": "address",
          "name": "",
          "type": "address"
        }
      ],
      "stateMutability": "view",
      "type": "function"
    },
    {
      "inputs": [
        {
          "internalType": "address",
          "name": "owner",
          "type": "address"
        },
        {
          "internalType": "address",
          "name": "spender",
          "type": "address"
        },
        {
          "internalType": "uint256",
          "name": "value",
          "type": "uint256"
        },
        {
          "internalType": "uint256",
          "name": "deadline",
          "type": "uint256"
        },
        {
          "internalType": "uint8",
          "name": "v",
          "type": "uint8"
        },
        {
          "internalType": "bytes32",
          "name": "r",
          "type": "bytes32"
        },
        {
          "internalType": "bytes32",
          "name": "s",
          "type": "bytes32"
        }
      ],
      "name": "permit",
      "outputs": [],
      "stateMutability": "nonpayable",
      "type": "function"
    },
    {
      "inputs": [
        {
          "internalType": "uint256",
          "name": "amount",
          "type": "uint256"
        }
      ],
      "name": "recoverAVAX",
      "outputs": [],
      "stateMutability": "nonpayable",
      "type": "function"
    },
    {
      "inputs": [
        {
          "internalType": "address",
          "name": "tokenAddress",
          "type": "address"
        },
        {
          "internalType": "uint256",
          "name": "tokenAmount",
          "type": "uint256"
        }
      ],
      "name": "recoverERC20",
      "outputs": [],
      "stateMutability": "nonpayable",
      "type": "function"
    },
    {
      "inputs": [],
      "name": "reinvest",
      "outputs": [],
      "stateMutability": "nonpayable",
      "type": "function"
    },
    {
      "inputs": [
        {
          "internalType": "address",
          "name": "depositor",
          "type": "address"
        }
      ],
      "name": "removeDepositor",
      "outputs": [],
      "stateMutability": "nonpayable",
      "type": "function"
    },
    {
      "inputs": [
        {
          "internalType": "address",
          "name": "_rewardToken",
          "type": "address"
        }
      ],
      "name": "removeReward",
      "outputs": [],
      "stateMutability": "nonpayable",
      "type": "function"
    },
    {
      "inputs": [],
      "name": "renounceOwnership",
      "outputs": [],
      "stateMutability": "nonpayable",
      "type": "function"
    },
    {
      "inputs": [
        {
          "internalType": "uint256",
          "name": "_minReturnAmountAccepted",
          "type": "uint256"
        },
        {
          "internalType": "bool",
          "name": "",
          "type": "bool"
        }
      ],
      "name": "rescueDeployedFunds",
      "outputs": [],
      "stateMutability": "nonpayable",
      "type": "function"
    },
    {
      "inputs": [
        {
          "internalType": "address",
          "name": "token",
          "type": "address"
        },
        {
          "internalType": "address",
          "name": "spender",
          "type": "address"
        }
      ],
      "name": "revokeAllowance",
      "outputs": [],
      "stateMutability": "nonpayable",
      "type": "function"
    },
    {
      "inputs": [],
      "name": "rewardCount",
      "outputs": [
        {
          "internalType": "uint256",
          "name": "",
          "type": "uint256"
        }
      ],
      "stateMutability": "view",
      "type": "function"
    },
    {
      "inputs": [
        {
          "internalType": "address",
          "name": "",
          "type": "address"
        }
      ],
      "name": "rewardSwapPairs",
      "outputs": [
        {
          "internalType": "address",
          "name": "",
          "type": "address"
        }
      ],
      "stateMutability": "view",
      "type": "function"
    },
    {
      "inputs": [],
      "name": "rewardToken",
      "outputs": [
        {
          "internalType": "contract IERC20",
          "name": "",
          "type": "address"
        }
      ],
      "stateMutability": "view",
      "type": "function"
    },
    {
      "inputs": [
        {
          "internalType": "uint256",
          "name": "",
          "type": "uint256"
        }
      ],
      "name": "supportedRewards",
      "outputs": [
        {
          "internalType": "address",
          "name": "",
          "type": "address"
        }
      ],
      "stateMutability": "view",
      "type": "function"
    },
    {
      "inputs": [],
      "name": "symbol",
      "outputs": [
        {
          "internalType": "string",
          "name": "",
          "type": "string"
        }
      ],
      "stateMutability": "view",
      "type": "function"
    },
    {
      "inputs": [],
      "name": "totalDeposits",
      "outputs": [
        {
          "internalType": "uint256",
          "name": "",
          "type": "uint256"
        }
      ],
      "stateMutability": "view",
      "type": "function"
    },
    {
      "inputs": [],
      "name": "totalSupply",
      "outputs": [
        {
          "internalType": "uint256",
          "name": "",
          "type": "uint256"
        }
      ],
      "stateMutability": "view",
      "type": "function"
    },
    {
      "inputs": [
        {
          "internalType": "address",
          "name": "dst",
          "type": "address"
        },
        {
          "internalType": "uint256",
          "name": "amount",
          "type": "uint256"
        }
      ],
      "name": "transfer",
      "outputs": [
        {
          "internalType": "bool",
          "name": "",
          "type": "bool"
        }
      ],
      "stateMutability": "nonpayable",
      "type": "function"
    },
    {
      "inputs": [
        {
          "internalType": "address",
          "name": "src",
          "type": "address"
        },
        {
          "internalType": "address",
          "name": "dst",
          "type": "address"
        },
        {
          "internalType": "uint256",
          "name": "amount",
          "type": "uint256"
        }
      ],
      "name": "transferFrom",
      "outputs": [
        {
          "internalType": "bool",
          "name": "",
          "type": "bool"
        }
      ],
      "stateMutability": "nonpayable",
      "type": "function"
    },
    {
      "inputs": [
        {
          "internalType": "address",
          "name": "newOwner",
          "type": "address"
        }
      ],
      "name": "transferOwnership",
      "outputs": [],
      "stateMutability": "nonpayable",
      "type": "function"
    },
    {
      "inputs": [
        {
          "internalType": "uint256",
          "name": "newValue",
          "type": "uint256"
        }
      ],
      "name": "updateAdminFee",
      "outputs": [],
      "stateMutability": "nonpayable",
      "type": "function"
    },
    {
      "inputs": [
        {
          "internalType": "address",
          "name": "_collector",
          "type": "address"
        }
      ],
      "name": "updateBoosterFeeCollector",
      "outputs": [],
      "stateMutability": "nonpayable",
      "type": "function"
    },
    {
      "inputs": [
        {
          "internalType": "bool",
          "name": "newValue",
          "type": "bool"
        }
      ],
      "name": "updateDepositsEnabled",
      "outputs": [],
      "stateMutability": "nonpayable",
      "type": "function"
    },
    {
      "inputs": [
        {
          "internalType": "address",
          "name": "newValue",
          "type": "address"
        }
      ],
      "name": "updateDevAddr",
      "outputs": [],
      "stateMutability": "nonpayable",
      "type": "function"
    },
    {
      "inputs": [
        {
          "internalType": "uint256",
          "name": "newValue",
          "type": "uint256"
        }
      ],
      "name": "updateDevFee",
      "outputs": [],
      "stateMutability": "nonpayable",
      "type": "function"
    },
    {
      "inputs": [
        {
          "internalType": "uint256",
          "name": "newValue",
          "type": "uint256"
        }
      ],
      "name": "updateMaxTokensToDepositWithoutReinvest",
      "outputs": [],
      "stateMutability": "nonpayable",
      "type": "function"
    },
    {
      "inputs": [
        {
          "internalType": "uint256",
          "name": "newValue",
          "type": "uint256"
        }
      ],
      "name": "updateMinTokensToReinvest",
      "outputs": [],
      "stateMutability": "nonpayable",
      "type": "function"
    },
    {
      "inputs": [
        {
          "internalType": "uint256",
          "name": "newValue",
          "type": "uint256"
        }
      ],
      "name": "updateReinvestReward",
      "outputs": [],
      "stateMutability": "nonpayable",
      "type": "function"
    },
    {
      "inputs": [],
      "name": "vectorMainStaking",
      "outputs": [
        {
          "internalType": "contract IVectorMainStakingJoe",
          "name": "",
          "type": "address"
        }
      ],
      "stateMutability": "view",
      "type": "function"
    },
    {
      "inputs": [
        {
          "internalType": "uint256",
          "name": "_amount",
          "type": "uint256"
        }
      ],
      "name": "withdraw",
      "outputs": [],
      "stateMutability": "nonpayable",
      "type": "function"
    }
  ],
  "bytecode": {
    "object": "0x60e0604052600960a0819052685969656c642059616b60b81b60c09081526200002c916000919062001467565b506040805180820190915260038082526216549560ea1b6020909201918252620000599160019162001467565b503480156200006757600080fd5b50604051620061f2380380620061f28339810160408190526200008a91620016ca565b878787878585858584848480600033600680546001600160a01b0319166001600160a01b03831690811790915560405191925090600090600080516020620061b2833981519152908290a3508051620000e39062000285565b6020810151620000f39062000315565b60408101516200010390620003cc565b5084516200011990600090602088019062001467565b50600980546001600160a01b0386166001600160a01b031991821617909155600a80548216600080516020620061d2833981519152179055600b8054909116732d580f9cf2fb2d09bc411532988f2afda4e7beff17905560005b8351811015620001e457620001cf84828151811062000196576200019662001822565b602002602001015160000151858381518110620001b757620001b762001822565b6020026020010151602001516200048360201b60201c565b80620001db816200184e565b91505062000173565b50620001f160016200060c565b620001fc82620006b6565b60408051600080825260208201527fc7606d21ac05cd309191543e409f0845c016120563783d70e4f41419dc0ef234910160405180910390a150505050506200024b84620007b360201b60201c565b505050506001600160a01b039586166080525050601780546001600160a01b031916939094169290921790925550620018df945050505050565b6006546001600160a01b03163314620002d45760405162461bcd60e51b815260206004820181905260248201526000805160206200619283398151915260448201526064015b60405180910390fd5b600c5460408051918252602082018390527f481f79ac3a523b6d6db3c5a720e190e986d1cc1b41adcdf50f9caef849901100910160405180910390a1600c55565b6006546001600160a01b03163314620003605760405162461bcd60e51b81526020600482018190526024820152600080516020620061928339815191526044820152606401620002cb565b6127106200037f601054836200122d60201b620020201790919060201c565b11156200038b57600080fd5b60115460408051918252602082018390527f2a42303d002f0ba6cfe8259c91d4684443fb0b3de286ba74991175d651726131910160405180910390a1601155565b6006546001600160a01b03163314620004175760405162461bcd60e51b81526020600482018190526024820152600080516020620061928339815191526044820152606401620002cb565b61271062000436601154836200122d60201b620020201790919060201c565b11156200044257600080fd5b60105460408051918252602082018390527fe7f97d51d307dc44045597c9978bec0f842e6bb40d19b9444084cfa30d9ed4f2910160405180910390a1601055565b600a546001600160a01b038381169116146200053c57620004c68183600a60009054906101000a90046001600160a01b03166200124260201b6200202c1760201c565b6200053c576040805162461bcd60e51b81526020600482015260248101919091527f5661726961626c655265776172647353747261746567793a3a5377617020706160448201527f697220646f6573206e6f7420636f6e7461696e2072657761726420746f6b656e6064820152608401620002cb565b6001600160a01b038083166000818152601260209081526040822080549486166001600160a01b03199586161790556013805460018181018355919093527f66de8ffda797e3de9c05e8fc57b3bf0ec28a930d40b0d285d93c06501cf6a0909092018054909416909217909255601454620005c2929091620020206200122d821b17901c565b601455604080516001600160a01b038085168252831660208201527f916e172c080569186aa7ea048268267257cf7cc49505908863f747bca8620f80910160405180910390a15050565b6006546001600160a01b03163314620006575760405162461bcd60e51b81526020600482018190526024820152600080516020620061928339815191526044820152606401620002cb565b600e5481151560ff9091161515036200066f57600080fd5b600e805460ff19168215159081179091556040519081527f7b014ed3854e7f5cb0218d58b3c6ae7d53a68bb0af2f67bfb029ea42c38a7e859060200160405180910390a150565b6006546001600160a01b03163314620007015760405162461bcd60e51b81526020600482018190526024820152600080516020620061928339815191526044820152606401620002cb565b6001600160a01b038116620007685760405162461bcd60e51b815260206004820152602660248201527f4f776e61626c653a206e6577206f776e657220697320746865207a65726f206160448201526564647265737360d01b6064820152608401620002cb565b6006546040516001600160a01b03808416921690600080516020620061b283398151915290600090a3600680546001600160a01b0319166001600160a01b0392909216919091179055565b600960009054906101000a90046001600160a01b03166001600160a01b0316630dfe16816040518163ffffffff1660e01b8152600401602060405180830381865afa15801562000807573d6000803e3d6000fd5b505050506040513d601f19601f820116820180604052508101906200082d91906200186a565b6001600160a01b0316600080516020620061d28339815191526001600160a01b031614158015620008f85750600960009054906101000a90046001600160a01b03166001600160a01b031663d21220a76040518163ffffffff1660e01b8152600401602060405180830381865afa158015620008ad573d6000803e3d6000fd5b505050506040513d601f19601f82011682018060405250810190620008d391906200186a565b6001600160a01b0316600080516020620061d28339815191526001600160a01b031614155b15620010b15780516001600160a01b0316620009695760405162461bcd60e51b815260206004820152602960248201527f5377617020706169722030206973206e656365737361727920627574206e6f74604482015268081cdd5c1c1b1a595960ba1b6064820152608401620002cb565b60208101516001600160a01b0316620009d75760405162461bcd60e51b815260206004820152602960248201527f5377617020706169722031206973206e656365737361727920627574206e6f74604482015268081cdd5c1c1b1a595960ba1b6064820152608401620002cb565b8051601580546001600160a01b03199081166001600160a01b0393841690811790925560208085015160168054909316941693909317905560408051630dfe168160e01b81529051600080516020620061d283398151915293630dfe168192600480820193918290030181865afa15801562000a57573d6000803e3d6000fd5b505050506040513d601f19601f8201168201806040525081019062000a7d91906200186a565b6001600160a01b0316148062000b1857506015546040805163d21220a760e01b81529051600080516020620061d2833981519152926001600160a01b03169163d21220a79160048083019260209291908290030181865afa15801562000ae7573d6000803e3d6000fd5b505050506040513d601f19601f8201168201806040525081019062000b0d91906200186a565b6001600160a01b0316145b62000b9a5760405162461bcd60e51b815260206004820152604560248201527f53776170207061697220737570706c69656420646f6573206e6f74206861766560448201527f207468652072657761726420746f6b656e206173206f6e65206f662069742773606482015264103830b4b960d91b608482015260a401620002cb565b600960009054906101000a90046001600160a01b03166001600160a01b0316630dfe16816040518163ffffffff1660e01b8152600401602060405180830381865afa15801562000bee573d6000803e3d6000fd5b505050506040513d601f19601f8201168201806040525081019062000c1491906200186a565b6001600160a01b0316601560009054906101000a90046001600160a01b03166001600160a01b0316630dfe16816040518163ffffffff1660e01b8152600401602060405180830381865afa15801562000c71573d6000803e3d6000fd5b505050506040513d601f19601f8201168201806040525081019062000c9791906200186a565b6001600160a01b0316148062000db05750600960009054906101000a90046001600160a01b03166001600160a01b0316630dfe16816040518163ffffffff1660e01b8152600401602060405180830381865afa15801562000cfc573d6000803e3d6000fd5b505050506040513d601f19601f8201168201806040525081019062000d2291906200186a565b6001600160a01b0316601560009054906101000a90046001600160a01b03166001600160a01b031663d21220a76040518163ffffffff1660e01b8152600401602060405180830381865afa15801562000d7f573d6000803e3d6000fd5b505050506040513d601f19601f8201168201806040525081019062000da591906200186a565b6001600160a01b0316145b62000e245760405162461bcd60e51b815260206004820152603860248201527f537761702070616972203020737570706c69656420646f6573206e6f74206d6160448201527f74636820746865207061697220696e207175657374696f6e00000000000000006064820152608401620002cb565b600960009054906101000a90046001600160a01b03166001600160a01b031663d21220a76040518163ffffffff1660e01b8152600401602060405180830381865afa15801562000e78573d6000803e3d6000fd5b505050506040513d601f19601f8201168201806040525081019062000e9e91906200186a565b6001600160a01b0316601660009054906101000a90046001600160a01b03166001600160a01b0316630dfe16816040518163ffffffff1660e01b8152600401602060405180830381865afa15801562000efb573d6000803e3d6000fd5b505050506040513d601f19601f8201168201806040525081019062000f2191906200186a565b6001600160a01b031614806200103a5750600960009054906101000a90046001600160a01b03166001600160a01b031663d21220a76040518163ffffffff1660e01b8152600401602060405180830381865afa15801562000f86573d6000803e3d6000fd5b505050506040513d601f19601f8201168201806040525081019062000fac91906200186a565b6001600160a01b0316601660009054906101000a90046001600160a01b03166001600160a01b031663d21220a76040518163ffffffff1660e01b8152600401602060405180830381865afa15801562001009573d6000803e3d6000fd5b505050506040513d601f19601f820116820180604052508101906200102f91906200186a565b6001600160a01b0316145b620010ae5760405162461bcd60e51b815260206004820152603860248201527f537761702070616972203120737570706c69656420646f6573206e6f74206d6160448201527f74636820746865207061697220696e207175657374696f6e00000000000000006064820152608401620002cb565b50565b600960009054906101000a90046001600160a01b03166001600160a01b0316630dfe16816040518163ffffffff1660e01b8152600401602060405180830381865afa15801562001105573d6000803e3d6000fd5b505050506040513d601f19601f820116820180604052508101906200112b91906200186a565b6001600160a01b0316600080516020620061d2833981519152036200116f57600954601680546001600160a01b0319166001600160a01b0390921691909117905550565b600960009054906101000a90046001600160a01b03166001600160a01b031663d21220a76040518163ffffffff1660e01b8152600401602060405180830381865afa158015620011c3573d6000803e3d6000fd5b505050506040513d601f19601f82011682018060405250810190620011e991906200186a565b6001600160a01b0316600080516020620061d283398151915203620010ae57600954601580546001600160a01b0319166001600160a01b0390921691909117905550565b60006200123b828462001888565b9392505050565b6000836001600160a01b0316630dfe16816040518163ffffffff1660e01b8152600401602060405180830381865afa15801562001283573d6000803e3d6000fd5b505050506040513d601f19601f82011682018060405250810190620012a991906200186a565b6001600160a01b0316836001600160a01b031614806200133e5750836001600160a01b031663d21220a76040518163ffffffff1660e01b8152600401602060405180830381865afa15801562001303573d6000803e3d6000fd5b505050506040513d601f19601f820116820180604052508101906200132991906200186a565b6001600160a01b0316836001600160a01b0316145b8015620014405750836001600160a01b0316630dfe16816040518163ffffffff1660e01b8152600401602060405180830381865afa15801562001385573d6000803e3d6000fd5b505050506040513d601f19601f82011682018060405250810190620013ab91906200186a565b6001600160a01b0316826001600160a01b03161480620014405750836001600160a01b031663d21220a76040518163ffffffff1660e01b8152600401602060405180830381865afa15801562001405573d6000803e3d6000fd5b505050506040513d601f19601f820116820180604052508101906200142b91906200186a565b6001600160a01b0316826001600160a01b0316145b80156200145f5750816001600160a01b0316836001600160a01b031614155b949350505050565b8280546200147590620018a3565b90600052602060002090601f016020900481019282620014995760008555620014e4565b82601f10620014b457805160ff1916838001178555620014e4565b82800160010185558215620014e4579182015b82811115620014e4578251825591602001919060010190620014c7565b50620014f2929150620014f6565b5090565b5b80821115620014f25760008155600101620014f7565b634e487b7160e01b600052604160045260246000fd5b604051601f8201601f191681016001600160401b03811182821017156200154e576200154e6200150d565b604052919050565b80516001600160a01b03811681146200156e57600080fd5b919050565b6000604082840312156200158657600080fd5b604080519081016001600160401b0381118282101715620015ab57620015ab6200150d565b604052905080620015bc8362001556565b8152620015cc6020840162001556565b60208201525092915050565b600082601f830112620015ea57600080fd5b815160206001600160401b038211156200160857620016086200150d565b62001618818360051b0162001523565b82815260069290921b840181019181810190868411156200163857600080fd5b8286015b84811015620016605762001651888262001573565b8352918301916040016200163c565b509695505050505050565b6000606082840312156200167e57600080fd5b604051606081016001600160401b0381118282101715620016a357620016a36200150d565b80604052508091508251815260208301516020820152604083015160408201525092915050565b600080600080600080600080610160898b031215620016e857600080fd5b88516001600160401b03808211156200170057600080fd5b818b0191508b601f8301126200171557600080fd5b8151818111156200172a576200172a6200150d565b602062001740601f8301601f1916820162001523565b8281528e828487010111156200175557600080fd5b60005b838110156200177557858101830151828201840152820162001758565b83811115620017875760008385840101525b509b50620017978d820162001556565b9a505050620017aa8c60408d0162001573565b975060808b0151915080821115620017c157600080fd5b50620017d08b828c01620015d8565b955050620017e160a08a0162001556565b9350620017f160c08a0162001556565b92506200180160e08a0162001556565b9150620018138a6101008b016200166b565b90509295985092959890939650565b634e487b7160e01b600052603260045260246000fd5b634e487b7160e01b600052601160045260246000fd5b60006001820162001863576200186362001838565b5060010190565b6000602082840312156200187d57600080fd5b6200123b8262001556565b600082198211156200189e576200189e62001838565b500190565b600181811c90821680620018b857607f821691505b602082108103620018d957634e487b7160e01b600052602260045260246000fd5b50919050565b608051614890620019026000396000818161061e0152612ac301526148906000f3fe608060405234801561001057600080fd5b50600436106103c55760003560e01c806381837230116101ff578063b9e57b801161011a578063dd8ce4d6116100ad578063ed24911d1161007c578063ed24911d14610887578063f2fde38b1461088f578063f7c618c1146108a2578063fdb5a03e146108b557600080fd5b8063dd8ce4d61461083b578063e21ac8251461084e578063e75ab04514610861578063eab89a5a1461087457600080fd5b8063cff1b6ef116100e9578063cff1b6ef146107c9578063d505accf146107dc578063da09c72c146107ef578063dd62ed3e1461080257600080fd5b8063b9e57b801461079d578063bd079f55146107a5578063c4b24a46146107ae578063c89039c5146107b657600080fd5b80639e4e731811610192578063a9059cbb11610161578063a9059cbb14610757578063ac0d31ff1461076a578063b52a321f1461077d578063b6b55f251461078a57600080fd5b80639e4e7318146106e1578063a4d5e67c14610708578063a5534e711461071b578063a8ae2b7c1461074457600080fd5b80638da5cb5b116101ce5780638da5cb5b146106a25780639291d563146106b357806395d89b41146106c657806399729ec1146106ce57600080fd5b806381837230146106605780638980f11f146106735780638aff733d146106865780638b73e6061461068f57600080fd5b806340b47e1a116102ef57806370a08231116102825780637ae26773116102515780637ae26773146105fe5780637d882097146106115780637e08c185146106195780637ecebe001461064057600080fd5b806370a08231146105bb578063715018a6146105e4578063789139bc146105ec57806379085425146105f557600080fd5b80634e77ace5116102be5780634e77ace5146105795780634ebb79161461058c5780635ea682ea1461059f5780636c8b4b52146105a857600080fd5b806340b47e1a1461051d578063483c2ef0146105305780634a970be7146105535780634bebd1e71461056657600080fd5b806320606b70116103675780632f4f21e2116103365780632f4f21e2146104c057806330adf81f146104d3578063313ce567146104fa5780633bdc6e721461051457600080fd5b806320606b701461047157806323b872dd14610498578063247d284b146104555780632e1a7d4d146104ab57600080fd5b80630f23475d116103a35780630f23475d146104225780630fccc4001461042a578063110560351461045557806318160ddd1461046857600080fd5b806306fdde03146103ca57806307677111146103e8578063095ea7b3146103ff575b600080fd5b6103d26108bd565b6040516103df91906141b0565b60405180910390f35b6103f1600f5481565b6040519081526020016103df565b61041261040d3660046141d8565b61094b565b60405190151581526020016103df565b6103f1610961565b60175461043d906001600160a01b031681565b6040516001600160a01b0390911681526020016103df565b6103f1610463366004614204565b61098c565b6103f160025481565b6103f17f8b73c3c69bb8fe3d512ecc4cf759cc79239f7b179b0ffacaa9a75d522b39400f81565b6104126104a636600461421d565b61099d565b6104be6104b9366004614204565b610a81565b005b6104be6104ce3660046141d8565b610b7c565b6103f17f6e71edae12b1b97f4d1f60370fef10105fa2faae0126114a169c64845d6126c981565b610502601281565b60405160ff90911681526020016103df565b6103f160075481565b6104be61052b36600461425e565b610b8a565b61041261053e366004614297565b60086020526000908152604090205460ff1681565b6104be6105613660046142ca565b610bbe565b6104be610574366004614297565b610c57565b6104be61058736600461431f565b610d56565b6104be61059a366004614204565b610ddf565b6103f160115481565b6104be6105b6366004614297565b610e76565b6103f16105c9366004614297565b6001600160a01b031660009081526004602052604090205490565b6104be610ec2565b6103f1600d5481565b6103f160145481565b6104be61060c36600461425e565b610f36565b6103f1610fdb565b61043d7f000000000000000000000000000000000000000000000000000000000000000081565b6103f161064e366004614297565b60056020526000908152604090205481565b6104be61066e366004614204565b611054565b6104be6106813660046141d8565b6110bf565b6103f160105481565b6104be61069d366004614297565b6111ad565b6006546001600160a01b031661043d565b6104be6106c1366004614297565b61132e565b6103d26113c1565b6104be6106dc366004614204565b6113ce565b6103f17fc89efdaa54c0f20c7adf612882df0950f5a951637e0307cdcb4c672f298b8bc681565b6104be610716366004614297565b61145c565b61043d610729366004614297565b6012602052600090815260409020546001600160a01b031681565b6104be610752366004614204565b611662565b6104126107653660046141d8565b6116f0565b6104be61077836600461433c565b6116fd565b600e546104129060ff1681565b6104be610798366004614204565b611905565b6103f1611912565b6103f1600c5481565b6103f1611957565b60095461043d906001600160a01b031681565b6104be6107d7366004614204565b611bc5565b6104be6107ea366004614361565b611c3b565b600b5461043d906001600160a01b031681565b6103f161081036600461425e565b6001600160a01b03918216600090815260036020908152604080832093909416825291909152205490565b6103f1610849366004614204565b611d40565b6104be61085c366004614204565b611d7a565b61043d61086f366004614204565b611de5565b6103f1610882366004614204565b611e0f565b6103f1611e43565b6104be61089d366004614297565b611ee3565b600a5461043d906001600160a01b031681565b6104be611fce565b600080546108ca906143cf565b80601f01602080910402602001604051908101604052809291908181526020018280546108f6906143cf565b80156109435780601f1061091857610100808354040283529160200191610943565b820191906000526020600020905b81548152906001019060200180831161092657829003601f168201915b505050505081565b6000610958338484612241565b50600192915050565b60008061096c610fdb565b905060006109798261234f565b90506109858282612362565b9250505090565b60006109978261234f565b92915050565b6001600160a01b0383166000818152600360209081526040808320338085529252822054919290919082148015906109d757506000198114155b15610a68576000610a03856040518060600160405280602f81526020016147d7602f913984919061236e565b6001600160a01b038881166000818152600360209081526040808320948916808452948252918290208590559051848152939450919290917f8c5be1e5ebec7d5bd14f71427d1e84f3dd0314c0f7b2291e5b200ac8c7c3b925910160405180910390a3505b610a7386868661239a565b6001925050505b9392505050565b6000610a8c82611e0f565b905060008111610afc5760405162461bcd60e51b815260206004820152603060248201527f5661726961626c655265776172647353747261746567793a3a5769746864726160448201526f7720616d6f756e7420746f6f206c6f7760801b60648201526084015b60405180910390fd5b6000610b07826124cd565b90506000610b148361234f565b9050610b3733610b248484612362565b6009546001600160a01b03169190612622565b610b41338561267d565b60405183815233907f884edad9ce6fa2440d8a54cc123490eb96d2768479d49ff9c7366125a94243649060200160405180910390a250505050565b610b868282612753565b5050565b600b546001600160a01b03163314610bb45760405162461bcd60e51b8152600401610af390614409565b610b868282612941565b60095460405163d505accf60e01b8152336004820152306024820152604481018790526064810186905260ff8516608482015260a4810184905260c481018390526001600160a01b039091169063d505accf9060e401600060405180830381600087803b158015610c2e57600080fd5b505af1158015610c42573d6000803e3d6000fd5b50505050610c503386612753565b5050505050565b6006546001600160a01b03163314610c815760405162461bcd60e51b8152600401610af390614437565b6001600160a01b03811660009081526008602052604090205460ff1615610cea5760405162461bcd60e51b815260206004820152601c60248201527f5065726d697373696f6e65643a3a616c6c6f774465706f7369746f72000000006044820152606401610af3565b6001600160a01b0381166000908152600860205260409020805460ff19166001908117909155600754610d1c91612020565b6007556040516001600160a01b038216907fc0a1035c16faf8d1304056d92c00edf028f87e62b8235a938f00af9e3c0312c590600090a250565b6006546001600160a01b03163314610d805760405162461bcd60e51b8152600401610af390614437565b600e5481151560ff909116151503610d9757600080fd5b600e805460ff19168215159081179091556040519081527f7b014ed3854e7f5cb0218d58b3c6ae7d53a68bb0af2f67bfb029ea42c38a7e85906020015b60405180910390a150565b6006546001600160a01b03163314610e095760405162461bcd60e51b8152600401610af390614437565b60008111610e1657600080fd5b604051339082156108fc029083906000818181858888f19350505050158015610e43573d6000803e3d6000fd5b507f8c1256b8896378cd5044f80c202f9772b9d77dc85c8a6eb51967210b09bfaa28600082604051610dd492919061446c565b6006546001600160a01b03163314610ea05760405162461bcd60e51b8152600401610af390614437565b601780546001600160a01b0319166001600160a01b0392909216919091179055565b6006546001600160a01b03163314610eec5760405162461bcd60e51b8152600401610af390614437565b6006546040516000916001600160a01b0316907f8be0079c531659141344cd1fd0a4f28419497f9722a3daafe3b4186f6b6457e0908390a3600680546001600160a01b0319169055565b6006546001600160a01b03163314610f605760405162461bcd60e51b8152600401610af390614437565b60405163095ea7b360e01b81526001600160a01b0383169063095ea7b390610f8f90849060009060040161446c565b6020604051808303816000875af1158015610fae573d6000803e3d6000fd5b505050506040513d601f19601f82011682018060405250810190610fd29190614485565b610b8657600080fd5b6000610fe5612a9d565b6040516370a0823160e01b81523060048201526001600160a01b0391909116906370a0823190602401602060405180830381865afa15801561102b573d6000803e3d6000fd5b505050506040513d601f19601f8201168201806040525081019061104f91906144a2565b905090565b6006546001600160a01b0316331461107e5760405162461bcd60e51b8152600401610af390614437565b600c5460408051918252602082018390527f481f79ac3a523b6d6db3c5a720e190e986d1cc1b41adcdf50f9caef849901100910160405180910390a1600c55565b6006546001600160a01b031633146110e95760405162461bcd60e51b8152600401610af390614437565b600081116110f657600080fd5b60405163a9059cbb60e01b81526001600160a01b0383169063a9059cbb90611124903390859060040161446c565b6020604051808303816000875af1158015611143573d6000803e3d6000fd5b505050506040513d601f19601f820116820180604052508101906111679190614485565b61117057600080fd5b7f8c1256b8896378cd5044f80c202f9772b9d77dc85c8a6eb51967210b09bfaa2882826040516111a192919061446c565b60405180910390a15050565b6006546001600160a01b031633146111d75760405162461bcd60e51b8152600401610af390614437565b6000600754116112465760405162461bcd60e51b815260206004820152603460248201527f5065726d697373696f6e65643a3a72656d6f76654465706f7369746f722c206e6044820152736f20616c6c6f776564206465706f7369746f727360601b6064820152608401610af3565b6001600160a01b03811660009081526008602052604090205460ff1615156001146112c65760405162461bcd60e51b815260206004820152602a60248201527f5065726d697373696f6e65643a3a72656d6f76654465706f7369746f722c206e6044820152691bdd08185b1b1bddd95960b21b6064820152608401610af3565b6001600160a01b0381166000908152600860205260409020805460ff191690556007546112f4906001612362565b6007556040516001600160a01b038216907f0e86f6608b536e5339a25b65ff531f5ea91e1313d056ecd4752b35cbd16137d490600090a250565b600b546001600160a01b031633146113585760405162461bcd60e51b8152600401610af390614409565b600b54604080516001600160a01b03928316815291831660208301527fa8e91499ed37682f43cffb045fcc7d379a91e8c9a14e6321877ee34dee564c00910160405180910390a1600b80546001600160a01b0319166001600160a01b0392909216919091179055565b600180546108ca906143cf565b6006546001600160a01b031633146113f85760405162461bcd60e51b8152600401610af390614437565b6127106114106010548361202090919063ffffffff16565b111561141b57600080fd5b60115460408051918252602082018390527f2a42303d002f0ba6cfe8259c91d4684443fb0b3de286ba74991175d651726131910160405180910390a1601155565b600b546001600160a01b031633146114865760405162461bcd60e51b8152600401610af390614409565b6001600160a01b038116600090815260126020526040812080546001600160a01b0319169055805b60135481101561157a57601381815481106114cb576114cb6144bb565b6000918252602090912001546001600160a01b03908116908416036115685760138054600193506114fd9084906144e7565b8154811061150d5761150d6144bb565b600091825260209091200154601380546001600160a01b039092169183908110611539576115396144bb565b9060005260206000200160006101000a8154816001600160a01b0302191690836001600160a01b031602179055505b80611572816144fe565b9150506114ae565b50806115e55760405162461bcd60e51b815260206004820152603460248201527f5661726961626c655265776172647353747261746567793a3a52657761726420604482015273746f2064656c657465206e6f7420666f756e642160601b6064820152608401610af3565b60138054806115f6576115f6614517565b600082815260209020810160001990810180546001600160a01b0319169055019055601454611626906001612362565b6014556040516001600160a01b03831681527f963b7c735475147a62c589c2d7cb8ec4b0a6b7af4f97373d79ebfa42ab8aa7dc906020016111a1565b6006546001600160a01b0316331461168c5760405162461bcd60e51b8152600401610af390614437565b6127106116a46011548361202090919063ffffffff16565b11156116af57600080fd5b60105460408051918252602082018390527fe7f97d51d307dc44045597c9978bec0f842e6bb40d19b9444084cfa30d9ed4f2910160405180910390a1601055565b600061095833848461239a565b6006546001600160a01b031633146117275760405162461bcd60e51b8152600401610af390614437565b6009546040516370a0823160e01b81523060048201526000916001600160a01b0316906370a0823190602401602060405180830381865afa158015611770573d6000803e3d6000fd5b505050506040513d601f19601f8201168201806040525081019061179491906144a2565b905061179e612b3b565b6009546040516370a0823160e01b81523060048201526000916001600160a01b0316906370a0823190602401602060405180830381865afa1580156117e7573d6000803e3d6000fd5b505050506040513d601f19601f8201168201806040525081019061180b91906144a2565b9050836118188284612362565b10156118a25760405162461bcd60e51b815260206004820152604d60248201527f5661726961626c655265776172647353747261746567793a3a456d657267656e60448201527f6379207769746864726177206d696e696d756d2072657475726e20616d6f756e60648201526c1d081b9bdd081c995858da1959609a1b608482015260a401610af3565b7fc7606d21ac05cd309191543e409f0845c016120563783d70e4f41419dc0ef2346118cb610fdb565b6002546040805192835260208301919091520160405180910390a1600e5460ff1615156001036118ff576118ff6000610d56565b50505050565b61190f3382612753565b50565b60008061191d611957565b9050600c54811061194f5761194961271061194360105484612c2090919063ffffffff16565b90612c2c565b91505090565b600091505090565b600080611962612c38565b6040516370a0823160e01b815230600482015290915060009073b31f66aa3c1e785363f0875a1b74e27b85fd66c7906370a0823190602401602060405180830381865afa1580156119b7573d6000803e3d6000fd5b505050506040513d601f19601f820116820180604052508101906119db91906144a2565b90506119e78147612020565b5060005b8251811015611bbe576000838281518110611a0857611a086144bb565b602002602001015160000151905073b31f66aa3c1e785363f0875a1b74e27b85fd66c76001600160a01b0316816001600160a01b031603611a7a57611a73848381518110611a5857611a586144bb565b6020026020010151602001518461202090919063ffffffff16565b9250611bab565b6040516370a0823160e01b81523060048201526000906001600160a01b038316906370a0823190602401602060405180830381865afa158015611ac1573d6000803e3d6000fd5b505050506040513d601f19601f82011682018060405250810190611ae591906144a2565b90506000611b19868581518110611afe57611afe6144bb565b6020026020010151602001518361202090919063ffffffff16565b9050600060126000888781518110611b3357611b336144bb565b602090810291909101810151516001600160a01b03908116835290820192909252604001600020541690508115801590611b7557506001600160a01b03811615155b15611ba757611ba4611b9d838673b31f66aa3c1e785363f0875a1b74e27b85fd66c785612fa6565b8790612020565b95505b5050505b5080611bb6816144fe565b9150506119eb565b5092915050565b6006546001600160a01b03163314611bef5760405162461bcd60e51b8152600401610af390614437565b8015611bfa57600080fd5b600f5460408051918252602082018390527f3cc372f330f95ac9540626dc8a25f5bf21ba607215a5d58304cb804d446f104a910160405180910390a1600f55565b42841015611c7d5760405162461bcd60e51b815260206004820152600f60248201526e1c195c9b5a5d0e8e995e1c1a5c9959608a1b6044820152606401610af3565b6001600160a01b038716600090815260056020526040812080547f6e71edae12b1b97f4d1f60370fef10105fa2faae0126114a169c64845d6126c9918a918a918a919086611cca836144fe565b909155506040805160208101969096526001600160a01b0394851690860152929091166060840152608083015260a082015260c0810186905260e001604051602081830303815290604052805190602001209050611d2b8882868686613064565b611d36888888612241565b5050505050505050565b6000611d56611d4d610fdb565b60025490612c20565b600003611d61575090565b610997611d6c610fdb565b600254611943908590612c20565b6006546001600160a01b03163314611da45760405162461bcd60e51b8152600401610af390614437565b600d5460408051918252602082018390527fa5dae50539d56dfe1fb5273d883b0c39bc76750a25d036fc5fbd09ad8fd5f57f910160405180910390a1600d55565b60138181548110611df557600080fd5b6000918252602090912001546001600160a01b0316905081565b6000611e1c611d4d610fdb565b600003611e2b57506000919050565b610997600254611943611e3c610fdb565b8590612c20565b60007f8b73c3c69bb8fe3d512ecc4cf759cc79239f7b179b0ffacaa9a75d522b39400f60001b6000604051611e78919061452d565b6040519081900390207fc89efdaa54c0f20c7adf612882df0950f5a951637e0307cdcb4c672f298b8bc646604080516020810195909552840192909252606083015260808201523060a082015260c00160405160208183030381529060405280519060200120905090565b6006546001600160a01b03163314611f0d5760405162461bcd60e51b8152600401610af390614437565b6001600160a01b038116611f725760405162461bcd60e51b815260206004820152602660248201527f4f776e61626c653a206e6577206f776e657220697320746865207a65726f206160448201526564647265737360d01b6064820152608401610af3565b6006546040516001600160a01b038084169216907f8be0079c531659141344cd1fd0a4f28419497f9722a3daafe3b4186f6b6457e090600090a3600680546001600160a01b0319166001600160a01b0392909216919091179055565b3233146120145760405162461bcd60e51b815260206004820152601460248201527359616b53747261746567793a3a6f6e6c79454f4160601b6044820152606401610af3565b61201e6000613190565b565b6000610a7a82846145c8565b6000836001600160a01b0316630dfe16816040518163ffffffff1660e01b8152600401602060405180830381865afa15801561206c573d6000803e3d6000fd5b505050506040513d601f19601f8201168201806040525081019061209091906145e0565b6001600160a01b0316836001600160a01b031614806121215750836001600160a01b031663d21220a76040518163ffffffff1660e01b8152600401602060405180830381865afa1580156120e8573d6000803e3d6000fd5b505050506040513d601f19601f8201168201806040525081019061210c91906145e0565b6001600160a01b0316836001600160a01b0316145b801561221b5750836001600160a01b0316630dfe16816040518163ffffffff1660e01b8152600401602060405180830381865afa158015612166573d6000803e3d6000fd5b505050506040513d601f19601f8201168201806040525081019061218a91906145e0565b6001600160a01b0316826001600160a01b0316148061221b5750836001600160a01b031663d21220a76040518163ffffffff1660e01b8152600401602060405180830381865afa1580156121e2573d6000803e3d6000fd5b505050506040513d601f19601f8201168201806040525081019061220691906145e0565b6001600160a01b0316826001600160a01b0316145b80156122395750816001600160a01b0316836001600160a01b031614155b949350505050565b6001600160a01b0383166122975760405162461bcd60e51b815260206004820152601c60248201527f5f617070726f76653a3a6f776e6572207a65726f2061646472657373000000006044820152606401610af3565b6001600160a01b0382166122ed5760405162461bcd60e51b815260206004820152601e60248201527f5f617070726f76653a3a7370656e646572207a65726f206164647265737300006044820152606401610af3565b6001600160a01b0383811660008181526003602090815260408083209487168084529482529182902085905590518481527f8c5be1e5ebec7d5bd14f71427d1e84f3dd0314c0f7b2291e5b200ac8c7c3b92591015b60405180910390a3505050565b600080610a7a6127106119438584612c20565b6000610a7a82846144e7565b600081848411156123925760405162461bcd60e51b8152600401610af391906141b0565b505050900390565b6001600160a01b03821661240d5760405162461bcd60e51b815260206004820152603460248201527f5f7472616e73666572546f6b656e733a2063616e6e6f74207472616e7366657260448201527320746f20746865207a65726f206164647265737360601b6064820152608401610af3565b61244a816040518060600160405280602e815260200161482d602e91396001600160a01b038616600090815260046020526040902054919061236e565b6001600160a01b0380851660009081526004602052604080822093909355908416815220546124799082612020565b6001600160a01b0380841660008181526004602052604090819020939093559151908516907fddf252ad1be2c89b69c2b068fc378daa952ba7f163c4a11628f55a4df523b3ef906123429085815260200190565b6009546040516370a0823160e01b815230600482015260009182916001600160a01b03909116906370a0823190602401602060405180830381865afa15801561251a573d6000803e3d6000fd5b505050506040513d601f19601f8201168201806040525081019061253e91906144a2565b9050612548612a9d565b6001600160a01b0316632e1a7d4d846040518263ffffffff1660e01b815260040161257591815260200190565b600060405180830381600087803b15801561258f57600080fd5b505af11580156125a3573d6000803e3d6000fd5b50506009546040516370a0823160e01b8152306004820152600093506001600160a01b0390911691506370a0823190602401602060405180830381865afa1580156125f2573d6000803e3d6000fd5b505050506040513d601f19601f8201168201806040525081019061261691906144a2565b90506122398183612362565b6126788363a9059cbb60e01b848460405160240161264192919061446c565b60408051601f198184030181529190526020810180516001600160e01b03166001600160e01b031990931692909217909152613306565b505050565b6126ba81604051806060016040528060278152602001614806602791396001600160a01b038516600090815260046020526040902054919061236e565b60046000846001600160a01b03166001600160a01b031681526020019081526020016000208190555061270a816040518060600160405280602781526020016147b060279139600254919061236e565b6002556040518181526000906001600160a01b038416907fddf252ad1be2c89b69c2b068fc378daa952ba7f163c4a11628f55a4df523b3ef906020015b60405180910390a35050565b600e5460ff1615156001146127bd5760405162461bcd60e51b815260206004820152602a60248201527f5661726961626c655265776172647353747261746567793a3a4465706f7369746044820152691cc8191a5cd8589b195960b21b6064820152608401610af3565b600d54156127e75760006127cf611957565b9050600d548111156127e5576127e56001613190565b505b6009546040516323b872dd60e01b8152336004820152306024820152604481018390526001600160a01b03909116906323b872dd906064016020604051808303816000875af115801561283e573d6000803e3d6000fd5b505050506040513d601f19601f820116820180604052508101906128629190614485565b6128cd5760405162461bcd60e51b815260206004820152603660248201527f5661726961626c655265776172647353747261746567793a3a4465706f736974604482015275081d1bdad95b881d1c985b9cd9995c8819985a5b195960521b6064820152608401610af3565b60006128d88261234f565b90506128f0836128eb6108498585612362565b6133d8565b6128f98261345c565b826001600160a01b03167fe1fffcc4923d04b559f4d29a8bfc6cda04eb5b0d3c460751c2402c5c5cc9109c8360405161293491815260200190565b60405180910390a2505050565b600a546001600160a01b038381169116146129e357600a5461296f90829084906001600160a01b031661202c565b6129e3576040805162461bcd60e51b81526020600482015260248101919091527f5661726961626c655265776172647353747261746567793a3a5377617020706160448201527f697220646f6573206e6f7420636f6e7461696e2072657761726420746f6b656e6064820152608401610af3565b6001600160a01b03808316600081815260126020526040812080549385166001600160a01b03199485161790556013805460018181018355919092527f66de8ffda797e3de9c05e8fc57b3bf0ec28a930d40b0d285d93c06501cf6a0909091018054909316909117909155601454612a5a91612020565b601455604080516001600160a01b038085168252831660208201527f916e172c080569186aa7ea048268267257cf7cc49505908863f747bca8620f8091016111a1565b60095460405162d7f52760e31b81526001600160a01b03918216600482015260009182917f0000000000000000000000000000000000000000000000000000000000000000909116906306bfa9389060240160c060405180830381865afa158015612b0c573d6000803e3d6000fd5b505050506040513d601f19601f82011682018060405250810190612b3091906145fd565b979650505050505050565b6000612b45612a9d565b60095460405163095ea7b360e01b81529192506001600160a01b03169063095ea7b390612b7990849060009060040161446c565b6020604051808303816000875af1158015612b98573d6000803e3d6000fd5b505050506040513d601f19601f82011682018060405250810190612bbc9190614485565b50806001600160a01b0316632e1a7d4d612bd4610fdb565b6040518263ffffffff1660e01b8152600401612bf291815260200190565b600060405180830381600087803b158015612c0c57600080fd5b505af1158015610c50573d6000803e3d6000fd5b6000610a7a828461467a565b6000610a7a8284614699565b60606000612c44612a9d565b60145490915060008167ffffffffffffffff811115612c6557612c656146bb565b604051908082528060200260200182016040528015612caa57816020015b6040805180820190915260008082526020820152815260200190600190039081612c835790505b506040516246613160e11b8152736e84a6216ea6dacc71ee8e6b0a5b7322eebc0fdd600482015290915060009081906001600160a01b03861690628cc262906024016040805180830381865afa158015612d08573d6000803e3d6000fd5b505050506040513d601f19601f82011682018060405250810190612d2c91906146d1565b601754604051633cb6bbcb60e21b81529294509092506000916001600160a01b039091169063f2daef2c90612d67903090869060040161446c565b602060405180830381865afa158015612d84573d6000803e3d6000fd5b505050506040513d601f19601f82011682018060405250810190612da891906144a2565b60408051808201909152736e84a6216ea6dacc71ee8e6b0a5b7322eebc0fdd815290915060208101612dda8484612362565b81525084600081518110612df057612df06144bb565b60200260200101819052506040518060400160405280735817d4f0b62a59b17f75207da1848c2ce75e7af46001600160a01b031681526020018481525084600181518110612e4057612e406144bb565b6020908102919091010152600260005b86811015612f9957600060138281548110612e6d57612e6d6144bb565b6000918252602090912001546001600160a01b03169050736e84a6216ea6dacc71ee8e6b0a5b7322eebc0fdd811480612ec257506001600160a01b038116735817d4f0b62a59b17f75207da1848c2ce75e7af4145b15612ecd5750612f87565b6040516246613160e11b81526001600160a01b038281166004830152600091908b1690628cc262906024016040805180830381865afa158015612f14573d6000803e3d6000fd5b505050506040513d601f19601f82011682018060405250810190612f3891906146d1565b9150506040518060400160405280836001600160a01b0316815260200182815250888581518110612f6b57612f6b6144bb565b60200260200101819052508380612f81906144fe565b94505050505b80612f91816144fe565b915050612e50565b5093979650505050505050565b600080612fb385856134cb565b509050600080846001600160a01b0316630902f1ac6040518163ffffffff1660e01b8152600401606060405180830381865afa158015612ff7573d6000803e3d6000fd5b505050506040513d601f19601f8201168201806040525081019061301b919061470c565b5091509150866001600160a01b0316836001600160a01b03161461303b57905b61305888836001600160701b0316836001600160701b03166134fc565b98975050505050505050565b600061306e611e43565b60405161190160f01b602082015260228101919091526042810186905260620160408051601f198184030181528282528051602091820120600080855291840180845281905260ff88169284019290925260608301869052608083018590529092509060019060a0016020604051602081039080840390855afa1580156130f9573d6000803e3d6000fd5b5050604051601f1901519150506001600160a01b0381161580159061312f5750866001600160a01b0316816001600160a01b0316145b6131875760405162461bcd60e51b8152602060048201526024808201527f417263683a3a76616c69646174655369673a20696e76616c6964207369676e616044820152637475726560e01b6064820152608401610af3565b50505050505050565b61319861353f565b60006131a2613735565b90508161321457600c548110156132145760405162461bcd60e51b815260206004820152603060248201527f5661726961626c655265776172647353747261746567793a3a5265696e76657360448201526f7420616d6f756e7420746f6f206c6f7760801b6064820152608401610af3565b600061323161271061194360115485612c2090919063ffffffff16565b9050801561325657600b54600a54613256916001600160a01b03918216911683612622565b600061327361271061194360105486612c2090919063ffffffff16565b9050801561329257600a54613292906001600160a01b03163383612622565b60006132b06132ab836132a58787612362565b90612362565b613966565b90506132bb8161345c565b7fc7606d21ac05cd309191543e409f0845c016120563783d70e4f41419dc0ef2346132e4610fdb565b6002546040805192835260208301919091520160405180910390a15050505050565b600061335b826040518060400160405280602081526020017f5361666545524332303a206c6f772d6c6576656c2063616c6c206661696c6564815250856001600160a01b03166139959092919063ffffffff16565b80519091501561267857808060200190518101906133799190614485565b6126785760405162461bcd60e51b815260206004820152602a60248201527f5361666545524332303a204552433230206f7065726174696f6e20646964206e6044820152691bdd081cdd58d8d9595960b21b6064820152608401610af3565b6002546133e59082612020565b6002556001600160a01b03821660009081526004602052604090205461340b9082612020565b6001600160a01b0383166000818152600460205260408082209390935591519091907fddf252ad1be2c89b69c2b068fc378daa952ba7f163c4a11628f55a4df523b3ef906127479085815260200190565b600081116134c25760405162461bcd60e51b815260206004820152602d60248201527f5661726961626c655265776172647353747261746567793a3a5374616b65206160448201526c6d6f756e7420746f6f206c6f7760981b6064820152608401610af3565b61190f816139a4565b600080826001600160a01b0316846001600160a01b0316106134ee5782846134f1565b83835b915091509250929050565b60008061350b856103e5612c20565b905060006135198285612c20565b905060006135338361352d886103e8612c20565b90612020565b9050612b308282612c2c565b6040516370a0823160e01b8152306004820152600090736e84a6216ea6dacc71ee8e6b0a5b7322eebc0fdd906370a0823190602401602060405180830381865afa158015613591573d6000803e3d6000fd5b505050506040513d601f19601f820116820180604052508101906135b591906144a2565b90506135bf612a9d565b6001600160a01b0316633d18b9126040518163ffffffff1660e01b8152600401600060405180830381600087803b1580156135f957600080fd5b505af115801561360d573d6000803e3d6000fd5b50506040516370a0823160e01b81523060048201526000925061368d91508390736e84a6216ea6dacc71ee8e6b0a5b7322eebc0fdd906370a0823190602401602060405180830381865afa158015613669573d6000803e3d6000fd5b505050506040513d601f19601f820116820180604052508101906132a591906144a2565b601754604051633cb6bbcb60e21b81529192506000916001600160a01b039091169063f2daef2c906136c5903090869060040161446c565b602060405180830381865afa1580156136e2573d6000803e3d6000fd5b505050506040513d601f19601f8201168201806040525081019061370691906144a2565b60175490915061267890736e84a6216ea6dacc71ee8e6b0a5b7322eebc0fdd906001600160a01b031683612622565b6040516370a0823160e01b8152306004820152600090819073b31f66aa3c1e785363f0875a1b74e27b85fd66c7906370a0823190602401602060405180830381865afa158015613789573d6000803e3d6000fd5b505050506040513d601f19601f820116820180604052508101906137ad91906144a2565b60135490915060005b8181101561395e576000601382815481106137d3576137d36144bb565b6000918252602090912001546001600160a01b0316905073b31f66aa3c1e785363f0875a1b74e27b85fd66c61981016138925747801561388b5773b31f66aa3c1e785363f0875a1b74e27b85fd66c76001600160a01b031663d0e30db0826040518263ffffffff1660e01b81526004016000604051808303818588803b15801561385c57600080fd5b505af1158015613870573d6000803e3d6000fd5b5050505050613888818661202090919063ffffffff16565b94505b505061394c565b6040516370a0823160e01b81523060048201526000906001600160a01b038316906370a0823190602401602060405180830381865afa1580156138d9573d6000803e3d6000fd5b505050506040513d601f19601f820116820180604052508101906138fd91906144a2565b90508015613949576001600160a01b0380831660009081526012602052604090205416801561394757600a5461394490611b9d90849086906001600160a01b031685613af5565b95505b505b50505b80613956816144fe565b9150506137b6565b509092915050565b600a546009546015546016546000936109979386936001600160a01b0392831693918316929081169116613c69565b60606122398484600085613e0d565b60006139ae612a9d565b60095460405163095ea7b360e01b81529192506001600160a01b03169063095ea7b3906139e1908490869060040161446c565b6020604051808303816000875af1158015613a00573d6000803e3d6000fd5b505050506040513d601f19601f82011682018060405250810190613a249190614485565b5060405163b6b55f2560e01b8152600481018390526001600160a01b0382169063b6b55f2590602401600060405180830381600087803b158015613a6757600080fd5b505af1158015613a7b573d6000803e3d6000fd5b505060095460405163095ea7b360e01b81526001600160a01b03909116925063095ea7b39150613ab290849060009060040161446c565b6020604051808303816000875af1158015613ad1573d6000803e3d6000fd5b505050506040513d601f19601f820116820180604052508101906126789190614485565b600080613b0285856134cb565b509050600080846001600160a01b0316630902f1ac6040518163ffffffff1660e01b8152600401606060405180830381865afa158015613b46573d6000803e3d6000fd5b505050506040513d601f19601f82011682018060405250810190613b6a919061470c565b5091509150866001600160a01b0316836001600160a01b031614613b8a57905b600080613baa8a856001600160701b0316856001600160701b03166134fc565b9050886001600160a01b0316856001600160a01b031614613bc757905b613bdb6001600160a01b038a16888c612622565b6040805160008152602081019182905263022c0d9f60e01b9091526001600160a01b0388169063022c0d9f90613c1a908590859030906024810161475c565b600060405180830381600087803b158015613c3457600080fd5b505af1158015613c48573d6000803e3d6000fd5b50505050818111613c595781613c5b565b805b9a9950505050505050505050565b600080613c77876002612c2c565b905060008111613ce15760405162461bcd60e51b815260206004820152602f60248201527f4465784c6962726172793a3a5f636f6e76657274526577617264546f6b656e7360448201526e546f4465706f736974546f6b656e7360881b6064820152608401610af3565b6000856001600160a01b0316630dfe16816040518163ffffffff1660e01b8152600401602060405180830381865afa158015613d21573d6000803e3d6000fd5b505050506040513d601f19601f82011682018060405250810190613d4591906145e0565b9050816001600160a01b0388811690831614613d6a57613d6783898489613af5565b90505b6000876001600160a01b031663d21220a76040518163ffffffff1660e01b8152600401602060405180830381865afa158015613daa573d6000803e3d6000fd5b505050506040513d601f19601f82011682018060405250810190613dce91906145e0565b9050836001600160a01b038a811690831614613df357613df0858b848a613af5565b90505b613dfe898483613f33565b9b9a5050505050505050505050565b606082471015613e6e5760405162461bcd60e51b815260206004820152602660248201527f416464726573733a20696e73756666696369656e742062616c616e636520666f6044820152651c8818d85b1b60d21b6064820152608401610af3565b6001600160a01b0385163b613ec55760405162461bcd60e51b815260206004820152601d60248201527f416464726573733a2063616c6c20746f206e6f6e2d636f6e74726163740000006044820152606401610af3565b600080866001600160a01b03168587604051613ee19190614793565b60006040518083038185875af1925050503d8060008114613f1e576040519150601f19603f3d011682016040523d82523d6000602084013e613f23565b606091505b5091509150612b3082828661410f565b6000806000856001600160a01b0316630902f1ac6040518163ffffffff1660e01b8152600401606060405180830381865afa158015613f76573d6000803e3d6000fd5b505050506040513d601f19601f82011682018060405250810190613f9a919061470c565b50915091506000613fbe86846001600160701b0316846001600160701b0316614148565b905084811115613feb57849050613fe885836001600160701b0316856001600160701b0316614148565b95505b6140628787896001600160a01b0316630dfe16816040518163ffffffff1660e01b8152600401602060405180830381865afa15801561402e573d6000803e3d6000fd5b505050506040513d601f19601f8201168201806040525081019061405291906145e0565b6001600160a01b03169190612622565b6140a58782896001600160a01b031663d21220a76040518163ffffffff1660e01b8152600401602060405180830381865afa15801561402e573d6000803e3d6000fd5b6040516335313c2160e11b81523060048201526001600160a01b03881690636a627842906024016020604051808303816000875af11580156140eb573d6000803e3d6000fd5b505050506040513d601f19601f82011682018060405250810190612b3091906144a2565b6060831561411e575081610a7a565b82511561412e5782518084602001fd5b8160405162461bcd60e51b8152600401610af391906141b0565b6000612239836119438685612c20565b60005b8381101561417357818101518382015260200161415b565b838111156118ff5750506000910152565b6000815180845261419c816020860160208601614158565b601f01601f19169290920160200192915050565b602081526000610a7a6020830184614184565b6001600160a01b038116811461190f57600080fd5b600080604083850312156141eb57600080fd5b82356141f6816141c3565b946020939093013593505050565b60006020828403121561421657600080fd5b5035919050565b60008060006060848603121561423257600080fd5b833561423d816141c3565b9250602084013561424d816141c3565b929592945050506040919091013590565b6000806040838503121561427157600080fd5b823561427c816141c3565b9150602083013561428c816141c3565b809150509250929050565b6000602082840312156142a957600080fd5b8135610a7a816141c3565b803560ff811681146142c557600080fd5b919050565b600080600080600060a086880312156142e257600080fd5b85359450602086013593506142f9604087016142b4565b94979396509394606081013594506080013592915050565b801515811461190f57600080fd5b60006020828403121561433157600080fd5b8135610a7a81614311565b6000806040838503121561434f57600080fd5b82359150602083013561428c81614311565b600080600080600080600060e0888a03121561437c57600080fd5b8735614387816141c3565b96506020880135614397816141c3565b955060408801359450606088013593506143b3608089016142b4565b925060a0880135915060c0880135905092959891949750929550565b600181811c908216806143e357607f821691505b60208210810361440357634e487b7160e01b600052602260045260246000fd5b50919050565b6020808252601490820152732cb0b5a9ba3930ba32b3bc9d1d37b7363ca232bb60611b604082015260600190565b6020808252818101527f4f776e61626c653a2063616c6c6572206973206e6f7420746865206f776e6572604082015260600190565b6001600160a01b03929092168252602082015260400190565b60006020828403121561449757600080fd5b8151610a7a81614311565b6000602082840312156144b457600080fd5b5051919050565b634e487b7160e01b600052603260045260246000fd5b634e487b7160e01b600052601160045260246000fd5b6000828210156144f9576144f96144d1565b500390565b600060018201614510576145106144d1565b5060010190565b634e487b7160e01b600052603160045260246000fd5b600080835481600182811c91508083168061454957607f831692505b6020808410820361456857634e487b7160e01b86526022600452602486fd5b81801561457c576001811461458d576145ba565b60ff198616895284890196506145ba565b60008a81526020902060005b868110156145b25781548b820152908501908301614599565b505084890196505b509498975050505050505050565b600082198211156145db576145db6144d1565b500190565b6000602082840312156145f257600080fd5b8151610a7a816141c3565b60008060008060008060c0878903121561461657600080fd5b86519550602087015161462881614311565b6040880151909550614639816141c3565b606088015190945061464a816141c3565b608088015190935061465b816141c3565b60a088015190925061466c816141c3565b809150509295509295509295565b6000816000190483118215151615614694576146946144d1565b500290565b6000826146b657634e487b7160e01b600052601260045260246000fd5b500490565b634e487b7160e01b600052604160045260246000fd5b600080604083850312156146e457600080fd5b505080516020909101519092909150565b80516001600160701b03811681146142c557600080fd5b60008060006060848603121561472157600080fd5b61472a846146f5565b9250614738602085016146f5565b9150604084015163ffffffff8116811461475157600080fd5b809150509250925092565b84815283602082015260018060a01b03831660408201526080606082015260006147896080830184614184565b9695505050505050565b600082516147a5818460208701614158565b919091019291505056fe5f6275726e3a206275726e20616d6f756e74206578636565647320746f74616c20737570706c797472616e7366657246726f6d3a207472616e7366657220616d6f756e74206578636565647320616c6c6f77616e63655f6275726e3a206275726e20616d6f756e7420657863656564732066726f6d2062616c616e63655f7472616e73666572546f6b656e733a207472616e7366657220657863656564732066726f6d2062616c616e6365a26469706673582212201eb049555406bf54d510f228906fb78da3b37cc1769881c4f950046a07a6b4b264736f6c634300080d00334f776e61626c653a2063616c6c6572206973206e6f7420746865206f776e65728be0079c531659141344cd1fd0a4f28419497f9722a3daafe3b4186f6b6457e0000000000000000000000000b31f66aa3c1e785363f0875a1b74e27b85fd66c7",
    "linkReferences": {}
  },
  "methodIdentifiers": {
    "ADMIN_FEE_BIPS()": "07677111",
    "DEPOSITS_ENABLED()": "b52a321f",
    "DEV_FEE_BIPS()": "5ea682ea",
    "DOMAIN_TYPEHASH()": "20606b70",
    "MAX_TOKENS_TO_DEPOSIT_WITHOUT_REINVEST()": "789139bc",
    "MIN_TOKENS_TO_REINVEST()": "bd079f55",
    "PERMIT_TYPEHASH()": "30adf81f",
    "REINVEST_REWARD_BIPS()": "8aff733d",
    "VERSION_HASH()": "9e4e7318",
    "addReward(address,address)": "40b47e1a",
    "allowDepositor(address)": "4bebd1e7",
    "allowance(address,address)": "dd62ed3e",
    "allowedDepositors(address)": "483c2ef0",
    "approve(address,uint256)": "095ea7b3",
    "balanceOf(address)": "70a08231",
    "boosterFeeCollector()": "0fccc400",
    "calculateDepositFee(uint256)": "247d284b",
    "calculateWithdrawFee(uint256)": "11056035",
    "checkReward()": "c4b24a46",
    "decimals()": "313ce567",
    "deposit(uint256)": "b6b55f25",
    "depositFor(address,uint256)": "2f4f21e2",
    "depositToken()": "c89039c5",
    "depositWithPermit(uint256,uint256,uint8,bytes32,bytes32)": "4a970be7",
    "devAddr()": "da09c72c",
    "estimateDeployedBalance()": "0f23475d",
    "estimateReinvestReward()": "b9e57b80",
    "getDepositTokensForShares(uint256)": "eab89a5a",
    "getDomainSeparator()": "ed24911d",
    "getSharesForDepositTokens(uint256)": "dd8ce4d6",
    "name()": "06fdde03",
    "nonces(address)": "7ecebe00",
    "numberOfAllowedDepositors()": "3bdc6e72",
    "owner()": "8da5cb5b",
    "permit(address,address,uint256,uint256,uint8,bytes32,bytes32)": "d505accf",
    "recoverAVAX(uint256)": "4ebb7916",
    "recoverERC20(address,uint256)": "8980f11f",
    "reinvest()": "fdb5a03e",
    "removeDepositor(address)": "8b73e606",
    "removeReward(address)": "a4d5e67c",
    "renounceOwnership()": "715018a6",
    "rescueDeployedFunds(uint256,bool)": "ac0d31ff",
    "revokeAllowance(address,address)": "7ae26773",
    "rewardCount()": "79085425",
    "rewardSwapPairs(address)": "a5534e71",
    "rewardToken()": "f7c618c1",
    "supportedRewards(uint256)": "e75ab045",
    "symbol()": "95d89b41",
    "totalDeposits()": "7d882097",
    "totalSupply()": "18160ddd",
    "transfer(address,uint256)": "a9059cbb",
    "transferFrom(address,address,uint256)": "23b872dd",
    "transferOwnership(address)": "f2fde38b",
    "updateAdminFee(uint256)": "cff1b6ef",
    "updateBoosterFeeCollector(address)": "6c8b4b52",
    "updateDepositsEnabled(bool)": "4e77ace5",
    "updateDevAddr(address)": "9291d563",
    "updateDevFee(uint256)": "99729ec1",
    "updateMaxTokensToDepositWithoutReinvest(uint256)": "e21ac825",
    "updateMinTokensToReinvest(uint256)": "81837230",
    "updateReinvestReward(uint256)": "a8ae2b7c",
    "vectorMainStaking()": "7e08c185",
    "withdraw(uint256)": "2e1a7d4d"
  },
  "id": 150
}