{
  "abi": [
    {
      "inputs": [],
      "stateMutability": "nonpayable",
      "type": "constructor"
    },
    {
      "anonymous": false,
      "inputs": [
        {
          "indexed": true,
          "internalType": "address",
          "name": "strategy",
          "type": "address"
        }
      ],
      "name": "AddStrategy",
      "type": "event"
    },
    {
      "anonymous": false,
      "inputs": [
        {
          "indexed": true,
          "internalType": "address",
          "name": "previousOwner",
          "type": "address"
        },
        {
          "indexed": true,
          "internalType": "address",
          "name": "newOwner",
          "type": "address"
        }
      ],
      "name": "OwnershipTransferred",
      "type": "event"
    },
    {
      "inputs": [
        {
          "internalType": "address",
          "name": "_strategy",
          "type": "address"
        }
      ],
      "name": "addStrategy",
      "outputs": [
        {
          "components": [
            {
              "internalType": "uint256",
              "name": "id",
              "type": "uint256"
            },
            {
              "internalType": "address",
              "name": "strategyAddress",
              "type": "address"
            },
            {
              "internalType": "bool",
              "name": "depositsEnabled",
              "type": "bool"
            },
            {
              "internalType": "address",
              "name": "depositToken",
              "type": "address"
            },
            {
              "internalType": "address",
              "name": "rewardToken",
              "type": "address"
            },
            {
              "internalType": "uint256",
              "name": "minTokensToReinvest",
              "type": "uint256"
            },
            {
              "internalType": "uint256",
              "name": "maxTokensToDepositWithoutReinvest",
              "type": "uint256"
            },
            {
              "internalType": "uint256",
              "name": "devFeeBips",
              "type": "uint256"
            },
            {
              "internalType": "uint256",
              "name": "reinvestRewardBips",
              "type": "uint256"
            }
          ],
          "internalType": "struct YakRegistry.StrategyInfo",
          "name": "",
          "type": "tuple"
        }
      ],
      "stateMutability": "nonpayable",
      "type": "function"
    },
    {
      "inputs": [
        {
          "internalType": "address",
          "name": "_strategy",
          "type": "address"
        }
      ],
      "name": "disableStrategy",
      "outputs": [],
      "stateMutability": "nonpayable",
      "type": "function"
    },
    {
      "inputs": [
        {
          "internalType": "address",
          "name": "",
          "type": "address"
        }
      ],
      "name": "disabledStrategies",
      "outputs": [
        {
          "internalType": "bool",
          "name": "",
          "type": "bool"
        }
      ],
      "stateMutability": "view",
      "type": "function"
    },
    {
      "inputs": [
        {
          "internalType": "address",
          "name": "_strategy",
          "type": "address"
        }
      ],
      "name": "isActiveStrategy",
      "outputs": [
        {
          "internalType": "bool",
          "name": "",
          "type": "bool"
        }
      ],
      "stateMutability": "view",
      "type": "function"
    },
    {
      "inputs": [
        {
          "internalType": "address",
          "name": "_strategy",
          "type": "address"
        }
      ],
      "name": "isHaltedStrategy",
      "outputs": [
        {
          "internalType": "bool",
          "name": "",
          "type": "bool"
        }
      ],
      "stateMutability": "view",
      "type": "function"
    },
    {
      "inputs": [],
      "name": "owner",
      "outputs": [
        {
          "internalType": "address",
          "name": "",
          "type": "address"
        }
      ],
      "stateMutability": "view",
      "type": "function"
    },
    {
      "inputs": [
        {
          "internalType": "address",
          "name": "_strategy",
          "type": "address"
        }
      ],
      "name": "pauseStrategy",
      "outputs": [],
      "stateMutability": "nonpayable",
      "type": "function"
    },
    {
      "inputs": [
        {
          "internalType": "address",
          "name": "",
          "type": "address"
        }
      ],
      "name": "pausedStrategies",
      "outputs": [
        {
          "internalType": "bool",
          "name": "",
          "type": "bool"
        }
      ],
      "stateMutability": "view",
      "type": "function"
    },
    {
      "inputs": [],
      "name": "renounceOwnership",
      "outputs": [],
      "stateMutability": "nonpayable",
      "type": "function"
    },
    {
      "inputs": [
        {
          "internalType": "address",
          "name": "_strategy",
          "type": "address"
        }
      ],
      "name": "resumeStrategy",
      "outputs": [],
      "stateMutability": "nonpayable",
      "type": "function"
    },
    {
      "inputs": [],
      "name": "strategiesCount",
      "outputs": [
        {
          "internalType": "uint256",
          "name": "",
          "type": "uint256"
        }
      ],
      "stateMutability": "view",
      "type": "function"
    },
    {
      "inputs": [
        {
          "internalType": "address",
          "name": "_depositToken",
          "type": "address"
        }
      ],
      "name": "strategiesForDepositTokenCount",
      "outputs": [
        {
          "internalType": "uint256",
          "name": "",
          "type": "uint256"
        }
      ],
      "stateMutability": "view",
      "type": "function"
    },
    {
      "inputs": [
        {
          "internalType": "address",
          "name": "_strategy",
          "type": "address"
        }
      ],
      "name": "strategyId",
      "outputs": [
        {
          "internalType": "uint256",
          "name": "",
          "type": "uint256"
        }
      ],
      "stateMutability": "view",
      "type": "function"
    },
    {
      "inputs": [
        {
          "internalType": "address",
          "name": "",
          "type": "address"
        }
      ],
      "name": "strategyIdForStrategyAddress",
      "outputs": [
        {
          "internalType": "uint256",
          "name": "",
          "type": "uint256"
        }
      ],
      "stateMutability": "view",
      "type": "function"
    },
    {
      "inputs": [
        {
          "internalType": "address",
          "name": "",
          "type": "address"
        },
        {
          "internalType": "uint256",
          "name": "",
          "type": "uint256"
        }
      ],
      "name": "strategyIdsForDepositToken",
      "outputs": [
        {
          "internalType": "uint256",
          "name": "",
          "type": "uint256"
        }
      ],
      "stateMutability": "view",
      "type": "function"
    },
    {
      "inputs": [
        {
          "internalType": "uint256",
          "name": "_sId",
          "type": "uint256"
        }
      ],
      "name": "strategyInfo",
      "outputs": [
        {
          "components": [
            {
              "internalType": "uint256",
              "name": "id",
              "type": "uint256"
            },
            {
              "internalType": "address",
              "name": "strategyAddress",
              "type": "address"
            },
            {
              "internalType": "bool",
              "name": "depositsEnabled",
              "type": "bool"
            },
            {
              "internalType": "address",
              "name": "depositToken",
              "type": "address"
            },
            {
              "internalType": "address",
              "name": "rewardToken",
              "type": "address"
            },
            {
              "internalType": "uint256",
              "name": "minTokensToReinvest",
              "type": "uint256"
            },
            {
              "internalType": "uint256",
              "name": "maxTokensToDepositWithoutReinvest",
              "type": "uint256"
            },
            {
              "internalType": "uint256",
              "name": "devFeeBips",
              "type": "uint256"
            },
            {
              "internalType": "uint256",
              "name": "reinvestRewardBips",
              "type": "uint256"
            }
          ],
          "internalType": "struct YakRegistry.StrategyInfo",
          "name": "",
          "type": "tuple"
        }
      ],
      "stateMutability": "view",
      "type": "function"
    },
    {
      "inputs": [
        {
          "internalType": "address",
          "name": "newOwner",
          "type": "address"
        }
      ],
      "name": "transferOwnership",
      "outputs": [],
      "stateMutability": "nonpayable",
      "type": "function"
    }
  ],
  "bytecode": {
    "object": "0x608060405234801561001057600080fd5b50600080546001600160a01b031916339081178255604051909182917f8be0079c531659141344cd1fd0a4f28419497f9722a3daafe3b4186f6b6457e0908290a350610fd9806100616000396000f3fe608060405234801561001057600080fd5b506004361061010b5760003560e01c806350a1fa58116100a2578063b92028b511610071578063b92028b514610261578063bb91c33914610284578063d258150314610297578063d3f6b598146102aa578063f2fde38b146102bd57600080fd5b806350a1fa5814610218578063715018a61461022b5780638da5cb5b1461023357806398425ee11461024e57600080fd5b8063223e5479116100de578063223e5479146101b25780632489f7f7146101d25780632a058cac146101da57806335b7efcb146101ef57600080fd5b80630a8484781461011057806313f4c195146101485780631a99f77314610176578063211d216214610189575b600080fd5b61013361011e366004610d07565b60036020526000908152604090205460ff1681565b60405190151581526020015b60405180910390f35b610168610156366004610d07565b60016020526000908152604090205481565b60405190815260200161013f565b610168610184366004610d24565b6102d0565b610168610197366004610d07565b6001600160a01b031660009081526002602052604090205490565b6101c56101c0366004610d07565b610301565b60405161013f9190610d50565b61016861050c565b6101ed6101e8366004610d07565b61051d565b005b6101686101fd366004610d07565b6001600160a01b031660009081526001602052604090205490565b610133610226366004610d07565b61057d565b6101ed6105c2565b6000546040516001600160a01b03909116815260200161013f565b6101ed61025c366004610d07565b610636565b61013361026f366004610d07565b60046020526000908152604090205460ff1681565b6101c5610292366004610ddf565b610699565b6101336102a5366004610d07565b6109c0565b6101ed6102b8366004610d07565b610a88565b6101ed6102cb366004610d07565b610ad6565b600260205281600052604060002081815481106102ec57600080fd5b90600052602060002001600091509150505481565b610309610c86565b6000546001600160a01b0316331461033c5760405162461bcd60e51b815260040161033390610df8565b60405180910390fd5b610347600583610bc0565b6103ac5760405162461bcd60e51b815260206004820152603060248201527f59616b52656769737472793a3a61646453747261746567792c2073747261746560448201526f19de48185b1c9958591e48185919195960821b6064820152608401610333565b600060016103ba6005610bd5565b6103c49190610e2d565b90506000836001600160a01b031663c89039c56040518163ffffffff1660e01b8152600401602060405180830381865afa158015610406573d6000803e3d6000fd5b505050506040513d601f19601f8201168201806040525081019061042a9190610e52565b6001600160a01b038181166000908152600260209081526040808320805460018082018355918552838520018890559389168352929052818120859055905163bb91c33960e01b81526004810185905291925090309063bb91c3399060240161012060405180830381865afa1580156104a7573d6000803e3d6000fd5b505050506040513d601f19601f820116820180604052508101906104cb9190610ec2565b6040519091506001600160a01b038616907f69887873d46778fb35539b0a9992d9176ca03c1820b0afb538bc3a6f63326b1090600090a2925050505b919050565b60006105186005610bd5565b905090565b6000546001600160a01b031633146105475760405162461bcd60e51b815260040161033390610df8565b6001600160a01b03166000908152600360209081526040808320805460ff19908116909155600490925290912080549091169055565b6001600160a01b03811660009081526003602052604081205460ff16806105bc57506001600160a01b03821660009081526004602052604090205460ff165b92915050565b6000546001600160a01b031633146105ec5760405162461bcd60e51b815260040161033390610df8565b600080546040516001600160a01b03909116907f8be0079c531659141344cd1fd0a4f28419497f9722a3daafe3b4186f6b6457e0908390a3600080546001600160a01b0319169055565b6000546001600160a01b031633146106605760405162461bcd60e51b815260040161033390610df8565b6001600160a01b03166000908152600360209081526040808320805460ff19908116909155600490925290912080549091166001179055565b6106a1610c86565b60006106ae600584610bdf565b90506000819050604051806101200160405280858152602001826001600160a01b03168152602001826001600160a01b031663b52a321f6040518163ffffffff1660e01b8152600401602060405180830381865afa158015610714573d6000803e3d6000fd5b505050506040513d601f19601f820116820180604052508101906107389190610f59565b15158152602001826001600160a01b031663c89039c56040518163ffffffff1660e01b8152600401602060405180830381865afa15801561077d573d6000803e3d6000fd5b505050506040513d601f19601f820116820180604052508101906107a19190610e52565b6001600160a01b03168152602001826001600160a01b031663f7c618c16040518163ffffffff1660e01b8152600401602060405180830381865afa1580156107ed573d6000803e3d6000fd5b505050506040513d601f19601f820116820180604052508101906108119190610e52565b6001600160a01b03168152602001826001600160a01b031663bd079f556040518163ffffffff1660e01b8152600401602060405180830381865afa15801561085d573d6000803e3d6000fd5b505050506040513d601f19601f820116820180604052508101906108819190610f74565b8152602001826001600160a01b031663789139bc6040518163ffffffff1660e01b8152600401602060405180830381865afa1580156108c4573d6000803e3d6000fd5b505050506040513d601f19601f820116820180604052508101906108e89190610f74565b8152602001826001600160a01b0316635ea682ea6040518163ffffffff1660e01b8152600401602060405180830381865afa15801561092b573d6000803e3d6000fd5b505050506040513d601f19601f8201168201806040525081019061094f9190610f74565b8152602001826001600160a01b0316638aff733d6040518163ffffffff1660e01b8152600401602060405180830381865afa158015610992573d6000803e3d6000fd5b505050506040513d601f19601f820116820180604052508101906109b69190610f74565b9052949350505050565b6000816109ce600582610beb565b8015610a375750806001600160a01b031663b52a321f6040518163ffffffff1660e01b8152600401602060405180830381865afa158015610a13573d6000803e3d6000fd5b505050506040513d601f19601f82011682018060405250810190610a379190610f59565b8015610a5c57506001600160a01b03831660009081526003602052604090205460ff16155b8015610a8157506001600160a01b03831660009081526004602052604090205460ff16155b9392505050565b6000546001600160a01b03163314610ab25760405162461bcd60e51b815260040161033390610df8565b6001600160a01b03166000908152600360205260409020805460ff19166001179055565b6000546001600160a01b03163314610b005760405162461bcd60e51b815260040161033390610df8565b6001600160a01b038116610b655760405162461bcd60e51b815260206004820152602660248201527f4f776e61626c653a206e6577206f776e657220697320746865207a65726f206160448201526564647265737360d01b6064820152608401610333565b600080546040516001600160a01b03808516939216917f8be0079c531659141344cd1fd0a4f28419497f9722a3daafe3b4186f6b6457e091a3600080546001600160a01b0319166001600160a01b0392909216919091179055565b6000610a81836001600160a01b038416610c0d565b60006105bc825490565b6000610a818383610c5c565b6001600160a01b03811660009081526001830160205260408120541515610a81565b6000818152600183016020526040812054610c54575081546001818101845560008481526020808220909301849055845484825282860190935260409020919091556105bc565b5060006105bc565b6000826000018281548110610c7357610c73610f8d565b9060005260206000200154905092915050565b6040518061012001604052806000815260200160006001600160a01b0316815260200160001515815260200160006001600160a01b0316815260200160006001600160a01b03168152602001600081526020016000815260200160008152602001600081525090565b6001600160a01b0381168114610d0457600080fd5b50565b600060208284031215610d1957600080fd5b8135610a8181610cef565b60008060408385031215610d3757600080fd5b8235610d4281610cef565b946020939093013593505050565b815181526020808301516001600160a01b031690820152604080830151151590820152606080830151610120830191610d93908401826001600160a01b03169052565b506080830151610dae60808401826001600160a01b03169052565b5060a083015160a083015260c083015160c083015260e083015160e083015261010080840151818401525092915050565b600060208284031215610df157600080fd5b5035919050565b6020808252818101527f4f776e61626c653a2063616c6c6572206973206e6f7420746865206f776e6572604082015260600190565b600082821015610e4d57634e487b7160e01b600052601160045260246000fd5b500390565b600060208284031215610e6457600080fd5b8151610a8181610cef565b604051610120810167ffffffffffffffff81118282101715610ea157634e487b7160e01b600052604160045260246000fd5b60405290565b805161050781610cef565b8051801515811461050757600080fd5b60006101208284031215610ed557600080fd5b610edd610e6f565b82518152610eed60208401610ea7565b6020820152610efe60408401610eb2565b6040820152610f0f60608401610ea7565b6060820152610f2060808401610ea7565b608082015260a083015160a082015260c083015160c082015260e083015160e08201526101008084015181830152508091505092915050565b600060208284031215610f6b57600080fd5b610a8182610eb2565b600060208284031215610f8657600080fd5b5051919050565b634e487b7160e01b600052603260045260246000fdfea264697066735822122073c5ef593d801e32e100eb1069198cd52b4fe0d8cf4b8da9c0cfd4138cf6948164736f6c634300080d0033",
    "linkReferences": {}
  },
  "methodIdentifiers": {
    "addStrategy(address)": "223e5479",
    "disableStrategy(address)": "98425ee1",
    "disabledStrategies(address)": "b92028b5",
    "isActiveStrategy(address)": "d2581503",
    "isHaltedStrategy(address)": "50a1fa58",
    "owner()": "8da5cb5b",
    "pauseStrategy(address)": "d3f6b598",
    "pausedStrategies(address)": "0a848478",
    "renounceOwnership()": "715018a6",
    "resumeStrategy(address)": "2a058cac",
    "strategiesCount()": "2489f7f7",
    "strategiesForDepositTokenCount(address)": "211d2162",
    "strategyId(address)": "35b7efcb",
    "strategyIdForStrategyAddress(address)": "13f4c195",
    "strategyIdsForDepositToken(address,uint256)": "1a99f773",
    "strategyInfo(uint256)": "bb91c339",
    "transferOwnership(address)": "f2fde38b"
  },
  "id": 2
}