{
  "abi": [
    {
      "inputs": [
        {
          "internalType": "string",
          "name": "_name",
          "type": "string"
        },
        {
          "internalType": "address",
          "name": "_rewardController",
          "type": "address"
        },
        {
          "internalType": "address",
          "name": "_tokenDelegator",
          "type": "address"
        },
        {
          "internalType": "address",
          "name": "_rewardToken0",
          "type": "address"
        },
        {
          "internalType": "address",
          "name": "_swapPairToken0",
          "type": "address"
        },
        {
          "internalType": "address",
          "name": "_timelock",
          "type": "address"
        },
        {
          "internalType": "uint256",
          "name": "_minMinting",
          "type": "uint256"
        },
        {
          "internalType": "uint256",
          "name": "_leverageLevel",
          "type": "uint256"
        },
        {
          "internalType": "uint256",
          "name": "_leverageBips",
          "type": "uint256"
        },
        {
          "components": [
            {
              "internalType": "uint256",
              "name": "minTokensToReinvest",
              "type": "uint256"
            },
            {
              "internalType": "uint256",
              "name": "devFeeBips",
              "type": "uint256"
            },
            {
              "internalType": "uint256",
              "name": "reinvestRewardBips",
              "type": "uint256"
            }
          ],
          "internalType": "struct YakStrategyV2.StrategySettings",
          "name": "_strategySettings",
          "type": "tuple"
        }
      ],
      "stateMutability": "nonpayable",
      "type": "constructor"
    },
    {
      "anonymous": false,
      "inputs": [
        {
          "indexed": true,
          "internalType": "address",
          "name": "account",
          "type": "address"
        }
      ],
      "name": "AllowDepositor",
      "type": "event"
    },
    {
      "anonymous": false,
      "inputs": [
        {
          "indexed": true,
          "internalType": "address",
          "name": "owner",
          "type": "address"
        },
        {
          "indexed": true,
          "internalType": "address",
          "name": "spender",
          "type": "address"
        },
        {
          "indexed": false,
          "internalType": "uint256",
          "name": "value",
          "type": "uint256"
        }
      ],
      "name": "Approval",
      "type": "event"
    },
    {
      "anonymous": false,
      "inputs": [
        {
          "indexed": true,
          "internalType": "address",
          "name": "account",
          "type": "address"
        },
        {
          "indexed": false,
          "internalType": "uint256",
          "name": "amount",
          "type": "uint256"
        }
      ],
      "name": "Deposit",
      "type": "event"
    },
    {
      "anonymous": false,
      "inputs": [
        {
          "indexed": false,
          "internalType": "bool",
          "name": "newValue",
          "type": "bool"
        }
      ],
      "name": "DepositsEnabled",
      "type": "event"
    },
    {
      "anonymous": false,
      "inputs": [
        {
          "indexed": true,
          "internalType": "address",
          "name": "previousOwner",
          "type": "address"
        },
        {
          "indexed": true,
          "internalType": "address",
          "name": "newOwner",
          "type": "address"
        }
      ],
      "name": "OwnershipTransferred",
      "type": "event"
    },
    {
      "anonymous": false,
      "inputs": [
        {
          "indexed": false,
          "internalType": "address",
          "name": "token",
          "type": "address"
        },
        {
          "indexed": false,
          "internalType": "uint256",
          "name": "amount",
          "type": "uint256"
        }
      ],
      "name": "Recovered",
      "type": "event"
    },
    {
      "anonymous": false,
      "inputs": [
        {
          "indexed": false,
          "internalType": "uint256",
          "name": "newTotalDeposits",
          "type": "uint256"
        },
        {
          "indexed": false,
          "internalType": "uint256",
          "name": "newTotalSupply",
          "type": "uint256"
        }
      ],
      "name": "Reinvest",
      "type": "event"
    },
    {
      "anonymous": false,
      "inputs": [
        {
          "indexed": true,
          "internalType": "address",
          "name": "account",
          "type": "address"
        }
      ],
      "name": "RemoveDepositor",
      "type": "event"
    },
    {
      "anonymous": false,
      "inputs": [
        {
          "indexed": true,
          "internalType": "address",
          "name": "from",
          "type": "address"
        },
        {
          "indexed": true,
          "internalType": "address",
          "name": "to",
          "type": "address"
        },
        {
          "indexed": false,
          "internalType": "uint256",
          "name": "value",
          "type": "uint256"
        }
      ],
      "name": "Transfer",
      "type": "event"
    },
    {
      "anonymous": false,
      "inputs": [
        {
          "indexed": false,
          "internalType": "uint256",
          "name": "oldValue",
          "type": "uint256"
        },
        {
          "indexed": false,
          "internalType": "uint256",
          "name": "newValue",
          "type": "uint256"
        }
      ],
      "name": "UpdateAdminFee",
      "type": "event"
    },
    {
      "anonymous": false,
      "inputs": [
        {
          "indexed": false,
          "internalType": "address",
          "name": "oldValue",
          "type": "address"
        },
        {
          "indexed": false,
          "internalType": "address",
          "name": "newValue",
          "type": "address"
        }
      ],
      "name": "UpdateDevAddr",
      "type": "event"
    },
    {
      "anonymous": false,
      "inputs": [
        {
          "indexed": false,
          "internalType": "uint256",
          "name": "oldValue",
          "type": "uint256"
        },
        {
          "indexed": false,
          "internalType": "uint256",
          "name": "newValue",
          "type": "uint256"
        }
      ],
      "name": "UpdateDevFee",
      "type": "event"
    },
    {
      "anonymous": false,
      "inputs": [
        {
          "indexed": false,
          "internalType": "uint256",
          "name": "oldValue",
          "type": "uint256"
        },
        {
          "indexed": false,
          "internalType": "uint256",
          "name": "newValue",
          "type": "uint256"
        }
      ],
      "name": "UpdateMaxTokensToDepositWithoutReinvest",
      "type": "event"
    },
    {
      "anonymous": false,
      "inputs": [
        {
          "indexed": false,
          "internalType": "uint256",
          "name": "oldValue",
          "type": "uint256"
        },
        {
          "indexed": false,
          "internalType": "uint256",
          "name": "newValue",
          "type": "uint256"
        }
      ],
      "name": "UpdateMinTokensToReinvest",
      "type": "event"
    },
    {
      "anonymous": false,
      "inputs": [
        {
          "indexed": false,
          "internalType": "uint256",
          "name": "oldValue",
          "type": "uint256"
        },
        {
          "indexed": false,
          "internalType": "uint256",
          "name": "newValue",
          "type": "uint256"
        }
      ],
      "name": "UpdateReinvestReward",
      "type": "event"
    },
    {
      "anonymous": false,
      "inputs": [
        {
          "indexed": true,
          "internalType": "address",
          "name": "account",
          "type": "address"
        },
        {
          "indexed": false,
          "internalType": "uint256",
          "name": "amount",
          "type": "uint256"
        }
      ],
      "name": "Withdraw",
      "type": "event"
    },
    {
      "inputs": [],
      "name": "ADMIN_FEE_BIPS",
      "outputs": [
        {
          "internalType": "uint256",
          "name": "",
          "type": "uint256"
        }
      ],
      "stateMutability": "view",
      "type": "function"
    },
    {
      "inputs": [],
      "name": "DEPOSITS_ENABLED",
      "outputs": [
        {
          "internalType": "bool",
          "name": "",
          "type": "bool"
        }
      ],
      "stateMutability": "view",
      "type": "function"
    },
    {
      "inputs": [],
      "name": "DEV_FEE_BIPS",
      "outputs": [
        {
          "internalType": "uint256",
          "name": "",
          "type": "uint256"
        }
      ],
      "stateMutability": "view",
      "type": "function"
    },
    {
      "inputs": [],
      "name": "DOMAIN_TYPEHASH",
      "outputs": [
        {
          "internalType": "bytes32",
          "name": "",
          "type": "bytes32"
        }
      ],
      "stateMutability": "view",
      "type": "function"
    },
    {
      "inputs": [],
      "name": "MAX_TOKENS_TO_DEPOSIT_WITHOUT_REINVEST",
      "outputs": [
        {
          "internalType": "uint256",
          "name": "",
          "type": "uint256"
        }
      ],
      "stateMutability": "view",
      "type": "function"
    },
    {
      "inputs": [],
      "name": "MIN_TOKENS_TO_REINVEST",
      "outputs": [
        {
          "internalType": "uint256",
          "name": "",
          "type": "uint256"
        }
      ],
      "stateMutability": "view",
      "type": "function"
    },
    {
      "inputs": [],
      "name": "PERMIT_TYPEHASH",
      "outputs": [
        {
          "internalType": "bytes32",
          "name": "",
          "type": "bytes32"
        }
      ],
      "stateMutability": "view",
      "type": "function"
    },
    {
      "inputs": [],
      "name": "REINVEST_REWARD_BIPS",
      "outputs": [
        {
          "internalType": "uint256",
          "name": "",
          "type": "uint256"
        }
      ],
      "stateMutability": "view",
      "type": "function"
    },
    {
      "inputs": [],
      "name": "VERSION_HASH",
      "outputs": [
        {
          "internalType": "bytes32",
          "name": "",
          "type": "bytes32"
        }
      ],
      "stateMutability": "view",
      "type": "function"
    },
    {
      "inputs": [
        {
          "internalType": "address",
          "name": "depositor",
          "type": "address"
        }
      ],
      "name": "allowDepositor",
      "outputs": [],
      "stateMutability": "nonpayable",
      "type": "function"
    },
    {
      "inputs": [
        {
          "internalType": "address",
          "name": "account",
          "type": "address"
        },
        {
          "internalType": "address",
          "name": "spender",
          "type": "address"
        }
      ],
      "name": "allowance",
      "outputs": [
        {
          "internalType": "uint256",
          "name": "",
          "type": "uint256"
        }
      ],
      "stateMutability": "view",
      "type": "function"
    },
    {
      "inputs": [
        {
          "internalType": "address",
          "name": "",
          "type": "address"
        }
      ],
      "name": "allowedDepositors",
      "outputs": [
        {
          "internalType": "bool",
          "name": "",
          "type": "bool"
        }
      ],
      "stateMutability": "view",
      "type": "function"
    },
    {
      "inputs": [
        {
          "internalType": "address",
          "name": "spender",
          "type": "address"
        },
        {
          "internalType": "uint256",
          "name": "amount",
          "type": "uint256"
        }
      ],
      "name": "approve",
      "outputs": [
        {
          "internalType": "bool",
          "name": "",
          "type": "bool"
        }
      ],
      "stateMutability": "nonpayable",
      "type": "function"
    },
    {
      "inputs": [
        {
          "internalType": "address",
          "name": "account",
          "type": "address"
        }
      ],
      "name": "balanceOf",
      "outputs": [
        {
          "internalType": "uint256",
          "name": "",
          "type": "uint256"
        }
      ],
      "stateMutability": "view",
      "type": "function"
    },
    {
      "inputs": [],
      "name": "checkReward",
      "outputs": [
        {
          "internalType": "uint256",
          "name": "",
          "type": "uint256"
        }
      ],
      "stateMutability": "view",
      "type": "function"
    },
    {
      "inputs": [],
      "name": "claimAVAXRewards",
      "outputs": [],
      "stateMutability": "nonpayable",
      "type": "function"
    },
    {
      "inputs": [],
      "name": "decimals",
      "outputs": [
        {
          "internalType": "uint8",
          "name": "",
          "type": "uint8"
        }
      ],
      "stateMutability": "view",
      "type": "function"
    },
    {
      "inputs": [
        {
          "internalType": "uint256",
          "name": "",
          "type": "uint256"
        }
      ],
      "name": "deposit",
      "outputs": [],
      "stateMutability": "pure",
      "type": "function"
    },
    {
      "inputs": [],
      "name": "deposit",
      "outputs": [],
      "stateMutability": "payable",
      "type": "function"
    },
    {
      "inputs": [
        {
          "internalType": "address",
          "name": "",
          "type": "address"
        },
        {
          "internalType": "uint256",
          "name": "",
          "type": "uint256"
        }
      ],
      "name": "depositFor",
      "outputs": [],
      "stateMutability": "pure",
      "type": "function"
    },
    {
      "inputs": [
        {
          "internalType": "address",
          "name": "account",
          "type": "address"
        }
      ],
      "name": "depositFor",
      "outputs": [],
      "stateMutability": "payable",
      "type": "function"
    },
    {
      "inputs": [],
      "name": "depositToken",
      "outputs": [
        {
          "internalType": "contract IERC20",
          "name": "",
          "type": "address"
        }
      ],
      "stateMutability": "view",
      "type": "function"
    },
    {
      "inputs": [
        {
          "internalType": "uint256",
          "name": "",
          "type": "uint256"
        },
        {
          "internalType": "uint256",
          "name": "",
          "type": "uint256"
        },
        {
          "internalType": "uint8",
          "name": "",
          "type": "uint8"
        },
        {
          "internalType": "bytes32",
          "name": "",
          "type": "bytes32"
        },
        {
          "internalType": "bytes32",
          "name": "",
          "type": "bytes32"
        }
      ],
      "name": "depositWithPermit",
      "outputs": [],
      "stateMutability": "pure",
      "type": "function"
    },
    {
      "inputs": [],
      "name": "devAddr",
      "outputs": [
        {
          "internalType": "address",
          "name": "",
          "type": "address"
        }
      ],
      "stateMutability": "view",
      "type": "function"
    },
    {
      "inputs": [],
      "name": "estimateDeployedBalance",
      "outputs": [
        {
          "internalType": "uint256",
          "name": "",
          "type": "uint256"
        }
      ],
      "stateMutability": "view",
      "type": "function"
    },
    {
      "inputs": [],
      "name": "estimateReinvestReward",
      "outputs": [
        {
          "internalType": "uint256",
          "name": "",
          "type": "uint256"
        }
      ],
      "stateMutability": "view",
      "type": "function"
    },
    {
      "inputs": [],
      "name": "getActualLeverage",
      "outputs": [
        {
          "internalType": "uint256",
          "name": "",
          "type": "uint256"
        }
      ],
      "stateMutability": "view",
      "type": "function"
    },
    {
      "inputs": [
        {
          "internalType": "uint256",
          "name": "amount",
          "type": "uint256"
        }
      ],
      "name": "getDepositTokensForShares",
      "outputs": [
        {
          "internalType": "uint256",
          "name": "",
          "type": "uint256"
        }
      ],
      "stateMutability": "view",
      "type": "function"
    },
    {
      "inputs": [],
      "name": "getDomainSeparator",
      "outputs": [
        {
          "internalType": "bytes32",
          "name": "",
          "type": "bytes32"
        }
      ],
      "stateMutability": "view",
      "type": "function"
    },
    {
      "inputs": [
        {
          "internalType": "uint256",
          "name": "amount",
          "type": "uint256"
        }
      ],
      "name": "getSharesForDepositTokens",
      "outputs": [
        {
          "internalType": "uint256",
          "name": "",
          "type": "uint256"
        }
      ],
      "stateMutability": "view",
      "type": "function"
    },
    {
      "inputs": [],
      "name": "name",
      "outputs": [
        {
          "internalType": "string",
          "name": "",
          "type": "string"
        }
      ],
      "stateMutability": "view",
      "type": "function"
    },
    {
      "inputs": [
        {
          "internalType": "address",
          "name": "",
          "type": "address"
        }
      ],
      "name": "nonces",
      "outputs": [
        {
          "internalType": "uint256",
          "name": "",
          "type": "uint256"
        }
      ],
      "stateMutability": "view",
      "type": "function"
    },
    {
      "inputs": [],
      "name": "numberOfAllowedDepositors",
      "outputs": [
        {
          "internalType": "uint256",
          "name": "",
          "type": "uint256"
        }
      ],
      "stateMutability": "view",
      "type": "function"
    },
    {
      "inputs": [],
      "name": "owner",
      "outputs": [
        {
          "internalType": "address",
          "name": "",
          "type": "address"
        }
      ],
      "stateMutability": "view",
      "type": "function"
    },
    {
      "inputs": [
        {
          "internalType": "address",
          "name": "owner",
          "type": "address"
        },
        {
          "internalType": "address",
          "name": "spender",
          "type": "address"
        },
        {
          "internalType": "uint256",
          "name": "value",
          "type": "uint256"
        },
        {
          "internalType": "uint256",
          "name": "deadline",
          "type": "uint256"
        },
        {
          "internalType": "uint8",
          "name": "v",
          "type": "uint8"
        },
        {
          "internalType": "bytes32",
          "name": "r",
          "type": "bytes32"
        },
        {
          "internalType": "bytes32",
          "name": "s",
          "type": "bytes32"
        }
      ],
      "name": "permit",
      "outputs": [],
      "stateMutability": "nonpayable",
      "type": "function"
    },
    {
      "inputs": [
        {
          "internalType": "uint256",
          "name": "amount",
          "type": "uint256"
        }
      ],
      "name": "recoverAVAX",
      "outputs": [],
      "stateMutability": "nonpayable",
      "type": "function"
    },
    {
      "inputs": [
        {
          "internalType": "address",
          "name": "tokenAddress",
          "type": "address"
        },
        {
          "internalType": "uint256",
          "name": "tokenAmount",
          "type": "uint256"
        }
      ],
      "name": "recoverERC20",
      "outputs": [],
      "stateMutability": "nonpayable",
      "type": "function"
    },
    {
      "inputs": [],
      "name": "reinvest",
      "outputs": [],
      "stateMutability": "nonpayable",
      "type": "function"
    },
    {
      "inputs": [
        {
          "internalType": "address",
          "name": "depositor",
          "type": "address"
        }
      ],
      "name": "removeDepositor",
      "outputs": [],
      "stateMutability": "nonpayable",
      "type": "function"
    },
    {
      "inputs": [],
      "name": "renounceOwnership",
      "outputs": [],
      "stateMutability": "nonpayable",
      "type": "function"
    },
    {
      "inputs": [
        {
          "internalType": "uint256",
          "name": "minReturnAmountAccepted",
          "type": "uint256"
        },
        {
          "internalType": "bool",
          "name": "disableDeposits",
          "type": "bool"
        }
      ],
      "name": "rescueDeployedFunds",
      "outputs": [],
      "stateMutability": "nonpayable",
      "type": "function"
    },
    {
      "inputs": [
        {
          "internalType": "address",
          "name": "token",
          "type": "address"
        },
        {
          "internalType": "address",
          "name": "spender",
          "type": "address"
        }
      ],
      "name": "revokeAllowance",
      "outputs": [],
      "stateMutability": "nonpayable",
      "type": "function"
    },
    {
      "inputs": [],
      "name": "rewardToken",
      "outputs": [
        {
          "internalType": "contract IERC20",
          "name": "",
          "type": "address"
        }
      ],
      "stateMutability": "view",
      "type": "function"
    },
    {
      "inputs": [],
      "name": "setAllowances",
      "outputs": [],
      "stateMutability": "nonpayable",
      "type": "function"
    },
    {
      "inputs": [],
      "name": "symbol",
      "outputs": [
        {
          "internalType": "string",
          "name": "",
          "type": "string"
        }
      ],
      "stateMutability": "view",
      "type": "function"
    },
    {
      "inputs": [],
      "name": "totalDeposits",
      "outputs": [
        {
          "internalType": "uint256",
          "name": "",
          "type": "uint256"
        }
      ],
      "stateMutability": "view",
      "type": "function"
    },
    {
      "inputs": [],
      "name": "totalSupply",
      "outputs": [
        {
          "internalType": "uint256",
          "name": "",
          "type": "uint256"
        }
      ],
      "stateMutability": "view",
      "type": "function"
    },
    {
      "inputs": [
        {
          "internalType": "address",
          "name": "dst",
          "type": "address"
        },
        {
          "internalType": "uint256",
          "name": "amount",
          "type": "uint256"
        }
      ],
      "name": "transfer",
      "outputs": [
        {
          "internalType": "bool",
          "name": "",
          "type": "bool"
        }
      ],
      "stateMutability": "nonpayable",
      "type": "function"
    },
    {
      "inputs": [
        {
          "internalType": "address",
          "name": "src",
          "type": "address"
        },
        {
          "internalType": "address",
          "name": "dst",
          "type": "address"
        },
        {
          "internalType": "uint256",
          "name": "amount",
          "type": "uint256"
        }
      ],
      "name": "transferFrom",
      "outputs": [
        {
          "internalType": "bool",
          "name": "",
          "type": "bool"
        }
      ],
      "stateMutability": "nonpayable",
      "type": "function"
    },
    {
      "inputs": [
        {
          "internalType": "address",
          "name": "newOwner",
          "type": "address"
        }
      ],
      "name": "transferOwnership",
      "outputs": [],
      "stateMutability": "nonpayable",
      "type": "function"
    },
    {
      "inputs": [
        {
          "internalType": "uint256",
          "name": "newValue",
          "type": "uint256"
        }
      ],
      "name": "updateAdminFee",
      "outputs": [],
      "stateMutability": "nonpayable",
      "type": "function"
    },
    {
      "inputs": [
        {
          "internalType": "bool",
          "name": "newValue",
          "type": "bool"
        }
      ],
      "name": "updateDepositsEnabled",
      "outputs": [],
      "stateMutability": "nonpayable",
      "type": "function"
    },
    {
      "inputs": [
        {
          "internalType": "address",
          "name": "newValue",
          "type": "address"
        }
      ],
      "name": "updateDevAddr",
      "outputs": [],
      "stateMutability": "nonpayable",
      "type": "function"
    },
    {
      "inputs": [
        {
          "internalType": "uint256",
          "name": "newValue",
          "type": "uint256"
        }
      ],
      "name": "updateDevFee",
      "outputs": [],
      "stateMutability": "nonpayable",
      "type": "function"
    },
    {
      "inputs": [
        {
          "internalType": "uint256",
          "name": "_leverageLevel",
          "type": "uint256"
        },
        {
          "internalType": "uint256",
          "name": "_leverageBips",
          "type": "uint256"
        }
      ],
      "name": "updateLeverage",
      "outputs": [],
      "stateMutability": "nonpayable",
      "type": "function"
    },
    {
      "inputs": [
        {
          "internalType": "uint256",
          "name": "newValue",
          "type": "uint256"
        }
      ],
      "name": "updateMaxTokensToDepositWithoutReinvest",
      "outputs": [],
      "stateMutability": "nonpayable",
      "type": "function"
    },
    {
      "inputs": [
        {
          "internalType": "uint256",
          "name": "newValue",
          "type": "uint256"
        }
      ],
      "name": "updateMinTokensToReinvest",
      "outputs": [],
      "stateMutability": "nonpayable",
      "type": "function"
    },
    {
      "inputs": [
        {
          "internalType": "uint256",
          "name": "newValue",
          "type": "uint256"
        }
      ],
      "name": "updateReinvestReward",
      "outputs": [],
      "stateMutability": "nonpayable",
      "type": "function"
    },
    {
      "inputs": [
        {
          "internalType": "uint256",
          "name": "amount",
          "type": "uint256"
        }
      ],
      "name": "withdraw",
      "outputs": [],
      "stateMutability": "nonpayable",
      "type": "function"
    },
    {
      "stateMutability": "payable",
      "type": "receive"
    }
  ],
  "bytecode": {
    "object": "0x60c060405260096080819052685969656c642059616b60b81b60a09081526200002c916000919062000a79565b506040805180820190915260038082526216549560ea1b6020909201918252620000599160019162000a79565b503480156200006757600080fd5b50604051620055e3380380620055e38339810160408190526200008a9162000be4565b600680546001600160a01b031916339081179091556040518291908190600090600080516020620055a3833981519152908290a3508051620000cc9062000217565b6020810151620000dc90620002a7565b6040810151620000ec906200035e565b5060016012558951620001079060009060208d019062000a79565b50601380546001600160a01b03808c166001600160a01b031992831617909255601480548b841690831617905560158054928a169282169290921790915560168054821673b31f66aa3c1e785363f0875a1b74e27b85fd66c7908117909155600a8054909216179055601a849055620001868383601891909155601955565b600b80546001600160a01b03191633179055620001a262000415565b620001ad86620004e7565b620001b7620007f5565b620001c36001620008bd565b620001ce8562000967565b60408051600080825260208201527fc7606d21ac05cd309191543e409f0845c016120563783d70e4f41419dc0ef234910160405180910390a15050505050505050505062000eed565b6006546001600160a01b03163314620002665760405162461bcd60e51b815260206004820181905260248201526000805160206200558383398151915260448201526064015b60405180910390fd5b600c5460408051918252602082018390527f481f79ac3a523b6d6db3c5a720e190e986d1cc1b41adcdf50f9caef849901100910160405180910390a1600c55565b6006546001600160a01b03163314620002f25760405162461bcd60e51b815260206004820181905260248201526000805160206200558383398151915260448201526064016200025d565b612710620003116010548362000a6460201b620020661790919060201c565b11156200031d57600080fd5b60115460408051918252602082018390527f2a42303d002f0ba6cfe8259c91d4684443fb0b3de286ba74991175d651726131910160405180910390a1601155565b6006546001600160a01b03163314620003a95760405162461bcd60e51b815260206004820181905260248201526000805160206200558383398151915260448201526064016200025d565b612710620003c86011548362000a6460201b620020661790919060201c565b1115620003d457600080fd5b60105460408051918252602082018390527fe7f97d51d307dc44045597c9978bec0f842e6bb40d19b9444084cfa30d9ed4f2910160405180910390a1601055565b60408051600180825281830190925260009160208083019080368337505060145482519293506001600160a01b0316918391506000906200045a576200045a62000d33565b6001600160a01b039283166020918202929092010152601354604051631853304760e31b815291169063c2998238906200049990849060040162000d49565b6000604051808303816000875af1158015620004b9573d6000803e3d6000fd5b505050506040513d6000823e601f3d908101601f19168201604052620004e3919081019062000d98565b5050565b6001600160a01b038116620005515760405162461bcd60e51b815260206004820152602960248201527f5377617020706169722030206973206e656365737361727920627574206e6f74604482015268081cdd5c1c1b1a595960ba1b60648201526084016200025d565b806001600160a01b0316630dfe16816040518163ffffffff1660e01b8152600401602060405180830381865afa15801562000590573d6000803e3d6000fd5b505050506040513d601f19601f82011682018060405250810190620005b6919062000e48565b6015546001600160a01b0390811691161480620006455750806001600160a01b031663d21220a76040518163ffffffff1660e01b8152600401602060405180830381865afa1580156200060d573d6000803e3d6000fd5b505050506040513d601f19601f8201168201806040525081019062000633919062000e48565b6015546001600160a01b039081169116145b620006925760405162461bcd60e51b81526020600482015260276024820152600080516020620055c3833981519152604482015266064546f6b656e360cc1b60648201526084016200025d565b806001600160a01b0316630dfe16816040518163ffffffff1660e01b8152600401602060405180830381865afa158015620006d1573d6000803e3d6000fd5b505050506040513d601f19601f82011682018060405250810190620006f7919062000e48565b6016546001600160a01b0390811691161480620007865750806001600160a01b031663d21220a76040518163ffffffff1660e01b8152600401602060405180830381865afa1580156200074e573d6000803e3d6000fd5b505050506040513d601f19601f8201168201806040525081019062000774919062000e48565b6016546001600160a01b039081169116145b620007d35760405162461bcd60e51b81526020600482015260276024820152600080516020620055c383398151915260448201526664546f6b656e3160c81b60648201526084016200025d565b601780546001600160a01b0319166001600160a01b0392909216919091179055565b6006546001600160a01b03163314620008405760405162461bcd60e51b815260206004820181905260248201526000805160206200558383398151915260448201526064016200025d565b60145460405163095ea7b360e01b81526001600160a01b039091166004820181905260001960248301529063095ea7b3906044016020604051808303816000875af115801562000894573d6000803e3d6000fd5b505050506040513d601f19601f82011682018060405250810190620008ba919062000e66565b50565b6006546001600160a01b03163314620009085760405162461bcd60e51b815260206004820181905260248201526000805160206200558383398151915260448201526064016200025d565b600e5481151560ff9091161515036200092057600080fd5b600e805460ff19168215159081179091556040519081527f7b014ed3854e7f5cb0218d58b3c6ae7d53a68bb0af2f67bfb029ea42c38a7e859060200160405180910390a150565b6006546001600160a01b03163314620009b25760405162461bcd60e51b815260206004820181905260248201526000805160206200558383398151915260448201526064016200025d565b6001600160a01b03811662000a195760405162461bcd60e51b815260206004820152602660248201527f4f776e61626c653a206e6577206f776e657220697320746865207a65726f206160448201526564647265737360d01b60648201526084016200025d565b6006546040516001600160a01b03808416921690600080516020620055a383398151915290600090a3600680546001600160a01b0319166001600160a01b0392909216919091179055565b600062000a72828462000e8a565b9392505050565b82805462000a879062000eb1565b90600052602060002090601f01602090048101928262000aab576000855562000af6565b82601f1062000ac657805160ff191683800117855562000af6565b8280016001018555821562000af6579182015b8281111562000af657825182559160200191906001019062000ad9565b5062000b0492915062000b08565b5090565b5b8082111562000b04576000815560010162000b09565b634e487b7160e01b600052604160045260246000fd5b604051601f8201601f191681016001600160401b038111828210171562000b605762000b6062000b1f565b604052919050565b80516001600160a01b038116811462000b8057600080fd5b919050565b60006060828403121562000b9857600080fd5b604051606081016001600160401b038111828210171562000bbd5762000bbd62000b1f565b80604052508091508251815260208301516020820152604083015160408201525092915050565b6000806000806000806000806000806101808b8d03121562000c0557600080fd5b8a516001600160401b038082111562000c1d57600080fd5b818d0191508d601f83011262000c3257600080fd5b81518181111562000c475762000c4762000b1f565b6020915062000c5f601f8201601f1916830162000b35565b8181528f8383860101111562000c7457600080fd5b60005b8281101562000c9457848101840151828201850152830162000c77565b8281111562000ca65760008484840101525b509c5062000cb890508d820162000b68565b9a50505062000cca60408c0162000b68565b975062000cda60608c0162000b68565b965062000cea60808c0162000b68565b955062000cfa60a08c0162000b68565b945060c08b0151935060e08b015192506101008b0151915062000d228c6101208d0162000b85565b90509295989b9194979a5092959850565b634e487b7160e01b600052603260045260246000fd5b6020808252825182820181905260009190848201906040850190845b8181101562000d8c5783516001600160a01b03168352928401929184019160010162000d65565b50909695505050505050565b6000602080838503121562000dac57600080fd5b82516001600160401b038082111562000dc457600080fd5b818501915085601f83011262000dd957600080fd5b81518181111562000dee5762000dee62000b1f565b8060051b915062000e0184830162000b35565b818152918301840191848101908884111562000e1c57600080fd5b938501935b8385101562000e3c5784518252938501939085019062000e21565b98975050505050505050565b60006020828403121562000e5b57600080fd5b62000a728262000b68565b60006020828403121562000e7957600080fd5b8151801515811462000a7257600080fd5b6000821982111562000eac57634e487b7160e01b600052601160045260246000fd5b500190565b600181811c9082168062000ec657607f821691505b60208210810362000ee757634e487b7160e01b600052602260045260246000fd5b50919050565b6146868062000efd6000396000f3fe6080604052600436106103905760003560e01c80638da5cb5b116101dc578063c89039c511610102578063dd62ed3e116100a0578063ed24911d1161006f578063ed24911d14610a72578063f2fde38b14610a87578063f7c618c114610aa7578063fdb5a03e14610ac757600080fd5b8063dd62ed3e146109cc578063dd8ce4d614610a12578063e21ac82514610a32578063eab89a5a14610a5257600080fd5b8063d505accf116100dc578063d505accf14610962578063da09c72c14610982578063db8dd95c146109a2578063dbd9a4d4146109b757600080fd5b8063c89039c51461091a578063cff1b6ef1461093a578063d0e30db01461095a57600080fd5b8063a9059cbb1161017a578063b6b55f2511610149578063b6b55f25146108bf578063b9e57b80146108da578063bd079f55146108ef578063c4b24a461461090557600080fd5b8063a9059cbb14610852578063aa67c91914610872578063ac0d31ff14610885578063b52a321f146108a557600080fd5b806399729ec1116101b657806399729ec1146107be5780639e4e7318146107de578063a24159d314610812578063a8ae2b7c1461083257600080fd5b80638da5cb5b146107575780639291d5631461078957806395d89b41146107a957600080fd5b80634bebd1e7116102c1578063789139bc1161025f578063818372301161022e57806381837230146106e15780638980f11f146107015780638aff733d146107215780638b73e6061461073757600080fd5b8063789139bc146106695780637ae267731461067f5780637d8820971461069f5780637ecebe00146106b457600080fd5b80635b53ce101161029b5780635b53ce10146105f35780635ea682ea1461060857806370a082311461061e578063715018a61461065457600080fd5b80634bebd1e7146105935780634e77ace5146105b35780634ebb7916146105d357600080fd5b80632e1a7d4d1161032e578063313ce56711610308578063313ce5671461050b5780633bdc6e7214610532578063483c2ef0146105485780634a970be71461057857600080fd5b80632e1a7d4d1461049a5780632f4f21e2146104bc57806330adf81f146104d757600080fd5b80630f23475d1161036a5780630f23475d1461041b57806318160ddd1461043057806320606b701461044657806323b872dd1461047a57600080fd5b806306fdde031461039c57806307677111146103c7578063095ea7b3146103eb57600080fd5b3661039757005b600080fd5b3480156103a857600080fd5b506103b1610adc565b6040516103be9190613fcb565b60405180910390f35b3480156103d357600080fd5b506103dd600f5481565b6040519081526020016103be565b3480156103f757600080fd5b5061040b610406366004613ff3565b610b6a565b60405190151581526020016103be565b34801561042757600080fd5b506103dd610b80565b34801561043c57600080fd5b506103dd60025481565b34801561045257600080fd5b506103dd7f8b73c3c69bb8fe3d512ecc4cf759cc79239f7b179b0ffacaa9a75d522b39400f81565b34801561048657600080fd5b5061040b61049536600461401f565b610b8f565b3480156104a657600080fd5b506104ba6104b5366004614060565b610c73565b005b3480156104c857600080fd5b506104ba610397366004613ff3565b3480156104e357600080fd5b506103dd7f6e71edae12b1b97f4d1f60370fef10105fa2faae0126114a169c64845d6126c981565b34801561051757600080fd5b50610520601281565b60405160ff90911681526020016103be565b34801561053e57600080fd5b506103dd60075481565b34801561055457600080fd5b5061040b610563366004614079565b60086020526000908152604090205460ff1681565b34801561058457600080fd5b506104ba6103973660046140ac565b34801561059f57600080fd5b506104ba6105ae366004614079565b610e0d565b3480156105bf57600080fd5b506104ba6105ce366004614101565b610f0c565b3480156105df57600080fd5b506104ba6105ee366004614060565b610f95565b3480156105ff57600080fd5b506104ba611031565b34801561061457600080fd5b506103dd60115481565b34801561062a57600080fd5b506103dd610639366004614079565b6001600160a01b031660009081526004602052604090205490565b34801561066057600080fd5b506104ba6110ba565b34801561067557600080fd5b506103dd600d5481565b34801561068b57600080fd5b506104ba61069a36600461411e565b61112e565b3480156106ab57600080fd5b506103dd6111d8565b3480156106c057600080fd5b506103dd6106cf366004614079565b60056020526000908152604090205481565b3480156106ed57600080fd5b506104ba6106fc366004614060565b61127e565b34801561070d57600080fd5b506104ba61071c366004613ff3565b6112e9565b34801561072d57600080fd5b506103dd60105481565b34801561074357600080fd5b506104ba610752366004614079565b6113e0565b34801561076357600080fd5b506006546001600160a01b03165b6040516001600160a01b0390911681526020016103be565b34801561079557600080fd5b506104ba6107a4366004614079565b611561565b3480156107b557600080fd5b506103b161161b565b3480156107ca57600080fd5b506104ba6107d9366004614060565b611628565b3480156107ea57600080fd5b506103dd7fc89efdaa54c0f20c7adf612882df0950f5a951637e0307cdcb4c672f298b8bc681565b34801561081e57600080fd5b506104ba61082d366004614157565b6116b6565b34801561083e57600080fd5b506104ba61084d366004614060565b611737565b34801561085e57600080fd5b5061040b61086d366004613ff3565b6117c5565b6104ba610880366004614079565b6117d2565b34801561089157600080fd5b506104ba6108a0366004614179565b61180b565b3480156108b157600080fd5b50600e5461040b9060ff1681565b3480156108cb57600080fd5b506104ba610397366004614060565b3480156108e657600080fd5b506103dd61199e565b3480156108fb57600080fd5b506103dd600c5481565b34801561091157600080fd5b506103dd6119dd565b34801561092657600080fd5b50600954610771906001600160a01b031681565b34801561094657600080fd5b506104ba610955366004614060565b6119f0565b6104ba611a66565b34801561096e57600080fd5b506104ba61097d36600461419e565b611a9e565b34801561098e57600080fd5b50600b54610771906001600160a01b031681565b3480156109ae57600080fd5b506103dd611ba3565b3480156109c357600080fd5b506104ba611c63565b3480156109d857600080fd5b506103dd6109e736600461411e565b6001600160a01b03918216600090815260036020908152604080832093909416825291909152205490565b348015610a1e57600080fd5b506103dd610a2d366004614060565b611d07565b348015610a3e57600080fd5b506104ba610a4d366004614060565b611d47565b348015610a5e57600080fd5b506103dd610a6d366004614060565b611db2565b348015610a7e57600080fd5b506103dd611de6565b348015610a9357600080fd5b506104ba610aa2366004614079565b611e86565b348015610ab357600080fd5b50600a54610771906001600160a01b031681565b348015610ad357600080fd5b506104ba611f71565b60008054610ae99061420c565b80601f0160208091040260200160405190810160405280929190818152602001828054610b159061420c565b8015610b625780601f10610b3757610100808354040283529160200191610b62565b820191906000526020600020905b815481529060010190602001808311610b4557829003601f168201915b505050505081565b6000610b77338484612072565b50600192915050565b6000610b8a6111d8565b905090565b6001600160a01b038316600081815260036020908152604080832033808552925282205491929091908214801590610bc957506000198114155b15610c5a576000610bf5856040518060600160405280602f81526020016145cd602f9139849190612180565b6001600160a01b038881166000818152600360209081526040808320948916808452948252918290208590559051848152939450919290917f8c5be1e5ebec7d5bd14f71427d1e84f3dd0314c0f7b2291e5b200ac8c7c3b925910160405180910390a3505b610c658686866121ac565b6001925050505b9392505050565b6000610c93600254610c8d84610c876122df565b906123d9565b906123e5565b9050601a548111610d055760405162461bcd60e51b815260206004820152603160248201527f4a6f654c656e64696e6753747261746567794176617856323a3a2062656c6f77604482015270206d696e696d756d20776974686472617760781b60648201526084015b60405180910390fd5b610d0f33836123f1565b610d18816124c7565b604051600090339083908381818185875af1925050503d8060008114610d5a576040519150601f19603f3d011682016040523d82523d6000602084013e610d5f565b606091505b5050905080610dcb5760405162461bcd60e51b815260206004820152603260248201527f4a6f654c656e64696e6753747261746567794176617856323a3a776974686472604482015271185dc81d1c985b9cd9995c8819985a5b195960721b6064820152608401610cfc565b60405182815233907f884edad9ce6fa2440d8a54cc123490eb96d2768479d49ff9c7366125a94243649060200160405180910390a2610e08611031565b505050565b6006546001600160a01b03163314610e375760405162461bcd60e51b8152600401610cfc90614246565b6001600160a01b03811660009081526008602052604090205460ff1615610ea05760405162461bcd60e51b815260206004820152601c60248201527f5065726d697373696f6e65643a3a616c6c6f774465706f7369746f72000000006044820152606401610cfc565b6001600160a01b0381166000908152600860205260409020805460ff19166001908117909155600754610ed291612066565b6007556040516001600160a01b038216907fc0a1035c16faf8d1304056d92c00edf028f87e62b8235a938f00af9e3c0312c590600090a250565b6006546001600160a01b03163314610f365760405162461bcd60e51b8152600401610cfc90614246565b600e5481151560ff909116151503610f4d57600080fd5b600e805460ff19168215159081179091556040519081527f7b014ed3854e7f5cb0218d58b3c6ae7d53a68bb0af2f67bfb029ea42c38a7e85906020015b60405180910390a150565b6006546001600160a01b03163314610fbf5760405162461bcd60e51b8152600401610cfc90614246565b60008111610fcc57600080fd5b604051339082156108fc029083906000818181858888f19350505050158015610ff9573d6000803e3d6000fd5b506040805160008152602081018390527f8c1256b8896378cd5044f80c202f9772b9d77dc85c8a6eb51967210b09bfaa289101610f8a565b600e5460ff1615156001036110b857600c5461104e600130612691565b106110b857601354604051630952c56360e01b8152600160048201523060248201526001600160a01b0390911690630952c56390604401600060405180830381600087803b15801561109f57600080fd5b505af11580156110b3573d6000803e3d6000fd5b505050505b565b6006546001600160a01b031633146110e45760405162461bcd60e51b8152600401610cfc90614246565b6006546040516000916001600160a01b0316907f8be0079c531659141344cd1fd0a4f28419497f9722a3daafe3b4186f6b6457e0908390a3600680546001600160a01b0319169055565b6006546001600160a01b031633146111585760405162461bcd60e51b8152600401610cfc90614246565b60405163095ea7b360e01b81526001600160a01b0382811660048301526000602483015283169063095ea7b3906044016020604051808303816000875af11580156111a7573d6000803e3d6000fd5b505050506040513d601f19601f820116820180604052508101906111cb919061427b565b6111d457600080fd5b5050565b6014546040516361bfb47160e11b81523060048201526000918291829182916001600160a01b039091169063c37f68e290602401608060405180830381865afa158015611229573d6000803e3d6000fd5b505050506040513d601f19601f8201168201806040525081019061124d9190614298565b91955093509150611276905082611270670de0b6b3a7640000610c8d87866123d9565b90612a94565b935050505090565b6006546001600160a01b031633146112a85760405162461bcd60e51b8152600401610cfc90614246565b600c5460408051918252602082018390527f481f79ac3a523b6d6db3c5a720e190e986d1cc1b41adcdf50f9caef849901100910160405180910390a1600c55565b6006546001600160a01b031633146113135760405162461bcd60e51b8152600401610cfc90614246565b6000811161132057600080fd5b60405163a9059cbb60e01b8152336004820152602481018290526001600160a01b0383169063a9059cbb906044016020604051808303816000875af115801561136d573d6000803e3d6000fd5b505050506040513d601f19601f82011682018060405250810190611391919061427b565b61139a57600080fd5b604080516001600160a01b0384168152602081018390527f8c1256b8896378cd5044f80c202f9772b9d77dc85c8a6eb51967210b09bfaa28910160405180910390a15050565b6006546001600160a01b0316331461140a5760405162461bcd60e51b8152600401610cfc90614246565b6000600754116114795760405162461bcd60e51b815260206004820152603460248201527f5065726d697373696f6e65643a3a72656d6f76654465706f7369746f722c206e6044820152736f20616c6c6f776564206465706f7369746f727360601b6064820152608401610cfc565b6001600160a01b03811660009081526008602052604090205460ff1615156001146114f95760405162461bcd60e51b815260206004820152602a60248201527f5065726d697373696f6e65643a3a72656d6f76654465706f7369746f722c206e6044820152691bdd08185b1b1bddd95960b21b6064820152608401610cfc565b6001600160a01b0381166000908152600860205260409020805460ff19169055600754611527906001612a94565b6007556040516001600160a01b038216907f0e86f6608b536e5339a25b65ff531f5ea91e1313d056ecd4752b35cbd16137d490600090a250565b600b546001600160a01b031633146115b25760405162461bcd60e51b81526020600482015260146024820152732cb0b5a9ba3930ba32b3bc9d1d37b7363ca232bb60611b6044820152606401610cfc565b600b54604080516001600160a01b03928316815291831660208301527fa8e91499ed37682f43cffb045fcc7d379a91e8c9a14e6321877ee34dee564c00910160405180910390a1600b80546001600160a01b0319166001600160a01b0392909216919091179055565b60018054610ae99061420c565b6006546001600160a01b031633146116525760405162461bcd60e51b8152600401610cfc90614246565b61271061166a6010548361206690919063ffffffff16565b111561167557600080fd5b60115460408051918252602082018390527f2a42303d002f0ba6cfe8259c91d4684443fb0b3de286ba74991175d651726131910160405180910390a1601155565b600b546001600160a01b031633146117075760405162461bcd60e51b81526020600482015260146024820152732cb0b5a9ba3930ba32b3bc9d1d37b7363ca232bb60611b6044820152606401610cfc565b60188290556019819055600061171b6122df565b905061172681612aa0565b8015610e0857610e08816000612e50565b6006546001600160a01b031633146117615760405162461bcd60e51b8152600401610cfc90614246565b6127106117796011548361206690919063ffffffff16565b111561178457600080fd5b60105460408051918252602082018390527fe7f97d51d307dc44045597c9978bec0f842e6bb40d19b9444084cfa30d9ed4f2910160405180910390a1601055565b6000610b773384846121ac565b6002601254036117f45760405162461bcd60e51b8152600401610cfc906142ce565b600260125561180381346130f8565b506001601255565b6006546001600160a01b031633146118355760405162461bcd60e51b8152600401610cfc90614246565b4760006118406122df565b905061184b81612aa0565b60145460405163852a12e360e01b8152600481018390526001600160a01b039091169063852a12e3906024016020604051808303816000875af1158015611896573d6000803e3d6000fd5b505050506040513d601f19601f820116820180604052508101906118ba9190614305565b5047846118c78285612a94565b101561192b5760405162461bcd60e51b815260206004820152602d60248201527f4a6f654c656e64696e6753747261746567794176617856323a3a72657363756560448201526c4465706c6f79656446756e647360981b6064820152608401610cfc565b7fc7606d21ac05cd309191543e409f0845c016120563783d70e4f41419dc0ef2346119546111d8565b6002546040805192835260208301919091520160405180910390a1600e5460ff161515600114801561198857506001841515145b15611997576119976000610f0c565b5050505050565b6000806119a96119dd565b9050600c5481106119d5576119cf612710610c8d601054846123d990919063ffffffff16565b91505090565b600091505090565b6000806119e86132b0565b949350505050565b6006546001600160a01b03163314611a1a5760405162461bcd60e51b8152600401610cfc90614246565b8015611a2557600080fd5b600f5460408051918252602082018390527f3cc372f330f95ac9540626dc8a25f5bf21ba607215a5d58304cb804d446f104a910160405180910390a1600f55565b600260125403611a885760405162461bcd60e51b8152600401610cfc906142ce565b6002601255611a9733346130f8565b6001601255565b42841015611ae05760405162461bcd60e51b815260206004820152600f60248201526e1c195c9b5a5d0e8e995e1c1a5c9959608a1b6044820152606401610cfc565b6001600160a01b038716600090815260056020526040812080547f6e71edae12b1b97f4d1f60370fef10105fa2faae0126114a169c64845d6126c9918a918a918a919086611b2d83614334565b909155506040805160208101969096526001600160a01b0394851690860152929091166060840152608083015260a082015260c0810186905260e001604051602081830303815290604052805190602001209050611b8e8882868686613308565b611b99888888612072565b5050505050505050565b6014546040516361bfb47160e11b81523060048201526000918291829182916001600160a01b039091169063c37f68e290602401608060405180830381865afa158015611bf4573d6000803e3d6000fd5b505050506040513d601f19601f82011682018060405250810190611c189190614298565b9195509350915060009050611c39670de0b6b3a7640000610c8d86856123d9565b9050611c5a611c488285612a94565b610c8d83670de0b6b3a76400006123d9565b94505050505090565b6006546001600160a01b03163314611c8d5760405162461bcd60e51b8152600401610cfc90614246565b60145460405163095ea7b360e01b81526001600160a01b039091166004820181905260001960248301529063095ea7b3906044016020604051808303816000875af1158015611ce0573d6000803e3d6000fd5b505050506040513d601f19601f82011682018060405250810190611d04919061427b565b50565b6000611d1d611d146111d8565b600254906123d9565b600003611d28575090565b611d41611d336111d8565b600254610c8d9085906123d9565b92915050565b6006546001600160a01b03163314611d715760405162461bcd60e51b8152600401610cfc90614246565b600d5460408051918252602082018390527fa5dae50539d56dfe1fb5273d883b0c39bc76750a25d036fc5fbd09ad8fd5f57f910160405180910390a1600d55565b6000611dbf611d146111d8565b600003611dce57506000919050565b611d41600254610c8d611ddf6111d8565b85906123d9565b60007f8b73c3c69bb8fe3d512ecc4cf759cc79239f7b179b0ffacaa9a75d522b39400f60001b6000604051611e1b919061434d565b6040519081900390207fc89efdaa54c0f20c7adf612882df0950f5a951637e0307cdcb4c672f298b8bc646604080516020810195909552840192909252606083015260808201523060a082015260c00160405160208183030381529060405280519060200120905090565b6006546001600160a01b03163314611eb05760405162461bcd60e51b8152600401610cfc90614246565b6001600160a01b038116611f155760405162461bcd60e51b815260206004820152602660248201527f4f776e61626c653a206e6577206f776e657220697320746865207a65726f206160448201526564647265737360d01b6064820152608401610cfc565b6006546040516001600160a01b038084169216907f8be0079c531659141344cd1fd0a4f28419497f9722a3daafe3b4186f6b6457e090600090a3600680546001600160a01b0319166001600160a01b0392909216919091179055565b323314611fb75760405162461bcd60e51b815260206004820152601460248201527359616b53747261746567793a3a6f6e6c79454f4160601b6044820152606401610cfc565b600260125403611fd95760405162461bcd60e51b8152600401610cfc906142ce565b6002601255600080611fe96132b0565b9250509150600c5481101561204b5760405162461bcd60e51b815260206004820152602260248201527f4a6f654c656e64696e6753747261746567794176617856323a3a7265696e76656044820152611cdd60f21b6064820152608401610cfc565b612055828261342b565b61205d611031565b50506001601255565b6000610c6c82846143e8565b6001600160a01b0383166120c85760405162461bcd60e51b815260206004820152601c60248201527f5f617070726f76653a3a6f776e6572207a65726f2061646472657373000000006044820152606401610cfc565b6001600160a01b03821661211e5760405162461bcd60e51b815260206004820152601e60248201527f5f617070726f76653a3a7370656e646572207a65726f206164647265737300006044820152606401610cfc565b6001600160a01b0383811660008181526003602090815260408083209487168084529482529182902085905590518481527f8c5be1e5ebec7d5bd14f71427d1e84f3dd0314c0f7b2291e5b200ac8c7c3b92591015b60405180910390a3505050565b600081848411156121a45760405162461bcd60e51b8152600401610cfc9190613fcb565b505050900390565b6001600160a01b03821661221f5760405162461bcd60e51b815260206004820152603460248201527f5f7472616e73666572546f6b656e733a2063616e6e6f74207472616e7366657260448201527320746f20746865207a65726f206164647265737360601b6064820152608401610cfc565b61225c816040518060600160405280602e8152602001614623602e91396001600160a01b0386166000908152600460205260409020549190612180565b6001600160a01b03808516600090815260046020526040808220939093559084168152205461228b9082612066565b6001600160a01b0380841660008181526004602052604090819020939093559151908516907fddf252ad1be2c89b69c2b068fc378daa952ba7f163c4a11628f55a4df523b3ef906121739085815260200190565b6014546040516305eff7ef60e21b815230600482015260009182916001600160a01b03909116906317bfdfbc906024016020604051808303816000875af115801561232e573d6000803e3d6000fd5b505050506040513d601f19601f820116820180604052508101906123529190614305565b601454604051633af9e66960e01b81523060048201529192506000916001600160a01b0390911690633af9e669906024016020604051808303816000875af11580156123a2573d6000803e3d6000fd5b505050506040513d601f19601f820116820180604052508101906123c69190614305565b90506123d28183612a94565b9250505090565b6000610c6c8284614400565b6000610c6c828461441f565b61242e816040518060600160405280602781526020016145fc602791396001600160a01b0385166000908152600460205260409020549190612180565b60046000846001600160a01b03166001600160a01b031681526020019081526020016000208190555061247e816040518060600160405280602781526020016145a6602791396002549190612180565b6002556040518181526000906001600160a01b038416907fddf252ad1be2c89b69c2b068fc378daa952ba7f163c4a11628f55a4df523b3ef906020015b60405180910390a35050565b6124d081612aa0565b6014546040516337fdd92160e21b8152600481018390526001600160a01b039091169063dff76484906024016020604051808303816000875af115801561251b573d6000803e3d6000fd5b505050506040513d601f19601f8201168201806040525081019061253f9190614305565b1561259c5760405162461bcd60e51b815260206004820152602760248201527f4a6f654c656e64696e6753747261746567794176617856323a3a72656465656d6044820152660819985a5b195960ca1b6064820152608401610cfc565b601454604051633af9e66960e01b81523060048201526000916001600160a01b031690633af9e669906024016020604051808303816000875af11580156125e7573d6000803e3d6000fd5b505050506040513d601f19601f8201168201806040525081019061260b9190614305565b6014546040516305eff7ef60e21b81523060048201529192506000916001600160a01b03909116906317bfdfbc906024016020604051808303816000875af115801561265b573d6000803e3d6000fd5b505050506040513d601f19601f8201168201806040525081019061267f9190614305565b90508115610e0857610e088282612e50565b600080601360009054906101000a90046001600160a01b03166001600160a01b031663acc2166a6040518163ffffffff1660e01b8152600401602060405180830381865afa1580156126e7573d6000803e3d6000fd5b505050506040513d601f19601f8201168201806040525081019061270b9190614441565b60405163d81c5e4560e01b815260ff861660048201526001600160a01b03858116602483015291925060009183169063d81c5e45906044016040805180830381865afa15801561275f573d6000803e3d6000fd5b505050506040513d601f19601f820116820180604052508101906127839190614472565b5060145460405163111d2e5760e31b815260ff881660048201526001600160a01b0391821660248201528682166044820152919250600091908416906388e972b890606401602060405180830381865afa1580156127e5573d6000803e3d6000fd5b505050506040513d601f19601f820116820180604052508101906128099190614305565b9050600081836001600160e01b0316111561283457612831826001600160e01b0385166144b3565b90505b6040516312ce829d60e21b815260ff881660048201526001600160a01b03878116602483015260009190861690634b3a0a74906044016040805180830381865afa158015612886573d6000803e3d6000fd5b505050506040513d601f19601f820116820180604052508101906128aa9190614472565b50601454604051637937969d60e01b815260ff8b1660048201526001600160a01b039182166024820152898216604482015291925060009190871690637937969d90606401602060405180830381865afa15801561290c573d6000803e3d6000fd5b505050506040513d601f19601f820116820180604052508101906129309190614305565b9050600081836001600160e01b0316111561295b57612958826001600160e01b0385166144b3565b90505b6014546040516395dd919360e01b81526001600160a01b038b81166004830152612a8692612a0d926129d692869216906395dd9193906024015b602060405180830381865afa1580156129b2573d6000803e3d6000fd5b505050506040513d601f19601f82011682018060405250810190610c879190614305565b6014546040516370a0823160e01b81526001600160a01b038e81166004830152611270928a929116906370a0823190602401612995565b6040516305b9783d60e01b815260ff8d1660048201526001600160a01b038c811660248301528a16906305b9783d90604401602060405180830381865afa158015612a5c573d6000803e3d6000fd5b505050506040513d601f19601f82011682018060405250810190612a809190614305565b90612066565b9a9950505050505050505050565b6000610c6c82846144b3565b6014546040516305eff7ef60e21b81523060048201526000916001600160a01b0316906317bfdfbc906024016020604051808303816000875af1158015612aeb573d6000803e3d6000fd5b505050506040513d601f19601f82011682018060405250810190612b0f9190614305565b601454604051633af9e66960e01b81523060048201529192506000916001600160a01b0390911690633af9e669906024016020604051808303816000875af1158015612b5f573d6000803e3d6000fd5b505050506040513d601f19601f82011682018060405250810190612b839190614305565b9050600080612b90613684565b90925090506000612bcb612ba8876112708789612a94565b611270601954610c8d601854610c878c6112708d8d612a9490919063ffffffff16565b90506000612bd98683612a94565b90505b8015612e47576000612bf08688878761370c565b905086811115612bfd5750855b6014546040516337fdd92160e21b8152600481018390526001600160a01b039091169063dff76484906024016020604051808303816000875af1158015612c48573d6000803e3d6000fd5b505050506040513d601f19601f82011682018060405250810190612c6c9190614305565b15612ccc5760405162461bcd60e51b815260206004820152602a60248201527f4a6f654c656e64696e6753747261746567794176617856323a3a6661696c656460448201526920746f2072656465656d60b01b6064820152608401610cfc565b601460009054906101000a90046001600160a01b03166001600160a01b0316638d3f9c62826040518263ffffffff1660e01b815260040160206040518083038185885af1158015612d21573d6000803e3d6000fd5b50505050506040513d601f19601f82011682018060405250810190612d469190614305565b15612dac5760405162461bcd60e51b815260206004820152603060248201527f4a6f654c656e64696e6753747261746567794176617856323a3a6661696c656460448201526f20746f20726570617920626f72726f7760801b6064820152608401610cfc565b601454604051633af9e66960e01b81523060048201526001600160a01b0390911690633af9e669906024016020604051808303816000875af1158015612df6573d6000803e3d6000fd5b505050506040513d601f19601f82011682018060405250810190612e1a9190614305565b9550612e268782612a94565b9650868310612e355750612e47565b612e3f8784612a94565b915050612bdc565b50505050505050565b600080612e5b613684565b9150915060008490506000612e85601954610c8d601854610c87898b612a9490919063ffffffff16565b9050845b81831015612e47576000612e9f8483888861370c565b905082612eac8583612066565b1115612ebf57612ebc8385612a94565b90505b601a54811015612ecf5750612e47565b60145460405163884b934360e01b8152600481018390526001600160a01b039091169063884b9343906024016020604051808303816000875af1158015612f1a573d6000803e3d6000fd5b505050506040513d601f19601f82011682018060405250810190612f3e9190614305565b15612f9e5760405162461bcd60e51b815260206004820152602a60248201527f4a6f654c656e64696e6753747261746567794176617856323a3a626f72726f776044820152691a5b99c819985a5b195960b21b6064820152608401610cfc565b601460009054906101000a90046001600160a01b03166001600160a01b031663219f2fe7826040518263ffffffff1660e01b815260040160206040518083038185885af1158015612ff3573d6000803e3d6000fd5b50505050506040513d601f19601f820116820180604052508101906130189190614305565b156130765760405162461bcd60e51b815260206004820152602860248201527f4a6f654c656e64696e6753747261746567794176617856323a3a6c656e64696e60448201526719c819985a5b195960c21b6064820152608401610cfc565b601454604051633af9e66960e01b81523060048201526001600160a01b0390911690633af9e669906024016020604051808303816000875af11580156130c0573d6000803e3d6000fd5b505050506040513d601f19601f820116820180604052508101906130e49190614305565b93506130f08282612066565b915050612e89565b6007541561317b573360009081526008602052604090205460ff16151560011461317b5760405162461bcd60e51b815260206004820152602e60248201527f5065726d697373696f6e65643a3a6f6e6c79416c6c6f7765644465706f73697460448201526d1ccb081b9bdd08185b1b1bddd95960921b6064820152608401610cfc565b600e5460ff1615156001146131dd5760405162461bcd60e51b815260206004820152602260248201527f4a6f654c656e64696e6753747261746567794176617856323a3a5f6465706f736044820152611a5d60f21b6064820152608401610cfc565b600d541561320c576000806131f06132b0565b9250509150600d5481111561320957613209828261342b565b50505b8060006132176122df565b90506000613230826002546123d990919063ffffffff16565b11156132525761324f81610c8d600254866123d990919063ffffffff16565b91505b61325c8483613733565b613265836137b7565b836001600160a01b03167fe1fffcc4923d04b559f4d29a8bfc6cda04eb5b0d3c460751c2402c5c5cc9109c846040516132a091815260200190565b60405180910390a26110b3611031565b60008060006132c0600030612691565b6015546016546017549295504794506000926132ee9287926001600160a01b039182169290821691166139e4565b905083836132fc8184612066565b93509350935050909192565b6000613312611de6565b60405161190160f01b602082015260228101919091526042810186905260620160408051601f198184030181528282528051602091820120600080855291840180845281905260ff88169284019290925260608301869052608083018590529092509060019060a0016020604051602081039080840390855afa15801561339d573d6000803e3d6000fd5b5050604051601f1901519150506001600160a01b038116158015906133d35750866001600160a01b0316816001600160a01b0316145b612e475760405162461bcd60e51b8152602060048201526024808201527f417263683a3a76616c69646174655369673a20696e76616c6964207369676e616044820152637475726560e01b6064820152608401610cfc565b811561352657601354604051630952c56360e01b8152600060048201523060248201526001600160a01b0390911690630952c56390604401600060405180830381600087803b15801561347d57600080fd5b505af1158015613491573d6000803e3d6000fd5b5050601554601654601754600094506134bc935086926001600160a01b039081169281169116613aa2565b604051632e1a7d4d60e01b81526004810182905290915073b31f66aa3c1e785363f0875a1b74e27b85fd66c790632e1a7d4d90602401600060405180830381600087803b15801561350c57600080fd5b505af1158015613520573d6000803e3d6000fd5b50505050505b6000613548612710610c8d611ddf60105460115461206690919063ffffffff16565b905073b31f66aa3c1e785363f0875a1b74e27b85fd66c76001600160a01b031663d0e30db0826040518263ffffffff1660e01b81526004016000604051808303818588803b15801561359957600080fd5b505af11580156135ad573d6000803e3d6000fd5b505050505060006135cf612710610c8d601154866123d990919063ffffffff16565b905080156135f457600a54600b546135f4916001600160a01b03908116911683613c13565b6000613611612710610c8d601054876123d990919063ffffffff16565b9050801561363057600a54613630906001600160a01b03163383613c13565b613639476137b7565b7fc7606d21ac05cd309191543e409f0845c016120563783d70e4f41419dc0ef2346136626111d8565b6002546040805192835260208301919091520160405180910390a15050505050565b601354601454604051638e8f294b60e01b81526001600160a01b03918216600482015260009283928392911690638e8f294b906024016040805180830381865afa1580156136d6573d6000803e3d6000fd5b505050506040513d601f19601f820116820180604052508101906136fa91906144ca565b94670de0b6b3a7640000945092505050565b600061372a6103e8610c8d6103b6610c878861127088858d8c6123d9565b95945050505050565b6002546137409082612066565b6002556001600160a01b0382166000908152600460205260409020546137669082612066565b6001600160a01b0383166000818152600460205260408082209390935591519091907fddf252ad1be2c89b69c2b068fc378daa952ba7f163c4a11628f55a4df523b3ef906124bb9085815260200190565b6000811161381d5760405162461bcd60e51b815260206004820152602d60248201527f4a6f654c656e64696e6753747261746567794176617856323a3a5f7374616b6560448201526c4465706f736974546f6b656e7360981b6064820152608401610cfc565b601460009054906101000a90046001600160a01b03166001600160a01b031663219f2fe7826040518263ffffffff1660e01b815260040160206040518083038185885af1158015613872573d6000803e3d6000fd5b50505050506040513d601f19601f820116820180604052508101906138979190614305565b156138f55760405162461bcd60e51b815260206004820152602860248201527f4a6f654c656e64696e6753747261746567794176617856323a3a4465706f73696044820152671d0819985a5b195960c21b6064820152608401610cfc565b6014546040516305eff7ef60e21b81523060048201526000916001600160a01b0316906317bfdfbc906024016020604051808303816000875af1158015613940573d6000803e3d6000fd5b505050506040513d601f19601f820116820180604052508101906139649190614305565b601454604051633af9e66960e01b81523060048201529192506000916001600160a01b0390911690633af9e669906024016020604051808303816000875af11580156139b4573d6000803e3d6000fd5b505050506040513d601f19601f820116820180604052508101906139d89190614305565b9050610e088183612e50565b6000806139f18585613ce9565b509050600080846001600160a01b0316630902f1ac6040518163ffffffff1660e01b8152600401606060405180830381865afa158015613a35573d6000803e3d6000fd5b505050506040513d601f19601f82011682018060405250810190613a59919061450f565b5091509150866001600160a01b0316836001600160a01b031614613a7957905b613a9688836001600160701b0316836001600160701b0316613d1a565b98975050505050505050565b600080613aaf8585613ce9565b509050600080846001600160a01b0316630902f1ac6040518163ffffffff1660e01b8152600401606060405180830381865afa158015613af3573d6000803e3d6000fd5b505050506040513d601f19601f82011682018060405250810190613b17919061450f565b5091509150866001600160a01b0316836001600160a01b031614613b3757905b600080613b578a856001600160701b0316856001600160701b0316613d1a565b9050886001600160a01b0316856001600160a01b031614613b7457905b613b886001600160a01b038a16888c613d62565b6040805160008152602081019182905263022c0d9f60e01b9091526001600160a01b0388169063022c0d9f90613bc79085908590309060248101614552565b600060405180830381600087803b158015613be157600080fd5b505af1158015613bf5573d6000803e3d6000fd5b50505050818111613c065781612a86565b9998505050505050505050565b60405163a9059cbb60e01b81526001600160a01b0383811660048301526024820183905284169063a9059cbb906044016020604051808303816000875af1158015613c62573d6000803e3d6000fd5b505050506040513d601f19601f82011682018060405250810190613c86919061427b565b610e085760405162461bcd60e51b815260206004820152602e60248201527f4a6f654c656e64696e6753747261746567794176617856323a3a5452414e534660448201526d115497d19493d357d1905253115160921b6064820152608401610cfc565b600080826001600160a01b0316846001600160a01b031610613d0c578284613d0f565b83835b915091509250929050565b600080613d29856103e56123d9565b90506000613d3782856123d9565b90506000613d4b83612a80886103e86123d9565b9050613d5782826123e5565b979650505050505050565b604080516001600160a01b03848116602483015260448083018590528351808403909101815260649092018352602080830180516001600160e01b031663a9059cbb60e01b17905283518085019094528084527f5361666545524332303a206c6f772d6c6576656c2063616c6c206661696c656490840152610e0892869291600091613df2918516908490613e6f565b805190915015610e085780806020019051810190613e10919061427b565b610e085760405162461bcd60e51b815260206004820152602a60248201527f5361666545524332303a204552433230206f7065726174696f6e20646964206e6044820152691bdd081cdd58d8d9595960b21b6064820152608401610cfc565b60606119e88484600085856001600160a01b0385163b613ed15760405162461bcd60e51b815260206004820152601d60248201527f416464726573733a2063616c6c20746f206e6f6e2d636f6e74726163740000006044820152606401610cfc565b600080866001600160a01b03168587604051613eed9190614589565b60006040518083038185875af1925050503d8060008114613f2a576040519150601f19603f3d011682016040523d82523d6000602084013e613f2f565b606091505b5091509150613d5782828660608315613f49575081610c6c565b825115613f595782518084602001fd5b8160405162461bcd60e51b8152600401610cfc9190613fcb565b60005b83811015613f8e578181015183820152602001613f76565b838111156110b35750506000910152565b60008151808452613fb7816020860160208601613f73565b601f01601f19169290920160200192915050565b602081526000610c6c6020830184613f9f565b6001600160a01b0381168114611d0457600080fd5b6000806040838503121561400657600080fd5b823561401181613fde565b946020939093013593505050565b60008060006060848603121561403457600080fd5b833561403f81613fde565b9250602084013561404f81613fde565b929592945050506040919091013590565b60006020828403121561407257600080fd5b5035919050565b60006020828403121561408b57600080fd5b8135610c6c81613fde565b803560ff811681146140a757600080fd5b919050565b600080600080600060a086880312156140c457600080fd5b85359450602086013593506140db60408701614096565b94979396509394606081013594506080013592915050565b8015158114611d0457600080fd5b60006020828403121561411357600080fd5b8135610c6c816140f3565b6000806040838503121561413157600080fd5b823561413c81613fde565b9150602083013561414c81613fde565b809150509250929050565b6000806040838503121561416a57600080fd5b50508035926020909101359150565b6000806040838503121561418c57600080fd5b82359150602083013561414c816140f3565b600080600080600080600060e0888a0312156141b957600080fd5b87356141c481613fde565b965060208801356141d481613fde565b955060408801359450606088013593506141f060808901614096565b925060a0880135915060c0880135905092959891949750929550565b600181811c9082168061422057607f821691505b60208210810361424057634e487b7160e01b600052602260045260246000fd5b50919050565b6020808252818101527f4f776e61626c653a2063616c6c6572206973206e6f7420746865206f776e6572604082015260600190565b60006020828403121561428d57600080fd5b8151610c6c816140f3565b600080600080608085870312156142ae57600080fd5b505082516020840151604085015160609095015191969095509092509050565b6020808252601f908201527f5265656e7472616e637947756172643a207265656e7472616e742063616c6c00604082015260600190565b60006020828403121561431757600080fd5b5051919050565b634e487b7160e01b600052601160045260246000fd5b6000600182016143465761434661431e565b5060010190565b600080835481600182811c91508083168061436957607f831692505b6020808410820361438857634e487b7160e01b86526022600452602486fd5b81801561439c57600181146143ad576143da565b60ff198616895284890196506143da565b60008a81526020902060005b868110156143d25781548b8201529085019083016143b9565b505084890196505b509498975050505050505050565b600082198211156143fb576143fb61431e565b500190565b600081600019048311821515161561441a5761441a61431e565b500290565b60008261443c57634e487b7160e01b600052601260045260246000fd5b500490565b60006020828403121561445357600080fd5b8151610c6c81613fde565b805163ffffffff811681146140a757600080fd5b6000806040838503121561448557600080fd5b82516001600160e01b038116811461449c57600080fd5b91506144aa6020840161445e565b90509250929050565b6000828210156144c5576144c561431e565b500390565b600080604083850312156144dd57600080fd5b82516144e8816140f3565b6020939093015192949293505050565b80516001600160701b03811681146140a757600080fd5b60008060006060848603121561452457600080fd5b61452d846144f8565b925061453b602085016144f8565b91506145496040850161445e565b90509250925092565b84815283602082015260018060a01b038316604082015260806060820152600061457f6080830184613f9f565b9695505050505050565b6000825161459b818460208701613f73565b919091019291505056fe5f6275726e3a206275726e20616d6f756e74206578636565647320746f74616c20737570706c797472616e7366657246726f6d3a207472616e7366657220616d6f756e74206578636565647320616c6c6f77616e63655f6275726e3a206275726e20616d6f756e7420657863656564732066726f6d2062616c616e63655f7472616e73666572546f6b656e733a207472616e7366657220657863656564732066726f6d2062616c616e6365a264697066735822122096d569da6a52a867a0cf9dd0a22cab5bd7ce67d42d05ca9b8fa4f5b8c14c728764736f6c634300080d00334f776e61626c653a2063616c6c6572206973206e6f7420746865206f776e65728be0079c531659141344cd1fd0a4f28419497f9722a3daafe3b4186f6b6457e0537761702070616972203020646f6573206e6f74206d61746368207265776172",
    "linkReferences": {}
  },
  "methodIdentifiers": {
    "ADMIN_FEE_BIPS()": "07677111",
    "DEPOSITS_ENABLED()": "b52a321f",
    "DEV_FEE_BIPS()": "5ea682ea",
    "DOMAIN_TYPEHASH()": "20606b70",
    "MAX_TOKENS_TO_DEPOSIT_WITHOUT_REINVEST()": "789139bc",
    "MIN_TOKENS_TO_REINVEST()": "bd079f55",
    "PERMIT_TYPEHASH()": "30adf81f",
    "REINVEST_REWARD_BIPS()": "8aff733d",
    "VERSION_HASH()": "9e4e7318",
    "allowDepositor(address)": "4bebd1e7",
    "allowance(address,address)": "dd62ed3e",
    "allowedDepositors(address)": "483c2ef0",
    "approve(address,uint256)": "095ea7b3",
    "balanceOf(address)": "70a08231",
    "checkReward()": "c4b24a46",
    "claimAVAXRewards()": "5b53ce10",
    "decimals()": "313ce567",
    "deposit()": "d0e30db0",
    "deposit(uint256)": "b6b55f25",
    "depositFor(address)": "aa67c919",
    "depositFor(address,uint256)": "2f4f21e2",
    "depositToken()": "c89039c5",
    "depositWithPermit(uint256,uint256,uint8,bytes32,bytes32)": "4a970be7",
    "devAddr()": "da09c72c",
    "estimateDeployedBalance()": "0f23475d",
    "estimateReinvestReward()": "b9e57b80",
    "getActualLeverage()": "db8dd95c",
    "getDepositTokensForShares(uint256)": "eab89a5a",
    "getDomainSeparator()": "ed24911d",
    "getSharesForDepositTokens(uint256)": "dd8ce4d6",
    "name()": "06fdde03",
    "nonces(address)": "7ecebe00",
    "numberOfAllowedDepositors()": "3bdc6e72",
    "owner()": "8da5cb5b",
    "permit(address,address,uint256,uint256,uint8,bytes32,bytes32)": "d505accf",
    "recoverAVAX(uint256)": "4ebb7916",
    "recoverERC20(address,uint256)": "8980f11f",
    "reinvest()": "fdb5a03e",
    "removeDepositor(address)": "8b73e606",
    "renounceOwnership()": "715018a6",
    "rescueDeployedFunds(uint256,bool)": "ac0d31ff",
    "revokeAllowance(address,address)": "7ae26773",
    "rewardToken()": "f7c618c1",
    "setAllowances()": "dbd9a4d4",
    "symbol()": "95d89b41",
    "totalDeposits()": "7d882097",
    "totalSupply()": "18160ddd",
    "transfer(address,uint256)": "a9059cbb",
    "transferFrom(address,address,uint256)": "23b872dd",
    "transferOwnership(address)": "f2fde38b",
    "updateAdminFee(uint256)": "cff1b6ef",
    "updateDepositsEnabled(bool)": "4e77ace5",
    "updateDevAddr(address)": "9291d563",
    "updateDevFee(uint256)": "99729ec1",
    "updateLeverage(uint256,uint256)": "a24159d3",
    "updateMaxTokensToDepositWithoutReinvest(uint256)": "e21ac825",
    "updateMinTokensToReinvest(uint256)": "81837230",
    "updateReinvestReward(uint256)": "a8ae2b7c",
    "withdraw(uint256)": "2e1a7d4d"
  },
  "id": 51
}