{
  "abi": [
    {
      "inputs": [
        {
          "internalType": "string",
          "name": "_name",
          "type": "string"
        },
        {
          "internalType": "address",
          "name": "_depositToken",
          "type": "address"
        },
        {
          "internalType": "address",
          "name": "_poolRewardToken",
          "type": "address"
        },
        {
          "internalType": "address",
          "name": "_swapPairPoolReward",
          "type": "address"
        },
        {
          "internalType": "address",
          "name": "_stakingContract",
          "type": "address"
        },
        {
          "components": [
            {
              "internalType": "enum CurveSwap.PoolType",
              "name": "poolType",
              "type": "uint8"
            },
            {
              "internalType": "address",
              "name": "swapPairRewardZap",
              "type": "address"
            },
            {
              "internalType": "address",
              "name": "zapToken",
              "type": "address"
            },
            {
              "internalType": "address",
              "name": "zapContract",
              "type": "address"
            },
            {
              "internalType": "uint256",
              "name": "zapTokenIndex",
              "type": "uint256"
            },
            {
              "internalType": "uint256",
              "name": "maxSlippage",
              "type": "uint256"
            }
          ],
          "internalType": "struct CurveSwap.Settings",
          "name": "_curveSwapSettings",
          "type": "tuple"
        },
        {
          "internalType": "address",
          "name": "_timelock",
          "type": "address"
        },
        {
          "components": [
            {
              "internalType": "uint256",
              "name": "minTokensToReinvest",
              "type": "uint256"
            },
            {
              "internalType": "uint256",
              "name": "devFeeBips",
              "type": "uint256"
            },
            {
              "internalType": "uint256",
              "name": "reinvestRewardBips",
              "type": "uint256"
            }
          ],
          "internalType": "struct YakStrategyV2.StrategySettings",
          "name": "_strategySettings",
          "type": "tuple"
        }
      ],
      "stateMutability": "nonpayable",
      "type": "constructor"
    },
    {
      "anonymous": false,
      "inputs": [
        {
          "indexed": true,
          "internalType": "address",
          "name": "account",
          "type": "address"
        }
      ],
      "name": "AllowDepositor",
      "type": "event"
    },
    {
      "anonymous": false,
      "inputs": [
        {
          "indexed": true,
          "internalType": "address",
          "name": "owner",
          "type": "address"
        },
        {
          "indexed": true,
          "internalType": "address",
          "name": "spender",
          "type": "address"
        },
        {
          "indexed": false,
          "internalType": "uint256",
          "name": "value",
          "type": "uint256"
        }
      ],
      "name": "Approval",
      "type": "event"
    },
    {
      "anonymous": false,
      "inputs": [
        {
          "indexed": true,
          "internalType": "address",
          "name": "account",
          "type": "address"
        },
        {
          "indexed": false,
          "internalType": "uint256",
          "name": "amount",
          "type": "uint256"
        }
      ],
      "name": "Deposit",
      "type": "event"
    },
    {
      "anonymous": false,
      "inputs": [
        {
          "indexed": false,
          "internalType": "bool",
          "name": "newValue",
          "type": "bool"
        }
      ],
      "name": "DepositsEnabled",
      "type": "event"
    },
    {
      "anonymous": false,
      "inputs": [
        {
          "indexed": true,
          "internalType": "address",
          "name": "previousOwner",
          "type": "address"
        },
        {
          "indexed": true,
          "internalType": "address",
          "name": "newOwner",
          "type": "address"
        }
      ],
      "name": "OwnershipTransferred",
      "type": "event"
    },
    {
      "anonymous": false,
      "inputs": [
        {
          "indexed": false,
          "internalType": "address",
          "name": "token",
          "type": "address"
        },
        {
          "indexed": false,
          "internalType": "uint256",
          "name": "amount",
          "type": "uint256"
        }
      ],
      "name": "Recovered",
      "type": "event"
    },
    {
      "anonymous": false,
      "inputs": [
        {
          "indexed": false,
          "internalType": "uint256",
          "name": "newTotalDeposits",
          "type": "uint256"
        },
        {
          "indexed": false,
          "internalType": "uint256",
          "name": "newTotalSupply",
          "type": "uint256"
        }
      ],
      "name": "Reinvest",
      "type": "event"
    },
    {
      "anonymous": false,
      "inputs": [
        {
          "indexed": true,
          "internalType": "address",
          "name": "account",
          "type": "address"
        }
      ],
      "name": "RemoveDepositor",
      "type": "event"
    },
    {
      "anonymous": false,
      "inputs": [
        {
          "indexed": true,
          "internalType": "address",
          "name": "from",
          "type": "address"
        },
        {
          "indexed": true,
          "internalType": "address",
          "name": "to",
          "type": "address"
        },
        {
          "indexed": false,
          "internalType": "uint256",
          "name": "value",
          "type": "uint256"
        }
      ],
      "name": "Transfer",
      "type": "event"
    },
    {
      "anonymous": false,
      "inputs": [
        {
          "indexed": false,
          "internalType": "uint256",
          "name": "oldValue",
          "type": "uint256"
        },
        {
          "indexed": false,
          "internalType": "uint256",
          "name": "newValue",
          "type": "uint256"
        }
      ],
      "name": "UpdateAdminFee",
      "type": "event"
    },
    {
      "anonymous": false,
      "inputs": [
        {
          "indexed": false,
          "internalType": "address",
          "name": "oldValue",
          "type": "address"
        },
        {
          "indexed": false,
          "internalType": "address",
          "name": "newValue",
          "type": "address"
        }
      ],
      "name": "UpdateDevAddr",
      "type": "event"
    },
    {
      "anonymous": false,
      "inputs": [
        {
          "indexed": false,
          "internalType": "uint256",
          "name": "oldValue",
          "type": "uint256"
        },
        {
          "indexed": false,
          "internalType": "uint256",
          "name": "newValue",
          "type": "uint256"
        }
      ],
      "name": "UpdateDevFee",
      "type": "event"
    },
    {
      "anonymous": false,
      "inputs": [
        {
          "indexed": false,
          "internalType": "uint256",
          "name": "oldValue",
          "type": "uint256"
        },
        {
          "indexed": false,
          "internalType": "uint256",
          "name": "newValue",
          "type": "uint256"
        }
      ],
      "name": "UpdateMaxTokensToDepositWithoutReinvest",
      "type": "event"
    },
    {
      "anonymous": false,
      "inputs": [
        {
          "indexed": false,
          "internalType": "uint256",
          "name": "oldValue",
          "type": "uint256"
        },
        {
          "indexed": false,
          "internalType": "uint256",
          "name": "newValue",
          "type": "uint256"
        }
      ],
      "name": "UpdateMinTokensToReinvest",
      "type": "event"
    },
    {
      "anonymous": false,
      "inputs": [
        {
          "indexed": false,
          "internalType": "uint256",
          "name": "oldValue",
          "type": "uint256"
        },
        {
          "indexed": false,
          "internalType": "uint256",
          "name": "newValue",
          "type": "uint256"
        }
      ],
      "name": "UpdateReinvestReward",
      "type": "event"
    },
    {
      "anonymous": false,
      "inputs": [
        {
          "indexed": true,
          "internalType": "address",
          "name": "account",
          "type": "address"
        },
        {
          "indexed": false,
          "internalType": "uint256",
          "name": "amount",
          "type": "uint256"
        }
      ],
      "name": "Withdraw",
      "type": "event"
    },
    {
      "inputs": [],
      "name": "ADMIN_FEE_BIPS",
      "outputs": [
        {
          "internalType": "uint256",
          "name": "",
          "type": "uint256"
        }
      ],
      "stateMutability": "view",
      "type": "function"
    },
    {
      "inputs": [],
      "name": "DEPOSITS_ENABLED",
      "outputs": [
        {
          "internalType": "bool",
          "name": "",
          "type": "bool"
        }
      ],
      "stateMutability": "view",
      "type": "function"
    },
    {
      "inputs": [],
      "name": "DEV_FEE_BIPS",
      "outputs": [
        {
          "internalType": "uint256",
          "name": "",
          "type": "uint256"
        }
      ],
      "stateMutability": "view",
      "type": "function"
    },
    {
      "inputs": [],
      "name": "DOMAIN_TYPEHASH",
      "outputs": [
        {
          "internalType": "bytes32",
          "name": "",
          "type": "bytes32"
        }
      ],
      "stateMutability": "view",
      "type": "function"
    },
    {
      "inputs": [],
      "name": "MAX_TOKENS_TO_DEPOSIT_WITHOUT_REINVEST",
      "outputs": [
        {
          "internalType": "uint256",
          "name": "",
          "type": "uint256"
        }
      ],
      "stateMutability": "view",
      "type": "function"
    },
    {
      "inputs": [],
      "name": "MIN_TOKENS_TO_REINVEST",
      "outputs": [
        {
          "internalType": "uint256",
          "name": "",
          "type": "uint256"
        }
      ],
      "stateMutability": "view",
      "type": "function"
    },
    {
      "inputs": [],
      "name": "PERMIT_TYPEHASH",
      "outputs": [
        {
          "internalType": "bytes32",
          "name": "",
          "type": "bytes32"
        }
      ],
      "stateMutability": "view",
      "type": "function"
    },
    {
      "inputs": [],
      "name": "PID",
      "outputs": [
        {
          "internalType": "uint256",
          "name": "",
          "type": "uint256"
        }
      ],
      "stateMutability": "view",
      "type": "function"
    },
    {
      "inputs": [],
      "name": "REINVEST_REWARD_BIPS",
      "outputs": [
        {
          "internalType": "uint256",
          "name": "",
          "type": "uint256"
        }
      ],
      "stateMutability": "view",
      "type": "function"
    },
    {
      "inputs": [],
      "name": "VERSION_HASH",
      "outputs": [
        {
          "internalType": "bytes32",
          "name": "",
          "type": "bytes32"
        }
      ],
      "stateMutability": "view",
      "type": "function"
    },
    {
      "inputs": [
        {
          "internalType": "address",
          "name": "depositor",
          "type": "address"
        }
      ],
      "name": "allowDepositor",
      "outputs": [],
      "stateMutability": "nonpayable",
      "type": "function"
    },
    {
      "inputs": [
        {
          "internalType": "address",
          "name": "account",
          "type": "address"
        },
        {
          "internalType": "address",
          "name": "spender",
          "type": "address"
        }
      ],
      "name": "allowance",
      "outputs": [
        {
          "internalType": "uint256",
          "name": "",
          "type": "uint256"
        }
      ],
      "stateMutability": "view",
      "type": "function"
    },
    {
      "inputs": [
        {
          "internalType": "address",
          "name": "",
          "type": "address"
        }
      ],
      "name": "allowedDepositors",
      "outputs": [
        {
          "internalType": "bool",
          "name": "",
          "type": "bool"
        }
      ],
      "stateMutability": "view",
      "type": "function"
    },
    {
      "inputs": [
        {
          "internalType": "address",
          "name": "spender",
          "type": "address"
        },
        {
          "internalType": "uint256",
          "name": "amount",
          "type": "uint256"
        }
      ],
      "name": "approve",
      "outputs": [
        {
          "internalType": "bool",
          "name": "",
          "type": "bool"
        }
      ],
      "stateMutability": "nonpayable",
      "type": "function"
    },
    {
      "inputs": [
        {
          "internalType": "address",
          "name": "account",
          "type": "address"
        }
      ],
      "name": "balanceOf",
      "outputs": [
        {
          "internalType": "uint256",
          "name": "",
          "type": "uint256"
        }
      ],
      "stateMutability": "view",
      "type": "function"
    },
    {
      "inputs": [],
      "name": "checkReward",
      "outputs": [
        {
          "internalType": "uint256",
          "name": "",
          "type": "uint256"
        }
      ],
      "stateMutability": "view",
      "type": "function"
    },
    {
      "inputs": [],
      "name": "decimals",
      "outputs": [
        {
          "internalType": "uint8",
          "name": "",
          "type": "uint8"
        }
      ],
      "stateMutability": "view",
      "type": "function"
    },
    {
      "inputs": [
        {
          "internalType": "uint256",
          "name": "amount",
          "type": "uint256"
        }
      ],
      "name": "deposit",
      "outputs": [],
      "stateMutability": "nonpayable",
      "type": "function"
    },
    {
      "inputs": [
        {
          "internalType": "address",
          "name": "account",
          "type": "address"
        },
        {
          "internalType": "uint256",
          "name": "amount",
          "type": "uint256"
        }
      ],
      "name": "depositFor",
      "outputs": [],
      "stateMutability": "nonpayable",
      "type": "function"
    },
    {
      "inputs": [],
      "name": "depositToken",
      "outputs": [
        {
          "internalType": "contract IERC20",
          "name": "",
          "type": "address"
        }
      ],
      "stateMutability": "view",
      "type": "function"
    },
    {
      "inputs": [
        {
          "internalType": "uint256",
          "name": "amount",
          "type": "uint256"
        },
        {
          "internalType": "uint256",
          "name": "deadline",
          "type": "uint256"
        },
        {
          "internalType": "uint8",
          "name": "v",
          "type": "uint8"
        },
        {
          "internalType": "bytes32",
          "name": "r",
          "type": "bytes32"
        },
        {
          "internalType": "bytes32",
          "name": "s",
          "type": "bytes32"
        }
      ],
      "name": "depositWithPermit",
      "outputs": [],
      "stateMutability": "nonpayable",
      "type": "function"
    },
    {
      "inputs": [],
      "name": "devAddr",
      "outputs": [
        {
          "internalType": "address",
          "name": "",
          "type": "address"
        }
      ],
      "stateMutability": "view",
      "type": "function"
    },
    {
      "inputs": [],
      "name": "estimateDeployedBalance",
      "outputs": [
        {
          "internalType": "uint256",
          "name": "",
          "type": "uint256"
        }
      ],
      "stateMutability": "view",
      "type": "function"
    },
    {
      "inputs": [],
      "name": "estimateReinvestReward",
      "outputs": [
        {
          "internalType": "uint256",
          "name": "",
          "type": "uint256"
        }
      ],
      "stateMutability": "view",
      "type": "function"
    },
    {
      "inputs": [],
      "name": "extraToken",
      "outputs": [
        {
          "internalType": "address",
          "name": "",
          "type": "address"
        }
      ],
      "stateMutability": "view",
      "type": "function"
    },
    {
      "inputs": [
        {
          "internalType": "uint256",
          "name": "amount",
          "type": "uint256"
        }
      ],
      "name": "getDepositTokensForShares",
      "outputs": [
        {
          "internalType": "uint256",
          "name": "",
          "type": "uint256"
        }
      ],
      "stateMutability": "view",
      "type": "function"
    },
    {
      "inputs": [],
      "name": "getDomainSeparator",
      "outputs": [
        {
          "internalType": "bytes32",
          "name": "",
          "type": "bytes32"
        }
      ],
      "stateMutability": "view",
      "type": "function"
    },
    {
      "inputs": [
        {
          "internalType": "uint256",
          "name": "amount",
          "type": "uint256"
        }
      ],
      "name": "getSharesForDepositTokens",
      "outputs": [
        {
          "internalType": "uint256",
          "name": "",
          "type": "uint256"
        }
      ],
      "stateMutability": "view",
      "type": "function"
    },
    {
      "inputs": [],
      "name": "name",
      "outputs": [
        {
          "internalType": "string",
          "name": "",
          "type": "string"
        }
      ],
      "stateMutability": "view",
      "type": "function"
    },
    {
      "inputs": [
        {
          "internalType": "address",
          "name": "",
          "type": "address"
        }
      ],
      "name": "nonces",
      "outputs": [
        {
          "internalType": "uint256",
          "name": "",
          "type": "uint256"
        }
      ],
      "stateMutability": "view",
      "type": "function"
    },
    {
      "inputs": [],
      "name": "numberOfAllowedDepositors",
      "outputs": [
        {
          "internalType": "uint256",
          "name": "",
          "type": "uint256"
        }
      ],
      "stateMutability": "view",
      "type": "function"
    },
    {
      "inputs": [],
      "name": "owner",
      "outputs": [
        {
          "internalType": "address",
          "name": "",
          "type": "address"
        }
      ],
      "stateMutability": "view",
      "type": "function"
    },
    {
      "inputs": [
        {
          "internalType": "address",
          "name": "owner",
          "type": "address"
        },
        {
          "internalType": "address",
          "name": "spender",
          "type": "address"
        },
        {
          "internalType": "uint256",
          "name": "value",
          "type": "uint256"
        },
        {
          "internalType": "uint256",
          "name": "deadline",
          "type": "uint256"
        },
        {
          "internalType": "uint8",
          "name": "v",
          "type": "uint8"
        },
        {
          "internalType": "bytes32",
          "name": "r",
          "type": "bytes32"
        },
        {
          "internalType": "bytes32",
          "name": "s",
          "type": "bytes32"
        }
      ],
      "name": "permit",
      "outputs": [],
      "stateMutability": "nonpayable",
      "type": "function"
    },
    {
      "inputs": [
        {
          "internalType": "uint256",
          "name": "amount",
          "type": "uint256"
        }
      ],
      "name": "recoverAVAX",
      "outputs": [],
      "stateMutability": "nonpayable",
      "type": "function"
    },
    {
      "inputs": [
        {
          "internalType": "address",
          "name": "tokenAddress",
          "type": "address"
        },
        {
          "internalType": "uint256",
          "name": "tokenAmount",
          "type": "uint256"
        }
      ],
      "name": "recoverERC20",
      "outputs": [],
      "stateMutability": "nonpayable",
      "type": "function"
    },
    {
      "inputs": [],
      "name": "reinvest",
      "outputs": [],
      "stateMutability": "nonpayable",
      "type": "function"
    },
    {
      "inputs": [
        {
          "internalType": "address",
          "name": "depositor",
          "type": "address"
        }
      ],
      "name": "removeDepositor",
      "outputs": [],
      "stateMutability": "nonpayable",
      "type": "function"
    },
    {
      "inputs": [],
      "name": "renounceOwnership",
      "outputs": [],
      "stateMutability": "nonpayable",
      "type": "function"
    },
    {
      "inputs": [
        {
          "internalType": "uint256",
          "name": "minReturnAmountAccepted",
          "type": "uint256"
        },
        {
          "internalType": "bool",
          "name": "disableDeposits",
          "type": "bool"
        }
      ],
      "name": "rescueDeployedFunds",
      "outputs": [],
      "stateMutability": "nonpayable",
      "type": "function"
    },
    {
      "inputs": [
        {
          "internalType": "address",
          "name": "token",
          "type": "address"
        },
        {
          "internalType": "address",
          "name": "spender",
          "type": "address"
        }
      ],
      "name": "revokeAllowance",
      "outputs": [],
      "stateMutability": "nonpayable",
      "type": "function"
    },
    {
      "inputs": [],
      "name": "rewardToken",
      "outputs": [
        {
          "internalType": "contract IERC20",
          "name": "",
          "type": "address"
        }
      ],
      "stateMutability": "view",
      "type": "function"
    },
    {
      "inputs": [
        {
          "internalType": "address",
          "name": "_extraTokenSwapPair",
          "type": "address"
        }
      ],
      "name": "setExtraRewardSwapPair",
      "outputs": [],
      "stateMutability": "nonpayable",
      "type": "function"
    },
    {
      "inputs": [
        {
          "internalType": "uint256",
          "name": "_maxSlippageBips",
          "type": "uint256"
        }
      ],
      "name": "setMaxSlippageBips",
      "outputs": [],
      "stateMutability": "nonpayable",
      "type": "function"
    },
    {
      "inputs": [],
      "name": "stakingContract",
      "outputs": [
        {
          "internalType": "contract IMoreMoneyStakingRewards",
          "name": "",
          "type": "address"
        }
      ],
      "stateMutability": "view",
      "type": "function"
    },
    {
      "inputs": [],
      "name": "swapPairExtraReward",
      "outputs": [
        {
          "internalType": "address",
          "name": "",
          "type": "address"
        }
      ],
      "stateMutability": "view",
      "type": "function"
    },
    {
      "inputs": [],
      "name": "symbol",
      "outputs": [
        {
          "internalType": "string",
          "name": "",
          "type": "string"
        }
      ],
      "stateMutability": "view",
      "type": "function"
    },
    {
      "inputs": [],
      "name": "totalDeposits",
      "outputs": [
        {
          "internalType": "uint256",
          "name": "",
          "type": "uint256"
        }
      ],
      "stateMutability": "view",
      "type": "function"
    },
    {
      "inputs": [],
      "name": "totalSupply",
      "outputs": [
        {
          "internalType": "uint256",
          "name": "",
          "type": "uint256"
        }
      ],
      "stateMutability": "view",
      "type": "function"
    },
    {
      "inputs": [
        {
          "internalType": "address",
          "name": "dst",
          "type": "address"
        },
        {
          "internalType": "uint256",
          "name": "amount",
          "type": "uint256"
        }
      ],
      "name": "transfer",
      "outputs": [
        {
          "internalType": "bool",
          "name": "",
          "type": "bool"
        }
      ],
      "stateMutability": "nonpayable",
      "type": "function"
    },
    {
      "inputs": [
        {
          "internalType": "address",
          "name": "src",
          "type": "address"
        },
        {
          "internalType": "address",
          "name": "dst",
          "type": "address"
        },
        {
          "internalType": "uint256",
          "name": "amount",
          "type": "uint256"
        }
      ],
      "name": "transferFrom",
      "outputs": [
        {
          "internalType": "bool",
          "name": "",
          "type": "bool"
        }
      ],
      "stateMutability": "nonpayable",
      "type": "function"
    },
    {
      "inputs": [
        {
          "internalType": "address",
          "name": "newOwner",
          "type": "address"
        }
      ],
      "name": "transferOwnership",
      "outputs": [],
      "stateMutability": "nonpayable",
      "type": "function"
    },
    {
      "inputs": [
        {
          "internalType": "uint256",
          "name": "newValue",
          "type": "uint256"
        }
      ],
      "name": "updateAdminFee",
      "outputs": [],
      "stateMutability": "nonpayable",
      "type": "function"
    },
    {
      "inputs": [
        {
          "internalType": "bool",
          "name": "newValue",
          "type": "bool"
        }
      ],
      "name": "updateDepositsEnabled",
      "outputs": [],
      "stateMutability": "nonpayable",
      "type": "function"
    },
    {
      "inputs": [
        {
          "internalType": "address",
          "name": "newValue",
          "type": "address"
        }
      ],
      "name": "updateDevAddr",
      "outputs": [],
      "stateMutability": "nonpayable",
      "type": "function"
    },
    {
      "inputs": [
        {
          "internalType": "uint256",
          "name": "newValue",
          "type": "uint256"
        }
      ],
      "name": "updateDevFee",
      "outputs": [],
      "stateMutability": "nonpayable",
      "type": "function"
    },
    {
      "inputs": [
        {
          "internalType": "uint256",
          "name": "newValue",
          "type": "uint256"
        }
      ],
      "name": "updateMaxTokensToDepositWithoutReinvest",
      "outputs": [],
      "stateMutability": "nonpayable",
      "type": "function"
    },
    {
      "inputs": [
        {
          "internalType": "uint256",
          "name": "newValue",
          "type": "uint256"
        }
      ],
      "name": "updateMinTokensToReinvest",
      "outputs": [],
      "stateMutability": "nonpayable",
      "type": "function"
    },
    {
      "inputs": [
        {
          "internalType": "uint256",
          "name": "newValue",
          "type": "uint256"
        }
      ],
      "name": "updateReinvestReward",
      "outputs": [],
      "stateMutability": "nonpayable",
      "type": "function"
    },
    {
      "inputs": [
        {
          "internalType": "uint256",
          "name": "amount",
          "type": "uint256"
        }
      ],
      "name": "withdraw",
      "outputs": [],
      "stateMutability": "nonpayable",
      "type": "function"
    }
  ],
  "bytecode": {
    "object": "0x60e0604052600960a0819052685969656c642059616b60b81b60c09081526200002c916000919062000bdb565b506040805180820190915260038082526216549560ea1b6020909201918252620000599160019162000bdb565b503480156200006757600080fd5b5060405162005069380380620050698339810160408190526200008a9162000dec565b878773b31f66aa3c1e785363f0875a1b74e27b85fd66c788886000878188808233600680546001600160a01b0319166001600160a01b0383169081179091556040519192509060009060008051602062005049833981519152908290a3508051620000f59062000367565b60208101516200010590620003f7565b60408101516200011590620004ae565b5088516200012b9060009060208c019062000bdb565b50600980546001600160a01b03808b166001600160a01b031992831617909255600a8054928a16928216929092179091556080839052600b8054909116732d580f9cf2fb2d09bc411532988f2afda4e7beff1790556200018d87878762000565565b62000198846200083d565b620001a4600162000a1f565b620001af8362000ac9565b60408051600080825260208201527fc7606d21ac05cd309191543e409f0845c016120563783d70e4f41419dc0ef234910160405180910390a150505050505050505083601c60006101000a8154816001600160a01b0302191690836001600160a01b0316021790555086601b60006101000a8154816001600160a01b0302191690836001600160a01b0316021790555082601660008201518160000160006101000a81548160ff021916908360058111156200026f576200026f62000f32565b021790555060208201518154610100600160a81b0319166101006001600160a01b03928316021782556040808401516001840180546001600160a01b031990811692851692909217905560608501516002850180549092169084161790556080840151600384015560a090930151600492830155601754601854935163095ea7b360e01b8152938216928401929092526000196024840152169063095ea7b3906044016020604051808303816000875af115801562000332573d6000803e3d6000fd5b505050506040513d601f19601f8201168201806040525081019062000358919062000f48565b50505050505050505062000fed565b6006546001600160a01b03163314620003b65760405162461bcd60e51b815260206004820181905260248201526000805160206200502983398151915260448201526064015b60405180910390fd5b600c5460408051918252602082018390527f481f79ac3a523b6d6db3c5a720e190e986d1cc1b41adcdf50f9caef849901100910160405180910390a1600c55565b6006546001600160a01b03163314620004425760405162461bcd60e51b81526020600482018190526024820152600080516020620050298339815191526044820152606401620003ad565b612710620004616010548362000bc660201b62001b141790919060201c565b11156200046d57600080fd5b60115460408051918252602082018390527f2a42303d002f0ba6cfe8259c91d4684443fb0b3de286ba74991175d651726131910160405180910390a1601155565b6006546001600160a01b03163314620004f95760405162461bcd60e51b81526020600482018190526024820152600080516020620050298339815191526044820152606401620003ad565b612710620005186011548362000bc660201b62001b141790919060201c565b11156200052457600080fd5b60105460408051918252602082018390527fe7f97d51d307dc44045597c9978bec0f842e6bb40d19b9444084cfa30d9ed4f2910160405180910390a1601055565b826001600160a01b0316826001600160a01b0316146200080e57806001600160a01b0316630dfe16816040518163ffffffff1660e01b8152600401602060405180830381865afa158015620005be573d6000803e3d6000fd5b505050506040513d601f19601f82011682018060405250810190620005e4919062000f6c565b6001600160a01b0316826001600160a01b031603620006df57826001600160a01b0316816001600160a01b031663d21220a76040518163ffffffff1660e01b8152600401602060405180830381865afa15801562000646573d6000803e3d6000fd5b505050506040513d601f19601f820116820180604052508101906200066c919062000f6c565b6001600160a01b031614620006d95760405162461bcd60e51b815260206004820152603f60248201526000805160206200500983398151915260448201527f6f6573206e6f7420636f6e7461696e2065636f73797374656d20746f6b656e006064820152608401620003ad565b6200080e565b806001600160a01b031663d21220a76040518163ffffffff1660e01b8152600401602060405180830381865afa1580156200071e573d6000803e3d6000fd5b505050506040513d601f19601f8201168201806040525081019062000744919062000f6c565b6001600160a01b0316826001600160a01b031603620007a657826001600160a01b0316816001600160a01b0316630dfe16816040518163ffffffff1660e01b8152600401602060405180830381865afa15801562000646573d6000803e3d6000fd5b60405162461bcd60e51b815260206004820152604160248201526000805160206200500983398151915260448201527f6f6573206e6f7420636f6e7461696e20706f6f6c2072657761726420746f6b656064820152603760f91b608482015260a401620003ad565b601280546001600160a01b039384166001600160a01b0319918216179091556013805492909316911617905550565b6001600160a01b0381161562000a0057600a5460408051630dfe168160e01b815290516001600160a01b0392831692841691630dfe16819160048083019260209291908290030181865afa1580156200089a573d6000803e3d6000fd5b505050506040513d601f19601f82011682018060405250810190620008c0919062000f6c565b6001600160a01b0316036200095a57806001600160a01b031663d21220a76040518163ffffffff1660e01b8152600401602060405180830381865afa1580156200090e573d6000803e3d6000fd5b505050506040513d601f19601f8201168201806040525081019062000934919062000f6c565b601580546001600160a01b0319166001600160a01b0392909216919091179055620009e0565b806001600160a01b0316630dfe16816040518163ffffffff1660e01b8152600401602060405180830381865afa15801562000999573d6000803e3d6000fd5b505050506040513d601f19601f82011682018060405250810190620009bf919062000f6c565b601580546001600160a01b0319166001600160a01b03929092169190911790555b601480546001600160a01b0383166001600160a01b031990911617905550565b601480546001600160a01b031990811690915560158054909116905550565b6006546001600160a01b0316331462000a6a5760405162461bcd60e51b81526020600482018190526024820152600080516020620050298339815191526044820152606401620003ad565b600e5481151560ff90911615150362000a8257600080fd5b600e805460ff19168215159081179091556040519081527f7b014ed3854e7f5cb0218d58b3c6ae7d53a68bb0af2f67bfb029ea42c38a7e859060200160405180910390a150565b6006546001600160a01b0316331462000b145760405162461bcd60e51b81526020600482018190526024820152600080516020620050298339815191526044820152606401620003ad565b6001600160a01b03811662000b7b5760405162461bcd60e51b815260206004820152602660248201527f4f776e61626c653a206e6577206f776e657220697320746865207a65726f206160448201526564647265737360d01b6064820152608401620003ad565b6006546040516001600160a01b038084169216906000805160206200504983398151915290600090a3600680546001600160a01b0319166001600160a01b0392909216919091179055565b600062000bd4828462000f8a565b9392505050565b82805462000be99062000fb1565b90600052602060002090601f01602090048101928262000c0d576000855562000c58565b82601f1062000c2857805160ff191683800117855562000c58565b8280016001018555821562000c58579182015b8281111562000c5857825182559160200191906001019062000c3b565b5062000c6692915062000c6a565b5090565b5b8082111562000c66576000815560010162000c6b565b634e487b7160e01b600052604160045260246000fd5b604051601f8201601f191681016001600160401b038111828210171562000cc25762000cc262000c81565b604052919050565b80516001600160a01b038116811462000ce257600080fd5b919050565b600060c0828403121562000cfa57600080fd5b60405160c081016001600160401b038111828210171562000d1f5762000d1f62000c81565b806040525080915082516006811062000d3757600080fd5b815262000d476020840162000cca565b602082015262000d5a6040840162000cca565b604082015262000d6d6060840162000cca565b60608201526080830151608082015260a083015160a08201525092915050565b60006060828403121562000da057600080fd5b604051606081016001600160401b038111828210171562000dc55762000dc562000c81565b80604052508091508251815260208301516020820152604083015160408201525092915050565b6000806000806000806000806101e0898b03121562000e0a57600080fd5b88516001600160401b038082111562000e2257600080fd5b818b0191508b601f83011262000e3757600080fd5b81518181111562000e4c5762000e4c62000c81565b6020915062000e64601f8201601f1916830162000c97565b8181528d8383860101111562000e7957600080fd5b60005b8281101562000e9957848101840151828201850152830162000e7c565b8281111562000eab5760008484840101525b509a5062000ebd90508b820162000cca565b9850505062000ecf60408a0162000cca565b955062000edf60608a0162000cca565b945062000eef60808a0162000cca565b935062000f008a60a08b0162000ce7565b925062000f116101608a0162000cca565b915062000f238a6101808b0162000d8d565b90509295985092959890939650565b634e487b7160e01b600052602160045260246000fd5b60006020828403121562000f5b57600080fd5b8151801515811462000bd457600080fd5b60006020828403121562000f7f57600080fd5b62000bd48262000cca565b6000821982111562000fac57634e487b7160e01b600052601160045260246000fd5b500190565b600181811c9082168062000fc657607f821691505b60208210810362000fe757634e487b7160e01b600052602260045260246000fd5b50919050565b608051613fd6620010336000396000818161053001528181610f0a015281816114af01528181611db601528181612480015281816127bb0152612a4c0152613fd66000f3fe608060405234801561001057600080fd5b50600436106103995760003560e01c80638aff733d116101e9578063bd079f551161010f578063dd8ce4d6116100ad578063ee99205c1161007c578063ee99205c14610807578063f2fde38b1461081a578063f7c618c11461082d578063fdb5a03e1461084057600080fd5b8063dd8ce4d6146107c6578063e21ac825146107d9578063eab89a5a146107ec578063ed24911d146107ff57600080fd5b8063cff1b6ef116100e9578063cff1b6ef14610754578063d505accf14610767578063da09c72c1461077a578063dd62ed3e1461078d57600080fd5b8063bd079f5514610730578063c4b24a4614610739578063c89039c51461074157600080fd5b80639e4e731811610187578063ac0d31ff11610156578063ac0d31ff146106f5578063b52a321f14610708578063b6b55f2514610715578063b9e57b801461072857600080fd5b80639e4e731814610695578063a1a4ddeb146106bc578063a8ae2b7c146106cf578063a9059cbb146106e257600080fd5b8063909ac8f4116101c3578063909ac8f4146106545780639291d5631461066757806395d89b411461067a57806399729ec11461068257600080fd5b80638aff733d146106135780638b73e6061461061c5780638da5cb5b1461062f57600080fd5b80634bebd1e7116102ce578063733ba2e41161026c5780637ecebe001161023b5780637ecebe00146105ba57806381837230146105da5780638432e894146105ed5780638980f11f1461060057600080fd5b8063733ba2e414610583578063789139bc146105965780637ae267731461059f5780637d882097146105b257600080fd5b80635ea682ea116102a85780635ea682ea146105225780635eaec0e41461052b57806370a0823114610552578063715018a61461057b57600080fd5b80634bebd1e7146104e95780634e77ace5146104fc5780634ebb79161461050f57600080fd5b80632e1a7d4d1161033b578063313ce56711610315578063313ce567146104905780633bdc6e72146104aa578063483c2ef0146104b35780634a970be7146104d657600080fd5b80632e1a7d4d146104415780632f4f21e21461045657806330adf81f1461046957600080fd5b80630f23475d116103775780630f23475d146103f657806318160ddd146103fe57806320606b701461040757806323b872dd1461042e57600080fd5b806306fdde031461039e57806307677111146103bc578063095ea7b3146103d3575b600080fd5b6103a6610848565b6040516103b39190613955565b60405180910390f35b6103c5600f5481565b6040519081526020016103b3565b6103e66103e136600461397d565b6108d6565b60405190151581526020016103b3565b6103c56108ed565b6103c560025481565b6103c57f8b73c3c69bb8fe3d512ecc4cf759cc79239f7b179b0ffacaa9a75d522b39400f81565b6103e661043c3660046139a9565b610928565b61045461044f3660046139ea565b610a0c565b005b61045461046436600461397d565b610aee565b6103c57f6e71edae12b1b97f4d1f60370fef10105fa2faae0126114a169c64845d6126c981565b610498601281565b60405160ff90911681526020016103b3565b6103c560075481565b6103e66104c1366004613a03565b60086020526000908152604090205460ff1681565b6104546104e4366004613a36565b610afc565b6104546104f7366004613a03565b610b95565b61045461050a366004613a8b565b610c94565b61045461051d3660046139ea565b610d1d565b6103c560115481565b6103c57f000000000000000000000000000000000000000000000000000000000000000081565b6103c5610560366004613a03565b6001600160a01b031660009081526004602052604090205490565b610454610db9565b6104546105913660046139ea565b610e2d565b6103c5600d5481565b6104546105ad366004613aa8565b610e5c565b6103c5610f02565b6103c56105c8366004613a03565b60056020526000908152604090205481565b6104546105e83660046139ea565b610f2f565b6104546105fb366004613a03565b610f9a565b61045461060e36600461397d565b610fd0565b6103c560105481565b61045461062a366004613a03565b6110c7565b6006546001600160a01b03165b6040516001600160a01b0390911681526020016103b3565b60145461063c906001600160a01b031681565b610454610675366004613a03565b611248565b6103a66112db565b6104546106903660046139ea565b6112e8565b6103c57fc89efdaa54c0f20c7adf612882df0950f5a951637e0307cdcb4c672f298b8bc681565b60155461063c906001600160a01b031681565b6104546106dd3660046139ea565b611376565b6103e66106f036600461397d565b611404565b610454610703366004613ae1565b611411565b600e546103e69060ff1681565b6104546107233660046139ea565b61161f565b6103c5611629565b6103c5600c5481565b6103c5611668565b60095461063c906001600160a01b031681565b6104546107623660046139ea565b61167c565b610454610775366004613b06565b6116f2565b600b5461063c906001600160a01b031681565b6103c561079b366004613aa8565b6001600160a01b03918216600090815260036020908152604080832093909416825291909152205490565b6103c56107d43660046139ea565b6117f7565b6104546107e73660046139ea565b611831565b6103c56107fa3660046139ea565b61189c565b6103c56118d0565b601c5461063c906001600160a01b031681565b610454610828366004613a03565b611970565b600a5461063c906001600160a01b031681565b610454611a5b565b6000805461085590613b74565b80601f016020809104026020016040519081016040528092919081815260200182805461088190613b74565b80156108ce5780601f106108a3576101008083540402835291602001916108ce565b820191906000526020600020905b8154815290600101906020018083116108b157829003601f168201915b505050505081565b60006108e3338484611b20565b5060015b92915050565b6000806108f8610f02565b90506000806109146127105b61090e8585611c2e565b90611c3a565b90506109208382611c46565b935050505090565b6001600160a01b03831660008181526003602090815260408083203380855292528220549192909190821480159061096257506000198114155b156109f357600061098e856040518060600160405280602f8152602001613f1d602f9139849190611c52565b6001600160a01b038881166000818152600360209081526040808320948916808452948252918290208590559051848152939450919290917f8c5be1e5ebec7d5bd14f71427d1e84f3dd0314c0f7b2291e5b200ac8c7c3b925910160405180910390a3505b6109fe868686611c7e565b6001925050505b9392505050565b6000610a178261189c565b905060008111610a6e5760405162461bcd60e51b815260206004820152601e60248201527f4d617374657243686566537472617465677956313a3a7769746864726177000060448201526064015b60405180910390fd5b610a7781611db1565b600080610a85612710610904565b600954909150610aa8906001600160a01b031633610aa38685611c46565b611ddb565b610ab23385611eb2565b60405183815233907f884edad9ce6fa2440d8a54cc123490eb96d2768479d49ff9c7366125a9424364906020015b60405180910390a250505050565b610af88282611f88565b5050565b60095460405163d505accf60e01b8152336004820152306024820152604481018790526064810186905260ff8516608482015260a4810184905260c481018390526001600160a01b039091169063d505accf9060e401600060405180830381600087803b158015610b6c57600080fd5b505af1158015610b80573d6000803e3d6000fd5b50505050610b8e3386611f88565b5050505050565b6006546001600160a01b03163314610bbf5760405162461bcd60e51b8152600401610a6590613bae565b6001600160a01b03811660009081526008602052604090205460ff1615610c285760405162461bcd60e51b815260206004820152601c60248201527f5065726d697373696f6e65643a3a616c6c6f774465706f7369746f72000000006044820152606401610a65565b6001600160a01b0381166000908152600860205260409020805460ff19166001908117909155600754610c5a91611b14565b6007556040516001600160a01b038216907fc0a1035c16faf8d1304056d92c00edf028f87e62b8235a938f00af9e3c0312c590600090a250565b6006546001600160a01b03163314610cbe5760405162461bcd60e51b8152600401610a6590613bae565b600e5481151560ff909116151503610cd557600080fd5b600e805460ff19168215159081179091556040519081527f7b014ed3854e7f5cb0218d58b3c6ae7d53a68bb0af2f67bfb029ea42c38a7e85906020015b60405180910390a150565b6006546001600160a01b03163314610d475760405162461bcd60e51b8152600401610a6590613bae565b60008111610d5457600080fd5b604051339082156108fc029083906000818181858888f19350505050158015610d81573d6000803e3d6000fd5b506040805160008152602081018390527f8c1256b8896378cd5044f80c202f9772b9d77dc85c8a6eb51967210b09bfaa289101610d12565b6006546001600160a01b03163314610de35760405162461bcd60e51b8152600401610a6590613bae565b6006546040516000916001600160a01b0316907f8be0079c531659141344cd1fd0a4f28419497f9722a3daafe3b4186f6b6457e0908390a3600680546001600160a01b0319169055565b600b546001600160a01b03163314610e575760405162461bcd60e51b8152600401610a6590613be3565b601a55565b6006546001600160a01b03163314610e865760405162461bcd60e51b8152600401610a6590613bae565b60405163095ea7b360e01b81526001600160a01b0382811660048301526000602483015283169063095ea7b3906044016020604051808303816000875af1158015610ed5573d6000803e3d6000fd5b505050506040513d601f19601f82011682018060405250810190610ef99190613c11565b610af857600080fd5b6000806108e77f000000000000000000000000000000000000000000000000000000000000000030612156565b6006546001600160a01b03163314610f595760405162461bcd60e51b8152600401610a6590613bae565b600c5460408051918252602082018390527f481f79ac3a523b6d6db3c5a720e190e986d1cc1b41adcdf50f9caef849901100910160405180910390a1600c55565b600b546001600160a01b03163314610fc45760405162461bcd60e51b8152600401610a6590613be3565b610fcd816121c5565b50565b6006546001600160a01b03163314610ffa5760405162461bcd60e51b8152600401610a6590613bae565b6000811161100757600080fd5b60405163a9059cbb60e01b8152336004820152602481018290526001600160a01b0383169063a9059cbb906044016020604051808303816000875af1158015611054573d6000803e3d6000fd5b505050506040513d601f19601f820116820180604052508101906110789190613c11565b61108157600080fd5b604080516001600160a01b0384168152602081018390527f8c1256b8896378cd5044f80c202f9772b9d77dc85c8a6eb51967210b09bfaa28910160405180910390a15050565b6006546001600160a01b031633146110f15760405162461bcd60e51b8152600401610a6590613bae565b6000600754116111605760405162461bcd60e51b815260206004820152603460248201527f5065726d697373696f6e65643a3a72656d6f76654465706f7369746f722c206e6044820152736f20616c6c6f776564206465706f7369746f727360601b6064820152608401610a65565b6001600160a01b03811660009081526008602052604090205460ff1615156001146111e05760405162461bcd60e51b815260206004820152602a60248201527f5065726d697373696f6e65643a3a72656d6f76654465706f7369746f722c206e6044820152691bdd08185b1b1bddd95960b21b6064820152608401610a65565b6001600160a01b0381166000908152600860205260409020805460ff1916905560075461120e906001611c46565b6007556040516001600160a01b038216907f0e86f6608b536e5339a25b65ff531f5ea91e1313d056ecd4752b35cbd16137d490600090a250565b600b546001600160a01b031633146112725760405162461bcd60e51b8152600401610a6590613be3565b600b54604080516001600160a01b03928316815291831660208301527fa8e91499ed37682f43cffb045fcc7d379a91e8c9a14e6321877ee34dee564c00910160405180910390a1600b80546001600160a01b0319166001600160a01b0392909216919091179055565b6001805461085590613b74565b6006546001600160a01b031633146113125760405162461bcd60e51b8152600401610a6590613bae565b61271061132a60105483611b1490919063ffffffff16565b111561133557600080fd5b60115460408051918252602082018390527f2a42303d002f0ba6cfe8259c91d4684443fb0b3de286ba74991175d651726131910160405180910390a1601155565b6006546001600160a01b031633146113a05760405162461bcd60e51b8152600401610a6590613bae565b6127106113b860115483611b1490919063ffffffff16565b11156113c357600080fd5b60105460408051918252602082018390527fe7f97d51d307dc44045597c9978bec0f842e6bb40d19b9444084cfa30d9ed4f2910160405180910390a1601055565b60006108e3338484611c7e565b6006546001600160a01b0316331461143b5760405162461bcd60e51b8152600401610a6590613bae565b6009546040516370a0823160e01b81523060048201526000916001600160a01b0316906370a0823190602401602060405180830381865afa158015611484573d6000803e3d6000fd5b505050506040513d601f19601f820116820180604052508101906114a89190613c2e565b90506114d37f000000000000000000000000000000000000000000000000000000000000000061239b565b6009546040516370a0823160e01b81523060048201526000916001600160a01b0316906370a0823190602401602060405180830381865afa15801561151c573d6000803e3d6000fd5b505050506040513d601f19601f820116820180604052508101906115409190613c2e565b90508361154d8284611c46565b10156115ad5760405162461bcd60e51b815260206004820152602960248201527f4d617374657243686566537472617465677956313a3a7265736375654465706c6044820152686f79656446756e647360b81b6064820152608401610a65565b7fc7606d21ac05cd309191543e409f0845c016120563783d70e4f41419dc0ef2346115d6610f02565b6002546040805192835260208301919091520160405180910390a1600e5460ff161515600114801561160a57506001831515145b15611619576116196000610c94565b50505050565b610fcd3382611f88565b600080611634611668565b9050600c5481106116605761165a61271061090e60105484611c2e90919063ffffffff16565b91505090565b600091505090565b6000806116736123ff565b95945050505050565b6006546001600160a01b031633146116a65760405162461bcd60e51b8152600401610a6590613bae565b80156116b157600080fd5b600f5460408051918252602082018390527f3cc372f330f95ac9540626dc8a25f5bf21ba607215a5d58304cb804d446f104a910160405180910390a1600f55565b428410156117345760405162461bcd60e51b815260206004820152600f60248201526e1c195c9b5a5d0e8e995e1c1a5c9959608a1b6044820152606401610a65565b6001600160a01b038716600090815260056020526040812080547f6e71edae12b1b97f4d1f60370fef10105fa2faae0126114a169c64845d6126c9918a918a918a91908661178183613c5d565b909155506040805160208101969096526001600160a01b0394851690860152929091166060840152608083015260a082015260c0810186905260e0016040516020818303038152906040528051906020012090506117e2888286868661268a565b6117ed888888611b20565b5050505050505050565b600061180d611804610f02565b60025490611c2e565b600003611818575090565b6108e7611823610f02565b60025461090e908590611c2e565b6006546001600160a01b0316331461185b5760405162461bcd60e51b8152600401610a6590613bae565b600d5460408051918252602082018390527fa5dae50539d56dfe1fb5273d883b0c39bc76750a25d036fc5fbd09ad8fd5f57f910160405180910390a1600d55565b60006118a9611804610f02565b6000036118b857506000919050565b6108e760025461090e6118c9610f02565b8590611c2e565b60007f8b73c3c69bb8fe3d512ecc4cf759cc79239f7b179b0ffacaa9a75d522b39400f60001b60006040516119059190613c76565b6040519081900390207fc89efdaa54c0f20c7adf612882df0950f5a951637e0307cdcb4c672f298b8bc646604080516020810195909552840192909252606083015260808201523060a082015260c00160405160208183030381529060405280519060200120905090565b6006546001600160a01b0316331461199a5760405162461bcd60e51b8152600401610a6590613bae565b6001600160a01b0381166119ff5760405162461bcd60e51b815260206004820152602660248201527f4f776e61626c653a206e6577206f776e657220697320746865207a65726f206160448201526564647265737360d01b6064820152608401610a65565b6006546040516001600160a01b038084169216907f8be0079c531659141344cd1fd0a4f28419497f9722a3daafe3b4186f6b6457e090600090a3600680546001600160a01b0319166001600160a01b0392909216919091179055565b323314611aa15760405162461bcd60e51b815260206004820152601460248201527359616b53747261746567793a3a6f6e6c79454f4160601b6044820152606401610a65565b600080600080611aaf6123ff565b9350935093509350600c54811015611b095760405162461bcd60e51b815260206004820152601e60248201527f4d617374657243686566537472617465677956313a3a7265696e7665737400006044820152606401610a65565b6116198285856127b6565b6000610a058284613d11565b6001600160a01b038316611b765760405162461bcd60e51b815260206004820152601c60248201527f5f617070726f76653a3a6f776e6572207a65726f2061646472657373000000006044820152606401610a65565b6001600160a01b038216611bcc5760405162461bcd60e51b815260206004820152601e60248201527f5f617070726f76653a3a7370656e646572207a65726f206164647265737300006044820152606401610a65565b6001600160a01b0383811660008181526003602090815260408083209487168084529482529182902085905590518481527f8c5be1e5ebec7d5bd14f71427d1e84f3dd0314c0f7b2291e5b200ac8c7c3b92591015b60405180910390a3505050565b6000610a058284613d29565b6000610a058284613d48565b6000610a058284613d6a565b60008184841115611c765760405162461bcd60e51b8152600401610a659190613955565b505050900390565b6001600160a01b038216611cf15760405162461bcd60e51b815260206004820152603460248201527f5f7472616e73666572546f6b656e733a2063616e6e6f74207472616e7366657260448201527320746f20746865207a65726f206164647265737360601b6064820152608401610a65565b611d2e816040518060600160405280602e8152602001613f73602e91396001600160a01b0386166000908152600460205260409020549190611c52565b6001600160a01b038085166000908152600460205260408082209390935590841681522054611d5d9082611b14565b6001600160a01b0380841660008181526004602052604090819020939093559151908516907fddf252ad1be2c89b69c2b068fc378daa952ba7f163c4a11628f55a4df523b3ef90611c219085815260200190565b610fcd7f0000000000000000000000000000000000000000000000000000000000000000826128ff565b60405163a9059cbb60e01b81526001600160a01b0383811660048301526024820183905284169063a9059cbb906044016020604051808303816000875af1158015611e2a573d6000803e3d6000fd5b505050506040513d601f19601f82011682018060405250810190611e4e9190613c11565b611ead5760405162461bcd60e51b815260206004820152602a60248201527f4d617374657243686566537472617465677956313a3a5452414e534645525f466044820152691493d357d1905253115160b21b6064820152608401610a65565b505050565b611eef81604051806060016040528060278152602001613f4c602791396001600160a01b0385166000908152600460205260409020549190611c52565b60046000846001600160a01b03166001600160a01b0316815260200190815260200160002081905550611f3f81604051806060016040528060278152602001613ef6602791396002549190611c52565b6002556040518181526000906001600160a01b038416907fddf252ad1be2c89b69c2b068fc378daa952ba7f163c4a11628f55a4df523b3ef906020015b60405180910390a35050565b600e5460ff161515600114611fdf5760405162461bcd60e51b815260206004820152601e60248201527f4d617374657243686566537472617465677956313a3a5f6465706f73697400006044820152606401610a65565b600d541561201757600080600080611ff56123ff565b9350935093509350600d54811115612012576120128285856127b6565b505050505b6009546040516323b872dd60e01b8152336004820152306024820152604481018390526001600160a01b03909116906323b872dd906064016020604051808303816000875af115801561206e573d6000803e3d6000fd5b505050506040513d601f19601f820116820180604052508101906120929190613c11565b6120ec5760405162461bcd60e51b815260206004820152602560248201527f4d617374657243686566537472617465677956313a3a7472616e736665722066604482015264185a5b195960da1b6064820152608401610a65565b6000806120fa612710610904565b90506121128461210d6107d48685611c46565b612961565b61211b836129e5565b836001600160a01b03167fe1fffcc4923d04b559f4d29a8bfc6cda04eb5b0d3c460751c2402c5c5cc9109c84604051610ae091815260200190565b601c546040516370a0823160e01b81526001600160a01b03838116600483015260009216906370a0823190602401602060405180830381865afa1580156121a1573d6000803e3d6000fd5b505050506040513d601f19601f82011682018060405250810190610a059190613c2e565b6001600160a01b0381161561237c57600a5460408051630dfe168160e01b815290516001600160a01b0392831692841691630dfe16819160048083019260209291908290030181865afa158015612220573d6000803e3d6000fd5b505050506040513d601f19601f820116820180604052508101906122449190613d81565b6001600160a01b0316036122d957806001600160a01b031663d21220a76040518163ffffffff1660e01b8152600401602060405180830381865afa158015612290573d6000803e3d6000fd5b505050506040513d601f19601f820116820180604052508101906122b49190613d81565b601580546001600160a01b0319166001600160a01b039290921691909117905561235c565b806001600160a01b0316630dfe16816040518163ffffffff1660e01b8152600401602060405180830381865afa158015612317573d6000803e3d6000fd5b505050506040513d601f19601f8201168201806040525081019061233b9190613d81565b601580546001600160a01b0319166001600160a01b03929092169190911790555b601480546001600160a01b0383166001600160a01b031990911617905550565b601480546001600160a01b031990811690915560158054909116905550565b601c60009054906101000a90046001600160a01b03166001600160a01b031663e9fad8ee6040518163ffffffff1660e01b8152600401600060405180830381600087803b1580156123eb57600080fd5b505af1158015610b8e573d6000803e3d6000fd5b6012546040516370a0823160e01b815230600482015260009182918291829182916001600160a01b0316906370a0823190602401602060405180830381865afa158015612450573d6000803e3d6000fd5b505050506040513d601f19601f820116820180604052508101906124749190613c2e565b905060008060006124a57f000000000000000000000000000000000000000000000000000000000000000030612a71565b9194509250905060006124b88585611b14565b600a546012549192506000916001600160a01b039182169116036124dc5784612501565b601254600a546013546125019285926001600160a01b03918216929082169116612a8f565b905060006001600160a01b038416156125ec5773b31f66aa3c1e785363f0875a1b74e27b85fd66c6196001600160a01b038516016125405750836125ec565b6014546001600160a01b0316156125ec576015546040516370a0823160e01b81523060048201526125c6916001600160a01b0316906370a0823190602401602060405180830381865afa15801561259b573d6000803e3d6000fd5b505050506040513d601f19601f820116820180604052508101906125bf9190613c2e565b8690611b14565b600a546014549196506125e991879187916001600160a01b039182169116612a8f565b90505b600a546040516370a0823160e01b81523060048201526000916126669184916001600160a01b0316906370a08231906024015b602060405180830381865afa15801561263c573d6000803e3d6000fd5b505050506040513d601f19601f820116820180604052508101906126609190613c2e565b90611b14565b905060006126748285611b14565b949d969c50909a50929850939650505050505050565b60006126946118d0565b60405161190160f01b602082015260228101919091526042810186905260620160408051601f198184030181528282528051602091820120600080855291840180845281905260ff88169284019290925260608301869052608083018590529092509060019060a0016020604051602081039080840390855afa15801561271f573d6000803e3d6000fd5b5050604051601f1901519150506001600160a01b038116158015906127555750866001600160a01b0316816001600160a01b0316145b6127ad5760405162461bcd60e51b8152602060048201526024808201527f417263683a3a76616c69646174655369673a20696e76616c6964207369676e616044820152637475726560e01b6064820152608401610a65565b50505050505050565b6127df7f0000000000000000000000000000000000000000000000000000000000000000612b4d565b60006127f46127ed84612b9d565b8590611b14565b905061280a6128038584612be1565b8290611b14565b50600061282861271061090e60115485611c2e90919063ffffffff16565b9050801561284d57600a54600b5461284d916001600160a01b03908116911683611ddb565b600061286a61271061090e60105486611c2e90919063ffffffff16565b9050801561288957600a54612889906001600160a01b03163383611ddb565b60006128a76128a28361289c8787611c46565b90611c46565b612d20565b90506128b2816129e5565b7fc7606d21ac05cd309191543e409f0845c016120563783d70e4f41419dc0ef2346128db610f02565b6002546040805192835260208301919091520160405180910390a150505050505050565b601c54604051632e1a7d4d60e01b8152600481018390526001600160a01b0390911690632e1a7d4d90602401600060405180830381600087803b15801561294557600080fd5b505af1158015612959573d6000803e3d6000fd5b505050505050565b60025461296e9082611b14565b6002556001600160a01b0382166000908152600460205260409020546129949082611b14565b6001600160a01b0383166000818152600460205260408082209390935591519091907fddf252ad1be2c89b69c2b068fc378daa952ba7f163c4a11628f55a4df523b3ef90611f7c9085815260200190565b60008111612a475760405162461bcd60e51b815260206004820152602960248201527f4d617374657243686566537472617465677956313a3a5f7374616b654465706f604482015268736974546f6b656e7360b81b6064820152608401610a65565b610fcd7f000000000000000000000000000000000000000000000000000000000000000082612dc1565b600080600080612a8085612f12565b96600096508695509350505050565b600080612a9c8585613116565b509050600080846001600160a01b0316630902f1ac6040518163ffffffff1660e01b8152600401606060405180830381865afa158015612ae0573d6000803e3d6000fd5b505050506040513d601f19601f82011682018060405250810190612b049190613db5565b5091509150866001600160a01b0316836001600160a01b031614612b2457905b612b4188836001600160701b0316836001600160701b0316613147565b98975050505050505050565b601c60009054906101000a90046001600160a01b03166001600160a01b0316636c3f3ab36040518163ffffffff1660e01b8152600401600060405180830381600087803b1580156123eb57600080fd5b601254600a546000916001600160a01b03908116911603612bbc575090565b601254600a546013546108e79285926001600160a01b0391821692908216911661318f565b60008115612d17576014546001600160a01b031615612c2657601554600a54601454612c1f9285926001600160a01b0391821692908216911661318f565b90506108e7565b478015612c965773b31f66aa3c1e785363f0875a1b74e27b85fd66c76001600160a01b031663d0e30db0826040518263ffffffff1660e01b81526004016000604051808303818588803b158015612c7c57600080fd5b505af1158015612c90573d6000803e3d6000fd5b50505050505b6040516370a0823160e01b8152306004820152612d0f90859073b31f66aa3c1e785363f0875a1b74e27b85fd66c7906370a0823190602401602060405180830381865afa158015612ceb573d6000803e3d6000fd5b505050506040513d601f19601f8201168201806040525081019061289c9190613c2e565b9150506108e7565b50600092915050565b600a546009546040805160c08101909152601680546000946108e79487946001600160a01b03928316949190921692829060ff166005811115612d6557612d65613e05565b6005811115612d7657612d76613e05565b815281546001600160a01b036101009091048116602083015260018301548116604083015260028301541660608201526003820154608082015260049091015460a090910152613303565b600954601c5460405163095ea7b360e01b81526001600160a01b0391821660048201526024810184905291169063095ea7b3906044016020604051808303816000875af1158015612e16573d6000803e3d6000fd5b505050506040513d601f19601f82011682018060405250810190612e3a9190613c11565b50601c5460405163534a7e1d60e11b8152600481018390526001600160a01b039091169063a694fc3a90602401600060405180830381600087803b158015612e8157600080fd5b505af1158015612e95573d6000803e3d6000fd5b5050600954601c5460405163095ea7b360e01b81526001600160a01b039182166004820152600060248201529116925063095ea7b391506044016020604051808303816000875af1158015612eee573d6000803e3d6000fd5b505050506040513d601f19601f82011682018060405250810190611ead9190613c11565b601c5460405163032bbf4f60e01b81526001600160a01b038381166004830152600092839291169063032bbf4f90602401602060405180830381865afa158015612f60573d6000803e3d6000fd5b505050506040513d601f19601f82011682018060405250810190612f849190613c2e565b90506000612f928242613d6a565b90506000612fd4612fa2866134f2565b601c54604051630700037d60e01b81526001600160a01b03898116600483015290911690630700037d9060240161261f565b9050601c60009054906101000a90046001600160a01b03166001600160a01b0316637313ee5a6040518163ffffffff1660e01b8152600401602060405180830381865afa158015613029573d6000803e3d6000fd5b505050506040513d601f19601f8201168201806040525081019061304d9190613c2e565b60000361305c57949350505050565b6000808411801561306d5750600083115b61307857600061310c565b61310c82601c60009054906101000a90046001600160a01b03166001600160a01b0316637313ee5a6040518163ffffffff1660e01b8152600401602060405180830381865afa1580156130cf573d6000803e3d6000fd5b505050506040513d601f19601f820116820180604052508101906130f39190613c2e565b6130fd8686613d29565b6131079190613d48565b613668565b9695505050505050565b600080826001600160a01b0316846001600160a01b03161061313957828461313c565b83835b915091509250929050565b600080613156856103e5611c2e565b905060006131648285611c2e565b9050600061317883612660886103e8611c2e565b90506131848282611c3a565b979650505050505050565b60008061319c8585613116565b509050600080846001600160a01b0316630902f1ac6040518163ffffffff1660e01b8152600401606060405180830381865afa1580156131e0573d6000803e3d6000fd5b505050506040513d601f19601f820116820180604052508101906132049190613db5565b5091509150866001600160a01b0316836001600160a01b03161461322457905b6000806132448a856001600160701b0316856001600160701b0316613147565b9050886001600160a01b0316856001600160a01b03161461326157905b6132756001600160a01b038a16888c61367f565b6040805160008152602081019182905263022c0d9f60e01b9091526001600160a01b0388169063022c0d9f906132b49085908590309060248101613e1b565b600060405180830381600087803b1580156132ce57600080fd5b505af11580156132e2573d6000803e3d6000fd5b505050508181116132f357816132f5565b805b9a9950505050505050505050565b600081604001516001600160a01b0316846001600160a01b0316146133395761333685858460400151856020015161318f565b94505b6000604051806080016040528060008152602001600081526020016000815260200160008152509050858184608001516004811061337957613379613e48565b60200201526060830151604051630861cdef60e41b81526000916001600160a01b03169063861cdef0906133b69088908690600190600401613e81565b602060405180830381865afa1580156133d3573d6000803e3d6000fd5b505050506040513d601f19601f820116820180604052508101906133f79190613c2e565b9050600061341861271061090e8760a0015185611c2e90919063ffffffff16565b60608601519091506001600160a01b031663384e03db878561343a8686611c46565b6040518463ffffffff1660e01b815260040161345893929190613eae565b600060405180830381600087803b15801561347257600080fd5b505af1158015613486573d6000803e3d6000fd5b50506040516370a0823160e01b81523060048201526001600160a01b03891692506370a082319150602401602060405180830381865afa1580156134ce573d6000803e3d6000fd5b505050506040513d601f19601f82011682018060405250810190612b419190613c2e565b601c546040516361e9ef9760e11b81526001600160a01b0383811660048301526000926108e792670de0b6b3a76400009261090e92169063c3d3df2e90602401602060405180830381865afa15801561354f573d6000803e3d6000fd5b505050506040513d601f19601f820116820180604052508101906135739190613c2e565b601c60009054906101000a90046001600160a01b03166001600160a01b031663cd3daf9d6040518163ffffffff1660e01b8152600401602060405180830381865afa1580156135c6573d6000803e3d6000fd5b505050506040513d601f19601f820116820180604052508101906135ea9190613c2e565b6135f49190613d6a565b601c546040516370a0823160e01b81526001600160a01b038881166004830152909116906370a0823190602401602060405180830381865afa15801561363e573d6000803e3d6000fd5b505050506040513d601f19601f820116820180604052508101906136629190613c2e565b90611c2e565b60008183106136785750806108e7565b50816108e7565b604080516001600160a01b03848116602483015260448083018590528351808403909101815260649092018352602080830180516001600160e01b031663a9059cbb60e01b17905283518085019094528084527f5361666545524332303a206c6f772d6c6576656c2063616c6c206661696c656490840152611ead9286929160009161370f91851690849061378c565b805190915015611ead578080602001905181019061372d9190613c11565b611ead5760405162461bcd60e51b815260206004820152602a60248201527f5361666545524332303a204552433230206f7065726174696f6e20646964206e6044820152691bdd081cdd58d8d9595960b21b6064820152608401610a65565b606061379b84846000856137a3565b949350505050565b6060824710156138045760405162461bcd60e51b815260206004820152602660248201527f416464726573733a20696e73756666696369656e742062616c616e636520666f6044820152651c8818d85b1b60d21b6064820152608401610a65565b6001600160a01b0385163b61385b5760405162461bcd60e51b815260206004820152601d60248201527f416464726573733a2063616c6c20746f206e6f6e2d636f6e74726163740000006044820152606401610a65565b600080866001600160a01b031685876040516138779190613ed9565b60006040518083038185875af1925050503d80600081146138b4576040519150601f19603f3d011682016040523d82523d6000602084013e6138b9565b606091505b5091509150613184828286606083156138d3575081610a05565b8251156138e35782518084602001fd5b8160405162461bcd60e51b8152600401610a659190613955565b60005b83811015613918578181015183820152602001613900565b838111156116195750506000910152565b600081518084526139418160208601602086016138fd565b601f01601f19169290920160200192915050565b602081526000610a056020830184613929565b6001600160a01b0381168114610fcd57600080fd5b6000806040838503121561399057600080fd5b823561399b81613968565b946020939093013593505050565b6000806000606084860312156139be57600080fd5b83356139c981613968565b925060208401356139d981613968565b929592945050506040919091013590565b6000602082840312156139fc57600080fd5b5035919050565b600060208284031215613a1557600080fd5b8135610a0581613968565b803560ff81168114613a3157600080fd5b919050565b600080600080600060a08688031215613a4e57600080fd5b8535945060208601359350613a6560408701613a20565b94979396509394606081013594506080013592915050565b8015158114610fcd57600080fd5b600060208284031215613a9d57600080fd5b8135610a0581613a7d565b60008060408385031215613abb57600080fd5b8235613ac681613968565b91506020830135613ad681613968565b809150509250929050565b60008060408385031215613af457600080fd5b823591506020830135613ad681613a7d565b600080600080600080600060e0888a031215613b2157600080fd5b8735613b2c81613968565b96506020880135613b3c81613968565b95506040880135945060608801359350613b5860808901613a20565b925060a0880135915060c0880135905092959891949750929550565b600181811c90821680613b8857607f821691505b602082108103613ba857634e487b7160e01b600052602260045260246000fd5b50919050565b6020808252818101527f4f776e61626c653a2063616c6c6572206973206e6f7420746865206f776e6572604082015260600190565b6020808252601490820152732cb0b5a9ba3930ba32b3bc9d1d37b7363ca232bb60611b604082015260600190565b600060208284031215613c2357600080fd5b8151610a0581613a7d565b600060208284031215613c4057600080fd5b5051919050565b634e487b7160e01b600052601160045260246000fd5b600060018201613c6f57613c6f613c47565b5060010190565b600080835481600182811c915080831680613c9257607f831692505b60208084108203613cb157634e487b7160e01b86526022600452602486fd5b818015613cc55760018114613cd657613d03565b60ff19861689528489019650613d03565b60008a81526020902060005b86811015613cfb5781548b820152908501908301613ce2565b505084890196505b509498975050505050505050565b60008219821115613d2457613d24613c47565b500190565b6000816000190483118215151615613d4357613d43613c47565b500290565b600082613d6557634e487b7160e01b600052601260045260246000fd5b500490565b600082821015613d7c57613d7c613c47565b500390565b600060208284031215613d9357600080fd5b8151610a0581613968565b80516001600160701b0381168114613a3157600080fd5b600080600060608486031215613dca57600080fd5b613dd384613d9e565b9250613de160208501613d9e565b9150604084015163ffffffff81168114613dfa57600080fd5b809150509250925092565b634e487b7160e01b600052602160045260246000fd5b84815283602082015260018060a01b038316604082015260806060820152600061310c6080830184613929565b634e487b7160e01b600052603260045260246000fd5b8060005b6004811015611619578151845260209384019390910190600101613e62565b6001600160a01b038416815260c08101613e9e6020830185613e5e565b82151560a0830152949350505050565b6001600160a01b038416815260c08101613ecb6020830185613e5e565b8260a0830152949350505050565b60008251613eeb8184602087016138fd565b919091019291505056fe5f6275726e3a206275726e20616d6f756e74206578636565647320746f74616c20737570706c797472616e7366657246726f6d3a207472616e7366657220616d6f756e74206578636565647320616c6c6f77616e63655f6275726e3a206275726e20616d6f756e7420657863656564732066726f6d2062616c616e63655f7472616e73666572546f6b656e733a207472616e7366657220657863656564732066726f6d2062616c616e6365a264697066735822122014ef379a7f9077ad1a980a94cabc07c84696df2ea249ba116941d17a9e37543c64736f6c634300080d003353776170207061697220277377617050616972506f6f6c5265776172642720644f776e61626c653a2063616c6c6572206973206e6f7420746865206f776e65728be0079c531659141344cd1fd0a4f28419497f9722a3daafe3b4186f6b6457e0",
    "linkReferences": {}
  },
  "methodIdentifiers": {
    "ADMIN_FEE_BIPS()": "07677111",
    "DEPOSITS_ENABLED()": "b52a321f",
    "DEV_FEE_BIPS()": "5ea682ea",
    "DOMAIN_TYPEHASH()": "20606b70",
    "MAX_TOKENS_TO_DEPOSIT_WITHOUT_REINVEST()": "789139bc",
    "MIN_TOKENS_TO_REINVEST()": "bd079f55",
    "PERMIT_TYPEHASH()": "30adf81f",
    "PID()": "5eaec0e4",
    "REINVEST_REWARD_BIPS()": "8aff733d",
    "VERSION_HASH()": "9e4e7318",
    "allowDepositor(address)": "4bebd1e7",
    "allowance(address,address)": "dd62ed3e",
    "allowedDepositors(address)": "483c2ef0",
    "approve(address,uint256)": "095ea7b3",
    "balanceOf(address)": "70a08231",
    "checkReward()": "c4b24a46",
    "decimals()": "313ce567",
    "deposit(uint256)": "b6b55f25",
    "depositFor(address,uint256)": "2f4f21e2",
    "depositToken()": "c89039c5",
    "depositWithPermit(uint256,uint256,uint8,bytes32,bytes32)": "4a970be7",
    "devAddr()": "da09c72c",
    "estimateDeployedBalance()": "0f23475d",
    "estimateReinvestReward()": "b9e57b80",
    "extraToken()": "a1a4ddeb",
    "getDepositTokensForShares(uint256)": "eab89a5a",
    "getDomainSeparator()": "ed24911d",
    "getSharesForDepositTokens(uint256)": "dd8ce4d6",
    "name()": "06fdde03",
    "nonces(address)": "7ecebe00",
    "numberOfAllowedDepositors()": "3bdc6e72",
    "owner()": "8da5cb5b",
    "permit(address,address,uint256,uint256,uint8,bytes32,bytes32)": "d505accf",
    "recoverAVAX(uint256)": "4ebb7916",
    "recoverERC20(address,uint256)": "8980f11f",
    "reinvest()": "fdb5a03e",
    "removeDepositor(address)": "8b73e606",
    "renounceOwnership()": "715018a6",
    "rescueDeployedFunds(uint256,bool)": "ac0d31ff",
    "revokeAllowance(address,address)": "7ae26773",
    "rewardToken()": "f7c618c1",
    "setExtraRewardSwapPair(address)": "8432e894",
    "setMaxSlippageBips(uint256)": "733ba2e4",
    "stakingContract()": "ee99205c",
    "swapPairExtraReward()": "909ac8f4",
    "symbol()": "95d89b41",
    "totalDeposits()": "7d882097",
    "totalSupply()": "18160ddd",
    "transfer(address,uint256)": "a9059cbb",
    "transferFrom(address,address,uint256)": "23b872dd",
    "transferOwnership(address)": "f2fde38b",
    "updateAdminFee(uint256)": "cff1b6ef",
    "updateDepositsEnabled(bool)": "4e77ace5",
    "updateDevAddr(address)": "9291d563",
    "updateDevFee(uint256)": "99729ec1",
    "updateMaxTokensToDepositWithoutReinvest(uint256)": "e21ac825",
    "updateMinTokensToReinvest(uint256)": "81837230",
    "updateReinvestReward(uint256)": "a8ae2b7c",
    "withdraw(uint256)": "2e1a7d4d"
  },
  "id": 113
}