{
  "abi": [
    {
      "inputs": [],
      "stateMutability": "nonpayable",
      "type": "constructor"
    },
    {
      "anonymous": false,
      "inputs": [
        {
          "indexed": true,
          "internalType": "address",
          "name": "strategy",
          "type": "address"
        },
        {
          "indexed": true,
          "internalType": "address",
          "name": "depositor",
          "type": "address"
        }
      ],
      "name": "AllowDepositor",
      "type": "event"
    },
    {
      "anonymous": false,
      "inputs": [
        {
          "indexed": true,
          "internalType": "address",
          "name": "strategy",
          "type": "address"
        }
      ],
      "name": "EmergencyWithdraw",
      "type": "event"
    },
    {
      "anonymous": false,
      "inputs": [
        {
          "indexed": true,
          "internalType": "address",
          "name": "strategy",
          "type": "address"
        },
        {
          "indexed": false,
          "internalType": "uint256",
          "name": "proposedValue",
          "type": "uint256"
        },
        {
          "indexed": false,
          "internalType": "uint256",
          "name": "timelock",
          "type": "uint256"
        }
      ],
      "name": "ProposeAdminFee",
      "type": "event"
    },
    {
      "anonymous": false,
      "inputs": [
        {
          "indexed": true,
          "internalType": "address",
          "name": "strategy",
          "type": "address"
        },
        {
          "indexed": false,
          "internalType": "uint256",
          "name": "proposedValue",
          "type": "uint256"
        },
        {
          "indexed": false,
          "internalType": "uint256",
          "name": "timelock",
          "type": "uint256"
        }
      ],
      "name": "ProposeDevFee",
      "type": "event"
    },
    {
      "anonymous": false,
      "inputs": [
        {
          "indexed": true,
          "internalType": "address",
          "name": "strategy",
          "type": "address"
        },
        {
          "indexed": true,
          "internalType": "address",
          "name": "proposedValue",
          "type": "address"
        },
        {
          "indexed": false,
          "internalType": "uint256",
          "name": "timelock",
          "type": "uint256"
        }
      ],
      "name": "ProposeOwner",
      "type": "event"
    },
    {
      "anonymous": false,
      "inputs": [
        {
          "indexed": true,
          "internalType": "address",
          "name": "strategy",
          "type": "address"
        },
        {
          "indexed": true,
          "internalType": "address",
          "name": "proposedToken",
          "type": "address"
        },
        {
          "indexed": false,
          "internalType": "uint256",
          "name": "proposedValue",
          "type": "uint256"
        },
        {
          "indexed": false,
          "internalType": "uint256",
          "name": "timelock",
          "type": "uint256"
        }
      ],
      "name": "ProposeRecovery",
      "type": "event"
    },
    {
      "anonymous": false,
      "inputs": [
        {
          "indexed": true,
          "internalType": "address",
          "name": "strategy",
          "type": "address"
        },
        {
          "indexed": false,
          "internalType": "uint256",
          "name": "proposedValue",
          "type": "uint256"
        },
        {
          "indexed": false,
          "internalType": "uint256",
          "name": "timelock",
          "type": "uint256"
        }
      ],
      "name": "ProposeReinvestReward",
      "type": "event"
    },
    {
      "anonymous": false,
      "inputs": [
        {
          "indexed": true,
          "internalType": "address",
          "name": "strategy",
          "type": "address"
        },
        {
          "indexed": true,
          "internalType": "address",
          "name": "token",
          "type": "address"
        },
        {
          "indexed": false,
          "internalType": "uint256",
          "name": "amount",
          "type": "uint256"
        }
      ],
      "name": "Recover",
      "type": "event"
    },
    {
      "anonymous": false,
      "inputs": [
        {
          "indexed": true,
          "internalType": "address",
          "name": "strategy",
          "type": "address"
        },
        {
          "indexed": true,
          "internalType": "address",
          "name": "depositor",
          "type": "address"
        }
      ],
      "name": "RemoveDepositor",
      "type": "event"
    },
    {
      "anonymous": false,
      "inputs": [
        {
          "indexed": true,
          "internalType": "address",
          "name": "strategy",
          "type": "address"
        },
        {
          "indexed": false,
          "internalType": "uint256",
          "name": "newValue",
          "type": "uint256"
        }
      ],
      "name": "SetAdminFee",
      "type": "event"
    },
    {
      "anonymous": false,
      "inputs": [
        {
          "indexed": true,
          "internalType": "address",
          "name": "strategy",
          "type": "address"
        }
      ],
      "name": "SetAllowances",
      "type": "event"
    },
    {
      "anonymous": false,
      "inputs": [
        {
          "indexed": true,
          "internalType": "address",
          "name": "strategy",
          "type": "address"
        },
        {
          "indexed": false,
          "internalType": "bool",
          "name": "newValue",
          "type": "bool"
        }
      ],
      "name": "SetDepositsEnabled",
      "type": "event"
    },
    {
      "anonymous": false,
      "inputs": [
        {
          "indexed": true,
          "internalType": "address",
          "name": "strategy",
          "type": "address"
        },
        {
          "indexed": false,
          "internalType": "uint256",
          "name": "newValue",
          "type": "uint256"
        }
      ],
      "name": "SetDevFee",
      "type": "event"
    },
    {
      "anonymous": false,
      "inputs": [
        {
          "indexed": true,
          "internalType": "address",
          "name": "strategy",
          "type": "address"
        },
        {
          "indexed": false,
          "internalType": "uint256",
          "name": "newValue",
          "type": "uint256"
        }
      ],
      "name": "SetMaxTokensToDepositWithoutReinvest",
      "type": "event"
    },
    {
      "anonymous": false,
      "inputs": [
        {
          "indexed": true,
          "internalType": "address",
          "name": "strategy",
          "type": "address"
        },
        {
          "indexed": false,
          "internalType": "uint256",
          "name": "newValue",
          "type": "uint256"
        }
      ],
      "name": "SetMinTokensToReinvest",
      "type": "event"
    },
    {
      "anonymous": false,
      "inputs": [
        {
          "indexed": true,
          "internalType": "address",
          "name": "strategy",
          "type": "address"
        },
        {
          "indexed": true,
          "internalType": "address",
          "name": "newValue",
          "type": "address"
        }
      ],
      "name": "SetOwner",
      "type": "event"
    },
    {
      "anonymous": false,
      "inputs": [
        {
          "indexed": true,
          "internalType": "address",
          "name": "strategy",
          "type": "address"
        },
        {
          "indexed": false,
          "internalType": "uint256",
          "name": "newValue",
          "type": "uint256"
        }
      ],
      "name": "SetReinvestReward",
      "type": "event"
    },
    {
      "anonymous": false,
      "inputs": [
        {
          "indexed": true,
          "internalType": "address",
          "name": "token",
          "type": "address"
        },
        {
          "indexed": false,
          "internalType": "uint256",
          "name": "amount",
          "type": "uint256"
        }
      ],
      "name": "Sweep",
      "type": "event"
    },
    {
      "anonymous": false,
      "inputs": [
        {
          "indexed": false,
          "internalType": "enum YakTimelockForDexStrategyV4.PermissionedTimelockFunctions",
          "name": "_ptf",
          "type": "uint8"
        },
        {
          "indexed": true,
          "internalType": "address",
          "name": "account",
          "type": "address"
        }
      ],
      "name": "grant",
      "type": "event"
    },
    {
      "anonymous": false,
      "inputs": [
        {
          "indexed": false,
          "internalType": "enum YakTimelockForDexStrategyV4.PermissionedTimelockFunctions",
          "name": "_ptf",
          "type": "uint8"
        },
        {
          "indexed": true,
          "internalType": "address",
          "name": "account",
          "type": "address"
        }
      ],
      "name": "revoke",
      "type": "event"
    },
    {
      "inputs": [
        {
          "internalType": "address",
          "name": "_strategy",
          "type": "address"
        },
        {
          "internalType": "address",
          "name": "depositor",
          "type": "address"
        }
      ],
      "name": "allowDepositor",
      "outputs": [],
      "stateMutability": "nonpayable",
      "type": "function"
    },
    {
      "inputs": [
        {
          "internalType": "enum YakTimelockForDexStrategyV4.PermissionedTimelockFunctions",
          "name": "",
          "type": "uint8"
        },
        {
          "internalType": "address",
          "name": "",
          "type": "address"
        }
      ],
      "name": "authorizedAddressess",
      "outputs": [
        {
          "internalType": "bool",
          "name": "",
          "type": "bool"
        }
      ],
      "stateMutability": "view",
      "type": "function"
    },
    {
      "inputs": [
        {
          "internalType": "address",
          "name": "_strategy",
          "type": "address"
        }
      ],
      "name": "emergencyWithdraw",
      "outputs": [],
      "stateMutability": "nonpayable",
      "type": "function"
    },
    {
      "inputs": [],
      "name": "feeCollector",
      "outputs": [
        {
          "internalType": "address",
          "name": "",
          "type": "address"
        }
      ],
      "stateMutability": "view",
      "type": "function"
    },
    {
      "inputs": [
        {
          "internalType": "enum YakTimelockForDexStrategyV4.PermissionedTimelockFunctions",
          "name": "_ptf",
          "type": "uint8"
        },
        {
          "internalType": "address",
          "name": "account",
          "type": "address"
        }
      ],
      "name": "grantAccountAccess",
      "outputs": [],
      "stateMutability": "nonpayable",
      "type": "function"
    },
    {
      "inputs": [
        {
          "internalType": "enum YakTimelockForDexStrategyV4.PermissionedTimelockFunctions",
          "name": "_ptf",
          "type": "uint8"
        }
      ],
      "name": "listofGrantedAccounts",
      "outputs": [
        {
          "internalType": "address[]",
          "name": "",
          "type": "address[]"
        }
      ],
      "stateMutability": "view",
      "type": "function"
    },
    {
      "inputs": [],
      "name": "manager",
      "outputs": [
        {
          "internalType": "address",
          "name": "",
          "type": "address"
        }
      ],
      "stateMutability": "view",
      "type": "function"
    },
    {
      "inputs": [
        {
          "internalType": "address",
          "name": "",
          "type": "address"
        }
      ],
      "name": "pendingAVAXToRecover",
      "outputs": [
        {
          "internalType": "uint256",
          "name": "",
          "type": "uint256"
        }
      ],
      "stateMutability": "view",
      "type": "function"
    },
    {
      "inputs": [
        {
          "internalType": "address",
          "name": "",
          "type": "address"
        }
      ],
      "name": "pendingAdminFees",
      "outputs": [
        {
          "internalType": "uint256",
          "name": "",
          "type": "uint256"
        }
      ],
      "stateMutability": "view",
      "type": "function"
    },
    {
      "inputs": [
        {
          "internalType": "address",
          "name": "",
          "type": "address"
        }
      ],
      "name": "pendingDevFees",
      "outputs": [
        {
          "internalType": "uint256",
          "name": "",
          "type": "uint256"
        }
      ],
      "stateMutability": "view",
      "type": "function"
    },
    {
      "inputs": [
        {
          "internalType": "address",
          "name": "",
          "type": "address"
        }
      ],
      "name": "pendingOwners",
      "outputs": [
        {
          "internalType": "address",
          "name": "",
          "type": "address"
        }
      ],
      "stateMutability": "view",
      "type": "function"
    },
    {
      "inputs": [
        {
          "internalType": "address",
          "name": "",
          "type": "address"
        }
      ],
      "name": "pendingReinvestRewards",
      "outputs": [
        {
          "internalType": "uint256",
          "name": "",
          "type": "uint256"
        }
      ],
      "stateMutability": "view",
      "type": "function"
    },
    {
      "inputs": [
        {
          "internalType": "address",
          "name": "",
          "type": "address"
        }
      ],
      "name": "pendingTokenAddressesToRecover",
      "outputs": [
        {
          "internalType": "address",
          "name": "",
          "type": "address"
        }
      ],
      "stateMutability": "view",
      "type": "function"
    },
    {
      "inputs": [
        {
          "internalType": "address",
          "name": "",
          "type": "address"
        }
      ],
      "name": "pendingTokenAmountsToRecover",
      "outputs": [
        {
          "internalType": "uint256",
          "name": "",
          "type": "uint256"
        }
      ],
      "stateMutability": "view",
      "type": "function"
    },
    {
      "inputs": [
        {
          "internalType": "enum YakTimelockForDexStrategyV4.PermissionedTimelockFunctions",
          "name": "",
          "type": "uint8"
        },
        {
          "internalType": "uint256",
          "name": "",
          "type": "uint256"
        }
      ],
      "name": "permissionedFunctionOwners",
      "outputs": [
        {
          "internalType": "address",
          "name": "",
          "type": "address"
        }
      ],
      "stateMutability": "view",
      "type": "function"
    },
    {
      "inputs": [
        {
          "internalType": "address",
          "name": "_strategy",
          "type": "address"
        },
        {
          "internalType": "uint256",
          "name": "_pendingAdminFee",
          "type": "uint256"
        }
      ],
      "name": "proposeAdminFee",
      "outputs": [],
      "stateMutability": "nonpayable",
      "type": "function"
    },
    {
      "inputs": [
        {
          "internalType": "address",
          "name": "_strategy",
          "type": "address"
        },
        {
          "internalType": "uint256",
          "name": "_pendingDevFee",
          "type": "uint256"
        }
      ],
      "name": "proposeDevFee",
      "outputs": [],
      "stateMutability": "nonpayable",
      "type": "function"
    },
    {
      "inputs": [
        {
          "internalType": "address",
          "name": "_strategy",
          "type": "address"
        },
        {
          "internalType": "address",
          "name": "_pendingOwner",
          "type": "address"
        }
      ],
      "name": "proposeOwner",
      "outputs": [],
      "stateMutability": "nonpayable",
      "type": "function"
    },
    {
      "inputs": [
        {
          "internalType": "address",
          "name": "_strategy",
          "type": "address"
        },
        {
          "internalType": "uint256",
          "name": "_pendingAVAXToRecover",
          "type": "uint256"
        }
      ],
      "name": "proposeRecoverAVAX",
      "outputs": [],
      "stateMutability": "nonpayable",
      "type": "function"
    },
    {
      "inputs": [
        {
          "internalType": "address",
          "name": "_strategy",
          "type": "address"
        },
        {
          "internalType": "address",
          "name": "_pendingTokenAddressToRecover",
          "type": "address"
        },
        {
          "internalType": "uint256",
          "name": "_pendingTokenAmountToRecover",
          "type": "uint256"
        }
      ],
      "name": "proposeRecoverERC20",
      "outputs": [],
      "stateMutability": "nonpayable",
      "type": "function"
    },
    {
      "inputs": [
        {
          "internalType": "address",
          "name": "_strategy",
          "type": "address"
        },
        {
          "internalType": "uint256",
          "name": "_pendingReinvestReward",
          "type": "uint256"
        }
      ],
      "name": "proposeReinvestReward",
      "outputs": [],
      "stateMutability": "nonpayable",
      "type": "function"
    },
    {
      "inputs": [
        {
          "internalType": "address",
          "name": "_strategy",
          "type": "address"
        },
        {
          "internalType": "address",
          "name": "depositor",
          "type": "address"
        }
      ],
      "name": "removeDepositor",
      "outputs": [],
      "stateMutability": "nonpayable",
      "type": "function"
    },
    {
      "inputs": [
        {
          "internalType": "address",
          "name": "_strategy",
          "type": "address"
        },
        {
          "internalType": "uint256",
          "name": "minReturnAmountAccepted",
          "type": "uint256"
        },
        {
          "internalType": "bool",
          "name": "disableDeposits",
          "type": "bool"
        }
      ],
      "name": "rescueDeployedFunds",
      "outputs": [],
      "stateMutability": "nonpayable",
      "type": "function"
    },
    {
      "inputs": [
        {
          "internalType": "enum YakTimelockForDexStrategyV4.PermissionedTimelockFunctions",
          "name": "_ptf",
          "type": "uint8"
        },
        {
          "internalType": "address",
          "name": "account",
          "type": "address"
        }
      ],
      "name": "revokeAccountAccess",
      "outputs": [],
      "stateMutability": "nonpayable",
      "type": "function"
    },
    {
      "inputs": [
        {
          "internalType": "address",
          "name": "_strategy",
          "type": "address"
        }
      ],
      "name": "setAdminFee",
      "outputs": [],
      "stateMutability": "nonpayable",
      "type": "function"
    },
    {
      "inputs": [
        {
          "internalType": "address",
          "name": "_strategy",
          "type": "address"
        }
      ],
      "name": "setAllowances",
      "outputs": [],
      "stateMutability": "nonpayable",
      "type": "function"
    },
    {
      "inputs": [
        {
          "internalType": "address",
          "name": "_strategy",
          "type": "address"
        },
        {
          "internalType": "bool",
          "name": "newValue",
          "type": "bool"
        }
      ],
      "name": "setDepositsEnabled",
      "outputs": [],
      "stateMutability": "nonpayable",
      "type": "function"
    },
    {
      "inputs": [
        {
          "internalType": "address",
          "name": "_strategy",
          "type": "address"
        }
      ],
      "name": "setDevFee",
      "outputs": [],
      "stateMutability": "nonpayable",
      "type": "function"
    },
    {
      "inputs": [
        {
          "internalType": "address",
          "name": "_strategy",
          "type": "address"
        },
        {
          "internalType": "uint256",
          "name": "newValue",
          "type": "uint256"
        }
      ],
      "name": "setMaxTokensToDepositWithoutReinvest",
      "outputs": [],
      "stateMutability": "nonpayable",
      "type": "function"
    },
    {
      "inputs": [
        {
          "internalType": "address",
          "name": "_strategy",
          "type": "address"
        },
        {
          "internalType": "uint256",
          "name": "newValue",
          "type": "uint256"
        }
      ],
      "name": "setMinTokensToReinvest",
      "outputs": [],
      "stateMutability": "nonpayable",
      "type": "function"
    },
    {
      "inputs": [
        {
          "internalType": "address",
          "name": "_strategy",
          "type": "address"
        }
      ],
      "name": "setOwner",
      "outputs": [],
      "stateMutability": "nonpayable",
      "type": "function"
    },
    {
      "inputs": [
        {
          "internalType": "address",
          "name": "_strategy",
          "type": "address"
        }
      ],
      "name": "setRecoverAVAX",
      "outputs": [],
      "stateMutability": "nonpayable",
      "type": "function"
    },
    {
      "inputs": [
        {
          "internalType": "address",
          "name": "_strategy",
          "type": "address"
        }
      ],
      "name": "setRecoverERC20",
      "outputs": [],
      "stateMutability": "nonpayable",
      "type": "function"
    },
    {
      "inputs": [
        {
          "internalType": "address",
          "name": "_strategy",
          "type": "address"
        }
      ],
      "name": "setReinvestReward",
      "outputs": [],
      "stateMutability": "nonpayable",
      "type": "function"
    },
    {
      "inputs": [
        {
          "internalType": "uint256",
          "name": "amount",
          "type": "uint256"
        }
      ],
      "name": "sweepAVAX",
      "outputs": [],
      "stateMutability": "nonpayable",
      "type": "function"
    },
    {
      "inputs": [
        {
          "internalType": "address",
          "name": "tokenAddress",
          "type": "address"
        },
        {
          "internalType": "uint256",
          "name": "tokenAmount",
          "type": "uint256"
        }
      ],
      "name": "sweepTokens",
      "outputs": [],
      "stateMutability": "nonpayable",
      "type": "function"
    },
    {
      "inputs": [
        {
          "internalType": "address",
          "name": "",
          "type": "address"
        },
        {
          "internalType": "enum YakTimelockForDexStrategyV4.Functions",
          "name": "",
          "type": "uint8"
        }
      ],
      "name": "timelock",
      "outputs": [
        {
          "internalType": "uint256",
          "name": "",
          "type": "uint256"
        }
      ],
      "stateMutability": "view",
      "type": "function"
    },
    {
      "inputs": [],
      "name": "timelockLengthForAssetRecovery",
      "outputs": [
        {
          "internalType": "uint256",
          "name": "",
          "type": "uint256"
        }
      ],
      "stateMutability": "view",
      "type": "function"
    },
    {
      "inputs": [],
      "name": "timelockLengthForFeeChanges",
      "outputs": [
        {
          "internalType": "uint256",
          "name": "",
          "type": "uint256"
        }
      ],
      "stateMutability": "view",
      "type": "function"
    },
    {
      "inputs": [],
      "name": "timelockLengthForOwnershipTransfer",
      "outputs": [
        {
          "internalType": "uint256",
          "name": "",
          "type": "uint256"
        }
      ],
      "stateMutability": "view",
      "type": "function"
    }
  ],
  "bytecode": {
    "object": "0x60c060405234801561001057600080fd5b5033608081905260a081905280612fba6100c160003960006104d60152600081816103000152818161087701528181610ccb01528181610e3b01528181610fb4015281816110c5015281816111e70152818161131c01528181611588015281816118c4015281816119f901528181611ada01528181611c2401528181611d75015281816120260152818161210a015281816123a7015281816125a5015281816126bd01526128e30152612fba6000f3fe608060405234801561001057600080fd5b50600436106102485760003560e01c806391e6e9681161013b578063d4a1fd93116100b8578063e9f516b11161007c578063e9f516b1146105c2578063ef8cb903146105d5578063f0114c36146105e8578063f916c27714610608578063fcb2749a1461061b57600080fd5b8063d4a1fd931461052b578063dec660361461053e578063e019a1e614610551578063e27286421461058f578063e9129948146105af57600080fd5b8063b7666f3e116100ff578063b7666f3e1461049e578063bfe3c7de146104be578063c415b95c146104d1578063c8cb96e5146104f8578063d049c7521461050b57600080fd5b806391e6e9681461041057806395e2fbf014610423578063a526778614610443578063a75c74521461044c578063ae2c5fab1461047557600080fd5b80635f3a0854116101c9578063719d56ee1161018d578063719d56ee146103b157806384f2c83f146103c457806389bc3d9f146103d75780639017e465146103ea57806391609e81146103fd57600080fd5b80635f3a08541461033a578063614b75ba146103655780636996d29a146103785780636ff1c9bc1461038b5780637042bcf81461039e57600080fd5b806327399d551161021057806327399d55146102af5780633242a566146102c25780633809f3fe146102d55780633c059027146102e8578063481c6a75146102fb57600080fd5b80630135002c1461024d5780630bb6f0ef146102625780630fba7d621461027f578063137a37e21461029257806313af40351461029c575b600080fd5b61026061025b366004612bea565b61063b565b005b61026c6205460081565b6040519081526020015b60405180910390f35b61026061028d366004612c0c565b610830565b61026c6202a30081565b6102606102aa366004612bea565b610958565b6102606102bd366004612bea565b610aeb565b6102606102d0366004612c36565b610c84565b6102606102e3366004612c0c565b610df4565b6102606102f6366004612bea565b610f6d565b6103227f000000000000000000000000000000000000000000000000000000000000000081565b6040516001600160a01b039091168152602001610276565b61026c610348366004612c72565b600960209081526000928352604080842090915290825290205481565b610260610373366004612cbe565b61107e565b610260610386366004612c0c565b6111a0565b610260610399366004612bea565b6112d5565b6102606103ac366004612bea565b6113e6565b6102606103bf366004612d0d565b61157d565b6102606103d2366004612c0c565b61187d565b6102606103e5366004612d40565b6119b2565b6102606103f8366004612d6c565b611acf565b61026061040b366004612c0c565b611bdd565b61026061041e366004612c0c565b611d2e565b61026c610431366004612bea565b60026020526000908152604090205481565b61026c61708081565b61032261045a366004612bea565b6000602081905290815260409020546001600160a01b031681565b610322610483366004612bea565b6004602052600090815260409020546001600160a01b031681565b61026c6104ac366004612bea565b60066020526000908152604090205481565b6102606104cc366004612bea565b611e48565b6103227f000000000000000000000000000000000000000000000000000000000000000081565b610260610506366004612d6c565b611fdf565b61051e610519366004612d88565b6120fd565b6040516102769190612da3565b610260610539366004612bea565b6121ca565b61026061054c366004612c0c565b612361565b61057f61055f366004612d0d565b600860209081526000928352604080842090915290825290205460ff1681565b6040519015158152602001610276565b61026c61059d366004612bea565b60056020526000908152604090205481565b6102606105bd366004612df0565b61255e565b6102606105d0366004612d0d565b6126b2565b6102606105e3366004612d6c565b61289c565b61026c6105f6366004612bea565b60036020526000908152604090205481565b610322610616366004612e09565b6129ba565b61026c610629366004612bea565b60016020526000908152604090205481565b6001600160a01b03811660009081526009602090815260408083206007808552925290912054829190158015906106bc57506001600160a01b0382166000908152600960205260408120429183600881111561069957610699612e25565b60088111156106aa576106aa612e25565b81526020019081526020016000205411155b6106e15760405162461bcd60e51b81526004016106d890612e3b565b60405180910390fd5b6001600160a01b03838116600081815260046020818152604080842054600590925292839020549251638980f11f60e01b8152941690840152602483015290638980f11f90604401600060405180830381600087803b15801561074357600080fd5b505af1158015610757573d6000803e3d6000fd5b505050506001600160a01b03838116600081815260046020908152604080832054600583529281902054905190815291909316927ff6891c84a6c6af32a6d052172a8acc4c631b1d5057ffa2bc1da268b6938ea2da910160405180910390a36001600160a01b03808416600090815260046020908152604080832080546001600160a01b0319169055600582528083208390559285168252600990529081208183600881111561080957610809612e25565b600881111561081a5761081a612e25565b8152602081019190915260400160002055505050565b3360008181527fe4c2e8be66af8dd2d277000f4f830a10546f8b14e45cd850b875c98ba0f0d2cd60205260409020546008919060ff16806108995750336001600160a01b037f000000000000000000000000000000000000000000000000000000000000000016145b6108b55760405162461bcd60e51b81526004016106d890612e7e565b604051630818372360e41b8152600481018490526001600160a01b03851690638183723090602401600060405180830381600087803b1580156108f757600080fd5b505af115801561090b573d6000803e3d6000fd5b50505050836001600160a01b03167f33e6c9b106719003294f6819992332aa70728bcccd167ba6905cc7f94a5618ba8460405161094a91815260200190565b60405180910390a250505050565b6001600160a01b03811660009081526009602090815260408083206001808552925290912054829190158015906109d957506001600160a01b038216600090815260096020526040812042918360088111156109b6576109b6612e25565b60088111156109c7576109c7612e25565b81526020019081526020016000205411155b6109f55760405162461bcd60e51b81526004016106d890612e3b565b6001600160a01b038381166000818152602081905260409081902054905163f2fde38b60e01b8152921660048301529063f2fde38b90602401600060405180830381600087803b158015610a4857600080fd5b505af1158015610a5c573d6000803e3d6000fd5b505050506001600160a01b038381166000818152602081905260408082205490519316927fcbf985117192c8f614a58aaf97226bb80a754772f5f6edf06f87c675f2e6c6639190a36001600160a01b0380841660009081526020818152604080832080546001600160a01b03191690559285168252600990529081208183600881111561080957610809612e25565b6001600160a01b0381166000908152600960209081526040808320600880855292529091205482919015801590610b6c57506001600160a01b03821660009081526009602052604081204291836008811115610b4957610b49612e25565b6008811115610b5a57610b5a612e25565b81526020019081526020016000205411155b610b885760405162461bcd60e51b81526004016106d890612e3b565b6001600160a01b0383166000818152600660205260409081902054905163275dbc8b60e11b8152634ebb791691610bc59160040190815260200190565b600060405180830381600087803b158015610bdf57600080fd5b505af1158015610bf3573d6000803e3d6000fd5b505050506001600160a01b03831660008181526006602090815260408083205490519081529192917ff6891c84a6c6af32a6d052172a8acc4c631b1d5057ffa2bc1da268b6938ea2da910160405180910390a36001600160a01b0380841660009081526006602090815260408083208390559285168252600990529081208183600881111561080957610809612e25565b3360008181527f13acf3fc7bed94759963f076d5d3443d88732026bffc8253bdf4a6e65f21ecc560205260409020546006919060ff1680610ced5750336001600160a01b037f000000000000000000000000000000000000000000000000000000000000000016145b610d095760405162461bcd60e51b81526004016106d890612e7e565b8460076202a300610d1a8142612ecb565b6001600160a01b038416600090815260096020526040812090846008811115610d4557610d45612e25565b6008811115610d5657610d56612e25565b815260208082019290925260409081016000908120939093556001600160a01b038b81168085526004845282852080546001600160a01b031916928d169283179055600584528285208b905560098452828520600786528452938290205482518b81529384015292917ff27444df37d5349d51b8293061b66a652317d627aee0c94a6fff790cb823f04e910160405180910390a35050505050505050565b3360008181527f9321edea6e3be4df59a344b401fab4f888b556fda1f954244cff9204bad624b860205260409020546004919060ff1680610e5d5750336001600160a01b037f000000000000000000000000000000000000000000000000000000000000000016145b610e795760405162461bcd60e51b81526004016106d890612e7e565b836005617080610e898142612ecb565b6001600160a01b038416600090815260096020526040812090846008811115610eb457610eb4612e25565b6008811115610ec557610ec5612e25565b815260208082019290925260409081016000908120939093556001600160a01b038a16808452600283528184208a90556009909252822090917f202841c20acb756c03af55c523c8e77bd04837b8cdbf3b8c7887df137646cb2691899160055b6008811115610f3657610f36612e25565b815260200190815260200160002054604051610f5c929190918252602082015260400190565b60405180910390a250505050505050565b3360008181527f9006e1a1959cda25aa0dba7b7a958efb843c4c8cb81a2c2fb8637a074e0818f26020526040902054600d919060ff1680610fd65750336001600160a01b037f000000000000000000000000000000000000000000000000000000000000000016145b610ff25760405162461bcd60e51b81526004016106d890612e7e565b826001600160a01b031663dbd9a4d46040518163ffffffff1660e01b8152600401600060405180830381600087803b15801561102d57600080fd5b505af1158015611041573d6000803e3d6000fd5b50506040516001600160a01b03861692507fbe661787fd881a4d9c6746c8328471bbf49b92f2a73a744f65b1f41f6db98e849150600090a2505050565b3360008181527faba08fc86a199da17c4b45fa0fb586714474d27e5e1f0220658b6275561b2e186020526040902054600c919060ff16806110e75750336001600160a01b037f000000000000000000000000000000000000000000000000000000000000000016145b6111035760405162461bcd60e51b81526004016106d890612e7e565b60405163ac0d31ff60e01b81526004810185905283151560248201526001600160a01b0386169063ac0d31ff90604401600060405180830381600087803b15801561114d57600080fd5b505af1158015611161573d6000803e3d6000fd5b50506040516001600160a01b03881692507f5e7b34819cd91b239220bec92fcfd3c10da2214ba13e4e2b1f6c9cfdbd68a9a29150600090a25050505050565b3360008181527f91238f30f286c9a1c6e901c4eda3b214c381c846e3dbe48df95c21488e8e1fdb60205260409020546005919060ff16806112095750336001600160a01b037f000000000000000000000000000000000000000000000000000000000000000016145b6112255760405162461bcd60e51b81526004016106d890612e7e565b8360066170806112358142612ecb565b6001600160a01b03841660009081526009602052604081209084600881111561126057611260612e25565b600881111561127157611271612e25565b815260208082019290925260409081016000908120939093556001600160a01b038a16808452600383528184208a90556009909252822090917f26091dbfedb73234a7c379b06e7f73d79767fcab1524c0a5e130ad91bc4e0bd89189916006610f25565b3360008181527fcb250a1a60f48f70f08c912424f39071fd9a8b7099a72dffd251fce0294f37496020526040902054600b919060ff168061133e5750336001600160a01b037f000000000000000000000000000000000000000000000000000000000000000016145b61135a5760405162461bcd60e51b81526004016106d890612e7e565b826001600160a01b031663db2e21bc6040518163ffffffff1660e01b8152600401600060405180830381600087803b15801561139557600080fd5b505af11580156113a9573d6000803e3d6000fd5b50506040516001600160a01b03861692507f5e7b34819cd91b239220bec92fcfd3c10da2214ba13e4e2b1f6c9cfdbd68a9a29150600090a2505050565b6001600160a01b038116600090815260096020908152604080832060048085529252909120548291901580159061146757506001600160a01b0382166000908152600960205260408120429183600881111561144457611444612e25565b600881111561145557611455612e25565b81526020019081526020016000205411155b6114835760405162461bcd60e51b81526004016106d890612e3b565b6001600160a01b0383166000818152600160205260409081902054905163cff1b6ef60e01b815263cff1b6ef916114c09160040190815260200190565b600060405180830381600087803b1580156114da57600080fd5b505af11580156114ee573d6000803e3d6000fd5b505050506001600160a01b0383166000818152600160209081526040918290205491519182527f7f8a351eac453ab44e57102fbb7588c635a8214ff07ab920d9cfd15ce23f46cd910160405180910390a26001600160a01b0380841660009081526001602090815260408083208390559285168252600990529081208183600881111561080957610809612e25565b336001600160a01b037f000000000000000000000000000000000000000000000000000000000000000016146115b257600080fd5b6008600083600f8111156115c8576115c8612e25565b600f8111156115d9576115d9612e25565b8152602080820192909252604090810160009081206001600160a01b038516825290925290205460ff166116475760405162461bcd60e51b81526020600482015260156024820152744163636f756e7420686173206e6f2061636365737360581b60448201526064016106d8565b806001600160a01b03167f24ec05038beb35a9c3bc7076d6a5b955fdff49fb3e2c4da768dfe95b3db1acc9836040516116809190612ee3565b60405180910390a260006007600084600f8111156116a0576116a0612e25565b600f8111156116b1576116b1612e25565b81526020810191909152604001600020546116cd906001612ecb565b905060005b6007600085600f8111156116e8576116e8612e25565b600f8111156116f9576116f9612e25565b815260208101919091526040016000205481101561179557826001600160a01b03166007600086600f81111561173157611731612e25565b600f81111561174257611742612e25565b8152602001908152602001600020828154811061176157611761612f0b565b6000918252602090912001546001600160a01b03160361178357809150611795565b8061178d81612f21565b9150506116d2565b506007600084600f8111156117ac576117ac612e25565b600f8111156117bd576117bd612e25565b815260208101919091526040016000205481106118105760405162461bcd60e51b81526020600482015260116024820152701058d8dbdd5b9d081b9bdd08199bdd5b99607a1b60448201526064016106d8565b60006008600085600f81111561182857611828612e25565b600f81111561183957611839612e25565b8152602080820192909252604090810160009081206001600160a01b03871682529092529020805460ff191691151591909117905561187883826129f2565b505050565b3360008181527f625b35f5e76f098dd7c3a05b10e2e5e78a4a01228d60c3b143426cdf36d2645560205260409020546003919060ff16806118e65750336001600160a01b037f000000000000000000000000000000000000000000000000000000000000000016145b6119025760405162461bcd60e51b81526004016106d890612e7e565b8360046170806119128142612ecb565b6001600160a01b03841660009081526009602052604081209084600881111561193d5761193d612e25565b600881111561194e5761194e612e25565b815260208082019290925260409081016000908120939093556001600160a01b038a16808452600183528184208a90556009909252822090917f9d1dc457a527cc45a7abe831576cbf01b0495cef69f000d13655ae3d1e5631f49189916004610f25565b3360008181527f586689db7536874b78a6eac0f58556a56a106985743f7c16a699b27bb02f88bd6020526040902054600a919060ff1680611a1b5750336001600160a01b037f000000000000000000000000000000000000000000000000000000000000000016145b611a375760405162461bcd60e51b81526004016106d890612e7e565b604051634e77ace560e01b815283151560048201526001600160a01b03851690634e77ace590602401600060405180830381600087803b158015611a7a57600080fd5b505af1158015611a8e573d6000803e3d6000fd5b50505050836001600160a01b03167feafd77c9fa26ce797aa519fcee932a662cc58f6d55ced547c1db42b90b6f3e498460405161094a911515815260200190565b336001600160a01b037f00000000000000000000000000000000000000000000000000000000000000001614611b0457600080fd5b81600162054600611b158142612ecb565b6001600160a01b038416600090815260096020526040812090846008811115611b4057611b40612e25565b6008811115611b5157611b51612e25565b815260208082019290925260409081016000908120939093556001600160a01b0388811680855284845282852080546001600160a01b031916928a169283179055600984528285206001865284529382902054915191825292917fef95e1c78dd90414a6d134b297f1d212121c5a8ec70d1ac0c0381a9b09d709c1910160405180910390a35050505050565b3360008181527f24cd397636bedc6cf9b490d0edd57c769c19b367fb7d5c2344ae1ddc7d21c14460205260409020546007919060ff1680611c465750336001600160a01b037f000000000000000000000000000000000000000000000000000000000000000016145b611c625760405162461bcd60e51b81526004016106d890612e7e565b8360086202a300611c738142612ecb565b6001600160a01b038416600090815260096020526040812090846008811115611c9e57611c9e612e25565b6008811115611caf57611caf612e25565b815260208082019290925260409081016000908120939093556001600160a01b038a16808452600683528184208a9055600983528184206008855283528184205482518b815293840152917ff27444df37d5349d51b8293061b66a652317d627aee0c94a6fff790cb823f04e910160405180910390a350505050505050565b3360008181527f82c9e868e45873bb5a4f47c09e14a12f6a6314e13aabd611e4374762bb4e8b3660205260409020546009919060ff1680611d975750336001600160a01b037f000000000000000000000000000000000000000000000000000000000000000016145b611db35760405162461bcd60e51b81526004016106d890612e7e565b60405163e21ac82560e01b8152600481018490526001600160a01b0385169063e21ac82590602401600060405180830381600087803b158015611df557600080fd5b505af1158015611e09573d6000803e3d6000fd5b50505050836001600160a01b03167fdbb580f99e1235e40743f9ee026ca30950dc2f7576b7fd13d9e3b39200afd7068460405161094a91815260200190565b6001600160a01b0381166000908152600960209081526040808320600680855292529091205482919015801590611ec957506001600160a01b03821660009081526009602052604081204291836008811115611ea657611ea6612e25565b6008811115611eb757611eb7612e25565b81526020019081526020016000205411155b611ee55760405162461bcd60e51b81526004016106d890612e3b565b6001600160a01b03831660008181526003602052604090819020549051632a2b8adf60e21b815263a8ae2b7c91611f229160040190815260200190565b600060405180830381600087803b158015611f3c57600080fd5b505af1158015611f50573d6000803e3d6000fd5b505050506001600160a01b0383166000818152600360209081526040918290205491519182527f13a14ce9697f66fc8a63923473cae2383958adbf89c38ecbb9219d8d7b9f18c9910160405180910390a26001600160a01b0380841660009081526003602090815260408083208390559285168252600990529081208183600881111561080957610809612e25565b3360008181527fb6457486547dfd0925a66a479476c3a3e54935ea6192a908abe6bd58ec247b416020526040902054600e919060ff16806120485750336001600160a01b037f000000000000000000000000000000000000000000000000000000000000000016145b6120645760405162461bcd60e51b81526004016106d890612e7e565b604051634bebd1e760e01b81526001600160a01b038481166004830152851690634bebd1e790602401600060405180830381600087803b1580156120a757600080fd5b505af11580156120bb573d6000803e3d6000fd5b50506040516001600160a01b038087169350871691507f5d0ea6134a0c9e3dea7acd11f1eb64a68d5e199d709b8e7533bf4ef4244362c290600090a350505050565b6060336001600160a01b037f0000000000000000000000000000000000000000000000000000000000000000161461213457600080fd5b6007600083600f81111561214a5761214a612e25565b600f81111561215b5761215b612e25565b81526020019081526020016000208054806020026020016040519081016040528092919081815260200182805480156121bd57602002820191906000526020600020905b81546001600160a01b0316815260019091019060200180831161219f575b505050505090505b919050565b6001600160a01b038116600090815260096020908152604080832060058085529252909120548291901580159061224b57506001600160a01b0382166000908152600960205260408120429183600881111561222857612228612e25565b600881111561223957612239612e25565b81526020019081526020016000205411155b6122675760405162461bcd60e51b81526004016106d890612e3b565b6001600160a01b038316600081815260026020526040908190205490516399729ec160e01b81526399729ec1916122a49160040190815260200190565b600060405180830381600087803b1580156122be57600080fd5b505af11580156122d2573d6000803e3d6000fd5b505050506001600160a01b0383166000818152600260209081526040918290205491519182527f106f0c971c7bbfcae7d85a22adc8064f1a5eb3bc8300c7cae1812d75a71f4b57910160405180910390a26001600160a01b0380841660009081526002602090815260408083208390559285168252600990529081208183600881111561080957610809612e25565b3360008181527f5eff886ea0ce6ca488a3d6e336d6c0f75f46d19b42c06ce5ee98e42c96d256c7602052604081205490919060ff16806123c95750336001600160a01b037f000000000000000000000000000000000000000000000000000000000000000016145b6123e55760405162461bcd60e51b81526004016106d890612e7e565b6000831161244d5760405162461bcd60e51b815260206004820152602f60248201527f59616b54696d656c6f636b4d616e616765723a3a7377656570546f6b656e732c60448201526e20616d6f756e7420746f6f206c6f7760881b60648201526084016106d8565b60405163a9059cbb60e01b8152336004820152602481018490526001600160a01b0385169063a9059cbb906044016020604051808303816000875af115801561249a573d6000803e3d6000fd5b505050506040513d601f19601f820116820180604052508101906124be9190612f3a565b6125235760405162461bcd60e51b815260206004820152603060248201527f59616b54696d656c6f636b4d616e616765723a3a7377656570546f6b656e732c60448201526f081d1c985b9cd9995c8819985a5b195960821b60648201526084016106d8565b836001600160a01b03167fab2246061d7b0dd3631d037e3f6da75782ae489eeb9f6af878a4b25df9b07c778460405161094a91815260200190565b3360008181527fad67d757c34507f157cacfa2e3153e9f260a2244f30428821be7be64587ac55f60205260409020546001919060ff16806125c75750336001600160a01b037f000000000000000000000000000000000000000000000000000000000000000016145b6125e35760405162461bcd60e51b81526004016106d890612e7e565b600083116126495760405162461bcd60e51b815260206004820152602d60248201527f59616b54696d656c6f636b4d616e616765723a3a7377656570415641582c206160448201526c6d6f756e7420746f6f206c6f7760981b60648201526084016106d8565b604051339084156108fc029085906000818181858888f19350505050158015612676573d6000803e3d6000fd5b506040518381526000907fab2246061d7b0dd3631d037e3f6da75782ae489eeb9f6af878a4b25df9b07c779060200160405180910390a2505050565b336001600160a01b037f000000000000000000000000000000000000000000000000000000000000000016146126e757600080fd5b6008600083600f8111156126fd576126fd612e25565b600f81111561270e5761270e612e25565b8152602080820192909252604090810160009081206001600160a01b038516825290925290205460ff16156127935760405162461bcd60e51b815260206004820152602560248201527f4163636f756e742068617320616c7265616479206265656e20676976656e2061604482015264636365737360d81b60648201526084016106d8565b806001600160a01b03167fefb9ba6b962d083707c90b9adebae1e2d0cd9415dcb22857c8b9b81f5ab003b4836040516127cc9190612ee3565b60405180910390a260016008600084600f8111156127ec576127ec612e25565b600f8111156127fd576127fd612e25565b8152602080820192909252604090810160009081206001600160a01b03861682529092528120805460ff19169215159290921790915560079083600f81111561284857612848612e25565b600f81111561285957612859612e25565b8152602080820192909252604001600090812080546001810182559082529190200180546001600160a01b0319166001600160a01b039290921691909117905550565b3360008181527f8fab3b3b6d3bf24f9b00213fe8dda2fb1e188fcd88f523fcb711ff1f6aed59e36020526040902054600f919060ff16806129055750336001600160a01b037f000000000000000000000000000000000000000000000000000000000000000016145b6129215760405162461bcd60e51b81526004016106d890612e7e565b6040516345b9f30360e11b81526001600160a01b038481166004830152851690638b73e60690602401600060405180830381600087803b15801561296457600080fd5b505af1158015612978573d6000803e3d6000fd5b50506040516001600160a01b038087169350871691507fa692de2ad9f500cf34fa95397026ae7a5ccc57cb2d1528b6aaed6104b63008f090600090a350505050565b600760205281600052604060002081815481106129d657600080fd5b6000918252602090912001546001600160a01b03169150829050565b6007600083600f811115612a0857612a08612e25565b600f811115612a1957612a19612e25565b81526020810191909152604001600020548110612a34575050565b805b60016007600085600f811115612a4e57612a4e612e25565b600f811115612a5f57612a5f612e25565b8152602081019190915260400160002054612a7a9190612f57565b811015612b68576007600084600f811115612a9757612a97612e25565b600f811115612aa857612aa8612e25565b8152602001908152602001600020816001612ac39190612ecb565b81548110612ad357612ad3612f0b565b60009182526020822001546001600160a01b03169060079085600f811115612afd57612afd612e25565b600f811115612b0e57612b0e612e25565b81526020019081526020016000208281548110612b2d57612b2d612f0b565b600091825260209091200180546001600160a01b0319166001600160a01b039290921691909117905580612b6081612f21565b915050612a36565b506007600083600f811115612b7f57612b7f612e25565b600f811115612b9057612b90612e25565b8152602001908152602001600020805480612bad57612bad612f6e565b600082815260209020810160001990810180546001600160a01b03191690550190555050565b80356001600160a01b03811681146121c557600080fd5b600060208284031215612bfc57600080fd5b612c0582612bd3565b9392505050565b60008060408385031215612c1f57600080fd5b612c2883612bd3565b946020939093013593505050565b600080600060608486031215612c4b57600080fd5b612c5484612bd3565b9250612c6260208501612bd3565b9150604084013590509250925092565b60008060408385031215612c8557600080fd5b612c8e83612bd3565b9150602083013560098110612ca257600080fd5b809150509250929050565b8015158114612cbb57600080fd5b50565b600080600060608486031215612cd357600080fd5b612cdc84612bd3565b9250602084013591506040840135612cf381612cad565b809150509250925092565b8035601081106121c557600080fd5b60008060408385031215612d2057600080fd5b612d2983612cfe565b9150612d3760208401612bd3565b90509250929050565b60008060408385031215612d5357600080fd5b612d5c83612bd3565b91506020830135612ca281612cad565b60008060408385031215612d7f57600080fd5b612d2983612bd3565b600060208284031215612d9a57600080fd5b612c0582612cfe565b6020808252825182820181905260009190848201906040850190845b81811015612de45783516001600160a01b031683529284019291840191600101612dbf565b50909695505050505050565b600060208284031215612e0257600080fd5b5035919050565b60008060408385031215612e1c57600080fd5b612c2883612cfe565b634e487b7160e01b600052602160045260246000fd5b60208082526023908201527f59616b54696d656c6f636b4d616e616765723a3a656e666f72636554696d656c6040820152626f636b60e81b606082015260800190565b6020808252601d908201527f43616c6c657220646f65736e742068617665207065726d697373696f6e000000604082015260600190565b634e487b7160e01b600052601160045260246000fd5b60008219821115612ede57612ede612eb5565b500190565b6020810160108310612f0557634e487b7160e01b600052602160045260246000fd5b91905290565b634e487b7160e01b600052603260045260246000fd5b600060018201612f3357612f33612eb5565b5060010190565b600060208284031215612f4c57600080fd5b8151612c0581612cad565b600082821015612f6957612f69612eb5565b500390565b634e487b7160e01b600052603160045260246000fdfea264697066735822122034b8e145a2bd64ea779a51968e9b853cb1cc7936fd3791a7379802e042801c8264736f6c634300080d0033",
    "linkReferences": {}
  },
  "methodIdentifiers": {
    "allowDepositor(address,address)": "c8cb96e5",
    "authorizedAddressess(uint8,address)": "e019a1e6",
    "emergencyWithdraw(address)": "6ff1c9bc",
    "feeCollector()": "c415b95c",
    "grantAccountAccess(uint8,address)": "e9f516b1",
    "listofGrantedAccounts(uint8)": "d049c752",
    "manager()": "481c6a75",
    "pendingAVAXToRecover(address)": "b7666f3e",
    "pendingAdminFees(address)": "fcb2749a",
    "pendingDevFees(address)": "95e2fbf0",
    "pendingOwners(address)": "a75c7452",
    "pendingReinvestRewards(address)": "f0114c36",
    "pendingTokenAddressesToRecover(address)": "ae2c5fab",
    "pendingTokenAmountsToRecover(address)": "e2728642",
    "permissionedFunctionOwners(uint8,uint256)": "f916c277",
    "proposeAdminFee(address,uint256)": "84f2c83f",
    "proposeDevFee(address,uint256)": "3809f3fe",
    "proposeOwner(address,address)": "9017e465",
    "proposeRecoverAVAX(address,uint256)": "91609e81",
    "proposeRecoverERC20(address,address,uint256)": "3242a566",
    "proposeReinvestReward(address,uint256)": "6996d29a",
    "removeDepositor(address,address)": "ef8cb903",
    "rescueDeployedFunds(address,uint256,bool)": "614b75ba",
    "revokeAccountAccess(uint8,address)": "719d56ee",
    "setAdminFee(address)": "7042bcf8",
    "setAllowances(address)": "3c059027",
    "setDepositsEnabled(address,bool)": "89bc3d9f",
    "setDevFee(address)": "d4a1fd93",
    "setMaxTokensToDepositWithoutReinvest(address,uint256)": "91e6e968",
    "setMinTokensToReinvest(address,uint256)": "0fba7d62",
    "setOwner(address)": "13af4035",
    "setRecoverAVAX(address)": "27399d55",
    "setRecoverERC20(address)": "0135002c",
    "setReinvestReward(address)": "bfe3c7de",
    "sweepAVAX(uint256)": "e9129948",
    "sweepTokens(address,uint256)": "dec66036",
    "timelock(address,uint8)": "5f3a0854",
    "timelockLengthForAssetRecovery()": "137a37e2",
    "timelockLengthForFeeChanges()": "a5267786",
    "timelockLengthForOwnershipTransfer()": "0bb6f0ef"
  },
  "id": 173
}