{
  "abi": [
    {
      "inputs": [
        {
          "internalType": "string",
          "name": "_name",
          "type": "string"
        },
        {
          "internalType": "address",
          "name": "_depositToken",
          "type": "address"
        },
        {
          "internalType": "address",
          "name": "_yakRegistry",
          "type": "address"
        }
      ],
      "stateMutability": "nonpayable",
      "type": "constructor"
    },
    {
      "anonymous": false,
      "inputs": [
        {
          "indexed": true,
          "internalType": "address",
          "name": "strategy",
          "type": "address"
        }
      ],
      "name": "AddStrategy",
      "type": "event"
    },
    {
      "anonymous": false,
      "inputs": [
        {
          "indexed": true,
          "internalType": "address",
          "name": "owner",
          "type": "address"
        },
        {
          "indexed": true,
          "internalType": "address",
          "name": "spender",
          "type": "address"
        },
        {
          "indexed": false,
          "internalType": "uint256",
          "name": "value",
          "type": "uint256"
        }
      ],
      "name": "Approval",
      "type": "event"
    },
    {
      "anonymous": false,
      "inputs": [
        {
          "indexed": true,
          "internalType": "address",
          "name": "account",
          "type": "address"
        },
        {
          "indexed": true,
          "internalType": "address",
          "name": "token",
          "type": "address"
        },
        {
          "indexed": false,
          "internalType": "uint256",
          "name": "amount",
          "type": "uint256"
        }
      ],
      "name": "Deposit",
      "type": "event"
    },
    {
      "anonymous": false,
      "inputs": [
        {
          "indexed": true,
          "internalType": "address",
          "name": "previousOwner",
          "type": "address"
        },
        {
          "indexed": true,
          "internalType": "address",
          "name": "newOwner",
          "type": "address"
        }
      ],
      "name": "OwnershipTransferred",
      "type": "event"
    },
    {
      "anonymous": false,
      "inputs": [
        {
          "indexed": true,
          "internalType": "address",
          "name": "strategy",
          "type": "address"
        }
      ],
      "name": "RemoveStrategy",
      "type": "event"
    },
    {
      "anonymous": false,
      "inputs": [
        {
          "indexed": true,
          "internalType": "address",
          "name": "strategy",
          "type": "address"
        }
      ],
      "name": "SetActiveStrategy",
      "type": "event"
    },
    {
      "anonymous": false,
      "inputs": [
        {
          "indexed": true,
          "internalType": "address",
          "name": "from",
          "type": "address"
        },
        {
          "indexed": true,
          "internalType": "address",
          "name": "to",
          "type": "address"
        },
        {
          "indexed": false,
          "internalType": "uint256",
          "name": "value",
          "type": "uint256"
        }
      ],
      "name": "Transfer",
      "type": "event"
    },
    {
      "anonymous": false,
      "inputs": [
        {
          "indexed": true,
          "internalType": "address",
          "name": "account",
          "type": "address"
        },
        {
          "indexed": false,
          "internalType": "uint256",
          "name": "amount",
          "type": "uint256"
        }
      ],
      "name": "Withdraw",
      "type": "event"
    },
    {
      "inputs": [],
      "name": "DOMAIN_TYPEHASH",
      "outputs": [
        {
          "internalType": "bytes32",
          "name": "",
          "type": "bytes32"
        }
      ],
      "stateMutability": "view",
      "type": "function"
    },
    {
      "inputs": [],
      "name": "PERMIT_TYPEHASH",
      "outputs": [
        {
          "internalType": "bytes32",
          "name": "",
          "type": "bytes32"
        }
      ],
      "stateMutability": "view",
      "type": "function"
    },
    {
      "inputs": [],
      "name": "VERSION_HASH",
      "outputs": [
        {
          "internalType": "bytes32",
          "name": "",
          "type": "bytes32"
        }
      ],
      "stateMutability": "view",
      "type": "function"
    },
    {
      "inputs": [],
      "name": "activeStrategy",
      "outputs": [
        {
          "internalType": "address",
          "name": "",
          "type": "address"
        }
      ],
      "stateMutability": "view",
      "type": "function"
    },
    {
      "inputs": [
        {
          "internalType": "address",
          "name": "strategy",
          "type": "address"
        }
      ],
      "name": "addStrategy",
      "outputs": [],
      "stateMutability": "nonpayable",
      "type": "function"
    },
    {
      "inputs": [
        {
          "internalType": "address",
          "name": "account",
          "type": "address"
        },
        {
          "internalType": "address",
          "name": "spender",
          "type": "address"
        }
      ],
      "name": "allowance",
      "outputs": [
        {
          "internalType": "uint256",
          "name": "",
          "type": "uint256"
        }
      ],
      "stateMutability": "view",
      "type": "function"
    },
    {
      "inputs": [
        {
          "internalType": "address",
          "name": "spender",
          "type": "address"
        },
        {
          "internalType": "uint256",
          "name": "amount",
          "type": "uint256"
        }
      ],
      "name": "approve",
      "outputs": [
        {
          "internalType": "bool",
          "name": "",
          "type": "bool"
        }
      ],
      "stateMutability": "nonpayable",
      "type": "function"
    },
    {
      "inputs": [
        {
          "internalType": "address",
          "name": "account",
          "type": "address"
        }
      ],
      "name": "balanceOf",
      "outputs": [
        {
          "internalType": "uint256",
          "name": "",
          "type": "uint256"
        }
      ],
      "stateMutability": "view",
      "type": "function"
    },
    {
      "inputs": [],
      "name": "decimals",
      "outputs": [
        {
          "internalType": "uint8",
          "name": "",
          "type": "uint8"
        }
      ],
      "stateMutability": "view",
      "type": "function"
    },
    {
      "inputs": [
        {
          "internalType": "uint256",
          "name": "amount",
          "type": "uint256"
        }
      ],
      "name": "deposit",
      "outputs": [],
      "stateMutability": "nonpayable",
      "type": "function"
    },
    {
      "inputs": [
        {
          "internalType": "address",
          "name": "account",
          "type": "address"
        },
        {
          "internalType": "uint256",
          "name": "amount",
          "type": "uint256"
        }
      ],
      "name": "depositFor",
      "outputs": [],
      "stateMutability": "nonpayable",
      "type": "function"
    },
    {
      "inputs": [
        {
          "internalType": "address",
          "name": "strategy",
          "type": "address"
        },
        {
          "internalType": "uint256",
          "name": "depositPercentageBips",
          "type": "uint256"
        }
      ],
      "name": "depositPercentageToStrategy",
      "outputs": [],
      "stateMutability": "nonpayable",
      "type": "function"
    },
    {
      "inputs": [
        {
          "internalType": "address",
          "name": "strategy",
          "type": "address"
        },
        {
          "internalType": "uint256",
          "name": "amount",
          "type": "uint256"
        }
      ],
      "name": "depositToStrategy",
      "outputs": [],
      "stateMutability": "nonpayable",
      "type": "function"
    },
    {
      "inputs": [],
      "name": "depositToken",
      "outputs": [
        {
          "internalType": "contract IERC20",
          "name": "",
          "type": "address"
        }
      ],
      "stateMutability": "view",
      "type": "function"
    },
    {
      "inputs": [
        {
          "internalType": "uint256",
          "name": "amount",
          "type": "uint256"
        },
        {
          "internalType": "uint256",
          "name": "deadline",
          "type": "uint256"
        },
        {
          "internalType": "uint8",
          "name": "v",
          "type": "uint8"
        },
        {
          "internalType": "bytes32",
          "name": "r",
          "type": "bytes32"
        },
        {
          "internalType": "bytes32",
          "name": "s",
          "type": "bytes32"
        }
      ],
      "name": "depositWithPermit",
      "outputs": [],
      "stateMutability": "nonpayable",
      "type": "function"
    },
    {
      "inputs": [],
      "name": "estimateDeployedBalances",
      "outputs": [
        {
          "internalType": "uint256",
          "name": "",
          "type": "uint256"
        }
      ],
      "stateMutability": "view",
      "type": "function"
    },
    {
      "inputs": [
        {
          "internalType": "address",
          "name": "strategy",
          "type": "address"
        }
      ],
      "name": "getDeployedBalance",
      "outputs": [
        {
          "internalType": "uint256",
          "name": "",
          "type": "uint256"
        }
      ],
      "stateMutability": "view",
      "type": "function"
    },
    {
      "inputs": [
        {
          "internalType": "uint256",
          "name": "amount",
          "type": "uint256"
        }
      ],
      "name": "getDepositTokensForShares",
      "outputs": [
        {
          "internalType": "uint256",
          "name": "",
          "type": "uint256"
        }
      ],
      "stateMutability": "view",
      "type": "function"
    },
    {
      "inputs": [],
      "name": "getDomainSeparator",
      "outputs": [
        {
          "internalType": "bytes32",
          "name": "",
          "type": "bytes32"
        }
      ],
      "stateMutability": "view",
      "type": "function"
    },
    {
      "inputs": [
        {
          "internalType": "uint256",
          "name": "amount",
          "type": "uint256"
        }
      ],
      "name": "getSharesForDepositTokens",
      "outputs": [
        {
          "internalType": "uint256",
          "name": "",
          "type": "uint256"
        }
      ],
      "stateMutability": "view",
      "type": "function"
    },
    {
      "inputs": [],
      "name": "name",
      "outputs": [
        {
          "internalType": "string",
          "name": "",
          "type": "string"
        }
      ],
      "stateMutability": "view",
      "type": "function"
    },
    {
      "inputs": [
        {
          "internalType": "address",
          "name": "",
          "type": "address"
        }
      ],
      "name": "nonces",
      "outputs": [
        {
          "internalType": "uint256",
          "name": "",
          "type": "uint256"
        }
      ],
      "stateMutability": "view",
      "type": "function"
    },
    {
      "inputs": [],
      "name": "owner",
      "outputs": [
        {
          "internalType": "address",
          "name": "",
          "type": "address"
        }
      ],
      "stateMutability": "view",
      "type": "function"
    },
    {
      "inputs": [
        {
          "internalType": "address",
          "name": "owner",
          "type": "address"
        },
        {
          "internalType": "address",
          "name": "spender",
          "type": "address"
        },
        {
          "internalType": "uint256",
          "name": "value",
          "type": "uint256"
        },
        {
          "internalType": "uint256",
          "name": "deadline",
          "type": "uint256"
        },
        {
          "internalType": "uint8",
          "name": "v",
          "type": "uint8"
        },
        {
          "internalType": "bytes32",
          "name": "r",
          "type": "bytes32"
        },
        {
          "internalType": "bytes32",
          "name": "s",
          "type": "bytes32"
        }
      ],
      "name": "permit",
      "outputs": [],
      "stateMutability": "nonpayable",
      "type": "function"
    },
    {
      "inputs": [
        {
          "internalType": "address",
          "name": "strategy",
          "type": "address"
        }
      ],
      "name": "removeStrategy",
      "outputs": [],
      "stateMutability": "nonpayable",
      "type": "function"
    },
    {
      "inputs": [],
      "name": "renounceOwnership",
      "outputs": [],
      "stateMutability": "nonpayable",
      "type": "function"
    },
    {
      "inputs": [
        {
          "internalType": "address",
          "name": "strategy",
          "type": "address"
        }
      ],
      "name": "setActiveStrategy",
      "outputs": [],
      "stateMutability": "nonpayable",
      "type": "function"
    },
    {
      "inputs": [],
      "name": "symbol",
      "outputs": [
        {
          "internalType": "string",
          "name": "",
          "type": "string"
        }
      ],
      "stateMutability": "view",
      "type": "function"
    },
    {
      "inputs": [],
      "name": "totalDeposits",
      "outputs": [
        {
          "internalType": "uint256",
          "name": "",
          "type": "uint256"
        }
      ],
      "stateMutability": "view",
      "type": "function"
    },
    {
      "inputs": [],
      "name": "totalSupply",
      "outputs": [
        {
          "internalType": "uint256",
          "name": "",
          "type": "uint256"
        }
      ],
      "stateMutability": "view",
      "type": "function"
    },
    {
      "inputs": [
        {
          "internalType": "address",
          "name": "dst",
          "type": "address"
        },
        {
          "internalType": "uint256",
          "name": "amount",
          "type": "uint256"
        }
      ],
      "name": "transfer",
      "outputs": [
        {
          "internalType": "bool",
          "name": "",
          "type": "bool"
        }
      ],
      "stateMutability": "nonpayable",
      "type": "function"
    },
    {
      "inputs": [
        {
          "internalType": "address",
          "name": "src",
          "type": "address"
        },
        {
          "internalType": "address",
          "name": "dst",
          "type": "address"
        },
        {
          "internalType": "uint256",
          "name": "amount",
          "type": "uint256"
        }
      ],
      "name": "transferFrom",
      "outputs": [
        {
          "internalType": "bool",
          "name": "",
          "type": "bool"
        }
      ],
      "stateMutability": "nonpayable",
      "type": "function"
    },
    {
      "inputs": [
        {
          "internalType": "address",
          "name": "newOwner",
          "type": "address"
        }
      ],
      "name": "transferOwnership",
      "outputs": [],
      "stateMutability": "nonpayable",
      "type": "function"
    },
    {
      "inputs": [],
      "name": "version",
      "outputs": [
        {
          "internalType": "string",
          "name": "",
          "type": "string"
        }
      ],
      "stateMutability": "view",
      "type": "function"
    },
    {
      "inputs": [
        {
          "internalType": "uint256",
          "name": "amount",
          "type": "uint256"
        }
      ],
      "name": "withdraw",
      "outputs": [],
      "stateMutability": "nonpayable",
      "type": "function"
    },
    {
      "inputs": [
        {
          "internalType": "address",
          "name": "strategy",
          "type": "address"
        },
        {
          "internalType": "uint256",
          "name": "amount",
          "type": "uint256"
        }
      ],
      "name": "withdrawFromStrategy",
      "outputs": [],
      "stateMutability": "nonpayable",
      "type": "function"
    },
    {
      "inputs": [
        {
          "internalType": "address",
          "name": "strategy",
          "type": "address"
        },
        {
          "internalType": "uint256",
          "name": "withdrawPercentageBips",
          "type": "uint256"
        }
      ],
      "name": "withdrawPercentageFromStrategy",
      "outputs": [],
      "stateMutability": "nonpayable",
      "type": "function"
    },
    {
      "inputs": [],
      "name": "yakRegistry",
      "outputs": [
        {
          "internalType": "contract YakRegistry",
          "name": "",
          "type": "address"
        }
      ],
      "stateMutability": "view",
      "type": "function"
    }
  ],
  "bytecode": {
    "object": "0x60c060405260096080819052685969656c642059616b60b81b60a09081526200002c91600091906200011b565b506040805180820190915260038082526216549560ea1b602090920191825262000059916001916200011b565b503480156200006757600080fd5b5060405162003817380380620038178339810160408190526200008a91620001f4565b600680546001600160a01b0319163390811790915560405181906000907f8be0079c531659141344cd1fd0a4f28419497f9722a3daafe3b4186f6b6457e0908290a35060016007558251620000e79060009060208601906200011b565b50600980546001600160a01b039384166001600160a01b031991821617909155600880549290931691161790555062000333565b8280546200012990620002f7565b90600052602060002090601f0160209004810192826200014d576000855562000198565b82601f106200016857805160ff191683800117855562000198565b8280016001018555821562000198579182015b82811115620001985782518255916020019190600101906200017b565b50620001a6929150620001aa565b5090565b5b80821115620001a65760008155600101620001ab565b634e487b7160e01b600052604160045260246000fd5b80516001600160a01b0381168114620001ef57600080fd5b919050565b6000806000606084860312156200020a57600080fd5b83516001600160401b03808211156200022257600080fd5b818601915086601f8301126200023757600080fd5b8151818111156200024c576200024c620001c1565b604051601f8201601f19908116603f01168101908382118183101715620002775762000277620001c1565b816040528281526020935089848487010111156200029457600080fd5b600091505b82821015620002b8578482018401518183018501529083019062000299565b82821115620002ca5760008484830101525b9650620002dc915050868201620001d7565b93505050620002ee60408501620001d7565b90509250925092565b600181811c908216806200030c57607f821691505b6020821081036200032d57634e487b7160e01b600052602260045260246000fd5b50919050565b6134d480620003436000396000f3fe608060405234801561001057600080fd5b50600436106102325760003560e01c80638da5cb5b11610130578063c89039c5116100b8578063eab89a5a1161007c578063eab89a5a14610559578063eaf66fd91461056c578063ed24911d14610574578063f2fde38b1461057c578063f4fb7c171461058f57600080fd5b8063c89039c5146104d4578063cd3c4255146104e7578063d505accf146104fa578063dd62ed3e1461050d578063dd8ce4d61461054657600080fd5b8063a9059cbb116100ff578063a9059cbb14610475578063af76d4bd14610488578063b53d09581461049b578063b6b55f25146104ae578063b93ba143146104c157600080fd5b80638da5cb5b1461040e57806395d89b41146104335780639e4e73181461043b578063a5bd9e841461046257600080fd5b806330adf81f116101be5780635fc4406e116101825780635fc4406e146103a257806370a08231146103b5578063715018a6146103de5780637d882097146103e65780637ecebe00146103ee57600080fd5b806330adf81f14610317578063313ce5671461033e578063496248dc146103585780634a970be71461036b57806354fd4d501461037e57600080fd5b806320606b701161020557806320606b70146102a4578063223e5479146102cb57806323b872dd146102de5780632e1a7d4d146102f15780632f4f21e21461030457600080fd5b806306fdde0314610237578063095ea7b314610255578063175188e81461027857806318160ddd1461028d575b600080fd5b61023f6105a2565b60405161024c9190612f87565b60405180910390f35b610268610263366004612fd2565b610630565b604051901515815260200161024c565b61028b610286366004612ffe565b610647565b005b61029660025481565b60405190815260200161024c565b6102967f8b73c3c69bb8fe3d512ecc4cf759cc79239f7b179b0ffacaa9a75d522b39400f81565b61028b6102d9366004612ffe565b610997565b6102686102ec36600461301b565b610c02565b61028b6102ff36600461305c565b610ce6565b61028b610312366004612fd2565b610fd0565b6102967f6e71edae12b1b97f4d1f60370fef10105fa2faae0126114a169c64845d6126c981565b610346601281565b60405160ff909116815260200161024c565b610296610366366004612ffe565b61100a565b61028b61037936600461308b565b6110e3565b61023f60405180604001604052806005815260200164302e302e3160d81b81525081565b61028b6103b0366004612ffe565b6111a8565b6102966103c3366004612ffe565b6001600160a01b031660009081526004602052604090205490565b61028b611293565b610296611307565b6102966103fc366004612ffe565b60056020526000908152604090205481565b6006546001600160a01b03165b6040516001600160a01b03909116815260200161024c565b61023f611494565b6102967fc89efdaa54c0f20c7adf612882df0950f5a951637e0307cdcb4c672f298b8bc681565b61028b610470366004612fd2565b6114a1565b610268610483366004612fd2565b6114d9565b61028b610496366004612fd2565b6114e6565b61028b6104a9366004612fd2565b6116ee565b61028b6104bc36600461305c565b611722565b61028b6104cf366004612fd2565b61175b565b60095461041b906001600160a01b031681565b600a5461041b906001600160a01b031681565b61028b6105083660046130d2565b6119a0565b61029661051b366004613140565b6001600160a01b03918216600090815260036020908152604080832093909416825291909152205490565b61029661055436600461305c565b611aa5565b61029661056736600461305c565b611adf565b610296611b1c565b610296611b5e565b61028b61058a366004612ffe565b611bfe565b60085461041b906001600160a01b031681565b600080546105af90613179565b80601f01602080910402602001604051908101604052809291908181526020018280546105db90613179565b80156106285780601f106105fd57610100808354040283529160200191610628565b820191906000526020600020905b81548152906001019060200180831161060b57829003601f168201915b505050505081565b600061063d338484611ce9565b5060015b92915050565b6006546001600160a01b0316331461067a5760405162461bcd60e51b8152600401610671906131ad565b60405180910390fd5b600854604051630150908f60e31b81526001600160a01b03838116600483015290911690630a84847890602401602060405180830381865afa1580156106c4573d6000803e3d6000fd5b505050506040513d601f19601f820116820180604052508101906106e891906131e2565b1561075b5760405162461bcd60e51b815260206004820152603760248201527f59616b5661756c743a3a72656d6f766553747261746567792c2063616e6e6f7460448201527f2072656d6f7665207061757365642073747261746567790000000000000000006064820152608401610671565b600a546001600160a01b03908116908216036107d85760405162461bcd60e51b815260206004820152603660248201527f59616b5661756c743a3a72656d6f766553747261746567792c2063616e6e6f746044820152752072656d6f766520616374697665537472617465677960501b6064820152608401610671565b6107e3600b82611df7565b61083f5760405162461bcd60e51b815260206004820152602760248201527f59616b5661756c743a3a72656d6f766553747261746567792c206e6f742073756044820152661c1c1bdc9d195960ca1b6064820152608401610671565b60085460405163b92028b560e01b81526001600160a01b0383811660048301529091169063b92028b590602401602060405180830381865afa158015610889573d6000803e3d6000fd5b505050506040513d601f19601f820116820180604052508101906108ad91906131e2565b806108be57506108bc8161100a565b155b61093c5760405162461bcd60e51b815260206004820152604360248201527f59616b5661756c743a3a72656d6f766553747261746567792c2063616e6e6f7460448201527f2072656d6f766520656e61626c656420737472617465677920776974682066756064820152626e647360e81b608482015260a401610671565b600954610954906001600160a01b0316826000611e19565b61095f600b82611f61565b506040516001600160a01b038216907fd3281a40d50ae838fe77dc627744037b8f0fc6a5711d66119a9b670c5cde41af90600090a250565b6006546001600160a01b031633146109c15760405162461bcd60e51b8152600401610671906131ad565b60085460405163d258150360e01b81526001600160a01b0383811660048301529091169063d258150390602401602060405180830381865afa158015610a0b573d6000803e3d6000fd5b505050506040513d601f19601f82011682018060405250810190610a2f91906131e2565b610a895760405162461bcd60e51b815260206004820152602560248201527f59616b5661756c743a3a61646453747261746567792c206e6f742072656769736044820152641d195c995960da1b6064820152608401610671565b610a94600b82611df7565b15610af25760405162461bcd60e51b815260206004820152602860248201527f59616b5661756c743a3a61646453747261746567792c20616c726561647920736044820152671d5c1c1bdc9d195960c21b6064820152608401610671565b806001600160a01b031663c89039c56040518163ffffffff1660e01b8152600401602060405180830381865afa158015610b30573d6000803e3d6000fd5b505050506040513d601f19601f82011682018060405250810190610b549190613204565b6009546001600160a01b03908116911614610bbf5760405162461bcd60e51b815260206004820152602560248201527f59616b5661756c743a3a61646453747261746567792c206e6f7420636f6d70616044820152647469626c6560d81b6064820152608401610671565b610bca600b82611f76565b506040516001600160a01b038216907f69887873d46778fb35539b0a9992d9176ca03c1820b0afb538bc3a6f63326b1090600090a250565b6001600160a01b038316600081815260036020908152604080832033808552925282205491929091908214801590610c3c57506000198114155b15610ccd576000610c68856040518060600160405280602f815260200161341b602f9139849190611f8b565b6001600160a01b038881166000818152600360209081526040808320948916808452948252918290208590559051848152939450919290917f8c5be1e5ebec7d5bd14f71427d1e84f3dd0314c0f7b2291e5b200ac8c7c3b925910160405180910390a3505b610cd8868686611fb7565b6001925050505b9392505050565b600260075403610d085760405162461bcd60e51b815260040161067190613221565b6002600755610d156120ea565b610d795760405162461bcd60e51b815260206004820152602f60248201527f59616b5661756c743a3a77697468647261772c2077697468647261772074656d60448201526e1c1bdc985c9a5b1e481c185d5cd959608a1b6064820152608401610671565b6000610d8482611adf565b905060008111610de15760405162461bcd60e51b815260206004820152602260248201527f59616b5661756c743a3a77697468647261772c20616d6f756e7420746f6f206c6044820152616f7760f01b6064820152608401610671565b6009546040516370a0823160e01b81523060048201526000916001600160a01b0316906370a0823190602401602060405180830381865afa158015610e2a573d6000803e3d6000fd5b505050506040513d601f19601f82011682018060405250810190610e4e9190613258565b905081811015610f70576000610e6483836121aa565b905060005b610e73600b6121b6565b811015610ef1576000610e87600b836121c0565b90506000610e948261100a565b905083811115610eaf57610ea882856121cc565b5050610ef1565b8015610edc57610ec1826127106123f2565b610ecb84826121aa565b935060018411610edc575050610ef1565b50508080610ee990613287565b915050610e69565b506009546040516370a0823160e01b81523060048201526000916001600160a01b0316906370a0823190602401602060405180830381865afa158015610f3b573d6000803e3d6000fd5b505050506040513d601f19601f82011682018060405250810190610f5f9190613258565b905083811015610f6d578093505b50505b600954610f87906001600160a01b031633846126b0565b610f9133846126e0565b60405182815233907f884edad9ce6fa2440d8a54cc123490eb96d2768479d49ff9c7366125a94243649060200160405180910390a25050600160075550565b600260075403610ff25760405162461bcd60e51b815260040161067190613221565b600260075561100182826127b6565b50506001600755565b6040516370a0823160e01b815230600482015260009081906001600160a01b038416906370a0823190602401602060405180830381865afa158015611053573d6000803e3d6000fd5b505050506040513d601f19601f820116820180604052508101906110779190613258565b60405163755c4d2d60e11b8152600481018290529091506001600160a01b0384169063eab89a5a90602401602060405180830381865afa1580156110bf573d6000803e3d6000fd5b505050506040513d601f19601f82011682018060405250810190610cdf9190613258565b6002600754036111055760405162461bcd60e51b815260040161067190613221565b600260075560095460405163d505accf60e01b8152336004820152306024820152604481018790526064810186905260ff8516608482015260a4810184905260c481018390526001600160a01b039091169063d505accf9060e401600060405180830381600087803b15801561117a57600080fd5b505af115801561118e573d6000803e3d6000fd5b5050505061119c33866127b6565b50506001600755505050565b6006546001600160a01b031633146111d25760405162461bcd60e51b8152600401610671906131ad565b6001600160a01b03811615806111ee57506111ee600b82611df7565b6112495760405162461bcd60e51b815260206004820152602660248201527f59616b5661756c743a3a73657441637469766553747261746567792c206e6f7460448201526508199bdd5b9960d21b6064820152608401610671565b600a80546001600160a01b0319166001600160a01b0383169081179091556040517f0d1d253ee22846ce4bf46b0682e9e5f916a00b8d9bf27f996a73f5cf062df6f690600090a250565b6006546001600160a01b031633146112bd5760405162461bcd60e51b8152600401610671906131ad565b6006546040516000916001600160a01b0316907f8be0079c531659141344cd1fd0a4f28419497f9722a3daafe3b4186f6b6457e0908390a3600680546001600160a01b0319169055565b6009546040516370a0823160e01b815230600482015260009182916001600160a01b03909116906370a0823190602401602060405180830381865afa158015611354573d6000803e3d6000fd5b505050506040513d601f19601f820116820180604052508101906113789190613258565b905060005b611387600b6121b6565b81101561148e57600061139b600b836121c0565b6040516370a0823160e01b8152306004820152909150611478906001600160a01b0383169063eab89a5a9082906370a0823190602401602060405180830381865afa1580156113ee573d6000803e3d6000fd5b505050506040513d601f19601f820116820180604052508101906114129190613258565b6040518263ffffffff1660e01b815260040161143091815260200190565b602060405180830381865afa15801561144d573d6000803e3d6000fd5b505050506040513d601f19601f820116820180604052508101906114719190613258565b8490612990565b925050808061148690613287565b91505061137d565b50919050565b600180546105af90613179565b6006546001600160a01b031633146114cb5760405162461bcd60e51b8152600401610671906131ad565b6114d582826123f2565b5050565b600061063d338484611fb7565b6006546001600160a01b031633146115105760405162461bcd60e51b8152600401610671906131ad565b61151b600b83611df7565b6115845760405162461bcd60e51b815260206004820152603460248201527f59616b5661756c743a3a6465706f736974546f53747261746567792c20737472604482015273185d1959de481b9bdd081c9959da5cdd195c995960621b6064820152608401610671565b6009546040516370a0823160e01b81523060048201526000916001600160a01b0316906370a0823190602401602060405180830381865afa1580156115cd573d6000803e3d6000fd5b505050506040513d601f19601f820116820180604052508101906115f19190613258565b90508181101561165f5760405162461bcd60e51b815260206004820152603360248201527f59616b5661756c743a3a6465706f736974546f53747261746567792c20616d6f604482015272756e7420657863656564732062616c616e636560681b6064820152608401610671565b600954611676906001600160a01b03168484611e19565b60405163b6b55f2560e01b8152600481018390526001600160a01b0384169063b6b55f2590602401600060405180830381600087803b1580156116b857600080fd5b505af11580156116cc573d6000803e3d6000fd5b50506009546116e992506001600160a01b03169050846000611e19565b505050565b6006546001600160a01b031633146117185760405162461bcd60e51b8152600401610671906131ad565b6114d582826121cc565b6002600754036117445760405162461bcd60e51b815260040161067190613221565b600260075561175333826127b6565b506001600755565b6006546001600160a01b031633146117855760405162461bcd60e51b8152600401610671906131ad565b60008111801561179757506127108111155b6118095760405162461bcd60e51b815260206004820152603960248201527f59616b5661756c743a3a6465706f73697450657263656e74616765546f53747260448201527f61746567792c20696e76616c69642070657263656e74616765000000000000006064820152608401610671565b611814600b83611df7565b6118865760405162461bcd60e51b815260206004820152603e60248201527f59616b5661756c743a3a6465706f73697450657263656e74616765546f53747260448201527f61746567792c207374726174656779206e6f74207265676973746572656400006064820152608401610671565b6009546040516370a0823160e01b81523060048201526000916001600160a01b0316906370a0823190602401602060405180830381865afa1580156118cf573d6000803e3d6000fd5b505050506040513d601f19601f820116820180604052508101906118f39190613258565b9050600061190d612710611907848661299c565b906129a8565b600954909150611927906001600160a01b03168583611e19565b60405163b6b55f2560e01b8152600481018290526001600160a01b0385169063b6b55f2590602401600060405180830381600087803b15801561196957600080fd5b505af115801561197d573d6000803e3d6000fd5b505060095461199a92506001600160a01b03169050856000611e19565b50505050565b428410156119e25760405162461bcd60e51b815260206004820152600f60248201526e1c195c9b5a5d0e8e995e1c1a5c9959608a1b6044820152606401610671565b6001600160a01b038716600090815260056020526040812080547f6e71edae12b1b97f4d1f60370fef10105fa2faae0126114a169c64845d6126c9918a918a918a919086611a2f83613287565b909155506040805160208101969096526001600160a01b0394851690860152929091166060840152608083015260a082015260c0810186905260e001604051602081830303815290604052805190602001209050611a9088828686866129b4565b611a9b888888611ce9565b5050505050505050565b600060025460001480611abd5750611abb611307565b155b15611ac6575090565b610641611ad1611307565b60025461190790859061299c565b600060025460001480611af75750611af5611307565b155b15611b0457506000919050565b610641600254611907611b15611307565b859061299c565b600080805b611b2b600b6121b6565b81101561148e57611b4a611b43610366600b846121c0565b8390612990565b915080611b5681613287565b915050611b21565b60007f8b73c3c69bb8fe3d512ecc4cf759cc79239f7b179b0ffacaa9a75d522b39400f60001b6000604051611b9391906132a0565b6040519081900390207fc89efdaa54c0f20c7adf612882df0950f5a951637e0307cdcb4c672f298b8bc646604080516020810195909552840192909252606083015260808201523060a082015260c00160405160208183030381529060405280519060200120905090565b6006546001600160a01b03163314611c285760405162461bcd60e51b8152600401610671906131ad565b6001600160a01b038116611c8d5760405162461bcd60e51b815260206004820152602660248201527f4f776e61626c653a206e6577206f776e657220697320746865207a65726f206160448201526564647265737360d01b6064820152608401610671565b6006546040516001600160a01b038084169216907f8be0079c531659141344cd1fd0a4f28419497f9722a3daafe3b4186f6b6457e090600090a3600680546001600160a01b0319166001600160a01b0392909216919091179055565b6001600160a01b038316611d3f5760405162461bcd60e51b815260206004820152601c60248201527f5f617070726f76653a3a6f776e6572207a65726f2061646472657373000000006044820152606401610671565b6001600160a01b038216611d955760405162461bcd60e51b815260206004820152601e60248201527f5f617070726f76653a3a7370656e646572207a65726f206164647265737300006044820152606401610671565b6001600160a01b0383811660008181526003602090815260408083209487168084529482529182902085905590518481527f8c5be1e5ebec7d5bd14f71427d1e84f3dd0314c0f7b2291e5b200ac8c7c3b92591015b60405180910390a3505050565b6001600160a01b03811660009081526001830160205260408120541515610cdf565b801580611e935750604051636eb1769f60e11b81523060048201526001600160a01b03838116602483015284169063dd62ed3e90604401602060405180830381865afa158015611e6d573d6000803e3d6000fd5b505050506040513d601f19601f82011682018060405250810190611e919190613258565b155b611efe5760405162461bcd60e51b815260206004820152603660248201527f5361666545524332303a20617070726f76652066726f6d206e6f6e2d7a65726f60448201527520746f206e6f6e2d7a65726f20616c6c6f77616e636560501b6064820152608401610671565b6040516001600160a01b0383166024820152604481018290526116e990849063095ea7b360e01b906064015b60408051601f198184030181529190526020810180516001600160e01b03166001600160e01b031990931692909217909152612ae0565b6000610cdf836001600160a01b038416612bb2565b6000610cdf836001600160a01b038416612ca5565b60008184841115611faf5760405162461bcd60e51b81526004016106719190612f87565b505050900390565b6001600160a01b03821661202a5760405162461bcd60e51b815260206004820152603460248201527f5f7472616e73666572546f6b656e733a2063616e6e6f74207472616e7366657260448201527320746f20746865207a65726f206164647265737360601b6064820152608401610671565b612067816040518060600160405280602e8152602001613471602e91396001600160a01b0386166000908152600460205260409020549190611f8b565b6001600160a01b0380851660009081526004602052604080822093909355908416815220546120969082612990565b6001600160a01b0380841660008181526004602052604090819020939093559151908516907fddf252ad1be2c89b69c2b068fc378daa952ba7f163c4a11628f55a4df523b3ef90611dea9085815260200190565b6000805b6120f8600b6121b6565b8110156121a2576008546001600160a01b03166350a1fa5861211b600b846121c0565b6040516001600160e01b031960e084901b1681526001600160a01b039091166004820152602401602060405180830381865afa15801561215f573d6000803e3d6000fd5b505050506040513d601f19601f8201168201806040525081019061218391906131e2565b1561219057600091505090565b8061219a81613287565b9150506120ee565b506001905090565b6000610cdf828461333b565b6000610641825490565b6000610cdf8383612cf4565b6009546040516370a0823160e01b81523060048201526000916001600160a01b0316906370a0823190602401602060405180830381865afa158015612215573d6000803e3d6000fd5b505050506040513d601f19601f820116820180604052508101906122399190613258565b604051636ec6726b60e11b8152600481018490529091506000906001600160a01b0385169063dd8ce4d690602401602060405180830381865afa158015612284573d6000803e3d6000fd5b505050506040513d601f19601f820116820180604052508101906122a89190613258565b604051632e1a7d4d60e01b8152600481018290529091506001600160a01b03851690632e1a7d4d90602401600060405180830381600087803b1580156122ed57600080fd5b505af1158015612301573d6000803e3d6000fd5b50506009546040516370a0823160e01b8152306004820152600093506001600160a01b0390911691506370a0823190602401602060405180830381865afa158015612350573d6000803e3d6000fd5b505050506040513d601f19601f820116820180604052508101906123749190613258565b90508281116123eb5760405162461bcd60e51b815260206004820152603f60248201527f59616b5661756c743a3a5f77697468647261774465706f736974546f6b656e7360448201527f46726f6d53747261746567792c207769746864726177616c206661696c6564006064820152608401610671565b5050505050565b60008111801561240457506127108111155b6124765760405162461bcd60e51b815260206004820152603d60248201527f59616b5661756c743a3a5f776974686472617750657263656e7461676546726f60448201527f6d53747261746567792c20696e76616c69642070657263656e746167650000006064820152608401610671565b6009546040516370a0823160e01b81523060048201526000916001600160a01b0316906370a0823190602401602060405180830381865afa1580156124bf573d6000803e3d6000fd5b505050506040513d601f19601f820116820180604052508101906124e39190613258565b6040516370a0823160e01b815230600482015290915060009081906001600160a01b038616906370a0823190602401602060405180830381865afa15801561252f573d6000803e3d6000fd5b505050506040513d601f19601f820116820180604052508101906125539190613258565b9050612565612710611907838761299c565b604051632e1a7d4d60e01b8152600481018290529092506001600160a01b03861690632e1a7d4d90602401600060405180830381600087803b1580156125aa57600080fd5b505af11580156125be573d6000803e3d6000fd5b50506009546040516370a0823160e01b8152306004820152600093506001600160a01b0390911691506370a0823190602401602060405180830381865afa15801561260d573d6000803e3d6000fd5b505050506040513d601f19601f820116820180604052508101906126319190613258565b90508381116126a85760405162461bcd60e51b815260206004820152603c60248201527f59616b5661756c743a3a5f776974686472617750657263656e7461676546726f60448201527f6d53747261746567792c207769746864726177616c206661696c6564000000006064820152608401610671565b505050505050565b6040516001600160a01b0383166024820152604481018290526116e990849063a9059cbb60e01b90606401611f2a565b61271d8160405180606001604052806027815260200161344a602791396001600160a01b0385166000908152600460205260409020549190611f8b565b60046000846001600160a01b03166001600160a01b031681526020019081526020016000208190555061276d816040518060600160405280602781526020016133f4602791396002549190611f8b565b6002556040518181526000906001600160a01b038416907fddf252ad1be2c89b69c2b068fc378daa952ba7f163c4a11628f55a4df523b3ef906020015b60405180910390a35050565b600081116128105760405162461bcd60e51b815260206004820152602160248201527f59616b5661756c743a3a6465706f7369742c20616d6f756e7420746f6f206c6f6044820152607760f81b6064820152608401610671565b6128186120ea565b61287a5760405162461bcd60e51b815260206004820152602d60248201527f59616b5661756c743a3a6465706f7369742c206465706f7369742074656d706f60448201526c1c985c9a5b1e481c185d5cd959609a1b6064820152608401610671565b61288c8261288783611aa5565b612d1e565b6009546128a4906001600160a01b0316333084612da2565b600a546001600160a01b03161561294e57600a546009546128d2916001600160a01b03918216911683611e19565b600a5460405163b6b55f2560e01b8152600481018390526001600160a01b039091169063b6b55f2590602401600060405180830381600087803b15801561291857600080fd5b505af115801561292c573d6000803e3d6000fd5b5050600a5460095461294e93506001600160a01b039081169250166000611e19565b6009546040518281526001600160a01b03918216918416907f5548c837ab068cf56a2c2479df0882a4922fd203edb7517321831d95078c5f62906020016127aa565b6000610cdf8284613352565b6000610cdf828461336a565b6000610cdf8284613389565b60006129be611b5e565b60405161190160f01b602082015260228101919091526042810186905260620160408051601f198184030181528282528051602091820120600080855291840180845281905260ff88169284019290925260608301869052608083018590529092509060019060a0016020604051602081039080840390855afa158015612a49573d6000803e3d6000fd5b5050604051601f1901519150506001600160a01b03811615801590612a7f5750866001600160a01b0316816001600160a01b0316145b612ad75760405162461bcd60e51b8152602060048201526024808201527f417263683a3a76616c69646174655369673a20696e76616c6964207369676e616044820152637475726560e01b6064820152608401610671565b50505050505050565b6000612b35826040518060400160405280602081526020017f5361666545524332303a206c6f772d6c6576656c2063616c6c206661696c6564815250856001600160a01b0316612dda9092919063ffffffff16565b8051909150156116e95780806020019051810190612b5391906131e2565b6116e95760405162461bcd60e51b815260206004820152602a60248201527f5361666545524332303a204552433230206f7065726174696f6e20646964206e6044820152691bdd081cdd58d8d9595960b21b6064820152608401610671565b60008181526001830160205260408120548015612c9b576000612bd660018361333b565b8554909150600090612bea9060019061333b565b9050818114612c4f576000866000018281548110612c0a57612c0a6133ab565b9060005260206000200154905080876000018481548110612c2d57612c2d6133ab565b6000918252602080832090910192909255918252600188019052604090208390555b8554869080612c6057612c606133c1565b600190038181906000526020600020016000905590558560010160008681526020019081526020016000206000905560019350505050610641565b6000915050610641565b6000818152600183016020526040812054612cec57508154600181810184556000848152602080822090930184905584548482528286019093526040902091909155610641565b506000610641565b6000826000018281548110612d0b57612d0b6133ab565b9060005260206000200154905092915050565b600254612d2b9082612990565b6002556001600160a01b038216600090815260046020526040902054612d519082612990565b6001600160a01b0383166000818152600460205260408082209390935591519091907fddf252ad1be2c89b69c2b068fc378daa952ba7f163c4a11628f55a4df523b3ef906127aa9085815260200190565b6040516001600160a01b038085166024830152831660448201526064810182905261199a9085906323b872dd60e01b90608401611f2a565b6060612de98484600085612df1565b949350505050565b606082471015612e525760405162461bcd60e51b815260206004820152602660248201527f416464726573733a20696e73756666696369656e742062616c616e636520666f6044820152651c8818d85b1b60d21b6064820152608401610671565b6001600160a01b0385163b612ea95760405162461bcd60e51b815260206004820152601d60248201527f416464726573733a2063616c6c20746f206e6f6e2d636f6e74726163740000006044820152606401610671565b600080866001600160a01b03168587604051612ec591906133d7565b60006040518083038185875af1925050503d8060008114612f02576040519150601f19603f3d011682016040523d82523d6000602084013e612f07565b606091505b5091509150612f17828286612f22565b979650505050505050565b60608315612f31575081610cdf565b825115612f415782518084602001fd5b8160405162461bcd60e51b81526004016106719190612f87565b60005b83811015612f76578181015183820152602001612f5e565b8381111561199a5750506000910152565b6020815260008251806020840152612fa6816040850160208701612f5b565b601f01601f19169190910160400192915050565b6001600160a01b0381168114612fcf57600080fd5b50565b60008060408385031215612fe557600080fd5b8235612ff081612fba565b946020939093013593505050565b60006020828403121561301057600080fd5b8135610cdf81612fba565b60008060006060848603121561303057600080fd5b833561303b81612fba565b9250602084013561304b81612fba565b929592945050506040919091013590565b60006020828403121561306e57600080fd5b5035919050565b803560ff8116811461308657600080fd5b919050565b600080600080600060a086880312156130a357600080fd5b85359450602086013593506130ba60408701613075565b94979396509394606081013594506080013592915050565b600080600080600080600060e0888a0312156130ed57600080fd5b87356130f881612fba565b9650602088013561310881612fba565b9550604088013594506060880135935061312460808901613075565b925060a0880135915060c0880135905092959891949750929550565b6000806040838503121561315357600080fd5b823561315e81612fba565b9150602083013561316e81612fba565b809150509250929050565b600181811c9082168061318d57607f821691505b60208210810361148e57634e487b7160e01b600052602260045260246000fd5b6020808252818101527f4f776e61626c653a2063616c6c6572206973206e6f7420746865206f776e6572604082015260600190565b6000602082840312156131f457600080fd5b81518015158114610cdf57600080fd5b60006020828403121561321657600080fd5b8151610cdf81612fba565b6020808252601f908201527f5265656e7472616e637947756172643a207265656e7472616e742063616c6c00604082015260600190565b60006020828403121561326a57600080fd5b5051919050565b634e487b7160e01b600052601160045260246000fd5b60006001820161329957613299613271565b5060010190565b600080835481600182811c9150808316806132bc57607f831692505b602080841082036132db57634e487b7160e01b86526022600452602486fd5b8180156132ef57600181146133005761332d565b60ff1986168952848901965061332d565b60008a81526020902060005b868110156133255781548b82015290850190830161330c565b505084890196505b509498975050505050505050565b60008282101561334d5761334d613271565b500390565b6000821982111561336557613365613271565b500190565b600081600019048311821515161561338457613384613271565b500290565b6000826133a657634e487b7160e01b600052601260045260246000fd5b500490565b634e487b7160e01b600052603260045260246000fd5b634e487b7160e01b600052603160045260246000fd5b600082516133e9818460208701612f5b565b919091019291505056fe5f6275726e3a206275726e20616d6f756e74206578636565647320746f74616c20737570706c797472616e7366657246726f6d3a207472616e7366657220616d6f756e74206578636565647320616c6c6f77616e63655f6275726e3a206275726e20616d6f756e7420657863656564732066726f6d2062616c616e63655f7472616e73666572546f6b656e733a207472616e7366657220657863656564732066726f6d2062616c616e6365a2646970667358221220aac1a07c42af78a704e070bb1c858cb0a68baf43906d129bcceaad01da87812364736f6c634300080d0033",
    "linkReferences": {}
  },
  "methodIdentifiers": {
    "DOMAIN_TYPEHASH()": "20606b70",
    "PERMIT_TYPEHASH()": "30adf81f",
    "VERSION_HASH()": "9e4e7318",
    "activeStrategy()": "cd3c4255",
    "addStrategy(address)": "223e5479",
    "allowance(address,address)": "dd62ed3e",
    "approve(address,uint256)": "095ea7b3",
    "balanceOf(address)": "70a08231",
    "decimals()": "313ce567",
    "deposit(uint256)": "b6b55f25",
    "depositFor(address,uint256)": "2f4f21e2",
    "depositPercentageToStrategy(address,uint256)": "b93ba143",
    "depositToStrategy(address,uint256)": "af76d4bd",
    "depositToken()": "c89039c5",
    "depositWithPermit(uint256,uint256,uint8,bytes32,bytes32)": "4a970be7",
    "estimateDeployedBalances()": "eaf66fd9",
    "getDeployedBalance(address)": "496248dc",
    "getDepositTokensForShares(uint256)": "eab89a5a",
    "getDomainSeparator()": "ed24911d",
    "getSharesForDepositTokens(uint256)": "dd8ce4d6",
    "name()": "06fdde03",
    "nonces(address)": "7ecebe00",
    "owner()": "8da5cb5b",
    "permit(address,address,uint256,uint256,uint8,bytes32,bytes32)": "d505accf",
    "removeStrategy(address)": "175188e8",
    "renounceOwnership()": "715018a6",
    "setActiveStrategy(address)": "5fc4406e",
    "symbol()": "95d89b41",
    "totalDeposits()": "7d882097",
    "totalSupply()": "18160ddd",
    "transfer(address,uint256)": "a9059cbb",
    "transferFrom(address,address,uint256)": "23b872dd",
    "transferOwnership(address)": "f2fde38b",
    "version()": "54fd4d50",
    "withdraw(uint256)": "2e1a7d4d",
    "withdrawFromStrategy(address,uint256)": "b53d0958",
    "withdrawPercentageFromStrategy(address,uint256)": "a5bd9e84",
    "yakRegistry()": "f4fb7c17"
  },
  "id": 6
}