{
  "abi": [
    {
      "inputs": [
        {
          "internalType": "contract IERC20",
          "name": "_depositToken",
          "type": "address"
        },
        {
          "internalType": "contract IERC20",
          "name": "_rewardToken",
          "type": "address"
        },
        {
          "internalType": "address",
          "name": "_feeCollector",
          "type": "address"
        }
      ],
      "stateMutability": "nonpayable",
      "type": "constructor"
    },
    {
      "anonymous": false,
      "inputs": [
        {
          "indexed": true,
          "internalType": "address",
          "name": "user",
          "type": "address"
        },
        {
          "indexed": true,
          "internalType": "address",
          "name": "rewardToken",
          "type": "address"
        },
        {
          "indexed": false,
          "internalType": "uint256",
          "name": "amount",
          "type": "uint256"
        }
      ],
      "name": "ClaimReward",
      "type": "event"
    },
    {
      "anonymous": false,
      "inputs": [
        {
          "indexed": true,
          "internalType": "address",
          "name": "user",
          "type": "address"
        },
        {
          "indexed": false,
          "internalType": "uint256",
          "name": "amount",
          "type": "uint256"
        },
        {
          "indexed": false,
          "internalType": "uint256",
          "name": "fee",
          "type": "uint256"
        }
      ],
      "name": "Deposit",
      "type": "event"
    },
    {
      "anonymous": false,
      "inputs": [
        {
          "indexed": false,
          "internalType": "uint256",
          "name": "newFee",
          "type": "uint256"
        },
        {
          "indexed": false,
          "internalType": "uint256",
          "name": "oldFee",
          "type": "uint256"
        }
      ],
      "name": "DepositFeeChanged",
      "type": "event"
    },
    {
      "anonymous": false,
      "inputs": [
        {
          "indexed": true,
          "internalType": "address",
          "name": "user",
          "type": "address"
        },
        {
          "indexed": false,
          "internalType": "uint256",
          "name": "amount",
          "type": "uint256"
        }
      ],
      "name": "EmergencyWithdraw",
      "type": "event"
    },
    {
      "anonymous": false,
      "inputs": [
        {
          "indexed": false,
          "internalType": "address",
          "name": "newFeeCollector",
          "type": "address"
        },
        {
          "indexed": false,
          "internalType": "address",
          "name": "oldFeeCollector",
          "type": "address"
        }
      ],
      "name": "FeeCollectorChanged",
      "type": "event"
    },
    {
      "anonymous": false,
      "inputs": [
        {
          "indexed": true,
          "internalType": "address",
          "name": "previousOwner",
          "type": "address"
        },
        {
          "indexed": true,
          "internalType": "address",
          "name": "newOwner",
          "type": "address"
        }
      ],
      "name": "OwnershipTransferred",
      "type": "event"
    },
    {
      "anonymous": false,
      "inputs": [
        {
          "indexed": false,
          "internalType": "address",
          "name": "token",
          "type": "address"
        }
      ],
      "name": "RewardTokenAdded",
      "type": "event"
    },
    {
      "anonymous": false,
      "inputs": [
        {
          "indexed": false,
          "internalType": "address",
          "name": "token",
          "type": "address"
        }
      ],
      "name": "RewardTokenRemoved",
      "type": "event"
    },
    {
      "anonymous": false,
      "inputs": [
        {
          "indexed": true,
          "internalType": "address",
          "name": "user",
          "type": "address"
        },
        {
          "indexed": false,
          "internalType": "uint256",
          "name": "amount",
          "type": "uint256"
        }
      ],
      "name": "Withdraw",
      "type": "event"
    },
    {
      "inputs": [],
      "name": "ACC_REWARD_PER_SHARE_PRECISION",
      "outputs": [
        {
          "internalType": "uint256",
          "name": "",
          "type": "uint256"
        }
      ],
      "stateMutability": "view",
      "type": "function"
    },
    {
      "inputs": [
        {
          "internalType": "contract IERC20",
          "name": "",
          "type": "address"
        }
      ],
      "name": "accRewardPerShare",
      "outputs": [
        {
          "internalType": "uint256",
          "name": "",
          "type": "uint256"
        }
      ],
      "stateMutability": "view",
      "type": "function"
    },
    {
      "inputs": [
        {
          "internalType": "contract IERC20",
          "name": "_rewardToken",
          "type": "address"
        }
      ],
      "name": "addRewardToken",
      "outputs": [],
      "stateMutability": "nonpayable",
      "type": "function"
    },
    {
      "inputs": [
        {
          "internalType": "uint256",
          "name": "amount",
          "type": "uint256"
        }
      ],
      "name": "deposit",
      "outputs": [],
      "stateMutability": "nonpayable",
      "type": "function"
    },
    {
      "inputs": [],
      "name": "depositFeePercent",
      "outputs": [
        {
          "internalType": "uint256",
          "name": "",
          "type": "uint256"
        }
      ],
      "stateMutability": "view",
      "type": "function"
    },
    {
      "inputs": [
        {
          "internalType": "address",
          "name": "account",
          "type": "address"
        },
        {
          "internalType": "uint256",
          "name": "amount",
          "type": "uint256"
        }
      ],
      "name": "depositFor",
      "outputs": [],
      "stateMutability": "nonpayable",
      "type": "function"
    },
    {
      "inputs": [],
      "name": "depositToken",
      "outputs": [
        {
          "internalType": "contract IERC20",
          "name": "",
          "type": "address"
        }
      ],
      "stateMutability": "view",
      "type": "function"
    },
    {
      "inputs": [
        {
          "internalType": "uint256",
          "name": "amount",
          "type": "uint256"
        },
        {
          "internalType": "uint256",
          "name": "deadline",
          "type": "uint256"
        },
        {
          "internalType": "uint8",
          "name": "v",
          "type": "uint8"
        },
        {
          "internalType": "bytes32",
          "name": "r",
          "type": "bytes32"
        },
        {
          "internalType": "bytes32",
          "name": "s",
          "type": "bytes32"
        }
      ],
      "name": "depositWithPermit",
      "outputs": [],
      "stateMutability": "nonpayable",
      "type": "function"
    },
    {
      "inputs": [],
      "name": "emergencyWithdraw",
      "outputs": [],
      "stateMutability": "nonpayable",
      "type": "function"
    },
    {
      "inputs": [],
      "name": "feeCollector",
      "outputs": [
        {
          "internalType": "address",
          "name": "",
          "type": "address"
        }
      ],
      "stateMutability": "view",
      "type": "function"
    },
    {
      "inputs": [
        {
          "internalType": "address",
          "name": "_user",
          "type": "address"
        },
        {
          "internalType": "contract IERC20",
          "name": "_rewardToken",
          "type": "address"
        }
      ],
      "name": "getUserInfo",
      "outputs": [
        {
          "internalType": "uint256",
          "name": "",
          "type": "uint256"
        },
        {
          "internalType": "uint256",
          "name": "",
          "type": "uint256"
        }
      ],
      "stateMutability": "view",
      "type": "function"
    },
    {
      "inputs": [],
      "name": "internalBalance",
      "outputs": [
        {
          "internalType": "uint256",
          "name": "",
          "type": "uint256"
        }
      ],
      "stateMutability": "view",
      "type": "function"
    },
    {
      "inputs": [
        {
          "internalType": "contract IERC20",
          "name": "",
          "type": "address"
        }
      ],
      "name": "isRewardToken",
      "outputs": [
        {
          "internalType": "bool",
          "name": "",
          "type": "bool"
        }
      ],
      "stateMutability": "view",
      "type": "function"
    },
    {
      "inputs": [
        {
          "internalType": "contract IERC20",
          "name": "",
          "type": "address"
        }
      ],
      "name": "lastRewardBalance",
      "outputs": [
        {
          "internalType": "uint256",
          "name": "",
          "type": "uint256"
        }
      ],
      "stateMutability": "view",
      "type": "function"
    },
    {
      "inputs": [],
      "name": "owner",
      "outputs": [
        {
          "internalType": "address",
          "name": "",
          "type": "address"
        }
      ],
      "stateMutability": "view",
      "type": "function"
    },
    {
      "inputs": [
        {
          "internalType": "address",
          "name": "_user",
          "type": "address"
        },
        {
          "internalType": "contract IERC20",
          "name": "_token",
          "type": "address"
        }
      ],
      "name": "pendingReward",
      "outputs": [
        {
          "internalType": "uint256",
          "name": "",
          "type": "uint256"
        }
      ],
      "stateMutability": "view",
      "type": "function"
    },
    {
      "inputs": [
        {
          "internalType": "contract IERC20",
          "name": "_rewardToken",
          "type": "address"
        }
      ],
      "name": "removeRewardToken",
      "outputs": [],
      "stateMutability": "nonpayable",
      "type": "function"
    },
    {
      "inputs": [],
      "name": "renounceOwnership",
      "outputs": [],
      "stateMutability": "nonpayable",
      "type": "function"
    },
    {
      "inputs": [
        {
          "internalType": "uint256",
          "name": "",
          "type": "uint256"
        }
      ],
      "name": "rewardTokens",
      "outputs": [
        {
          "internalType": "contract IERC20",
          "name": "",
          "type": "address"
        }
      ],
      "stateMutability": "view",
      "type": "function"
    },
    {
      "inputs": [],
      "name": "rewardTokensLength",
      "outputs": [
        {
          "internalType": "uint256",
          "name": "",
          "type": "uint256"
        }
      ],
      "stateMutability": "view",
      "type": "function"
    },
    {
      "inputs": [
        {
          "internalType": "uint256",
          "name": "_depositFeePercent",
          "type": "uint256"
        }
      ],
      "name": "setDepositFeePercent",
      "outputs": [],
      "stateMutability": "nonpayable",
      "type": "function"
    },
    {
      "inputs": [
        {
          "internalType": "address",
          "name": "newOwner",
          "type": "address"
        }
      ],
      "name": "transferOwnership",
      "outputs": [],
      "stateMutability": "nonpayable",
      "type": "function"
    },
    {
      "inputs": [
        {
          "internalType": "address",
          "name": "_newFeeCollector",
          "type": "address"
        }
      ],
      "name": "updateFeeCollector",
      "outputs": [],
      "stateMutability": "nonpayable",
      "type": "function"
    },
    {
      "inputs": [
        {
          "internalType": "contract IERC20",
          "name": "_token",
          "type": "address"
        }
      ],
      "name": "updateReward",
      "outputs": [],
      "stateMutability": "nonpayable",
      "type": "function"
    },
    {
      "inputs": [
        {
          "internalType": "uint256",
          "name": "_amount",
          "type": "uint256"
        }
      ],
      "name": "withdraw",
      "outputs": [],
      "stateMutability": "nonpayable",
      "type": "function"
    }
  ],
  "bytecode": {
    "object": "0x60806040523480156200001157600080fd5b5060405162001e1038038062001e1083398101604081905262000034916200026a565b600080546001600160a01b031916339081178255604051909182917f8be0079c531659141344cd1fd0a4f28419497f9722a3daafe3b4186f6b6457e0908290a3506001600160a01b038316620000e55760405162461bcd60e51b815260206004820152602b60248201527f59795374616b696e673a3a6465706f736974546f6b656e2063616e277420626560448201526a206164647265737328302960a81b60648201526084015b60405180910390fd5b6001600160a01b038216620001505760405162461bcd60e51b815260206004820152602a60248201527f59795374616b696e673a3a726577617264546f6b656e2063616e2774206265206044820152696164647265737328302960b01b6064820152608401620000dc565b6001600160a01b038116620001bc5760405162461bcd60e51b815260206004820152602b60248201527f59795374616b696e673a3a666565436f6c6c6563746f722063616e277420626560448201526a206164647265737328302960a81b6064820152608401620000dc565b600180546001600160a01b03199081166001600160a01b0395861617825560068054821693861693909317909255919092166000818152600460205260408120805460ff19168417905560038054938401815590527fc2575a0e9e593c00f959f8c92f12db2869c3395a3b0502d05e2516446f71f85b909101805490921617905569d3c21bcecceda1000000600955620002be565b6001600160a01b03811681146200026757600080fd5b50565b6000806000606084860312156200028057600080fd5b83516200028d8162000251565b6020850151909350620002a08162000251565b6040850151909250620002b38162000251565b809150509250925092565b611b4280620002ce6000396000f3fe608060405234801561001057600080fd5b50600436106101735760003560e01c80637bb7bed1116100de578063c415b95c11610097578063d2c35ce811610071578063d2c35ce814610338578063db2e21bc1461034b578063f2801fe714610353578063f2fde38b146103a957600080fd5b8063c415b95c14610309578063c89039c51461031c578063cc1252ae1461032f57600080fd5b80637bb7bed11461026c5780638da5cb5b146102975780639ced7e76146102a8578063b5fd73f8146102bb578063b6b55f25146102ee578063bf199e621461030157600080fd5b80633d509c97116101305780633d509c97146101eb5780634a970be7146101fe5780635dcea4d4146102115780635fc0d9e014610231578063632447c914610251578063715018a61461026457600080fd5b80631c03e6cc146101785780632052eb771461018d5780632e1a7d4d146101a05780632e6245c6146101b35780632f4f21e2146101cf5780633c97d5ae146101e2575b600080fd5b61018b61018636600461186c565b6103bc565b005b61018b61019b366004611889565b610587565b61018b6101ae366004611889565b610645565b6101bc60025481565b6040519081526020015b60405180910390f35b61018b6101dd3660046118a2565b610875565b6101bc60095481565b61018b6101f936600461186c565b610883565b61018b61020c3660046118ce565b610a94565b6101bc61021f36600461186c565b60086020526000908152604090205481565b6101bc61023f36600461186c565b60056020526000908152604090205481565b61018b61025f36600461186c565b610b2d565b61018b610cef565b61027f61027a366004611889565b610d63565b6040516001600160a01b0390911681526020016101c6565b6000546001600160a01b031661027f565b6101bc6102b636600461191d565b610d8d565b6102de6102c936600461186c565b60046020526000908152604090205460ff1681565b60405190151581526020016101c6565b61018b6102fc366004611889565b610f2d565b6003546101bc565b60065461027f906001600160a01b031681565b60015461027f906001600160a01b031681565b6101bc60075481565b61018b61034636600461186c565b610f3a565b61018b610ffd565b61039461036136600461191d565b6001600160a01b038083166000908152600a60209081526040808320805494861684526001019091529020549250929050565b604080519283526020830191909152016101c6565b61018b6103b736600461186c565b6110d0565b6000546001600160a01b031633146103ef5760405162461bcd60e51b81526004016103e690611956565b60405180910390fd5b6001600160a01b03811660009081526004602052604090205460ff1615801561042057506001600160a01b03811615155b61047a5760405162461bcd60e51b815260206004820152602560248201527f59795374616b696e673a3a726577617264546f6b656e2063616e277420626520604482015264185919195960da1b60648201526084016103e6565b6003546019116104dc5760405162461bcd60e51b815260206004820152602760248201527f59795374616b696e673a3a6c697374206f6620726577617264546f6b656e7320604482015266746f6f2062696760c81b60648201526084016103e6565b6003805460018082019092557fc2575a0e9e593c00f959f8c92f12db2869c3395a3b0502d05e2516446f71f85b0180546001600160a01b0319166001600160a01b0384169081179091556000908152600460205260409020805460ff1916909117905561054881610b2d565b6040516001600160a01b03821681527ff3e4c2c64e71e6ba2eaab9a599bced62f9eb91d2cda610bf41aa8c80ff2cf8269060200160405180910390a150565b6000546001600160a01b031633146105b15760405162461bcd60e51b81526004016103e690611956565b6127108111156106035760405162461bcd60e51b815260206004820152601f60248201527f59795374616b696e673a3a6465706f7369742066656520746f6f20686967680060448201526064016103e6565b6007546040805183815260208101929092527f6be5411ea11f30380402ca68832d060d744cbc5f62d2344495c10256ba93904a910160405180910390a1600755565b336000908152600a602052604090208054808311156106b95760405162461bcd60e51b815260206004820152602a60248201527f59795374616b696e673a3a776974686472617720616d6f756e7420657863656560448201526964732062616c616e636560b01b60648201526084016103e6565b81546000906106c890856111ba565b80845560035490915082156108125760005b81811015610810576000600382815481106106f7576106f761198b565b6000918252602090912001546001600160a01b0316905061071781610b2d565b6001600160a01b03811660009081526001870160209081526040808320546009546008909352908320546107609261075a91610754908b906111cd565b906111d9565b906111ba565b6009546001600160a01b03841660009081526008602052604090205491925061078e916107549088906111cd565b6001600160a01b038316600090815260018901602052604090205580156107fb576107ba8233836111e5565b6040518181526001600160a01b0383169033907f7e77f685b38c861064cb08f2776eb5dfd3c82f652ed9f21221b8c53b75628e519060200160405180910390a35b50508080610808906119b7565b9150506106da565b505b60025461081f90866111ba565b600255600154610839906001600160a01b0316338761131e565b60405185815233907f884edad9ce6fa2440d8a54cc123490eb96d2768479d49ff9c7366125a94243649060200160405180910390a25050505050565b61087f8282611386565b5050565b6000546001600160a01b031633146108ad5760405162461bcd60e51b81526004016103e690611956565b6001600160a01b03811660009081526004602052604090205460ff166109255760405162461bcd60e51b815260206004820152602760248201527f59795374616b696e673a3a726577617264546f6b656e2063616e2774206265206044820152661c995b5bdd995960ca1b60648201526084016103e6565b61092e81610b2d565b6001600160a01b0381166000908152600460205260408120805460ff19169055600354905b81811015610a5357826001600160a01b0316600382815481106109785761097861198b565b6000918252602090912001546001600160a01b031603610a4157600361099f6001846119d0565b815481106109af576109af61198b565b600091825260209091200154600380546001600160a01b0390921691839081106109db576109db61198b565b9060005260206000200160006101000a8154816001600160a01b0302191690836001600160a01b031602179055506003805480610a1a57610a1a6119e7565b600082815260209020810160001990810180546001600160a01b0319169055019055610a53565b80610a4b816119b7565b915050610953565b506040516001600160a01b03831681527f66257bcef574219c04f7c05f7a1c78d599da10491294c92a5805c48b4cdf50099060200160405180910390a15050565b60015460405163d505accf60e01b8152336004820152306024820152604481018790526064810186905260ff8516608482015260a4810184905260c481018390526001600160a01b039091169063d505accf9060e401600060405180830381600087803b158015610b0457600080fd5b505af1158015610b18573d6000803e3d6000fd5b50505050610b263386611386565b5050505050565b6001600160a01b03811660009081526004602052604090205460ff16610b955760405162461bcd60e51b815260206004820152601d60248201527f59795374616b696e673a3a77726f6e672072657761726420746f6b656e00000060448201526064016103e6565b6002546040516370a0823160e01b81523060048201526000906001600160a01b038416906370a0823190602401602060405180830381865afa158015610bdf573d6000803e3d6000fd5b505050506040513d601f19601f82011682018060405250810190610c0391906119fd565b6001549091506000906001600160a01b03858116911614610c245781610c2e565b610c2e82846111ba565b6001600160a01b038516600090815260056020526040902054909150811480610c55575082155b15610c605750505050565b6001600160a01b038416600090815260056020526040812054610c849083906111ba565b9050610cc1610ca285610754600954856111cd90919063ffffffff16565b6001600160a01b038716600090815260086020526040902054906115ba565b6001600160a01b03909516600090815260086020908152604080832097909755600590529490942055505050565b6000546001600160a01b03163314610d195760405162461bcd60e51b81526004016103e690611956565b600080546040516001600160a01b03909116907f8be0079c531659141344cd1fd0a4f28419497f9722a3daafe3b4186f6b6457e0908390a3600080546001600160a01b0319169055565b60038181548110610d7357600080fd5b6000918252602090912001546001600160a01b0316905081565b6001600160a01b03811660009081526004602052604081205460ff16610db557506000610f27565b6001600160a01b038381166000908152600a6020908152604080832060025494871680855260089093528184205491516370a0823160e01b81523060048201529094939192906370a0823190602401602060405180830381865afa158015610e21573d6000803e3d6000fd5b505050506040513d601f19601f82011682018060405250810190610e4591906119fd565b6001549091506000906001600160a01b03888116911614610e665781610e70565b610e7082856111ba565b6001600160a01b0388166000908152600560205260409020549091508114801590610e9a57508315155b15610eec576001600160a01b038716600090815260056020526040812054610ec39083906111ba565b9050610ee8610ee186610754600954856111cd90919063ffffffff16565b85906115ba565b9350505b6001600160a01b03871660009081526001860160205260409020546009548654610f1f929161075a9161075490886111cd565b955050505050505b92915050565b610f373382611386565b50565b6006546001600160a01b03163314610f945760405162461bcd60e51b815260206004820152601c60248201527f59795374616b696e673a3a6f6e6c7920666565436f6c6c6563746f720000000060448201526064016103e6565b600654604080516001600160a01b03808516825290921660208301527f649c5e3d0ed183894196148e193af316452b0037e77d2ff0fef23b7dc722bed0910160405180910390a1600680546001600160a01b0319166001600160a01b0392909216919091179055565b336000908152600a60205260408120805482825560035491929091905b8181101561106e576000600382815481106110375761103761198b565b60009182526020808320909101546001600160a01b0316825260018701905260408120555080611066816119b7565b91505061101a565b5060025461107c90836111ba565b600255600154611096906001600160a01b0316338461131e565b60405182815233907f5fafa99d0643513820be26656b45130b01e1c03062e1266bf36f88cbd3bd96959060200160405180910390a2505050565b6000546001600160a01b031633146110fa5760405162461bcd60e51b81526004016103e690611956565b6001600160a01b03811661115f5760405162461bcd60e51b815260206004820152602660248201527f4f776e61626c653a206e6577206f776e657220697320746865207a65726f206160448201526564647265737360d01b60648201526084016103e6565b600080546040516001600160a01b03808516939216917f8be0079c531659141344cd1fd0a4f28419497f9722a3daafe3b4186f6b6457e091a3600080546001600160a01b0319166001600160a01b0392909216919091179055565b60006111c682846119d0565b9392505050565b60006111c68284611a16565b60006111c68284611a35565b6040516370a0823160e01b81523060048201526000906001600160a01b038516906370a0823190602401602060405180830381865afa15801561122c573d6000803e3d6000fd5b505050506040513d601f19601f8201168201806040525081019061125091906119fd565b6001549091506000906001600160a01b03868116911614611271578161127f565b60025461127f9083906111ba565b9050808311156112d8576001600160a01b0385166000908152600560205260409020546112ac90826111ba565b6001600160a01b0386166000818152600560205260409020919091556112d390858361131e565b610b26565b6001600160a01b0385166000908152600560205260409020546112fb90846111ba565b6001600160a01b038616600081815260056020526040902091909155610b269085855b6040516001600160a01b03831660248201526044810182905261138190849063a9059cbb60e01b906064015b60408051601f198184030181529190526020810180516001600160e01b03166001600160e01b0319909316929092179091526115c6565b505050565b6001600160a01b0382166000908152600a602052604081206007549091906113b790612710906107549086906111cd565b905060006113c584836111ba565b835490915060006113d682846115ba565b80865560035490915060005b81811015611524576000600382815481106113ff576113ff61198b565b6000918252602090912001546001600160a01b0316905061141f81610b2d565b6001600160a01b0381166000908152600189016020908152604080832054600954600890935292205461145891906107549088906111cd565b6001600160a01b038316600090815260018b016020526040902055851561150f576009546001600160a01b03831660009081526008602052604081205490916114ac91849161075a91610754908c906111cd565b9050801561150d576114bf838d836111e5565b826001600160a01b03168c6001600160a01b03167f7e77f685b38c861064cb08f2776eb5dfd3c82f652ed9f21221b8c53b75628e518360405161150491815260200190565b60405180910390a35b505b5050808061151c906119b7565b9150506113e2565b5060025461153290856115ba565b600255600654600154611554916001600160a01b039182169133911688611698565b60015461156c906001600160a01b0316333087611698565b60408051858152602081018790526001600160a01b038a16917f90890809c654f11d6e72a28fa60149770a0d11ec6c92319d6ceb2bb0a4ea1a15910160405180910390a25050505050505050565b60006111c68284611a57565b600061161b826040518060400160405280602081526020017f5361666545524332303a206c6f772d6c6576656c2063616c6c206661696c6564815250856001600160a01b03166116d69092919063ffffffff16565b80519091501561138157808060200190518101906116399190611a6f565b6113815760405162461bcd60e51b815260206004820152602a60248201527f5361666545524332303a204552433230206f7065726174696f6e20646964206e6044820152691bdd081cdd58d8d9595960b21b60648201526084016103e6565b6040516001600160a01b03808516602483015283166044820152606481018290526116d09085906323b872dd60e01b9060840161134a565b50505050565b60606116e584846000856116ed565b949350505050565b60608247101561174e5760405162461bcd60e51b815260206004820152602660248201527f416464726573733a20696e73756666696369656e742062616c616e636520666f6044820152651c8818d85b1b60d21b60648201526084016103e6565b6001600160a01b0385163b6117a55760405162461bcd60e51b815260206004820152601d60248201527f416464726573733a2063616c6c20746f206e6f6e2d636f6e747261637400000060448201526064016103e6565b600080866001600160a01b031685876040516117c19190611abd565b60006040518083038185875af1925050503d80600081146117fe576040519150601f19603f3d011682016040523d82523d6000602084013e611803565b606091505b509150915061181382828661181e565b979650505050505050565b6060831561182d5750816111c6565b82511561183d5782518084602001fd5b8160405162461bcd60e51b81526004016103e69190611ad9565b6001600160a01b0381168114610f3757600080fd5b60006020828403121561187e57600080fd5b81356111c681611857565b60006020828403121561189b57600080fd5b5035919050565b600080604083850312156118b557600080fd5b82356118c081611857565b946020939093013593505050565b600080600080600060a086880312156118e657600080fd5b8535945060208601359350604086013560ff8116811461190557600080fd5b94979396509394606081013594506080013592915050565b6000806040838503121561193057600080fd5b823561193b81611857565b9150602083013561194b81611857565b809150509250929050565b6020808252818101527f4f776e61626c653a2063616c6c6572206973206e6f7420746865206f776e6572604082015260600190565b634e487b7160e01b600052603260045260246000fd5b634e487b7160e01b600052601160045260246000fd5b6000600182016119c9576119c96119a1565b5060010190565b6000828210156119e2576119e26119a1565b500390565b634e487b7160e01b600052603160045260246000fd5b600060208284031215611a0f57600080fd5b5051919050565b6000816000190483118215151615611a3057611a306119a1565b500290565b600082611a5257634e487b7160e01b600052601260045260246000fd5b500490565b60008219821115611a6a57611a6a6119a1565b500190565b600060208284031215611a8157600080fd5b815180151581146111c657600080fd5b60005b83811015611aac578181015183820152602001611a94565b838111156116d05750506000910152565b60008251611acf818460208701611a91565b9190910192915050565b6020815260008251806020840152611af8816040850160208701611a91565b601f01601f1916919091016040019291505056fea2646970667358221220acc627d5354128fea835bddb038d16883a89810479edddf9a06a5d32d9f38aa364736f6c634300080d0033",
    "linkReferences": {}
  },
  "methodIdentifiers": {
    "ACC_REWARD_PER_SHARE_PRECISION()": "3c97d5ae",
    "accRewardPerShare(address)": "5dcea4d4",
    "addRewardToken(address)": "1c03e6cc",
    "deposit(uint256)": "b6b55f25",
    "depositFeePercent()": "cc1252ae",
    "depositFor(address,uint256)": "2f4f21e2",
    "depositToken()": "c89039c5",
    "depositWithPermit(uint256,uint256,uint8,bytes32,bytes32)": "4a970be7",
    "emergencyWithdraw()": "db2e21bc",
    "feeCollector()": "c415b95c",
    "getUserInfo(address,address)": "f2801fe7",
    "internalBalance()": "2e6245c6",
    "isRewardToken(address)": "b5fd73f8",
    "lastRewardBalance(address)": "5fc0d9e0",
    "owner()": "8da5cb5b",
    "pendingReward(address,address)": "9ced7e76",
    "removeRewardToken(address)": "3d509c97",
    "renounceOwnership()": "715018a6",
    "rewardTokens(uint256)": "7bb7bed1",
    "rewardTokensLength()": "bf199e62",
    "setDepositFeePercent(uint256)": "2052eb77",
    "transferOwnership(address)": "f2fde38b",
    "updateFeeCollector(address)": "d2c35ce8",
    "updateReward(address)": "632447c9",
    "withdraw(uint256)": "2e1a7d4d"
  },
  "id": 7
}