{
  "abi": [
    {
      "inputs": [
        {
          "internalType": "string",
          "name": "_name",
          "type": "string"
        },
        {
          "internalType": "address",
          "name": "_depositToken",
          "type": "address"
        },
        {
          "internalType": "address",
          "name": "_poolRewardToken",
          "type": "address"
        },
        {
          "internalType": "address",
          "name": "_swapPairPoolReward",
          "type": "address"
        },
        {
          "internalType": "address",
          "name": "_stakingContract",
          "type": "address"
        },
        {
          "internalType": "uint256",
          "name": "_pid",
          "type": "uint256"
        },
        {
          "internalType": "address",
          "name": "_timelock",
          "type": "address"
        },
        {
          "components": [
            {
              "internalType": "uint256",
              "name": "minTokensToReinvest",
              "type": "uint256"
            },
            {
              "internalType": "uint256",
              "name": "devFeeBips",
              "type": "uint256"
            },
            {
              "internalType": "uint256",
              "name": "reinvestRewardBips",
              "type": "uint256"
            }
          ],
          "internalType": "struct YakStrategyV2.StrategySettings",
          "name": "_strategySettings",
          "type": "tuple"
        }
      ],
      "stateMutability": "nonpayable",
      "type": "constructor"
    },
    {
      "anonymous": false,
      "inputs": [
        {
          "indexed": true,
          "internalType": "address",
          "name": "account",
          "type": "address"
        }
      ],
      "name": "AllowDepositor",
      "type": "event"
    },
    {
      "anonymous": false,
      "inputs": [
        {
          "indexed": true,
          "internalType": "address",
          "name": "owner",
          "type": "address"
        },
        {
          "indexed": true,
          "internalType": "address",
          "name": "spender",
          "type": "address"
        },
        {
          "indexed": false,
          "internalType": "uint256",
          "name": "value",
          "type": "uint256"
        }
      ],
      "name": "Approval",
      "type": "event"
    },
    {
      "anonymous": false,
      "inputs": [
        {
          "indexed": true,
          "internalType": "address",
          "name": "account",
          "type": "address"
        },
        {
          "indexed": false,
          "internalType": "uint256",
          "name": "amount",
          "type": "uint256"
        }
      ],
      "name": "Deposit",
      "type": "event"
    },
    {
      "anonymous": false,
      "inputs": [
        {
          "indexed": false,
          "internalType": "bool",
          "name": "newValue",
          "type": "bool"
        }
      ],
      "name": "DepositsEnabled",
      "type": "event"
    },
    {
      "anonymous": false,
      "inputs": [
        {
          "indexed": true,
          "internalType": "address",
          "name": "previousOwner",
          "type": "address"
        },
        {
          "indexed": true,
          "internalType": "address",
          "name": "newOwner",
          "type": "address"
        }
      ],
      "name": "OwnershipTransferred",
      "type": "event"
    },
    {
      "anonymous": false,
      "inputs": [
        {
          "indexed": false,
          "internalType": "address",
          "name": "token",
          "type": "address"
        },
        {
          "indexed": false,
          "internalType": "uint256",
          "name": "amount",
          "type": "uint256"
        }
      ],
      "name": "Recovered",
      "type": "event"
    },
    {
      "anonymous": false,
      "inputs": [
        {
          "indexed": false,
          "internalType": "uint256",
          "name": "newTotalDeposits",
          "type": "uint256"
        },
        {
          "indexed": false,
          "internalType": "uint256",
          "name": "newTotalSupply",
          "type": "uint256"
        }
      ],
      "name": "Reinvest",
      "type": "event"
    },
    {
      "anonymous": false,
      "inputs": [
        {
          "indexed": true,
          "internalType": "address",
          "name": "account",
          "type": "address"
        }
      ],
      "name": "RemoveDepositor",
      "type": "event"
    },
    {
      "anonymous": false,
      "inputs": [
        {
          "indexed": true,
          "internalType": "address",
          "name": "from",
          "type": "address"
        },
        {
          "indexed": true,
          "internalType": "address",
          "name": "to",
          "type": "address"
        },
        {
          "indexed": false,
          "internalType": "uint256",
          "name": "value",
          "type": "uint256"
        }
      ],
      "name": "Transfer",
      "type": "event"
    },
    {
      "anonymous": false,
      "inputs": [
        {
          "indexed": false,
          "internalType": "uint256",
          "name": "oldValue",
          "type": "uint256"
        },
        {
          "indexed": false,
          "internalType": "uint256",
          "name": "newValue",
          "type": "uint256"
        }
      ],
      "name": "UpdateAdminFee",
      "type": "event"
    },
    {
      "anonymous": false,
      "inputs": [
        {
          "indexed": false,
          "internalType": "address",
          "name": "oldValue",
          "type": "address"
        },
        {
          "indexed": false,
          "internalType": "address",
          "name": "newValue",
          "type": "address"
        }
      ],
      "name": "UpdateDevAddr",
      "type": "event"
    },
    {
      "anonymous": false,
      "inputs": [
        {
          "indexed": false,
          "internalType": "uint256",
          "name": "oldValue",
          "type": "uint256"
        },
        {
          "indexed": false,
          "internalType": "uint256",
          "name": "newValue",
          "type": "uint256"
        }
      ],
      "name": "UpdateDevFee",
      "type": "event"
    },
    {
      "anonymous": false,
      "inputs": [
        {
          "indexed": false,
          "internalType": "uint256",
          "name": "oldValue",
          "type": "uint256"
        },
        {
          "indexed": false,
          "internalType": "uint256",
          "name": "newValue",
          "type": "uint256"
        }
      ],
      "name": "UpdateMaxTokensToDepositWithoutReinvest",
      "type": "event"
    },
    {
      "anonymous": false,
      "inputs": [
        {
          "indexed": false,
          "internalType": "uint256",
          "name": "oldValue",
          "type": "uint256"
        },
        {
          "indexed": false,
          "internalType": "uint256",
          "name": "newValue",
          "type": "uint256"
        }
      ],
      "name": "UpdateMinTokensToReinvest",
      "type": "event"
    },
    {
      "anonymous": false,
      "inputs": [
        {
          "indexed": false,
          "internalType": "uint256",
          "name": "oldValue",
          "type": "uint256"
        },
        {
          "indexed": false,
          "internalType": "uint256",
          "name": "newValue",
          "type": "uint256"
        }
      ],
      "name": "UpdateReinvestReward",
      "type": "event"
    },
    {
      "anonymous": false,
      "inputs": [
        {
          "indexed": true,
          "internalType": "address",
          "name": "account",
          "type": "address"
        },
        {
          "indexed": false,
          "internalType": "uint256",
          "name": "amount",
          "type": "uint256"
        }
      ],
      "name": "Withdraw",
      "type": "event"
    },
    {
      "inputs": [],
      "name": "ADMIN_FEE_BIPS",
      "outputs": [
        {
          "internalType": "uint256",
          "name": "",
          "type": "uint256"
        }
      ],
      "stateMutability": "view",
      "type": "function"
    },
    {
      "inputs": [],
      "name": "DEPOSITS_ENABLED",
      "outputs": [
        {
          "internalType": "bool",
          "name": "",
          "type": "bool"
        }
      ],
      "stateMutability": "view",
      "type": "function"
    },
    {
      "inputs": [],
      "name": "DEV_FEE_BIPS",
      "outputs": [
        {
          "internalType": "uint256",
          "name": "",
          "type": "uint256"
        }
      ],
      "stateMutability": "view",
      "type": "function"
    },
    {
      "inputs": [],
      "name": "DOMAIN_TYPEHASH",
      "outputs": [
        {
          "internalType": "bytes32",
          "name": "",
          "type": "bytes32"
        }
      ],
      "stateMutability": "view",
      "type": "function"
    },
    {
      "inputs": [],
      "name": "MAX_TOKENS_TO_DEPOSIT_WITHOUT_REINVEST",
      "outputs": [
        {
          "internalType": "uint256",
          "name": "",
          "type": "uint256"
        }
      ],
      "stateMutability": "view",
      "type": "function"
    },
    {
      "inputs": [],
      "name": "MIN_TOKENS_TO_REINVEST",
      "outputs": [
        {
          "internalType": "uint256",
          "name": "",
          "type": "uint256"
        }
      ],
      "stateMutability": "view",
      "type": "function"
    },
    {
      "inputs": [],
      "name": "PERMIT_TYPEHASH",
      "outputs": [
        {
          "internalType": "bytes32",
          "name": "",
          "type": "bytes32"
        }
      ],
      "stateMutability": "view",
      "type": "function"
    },
    {
      "inputs": [],
      "name": "PID",
      "outputs": [
        {
          "internalType": "uint256",
          "name": "",
          "type": "uint256"
        }
      ],
      "stateMutability": "view",
      "type": "function"
    },
    {
      "inputs": [],
      "name": "REINVEST_REWARD_BIPS",
      "outputs": [
        {
          "internalType": "uint256",
          "name": "",
          "type": "uint256"
        }
      ],
      "stateMutability": "view",
      "type": "function"
    },
    {
      "inputs": [],
      "name": "VERSION_HASH",
      "outputs": [
        {
          "internalType": "bytes32",
          "name": "",
          "type": "bytes32"
        }
      ],
      "stateMutability": "view",
      "type": "function"
    },
    {
      "inputs": [
        {
          "internalType": "address",
          "name": "depositor",
          "type": "address"
        }
      ],
      "name": "allowDepositor",
      "outputs": [],
      "stateMutability": "nonpayable",
      "type": "function"
    },
    {
      "inputs": [
        {
          "internalType": "address",
          "name": "account",
          "type": "address"
        },
        {
          "internalType": "address",
          "name": "spender",
          "type": "address"
        }
      ],
      "name": "allowance",
      "outputs": [
        {
          "internalType": "uint256",
          "name": "",
          "type": "uint256"
        }
      ],
      "stateMutability": "view",
      "type": "function"
    },
    {
      "inputs": [
        {
          "internalType": "address",
          "name": "",
          "type": "address"
        }
      ],
      "name": "allowedDepositors",
      "outputs": [
        {
          "internalType": "bool",
          "name": "",
          "type": "bool"
        }
      ],
      "stateMutability": "view",
      "type": "function"
    },
    {
      "inputs": [
        {
          "internalType": "address",
          "name": "spender",
          "type": "address"
        },
        {
          "internalType": "uint256",
          "name": "amount",
          "type": "uint256"
        }
      ],
      "name": "approve",
      "outputs": [
        {
          "internalType": "bool",
          "name": "",
          "type": "bool"
        }
      ],
      "stateMutability": "nonpayable",
      "type": "function"
    },
    {
      "inputs": [
        {
          "internalType": "address",
          "name": "account",
          "type": "address"
        }
      ],
      "name": "balanceOf",
      "outputs": [
        {
          "internalType": "uint256",
          "name": "",
          "type": "uint256"
        }
      ],
      "stateMutability": "view",
      "type": "function"
    },
    {
      "inputs": [],
      "name": "checkReward",
      "outputs": [
        {
          "internalType": "uint256",
          "name": "",
          "type": "uint256"
        }
      ],
      "stateMutability": "view",
      "type": "function"
    },
    {
      "inputs": [],
      "name": "decimals",
      "outputs": [
        {
          "internalType": "uint8",
          "name": "",
          "type": "uint8"
        }
      ],
      "stateMutability": "view",
      "type": "function"
    },
    {
      "inputs": [
        {
          "internalType": "uint256",
          "name": "amount",
          "type": "uint256"
        }
      ],
      "name": "deposit",
      "outputs": [],
      "stateMutability": "nonpayable",
      "type": "function"
    },
    {
      "inputs": [
        {
          "internalType": "address",
          "name": "account",
          "type": "address"
        },
        {
          "internalType": "uint256",
          "name": "amount",
          "type": "uint256"
        }
      ],
      "name": "depositFor",
      "outputs": [],
      "stateMutability": "nonpayable",
      "type": "function"
    },
    {
      "inputs": [],
      "name": "depositToken",
      "outputs": [
        {
          "internalType": "contract IERC20",
          "name": "",
          "type": "address"
        }
      ],
      "stateMutability": "view",
      "type": "function"
    },
    {
      "inputs": [
        {
          "internalType": "uint256",
          "name": "amount",
          "type": "uint256"
        },
        {
          "internalType": "uint256",
          "name": "deadline",
          "type": "uint256"
        },
        {
          "internalType": "uint8",
          "name": "v",
          "type": "uint8"
        },
        {
          "internalType": "bytes32",
          "name": "r",
          "type": "bytes32"
        },
        {
          "internalType": "bytes32",
          "name": "s",
          "type": "bytes32"
        }
      ],
      "name": "depositWithPermit",
      "outputs": [],
      "stateMutability": "nonpayable",
      "type": "function"
    },
    {
      "inputs": [],
      "name": "devAddr",
      "outputs": [
        {
          "internalType": "address",
          "name": "",
          "type": "address"
        }
      ],
      "stateMutability": "view",
      "type": "function"
    },
    {
      "inputs": [],
      "name": "estimateDeployedBalance",
      "outputs": [
        {
          "internalType": "uint256",
          "name": "",
          "type": "uint256"
        }
      ],
      "stateMutability": "view",
      "type": "function"
    },
    {
      "inputs": [],
      "name": "estimateReinvestReward",
      "outputs": [
        {
          "internalType": "uint256",
          "name": "",
          "type": "uint256"
        }
      ],
      "stateMutability": "view",
      "type": "function"
    },
    {
      "inputs": [],
      "name": "extraToken",
      "outputs": [
        {
          "internalType": "address",
          "name": "",
          "type": "address"
        }
      ],
      "stateMutability": "view",
      "type": "function"
    },
    {
      "inputs": [
        {
          "internalType": "uint256",
          "name": "amount",
          "type": "uint256"
        }
      ],
      "name": "getDepositTokensForShares",
      "outputs": [
        {
          "internalType": "uint256",
          "name": "",
          "type": "uint256"
        }
      ],
      "stateMutability": "view",
      "type": "function"
    },
    {
      "inputs": [],
      "name": "getDomainSeparator",
      "outputs": [
        {
          "internalType": "bytes32",
          "name": "",
          "type": "bytes32"
        }
      ],
      "stateMutability": "view",
      "type": "function"
    },
    {
      "inputs": [
        {
          "internalType": "uint256",
          "name": "amount",
          "type": "uint256"
        }
      ],
      "name": "getSharesForDepositTokens",
      "outputs": [
        {
          "internalType": "uint256",
          "name": "",
          "type": "uint256"
        }
      ],
      "stateMutability": "view",
      "type": "function"
    },
    {
      "inputs": [],
      "name": "kassandraPool",
      "outputs": [
        {
          "internalType": "contract IKassandraPool",
          "name": "",
          "type": "address"
        }
      ],
      "stateMutability": "view",
      "type": "function"
    },
    {
      "inputs": [],
      "name": "name",
      "outputs": [
        {
          "internalType": "string",
          "name": "",
          "type": "string"
        }
      ],
      "stateMutability": "view",
      "type": "function"
    },
    {
      "inputs": [
        {
          "internalType": "address",
          "name": "",
          "type": "address"
        }
      ],
      "name": "nonces",
      "outputs": [
        {
          "internalType": "uint256",
          "name": "",
          "type": "uint256"
        }
      ],
      "stateMutability": "view",
      "type": "function"
    },
    {
      "inputs": [],
      "name": "numberOfAllowedDepositors",
      "outputs": [
        {
          "internalType": "uint256",
          "name": "",
          "type": "uint256"
        }
      ],
      "stateMutability": "view",
      "type": "function"
    },
    {
      "inputs": [],
      "name": "owner",
      "outputs": [
        {
          "internalType": "address",
          "name": "",
          "type": "address"
        }
      ],
      "stateMutability": "view",
      "type": "function"
    },
    {
      "inputs": [
        {
          "internalType": "address",
          "name": "owner",
          "type": "address"
        },
        {
          "internalType": "address",
          "name": "spender",
          "type": "address"
        },
        {
          "internalType": "uint256",
          "name": "value",
          "type": "uint256"
        },
        {
          "internalType": "uint256",
          "name": "deadline",
          "type": "uint256"
        },
        {
          "internalType": "uint8",
          "name": "v",
          "type": "uint8"
        },
        {
          "internalType": "bytes32",
          "name": "r",
          "type": "bytes32"
        },
        {
          "internalType": "bytes32",
          "name": "s",
          "type": "bytes32"
        }
      ],
      "name": "permit",
      "outputs": [],
      "stateMutability": "nonpayable",
      "type": "function"
    },
    {
      "inputs": [
        {
          "internalType": "uint256",
          "name": "amount",
          "type": "uint256"
        }
      ],
      "name": "recoverAVAX",
      "outputs": [],
      "stateMutability": "nonpayable",
      "type": "function"
    },
    {
      "inputs": [
        {
          "internalType": "address",
          "name": "tokenAddress",
          "type": "address"
        },
        {
          "internalType": "uint256",
          "name": "tokenAmount",
          "type": "uint256"
        }
      ],
      "name": "recoverERC20",
      "outputs": [],
      "stateMutability": "nonpayable",
      "type": "function"
    },
    {
      "inputs": [],
      "name": "reinvest",
      "outputs": [],
      "stateMutability": "nonpayable",
      "type": "function"
    },
    {
      "inputs": [
        {
          "internalType": "address",
          "name": "depositor",
          "type": "address"
        }
      ],
      "name": "removeDepositor",
      "outputs": [],
      "stateMutability": "nonpayable",
      "type": "function"
    },
    {
      "inputs": [],
      "name": "renounceOwnership",
      "outputs": [],
      "stateMutability": "nonpayable",
      "type": "function"
    },
    {
      "inputs": [
        {
          "internalType": "uint256",
          "name": "minReturnAmountAccepted",
          "type": "uint256"
        },
        {
          "internalType": "bool",
          "name": "disableDeposits",
          "type": "bool"
        }
      ],
      "name": "rescueDeployedFunds",
      "outputs": [],
      "stateMutability": "nonpayable",
      "type": "function"
    },
    {
      "inputs": [
        {
          "internalType": "address",
          "name": "token",
          "type": "address"
        },
        {
          "internalType": "address",
          "name": "spender",
          "type": "address"
        }
      ],
      "name": "revokeAllowance",
      "outputs": [],
      "stateMutability": "nonpayable",
      "type": "function"
    },
    {
      "inputs": [],
      "name": "rewardToken",
      "outputs": [
        {
          "internalType": "contract IERC20",
          "name": "",
          "type": "address"
        }
      ],
      "stateMutability": "view",
      "type": "function"
    },
    {
      "inputs": [
        {
          "internalType": "address",
          "name": "_extraTokenSwapPair",
          "type": "address"
        }
      ],
      "name": "setExtraRewardSwapPair",
      "outputs": [],
      "stateMutability": "nonpayable",
      "type": "function"
    },
    {
      "inputs": [],
      "name": "stakingContract",
      "outputs": [
        {
          "internalType": "contract IKassandraStaking",
          "name": "",
          "type": "address"
        }
      ],
      "stateMutability": "view",
      "type": "function"
    },
    {
      "inputs": [],
      "name": "swapPairExtraReward",
      "outputs": [
        {
          "internalType": "address",
          "name": "",
          "type": "address"
        }
      ],
      "stateMutability": "view",
      "type": "function"
    },
    {
      "inputs": [],
      "name": "symbol",
      "outputs": [
        {
          "internalType": "string",
          "name": "",
          "type": "string"
        }
      ],
      "stateMutability": "view",
      "type": "function"
    },
    {
      "inputs": [],
      "name": "totalDeposits",
      "outputs": [
        {
          "internalType": "uint256",
          "name": "",
          "type": "uint256"
        }
      ],
      "stateMutability": "view",
      "type": "function"
    },
    {
      "inputs": [],
      "name": "totalSupply",
      "outputs": [
        {
          "internalType": "uint256",
          "name": "",
          "type": "uint256"
        }
      ],
      "stateMutability": "view",
      "type": "function"
    },
    {
      "inputs": [
        {
          "internalType": "address",
          "name": "dst",
          "type": "address"
        },
        {
          "internalType": "uint256",
          "name": "amount",
          "type": "uint256"
        }
      ],
      "name": "transfer",
      "outputs": [
        {
          "internalType": "bool",
          "name": "",
          "type": "bool"
        }
      ],
      "stateMutability": "nonpayable",
      "type": "function"
    },
    {
      "inputs": [
        {
          "internalType": "address",
          "name": "src",
          "type": "address"
        },
        {
          "internalType": "address",
          "name": "dst",
          "type": "address"
        },
        {
          "internalType": "uint256",
          "name": "amount",
          "type": "uint256"
        }
      ],
      "name": "transferFrom",
      "outputs": [
        {
          "internalType": "bool",
          "name": "",
          "type": "bool"
        }
      ],
      "stateMutability": "nonpayable",
      "type": "function"
    },
    {
      "inputs": [
        {
          "internalType": "address",
          "name": "newOwner",
          "type": "address"
        }
      ],
      "name": "transferOwnership",
      "outputs": [],
      "stateMutability": "nonpayable",
      "type": "function"
    },
    {
      "inputs": [
        {
          "internalType": "uint256",
          "name": "newValue",
          "type": "uint256"
        }
      ],
      "name": "updateAdminFee",
      "outputs": [],
      "stateMutability": "nonpayable",
      "type": "function"
    },
    {
      "inputs": [
        {
          "internalType": "bool",
          "name": "newValue",
          "type": "bool"
        }
      ],
      "name": "updateDepositsEnabled",
      "outputs": [],
      "stateMutability": "nonpayable",
      "type": "function"
    },
    {
      "inputs": [
        {
          "internalType": "address",
          "name": "newValue",
          "type": "address"
        }
      ],
      "name": "updateDevAddr",
      "outputs": [],
      "stateMutability": "nonpayable",
      "type": "function"
    },
    {
      "inputs": [
        {
          "internalType": "uint256",
          "name": "newValue",
          "type": "uint256"
        }
      ],
      "name": "updateDevFee",
      "outputs": [],
      "stateMutability": "nonpayable",
      "type": "function"
    },
    {
      "inputs": [
        {
          "internalType": "uint256",
          "name": "newValue",
          "type": "uint256"
        }
      ],
      "name": "updateMaxTokensToDepositWithoutReinvest",
      "outputs": [],
      "stateMutability": "nonpayable",
      "type": "function"
    },
    {
      "inputs": [
        {
          "internalType": "uint256",
          "name": "newValue",
          "type": "uint256"
        }
      ],
      "name": "updateMinTokensToReinvest",
      "outputs": [],
      "stateMutability": "nonpayable",
      "type": "function"
    },
    {
      "inputs": [
        {
          "internalType": "uint256",
          "name": "newValue",
          "type": "uint256"
        }
      ],
      "name": "updateReinvestReward",
      "outputs": [],
      "stateMutability": "nonpayable",
      "type": "function"
    },
    {
      "inputs": [
        {
          "internalType": "uint256",
          "name": "amount",
          "type": "uint256"
        }
      ],
      "name": "withdraw",
      "outputs": [],
      "stateMutability": "nonpayable",
      "type": "function"
    }
  ],
  "bytecode": {
    "object": "0x60e0604052600960a0819052685969656c642059616b60b81b60c09081526200002c916000919062000aa2565b506040805180820190915260038082526216549560ea1b6020909201918252620000599160019162000aa2565b503480156200006757600080fd5b50604051620048cf380380620048cf8339810160408190526200008a9162000c0d565b878773b31f66aa3c1e785363f0875a1b74e27b85fd66c788886000878988808433600680546001600160a01b0319166001600160a01b03831690811790915560405191925090600090600080516020620048af833981519152908290a3508051620000f5906200022e565b60208101516200010590620002be565b6040810151620001159062000375565b5088516200012b9060009060208c019062000aa2565b50600980546001600160a01b03808b166001600160a01b031992831617909255600a8054928a16928216929092179091556080839052600b8054909116732d580f9cf2fb2d09bc411532988f2afda4e7beff1790556200018d8787876200042c565b620001988462000704565b620001a46001620008e6565b620001af8362000990565b60408051600080825260208201527fc7606d21ac05cd309191543e409f0845c016120563783d70e4f41419dc0ef234910160405180910390a15050601680546001600160a01b039c8d166001600160a01b031991821617909155601780549f909c169e169d909d179099555062000dc89b505050505050505050505050565b6006546001600160a01b031633146200027d5760405162461bcd60e51b815260206004820181905260248201526000805160206200488f83398151915260448201526064015b60405180910390fd5b600c5460408051918252602082018390527f481f79ac3a523b6d6db3c5a720e190e986d1cc1b41adcdf50f9caef849901100910160405180910390a1600c55565b6006546001600160a01b03163314620003095760405162461bcd60e51b815260206004820181905260248201526000805160206200488f833981519152604482015260640162000274565b612710620003286010548362000a8d60201b62001b331790919060201c565b11156200033457600080fd5b60115460408051918252602082018390527f2a42303d002f0ba6cfe8259c91d4684443fb0b3de286ba74991175d651726131910160405180910390a1601155565b6006546001600160a01b03163314620003c05760405162461bcd60e51b815260206004820181905260248201526000805160206200488f833981519152604482015260640162000274565b612710620003df6011548362000a8d60201b62001b331790919060201c565b1115620003eb57600080fd5b60105460408051918252602082018390527fe7f97d51d307dc44045597c9978bec0f842e6bb40d19b9444084cfa30d9ed4f2910160405180910390a1601055565b826001600160a01b0316826001600160a01b031614620006d557806001600160a01b0316630dfe16816040518163ffffffff1660e01b8152600401602060405180830381865afa15801562000485573d6000803e3d6000fd5b505050506040513d601f19601f82011682018060405250810190620004ab919062000d47565b6001600160a01b0316826001600160a01b031603620005a657826001600160a01b0316816001600160a01b031663d21220a76040518163ffffffff1660e01b8152600401602060405180830381865afa1580156200050d573d6000803e3d6000fd5b505050506040513d601f19601f8201168201806040525081019062000533919062000d47565b6001600160a01b031614620005a05760405162461bcd60e51b815260206004820152603f60248201526000805160206200486f83398151915260448201527f6f6573206e6f7420636f6e7461696e2065636f73797374656d20746f6b656e00606482015260840162000274565b620006d5565b806001600160a01b031663d21220a76040518163ffffffff1660e01b8152600401602060405180830381865afa158015620005e5573d6000803e3d6000fd5b505050506040513d601f19601f820116820180604052508101906200060b919062000d47565b6001600160a01b0316826001600160a01b0316036200066d57826001600160a01b0316816001600160a01b0316630dfe16816040518163ffffffff1660e01b8152600401602060405180830381865afa1580156200050d573d6000803e3d6000fd5b60405162461bcd60e51b815260206004820152604160248201526000805160206200486f83398151915260448201527f6f6573206e6f7420636f6e7461696e20706f6f6c2072657761726420746f6b656064820152603760f91b608482015260a40162000274565b601280546001600160a01b039384166001600160a01b0319918216179091556013805492909316911617905550565b6001600160a01b03811615620008c757600a5460408051630dfe168160e01b815290516001600160a01b0392831692841691630dfe16819160048083019260209291908290030181865afa15801562000761573d6000803e3d6000fd5b505050506040513d601f19601f8201168201806040525081019062000787919062000d47565b6001600160a01b0316036200082157806001600160a01b031663d21220a76040518163ffffffff1660e01b8152600401602060405180830381865afa158015620007d5573d6000803e3d6000fd5b505050506040513d601f19601f82011682018060405250810190620007fb919062000d47565b601580546001600160a01b0319166001600160a01b0392909216919091179055620008a7565b806001600160a01b0316630dfe16816040518163ffffffff1660e01b8152600401602060405180830381865afa15801562000860573d6000803e3d6000fd5b505050506040513d601f19601f8201168201806040525081019062000886919062000d47565b601580546001600160a01b0319166001600160a01b03929092169190911790555b601480546001600160a01b0383166001600160a01b031990911617905550565b601480546001600160a01b031990811690915560158054909116905550565b6006546001600160a01b03163314620009315760405162461bcd60e51b815260206004820181905260248201526000805160206200488f833981519152604482015260640162000274565b600e5481151560ff9091161515036200094957600080fd5b600e805460ff19168215159081179091556040519081527f7b014ed3854e7f5cb0218d58b3c6ae7d53a68bb0af2f67bfb029ea42c38a7e859060200160405180910390a150565b6006546001600160a01b03163314620009db5760405162461bcd60e51b815260206004820181905260248201526000805160206200488f833981519152604482015260640162000274565b6001600160a01b03811662000a425760405162461bcd60e51b815260206004820152602660248201527f4f776e61626c653a206e6577206f776e657220697320746865207a65726f206160448201526564647265737360d01b606482015260840162000274565b6006546040516001600160a01b03808416921690600080516020620048af83398151915290600090a3600680546001600160a01b0319166001600160a01b0392909216919091179055565b600062000a9b828462000d65565b9392505050565b82805462000ab09062000d8c565b90600052602060002090601f01602090048101928262000ad4576000855562000b1f565b82601f1062000aef57805160ff191683800117855562000b1f565b8280016001018555821562000b1f579182015b8281111562000b1f57825182559160200191906001019062000b02565b5062000b2d92915062000b31565b5090565b5b8082111562000b2d576000815560010162000b32565b634e487b7160e01b600052604160045260246000fd5b604051601f8201601f191681016001600160401b038111828210171562000b895762000b8962000b48565b604052919050565b80516001600160a01b038116811462000ba957600080fd5b919050565b60006060828403121562000bc157600080fd5b604051606081016001600160401b038111828210171562000be65762000be662000b48565b80604052508091508251815260208301516020820152604083015160408201525092915050565b600080600080600080600080610140898b03121562000c2b57600080fd5b88516001600160401b038082111562000c4357600080fd5b818b0191508b601f83011262000c5857600080fd5b81518181111562000c6d5762000c6d62000b48565b6020915062000c85601f8201601f1916830162000b5e565b8181528d8383860101111562000c9a57600080fd5b60005b8281101562000cba57848101840151828201850152830162000c9d565b8281111562000ccc5760008484840101525b509a5062000cde90508b820162000b91565b9850505062000cf060408a0162000b91565b955062000d0060608a0162000b91565b945062000d1060808a0162000b91565b935060a0890151925062000d2760c08a0162000b91565b915062000d388a60e08b0162000bae565b90509295985092959890939650565b60006020828403121562000d5a57600080fd5b62000a9b8262000b91565b6000821982111562000d8757634e487b7160e01b600052601160045260246000fd5b500190565b600181811c9082168062000da157607f821691505b60208210810362000dc257634e487b7160e01b600052602260045260246000fd5b50919050565b608051613a6162000e0e6000396000818161053001528181610edb015281816114ce01528181611dd501528181612517015281816128510152612aea0152613a616000f3fe608060405234801561001057600080fd5b50600436106103995760003560e01c80638b73e606116101e9578063bd079f551161010f578063dd8ce4d6116100ad578063ee99205c1161007c578063ee99205c14610807578063f2fde38b1461081a578063f7c618c11461082d578063fdb5a03e1461084057600080fd5b8063dd8ce4d6146107c6578063e21ac825146107d9578063eab89a5a146107ec578063ed24911d146107ff57600080fd5b8063cff1b6ef116100e9578063cff1b6ef14610754578063d505accf14610767578063da09c72c1461077a578063dd62ed3e1461078d57600080fd5b8063bd079f5514610730578063c4b24a4614610739578063c89039c51461074157600080fd5b8063a1a4ddeb11610187578063ac0d31ff11610156578063ac0d31ff146106f5578063b52a321f14610708578063b6b55f2514610715578063b9e57b801461072857600080fd5b8063a1a4ddeb146106a9578063a5988230146106bc578063a8ae2b7c146106cf578063a9059cbb146106e257600080fd5b80639291d563116101c35780639291d5631461065457806395d89b411461066757806399729ec11461066f5780639e4e73181461068257600080fd5b80638b73e606146106095780638da5cb5b1461061c578063909ac8f41461064157600080fd5b80634bebd1e7116102ce578063789139bc1161026c578063818372301161023b57806381837230146105c75780638432e894146105da5780638980f11f146105ed5780638aff733d1461060057600080fd5b8063789139bc146105835780637ae267731461058c5780637d8820971461059f5780637ecebe00146105a757600080fd5b80635ea682ea116102a85780635ea682ea146105225780635eaec0e41461052b57806370a0823114610552578063715018a61461057b57600080fd5b80634bebd1e7146104e95780634e77ace5146104fc5780634ebb79161461050f57600080fd5b80632e1a7d4d1161033b578063313ce56711610315578063313ce567146104905780633bdc6e72146104aa578063483c2ef0146104b35780634a970be7146104d657600080fd5b80632e1a7d4d146104415780632f4f21e21461045657806330adf81f1461046957600080fd5b80630f23475d116103775780630f23475d146103f657806318160ddd146103fe57806320606b701461040757806323b872dd1461042e57600080fd5b806306fdde031461039e57806307677111146103bc578063095ea7b3146103d3575b600080fd5b6103a6610848565b6040516103b391906134ab565b60405180910390f35b6103c5600f5481565b6040519081526020016103b3565b6103e66103e13660046134d3565b6108d6565b60405190151581526020016103b3565b6103c56108ed565b6103c560025481565b6103c57f8b73c3c69bb8fe3d512ecc4cf759cc79239f7b179b0ffacaa9a75d522b39400f81565b6103e661043c3660046134ff565b610928565b61045461044f366004613540565b610a0c565b005b6104546104643660046134d3565b610aee565b6103c57f6e71edae12b1b97f4d1f60370fef10105fa2faae0126114a169c64845d6126c981565b610498601281565b60405160ff90911681526020016103b3565b6103c560075481565b6103e66104c1366004613559565b60086020526000908152604090205460ff1681565b6104546104e436600461358c565b610afc565b6104546104f7366004613559565b610b95565b61045461050a3660046135e1565b610c94565b61045461051d366004613540565b610d1d565b6103c560115481565b6103c57f000000000000000000000000000000000000000000000000000000000000000081565b6103c5610560366004613559565b6001600160a01b031660009081526004602052604090205490565b610454610db9565b6103c5600d5481565b61045461059a3660046135fe565b610e2d565b6103c5610ed3565b6103c56105b5366004613559565b60056020526000908152604090205481565b6104546105d5366004613540565b610f00565b6104546105e8366004613559565b610f6b565b6104546105fb3660046134d3565b610fc8565b6103c560105481565b610454610617366004613559565b6110bf565b6006546001600160a01b03165b6040516001600160a01b0390911681526020016103b3565b601454610629906001600160a01b031681565b610454610662366004613559565b611240565b6103a66112fa565b61045461067d366004613540565b611307565b6103c57fc89efdaa54c0f20c7adf612882df0950f5a951637e0307cdcb4c672f298b8bc681565b601554610629906001600160a01b031681565b601754610629906001600160a01b031681565b6104546106dd366004613540565b611395565b6103e66106f03660046134d3565b611423565b610454610703366004613637565b611430565b600e546103e69060ff1681565b610454610723366004613540565b61163e565b6103c5611648565b6103c5600c5481565b6103c5611687565b600954610629906001600160a01b031681565b610454610762366004613540565b61169b565b61045461077536600461365c565b611711565b600b54610629906001600160a01b031681565b6103c561079b3660046135fe565b6001600160a01b03918216600090815260036020908152604080832093909416825291909152205490565b6103c56107d4366004613540565b611816565b6104546107e7366004613540565b611850565b6103c56107fa366004613540565b6118bb565b6103c56118ef565b601654610629906001600160a01b031681565b610454610828366004613559565b61198f565b600a54610629906001600160a01b031681565b610454611a7a565b60008054610855906136ca565b80601f0160208091040260200160405190810160405280929190818152602001828054610881906136ca565b80156108ce5780601f106108a3576101008083540402835291602001916108ce565b820191906000526020600020905b8154815290600101906020018083116108b157829003601f168201915b505050505081565b60006108e3338484611b3f565b5060015b92915050565b6000806108f8610ed3565b90506000806109146127105b61090e8585611c4d565b90611c59565b90506109208382611c65565b935050505090565b6001600160a01b03831660008181526003602090815260408083203380855292528220549192909190821480159061096257506000198114155b156109f357600061098e856040518060600160405280602f81526020016139a8602f9139849190611c71565b6001600160a01b038881166000818152600360209081526040808320948916808452948252918290208590559051848152939450919290917f8c5be1e5ebec7d5bd14f71427d1e84f3dd0314c0f7b2291e5b200ac8c7c3b925910160405180910390a3505b6109fe868686611c9d565b6001925050505b9392505050565b6000610a17826118bb565b905060008111610a6e5760405162461bcd60e51b815260206004820152601e60248201527f4d617374657243686566537472617465677956313a3a7769746864726177000060448201526064015b60405180910390fd5b610a7781611dd0565b600080610a85612710610904565b600954909150610aa8906001600160a01b031633610aa38685611c65565b611dfa565b610ab23385611ed1565b60405183815233907f884edad9ce6fa2440d8a54cc123490eb96d2768479d49ff9c7366125a9424364906020015b60405180910390a250505050565b610af88282611fa7565b5050565b60095460405163d505accf60e01b8152336004820152306024820152604481018790526064810186905260ff8516608482015260a4810184905260c481018390526001600160a01b039091169063d505accf9060e401600060405180830381600087803b158015610b6c57600080fd5b505af1158015610b80573d6000803e3d6000fd5b50505050610b8e3386611fa7565b5050505050565b6006546001600160a01b03163314610bbf5760405162461bcd60e51b8152600401610a6590613704565b6001600160a01b03811660009081526008602052604090205460ff1615610c285760405162461bcd60e51b815260206004820152601c60248201527f5065726d697373696f6e65643a3a616c6c6f774465706f7369746f72000000006044820152606401610a65565b6001600160a01b0381166000908152600860205260409020805460ff19166001908117909155600754610c5a91611b33565b6007556040516001600160a01b038216907fc0a1035c16faf8d1304056d92c00edf028f87e62b8235a938f00af9e3c0312c590600090a250565b6006546001600160a01b03163314610cbe5760405162461bcd60e51b8152600401610a6590613704565b600e5481151560ff909116151503610cd557600080fd5b600e805460ff19168215159081179091556040519081527f7b014ed3854e7f5cb0218d58b3c6ae7d53a68bb0af2f67bfb029ea42c38a7e85906020015b60405180910390a150565b6006546001600160a01b03163314610d475760405162461bcd60e51b8152600401610a6590613704565b60008111610d5457600080fd5b604051339082156108fc029083906000818181858888f19350505050158015610d81573d6000803e3d6000fd5b506040805160008152602081018390527f8c1256b8896378cd5044f80c202f9772b9d77dc85c8a6eb51967210b09bfaa289101610d12565b6006546001600160a01b03163314610de35760405162461bcd60e51b8152600401610a6590613704565b6006546040516000916001600160a01b0316907f8be0079c531659141344cd1fd0a4f28419497f9722a3daafe3b4186f6b6457e0908390a3600680546001600160a01b0319169055565b6006546001600160a01b03163314610e575760405162461bcd60e51b8152600401610a6590613704565b60405163095ea7b360e01b81526001600160a01b0382811660048301526000602483015283169063095ea7b3906044016020604051808303816000875af1158015610ea6573d6000803e3d6000fd5b505050506040513d601f19601f82011682018060405250810190610eca9190613739565b610af857600080fd5b6000806108e77f000000000000000000000000000000000000000000000000000000000000000030612175565b6006546001600160a01b03163314610f2a5760405162461bcd60e51b8152600401610a6590613704565b600c5460408051918252602082018390527f481f79ac3a523b6d6db3c5a720e190e986d1cc1b41adcdf50f9caef849901100910160405180910390a1600c55565b600b546001600160a01b03163314610fbc5760405162461bcd60e51b81526020600482015260146024820152732cb0b5a9ba3930ba32b3bc9d1d37b7363ca232bb60611b6044820152606401610a65565b610fc5816121eb565b50565b6006546001600160a01b03163314610ff25760405162461bcd60e51b8152600401610a6590613704565b60008111610fff57600080fd5b60405163a9059cbb60e01b8152336004820152602481018290526001600160a01b0383169063a9059cbb906044016020604051808303816000875af115801561104c573d6000803e3d6000fd5b505050506040513d601f19601f820116820180604052508101906110709190613739565b61107957600080fd5b604080516001600160a01b0384168152602081018390527f8c1256b8896378cd5044f80c202f9772b9d77dc85c8a6eb51967210b09bfaa28910160405180910390a15050565b6006546001600160a01b031633146110e95760405162461bcd60e51b8152600401610a6590613704565b6000600754116111585760405162461bcd60e51b815260206004820152603460248201527f5065726d697373696f6e65643a3a72656d6f76654465706f7369746f722c206e6044820152736f20616c6c6f776564206465706f7369746f727360601b6064820152608401610a65565b6001600160a01b03811660009081526008602052604090205460ff1615156001146111d85760405162461bcd60e51b815260206004820152602a60248201527f5065726d697373696f6e65643a3a72656d6f76654465706f7369746f722c206e6044820152691bdd08185b1b1bddd95960b21b6064820152608401610a65565b6001600160a01b0381166000908152600860205260409020805460ff19169055600754611206906001611c65565b6007556040516001600160a01b038216907f0e86f6608b536e5339a25b65ff531f5ea91e1313d056ecd4752b35cbd16137d490600090a250565b600b546001600160a01b031633146112915760405162461bcd60e51b81526020600482015260146024820152732cb0b5a9ba3930ba32b3bc9d1d37b7363ca232bb60611b6044820152606401610a65565b600b54604080516001600160a01b03928316815291831660208301527fa8e91499ed37682f43cffb045fcc7d379a91e8c9a14e6321877ee34dee564c00910160405180910390a1600b80546001600160a01b0319166001600160a01b0392909216919091179055565b60018054610855906136ca565b6006546001600160a01b031633146113315760405162461bcd60e51b8152600401610a6590613704565b61271061134960105483611b3390919063ffffffff16565b111561135457600080fd5b60115460408051918252602082018390527f2a42303d002f0ba6cfe8259c91d4684443fb0b3de286ba74991175d651726131910160405180910390a1601155565b6006546001600160a01b031633146113bf5760405162461bcd60e51b8152600401610a6590613704565b6127106113d760115483611b3390919063ffffffff16565b11156113e257600080fd5b60105460408051918252602082018390527fe7f97d51d307dc44045597c9978bec0f842e6bb40d19b9444084cfa30d9ed4f2910160405180910390a1601055565b60006108e3338484611c9d565b6006546001600160a01b0316331461145a5760405162461bcd60e51b8152600401610a6590613704565b6009546040516370a0823160e01b81523060048201526000916001600160a01b0316906370a0823190602401602060405180830381865afa1580156114a3573d6000803e3d6000fd5b505050506040513d601f19601f820116820180604052508101906114c79190613756565b90506114f27f00000000000000000000000000000000000000000000000000000000000000006123c1565b6009546040516370a0823160e01b81523060048201526000916001600160a01b0316906370a0823190602401602060405180830381865afa15801561153b573d6000803e3d6000fd5b505050506040513d601f19601f8201168201806040525081019061155f9190613756565b90508361156c8284611c65565b10156115cc5760405162461bcd60e51b815260206004820152602960248201527f4d617374657243686566537472617465677956313a3a7265736375654465706c6044820152686f79656446756e647360b81b6064820152608401610a65565b7fc7606d21ac05cd309191543e409f0845c016120563783d70e4f41419dc0ef2346115f5610ed3565b6002546040805192835260208301919091520160405180910390a1600e5460ff161515600114801561162957506001831515145b15611638576116386000610c94565b50505050565b610fc53382611fa7565b600080611653611687565b9050600c54811061167f5761167961271061090e60105484611c4d90919063ffffffff16565b91505090565b600091505090565b600080611692612496565b95945050505050565b6006546001600160a01b031633146116c55760405162461bcd60e51b8152600401610a6590613704565b80156116d057600080fd5b600f5460408051918252602082018390527f3cc372f330f95ac9540626dc8a25f5bf21ba607215a5d58304cb804d446f104a910160405180910390a1600f55565b428410156117535760405162461bcd60e51b815260206004820152600f60248201526e1c195c9b5a5d0e8e995e1c1a5c9959608a1b6044820152606401610a65565b6001600160a01b038716600090815260056020526040812080547f6e71edae12b1b97f4d1f60370fef10105fa2faae0126114a169c64845d6126c9918a918a918a9190866117a083613785565b909155506040805160208101969096526001600160a01b0394851690860152929091166060840152608083015260a082015260c0810186905260e0016040516020818303038152906040528051906020012090506118018882868686612720565b61180c888888611b3f565b5050505050505050565b600061182c611823610ed3565b60025490611c4d565b600003611837575090565b6108e7611842610ed3565b60025461090e908590611c4d565b6006546001600160a01b0316331461187a5760405162461bcd60e51b8152600401610a6590613704565b600d5460408051918252602082018390527fa5dae50539d56dfe1fb5273d883b0c39bc76750a25d036fc5fbd09ad8fd5f57f910160405180910390a1600d55565b60006118c8611823610ed3565b6000036118d757506000919050565b6108e760025461090e6118e8610ed3565b8590611c4d565b60007f8b73c3c69bb8fe3d512ecc4cf759cc79239f7b179b0ffacaa9a75d522b39400f60001b6000604051611924919061379e565b6040519081900390207fc89efdaa54c0f20c7adf612882df0950f5a951637e0307cdcb4c672f298b8bc646604080516020810195909552840192909252606083015260808201523060a082015260c00160405160208183030381529060405280519060200120905090565b6006546001600160a01b031633146119b95760405162461bcd60e51b8152600401610a6590613704565b6001600160a01b038116611a1e5760405162461bcd60e51b815260206004820152602660248201527f4f776e61626c653a206e6577206f776e657220697320746865207a65726f206160448201526564647265737360d01b6064820152608401610a65565b6006546040516001600160a01b038084169216907f8be0079c531659141344cd1fd0a4f28419497f9722a3daafe3b4186f6b6457e090600090a3600680546001600160a01b0319166001600160a01b0392909216919091179055565b323314611ac05760405162461bcd60e51b815260206004820152601460248201527359616b53747261746567793a3a6f6e6c79454f4160601b6044820152606401610a65565b600080600080611ace612496565b9350935093509350600c54811015611b285760405162461bcd60e51b815260206004820152601e60248201527f4d617374657243686566537472617465677956313a3a7265696e7665737400006044820152606401610a65565b61163882858561284c565b6000610a058284613839565b6001600160a01b038316611b955760405162461bcd60e51b815260206004820152601c60248201527f5f617070726f76653a3a6f776e6572207a65726f2061646472657373000000006044820152606401610a65565b6001600160a01b038216611beb5760405162461bcd60e51b815260206004820152601e60248201527f5f617070726f76653a3a7370656e646572207a65726f206164647265737300006044820152606401610a65565b6001600160a01b0383811660008181526003602090815260408083209487168084529482529182902085905590518481527f8c5be1e5ebec7d5bd14f71427d1e84f3dd0314c0f7b2291e5b200ac8c7c3b92591015b60405180910390a3505050565b6000610a058284613851565b6000610a058284613870565b6000610a058284613892565b60008184841115611c955760405162461bcd60e51b8152600401610a6591906134ab565b505050900390565b6001600160a01b038216611d105760405162461bcd60e51b815260206004820152603460248201527f5f7472616e73666572546f6b656e733a2063616e6e6f74207472616e7366657260448201527320746f20746865207a65726f206164647265737360601b6064820152608401610a65565b611d4d816040518060600160405280602e81526020016139fe602e91396001600160a01b0386166000908152600460205260409020549190611c71565b6001600160a01b038085166000908152600460205260408082209390935590841681522054611d7c9082611b33565b6001600160a01b0380841660008181526004602052604090819020939093559151908516907fddf252ad1be2c89b69c2b068fc378daa952ba7f163c4a11628f55a4df523b3ef90611c409085815260200190565b610fc57f000000000000000000000000000000000000000000000000000000000000000082612995565b60405163a9059cbb60e01b81526001600160a01b0383811660048301526024820183905284169063a9059cbb906044016020604051808303816000875af1158015611e49573d6000803e3d6000fd5b505050506040513d601f19601f82011682018060405250810190611e6d9190613739565b611ecc5760405162461bcd60e51b815260206004820152602a60248201527f4d617374657243686566537472617465677956313a3a5452414e534645525f466044820152691493d357d1905253115160b21b6064820152608401610a65565b505050565b611f0e816040518060600160405280602781526020016139d7602791396001600160a01b0385166000908152600460205260409020549190611c71565b60046000846001600160a01b03166001600160a01b0316815260200190815260200160002081905550611f5e81604051806060016040528060278152602001613981602791396002549190611c71565b6002556040518181526000906001600160a01b038416907fddf252ad1be2c89b69c2b068fc378daa952ba7f163c4a11628f55a4df523b3ef906020015b60405180910390a35050565b600e5460ff161515600114611ffe5760405162461bcd60e51b815260206004820152601e60248201527f4d617374657243686566537472617465677956313a3a5f6465706f73697400006044820152606401610a65565b600d541561203657600080600080612014612496565b9350935093509350600d548111156120315761203182858561284c565b505050505b6009546040516323b872dd60e01b8152336004820152306024820152604481018390526001600160a01b03909116906323b872dd906064016020604051808303816000875af115801561208d573d6000803e3d6000fd5b505050506040513d601f19601f820116820180604052508101906120b19190613739565b61210b5760405162461bcd60e51b815260206004820152602560248201527f4d617374657243686566537472617465677956313a3a7472616e736665722066604482015264185a5b195960da1b6064820152608401610a65565b600080612119612710610904565b90506121318461212c6107d48685611c65565b6129ff565b61213a83612a83565b836001600160a01b03167fe1fffcc4923d04b559f4d29a8bfc6cda04eb5b0d3c460751c2402c5c5cc9109c84604051610ae091815260200190565b601654604051631b2b776160e11b8152600481018490526001600160a01b0383811660248301526000921690633656eec290604401602060405180830381865afa1580156121c7573d6000803e3d6000fd5b505050506040513d601f19601f82011682018060405250810190610a059190613756565b6001600160a01b038116156123a257600a5460408051630dfe168160e01b815290516001600160a01b0392831692841691630dfe16819160048083019260209291908290030181865afa158015612246573d6000803e3d6000fd5b505050506040513d601f19601f8201168201806040525081019061226a91906138a9565b6001600160a01b0316036122ff57806001600160a01b031663d21220a76040518163ffffffff1660e01b8152600401602060405180830381865afa1580156122b6573d6000803e3d6000fd5b505050506040513d601f19601f820116820180604052508101906122da91906138a9565b601580546001600160a01b0319166001600160a01b0392909216919091179055612382565b806001600160a01b0316630dfe16816040518163ffffffff1660e01b8152600401602060405180830381865afa15801561233d573d6000803e3d6000fd5b505050506040513d601f19601f8201168201806040525081019061236191906138a9565b601580546001600160a01b0319166001600160a01b03929092169190911790555b601480546001600160a01b0383166001600160a01b031990911617905550565b601480546001600160a01b031990811690915560158054909116905550565b60095460165460405163095ea7b360e01b81526001600160a01b0391821660048201526000602482015291169063095ea7b3906044016020604051808303816000875af1158015612416573d6000803e3d6000fd5b505050506040513d601f19601f8201168201806040525081019061243a9190613739565b50601654604051637f8661a160e01b8152600481018390526001600160a01b0390911690637f8661a1906024015b600060405180830381600087803b15801561248257600080fd5b505af1158015610b8e573d6000803e3d6000fd5b6012546040516370a0823160e01b815230600482015260009182918291829182916001600160a01b0316906370a0823190602401602060405180830381865afa1580156124e7573d6000803e3d6000fd5b505050506040513d601f19601f8201168201806040525081019061250b9190613756565b9050600080600061253c7f000000000000000000000000000000000000000000000000000000000000000030612b0f565b91945092509050600061254f8585611b33565b600a546012549192506000916001600160a01b039182169116036125735784612598565b601254600a546013546125989285926001600160a01b03918216929082169116612b9a565b905060006001600160a01b038416156126835773b31f66aa3c1e785363f0875a1b74e27b85fd66c6196001600160a01b038516016125d7575083612683565b6014546001600160a01b031615612683576015546040516370a0823160e01b815230600482015261265d916001600160a01b0316906370a0823190602401602060405180830381865afa158015612632573d6000803e3d6000fd5b505050506040513d601f19601f820116820180604052508101906126569190613756565b8690611b33565b600a5460145491965061268091879187916001600160a01b039182169116612b9a565b90505b600a546040516370a0823160e01b81523060048201526000916126fc9184916001600160a01b0316906370a0823190602401602060405180830381865afa1580156126d2573d6000803e3d6000fd5b505050506040513d601f19601f820116820180604052508101906126f69190613756565b90611b33565b9050600061270a8285611b33565b949d969c50909a50929850939650505050505050565b600061272a6118ef565b60405161190160f01b602082015260228101919091526042810186905260620160408051601f198184030181528282528051602091820120600080855291840180845281905260ff88169284019290925260608301869052608083018590529092509060019060a0016020604051602081039080840390855afa1580156127b5573d6000803e3d6000fd5b5050604051601f1901519150506001600160a01b038116158015906127eb5750866001600160a01b0316816001600160a01b0316145b6128435760405162461bcd60e51b8152602060048201526024808201527f417263683a3a76616c69646174655369673a20696e76616c6964207369676e616044820152637475726560e01b6064820152608401610a65565b50505050505050565b6128757f0000000000000000000000000000000000000000000000000000000000000000612c58565b600061288a61288384612c89565b8590611b33565b90506128a06128998584612ccd565b8290611b33565b5060006128be61271061090e60115485611c4d90919063ffffffff16565b905080156128e357600a54600b546128e3916001600160a01b03908116911683611dfa565b600061290061271061090e60105486611c4d90919063ffffffff16565b9050801561291f57600a5461291f906001600160a01b03163383611dfa565b600061293d612938836129328787611c65565b90611c65565b612e0c565b905061294881612a83565b7fc7606d21ac05cd309191543e409f0845c016120563783d70e4f41419dc0ef234612971610ed3565b6002546040805192835260208301919091520160405180910390a150505050505050565b601654604051630441a3e760e41b815260048101849052602481018390526001600160a01b039091169063441a3e70906044015b600060405180830381600087803b1580156129e357600080fd5b505af11580156129f7573d6000803e3d6000fd5b505050505050565b600254612a0c9082611b33565b6002556001600160a01b038216600090815260046020526040902054612a329082611b33565b6001600160a01b0383166000818152600460205260408082209390935591519091907fddf252ad1be2c89b69c2b068fc378daa952ba7f163c4a11628f55a4df523b3ef90611f9b9085815260200190565b60008111612ae55760405162461bcd60e51b815260206004820152602960248201527f4d617374657243686566537472617465677956313a3a5f7374616b654465706f604482015268736974546f6b656e7360b81b6064820152608401610a65565b610fc57f000000000000000000000000000000000000000000000000000000000000000082612f29565b6016546040516338e7023f60e21b8152600481018490526001600160a01b038381166024830152600092839283928392169063e39c08fc90604401602060405180830381865afa158015612b67573d6000803e3d6000fd5b505050506040513d601f19601f82011682018060405250810190612b8b9190613756565b96600096508695509350505050565b600080612ba78585612fe8565b509050600080846001600160a01b0316630902f1ac6040518163ffffffff1660e01b8152600401606060405180830381865afa158015612beb573d6000803e3d6000fd5b505050506040513d601f19601f82011682018060405250810190612c0f91906138dd565b5091509150866001600160a01b0316836001600160a01b031614612c2f57905b612c4c88836001600160701b0316836001600160701b0316613019565b98975050505050505050565b601654604051631c4b774b60e01b8152600481018390526001600160a01b0390911690631c4b774b90602401612468565b601254600a546000916001600160a01b03908116911603612ca8575090565b601254600a546013546108e79285926001600160a01b03918216929082169116613061565b60008115612e03576014546001600160a01b031615612d1257601554600a54601454612d0b9285926001600160a01b03918216929082169116613061565b90506108e7565b478015612d825773b31f66aa3c1e785363f0875a1b74e27b85fd66c76001600160a01b031663d0e30db0826040518263ffffffff1660e01b81526004016000604051808303818588803b158015612d6857600080fd5b505af1158015612d7c573d6000803e3d6000fd5b50505050505b6040516370a0823160e01b8152306004820152612dfb90859073b31f66aa3c1e785363f0875a1b74e27b85fd66c7906370a0823190602401602060405180830381865afa158015612dd7573d6000803e3d6000fd5b505050506040513d601f19601f820116820180604052508101906129329190613756565b9150506108e7565b50600092915050565b60175460405163095ea7b360e01b81526001600160a01b0390911660048201526024810182905260009073b31f66aa3c1e785363f0875a1b74e27b85fd66c79063095ea7b3906044016020604051808303816000875af1158015612e74573d6000803e3d6000fd5b505050506040513d601f19601f82011682018060405250810190612e989190613739565b50601754604051635db3427760e01b815273b31f66aa3c1e785363f0875a1b74e27b85fd66c7600482015260248101849052600060448201526001600160a01b0390911690635db34277906064016020604051808303816000875af1158015612f05573d6000803e3d6000fd5b505050506040513d601f19601f820116820180604052508101906108e79190613756565b60095460165460405163095ea7b360e01b81526001600160a01b0391821660048201526024810184905291169063095ea7b3906044016020604051808303816000875af1158015612f7e573d6000803e3d6000fd5b505050506040513d601f19601f82011682018060405250810190612fa29190613739565b506016546040516340809acd60e01b81526004810184905260248101839052306044820181905260648201526001600160a01b03909116906340809acd906084016129c9565b600080826001600160a01b0316846001600160a01b03161061300b57828461300e565b83835b915091509250929050565b600080613028856103e5611c4d565b905060006130368285611c4d565b9050600061304a836126f6886103e8611c4d565b90506130568282611c59565b979650505050505050565b60008061306e8585612fe8565b509050600080846001600160a01b0316630902f1ac6040518163ffffffff1660e01b8152600401606060405180830381865afa1580156130b2573d6000803e3d6000fd5b505050506040513d601f19601f820116820180604052508101906130d691906138dd565b5091509150866001600160a01b0316836001600160a01b0316146130f657905b6000806131168a856001600160701b0316856001600160701b0316613019565b9050886001600160a01b0316856001600160a01b03161461313357905b6131476001600160a01b038a16888c6131d5565b6040805160008152602081019182905263022c0d9f60e01b9091526001600160a01b0388169063022c0d9f90613186908590859030906024810161392d565b600060405180830381600087803b1580156131a057600080fd5b505af11580156131b4573d6000803e3d6000fd5b505050508181116131c557816131c7565b805b9a9950505050505050505050565b604080516001600160a01b03848116602483015260448083018590528351808403909101815260649092018352602080830180516001600160e01b031663a9059cbb60e01b17905283518085019094528084527f5361666545524332303a206c6f772d6c6576656c2063616c6c206661696c656490840152611ecc928692916000916132659185169084906132e2565b805190915015611ecc57808060200190518101906132839190613739565b611ecc5760405162461bcd60e51b815260206004820152602a60248201527f5361666545524332303a204552433230206f7065726174696f6e20646964206e6044820152691bdd081cdd58d8d9595960b21b6064820152608401610a65565b60606132f184846000856132f9565b949350505050565b60608247101561335a5760405162461bcd60e51b815260206004820152602660248201527f416464726573733a20696e73756666696369656e742062616c616e636520666f6044820152651c8818d85b1b60d21b6064820152608401610a65565b6001600160a01b0385163b6133b15760405162461bcd60e51b815260206004820152601d60248201527f416464726573733a2063616c6c20746f206e6f6e2d636f6e74726163740000006044820152606401610a65565b600080866001600160a01b031685876040516133cd9190613964565b60006040518083038185875af1925050503d806000811461340a576040519150601f19603f3d011682016040523d82523d6000602084013e61340f565b606091505b509150915061305682828660608315613429575081610a05565b8251156134395782518084602001fd5b8160405162461bcd60e51b8152600401610a6591906134ab565b60005b8381101561346e578181015183820152602001613456565b838111156116385750506000910152565b60008151808452613497816020860160208601613453565b601f01601f19169290920160200192915050565b602081526000610a05602083018461347f565b6001600160a01b0381168114610fc557600080fd5b600080604083850312156134e657600080fd5b82356134f1816134be565b946020939093013593505050565b60008060006060848603121561351457600080fd5b833561351f816134be565b9250602084013561352f816134be565b929592945050506040919091013590565b60006020828403121561355257600080fd5b5035919050565b60006020828403121561356b57600080fd5b8135610a05816134be565b803560ff8116811461358757600080fd5b919050565b600080600080600060a086880312156135a457600080fd5b85359450602086013593506135bb60408701613576565b94979396509394606081013594506080013592915050565b8015158114610fc557600080fd5b6000602082840312156135f357600080fd5b8135610a05816135d3565b6000806040838503121561361157600080fd5b823561361c816134be565b9150602083013561362c816134be565b809150509250929050565b6000806040838503121561364a57600080fd5b82359150602083013561362c816135d3565b600080600080600080600060e0888a03121561367757600080fd5b8735613682816134be565b96506020880135613692816134be565b955060408801359450606088013593506136ae60808901613576565b925060a0880135915060c0880135905092959891949750929550565b600181811c908216806136de57607f821691505b6020821081036136fe57634e487b7160e01b600052602260045260246000fd5b50919050565b6020808252818101527f4f776e61626c653a2063616c6c6572206973206e6f7420746865206f776e6572604082015260600190565b60006020828403121561374b57600080fd5b8151610a05816135d3565b60006020828403121561376857600080fd5b5051919050565b634e487b7160e01b600052601160045260246000fd5b6000600182016137975761379761376f565b5060010190565b600080835481600182811c9150808316806137ba57607f831692505b602080841082036137d957634e487b7160e01b86526022600452602486fd5b8180156137ed57600181146137fe5761382b565b60ff1986168952848901965061382b565b60008a81526020902060005b868110156138235781548b82015290850190830161380a565b505084890196505b509498975050505050505050565b6000821982111561384c5761384c61376f565b500190565b600081600019048311821515161561386b5761386b61376f565b500290565b60008261388d57634e487b7160e01b600052601260045260246000fd5b500490565b6000828210156138a4576138a461376f565b500390565b6000602082840312156138bb57600080fd5b8151610a05816134be565b80516001600160701b038116811461358757600080fd5b6000806000606084860312156138f257600080fd5b6138fb846138c6565b9250613909602085016138c6565b9150604084015163ffffffff8116811461392257600080fd5b809150509250925092565b84815283602082015260018060a01b038316604082015260806060820152600061395a608083018461347f565b9695505050505050565b60008251613976818460208701613453565b919091019291505056fe5f6275726e3a206275726e20616d6f756e74206578636565647320746f74616c20737570706c797472616e7366657246726f6d3a207472616e7366657220616d6f756e74206578636565647320616c6c6f77616e63655f6275726e3a206275726e20616d6f756e7420657863656564732066726f6d2062616c616e63655f7472616e73666572546f6b656e733a207472616e7366657220657863656564732066726f6d2062616c616e6365a26469706673582212209d29e9f312190ea1893fe9d681fc3804d27720bdd4f695c1aae138dda38264de64736f6c634300080d003353776170207061697220277377617050616972506f6f6c5265776172642720644f776e61626c653a2063616c6c6572206973206e6f7420746865206f776e65728be0079c531659141344cd1fd0a4f28419497f9722a3daafe3b4186f6b6457e0",
    "linkReferences": {}
  },
  "methodIdentifiers": {
    "ADMIN_FEE_BIPS()": "07677111",
    "DEPOSITS_ENABLED()": "b52a321f",
    "DEV_FEE_BIPS()": "5ea682ea",
    "DOMAIN_TYPEHASH()": "20606b70",
    "MAX_TOKENS_TO_DEPOSIT_WITHOUT_REINVEST()": "789139bc",
    "MIN_TOKENS_TO_REINVEST()": "bd079f55",
    "PERMIT_TYPEHASH()": "30adf81f",
    "PID()": "5eaec0e4",
    "REINVEST_REWARD_BIPS()": "8aff733d",
    "VERSION_HASH()": "9e4e7318",
    "allowDepositor(address)": "4bebd1e7",
    "allowance(address,address)": "dd62ed3e",
    "allowedDepositors(address)": "483c2ef0",
    "approve(address,uint256)": "095ea7b3",
    "balanceOf(address)": "70a08231",
    "checkReward()": "c4b24a46",
    "decimals()": "313ce567",
    "deposit(uint256)": "b6b55f25",
    "depositFor(address,uint256)": "2f4f21e2",
    "depositToken()": "c89039c5",
    "depositWithPermit(uint256,uint256,uint8,bytes32,bytes32)": "4a970be7",
    "devAddr()": "da09c72c",
    "estimateDeployedBalance()": "0f23475d",
    "estimateReinvestReward()": "b9e57b80",
    "extraToken()": "a1a4ddeb",
    "getDepositTokensForShares(uint256)": "eab89a5a",
    "getDomainSeparator()": "ed24911d",
    "getSharesForDepositTokens(uint256)": "dd8ce4d6",
    "kassandraPool()": "a5988230",
    "name()": "06fdde03",
    "nonces(address)": "7ecebe00",
    "numberOfAllowedDepositors()": "3bdc6e72",
    "owner()": "8da5cb5b",
    "permit(address,address,uint256,uint256,uint8,bytes32,bytes32)": "d505accf",
    "recoverAVAX(uint256)": "4ebb7916",
    "recoverERC20(address,uint256)": "8980f11f",
    "reinvest()": "fdb5a03e",
    "removeDepositor(address)": "8b73e606",
    "renounceOwnership()": "715018a6",
    "rescueDeployedFunds(uint256,bool)": "ac0d31ff",
    "revokeAllowance(address,address)": "7ae26773",
    "rewardToken()": "f7c618c1",
    "setExtraRewardSwapPair(address)": "8432e894",
    "stakingContract()": "ee99205c",
    "swapPairExtraReward()": "909ac8f4",
    "symbol()": "95d89b41",
    "totalDeposits()": "7d882097",
    "totalSupply()": "18160ddd",
    "transfer(address,uint256)": "a9059cbb",
    "transferFrom(address,address,uint256)": "23b872dd",
    "transferOwnership(address)": "f2fde38b",
    "updateAdminFee(uint256)": "cff1b6ef",
    "updateDepositsEnabled(bool)": "4e77ace5",
    "updateDevAddr(address)": "9291d563",
    "updateDevFee(uint256)": "99729ec1",
    "updateMaxTokensToDepositWithoutReinvest(uint256)": "e21ac825",
    "updateMinTokensToReinvest(uint256)": "81837230",
    "updateReinvestReward(uint256)": "a8ae2b7c",
    "withdraw(uint256)": "2e1a7d4d"
  },
  "id": 102
}