{
  "abi": [
    {
      "inputs": [
        {
          "internalType": "string",
          "name": "_name",
          "type": "string"
        },
        {
          "internalType": "address",
          "name": "_depositToken",
          "type": "address"
        },
        {
          "internalType": "address",
          "name": "_rewardController",
          "type": "address"
        },
        {
          "internalType": "address",
          "name": "_tokenDelegator",
          "type": "address"
        },
        {
          "internalType": "address",
          "name": "_rewardToken0",
          "type": "address"
        },
        {
          "internalType": "address",
          "name": "_rewardToken1",
          "type": "address"
        },
        {
          "internalType": "address",
          "name": "_swapPairToken0",
          "type": "address"
        },
        {
          "internalType": "address",
          "name": "_swapPairToken1",
          "type": "address"
        },
        {
          "internalType": "address",
          "name": "_timelock",
          "type": "address"
        },
        {
          "components": [
            {
              "internalType": "uint256",
              "name": "leverageLevel",
              "type": "uint256"
            },
            {
              "internalType": "uint256",
              "name": "leverageBips",
              "type": "uint256"
            },
            {
              "internalType": "uint256",
              "name": "minMinting",
              "type": "uint256"
            }
          ],
          "internalType": "struct JoeLendingStrategyV3.LeverageSettings",
          "name": "_leverageSettings",
          "type": "tuple"
        },
        {
          "components": [
            {
              "internalType": "uint256",
              "name": "minTokensToReinvest",
              "type": "uint256"
            },
            {
              "internalType": "uint256",
              "name": "devFeeBips",
              "type": "uint256"
            },
            {
              "internalType": "uint256",
              "name": "reinvestRewardBips",
              "type": "uint256"
            }
          ],
          "internalType": "struct YakStrategyV2.StrategySettings",
          "name": "_strategySettings",
          "type": "tuple"
        }
      ],
      "stateMutability": "nonpayable",
      "type": "constructor"
    },
    {
      "anonymous": false,
      "inputs": [
        {
          "indexed": true,
          "internalType": "address",
          "name": "account",
          "type": "address"
        }
      ],
      "name": "AllowDepositor",
      "type": "event"
    },
    {
      "anonymous": false,
      "inputs": [
        {
          "indexed": true,
          "internalType": "address",
          "name": "owner",
          "type": "address"
        },
        {
          "indexed": true,
          "internalType": "address",
          "name": "spender",
          "type": "address"
        },
        {
          "indexed": false,
          "internalType": "uint256",
          "name": "value",
          "type": "uint256"
        }
      ],
      "name": "Approval",
      "type": "event"
    },
    {
      "anonymous": false,
      "inputs": [
        {
          "indexed": true,
          "internalType": "address",
          "name": "account",
          "type": "address"
        },
        {
          "indexed": false,
          "internalType": "uint256",
          "name": "amount",
          "type": "uint256"
        }
      ],
      "name": "Deposit",
      "type": "event"
    },
    {
      "anonymous": false,
      "inputs": [
        {
          "indexed": false,
          "internalType": "bool",
          "name": "newValue",
          "type": "bool"
        }
      ],
      "name": "DepositsEnabled",
      "type": "event"
    },
    {
      "anonymous": false,
      "inputs": [
        {
          "indexed": true,
          "internalType": "address",
          "name": "previousOwner",
          "type": "address"
        },
        {
          "indexed": true,
          "internalType": "address",
          "name": "newOwner",
          "type": "address"
        }
      ],
      "name": "OwnershipTransferred",
      "type": "event"
    },
    {
      "anonymous": false,
      "inputs": [
        {
          "indexed": false,
          "internalType": "address",
          "name": "token",
          "type": "address"
        },
        {
          "indexed": false,
          "internalType": "uint256",
          "name": "amount",
          "type": "uint256"
        }
      ],
      "name": "Recovered",
      "type": "event"
    },
    {
      "anonymous": false,
      "inputs": [
        {
          "indexed": false,
          "internalType": "uint256",
          "name": "newTotalDeposits",
          "type": "uint256"
        },
        {
          "indexed": false,
          "internalType": "uint256",
          "name": "newTotalSupply",
          "type": "uint256"
        }
      ],
      "name": "Reinvest",
      "type": "event"
    },
    {
      "anonymous": false,
      "inputs": [
        {
          "indexed": true,
          "internalType": "address",
          "name": "account",
          "type": "address"
        }
      ],
      "name": "RemoveDepositor",
      "type": "event"
    },
    {
      "anonymous": false,
      "inputs": [
        {
          "indexed": true,
          "internalType": "address",
          "name": "from",
          "type": "address"
        },
        {
          "indexed": true,
          "internalType": "address",
          "name": "to",
          "type": "address"
        },
        {
          "indexed": false,
          "internalType": "uint256",
          "name": "value",
          "type": "uint256"
        }
      ],
      "name": "Transfer",
      "type": "event"
    },
    {
      "anonymous": false,
      "inputs": [
        {
          "indexed": false,
          "internalType": "uint256",
          "name": "oldValue",
          "type": "uint256"
        },
        {
          "indexed": false,
          "internalType": "uint256",
          "name": "newValue",
          "type": "uint256"
        }
      ],
      "name": "UpdateAdminFee",
      "type": "event"
    },
    {
      "anonymous": false,
      "inputs": [
        {
          "indexed": false,
          "internalType": "address",
          "name": "oldValue",
          "type": "address"
        },
        {
          "indexed": false,
          "internalType": "address",
          "name": "newValue",
          "type": "address"
        }
      ],
      "name": "UpdateDevAddr",
      "type": "event"
    },
    {
      "anonymous": false,
      "inputs": [
        {
          "indexed": false,
          "internalType": "uint256",
          "name": "oldValue",
          "type": "uint256"
        },
        {
          "indexed": false,
          "internalType": "uint256",
          "name": "newValue",
          "type": "uint256"
        }
      ],
      "name": "UpdateDevFee",
      "type": "event"
    },
    {
      "anonymous": false,
      "inputs": [
        {
          "indexed": false,
          "internalType": "uint256",
          "name": "oldValue",
          "type": "uint256"
        },
        {
          "indexed": false,
          "internalType": "uint256",
          "name": "newValue",
          "type": "uint256"
        }
      ],
      "name": "UpdateMaxTokensToDepositWithoutReinvest",
      "type": "event"
    },
    {
      "anonymous": false,
      "inputs": [
        {
          "indexed": false,
          "internalType": "uint256",
          "name": "oldValue",
          "type": "uint256"
        },
        {
          "indexed": false,
          "internalType": "uint256",
          "name": "newValue",
          "type": "uint256"
        }
      ],
      "name": "UpdateMinTokensToReinvest",
      "type": "event"
    },
    {
      "anonymous": false,
      "inputs": [
        {
          "indexed": false,
          "internalType": "uint256",
          "name": "oldValue",
          "type": "uint256"
        },
        {
          "indexed": false,
          "internalType": "uint256",
          "name": "newValue",
          "type": "uint256"
        }
      ],
      "name": "UpdateReinvestReward",
      "type": "event"
    },
    {
      "anonymous": false,
      "inputs": [
        {
          "indexed": true,
          "internalType": "address",
          "name": "account",
          "type": "address"
        },
        {
          "indexed": false,
          "internalType": "uint256",
          "name": "amount",
          "type": "uint256"
        }
      ],
      "name": "Withdraw",
      "type": "event"
    },
    {
      "inputs": [],
      "name": "ADMIN_FEE_BIPS",
      "outputs": [
        {
          "internalType": "uint256",
          "name": "",
          "type": "uint256"
        }
      ],
      "stateMutability": "view",
      "type": "function"
    },
    {
      "inputs": [],
      "name": "DEPOSITS_ENABLED",
      "outputs": [
        {
          "internalType": "bool",
          "name": "",
          "type": "bool"
        }
      ],
      "stateMutability": "view",
      "type": "function"
    },
    {
      "inputs": [],
      "name": "DEV_FEE_BIPS",
      "outputs": [
        {
          "internalType": "uint256",
          "name": "",
          "type": "uint256"
        }
      ],
      "stateMutability": "view",
      "type": "function"
    },
    {
      "inputs": [],
      "name": "DOMAIN_TYPEHASH",
      "outputs": [
        {
          "internalType": "bytes32",
          "name": "",
          "type": "bytes32"
        }
      ],
      "stateMutability": "view",
      "type": "function"
    },
    {
      "inputs": [],
      "name": "MAX_TOKENS_TO_DEPOSIT_WITHOUT_REINVEST",
      "outputs": [
        {
          "internalType": "uint256",
          "name": "",
          "type": "uint256"
        }
      ],
      "stateMutability": "view",
      "type": "function"
    },
    {
      "inputs": [],
      "name": "MIN_TOKENS_TO_REINVEST",
      "outputs": [
        {
          "internalType": "uint256",
          "name": "",
          "type": "uint256"
        }
      ],
      "stateMutability": "view",
      "type": "function"
    },
    {
      "inputs": [],
      "name": "PERMIT_TYPEHASH",
      "outputs": [
        {
          "internalType": "bytes32",
          "name": "",
          "type": "bytes32"
        }
      ],
      "stateMutability": "view",
      "type": "function"
    },
    {
      "inputs": [],
      "name": "REINVEST_REWARD_BIPS",
      "outputs": [
        {
          "internalType": "uint256",
          "name": "",
          "type": "uint256"
        }
      ],
      "stateMutability": "view",
      "type": "function"
    },
    {
      "inputs": [],
      "name": "VERSION_HASH",
      "outputs": [
        {
          "internalType": "bytes32",
          "name": "",
          "type": "bytes32"
        }
      ],
      "stateMutability": "view",
      "type": "function"
    },
    {
      "inputs": [
        {
          "internalType": "address",
          "name": "depositor",
          "type": "address"
        }
      ],
      "name": "allowDepositor",
      "outputs": [],
      "stateMutability": "nonpayable",
      "type": "function"
    },
    {
      "inputs": [
        {
          "internalType": "address",
          "name": "account",
          "type": "address"
        },
        {
          "internalType": "address",
          "name": "spender",
          "type": "address"
        }
      ],
      "name": "allowance",
      "outputs": [
        {
          "internalType": "uint256",
          "name": "",
          "type": "uint256"
        }
      ],
      "stateMutability": "view",
      "type": "function"
    },
    {
      "inputs": [
        {
          "internalType": "address",
          "name": "",
          "type": "address"
        }
      ],
      "name": "allowedDepositors",
      "outputs": [
        {
          "internalType": "bool",
          "name": "",
          "type": "bool"
        }
      ],
      "stateMutability": "view",
      "type": "function"
    },
    {
      "inputs": [
        {
          "internalType": "address",
          "name": "spender",
          "type": "address"
        },
        {
          "internalType": "uint256",
          "name": "amount",
          "type": "uint256"
        }
      ],
      "name": "approve",
      "outputs": [
        {
          "internalType": "bool",
          "name": "",
          "type": "bool"
        }
      ],
      "stateMutability": "nonpayable",
      "type": "function"
    },
    {
      "inputs": [
        {
          "internalType": "address",
          "name": "account",
          "type": "address"
        }
      ],
      "name": "balanceOf",
      "outputs": [
        {
          "internalType": "uint256",
          "name": "",
          "type": "uint256"
        }
      ],
      "stateMutability": "view",
      "type": "function"
    },
    {
      "inputs": [],
      "name": "checkReward",
      "outputs": [
        {
          "internalType": "uint256",
          "name": "",
          "type": "uint256"
        }
      ],
      "stateMutability": "view",
      "type": "function"
    },
    {
      "inputs": [],
      "name": "claimAVAXRewards",
      "outputs": [],
      "stateMutability": "nonpayable",
      "type": "function"
    },
    {
      "inputs": [],
      "name": "decimals",
      "outputs": [
        {
          "internalType": "uint8",
          "name": "",
          "type": "uint8"
        }
      ],
      "stateMutability": "view",
      "type": "function"
    },
    {
      "inputs": [
        {
          "internalType": "uint256",
          "name": "amount",
          "type": "uint256"
        }
      ],
      "name": "deposit",
      "outputs": [],
      "stateMutability": "nonpayable",
      "type": "function"
    },
    {
      "inputs": [
        {
          "internalType": "address",
          "name": "account",
          "type": "address"
        },
        {
          "internalType": "uint256",
          "name": "amount",
          "type": "uint256"
        }
      ],
      "name": "depositFor",
      "outputs": [],
      "stateMutability": "nonpayable",
      "type": "function"
    },
    {
      "inputs": [],
      "name": "depositToken",
      "outputs": [
        {
          "internalType": "contract IERC20",
          "name": "",
          "type": "address"
        }
      ],
      "stateMutability": "view",
      "type": "function"
    },
    {
      "inputs": [
        {
          "internalType": "uint256",
          "name": "amount",
          "type": "uint256"
        },
        {
          "internalType": "uint256",
          "name": "deadline",
          "type": "uint256"
        },
        {
          "internalType": "uint8",
          "name": "v",
          "type": "uint8"
        },
        {
          "internalType": "bytes32",
          "name": "r",
          "type": "bytes32"
        },
        {
          "internalType": "bytes32",
          "name": "s",
          "type": "bytes32"
        }
      ],
      "name": "depositWithPermit",
      "outputs": [],
      "stateMutability": "nonpayable",
      "type": "function"
    },
    {
      "inputs": [],
      "name": "devAddr",
      "outputs": [
        {
          "internalType": "address",
          "name": "",
          "type": "address"
        }
      ],
      "stateMutability": "view",
      "type": "function"
    },
    {
      "inputs": [],
      "name": "estimateDeployedBalance",
      "outputs": [
        {
          "internalType": "uint256",
          "name": "",
          "type": "uint256"
        }
      ],
      "stateMutability": "view",
      "type": "function"
    },
    {
      "inputs": [],
      "name": "estimateReinvestReward",
      "outputs": [
        {
          "internalType": "uint256",
          "name": "",
          "type": "uint256"
        }
      ],
      "stateMutability": "view",
      "type": "function"
    },
    {
      "inputs": [],
      "name": "getActualLeverage",
      "outputs": [
        {
          "internalType": "uint256",
          "name": "",
          "type": "uint256"
        }
      ],
      "stateMutability": "view",
      "type": "function"
    },
    {
      "inputs": [
        {
          "internalType": "uint256",
          "name": "amount",
          "type": "uint256"
        }
      ],
      "name": "getDepositTokensForShares",
      "outputs": [
        {
          "internalType": "uint256",
          "name": "",
          "type": "uint256"
        }
      ],
      "stateMutability": "view",
      "type": "function"
    },
    {
      "inputs": [],
      "name": "getDomainSeparator",
      "outputs": [
        {
          "internalType": "bytes32",
          "name": "",
          "type": "bytes32"
        }
      ],
      "stateMutability": "view",
      "type": "function"
    },
    {
      "inputs": [
        {
          "internalType": "uint256",
          "name": "amount",
          "type": "uint256"
        }
      ],
      "name": "getSharesForDepositTokens",
      "outputs": [
        {
          "internalType": "uint256",
          "name": "",
          "type": "uint256"
        }
      ],
      "stateMutability": "view",
      "type": "function"
    },
    {
      "inputs": [],
      "name": "name",
      "outputs": [
        {
          "internalType": "string",
          "name": "",
          "type": "string"
        }
      ],
      "stateMutability": "view",
      "type": "function"
    },
    {
      "inputs": [
        {
          "internalType": "address",
          "name": "",
          "type": "address"
        }
      ],
      "name": "nonces",
      "outputs": [
        {
          "internalType": "uint256",
          "name": "",
          "type": "uint256"
        }
      ],
      "stateMutability": "view",
      "type": "function"
    },
    {
      "inputs": [],
      "name": "numberOfAllowedDepositors",
      "outputs": [
        {
          "internalType": "uint256",
          "name": "",
          "type": "uint256"
        }
      ],
      "stateMutability": "view",
      "type": "function"
    },
    {
      "inputs": [],
      "name": "owner",
      "outputs": [
        {
          "internalType": "address",
          "name": "",
          "type": "address"
        }
      ],
      "stateMutability": "view",
      "type": "function"
    },
    {
      "inputs": [
        {
          "internalType": "address",
          "name": "owner",
          "type": "address"
        },
        {
          "internalType": "address",
          "name": "spender",
          "type": "address"
        },
        {
          "internalType": "uint256",
          "name": "value",
          "type": "uint256"
        },
        {
          "internalType": "uint256",
          "name": "deadline",
          "type": "uint256"
        },
        {
          "internalType": "uint8",
          "name": "v",
          "type": "uint8"
        },
        {
          "internalType": "bytes32",
          "name": "r",
          "type": "bytes32"
        },
        {
          "internalType": "bytes32",
          "name": "s",
          "type": "bytes32"
        }
      ],
      "name": "permit",
      "outputs": [],
      "stateMutability": "nonpayable",
      "type": "function"
    },
    {
      "inputs": [
        {
          "internalType": "uint256",
          "name": "amount",
          "type": "uint256"
        }
      ],
      "name": "recoverAVAX",
      "outputs": [],
      "stateMutability": "nonpayable",
      "type": "function"
    },
    {
      "inputs": [
        {
          "internalType": "address",
          "name": "tokenAddress",
          "type": "address"
        },
        {
          "internalType": "uint256",
          "name": "tokenAmount",
          "type": "uint256"
        }
      ],
      "name": "recoverERC20",
      "outputs": [],
      "stateMutability": "nonpayable",
      "type": "function"
    },
    {
      "inputs": [],
      "name": "reinvest",
      "outputs": [],
      "stateMutability": "nonpayable",
      "type": "function"
    },
    {
      "inputs": [
        {
          "internalType": "address",
          "name": "depositor",
          "type": "address"
        }
      ],
      "name": "removeDepositor",
      "outputs": [],
      "stateMutability": "nonpayable",
      "type": "function"
    },
    {
      "inputs": [],
      "name": "renounceOwnership",
      "outputs": [],
      "stateMutability": "nonpayable",
      "type": "function"
    },
    {
      "inputs": [
        {
          "internalType": "uint256",
          "name": "minReturnAmountAccepted",
          "type": "uint256"
        },
        {
          "internalType": "bool",
          "name": "disableDeposits",
          "type": "bool"
        }
      ],
      "name": "rescueDeployedFunds",
      "outputs": [],
      "stateMutability": "nonpayable",
      "type": "function"
    },
    {
      "inputs": [
        {
          "internalType": "address",
          "name": "token",
          "type": "address"
        },
        {
          "internalType": "address",
          "name": "spender",
          "type": "address"
        }
      ],
      "name": "revokeAllowance",
      "outputs": [],
      "stateMutability": "nonpayable",
      "type": "function"
    },
    {
      "inputs": [],
      "name": "rewardToken",
      "outputs": [
        {
          "internalType": "contract IERC20",
          "name": "",
          "type": "address"
        }
      ],
      "stateMutability": "view",
      "type": "function"
    },
    {
      "inputs": [],
      "name": "setAllowances",
      "outputs": [],
      "stateMutability": "nonpayable",
      "type": "function"
    },
    {
      "inputs": [],
      "name": "symbol",
      "outputs": [
        {
          "internalType": "string",
          "name": "",
          "type": "string"
        }
      ],
      "stateMutability": "view",
      "type": "function"
    },
    {
      "inputs": [],
      "name": "totalDeposits",
      "outputs": [
        {
          "internalType": "uint256",
          "name": "",
          "type": "uint256"
        }
      ],
      "stateMutability": "view",
      "type": "function"
    },
    {
      "inputs": [],
      "name": "totalSupply",
      "outputs": [
        {
          "internalType": "uint256",
          "name": "",
          "type": "uint256"
        }
      ],
      "stateMutability": "view",
      "type": "function"
    },
    {
      "inputs": [
        {
          "internalType": "address",
          "name": "dst",
          "type": "address"
        },
        {
          "internalType": "uint256",
          "name": "amount",
          "type": "uint256"
        }
      ],
      "name": "transfer",
      "outputs": [
        {
          "internalType": "bool",
          "name": "",
          "type": "bool"
        }
      ],
      "stateMutability": "nonpayable",
      "type": "function"
    },
    {
      "inputs": [
        {
          "internalType": "address",
          "name": "src",
          "type": "address"
        },
        {
          "internalType": "address",
          "name": "dst",
          "type": "address"
        },
        {
          "internalType": "uint256",
          "name": "amount",
          "type": "uint256"
        }
      ],
      "name": "transferFrom",
      "outputs": [
        {
          "internalType": "bool",
          "name": "",
          "type": "bool"
        }
      ],
      "stateMutability": "nonpayable",
      "type": "function"
    },
    {
      "inputs": [
        {
          "internalType": "address",
          "name": "newOwner",
          "type": "address"
        }
      ],
      "name": "transferOwnership",
      "outputs": [],
      "stateMutability": "nonpayable",
      "type": "function"
    },
    {
      "inputs": [
        {
          "internalType": "uint256",
          "name": "newValue",
          "type": "uint256"
        }
      ],
      "name": "updateAdminFee",
      "outputs": [],
      "stateMutability": "nonpayable",
      "type": "function"
    },
    {
      "inputs": [
        {
          "internalType": "bool",
          "name": "newValue",
          "type": "bool"
        }
      ],
      "name": "updateDepositsEnabled",
      "outputs": [],
      "stateMutability": "nonpayable",
      "type": "function"
    },
    {
      "inputs": [
        {
          "internalType": "address",
          "name": "newValue",
          "type": "address"
        }
      ],
      "name": "updateDevAddr",
      "outputs": [],
      "stateMutability": "nonpayable",
      "type": "function"
    },
    {
      "inputs": [
        {
          "internalType": "uint256",
          "name": "newValue",
          "type": "uint256"
        }
      ],
      "name": "updateDevFee",
      "outputs": [],
      "stateMutability": "nonpayable",
      "type": "function"
    },
    {
      "inputs": [
        {
          "internalType": "uint256",
          "name": "_leverageLevel",
          "type": "uint256"
        },
        {
          "internalType": "uint256",
          "name": "_leverageBips",
          "type": "uint256"
        }
      ],
      "name": "updateLeverage",
      "outputs": [],
      "stateMutability": "nonpayable",
      "type": "function"
    },
    {
      "inputs": [
        {
          "internalType": "uint256",
          "name": "newValue",
          "type": "uint256"
        }
      ],
      "name": "updateMaxTokensToDepositWithoutReinvest",
      "outputs": [],
      "stateMutability": "nonpayable",
      "type": "function"
    },
    {
      "inputs": [
        {
          "internalType": "uint256",
          "name": "newValue",
          "type": "uint256"
        }
      ],
      "name": "updateMinTokensToReinvest",
      "outputs": [],
      "stateMutability": "nonpayable",
      "type": "function"
    },
    {
      "inputs": [
        {
          "internalType": "uint256",
          "name": "newValue",
          "type": "uint256"
        }
      ],
      "name": "updateReinvestReward",
      "outputs": [],
      "stateMutability": "nonpayable",
      "type": "function"
    },
    {
      "inputs": [
        {
          "internalType": "uint256",
          "name": "amount",
          "type": "uint256"
        }
      ],
      "name": "withdraw",
      "outputs": [],
      "stateMutability": "nonpayable",
      "type": "function"
    },
    {
      "stateMutability": "payable",
      "type": "receive"
    }
  ],
  "bytecode": {
    "object": "0x60c060405260096080819052685969656c642059616b60b81b60a09081526200002c916000919062000e08565b506040805180820190915260038082526216549560ea1b6020909201918252620000599160019162000e08565b503480156200006757600080fd5b5060405162005ab638038062005ab68339810160408190526200008a9162000f73565b600680546001600160a01b03191633908117909155604051829190819060009060008051602062005a76833981519152908290a3508051620000cc906200020e565b6020810151620000dc906200029e565b6040810151620000ec9062000355565b508a51620001029060009060208e019062000e08565b50600980546001600160a01b03199081166001600160a01b038d8116919091179092556012805482168c84161790556013805482168b84161790556014805482168a84161790556015805482169289169283179055600a805490911690911790556040820151601a5581516020830151601891909155601955600b80546001600160a01b03191633179055620001976200040c565b620001a38585620004de565b620001ad62000b06565b620001b9600162000c4c565b620001c48362000cf6565b60408051600080825260208201527fc7606d21ac05cd309191543e409f0845c016120563783d70e4f41419dc0ef234910160405180910390a15050505050505050505050620012af565b6006546001600160a01b031633146200025d5760405162461bcd60e51b8152602060048201819052602482015260008051602062005a5683398151915260448201526064015b60405180910390fd5b600c5460408051918252602082018390527f481f79ac3a523b6d6db3c5a720e190e986d1cc1b41adcdf50f9caef849901100910160405180910390a1600c55565b6006546001600160a01b03163314620002e95760405162461bcd60e51b8152602060048201819052602482015260008051602062005a56833981519152604482015260640162000254565b612710620003086010548362000df360201b620020f61790919060201c565b11156200031457600080fd5b60115460408051918252602082018390527f2a42303d002f0ba6cfe8259c91d4684443fb0b3de286ba74991175d651726131910160405180910390a1601155565b6006546001600160a01b03163314620003a05760405162461bcd60e51b8152602060048201819052602482015260008051602062005a56833981519152604482015260640162000254565b612710620003bf6011548362000df360201b620020f61790919060201c565b1115620003cb57600080fd5b60105460408051918252602082018390527fe7f97d51d307dc44045597c9978bec0f842e6bb40d19b9444084cfa30d9ed4f2910160405180910390a1601055565b60408051600180825281830190925260009160208083019080368337505060135482519293506001600160a01b031691839150600090620004515762000451620010f5565b6001600160a01b039283166020918202929092010152601254604051631853304760e31b815291169063c299823890620004909084906004016200110b565b6000604051808303816000875af1158015620004b0573d6000803e3d6000fd5b505050506040513d6000823e601f3d908101601f19168201604052620004da91908101906200115a565b5050565b6001600160a01b038216620005485760405162461bcd60e51b815260206004820152602960248201527f5377617020706169722030206973206e656365737361727920627574206e6f74604482015268081cdd5c1c1b1a595960ba1b606482015260840162000254565b6001600160a01b038116620005b25760405162461bcd60e51b815260206004820152602960248201527f5377617020706169722031206973206e656365737361727920627574206e6f74604482015268081cdd5c1c1b1a595960ba1b606482015260840162000254565b816001600160a01b0316630dfe16816040518163ffffffff1660e01b8152600401602060405180830381865afa158015620005f1573d6000803e3d6000fd5b505050506040513d601f19601f820116820180604052508101906200061791906200120a565b6014546001600160a01b0390811691161480620006a65750816001600160a01b031663d21220a76040518163ffffffff1660e01b8152600401602060405180830381865afa1580156200066e573d6000803e3d6000fd5b505050506040513d601f19601f820116820180604052508101906200069491906200120a565b6014546001600160a01b039081169116145b620006f35760405162461bcd60e51b8152602060048201526027602482015260008051602062005a96833981519152604482015266064546f6b656e360cc1b606482015260840162000254565b816001600160a01b0316630dfe16816040518163ffffffff1660e01b8152600401602060405180830381865afa15801562000732573d6000803e3d6000fd5b505050506040513d601f19601f820116820180604052508101906200075891906200120a565b6015546001600160a01b0390811691161480620007e75750816001600160a01b031663d21220a76040518163ffffffff1660e01b8152600401602060405180830381865afa158015620007af573d6000803e3d6000fd5b505050506040513d601f19601f82011682018060405250810190620007d591906200120a565b6015546001600160a01b039081169116145b620008345760405162461bcd60e51b8152602060048201526027602482015260008051602062005a9683398151915260448201526664546f6b656e3160c81b606482015260840162000254565b806001600160a01b0316630dfe16816040518163ffffffff1660e01b8152600401602060405180830381865afa15801562000873573d6000803e3d6000fd5b505050506040513d601f19601f820116820180604052508101906200089991906200120a565b6009546001600160a01b0390811691161480620009285750806001600160a01b031663d21220a76040518163ffffffff1660e01b8152600401602060405180830381865afa158015620008f0573d6000803e3d6000fd5b505050506040513d601f19601f820116820180604052508101906200091691906200120a565b6009546001600160a01b039081169116145b620009865760405162461bcd60e51b815260206004820152602760248201527f537761702070616972203120646f6573206e6f74206d61746368206465706f7360448201526634ba2a37b5b2b760c91b606482015260840162000254565b806001600160a01b0316630dfe16816040518163ffffffff1660e01b8152600401602060405180830381865afa158015620009c5573d6000803e3d6000fd5b505050506040513d601f19601f82011682018060405250810190620009eb91906200120a565b6015546001600160a01b039081169116148062000a7a5750806001600160a01b031663d21220a76040518163ffffffff1660e01b8152600401602060405180830381865afa15801562000a42573d6000803e3d6000fd5b505050506040513d601f19601f8201168201806040525081019062000a6891906200120a565b6015546001600160a01b039081169116145b62000ad85760405162461bcd60e51b815260206004820152602760248201527f537761702070616972203120646f6573206e6f74206d6174636820726577617260448201526664546f6b656e3160c81b606482015260840162000254565b601680546001600160a01b039384166001600160a01b03199182161790915560178054929093169116179055565b6006546001600160a01b0316331462000b515760405162461bcd60e51b8152602060048201819052602482015260008051602062005a56833981519152604482015260640162000254565b60095460135460405163095ea7b360e01b81526001600160a01b039182166004820152600019602482015291169063095ea7b3906044016020604051808303816000875af115801562000ba8573d6000803e3d6000fd5b505050506040513d601f19601f8201168201806040525081019062000bce919062001228565b5060135460405163095ea7b360e01b81526001600160a01b039091166004820181905260001960248301529063095ea7b3906044016020604051808303816000875af115801562000c23573d6000803e3d6000fd5b505050506040513d601f19601f8201168201806040525081019062000c49919062001228565b50565b6006546001600160a01b0316331462000c975760405162461bcd60e51b8152602060048201819052602482015260008051602062005a56833981519152604482015260640162000254565b600e5481151560ff90911615150362000caf57600080fd5b600e805460ff19168215159081179091556040519081527f7b014ed3854e7f5cb0218d58b3c6ae7d53a68bb0af2f67bfb029ea42c38a7e859060200160405180910390a150565b6006546001600160a01b0316331462000d415760405162461bcd60e51b8152602060048201819052602482015260008051602062005a56833981519152604482015260640162000254565b6001600160a01b03811662000da85760405162461bcd60e51b815260206004820152602660248201527f4f776e61626c653a206e6577206f776e657220697320746865207a65726f206160448201526564647265737360d01b606482015260840162000254565b6006546040516001600160a01b0380841692169060008051602062005a7683398151915290600090a3600680546001600160a01b0319166001600160a01b0392909216919091179055565b600062000e0182846200124c565b9392505050565b82805462000e169062001273565b90600052602060002090601f01602090048101928262000e3a576000855562000e85565b82601f1062000e5557805160ff191683800117855562000e85565b8280016001018555821562000e85579182015b8281111562000e8557825182559160200191906001019062000e68565b5062000e9392915062000e97565b5090565b5b8082111562000e93576000815560010162000e98565b634e487b7160e01b600052604160045260246000fd5b604051601f8201601f191681016001600160401b038111828210171562000eef5762000eef62000eae565b604052919050565b80516001600160a01b038116811462000f0f57600080fd5b919050565b60006060828403121562000f2757600080fd5b604051606081016001600160401b038111828210171562000f4c5762000f4c62000eae565b80604052508091508251815260208301516020820152604083015160408201525092915050565b60008060008060008060008060008060006101e08c8e03121562000f9657600080fd5b8b516001600160401b038082111562000fae57600080fd5b818e0191508e601f83011262000fc357600080fd5b81518181111562000fd85762000fd862000eae565b62000fed601f8201601f191660200162000ec4565b91508082528f60208285010111156200100557600080fd5b60005b81811015620010265760208185018101518483018201520162001008565b8181111562001039576000602083850101525b5050809c5050506200104e60208d0162000ef7565b99506200105e60408d0162000ef7565b98506200106e60608d0162000ef7565b97506200107e60808d0162000ef7565b96506200108e60a08d0162000ef7565b95506200109e60c08d0162000ef7565b9450620010ae60e08d0162000ef7565b9350620010bf6101008d0162000ef7565b9250620010d18d6101208e0162000f14565b9150620010e38d6101808e0162000f14565b90509295989b509295989b9093969950565b634e487b7160e01b600052603260045260246000fd5b6020808252825182820181905260009190848201906040850190845b818110156200114e5783516001600160a01b03168352928401929184019160010162001127565b50909695505050505050565b600060208083850312156200116e57600080fd5b82516001600160401b03808211156200118657600080fd5b818501915085601f8301126200119b57600080fd5b815181811115620011b057620011b062000eae565b8060051b9150620011c384830162000ec4565b8181529183018401918481019088841115620011de57600080fd5b938501935b83851015620011fe57845182529385019390850190620011e3565b98975050505050505050565b6000602082840312156200121d57600080fd5b62000e018262000ef7565b6000602082840312156200123b57600080fd5b8151801515811462000e0157600080fd5b600082198211156200126e57634e487b7160e01b600052601160045260246000fd5b500190565b600181811c908216806200128857607f821691505b602082108103620012a957634e487b7160e01b600052602260045260246000fd5b50919050565b61479780620012bf6000396000f3fe60806040526004361061037a5760003560e01c80638b73e606116101d1578063c4b24a4611610102578063dd62ed3e116100a0578063ed24911d1161006f578063ed24911d14610a50578063f2fde38b14610a65578063f7c618c114610a85578063fdb5a03e14610aa557600080fd5b8063dd62ed3e146109aa578063dd8ce4d6146109f0578063e21ac82514610a10578063eab89a5a14610a3057600080fd5b8063d505accf116100dc578063d505accf14610940578063da09c72c14610960578063db8dd95c14610980578063dbd9a4d41461099557600080fd5b8063c4b24a46146108eb578063c89039c514610900578063cff1b6ef1461092057600080fd5b8063a8ae2b7c1161016f578063b52a321f11610149578063b52a321f14610886578063b6b55f25146108a0578063b9e57b80146108c0578063bd079f55146108d557600080fd5b8063a8ae2b7c14610826578063a9059cbb14610846578063ac0d31ff1461086657600080fd5b806395d89b41116101ab57806395d89b411461079d57806399729ec1146107b25780639e4e7318146107d2578063a24159d31461080657600080fd5b80638b73e6061461072b5780638da5cb5b1461074b5780639291d5631461077d57600080fd5b80634bebd1e7116102ab578063789139bc116102495780637ecebe00116102235780637ecebe00146106a857806381837230146106d55780638980f11f146106f55780638aff733d1461071557600080fd5b8063789139bc1461065d5780637ae26773146106735780637d8820971461069357600080fd5b80635b53ce10116102855780635b53ce10146105e75780635ea682ea146105fc57806370a0823114610612578063715018a61461064857600080fd5b80634bebd1e7146105875780634e77ace5146105a75780634ebb7916146105c757600080fd5b80632e1a7d4d11610318578063313ce567116102f2578063313ce567146104fa5780633bdc6e7214610521578063483c2ef0146105375780634a970be71461056757600080fd5b80632e1a7d4d146104845780632f4f21e2146104a657806330adf81f146104c657600080fd5b80630f23475d116103545780630f23475d1461040557806318160ddd1461041a57806320606b701461043057806323b872dd1461046457600080fd5b806306fdde031461038657806307677111146103b1578063095ea7b3146103d557600080fd5b3661038157005b600080fd5b34801561039257600080fd5b5061039b610aba565b6040516103a89190614113565b60405180910390f35b3480156103bd57600080fd5b506103c7600f5481565b6040519081526020016103a8565b3480156103e157600080fd5b506103f56103f036600461413b565b610b48565b60405190151581526020016103a8565b34801561041157600080fd5b506103c7610b5e565b34801561042657600080fd5b506103c760025481565b34801561043c57600080fd5b506103c77f8b73c3c69bb8fe3d512ecc4cf759cc79239f7b179b0ffacaa9a75d522b39400f81565b34801561047057600080fd5b506103f561047f366004614167565b610b6d565b34801561049057600080fd5b506104a461049f3660046141a8565b610c51565b005b3480156104b257600080fd5b506104a46104c136600461413b565b610d4b565b3480156104d257600080fd5b506103c77f6e71edae12b1b97f4d1f60370fef10105fa2faae0126114a169c64845d6126c981565b34801561050657600080fd5b5061050f601281565b60405160ff90911681526020016103a8565b34801561052d57600080fd5b506103c760075481565b34801561054357600080fd5b506103f56105523660046141c1565b60086020526000908152604090205460ff1681565b34801561057357600080fd5b506104a46105823660046141f4565b610d55565b34801561059357600080fd5b506104a46105a23660046141c1565b610dee565b3480156105b357600080fd5b506104a46105c2366004614249565b610eed565b3480156105d357600080fd5b506104a46105e23660046141a8565b610f76565b3480156105f357600080fd5b506104a4611012565b34801561060857600080fd5b506103c760115481565b34801561061e57600080fd5b506103c761062d3660046141c1565b6001600160a01b031660009081526004602052604090205490565b34801561065457600080fd5b506104a461109b565b34801561066957600080fd5b506103c7600d5481565b34801561067f57600080fd5b506104a461068e366004614266565b61110f565b34801561069f57600080fd5b506103c76111b5565b3480156106b457600080fd5b506103c76106c33660046141c1565b60056020526000908152604090205481565b3480156106e157600080fd5b506104a46106f03660046141a8565b61125b565b34801561070157600080fd5b506104a461071036600461413b565b6112c6565b34801561072157600080fd5b506103c760105481565b34801561073757600080fd5b506104a46107463660046141c1565b6113bd565b34801561075757600080fd5b506006546001600160a01b03165b6040516001600160a01b0390911681526020016103a8565b34801561078957600080fd5b506104a46107983660046141c1565b61153e565b3480156107a957600080fd5b5061039b6115f8565b3480156107be57600080fd5b506104a46107cd3660046141a8565b611605565b3480156107de57600080fd5b506103c77fc89efdaa54c0f20c7adf612882df0950f5a951637e0307cdcb4c672f298b8bc681565b34801561081257600080fd5b506104a461082136600461429f565b611693565b34801561083257600080fd5b506104a46108413660046141a8565b611719565b34801561085257600080fd5b506103f561086136600461413b565b6117a7565b34801561087257600080fd5b506104a46108813660046142c1565b6117b4565b34801561089257600080fd5b50600e546103f59060ff1681565b3480156108ac57600080fd5b506104a46108bb3660046141a8565b611a18565b3480156108cc57600080fd5b506103c7611a25565b3480156108e157600080fd5b506103c7600c5481565b3480156108f757600080fd5b506103c7611a64565b34801561090c57600080fd5b50600954610765906001600160a01b031681565b34801561092c57600080fd5b506104a461093b3660046141a8565b611a77565b34801561094c57600080fd5b506104a461095b3660046142e6565b611aed565b34801561096c57600080fd5b50600b54610765906001600160a01b031681565b34801561098c57600080fd5b506103c7611bf2565b3480156109a157600080fd5b506104a4611cb2565b3480156109b657600080fd5b506103c76109c5366004614266565b6001600160a01b03918216600090815260036020908152604080832093909416825291909152205490565b3480156109fc57600080fd5b506103c7610a0b3660046141a8565b611dce565b348015610a1c57600080fd5b506104a4610a2b3660046141a8565b611e0e565b348015610a3c57600080fd5b506103c7610a4b3660046141a8565b611e79565b348015610a5c57600080fd5b506103c7611ead565b348015610a7157600080fd5b506104a4610a803660046141c1565b611f4d565b348015610a9157600080fd5b50600a54610765906001600160a01b031681565b348015610ab157600080fd5b506104a4612038565b60008054610ac790614354565b80601f0160208091040260200160405190810160405280929190818152602001828054610af390614354565b8015610b405780601f10610b1557610100808354040283529160200191610b40565b820191906000526020600020905b815481529060010190602001808311610b2357829003601f168201915b505050505081565b6000610b55338484612102565b50600192915050565b6000610b686111b5565b905090565b6001600160a01b038316600081815260036020908152604080832033808552925282205491929091908214801590610ba757506000198114155b15610c38576000610bd3856040518060600160405280602f81526020016146de602f9139849190612210565b6001600160a01b038881166000818152600360209081526040808320948916808452948252918290208590559051848152939450919290917f8c5be1e5ebec7d5bd14f71427d1e84f3dd0314c0f7b2291e5b200ac8c7c3b925910160405180910390a3505b610c4386868661223c565b6001925050505b9392505050565b6000610c71600254610c6b84610c6561236f565b90612469565b90612475565b9050601a54811015610ce05760405162461bcd60e51b815260206004820152602d60248201527f4a6f654c656e64696e67537472617465677956333a3a2062656c6f77206d696e60448201526c696d756d20776974686472617760981b60648201526084015b60405180910390fd5b610cea3383612481565b610cf381612557565b600954610d0a906001600160a01b0316338361271d565b60405181815233907f884edad9ce6fa2440d8a54cc123490eb96d2768479d49ff9c7366125a94243649060200160405180910390a2610d47611012565b5050565b610d4782826127ef565b60095460405163d505accf60e01b8152336004820152306024820152604481018790526064810186905260ff8516608482015260a4810184905260c481018390526001600160a01b039091169063d505accf9060e401600060405180830381600087803b158015610dc557600080fd5b505af1158015610dd9573d6000803e3d6000fd5b50505050610de733866127ef565b5050505050565b6006546001600160a01b03163314610e185760405162461bcd60e51b8152600401610cd79061438e565b6001600160a01b03811660009081526008602052604090205460ff1615610e815760405162461bcd60e51b815260206004820152601c60248201527f5065726d697373696f6e65643a3a616c6c6f774465706f7369746f72000000006044820152606401610cd7565b6001600160a01b0381166000908152600860205260409020805460ff19166001908117909155600754610eb3916120f6565b6007556040516001600160a01b038216907fc0a1035c16faf8d1304056d92c00edf028f87e62b8235a938f00af9e3c0312c590600090a250565b6006546001600160a01b03163314610f175760405162461bcd60e51b8152600401610cd79061438e565b600e5481151560ff909116151503610f2e57600080fd5b600e805460ff19168215159081179091556040519081527f7b014ed3854e7f5cb0218d58b3c6ae7d53a68bb0af2f67bfb029ea42c38a7e85906020015b60405180910390a150565b6006546001600160a01b03163314610fa05760405162461bcd60e51b8152600401610cd79061438e565b60008111610fad57600080fd5b604051339082156108fc029083906000818181858888f19350505050158015610fda573d6000803e3d6000fd5b506040805160008152602081018390527f8c1256b8896378cd5044f80c202f9772b9d77dc85c8a6eb51967210b09bfaa289101610f6b565b600e5460ff16151560010361109957600c5461102f600130612a76565b1061109957601254604051630952c56360e01b8152600160048201523060248201526001600160a01b0390911690630952c56390604401600060405180830381600087803b15801561108057600080fd5b505af1158015611094573d6000803e3d6000fd5b505050505b565b6006546001600160a01b031633146110c55760405162461bcd60e51b8152600401610cd79061438e565b6006546040516000916001600160a01b0316907f8be0079c531659141344cd1fd0a4f28419497f9722a3daafe3b4186f6b6457e0908390a3600680546001600160a01b0319169055565b6006546001600160a01b031633146111395760405162461bcd60e51b8152600401610cd79061438e565b60405163095ea7b360e01b81526001600160a01b0382811660048301526000602483015283169063095ea7b3906044016020604051808303816000875af1158015611188573d6000803e3d6000fd5b505050506040513d601f19601f820116820180604052508101906111ac91906143c3565b610d4757600080fd5b6013546040516361bfb47160e11b81523060048201526000918291829182916001600160a01b039091169063c37f68e290602401608060405180830381865afa158015611206573d6000803e3d6000fd5b505050506040513d601f19601f8201168201806040525081019061122a91906143e0565b9195509350915061125390508261124d670de0b6b3a7640000610c6b8786612469565b90612e79565b935050505090565b6006546001600160a01b031633146112855760405162461bcd60e51b8152600401610cd79061438e565b600c5460408051918252602082018390527f481f79ac3a523b6d6db3c5a720e190e986d1cc1b41adcdf50f9caef849901100910160405180910390a1600c55565b6006546001600160a01b031633146112f05760405162461bcd60e51b8152600401610cd79061438e565b600081116112fd57600080fd5b60405163a9059cbb60e01b8152336004820152602481018290526001600160a01b0383169063a9059cbb906044016020604051808303816000875af115801561134a573d6000803e3d6000fd5b505050506040513d601f19601f8201168201806040525081019061136e91906143c3565b61137757600080fd5b604080516001600160a01b0384168152602081018390527f8c1256b8896378cd5044f80c202f9772b9d77dc85c8a6eb51967210b09bfaa28910160405180910390a15050565b6006546001600160a01b031633146113e75760405162461bcd60e51b8152600401610cd79061438e565b6000600754116114565760405162461bcd60e51b815260206004820152603460248201527f5065726d697373696f6e65643a3a72656d6f76654465706f7369746f722c206e6044820152736f20616c6c6f776564206465706f7369746f727360601b6064820152608401610cd7565b6001600160a01b03811660009081526008602052604090205460ff1615156001146114d65760405162461bcd60e51b815260206004820152602a60248201527f5065726d697373696f6e65643a3a72656d6f76654465706f7369746f722c206e6044820152691bdd08185b1b1bddd95960b21b6064820152608401610cd7565b6001600160a01b0381166000908152600860205260409020805460ff19169055600754611504906001612e79565b6007556040516001600160a01b038216907f0e86f6608b536e5339a25b65ff531f5ea91e1313d056ecd4752b35cbd16137d490600090a250565b600b546001600160a01b0316331461158f5760405162461bcd60e51b81526020600482015260146024820152732cb0b5a9ba3930ba32b3bc9d1d37b7363ca232bb60611b6044820152606401610cd7565b600b54604080516001600160a01b03928316815291831660208301527fa8e91499ed37682f43cffb045fcc7d379a91e8c9a14e6321877ee34dee564c00910160405180910390a1600b80546001600160a01b0319166001600160a01b0392909216919091179055565b60018054610ac790614354565b6006546001600160a01b0316331461162f5760405162461bcd60e51b8152600401610cd79061438e565b612710611647601054836120f690919063ffffffff16565b111561165257600080fd5b60115460408051918252602082018390527f2a42303d002f0ba6cfe8259c91d4684443fb0b3de286ba74991175d651726131910160405180910390a1601155565b600b546001600160a01b031633146116e45760405162461bcd60e51b81526020600482015260146024820152732cb0b5a9ba3930ba32b3bc9d1d37b7363ca232bb60611b6044820152606401610cd7565b6018829055601981905560006116f861236f565b905061170381612e85565b801561171457611714816000613222565b505050565b6006546001600160a01b031633146117435760405162461bcd60e51b8152600401610cd79061438e565b61271061175b601154836120f690919063ffffffff16565b111561176657600080fd5b60105460408051918252602082018390527fe7f97d51d307dc44045597c9978bec0f842e6bb40d19b9444084cfa30d9ed4f2910160405180910390a1601055565b6000610b5533848461223c565b6006546001600160a01b031633146117de5760405162461bcd60e51b8152600401610cd79061438e565b6009546040516370a0823160e01b81523060048201526000916001600160a01b0316906370a0823190602401602060405180830381865afa158015611827573d6000803e3d6000fd5b505050506040513d601f19601f8201168201806040525081019061184b9190614416565b9050600061185761236f565b905061186281612e85565b60135460405163852a12e360e01b8152600481018390526001600160a01b039091169063852a12e3906024016020604051808303816000875af11580156118ad573d6000803e3d6000fd5b505050506040513d601f19601f820116820180604052508101906118d19190614416565b506009546040516370a0823160e01b81523060048201526000916001600160a01b0316906370a0823190602401602060405180830381865afa15801561191b573d6000803e3d6000fd5b505050506040513d601f19601f8201168201806040525081019061193f9190614416565b90508461194c8285612e79565b10156119ac5760405162461bcd60e51b815260206004820152602960248201527f4a6f654c656e64696e67537472617465677956333a3a7265736375654465706c6044820152686f79656446756e647360b81b6064820152608401610cd7565b7fc7606d21ac05cd309191543e409f0845c016120563783d70e4f41419dc0ef2346119d56111b5565b6002546040805192835260208301919091520160405180910390a1600e5460ff1615156001148015611a0957506001841515145b15610de757610de76000610eed565b611a2233826127ef565b50565b600080611a30611a64565b9050600c548110611a5c57611a56612710610c6b6010548461246990919063ffffffff16565b91505090565b600091505090565b600080611a6f6134b6565b949350505050565b6006546001600160a01b03163314611aa15760405162461bcd60e51b8152600401610cd79061438e565b8015611aac57600080fd5b600f5460408051918252602082018390527f3cc372f330f95ac9540626dc8a25f5bf21ba607215a5d58304cb804d446f104a910160405180910390a1600f55565b42841015611b2f5760405162461bcd60e51b815260206004820152600f60248201526e1c195c9b5a5d0e8e995e1c1a5c9959608a1b6044820152606401610cd7565b6001600160a01b038716600090815260056020526040812080547f6e71edae12b1b97f4d1f60370fef10105fa2faae0126114a169c64845d6126c9918a918a918a919086611b7c83614445565b909155506040805160208101969096526001600160a01b0394851690860152929091166060840152608083015260a082015260c0810186905260e001604051602081830303815290604052805190602001209050611bdd888286868661358c565b611be8888888612102565b5050505050505050565b6013546040516361bfb47160e11b81523060048201526000918291829182916001600160a01b039091169063c37f68e290602401608060405180830381865afa158015611c43573d6000803e3d6000fd5b505050506040513d601f19601f82011682018060405250810190611c6791906143e0565b9195509350915060009050611c88670de0b6b3a7640000610c6b8685612469565b9050611ca9611c978285612e79565b610c6b83670de0b6b3a7640000612469565b94505050505090565b6006546001600160a01b03163314611cdc5760405162461bcd60e51b8152600401610cd79061438e565b60095460135460405163095ea7b360e01b81526001600160a01b039182166004820152600019602482015291169063095ea7b3906044016020604051808303816000875af1158015611d32573d6000803e3d6000fd5b505050506040513d601f19601f82011682018060405250810190611d5691906143c3565b5060135460405163095ea7b360e01b81526001600160a01b039091166004820181905260001960248301529063095ea7b3906044016020604051808303816000875af1158015611daa573d6000803e3d6000fd5b505050506040513d601f19601f82011682018060405250810190611a2291906143c3565b6000611de4611ddb6111b5565b60025490612469565b600003611def575090565b611e08611dfa6111b5565b600254610c6b908590612469565b92915050565b6006546001600160a01b03163314611e385760405162461bcd60e51b8152600401610cd79061438e565b600d5460408051918252602082018390527fa5dae50539d56dfe1fb5273d883b0c39bc76750a25d036fc5fbd09ad8fd5f57f910160405180910390a1600d55565b6000611e86611ddb6111b5565b600003611e9557506000919050565b611e08600254610c6b611ea66111b5565b8590612469565b60007f8b73c3c69bb8fe3d512ecc4cf759cc79239f7b179b0ffacaa9a75d522b39400f60001b6000604051611ee2919061445e565b6040519081900390207fc89efdaa54c0f20c7adf612882df0950f5a951637e0307cdcb4c672f298b8bc646604080516020810195909552840192909252606083015260808201523060a082015260c00160405160208183030381529060405280519060200120905090565b6006546001600160a01b03163314611f775760405162461bcd60e51b8152600401610cd79061438e565b6001600160a01b038116611fdc5760405162461bcd60e51b815260206004820152602660248201527f4f776e61626c653a206e6577206f776e657220697320746865207a65726f206160448201526564647265737360d01b6064820152608401610cd7565b6006546040516001600160a01b038084169216907f8be0079c531659141344cd1fd0a4f28419497f9722a3daafe3b4186f6b6457e090600090a3600680546001600160a01b0319166001600160a01b0392909216919091179055565b32331461207e5760405162461bcd60e51b815260206004820152601460248201527359616b53747261746567793a3a6f6e6c79454f4160601b6044820152606401610cd7565b600080600061208b6134b6565b925092509250600c548110156120e35760405162461bcd60e51b815260206004820152601e60248201527f4a6f654c656e64696e67537472617465677956333a3a7265696e7665737400006044820152606401610cd7565b6120ee8383836136af565b611714611012565b6000610c4a82846144f9565b6001600160a01b0383166121585760405162461bcd60e51b815260206004820152601c60248201527f5f617070726f76653a3a6f776e6572207a65726f2061646472657373000000006044820152606401610cd7565b6001600160a01b0382166121ae5760405162461bcd60e51b815260206004820152601e60248201527f5f617070726f76653a3a7370656e646572207a65726f206164647265737300006044820152606401610cd7565b6001600160a01b0383811660008181526003602090815260408083209487168084529482529182902085905590518481527f8c5be1e5ebec7d5bd14f71427d1e84f3dd0314c0f7b2291e5b200ac8c7c3b92591015b60405180910390a3505050565b600081848411156122345760405162461bcd60e51b8152600401610cd79190614113565b505050900390565b6001600160a01b0382166122af5760405162461bcd60e51b815260206004820152603460248201527f5f7472616e73666572546f6b656e733a2063616e6e6f74207472616e7366657260448201527320746f20746865207a65726f206164647265737360601b6064820152608401610cd7565b6122ec816040518060600160405280602e8152602001614734602e91396001600160a01b0386166000908152600460205260409020549190612210565b6001600160a01b03808516600090815260046020526040808220939093559084168152205461231b90826120f6565b6001600160a01b0380841660008181526004602052604090819020939093559151908516907fddf252ad1be2c89b69c2b068fc378daa952ba7f163c4a11628f55a4df523b3ef906122039085815260200190565b6013546040516305eff7ef60e21b815230600482015260009182916001600160a01b03909116906317bfdfbc906024016020604051808303816000875af11580156123be573d6000803e3d6000fd5b505050506040513d601f19601f820116820180604052508101906123e29190614416565b601354604051633af9e66960e01b81523060048201529192506000916001600160a01b0390911690633af9e669906024016020604051808303816000875af1158015612432573d6000803e3d6000fd5b505050506040513d601f19601f820116820180604052508101906124569190614416565b90506124628183612e79565b9250505090565b6000610c4a8284614511565b6000610c4a8284614530565b6124be8160405180606001604052806027815260200161470d602791396001600160a01b0385166000908152600460205260409020549190612210565b60046000846001600160a01b03166001600160a01b031681526020019081526020016000208190555061250e816040518060600160405280602781526020016146b7602791396002549190612210565b6002556040518181526000906001600160a01b038416907fddf252ad1be2c89b69c2b068fc378daa952ba7f163c4a11628f55a4df523b3ef906020015b60405180910390a35050565b61256081612e85565b60135460405163852a12e360e01b8152600481018390526001600160a01b039091169063852a12e3906024016020604051808303816000875af11580156125ab573d6000803e3d6000fd5b505050506040513d601f19601f820116820180604052508101906125cf9190614416565b156126285760405162461bcd60e51b815260206004820152602360248201527f4a6f654c656e64696e67537472617465677956333a3a72656465656d206661696044820152621b195960ea1b6064820152608401610cd7565b601354604051633af9e66960e01b81523060048201526000916001600160a01b031690633af9e669906024016020604051808303816000875af1158015612673573d6000803e3d6000fd5b505050506040513d601f19601f820116820180604052508101906126979190614416565b6013546040516305eff7ef60e21b81523060048201529192506000916001600160a01b03909116906317bfdfbc906024016020604051808303816000875af11580156126e7573d6000803e3d6000fd5b505050506040513d601f19601f8201168201806040525081019061270b9190614416565b90508115611714576117148282613222565b60405163a9059cbb60e01b81526001600160a01b0383811660048301526024820183905284169063a9059cbb906044016020604051808303816000875af115801561276c573d6000803e3d6000fd5b505050506040513d601f19601f8201168201806040525081019061279091906143c3565b6117145760405162461bcd60e51b815260206004820152602a60248201527f4a6f654c656e64696e67537472617465677956333a3a5452414e534645525f466044820152691493d357d1905253115160b21b6064820152608401610cd7565b60075415612872573360009081526008602052604090205460ff1615156001146128725760405162461bcd60e51b815260206004820152602e60248201527f5065726d697373696f6e65643a3a6f6e6c79416c6c6f7765644465706f73697460448201526d1ccb081b9bdd08185b1b1bddd95960921b6064820152608401610cd7565b600e5460ff1615156001146128c95760405162461bcd60e51b815260206004820152601e60248201527f4a6f654c656e64696e67537472617465677956333a3a5f6465706f73697400006044820152606401610cd7565b600d54156128fd5760008060006128de6134b6565b925092509250600d548111156128f9576128f98383836136af565b5050505b6009546040516323b872dd60e01b8152336004820152306024820152604481018390526001600160a01b03909116906323b872dd906064016020604051808303816000875af1158015612954573d6000803e3d6000fd5b505050506040513d601f19601f8201168201806040525081019061297891906143c3565b6129d25760405162461bcd60e51b815260206004820152602560248201527f4a6f654c656e64696e67537472617465677956333a3a7472616e736665722066604482015264185a5b195960da1b6064820152608401610cd7565b8060006129dd61236f565b905060006129f68260025461246990919063ffffffff16565b1115612a1857612a1581610c6b6002548661246990919063ffffffff16565b91505b612a2284836138b6565b612a2b8361393a565b836001600160a01b03167fe1fffcc4923d04b559f4d29a8bfc6cda04eb5b0d3c460751c2402c5c5cc9109c84604051612a6691815260200190565b60405180910390a2611094611012565b600080601260009054906101000a90046001600160a01b03166001600160a01b031663acc2166a6040518163ffffffff1660e01b8152600401602060405180830381865afa158015612acc573d6000803e3d6000fd5b505050506040513d601f19601f82011682018060405250810190612af09190614552565b60405163d81c5e4560e01b815260ff861660048201526001600160a01b03858116602483015291925060009183169063d81c5e45906044016040805180830381865afa158015612b44573d6000803e3d6000fd5b505050506040513d601f19601f82011682018060405250810190612b689190614583565b5060135460405163111d2e5760e31b815260ff881660048201526001600160a01b0391821660248201528682166044820152919250600091908416906388e972b890606401602060405180830381865afa158015612bca573d6000803e3d6000fd5b505050506040513d601f19601f82011682018060405250810190612bee9190614416565b9050600081836001600160e01b03161115612c1957612c16826001600160e01b0385166145c4565b90505b6040516312ce829d60e21b815260ff881660048201526001600160a01b03878116602483015260009190861690634b3a0a74906044016040805180830381865afa158015612c6b573d6000803e3d6000fd5b505050506040513d601f19601f82011682018060405250810190612c8f9190614583565b50601354604051637937969d60e01b815260ff8b1660048201526001600160a01b039182166024820152898216604482015291925060009190871690637937969d90606401602060405180830381865afa158015612cf1573d6000803e3d6000fd5b505050506040513d601f19601f82011682018060405250810190612d159190614416565b9050600081836001600160e01b03161115612d4057612d3d826001600160e01b0385166145c4565b90505b6013546040516395dd919360e01b81526001600160a01b038b81166004830152612e6b92612df292612dbb92869216906395dd9193906024015b602060405180830381865afa158015612d97573d6000803e3d6000fd5b505050506040513d601f19601f82011682018060405250810190610c659190614416565b6013546040516370a0823160e01b81526001600160a01b038e8116600483015261124d928a929116906370a0823190602401612d7a565b6040516305b9783d60e01b815260ff8d1660048201526001600160a01b038c811660248301528a16906305b9783d90604401602060405180830381865afa158015612e41573d6000803e3d6000fd5b505050506040513d601f19601f82011682018060405250810190612e659190614416565b906120f6565b9a9950505050505050505050565b6000610c4a82846145c4565b6013546040516305eff7ef60e21b81523060048201526000916001600160a01b0316906317bfdfbc906024016020604051808303816000875af1158015612ed0573d6000803e3d6000fd5b505050506040513d601f19601f82011682018060405250810190612ef49190614416565b601354604051633af9e66960e01b81523060048201529192506000916001600160a01b0390911690633af9e669906024016020604051808303816000875af1158015612f44573d6000803e3d6000fd5b505050506040513d601f19601f82011682018060405250810190612f689190614416565b9050600080612f75613b53565b90925090506000612fb0612f8d8761124d8789612e79565b61124d601954610c6b601854610c658c61124d8d8d612e7990919063ffffffff16565b90506000612fbe8683612e79565b90505b8015613219576000612fd586888787613bdb565b905086811115612fe25750855b60135460405163852a12e360e01b8152600481018390526001600160a01b039091169063852a12e3906024016020604051808303816000875af115801561302d573d6000803e3d6000fd5b505050506040513d601f19601f820116820180604052508101906130519190614416565b156130ad5760405162461bcd60e51b815260206004820152602660248201527f4a6f654c656e64696e67537472617465677956333a3a6661696c656420746f2060448201526572656465656d60d01b6064820152608401610cd7565b60135460405163073a938160e11b8152600481018390526001600160a01b0390911690630e752702906024016020604051808303816000875af11580156130f8573d6000803e3d6000fd5b505050506040513d601f19601f8201168201806040525081019061311c9190614416565b1561317e5760405162461bcd60e51b815260206004820152602c60248201527f4a6f654c656e64696e67537472617465677956333a3a6661696c656420746f2060448201526b726570617920626f72726f7760a01b6064820152608401610cd7565b601354604051633af9e66960e01b81523060048201526001600160a01b0390911690633af9e669906024016020604051808303816000875af11580156131c8573d6000803e3d6000fd5b505050506040513d601f19601f820116820180604052508101906131ec9190614416565b95506131f88782612e79565b96508683106132075750613219565b6132118784612e79565b915050612fc1565b50505050505050565b60008061322d613b53565b9150915060008490506000613257601954610c6b601854610c65898b612e7990919063ffffffff16565b9050845b8183101561321957600061327184838888613bdb565b90508261327e85836120f6565b11156132915761328e8385612e79565b90505b601a548110156132a15750613219565b60135460405163317afabb60e21b8152600481018390526001600160a01b039091169063c5ebeaec906024016020604051808303816000875af11580156132ec573d6000803e3d6000fd5b505050506040513d601f19601f820116820180604052508101906133109190614416565b1561336c5760405162461bcd60e51b815260206004820152602660248201527f4a6f654c656e64696e67537472617465677956333a3a626f72726f77696e672060448201526519985a5b195960d21b6064820152608401610cd7565b60135460405163140e25ad60e31b8152600481018390526001600160a01b039091169063a0712d68906024016020604051808303816000875af11580156133b7573d6000803e3d6000fd5b505050506040513d601f19601f820116820180604052508101906133db9190614416565b156134345760405162461bcd60e51b8152602060048201526024808201527f4a6f654c656e64696e67537472617465677956333a3a6c656e64696e672066616044820152631a5b195960e21b6064820152608401610cd7565b601354604051633af9e66960e01b81523060048201526001600160a01b0390911690633af9e669906024016020604051808303816000875af115801561347e573d6000803e3d6000fd5b505050506040513d601f19601f820116820180604052508101906134a29190614416565b93506134ae82826120f6565b91505061325b565b60008060006134c6600030612a76565b6040516370a0823160e01b815230600482015290935060009073b31f66aa3c1e785363f0875a1b74e27b85fd66c7906370a0823190602401602060405180830381865afa15801561351b573d6000803e3d6000fd5b505050506040513d601f19601f8201168201806040525081019061353f9190614416565b60145460155460165447965092935060009261356d9288926001600160a01b03918216929082169116613c02565b9050848461357f83612e6583876120f6565b9450945094505050909192565b6000613596611ead565b60405161190160f01b602082015260228101919091526042810186905260620160408051601f198184030181528282528051602091820120600080855291840180845281905260ff88169284019290925260608301869052608083018590529092509060019060a0016020604051602081039080840390855afa158015613621573d6000803e3d6000fd5b5050604051601f1901519150506001600160a01b038116158015906136575750866001600160a01b0316816001600160a01b0316145b6132195760405162461bcd60e51b8152602060048201526024808201527f417263683a3a76616c69646174655369673a20696e76616c6964207369676e616044820152637475726560e01b6064820152608401610cd7565b821561374057601254604051630952c56360e01b8152600060048201523060248201526001600160a01b0390911690630952c56390604401600060405180830381600087803b15801561370157600080fd5b505af1158015613715573d6000803e3d6000fd5b505060145460155460165461373e94508793506001600160a01b03928316929182169116613cc0565b505b81156137af5773b31f66aa3c1e785363f0875a1b74e27b85fd66c76001600160a01b031663d0e30db0836040518263ffffffff1660e01b81526004016000604051808303818588803b15801561379557600080fd5b505af11580156137a9573d6000803e3d6000fd5b50505050505b60006137cc612710610c6b6011548561246990919063ffffffff16565b905080156137f157600a54600b546137f1916001600160a01b0390811691168361271d565b600061380e612710610c6b6010548661246990919063ffffffff16565b9050801561382d57600a5461382d906001600160a01b0316338361271d565b600061385f6138408361124d8787612e79565b6015546009546017546001600160a01b03928316929182169116613cc0565b905061386a8161393a565b7fc7606d21ac05cd309191543e409f0845c016120563783d70e4f41419dc0ef2346138936111b5565b6002546040805192835260208301919091520160405180910390a1505050505050565b6002546138c390826120f6565b6002556001600160a01b0382166000908152600460205260409020546138e990826120f6565b6001600160a01b0383166000818152600460205260408082209390935591519091907fddf252ad1be2c89b69c2b068fc378daa952ba7f163c4a11628f55a4df523b3ef9061254b9085815260200190565b6000811161399c5760405162461bcd60e51b815260206004820152602960248201527f4a6f654c656e64696e67537472617465677956333a3a5f7374616b654465706f604482015268736974546f6b656e7360b81b6064820152608401610cd7565b60135460405163140e25ad60e31b8152600481018390526001600160a01b039091169063a0712d68906024016020604051808303816000875af11580156139e7573d6000803e3d6000fd5b505050506040513d601f19601f82011682018060405250810190613a0b9190614416565b15613a645760405162461bcd60e51b8152602060048201526024808201527f4a6f654c656e64696e67537472617465677956333a3a4465706f7369742066616044820152631a5b195960e21b6064820152608401610cd7565b6013546040516305eff7ef60e21b81523060048201526000916001600160a01b0316906317bfdfbc906024016020604051808303816000875af1158015613aaf573d6000803e3d6000fd5b505050506040513d601f19601f82011682018060405250810190613ad39190614416565b601354604051633af9e66960e01b81523060048201529192506000916001600160a01b0390911690633af9e669906024016020604051808303816000875af1158015613b23573d6000803e3d6000fd5b505050506040513d601f19601f82011682018060405250810190613b479190614416565b90506117148183613222565b601254601354604051638e8f294b60e01b81526001600160a01b03918216600482015260009283928392911690638e8f294b906024016040805180830381865afa158015613ba5573d6000803e3d6000fd5b505050506040513d601f19601f82011682018060405250810190613bc991906145db565b94670de0b6b3a7640000945092505050565b6000613bf96103e8610c6b6103b6610c658861124d88858d8c612469565b95945050505050565b600080613c0f8585613e31565b509050600080846001600160a01b0316630902f1ac6040518163ffffffff1660e01b8152600401606060405180830381865afa158015613c53573d6000803e3d6000fd5b505050506040513d601f19601f82011682018060405250810190613c779190614620565b5091509150866001600160a01b0316836001600160a01b031614613c9757905b613cb488836001600160701b0316836001600160701b0316613e62565b98975050505050505050565b600080613ccd8585613e31565b509050600080846001600160a01b0316630902f1ac6040518163ffffffff1660e01b8152600401606060405180830381865afa158015613d11573d6000803e3d6000fd5b505050506040513d601f19601f82011682018060405250810190613d359190614620565b5091509150866001600160a01b0316836001600160a01b031614613d5557905b600080613d758a856001600160701b0316856001600160701b0316613e62565b9050886001600160a01b0316856001600160a01b031614613d9257905b613da66001600160a01b038a16888c613eaa565b6040805160008152602081019182905263022c0d9f60e01b9091526001600160a01b0388169063022c0d9f90613de59085908590309060248101614663565b600060405180830381600087803b158015613dff57600080fd5b505af1158015613e13573d6000803e3d6000fd5b50505050818111613e245781612e6b565b9998505050505050505050565b600080826001600160a01b0316846001600160a01b031610613e54578284613e57565b83835b915091509250929050565b600080613e71856103e5612469565b90506000613e7f8285612469565b90506000613e9383612e65886103e8612469565b9050613e9f8282612475565b979650505050505050565b604080516001600160a01b03848116602483015260448083018590528351808403909101815260649092018352602080830180516001600160e01b031663a9059cbb60e01b17905283518085019094528084527f5361666545524332303a206c6f772d6c6576656c2063616c6c206661696c65649084015261171492869291600091613f3a918516908490613fb7565b8051909150156117145780806020019051810190613f5891906143c3565b6117145760405162461bcd60e51b815260206004820152602a60248201527f5361666545524332303a204552433230206f7065726174696f6e20646964206e6044820152691bdd081cdd58d8d9595960b21b6064820152608401610cd7565b6060611a6f8484600085856001600160a01b0385163b6140195760405162461bcd60e51b815260206004820152601d60248201527f416464726573733a2063616c6c20746f206e6f6e2d636f6e74726163740000006044820152606401610cd7565b600080866001600160a01b03168587604051614035919061469a565b60006040518083038185875af1925050503d8060008114614072576040519150601f19603f3d011682016040523d82523d6000602084013e614077565b606091505b5091509150613e9f82828660608315614091575081610c4a565b8251156140a15782518084602001fd5b8160405162461bcd60e51b8152600401610cd79190614113565b60005b838110156140d65781810151838201526020016140be565b838111156110945750506000910152565b600081518084526140ff8160208601602086016140bb565b601f01601f19169290920160200192915050565b602081526000610c4a60208301846140e7565b6001600160a01b0381168114611a2257600080fd5b6000806040838503121561414e57600080fd5b823561415981614126565b946020939093013593505050565b60008060006060848603121561417c57600080fd5b833561418781614126565b9250602084013561419781614126565b929592945050506040919091013590565b6000602082840312156141ba57600080fd5b5035919050565b6000602082840312156141d357600080fd5b8135610c4a81614126565b803560ff811681146141ef57600080fd5b919050565b600080600080600060a0868803121561420c57600080fd5b8535945060208601359350614223604087016141de565b94979396509394606081013594506080013592915050565b8015158114611a2257600080fd5b60006020828403121561425b57600080fd5b8135610c4a8161423b565b6000806040838503121561427957600080fd5b823561428481614126565b9150602083013561429481614126565b809150509250929050565b600080604083850312156142b257600080fd5b50508035926020909101359150565b600080604083850312156142d457600080fd5b8235915060208301356142948161423b565b600080600080600080600060e0888a03121561430157600080fd5b873561430c81614126565b9650602088013561431c81614126565b95506040880135945060608801359350614338608089016141de565b925060a0880135915060c0880135905092959891949750929550565b600181811c9082168061436857607f821691505b60208210810361438857634e487b7160e01b600052602260045260246000fd5b50919050565b6020808252818101527f4f776e61626c653a2063616c6c6572206973206e6f7420746865206f776e6572604082015260600190565b6000602082840312156143d557600080fd5b8151610c4a8161423b565b600080600080608085870312156143f657600080fd5b505082516020840151604085015160609095015191969095509092509050565b60006020828403121561442857600080fd5b5051919050565b634e487b7160e01b600052601160045260246000fd5b6000600182016144575761445761442f565b5060010190565b600080835481600182811c91508083168061447a57607f831692505b6020808410820361449957634e487b7160e01b86526022600452602486fd5b8180156144ad57600181146144be576144eb565b60ff198616895284890196506144eb565b60008a81526020902060005b868110156144e35781548b8201529085019083016144ca565b505084890196505b509498975050505050505050565b6000821982111561450c5761450c61442f565b500190565b600081600019048311821515161561452b5761452b61442f565b500290565b60008261454d57634e487b7160e01b600052601260045260246000fd5b500490565b60006020828403121561456457600080fd5b8151610c4a81614126565b805163ffffffff811681146141ef57600080fd5b6000806040838503121561459657600080fd5b82516001600160e01b03811681146145ad57600080fd5b91506145bb6020840161456f565b90509250929050565b6000828210156145d6576145d661442f565b500390565b600080604083850312156145ee57600080fd5b82516145f98161423b565b6020939093015192949293505050565b80516001600160701b03811681146141ef57600080fd5b60008060006060848603121561463557600080fd5b61463e84614609565b925061464c60208501614609565b915061465a6040850161456f565b90509250925092565b84815283602082015260018060a01b038316604082015260806060820152600061469060808301846140e7565b9695505050505050565b600082516146ac8184602087016140bb565b919091019291505056fe5f6275726e3a206275726e20616d6f756e74206578636565647320746f74616c20737570706c797472616e7366657246726f6d3a207472616e7366657220616d6f756e74206578636565647320616c6c6f77616e63655f6275726e3a206275726e20616d6f756e7420657863656564732066726f6d2062616c616e63655f7472616e73666572546f6b656e733a207472616e7366657220657863656564732066726f6d2062616c616e6365a264697066735822122099425b7ea23de1252375d1c296a2d4902cfc741b1b6176be87da6dfcd95be40a64736f6c634300080d00334f776e61626c653a2063616c6c6572206973206e6f7420746865206f776e65728be0079c531659141344cd1fd0a4f28419497f9722a3daafe3b4186f6b6457e0537761702070616972203020646f6573206e6f74206d61746368207265776172",
    "linkReferences": {}
  },
  "methodIdentifiers": {
    "ADMIN_FEE_BIPS()": "07677111",
    "DEPOSITS_ENABLED()": "b52a321f",
    "DEV_FEE_BIPS()": "5ea682ea",
    "DOMAIN_TYPEHASH()": "20606b70",
    "MAX_TOKENS_TO_DEPOSIT_WITHOUT_REINVEST()": "789139bc",
    "MIN_TOKENS_TO_REINVEST()": "bd079f55",
    "PERMIT_TYPEHASH()": "30adf81f",
    "REINVEST_REWARD_BIPS()": "8aff733d",
    "VERSION_HASH()": "9e4e7318",
    "allowDepositor(address)": "4bebd1e7",
    "allowance(address,address)": "dd62ed3e",
    "allowedDepositors(address)": "483c2ef0",
    "approve(address,uint256)": "095ea7b3",
    "balanceOf(address)": "70a08231",
    "checkReward()": "c4b24a46",
    "claimAVAXRewards()": "5b53ce10",
    "decimals()": "313ce567",
    "deposit(uint256)": "b6b55f25",
    "depositFor(address,uint256)": "2f4f21e2",
    "depositToken()": "c89039c5",
    "depositWithPermit(uint256,uint256,uint8,bytes32,bytes32)": "4a970be7",
    "devAddr()": "da09c72c",
    "estimateDeployedBalance()": "0f23475d",
    "estimateReinvestReward()": "b9e57b80",
    "getActualLeverage()": "db8dd95c",
    "getDepositTokensForShares(uint256)": "eab89a5a",
    "getDomainSeparator()": "ed24911d",
    "getSharesForDepositTokens(uint256)": "dd8ce4d6",
    "name()": "06fdde03",
    "nonces(address)": "7ecebe00",
    "numberOfAllowedDepositors()": "3bdc6e72",
    "owner()": "8da5cb5b",
    "permit(address,address,uint256,uint256,uint8,bytes32,bytes32)": "d505accf",
    "recoverAVAX(uint256)": "4ebb7916",
    "recoverERC20(address,uint256)": "8980f11f",
    "reinvest()": "fdb5a03e",
    "removeDepositor(address)": "8b73e606",
    "renounceOwnership()": "715018a6",
    "rescueDeployedFunds(uint256,bool)": "ac0d31ff",
    "revokeAllowance(address,address)": "7ae26773",
    "rewardToken()": "f7c618c1",
    "setAllowances()": "dbd9a4d4",
    "symbol()": "95d89b41",
    "totalDeposits()": "7d882097",
    "totalSupply()": "18160ddd",
    "transfer(address,uint256)": "a9059cbb",
    "transferFrom(address,address,uint256)": "23b872dd",
    "transferOwnership(address)": "f2fde38b",
    "updateAdminFee(uint256)": "cff1b6ef",
    "updateDepositsEnabled(bool)": "4e77ace5",
    "updateDevAddr(address)": "9291d563",
    "updateDevFee(uint256)": "99729ec1",
    "updateLeverage(uint256,uint256)": "a24159d3",
    "updateMaxTokensToDepositWithoutReinvest(uint256)": "e21ac825",
    "updateMinTokensToReinvest(uint256)": "81837230",
    "updateReinvestReward(uint256)": "a8ae2b7c",
    "withdraw(uint256)": "2e1a7d4d"
  },
  "id": 52
}