{
  "abi": [
    {
      "inputs": [
        {
          "internalType": "address",
          "name": "_team",
          "type": "address"
        },
        {
          "internalType": "address",
          "name": "_deployer",
          "type": "address"
        },
        {
          "internalType": "address",
          "name": "_treasury",
          "type": "address"
        }
      ],
      "stateMutability": "nonpayable",
      "type": "constructor"
    },
    {
      "anonymous": false,
      "inputs": [
        {
          "indexed": false,
          "internalType": "address",
          "name": "strategy",
          "type": "address"
        },
        {
          "indexed": false,
          "internalType": "uint256",
          "name": "oldValue",
          "type": "uint256"
        },
        {
          "indexed": false,
          "internalType": "uint256",
          "name": "newValue",
          "type": "uint256"
        }
      ],
      "name": "BoostFeeUpdated",
      "type": "event"
    },
    {
      "anonymous": false,
      "inputs": [
        {
          "indexed": false,
          "internalType": "bool",
          "name": "paused",
          "type": "bool"
        }
      ],
      "name": "Paused",
      "type": "event"
    },
    {
      "anonymous": false,
      "inputs": [
        {
          "indexed": true,
          "internalType": "bytes32",
          "name": "role",
          "type": "bytes32"
        },
        {
          "indexed": true,
          "internalType": "bytes32",
          "name": "previousAdminRole",
          "type": "bytes32"
        },
        {
          "indexed": true,
          "internalType": "bytes32",
          "name": "newAdminRole",
          "type": "bytes32"
        }
      ],
      "name": "RoleAdminChanged",
      "type": "event"
    },
    {
      "anonymous": false,
      "inputs": [
        {
          "indexed": true,
          "internalType": "bytes32",
          "name": "role",
          "type": "bytes32"
        },
        {
          "indexed": true,
          "internalType": "address",
          "name": "account",
          "type": "address"
        },
        {
          "indexed": true,
          "internalType": "address",
          "name": "sender",
          "type": "address"
        }
      ],
      "name": "RoleGranted",
      "type": "event"
    },
    {
      "anonymous": false,
      "inputs": [
        {
          "indexed": true,
          "internalType": "bytes32",
          "name": "role",
          "type": "bytes32"
        },
        {
          "indexed": true,
          "internalType": "address",
          "name": "account",
          "type": "address"
        },
        {
          "indexed": true,
          "internalType": "address",
          "name": "sender",
          "type": "address"
        }
      ],
      "name": "RoleRevoked",
      "type": "event"
    },
    {
      "anonymous": false,
      "inputs": [
        {
          "indexed": true,
          "internalType": "address",
          "name": "sweeper",
          "type": "address"
        },
        {
          "indexed": true,
          "internalType": "address",
          "name": "token",
          "type": "address"
        },
        {
          "indexed": false,
          "internalType": "uint256",
          "name": "amount",
          "type": "uint256"
        }
      ],
      "name": "Sweep",
      "type": "event"
    },
    {
      "inputs": [],
      "name": "DEFAULT_ADMIN_ROLE",
      "outputs": [
        {
          "internalType": "bytes32",
          "name": "",
          "type": "bytes32"
        }
      ],
      "stateMutability": "view",
      "type": "function"
    },
    {
      "inputs": [],
      "name": "FEE_SETTER_ROLE",
      "outputs": [
        {
          "internalType": "bytes32",
          "name": "",
          "type": "bytes32"
        }
      ],
      "stateMutability": "view",
      "type": "function"
    },
    {
      "inputs": [],
      "name": "PTP",
      "outputs": [
        {
          "internalType": "contract IERC20",
          "name": "",
          "type": "address"
        }
      ],
      "stateMutability": "view",
      "type": "function"
    },
    {
      "inputs": [],
      "name": "TOKEN_SWEEPER_ROLE",
      "outputs": [
        {
          "internalType": "bytes32",
          "name": "",
          "type": "bytes32"
        }
      ],
      "stateMutability": "view",
      "type": "function"
    },
    {
      "inputs": [],
      "name": "VOTER",
      "outputs": [
        {
          "internalType": "contract IPlatypusVoter",
          "name": "",
          "type": "address"
        }
      ],
      "stateMutability": "view",
      "type": "function"
    },
    {
      "inputs": [
        {
          "internalType": "address",
          "name": "",
          "type": "address"
        }
      ],
      "name": "boostFeeBips",
      "outputs": [
        {
          "internalType": "uint256",
          "name": "",
          "type": "uint256"
        }
      ],
      "stateMutability": "view",
      "type": "function"
    },
    {
      "inputs": [
        {
          "internalType": "address",
          "name": "_strategy",
          "type": "address"
        },
        {
          "internalType": "uint256",
          "name": "_amount",
          "type": "uint256"
        }
      ],
      "name": "calculateBoostFee",
      "outputs": [
        {
          "internalType": "uint256",
          "name": "",
          "type": "uint256"
        }
      ],
      "stateMutability": "view",
      "type": "function"
    },
    {
      "inputs": [],
      "name": "compound",
      "outputs": [],
      "stateMutability": "nonpayable",
      "type": "function"
    },
    {
      "inputs": [
        {
          "internalType": "bytes32",
          "name": "role",
          "type": "bytes32"
        }
      ],
      "name": "getRoleAdmin",
      "outputs": [
        {
          "internalType": "bytes32",
          "name": "",
          "type": "bytes32"
        }
      ],
      "stateMutability": "view",
      "type": "function"
    },
    {
      "inputs": [
        {
          "internalType": "bytes32",
          "name": "role",
          "type": "bytes32"
        },
        {
          "internalType": "uint256",
          "name": "index",
          "type": "uint256"
        }
      ],
      "name": "getRoleMember",
      "outputs": [
        {
          "internalType": "address",
          "name": "",
          "type": "address"
        }
      ],
      "stateMutability": "view",
      "type": "function"
    },
    {
      "inputs": [
        {
          "internalType": "bytes32",
          "name": "role",
          "type": "bytes32"
        }
      ],
      "name": "getRoleMemberCount",
      "outputs": [
        {
          "internalType": "uint256",
          "name": "",
          "type": "uint256"
        }
      ],
      "stateMutability": "view",
      "type": "function"
    },
    {
      "inputs": [
        {
          "internalType": "bytes32",
          "name": "role",
          "type": "bytes32"
        },
        {
          "internalType": "address",
          "name": "account",
          "type": "address"
        }
      ],
      "name": "grantRole",
      "outputs": [],
      "stateMutability": "nonpayable",
      "type": "function"
    },
    {
      "inputs": [
        {
          "internalType": "bytes32",
          "name": "role",
          "type": "bytes32"
        },
        {
          "internalType": "address",
          "name": "account",
          "type": "address"
        }
      ],
      "name": "hasRole",
      "outputs": [
        {
          "internalType": "bool",
          "name": "",
          "type": "bool"
        }
      ],
      "stateMutability": "view",
      "type": "function"
    },
    {
      "inputs": [],
      "name": "paused",
      "outputs": [
        {
          "internalType": "bool",
          "name": "",
          "type": "bool"
        }
      ],
      "stateMutability": "view",
      "type": "function"
    },
    {
      "inputs": [
        {
          "internalType": "bytes32",
          "name": "role",
          "type": "bytes32"
        },
        {
          "internalType": "address",
          "name": "account",
          "type": "address"
        }
      ],
      "name": "renounceRole",
      "outputs": [],
      "stateMutability": "nonpayable",
      "type": "function"
    },
    {
      "inputs": [
        {
          "internalType": "bytes32",
          "name": "role",
          "type": "bytes32"
        },
        {
          "internalType": "address",
          "name": "account",
          "type": "address"
        }
      ],
      "name": "revokeRole",
      "outputs": [],
      "stateMutability": "nonpayable",
      "type": "function"
    },
    {
      "inputs": [
        {
          "internalType": "address",
          "name": "_strategy",
          "type": "address"
        },
        {
          "internalType": "uint256",
          "name": "_boostFeeBips",
          "type": "uint256"
        }
      ],
      "name": "setBoostFee",
      "outputs": [],
      "stateMutability": "nonpayable",
      "type": "function"
    },
    {
      "inputs": [
        {
          "internalType": "bool",
          "name": "_paused",
          "type": "bool"
        }
      ],
      "name": "setPaused",
      "outputs": [],
      "stateMutability": "nonpayable",
      "type": "function"
    },
    {
      "inputs": [
        {
          "internalType": "address",
          "name": "tokenAddress",
          "type": "address"
        },
        {
          "internalType": "uint256",
          "name": "tokenAmount",
          "type": "uint256"
        }
      ],
      "name": "sweepTokens",
      "outputs": [],
      "stateMutability": "nonpayable",
      "type": "function"
    }
  ],
  "bytecode": {
    "object": "0x60806040526002805460ff191690553480156200001b57600080fd5b506040516200142c3803806200142c8339810160408190526200003e91620001af565b620000596000805160206200140c83398151915283620000a9565b620000746000805160206200140c83398151915284620000a9565b620000a07faaeb0e7b67698f8ec0689e359bbe895bc1bc081c58211f57940cf243fc05a21882620000a9565b505050620001f9565b620000b58282620000b9565b5050565b600082815260208181526040909120620000de91839062000a0d62000120821b17901c565b15620000b55760405133906001600160a01b0383169084907f2f8788117e7eff1d82e926ec794901d17c78024a50270940304540a733656f0d90600090a45050565b600062000137836001600160a01b03841662000140565b90505b92915050565b600081815260018301602052604081205462000189575081546001818101845560008481526020808220909301849055845484825282860190935260409020919091556200013a565b5060006200013a565b80516001600160a01b0381168114620001aa57600080fd5b919050565b600080600060608486031215620001c557600080fd5b620001d08462000192565b9250620001e06020850162000192565b9150620001f06040850162000192565b90509250925092565b61120380620002096000396000f3fe608060405234801561001057600080fd5b50600436106101215760003560e01c806391d14854116100ad578063e580349c11610071578063e580349c14610290578063e9347683146102a3578063f2daef2c146102ca578063f69e2046146102dd578063fc328267146102e557600080fd5b806391d148541461023c578063a217fddf1461024f578063ca15c87314610257578063d547741f1461026a578063dec660361461027d57600080fd5b806336568abe116100f457806336568abe146101ab5780635c975abb146101be5780638dc1564a146101db5780638ebf2fd61461020e5780639010d07c1461022957600080fd5b806312980afe1461012657806316c38b3c14610160578063248a9ca3146101755780632f2ff15d14610198575b600080fd5b61014d7faaeb0e7b67698f8ec0689e359bbe895bc1bc081c58211f57940cf243fc05a21881565b6040519081526020015b60405180910390f35b61017361016e366004610f62565b610305565b005b61014d610183366004610f7f565b60009081526020819052604090206002015490565b6101736101a6366004610fb4565b6103f3565b6101736101b9366004610fb4565b610481565b6002546101cb9060ff1681565b6040519015158152602001610157565b6101f67322d4002028f537599be9f666d1c4fa138522f9c881565b6040516001600160a01b039091168152602001610157565b6101f67340089e90156fc6f994cc0ec86dbe84634a1c156f81565b6101f6610237366004610fe0565b6104fb565b6101cb61024a366004610fb4565b61051c565b61014d600081565b61014d610265366004610f7f565b610534565b610173610278366004610fb4565b61054b565b61017361028b366004611002565b6105cc565b61017361029e366004611002565b61072b565b61014d7fe6ad9a47fbda1dc18de1eb5eeb7d935e5e81b4748f3cfc61e233e64f8818206081565b61014d6102d8366004611002565b61084e565b61017361089b565b61014d6102f336600461102c565b60016020526000908152604090205481565b61032f7fe6ad9a47fbda1dc18de1eb5eeb7d935e5e81b4748f3cfc61e233e64f881820603361051c565b6103545760405162461bcd60e51b815260040161034b90611047565b60405180910390fd5b60025460ff161515811515036103ac5760405162461bcd60e51b815260206004820181905260248201527f426f6f73746572466565436f6c6c6563746f723a3a616c726561647920736574604482015260640161034b565b6002805460ff19168215159081179091556040519081527f0e2fb031ee032dc02d8011dc50b816eb450cf856abd8261680dac74f72165bd29060200160405180910390a150565b60008281526020819052604090206002015461040f903361051c565b6104735760405162461bcd60e51b815260206004820152602f60248201527f416363657373436f6e74726f6c3a2073656e646572206d75737420626520616e60448201526e0818591b5a5b881d1bc819dc985b9d608a1b606482015260840161034b565b61047d8282610a22565b5050565b6001600160a01b03811633146104f15760405162461bcd60e51b815260206004820152602f60248201527f416363657373436f6e74726f6c3a2063616e206f6e6c792072656e6f756e636560448201526e103937b632b9903337b91039b2b63360891b606482015260840161034b565b61047d8282610a7b565b60008281526020819052604081206105139083610ad4565b90505b92915050565b60008281526020819052604081206105139083610ae0565b600081815260208190526040812061051690610b02565b600082815260208190526040902060020154610567903361051c565b6104f15760405162461bcd60e51b815260206004820152603060248201527f416363657373436f6e74726f6c3a2073656e646572206d75737420626520616e60448201526f2061646d696e20746f207265766f6b6560801b606482015260840161034b565b6105f67faaeb0e7b67698f8ec0689e359bbe895bc1bc081c58211f57940cf243fc05a2183361051c565b6106125760405162461bcd60e51b815260040161034b90611047565b6040516370a0823160e01b81523060048201526000906001600160a01b038416906370a0823190602401602060405180830381865afa158015610659573d6000803e3d6000fd5b505050506040513d601f19601f8201168201806040525081019061067d919061107e565b90508181101561068b578091505b600082116106d25760405162461bcd60e51b81526020600482015260146024820152737377656570546f6b656e733a3a62616c616e636560601b604482015260640161034b565b6106e66001600160a01b0384163384610b0c565b6040518281526001600160a01b0384169033907fed679328aebf74ede77ae09efcf36e90244f83643dadac1c2d9f0b21a46f6ab79060200160405180910390a3505050565b6107557fe6ad9a47fbda1dc18de1eb5eeb7d935e5e81b4748f3cfc61e233e64f881820603361051c565b6107715760405162461bcd60e51b815260040161034b90611047565b6127108111156107da5760405162461bcd60e51b815260206004820152602e60248201527f426f6f73746572466565436f6c6c6563746f723a3a43686f73656e20626f6f7360448201526d0e840cccaca40e8dede40d0d2ced60931b606482015260840161034b565b6001600160a01b0382166000818152600160209081526040918290205482519384529083015281018290527fd041dbc1b864058b04c804f7b0bc7ebf7bb91e25f4bbfffb774c00d0e11b67cd9060600160405180910390a16001600160a01b03909116600090815260016020526040902055565b60025460009060ff161561086457506000610516565b6001600160a01b03831660009081526001602052604090205461089361271061088d8584610b63565b90610b6f565b949350505050565b6040516370a0823160e01b81523060048201526000907322d4002028f537599be9f666d1c4fa138522f9c8906370a0823190602401602060405180830381865afa1580156108ed573d6000803e3d6000fd5b505050506040513d601f19601f82011682018060405250810190610911919061107e565b60405163095ea7b360e01b81527340089e90156fc6f994cc0ec86dbe84634a1c156f6004820152602481018290529091507322d4002028f537599be9f666d1c4fa138522f9c89063095ea7b3906044016020604051808303816000875af1158015610980573d6000803e3d6000fd5b505050506040513d601f19601f820116820180604052508101906109a49190611097565b5060405163b6b55f2560e01b8152600481018290527340089e90156fc6f994cc0ec86dbe84634a1c156f9063b6b55f2590602401600060405180830381600087803b1580156109f257600080fd5b505af1158015610a06573d6000803e3d6000fd5b5050505050565b6000610513836001600160a01b038416610b7b565b6000828152602081905260409020610a3a9082610a0d565b1561047d5760405133906001600160a01b0383169084907f2f8788117e7eff1d82e926ec794901d17c78024a50270940304540a733656f0d90600090a45050565b6000828152602081905260409020610a939082610bca565b1561047d5760405133906001600160a01b0383169084907ff6391f5c32d9c69d2a47ea670b442974b53935d1edc7fd64eb21e047a839171b90600090a45050565b60006105138383610bdf565b6001600160a01b03811660009081526001830160205260408120541515610513565b6000610516825490565b604080516001600160a01b038416602482015260448082018490528251808303909101815260649091019091526020810180516001600160e01b031663a9059cbb60e01b179052610b5e908490610c09565b505050565b600061051382846110ca565b600061051382846110e9565b6000818152600183016020526040812054610bc257508154600181810184556000848152602080822090930184905584548482528286019093526040902091909155610516565b506000610516565b6000610513836001600160a01b038416610cdb565b6000826000018281548110610bf657610bf661110b565b9060005260206000200154905092915050565b6000610c5e826040518060400160405280602081526020017f5361666545524332303a206c6f772d6c6576656c2063616c6c206661696c6564815250856001600160a01b0316610dce9092919063ffffffff16565b805190915015610b5e5780806020019051810190610c7c9190611097565b610b5e5760405162461bcd60e51b815260206004820152602a60248201527f5361666545524332303a204552433230206f7065726174696f6e20646964206e6044820152691bdd081cdd58d8d9595960b21b606482015260840161034b565b60008181526001830160205260408120548015610dc4576000610cff600183611121565b8554909150600090610d1390600190611121565b9050818114610d78576000866000018281548110610d3357610d3361110b565b9060005260206000200154905080876000018481548110610d5657610d5661110b565b6000918252602080832090910192909255918252600188019052604090208390555b8554869080610d8957610d89611138565b600190038181906000526020600020016000905590558560010160008681526020019081526020016000206000905560019350505050610516565b6000915050610516565b6060610ddd8484600085610de7565b90505b9392505050565b606082471015610e485760405162461bcd60e51b815260206004820152602660248201527f416464726573733a20696e73756666696369656e742062616c616e636520666f6044820152651c8818d85b1b60d21b606482015260840161034b565b6001600160a01b0385163b610e9f5760405162461bcd60e51b815260206004820152601d60248201527f416464726573733a2063616c6c20746f206e6f6e2d636f6e7472616374000000604482015260640161034b565b600080866001600160a01b03168587604051610ebb919061117e565b60006040518083038185875af1925050503d8060008114610ef8576040519150601f19603f3d011682016040523d82523d6000602084013e610efd565b606091505b5091509150610f0d828286610f18565b979650505050505050565b60608315610f27575081610de0565b825115610f375782518084602001fd5b8160405162461bcd60e51b815260040161034b919061119a565b8015158114610f5f57600080fd5b50565b600060208284031215610f7457600080fd5b8135610de081610f51565b600060208284031215610f9157600080fd5b5035919050565b80356001600160a01b0381168114610faf57600080fd5b919050565b60008060408385031215610fc757600080fd5b82359150610fd760208401610f98565b90509250929050565b60008060408385031215610ff357600080fd5b50508035926020909101359150565b6000806040838503121561101557600080fd5b61101e83610f98565b946020939093013593505050565b60006020828403121561103e57600080fd5b61051382610f98565b60208082526019908201527f426f6f73746572466565436f6c6c6563746f723a3a6175746800000000000000604082015260600190565b60006020828403121561109057600080fd5b5051919050565b6000602082840312156110a957600080fd5b8151610de081610f51565b634e487b7160e01b600052601160045260246000fd5b60008160001904831182151516156110e4576110e46110b4565b500290565b60008261110657634e487b7160e01b600052601260045260246000fd5b500490565b634e487b7160e01b600052603260045260246000fd5b600082821015611133576111336110b4565b500390565b634e487b7160e01b600052603160045260246000fd5b60005b83811015611169578181015183820152602001611151565b83811115611178576000848401525b50505050565b6000825161119081846020870161114e565b9190910192915050565b60208152600082518060208401526111b981604085016020870161114e565b601f01601f1916919091016040019291505056fea26469706673582212201baf82695affa98b6611af2d08497f5179b803add9fc00583c21d2eed2140da064736f6c634300080d0033e6ad9a47fbda1dc18de1eb5eeb7d935e5e81b4748f3cfc61e233e64f88182060",
    "linkReferences": {}
  },
  "methodIdentifiers": {
    "DEFAULT_ADMIN_ROLE()": "a217fddf",
    "FEE_SETTER_ROLE()": "e9347683",
    "PTP()": "8dc1564a",
    "TOKEN_SWEEPER_ROLE()": "12980afe",
    "VOTER()": "8ebf2fd6",
    "boostFeeBips(address)": "fc328267",
    "calculateBoostFee(address,uint256)": "f2daef2c",
    "compound()": "f69e2046",
    "getRoleAdmin(bytes32)": "248a9ca3",
    "getRoleMember(bytes32,uint256)": "9010d07c",
    "getRoleMemberCount(bytes32)": "ca15c873",
    "grantRole(bytes32,address)": "2f2ff15d",
    "hasRole(bytes32,address)": "91d14854",
    "paused()": "5c975abb",
    "renounceRole(bytes32,address)": "36568abe",
    "revokeRole(bytes32,address)": "d547741f",
    "setBoostFee(address,uint256)": "e580349c",
    "setPaused(bool)": "16c38b3c",
    "sweepTokens(address,uint256)": "dec66036"
  },
  "id": 170
}