{
  "abi": [
    {
      "inputs": [
        {
          "internalType": "string",
          "name": "_name",
          "type": "string"
        },
        {
          "components": [
            {
              "internalType": "address",
              "name": "depositToken",
              "type": "address"
            },
            {
              "internalType": "address",
              "name": "underlyingToken",
              "type": "address"
            },
            {
              "internalType": "address",
              "name": "poolRewardToken",
              "type": "address"
            }
          ],
          "internalType": "struct StargateStrategyForLP.Tokens",
          "name": "_tokens",
          "type": "tuple"
        },
        {
          "internalType": "address",
          "name": "_swapPairPoolReward",
          "type": "address"
        },
        {
          "internalType": "address",
          "name": "_swapPairRewardTokenUnderlying",
          "type": "address"
        },
        {
          "internalType": "address",
          "name": "_stakingContract",
          "type": "address"
        },
        {
          "internalType": "uint256",
          "name": "_pid",
          "type": "uint256"
        },
        {
          "internalType": "address",
          "name": "_stargateRouter",
          "type": "address"
        },
        {
          "internalType": "uint256",
          "name": "_routerPid",
          "type": "uint256"
        },
        {
          "internalType": "address",
          "name": "_timelock",
          "type": "address"
        },
        {
          "components": [
            {
              "internalType": "uint256",
              "name": "minTokensToReinvest",
              "type": "uint256"
            },
            {
              "internalType": "uint256",
              "name": "devFeeBips",
              "type": "uint256"
            },
            {
              "internalType": "uint256",
              "name": "reinvestRewardBips",
              "type": "uint256"
            }
          ],
          "internalType": "struct YakStrategyV2.StrategySettings",
          "name": "_strategySettings",
          "type": "tuple"
        }
      ],
      "stateMutability": "nonpayable",
      "type": "constructor"
    },
    {
      "anonymous": false,
      "inputs": [
        {
          "indexed": true,
          "internalType": "address",
          "name": "account",
          "type": "address"
        }
      ],
      "name": "AllowDepositor",
      "type": "event"
    },
    {
      "anonymous": false,
      "inputs": [
        {
          "indexed": true,
          "internalType": "address",
          "name": "owner",
          "type": "address"
        },
        {
          "indexed": true,
          "internalType": "address",
          "name": "spender",
          "type": "address"
        },
        {
          "indexed": false,
          "internalType": "uint256",
          "name": "value",
          "type": "uint256"
        }
      ],
      "name": "Approval",
      "type": "event"
    },
    {
      "anonymous": false,
      "inputs": [
        {
          "indexed": true,
          "internalType": "address",
          "name": "account",
          "type": "address"
        },
        {
          "indexed": false,
          "internalType": "uint256",
          "name": "amount",
          "type": "uint256"
        }
      ],
      "name": "Deposit",
      "type": "event"
    },
    {
      "anonymous": false,
      "inputs": [
        {
          "indexed": false,
          "internalType": "bool",
          "name": "newValue",
          "type": "bool"
        }
      ],
      "name": "DepositsEnabled",
      "type": "event"
    },
    {
      "anonymous": false,
      "inputs": [
        {
          "indexed": true,
          "internalType": "address",
          "name": "previousOwner",
          "type": "address"
        },
        {
          "indexed": true,
          "internalType": "address",
          "name": "newOwner",
          "type": "address"
        }
      ],
      "name": "OwnershipTransferred",
      "type": "event"
    },
    {
      "anonymous": false,
      "inputs": [
        {
          "indexed": false,
          "internalType": "address",
          "name": "token",
          "type": "address"
        },
        {
          "indexed": false,
          "internalType": "uint256",
          "name": "amount",
          "type": "uint256"
        }
      ],
      "name": "Recovered",
      "type": "event"
    },
    {
      "anonymous": false,
      "inputs": [
        {
          "indexed": false,
          "internalType": "uint256",
          "name": "newTotalDeposits",
          "type": "uint256"
        },
        {
          "indexed": false,
          "internalType": "uint256",
          "name": "newTotalSupply",
          "type": "uint256"
        }
      ],
      "name": "Reinvest",
      "type": "event"
    },
    {
      "anonymous": false,
      "inputs": [
        {
          "indexed": true,
          "internalType": "address",
          "name": "account",
          "type": "address"
        }
      ],
      "name": "RemoveDepositor",
      "type": "event"
    },
    {
      "anonymous": false,
      "inputs": [
        {
          "indexed": true,
          "internalType": "address",
          "name": "from",
          "type": "address"
        },
        {
          "indexed": true,
          "internalType": "address",
          "name": "to",
          "type": "address"
        },
        {
          "indexed": false,
          "internalType": "uint256",
          "name": "value",
          "type": "uint256"
        }
      ],
      "name": "Transfer",
      "type": "event"
    },
    {
      "anonymous": false,
      "inputs": [
        {
          "indexed": false,
          "internalType": "uint256",
          "name": "oldValue",
          "type": "uint256"
        },
        {
          "indexed": false,
          "internalType": "uint256",
          "name": "newValue",
          "type": "uint256"
        }
      ],
      "name": "UpdateAdminFee",
      "type": "event"
    },
    {
      "anonymous": false,
      "inputs": [
        {
          "indexed": false,
          "internalType": "address",
          "name": "oldValue",
          "type": "address"
        },
        {
          "indexed": false,
          "internalType": "address",
          "name": "newValue",
          "type": "address"
        }
      ],
      "name": "UpdateDevAddr",
      "type": "event"
    },
    {
      "anonymous": false,
      "inputs": [
        {
          "indexed": false,
          "internalType": "uint256",
          "name": "oldValue",
          "type": "uint256"
        },
        {
          "indexed": false,
          "internalType": "uint256",
          "name": "newValue",
          "type": "uint256"
        }
      ],
      "name": "UpdateDevFee",
      "type": "event"
    },
    {
      "anonymous": false,
      "inputs": [
        {
          "indexed": false,
          "internalType": "uint256",
          "name": "oldValue",
          "type": "uint256"
        },
        {
          "indexed": false,
          "internalType": "uint256",
          "name": "newValue",
          "type": "uint256"
        }
      ],
      "name": "UpdateMaxTokensToDepositWithoutReinvest",
      "type": "event"
    },
    {
      "anonymous": false,
      "inputs": [
        {
          "indexed": false,
          "internalType": "uint256",
          "name": "oldValue",
          "type": "uint256"
        },
        {
          "indexed": false,
          "internalType": "uint256",
          "name": "newValue",
          "type": "uint256"
        }
      ],
      "name": "UpdateMinTokensToReinvest",
      "type": "event"
    },
    {
      "anonymous": false,
      "inputs": [
        {
          "indexed": false,
          "internalType": "uint256",
          "name": "oldValue",
          "type": "uint256"
        },
        {
          "indexed": false,
          "internalType": "uint256",
          "name": "newValue",
          "type": "uint256"
        }
      ],
      "name": "UpdateReinvestReward",
      "type": "event"
    },
    {
      "anonymous": false,
      "inputs": [
        {
          "indexed": true,
          "internalType": "address",
          "name": "account",
          "type": "address"
        },
        {
          "indexed": false,
          "internalType": "uint256",
          "name": "amount",
          "type": "uint256"
        }
      ],
      "name": "Withdraw",
      "type": "event"
    },
    {
      "inputs": [],
      "name": "ADMIN_FEE_BIPS",
      "outputs": [
        {
          "internalType": "uint256",
          "name": "",
          "type": "uint256"
        }
      ],
      "stateMutability": "view",
      "type": "function"
    },
    {
      "inputs": [],
      "name": "DEPOSITS_ENABLED",
      "outputs": [
        {
          "internalType": "bool",
          "name": "",
          "type": "bool"
        }
      ],
      "stateMutability": "view",
      "type": "function"
    },
    {
      "inputs": [],
      "name": "DEV_FEE_BIPS",
      "outputs": [
        {
          "internalType": "uint256",
          "name": "",
          "type": "uint256"
        }
      ],
      "stateMutability": "view",
      "type": "function"
    },
    {
      "inputs": [],
      "name": "DOMAIN_TYPEHASH",
      "outputs": [
        {
          "internalType": "bytes32",
          "name": "",
          "type": "bytes32"
        }
      ],
      "stateMutability": "view",
      "type": "function"
    },
    {
      "inputs": [],
      "name": "MAX_TOKENS_TO_DEPOSIT_WITHOUT_REINVEST",
      "outputs": [
        {
          "internalType": "uint256",
          "name": "",
          "type": "uint256"
        }
      ],
      "stateMutability": "view",
      "type": "function"
    },
    {
      "inputs": [],
      "name": "MIN_TOKENS_TO_REINVEST",
      "outputs": [
        {
          "internalType": "uint256",
          "name": "",
          "type": "uint256"
        }
      ],
      "stateMutability": "view",
      "type": "function"
    },
    {
      "inputs": [],
      "name": "PERMIT_TYPEHASH",
      "outputs": [
        {
          "internalType": "bytes32",
          "name": "",
          "type": "bytes32"
        }
      ],
      "stateMutability": "view",
      "type": "function"
    },
    {
      "inputs": [],
      "name": "PID",
      "outputs": [
        {
          "internalType": "uint256",
          "name": "",
          "type": "uint256"
        }
      ],
      "stateMutability": "view",
      "type": "function"
    },
    {
      "inputs": [],
      "name": "REINVEST_REWARD_BIPS",
      "outputs": [
        {
          "internalType": "uint256",
          "name": "",
          "type": "uint256"
        }
      ],
      "stateMutability": "view",
      "type": "function"
    },
    {
      "inputs": [],
      "name": "VERSION_HASH",
      "outputs": [
        {
          "internalType": "bytes32",
          "name": "",
          "type": "bytes32"
        }
      ],
      "stateMutability": "view",
      "type": "function"
    },
    {
      "inputs": [
        {
          "internalType": "address",
          "name": "depositor",
          "type": "address"
        }
      ],
      "name": "allowDepositor",
      "outputs": [],
      "stateMutability": "nonpayable",
      "type": "function"
    },
    {
      "inputs": [
        {
          "internalType": "address",
          "name": "account",
          "type": "address"
        },
        {
          "internalType": "address",
          "name": "spender",
          "type": "address"
        }
      ],
      "name": "allowance",
      "outputs": [
        {
          "internalType": "uint256",
          "name": "",
          "type": "uint256"
        }
      ],
      "stateMutability": "view",
      "type": "function"
    },
    {
      "inputs": [
        {
          "internalType": "address",
          "name": "",
          "type": "address"
        }
      ],
      "name": "allowedDepositors",
      "outputs": [
        {
          "internalType": "bool",
          "name": "",
          "type": "bool"
        }
      ],
      "stateMutability": "view",
      "type": "function"
    },
    {
      "inputs": [
        {
          "internalType": "address",
          "name": "spender",
          "type": "address"
        },
        {
          "internalType": "uint256",
          "name": "amount",
          "type": "uint256"
        }
      ],
      "name": "approve",
      "outputs": [
        {
          "internalType": "bool",
          "name": "",
          "type": "bool"
        }
      ],
      "stateMutability": "nonpayable",
      "type": "function"
    },
    {
      "inputs": [
        {
          "internalType": "address",
          "name": "account",
          "type": "address"
        }
      ],
      "name": "balanceOf",
      "outputs": [
        {
          "internalType": "uint256",
          "name": "",
          "type": "uint256"
        }
      ],
      "stateMutability": "view",
      "type": "function"
    },
    {
      "inputs": [],
      "name": "checkReward",
      "outputs": [
        {
          "internalType": "uint256",
          "name": "",
          "type": "uint256"
        }
      ],
      "stateMutability": "view",
      "type": "function"
    },
    {
      "inputs": [],
      "name": "decimals",
      "outputs": [
        {
          "internalType": "uint8",
          "name": "",
          "type": "uint8"
        }
      ],
      "stateMutability": "view",
      "type": "function"
    },
    {
      "inputs": [
        {
          "internalType": "uint256",
          "name": "amount",
          "type": "uint256"
        }
      ],
      "name": "deposit",
      "outputs": [],
      "stateMutability": "nonpayable",
      "type": "function"
    },
    {
      "inputs": [
        {
          "internalType": "address",
          "name": "account",
          "type": "address"
        },
        {
          "internalType": "uint256",
          "name": "amount",
          "type": "uint256"
        }
      ],
      "name": "depositFor",
      "outputs": [],
      "stateMutability": "nonpayable",
      "type": "function"
    },
    {
      "inputs": [],
      "name": "depositToken",
      "outputs": [
        {
          "internalType": "contract IERC20",
          "name": "",
          "type": "address"
        }
      ],
      "stateMutability": "view",
      "type": "function"
    },
    {
      "inputs": [
        {
          "internalType": "uint256",
          "name": "amount",
          "type": "uint256"
        },
        {
          "internalType": "uint256",
          "name": "deadline",
          "type": "uint256"
        },
        {
          "internalType": "uint8",
          "name": "v",
          "type": "uint8"
        },
        {
          "internalType": "bytes32",
          "name": "r",
          "type": "bytes32"
        },
        {
          "internalType": "bytes32",
          "name": "s",
          "type": "bytes32"
        }
      ],
      "name": "depositWithPermit",
      "outputs": [],
      "stateMutability": "nonpayable",
      "type": "function"
    },
    {
      "inputs": [],
      "name": "devAddr",
      "outputs": [
        {
          "internalType": "address",
          "name": "",
          "type": "address"
        }
      ],
      "stateMutability": "view",
      "type": "function"
    },
    {
      "inputs": [],
      "name": "estimateDeployedBalance",
      "outputs": [
        {
          "internalType": "uint256",
          "name": "",
          "type": "uint256"
        }
      ],
      "stateMutability": "view",
      "type": "function"
    },
    {
      "inputs": [],
      "name": "estimateReinvestReward",
      "outputs": [
        {
          "internalType": "uint256",
          "name": "",
          "type": "uint256"
        }
      ],
      "stateMutability": "view",
      "type": "function"
    },
    {
      "inputs": [],
      "name": "extraToken",
      "outputs": [
        {
          "internalType": "address",
          "name": "",
          "type": "address"
        }
      ],
      "stateMutability": "view",
      "type": "function"
    },
    {
      "inputs": [
        {
          "internalType": "uint256",
          "name": "amount",
          "type": "uint256"
        }
      ],
      "name": "getDepositTokensForShares",
      "outputs": [
        {
          "internalType": "uint256",
          "name": "",
          "type": "uint256"
        }
      ],
      "stateMutability": "view",
      "type": "function"
    },
    {
      "inputs": [],
      "name": "getDomainSeparator",
      "outputs": [
        {
          "internalType": "bytes32",
          "name": "",
          "type": "bytes32"
        }
      ],
      "stateMutability": "view",
      "type": "function"
    },
    {
      "inputs": [
        {
          "internalType": "uint256",
          "name": "amount",
          "type": "uint256"
        }
      ],
      "name": "getSharesForDepositTokens",
      "outputs": [
        {
          "internalType": "uint256",
          "name": "",
          "type": "uint256"
        }
      ],
      "stateMutability": "view",
      "type": "function"
    },
    {
      "inputs": [],
      "name": "name",
      "outputs": [
        {
          "internalType": "string",
          "name": "",
          "type": "string"
        }
      ],
      "stateMutability": "view",
      "type": "function"
    },
    {
      "inputs": [
        {
          "internalType": "address",
          "name": "",
          "type": "address"
        }
      ],
      "name": "nonces",
      "outputs": [
        {
          "internalType": "uint256",
          "name": "",
          "type": "uint256"
        }
      ],
      "stateMutability": "view",
      "type": "function"
    },
    {
      "inputs": [],
      "name": "numberOfAllowedDepositors",
      "outputs": [
        {
          "internalType": "uint256",
          "name": "",
          "type": "uint256"
        }
      ],
      "stateMutability": "view",
      "type": "function"
    },
    {
      "inputs": [],
      "name": "owner",
      "outputs": [
        {
          "internalType": "address",
          "name": "",
          "type": "address"
        }
      ],
      "stateMutability": "view",
      "type": "function"
    },
    {
      "inputs": [
        {
          "internalType": "address",
          "name": "owner",
          "type": "address"
        },
        {
          "internalType": "address",
          "name": "spender",
          "type": "address"
        },
        {
          "internalType": "uint256",
          "name": "value",
          "type": "uint256"
        },
        {
          "internalType": "uint256",
          "name": "deadline",
          "type": "uint256"
        },
        {
          "internalType": "uint8",
          "name": "v",
          "type": "uint8"
        },
        {
          "internalType": "bytes32",
          "name": "r",
          "type": "bytes32"
        },
        {
          "internalType": "bytes32",
          "name": "s",
          "type": "bytes32"
        }
      ],
      "name": "permit",
      "outputs": [],
      "stateMutability": "nonpayable",
      "type": "function"
    },
    {
      "inputs": [
        {
          "internalType": "uint256",
          "name": "amount",
          "type": "uint256"
        }
      ],
      "name": "recoverAVAX",
      "outputs": [],
      "stateMutability": "nonpayable",
      "type": "function"
    },
    {
      "inputs": [
        {
          "internalType": "address",
          "name": "tokenAddress",
          "type": "address"
        },
        {
          "internalType": "uint256",
          "name": "tokenAmount",
          "type": "uint256"
        }
      ],
      "name": "recoverERC20",
      "outputs": [],
      "stateMutability": "nonpayable",
      "type": "function"
    },
    {
      "inputs": [],
      "name": "reinvest",
      "outputs": [],
      "stateMutability": "nonpayable",
      "type": "function"
    },
    {
      "inputs": [
        {
          "internalType": "address",
          "name": "depositor",
          "type": "address"
        }
      ],
      "name": "removeDepositor",
      "outputs": [],
      "stateMutability": "nonpayable",
      "type": "function"
    },
    {
      "inputs": [],
      "name": "renounceOwnership",
      "outputs": [],
      "stateMutability": "nonpayable",
      "type": "function"
    },
    {
      "inputs": [
        {
          "internalType": "uint256",
          "name": "minReturnAmountAccepted",
          "type": "uint256"
        },
        {
          "internalType": "bool",
          "name": "disableDeposits",
          "type": "bool"
        }
      ],
      "name": "rescueDeployedFunds",
      "outputs": [],
      "stateMutability": "nonpayable",
      "type": "function"
    },
    {
      "inputs": [
        {
          "internalType": "address",
          "name": "token",
          "type": "address"
        },
        {
          "internalType": "address",
          "name": "spender",
          "type": "address"
        }
      ],
      "name": "revokeAllowance",
      "outputs": [],
      "stateMutability": "nonpayable",
      "type": "function"
    },
    {
      "inputs": [],
      "name": "rewardToken",
      "outputs": [
        {
          "internalType": "contract IERC20",
          "name": "",
          "type": "address"
        }
      ],
      "stateMutability": "view",
      "type": "function"
    },
    {
      "inputs": [
        {
          "internalType": "address",
          "name": "_extraTokenSwapPair",
          "type": "address"
        }
      ],
      "name": "setExtraRewardSwapPair",
      "outputs": [],
      "stateMutability": "nonpayable",
      "type": "function"
    },
    {
      "inputs": [],
      "name": "stakingContract",
      "outputs": [
        {
          "internalType": "contract IStargateLPStaking",
          "name": "",
          "type": "address"
        }
      ],
      "stateMutability": "view",
      "type": "function"
    },
    {
      "inputs": [],
      "name": "stargateRouter",
      "outputs": [
        {
          "internalType": "contract IStargateRouter",
          "name": "",
          "type": "address"
        }
      ],
      "stateMutability": "view",
      "type": "function"
    },
    {
      "inputs": [],
      "name": "swapPairExtraReward",
      "outputs": [
        {
          "internalType": "address",
          "name": "",
          "type": "address"
        }
      ],
      "stateMutability": "view",
      "type": "function"
    },
    {
      "inputs": [],
      "name": "symbol",
      "outputs": [
        {
          "internalType": "string",
          "name": "",
          "type": "string"
        }
      ],
      "stateMutability": "view",
      "type": "function"
    },
    {
      "inputs": [],
      "name": "totalDeposits",
      "outputs": [
        {
          "internalType": "uint256",
          "name": "",
          "type": "uint256"
        }
      ],
      "stateMutability": "view",
      "type": "function"
    },
    {
      "inputs": [],
      "name": "totalSupply",
      "outputs": [
        {
          "internalType": "uint256",
          "name": "",
          "type": "uint256"
        }
      ],
      "stateMutability": "view",
      "type": "function"
    },
    {
      "inputs": [
        {
          "internalType": "address",
          "name": "dst",
          "type": "address"
        },
        {
          "internalType": "uint256",
          "name": "amount",
          "type": "uint256"
        }
      ],
      "name": "transfer",
      "outputs": [
        {
          "internalType": "bool",
          "name": "",
          "type": "bool"
        }
      ],
      "stateMutability": "nonpayable",
      "type": "function"
    },
    {
      "inputs": [
        {
          "internalType": "address",
          "name": "src",
          "type": "address"
        },
        {
          "internalType": "address",
          "name": "dst",
          "type": "address"
        },
        {
          "internalType": "uint256",
          "name": "amount",
          "type": "uint256"
        }
      ],
      "name": "transferFrom",
      "outputs": [
        {
          "internalType": "bool",
          "name": "",
          "type": "bool"
        }
      ],
      "stateMutability": "nonpayable",
      "type": "function"
    },
    {
      "inputs": [
        {
          "internalType": "address",
          "name": "newOwner",
          "type": "address"
        }
      ],
      "name": "transferOwnership",
      "outputs": [],
      "stateMutability": "nonpayable",
      "type": "function"
    },
    {
      "inputs": [
        {
          "internalType": "uint256",
          "name": "newValue",
          "type": "uint256"
        }
      ],
      "name": "updateAdminFee",
      "outputs": [],
      "stateMutability": "nonpayable",
      "type": "function"
    },
    {
      "inputs": [
        {
          "internalType": "bool",
          "name": "newValue",
          "type": "bool"
        }
      ],
      "name": "updateDepositsEnabled",
      "outputs": [],
      "stateMutability": "nonpayable",
      "type": "function"
    },
    {
      "inputs": [
        {
          "internalType": "address",
          "name": "newValue",
          "type": "address"
        }
      ],
      "name": "updateDevAddr",
      "outputs": [],
      "stateMutability": "nonpayable",
      "type": "function"
    },
    {
      "inputs": [
        {
          "internalType": "uint256",
          "name": "newValue",
          "type": "uint256"
        }
      ],
      "name": "updateDevFee",
      "outputs": [],
      "stateMutability": "nonpayable",
      "type": "function"
    },
    {
      "inputs": [
        {
          "internalType": "uint256",
          "name": "newValue",
          "type": "uint256"
        }
      ],
      "name": "updateMaxTokensToDepositWithoutReinvest",
      "outputs": [],
      "stateMutability": "nonpayable",
      "type": "function"
    },
    {
      "inputs": [
        {
          "internalType": "uint256",
          "name": "newValue",
          "type": "uint256"
        }
      ],
      "name": "updateMinTokensToReinvest",
      "outputs": [],
      "stateMutability": "nonpayable",
      "type": "function"
    },
    {
      "inputs": [
        {
          "internalType": "uint256",
          "name": "newValue",
          "type": "uint256"
        }
      ],
      "name": "updateReinvestReward",
      "outputs": [],
      "stateMutability": "nonpayable",
      "type": "function"
    },
    {
      "inputs": [
        {
          "internalType": "uint256",
          "name": "amount",
          "type": "uint256"
        }
      ],
      "name": "withdraw",
      "outputs": [],
      "stateMutability": "nonpayable",
      "type": "function"
    }
  ],
  "bytecode": {
    "object": "0x6101406040526009610100819052685969656c642059616b60b81b6101209081526200002f916000919062000ac2565b506040805180820190915260038082526216549560ea1b60209092019182526200005c9160019162000ac2565b503480156200006a57600080fd5b5060405162004b2538038062004b258339810160408190526200008d9162000c8e565b885160408a01518b919073b31f66aa3c1e785363f0875a1b74e27b85fd66c7908b6000878b88808433600680546001600160a01b0319166001600160a01b0383169081179091556040519192509060009060008051602062004b05833981519152908290a350805162000100906200024e565b60208101516200011090620002de565b6040810151620001209062000395565b508851620001369060009060208c019062000ac2565b50600980546001600160a01b03808b166001600160a01b031992831617909255600a8054928a16928216929092179091556080839052600b8054909116732d580f9cf2fb2d09bc411532988f2afda4e7beff179055620001988787876200044c565b620001a38462000724565b620001af600162000906565b620001ba83620009b0565b60408051600080825260208201527fc7606d21ac05cd309191543e409f0845c016120563783d70e4f41419dc0ef234910160405180910390a15050601680546001600160a01b039e8f166001600160a01b031991821617909155601780549c8f169c9091169b909b17909a555050506020909b0151881660a052505050509390921660c052505060e0525062000e6a915050565b6006546001600160a01b031633146200029d5760405162461bcd60e51b8152602060048201819052602482015260008051602062004ae583398151915260448201526064015b60405180910390fd5b600c5460408051918252602082018390527f481f79ac3a523b6d6db3c5a720e190e986d1cc1b41adcdf50f9caef849901100910160405180910390a1600c55565b6006546001600160a01b03163314620003295760405162461bcd60e51b8152602060048201819052602482015260008051602062004ae5833981519152604482015260640162000294565b612710620003486010548362000aad60201b62001b241790919060201c565b11156200035457600080fd5b60115460408051918252602082018390527f2a42303d002f0ba6cfe8259c91d4684443fb0b3de286ba74991175d651726131910160405180910390a1601155565b6006546001600160a01b03163314620003e05760405162461bcd60e51b8152602060048201819052602482015260008051602062004ae5833981519152604482015260640162000294565b612710620003ff6011548362000aad60201b62001b241790919060201c565b11156200040b57600080fd5b60105460408051918252602082018390527fe7f97d51d307dc44045597c9978bec0f842e6bb40d19b9444084cfa30d9ed4f2910160405180910390a1601055565b826001600160a01b0316826001600160a01b031614620006f557806001600160a01b0316630dfe16816040518163ffffffff1660e01b8152600401602060405180830381865afa158015620004a5573d6000803e3d6000fd5b505050506040513d601f19601f82011682018060405250810190620004cb919062000de9565b6001600160a01b0316826001600160a01b031603620005c657826001600160a01b0316816001600160a01b031663d21220a76040518163ffffffff1660e01b8152600401602060405180830381865afa1580156200052d573d6000803e3d6000fd5b505050506040513d601f19601f8201168201806040525081019062000553919062000de9565b6001600160a01b031614620005c05760405162461bcd60e51b815260206004820152603f602482015260008051602062004ac583398151915260448201527f6f6573206e6f7420636f6e7461696e2065636f73797374656d20746f6b656e00606482015260840162000294565b620006f5565b806001600160a01b031663d21220a76040518163ffffffff1660e01b8152600401602060405180830381865afa15801562000605573d6000803e3d6000fd5b505050506040513d601f19601f820116820180604052508101906200062b919062000de9565b6001600160a01b0316826001600160a01b0316036200068d57826001600160a01b0316816001600160a01b0316630dfe16816040518163ffffffff1660e01b8152600401602060405180830381865afa1580156200052d573d6000803e3d6000fd5b60405162461bcd60e51b8152602060048201526041602482015260008051602062004ac583398151915260448201527f6f6573206e6f7420636f6e7461696e20706f6f6c2072657761726420746f6b656064820152603760f91b608482015260a40162000294565b601280546001600160a01b039384166001600160a01b0319918216179091556013805492909316911617905550565b6001600160a01b03811615620008e757600a5460408051630dfe168160e01b815290516001600160a01b0392831692841691630dfe16819160048083019260209291908290030181865afa15801562000781573d6000803e3d6000fd5b505050506040513d601f19601f82011682018060405250810190620007a7919062000de9565b6001600160a01b0316036200084157806001600160a01b031663d21220a76040518163ffffffff1660e01b8152600401602060405180830381865afa158015620007f5573d6000803e3d6000fd5b505050506040513d601f19601f820116820180604052508101906200081b919062000de9565b601580546001600160a01b0319166001600160a01b0392909216919091179055620008c7565b806001600160a01b0316630dfe16816040518163ffffffff1660e01b8152600401602060405180830381865afa15801562000880573d6000803e3d6000fd5b505050506040513d601f19601f82011682018060405250810190620008a6919062000de9565b601580546001600160a01b0319166001600160a01b03929092169190911790555b601480546001600160a01b0383166001600160a01b031990911617905550565b601480546001600160a01b031990811690915560158054909116905550565b6006546001600160a01b03163314620009515760405162461bcd60e51b8152602060048201819052602482015260008051602062004ae5833981519152604482015260640162000294565b600e5481151560ff9091161515036200096957600080fd5b600e805460ff19168215159081179091556040519081527f7b014ed3854e7f5cb0218d58b3c6ae7d53a68bb0af2f67bfb029ea42c38a7e859060200160405180910390a150565b6006546001600160a01b03163314620009fb5760405162461bcd60e51b8152602060048201819052602482015260008051602062004ae5833981519152604482015260640162000294565b6001600160a01b03811662000a625760405162461bcd60e51b815260206004820152602660248201527f4f776e61626c653a206e6577206f776e657220697320746865207a65726f206160448201526564647265737360d01b606482015260840162000294565b6006546040516001600160a01b0380841692169060008051602062004b0583398151915290600090a3600680546001600160a01b0319166001600160a01b0392909216919091179055565b600062000abb828462000e07565b9392505050565b82805462000ad09062000e2e565b90600052602060002090601f01602090048101928262000af4576000855562000b3f565b82601f1062000b0f57805160ff191683800117855562000b3f565b8280016001018555821562000b3f579182015b8281111562000b3f57825182559160200191906001019062000b22565b5062000b4d92915062000b51565b5090565b5b8082111562000b4d576000815560010162000b52565b634e487b7160e01b600052604160045260246000fd5b604051606081016001600160401b038111828210171562000ba35762000ba362000b68565b60405290565b604051601f8201601f191681016001600160401b038111828210171562000bd45762000bd462000b68565b604052919050565b80516001600160a01b038116811462000bf457600080fd5b919050565b60006060828403121562000c0c57600080fd5b62000c1662000b7e565b905062000c238262000bdc565b815262000c336020830162000bdc565b602082015262000c466040830162000bdc565b604082015292915050565b60006060828403121562000c6457600080fd5b62000c6e62000b7e565b905081518152602082015160208201526040820151604082015292915050565b6000806000806000806000806000806101c08b8d03121562000caf57600080fd5b8a516001600160401b038082111562000cc757600080fd5b818d0191508d601f83011262000cdc57600080fd5b81518181111562000cf15762000cf162000b68565b6020915062000d09601f8201601f1916830162000ba9565b8181528f8383860101111562000d1e57600080fd5b60005b8281101562000d3e57848101840151828201850152830162000d21565b8281111562000d505760008484840101525b509c5062000d6390508e8e830162000bf9565b9a50505062000d7560808c0162000bdc565b975062000d8560a08c0162000bdc565b965062000d9560c08c0162000bdc565b955060e08b0151945062000dad6101008c0162000bdc565b93506101208b0151925062000dc66101408c0162000bdc565b915062000dd88c6101608d0162000c51565b90509295989b9194979a5092959850565b60006020828403121562000dfc57600080fd5b62000abb8262000bdc565b6000821982111562000e2957634e487b7160e01b600052601160045260246000fd5b500190565b600181811c9082168062000e4357607f821691505b60208210810362000e6457634e487b7160e01b600052602260045260246000fd5b50919050565b60805160a05160c05160e051613be962000edc6000396000612f8b01526000612e4a015260008181612e2901528181612efd015261301b01526000818161053001528181610ed5015281816114bf01528181611dc60152818161250e015281816128480152612ae10152613be96000f3fe608060405234801561001057600080fd5b50600436106103995760003560e01c80638b73e606116101e9578063bd079f551161010f578063dd8ce4d6116100ad578063ee99205c1161007c578063ee99205c14610807578063f2fde38b1461081a578063f7c618c11461082d578063fdb5a03e1461084057600080fd5b8063dd8ce4d6146107c6578063e21ac825146107d9578063eab89a5a146107ec578063ed24911d146107ff57600080fd5b8063cff1b6ef116100e9578063cff1b6ef14610754578063d505accf14610767578063da09c72c1461077a578063dd62ed3e1461078d57600080fd5b8063bd079f5514610730578063c4b24a4614610739578063c89039c51461074157600080fd5b8063a1a4ddeb11610187578063ac0d31ff11610156578063ac0d31ff146106f5578063b52a321f14610708578063b6b55f2514610715578063b9e57b801461072857600080fd5b8063a1a4ddeb146106a9578063a8ae2b7c146106bc578063a9059cbb146106cf578063a9e56f3c146106e257600080fd5b80639291d563116101c35780639291d5631461065457806395d89b411461066757806399729ec11461066f5780639e4e73181461068257600080fd5b80638b73e606146106095780638da5cb5b1461061c578063909ac8f41461064157600080fd5b80634bebd1e7116102ce578063789139bc1161026c578063818372301161023b57806381837230146105c75780638432e894146105da5780638980f11f146105ed5780638aff733d1461060057600080fd5b8063789139bc146105835780637ae267731461058c5780637d8820971461059f5780637ecebe00146105a757600080fd5b80635ea682ea116102a85780635ea682ea146105225780635eaec0e41461052b57806370a0823114610552578063715018a61461057b57600080fd5b80634bebd1e7146104e95780634e77ace5146104fc5780634ebb79161461050f57600080fd5b80632e1a7d4d1161033b578063313ce56711610315578063313ce567146104905780633bdc6e72146104aa578063483c2ef0146104b35780634a970be7146104d657600080fd5b80632e1a7d4d146104415780632f4f21e21461045657806330adf81f1461046957600080fd5b80630f23475d116103775780630f23475d146103f657806318160ddd146103fe57806320606b701461040757806323b872dd1461042e57600080fd5b806306fdde031461039e57806307677111146103bc578063095ea7b3146103d3575b600080fd5b6103a6610848565b6040516103b391906135f6565b60405180910390f35b6103c5600f5481565b6040519081526020016103b3565b6103e66103e136600461361e565b6108d6565b60405190151581526020016103b3565b6103c56108ed565b6103c560025481565b6103c57f8b73c3c69bb8fe3d512ecc4cf759cc79239f7b179b0ffacaa9a75d522b39400f81565b6103e661043c36600461364a565b610928565b61045461044f36600461368b565b610a0c565b005b61045461046436600461361e565b610aee565b6103c57f6e71edae12b1b97f4d1f60370fef10105fa2faae0126114a169c64845d6126c981565b610498601281565b60405160ff90911681526020016103b3565b6103c560075481565b6103e66104c13660046136a4565b60086020526000908152604090205460ff1681565b6104546104e43660046136d7565b610afc565b6104546104f73660046136a4565b610b95565b61045461050a36600461372c565b610c94565b61045461051d36600461368b565b610d1d565b6103c560115481565b6103c57f000000000000000000000000000000000000000000000000000000000000000081565b6103c56105603660046136a4565b6001600160a01b031660009081526004602052604090205490565b610454610db4565b6103c5600d5481565b61045461059a366004613749565b610e28565b6103c5610ecd565b6103c56105b53660046136a4565b60056020526000908152604090205481565b6104546105d536600461368b565b610efa565b6104546105e83660046136a4565b610f65565b6104546105fb36600461361e565b610fc2565b6103c560105481565b6104546106173660046136a4565b6110b0565b6006546001600160a01b03165b6040516001600160a01b0390911681526020016103b3565b601454610629906001600160a01b031681565b6104546106623660046136a4565b611231565b6103a66112eb565b61045461067d36600461368b565b6112f8565b6103c57fc89efdaa54c0f20c7adf612882df0950f5a951637e0307cdcb4c672f298b8bc681565b601554610629906001600160a01b031681565b6104546106ca36600461368b565b611386565b6103e66106dd36600461361e565b611414565b601754610629906001600160a01b031681565b610454610703366004613782565b611421565b600e546103e69060ff1681565b61045461072336600461368b565b61162f565b6103c5611639565b6103c5600c5481565b6103c5611678565b600954610629906001600160a01b031681565b61045461076236600461368b565b61168c565b6104546107753660046137a7565b611702565b600b54610629906001600160a01b031681565b6103c561079b366004613749565b6001600160a01b03918216600090815260036020908152604080832093909416825291909152205490565b6103c56107d436600461368b565b611807565b6104546107e736600461368b565b611841565b6103c56107fa36600461368b565b6118ac565b6103c56118e0565b601654610629906001600160a01b031681565b6104546108283660046136a4565b611980565b600a54610629906001600160a01b031681565b610454611a6b565b6000805461085590613815565b80601f016020809104026020016040519081016040528092919081815260200182805461088190613815565b80156108ce5780601f106108a3576101008083540402835291602001916108ce565b820191906000526020600020905b8154815290600101906020018083116108b157829003601f168201915b505050505081565b60006108e3338484611b30565b5060015b92915050565b6000806108f8610ecd565b90506000806109146127105b61090e8585611c3e565b90611c4a565b90506109208382611c56565b935050505090565b6001600160a01b03831660008181526003602090815260408083203380855292528220549192909190821480159061096257506000198114155b156109f357600061098e856040518060600160405280602f8152602001613b30602f9139849190611c62565b6001600160a01b038881166000818152600360209081526040808320948916808452948252918290208590559051848152939450919290917f8c5be1e5ebec7d5bd14f71427d1e84f3dd0314c0f7b2291e5b200ac8c7c3b925910160405180910390a3505b6109fe868686611c8e565b6001925050505b9392505050565b6000610a17826118ac565b905060008111610a6e5760405162461bcd60e51b815260206004820152601e60248201527f4d617374657243686566537472617465677956313a3a7769746864726177000060448201526064015b60405180910390fd5b610a7781611dc1565b600080610a85612710610904565b600954909150610aa8906001600160a01b031633610aa38685611c56565b611deb565b610ab23385611ec0565b60405183815233907f884edad9ce6fa2440d8a54cc123490eb96d2768479d49ff9c7366125a9424364906020015b60405180910390a250505050565b610af88282611f96565b5050565b60095460405163d505accf60e01b8152336004820152306024820152604481018790526064810186905260ff8516608482015260a4810184905260c481018390526001600160a01b039091169063d505accf9060e401600060405180830381600087803b158015610b6c57600080fd5b505af1158015610b80573d6000803e3d6000fd5b50505050610b8e3386611f96565b5050505050565b6006546001600160a01b03163314610bbf5760405162461bcd60e51b8152600401610a659061384f565b6001600160a01b03811660009081526008602052604090205460ff1615610c285760405162461bcd60e51b815260206004820152601c60248201527f5065726d697373696f6e65643a3a616c6c6f774465706f7369746f72000000006044820152606401610a65565b6001600160a01b0381166000908152600860205260409020805460ff19166001908117909155600754610c5a91611b24565b6007556040516001600160a01b038216907fc0a1035c16faf8d1304056d92c00edf028f87e62b8235a938f00af9e3c0312c590600090a250565b6006546001600160a01b03163314610cbe5760405162461bcd60e51b8152600401610a659061384f565b600e5481151560ff909116151503610cd557600080fd5b600e805460ff19168215159081179091556040519081527f7b014ed3854e7f5cb0218d58b3c6ae7d53a68bb0af2f67bfb029ea42c38a7e85906020015b60405180910390a150565b6006546001600160a01b03163314610d475760405162461bcd60e51b8152600401610a659061384f565b60008111610d5457600080fd5b604051339082156108fc029083906000818181858888f19350505050158015610d81573d6000803e3d6000fd5b507f8c1256b8896378cd5044f80c202f9772b9d77dc85c8a6eb51967210b09bfaa28600082604051610d12929190613884565b6006546001600160a01b03163314610dde5760405162461bcd60e51b8152600401610a659061384f565b6006546040516000916001600160a01b0316907f8be0079c531659141344cd1fd0a4f28419497f9722a3daafe3b4186f6b6457e0908390a3600680546001600160a01b0319169055565b6006546001600160a01b03163314610e525760405162461bcd60e51b8152600401610a659061384f565b60405163095ea7b360e01b81526001600160a01b0383169063095ea7b390610e81908490600090600401613884565b6020604051808303816000875af1158015610ea0573d6000803e3d6000fd5b505050506040513d601f19601f82011682018060405250810190610ec4919061389d565b610af857600080fd5b6000806108e77f000000000000000000000000000000000000000000000000000000000000000030612164565b6006546001600160a01b03163314610f245760405162461bcd60e51b8152600401610a659061384f565b600c5460408051918252602082018390527f481f79ac3a523b6d6db3c5a720e190e986d1cc1b41adcdf50f9caef849901100910160405180910390a1600c55565b600b546001600160a01b03163314610fb65760405162461bcd60e51b81526020600482015260146024820152732cb0b5a9ba3930ba32b3bc9d1d37b7363ca232bb60611b6044820152606401610a65565b610fbf816121e1565b50565b6006546001600160a01b03163314610fec5760405162461bcd60e51b8152600401610a659061384f565b60008111610ff957600080fd5b60405163a9059cbb60e01b81526001600160a01b0383169063a9059cbb906110279033908590600401613884565b6020604051808303816000875af1158015611046573d6000803e3d6000fd5b505050506040513d601f19601f8201168201806040525081019061106a919061389d565b61107357600080fd5b7f8c1256b8896378cd5044f80c202f9772b9d77dc85c8a6eb51967210b09bfaa2882826040516110a4929190613884565b60405180910390a15050565b6006546001600160a01b031633146110da5760405162461bcd60e51b8152600401610a659061384f565b6000600754116111495760405162461bcd60e51b815260206004820152603460248201527f5065726d697373696f6e65643a3a72656d6f76654465706f7369746f722c206e6044820152736f20616c6c6f776564206465706f7369746f727360601b6064820152608401610a65565b6001600160a01b03811660009081526008602052604090205460ff1615156001146111c95760405162461bcd60e51b815260206004820152602a60248201527f5065726d697373696f6e65643a3a72656d6f76654465706f7369746f722c206e6044820152691bdd08185b1b1bddd95960b21b6064820152608401610a65565b6001600160a01b0381166000908152600860205260409020805460ff191690556007546111f7906001611c56565b6007556040516001600160a01b038216907f0e86f6608b536e5339a25b65ff531f5ea91e1313d056ecd4752b35cbd16137d490600090a250565b600b546001600160a01b031633146112825760405162461bcd60e51b81526020600482015260146024820152732cb0b5a9ba3930ba32b3bc9d1d37b7363ca232bb60611b6044820152606401610a65565b600b54604080516001600160a01b03928316815291831660208301527fa8e91499ed37682f43cffb045fcc7d379a91e8c9a14e6321877ee34dee564c00910160405180910390a1600b80546001600160a01b0319166001600160a01b0392909216919091179055565b6001805461085590613815565b6006546001600160a01b031633146113225760405162461bcd60e51b8152600401610a659061384f565b61271061133a60105483611b2490919063ffffffff16565b111561134557600080fd5b60115460408051918252602082018390527f2a42303d002f0ba6cfe8259c91d4684443fb0b3de286ba74991175d651726131910160405180910390a1601155565b6006546001600160a01b031633146113b05760405162461bcd60e51b8152600401610a659061384f565b6127106113c860115483611b2490919063ffffffff16565b11156113d357600080fd5b60105460408051918252602082018390527fe7f97d51d307dc44045597c9978bec0f842e6bb40d19b9444084cfa30d9ed4f2910160405180910390a1601055565b60006108e3338484611c8e565b6006546001600160a01b0316331461144b5760405162461bcd60e51b8152600401610a659061384f565b6009546040516370a0823160e01b81523060048201526000916001600160a01b0316906370a0823190602401602060405180830381865afa158015611494573d6000803e3d6000fd5b505050506040513d601f19601f820116820180604052508101906114b891906138ba565b90506114e37f00000000000000000000000000000000000000000000000000000000000000006123b7565b6009546040516370a0823160e01b81523060048201526000916001600160a01b0316906370a0823190602401602060405180830381865afa15801561152c573d6000803e3d6000fd5b505050506040513d601f19601f8201168201806040525081019061155091906138ba565b90508361155d8284611c56565b10156115bd5760405162461bcd60e51b815260206004820152602960248201527f4d617374657243686566537472617465677956313a3a7265736375654465706c6044820152686f79656446756e647360b81b6064820152608401610a65565b7fc7606d21ac05cd309191543e409f0845c016120563783d70e4f41419dc0ef2346115e6610ecd565b6002546040805192835260208301919091520160405180910390a1600e5460ff161515600114801561161a57506001831515145b15611629576116296000610c94565b50505050565b610fbf3382611f96565b600080611644611678565b9050600c5481106116705761166a61271061090e60105484611c3e90919063ffffffff16565b91505090565b600091505090565b60008061168361248d565b95945050505050565b6006546001600160a01b031633146116b65760405162461bcd60e51b8152600401610a659061384f565b80156116c157600080fd5b600f5460408051918252602082018390527f3cc372f330f95ac9540626dc8a25f5bf21ba607215a5d58304cb804d446f104a910160405180910390a1600f55565b428410156117445760405162461bcd60e51b815260206004820152600f60248201526e1c195c9b5a5d0e8e995e1c1a5c9959608a1b6044820152606401610a65565b6001600160a01b038716600090815260056020526040812080547f6e71edae12b1b97f4d1f60370fef10105fa2faae0126114a169c64845d6126c9918a918a918a919086611791836138e9565b909155506040805160208101969096526001600160a01b0394851690860152929091166060840152608083015260a082015260c0810186905260e0016040516020818303038152906040528051906020012090506117f28882868686612717565b6117fd888888611b30565b5050505050505050565b600061181d611814610ecd565b60025490611c3e565b600003611828575090565b6108e7611833610ecd565b60025461090e908590611c3e565b6006546001600160a01b0316331461186b5760405162461bcd60e51b8152600401610a659061384f565b600d5460408051918252602082018390527fa5dae50539d56dfe1fb5273d883b0c39bc76750a25d036fc5fbd09ad8fd5f57f910160405180910390a1600d55565b60006118b9611814610ecd565b6000036118c857506000919050565b6108e760025461090e6118d9610ecd565b8590611c3e565b60007f8b73c3c69bb8fe3d512ecc4cf759cc79239f7b179b0ffacaa9a75d522b39400f60001b60006040516119159190613902565b6040519081900390207fc89efdaa54c0f20c7adf612882df0950f5a951637e0307cdcb4c672f298b8bc646604080516020810195909552840192909252606083015260808201523060a082015260c00160405160208183030381529060405280519060200120905090565b6006546001600160a01b031633146119aa5760405162461bcd60e51b8152600401610a659061384f565b6001600160a01b038116611a0f5760405162461bcd60e51b815260206004820152602660248201527f4f776e61626c653a206e6577206f776e657220697320746865207a65726f206160448201526564647265737360d01b6064820152608401610a65565b6006546040516001600160a01b038084169216907f8be0079c531659141344cd1fd0a4f28419497f9722a3daafe3b4186f6b6457e090600090a3600680546001600160a01b0319166001600160a01b0392909216919091179055565b323314611ab15760405162461bcd60e51b815260206004820152601460248201527359616b53747261746567793a3a6f6e6c79454f4160601b6044820152606401610a65565b600080600080611abf61248d565b9350935093509350600c54811015611b195760405162461bcd60e51b815260206004820152601e60248201527f4d617374657243686566537472617465677956313a3a7265696e7665737400006044820152606401610a65565b611629828585612843565b6000610a05828461399d565b6001600160a01b038316611b865760405162461bcd60e51b815260206004820152601c60248201527f5f617070726f76653a3a6f776e6572207a65726f2061646472657373000000006044820152606401610a65565b6001600160a01b038216611bdc5760405162461bcd60e51b815260206004820152601e60248201527f5f617070726f76653a3a7370656e646572207a65726f206164647265737300006044820152606401610a65565b6001600160a01b0383811660008181526003602090815260408083209487168084529482529182902085905590518481527f8c5be1e5ebec7d5bd14f71427d1e84f3dd0314c0f7b2291e5b200ac8c7c3b92591015b60405180910390a3505050565b6000610a0582846139b5565b6000610a0582846139d4565b6000610a0582846139f6565b60008184841115611c865760405162461bcd60e51b8152600401610a6591906135f6565b505050900390565b6001600160a01b038216611d015760405162461bcd60e51b815260206004820152603460248201527f5f7472616e73666572546f6b656e733a2063616e6e6f74207472616e7366657260448201527320746f20746865207a65726f206164647265737360601b6064820152608401610a65565b611d3e816040518060600160405280602e8152602001613b86602e91396001600160a01b0386166000908152600460205260409020549190611c62565b6001600160a01b038085166000908152600460205260408082209390935590841681522054611d6d9082611b24565b6001600160a01b0380841660008181526004602052604090819020939093559151908516907fddf252ad1be2c89b69c2b068fc378daa952ba7f163c4a11628f55a4df523b3ef90611c319085815260200190565b610fbf7f00000000000000000000000000000000000000000000000000000000000000008261298c565b60405163a9059cbb60e01b81526001600160a01b0384169063a9059cbb90611e199085908590600401613884565b6020604051808303816000875af1158015611e38573d6000803e3d6000fd5b505050506040513d601f19601f82011682018060405250810190611e5c919061389d565b611ebb5760405162461bcd60e51b815260206004820152602a60248201527f4d617374657243686566537472617465677956313a3a5452414e534645525f466044820152691493d357d1905253115160b21b6064820152608401610a65565b505050565b611efd81604051806060016040528060278152602001613b5f602791396001600160a01b0385166000908152600460205260409020549190611c62565b60046000846001600160a01b03166001600160a01b0316815260200190815260200160002081905550611f4d81604051806060016040528060278152602001613b09602791396002549190611c62565b6002556040518181526000906001600160a01b038416907fddf252ad1be2c89b69c2b068fc378daa952ba7f163c4a11628f55a4df523b3ef906020015b60405180910390a35050565b600e5460ff161515600114611fed5760405162461bcd60e51b815260206004820152601e60248201527f4d617374657243686566537472617465677956313a3a5f6465706f73697400006044820152606401610a65565b600d54156120255760008060008061200361248d565b9350935093509350600d5481111561202057612020828585612843565b505050505b6009546040516323b872dd60e01b8152336004820152306024820152604481018390526001600160a01b03909116906323b872dd906064016020604051808303816000875af115801561207c573d6000803e3d6000fd5b505050506040513d601f19601f820116820180604052508101906120a0919061389d565b6120fa5760405162461bcd60e51b815260206004820152602560248201527f4d617374657243686566537472617465677956313a3a7472616e736665722066604482015264185a5b195960da1b6064820152608401610a65565b600080612108612710610904565b90506121208461211b6107d48685611c56565b6129f6565b61212983612a7a565b836001600160a01b03167fe1fffcc4923d04b559f4d29a8bfc6cda04eb5b0d3c460751c2402c5c5cc9109c84604051610ae091815260200190565b6016546040516393f1a40b60e01b8152600481018490526001600160a01b03838116602483015260009216906393f1a40b906044016040805180830381865afa1580156121b5573d6000803e3d6000fd5b505050506040513d601f19601f820116820180604052508101906121d99190613a0d565b509392505050565b6001600160a01b0381161561239857600a5460408051630dfe168160e01b815290516001600160a01b0392831692841691630dfe16819160048083019260209291908290030181865afa15801561223c573d6000803e3d6000fd5b505050506040513d601f19601f820116820180604052508101906122609190613a31565b6001600160a01b0316036122f557806001600160a01b031663d21220a76040518163ffffffff1660e01b8152600401602060405180830381865afa1580156122ac573d6000803e3d6000fd5b505050506040513d601f19601f820116820180604052508101906122d09190613a31565b601580546001600160a01b0319166001600160a01b0392909216919091179055612378565b806001600160a01b0316630dfe16816040518163ffffffff1660e01b8152600401602060405180830381865afa158015612333573d6000803e3d6000fd5b505050506040513d601f19601f820116820180604052508101906123579190613a31565b601580546001600160a01b0319166001600160a01b03929092169190911790555b601480546001600160a01b0383166001600160a01b031990911617905550565b601480546001600160a01b031990811690915560158054909116905550565b60095460165460405163095ea7b360e01b81526001600160a01b039283169263095ea7b3926123ee92911690600090600401613884565b6020604051808303816000875af115801561240d573d6000803e3d6000fd5b505050506040513d601f19601f82011682018060405250810190612431919061389d565b50601654604051632989754760e11b8152600481018390526001600160a01b0390911690635312ea8e906024015b600060405180830381600087803b15801561247957600080fd5b505af1158015610b8e573d6000803e3d6000fd5b6012546040516370a0823160e01b815230600482015260009182918291829182916001600160a01b0316906370a0823190602401602060405180830381865afa1580156124de573d6000803e3d6000fd5b505050506040513d601f19601f8201168201806040525081019061250291906138ba565b905060008060006125337f000000000000000000000000000000000000000000000000000000000000000030612b06565b9194509250905060006125468585611b24565b600a546012549192506000916001600160a01b0391821691160361256a578461258f565b601254600a5460135461258f9285926001600160a01b03918216929082169116612b91565b905060006001600160a01b0384161561267a5773b31f66aa3c1e785363f0875a1b74e27b85fd66c6196001600160a01b038516016125ce57508361267a565b6014546001600160a01b03161561267a576015546040516370a0823160e01b8152306004820152612654916001600160a01b0316906370a0823190602401602060405180830381865afa158015612629573d6000803e3d6000fd5b505050506040513d601f19601f8201168201806040525081019061264d91906138ba565b8690611b24565b600a5460145491965061267791879187916001600160a01b039182169116612b91565b90505b600a546040516370a0823160e01b81523060048201526000916126f39184916001600160a01b0316906370a0823190602401602060405180830381865afa1580156126c9573d6000803e3d6000fd5b505050506040513d601f19601f820116820180604052508101906126ed91906138ba565b90611b24565b905060006127018285611b24565b949d969c50909a50929850939650505050505050565b60006127216118e0565b60405161190160f01b602082015260228101919091526042810186905260620160408051601f198184030181528282528051602091820120600080855291840180845281905260ff88169284019290925260608301869052608083018590529092509060019060a0016020604051602081039080840390855afa1580156127ac573d6000803e3d6000fd5b5050604051601f1901519150506001600160a01b038116158015906127e25750866001600160a01b0316816001600160a01b0316145b61283a5760405162461bcd60e51b8152602060048201526024808201527f417263683a3a76616c69646174655369673a20696e76616c6964207369676e616044820152637475726560e01b6064820152608401610a65565b50505050505050565b61286c7f0000000000000000000000000000000000000000000000000000000000000000612c4f565b600061288161287a84612c87565b8590611b24565b90506128976128908584612ccb565b8290611b24565b5060006128b561271061090e60115485611c3e90919063ffffffff16565b905080156128da57600a54600b546128da916001600160a01b03908116911683611deb565b60006128f761271061090e60105486611c3e90919063ffffffff16565b9050801561291657600a54612916906001600160a01b03163383611deb565b600061293461292f836129298787611c56565b90611c56565b612e0b565b905061293f81612a7a565b7fc7606d21ac05cd309191543e409f0845c016120563783d70e4f41419dc0ef234612968610ecd565b6002546040805192835260208301919091520160405180910390a150505050505050565b601654604051630441a3e760e41b815260048101849052602481018390526001600160a01b039091169063441a3e70906044015b600060405180830381600087803b1580156129da57600080fd5b505af11580156129ee573d6000803e3d6000fd5b505050505050565b600254612a039082611b24565b6002556001600160a01b038216600090815260046020526040902054612a299082611b24565b6001600160a01b0383166000818152600460205260408082209390935591519091907fddf252ad1be2c89b69c2b068fc378daa952ba7f163c4a11628f55a4df523b3ef90611f8a9085815260200190565b60008111612adc5760405162461bcd60e51b815260206004820152602960248201527f4d617374657243686566537472617465677956313a3a5f7374616b654465706f604482015268736974546f6b656e7360b81b6064820152608401610a65565b610fbf7f0000000000000000000000000000000000000000000000000000000000000000826130d8565b601654604051632f607fdd60e01b8152600481018490526001600160a01b0383811660248301526000928392839283921690632f607fdd90604401602060405180830381865afa158015612b5e573d6000803e3d6000fd5b505050506040513d601f19601f82011682018060405250810190612b8291906138ba565b96600096508695509350505050565b600080612b9e858561318a565b509050600080846001600160a01b0316630902f1ac6040518163ffffffff1660e01b8152600401606060405180830381865afa158015612be2573d6000803e3d6000fd5b505050506040513d601f19601f82011682018060405250810190612c069190613a65565b5091509150866001600160a01b0316836001600160a01b031614612c2657905b612c4388836001600160701b0316836001600160701b03166131bb565b98975050505050505050565b601654604051631c57762b60e31b815260048101839052600060248201526001600160a01b039091169063e2bbb1589060440161245f565b601254600a546000916001600160a01b03908116911603612ca6575090565b601254600a546013546108e79285926001600160a01b03918216929082169116613203565b60008115612e02576014546001600160a01b031615612d1057601554600a54601454612d099285926001600160a01b03918216929082169116613203565b90506108e7565b478015612d805773b31f66aa3c1e785363f0875a1b74e27b85fd66c76001600160a01b031663d0e30db0826040518263ffffffff1660e01b81526004016000604051808303818588803b158015612d6657600080fd5b505af1158015612d7a573d6000803e3d6000fd5b50505050505b6040516370a0823160e01b8152306004820152612dfa90859073b31f66aa3c1e785363f0875a1b74e27b85fd66c7906370a08231906024015b602060405180830381865afa158015612dd6573d6000803e3d6000fd5b505050506040513d601f19601f8201168201806040525081019061292991906138ba565b9150506108e7565b50600092915050565b600080612e6e8373b31f66aa3c1e785363f0875a1b74e27b85fd66c77f00000000000000000000000000000000000000000000000000000000000000007f0000000000000000000000000000000000000000000000000000000000000000613203565b6009546040516370a0823160e01b81523060048201529192506000916001600160a01b03909116906370a0823190602401602060405180830381865afa158015612ebc573d6000803e3d6000fd5b505050506040513d601f19601f82011682018060405250810190612ee091906138ba565b60175460405163095ea7b360e01b81529192506001600160a01b037f000000000000000000000000000000000000000000000000000000000000000081169263095ea7b392612f359216908690600401613884565b6020604051808303816000875af1158015612f54573d6000803e3d6000fd5b505050506040513d601f19601f82011682018060405250810190612f78919061389d565b506017546040516321ec87bf60e21b81527f00000000000000000000000000000000000000000000000000000000000000006004820152602481018490523060448201526001600160a01b03909116906387b21efc90606401600060405180830381600087803b158015612feb57600080fd5b505af1158015612fff573d6000803e3d6000fd5b505060175460405163095ea7b360e01b81526001600160a01b037f00000000000000000000000000000000000000000000000000000000000000008116945063095ea7b39350613056921690600090600401613884565b6020604051808303816000875af1158015613075573d6000803e3d6000fd5b505050506040513d601f19601f82011682018060405250810190613099919061389d565b506009546040516370a0823160e01b81523060048201526130d09183916001600160a01b03909116906370a0823190602401612db9565b949350505050565b60095460165460405163095ea7b360e01b81526001600160a01b039283169263095ea7b39261310e929116908590600401613884565b6020604051808303816000875af115801561312d573d6000803e3d6000fd5b505050506040513d601f19601f82011682018060405250810190613151919061389d565b50601654604051631c57762b60e31b815260048101849052602481018390526001600160a01b039091169063e2bbb158906044016129c0565b600080826001600160a01b0316846001600160a01b0316106131ad5782846131b0565b83835b915091509250929050565b6000806131ca856103e5611c3e565b905060006131d88285611c3e565b905060006131ec836126ed886103e8611c3e565b90506131f88282611c4a565b979650505050505050565b600080613210858561318a565b509050600080846001600160a01b0316630902f1ac6040518163ffffffff1660e01b8152600401606060405180830381865afa158015613254573d6000803e3d6000fd5b505050506040513d601f19601f820116820180604052508101906132789190613a65565b5091509150866001600160a01b0316836001600160a01b03161461329857905b6000806132b88a856001600160701b0316856001600160701b03166131bb565b9050886001600160a01b0316856001600160a01b0316146132d557905b6132e96001600160a01b038a16888c613377565b6040805160008152602081019182905263022c0d9f60e01b9091526001600160a01b0388169063022c0d9f906133289085908590309060248101613ab5565b600060405180830381600087803b15801561334257600080fd5b505af1158015613356573d6000803e3d6000fd5b505050508181116133675781613369565b805b9a9950505050505050505050565b611ebb8363a9059cbb60e01b8484604051602401613396929190613884565b60408051601f198184030181529190526020810180516001600160e01b03166001600160e01b031990931692909217909152600061341d826040518060400160405280602081526020017f5361666545524332303a206c6f772d6c6576656c2063616c6c206661696c6564815250856001600160a01b031661349a9092919063ffffffff16565b805190915015611ebb578080602001905181019061343b919061389d565b611ebb5760405162461bcd60e51b815260206004820152602a60248201527f5361666545524332303a204552433230206f7065726174696f6e20646964206e6044820152691bdd081cdd58d8d9595960b21b6064820152608401610a65565b60606130d08484600085856001600160a01b0385163b6134fc5760405162461bcd60e51b815260206004820152601d60248201527f416464726573733a2063616c6c20746f206e6f6e2d636f6e74726163740000006044820152606401610a65565b600080866001600160a01b031685876040516135189190613aec565b60006040518083038185875af1925050503d8060008114613555576040519150601f19603f3d011682016040523d82523d6000602084013e61355a565b606091505b50915091506131f882828660608315613574575081610a05565b8251156135845782518084602001fd5b8160405162461bcd60e51b8152600401610a6591906135f6565b60005b838110156135b95781810151838201526020016135a1565b838111156116295750506000910152565b600081518084526135e281602086016020860161359e565b601f01601f19169290920160200192915050565b602081526000610a0560208301846135ca565b6001600160a01b0381168114610fbf57600080fd5b6000806040838503121561363157600080fd5b823561363c81613609565b946020939093013593505050565b60008060006060848603121561365f57600080fd5b833561366a81613609565b9250602084013561367a81613609565b929592945050506040919091013590565b60006020828403121561369d57600080fd5b5035919050565b6000602082840312156136b657600080fd5b8135610a0581613609565b803560ff811681146136d257600080fd5b919050565b600080600080600060a086880312156136ef57600080fd5b8535945060208601359350613706604087016136c1565b94979396509394606081013594506080013592915050565b8015158114610fbf57600080fd5b60006020828403121561373e57600080fd5b8135610a058161371e565b6000806040838503121561375c57600080fd5b823561376781613609565b9150602083013561377781613609565b809150509250929050565b6000806040838503121561379557600080fd5b8235915060208301356137778161371e565b600080600080600080600060e0888a0312156137c257600080fd5b87356137cd81613609565b965060208801356137dd81613609565b955060408801359450606088013593506137f9608089016136c1565b925060a0880135915060c0880135905092959891949750929550565b600181811c9082168061382957607f821691505b60208210810361384957634e487b7160e01b600052602260045260246000fd5b50919050565b6020808252818101527f4f776e61626c653a2063616c6c6572206973206e6f7420746865206f776e6572604082015260600190565b6001600160a01b03929092168252602082015260400190565b6000602082840312156138af57600080fd5b8151610a058161371e565b6000602082840312156138cc57600080fd5b5051919050565b634e487b7160e01b600052601160045260246000fd5b6000600182016138fb576138fb6138d3565b5060010190565b600080835481600182811c91508083168061391e57607f831692505b6020808410820361393d57634e487b7160e01b86526022600452602486fd5b81801561395157600181146139625761398f565b60ff1986168952848901965061398f565b60008a81526020902060005b868110156139875781548b82015290850190830161396e565b505084890196505b509498975050505050505050565b600082198211156139b0576139b06138d3565b500190565b60008160001904831182151516156139cf576139cf6138d3565b500290565b6000826139f157634e487b7160e01b600052601260045260246000fd5b500490565b600082821015613a0857613a086138d3565b500390565b60008060408385031215613a2057600080fd5b505080516020909101519092909150565b600060208284031215613a4357600080fd5b8151610a0581613609565b80516001600160701b03811681146136d257600080fd5b600080600060608486031215613a7a57600080fd5b613a8384613a4e565b9250613a9160208501613a4e565b9150604084015163ffffffff81168114613aaa57600080fd5b809150509250925092565b84815283602082015260018060a01b0383166040820152608060608201526000613ae260808301846135ca565b9695505050505050565b60008251613afe81846020870161359e565b919091019291505056fe5f6275726e3a206275726e20616d6f756e74206578636565647320746f74616c20737570706c797472616e7366657246726f6d3a207472616e7366657220616d6f756e74206578636565647320616c6c6f77616e63655f6275726e3a206275726e20616d6f756e7420657863656564732066726f6d2062616c616e63655f7472616e73666572546f6b656e733a207472616e7366657220657863656564732066726f6d2062616c616e6365a2646970667358221220b1c4c0fdd2b4e082ac7b6e186afb7aac75a1865d27847745fc1332a3f01d59a964736f6c634300080d003353776170207061697220277377617050616972506f6f6c5265776172642720644f776e61626c653a2063616c6c6572206973206e6f7420746865206f776e65728be0079c531659141344cd1fd0a4f28419497f9722a3daafe3b4186f6b6457e0",
    "linkReferences": {}
  },
  "methodIdentifiers": {
    "ADMIN_FEE_BIPS()": "07677111",
    "DEPOSITS_ENABLED()": "b52a321f",
    "DEV_FEE_BIPS()": "5ea682ea",
    "DOMAIN_TYPEHASH()": "20606b70",
    "MAX_TOKENS_TO_DEPOSIT_WITHOUT_REINVEST()": "789139bc",
    "MIN_TOKENS_TO_REINVEST()": "bd079f55",
    "PERMIT_TYPEHASH()": "30adf81f",
    "PID()": "5eaec0e4",
    "REINVEST_REWARD_BIPS()": "8aff733d",
    "VERSION_HASH()": "9e4e7318",
    "allowDepositor(address)": "4bebd1e7",
    "allowance(address,address)": "dd62ed3e",
    "allowedDepositors(address)": "483c2ef0",
    "approve(address,uint256)": "095ea7b3",
    "balanceOf(address)": "70a08231",
    "checkReward()": "c4b24a46",
    "decimals()": "313ce567",
    "deposit(uint256)": "b6b55f25",
    "depositFor(address,uint256)": "2f4f21e2",
    "depositToken()": "c89039c5",
    "depositWithPermit(uint256,uint256,uint8,bytes32,bytes32)": "4a970be7",
    "devAddr()": "da09c72c",
    "estimateDeployedBalance()": "0f23475d",
    "estimateReinvestReward()": "b9e57b80",
    "extraToken()": "a1a4ddeb",
    "getDepositTokensForShares(uint256)": "eab89a5a",
    "getDomainSeparator()": "ed24911d",
    "getSharesForDepositTokens(uint256)": "dd8ce4d6",
    "name()": "06fdde03",
    "nonces(address)": "7ecebe00",
    "numberOfAllowedDepositors()": "3bdc6e72",
    "owner()": "8da5cb5b",
    "permit(address,address,uint256,uint256,uint8,bytes32,bytes32)": "d505accf",
    "recoverAVAX(uint256)": "4ebb7916",
    "recoverERC20(address,uint256)": "8980f11f",
    "reinvest()": "fdb5a03e",
    "removeDepositor(address)": "8b73e606",
    "renounceOwnership()": "715018a6",
    "rescueDeployedFunds(uint256,bool)": "ac0d31ff",
    "revokeAllowance(address,address)": "7ae26773",
    "rewardToken()": "f7c618c1",
    "setExtraRewardSwapPair(address)": "8432e894",
    "stakingContract()": "ee99205c",
    "stargateRouter()": "a9e56f3c",
    "swapPairExtraReward()": "909ac8f4",
    "symbol()": "95d89b41",
    "totalDeposits()": "7d882097",
    "totalSupply()": "18160ddd",
    "transfer(address,uint256)": "a9059cbb",
    "transferFrom(address,address,uint256)": "23b872dd",
    "transferOwnership(address)": "f2fde38b",
    "updateAdminFee(uint256)": "cff1b6ef",
    "updateDepositsEnabled(bool)": "4e77ace5",
    "updateDevAddr(address)": "9291d563",
    "updateDevFee(uint256)": "99729ec1",
    "updateMaxTokensToDepositWithoutReinvest(uint256)": "e21ac825",
    "updateMinTokensToReinvest(uint256)": "81837230",
    "updateReinvestReward(uint256)": "a8ae2b7c",
    "withdraw(uint256)": "2e1a7d4d"
  },
  "id": 132
}