{
  "abi": [
    {
      "inputs": [
        {
          "internalType": "address",
          "name": "_owner",
          "type": "address"
        }
      ],
      "stateMutability": "nonpayable",
      "type": "constructor"
    },
    {
      "anonymous": false,
      "inputs": [
        {
          "indexed": true,
          "internalType": "address",
          "name": "owner",
          "type": "address"
        },
        {
          "indexed": true,
          "internalType": "address",
          "name": "spender",
          "type": "address"
        },
        {
          "indexed": false,
          "internalType": "uint256",
          "name": "value",
          "type": "uint256"
        }
      ],
      "name": "Approval",
      "type": "event"
    },
    {
      "anonymous": false,
      "inputs": [
        {
          "indexed": true,
          "internalType": "address",
          "name": "previousOwner",
          "type": "address"
        },
        {
          "indexed": true,
          "internalType": "address",
          "name": "newOwner",
          "type": "address"
        }
      ],
      "name": "OwnershipTransferred",
      "type": "event"
    },
    {
      "anonymous": false,
      "inputs": [
        {
          "indexed": true,
          "internalType": "address",
          "name": "from",
          "type": "address"
        },
        {
          "indexed": true,
          "internalType": "address",
          "name": "to",
          "type": "address"
        },
        {
          "indexed": false,
          "internalType": "uint256",
          "name": "value",
          "type": "uint256"
        }
      ],
      "name": "Transfer",
      "type": "event"
    },
    {
      "inputs": [],
      "name": "DOMAIN_TYPEHASH",
      "outputs": [
        {
          "internalType": "bytes32",
          "name": "",
          "type": "bytes32"
        }
      ],
      "stateMutability": "view",
      "type": "function"
    },
    {
      "inputs": [],
      "name": "PERMIT_TYPEHASH",
      "outputs": [
        {
          "internalType": "bytes32",
          "name": "",
          "type": "bytes32"
        }
      ],
      "stateMutability": "view",
      "type": "function"
    },
    {
      "inputs": [],
      "name": "VERSION_HASH",
      "outputs": [
        {
          "internalType": "bytes32",
          "name": "",
          "type": "bytes32"
        }
      ],
      "stateMutability": "view",
      "type": "function"
    },
    {
      "inputs": [],
      "name": "VeYETI",
      "outputs": [
        {
          "internalType": "address",
          "name": "",
          "type": "address"
        }
      ],
      "stateMutability": "view",
      "type": "function"
    },
    {
      "inputs": [
        {
          "internalType": "address",
          "name": "owner",
          "type": "address"
        },
        {
          "internalType": "address",
          "name": "spender",
          "type": "address"
        }
      ],
      "name": "allowance",
      "outputs": [
        {
          "internalType": "uint256",
          "name": "",
          "type": "uint256"
        }
      ],
      "stateMutability": "view",
      "type": "function"
    },
    {
      "inputs": [
        {
          "internalType": "address",
          "name": "spender",
          "type": "address"
        },
        {
          "internalType": "uint256",
          "name": "amount",
          "type": "uint256"
        }
      ],
      "name": "approve",
      "outputs": [
        {
          "internalType": "bool",
          "name": "",
          "type": "bool"
        }
      ],
      "stateMutability": "nonpayable",
      "type": "function"
    },
    {
      "inputs": [
        {
          "internalType": "address",
          "name": "account",
          "type": "address"
        }
      ],
      "name": "balanceOf",
      "outputs": [
        {
          "internalType": "uint256",
          "name": "",
          "type": "uint256"
        }
      ],
      "stateMutability": "view",
      "type": "function"
    },
    {
      "inputs": [],
      "name": "currentYetiRewarder",
      "outputs": [
        {
          "internalType": "address",
          "name": "",
          "type": "address"
        }
      ],
      "stateMutability": "view",
      "type": "function"
    },
    {
      "inputs": [],
      "name": "decimals",
      "outputs": [
        {
          "internalType": "uint8",
          "name": "",
          "type": "uint8"
        }
      ],
      "stateMutability": "view",
      "type": "function"
    },
    {
      "inputs": [
        {
          "internalType": "address",
          "name": "spender",
          "type": "address"
        },
        {
          "internalType": "uint256",
          "name": "subtractedValue",
          "type": "uint256"
        }
      ],
      "name": "decreaseAllowance",
      "outputs": [
        {
          "internalType": "bool",
          "name": "",
          "type": "bool"
        }
      ],
      "stateMutability": "nonpayable",
      "type": "function"
    },
    {
      "inputs": [
        {
          "internalType": "uint256",
          "name": "_amount",
          "type": "uint256"
        }
      ],
      "name": "deposit",
      "outputs": [],
      "stateMutability": "nonpayable",
      "type": "function"
    },
    {
      "inputs": [
        {
          "internalType": "uint256",
          "name": "_amount",
          "type": "uint256"
        }
      ],
      "name": "depositFromBalance",
      "outputs": [],
      "stateMutability": "nonpayable",
      "type": "function"
    },
    {
      "inputs": [],
      "name": "depositsEnabled",
      "outputs": [
        {
          "internalType": "bool",
          "name": "",
          "type": "bool"
        }
      ],
      "stateMutability": "view",
      "type": "function"
    },
    {
      "inputs": [
        {
          "internalType": "address",
          "name": "target",
          "type": "address"
        },
        {
          "internalType": "uint256",
          "name": "value",
          "type": "uint256"
        },
        {
          "internalType": "bytes",
          "name": "data",
          "type": "bytes"
        }
      ],
      "name": "execute",
      "outputs": [
        {
          "internalType": "bool",
          "name": "",
          "type": "bool"
        },
        {
          "internalType": "bytes",
          "name": "",
          "type": "bytes"
        }
      ],
      "stateMutability": "nonpayable",
      "type": "function"
    },
    {
      "inputs": [],
      "name": "getDomainSeparator",
      "outputs": [
        {
          "internalType": "bytes32",
          "name": "",
          "type": "bytes32"
        }
      ],
      "stateMutability": "view",
      "type": "function"
    },
    {
      "inputs": [
        {
          "internalType": "address",
          "name": "spender",
          "type": "address"
        },
        {
          "internalType": "uint256",
          "name": "addedValue",
          "type": "uint256"
        }
      ],
      "name": "increaseAllowance",
      "outputs": [
        {
          "internalType": "bool",
          "name": "",
          "type": "bool"
        }
      ],
      "stateMutability": "nonpayable",
      "type": "function"
    },
    {
      "inputs": [],
      "name": "name",
      "outputs": [
        {
          "internalType": "string",
          "name": "",
          "type": "string"
        }
      ],
      "stateMutability": "view",
      "type": "function"
    },
    {
      "inputs": [
        {
          "internalType": "address",
          "name": "",
          "type": "address"
        }
      ],
      "name": "nonces",
      "outputs": [
        {
          "internalType": "uint256",
          "name": "",
          "type": "uint256"
        }
      ],
      "stateMutability": "view",
      "type": "function"
    },
    {
      "inputs": [],
      "name": "owner",
      "outputs": [
        {
          "internalType": "address",
          "name": "",
          "type": "address"
        }
      ],
      "stateMutability": "view",
      "type": "function"
    },
    {
      "inputs": [
        {
          "internalType": "address",
          "name": "owner",
          "type": "address"
        },
        {
          "internalType": "address",
          "name": "spender",
          "type": "address"
        },
        {
          "internalType": "uint256",
          "name": "value",
          "type": "uint256"
        },
        {
          "internalType": "uint256",
          "name": "deadline",
          "type": "uint256"
        },
        {
          "internalType": "uint8",
          "name": "v",
          "type": "uint8"
        },
        {
          "internalType": "bytes32",
          "name": "r",
          "type": "bytes32"
        },
        {
          "internalType": "bytes32",
          "name": "s",
          "type": "bytes32"
        }
      ],
      "name": "permit",
      "outputs": [],
      "stateMutability": "nonpayable",
      "type": "function"
    },
    {
      "inputs": [],
      "name": "renounceOwnership",
      "outputs": [],
      "stateMutability": "nonpayable",
      "type": "function"
    },
    {
      "inputs": [
        {
          "internalType": "address",
          "name": "_voterProxy",
          "type": "address"
        }
      ],
      "name": "setVoterProxy",
      "outputs": [],
      "stateMutability": "nonpayable",
      "type": "function"
    },
    {
      "inputs": [],
      "name": "symbol",
      "outputs": [
        {
          "internalType": "string",
          "name": "",
          "type": "string"
        }
      ],
      "stateMutability": "view",
      "type": "function"
    },
    {
      "inputs": [],
      "name": "totalSupply",
      "outputs": [
        {
          "internalType": "uint256",
          "name": "",
          "type": "uint256"
        }
      ],
      "stateMutability": "view",
      "type": "function"
    },
    {
      "inputs": [
        {
          "internalType": "address",
          "name": "to",
          "type": "address"
        },
        {
          "internalType": "uint256",
          "name": "amount",
          "type": "uint256"
        }
      ],
      "name": "transfer",
      "outputs": [
        {
          "internalType": "bool",
          "name": "",
          "type": "bool"
        }
      ],
      "stateMutability": "nonpayable",
      "type": "function"
    },
    {
      "inputs": [
        {
          "internalType": "address",
          "name": "from",
          "type": "address"
        },
        {
          "internalType": "address",
          "name": "to",
          "type": "address"
        },
        {
          "internalType": "uint256",
          "name": "amount",
          "type": "uint256"
        }
      ],
      "name": "transferFrom",
      "outputs": [
        {
          "internalType": "bool",
          "name": "",
          "type": "bool"
        }
      ],
      "stateMutability": "nonpayable",
      "type": "function"
    },
    {
      "inputs": [
        {
          "internalType": "address",
          "name": "newOwner",
          "type": "address"
        }
      ],
      "name": "transferOwnership",
      "outputs": [],
      "stateMutability": "nonpayable",
      "type": "function"
    },
    {
      "inputs": [
        {
          "internalType": "bool",
          "name": "newValue",
          "type": "bool"
        }
      ],
      "name": "updateDepositsEnabled",
      "outputs": [],
      "stateMutability": "nonpayable",
      "type": "function"
    },
    {
      "inputs": [
        {
          "internalType": "address",
          "name": "_rewarder",
          "type": "address"
        }
      ],
      "name": "updateYetiRewarder",
      "outputs": [],
      "stateMutability": "nonpayable",
      "type": "function"
    },
    {
      "inputs": [],
      "name": "veYETIBalance",
      "outputs": [
        {
          "internalType": "uint256",
          "name": "",
          "type": "uint256"
        }
      ],
      "stateMutability": "view",
      "type": "function"
    },
    {
      "inputs": [],
      "name": "voterProxy",
      "outputs": [
        {
          "internalType": "address",
          "name": "",
          "type": "address"
        }
      ],
      "stateMutability": "view",
      "type": "function"
    }
  ],
  "bytecode": {
    "object": "0x60806040526008805460ff60a01b1916600160a01b1790553480156200002457600080fd5b5060405162001ce338038062001ce38339810160408190526200004791620002d9565b6040518060400160405280600e81526020016d5969656c642059616b205945544960901b8152506040518060400160405280600681526020016579795945544960d01b81525060006200009f6200011e60201b60201c565b600080546001600160a01b0319166001600160a01b03831690811782556040519293509160008051602062001cc3833981519152908290a3508151620000ed90600590602085019062000233565b5080516200010390600690602084019062000233565b50505062000117816200012260201b60201c565b5062000347565b3390565b6000546001600160a01b03163314620001825760405162461bcd60e51b815260206004820181905260248201527f4f776e61626c653a2063616c6c6572206973206e6f7420746865206f776e657260448201526064015b60405180910390fd5b6001600160a01b038116620001e95760405162461bcd60e51b815260206004820152602660248201527f4f776e61626c653a206e6577206f776e657220697320746865207a65726f206160448201526564647265737360d01b606482015260840162000179565b600080546040516001600160a01b038085169392169160008051602062001cc383398151915291a3600080546001600160a01b0319166001600160a01b0392909216919091179055565b82805462000241906200030b565b90600052602060002090601f016020900481019282620002655760008555620002b0565b82601f106200028057805160ff1916838001178555620002b0565b82800160010185558215620002b0579182015b82811115620002b057825182559160200191906001019062000293565b50620002be929150620002c2565b5090565b5b80821115620002be5760008155600101620002c3565b600060208284031215620002ec57600080fd5b81516001600160a01b03811681146200030457600080fd5b9392505050565b600181811c908216806200032057607f821691505b6020821081036200034157634e487b7160e01b600052602260045260246000fd5b50919050565b61196c80620003576000396000f3fe608060405234801561001057600080fd5b50600436106101e55760003560e01c80637c0bb4ab1161010f578063a457c2d7116100a2578063d505accf11610071578063d505accf1461046e578063dd62ed3e14610481578063ed24911d14610494578063f2fde38b1461049c57600080fd5b8063a457c2d714610414578063a9059cbb14610427578063b61d27f61461043a578063b6b55f251461045b57600080fd5b80638da81a68116100de5780638da81a68146103b757806395d89b41146103ca5780639e4e7318146103d2578063a0955221146103f957600080fd5b80637c0bb4ab146103605780637ecebe001461037357806388ad4632146103935780638da5cb5b146103a657600080fd5b806323b872dd116101875780634e77ace5116101565780634e77ace5146103085780635392fd1c1461031b57806370a082311461032f578063715018a61461035857600080fd5b806323b872dd146102ac57806330adf81f146102bf578063313ce567146102e657806339509351146102f557600080fd5b806318160ddd116101c357806318160ddd146102405780631ba980b31461025257806320606b701461027d5780632374ef24146102a457600080fd5b8063052cdc0c146101ea57806306fdde03146101ff578063095ea7b31461021d575b600080fd5b6101fd6101f8366004611544565b6104af565b005b610207610504565b60405161021491906115b3565b60405180910390f35b61023061022b3660046115c6565b610596565b6040519015158152602001610214565b6004545b604051908152602001610214565b600754610265906001600160a01b031681565b6040516001600160a01b039091168152602001610214565b6102447f8b73c3c69bb8fe3d512ecc4cf759cc79239f7b179b0ffacaa9a75d522b39400f81565b6102446105ae565b6102306102ba3660046115f0565b610629565b6102447f6e71edae12b1b97f4d1f60370fef10105fa2faae0126114a169c64845d6126c981565b60405160128152602001610214565b6102306103033660046115c6565b61064d565b6101fd61031636600461163a565b61066f565b60085461023090600160a01b900460ff1681565b61024461033d366004611544565b6001600160a01b031660009081526002602052604090205490565b6101fd6106d6565b6101fd61036e366004611657565b61074a565b610244610381366004611544565b60016020526000908152604090205481565b600854610265906001600160a01b031681565b6000546001600160a01b0316610265565b6101fd6103c5366004611544565b610805565b610207610851565b6102447fc89efdaa54c0f20c7adf612882df0950f5a951637e0307cdcb4c672f298b8bc681565b6102657388888888847df39cf1dfe1a05c904b4e603c941681565b6102306104223660046115c6565b610860565b6102306104353660046115c6565b6108db565b61044d610448366004611670565b6108e9565b6040516102149291906116f7565b6101fd610469366004611657565b6109b0565b6101fd61047c36600461171a565b610adc565b61024461048f36600461178d565b610be1565b610244610c0c565b6101fd6104aa366004611544565b610ca1565b6000546001600160a01b031633146104e25760405162461bcd60e51b81526004016104d9906117c0565b60405180910390fd5b600780546001600160a01b0319166001600160a01b0392909216919091179055565b606060058054610513906117f5565b80601f016020809104026020016040519081016040528092919081815260200182805461053f906117f5565b801561058c5780601f106105615761010080835404028352916020019161058c565b820191906000526020600020905b81548152906001019060200180831161056f57829003601f168201915b5050505050905090565b6000336105a4818585610d8b565b5060019392505050565b604051630a95bceb60e01b81523060048201526000907388888888847df39cf1dfe1a05c904b4e603c941690630a95bceb90602401602060405180830381865afa158015610600573d6000803e3d6000fd5b505050506040513d601f19601f82011682018060405250810190610624919061182f565b905090565b600033610637858285610eaf565b610642858585610f29565b506001949350505050565b6000336105a48185856106608383610be1565b61066a919061185e565b610d8b565b6000546001600160a01b031633146106995760405162461bcd60e51b81526004016104d9906117c0565b801515600860149054906101000a900460ff161515036106b857600080fd5b60088054911515600160a01b0260ff60a01b19909216919091179055565b6000546001600160a01b031633146107005760405162461bcd60e51b81526004016104d9906117c0565b600080546040516001600160a01b03909116907f8be0079c531659141344cd1fd0a4f28419497f9722a3daafe3b4186f6b6457e0908390a3600080546001600160a01b0319169055565b6007546001600160a01b0316331461079b5760405162461bcd60e51b815260206004820152601460248201527359657469566f7465723a3a6f6e6c7950726f787960601b60448201526064016104d9565b600854600160a01b900460ff1615156001146107f95760405162461bcd60e51b815260206004820152601b60248201527f59657469566f7465723a6465706f736974732064697361626c6564000000000060448201526064016104d9565b610802816110f7565b50565b6000546001600160a01b0316331461082f5760405162461bcd60e51b81526004016104d9906117c0565b600880546001600160a01b0319166001600160a01b0392909216919091179055565b606060068054610513906117f5565b6000338161086e8286610be1565b9050838110156108ce5760405162461bcd60e51b815260206004820152602560248201527f45524332303a2064656372656173656420616c6c6f77616e63652062656c6f77604482015264207a65726f60d81b60648201526084016104d9565b6106428286868403610d8b565b6000336105a4818585610f29565b6007546000906060906001600160a01b031633146109405760405162461bcd60e51b815260206004820152601460248201527359657469566f7465723a3a6f6e6c7950726f787960601b60448201526064016104d9565b600080876001600160a01b031687878760405161095e929190611876565b60006040518083038185875af1925050503d806000811461099b576040519150601f19603f3d011682016040523d82523d6000602084013e6109a0565b606091505b5090999098509650505050505050565b600854600160a01b900460ff161515600114610a0e5760405162461bcd60e51b815260206004820152601c60248201527f59657469566f7465723a3a6465706f736974732064697361626c65640000000060448201526064016104d9565b6040516323b872dd60e01b8152336004820152306024820152604481018290527377777777777d4554c39223c354a05825b2e8faa3906323b872dd906064016020604051808303816000875af1158015610a6c573d6000803e3d6000fd5b505050506040513d601f19601f82011682018060405250810190610a909190611886565b6107f95760405162461bcd60e51b815260206004820152601a60248201527f59657469566f7465723a3a7472616e73666572206661696c656400000000000060448201526064016104d9565b42841015610b1e5760405162461bcd60e51b815260206004820152600f60248201526e1c195c9b5a5d0e8e995e1c1a5c9959608a1b60448201526064016104d9565b6001600160a01b038716600090815260016020526040812080547f6e71edae12b1b97f4d1f60370fef10105fa2faae0126114a169c64845d6126c9918a918a918a919086610b6b836118a3565b909155506040805160208101969096526001600160a01b0394851690860152929091166060840152608083015260a082015260c0810186905260e001604051602081830303815290604052805190602001209050610bcc888286868661131d565b610bd7888888610d8b565b5050505050505050565b6001600160a01b03918216600090815260036020908152604080832093909416825291909152205490565b60007f8b73c3c69bb8fe3d512ecc4cf759cc79239f7b179b0ffacaa9a75d522b39400f610c37610504565b80516020909101207fc89efdaa54c0f20c7adf612882df0950f5a951637e0307cdcb4c672f298b8bc646604080516020810195909552840192909252606083015260808201523060a082015260c00160405160208183030381529060405280519060200120905090565b6000546001600160a01b03163314610ccb5760405162461bcd60e51b81526004016104d9906117c0565b6001600160a01b038116610d305760405162461bcd60e51b815260206004820152602660248201527f4f776e61626c653a206e6577206f776e657220697320746865207a65726f206160448201526564647265737360d01b60648201526084016104d9565b600080546040516001600160a01b03808516939216917f8be0079c531659141344cd1fd0a4f28419497f9722a3daafe3b4186f6b6457e091a3600080546001600160a01b0319166001600160a01b0392909216919091179055565b6001600160a01b038316610ded5760405162461bcd60e51b8152602060048201526024808201527f45524332303a20617070726f76652066726f6d20746865207a65726f206164646044820152637265737360e01b60648201526084016104d9565b6001600160a01b038216610e4e5760405162461bcd60e51b815260206004820152602260248201527f45524332303a20617070726f766520746f20746865207a65726f206164647265604482015261737360f01b60648201526084016104d9565b6001600160a01b0383811660008181526003602090815260408083209487168084529482529182902085905590518481527f8c5be1e5ebec7d5bd14f71427d1e84f3dd0314c0f7b2291e5b200ac8c7c3b925910160405180910390a3505050565b6000610ebb8484610be1565b90506000198114610f235781811015610f165760405162461bcd60e51b815260206004820152601d60248201527f45524332303a20696e73756666696369656e7420616c6c6f77616e636500000060448201526064016104d9565b610f238484848403610d8b565b50505050565b6001600160a01b038316610f8d5760405162461bcd60e51b815260206004820152602560248201527f45524332303a207472616e736665722066726f6d20746865207a65726f206164604482015264647265737360d81b60648201526084016104d9565b6001600160a01b038216610fef5760405162461bcd60e51b815260206004820152602360248201527f45524332303a207472616e7366657220746f20746865207a65726f206164647260448201526265737360e81b60648201526084016104d9565b6001600160a01b038316600090815260026020526040902054818110156110675760405162461bcd60e51b815260206004820152602660248201527f45524332303a207472616e7366657220616d6f756e7420657863656564732062604482015265616c616e636560d01b60648201526084016104d9565b6001600160a01b0380851660009081526002602052604080822085850390559185168152908120805484929061109e90849061185e565b92505081905550826001600160a01b0316846001600160a01b03167fddf252ad1be2c89b69c2b068fc378daa952ba7f163c4a11628f55a4df523b3ef846040516110ea91815260200190565b60405180910390a3610f23565b6111013382611449565b60405163095ea7b360e01b81527388888888847df39cf1dfe1a05c904b4e603c94166004820152602481018290527377777777777d4554c39223c354a05825b2e8faa39063095ea7b3906044016020604051808303816000875af115801561116d573d6000803e3d6000fd5b505050506040513d601f19601f820116820180604052508101906111919190611886565b50604080516001808252818301909252600091816020015b60408051606081018252600080825260208083018290529282015282526000199092019101816111a9575050604080516060810182526008546001600160a01b03168152602081018590526001918101919091528151919250908290600090611214576112146118bc565b6020908102919091010152604051630deec22760e41b81527388888888847df39cf1dfe1a05c904b4e603c94169063deec2270906112569084906004016118d2565b600060405180830381600087803b15801561127057600080fd5b505af1158015611284573d6000803e3d6000fd5b505060405163095ea7b360e01b81527388888888847df39cf1dfe1a05c904b4e603c94166004820152600060248201527377777777777d4554c39223c354a05825b2e8faa3925063095ea7b391506044016020604051808303816000875af11580156112f4573d6000803e3d6000fd5b505050506040513d601f19601f820116820180604052508101906113189190611886565b505050565b6000611327610c0c565b60405161190160f01b602082015260228101919091526042810186905260620160408051601f198184030181528282528051602091820120600080855291840180845281905260ff88169284019290925260608301869052608083018590529092509060019060a0016020604051602081039080840390855afa1580156113b2573d6000803e3d6000fd5b5050604051601f1901519150506001600160a01b038116158015906113e85750866001600160a01b0316816001600160a01b0316145b6114405760405162461bcd60e51b8152602060048201526024808201527f417263683a3a76616c69646174655369673a20696e76616c6964207369676e616044820152637475726560e01b60648201526084016104d9565b50505050505050565b6001600160a01b03821661149f5760405162461bcd60e51b815260206004820152601f60248201527f45524332303a206d696e7420746f20746865207a65726f20616464726573730060448201526064016104d9565b80600460008282546114b1919061185e565b90915550506001600160a01b038216600090815260026020526040812080548392906114de90849061185e565b90915550506040518181526001600160a01b038316906000907fddf252ad1be2c89b69c2b068fc378daa952ba7f163c4a11628f55a4df523b3ef9060200160405180910390a35050565b80356001600160a01b038116811461153f57600080fd5b919050565b60006020828403121561155657600080fd5b61155f82611528565b9392505050565b6000815180845260005b8181101561158c57602081850181015186830182015201611570565b8181111561159e576000602083870101525b50601f01601f19169290920160200192915050565b60208152600061155f6020830184611566565b600080604083850312156115d957600080fd5b6115e283611528565b946020939093013593505050565b60008060006060848603121561160557600080fd5b61160e84611528565b925061161c60208501611528565b9150604084013590509250925092565b801515811461080257600080fd5b60006020828403121561164c57600080fd5b813561155f8161162c565b60006020828403121561166957600080fd5b5035919050565b6000806000806060858703121561168657600080fd5b61168f85611528565b935060208501359250604085013567ffffffffffffffff808211156116b357600080fd5b818701915087601f8301126116c757600080fd5b8135818111156116d657600080fd5b8860208285010111156116e857600080fd5b95989497505060200194505050565b82151581526040602082015260006117126040830184611566565b949350505050565b600080600080600080600060e0888a03121561173557600080fd5b61173e88611528565b965061174c60208901611528565b95506040880135945060608801359350608088013560ff8116811461177057600080fd5b9699959850939692959460a0840135945060c09093013592915050565b600080604083850312156117a057600080fd5b6117a983611528565b91506117b760208401611528565b90509250929050565b6020808252818101527f4f776e61626c653a2063616c6c6572206973206e6f7420746865206f776e6572604082015260600190565b600181811c9082168061180957607f821691505b60208210810361182957634e487b7160e01b600052602260045260246000fd5b50919050565b60006020828403121561184157600080fd5b5051919050565b634e487b7160e01b600052601160045260246000fd5b6000821982111561187157611871611848565b500190565b8183823760009101908152919050565b60006020828403121561189857600080fd5b815161155f8161162c565b6000600182016118b5576118b5611848565b5060010190565b634e487b7160e01b600052603260045260246000fd5b602080825282518282018190526000919060409081850190868401855b8281101561192957815180516001600160a01b031685528681015187860152850151151585850152606090930192908501906001016118ef565b509197965050505050505056fea2646970667358221220c7e82991fb0c235fb679a2eb01d4038ec3cc43c20434404b1922c6e6bae381ca64736f6c634300080d00338be0079c531659141344cd1fd0a4f28419497f9722a3daafe3b4186f6b6457e0",
    "linkReferences": {}
  },
  "methodIdentifiers": {
    "DOMAIN_TYPEHASH()": "20606b70",
    "PERMIT_TYPEHASH()": "30adf81f",
    "VERSION_HASH()": "9e4e7318",
    "VeYETI()": "a0955221",
    "allowance(address,address)": "dd62ed3e",
    "approve(address,uint256)": "095ea7b3",
    "balanceOf(address)": "70a08231",
    "currentYetiRewarder()": "88ad4632",
    "decimals()": "313ce567",
    "decreaseAllowance(address,uint256)": "a457c2d7",
    "deposit(uint256)": "b6b55f25",
    "depositFromBalance(uint256)": "7c0bb4ab",
    "depositsEnabled()": "5392fd1c",
    "execute(address,uint256,bytes)": "b61d27f6",
    "getDomainSeparator()": "ed24911d",
    "increaseAllowance(address,uint256)": "39509351",
    "name()": "06fdde03",
    "nonces(address)": "7ecebe00",
    "owner()": "8da5cb5b",
    "permit(address,address,uint256,uint256,uint8,bytes32,bytes32)": "d505accf",
    "renounceOwnership()": "715018a6",
    "setVoterProxy(address)": "052cdc0c",
    "symbol()": "95d89b41",
    "totalSupply()": "18160ddd",
    "transfer(address,uint256)": "a9059cbb",
    "transferFrom(address,address,uint256)": "23b872dd",
    "transferOwnership(address)": "f2fde38b",
    "updateDepositsEnabled(bool)": "4e77ace5",
    "updateYetiRewarder(address)": "8da81a68",
    "veYETIBalance()": "2374ef24",
    "voterProxy()": "1ba980b3"
  },
  "id": 164
}