{
  "abi": [
    {
      "inputs": [],
      "name": "PID",
      "outputs": [
        {
          "internalType": "uint256",
          "name": "",
          "type": "uint256"
        }
      ],
      "stateMutability": "view",
      "type": "function"
    },
    {
      "inputs": [],
      "name": "PROXY",
      "outputs": [
        {
          "internalType": "contract IJoeVoterProxy",
          "name": "",
          "type": "address"
        }
      ],
      "stateMutability": "view",
      "type": "function"
    },
    {
      "inputs": [],
      "name": "RECEIVER",
      "outputs": [
        {
          "internalType": "address",
          "name": "",
          "type": "address"
        }
      ],
      "stateMutability": "view",
      "type": "function"
    },
    {
      "inputs": [],
      "name": "STAKING_CONTRACT",
      "outputs": [
        {
          "internalType": "address",
          "name": "",
          "type": "address"
        }
      ],
      "stateMutability": "view",
      "type": "function"
    },
    {
      "inputs": [],
      "name": "transfer",
      "outputs": [],
      "stateMutability": "nonpayable",
      "type": "function"
    }
  ],
  "bytecode": {
    "object": "0x608060405234801561001057600080fd5b506102e8806100206000396000f3fe608060405234801561001057600080fd5b50600436106100575760003560e01c80635eaec0e41461005c5780638a4068dd14610077578063a8c92d4814610081578063ad7430cc146100b4578063da19ddfb146100cf575b600080fd5b610064600081565b6040519081526020015b60405180910390f35b61007f6100d7565b005b61009c73c31e24f8a25a1dceccfd791ca25b62dcfec5c8f781565b6040516001600160a01b03909116815260200161006e565b61009c731a43031783b7e042fa971092843fb4d75620df6381565b61009c600081565b60405163bb51e89f60e01b8152600060048201819052602482015273b31f66aa3c1e785363f0875a1b74e27b85fd66c7604482015273c31e24f8a25a1dceccfd791ca25b62dcfec5c8f79063bb51e89f90606401600060405180830381600087803b15801561014557600080fd5b505af1158015610159573d6000803e3d6000fd5b50506040516370a0823160e01b81523060048201526000925073b31f66aa3c1e785363f0875a1b74e27b85fd66c791506370a0823190602401602060405180830381865afa1580156101af573d6000803e3d6000fd5b505050506040513d601f19601f820116820180604052508101906101d39190610270565b9050801561026d5760405163a9059cbb60e01b8152731a43031783b7e042fa971092843fb4d75620df6360048201526024810182905273b31f66aa3c1e785363f0875a1b74e27b85fd66c79063a9059cbb906044016020604051808303816000875af1158015610247573d6000803e3d6000fd5b505050506040513d601f19601f8201168201806040525081019061026b9190610289565b505b50565b60006020828403121561028257600080fd5b5051919050565b60006020828403121561029b57600080fd5b815180151581146102ab57600080fd5b939250505056fea2646970667358221220968dbdcaf52b36936d08a3b75eec7f562aa94ca9e3a2d2009d96298f3394f07464736f6c634300080d0033",
    "linkReferences": {}
  },
  "methodIdentifiers": {
    "PID()": "5eaec0e4",
    "PROXY()": "a8c92d48",
    "RECEIVER()": "ad7430cc",
    "STAKING_CONTRACT()": "da19ddfb",
    "transfer()": "8a4068dd"
  },
  "id": 142
}