{
  "abi": [
    {
      "inputs": [
        {
          "internalType": "address",
          "name": "_voter",
          "type": "address"
        },
        {
          "internalType": "address",
          "name": "_devAddr",
          "type": "address"
        },
        {
          "components": [
            {
              "internalType": "uint256",
              "name": "stakerFeeBips",
              "type": "uint256"
            },
            {
              "internalType": "uint256",
              "name": "boosterFeeBips",
              "type": "uint256"
            },
            {
              "internalType": "address",
              "name": "stakerFeeReceiver",
              "type": "address"
            },
            {
              "internalType": "address",
              "name": "boosterFeeReceiver",
              "type": "address"
            }
          ],
          "internalType": "struct JoeVoterProxy.FeeSettings",
          "name": "_feeSettings",
          "type": "tuple"
        }
      ],
      "stateMutability": "nonpayable",
      "type": "constructor"
    },
    {
      "inputs": [],
      "name": "JOE",
      "outputs": [
        {
          "internalType": "address",
          "name": "",
          "type": "address"
        }
      ],
      "stateMutability": "view",
      "type": "function"
    },
    {
      "inputs": [
        {
          "internalType": "address",
          "name": "_stakingContract",
          "type": "address"
        },
        {
          "internalType": "address",
          "name": "_strategy",
          "type": "address"
        }
      ],
      "name": "approveStrategy",
      "outputs": [],
      "stateMutability": "nonpayable",
      "type": "function"
    },
    {
      "inputs": [],
      "name": "boosterFee",
      "outputs": [
        {
          "internalType": "uint256",
          "name": "",
          "type": "uint256"
        }
      ],
      "stateMutability": "view",
      "type": "function"
    },
    {
      "inputs": [],
      "name": "boosterFeeReceiver",
      "outputs": [
        {
          "internalType": "address",
          "name": "",
          "type": "address"
        }
      ],
      "stateMutability": "view",
      "type": "function"
    },
    {
      "inputs": [
        {
          "internalType": "uint256",
          "name": "_pid",
          "type": "uint256"
        },
        {
          "internalType": "address",
          "name": "_stakingContract",
          "type": "address"
        },
        {
          "internalType": "address",
          "name": "_extraToken",
          "type": "address"
        }
      ],
      "name": "claimReward",
      "outputs": [],
      "stateMutability": "nonpayable",
      "type": "function"
    },
    {
      "inputs": [
        {
          "internalType": "uint256",
          "name": "_pid",
          "type": "uint256"
        },
        {
          "internalType": "address",
          "name": "_stakingContract",
          "type": "address"
        },
        {
          "internalType": "address",
          "name": "_token",
          "type": "address"
        },
        {
          "internalType": "uint256",
          "name": "_amount",
          "type": "uint256"
        }
      ],
      "name": "deposit",
      "outputs": [],
      "stateMutability": "nonpayable",
      "type": "function"
    },
    {
      "inputs": [],
      "name": "devAddr",
      "outputs": [
        {
          "internalType": "address",
          "name": "",
          "type": "address"
        }
      ],
      "stateMutability": "view",
      "type": "function"
    },
    {
      "inputs": [
        {
          "internalType": "uint256",
          "name": "_pid",
          "type": "uint256"
        },
        {
          "internalType": "address",
          "name": "_stakingContract",
          "type": "address"
        },
        {
          "internalType": "address",
          "name": "_extraToken",
          "type": "address"
        }
      ],
      "name": "distributeReward",
      "outputs": [],
      "stateMutability": "nonpayable",
      "type": "function"
    },
    {
      "inputs": [
        {
          "internalType": "uint256",
          "name": "_pid",
          "type": "uint256"
        },
        {
          "internalType": "address",
          "name": "_stakingContract",
          "type": "address"
        },
        {
          "internalType": "address",
          "name": "_token",
          "type": "address"
        }
      ],
      "name": "emergencyWithdraw",
      "outputs": [],
      "stateMutability": "nonpayable",
      "type": "function"
    },
    {
      "inputs": [
        {
          "internalType": "address",
          "name": "_stakingContract",
          "type": "address"
        },
        {
          "internalType": "uint256",
          "name": "_pid",
          "type": "uint256"
        }
      ],
      "name": "pendingRewards",
      "outputs": [
        {
          "internalType": "uint256",
          "name": "pendingJoe",
          "type": "uint256"
        },
        {
          "internalType": "address",
          "name": "bonusTokenAddress",
          "type": "address"
        },
        {
          "internalType": "uint256",
          "name": "pendingBonusToken",
          "type": "uint256"
        }
      ],
      "stateMutability": "view",
      "type": "function"
    },
    {
      "inputs": [
        {
          "internalType": "address",
          "name": "_stakingContract",
          "type": "address"
        },
        {
          "internalType": "uint256",
          "name": "_pid",
          "type": "uint256"
        }
      ],
      "name": "poolBalance",
      "outputs": [
        {
          "internalType": "uint256",
          "name": "balance",
          "type": "uint256"
        }
      ],
      "stateMutability": "view",
      "type": "function"
    },
    {
      "inputs": [],
      "name": "reinvestFeeBips",
      "outputs": [
        {
          "internalType": "uint256",
          "name": "",
          "type": "uint256"
        }
      ],
      "stateMutability": "view",
      "type": "function"
    },
    {
      "inputs": [
        {
          "internalType": "uint256",
          "name": "_boosterFeeBips",
          "type": "uint256"
        }
      ],
      "name": "setBoosterFee",
      "outputs": [],
      "stateMutability": "nonpayable",
      "type": "function"
    },
    {
      "inputs": [
        {
          "internalType": "address",
          "name": "_boosterFeeReceiver",
          "type": "address"
        }
      ],
      "name": "setBoosterFeeReceiver",
      "outputs": [],
      "stateMutability": "nonpayable",
      "type": "function"
    },
    {
      "inputs": [
        {
          "internalType": "uint256",
          "name": "_stakerFeeBips",
          "type": "uint256"
        }
      ],
      "name": "setStakerFee",
      "outputs": [],
      "stateMutability": "nonpayable",
      "type": "function"
    },
    {
      "inputs": [
        {
          "internalType": "address",
          "name": "_stakerFeeReceiver",
          "type": "address"
        }
      ],
      "name": "setStakerFeeReceiver",
      "outputs": [],
      "stateMutability": "nonpayable",
      "type": "function"
    },
    {
      "inputs": [],
      "name": "stakerFee",
      "outputs": [
        {
          "internalType": "uint256",
          "name": "",
          "type": "uint256"
        }
      ],
      "stateMutability": "view",
      "type": "function"
    },
    {
      "inputs": [],
      "name": "stakerFeeReceiver",
      "outputs": [
        {
          "internalType": "address",
          "name": "",
          "type": "address"
        }
      ],
      "stateMutability": "view",
      "type": "function"
    },
    {
      "inputs": [
        {
          "internalType": "address",
          "name": "newValue",
          "type": "address"
        }
      ],
      "name": "updateDevAddr",
      "outputs": [],
      "stateMutability": "nonpayable",
      "type": "function"
    },
    {
      "inputs": [],
      "name": "veJoeStaking",
      "outputs": [
        {
          "internalType": "address",
          "name": "",
          "type": "address"
        }
      ],
      "stateMutability": "view",
      "type": "function"
    },
    {
      "inputs": [],
      "name": "voter",
      "outputs": [
        {
          "internalType": "contract IJoeVoter",
          "name": "",
          "type": "address"
        }
      ],
      "stateMutability": "view",
      "type": "function"
    },
    {
      "inputs": [
        {
          "internalType": "uint256",
          "name": "_pid",
          "type": "uint256"
        },
        {
          "internalType": "address",
          "name": "_stakingContract",
          "type": "address"
        },
        {
          "internalType": "address",
          "name": "_token",
          "type": "address"
        },
        {
          "internalType": "uint256",
          "name": "_amount",
          "type": "uint256"
        }
      ],
      "name": "withdraw",
      "outputs": [],
      "stateMutability": "nonpayable",
      "type": "function"
    }
  ],
  "bytecode": {
    "object": "0x60a06040523480156200001157600080fd5b5060405162001df538038062001df58339810160408190526200003491620000ae565b600480546001600160a01b03199081166001600160a01b039485161790915560208201516000558151600155604082015160028054831691851691909117905560609091015160038054909216908316179055166080526200016c565b80516001600160a01b0381168114620000a957600080fd5b919050565b600080600083850360c0811215620000c557600080fd5b620000d08562000091565b9350620000e06020860162000091565b92506080603f1982011215620000f557600080fd5b50604051608081016001600160401b03811182821017156200012757634e487b7160e01b600052604160045260246000fd5b6040908152850151815260608501516020820152620001496080860162000091565b60408201526200015c60a0860162000091565b6060820152809150509250925092565b608051611bef620002066000396000818161019d015281816103c70152818161057e015281816105de015281816107e80152818161086201528181610b1901528181610b5901528181610c4b01528181610cca01528181610d5e01528181610f0801528181610fa30152818161105b015281816110fb015281816111b4015281816112280152818161136901526113f90152611bef6000f3fe608060405234801561001057600080fd5b50600436106101425760003560e01c80639291d563116100b8578063c494448e1161007c578063c494448e146102bc578063d2cee46f146102cf578063da09c72c146102e2578063e4cca4b0146102f5578063ea09f6c814610308578063ffebad301461032357600080fd5b80639291d5631461025d57806397eef18714610270578063a318c1a414610283578063b5e893a514610296578063bb51e89f146102a957600080fd5b80636099ecb21161010a5780636099ecb2146101dd5780636f7b2a6214610213578063781a29d114610226578063792a230f1461022f5780638583b7fa14610242578063865710f01461024a57600080fd5b806301e1c48d146101475780632d61a5461461016d57806346c96aac14610198578063491cad29146101bf5780634b2d9ffc146101d4575b600080fd5b61015a61015536600461171d565b61033e565b6040519081526020015b60405180910390f35b600254610180906001600160a01b031681565b6040516001600160a01b039091168152602001610164565b6101807f000000000000000000000000000000000000000000000000000000000000000081565b6101d26101cd366004611749565b610351565b005b61015a60015481565b6101f06101eb36600461171d565b6103a6565b604080519384526001600160a01b03909216602084015290820152606001610164565b6101d2610221366004611766565b6104e4565b61015a60005481565b600354610180906001600160a01b031681565b61015a6105b7565b6101d26102583660046117a8565b6106a0565b6101d261026b366004611749565b6106cf565b6101d261027e3660046117a8565b61071b565b6101d26102913660046117c1565b61074a565b6101d26102a4366004611749565b610893565b6101d26102b7366004611766565b6108df565b6101d26102ca366004611809565b610930565b6101d26102dd366004611766565b610a84565b600454610180906001600160a01b031681565b6101d26103033660046117c1565b610bf4565b6101807325d85e17dd9e544f6e9f8d44f99602dbf5a9734181565b610180736e84a6216ea6dacc71ee8e6b0a5b7322eebc0fdd81565b600061034a8383610d40565b9392505050565b6004546001600160a01b031633146103845760405162461bcd60e51b815260040161037b90611842565b60405180910390fd5b600380546001600160a01b0319166001600160a01b0392909216919091179055565b60405160016232bd9d60e01b03198152600481018290526001600160a01b037f000000000000000000000000000000000000000000000000000000000000000081166024830152600091829182919086169063ffcd426390604401600060405180830381865afa15801561041e573d6000803e3d6000fd5b505050506040513d6000823e601f3d908101601f19168201604052610446919081019061192c565b905080935081945082955050505060006104ce6127106104c8306001600160a01b0316638583b7fa6040518163ffffffff1660e01b8152600401602060405180830381865afa15801561049d573d6000803e3d6000fd5b505050506040513d601f19601f820116820180604052508101906104c191906119a2565b8790610ddc565b90610de8565b90506104da8482610df4565b9350509250925092565b6001600160a01b0380831660009081526005602090815260408083208784529091529020548391859116331461052c5760405162461bcd60e51b815260040161037b906119bb565b604051602481018690526000604482018190526105a6918691906064015b60408051601f198184030181529190526020810180516001600160e01b0316631c57762b60e31b1790526001600160a01b037f000000000000000000000000000000000000000000000000000000000000000016929190610e00565b506105b083610ee1565b5050505050565b600080548190158015906105d557506003546001600160a01b031615155b801561065e57507f00000000000000000000000000000000000000000000000000000000000000006001600160a01b0316635392fd1c6040518163ffffffff1660e01b8152600401602060405180830381865afa15801561063a573d6000803e3d6000fd5b505050506040513d601f19601f8201168201806040525081019061065e9190611a07565b1561066857506000545b60008060015411801561068557506002546001600160a01b031615155b1561068f57506001545b610699828261146b565b9250505090565b6004546001600160a01b031633146106ca5760405162461bcd60e51b815260040161037b90611842565b600055565b6004546001600160a01b031633146106f95760405162461bcd60e51b815260040161037b90611842565b600480546001600160a01b0319166001600160a01b0392909216919091179055565b6004546001600160a01b031633146107455760405162461bcd60e51b815260040161037b90611842565b600155565b6001600160a01b038084166000908152600560209081526040808320888452909152902054849186911633146107925760405162461bcd60e51b815260040161037b906119bb565b61081085600088866040516024016107b4929190918252602082015260400190565b60408051601f198184030181529190526020810180516001600160e01b0316630441a3e760e41b1790526001600160a01b037f000000000000000000000000000000000000000000000000000000000000000016929190610e00565b506040513360248201526044810184905261088a9085906000906064015b60408051601f198184030181529190526020810180516001600160e01b031663a9059cbb60e01b1790526001600160a01b037f000000000000000000000000000000000000000000000000000000000000000016929190610e00565b50505050505050565b6004546001600160a01b031633146108bd5760405162461bcd60e51b815260040161037b90611842565b600280546001600160a01b0319166001600160a01b0392909216919091179055565b6001600160a01b038083166000908152600560209081526040808320878452909152902054839185911633146109275760405162461bcd60e51b815260040161037b906119bb565b6105b083610ee1565b6004546001600160a01b0316331461095a5760405162461bcd60e51b815260040161037b90611842565b6000816001600160a01b0316635eaec0e46040518163ffffffff1660e01b81526004016020604051808303816000875af115801561099c573d6000803e3d6000fd5b505050506040513d601f19601f820116820180604052508101906109c091906119a2565b6001600160a01b0384811660009081526005602090815260408083208584529091529020549192501615610a4c5760405162461bcd60e51b815260206004820152602d60248201527f4a6f65566f74657250726f78793a3a537472617465677920666f72205049442060448201526c185b1c9958591e481859191959609a1b606482015260840161037b565b6001600160a01b0392831660009081526005602090815260408083209383529290522080546001600160a01b03191691909216179055565b6001600160a01b03808316600090815260056020908152604080832087845290915290205483918591163314610acc5760405162461bcd60e51b815260040161037b906119bb565b610b4184600087604051602401610ae591815260200190565b60408051601f198184030181529190526020810180516001600160e01b0316632989754760e11b1790526001600160a01b037f000000000000000000000000000000000000000000000000000000000000000016929190610e00565b506040516370a0823160e01b81526001600160a01b037f000000000000000000000000000000000000000000000000000000000000000081166004830152600091908516906370a0823190602401602060405180830381865afa158015610bac573d6000803e3d6000fd5b505050506040513d601f19601f82011682018060405250810190610bd091906119a2565b6040513360248201526044810182905290915061088a90859060009060640161082e565b6001600160a01b03808416600090815260056020908152604080832088845290915290205484918691163314610c3c5760405162461bcd60e51b815260040161037b906119bb565b610c706001600160a01b0385167f000000000000000000000000000000000000000000000000000000000000000085611477565b6040516001600160a01b038616602482015260448101849052610cf29085906000906064015b60408051601f198184030181529190526020810180516001600160e01b031663095ea7b360e01b1790526001600160a01b037f000000000000000000000000000000000000000000000000000000000000000016929190610e00565b50610d15856000888660405160240161054a929190918252602082015260400190565b506040516001600160a01b038616602482015260006044820181905261088a91869190606401610c96565b6040516393f1a40b60e01b8152600481018290526001600160a01b037f000000000000000000000000000000000000000000000000000000000000000081166024830152600091908416906393f1a40b906044016040805180830381865afa158015610db0573d6000803e3d6000fd5b505050506040513d601f19601f82011682018060405250810190610dd49190611a22565b509392505050565b600061034a8284611a5c565b600061034a8284611a7b565b600061034a8284611a9d565b6060600080866001600160a01b031663b61d27f68787876040518463ffffffff1660e01b8152600401610e3593929190611ae0565b6000604051808303816000875af1158015610e54573d6000803e3d6000fd5b505050506040513d6000823e601f3d908101601f19168201604052610e7c9190810190611b10565b9150915081610ed75760405162461bcd60e51b815260206004820152602160248201527f4a6f65566f74657250726f78793a3a7361666545786563757465206661696c656044820152601960fa1b606482015260840161037b565b9695505050505050565b73b31f66aa3c1e785363f0875a1b74e27b85fd66c6196001600160a01b03821601610f8c577f00000000000000000000000000000000000000000000000000000000000000006001600160a01b0316635a556f516040518163ffffffff1660e01b81526004016020604051808303816000875af1158015610f66573d6000803e3d6000fd5b505050506040513d601f19601f82011682018060405250810190610f8a91906119a2565b505b6040516370a0823160e01b81526001600160a01b037f0000000000000000000000000000000000000000000000000000000000000000166004820152600090736e84a6216ea6dacc71ee8e6b0a5b7322eebc0fdd906370a0823190602401602060405180830381865afa158015611007573d6000803e3d6000fd5b505050506040513d601f19601f8201168201806040525081019061102b91906119a2565b905060006001600160a01b0383166110445760006110ce565b6040516370a0823160e01b81526001600160a01b037f0000000000000000000000000000000000000000000000000000000000000000811660048301528416906370a0823190602401602060405180830381865afa1580156110aa573d6000803e3d6000fd5b505050506040513d601f19601f820116820180604052508101906110ce91906119a2565b905081156113295760008080541180156110f257506003546001600160a01b031615155b801561117b57507f00000000000000000000000000000000000000000000000000000000000000006001600160a01b0316635392fd1c6040518163ffffffff1660e01b8152600401602060405180830381865afa158015611157573d6000803e3d6000fd5b505050506040513d601f19601f8201168201806040525081019061117b9190611a07565b156112525761119b6127106104c860005486610ddc90919063ffffffff16565b604051637c0bb4ab60e01b8152600481018290529091507f00000000000000000000000000000000000000000000000000000000000000006001600160a01b031690637c0bb4ab90602401600060405180830381600087803b15801561120057600080fd5b505af1158015611214573d6000803e3d6000fd5b505060035461125292506001600160a01b037f0000000000000000000000000000000000000000000000000000000000000000811692501683611477565b60008060015411801561126f57506002546001600160a01b031615155b156112d65761128f6127106104c860015487610ddc90919063ffffffff16565b6002546040516001600160a01b039091166024820152604481018290529091506112d490736e84a6216ea6dacc71ee8e6b0a5b7322eebc0fdd9060009060640161082e565b505b60006112ec826112e68786610df4565b90610df4565b6040513360248201526044810182905290915061132490736e84a6216ea6dacc71ee8e6b0a5b7322eebc0fdd9060009060640161082e565b505050505b8015611352576040513360248201526044810182905261135090849060009060640161082e565b505b604051637e17a9db60e11b81526001600160a01b037f00000000000000000000000000000000000000000000000000000000000000001660048201526000907325d85e17dd9e544f6e9f8d44f99602dbf5a973419063fc2f53b690602401602060405180830381865afa1580156113cd573d6000803e3d6000fd5b505050506040513d601f19601f820116820180604052508101906113f191906119a2565b1115611466577f00000000000000000000000000000000000000000000000000000000000000006001600160a01b0316633b29b4bc6040518163ffffffff1660e01b8152600401600060405180830381600087803b15801561145257600080fd5b505af115801561088a573d6000803e3d6000fd5b505050565b600061034a8284611b72565b604080516001600160a01b03848116602483015260448083018590528351808403909101815260649092018352602080830180516001600160e01b031663a9059cbb60e01b17905283518085019094528084527f5361666545524332303a206c6f772d6c6576656c2063616c6c206661696c65649084015261146692869291600091611507918516908490611584565b80519091501561146657808060200190518101906115259190611a07565b6114665760405162461bcd60e51b815260206004820152602a60248201527f5361666545524332303a204552433230206f7065726174696f6e20646964206e6044820152691bdd081cdd58d8d9595960b21b606482015260840161037b565b6060611593848460008561159b565b949350505050565b6060824710156115fc5760405162461bcd60e51b815260206004820152602660248201527f416464726573733a20696e73756666696369656e742062616c616e636520666f6044820152651c8818d85b1b60d21b606482015260840161037b565b6001600160a01b0385163b6116535760405162461bcd60e51b815260206004820152601d60248201527f416464726573733a2063616c6c20746f206e6f6e2d636f6e7472616374000000604482015260640161037b565b600080866001600160a01b0316858760405161166f9190611b8a565b60006040518083038185875af1925050503d80600081146116ac576040519150601f19603f3d011682016040523d82523d6000602084013e6116b1565b606091505b50915091506116c18282866116cc565b979650505050505050565b606083156116db57508161034a565b8251156116eb5782518084602001fd5b8160405162461bcd60e51b815260040161037b9190611ba6565b6001600160a01b038116811461171a57600080fd5b50565b6000806040838503121561173057600080fd5b823561173b81611705565b946020939093013593505050565b60006020828403121561175b57600080fd5b813561034a81611705565b60008060006060848603121561177b57600080fd5b83359250602084013561178d81611705565b9150604084013561179d81611705565b809150509250925092565b6000602082840312156117ba57600080fd5b5035919050565b600080600080608085870312156117d757600080fd5b8435935060208501356117e981611705565b925060408501356117f981611705565b9396929550929360600135925050565b6000806040838503121561181c57600080fd5b823561182781611705565b9150602083013561183781611705565b809150509250929050565b6020808252601690820152752537b2ab37ba32b9283937bc3c9d1d37b7363ca232bb60511b604082015260600190565b634e487b7160e01b600052604160045260246000fd5b60005b838110156118a357818101518382015260200161188b565b838111156118b2576000848401525b50505050565b600067ffffffffffffffff808411156118d3576118d3611872565b604051601f8501601f19908116603f011681019082821181831017156118fb576118fb611872565b8160405280935085815286868601111561191457600080fd5b611922866020830187611888565b5050509392505050565b6000806000806080858703121561194257600080fd5b84519350602085015161195481611705565b604086015190935067ffffffffffffffff81111561197157600080fd5b8501601f8101871361198257600080fd5b611991878251602084016118b8565b606096909601519497939650505050565b6000602082840312156119b457600080fd5b5051919050565b6020808252601b908201527f4a6f65566f74657250726f78793a3a6f6e6c7953747261746567790000000000604082015260600190565b80518015158114611a0257600080fd5b919050565b600060208284031215611a1957600080fd5b61034a826119f2565b60008060408385031215611a3557600080fd5b505080516020909101519092909150565b634e487b7160e01b600052601160045260246000fd5b6000816000190483118215151615611a7657611a76611a46565b500290565b600082611a9857634e487b7160e01b600052601260045260246000fd5b500490565b600082821015611aaf57611aaf611a46565b500390565b60008151808452611acc816020860160208601611888565b601f01601f19169290920160200192915050565b60018060a01b0384168152826020820152606060408201526000611b076060830184611ab4565b95945050505050565b60008060408385031215611b2357600080fd5b611b2c836119f2565b9150602083015167ffffffffffffffff811115611b4857600080fd5b8301601f81018513611b5957600080fd5b611b68858251602084016118b8565b9150509250929050565b60008219821115611b8557611b85611a46565b500190565b60008251611b9c818460208701611888565b9190910192915050565b60208152600061034a6020830184611ab456fea2646970667358221220c52c56b85ad213ad5a7eeaa560cec804ffce4470ac40fa0ca894a34769249afe64736f6c634300080d0033",
    "linkReferences": {}
  },
  "methodIdentifiers": {
    "JOE()": "ffebad30",
    "approveStrategy(address,address)": "c494448e",
    "boosterFee()": "781a29d1",
    "boosterFeeReceiver()": "792a230f",
    "claimReward(uint256,address,address)": "6f7b2a62",
    "deposit(uint256,address,address,uint256)": "e4cca4b0",
    "devAddr()": "da09c72c",
    "distributeReward(uint256,address,address)": "bb51e89f",
    "emergencyWithdraw(uint256,address,address)": "d2cee46f",
    "pendingRewards(address,uint256)": "6099ecb2",
    "poolBalance(address,uint256)": "01e1c48d",
    "reinvestFeeBips()": "8583b7fa",
    "setBoosterFee(uint256)": "865710f0",
    "setBoosterFeeReceiver(address)": "491cad29",
    "setStakerFee(uint256)": "97eef187",
    "setStakerFeeReceiver(address)": "b5e893a5",
    "stakerFee()": "4b2d9ffc",
    "stakerFeeReceiver()": "2d61a546",
    "updateDevAddr(address)": "9291d563",
    "veJoeStaking()": "ea09f6c8",
    "voter()": "46c96aac",
    "withdraw(uint256,address,address,uint256)": "a318c1a4"
  },
  "id": 141
}