{
  "abi": [
    {
      "inputs": [
        {
          "internalType": "address",
          "name": "_platypusVoter",
          "type": "address"
        },
        {
          "internalType": "address",
          "name": "_devAddr",
          "type": "address"
        },
        {
          "components": [
            {
              "internalType": "uint256",
              "name": "stakerFeeBips",
              "type": "uint256"
            },
            {
              "internalType": "uint256",
              "name": "boosterFeeBips",
              "type": "uint256"
            },
            {
              "internalType": "address",
              "name": "stakerFeeReceiver",
              "type": "address"
            },
            {
              "internalType": "address",
              "name": "boosterFeeReceiver",
              "type": "address"
            }
          ],
          "internalType": "struct PlatypusVoterProxy.FeeSettings",
          "name": "_feeSettings",
          "type": "tuple"
        }
      ],
      "stateMutability": "nonpayable",
      "type": "constructor"
    },
    {
      "inputs": [],
      "name": "PLATYPUS_NFT",
      "outputs": [
        {
          "internalType": "address",
          "name": "",
          "type": "address"
        }
      ],
      "stateMutability": "view",
      "type": "function"
    },
    {
      "inputs": [],
      "name": "PTP",
      "outputs": [
        {
          "internalType": "address",
          "name": "",
          "type": "address"
        }
      ],
      "stateMutability": "view",
      "type": "function"
    },
    {
      "inputs": [
        {
          "internalType": "address",
          "name": "_stakingContract",
          "type": "address"
        },
        {
          "internalType": "address",
          "name": "_strategy",
          "type": "address"
        }
      ],
      "name": "approveStrategy",
      "outputs": [],
      "stateMutability": "nonpayable",
      "type": "function"
    },
    {
      "inputs": [],
      "name": "boosterFee",
      "outputs": [
        {
          "internalType": "uint256",
          "name": "",
          "type": "uint256"
        }
      ],
      "stateMutability": "view",
      "type": "function"
    },
    {
      "inputs": [],
      "name": "boosterFeeReceiver",
      "outputs": [
        {
          "internalType": "address",
          "name": "",
          "type": "address"
        }
      ],
      "stateMutability": "view",
      "type": "function"
    },
    {
      "inputs": [
        {
          "internalType": "address",
          "name": "_stakingContract",
          "type": "address"
        },
        {
          "internalType": "uint256",
          "name": "_pid",
          "type": "uint256"
        }
      ],
      "name": "claimReward",
      "outputs": [],
      "stateMutability": "nonpayable",
      "type": "function"
    },
    {
      "inputs": [
        {
          "internalType": "uint256",
          "name": "_pid",
          "type": "uint256"
        },
        {
          "internalType": "address",
          "name": "_stakingContract",
          "type": "address"
        },
        {
          "internalType": "address",
          "name": "_pool",
          "type": "address"
        },
        {
          "internalType": "address",
          "name": "_token",
          "type": "address"
        },
        {
          "internalType": "address",
          "name": "_asset",
          "type": "address"
        },
        {
          "internalType": "uint256",
          "name": "_amount",
          "type": "uint256"
        },
        {
          "internalType": "uint256",
          "name": "_depositFee",
          "type": "uint256"
        }
      ],
      "name": "deposit",
      "outputs": [],
      "stateMutability": "nonpayable",
      "type": "function"
    },
    {
      "inputs": [],
      "name": "devAddr",
      "outputs": [
        {
          "internalType": "address",
          "name": "",
          "type": "address"
        }
      ],
      "stateMutability": "view",
      "type": "function"
    },
    {
      "inputs": [
        {
          "internalType": "uint256",
          "name": "_pid",
          "type": "uint256"
        },
        {
          "internalType": "address",
          "name": "_stakingContract",
          "type": "address"
        },
        {
          "internalType": "address",
          "name": "_pool",
          "type": "address"
        },
        {
          "internalType": "address",
          "name": "_token",
          "type": "address"
        },
        {
          "internalType": "address",
          "name": "_asset",
          "type": "address"
        }
      ],
      "name": "emergencyWithdraw",
      "outputs": [],
      "stateMutability": "nonpayable",
      "type": "function"
    },
    {
      "inputs": [
        {
          "internalType": "address",
          "name": "_stakingContract",
          "type": "address"
        },
        {
          "internalType": "uint256",
          "name": "_pid",
          "type": "uint256"
        }
      ],
      "name": "pendingRewards",
      "outputs": [
        {
          "internalType": "uint256",
          "name": "",
          "type": "uint256"
        },
        {
          "internalType": "uint256",
          "name": "",
          "type": "uint256"
        },
        {
          "internalType": "address",
          "name": "",
          "type": "address"
        }
      ],
      "stateMutability": "view",
      "type": "function"
    },
    {
      "inputs": [],
      "name": "platypusVoter",
      "outputs": [
        {
          "internalType": "contract IPlatypusVoter",
          "name": "",
          "type": "address"
        }
      ],
      "stateMutability": "view",
      "type": "function"
    },
    {
      "inputs": [
        {
          "internalType": "address",
          "name": "_stakingContract",
          "type": "address"
        },
        {
          "internalType": "uint256",
          "name": "_pid",
          "type": "uint256"
        }
      ],
      "name": "poolBalance",
      "outputs": [
        {
          "internalType": "uint256",
          "name": "balance",
          "type": "uint256"
        }
      ],
      "stateMutability": "view",
      "type": "function"
    },
    {
      "inputs": [],
      "name": "reinvestFeeBips",
      "outputs": [
        {
          "internalType": "uint256",
          "name": "",
          "type": "uint256"
        }
      ],
      "stateMutability": "view",
      "type": "function"
    },
    {
      "inputs": [
        {
          "internalType": "uint256",
          "name": "_boosterFeeBips",
          "type": "uint256"
        }
      ],
      "name": "setBoosterFee",
      "outputs": [],
      "stateMutability": "nonpayable",
      "type": "function"
    },
    {
      "inputs": [
        {
          "internalType": "address",
          "name": "_boosterFeeReceiver",
          "type": "address"
        }
      ],
      "name": "setBoosterFeeReceiver",
      "outputs": [],
      "stateMutability": "nonpayable",
      "type": "function"
    },
    {
      "inputs": [
        {
          "internalType": "uint256",
          "name": "_stakerFeeBips",
          "type": "uint256"
        }
      ],
      "name": "setStakerFee",
      "outputs": [],
      "stateMutability": "nonpayable",
      "type": "function"
    },
    {
      "inputs": [
        {
          "internalType": "address",
          "name": "_stakerFeeReceiver",
          "type": "address"
        }
      ],
      "name": "setStakerFeeReceiver",
      "outputs": [],
      "stateMutability": "nonpayable",
      "type": "function"
    },
    {
      "inputs": [
        {
          "internalType": "uint256",
          "name": "id",
          "type": "uint256"
        }
      ],
      "name": "stakeNFT",
      "outputs": [],
      "stateMutability": "nonpayable",
      "type": "function"
    },
    {
      "inputs": [],
      "name": "stakerFee",
      "outputs": [
        {
          "internalType": "uint256",
          "name": "",
          "type": "uint256"
        }
      ],
      "stateMutability": "view",
      "type": "function"
    },
    {
      "inputs": [],
      "name": "stakerFeeReceiver",
      "outputs": [
        {
          "internalType": "address",
          "name": "",
          "type": "address"
        }
      ],
      "stateMutability": "view",
      "type": "function"
    },
    {
      "inputs": [
        {
          "internalType": "uint256",
          "name": "id",
          "type": "uint256"
        }
      ],
      "name": "sweepNFT",
      "outputs": [],
      "stateMutability": "nonpayable",
      "type": "function"
    },
    {
      "inputs": [],
      "name": "unstakeNFT",
      "outputs": [],
      "stateMutability": "nonpayable",
      "type": "function"
    },
    {
      "inputs": [
        {
          "internalType": "address",
          "name": "newValue",
          "type": "address"
        }
      ],
      "name": "updateDevAddr",
      "outputs": [],
      "stateMutability": "nonpayable",
      "type": "function"
    },
    {
      "inputs": [],
      "name": "vePTP",
      "outputs": [
        {
          "internalType": "contract IVePTP",
          "name": "",
          "type": "address"
        }
      ],
      "stateMutability": "view",
      "type": "function"
    },
    {
      "inputs": [
        {
          "internalType": "uint256",
          "name": "_pid",
          "type": "uint256"
        },
        {
          "internalType": "address",
          "name": "_stakingContract",
          "type": "address"
        },
        {
          "internalType": "address",
          "name": "_pool",
          "type": "address"
        },
        {
          "internalType": "address",
          "name": "_token",
          "type": "address"
        },
        {
          "internalType": "address",
          "name": "_asset",
          "type": "address"
        },
        {
          "internalType": "uint256",
          "name": "_maxSlippage",
          "type": "uint256"
        },
        {
          "internalType": "uint256",
          "name": "_amount",
          "type": "uint256"
        }
      ],
      "name": "withdraw",
      "outputs": [
        {
          "internalType": "uint256",
          "name": "",
          "type": "uint256"
        }
      ],
      "stateMutability": "nonpayable",
      "type": "function"
    }
  ],
  "bytecode": {
    "object": "0x60a06040523480156200001157600080fd5b5060405162002d0e38038062002d0e8339810160408190526200003491620000ae565b600480546001600160a01b03199081166001600160a01b039485161790915560208201516000558151600155604082015160028054831691851691909117905560609091015160038054909216908316179055166080526200016c565b80516001600160a01b0381168114620000a957600080fd5b919050565b600080600083850360c0811215620000c557600080fd5b620000d08562000091565b9350620000e06020860162000091565b92506080603f1982011215620000f557600080fd5b50604051608081016001600160401b03811182821017156200012757634e487b7160e01b600052604160045260246000fd5b6040908152850151815260608501516020820152620001496080860162000091565b60408201526200015c60a0860162000091565b6060820152809150509250925092565b608051612ad06200023e600039600081816103560152818161045901528181610499015281816105d40152818161066c0152818161080301528181610853015281816108ee015281816109a601528181610a4601528181610aff01528181610b7301528181610c4c01528181610ce601528181610d6e01528181610ec601528181610fc6015281816110ac0152818161116001528181611281015281816112d4015281816114ef0152818161181c015281816118950152818161191b0152818161196101526120920152612ad06000f3fe608060405234801561001057600080fd5b50600436106101735760003560e01c80638583b7fa116100de578063b5e893a511610097578063d289d96911610071578063d289d96914610351578063da09c72c14610378578063e0a747fe1461038b578063e8a17c821461039357600080fd5b8063b5e893a514610310578063b821da0b14610323578063c494448e1461033e57600080fd5b80638583b7fa146102a1578063865710f0146102a95780638dc1564a146102bc5780639291d563146102d757806397eef187146102ea578063a530882e146102fd57600080fd5b8063529ebc7d11610130578063529ebc7d1461020d5780636099ecb2146102205780636eb604e014610257578063781a29d11461026a578063792a230f1461027357806382fc6b1d1461028657600080fd5b806301e1c48d1461017857806302eb6f7e1461019e578063174e31c4146101b35780632d61a546146101c6578063491cad29146101f15780634b2d9ffc14610204575b600080fd5b61018b6101863660046123fb565b6103a6565b6040519081526020015b60405180910390f35b6101b16101ac366004612427565b6103bb565b005b6101b16101c13660046123fb565b6106f6565b6002546101d9906001600160a01b031681565b6040516001600160a01b039091168152602001610195565b6101b16101ff36600461248f565b610de9565b61018b60015481565b6101b161021b3660046124ac565b610e35565b61023361022e3660046123fb565b610fab565b6040805193845260208401929092526001600160a01b031690820152606001610195565b6101b1610265366004612526565b61106c565b61018b60005481565b6003546101d9906001600160a01b031681565b6101d9736a04a578247e15e3c038acf2686ca00a624a5aa081565b61018b6112ad565b6101b16102b7366004612526565b611396565b6101d97322d4002028f537599be9f666d1c4fa138522f9c881565b6101b16102e536600461248f565b6113c5565b6101b16102f8366004612526565b611411565b61018b61030b3660046124ac565b611440565b6101b161031e36600461248f565b611616565b6101d9735857019c749147eee22b1fe63500f237f3c1b69281565b6101b161034c36600461253f565b611662565b6101d97f000000000000000000000000000000000000000000000000000000000000000081565b6004546101d9906001600160a01b031681565b6101b16117bb565b6101b16103a1366004612526565b61185e565b60006103b28383611943565b90505b92915050565b6001600160a01b0380851660009081526005602090815260408083208984529091529020548591879116331461040c5760405162461bcd60e51b815260040161040390612578565b60405180910390fd5b6104818660008960405160240161042591815260200190565b60408051601f198184030181529190526020810180516001600160e01b0316632989754760e11b1790526001600160a01b037f000000000000000000000000000000000000000000000000000000000000000016929190611cba565b506040516370a0823160e01b81526001600160a01b037f000000000000000000000000000000000000000000000000000000000000000081166004830152600091908516906370a0823190602401602060405180830381865afa1580156104ec573d6000803e3d6000fd5b505050506040513d601f19601f8201168201806040525081019061051091906125ad565b90506000866001600160a01b031663907448ed87846040518363ffffffff1660e01b81526004016105429291906125c6565b606060405180830381865afa15801561055f573d6000803e3d6000fd5b505050506040513d601f19601f8201168201806040525081019061058391906125f4565b505090506105fc85600089856040516024016105a09291906125c6565b60408051601f198184030181529190526020810180516001600160e01b031663095ea7b360e01b1790526001600160a01b037f000000000000000000000000000000000000000000000000000000000000000016929190611cba565b506040516001600160a01b0387166024820152604481018390526064810182905233608482015260001960a482015261069490889060009060c4015b60408051601f198184030181529190526020810180516001600160e01b03166309a5fca360e01b1790526001600160a01b037f000000000000000000000000000000000000000000000000000000000000000016929190611cba565b506040516001600160a01b03891660248201526000604482018190526106bf918791906064016105a0565b506040516001600160a01b03881660248201526000604482018190526106ea918891906064016105a0565b50505050505050505050565b6001600160a01b0380831660009081526005602090815260408083208584529091529020548391839116331461073e5760405162461bcd60e51b815260040161040390612578565b604051632f1c3f6f60e21b8152600481018490526000906001600160a01b0386169063bc70fdbc90602401600060405180830381865afa158015610786573d6000803e3d6000fd5b505050506040513d6000823e601f3d908101601f191682016040526107ae9190810190612703565b506040516024810186905260006044820181905291925061082b9187916064015b60408051601f198184030181529190526020810180516001600160e01b0316631c57762b60e31b1790526001600160a01b037f000000000000000000000000000000000000000000000000000000000000000016929190611cba565b5073b31f66aa3c1e785363f0875a1b74e27b85fd66c6196001600160a01b038216016108d7577f00000000000000000000000000000000000000000000000000000000000000006001600160a01b0316635a556f516040518163ffffffff1660e01b81526004016020604051808303816000875af11580156108b1573d6000803e3d6000fd5b505050506040513d601f19601f820116820180604052508101906108d591906125ad565b505b6040516370a0823160e01b81526001600160a01b037f00000000000000000000000000000000000000000000000000000000000000001660048201526000907322d4002028f537599be9f666d1c4fa138522f9c8906370a0823190602401602060405180830381865afa158015610952573d6000803e3d6000fd5b505050506040513d601f19601f8201168201806040525081019061097691906125ad565b905060006001600160a01b03831661098f576000610a19565b6040516370a0823160e01b81526001600160a01b037f0000000000000000000000000000000000000000000000000000000000000000811660048301528416906370a0823190602401602060405180830381865afa1580156109f5573d6000803e3d6000fd5b505050506040513d601f19601f82011682018060405250810190610a1991906125ad565b90508115610cc1576000808054118015610a3d57506003546001600160a01b031615155b8015610ac657507f00000000000000000000000000000000000000000000000000000000000000006001600160a01b0316635392fd1c6040518163ffffffff1660e01b8152600401602060405180830381865afa158015610aa2573d6000803e3d6000fd5b505050506040513d601f19601f82011682018060405250810190610ac69190612754565b15610b9d5761271060005484610adc9190612785565b610ae691906127a4565b604051637c0bb4ab60e01b8152600481018290529091507f00000000000000000000000000000000000000000000000000000000000000006001600160a01b031690637c0bb4ab90602401600060405180830381600087803b158015610b4b57600080fd5b505af1158015610b5f573d6000803e3d6000fd5b5050600354610b9d92506001600160a01b037f0000000000000000000000000000000000000000000000000000000000000000811692501683611da0565b600080600154118015610bba57506002546001600160a01b031615155b15610c765761271060015485610bd09190612785565b610bda91906127a4565b600254604051919250610c74917322d4002028f537599be9f666d1c4fa138522f9c891600091610c18916001600160a01b03169086906024016125c6565b60408051601f198184030181529190526020810180516001600160e01b031663a9059cbb60e01b1790526001600160a01b037f000000000000000000000000000000000000000000000000000000000000000016929190611cba565b505b600081610c8384876127c6565b610c8d91906127c6565b9050610cbc7322d4002028f537599be9f666d1c4fa138522f9c860003384604051602401610c189291906125c6565b505050505b8015610ce257610ce08360003384604051602401610c189291906125c6565b505b60007f00000000000000000000000000000000000000000000000000000000000000006001600160a01b031663129635956040518163ffffffff1660e01b8152600401602060405180830381865afa158015610d42573d6000803e3d6000fd5b505050506040513d601f19601f82011682018060405250810190610d6691906125ad565b1115610de0577f00000000000000000000000000000000000000000000000000000000000000006001600160a01b031663a71871226040518163ffffffff1660e01b8152600401600060405180830381600087803b158015610dc757600080fd5b505af1158015610ddb573d6000803e3d6000fd5b505050505b50505050505050565b6004546001600160a01b03163314610e135760405162461bcd60e51b8152600401610403906127dd565b600380546001600160a01b0319166001600160a01b0392909216919091179055565b6001600160a01b0380871660009081526005602090815260408083208b845290915290205487918991163314610e7d5760405162461bcd60e51b815260040161040390612578565b6000610e8a868686611dfb565b9050610ea06001600160a01b0388168987611f63565b604051632434941d60e21b81526001600160a01b038881166004830152602482018790527f00000000000000000000000000000000000000000000000000000000000000008116604483015260001960648301528916906390d25074906084016020604051808303816000875af1158015610f1f573d6000803e3d6000fd5b505050506040513d601f19601f82011682018060405250810190610f4391906125ad565b50610f5d8660008b846040516024016105a09291906125c6565b50610f808960008c846040516024016107cf929190918252602082015260400190565b506040516001600160a01b038a166024820152600060448201819052610ddb918891906064016105a0565b600080600080600080876001600160a01b031663ffcd4263887f00000000000000000000000000000000000000000000000000000000000000006040518363ffffffff1660e01b81526004016110149291909182526001600160a01b0316602082015260400190565b600060405180830381865afa158015611031573d6000803e3d6000fd5b505050506040513d6000823e601f3d908101601f191682016040526110599190810190612814565b9298509196509450505050509250925092565b6004546001600160a01b031633146110965760405162461bcd60e51b8152600401610403906127dd565b6040516331a9108f60e11b8152600481018290527f00000000000000000000000000000000000000000000000000000000000000006001600160a01b031690736a04a578247e15e3c038acf2686ca00a624a5aa090636352211e90602401602060405180830381865afa158015611111573d6000803e3d6000fd5b505050506040513d601f19601f820116820180604052508101906111359190612876565b6001600160a01b0316146111de576040516323b872dd60e01b81523360048201526001600160a01b037f000000000000000000000000000000000000000000000000000000000000000016602482015260448101829052736a04a578247e15e3c038acf2686ca00a624a5aa0906323b872dd90606401600060405180830381600087803b1580156111c557600080fd5b505af11580156111d9573d6000803e3d6000fd5b505050505b61121f736a04a578247e15e3c038acf2686ca00a624a5aa06000735857019c749147eee22b1fe63500f237f3c1b692846040516024016105a09291906125c6565b506112a9735857019c749147eee22b1fe63500f237f3c1b69260008360405160240161124d91815260200190565b60408051601f198184030181529190526020810180516001600160e01b0316634300f5e160e01b1790526001600160a01b037f000000000000000000000000000000000000000000000000000000000000000016929190611cba565b5050565b600080548190158015906112cb57506003546001600160a01b031615155b801561135457507f00000000000000000000000000000000000000000000000000000000000000006001600160a01b0316635392fd1c6040518163ffffffff1660e01b8152600401602060405180830381865afa158015611330573d6000803e3d6000fd5b505050506040513d601f19601f820116820180604052508101906113549190612754565b1561135e57506000545b60008060015411801561137b57506002546001600160a01b031615155b1561138557506001545b61138f8183612893565b9250505090565b6004546001600160a01b031633146113c05760405162461bcd60e51b8152600401610403906127dd565b600055565b6004546001600160a01b031633146113ef5760405162461bcd60e51b8152600401610403906127dd565b600480546001600160a01b0319166001600160a01b0392909216919091179055565b6004546001600160a01b0316331461143b5760405162461bcd60e51b8152600401610403906127dd565b600155565b6001600160a01b0380871660009081526005602090815260408083208b8452909152812054909188918a9116331461148a5760405162461bcd60e51b815260040161040390612578565b60006114978b8b87612067565b90506115178a60008d846040516024016114bb929190918252602082015260400190565b60408051601f198184030181529190526020810180516001600160e01b0316630441a3e760e41b1790526001600160a01b037f000000000000000000000000000000000000000000000000000000000000000016929190611cba565b506115318760008b846040516024016105a09291906125c6565b50600061153f8a8a84612126565b61154990836127c6565b9050600061271061155a8984612785565b61156491906127a4565b905061157081836127c6565b6040516001600160a01b038c166024820152604481018590526064810182905230608482015260001960a48201529092506000906115b4908d90839060c401610638565b6040516001600160a01b038e1660248201526000604482018190529192506115e0918c916064016105a0565b5060006115ee8260006121a2565b90506116046001600160a01b038d163383611da0565b9e9d5050505050505050505050505050565b6004546001600160a01b031633146116405760405162461bcd60e51b8152600401610403906127dd565b600280546001600160a01b0319166001600160a01b0392909216919091179055565b6004546001600160a01b0316331461168c5760405162461bcd60e51b8152600401610403906127dd565b6000816001600160a01b0316635eaec0e46040518163ffffffff1660e01b81526004016020604051808303816000875af11580156116ce573d6000803e3d6000fd5b505050506040513d601f19601f820116820180604052508101906116f291906125ad565b6001600160a01b03848116600090815260056020908152604080832085845290915290205491925016156117835760405162461bcd60e51b815260206004820152603260248201527f506c617479707573566f74657250726f78793a3a537472617465677920666f726044820152710814125108185b1c9958591e48185919195960721b6064820152608401610403565b6001600160a01b0392831660009081526005602090815260408083209383529290522080546001600160a01b03191691909216179055565b6004546001600160a01b031633146117e55760405162461bcd60e51b8152600401610403906127dd565b6040805160048152602481019091526020810180516001600160e01b0316636e0d323560e01b17905261185b906001600160a01b037f00000000000000000000000000000000000000000000000000000000000000001690735857019c749147eee22b1fe63500f237f3c1b69290600090611cba565b50565b6004546001600160a01b031633146118885760405162461bcd60e51b8152600401610403906127dd565b6040516001600160a01b037f0000000000000000000000000000000000000000000000000000000000000000166024820152336044820152606481018290526112a990736a04a578247e15e3c038acf2686ca00a624a5aa09060009060840160408051601f198184030181529190526020810180516001600160e01b03166323b872dd60e01b1790526001600160a01b037f000000000000000000000000000000000000000000000000000000000000000016929190611cba565b6040516393f1a40b60e01b8152600481018290526001600160a01b037f00000000000000000000000000000000000000000000000000000000000000008116602483015260009182918516906393f1a40b90604401606060405180830381865afa1580156119b5573d6000803e3d6000fd5b505050506040513d601f19601f820116820180604052508101906119d991906128ab565b50509050806000036119ef5760009150506103b5565b600073b0523f9f473812fb195ee49bc7d2ab9873a98043196001600160a01b03861601611a8e57604051631526fe2760e01b8152600481018590526001600160a01b03861690631526fe279060240160e060405180830381865afa158015611a5b573d6000803e3d6000fd5b505050506040513d601f19601f82011682018060405250810190611a7f91906128d9565b50949550611b03945050505050565b604051631526fe2760e01b8152600481018590526001600160a01b03861690631526fe279060240161010060405180830381865afa158015611ad4573d6000803e3d6000fd5b505050506040513d601f19601f82011682018060405250810190611af89190612944565b509596505050505050505b6000816001600160a01b03166316f0115b6040518163ffffffff1660e01b8152600401602060405180830381865afa158015611b43573d6000803e3d6000fd5b505050506040513d601f19601f82011682018060405250810190611b679190612876565b90506000806000836001600160a01b031663907448ed866001600160a01b0316632495a5996040518163ffffffff1660e01b8152600401602060405180830381865afa158015611bbb573d6000803e3d6000fd5b505050506040513d601f19601f82011682018060405250810190611bdf9190612876565b886040518363ffffffff1660e01b8152600401611bfd9291906125c6565b606060405180830381865afa158015611c1a573d6000803e3d6000fd5b505050506040513d601f19601f82011682018060405250810190611c3e91906125f4565b92509250925080611ca35760405162461bcd60e51b815260206004820152602960248201527f506c617479707573566f74657250726f78793a3a546869732073686f756c646e60448201526813ba103430b83832b760b91b6064820152608401610403565b611cad8284612893565b9998505050505050505050565b6060600080866001600160a01b031663b61d27f68787876040518463ffffffff1660e01b8152600401611cef939291906129e3565b6000604051808303816000875af1158015611d0e573d6000803e3d6000fd5b505050506040513d6000823e601f3d908101601f19168201604052611d369190810190612a13565b9150915081611d965760405162461bcd60e51b815260206004820152602660248201527f506c617479707573566f74657250726f78793a3a73616665457865637574652060448201526519985a5b195960d21b6064820152608401610403565b9695505050505050565b611df68363a9059cbb60e01b8484604051602401611dbf9291906125c6565b60408051601f198184030181529190526020810180516001600160e01b03166001600160e01b031990931692909217909152612200565b505050565b6000836001600160a01b031663705727b56040518163ffffffff1660e01b8152600401602060405180830381865afa158015611e3b573d6000803e3d6000fd5b505050506040513d601f19601f82011682018060405250810190611e5f91906125ad565b600003611e7757611e7082846127c6565b9050611f5c565b836001600160a01b031663705727b56040518163ffffffff1660e01b8152600401602060405180830381865afa158015611eb5573d6000803e3d6000fd5b505050506040513d601f19601f82011682018060405250810190611ed991906125ad565b846001600160a01b03166318160ddd6040518163ffffffff1660e01b8152600401602060405180830381865afa158015611f17573d6000803e3d6000fd5b505050506040513d601f19601f82011682018060405250810190611f3b91906125ad565b611f4584866127c6565b611f4f9190612785565b611f5991906127a4565b90505b9392505050565b801580611fdd5750604051636eb1769f60e11b81523060048201526001600160a01b03838116602483015284169063dd62ed3e90604401602060405180830381865afa158015611fb7573d6000803e3d6000fd5b505050506040513d601f19601f82011682018060405250810190611fdb91906125ad565b155b6120485760405162461bcd60e51b815260206004820152603660248201527f5361666545524332303a20617070726f76652066726f6d206e6f6e2d7a65726f60448201527520746f206e6f6e2d7a65726f20616c6c6f77616e636560501b6064820152608401610403565b611df68363095ea7b360e01b8484604051602401611dbf9291906125c6565b6000806120748486611943565b6040516393f1a40b60e01b8152600481018790526001600160a01b037f0000000000000000000000000000000000000000000000000000000000000000811660248301529192506000918616906393f1a40b90604401606060405180830381865afa1580156120e7573d6000803e3d6000fd5b505050506040513d601f19601f8201168201806040525081019061210b91906128ab565b5050905081818561211c9190612785565b611d9691906127a4565b60405163907448ed60e01b81526000906001600160a01b0385169063907448ed9061215790869086906004016125c6565b606060405180830381865afa158015612174573d6000803e3d6000fd5b505050506040513d601f19601f8201168201806040525081019061219891906125f4565b5095945050505050565b60006121af826020612893565b835110156121f75760405162461bcd60e51b8152602060048201526015602482015274746f55696e743235365f6f75744f66426f756e647360581b6044820152606401610403565b50016020015190565b6000612255826040518060400160405280602081526020017f5361666545524332303a206c6f772d6c6576656c2063616c6c206661696c6564815250856001600160a01b03166122d29092919063ffffffff16565b805190915015611df657808060200190518101906122739190612754565b611df65760405162461bcd60e51b815260206004820152602a60248201527f5361666545524332303a204552433230206f7065726174696f6e20646964206e6044820152691bdd081cdd58d8d9595960b21b6064820152608401610403565b6060611f598484600085856001600160a01b0385163b6123345760405162461bcd60e51b815260206004820152601d60248201527f416464726573733a2063616c6c20746f206e6f6e2d636f6e74726163740000006044820152606401610403565b600080866001600160a01b031685876040516123509190612a6b565b60006040518083038185875af1925050503d806000811461238d576040519150601f19603f3d011682016040523d82523d6000602084013e612392565b606091505b50915091506123a28282866123ad565b979650505050505050565b606083156123bc575081611f5c565b8251156123cc5782518084602001fd5b8160405162461bcd60e51b81526004016104039190612a87565b6001600160a01b038116811461185b57600080fd5b6000806040838503121561240e57600080fd5b8235612419816123e6565b946020939093013593505050565b600080600080600060a0868803121561243f57600080fd5b853594506020860135612451816123e6565b93506040860135612461816123e6565b92506060860135612471816123e6565b91506080860135612481816123e6565b809150509295509295909350565b6000602082840312156124a157600080fd5b8135611f5c816123e6565b600080600080600080600060e0888a0312156124c757600080fd5b8735965060208801356124d9816123e6565b955060408801356124e9816123e6565b945060608801356124f9816123e6565b93506080880135612509816123e6565b9699959850939692959460a0840135945060c09093013592915050565b60006020828403121561253857600080fd5b5035919050565b6000806040838503121561255257600080fd5b823561255d816123e6565b9150602083013561256d816123e6565b809150509250929050565b6020808252818101527f506c617479707573566f74657250726f78793a3a6f6e6c795374726174656779604082015260600190565b6000602082840312156125bf57600080fd5b5051919050565b6001600160a01b03929092168252602082015260400190565b805180151581146125ef57600080fd5b919050565b60008060006060848603121561260957600080fd5b8351925060208401519150612620604085016125df565b90509250925092565b634e487b7160e01b600052604160045260246000fd5b60005b8381101561265a578181015183820152602001612642565b83811115612669576000848401525b50505050565b600067ffffffffffffffff8084111561268a5761268a612629565b604051601f8501601f19908116603f011681019082821181831017156126b2576126b2612629565b816040528093508581528686860111156126cb57600080fd5b6126d986602083018761263f565b5050509392505050565b600082601f8301126126f457600080fd5b6103b28383516020850161266f565b6000806040838503121561271657600080fd5b8251612721816123e6565b602084015190925067ffffffffffffffff81111561273e57600080fd5b61274a858286016126e3565b9150509250929050565b60006020828403121561276657600080fd5b6103b2826125df565b634e487b7160e01b600052601160045260246000fd5b600081600019048311821515161561279f5761279f61276f565b500290565b6000826127c157634e487b7160e01b600052601260045260246000fd5b500490565b6000828210156127d8576127d861276f565b500390565b6020808252601b908201527f506c617479707573566f74657250726f78793a3a6f6e6c794465760000000000604082015260600190565b6000806000806080858703121561282a57600080fd5b84519350602085015161283c816123e6565b604086015190935067ffffffffffffffff81111561285957600080fd5b612865878288016126e3565b606096909601519497939650505050565b60006020828403121561288857600080fd5b8151611f5c816123e6565b600082198211156128a6576128a661276f565b500190565b6000806000606084860312156128c057600080fd5b8351925060208401519150604084015190509250925092565b600080600080600080600060e0888a0312156128f457600080fd5b87516128ff816123e6565b809750506020880151955060408801519450606088015193506080880151612926816123e6565b8093505060a0880151915060c0880151905092959891949750929550565b600080600080600080600080610100898b03121561296157600080fd5b885161296c816123e6565b809850506020890151965060408901519550606089015194506080890151612993816123e6565b60a08a015160c08b015160e0909b0151999c989b5096999598909790945092505050565b600081518084526129cf81602086016020860161263f565b601f01601f19169290920160200192915050565b60018060a01b0384168152826020820152606060408201526000612a0a60608301846129b7565b95945050505050565b60008060408385031215612a2657600080fd5b612a2f836125df565b9150602083015167ffffffffffffffff811115612a4b57600080fd5b8301601f81018513612a5c57600080fd5b61274a8582516020840161266f565b60008251612a7d81846020870161263f565b9190910192915050565b6020815260006103b260208301846129b756fea26469706673582212206a72deb2922f8157afd456dd867b74e46d5b698f1f9324649c208c019613984464736f6c634300080d0033",
    "linkReferences": {}
  },
  "methodIdentifiers": {
    "PLATYPUS_NFT()": "82fc6b1d",
    "PTP()": "8dc1564a",
    "approveStrategy(address,address)": "c494448e",
    "boosterFee()": "781a29d1",
    "boosterFeeReceiver()": "792a230f",
    "claimReward(address,uint256)": "174e31c4",
    "deposit(uint256,address,address,address,address,uint256,uint256)": "529ebc7d",
    "devAddr()": "da09c72c",
    "emergencyWithdraw(uint256,address,address,address,address)": "02eb6f7e",
    "pendingRewards(address,uint256)": "6099ecb2",
    "platypusVoter()": "d289d969",
    "poolBalance(address,uint256)": "01e1c48d",
    "reinvestFeeBips()": "8583b7fa",
    "setBoosterFee(uint256)": "865710f0",
    "setBoosterFeeReceiver(address)": "491cad29",
    "setStakerFee(uint256)": "97eef187",
    "setStakerFeeReceiver(address)": "b5e893a5",
    "stakeNFT(uint256)": "6eb604e0",
    "stakerFee()": "4b2d9ffc",
    "stakerFeeReceiver()": "2d61a546",
    "sweepNFT(uint256)": "e8a17c82",
    "unstakeNFT()": "e0a747fe",
    "updateDevAddr(address)": "9291d563",
    "vePTP()": "b821da0b",
    "withdraw(uint256,address,address,address,address,uint256,uint256)": "a530882e"
  },
  "id": 120
}