{
  "abi": [
    {
      "inputs": [
        {
          "internalType": "string",
          "name": "_name",
          "type": "string"
        },
        {
          "internalType": "address",
          "name": "_rewardController",
          "type": "address"
        },
        {
          "internalType": "address",
          "name": "_tokenDelegator",
          "type": "address"
        },
        {
          "internalType": "address",
          "name": "_depositToken",
          "type": "address"
        },
        {
          "internalType": "address",
          "name": "_swapPairToken",
          "type": "address"
        },
        {
          "components": [
            {
              "internalType": "address",
              "name": "reward",
              "type": "address"
            },
            {
              "internalType": "address",
              "name": "swapPair",
              "type": "address"
            }
          ],
          "internalType": "struct AaveV3StrategyV1.RewardSwapPairs[]",
          "name": "_rewardSwapPairs",
          "type": "tuple[]"
        },
        {
          "internalType": "address",
          "name": "_avToken",
          "type": "address"
        },
        {
          "internalType": "address",
          "name": "_avDebtToken",
          "type": "address"
        },
        {
          "internalType": "address",
          "name": "_timelock",
          "type": "address"
        },
        {
          "components": [
            {
              "internalType": "uint256",
              "name": "leverageLevel",
              "type": "uint256"
            },
            {
              "internalType": "uint256",
              "name": "safetyFactor",
              "type": "uint256"
            },
            {
              "internalType": "uint256",
              "name": "leverageBips",
              "type": "uint256"
            },
            {
              "internalType": "uint256",
              "name": "minMinting",
              "type": "uint256"
            }
          ],
          "internalType": "struct AaveV3StrategyV1.LeverageSettings",
          "name": "_leverageSettings",
          "type": "tuple"
        },
        {
          "components": [
            {
              "internalType": "uint256",
              "name": "minTokensToReinvest",
              "type": "uint256"
            },
            {
              "internalType": "uint256",
              "name": "devFeeBips",
              "type": "uint256"
            },
            {
              "internalType": "uint256",
              "name": "reinvestRewardBips",
              "type": "uint256"
            }
          ],
          "internalType": "struct YakStrategyV2.StrategySettings",
          "name": "_strategySettings",
          "type": "tuple"
        }
      ],
      "stateMutability": "nonpayable",
      "type": "constructor"
    },
    {
      "anonymous": false,
      "inputs": [
        {
          "indexed": false,
          "internalType": "address",
          "name": "rewardToken",
          "type": "address"
        },
        {
          "indexed": false,
          "internalType": "address",
          "name": "swapPair",
          "type": "address"
        }
      ],
      "name": "AddReward",
      "type": "event"
    },
    {
      "anonymous": false,
      "inputs": [
        {
          "indexed": true,
          "internalType": "address",
          "name": "account",
          "type": "address"
        }
      ],
      "name": "AllowDepositor",
      "type": "event"
    },
    {
      "anonymous": false,
      "inputs": [
        {
          "indexed": true,
          "internalType": "address",
          "name": "owner",
          "type": "address"
        },
        {
          "indexed": true,
          "internalType": "address",
          "name": "spender",
          "type": "address"
        },
        {
          "indexed": false,
          "internalType": "uint256",
          "name": "value",
          "type": "uint256"
        }
      ],
      "name": "Approval",
      "type": "event"
    },
    {
      "anonymous": false,
      "inputs": [
        {
          "indexed": true,
          "internalType": "address",
          "name": "account",
          "type": "address"
        },
        {
          "indexed": false,
          "internalType": "uint256",
          "name": "amount",
          "type": "uint256"
        }
      ],
      "name": "Deposit",
      "type": "event"
    },
    {
      "anonymous": false,
      "inputs": [
        {
          "indexed": false,
          "internalType": "bool",
          "name": "newValue",
          "type": "bool"
        }
      ],
      "name": "DepositsEnabled",
      "type": "event"
    },
    {
      "anonymous": false,
      "inputs": [
        {
          "indexed": true,
          "internalType": "address",
          "name": "previousOwner",
          "type": "address"
        },
        {
          "indexed": true,
          "internalType": "address",
          "name": "newOwner",
          "type": "address"
        }
      ],
      "name": "OwnershipTransferred",
      "type": "event"
    },
    {
      "anonymous": false,
      "inputs": [
        {
          "indexed": false,
          "internalType": "address",
          "name": "token",
          "type": "address"
        },
        {
          "indexed": false,
          "internalType": "uint256",
          "name": "amount",
          "type": "uint256"
        }
      ],
      "name": "Recovered",
      "type": "event"
    },
    {
      "anonymous": false,
      "inputs": [
        {
          "indexed": false,
          "internalType": "uint256",
          "name": "newTotalDeposits",
          "type": "uint256"
        },
        {
          "indexed": false,
          "internalType": "uint256",
          "name": "newTotalSupply",
          "type": "uint256"
        }
      ],
      "name": "Reinvest",
      "type": "event"
    },
    {
      "anonymous": false,
      "inputs": [
        {
          "indexed": true,
          "internalType": "address",
          "name": "account",
          "type": "address"
        }
      ],
      "name": "RemoveDepositor",
      "type": "event"
    },
    {
      "anonymous": false,
      "inputs": [
        {
          "indexed": false,
          "internalType": "address",
          "name": "rewardToken",
          "type": "address"
        }
      ],
      "name": "RemoveReward",
      "type": "event"
    },
    {
      "anonymous": false,
      "inputs": [
        {
          "indexed": true,
          "internalType": "address",
          "name": "from",
          "type": "address"
        },
        {
          "indexed": true,
          "internalType": "address",
          "name": "to",
          "type": "address"
        },
        {
          "indexed": false,
          "internalType": "uint256",
          "name": "value",
          "type": "uint256"
        }
      ],
      "name": "Transfer",
      "type": "event"
    },
    {
      "anonymous": false,
      "inputs": [
        {
          "indexed": false,
          "internalType": "uint256",
          "name": "oldValue",
          "type": "uint256"
        },
        {
          "indexed": false,
          "internalType": "uint256",
          "name": "newValue",
          "type": "uint256"
        }
      ],
      "name": "UpdateAdminFee",
      "type": "event"
    },
    {
      "anonymous": false,
      "inputs": [
        {
          "indexed": false,
          "internalType": "address",
          "name": "oldValue",
          "type": "address"
        },
        {
          "indexed": false,
          "internalType": "address",
          "name": "newValue",
          "type": "address"
        }
      ],
      "name": "UpdateDevAddr",
      "type": "event"
    },
    {
      "anonymous": false,
      "inputs": [
        {
          "indexed": false,
          "internalType": "uint256",
          "name": "oldValue",
          "type": "uint256"
        },
        {
          "indexed": false,
          "internalType": "uint256",
          "name": "newValue",
          "type": "uint256"
        }
      ],
      "name": "UpdateDevFee",
      "type": "event"
    },
    {
      "anonymous": false,
      "inputs": [
        {
          "indexed": false,
          "internalType": "uint256",
          "name": "oldValue",
          "type": "uint256"
        },
        {
          "indexed": false,
          "internalType": "uint256",
          "name": "newValue",
          "type": "uint256"
        }
      ],
      "name": "UpdateMaxTokensToDepositWithoutReinvest",
      "type": "event"
    },
    {
      "anonymous": false,
      "inputs": [
        {
          "indexed": false,
          "internalType": "uint256",
          "name": "oldValue",
          "type": "uint256"
        },
        {
          "indexed": false,
          "internalType": "uint256",
          "name": "newValue",
          "type": "uint256"
        }
      ],
      "name": "UpdateMinTokensToReinvest",
      "type": "event"
    },
    {
      "anonymous": false,
      "inputs": [
        {
          "indexed": false,
          "internalType": "uint256",
          "name": "oldValue",
          "type": "uint256"
        },
        {
          "indexed": false,
          "internalType": "uint256",
          "name": "newValue",
          "type": "uint256"
        }
      ],
      "name": "UpdateReinvestReward",
      "type": "event"
    },
    {
      "anonymous": false,
      "inputs": [
        {
          "indexed": true,
          "internalType": "address",
          "name": "account",
          "type": "address"
        },
        {
          "indexed": false,
          "internalType": "uint256",
          "name": "amount",
          "type": "uint256"
        }
      ],
      "name": "Withdraw",
      "type": "event"
    },
    {
      "inputs": [],
      "name": "ADMIN_FEE_BIPS",
      "outputs": [
        {
          "internalType": "uint256",
          "name": "",
          "type": "uint256"
        }
      ],
      "stateMutability": "view",
      "type": "function"
    },
    {
      "inputs": [],
      "name": "DEPOSITS_ENABLED",
      "outputs": [
        {
          "internalType": "bool",
          "name": "",
          "type": "bool"
        }
      ],
      "stateMutability": "view",
      "type": "function"
    },
    {
      "inputs": [],
      "name": "DEV_FEE_BIPS",
      "outputs": [
        {
          "internalType": "uint256",
          "name": "",
          "type": "uint256"
        }
      ],
      "stateMutability": "view",
      "type": "function"
    },
    {
      "inputs": [],
      "name": "DOMAIN_TYPEHASH",
      "outputs": [
        {
          "internalType": "bytes32",
          "name": "",
          "type": "bytes32"
        }
      ],
      "stateMutability": "view",
      "type": "function"
    },
    {
      "inputs": [],
      "name": "MAX_TOKENS_TO_DEPOSIT_WITHOUT_REINVEST",
      "outputs": [
        {
          "internalType": "uint256",
          "name": "",
          "type": "uint256"
        }
      ],
      "stateMutability": "view",
      "type": "function"
    },
    {
      "inputs": [],
      "name": "MIN_TOKENS_TO_REINVEST",
      "outputs": [
        {
          "internalType": "uint256",
          "name": "",
          "type": "uint256"
        }
      ],
      "stateMutability": "view",
      "type": "function"
    },
    {
      "inputs": [],
      "name": "PERMIT_TYPEHASH",
      "outputs": [
        {
          "internalType": "bytes32",
          "name": "",
          "type": "bytes32"
        }
      ],
      "stateMutability": "view",
      "type": "function"
    },
    {
      "inputs": [],
      "name": "REINVEST_REWARD_BIPS",
      "outputs": [
        {
          "internalType": "uint256",
          "name": "",
          "type": "uint256"
        }
      ],
      "stateMutability": "view",
      "type": "function"
    },
    {
      "inputs": [],
      "name": "VERSION_HASH",
      "outputs": [
        {
          "internalType": "bytes32",
          "name": "",
          "type": "bytes32"
        }
      ],
      "stateMutability": "view",
      "type": "function"
    },
    {
      "inputs": [
        {
          "internalType": "address",
          "name": "_rewardToken",
          "type": "address"
        },
        {
          "internalType": "address",
          "name": "_swapPair",
          "type": "address"
        }
      ],
      "name": "addReward",
      "outputs": [],
      "stateMutability": "nonpayable",
      "type": "function"
    },
    {
      "inputs": [
        {
          "internalType": "address",
          "name": "depositor",
          "type": "address"
        }
      ],
      "name": "allowDepositor",
      "outputs": [],
      "stateMutability": "nonpayable",
      "type": "function"
    },
    {
      "inputs": [
        {
          "internalType": "address",
          "name": "account",
          "type": "address"
        },
        {
          "internalType": "address",
          "name": "spender",
          "type": "address"
        }
      ],
      "name": "allowance",
      "outputs": [
        {
          "internalType": "uint256",
          "name": "",
          "type": "uint256"
        }
      ],
      "stateMutability": "view",
      "type": "function"
    },
    {
      "inputs": [
        {
          "internalType": "address",
          "name": "",
          "type": "address"
        }
      ],
      "name": "allowedDepositors",
      "outputs": [
        {
          "internalType": "bool",
          "name": "",
          "type": "bool"
        }
      ],
      "stateMutability": "view",
      "type": "function"
    },
    {
      "inputs": [
        {
          "internalType": "address",
          "name": "spender",
          "type": "address"
        },
        {
          "internalType": "uint256",
          "name": "amount",
          "type": "uint256"
        }
      ],
      "name": "approve",
      "outputs": [
        {
          "internalType": "bool",
          "name": "",
          "type": "bool"
        }
      ],
      "stateMutability": "nonpayable",
      "type": "function"
    },
    {
      "inputs": [
        {
          "internalType": "address",
          "name": "account",
          "type": "address"
        }
      ],
      "name": "balanceOf",
      "outputs": [
        {
          "internalType": "uint256",
          "name": "",
          "type": "uint256"
        }
      ],
      "stateMutability": "view",
      "type": "function"
    },
    {
      "inputs": [],
      "name": "checkReward",
      "outputs": [
        {
          "internalType": "uint256",
          "name": "",
          "type": "uint256"
        }
      ],
      "stateMutability": "view",
      "type": "function"
    },
    {
      "inputs": [],
      "name": "decimals",
      "outputs": [
        {
          "internalType": "uint8",
          "name": "",
          "type": "uint8"
        }
      ],
      "stateMutability": "view",
      "type": "function"
    },
    {
      "inputs": [
        {
          "internalType": "uint256",
          "name": "amount",
          "type": "uint256"
        }
      ],
      "name": "deposit",
      "outputs": [],
      "stateMutability": "nonpayable",
      "type": "function"
    },
    {
      "inputs": [
        {
          "internalType": "address",
          "name": "account",
          "type": "address"
        },
        {
          "internalType": "uint256",
          "name": "amount",
          "type": "uint256"
        }
      ],
      "name": "depositFor",
      "outputs": [],
      "stateMutability": "nonpayable",
      "type": "function"
    },
    {
      "inputs": [],
      "name": "depositToken",
      "outputs": [
        {
          "internalType": "contract IERC20",
          "name": "",
          "type": "address"
        }
      ],
      "stateMutability": "view",
      "type": "function"
    },
    {
      "inputs": [
        {
          "internalType": "uint256",
          "name": "amount",
          "type": "uint256"
        },
        {
          "internalType": "uint256",
          "name": "deadline",
          "type": "uint256"
        },
        {
          "internalType": "uint8",
          "name": "v",
          "type": "uint8"
        },
        {
          "internalType": "bytes32",
          "name": "r",
          "type": "bytes32"
        },
        {
          "internalType": "bytes32",
          "name": "s",
          "type": "bytes32"
        }
      ],
      "name": "depositWithPermit",
      "outputs": [],
      "stateMutability": "nonpayable",
      "type": "function"
    },
    {
      "inputs": [],
      "name": "devAddr",
      "outputs": [
        {
          "internalType": "address",
          "name": "",
          "type": "address"
        }
      ],
      "stateMutability": "view",
      "type": "function"
    },
    {
      "inputs": [],
      "name": "estimateDeployedBalance",
      "outputs": [
        {
          "internalType": "uint256",
          "name": "",
          "type": "uint256"
        }
      ],
      "stateMutability": "view",
      "type": "function"
    },
    {
      "inputs": [],
      "name": "estimateReinvestReward",
      "outputs": [
        {
          "internalType": "uint256",
          "name": "",
          "type": "uint256"
        }
      ],
      "stateMutability": "view",
      "type": "function"
    },
    {
      "inputs": [],
      "name": "getActualLeverage",
      "outputs": [
        {
          "internalType": "uint256",
          "name": "",
          "type": "uint256"
        }
      ],
      "stateMutability": "view",
      "type": "function"
    },
    {
      "inputs": [
        {
          "internalType": "uint256",
          "name": "amount",
          "type": "uint256"
        }
      ],
      "name": "getDepositTokensForShares",
      "outputs": [
        {
          "internalType": "uint256",
          "name": "",
          "type": "uint256"
        }
      ],
      "stateMutability": "view",
      "type": "function"
    },
    {
      "inputs": [],
      "name": "getDomainSeparator",
      "outputs": [
        {
          "internalType": "bytes32",
          "name": "",
          "type": "bytes32"
        }
      ],
      "stateMutability": "view",
      "type": "function"
    },
    {
      "inputs": [
        {
          "internalType": "uint256",
          "name": "amount",
          "type": "uint256"
        }
      ],
      "name": "getSharesForDepositTokens",
      "outputs": [
        {
          "internalType": "uint256",
          "name": "",
          "type": "uint256"
        }
      ],
      "stateMutability": "view",
      "type": "function"
    },
    {
      "inputs": [],
      "name": "leverageBips",
      "outputs": [
        {
          "internalType": "uint256",
          "name": "",
          "type": "uint256"
        }
      ],
      "stateMutability": "view",
      "type": "function"
    },
    {
      "inputs": [],
      "name": "leverageLevel",
      "outputs": [
        {
          "internalType": "uint256",
          "name": "",
          "type": "uint256"
        }
      ],
      "stateMutability": "view",
      "type": "function"
    },
    {
      "inputs": [],
      "name": "minMinting",
      "outputs": [
        {
          "internalType": "uint256",
          "name": "",
          "type": "uint256"
        }
      ],
      "stateMutability": "view",
      "type": "function"
    },
    {
      "inputs": [],
      "name": "name",
      "outputs": [
        {
          "internalType": "string",
          "name": "",
          "type": "string"
        }
      ],
      "stateMutability": "view",
      "type": "function"
    },
    {
      "inputs": [
        {
          "internalType": "address",
          "name": "",
          "type": "address"
        }
      ],
      "name": "nonces",
      "outputs": [
        {
          "internalType": "uint256",
          "name": "",
          "type": "uint256"
        }
      ],
      "stateMutability": "view",
      "type": "function"
    },
    {
      "inputs": [],
      "name": "numberOfAllowedDepositors",
      "outputs": [
        {
          "internalType": "uint256",
          "name": "",
          "type": "uint256"
        }
      ],
      "stateMutability": "view",
      "type": "function"
    },
    {
      "inputs": [],
      "name": "owner",
      "outputs": [
        {
          "internalType": "address",
          "name": "",
          "type": "address"
        }
      ],
      "stateMutability": "view",
      "type": "function"
    },
    {
      "inputs": [
        {
          "internalType": "address",
          "name": "owner",
          "type": "address"
        },
        {
          "internalType": "address",
          "name": "spender",
          "type": "address"
        },
        {
          "internalType": "uint256",
          "name": "value",
          "type": "uint256"
        },
        {
          "internalType": "uint256",
          "name": "deadline",
          "type": "uint256"
        },
        {
          "internalType": "uint8",
          "name": "v",
          "type": "uint8"
        },
        {
          "internalType": "bytes32",
          "name": "r",
          "type": "bytes32"
        },
        {
          "internalType": "bytes32",
          "name": "s",
          "type": "bytes32"
        }
      ],
      "name": "permit",
      "outputs": [],
      "stateMutability": "nonpayable",
      "type": "function"
    },
    {
      "inputs": [
        {
          "internalType": "uint256",
          "name": "amount",
          "type": "uint256"
        }
      ],
      "name": "recoverAVAX",
      "outputs": [],
      "stateMutability": "nonpayable",
      "type": "function"
    },
    {
      "inputs": [
        {
          "internalType": "address",
          "name": "tokenAddress",
          "type": "address"
        },
        {
          "internalType": "uint256",
          "name": "tokenAmount",
          "type": "uint256"
        }
      ],
      "name": "recoverERC20",
      "outputs": [],
      "stateMutability": "nonpayable",
      "type": "function"
    },
    {
      "inputs": [],
      "name": "reinvest",
      "outputs": [],
      "stateMutability": "nonpayable",
      "type": "function"
    },
    {
      "inputs": [
        {
          "internalType": "address",
          "name": "depositor",
          "type": "address"
        }
      ],
      "name": "removeDepositor",
      "outputs": [],
      "stateMutability": "nonpayable",
      "type": "function"
    },
    {
      "inputs": [
        {
          "internalType": "address",
          "name": "_rewardToken",
          "type": "address"
        }
      ],
      "name": "removeReward",
      "outputs": [],
      "stateMutability": "nonpayable",
      "type": "function"
    },
    {
      "inputs": [],
      "name": "renounceOwnership",
      "outputs": [],
      "stateMutability": "nonpayable",
      "type": "function"
    },
    {
      "inputs": [
        {
          "internalType": "uint256",
          "name": "minReturnAmountAccepted",
          "type": "uint256"
        },
        {
          "internalType": "bool",
          "name": "",
          "type": "bool"
        }
      ],
      "name": "rescueDeployedFunds",
      "outputs": [],
      "stateMutability": "nonpayable",
      "type": "function"
    },
    {
      "inputs": [
        {
          "internalType": "address",
          "name": "token",
          "type": "address"
        },
        {
          "internalType": "address",
          "name": "spender",
          "type": "address"
        }
      ],
      "name": "revokeAllowance",
      "outputs": [],
      "stateMutability": "nonpayable",
      "type": "function"
    },
    {
      "inputs": [],
      "name": "rewardCount",
      "outputs": [
        {
          "internalType": "uint256",
          "name": "",
          "type": "uint256"
        }
      ],
      "stateMutability": "view",
      "type": "function"
    },
    {
      "inputs": [
        {
          "internalType": "address",
          "name": "",
          "type": "address"
        }
      ],
      "name": "rewardSwapPairs",
      "outputs": [
        {
          "internalType": "address",
          "name": "",
          "type": "address"
        }
      ],
      "stateMutability": "view",
      "type": "function"
    },
    {
      "inputs": [],
      "name": "rewardToken",
      "outputs": [
        {
          "internalType": "contract IERC20",
          "name": "",
          "type": "address"
        }
      ],
      "stateMutability": "view",
      "type": "function"
    },
    {
      "inputs": [],
      "name": "safetyFactor",
      "outputs": [
        {
          "internalType": "uint256",
          "name": "",
          "type": "uint256"
        }
      ],
      "stateMutability": "view",
      "type": "function"
    },
    {
      "inputs": [
        {
          "internalType": "uint256",
          "name": "",
          "type": "uint256"
        }
      ],
      "name": "supportedRewards",
      "outputs": [
        {
          "internalType": "address",
          "name": "",
          "type": "address"
        }
      ],
      "stateMutability": "view",
      "type": "function"
    },
    {
      "inputs": [],
      "name": "symbol",
      "outputs": [
        {
          "internalType": "string",
          "name": "",
          "type": "string"
        }
      ],
      "stateMutability": "view",
      "type": "function"
    },
    {
      "inputs": [],
      "name": "totalDeposits",
      "outputs": [
        {
          "internalType": "uint256",
          "name": "",
          "type": "uint256"
        }
      ],
      "stateMutability": "view",
      "type": "function"
    },
    {
      "inputs": [],
      "name": "totalSupply",
      "outputs": [
        {
          "internalType": "uint256",
          "name": "",
          "type": "uint256"
        }
      ],
      "stateMutability": "view",
      "type": "function"
    },
    {
      "inputs": [
        {
          "internalType": "address",
          "name": "dst",
          "type": "address"
        },
        {
          "internalType": "uint256",
          "name": "amount",
          "type": "uint256"
        }
      ],
      "name": "transfer",
      "outputs": [
        {
          "internalType": "bool",
          "name": "",
          "type": "bool"
        }
      ],
      "stateMutability": "nonpayable",
      "type": "function"
    },
    {
      "inputs": [
        {
          "internalType": "address",
          "name": "src",
          "type": "address"
        },
        {
          "internalType": "address",
          "name": "dst",
          "type": "address"
        },
        {
          "internalType": "uint256",
          "name": "amount",
          "type": "uint256"
        }
      ],
      "name": "transferFrom",
      "outputs": [
        {
          "internalType": "bool",
          "name": "",
          "type": "bool"
        }
      ],
      "stateMutability": "nonpayable",
      "type": "function"
    },
    {
      "inputs": [
        {
          "internalType": "address",
          "name": "newOwner",
          "type": "address"
        }
      ],
      "name": "transferOwnership",
      "outputs": [],
      "stateMutability": "nonpayable",
      "type": "function"
    },
    {
      "inputs": [
        {
          "internalType": "uint256",
          "name": "newValue",
          "type": "uint256"
        }
      ],
      "name": "updateAdminFee",
      "outputs": [],
      "stateMutability": "nonpayable",
      "type": "function"
    },
    {
      "inputs": [
        {
          "internalType": "bool",
          "name": "newValue",
          "type": "bool"
        }
      ],
      "name": "updateDepositsEnabled",
      "outputs": [],
      "stateMutability": "nonpayable",
      "type": "function"
    },
    {
      "inputs": [
        {
          "internalType": "address",
          "name": "newValue",
          "type": "address"
        }
      ],
      "name": "updateDevAddr",
      "outputs": [],
      "stateMutability": "nonpayable",
      "type": "function"
    },
    {
      "inputs": [
        {
          "internalType": "uint256",
          "name": "newValue",
          "type": "uint256"
        }
      ],
      "name": "updateDevFee",
      "outputs": [],
      "stateMutability": "nonpayable",
      "type": "function"
    },
    {
      "inputs": [
        {
          "internalType": "uint256",
          "name": "_leverageLevel",
          "type": "uint256"
        },
        {
          "internalType": "uint256",
          "name": "_safetyFactor",
          "type": "uint256"
        },
        {
          "internalType": "uint256",
          "name": "_minMinting",
          "type": "uint256"
        },
        {
          "internalType": "uint256",
          "name": "_leverageBips",
          "type": "uint256"
        }
      ],
      "name": "updateLeverage",
      "outputs": [],
      "stateMutability": "nonpayable",
      "type": "function"
    },
    {
      "inputs": [
        {
          "internalType": "uint256",
          "name": "newValue",
          "type": "uint256"
        }
      ],
      "name": "updateMaxTokensToDepositWithoutReinvest",
      "outputs": [],
      "stateMutability": "nonpayable",
      "type": "function"
    },
    {
      "inputs": [
        {
          "internalType": "uint256",
          "name": "newValue",
          "type": "uint256"
        }
      ],
      "name": "updateMinTokensToReinvest",
      "outputs": [],
      "stateMutability": "nonpayable",
      "type": "function"
    },
    {
      "inputs": [
        {
          "internalType": "uint256",
          "name": "newValue",
          "type": "uint256"
        }
      ],
      "name": "updateReinvestReward",
      "outputs": [],
      "stateMutability": "nonpayable",
      "type": "function"
    },
    {
      "inputs": [
        {
          "internalType": "uint256",
          "name": "amount",
          "type": "uint256"
        }
      ],
      "name": "withdraw",
      "outputs": [],
      "stateMutability": "nonpayable",
      "type": "function"
    }
  ],
  "bytecode": {
    "object": "0x60c060405260096080819052685969656c642059616b60b81b60a09081526200002c916000919062000c48565b506040805180820190915260038082526216549560ea1b6020909201918252620000599160019162000c48565b503480156200006757600080fd5b506040516200571b3803806200571b8339810160408190526200008a9162000f9d565b600680546001600160a01b031916339081179091556040518291908190600090600080516020620056fb833981519152908290a3508051620000cc90620002a6565b6020810151620000dc9062000336565b6040810151620000ec90620003ed565b508a51620001029060009060208e019062000c48565b50601980546001600160a01b03808d166001600160a01b031992831617909255601a8054928c1692821692909217909155600a805490911673b31f66aa3c1e785363f0875a1b74e27b85fd66c717905581516020830151606084015160408501516200017f93929190601593909355601792909255601655601855565b600b8054336001600160a01b0319918216179091556009805482166001600160a01b038b811691909117909155601c80548316888316179055601d8054909216908616179055620001d087620004a4565b60005b865181101562000244576200022f878281518110620001f657620001f6620010b9565b602002602001015160000151888381518110620002175762000217620010b9565b602002602001015160200151620005e360201b60201c565b806200023b81620010e5565b915050620001d3565b506200025160016200076c565b6200025c8362000816565b60408051600080825260208201527fc7606d21ac05cd309191543e409f0845c016120563783d70e4f41419dc0ef234910160405180910390a1505050505050505050505062001176565b6006546001600160a01b03163314620002f55760405162461bcd60e51b81526020600482018190526024820152600080516020620056db83398151915260448201526064015b60405180910390fd5b600c5460408051918252602082018390527f481f79ac3a523b6d6db3c5a720e190e986d1cc1b41adcdf50f9caef849901100910160405180910390a1600c55565b6006546001600160a01b03163314620003815760405162461bcd60e51b81526020600482018190526024820152600080516020620056db8339815191526044820152606401620002ec565b612710620003a0601054836200091360201b620021011790919060201c565b1115620003ac57600080fd5b60115460408051918252602082018390527f2a42303d002f0ba6cfe8259c91d4684443fb0b3de286ba74991175d651726131910160405180910390a1601155565b6006546001600160a01b03163314620004385760405162461bcd60e51b81526020600482018190526024820152600080516020620056db8339815191526044820152606401620002ec565b61271062000457601154836200091360201b620021011790919060201c565b11156200046357600080fd5b60105460408051918252602082018390527fe7f97d51d307dc44045597c9978bec0f842e6bb40d19b9444084cfa30d9ed4f2910160405180910390a1601055565b6001600160a01b0381166200050c5760405162461bcd60e51b815260206004820152602760248201527f537761702070616972206973206e656365737361727920627574206e6f7420736044820152661d5c1c1b1a595960ca1b6064820152608401620002ec565b601b80546001600160a01b0319166001600160a01b03838116918217909255600954600a546200054193918216911662000928565b806200056c5750601b54600a546009546200056c926001600160a01b03908116928116911662000928565b620005e05760405162461bcd60e51b815260206004820152603660248201527f53776170207061697220646f6573206e6f74206d61746368206465706f73697460448201527f546f6b656e20616e6420726577617264546f6b656e2e000000000000000000006064820152608401620002ec565b50565b600a546001600160a01b038381169116146200069c57620006268183600a60009054906101000a90046001600160a01b031662000a2d60201b6200210d1760201c565b6200069c576040805162461bcd60e51b81526020600482015260248101919091527f5661726961626c655265776172647353747261746567793a3a5377617020706160448201527f697220646f6573206e6f7420636f6e7461696e2072657761726420746f6b656e6064820152608401620002ec565b6001600160a01b038083166000818152601260209081526040822080549486166001600160a01b03199586161790556013805460018181018355919093527f66de8ffda797e3de9c05e8fc57b3bf0ec28a930d40b0d285d93c06501cf6a0909092018054909416909217909255601454620007229290916200210162000913821b17901c565b601455604080516001600160a01b038085168252831660208201527f916e172c080569186aa7ea048268267257cf7cc49505908863f747bca8620f80910160405180910390a15050565b6006546001600160a01b03163314620007b75760405162461bcd60e51b81526020600482018190526024820152600080516020620056db8339815191526044820152606401620002ec565b600e5481151560ff909116151503620007cf57600080fd5b600e805460ff19168215159081179091556040519081527f7b014ed3854e7f5cb0218d58b3c6ae7d53a68bb0af2f67bfb029ea42c38a7e859060200160405180910390a150565b6006546001600160a01b03163314620008615760405162461bcd60e51b81526020600482018190526024820152600080516020620056db8339815191526044820152606401620002ec565b6001600160a01b038116620008c85760405162461bcd60e51b815260206004820152602660248201527f4f776e61626c653a206e6577206f776e657220697320746865207a65726f206160448201526564647265737360d01b6064820152608401620002ec565b6006546040516001600160a01b03808416921690600080516020620056fb83398151915290600090a3600680546001600160a01b0319166001600160a01b0392909216919091179055565b600062000921828462001101565b9392505050565b6000826001600160a01b0316846001600160a01b0316630dfe16816040518163ffffffff1660e01b8152600401602060405180830381865afa15801562000973573d6000803e3d6000fd5b505050506040513d601f19601f820116820180604052508101906200099991906200111c565b6001600160a01b031614801562000a255750816001600160a01b0316846001600160a01b031663d21220a76040518163ffffffff1660e01b8152600401602060405180830381865afa158015620009f4573d6000803e3d6000fd5b505050506040513d601f19601f8201168201806040525081019062000a1a91906200111c565b6001600160a01b0316145b949350505050565b6000836001600160a01b0316630dfe16816040518163ffffffff1660e01b8152600401602060405180830381865afa15801562000a6e573d6000803e3d6000fd5b505050506040513d601f19601f8201168201806040525081019062000a9491906200111c565b6001600160a01b0316836001600160a01b0316148062000b295750836001600160a01b031663d21220a76040518163ffffffff1660e01b8152600401602060405180830381865afa15801562000aee573d6000803e3d6000fd5b505050506040513d601f19601f8201168201806040525081019062000b1491906200111c565b6001600160a01b0316836001600160a01b0316145b801562000c2b5750836001600160a01b0316630dfe16816040518163ffffffff1660e01b8152600401602060405180830381865afa15801562000b70573d6000803e3d6000fd5b505050506040513d601f19601f8201168201806040525081019062000b9691906200111c565b6001600160a01b0316826001600160a01b0316148062000c2b5750836001600160a01b031663d21220a76040518163ffffffff1660e01b8152600401602060405180830381865afa15801562000bf0573d6000803e3d6000fd5b505050506040513d601f19601f8201168201806040525081019062000c1691906200111c565b6001600160a01b0316826001600160a01b0316145b801562000a255750506001600160a01b0391821691161415919050565b82805462000c56906200113a565b90600052602060002090601f01602090048101928262000c7a576000855562000cc5565b82601f1062000c9557805160ff191683800117855562000cc5565b8280016001018555821562000cc5579182015b8281111562000cc557825182559160200191906001019062000ca8565b5062000cd392915062000cd7565b5090565b5b8082111562000cd3576000815560010162000cd8565b634e487b7160e01b600052604160045260246000fd5b604080519081016001600160401b038111828210171562000d295762000d2962000cee565b60405290565b604051601f8201601f191681016001600160401b038111828210171562000d5a5762000d5a62000cee565b604052919050565b600082601f83011262000d7457600080fd5b81516001600160401b0381111562000d905762000d9062000cee565b602062000da6601f8301601f1916820162000d2f565b828152858284870101111562000dbb57600080fd5b60005b8381101562000ddb57858101830151828201840152820162000dbe565b8381111562000ded5760008385840101525b5095945050505050565b80516001600160a01b038116811462000e0f57600080fd5b919050565b600082601f83011262000e2657600080fd5b815160206001600160401b0382111562000e445762000e4462000cee565b62000e54818360051b0162000d2f565b82815260069290921b8401810191818101908684111562000e7457600080fd5b8286015b8481101562000eca576040818903121562000e935760008081fd5b62000e9d62000d04565b62000ea88262000df7565b815262000eb785830162000df7565b8186015283529183019160400162000e78565b509695505050505050565b60006080828403121562000ee857600080fd5b604051608081016001600160401b038111828210171562000f0d5762000f0d62000cee565b8060405250809150825181526020830151602082015260408301516040820152606083015160608201525092915050565b60006060828403121562000f5157600080fd5b604051606081016001600160401b038111828210171562000f765762000f7662000cee565b80604052508091508251815260208301516020820152604083015160408201525092915050565b60008060008060008060008060008060006102008c8e03121562000fc057600080fd5b8b516001600160401b0381111562000fd757600080fd5b62000fe58e828f0162000d62565b9b505062000ff660208d0162000df7565b99506200100660408d0162000df7565b98506200101660608d0162000df7565b97506200102660808d0162000df7565b60a08d01519097506001600160401b038111156200104357600080fd5b620010518e828f0162000e14565b9650506200106260c08d0162000df7565b94506200107260e08d0162000df7565b9350620010836101008d0162000df7565b9250620010958d6101208e0162000ed5565b9150620010a78d6101a08e0162000f3e565b90509295989b509295989b9093969950565b634e487b7160e01b600052603260045260246000fd5b634e487b7160e01b600052601160045260246000fd5b600060018201620010fa57620010fa620010cf565b5060010190565b60008219821115620011175762001117620010cf565b500190565b6000602082840312156200112f57600080fd5b620009218262000df7565b600181811c908216806200114f57607f821691505b6020821081036200117057634e487b7160e01b600052602260045260246000fd5b50919050565b61455580620011866000396000f3fe608060405234801561001057600080fd5b50600436106103d05760003560e01c80638b73e606116101ff578063c89039c51161011a578063e592c5fa116100ad578063f02ecb711161007c578063f02ecb711461086c578063f2fde38b14610875578063f7c618c114610888578063fdb5a03e1461089b57600080fd5b8063e592c5fa14610835578063e75ab0451461083e578063eab89a5a14610851578063ed24911d1461086457600080fd5b8063db8dd95c116100e9578063db8dd95c146107ce578063dd62ed3e146107d6578063dd8ce4d61461080f578063e21ac8251461082257600080fd5b8063c89039c514610782578063cff1b6ef14610795578063d505accf146107a8578063da09c72c146107bb57600080fd5b8063a8ae2b7c11610192578063b6b55f2511610161578063b6b55f2514610756578063b9e57b8014610769578063bd079f5514610771578063c4b24a461461077a57600080fd5b8063a8ae2b7c14610710578063a9059cbb14610723578063ac0d31ff14610736578063b52a321f1461074957600080fd5b806399729ec1116101ce57806399729ec11461069a5780639e4e7318146106ad578063a4d5e67c146106d4578063a5534e71146106e757600080fd5b80638b73e606146106475780638da5cb5b1461065a5780639291d5631461067f57806395d89b411461069257600080fd5b80634a970be7116102ef578063789139bc116102825780637ecebe00116102515780637ecebe00146105f857806381837230146106185780638980f11f1461062b5780638aff733d1461063e57600080fd5b8063789139bc146105cb57806379085425146105d45780637ae26773146105dd5780637d882097146105f057600080fd5b80635ea682ea116102be5780635ea682ea1461058857806362ac20a51461059157806370a082311461059a578063715018a6146105c357600080fd5b80634a970be71461053c5780634bebd1e71461054f5780634e77ace5146105625780634ebb79161461057557600080fd5b806323b872dd11610367578063313ce56711610336578063313ce567146104e35780633bdc6e72146104fd57806340b47e1a14610506578063483c2ef01461051957600080fd5b806323b872dd146104835780632e1a7d4d146104965780632f4f21e2146104a957806330adf81f146104bc57600080fd5b806318160ddd116103a357806318160ddd146104355780631f15d71a1461043e57806320606b701461044757806322a051411461046e57600080fd5b806306fdde03146103d557806307677111146103f3578063095ea7b31461040a5780630f23475d1461042d575b600080fd5b6103dd6108a3565b6040516103ea9190613d1b565b60405180910390f35b6103fc600f5481565b6040519081526020016103ea565b61041d610418366004613d43565b610931565b60405190151581526020016103ea565b6103fc610947565b6103fc60025481565b6103fc60175481565b6103fc7f8b73c3c69bb8fe3d512ecc4cf759cc79239f7b179b0ffacaa9a75d522b39400f81565b61048161047c366004613d6f565b610956565b005b61041d610491366004613da1565b6109d0565b6104816104a4366004613de2565b610ab4565b6104816104b7366004613d43565b610b93565b6103fc7f6e71edae12b1b97f4d1f60370fef10105fa2faae0126114a169c64845d6126c981565b6104eb601281565b60405160ff90911681526020016103ea565b6103fc60075481565b610481610514366004613dfb565b610b9d565b61041d610527366004613e34565b60086020526000908152604090205460ff1681565b61048161054a366004613e67565b610bd1565b61048161055d366004613e34565b610c6a565b610481610570366004613ebc565b610d69565b610481610583366004613de2565b610df2565b6103fc60115481565b6103fc60185481565b6103fc6105a8366004613e34565b6001600160a01b031660009081526004602052604090205490565b610481610e8e565b6103fc600d5481565b6103fc60145481565b6104816105eb366004613dfb565b610f02565b6103fc610fa8565b6103fc610606366004613e34565b60056020526000908152604090205481565b610481610626366004613de2565b610fcc565b610481610639366004613d43565b611037565b6103fc60105481565b610481610655366004613e34565b61112f565b6006546001600160a01b03165b6040516001600160a01b0390911681526020016103ea565b61048161068d366004613e34565b6112b0565b6103dd611343565b6104816106a8366004613de2565b611350565b6103fc7fc89efdaa54c0f20c7adf612882df0950f5a951637e0307cdcb4c672f298b8bc681565b6104816106e2366004613e34565b6113de565b6106676106f5366004613e34565b6012602052600090815260409020546001600160a01b031681565b61048161071e366004613de2565b6115e4565b61041d610731366004613d43565b611672565b610481610744366004613ed9565b61167f565b600e5461041d9060ff1681565b610481610764366004613de2565b6118ea565b6103fc6118f7565b6103fc600c5481565b6103fc61193c565b600954610667906001600160a01b031681565b6104816107a3366004613de2565b611c6e565b6104816107b6366004613efe565b611ce4565b600b54610667906001600160a01b031681565b6103fc611de9565b6103fc6107e4366004613dfb565b6001600160a01b03918216600090815260036020908152604080832093909416825291909152205490565b6103fc61081d366004613de2565b611e1b565b610481610830366004613de2565b611e5b565b6103fc60155481565b61066761084c366004613de2565b611ec6565b6103fc61085f366004613de2565b611ef0565b6103fc611f24565b6103fc60165481565b610481610883366004613e34565b611fc4565b600a54610667906001600160a01b031681565b6104816120af565b600080546108b090613f6c565b80601f01602080910402602001604051908101604052809291908181526020018280546108dc90613f6c565b80156109295780601f106108fe57610100808354040283529160200191610929565b820191906000526020600020905b81548152906001019060200180831161090c57829003601f168201915b505050505081565b600061093e338484612322565b50600192915050565b6000610951610fa8565b905090565b600b546001600160a01b031633146109895760405162461bcd60e51b815260040161098090613fa6565b60405180910390fd5b60158490556017819055601683905560188290556000806109a8612430565b5090925090506109c06109bb838361257b565b612587565b6109c8612675565b505050505050565b6001600160a01b038316600081815260036020908152604080832033808552925282205491929091908214801590610a0a57506000198114155b15610a9b576000610a36856040518060600160405280602f815260200161449c602f91398491906128de565b6001600160a01b038881166000818152600360209081526040808320948916808452948252918290208590559051848152939450919290917f8c5be1e5ebec7d5bd14f71427d1e84f3dd0314c0f7b2291e5b200ac8c7c3b925910160405180910390a3505b610aa686868661290a565b6001925050505b9392505050565b6000610abf82611ef0565b90506018548111610b235760405162461bcd60e51b815260206004820152602860248201527f416176655633537472617465677956313a3a62656c6f77206d696e696d756d20604482015267776974686472617760c01b6064820152608401610980565b8015610b8f57610b333383612a3d565b6000610b3e82612b13565b600954909150610b58906001600160a01b03163383612bcc565b60405181815233907f884edad9ce6fa2440d8a54cc123490eb96d2768479d49ff9c7366125a94243649060200160405180910390a2505b5050565b610b8f8282612c9f565b600b546001600160a01b03163314610bc75760405162461bcd60e51b815260040161098090613fa6565b610b8f8282612ed6565b60095460405163d505accf60e01b8152336004820152306024820152604481018790526064810186905260ff8516608482015260a4810184905260c481018390526001600160a01b039091169063d505accf9060e401600060405180830381600087803b158015610c4157600080fd5b505af1158015610c55573d6000803e3d6000fd5b50505050610c633386612c9f565b5050505050565b6006546001600160a01b03163314610c945760405162461bcd60e51b815260040161098090613fd4565b6001600160a01b03811660009081526008602052604090205460ff1615610cfd5760405162461bcd60e51b815260206004820152601c60248201527f5065726d697373696f6e65643a3a616c6c6f774465706f7369746f72000000006044820152606401610980565b6001600160a01b0381166000908152600860205260409020805460ff19166001908117909155600754610d2f91612101565b6007556040516001600160a01b038216907fc0a1035c16faf8d1304056d92c00edf028f87e62b8235a938f00af9e3c0312c590600090a250565b6006546001600160a01b03163314610d935760405162461bcd60e51b815260040161098090613fd4565b600e5481151560ff909116151503610daa57600080fd5b600e805460ff19168215159081179091556040519081527f7b014ed3854e7f5cb0218d58b3c6ae7d53a68bb0af2f67bfb029ea42c38a7e85906020015b60405180910390a150565b6006546001600160a01b03163314610e1c5760405162461bcd60e51b815260040161098090613fd4565b60008111610e2957600080fd5b604051339082156108fc029083906000818181858888f19350505050158015610e56573d6000803e3d6000fd5b506040805160008152602081018390527f8c1256b8896378cd5044f80c202f9772b9d77dc85c8a6eb51967210b09bfaa289101610de7565b6006546001600160a01b03163314610eb85760405162461bcd60e51b815260040161098090613fd4565b6006546040516000916001600160a01b0316907f8be0079c531659141344cd1fd0a4f28419497f9722a3daafe3b4186f6b6457e0908390a3600680546001600160a01b0319169055565b6006546001600160a01b03163314610f2c5760405162461bcd60e51b815260040161098090613fd4565b60405163095ea7b360e01b81526001600160a01b0382811660048301526000602483015283169063095ea7b3906044016020604051808303816000875af1158015610f7b573d6000803e3d6000fd5b505050506040513d601f19601f82011682018060405250810190610f9f9190614009565b610b8f57600080fd5b6000806000610fb5612430565b509092509050610fc5828261257b565b9250505090565b6006546001600160a01b03163314610ff65760405162461bcd60e51b815260040161098090613fd4565b600c5460408051918252602082018390527f481f79ac3a523b6d6db3c5a720e190e986d1cc1b41adcdf50f9caef849901100910160405180910390a1600c55565b6006546001600160a01b031633146110615760405162461bcd60e51b815260040161098090613fd4565b6000811161106e57600080fd5b60405163a9059cbb60e01b8152336004820152602481018290526001600160a01b0383169063a9059cbb906044016020604051808303816000875af11580156110bb573d6000803e3d6000fd5b505050506040513d601f19601f820116820180604052508101906110df9190614009565b6110e857600080fd5b604080516001600160a01b0384168152602081018390527f8c1256b8896378cd5044f80c202f9772b9d77dc85c8a6eb51967210b09bfaa2891015b60405180910390a15050565b6006546001600160a01b031633146111595760405162461bcd60e51b815260040161098090613fd4565b6000600754116111c85760405162461bcd60e51b815260206004820152603460248201527f5065726d697373696f6e65643a3a72656d6f76654465706f7369746f722c206e6044820152736f20616c6c6f776564206465706f7369746f727360601b6064820152608401610980565b6001600160a01b03811660009081526008602052604090205460ff1615156001146112485760405162461bcd60e51b815260206004820152602a60248201527f5065726d697373696f6e65643a3a72656d6f76654465706f7369746f722c206e6044820152691bdd08185b1b1bddd95960b21b6064820152608401610980565b6001600160a01b0381166000908152600860205260409020805460ff1916905560075461127690600161257b565b6007556040516001600160a01b038216907f0e86f6608b536e5339a25b65ff531f5ea91e1313d056ecd4752b35cbd16137d490600090a250565b600b546001600160a01b031633146112da5760405162461bcd60e51b815260040161098090613fa6565b600b54604080516001600160a01b03928316815291831660208301527fa8e91499ed37682f43cffb045fcc7d379a91e8c9a14e6321877ee34dee564c00910160405180910390a1600b80546001600160a01b0319166001600160a01b0392909216919091179055565b600180546108b090613f6c565b6006546001600160a01b0316331461137a5760405162461bcd60e51b815260040161098090613fd4565b6127106113926010548361210190919063ffffffff16565b111561139d57600080fd5b60115460408051918252602082018390527f2a42303d002f0ba6cfe8259c91d4684443fb0b3de286ba74991175d651726131910160405180910390a1601155565b600b546001600160a01b031633146114085760405162461bcd60e51b815260040161098090613fa6565b6001600160a01b038116600090815260126020526040812080546001600160a01b0319169055805b6013548110156114fc576013818154811061144d5761144d614026565b6000918252602090912001546001600160a01b03908116908416036114ea57601380546001935061147f908490614052565b8154811061148f5761148f614026565b600091825260209091200154601380546001600160a01b0390921691839081106114bb576114bb614026565b9060005260206000200160006101000a8154816001600160a01b0302191690836001600160a01b031602179055505b806114f481614069565b915050611430565b50806115675760405162461bcd60e51b815260206004820152603460248201527f5661726961626c655265776172647353747261746567793a3a52657761726420604482015273746f2064656c657465206e6f7420666f756e642160601b6064820152608401610980565b601380548061157857611578614082565b600082815260209020810160001990810180546001600160a01b03191690550190556014546115a890600161257b565b6014556040516001600160a01b03831681527f963b7c735475147a62c589c2d7cb8ec4b0a6b7af4f97373d79ebfa42ab8aa7dc90602001611123565b6006546001600160a01b0316331461160e5760405162461bcd60e51b815260040161098090613fd4565b6127106116266011548361210190919063ffffffff16565b111561163157600080fd5b60105460408051918252602082018390527fe7f97d51d307dc44045597c9978bec0f842e6bb40d19b9444084cfa30d9ed4f2910160405180910390a1601055565b600061093e33848461290a565b6006546001600160a01b031633146116a95760405162461bcd60e51b815260040161098090613fd4565b6009546040516370a0823160e01b81523060048201526000916001600160a01b0316906370a0823190602401602060405180830381865afa1580156116f2573d6000803e3d6000fd5b505050506040513d601f19601f820116820180604052508101906117169190614098565b9050600080611723612430565b5090925090506117366109bb838361257b565b601a54600954604051631a4ca37b60e21b81526001600160a01b03918216600482015260001960248201523060448201529116906369328dec906064016020604051808303816000875af1158015611792573d6000803e3d6000fd5b505050506040513d601f19601f820116820180604052508101906117b69190614098565b506009546040516370a0823160e01b81523060048201526000916001600160a01b0316906370a0823190602401602060405180830381865afa158015611800573d6000803e3d6000fd5b505050506040513d601f19601f820116820180604052508101906118249190614098565b905085611831828661257b565b101561188d5760405162461bcd60e51b815260206004820152602560248201527f416176655633537472617465677956313a3a7265736375654465706c6f79656460448201526446756e647360d81b6064820152608401610980565b7fc7606d21ac05cd309191543e409f0845c016120563783d70e4f41419dc0ef2346118b6610fa8565b6002546040805192835260208301919091520160405180910390a1600e5460ff1615156001036109c8576109c86000610d69565b6118f43382612c9f565b50565b60008061190261193c565b9050600c5481106119345761192e6127106119286010548461303290919063ffffffff16565b9061303e565b91505090565b600091505090565b604080516002808252606082018352600092839291906020830190803683375050601c5482519293506001600160a01b03169183915060009061198157611981614026565b6001600160a01b039283166020918202929092010152601d548251911690829060019081106119b2576119b2614026565b6001600160a01b039283166020918202929092010152601954604051634c0369c360e01b815260009283921690634c0369c3906119f590869030906004016140c7565b600060405180830381865afa158015611a12573d6000803e3d6000fd5b505050506040513d6000823e601f3d908101601f19168201604052611a3a91908101906141e4565b6040516370a0823160e01b8152306004820152919350915060009073b31f66aa3c1e785363f0875a1b74e27b85fd66c7906370a0823190602401602060405180830381865afa158015611a91573d6000803e3d6000fd5b505050506040513d601f19601f82011682018060405250810190611ab59190614098565b9050611ac18147612101565b5060005b8351811015611c65576000848281518110611ae257611ae2614026565b6020026020010151905073b31f66aa3c1e785363f0875a1b74e27b85fd66c76001600160a01b0316816001600160a01b031603611b4c57611b45848381518110611b2e57611b2e614026565b60200260200101518461210190919063ffffffff16565b9250611c52565b6040516370a0823160e01b81523060048201526000906001600160a01b038316906370a0823190602401602060405180830381865afa158015611b93573d6000803e3d6000fd5b505050506040513d601f19601f82011682018060405250810190611bb79190614098565b90506000611be7868581518110611bd057611bd0614026565b60200260200101518361210190919063ffffffff16565b6001600160a01b03808516600090815260126020526040902054919250168115801590611c1c57506001600160a01b03811615155b15611c4e57611c4b611c44838673b31f66aa3c1e785363f0875a1b74e27b85fd66c78561304a565b8790612101565b95505b5050505b5080611c5d81614069565b915050611ac5565b50949350505050565b6006546001600160a01b03163314611c985760405162461bcd60e51b815260040161098090613fd4565b8015611ca357600080fd5b600f5460408051918252602082018390527f3cc372f330f95ac9540626dc8a25f5bf21ba607215a5d58304cb804d446f104a910160405180910390a1600f55565b42841015611d265760405162461bcd60e51b815260206004820152600f60248201526e1c195c9b5a5d0e8e995e1c1a5c9959608a1b6044820152606401610980565b6001600160a01b038716600090815260056020526040812080547f6e71edae12b1b97f4d1f60370fef10105fa2faae0126114a169c64845d6126c9918a918a918a919086611d7383614069565b909155506040805160208101969096526001600160a01b0394851690860152929091166060840152608083015260a082015260c0810186905260e001604051602081830303815290604052805190602001209050611dd48882868686613108565b611ddf888888612322565b5050505050505050565b6000806000611df6612430565b509092509050610fc5611e09838361257b565b61192884670de0b6b3a7640000613032565b6000611e31611e28610fa8565b60025490613032565b600003611e3c575090565b611e55611e47610fa8565b600254611928908590613032565b92915050565b6006546001600160a01b03163314611e855760405162461bcd60e51b815260040161098090613fd4565b600d5460408051918252602082018390527fa5dae50539d56dfe1fb5273d883b0c39bc76750a25d036fc5fbd09ad8fd5f57f910160405180910390a1600d55565b60138181548110611ed657600080fd5b6000918252602090912001546001600160a01b0316905081565b6000611efd611e28610fa8565b600003611f0c57506000919050565b611e55600254611928611f1d610fa8565b8590613032565b60007f8b73c3c69bb8fe3d512ecc4cf759cc79239f7b179b0ffacaa9a75d522b39400f60001b6000604051611f5991906142a9565b6040519081900390207fc89efdaa54c0f20c7adf612882df0950f5a951637e0307cdcb4c672f298b8bc646604080516020810195909552840192909252606083015260808201523060a082015260c00160405160208183030381529060405280519060200120905090565b6006546001600160a01b03163314611fee5760405162461bcd60e51b815260040161098090613fd4565b6001600160a01b0381166120535760405162461bcd60e51b815260206004820152602660248201527f4f776e61626c653a206e6577206f776e657220697320746865207a65726f206160448201526564647265737360d01b6064820152608401610980565b6006546040516001600160a01b038084169216907f8be0079c531659141344cd1fd0a4f28419497f9722a3daafe3b4186f6b6457e090600090a3600680546001600160a01b0319166001600160a01b0392909216919091179055565b3233146120f55760405162461bcd60e51b815260206004820152601460248201527359616b53747261746567793a3a6f6e6c79454f4160601b6044820152606401610980565b6120ff6000613234565b565b6000610aad8284614344565b6000836001600160a01b0316630dfe16816040518163ffffffff1660e01b8152600401602060405180830381865afa15801561214d573d6000803e3d6000fd5b505050506040513d601f19601f82011682018060405250810190612171919061435c565b6001600160a01b0316836001600160a01b031614806122025750836001600160a01b031663d21220a76040518163ffffffff1660e01b8152600401602060405180830381865afa1580156121c9573d6000803e3d6000fd5b505050506040513d601f19601f820116820180604052508101906121ed919061435c565b6001600160a01b0316836001600160a01b0316145b80156122fc5750836001600160a01b0316630dfe16816040518163ffffffff1660e01b8152600401602060405180830381865afa158015612247573d6000803e3d6000fd5b505050506040513d601f19601f8201168201806040525081019061226b919061435c565b6001600160a01b0316826001600160a01b031614806122fc5750836001600160a01b031663d21220a76040518163ffffffff1660e01b8152600401602060405180830381865afa1580156122c3573d6000803e3d6000fd5b505050506040513d601f19601f820116820180604052508101906122e7919061435c565b6001600160a01b0316826001600160a01b0316145b801561231a5750816001600160a01b0316836001600160a01b031614155b949350505050565b6001600160a01b0383166123785760405162461bcd60e51b815260206004820152601c60248201527f5f617070726f76653a3a6f776e6572207a65726f2061646472657373000000006044820152606401610980565b6001600160a01b0382166123ce5760405162461bcd60e51b815260206004820152601e60248201527f5f617070726f76653a3a7370656e646572207a65726f206164647265737300006044820152606401610980565b6001600160a01b0383811660008181526003602090815260408083209487168084529482529182902085905590518481527f8c5be1e5ebec7d5bd14f71427d1e84f3dd0314c0f7b2291e5b200ac8c7c3b92591015b60405180910390a3505050565b601c546040516370a0823160e01b8152306004820152600091829182916001600160a01b0316906370a0823190602401602060405180830381865afa15801561247d573d6000803e3d6000fd5b505050506040513d601f19601f820116820180604052508101906124a19190614098565b601d546040516370a0823160e01b81523060048201529194506001600160a01b0316906370a0823190602401602060405180830381865afa1580156124ea573d6000803e3d6000fd5b505050506040513d601f19601f8201168201806040525081019061250e9190614098565b9150600090508161253c60155461192861253560175460155461257b90919063ffffffff16565b8790613032565b1115612576576125738261256d60155461192861256660175460155461257b90919063ffffffff16565b8890613032565b9061257b565b90505b909192565b6000610aad8284614052565b600080612592612430565b50909250905060006125df6125ab8561256d868661257b565b61256d6017546119286125cb60165460155461257b90919063ffffffff16565b6125d98a61256d8b8b61257b565b90613032565b905060006125ed838361257b565b90508015610c6357601a54600954604051630b6b65f560e21b81526001600160a01b0391821660048201526024810184905260026044820152911690632dad97d4906064016020604051808303816000875af1158015612651573d6000803e3d6000fd5b505050506040513d601f19601f820116820180604052508101906109c89190614098565b6000806000612682612430565b92509250925060006126b46017546119286126aa60165460155461257b90919063ffffffff16565b6125d9888861257b565b600954601a5460405163095ea7b360e01b81526001600160a01b03918216600482015260248101849052929350169063095ea7b3906044016020604051808303816000875af115801561270b573d6000803e3d6000fd5b505050506040513d601f19601f8201168201806040525081019061272f9190614009565b505b8084101561286557806127448584612101565b111561275757612754818561257b565b91505b601854821061286557601a5460095460405163a415bcad60e01b81526001600160a01b03918216600482015260248101859052600260448201526000606482015230608482015291169063a415bcad9060a401600060405180830381600087803b1580156127c457600080fd5b505af11580156127d8573d6000803e3d6000fd5b5050601a5460095460405163617ba03760e01b81526001600160a01b03918216600482015260248101879052306044820152600060648201529116925063617ba0379150608401600060405180830381600087803b15801561283957600080fd5b505af115801561284d573d6000803e3d6000fd5b50505050612859612430565b91955093509150612731565b600954601a5460405163095ea7b360e01b81526001600160a01b0391821660048201526000602482015291169063095ea7b3906044016020604051808303816000875af11580156128ba573d6000803e3d6000fd5b505050506040513d601f19601f82011682018060405250810190610c639190614009565b600081848411156129025760405162461bcd60e51b81526004016109809190613d1b565b505050900390565b6001600160a01b03821661297d5760405162461bcd60e51b815260206004820152603460248201527f5f7472616e73666572546f6b656e733a2063616e6e6f74207472616e7366657260448201527320746f20746865207a65726f206164647265737360601b6064820152608401610980565b6129ba816040518060600160405280602e81526020016144f2602e91396001600160a01b03861660009081526004602052604090205491906128de565b6001600160a01b0380851660009081526004602052604080822093909355908416815220546129e99082612101565b6001600160a01b0380841660008181526004602052604090819020939093559151908516907fddf252ad1be2c89b69c2b068fc378daa952ba7f163c4a11628f55a4df523b3ef906124239085815260200190565b612a7a816040518060600160405280602781526020016144cb602791396001600160a01b03851660009081526004602052604090205491906128de565b60046000846001600160a01b03166001600160a01b0316815260200190815260200160002081905550612aca816040518060600160405280602781526020016144756027913960025491906128de565b6002556040518181526000906001600160a01b038416907fddf252ad1be2c89b69c2b068fc378daa952ba7f163c4a11628f55a4df523b3ef906020015b60405180910390a35050565b6000612b1e82612587565b6000612b28612430565b50509050808311612b395782612b3d565b6000195b601a54600954604051631a4ca37b60e21b81526001600160a01b039182166004820152602481018490523060448201529295506000929116906369328dec906064016020604051808303816000875af1158015612b9e573d6000803e3d6000fd5b505050506040513d601f19601f82011682018060405250810190612bc29190614098565b9050610aad612675565b60405163a9059cbb60e01b81526001600160a01b0383811660048301526024820183905284169063a9059cbb906044016020604051808303816000875af1158015612c1b573d6000803e3d6000fd5b505050506040513d601f19601f82011682018060405250810190612c3f9190614009565b612c9a5760405162461bcd60e51b815260206004820152602660248201527f416176655633537472617465677956313a3a5452414e534645525f46524f4d5f60448201526511905253115160d21b6064820152608401610980565b505050565b60075415612d22573360009081526008602052604090205460ff161515600114612d225760405162461bcd60e51b815260206004820152602e60248201527f5065726d697373696f6e65643a3a6f6e6c79416c6c6f7765644465706f73697460448201526d1ccb081b9bdd08185b1b1bddd95960921b6064820152608401610980565b600e5460ff161515600114612d795760405162461bcd60e51b815260206004820152601a60248201527f416176655633537472617465677956313a3a5f6465706f7369740000000000006044820152606401610980565b600d5415612da3576000612d8b61193c565b9050600d54811115612da157612da16001613234565b505b6009546040516323b872dd60e01b8152336004820152306024820152604481018390526001600160a01b03909116906323b872dd906064016020604051808303816000875af1158015612dfa573d6000803e3d6000fd5b505050506040513d601f19601f82011682018060405250810190612e1e9190614009565b612e745760405162461bcd60e51b815260206004820152602160248201527f416176655633537472617465677956313a3a7472616e73666572206661696c656044820152601960fa1b6064820152608401610980565b612e8682612e8183611e1b565b6134b1565b612e8f81613535565b816001600160a01b03167fe1fffcc4923d04b559f4d29a8bfc6cda04eb5b0d3c460751c2402c5c5cc9109c82604051612eca91815260200190565b60405180910390a25050565b600a546001600160a01b03838116911614612f7857600a54612f0490829084906001600160a01b031661210d565b612f78576040805162461bcd60e51b81526020600482015260248101919091527f5661726961626c655265776172647353747261746567793a3a5377617020706160448201527f697220646f6573206e6f7420636f6e7461696e2072657761726420746f6b656e6064820152608401610980565b6001600160a01b03808316600081815260126020526040812080549385166001600160a01b03199485161790556013805460018181018355919092527f66de8ffda797e3de9c05e8fc57b3bf0ec28a930d40b0d285d93c06501cf6a0909091018054909316909117909155601454612fef91612101565b601455604080516001600160a01b038085168252831660208201527f916e172c080569186aa7ea048268267257cf7cc49505908863f747bca8620f809101611123565b6000610aad8284614379565b6000610aad8284614398565b600080613057858561368a565b509050600080846001600160a01b0316630902f1ac6040518163ffffffff1660e01b8152600401606060405180830381865afa15801561309b573d6000803e3d6000fd5b505050506040513d601f19601f820116820180604052508101906130bf91906143d1565b5091509150866001600160a01b0316836001600160a01b0316146130df57905b6130fc88836001600160701b0316836001600160701b03166136bb565b98975050505050505050565b6000613112611f24565b60405161190160f01b602082015260228101919091526042810186905260620160408051601f198184030181528282528051602091820120600080855291840180845281905260ff88169284019290925260608301869052608083018590529092509060019060a0016020604051602081039080840390855afa15801561319d573d6000803e3d6000fd5b5050604051601f1901519150506001600160a01b038116158015906131d35750866001600160a01b0316816001600160a01b0316145b61322b5760405162461bcd60e51b8152602060048201526024808201527f417263683a3a76616c69646174655369673a20696e76616c6964207369676e616044820152637475726560e01b6064820152608401610980565b50505050505050565b6040805160028082526060820183526000926020830190803683375050601c5482519293506001600160a01b03169183915060009061327557613275614026565b6001600160a01b039283166020918202929092010152601d548251911690829060019081106132a6576132a6614026565b6001600160a01b03928316602091820292909201015260195460405163bb492bf560e01b815291169063bb492bf5906132e590849030906004016140c7565b6000604051808303816000875af1158015613304573d6000803e3d6000fd5b505050506040513d6000823e601f3d908101601f1916820160405261332c91908101906141e4565b50506000613338613709565b9050826133aa57600c548110156133aa5760405162461bcd60e51b815260206004820152603060248201527f5661726961626c655265776172647353747261746567793a3a5265696e76657360448201526f7420616d6f756e7420746f6f206c6f7760801b6064820152608401610980565b60006133c76127106119286011548561303290919063ffffffff16565b905080156133ec57600a54600b546133ec916001600160a01b03908116911683612bcc565b60006134096127106119286010548661303290919063ffffffff16565b9050801561342857600a54613428906001600160a01b03163383612bcc565b600061345a61343b8361256d878761257b565b600a54600954601b546001600160a01b0392831692918216911661393a565b905061346581613535565b7fc7606d21ac05cd309191543e409f0845c016120563783d70e4f41419dc0ef23461348e610fa8565b6002546040805192835260208301919091520160405180910390a1505050505050565b6002546134be9082612101565b6002556001600160a01b0382166000908152600460205260409020546134e49082612101565b6001600160a01b0383166000818152600460205260408082209390935591519091907fddf252ad1be2c89b69c2b068fc378daa952ba7f163c4a11628f55a4df523b3ef90612b079085815260200190565b600081116135935760405162461bcd60e51b815260206004820152602560248201527f416176655633537472617465677956313a3a5f7374616b654465706f736974546044820152646f6b656e7360d81b6064820152608401610980565b600954601a5460405163095ea7b360e01b81526001600160a01b0391821660048201526024810184905291169063095ea7b3906044016020604051808303816000875af11580156135e8573d6000803e3d6000fd5b505050506040513d601f19601f8201168201806040525081019061360c9190614009565b50601a5460095460405163617ba03760e01b81526001600160a01b039182166004820152602481018490523060448201526000606482015291169063617ba03790608401600060405180830381600087803b15801561366a57600080fd5b505af115801561367e573d6000803e3d6000fd5b505050506118f4612675565b600080826001600160a01b0316846001600160a01b0316106136ad5782846136b0565b83835b915091509250929050565b6000806136ca856103e5613032565b905060006136d88285613032565b905060006136f2836136ec886103e8613032565b90612101565b90506136fe828261303e565b979650505050505050565b6040516370a0823160e01b8152306004820152600090819073b31f66aa3c1e785363f0875a1b74e27b85fd66c7906370a0823190602401602060405180830381865afa15801561375d573d6000803e3d6000fd5b505050506040513d601f19601f820116820180604052508101906137819190614098565b60135490915060005b81811015613932576000601382815481106137a7576137a7614026565b6000918252602090912001546001600160a01b0316905073b31f66aa3c1e785363f0875a1b74e27b85fd66c61981016138665747801561385f5773b31f66aa3c1e785363f0875a1b74e27b85fd66c76001600160a01b031663d0e30db0826040518263ffffffff1660e01b81526004016000604051808303818588803b15801561383057600080fd5b505af1158015613844573d6000803e3d6000fd5b505050505061385c818661210190919063ffffffff16565b94505b5050613920565b6040516370a0823160e01b81523060048201526000906001600160a01b038316906370a0823190602401602060405180830381865afa1580156138ad573d6000803e3d6000fd5b505050506040513d601f19601f820116820180604052508101906138d19190614098565b9050801561391d576001600160a01b0380831660009081526012602052604090205416801561391b57600a5461391890611c4490849086906001600160a01b03168561393a565b95505b505b50505b8061392a81614069565b91505061378a565b509092915050565b600080613947858561368a565b509050600080846001600160a01b0316630902f1ac6040518163ffffffff1660e01b8152600401606060405180830381865afa15801561398b573d6000803e3d6000fd5b505050506040513d601f19601f820116820180604052508101906139af91906143d1565b5091509150866001600160a01b0316836001600160a01b0316146139cf57905b6000806139ef8a856001600160701b0316856001600160701b03166136bb565b9050886001600160a01b0316856001600160a01b031614613a0c57905b613a206001600160a01b038a16888c613aae565b6040805160008152602081019182905263022c0d9f60e01b9091526001600160a01b0388169063022c0d9f90613a5f9085908590309060248101614421565b600060405180830381600087803b158015613a7957600080fd5b505af1158015613a8d573d6000803e3d6000fd5b50505050818111613a9e5781613aa0565b805b9a9950505050505050505050565b604080516001600160a01b03848116602483015260448083018590528351808403909101815260649092018352602080830180516001600160e01b031663a9059cbb60e01b17905283518085019094528084527f5361666545524332303a206c6f772d6c6576656c2063616c6c206661696c656490840152612c9a92869291600091613b3e918516908490613bbb565b805190915015612c9a5780806020019051810190613b5c9190614009565b612c9a5760405162461bcd60e51b815260206004820152602a60248201527f5361666545524332303a204552433230206f7065726174696f6e20646964206e6044820152691bdd081cdd58d8d9595960b21b6064820152608401610980565b606061231a8484600085856001600160a01b0385163b613c1d5760405162461bcd60e51b815260206004820152601d60248201527f416464726573733a2063616c6c20746f206e6f6e2d636f6e74726163740000006044820152606401610980565b600080866001600160a01b03168587604051613c399190614458565b60006040518083038185875af1925050503d8060008114613c76576040519150601f19603f3d011682016040523d82523d6000602084013e613c7b565b606091505b50915091506136fe82828660608315613c95575081610aad565b825115613ca55782518084602001fd5b8160405162461bcd60e51b81526004016109809190613d1b565b60005b83811015613cda578181015183820152602001613cc2565b83811115613ce9576000848401525b50505050565b60008151808452613d07816020860160208601613cbf565b601f01601f19169290920160200192915050565b602081526000610aad6020830184613cef565b6001600160a01b03811681146118f457600080fd5b60008060408385031215613d5657600080fd5b8235613d6181613d2e565b946020939093013593505050565b60008060008060808587031215613d8557600080fd5b5050823594602084013594506040840135936060013592509050565b600080600060608486031215613db657600080fd5b8335613dc181613d2e565b92506020840135613dd181613d2e565b929592945050506040919091013590565b600060208284031215613df457600080fd5b5035919050565b60008060408385031215613e0e57600080fd5b8235613e1981613d2e565b91506020830135613e2981613d2e565b809150509250929050565b600060208284031215613e4657600080fd5b8135610aad81613d2e565b803560ff81168114613e6257600080fd5b919050565b600080600080600060a08688031215613e7f57600080fd5b8535945060208601359350613e9660408701613e51565b94979396509394606081013594506080013592915050565b80151581146118f457600080fd5b600060208284031215613ece57600080fd5b8135610aad81613eae565b60008060408385031215613eec57600080fd5b823591506020830135613e2981613eae565b600080600080600080600060e0888a031215613f1957600080fd5b8735613f2481613d2e565b96506020880135613f3481613d2e565b95506040880135945060608801359350613f5060808901613e51565b925060a0880135915060c0880135905092959891949750929550565b600181811c90821680613f8057607f821691505b602082108103613fa057634e487b7160e01b600052602260045260246000fd5b50919050565b6020808252601490820152732cb0b5a9ba3930ba32b3bc9d1d37b7363ca232bb60611b604082015260600190565b6020808252818101527f4f776e61626c653a2063616c6c6572206973206e6f7420746865206f776e6572604082015260600190565b60006020828403121561401b57600080fd5b8151610aad81613eae565b634e487b7160e01b600052603260045260246000fd5b634e487b7160e01b600052601160045260246000fd5b6000828210156140645761406461403c565b500390565b60006001820161407b5761407b61403c565b5060010190565b634e487b7160e01b600052603160045260246000fd5b6000602082840312156140aa57600080fd5b5051919050565b634e487b7160e01b600052604160045260246000fd5b604080825283519082018190526000906020906060840190828701845b828110156141095781516001600160a01b0316845292840192908401906001016140e4565b5050506001600160a01b039490941692019190915250919050565b604051601f8201601f1916810167ffffffffffffffff8111828210171561414d5761414d6140b1565b604052919050565b600067ffffffffffffffff82111561416f5761416f6140b1565b5060051b60200190565b600082601f83011261418a57600080fd5b8151602061419f61419a83614155565b614124565b82815260059290921b840181019181810190868411156141be57600080fd5b8286015b848110156141d957805183529183019183016141c2565b509695505050505050565b600080604083850312156141f757600080fd5b825167ffffffffffffffff8082111561420f57600080fd5b818501915085601f83011261422357600080fd5b8151602061423361419a83614155565b82815260059290921b8401810191818101908984111561425257600080fd5b948201945b8386101561427957855161426a81613d2e565b82529482019490820190614257565b9188015191965090935050508082111561429257600080fd5b5061429f85828601614179565b9150509250929050565b600080835481600182811c9150808316806142c557607f831692505b602080841082036142e457634e487b7160e01b86526022600452602486fd5b8180156142f8576001811461430957614336565b60ff19861689528489019650614336565b60008a81526020902060005b8681101561432e5781548b820152908501908301614315565b505084890196505b509498975050505050505050565b600082198211156143575761435761403c565b500190565b60006020828403121561436e57600080fd5b8151610aad81613d2e565b60008160001904831182151516156143935761439361403c565b500290565b6000826143b557634e487b7160e01b600052601260045260246000fd5b500490565b80516001600160701b0381168114613e6257600080fd5b6000806000606084860312156143e657600080fd5b6143ef846143ba565b92506143fd602085016143ba565b9150604084015163ffffffff8116811461441657600080fd5b809150509250925092565b84815283602082015260018060a01b038316604082015260806060820152600061444e6080830184613cef565b9695505050505050565b6000825161446a818460208701613cbf565b919091019291505056fe5f6275726e3a206275726e20616d6f756e74206578636565647320746f74616c20737570706c797472616e7366657246726f6d3a207472616e7366657220616d6f756e74206578636565647320616c6c6f77616e63655f6275726e3a206275726e20616d6f756e7420657863656564732066726f6d2062616c616e63655f7472616e73666572546f6b656e733a207472616e7366657220657863656564732066726f6d2062616c616e6365a2646970667358221220cef564b1af2912d32112652026aa3aff97b6d105525f6b479009a826ba20f3c664736f6c634300080d00334f776e61626c653a2063616c6c6572206973206e6f7420746865206f776e65728be0079c531659141344cd1fd0a4f28419497f9722a3daafe3b4186f6b6457e0",
    "linkReferences": {}
  },
  "methodIdentifiers": {
    "ADMIN_FEE_BIPS()": "07677111",
    "DEPOSITS_ENABLED()": "b52a321f",
    "DEV_FEE_BIPS()": "5ea682ea",
    "DOMAIN_TYPEHASH()": "20606b70",
    "MAX_TOKENS_TO_DEPOSIT_WITHOUT_REINVEST()": "789139bc",
    "MIN_TOKENS_TO_REINVEST()": "bd079f55",
    "PERMIT_TYPEHASH()": "30adf81f",
    "REINVEST_REWARD_BIPS()": "8aff733d",
    "VERSION_HASH()": "9e4e7318",
    "addReward(address,address)": "40b47e1a",
    "allowDepositor(address)": "4bebd1e7",
    "allowance(address,address)": "dd62ed3e",
    "allowedDepositors(address)": "483c2ef0",
    "approve(address,uint256)": "095ea7b3",
    "balanceOf(address)": "70a08231",
    "checkReward()": "c4b24a46",
    "decimals()": "313ce567",
    "deposit(uint256)": "b6b55f25",
    "depositFor(address,uint256)": "2f4f21e2",
    "depositToken()": "c89039c5",
    "depositWithPermit(uint256,uint256,uint8,bytes32,bytes32)": "4a970be7",
    "devAddr()": "da09c72c",
    "estimateDeployedBalance()": "0f23475d",
    "estimateReinvestReward()": "b9e57b80",
    "getActualLeverage()": "db8dd95c",
    "getDepositTokensForShares(uint256)": "eab89a5a",
    "getDomainSeparator()": "ed24911d",
    "getSharesForDepositTokens(uint256)": "dd8ce4d6",
    "leverageBips()": "1f15d71a",
    "leverageLevel()": "e592c5fa",
    "minMinting()": "62ac20a5",
    "name()": "06fdde03",
    "nonces(address)": "7ecebe00",
    "numberOfAllowedDepositors()": "3bdc6e72",
    "owner()": "8da5cb5b",
    "permit(address,address,uint256,uint256,uint8,bytes32,bytes32)": "d505accf",
    "recoverAVAX(uint256)": "4ebb7916",
    "recoverERC20(address,uint256)": "8980f11f",
    "reinvest()": "fdb5a03e",
    "removeDepositor(address)": "8b73e606",
    "removeReward(address)": "a4d5e67c",
    "renounceOwnership()": "715018a6",
    "rescueDeployedFunds(uint256,bool)": "ac0d31ff",
    "revokeAllowance(address,address)": "7ae26773",
    "rewardCount()": "79085425",
    "rewardSwapPairs(address)": "a5534e71",
    "rewardToken()": "f7c618c1",
    "safetyFactor()": "f02ecb71",
    "supportedRewards(uint256)": "e75ab045",
    "symbol()": "95d89b41",
    "totalDeposits()": "7d882097",
    "totalSupply()": "18160ddd",
    "transfer(address,uint256)": "a9059cbb",
    "transferFrom(address,address,uint256)": "23b872dd",
    "transferOwnership(address)": "f2fde38b",
    "updateAdminFee(uint256)": "cff1b6ef",
    "updateDepositsEnabled(bool)": "4e77ace5",
    "updateDevAddr(address)": "9291d563",
    "updateDevFee(uint256)": "99729ec1",
    "updateLeverage(uint256,uint256,uint256,uint256)": "22a05141",
    "updateMaxTokensToDepositWithoutReinvest(uint256)": "e21ac825",
    "updateMinTokensToReinvest(uint256)": "81837230",
    "updateReinvestReward(uint256)": "a8ae2b7c",
    "withdraw(uint256)": "2e1a7d4d"
  },
  "id": 39
}