{
  "abi": [
    {
      "inputs": [
        {
          "internalType": "string",
          "name": "_name",
          "type": "string"
        },
        {
          "internalType": "address",
          "name": "_depositToken",
          "type": "address"
        },
        {
          "components": [
            {
              "internalType": "address",
              "name": "token0",
              "type": "address"
            },
            {
              "internalType": "address",
              "name": "token1",
              "type": "address"
            }
          ],
          "internalType": "struct KyberStrategy.SwapPairs",
          "name": "_swapPairs",
          "type": "tuple"
        },
        {
          "components": [
            {
              "internalType": "address",
              "name": "reward",
              "type": "address"
            },
            {
              "internalType": "address",
              "name": "swapPair",
              "type": "address"
            }
          ],
          "internalType": "struct KyberStrategy.RewardSwapPairs[]",
          "name": "_rewardSwapPairs",
          "type": "tuple[]"
        },
        {
          "internalType": "address",
          "name": "_stakingContract",
          "type": "address"
        },
        {
          "internalType": "uint256",
          "name": "_pid",
          "type": "uint256"
        },
        {
          "internalType": "address",
          "name": "_timelock",
          "type": "address"
        },
        {
          "components": [
            {
              "internalType": "uint256",
              "name": "minTokensToReinvest",
              "type": "uint256"
            },
            {
              "internalType": "uint256",
              "name": "devFeeBips",
              "type": "uint256"
            },
            {
              "internalType": "uint256",
              "name": "reinvestRewardBips",
              "type": "uint256"
            }
          ],
          "internalType": "struct YakStrategyV2.StrategySettings",
          "name": "_strategySettings",
          "type": "tuple"
        }
      ],
      "stateMutability": "nonpayable",
      "type": "constructor"
    },
    {
      "anonymous": false,
      "inputs": [
        {
          "indexed": false,
          "internalType": "address",
          "name": "rewardToken",
          "type": "address"
        },
        {
          "indexed": false,
          "internalType": "address",
          "name": "swapPair",
          "type": "address"
        }
      ],
      "name": "AddReward",
      "type": "event"
    },
    {
      "anonymous": false,
      "inputs": [
        {
          "indexed": true,
          "internalType": "address",
          "name": "account",
          "type": "address"
        }
      ],
      "name": "AllowDepositor",
      "type": "event"
    },
    {
      "anonymous": false,
      "inputs": [
        {
          "indexed": true,
          "internalType": "address",
          "name": "owner",
          "type": "address"
        },
        {
          "indexed": true,
          "internalType": "address",
          "name": "spender",
          "type": "address"
        },
        {
          "indexed": false,
          "internalType": "uint256",
          "name": "value",
          "type": "uint256"
        }
      ],
      "name": "Approval",
      "type": "event"
    },
    {
      "anonymous": false,
      "inputs": [
        {
          "indexed": true,
          "internalType": "address",
          "name": "account",
          "type": "address"
        },
        {
          "indexed": false,
          "internalType": "uint256",
          "name": "amount",
          "type": "uint256"
        }
      ],
      "name": "Deposit",
      "type": "event"
    },
    {
      "anonymous": false,
      "inputs": [
        {
          "indexed": false,
          "internalType": "bool",
          "name": "newValue",
          "type": "bool"
        }
      ],
      "name": "DepositsEnabled",
      "type": "event"
    },
    {
      "anonymous": false,
      "inputs": [
        {
          "indexed": true,
          "internalType": "address",
          "name": "previousOwner",
          "type": "address"
        },
        {
          "indexed": true,
          "internalType": "address",
          "name": "newOwner",
          "type": "address"
        }
      ],
      "name": "OwnershipTransferred",
      "type": "event"
    },
    {
      "anonymous": false,
      "inputs": [
        {
          "indexed": false,
          "internalType": "address",
          "name": "token",
          "type": "address"
        },
        {
          "indexed": false,
          "internalType": "uint256",
          "name": "amount",
          "type": "uint256"
        }
      ],
      "name": "Recovered",
      "type": "event"
    },
    {
      "anonymous": false,
      "inputs": [
        {
          "indexed": false,
          "internalType": "uint256",
          "name": "newTotalDeposits",
          "type": "uint256"
        },
        {
          "indexed": false,
          "internalType": "uint256",
          "name": "newTotalSupply",
          "type": "uint256"
        }
      ],
      "name": "Reinvest",
      "type": "event"
    },
    {
      "anonymous": false,
      "inputs": [
        {
          "indexed": true,
          "internalType": "address",
          "name": "account",
          "type": "address"
        }
      ],
      "name": "RemoveDepositor",
      "type": "event"
    },
    {
      "anonymous": false,
      "inputs": [
        {
          "indexed": false,
          "internalType": "address",
          "name": "rewardToken",
          "type": "address"
        }
      ],
      "name": "RemoveReward",
      "type": "event"
    },
    {
      "anonymous": false,
      "inputs": [
        {
          "indexed": true,
          "internalType": "address",
          "name": "from",
          "type": "address"
        },
        {
          "indexed": true,
          "internalType": "address",
          "name": "to",
          "type": "address"
        },
        {
          "indexed": false,
          "internalType": "uint256",
          "name": "value",
          "type": "uint256"
        }
      ],
      "name": "Transfer",
      "type": "event"
    },
    {
      "anonymous": false,
      "inputs": [
        {
          "indexed": false,
          "internalType": "uint256",
          "name": "oldValue",
          "type": "uint256"
        },
        {
          "indexed": false,
          "internalType": "uint256",
          "name": "newValue",
          "type": "uint256"
        }
      ],
      "name": "UpdateAdminFee",
      "type": "event"
    },
    {
      "anonymous": false,
      "inputs": [
        {
          "indexed": false,
          "internalType": "address",
          "name": "oldValue",
          "type": "address"
        },
        {
          "indexed": false,
          "internalType": "address",
          "name": "newValue",
          "type": "address"
        }
      ],
      "name": "UpdateDevAddr",
      "type": "event"
    },
    {
      "anonymous": false,
      "inputs": [
        {
          "indexed": false,
          "internalType": "uint256",
          "name": "oldValue",
          "type": "uint256"
        },
        {
          "indexed": false,
          "internalType": "uint256",
          "name": "newValue",
          "type": "uint256"
        }
      ],
      "name": "UpdateDevFee",
      "type": "event"
    },
    {
      "anonymous": false,
      "inputs": [
        {
          "indexed": false,
          "internalType": "uint256",
          "name": "oldValue",
          "type": "uint256"
        },
        {
          "indexed": false,
          "internalType": "uint256",
          "name": "newValue",
          "type": "uint256"
        }
      ],
      "name": "UpdateMaxTokensToDepositWithoutReinvest",
      "type": "event"
    },
    {
      "anonymous": false,
      "inputs": [
        {
          "indexed": false,
          "internalType": "uint256",
          "name": "oldValue",
          "type": "uint256"
        },
        {
          "indexed": false,
          "internalType": "uint256",
          "name": "newValue",
          "type": "uint256"
        }
      ],
      "name": "UpdateMinTokensToReinvest",
      "type": "event"
    },
    {
      "anonymous": false,
      "inputs": [
        {
          "indexed": false,
          "internalType": "uint256",
          "name": "oldValue",
          "type": "uint256"
        },
        {
          "indexed": false,
          "internalType": "uint256",
          "name": "newValue",
          "type": "uint256"
        }
      ],
      "name": "UpdateReinvestReward",
      "type": "event"
    },
    {
      "anonymous": false,
      "inputs": [
        {
          "indexed": true,
          "internalType": "address",
          "name": "account",
          "type": "address"
        },
        {
          "indexed": false,
          "internalType": "uint256",
          "name": "amount",
          "type": "uint256"
        }
      ],
      "name": "Withdraw",
      "type": "event"
    },
    {
      "inputs": [],
      "name": "ADMIN_FEE_BIPS",
      "outputs": [
        {
          "internalType": "uint256",
          "name": "",
          "type": "uint256"
        }
      ],
      "stateMutability": "view",
      "type": "function"
    },
    {
      "inputs": [],
      "name": "DEPOSITS_ENABLED",
      "outputs": [
        {
          "internalType": "bool",
          "name": "",
          "type": "bool"
        }
      ],
      "stateMutability": "view",
      "type": "function"
    },
    {
      "inputs": [],
      "name": "DEV_FEE_BIPS",
      "outputs": [
        {
          "internalType": "uint256",
          "name": "",
          "type": "uint256"
        }
      ],
      "stateMutability": "view",
      "type": "function"
    },
    {
      "inputs": [],
      "name": "DOMAIN_TYPEHASH",
      "outputs": [
        {
          "internalType": "bytes32",
          "name": "",
          "type": "bytes32"
        }
      ],
      "stateMutability": "view",
      "type": "function"
    },
    {
      "inputs": [],
      "name": "MAX_TOKENS_TO_DEPOSIT_WITHOUT_REINVEST",
      "outputs": [
        {
          "internalType": "uint256",
          "name": "",
          "type": "uint256"
        }
      ],
      "stateMutability": "view",
      "type": "function"
    },
    {
      "inputs": [],
      "name": "MIN_TOKENS_TO_REINVEST",
      "outputs": [
        {
          "internalType": "uint256",
          "name": "",
          "type": "uint256"
        }
      ],
      "stateMutability": "view",
      "type": "function"
    },
    {
      "inputs": [],
      "name": "PERMIT_TYPEHASH",
      "outputs": [
        {
          "internalType": "bytes32",
          "name": "",
          "type": "bytes32"
        }
      ],
      "stateMutability": "view",
      "type": "function"
    },
    {
      "inputs": [],
      "name": "PID",
      "outputs": [
        {
          "internalType": "uint256",
          "name": "",
          "type": "uint256"
        }
      ],
      "stateMutability": "view",
      "type": "function"
    },
    {
      "inputs": [],
      "name": "REINVEST_REWARD_BIPS",
      "outputs": [
        {
          "internalType": "uint256",
          "name": "",
          "type": "uint256"
        }
      ],
      "stateMutability": "view",
      "type": "function"
    },
    {
      "inputs": [],
      "name": "VERSION_HASH",
      "outputs": [
        {
          "internalType": "bytes32",
          "name": "",
          "type": "bytes32"
        }
      ],
      "stateMutability": "view",
      "type": "function"
    },
    {
      "inputs": [
        {
          "internalType": "address",
          "name": "_rewardToken",
          "type": "address"
        },
        {
          "internalType": "address",
          "name": "_swapPair",
          "type": "address"
        }
      ],
      "name": "addReward",
      "outputs": [],
      "stateMutability": "nonpayable",
      "type": "function"
    },
    {
      "inputs": [
        {
          "internalType": "address",
          "name": "depositor",
          "type": "address"
        }
      ],
      "name": "allowDepositor",
      "outputs": [],
      "stateMutability": "nonpayable",
      "type": "function"
    },
    {
      "inputs": [
        {
          "internalType": "address",
          "name": "account",
          "type": "address"
        },
        {
          "internalType": "address",
          "name": "spender",
          "type": "address"
        }
      ],
      "name": "allowance",
      "outputs": [
        {
          "internalType": "uint256",
          "name": "",
          "type": "uint256"
        }
      ],
      "stateMutability": "view",
      "type": "function"
    },
    {
      "inputs": [
        {
          "internalType": "address",
          "name": "",
          "type": "address"
        }
      ],
      "name": "allowedDepositors",
      "outputs": [
        {
          "internalType": "bool",
          "name": "",
          "type": "bool"
        }
      ],
      "stateMutability": "view",
      "type": "function"
    },
    {
      "inputs": [
        {
          "internalType": "address",
          "name": "spender",
          "type": "address"
        },
        {
          "internalType": "uint256",
          "name": "amount",
          "type": "uint256"
        }
      ],
      "name": "approve",
      "outputs": [
        {
          "internalType": "bool",
          "name": "",
          "type": "bool"
        }
      ],
      "stateMutability": "nonpayable",
      "type": "function"
    },
    {
      "inputs": [
        {
          "internalType": "address",
          "name": "account",
          "type": "address"
        }
      ],
      "name": "balanceOf",
      "outputs": [
        {
          "internalType": "uint256",
          "name": "",
          "type": "uint256"
        }
      ],
      "stateMutability": "view",
      "type": "function"
    },
    {
      "inputs": [],
      "name": "checkReward",
      "outputs": [
        {
          "internalType": "uint256",
          "name": "",
          "type": "uint256"
        }
      ],
      "stateMutability": "view",
      "type": "function"
    },
    {
      "inputs": [],
      "name": "decimals",
      "outputs": [
        {
          "internalType": "uint8",
          "name": "",
          "type": "uint8"
        }
      ],
      "stateMutability": "view",
      "type": "function"
    },
    {
      "inputs": [
        {
          "internalType": "uint256",
          "name": "_amount",
          "type": "uint256"
        }
      ],
      "name": "deposit",
      "outputs": [],
      "stateMutability": "nonpayable",
      "type": "function"
    },
    {
      "inputs": [
        {
          "internalType": "address",
          "name": "_account",
          "type": "address"
        },
        {
          "internalType": "uint256",
          "name": "_amount",
          "type": "uint256"
        }
      ],
      "name": "depositFor",
      "outputs": [],
      "stateMutability": "nonpayable",
      "type": "function"
    },
    {
      "inputs": [],
      "name": "depositToken",
      "outputs": [
        {
          "internalType": "contract IERC20",
          "name": "",
          "type": "address"
        }
      ],
      "stateMutability": "view",
      "type": "function"
    },
    {
      "inputs": [
        {
          "internalType": "uint256",
          "name": "_amount",
          "type": "uint256"
        },
        {
          "internalType": "uint256",
          "name": "_deadline",
          "type": "uint256"
        },
        {
          "internalType": "uint8",
          "name": "_v",
          "type": "uint8"
        },
        {
          "internalType": "bytes32",
          "name": "_r",
          "type": "bytes32"
        },
        {
          "internalType": "bytes32",
          "name": "_s",
          "type": "bytes32"
        }
      ],
      "name": "depositWithPermit",
      "outputs": [],
      "stateMutability": "nonpayable",
      "type": "function"
    },
    {
      "inputs": [],
      "name": "devAddr",
      "outputs": [
        {
          "internalType": "address",
          "name": "",
          "type": "address"
        }
      ],
      "stateMutability": "view",
      "type": "function"
    },
    {
      "inputs": [],
      "name": "estimateDeployedBalance",
      "outputs": [
        {
          "internalType": "uint256",
          "name": "",
          "type": "uint256"
        }
      ],
      "stateMutability": "view",
      "type": "function"
    },
    {
      "inputs": [],
      "name": "estimateReinvestReward",
      "outputs": [
        {
          "internalType": "uint256",
          "name": "",
          "type": "uint256"
        }
      ],
      "stateMutability": "view",
      "type": "function"
    },
    {
      "inputs": [
        {
          "internalType": "uint256",
          "name": "amount",
          "type": "uint256"
        }
      ],
      "name": "getDepositTokensForShares",
      "outputs": [
        {
          "internalType": "uint256",
          "name": "",
          "type": "uint256"
        }
      ],
      "stateMutability": "view",
      "type": "function"
    },
    {
      "inputs": [],
      "name": "getDomainSeparator",
      "outputs": [
        {
          "internalType": "bytes32",
          "name": "",
          "type": "bytes32"
        }
      ],
      "stateMutability": "view",
      "type": "function"
    },
    {
      "inputs": [
        {
          "internalType": "uint256",
          "name": "amount",
          "type": "uint256"
        }
      ],
      "name": "getSharesForDepositTokens",
      "outputs": [
        {
          "internalType": "uint256",
          "name": "",
          "type": "uint256"
        }
      ],
      "stateMutability": "view",
      "type": "function"
    },
    {
      "inputs": [],
      "name": "name",
      "outputs": [
        {
          "internalType": "string",
          "name": "",
          "type": "string"
        }
      ],
      "stateMutability": "view",
      "type": "function"
    },
    {
      "inputs": [
        {
          "internalType": "address",
          "name": "",
          "type": "address"
        }
      ],
      "name": "nonces",
      "outputs": [
        {
          "internalType": "uint256",
          "name": "",
          "type": "uint256"
        }
      ],
      "stateMutability": "view",
      "type": "function"
    },
    {
      "inputs": [],
      "name": "numberOfAllowedDepositors",
      "outputs": [
        {
          "internalType": "uint256",
          "name": "",
          "type": "uint256"
        }
      ],
      "stateMutability": "view",
      "type": "function"
    },
    {
      "inputs": [],
      "name": "owner",
      "outputs": [
        {
          "internalType": "address",
          "name": "",
          "type": "address"
        }
      ],
      "stateMutability": "view",
      "type": "function"
    },
    {
      "inputs": [
        {
          "internalType": "address",
          "name": "owner",
          "type": "address"
        },
        {
          "internalType": "address",
          "name": "spender",
          "type": "address"
        },
        {
          "internalType": "uint256",
          "name": "value",
          "type": "uint256"
        },
        {
          "internalType": "uint256",
          "name": "deadline",
          "type": "uint256"
        },
        {
          "internalType": "uint8",
          "name": "v",
          "type": "uint8"
        },
        {
          "internalType": "bytes32",
          "name": "r",
          "type": "bytes32"
        },
        {
          "internalType": "bytes32",
          "name": "s",
          "type": "bytes32"
        }
      ],
      "name": "permit",
      "outputs": [],
      "stateMutability": "nonpayable",
      "type": "function"
    },
    {
      "inputs": [
        {
          "internalType": "uint256",
          "name": "amount",
          "type": "uint256"
        }
      ],
      "name": "recoverAVAX",
      "outputs": [],
      "stateMutability": "nonpayable",
      "type": "function"
    },
    {
      "inputs": [
        {
          "internalType": "address",
          "name": "tokenAddress",
          "type": "address"
        },
        {
          "internalType": "uint256",
          "name": "tokenAmount",
          "type": "uint256"
        }
      ],
      "name": "recoverERC20",
      "outputs": [],
      "stateMutability": "nonpayable",
      "type": "function"
    },
    {
      "inputs": [],
      "name": "reinvest",
      "outputs": [],
      "stateMutability": "nonpayable",
      "type": "function"
    },
    {
      "inputs": [
        {
          "internalType": "address",
          "name": "depositor",
          "type": "address"
        }
      ],
      "name": "removeDepositor",
      "outputs": [],
      "stateMutability": "nonpayable",
      "type": "function"
    },
    {
      "inputs": [
        {
          "internalType": "address",
          "name": "_rewardToken",
          "type": "address"
        }
      ],
      "name": "removeReward",
      "outputs": [],
      "stateMutability": "nonpayable",
      "type": "function"
    },
    {
      "inputs": [],
      "name": "renounceOwnership",
      "outputs": [],
      "stateMutability": "nonpayable",
      "type": "function"
    },
    {
      "inputs": [
        {
          "internalType": "uint256",
          "name": "_minReturnAmountAccepted",
          "type": "uint256"
        },
        {
          "internalType": "bool",
          "name": "",
          "type": "bool"
        }
      ],
      "name": "rescueDeployedFunds",
      "outputs": [],
      "stateMutability": "nonpayable",
      "type": "function"
    },
    {
      "inputs": [
        {
          "internalType": "address",
          "name": "token",
          "type": "address"
        },
        {
          "internalType": "address",
          "name": "spender",
          "type": "address"
        }
      ],
      "name": "revokeAllowance",
      "outputs": [],
      "stateMutability": "nonpayable",
      "type": "function"
    },
    {
      "inputs": [],
      "name": "rewardCount",
      "outputs": [
        {
          "internalType": "uint256",
          "name": "",
          "type": "uint256"
        }
      ],
      "stateMutability": "view",
      "type": "function"
    },
    {
      "inputs": [],
      "name": "rewardLocker",
      "outputs": [
        {
          "internalType": "contract IKyberRewardLockerV2",
          "name": "",
          "type": "address"
        }
      ],
      "stateMutability": "view",
      "type": "function"
    },
    {
      "inputs": [
        {
          "internalType": "address",
          "name": "",
          "type": "address"
        }
      ],
      "name": "rewardSwapPairs",
      "outputs": [
        {
          "internalType": "address",
          "name": "",
          "type": "address"
        }
      ],
      "stateMutability": "view",
      "type": "function"
    },
    {
      "inputs": [],
      "name": "rewardToken",
      "outputs": [
        {
          "internalType": "contract IERC20",
          "name": "",
          "type": "address"
        }
      ],
      "stateMutability": "view",
      "type": "function"
    },
    {
      "inputs": [],
      "name": "stakingContract",
      "outputs": [
        {
          "internalType": "contract IKyberFairLaunchV2",
          "name": "",
          "type": "address"
        }
      ],
      "stateMutability": "view",
      "type": "function"
    },
    {
      "inputs": [
        {
          "internalType": "uint256",
          "name": "",
          "type": "uint256"
        }
      ],
      "name": "supportedRewards",
      "outputs": [
        {
          "internalType": "address",
          "name": "",
          "type": "address"
        }
      ],
      "stateMutability": "view",
      "type": "function"
    },
    {
      "inputs": [],
      "name": "symbol",
      "outputs": [
        {
          "internalType": "string",
          "name": "",
          "type": "string"
        }
      ],
      "stateMutability": "view",
      "type": "function"
    },
    {
      "inputs": [],
      "name": "totalDeposits",
      "outputs": [
        {
          "internalType": "uint256",
          "name": "",
          "type": "uint256"
        }
      ],
      "stateMutability": "view",
      "type": "function"
    },
    {
      "inputs": [],
      "name": "totalSupply",
      "outputs": [
        {
          "internalType": "uint256",
          "name": "",
          "type": "uint256"
        }
      ],
      "stateMutability": "view",
      "type": "function"
    },
    {
      "inputs": [
        {
          "internalType": "address",
          "name": "dst",
          "type": "address"
        },
        {
          "internalType": "uint256",
          "name": "amount",
          "type": "uint256"
        }
      ],
      "name": "transfer",
      "outputs": [
        {
          "internalType": "bool",
          "name": "",
          "type": "bool"
        }
      ],
      "stateMutability": "nonpayable",
      "type": "function"
    },
    {
      "inputs": [
        {
          "internalType": "address",
          "name": "src",
          "type": "address"
        },
        {
          "internalType": "address",
          "name": "dst",
          "type": "address"
        },
        {
          "internalType": "uint256",
          "name": "amount",
          "type": "uint256"
        }
      ],
      "name": "transferFrom",
      "outputs": [
        {
          "internalType": "bool",
          "name": "",
          "type": "bool"
        }
      ],
      "stateMutability": "nonpayable",
      "type": "function"
    },
    {
      "inputs": [
        {
          "internalType": "address",
          "name": "newOwner",
          "type": "address"
        }
      ],
      "name": "transferOwnership",
      "outputs": [],
      "stateMutability": "nonpayable",
      "type": "function"
    },
    {
      "inputs": [
        {
          "internalType": "uint256",
          "name": "newValue",
          "type": "uint256"
        }
      ],
      "name": "updateAdminFee",
      "outputs": [],
      "stateMutability": "nonpayable",
      "type": "function"
    },
    {
      "inputs": [
        {
          "internalType": "bool",
          "name": "newValue",
          "type": "bool"
        }
      ],
      "name": "updateDepositsEnabled",
      "outputs": [],
      "stateMutability": "nonpayable",
      "type": "function"
    },
    {
      "inputs": [
        {
          "internalType": "address",
          "name": "newValue",
          "type": "address"
        }
      ],
      "name": "updateDevAddr",
      "outputs": [],
      "stateMutability": "nonpayable",
      "type": "function"
    },
    {
      "inputs": [
        {
          "internalType": "uint256",
          "name": "newValue",
          "type": "uint256"
        }
      ],
      "name": "updateDevFee",
      "outputs": [],
      "stateMutability": "nonpayable",
      "type": "function"
    },
    {
      "inputs": [
        {
          "internalType": "uint256",
          "name": "newValue",
          "type": "uint256"
        }
      ],
      "name": "updateMaxTokensToDepositWithoutReinvest",
      "outputs": [],
      "stateMutability": "nonpayable",
      "type": "function"
    },
    {
      "inputs": [
        {
          "internalType": "uint256",
          "name": "newValue",
          "type": "uint256"
        }
      ],
      "name": "updateMinTokensToReinvest",
      "outputs": [],
      "stateMutability": "nonpayable",
      "type": "function"
    },
    {
      "inputs": [
        {
          "internalType": "uint256",
          "name": "newValue",
          "type": "uint256"
        }
      ],
      "name": "updateReinvestReward",
      "outputs": [],
      "stateMutability": "nonpayable",
      "type": "function"
    },
    {
      "inputs": [
        {
          "internalType": "uint256",
          "name": "_amount",
          "type": "uint256"
        }
      ],
      "name": "withdraw",
      "outputs": [],
      "stateMutability": "nonpayable",
      "type": "function"
    },
    {
      "stateMutability": "payable",
      "type": "receive"
    }
  ],
  "bytecode": {
    "object": "0x610120604052600960e0819052685969656c642059616b60b81b6101009081526200002e916000919062001498565b506040805180820190915260038082526216549560ea1b60209092019182526200005b9160019162001498565b503480156200006957600080fd5b5060405162006a4238038062006a428339810160408190526200008c91620016fb565b600680546001600160a01b03191633908117909155604051829190819060009060008051602062006a02833981519152908290a3508051620000ce90620002b6565b6020810151620000de9062000346565b6040810151620000ee90620003fd565b508751620001049060009060208b019062001498565b50600980546001600160a01b03808a166001600160a01b031992831617909255600a8054821660008051602062006a22833981519152179055600b8054909116732d580f9cf2fb2d09bc411532988f2afda4e7beff1790558416608081905260408051630e24980760e21b81529051633892601c9160048082019260209290919082900301816000875af1158015620001a1573d6000803e3d6000fd5b505050506040513d601f19601f82011682018060405250810190620001c791906200184a565b6001600160a01b031660a05260c083905260005b85518110156200024c5762000237868281518110620001fe57620001fe62001868565b6020026020010151600001518783815181106200021f576200021f62001868565b602002602001015160200151620004b460201b60201c565b80620002438162001894565b915050620001db565b5062000258866200063d565b620002646001620010b7565b6200026f8262001161565b60408051600080825260208201527fc7606d21ac05cd309191543e409f0845c016120563783d70e4f41419dc0ef234910160405180910390a1505050505050505062001907565b6006546001600160a01b03163314620003055760405162461bcd60e51b81526020600482018190526024820152600080516020620069e283398151915260448201526064015b60405180910390fd5b600c5460408051918252602082018390527f481f79ac3a523b6d6db3c5a720e190e986d1cc1b41adcdf50f9caef849901100910160405180910390a1600c55565b6006546001600160a01b03163314620003915760405162461bcd60e51b81526020600482018190526024820152600080516020620069e28339815191526044820152606401620002fc565b612710620003b0601054836200125e60201b6200259e1790919060201c565b1115620003bc57600080fd5b60115460408051918252602082018390527f2a42303d002f0ba6cfe8259c91d4684443fb0b3de286ba74991175d651726131910160405180910390a1601155565b6006546001600160a01b03163314620004485760405162461bcd60e51b81526020600482018190526024820152600080516020620069e28339815191526044820152606401620002fc565b61271062000467601154836200125e60201b6200259e1790919060201c565b11156200047357600080fd5b60105460408051918252602082018390527fe7f97d51d307dc44045597c9978bec0f842e6bb40d19b9444084cfa30d9ed4f2910160405180910390a1601055565b600a546001600160a01b038381169116146200056d57620004f78183600a60009054906101000a90046001600160a01b03166200127360201b620025aa1760201c565b6200056d576040805162461bcd60e51b81526020600482015260248101919091527f5661726961626c655265776172647353747261746567793a3a5377617020706160448201527f697220646f6573206e6f7420636f6e7461696e2072657761726420746f6b656e6064820152608401620002fc565b6001600160a01b038083166000818152601260209081526040822080549486166001600160a01b03199586161790556013805460018181018355919093527f66de8ffda797e3de9c05e8fc57b3bf0ec28a930d40b0d285d93c06501cf6a0909092018054909416909217909255601454620005f39290916200259e6200125e821b17901c565b601455604080516001600160a01b038085168252831660208201527f916e172c080569186aa7ea048268267257cf7cc49505908863f747bca8620f80910160405180910390a15050565b600960009054906101000a90046001600160a01b03166001600160a01b0316630dfe16816040518163ffffffff1660e01b8152600401602060405180830381865afa15801562000691573d6000803e3d6000fd5b505050506040513d601f19601f82011682018060405250810190620006b791906200184a565b6001600160a01b031660008051602062006a228339815191526001600160a01b031614158015620007825750600960009054906101000a90046001600160a01b03166001600160a01b031663d21220a76040518163ffffffff1660e01b8152600401602060405180830381865afa15801562000737573d6000803e3d6000fd5b505050506040513d601f19601f820116820180604052508101906200075d91906200184a565b6001600160a01b031660008051602062006a228339815191526001600160a01b031614155b1562000f3b5780516001600160a01b0316620007f35760405162461bcd60e51b815260206004820152602960248201527f5377617020706169722030206973206e656365737361727920627574206e6f74604482015268081cdd5c1c1b1a595960ba1b6064820152608401620002fc565b60208101516001600160a01b0316620008615760405162461bcd60e51b815260206004820152602960248201527f5377617020706169722031206973206e656365737361727920627574206e6f74604482015268081cdd5c1c1b1a595960ba1b6064820152608401620002fc565b8051601580546001600160a01b03199081166001600160a01b0393841690811790925560208085015160168054909316941693909317905560408051630dfe168160e01b8152905160008051602062006a2283398151915293630dfe168192600480820193918290030181865afa158015620008e1573d6000803e3d6000fd5b505050506040513d601f19601f820116820180604052508101906200090791906200184a565b6001600160a01b03161480620009a257506015546040805163d21220a760e01b8152905160008051602062006a22833981519152926001600160a01b03169163d21220a79160048083019260209291908290030181865afa15801562000971573d6000803e3d6000fd5b505050506040513d601f19601f820116820180604052508101906200099791906200184a565b6001600160a01b0316145b62000a245760405162461bcd60e51b815260206004820152604560248201527f53776170207061697220737570706c69656420646f6573206e6f74206861766560448201527f207468652072657761726420746f6b656e206173206f6e65206f662069742773606482015264103830b4b960d91b608482015260a401620002fc565b600960009054906101000a90046001600160a01b03166001600160a01b0316630dfe16816040518163ffffffff1660e01b8152600401602060405180830381865afa15801562000a78573d6000803e3d6000fd5b505050506040513d601f19601f8201168201806040525081019062000a9e91906200184a565b6001600160a01b0316601560009054906101000a90046001600160a01b03166001600160a01b0316630dfe16816040518163ffffffff1660e01b8152600401602060405180830381865afa15801562000afb573d6000803e3d6000fd5b505050506040513d601f19601f8201168201806040525081019062000b2191906200184a565b6001600160a01b0316148062000c3a5750600960009054906101000a90046001600160a01b03166001600160a01b0316630dfe16816040518163ffffffff1660e01b8152600401602060405180830381865afa15801562000b86573d6000803e3d6000fd5b505050506040513d601f19601f8201168201806040525081019062000bac91906200184a565b6001600160a01b0316601560009054906101000a90046001600160a01b03166001600160a01b031663d21220a76040518163ffffffff1660e01b8152600401602060405180830381865afa15801562000c09573d6000803e3d6000fd5b505050506040513d601f19601f8201168201806040525081019062000c2f91906200184a565b6001600160a01b0316145b62000cae5760405162461bcd60e51b815260206004820152603860248201527f537761702070616972203020737570706c69656420646f6573206e6f74206d6160448201527f74636820746865207061697220696e207175657374696f6e00000000000000006064820152608401620002fc565b600960009054906101000a90046001600160a01b03166001600160a01b031663d21220a76040518163ffffffff1660e01b8152600401602060405180830381865afa15801562000d02573d6000803e3d6000fd5b505050506040513d601f19601f8201168201806040525081019062000d2891906200184a565b6001600160a01b0316601660009054906101000a90046001600160a01b03166001600160a01b0316630dfe16816040518163ffffffff1660e01b8152600401602060405180830381865afa15801562000d85573d6000803e3d6000fd5b505050506040513d601f19601f8201168201806040525081019062000dab91906200184a565b6001600160a01b0316148062000ec45750600960009054906101000a90046001600160a01b03166001600160a01b031663d21220a76040518163ffffffff1660e01b8152600401602060405180830381865afa15801562000e10573d6000803e3d6000fd5b505050506040513d601f19601f8201168201806040525081019062000e3691906200184a565b6001600160a01b0316601660009054906101000a90046001600160a01b03166001600160a01b031663d21220a76040518163ffffffff1660e01b8152600401602060405180830381865afa15801562000e93573d6000803e3d6000fd5b505050506040513d601f19601f8201168201806040525081019062000eb991906200184a565b6001600160a01b0316145b62000f385760405162461bcd60e51b815260206004820152603860248201527f537761702070616972203120737570706c69656420646f6573206e6f74206d6160448201527f74636820746865207061697220696e207175657374696f6e00000000000000006064820152608401620002fc565b50565b600960009054906101000a90046001600160a01b03166001600160a01b0316630dfe16816040518163ffffffff1660e01b8152600401602060405180830381865afa15801562000f8f573d6000803e3d6000fd5b505050506040513d601f19601f8201168201806040525081019062000fb591906200184a565b6001600160a01b031660008051602062006a228339815191520362000ff957600954601680546001600160a01b0319166001600160a01b0390921691909117905550565b600960009054906101000a90046001600160a01b03166001600160a01b031663d21220a76040518163ffffffff1660e01b8152600401602060405180830381865afa1580156200104d573d6000803e3d6000fd5b505050506040513d601f19601f820116820180604052508101906200107391906200184a565b6001600160a01b031660008051602062006a228339815191520362000f3857600954601580546001600160a01b0319166001600160a01b0390921691909117905550565b6006546001600160a01b03163314620011025760405162461bcd60e51b81526020600482018190526024820152600080516020620069e28339815191526044820152606401620002fc565b600e5481151560ff9091161515036200111a57600080fd5b600e805460ff19168215159081179091556040519081527f7b014ed3854e7f5cb0218d58b3c6ae7d53a68bb0af2f67bfb029ea42c38a7e859060200160405180910390a150565b6006546001600160a01b03163314620011ac5760405162461bcd60e51b81526020600482018190526024820152600080516020620069e28339815191526044820152606401620002fc565b6001600160a01b038116620012135760405162461bcd60e51b815260206004820152602660248201527f4f776e61626c653a206e6577206f776e657220697320746865207a65726f206160448201526564647265737360d01b6064820152608401620002fc565b6006546040516001600160a01b0380841692169060008051602062006a0283398151915290600090a3600680546001600160a01b0319166001600160a01b0392909216919091179055565b60006200126c8284620018b0565b9392505050565b6000836001600160a01b0316630dfe16816040518163ffffffff1660e01b8152600401602060405180830381865afa158015620012b4573d6000803e3d6000fd5b505050506040513d601f19601f82011682018060405250810190620012da91906200184a565b6001600160a01b0316836001600160a01b031614806200136f5750836001600160a01b031663d21220a76040518163ffffffff1660e01b8152600401602060405180830381865afa15801562001334573d6000803e3d6000fd5b505050506040513d601f19601f820116820180604052508101906200135a91906200184a565b6001600160a01b0316836001600160a01b0316145b8015620014715750836001600160a01b0316630dfe16816040518163ffffffff1660e01b8152600401602060405180830381865afa158015620013b6573d6000803e3d6000fd5b505050506040513d601f19601f82011682018060405250810190620013dc91906200184a565b6001600160a01b0316826001600160a01b03161480620014715750836001600160a01b031663d21220a76040518163ffffffff1660e01b8152600401602060405180830381865afa15801562001436573d6000803e3d6000fd5b505050506040513d601f19601f820116820180604052508101906200145c91906200184a565b6001600160a01b0316826001600160a01b0316145b8015620014905750816001600160a01b0316836001600160a01b031614155b949350505050565b828054620014a690620018cb565b90600052602060002090601f016020900481019282620014ca576000855562001515565b82601f10620014e557805160ff191683800117855562001515565b8280016001018555821562001515579182015b8281111562001515578251825591602001919060010190620014f8565b506200152392915062001527565b5090565b5b8082111562001523576000815560010162001528565b634e487b7160e01b600052604160045260246000fd5b604051601f8201601f191681016001600160401b03811182821017156200157f576200157f6200153e565b604052919050565b80516001600160a01b03811681146200159f57600080fd5b919050565b600060408284031215620015b757600080fd5b604080519081016001600160401b0381118282101715620015dc57620015dc6200153e565b604052905080620015ed8362001587565b8152620015fd6020840162001587565b60208201525092915050565b600082601f8301126200161b57600080fd5b815160206001600160401b038211156200163957620016396200153e565b62001649818360051b0162001554565b82815260069290921b840181019181810190868411156200166957600080fd5b8286015b848110156200169157620016828882620015a4565b8352918301916040016200166d565b509695505050505050565b600060608284031215620016af57600080fd5b604051606081016001600160401b0381118282101715620016d457620016d46200153e565b80604052508091508251815260208301516020820152604083015160408201525092915050565b600080600080600080600080610160898b0312156200171957600080fd5b88516001600160401b03808211156200173157600080fd5b818b0191508b601f8301126200174657600080fd5b8151818111156200175b576200175b6200153e565b602062001771601f8301601f1916820162001554565b8281528e828487010111156200178657600080fd5b60005b83811015620017a657858101830151828201840152820162001789565b83811115620017b85760008385840101525b509b50620017c88d820162001587565b9a505050620017db8c60408d01620015a4565b975060808b0151915080821115620017f257600080fd5b50620018018b828c0162001609565b9550506200181260a08a0162001587565b935060c089015192506200182960e08a0162001587565b91506200183b8a6101008b016200169c565b90509295985092959890939650565b6000602082840312156200185d57600080fd5b6200126c8262001587565b634e487b7160e01b600052603260045260246000fd5b634e487b7160e01b600052601160045260246000fd5b600060018201620018a957620018a96200187e565b5060010190565b60008219821115620018c657620018c66200187e565b500190565b600181811c90821680620018e057607f821691505b6020821081036200190157634e487b7160e01b600052602260045260246000fd5b50919050565b60805160a05160c051615026620019bc6000396000818161073a01528181610e820152818161139701528181611c3b01528181612f42015281816133f8015261396c0152600081816103b6015281816105f20152613484015260008181610bef01528181610eaf015281816113d001528181611bac01528181611c6101528181612eaf01528181612f7c0152818161341e015281816134b3015281816138df015281816139a00152613a1c01526150266000f3fe6080604052600436106103a65760003560e01c80638aff733d116101e7578063bd079f551161010d578063e21ac825116100a0578063ee99205c1161006f578063ee99205c14610bdd578063f2fde38b14610c11578063f7c618c114610c31578063fdb5a03e14610c5157600080fd5b8063e21ac82514610b68578063e75ab04514610b88578063eab89a5a14610ba8578063ed24911d14610bc857600080fd5b8063d505accf116100dc578063d505accf14610ac2578063da09c72c14610ae2578063dd62ed3e14610b02578063dd8ce4d614610b4857600080fd5b8063bd079f5514610a57578063c4b24a4614610a6d578063c89039c514610a82578063cff1b6ef14610aa257600080fd5b8063a4d5e67c11610185578063ac0d31ff11610154578063ac0d31ff146109e8578063b52a321f14610a08578063b6b55f2514610a22578063b9e57b8014610a4257600080fd5b8063a4d5e67c14610952578063a5534e7114610972578063a8ae2b7c146109a8578063a9059cbb146109c857600080fd5b80639291d563116101c15780639291d563146108c957806395d89b41146108e957806399729ec1146108fe5780639e4e73181461091e57600080fd5b80638aff733d146108755780638b73e6061461088b5780638da5cb5b146108ab57600080fd5b80634a970be7116102cc578063715018a61161026a5780637d882097116102395780637d882097146107f35780637ecebe001461080857806381837230146108355780638980f11f1461085557600080fd5b8063715018a614610792578063789139bc146107a757806379085425146107bd5780637ae26773146107d357600080fd5b80634ebb7916116102a65780634ebb7916146106f25780635ea682ea146107125780635eaec0e41461072857806370a082311461075c57600080fd5b80634a970be7146106925780634bebd1e7146106b25780634e77ace5146106d257600080fd5b80632e1a7d4d116103445780633892601c116103135780633892601c146105e05780633bdc6e721461062c57806340b47e1a14610642578063483c2ef01461066257600080fd5b80632e1a7d4d146105455780632f4f21e21461056557806330adf81f14610585578063313ce567146105b957600080fd5b80630f23475d116103805780630f23475d146104c657806318160ddd146104db57806320606b70146104f157806323b872dd1461052557600080fd5b806306fdde03146104475780630767711114610472578063095ea7b31461049657600080fd5b3661044257336001600160a01b037f00000000000000000000000000000000000000000000000000000000000000001614806103ec57506006546001600160a01b031633145b806104015750600b546001600160a01b031633145b6104405760405162461bcd60e51b815260206004820152600b60248201526a1b9bdd08185b1b1bddd95960aa1b60448201526064015b60405180910390fd5b005b600080fd5b34801561045357600080fd5b5061045c610c66565b6040516104699190614731565b60405180910390f35b34801561047e57600080fd5b50610488600f5481565b604051908152602001610469565b3480156104a257600080fd5b506104b66104b1366004614759565b610cf4565b6040519015158152602001610469565b3480156104d257600080fd5b50610488610d0a565b3480156104e757600080fd5b5061048860025481565b3480156104fd57600080fd5b506104887f8b73c3c69bb8fe3d512ecc4cf759cc79239f7b179b0ffacaa9a75d522b39400f81565b34801561053157600080fd5b506104b6610540366004614785565b610d19565b34801561055157600080fd5b506104406105603660046147c6565b610dfd565b34801561057157600080fd5b50610440610580366004614759565b610f6f565b34801561059157600080fd5b506104887f6e71edae12b1b97f4d1f60370fef10105fa2faae0126114a169c64845d6126c981565b3480156105c557600080fd5b506105ce601281565b60405160ff9091168152602001610469565b3480156105ec57600080fd5b506106147f000000000000000000000000000000000000000000000000000000000000000081565b6040516001600160a01b039091168152602001610469565b34801561063857600080fd5b5061048860075481565b34801561064e57600080fd5b5061044061065d3660046147df565b610f7d565b34801561066e57600080fd5b506104b661067d366004614818565b60086020526000908152604090205460ff1681565b34801561069e57600080fd5b506104406106ad36600461484b565b610fb1565b3480156106be57600080fd5b506104406106cd366004614818565b61104a565b3480156106de57600080fd5b506104406106ed3660046148a0565b611149565b3480156106fe57600080fd5b5061044061070d3660046147c6565b6111d2565b34801561071e57600080fd5b5061048860115481565b34801561073457600080fd5b506104887f000000000000000000000000000000000000000000000000000000000000000081565b34801561076857600080fd5b50610488610777366004614818565b6001600160a01b031660009081526004602052604090205490565b34801561079e57600080fd5b5061044061126e565b3480156107b357600080fd5b50610488600d5481565b3480156107c957600080fd5b5061048860145481565b3480156107df57600080fd5b506104406107ee3660046147df565b6112e2565b3480156107ff57600080fd5b50610488611388565b34801561081457600080fd5b50610488610823366004614818565b60056020526000908152604090205481565b34801561084157600080fd5b506104406108503660046147c6565b611448565b34801561086157600080fd5b50610440610870366004614759565b6114b3565b34801561088157600080fd5b5061048860105481565b34801561089757600080fd5b506104406108a6366004614818565b6115ab565b3480156108b757600080fd5b506006546001600160a01b0316610614565b3480156108d557600080fd5b506104406108e4366004614818565b61172c565b3480156108f557600080fd5b5061045c6117bf565b34801561090a57600080fd5b506104406109193660046147c6565b6117cc565b34801561092a57600080fd5b506104887fc89efdaa54c0f20c7adf612882df0950f5a951637e0307cdcb4c672f298b8bc681565b34801561095e57600080fd5b5061044061096d366004614818565b61185a565b34801561097e57600080fd5b5061061461098d366004614818565b6012602052600090815260409020546001600160a01b031681565b3480156109b457600080fd5b506104406109c33660046147c6565b611a60565b3480156109d457600080fd5b506104b66109e3366004614759565b611aee565b3480156109f457600080fd5b50610440610a033660046148bd565b611afb565b348015610a1457600080fd5b50600e546104b69060ff1681565b348015610a2e57600080fd5b50610440610a3d3660046147c6565b611e2e565b348015610a4e57600080fd5b50610488611e3b565b348015610a6357600080fd5b50610488600c5481565b348015610a7957600080fd5b50610488611e80565b348015610a8e57600080fd5b50600954610614906001600160a01b031681565b348015610aae57600080fd5b50610440610abd3660046147c6565b61213d565b348015610ace57600080fd5b50610440610add3660046148e2565b6121b3565b348015610aee57600080fd5b50600b54610614906001600160a01b031681565b348015610b0e57600080fd5b50610488610b1d3660046147df565b6001600160a01b03918216600090815260036020908152604080832093909416825291909152205490565b348015610b5457600080fd5b50610488610b633660046147c6565b6122b8565b348015610b7457600080fd5b50610440610b833660046147c6565b6122f8565b348015610b9457600080fd5b50610614610ba33660046147c6565b612363565b348015610bb457600080fd5b50610488610bc33660046147c6565b61238d565b348015610bd457600080fd5b506104886123c1565b348015610be957600080fd5b506106147f000000000000000000000000000000000000000000000000000000000000000081565b348015610c1d57600080fd5b50610440610c2c366004614818565b612461565b348015610c3d57600080fd5b50600a54610614906001600160a01b031681565b348015610c5d57600080fd5b5061044061254c565b60008054610c7390614950565b80601f0160208091040260200160405190810160405280929190818152602001828054610c9f90614950565b8015610cec5780601f10610cc157610100808354040283529160200191610cec565b820191906000526020600020905b815481529060010190602001808311610ccf57829003601f168201915b505050505081565b6000610d013384846127bf565b50600192915050565b6000610d14611388565b905090565b6001600160a01b038316600081815260036020908152604080832033808552925282205491929091908214801590610d5357506000198114155b15610de4576000610d7f856040518060600160405280602f8152602001614f6d602f91398491906128cd565b6001600160a01b038881166000818152600360209081526040808320948916808452948252918290208590559051848152939450919290917f8c5be1e5ebec7d5bd14f71427d1e84f3dd0314c0f7b2291e5b200ac8c7c3b925910160405180910390a3505b610def8686866128f9565b6001925050505b9392505050565b6000610e088261238d565b905060008111610e735760405162461bcd60e51b815260206004820152603060248201527f5661726961626c655265776172647353747261746567793a3a5769746864726160448201526f7720616d6f756e7420746f6f206c6f7760801b6064820152608401610437565b604051630441a3e760e41b81527f00000000000000000000000000000000000000000000000000000000000000006004820152602481018290527f00000000000000000000000000000000000000000000000000000000000000006001600160a01b03169063441a3e7090604401600060405180830381600087803b158015610efb57600080fd5b505af1158015610f0f573d6000803e3d6000fd5b5050600954610f2b92506001600160a01b031690503383612a2c565b610f353383612a83565b60405181815233907f884edad9ce6fa2440d8a54cc123490eb96d2768479d49ff9c7366125a9424364906020015b60405180910390a25050565b610f798282612b59565b5050565b600b546001600160a01b03163314610fa75760405162461bcd60e51b81526004016104379061498a565b610f798282612d29565b60095460405163d505accf60e01b8152336004820152306024820152604481018790526064810186905260ff8516608482015260a4810184905260c481018390526001600160a01b039091169063d505accf9060e401600060405180830381600087803b15801561102157600080fd5b505af1158015611035573d6000803e3d6000fd5b505050506110433386612b59565b5050505050565b6006546001600160a01b031633146110745760405162461bcd60e51b8152600401610437906149b8565b6001600160a01b03811660009081526008602052604090205460ff16156110dd5760405162461bcd60e51b815260206004820152601c60248201527f5065726d697373696f6e65643a3a616c6c6f774465706f7369746f72000000006044820152606401610437565b6001600160a01b0381166000908152600860205260409020805460ff1916600190811790915560075461110f9161259e565b6007556040516001600160a01b038216907fc0a1035c16faf8d1304056d92c00edf028f87e62b8235a938f00af9e3c0312c590600090a250565b6006546001600160a01b031633146111735760405162461bcd60e51b8152600401610437906149b8565b600e5481151560ff90911615150361118a57600080fd5b600e805460ff19168215159081179091556040519081527f7b014ed3854e7f5cb0218d58b3c6ae7d53a68bb0af2f67bfb029ea42c38a7e85906020015b60405180910390a150565b6006546001600160a01b031633146111fc5760405162461bcd60e51b8152600401610437906149b8565b6000811161120957600080fd5b604051339082156108fc029083906000818181858888f19350505050158015611236573d6000803e3d6000fd5b506040805160008152602081018390527f8c1256b8896378cd5044f80c202f9772b9d77dc85c8a6eb51967210b09bfaa2891016111c7565b6006546001600160a01b031633146112985760405162461bcd60e51b8152600401610437906149b8565b6006546040516000916001600160a01b0316907f8be0079c531659141344cd1fd0a4f28419497f9722a3daafe3b4186f6b6457e0908390a3600680546001600160a01b0319169055565b6006546001600160a01b0316331461130c5760405162461bcd60e51b8152600401610437906149b8565b60405163095ea7b360e01b81526001600160a01b0382811660048301526000602483015283169063095ea7b3906044016020604051808303816000875af115801561135b573d6000803e3d6000fd5b505050506040513d601f19601f8201168201806040525081019061137f91906149ed565b610f7957600080fd5b604051631069f3b560e01b81527f0000000000000000000000000000000000000000000000000000000000000000600482015230602482015260009081906001600160a01b037f00000000000000000000000000000000000000000000000000000000000000001690631069f3b590604401600060405180830381865afa158015611417573d6000803e3d6000fd5b505050506040513d6000823e601f3d908101601f1916820160405261143f9190810190614ae0565b50909392505050565b6006546001600160a01b031633146114725760405162461bcd60e51b8152600401610437906149b8565b600c5460408051918252602082018390527f481f79ac3a523b6d6db3c5a720e190e986d1cc1b41adcdf50f9caef849901100910160405180910390a1600c55565b6006546001600160a01b031633146114dd5760405162461bcd60e51b8152600401610437906149b8565b600081116114ea57600080fd5b60405163a9059cbb60e01b8152336004820152602481018290526001600160a01b0383169063a9059cbb906044016020604051808303816000875af1158015611537573d6000803e3d6000fd5b505050506040513d601f19601f8201168201806040525081019061155b91906149ed565b61156457600080fd5b604080516001600160a01b0384168152602081018390527f8c1256b8896378cd5044f80c202f9772b9d77dc85c8a6eb51967210b09bfaa2891015b60405180910390a15050565b6006546001600160a01b031633146115d55760405162461bcd60e51b8152600401610437906149b8565b6000600754116116445760405162461bcd60e51b815260206004820152603460248201527f5065726d697373696f6e65643a3a72656d6f76654465706f7369746f722c206e6044820152736f20616c6c6f776564206465706f7369746f727360601b6064820152608401610437565b6001600160a01b03811660009081526008602052604090205460ff1615156001146116c45760405162461bcd60e51b815260206004820152602a60248201527f5065726d697373696f6e65643a3a72656d6f76654465706f7369746f722c206e6044820152691bdd08185b1b1bddd95960b21b6064820152608401610437565b6001600160a01b0381166000908152600860205260409020805460ff191690556007546116f2906001612e85565b6007556040516001600160a01b038216907f0e86f6608b536e5339a25b65ff531f5ea91e1313d056ecd4752b35cbd16137d490600090a250565b600b546001600160a01b031633146117565760405162461bcd60e51b81526004016104379061498a565b600b54604080516001600160a01b03928316815291831660208301527fa8e91499ed37682f43cffb045fcc7d379a91e8c9a14e6321877ee34dee564c00910160405180910390a1600b80546001600160a01b0319166001600160a01b0392909216919091179055565b60018054610c7390614950565b6006546001600160a01b031633146117f65760405162461bcd60e51b8152600401610437906149b8565b61271061180e6010548361259e90919063ffffffff16565b111561181957600080fd5b60115460408051918252602082018390527f2a42303d002f0ba6cfe8259c91d4684443fb0b3de286ba74991175d651726131910160405180910390a1601155565b600b546001600160a01b031633146118845760405162461bcd60e51b81526004016104379061498a565b6001600160a01b038116600090815260126020526040812080546001600160a01b0319169055805b60135481101561197857601381815481106118c9576118c9614b4d565b6000918252602090912001546001600160a01b03908116908416036119665760138054600193506118fb908490614b79565b8154811061190b5761190b614b4d565b600091825260209091200154601380546001600160a01b03909216918390811061193757611937614b4d565b9060005260206000200160006101000a8154816001600160a01b0302191690836001600160a01b031602179055505b8061197081614b90565b9150506118ac565b50806119e35760405162461bcd60e51b815260206004820152603460248201527f5661726961626c655265776172647353747261746567793a3a52657761726420604482015273746f2064656c657465206e6f7420666f756e642160601b6064820152608401610437565b60138054806119f4576119f4614ba9565b600082815260209020810160001990810180546001600160a01b0319169055019055601454611a24906001612e85565b6014556040516001600160a01b03831681527f963b7c735475147a62c589c2d7cb8ec4b0a6b7af4f97373d79ebfa42ab8aa7dc9060200161159f565b6006546001600160a01b03163314611a8a5760405162461bcd60e51b8152600401610437906149b8565b612710611aa26011548361259e90919063ffffffff16565b1115611aad57600080fd5b60105460408051918252602082018390527fe7f97d51d307dc44045597c9978bec0f842e6bb40d19b9444084cfa30d9ed4f2910160405180910390a1601055565b6000610d013384846128f9565b6006546001600160a01b03163314611b255760405162461bcd60e51b8152600401610437906149b8565b6009546040516370a0823160e01b81523060048201526000916001600160a01b0316906370a0823190602401602060405180830381865afa158015611b6e573d6000803e3d6000fd5b505050506040513d601f19601f82011682018060405250810190611b929190614bbf565b60095460405163095ea7b360e01b81526001600160a01b037f0000000000000000000000000000000000000000000000000000000000000000811660048301526000602483015292935091169063095ea7b3906044016020604051808303816000875af1158015611c07573d6000803e3d6000fd5b505050506040513d601f19601f82011682018060405250810190611c2b91906149ed565b50604051632989754760e11b81527f000000000000000000000000000000000000000000000000000000000000000060048201527f00000000000000000000000000000000000000000000000000000000000000006001600160a01b031690635312ea8e90602401600060405180830381600087803b158015611cad57600080fd5b505af1158015611cc1573d6000803e3d6000fd5b50506009546040516370a0823160e01b8152306004820152600093506001600160a01b0390911691506370a0823190602401602060405180830381865afa158015611d10573d6000803e3d6000fd5b505050506040513d601f19601f82011682018060405250810190611d349190614bbf565b905083611d418284612e85565b1015611dcb5760405162461bcd60e51b815260206004820152604d60248201527f5661726961626c655265776172647353747261746567793a3a456d657267656e60448201527f6379207769746864726177206d696e696d756d2072657475726e20616d6f756e60648201526c1d081b9bdd081c995858da1959609a1b608482015260a401610437565b7fc7606d21ac05cd309191543e409f0845c016120563783d70e4f41419dc0ef234611df4611388565b6002546040805192835260208301919091520160405180910390a1600e5460ff161515600103611e2857611e286000611149565b50505050565b611e383382612b59565b50565b600080611e46611e80565b9050600c548110611e7857611e72612710611e6c60105484612e9190919063ffffffff16565b90612e9d565b91505090565b600091505090565b600080611e8b612ea9565b6040516370a0823160e01b815230600482015290915060009073b31f66aa3c1e785363f0875a1b74e27b85fd66c7906370a0823190602401602060405180830381865afa158015611ee0573d6000803e3d6000fd5b505050506040513d601f19601f82011682018060405250810190611f049190614bbf565b9050611f10814761259e565b5060005b8251811015612136576000838281518110611f3157611f31614b4d565b602002602001015160000151905073b31f66aa3c1e785363f0875a1b74e27b85fd66c76001600160a01b0316816001600160a01b031603611fa357611f9c848381518110611f8157611f81614b4d565b6020026020010151602001518461259e90919063ffffffff16565b9250612123565b6040516370a0823160e01b81523060048201526000906001600160a01b038316906370a0823190602401602060405180830381865afa158015611fea573d6000803e3d6000fd5b505050506040513d601f19601f8201168201806040525081019061200e9190614bbf565b9050600061204286858151811061202757612027614b4d565b6020026020010151602001518361259e90919063ffffffff16565b905060006012600088878151811061205c5761205c614b4d565b602090810291909101810151516001600160a01b0390811683529082019290925260400160002054169050811580159061209e57506001600160a01b03811615155b1561211f577339fc9e94caeacb435842fadedecb783589f50f5e196001600160a01b038516016120ef576120e8828573b31f66aa3c1e785363f0875a1b74e27b85fd66c784613138565b9150612112565b61210f828573b31f66aa3c1e785363f0875a1b74e27b85fd66c7846131ff565b91505b61211c868361259e565b95505b5050505b508061212e81614b90565b915050611f14565b5092915050565b6006546001600160a01b031633146121675760405162461bcd60e51b8152600401610437906149b8565b801561217257600080fd5b600f5460408051918252602082018390527f3cc372f330f95ac9540626dc8a25f5bf21ba607215a5d58304cb804d446f104a910160405180910390a1600f55565b428410156121f55760405162461bcd60e51b815260206004820152600f60248201526e1c195c9b5a5d0e8e995e1c1a5c9959608a1b6044820152606401610437565b6001600160a01b038716600090815260056020526040812080547f6e71edae12b1b97f4d1f60370fef10105fa2faae0126114a169c64845d6126c9918a918a918a91908661224283614b90565b909155506040805160208101969096526001600160a01b0394851690860152929091166060840152608083015260a082015260c0810186905260e0016040516020818303038152906040528051906020012090506122a388828686866132bd565b6122ae8888886127bf565b5050505050505050565b60006122ce6122c5611388565b60025490612e91565b6000036122d9575090565b6122f26122e4611388565b600254611e6c908590612e91565b92915050565b6006546001600160a01b031633146123225760405162461bcd60e51b8152600401610437906149b8565b600d5460408051918252602082018390527fa5dae50539d56dfe1fb5273d883b0c39bc76750a25d036fc5fbd09ad8fd5f57f910160405180910390a1600d55565b6013818154811061237357600080fd5b6000918252602090912001546001600160a01b0316905081565b600061239a6122c5611388565b6000036123a957506000919050565b6122f2600254611e6c6123ba611388565b8590612e91565b60007f8b73c3c69bb8fe3d512ecc4cf759cc79239f7b179b0ffacaa9a75d522b39400f60001b60006040516123f69190614bd8565b6040519081900390207fc89efdaa54c0f20c7adf612882df0950f5a951637e0307cdcb4c672f298b8bc646604080516020810195909552840192909252606083015260808201523060a082015260c00160405160208183030381529060405280519060200120905090565b6006546001600160a01b0316331461248b5760405162461bcd60e51b8152600401610437906149b8565b6001600160a01b0381166124f05760405162461bcd60e51b815260206004820152602660248201527f4f776e61626c653a206e6577206f776e657220697320746865207a65726f206160448201526564647265737360d01b6064820152608401610437565b6006546040516001600160a01b038084169216907f8be0079c531659141344cd1fd0a4f28419497f9722a3daafe3b4186f6b6457e090600090a3600680546001600160a01b0319166001600160a01b0392909216919091179055565b3233146125925760405162461bcd60e51b815260206004820152601460248201527359616b53747261746567793a3a6f6e6c79454f4160601b6044820152606401610437565b61259c60006133e9565b565b6000610df68284614c73565b6000836001600160a01b0316630dfe16816040518163ffffffff1660e01b8152600401602060405180830381865afa1580156125ea573d6000803e3d6000fd5b505050506040513d601f19601f8201168201806040525081019061260e9190614c8b565b6001600160a01b0316836001600160a01b0316148061269f5750836001600160a01b031663d21220a76040518163ffffffff1660e01b8152600401602060405180830381865afa158015612666573d6000803e3d6000fd5b505050506040513d601f19601f8201168201806040525081019061268a9190614c8b565b6001600160a01b0316836001600160a01b0316145b80156127995750836001600160a01b0316630dfe16816040518163ffffffff1660e01b8152600401602060405180830381865afa1580156126e4573d6000803e3d6000fd5b505050506040513d601f19601f820116820180604052508101906127089190614c8b565b6001600160a01b0316826001600160a01b031614806127995750836001600160a01b031663d21220a76040518163ffffffff1660e01b8152600401602060405180830381865afa158015612760573d6000803e3d6000fd5b505050506040513d601f19601f820116820180604052508101906127849190614c8b565b6001600160a01b0316826001600160a01b0316145b80156127b75750816001600160a01b0316836001600160a01b031614155b949350505050565b6001600160a01b0383166128155760405162461bcd60e51b815260206004820152601c60248201527f5f617070726f76653a3a6f776e6572207a65726f2061646472657373000000006044820152606401610437565b6001600160a01b03821661286b5760405162461bcd60e51b815260206004820152601e60248201527f5f617070726f76653a3a7370656e646572207a65726f206164647265737300006044820152606401610437565b6001600160a01b0383811660008181526003602090815260408083209487168084529482529182902085905590518481527f8c5be1e5ebec7d5bd14f71427d1e84f3dd0314c0f7b2291e5b200ac8c7c3b92591015b60405180910390a3505050565b600081848411156128f15760405162461bcd60e51b81526004016104379190614731565b505050900390565b6001600160a01b03821661296c5760405162461bcd60e51b815260206004820152603460248201527f5f7472616e73666572546f6b656e733a2063616e6e6f74207472616e7366657260448201527320746f20746865207a65726f206164647265737360601b6064820152608401610437565b6129a9816040518060600160405280602e8152602001614fc3602e91396001600160a01b03861660009081526004602052604090205491906128cd565b6001600160a01b0380851660009081526004602052604080822093909355908416815220546129d8908261259e565b6001600160a01b0380841660008181526004602052604090819020939093559151908516907fddf252ad1be2c89b69c2b068fc378daa952ba7f163c4a11628f55a4df523b3ef906128c09085815260200190565b604080516001600160a01b038416602482015260448082018490528251808303909101815260649091019091526020810180516001600160e01b031663a9059cbb60e01b179052612a7e908490613709565b505050565b612ac081604051806060016040528060278152602001614f9c602791396001600160a01b03851660009081526004602052604090205491906128cd565b60046000846001600160a01b03166001600160a01b0316815260200190815260200160002081905550612b1081604051806060016040528060278152602001614f466027913960025491906128cd565b6002556040518181526000906001600160a01b038416907fddf252ad1be2c89b69c2b068fc378daa952ba7f163c4a11628f55a4df523b3ef906020015b60405180910390a35050565b600e5460ff161515600114612bc35760405162461bcd60e51b815260206004820152602a60248201527f5661726961626c655265776172647353747261746567793a3a4465706f7369746044820152691cc8191a5cd8589b195960b21b6064820152608401610437565b600d5415612bed576000612bd5611e80565b9050600d54811115612beb57612beb60016133e9565b505b6009546040516323b872dd60e01b8152336004820152306024820152604481018390526001600160a01b03909116906323b872dd906064016020604051808303816000875af1158015612c44573d6000803e3d6000fd5b505050506040513d601f19601f82011682018060405250810190612c6891906149ed565b612cd35760405162461bcd60e51b815260206004820152603660248201527f5661726961626c655265776172647353747261746567793a3a4465706f736974604482015275081d1bdad95b881d1c985b9cd9995c8819985a5b195960521b6064820152608401610437565b612ce582612ce0836122b8565b6137db565b612cee8161385f565b816001600160a01b03167fe1fffcc4923d04b559f4d29a8bfc6cda04eb5b0d3c460751c2402c5c5cc9109c82604051610f6391815260200190565b600a546001600160a01b03838116911614612dcb57600a54612d5790829084906001600160a01b03166125aa565b612dcb576040805162461bcd60e51b81526020600482015260248101919091527f5661726961626c655265776172647353747261746567793a3a5377617020706160448201527f697220646f6573206e6f7420636f6e7461696e2072657761726420746f6b656e6064820152608401610437565b6001600160a01b03808316600081815260126020526040812080549385166001600160a01b03199485161790556013805460018181018355919092527f66de8ffda797e3de9c05e8fc57b3bf0ec28a930d40b0d285d93c06501cf6a0909091018054909316909117909155601454612e429161259e565b601455604080516001600160a01b038085168252831660208201527f916e172c080569186aa7ea048268267257cf7cc49505908863f747bca8620f80910161159f565b6000610df68284614b79565b6000610df68284614ca8565b6000610df68284614cc7565b606060007f00000000000000000000000000000000000000000000000000000000000000006001600160a01b031663c4f59f9b6040518163ffffffff1660e01b8152600401600060405180830381865afa158015612f0b573d6000803e3d6000fd5b505050506040513d6000823e601f3d908101601f19168201604052612f339190810190614ce9565b6040516334637d4f60e21b81527f000000000000000000000000000000000000000000000000000000000000000060048201523060248201529091506000906001600160a01b037f0000000000000000000000000000000000000000000000000000000000000000169063d18df53c90604401600060405180830381865afa158015612fc3573d6000803e3d6000fd5b505050506040513d6000823e601f3d908101601f19168201604052612feb9190810190614d78565b90506000825167ffffffffffffffff81111561300957613009614a0a565b60405190808252806020026020018201604052801561304e57816020015b60408051808201909152600080825260208201528152602001906001900390816130275790505b50905060005b8351811015613130576000806001600160a01b031685838151811061307b5761307b614b4d565b60200260200101516001600160a01b0316116130ab5773b31f66aa3c1e785363f0875a1b74e27b85fd66c76130c6565b8482815181106130bd576130bd614b4d565b60200260200101515b90506040518060400160405280826001600160a01b031681526020018584815181106130f4576130f4614b4d565b602002602001015181525083838151811061311157613111614b4d565b602002602001018190525050808061312890614b90565b915050613054565b509392505050565b6000806131458585613a9b565b5090506000806000856001600160a01b031663d66940276040518163ffffffff1660e01b815260040160a060405180830381865afa15801561318b573d6000803e3d6000fd5b505050506040513d601f19601f820116820180604052508101906131af9190614dc4565b9450945094505050876001600160a01b0316846001600160a01b0316146131d4579091905b6131f289846001600160701b0316846001600160701b031684613acc565b9998505050505050505050565b60008061320c8585613a9b565b509050600080846001600160a01b0316630902f1ac6040518163ffffffff1660e01b8152600401606060405180830381865afa158015613250573d6000803e3d6000fd5b505050506040513d601f19601f820116820180604052508101906132749190614e22565b5091509150866001600160a01b0316836001600160a01b03161461329457905b6132b188836001600160701b0316836001600160701b0316613b17565b98975050505050505050565b60006132c76123c1565b60405161190160f01b602082015260228101919091526042810186905260620160408051601f198184030181528282528051602091820120600080855291840180845281905260ff88169284019290925260608301869052608083018590529092509060019060a0016020604051602081039080840390855afa158015613352573d6000803e3d6000fd5b5050604051601f1901519150506001600160a01b038116158015906133885750866001600160a01b0316816001600160a01b0316145b6133e05760405162461bcd60e51b8152602060048201526024808201527f417263683a3a76616c69646174655369673a20696e76616c6964207369676e616044820152637475726560e01b6064820152608401610437565b50505050505050565b604051636ee3193160e11b81527f000000000000000000000000000000000000000000000000000000000000000060048201527f00000000000000000000000000000000000000000000000000000000000000006001600160a01b03169063ddc6326290602401600060405180830381600087803b15801561346a57600080fd5b505af115801561347e573d6000803e3d6000fd5b505050507f00000000000000000000000000000000000000000000000000000000000000006001600160a01b0316639059aa6a7f00000000000000000000000000000000000000000000000000000000000000006001600160a01b031663c4f59f9b6040518163ffffffff1660e01b8152600401600060405180830381865afa15801561350f573d6000803e3d6000fd5b505050506040513d6000823e601f3d908101601f191682016040526135379190810190614ce9565b6040518263ffffffff1660e01b81526004016135539190614e72565b6000604051808303816000875af1158015613572573d6000803e3d6000fd5b505050506040513d6000823e601f3d908101601f1916820160405261359a9190810190614d78565b5060006135a5613b65565b90508161361757600c548110156136175760405162461bcd60e51b815260206004820152603060248201527f5661726961626c655265776172647353747261746567793a3a5265696e76657360448201526f7420616d6f756e7420746f6f206c6f7760801b6064820152608401610437565b6000613634612710611e6c60115485612e9190919063ffffffff16565b9050801561365957600b54600a54613659916001600160a01b03918216911683612a2c565b6000613676612710611e6c60105486612e9190919063ffffffff16565b9050801561369557600a54613695906001600160a01b03163383612a2c565b60006136b36136ae836136a88787612e85565b90612e85565b613de5565b90506136be8161385f565b7fc7606d21ac05cd309191543e409f0845c016120563783d70e4f41419dc0ef2346136e7611388565b6002546040805192835260208301919091520160405180910390a15050505050565b600061375e826040518060400160405280602081526020017f5361666545524332303a206c6f772d6c6576656c2063616c6c206661696c6564815250856001600160a01b0316613e149092919063ffffffff16565b805190915015612a7e578080602001905181019061377c91906149ed565b612a7e5760405162461bcd60e51b815260206004820152602a60248201527f5361666545524332303a204552433230206f7065726174696f6e20646964206e6044820152691bdd081cdd58d8d9595960b21b6064820152608401610437565b6002546137e8908261259e565b6002556001600160a01b03821660009081526004602052604090205461380e908261259e565b6001600160a01b0383166000818152600460205260408082209390935591519091907fddf252ad1be2c89b69c2b068fc378daa952ba7f163c4a11628f55a4df523b3ef90612b4d9085815260200190565b600081116138c55760405162461bcd60e51b815260206004820152602d60248201527f5661726961626c655265776172647353747261746567793a3a5374616b65206160448201526c6d6f756e7420746f6f206c6f7760981b6064820152608401610437565b60095460405163095ea7b360e01b81526001600160a01b037f000000000000000000000000000000000000000000000000000000000000000081166004830152602482018490529091169063095ea7b3906044016020604051808303816000875af1158015613938573d6000803e3d6000fd5b505050506040513d601f19601f8201168201806040525081019061395c91906149ed565b506040516321d0683360e11b81527f0000000000000000000000000000000000000000000000000000000000000000600482015260248101829052600060448201527f00000000000000000000000000000000000000000000000000000000000000006001600160a01b0316906343a0d06690606401600060405180830381600087803b1580156139ec57600080fd5b505af1158015613a00573d6000803e3d6000fd5b505060095460405163095ea7b360e01b81526001600160a01b037f00000000000000000000000000000000000000000000000000000000000000008116600483015260006024830152909116925063095ea7b391506044016020604051808303816000875af1158015613a77573d6000803e3d6000fd5b505050506040513d601f19601f82011682018060405250810190610f7991906149ed565b600080826001600160a01b0316846001600160a01b031610613abe578284613ac1565b83835b915091509250929050565b600080613aef670de0b6b3a7640000611e6c613ae88287612e85565b8990612e91565b90506000613afd8286612e91565b90506000613b0b878461259e565b90506132b18282612e9d565b600080613b26856103e5612e91565b90506000613b348285612e91565b90506000613b4e83613b48886103e8612e91565b9061259e565b9050613b5a8282612e9d565b979650505050505050565b6040516370a0823160e01b8152306004820152600090819073b31f66aa3c1e785363f0875a1b74e27b85fd66c7906370a0823190602401602060405180830381865afa158015613bb9573d6000803e3d6000fd5b505050506040513d601f19601f82011682018060405250810190613bdd9190614bbf565b60135490915060005b81811015613ddd57600060138281548110613c0357613c03614b4d565b6000918252602090912001546001600160a01b0316905073b31f66aa3c1e785363f0875a1b74e27b85fd66c6198101613cc257478015613cbb5773b31f66aa3c1e785363f0875a1b74e27b85fd66c76001600160a01b031663d0e30db0826040518263ffffffff1660e01b81526004016000604051808303818588803b158015613c8c57600080fd5b505af1158015613ca0573d6000803e3d6000fd5b5050505050613cb8818661259e90919063ffffffff16565b94505b5050613dcb565b6040516370a0823160e01b81523060048201526000906001600160a01b038316906370a0823190602401602060405180830381865afa158015613d09573d6000803e3d6000fd5b505050506040513d601f19601f82011682018060405250810190613d2d9190614bbf565b90508015613dc8576001600160a01b03808316600090815260126020526040902054168015613dc6577339fc9e94caeacb435842fadedecb783589f50f5e196001600160a01b03841601613d9c57600a54613d9590839085906001600160a01b031684613e23565b9150613db9565b600a54613db690839085906001600160a01b031684613f97565b91505b613dc3868361259e565b95505b505b50505b80613dd581614b90565b915050613be6565b509092915050565b600a546009546015546016546000936122f29386936001600160a01b039283169391831692908116911661410b565b60606127b784846000856142a5565b600080613e308585613a9b565b5090506000806000856001600160a01b031663d66940276040518163ffffffff1660e01b815260040160a060405180830381865afa158015613e76573d6000803e3d6000fd5b505050506040513d601f19601f82011682018060405250810190613e9a9190614dc4565b9450945094505050876001600160a01b0316846001600160a01b031614613ebf579091905b600080613ee08b866001600160701b0316866001600160701b031686613acc565b9050896001600160a01b0316866001600160a01b031614613efd57905b613f088a898d6143cb565b6040805160008152602081019182905263022c0d9f60e01b9091526001600160a01b0389169063022c0d9f90613f479085908590309060248101614ebf565b600060405180830381600087803b158015613f6157600080fd5b505af1158015613f75573d6000803e3d6000fd5b50505050818111613f865781613f88565b805b9b9a5050505050505050505050565b600080613fa48585613a9b565b509050600080846001600160a01b0316630902f1ac6040518163ffffffff1660e01b8152600401606060405180830381865afa158015613fe8573d6000803e3d6000fd5b505050506040513d601f19601f8201168201806040525081019061400c9190614e22565b5091509150866001600160a01b0316836001600160a01b03161461402c57905b60008061404c8a856001600160701b0316856001600160701b0316613b17565b9050886001600160a01b0316856001600160a01b03161461406957905b61407d6001600160a01b038a16888c612a2c565b6040805160008152602081019182905263022c0d9f60e01b9091526001600160a01b0388169063022c0d9f906140bc9085908590309060248101614ebf565b600060405180830381600087803b1580156140d657600080fd5b505af11580156140ea573d6000803e3d6000fd5b505050508181116140fb57816140fd565b805b9a9950505050505050505050565b600080614119876002612e9d565b9050600081116141885760405162461bcd60e51b815260206004820152603460248201527f4b796265724465784c6962726172793a3a5f636f6e76657274526577617264546044820152736f6b656e73546f4465706f736974546f6b656e7360601b6064820152608401610437565b6000856001600160a01b0316630dfe16816040518163ffffffff1660e01b8152600401602060405180830381865afa1580156141c8573d6000803e3d6000fd5b505050506040513d601f19601f820116820180604052508101906141ec9190614c8b565b9050816001600160a01b03888116908316146142115761420e83898489613e23565b90505b6000876001600160a01b031663d21220a76040518163ffffffff1660e01b8152600401602060405180830381865afa158015614251573d6000803e3d6000fd5b505050506040513d601f19601f820116820180604052508101906142759190614c8b565b9050836001600160a01b038a81169083161461429a57614297858b848a613e23565b90505b613f88898483614498565b6060824710156143065760405162461bcd60e51b815260206004820152602660248201527f416464726573733a20696e73756666696369656e742062616c616e636520666f6044820152651c8818d85b1b60d21b6064820152608401610437565b6001600160a01b0385163b61435d5760405162461bcd60e51b815260206004820152601d60248201527f416464726573733a2063616c6c20746f206e6f6e2d636f6e74726163740000006044820152606401610437565b600080866001600160a01b031685876040516143799190614ef6565b60006040518083038185875af1925050503d80600081146143b6576040519150601f19603f3d011682016040523d82523d6000602084013e6143bb565b606091505b5091509150613b5a828286614690565b60405163a9059cbb60e01b81526001600160a01b0383811660048301526024820183905284169063a9059cbb906044016020604051808303816000875af115801561441a573d6000803e3d6000fd5b505050506040513d601f19601f8201168201806040525081019061443e91906149ed565b612a7e5760405162461bcd60e51b815260206004820152602560248201527f4b796265724465784c6962726172793a3a5452414e534645525f46524f4d5f46604482015264105253115160da1b6064820152608401610437565b6000806000856001600160a01b0316630902f1ac6040518163ffffffff1660e01b81526004016040805180830381865afa1580156144da573d6000803e3d6000fd5b505050506040513d601f19601f820116820180604052508101906144fe9190614f12565b91509150600061452186846001600160701b0316846001600160701b03166146c9565b90508481111561454e5784905061454b85836001600160701b0316856001600160701b03166146c9565b95505b6145ba876001600160a01b0316630dfe16816040518163ffffffff1660e01b8152600401602060405180830381865afa15801561458f573d6000803e3d6000fd5b505050506040513d601f19601f820116820180604052508101906145b39190614c8b565b88886143cb565b614626876001600160a01b031663d21220a76040518163ffffffff1660e01b8152600401602060405180830381865afa1580156145fb573d6000803e3d6000fd5b505050506040513d601f19601f8201168201806040525081019061461f9190614c8b565b88836143cb565b6040516335313c2160e11b81523060048201526001600160a01b03881690636a627842906024016020604051808303816000875af115801561466c573d6000803e3d6000fd5b505050506040513d601f19601f82011682018060405250810190613b5a9190614bbf565b6060831561469f575081610df6565b8251156146af5782518084602001fd5b8160405162461bcd60e51b81526004016104379190614731565b60006127b783611e6c8685612e91565b60005b838110156146f45781810151838201526020016146dc565b83811115611e285750506000910152565b6000815180845261471d8160208601602086016146d9565b601f01601f19169290920160200192915050565b602081526000610df66020830184614705565b6001600160a01b0381168114611e3857600080fd5b6000806040838503121561476c57600080fd5b823561477781614744565b946020939093013593505050565b60008060006060848603121561479a57600080fd5b83356147a581614744565b925060208401356147b581614744565b929592945050506040919091013590565b6000602082840312156147d857600080fd5b5035919050565b600080604083850312156147f257600080fd5b82356147fd81614744565b9150602083013561480d81614744565b809150509250929050565b60006020828403121561482a57600080fd5b8135610df681614744565b803560ff8116811461484657600080fd5b919050565b600080600080600060a0868803121561486357600080fd5b853594506020860135935061487a60408701614835565b94979396509394606081013594506080013592915050565b8015158114611e3857600080fd5b6000602082840312156148b257600080fd5b8135610df681614892565b600080604083850312156148d057600080fd5b82359150602083013561480d81614892565b600080600080600080600060e0888a0312156148fd57600080fd5b873561490881614744565b9650602088013561491881614744565b9550604088013594506060880135935061493460808901614835565b925060a0880135915060c0880135905092959891949750929550565b600181811c9082168061496457607f821691505b60208210810361498457634e487b7160e01b600052602260045260246000fd5b50919050565b6020808252601490820152732cb0b5a9ba3930ba32b3bc9d1d37b7363ca232bb60611b604082015260600190565b6020808252818101527f4f776e61626c653a2063616c6c6572206973206e6f7420746865206f776e6572604082015260600190565b6000602082840312156149ff57600080fd5b8151610df681614892565b634e487b7160e01b600052604160045260246000fd5b604051601f8201601f1916810167ffffffffffffffff81118282101715614a4957614a49614a0a565b604052919050565b600067ffffffffffffffff821115614a6b57614a6b614a0a565b5060051b60200190565b600082601f830112614a8657600080fd5b81516020614a9b614a9683614a51565b614a20565b82815260059290921b84018101918181019086841115614aba57600080fd5b8286015b84811015614ad55780518352918301918301614abe565b509695505050505050565b600080600060608486031215614af557600080fd5b83519250602084015167ffffffffffffffff80821115614b1457600080fd5b614b2087838801614a75565b93506040860151915080821115614b3657600080fd5b50614b4386828701614a75565b9150509250925092565b634e487b7160e01b600052603260045260246000fd5b634e487b7160e01b600052601160045260246000fd5b600082821015614b8b57614b8b614b63565b500390565b600060018201614ba257614ba2614b63565b5060010190565b634e487b7160e01b600052603160045260246000fd5b600060208284031215614bd157600080fd5b5051919050565b600080835481600182811c915080831680614bf457607f831692505b60208084108203614c1357634e487b7160e01b86526022600452602486fd5b818015614c275760018114614c3857614c65565b60ff19861689528489019650614c65565b60008a81526020902060005b86811015614c5d5781548b820152908501908301614c44565b505084890196505b509498975050505050505050565b60008219821115614c8657614c86614b63565b500190565b600060208284031215614c9d57600080fd5b8151610df681614744565b6000816000190483118215151615614cc257614cc2614b63565b500290565b600082614ce457634e487b7160e01b600052601260045260246000fd5b500490565b60006020808385031215614cfc57600080fd5b825167ffffffffffffffff811115614d1357600080fd5b8301601f81018513614d2457600080fd5b8051614d32614a9682614a51565b81815260059190911b82018301908381019087831115614d5157600080fd5b928401925b82841015613b5a578351614d6981614744565b82529284019290840190614d56565b600060208284031215614d8a57600080fd5b815167ffffffffffffffff811115614da157600080fd5b6127b784828501614a75565b80516001600160701b038116811461484657600080fd5b600080600080600060a08688031215614ddc57600080fd5b614de586614dad565b9450614df360208701614dad565b9350614e0160408701614dad565b9250614e0f60608701614dad565b9150608086015190509295509295909350565b600080600060608486031215614e3757600080fd5b614e4084614dad565b9250614e4e60208501614dad565b9150604084015163ffffffff81168114614e6757600080fd5b809150509250925092565b6020808252825182820181905260009190848201906040850190845b81811015614eb35783516001600160a01b031683529284019291840191600101614e8e565b50909695505050505050565b84815283602082015260018060a01b0383166040820152608060608201526000614eec6080830184614705565b9695505050505050565b60008251614f088184602087016146d9565b9190910192915050565b60008060408385031215614f2557600080fd5b614f2e83614dad565b9150614f3c60208401614dad565b9050925092905056fe5f6275726e3a206275726e20616d6f756e74206578636565647320746f74616c20737570706c797472616e7366657246726f6d3a207472616e7366657220616d6f756e74206578636565647320616c6c6f77616e63655f6275726e3a206275726e20616d6f756e7420657863656564732066726f6d2062616c616e63655f7472616e73666572546f6b656e733a207472616e7366657220657863656564732066726f6d2062616c616e6365a26469706673582212206dc95ac85dfaf0807878c2606097f8ecc832dc36d7799ac0412e0fc2d5ca712c64736f6c634300080d00334f776e61626c653a2063616c6c6572206973206e6f7420746865206f776e65728be0079c531659141344cd1fd0a4f28419497f9722a3daafe3b4186f6b6457e0000000000000000000000000b31f66aa3c1e785363f0875a1b74e27b85fd66c7",
    "linkReferences": {}
  },
  "methodIdentifiers": {
    "ADMIN_FEE_BIPS()": "07677111",
    "DEPOSITS_ENABLED()": "b52a321f",
    "DEV_FEE_BIPS()": "5ea682ea",
    "DOMAIN_TYPEHASH()": "20606b70",
    "MAX_TOKENS_TO_DEPOSIT_WITHOUT_REINVEST()": "789139bc",
    "MIN_TOKENS_TO_REINVEST()": "bd079f55",
    "PERMIT_TYPEHASH()": "30adf81f",
    "PID()": "5eaec0e4",
    "REINVEST_REWARD_BIPS()": "8aff733d",
    "VERSION_HASH()": "9e4e7318",
    "addReward(address,address)": "40b47e1a",
    "allowDepositor(address)": "4bebd1e7",
    "allowance(address,address)": "dd62ed3e",
    "allowedDepositors(address)": "483c2ef0",
    "approve(address,uint256)": "095ea7b3",
    "balanceOf(address)": "70a08231",
    "checkReward()": "c4b24a46",
    "decimals()": "313ce567",
    "deposit(uint256)": "b6b55f25",
    "depositFor(address,uint256)": "2f4f21e2",
    "depositToken()": "c89039c5",
    "depositWithPermit(uint256,uint256,uint8,bytes32,bytes32)": "4a970be7",
    "devAddr()": "da09c72c",
    "estimateDeployedBalance()": "0f23475d",
    "estimateReinvestReward()": "b9e57b80",
    "getDepositTokensForShares(uint256)": "eab89a5a",
    "getDomainSeparator()": "ed24911d",
    "getSharesForDepositTokens(uint256)": "dd8ce4d6",
    "name()": "06fdde03",
    "nonces(address)": "7ecebe00",
    "numberOfAllowedDepositors()": "3bdc6e72",
    "owner()": "8da5cb5b",
    "permit(address,address,uint256,uint256,uint8,bytes32,bytes32)": "d505accf",
    "recoverAVAX(uint256)": "4ebb7916",
    "recoverERC20(address,uint256)": "8980f11f",
    "reinvest()": "fdb5a03e",
    "removeDepositor(address)": "8b73e606",
    "removeReward(address)": "a4d5e67c",
    "renounceOwnership()": "715018a6",
    "rescueDeployedFunds(uint256,bool)": "ac0d31ff",
    "revokeAllowance(address,address)": "7ae26773",
    "rewardCount()": "79085425",
    "rewardLocker()": "3892601c",
    "rewardSwapPairs(address)": "a5534e71",
    "rewardToken()": "f7c618c1",
    "stakingContract()": "ee99205c",
    "supportedRewards(uint256)": "e75ab045",
    "symbol()": "95d89b41",
    "totalDeposits()": "7d882097",
    "totalSupply()": "18160ddd",
    "transfer(address,uint256)": "a9059cbb",
    "transferFrom(address,address,uint256)": "23b872dd",
    "transferOwnership(address)": "f2fde38b",
    "updateAdminFee(uint256)": "cff1b6ef",
    "updateDepositsEnabled(bool)": "4e77ace5",
    "updateDevAddr(address)": "9291d563",
    "updateDevFee(uint256)": "99729ec1",
    "updateMaxTokensToDepositWithoutReinvest(uint256)": "e21ac825",
    "updateMinTokensToReinvest(uint256)": "81837230",
    "updateReinvestReward(uint256)": "a8ae2b7c",
    "withdraw(uint256)": "2e1a7d4d"
  },
  "id": 106
}