{
  "abi": [
    {
      "inputs": [
        {
          "internalType": "string",
          "name": "_name",
          "type": "string"
        },
        {
          "internalType": "address",
          "name": "_depositToken",
          "type": "address"
        },
        {
          "internalType": "address",
          "name": "_qiRewardToken",
          "type": "address"
        },
        {
          "internalType": "address",
          "name": "_stakingContract",
          "type": "address"
        },
        {
          "internalType": "address",
          "name": "_swapPairToken",
          "type": "address"
        },
        {
          "internalType": "address",
          "name": "_timelock",
          "type": "address"
        },
        {
          "components": [
            {
              "internalType": "uint256",
              "name": "minTokensToReinvest",
              "type": "uint256"
            },
            {
              "internalType": "uint256",
              "name": "devFeeBips",
              "type": "uint256"
            },
            {
              "internalType": "uint256",
              "name": "reinvestRewardBips",
              "type": "uint256"
            }
          ],
          "internalType": "struct YakStrategy.StrategySettings",
          "name": "_strategySettings",
          "type": "tuple"
        }
      ],
      "stateMutability": "nonpayable",
      "type": "constructor"
    },
    {
      "anonymous": false,
      "inputs": [
        {
          "indexed": true,
          "internalType": "address",
          "name": "account",
          "type": "address"
        }
      ],
      "name": "AllowDepositor",
      "type": "event"
    },
    {
      "anonymous": false,
      "inputs": [
        {
          "indexed": true,
          "internalType": "address",
          "name": "owner",
          "type": "address"
        },
        {
          "indexed": true,
          "internalType": "address",
          "name": "spender",
          "type": "address"
        },
        {
          "indexed": false,
          "internalType": "uint256",
          "name": "value",
          "type": "uint256"
        }
      ],
      "name": "Approval",
      "type": "event"
    },
    {
      "anonymous": false,
      "inputs": [
        {
          "indexed": true,
          "internalType": "address",
          "name": "account",
          "type": "address"
        },
        {
          "indexed": false,
          "internalType": "uint256",
          "name": "amount",
          "type": "uint256"
        }
      ],
      "name": "Deposit",
      "type": "event"
    },
    {
      "anonymous": false,
      "inputs": [
        {
          "indexed": false,
          "internalType": "bool",
          "name": "newValue",
          "type": "bool"
        }
      ],
      "name": "DepositsEnabled",
      "type": "event"
    },
    {
      "anonymous": false,
      "inputs": [
        {
          "indexed": true,
          "internalType": "address",
          "name": "previousOwner",
          "type": "address"
        },
        {
          "indexed": true,
          "internalType": "address",
          "name": "newOwner",
          "type": "address"
        }
      ],
      "name": "OwnershipTransferred",
      "type": "event"
    },
    {
      "anonymous": false,
      "inputs": [
        {
          "indexed": false,
          "internalType": "address",
          "name": "token",
          "type": "address"
        },
        {
          "indexed": false,
          "internalType": "uint256",
          "name": "amount",
          "type": "uint256"
        }
      ],
      "name": "Recovered",
      "type": "event"
    },
    {
      "anonymous": false,
      "inputs": [
        {
          "indexed": false,
          "internalType": "uint256",
          "name": "newTotalDeposits",
          "type": "uint256"
        },
        {
          "indexed": false,
          "internalType": "uint256",
          "name": "newTotalSupply",
          "type": "uint256"
        }
      ],
      "name": "Reinvest",
      "type": "event"
    },
    {
      "anonymous": false,
      "inputs": [
        {
          "indexed": true,
          "internalType": "address",
          "name": "account",
          "type": "address"
        }
      ],
      "name": "RemoveDepositor",
      "type": "event"
    },
    {
      "anonymous": false,
      "inputs": [
        {
          "indexed": true,
          "internalType": "address",
          "name": "from",
          "type": "address"
        },
        {
          "indexed": true,
          "internalType": "address",
          "name": "to",
          "type": "address"
        },
        {
          "indexed": false,
          "internalType": "uint256",
          "name": "value",
          "type": "uint256"
        }
      ],
      "name": "Transfer",
      "type": "event"
    },
    {
      "anonymous": false,
      "inputs": [
        {
          "indexed": false,
          "internalType": "uint256",
          "name": "oldValue",
          "type": "uint256"
        },
        {
          "indexed": false,
          "internalType": "uint256",
          "name": "newValue",
          "type": "uint256"
        }
      ],
      "name": "UpdateAdminFee",
      "type": "event"
    },
    {
      "anonymous": false,
      "inputs": [
        {
          "indexed": false,
          "internalType": "address",
          "name": "oldValue",
          "type": "address"
        },
        {
          "indexed": false,
          "internalType": "address",
          "name": "newValue",
          "type": "address"
        }
      ],
      "name": "UpdateDevAddr",
      "type": "event"
    },
    {
      "anonymous": false,
      "inputs": [
        {
          "indexed": false,
          "internalType": "uint256",
          "name": "oldValue",
          "type": "uint256"
        },
        {
          "indexed": false,
          "internalType": "uint256",
          "name": "newValue",
          "type": "uint256"
        }
      ],
      "name": "UpdateDevFee",
      "type": "event"
    },
    {
      "anonymous": false,
      "inputs": [
        {
          "indexed": false,
          "internalType": "uint256",
          "name": "oldValue",
          "type": "uint256"
        },
        {
          "indexed": false,
          "internalType": "uint256",
          "name": "newValue",
          "type": "uint256"
        }
      ],
      "name": "UpdateMaxTokensToDepositWithoutReinvest",
      "type": "event"
    },
    {
      "anonymous": false,
      "inputs": [
        {
          "indexed": false,
          "internalType": "uint256",
          "name": "oldValue",
          "type": "uint256"
        },
        {
          "indexed": false,
          "internalType": "uint256",
          "name": "newValue",
          "type": "uint256"
        }
      ],
      "name": "UpdateMinTokensToReinvest",
      "type": "event"
    },
    {
      "anonymous": false,
      "inputs": [
        {
          "indexed": false,
          "internalType": "uint256",
          "name": "oldValue",
          "type": "uint256"
        },
        {
          "indexed": false,
          "internalType": "uint256",
          "name": "newValue",
          "type": "uint256"
        }
      ],
      "name": "UpdateReinvestReward",
      "type": "event"
    },
    {
      "anonymous": false,
      "inputs": [
        {
          "indexed": true,
          "internalType": "address",
          "name": "account",
          "type": "address"
        },
        {
          "indexed": false,
          "internalType": "uint256",
          "name": "amount",
          "type": "uint256"
        }
      ],
      "name": "Withdraw",
      "type": "event"
    },
    {
      "inputs": [],
      "name": "ADMIN_FEE_BIPS",
      "outputs": [
        {
          "internalType": "uint256",
          "name": "",
          "type": "uint256"
        }
      ],
      "stateMutability": "view",
      "type": "function"
    },
    {
      "inputs": [],
      "name": "DEPOSITS_ENABLED",
      "outputs": [
        {
          "internalType": "bool",
          "name": "",
          "type": "bool"
        }
      ],
      "stateMutability": "view",
      "type": "function"
    },
    {
      "inputs": [],
      "name": "DEV_FEE_BIPS",
      "outputs": [
        {
          "internalType": "uint256",
          "name": "",
          "type": "uint256"
        }
      ],
      "stateMutability": "view",
      "type": "function"
    },
    {
      "inputs": [],
      "name": "DOMAIN_TYPEHASH",
      "outputs": [
        {
          "internalType": "bytes32",
          "name": "",
          "type": "bytes32"
        }
      ],
      "stateMutability": "view",
      "type": "function"
    },
    {
      "inputs": [],
      "name": "MAX_TOKENS_TO_DEPOSIT_WITHOUT_REINVEST",
      "outputs": [
        {
          "internalType": "uint256",
          "name": "",
          "type": "uint256"
        }
      ],
      "stateMutability": "view",
      "type": "function"
    },
    {
      "inputs": [],
      "name": "MIN_TOKENS_TO_REINVEST",
      "outputs": [
        {
          "internalType": "uint256",
          "name": "",
          "type": "uint256"
        }
      ],
      "stateMutability": "view",
      "type": "function"
    },
    {
      "inputs": [],
      "name": "PERMIT_TYPEHASH",
      "outputs": [
        {
          "internalType": "bytes32",
          "name": "",
          "type": "bytes32"
        }
      ],
      "stateMutability": "view",
      "type": "function"
    },
    {
      "inputs": [],
      "name": "REINVEST_REWARD_BIPS",
      "outputs": [
        {
          "internalType": "uint256",
          "name": "",
          "type": "uint256"
        }
      ],
      "stateMutability": "view",
      "type": "function"
    },
    {
      "inputs": [],
      "name": "VERSION_HASH",
      "outputs": [
        {
          "internalType": "bytes32",
          "name": "",
          "type": "bytes32"
        }
      ],
      "stateMutability": "view",
      "type": "function"
    },
    {
      "inputs": [
        {
          "internalType": "address",
          "name": "depositor",
          "type": "address"
        }
      ],
      "name": "allowDepositor",
      "outputs": [],
      "stateMutability": "nonpayable",
      "type": "function"
    },
    {
      "inputs": [
        {
          "internalType": "address",
          "name": "account",
          "type": "address"
        },
        {
          "internalType": "address",
          "name": "spender",
          "type": "address"
        }
      ],
      "name": "allowance",
      "outputs": [
        {
          "internalType": "uint256",
          "name": "",
          "type": "uint256"
        }
      ],
      "stateMutability": "view",
      "type": "function"
    },
    {
      "inputs": [
        {
          "internalType": "address",
          "name": "",
          "type": "address"
        }
      ],
      "name": "allowedDepositors",
      "outputs": [
        {
          "internalType": "bool",
          "name": "",
          "type": "bool"
        }
      ],
      "stateMutability": "view",
      "type": "function"
    },
    {
      "inputs": [
        {
          "internalType": "address",
          "name": "spender",
          "type": "address"
        },
        {
          "internalType": "uint256",
          "name": "amount",
          "type": "uint256"
        }
      ],
      "name": "approve",
      "outputs": [
        {
          "internalType": "bool",
          "name": "",
          "type": "bool"
        }
      ],
      "stateMutability": "nonpayable",
      "type": "function"
    },
    {
      "inputs": [
        {
          "internalType": "address",
          "name": "account",
          "type": "address"
        }
      ],
      "name": "balanceOf",
      "outputs": [
        {
          "internalType": "uint256",
          "name": "",
          "type": "uint256"
        }
      ],
      "stateMutability": "view",
      "type": "function"
    },
    {
      "inputs": [],
      "name": "checkReward",
      "outputs": [
        {
          "internalType": "uint256",
          "name": "",
          "type": "uint256"
        }
      ],
      "stateMutability": "view",
      "type": "function"
    },
    {
      "inputs": [],
      "name": "decimals",
      "outputs": [
        {
          "internalType": "uint8",
          "name": "",
          "type": "uint8"
        }
      ],
      "stateMutability": "view",
      "type": "function"
    },
    {
      "inputs": [
        {
          "internalType": "uint256",
          "name": "amount",
          "type": "uint256"
        }
      ],
      "name": "deposit",
      "outputs": [],
      "stateMutability": "nonpayable",
      "type": "function"
    },
    {
      "inputs": [
        {
          "internalType": "address",
          "name": "account",
          "type": "address"
        },
        {
          "internalType": "uint256",
          "name": "amount",
          "type": "uint256"
        }
      ],
      "name": "depositFor",
      "outputs": [],
      "stateMutability": "nonpayable",
      "type": "function"
    },
    {
      "inputs": [],
      "name": "depositToken",
      "outputs": [
        {
          "internalType": "contract IERC20",
          "name": "",
          "type": "address"
        }
      ],
      "stateMutability": "view",
      "type": "function"
    },
    {
      "inputs": [
        {
          "internalType": "uint256",
          "name": "amount",
          "type": "uint256"
        },
        {
          "internalType": "uint256",
          "name": "deadline",
          "type": "uint256"
        },
        {
          "internalType": "uint8",
          "name": "v",
          "type": "uint8"
        },
        {
          "internalType": "bytes32",
          "name": "r",
          "type": "bytes32"
        },
        {
          "internalType": "bytes32",
          "name": "s",
          "type": "bytes32"
        }
      ],
      "name": "depositWithPermit",
      "outputs": [],
      "stateMutability": "nonpayable",
      "type": "function"
    },
    {
      "inputs": [],
      "name": "devAddr",
      "outputs": [
        {
          "internalType": "address",
          "name": "",
          "type": "address"
        }
      ],
      "stateMutability": "view",
      "type": "function"
    },
    {
      "inputs": [],
      "name": "estimateDeployedBalance",
      "outputs": [
        {
          "internalType": "uint256",
          "name": "",
          "type": "uint256"
        }
      ],
      "stateMutability": "view",
      "type": "function"
    },
    {
      "inputs": [],
      "name": "estimateReinvestReward",
      "outputs": [
        {
          "internalType": "uint256",
          "name": "",
          "type": "uint256"
        }
      ],
      "stateMutability": "view",
      "type": "function"
    },
    {
      "inputs": [
        {
          "internalType": "uint256",
          "name": "amount",
          "type": "uint256"
        }
      ],
      "name": "getDepositTokensForShares",
      "outputs": [
        {
          "internalType": "uint256",
          "name": "",
          "type": "uint256"
        }
      ],
      "stateMutability": "view",
      "type": "function"
    },
    {
      "inputs": [],
      "name": "getDomainSeparator",
      "outputs": [
        {
          "internalType": "bytes32",
          "name": "",
          "type": "bytes32"
        }
      ],
      "stateMutability": "view",
      "type": "function"
    },
    {
      "inputs": [
        {
          "internalType": "uint256",
          "name": "amount",
          "type": "uint256"
        }
      ],
      "name": "getSharesForDepositTokens",
      "outputs": [
        {
          "internalType": "uint256",
          "name": "",
          "type": "uint256"
        }
      ],
      "stateMutability": "view",
      "type": "function"
    },
    {
      "inputs": [],
      "name": "name",
      "outputs": [
        {
          "internalType": "string",
          "name": "",
          "type": "string"
        }
      ],
      "stateMutability": "view",
      "type": "function"
    },
    {
      "inputs": [
        {
          "internalType": "address",
          "name": "",
          "type": "address"
        }
      ],
      "name": "nonces",
      "outputs": [
        {
          "internalType": "uint256",
          "name": "",
          "type": "uint256"
        }
      ],
      "stateMutability": "view",
      "type": "function"
    },
    {
      "inputs": [],
      "name": "numberOfAllowedDepositors",
      "outputs": [
        {
          "internalType": "uint256",
          "name": "",
          "type": "uint256"
        }
      ],
      "stateMutability": "view",
      "type": "function"
    },
    {
      "inputs": [],
      "name": "owner",
      "outputs": [
        {
          "internalType": "address",
          "name": "",
          "type": "address"
        }
      ],
      "stateMutability": "view",
      "type": "function"
    },
    {
      "inputs": [
        {
          "internalType": "address",
          "name": "owner",
          "type": "address"
        },
        {
          "internalType": "address",
          "name": "spender",
          "type": "address"
        },
        {
          "internalType": "uint256",
          "name": "value",
          "type": "uint256"
        },
        {
          "internalType": "uint256",
          "name": "deadline",
          "type": "uint256"
        },
        {
          "internalType": "uint8",
          "name": "v",
          "type": "uint8"
        },
        {
          "internalType": "bytes32",
          "name": "r",
          "type": "bytes32"
        },
        {
          "internalType": "bytes32",
          "name": "s",
          "type": "bytes32"
        }
      ],
      "name": "permit",
      "outputs": [],
      "stateMutability": "nonpayable",
      "type": "function"
    },
    {
      "inputs": [
        {
          "internalType": "uint256",
          "name": "amount",
          "type": "uint256"
        }
      ],
      "name": "recoverAVAX",
      "outputs": [],
      "stateMutability": "nonpayable",
      "type": "function"
    },
    {
      "inputs": [
        {
          "internalType": "address",
          "name": "tokenAddress",
          "type": "address"
        },
        {
          "internalType": "uint256",
          "name": "tokenAmount",
          "type": "uint256"
        }
      ],
      "name": "recoverERC20",
      "outputs": [],
      "stateMutability": "nonpayable",
      "type": "function"
    },
    {
      "inputs": [],
      "name": "reinvest",
      "outputs": [],
      "stateMutability": "nonpayable",
      "type": "function"
    },
    {
      "inputs": [
        {
          "internalType": "address",
          "name": "depositor",
          "type": "address"
        }
      ],
      "name": "removeDepositor",
      "outputs": [],
      "stateMutability": "nonpayable",
      "type": "function"
    },
    {
      "inputs": [],
      "name": "renounceOwnership",
      "outputs": [],
      "stateMutability": "nonpayable",
      "type": "function"
    },
    {
      "inputs": [
        {
          "internalType": "uint256",
          "name": "minReturnAmountAccepted",
          "type": "uint256"
        },
        {
          "internalType": "bool",
          "name": "disableDeposits",
          "type": "bool"
        }
      ],
      "name": "rescueDeployedFunds",
      "outputs": [],
      "stateMutability": "nonpayable",
      "type": "function"
    },
    {
      "inputs": [
        {
          "internalType": "address",
          "name": "token",
          "type": "address"
        },
        {
          "internalType": "address",
          "name": "spender",
          "type": "address"
        }
      ],
      "name": "revokeAllowance",
      "outputs": [],
      "stateMutability": "nonpayable",
      "type": "function"
    },
    {
      "inputs": [],
      "name": "rewardToken",
      "outputs": [
        {
          "internalType": "contract IERC20",
          "name": "",
          "type": "address"
        }
      ],
      "stateMutability": "view",
      "type": "function"
    },
    {
      "inputs": [],
      "name": "setAllowances",
      "outputs": [],
      "stateMutability": "nonpayable",
      "type": "function"
    },
    {
      "inputs": [],
      "name": "symbol",
      "outputs": [
        {
          "internalType": "string",
          "name": "",
          "type": "string"
        }
      ],
      "stateMutability": "view",
      "type": "function"
    },
    {
      "inputs": [],
      "name": "totalDeposits",
      "outputs": [
        {
          "internalType": "uint256",
          "name": "",
          "type": "uint256"
        }
      ],
      "stateMutability": "view",
      "type": "function"
    },
    {
      "inputs": [],
      "name": "totalSupply",
      "outputs": [
        {
          "internalType": "uint256",
          "name": "",
          "type": "uint256"
        }
      ],
      "stateMutability": "view",
      "type": "function"
    },
    {
      "inputs": [
        {
          "internalType": "address",
          "name": "dst",
          "type": "address"
        },
        {
          "internalType": "uint256",
          "name": "amount",
          "type": "uint256"
        }
      ],
      "name": "transfer",
      "outputs": [
        {
          "internalType": "bool",
          "name": "",
          "type": "bool"
        }
      ],
      "stateMutability": "nonpayable",
      "type": "function"
    },
    {
      "inputs": [
        {
          "internalType": "address",
          "name": "src",
          "type": "address"
        },
        {
          "internalType": "address",
          "name": "dst",
          "type": "address"
        },
        {
          "internalType": "uint256",
          "name": "amount",
          "type": "uint256"
        }
      ],
      "name": "transferFrom",
      "outputs": [
        {
          "internalType": "bool",
          "name": "",
          "type": "bool"
        }
      ],
      "stateMutability": "nonpayable",
      "type": "function"
    },
    {
      "inputs": [
        {
          "internalType": "address",
          "name": "newOwner",
          "type": "address"
        }
      ],
      "name": "transferOwnership",
      "outputs": [],
      "stateMutability": "nonpayable",
      "type": "function"
    },
    {
      "inputs": [
        {
          "internalType": "uint256",
          "name": "newValue",
          "type": "uint256"
        }
      ],
      "name": "updateAdminFee",
      "outputs": [],
      "stateMutability": "nonpayable",
      "type": "function"
    },
    {
      "inputs": [
        {
          "internalType": "bool",
          "name": "newValue",
          "type": "bool"
        }
      ],
      "name": "updateDepositsEnabled",
      "outputs": [],
      "stateMutability": "nonpayable",
      "type": "function"
    },
    {
      "inputs": [
        {
          "internalType": "address",
          "name": "newValue",
          "type": "address"
        }
      ],
      "name": "updateDevAddr",
      "outputs": [],
      "stateMutability": "nonpayable",
      "type": "function"
    },
    {
      "inputs": [
        {
          "internalType": "uint256",
          "name": "newValue",
          "type": "uint256"
        }
      ],
      "name": "updateDevFee",
      "outputs": [],
      "stateMutability": "nonpayable",
      "type": "function"
    },
    {
      "inputs": [
        {
          "internalType": "uint256",
          "name": "newValue",
          "type": "uint256"
        }
      ],
      "name": "updateMaxTokensToDepositWithoutReinvest",
      "outputs": [],
      "stateMutability": "nonpayable",
      "type": "function"
    },
    {
      "inputs": [
        {
          "internalType": "uint256",
          "name": "newValue",
          "type": "uint256"
        }
      ],
      "name": "updateMinTokensToReinvest",
      "outputs": [],
      "stateMutability": "nonpayable",
      "type": "function"
    },
    {
      "inputs": [
        {
          "internalType": "uint256",
          "name": "newValue",
          "type": "uint256"
        }
      ],
      "name": "updateReinvestReward",
      "outputs": [],
      "stateMutability": "nonpayable",
      "type": "function"
    },
    {
      "inputs": [
        {
          "internalType": "uint256",
          "name": "amount",
          "type": "uint256"
        }
      ],
      "name": "withdraw",
      "outputs": [],
      "stateMutability": "nonpayable",
      "type": "function"
    },
    {
      "stateMutability": "payable",
      "type": "receive"
    }
  ],
  "bytecode": {
    "object": "0x60c060405260096080819052685969656c642059616b60b81b60a09081526200002c916000919062000897565b506040805180820190915260038082526216549560ea1b6020909201918252620000599160019162000897565b503480156200006757600080fd5b506040516200454b3803806200454b8339810160408190526200008a9162000a02565b600680546001600160a01b0319163390811790915560405182919081906000906000805160206200452b833981519152908290a3508051620000cc90620001e9565b6020810151620000dc9062000279565b6040810151620000ec9062000330565b508651620001029060009060208a019062000897565b50600a80546001600160a01b038089166001600160a01b03199283161790925560148054821673b31f66aa3c1e785363f0875a1b74e27b85fd66c7908117909155600b805483169091179055601580548884169083161790556013805492871692821692909217909155600c8054909116331790556200018283620003e7565b6200018c6200050e565b620001986001620005d6565b620001a38262000680565b60408051600080825260208201527fc7606d21ac05cd309191543e409f0845c016120563783d70e4f41419dc0ef234910160405180910390a15050505050505062000bd8565b6006546001600160a01b03163314620002385760405162461bcd60e51b815260206004820181905260248201526000805160206200450b83398151915260448201526064015b60405180910390fd5b600d5460408051918252602082018390527f481f79ac3a523b6d6db3c5a720e190e986d1cc1b41adcdf50f9caef849901100910160405180910390a1600d55565b6006546001600160a01b03163314620002c45760405162461bcd60e51b815260206004820181905260248201526000805160206200450b83398151915260448201526064016200022f565b612710620002e3601154836200077d60201b62001d621790919060201c565b1115620002ef57600080fd5b60125460408051918252602082018390527f2a42303d002f0ba6cfe8259c91d4684443fb0b3de286ba74991175d651726131910160405180910390a1601255565b6006546001600160a01b031633146200037b5760405162461bcd60e51b815260206004820181905260248201526000805160206200450b83398151915260448201526064016200022f565b6127106200039a601254836200077d60201b62001d621790919060201c565b1115620003a657600080fd5b60115460408051918252602082018390527fe7f97d51d307dc44045597c9978bec0f842e6bb40d19b9444084cfa30d9ed4f2910160405180910390a1601155565b6001600160a01b0381166200044f5760405162461bcd60e51b815260206004820152602760248201527f537761702070616972206973206e656365737361727920627574206e6f7420736044820152661d5c1c1b1a595960ca1b60648201526084016200022f565b601680546001600160a01b0319166001600160a01b038381169182179092556014546015546200048493918216911662000792565b80620004af5750601654601554601454620004af926001600160a01b03908116928116911662000792565b6200050b5760405162461bcd60e51b815260206004820152602560248201527f53776170207061697220646f6573206e6f74206d61746368205741564158206f604482015264391028a49760d91b60648201526084016200022f565b50565b6006546001600160a01b03163314620005595760405162461bcd60e51b815260206004820181905260248201526000805160206200450b83398151915260448201526064016200022f565b600a5460135460405163095ea7b360e01b81526001600160a01b039182166004820152600019602482015291169063095ea7b3906044016020604051808303816000875af1158015620005b0573d6000803e3d6000fd5b505050506040513d601f19601f820116820180604052508101906200050b919062000b33565b6006546001600160a01b03163314620006215760405162461bcd60e51b815260206004820181905260248201526000805160206200450b83398151915260448201526064016200022f565b600f5481151560ff9091161515036200063957600080fd5b600f805460ff19168215159081179091556040519081527f7b014ed3854e7f5cb0218d58b3c6ae7d53a68bb0af2f67bfb029ea42c38a7e859060200160405180910390a150565b6006546001600160a01b03163314620006cb5760405162461bcd60e51b815260206004820181905260248201526000805160206200450b83398151915260448201526064016200022f565b6001600160a01b038116620007325760405162461bcd60e51b815260206004820152602660248201527f4f776e61626c653a206e6577206f776e657220697320746865207a65726f206160448201526564647265737360d01b60648201526084016200022f565b6006546040516001600160a01b038084169216906000805160206200452b83398151915290600090a3600680546001600160a01b0319166001600160a01b0392909216919091179055565b60006200078b828462000b57565b9392505050565b6000826001600160a01b0316846001600160a01b0316630dfe16816040518163ffffffff1660e01b8152600401602060405180830381865afa158015620007dd573d6000803e3d6000fd5b505050506040513d601f19601f8201168201806040525081019062000803919062000b7e565b6001600160a01b03161480156200088f5750816001600160a01b0316846001600160a01b031663d21220a76040518163ffffffff1660e01b8152600401602060405180830381865afa1580156200085e573d6000803e3d6000fd5b505050506040513d601f19601f8201168201806040525081019062000884919062000b7e565b6001600160a01b0316145b949350505050565b828054620008a59062000b9c565b90600052602060002090601f016020900481019282620008c9576000855562000914565b82601f10620008e457805160ff191683800117855562000914565b8280016001018555821562000914579182015b8281111562000914578251825591602001919060010190620008f7565b506200092292915062000926565b5090565b5b8082111562000922576000815560010162000927565b634e487b7160e01b600052604160045260246000fd5b604051601f8201601f191681016001600160401b03811182821017156200097e576200097e6200093d565b604052919050565b80516001600160a01b03811681146200099e57600080fd5b919050565b600060608284031215620009b657600080fd5b604051606081016001600160401b0381118282101715620009db57620009db6200093d565b80604052508091508251815260208301516020820152604083015160408201525092915050565b6000806000806000806000610120888a03121562000a1f57600080fd5b87516001600160401b038082111562000a3757600080fd5b818a0191508a601f83011262000a4c57600080fd5b81518181111562000a615762000a616200093d565b6020915062000a79601f8201601f1916830162000953565b8181528c8383860101111562000a8e57600080fd5b60005b8281101562000aae57848101840151828201850152830162000a91565b8281111562000ac05760008484840101525b50995062000ad290508a820162000986565b9750505062000ae46040890162000986565b945062000af46060890162000986565b935062000b046080890162000986565b925062000b1460a0890162000986565b915062000b258960c08a01620009a3565b905092959891949750929550565b60006020828403121562000b4657600080fd5b815180151581146200078b57600080fd5b6000821982111562000b7957634e487b7160e01b600052601160045260246000fd5b500190565b60006020828403121562000b9157600080fd5b6200078b8262000986565b600181811c9082168062000bb157607f821691505b60208210810362000bd257634e487b7160e01b600052602260045260246000fd5b50919050565b6139238062000be86000396000f3fe6080604052600436106103395760003560e01c80638b73e606116101ab578063c4b24a46116100f7578063dd8ce4d611610095578063ed24911d1161006f578063ed24911d146109c6578063f2fde38b146109db578063f7c618c1146109fb578063fdb5a03e14610a1b57600080fd5b8063dd8ce4d614610966578063e21ac82514610986578063eab89a5a146109a657600080fd5b8063d505accf116100d1578063d505accf146108cb578063da09c72c146108eb578063dbd9a4d41461090b578063dd62ed3e1461092057600080fd5b8063c4b24a4614610876578063c89039c51461088b578063cff1b6ef146108ab57600080fd5b8063a8ae2b7c11610164578063b52a321f1161013e578063b52a321f14610811578063b6b55f251461082b578063b9e57b801461084b578063bd079f551461086057600080fd5b8063a8ae2b7c146107b1578063a9059cbb146107d1578063ac0d31ff146107f157600080fd5b80638b73e606146106d65780638da5cb5b146106f65780639291d5631461072857806395d89b411461074857806399729ec11461075d5780639e4e73181461077d57600080fd5b80634a970be711610285578063789139bc116102235780637ecebe00116101fd5780637ecebe001461065357806381837230146106805780638980f11f146106a05780638aff733d146106c057600080fd5b8063789139bc146106075780637ae267731461061d5780637d8820971461063d57600080fd5b80634ebb79161161025f5780634ebb7916146105865780635ea682ea146105a657806370a08231146105bc578063715018a6146105f257600080fd5b80634a970be7146105265780634bebd1e7146105465780634e77ace51461056657600080fd5b806323b872dd116102f257806330adf81f116102cc57806330adf81f14610485578063313ce567146104b95780633bdc6e72146104e0578063483c2ef0146104f657600080fd5b806323b872dd146104235780632e1a7d4d146104435780632f4f21e21461046557600080fd5b806306fdde03146103455780630767711114610370578063095ea7b3146103945780630f23475d146103c457806318160ddd146103d957806320606b70146103ef57600080fd5b3661034057005b600080fd5b34801561035157600080fd5b5061035a610a30565b604051610367919061336d565b60405180910390f35b34801561037c57600080fd5b5061038660105481565b604051908152602001610367565b3480156103a057600080fd5b506103b46103af366004613395565b610abe565b6040519015158152602001610367565b3480156103d057600080fd5b50610386610ad4565b3480156103e557600080fd5b5061038660025481565b3480156103fb57600080fd5b506103867f8b73c3c69bb8fe3d512ecc4cf759cc79239f7b179b0ffacaa9a75d522b39400f81565b34801561042f57600080fd5b506103b461043e3660046133c1565b610b46565b34801561044f57600080fd5b5061046361045e366004613402565b610c2a565b005b34801561047157600080fd5b50610463610480366004613395565b610cb2565b34801561049157600080fd5b506103867f6e71edae12b1b97f4d1f60370fef10105fa2faae0126114a169c64845d6126c981565b3480156104c557600080fd5b506104ce601281565b60405160ff9091168152602001610367565b3480156104ec57600080fd5b5061038660075481565b34801561050257600080fd5b506103b461051136600461341b565b60086020526000908152604090205460ff1681565b34801561053257600080fd5b5061046361054136600461344e565b610cbc565b34801561055257600080fd5b5061046361056136600461341b565b610d55565b34801561057257600080fd5b506104636105813660046134a3565b610e5d565b34801561059257600080fd5b506104636105a1366004613402565b610ee6565b3480156105b257600080fd5b5061038660125481565b3480156105c857600080fd5b506103866105d736600461341b565b6001600160a01b031660009081526004602052604090205490565b3480156105fe57600080fd5b50610463610f82565b34801561061357600080fd5b50610386600e5481565b34801561062957600080fd5b506104636106383660046134c0565b610ff6565b34801561064957600080fd5b5061038660095481565b34801561065f57600080fd5b5061038661066e36600461341b565b60056020526000908152604090205481565b34801561068c57600080fd5b5061046361069b366004613402565b61109c565b3480156106ac57600080fd5b506104636106bb366004613395565b611107565b3480156106cc57600080fd5b5061038660115481565b3480156106e257600080fd5b506104636106f136600461341b565b6111fe565b34801561070257600080fd5b506006546001600160a01b03165b6040516001600160a01b039091168152602001610367565b34801561073457600080fd5b5061046361074336600461341b565b61137f565b34801561075457600080fd5b5061035a611439565b34801561076957600080fd5b50610463610778366004613402565b611446565b34801561078957600080fd5b506103867fc89efdaa54c0f20c7adf612882df0950f5a951637e0307cdcb4c672f298b8bc681565b3480156107bd57600080fd5b506104636107cc366004613402565b6114d4565b3480156107dd57600080fd5b506103b46107ec366004613395565b611562565b3480156107fd57600080fd5b5061046361080c3660046134f9565b61156f565b34801561081d57600080fd5b50600f546103b49060ff1681565b34801561083757600080fd5b50610463610846366004613402565b6117af565b34801561085757600080fd5b506103866117bc565b34801561086c57600080fd5b50610386600d5481565b34801561088257600080fd5b50610386611801565b34801561089757600080fd5b50600a54610710906001600160a01b031681565b3480156108b757600080fd5b506104636108c6366004613402565b611814565b3480156108d757600080fd5b506104636108e636600461351e565b61188a565b3480156108f757600080fd5b50600c54610710906001600160a01b031681565b34801561091757600080fd5b5061046361198f565b34801561092c57600080fd5b5061038661093b3660046134c0565b6001600160a01b03918216600090815260036020908152604080832093909416825291909152205490565b34801561097257600080fd5b50610386610981366004613402565b611a33565b34801561099257600080fd5b506104636109a1366004613402565b611a78565b3480156109b257600080fd5b506103866109c1366004613402565b611ae3565b3480156109d257600080fd5b50610386611b26565b3480156109e757600080fd5b506104636109f636600461341b565b611bc6565b348015610a0757600080fd5b50600b54610710906001600160a01b031681565b348015610a2757600080fd5b50610463611cb1565b60008054610a3d9061358c565b80601f0160208091040260200160405190810160405280929190818152602001828054610a699061358c565b8015610ab65780601f10610a8b57610100808354040283529160200191610ab6565b820191906000526020600020905b815481529060010190602001808311610a9957829003601f168201915b505050505081565b6000610acb338484611d6e565b50600192915050565b60135460405163044c28db60e21b81523060048201526000916001600160a01b031690631130a36c90602401602060405180830381865afa158015610b1d573d6000803e3d6000fd5b505050506040513d601f19601f82011682018060405250810190610b4191906135c6565b905090565b6001600160a01b038316600081815260036020908152604080832033808552925282205491929091908214801590610b8057506000198114155b15610c11576000610bac856040518060600160405280602f815260200161386a602f9139849190611e7c565b6001600160a01b038881166000818152600360209081526040808320948916808452948252918290208590559051848152939450919290917f8c5be1e5ebec7d5bd14f71427d1e84f3dd0314c0f7b2291e5b200ac8c7c3b925910160405180910390a3505b610c1c868686611ea8565b6001925050505b9392505050565b6000610c3582611ae3565b90508015610cae57610c4681611fdb565b600a54610c5d906001600160a01b03163383612099565b610c67338361216e565b600954610c749082612244565b60095560405181815233907f884edad9ce6fa2440d8a54cc123490eb96d2768479d49ff9c7366125a9424364906020015b60405180910390a25b5050565b610cae8282612250565b600a5460405163d505accf60e01b8152336004820152306024820152604481018790526064810186905260ff8516608482015260a4810184905260c481018390526001600160a01b039091169063d505accf9060e401600060405180830381600087803b158015610d2c57600080fd5b505af1158015610d40573d6000803e3d6000fd5b50505050610d4e3386612250565b5050505050565b6006546001600160a01b03163314610d885760405162461bcd60e51b8152600401610d7f906135df565b60405180910390fd5b6001600160a01b03811660009081526008602052604090205460ff1615610df15760405162461bcd60e51b815260206004820152601c60248201527f5065726d697373696f6e65643a3a616c6c6f774465706f7369746f72000000006044820152606401610d7f565b6001600160a01b0381166000908152600860205260409020805460ff19166001908117909155600754610e2391611d62565b6007556040516001600160a01b038216907fc0a1035c16faf8d1304056d92c00edf028f87e62b8235a938f00af9e3c0312c590600090a250565b6006546001600160a01b03163314610e875760405162461bcd60e51b8152600401610d7f906135df565b600f5481151560ff909116151503610e9e57600080fd5b600f805460ff19168215159081179091556040519081527f7b014ed3854e7f5cb0218d58b3c6ae7d53a68bb0af2f67bfb029ea42c38a7e85906020015b60405180910390a150565b6006546001600160a01b03163314610f105760405162461bcd60e51b8152600401610d7f906135df565b60008111610f1d57600080fd5b604051339082156108fc029083906000818181858888f19350505050158015610f4a573d6000803e3d6000fd5b506040805160008152602081018390527f8c1256b8896378cd5044f80c202f9772b9d77dc85c8a6eb51967210b09bfaa289101610edb565b6006546001600160a01b03163314610fac5760405162461bcd60e51b8152600401610d7f906135df565b6006546040516000916001600160a01b0316907f8be0079c531659141344cd1fd0a4f28419497f9722a3daafe3b4186f6b6457e0908390a3600680546001600160a01b0319169055565b6006546001600160a01b031633146110205760405162461bcd60e51b8152600401610d7f906135df565b60405163095ea7b360e01b81526001600160a01b0382811660048301526000602483015283169063095ea7b3906044016020604051808303816000875af115801561106f573d6000803e3d6000fd5b505050506040513d601f19601f820116820180604052508101906110939190613614565b610cae57600080fd5b6006546001600160a01b031633146110c65760405162461bcd60e51b8152600401610d7f906135df565b600d5460408051918252602082018390527f481f79ac3a523b6d6db3c5a720e190e986d1cc1b41adcdf50f9caef849901100910160405180910390a1600d55565b6006546001600160a01b031633146111315760405162461bcd60e51b8152600401610d7f906135df565b6000811161113e57600080fd5b60405163a9059cbb60e01b8152336004820152602481018290526001600160a01b0383169063a9059cbb906044016020604051808303816000875af115801561118b573d6000803e3d6000fd5b505050506040513d601f19601f820116820180604052508101906111af9190613614565b6111b857600080fd5b604080516001600160a01b0384168152602081018390527f8c1256b8896378cd5044f80c202f9772b9d77dc85c8a6eb51967210b09bfaa28910160405180910390a15050565b6006546001600160a01b031633146112285760405162461bcd60e51b8152600401610d7f906135df565b6000600754116112975760405162461bcd60e51b815260206004820152603460248201527f5065726d697373696f6e65643a3a72656d6f76654465706f7369746f722c206e6044820152736f20616c6c6f776564206465706f7369746f727360601b6064820152608401610d7f565b6001600160a01b03811660009081526008602052604090205460ff1615156001146113175760405162461bcd60e51b815260206004820152602a60248201527f5065726d697373696f6e65643a3a72656d6f76654465706f7369746f722c206e6044820152691bdd08185b1b1bddd95960b21b6064820152608401610d7f565b6001600160a01b0381166000908152600860205260409020805460ff19169055600754611345906001612244565b6007556040516001600160a01b038216907f0e86f6608b536e5339a25b65ff531f5ea91e1313d056ecd4752b35cbd16137d490600090a250565b600c546001600160a01b031633146113d05760405162461bcd60e51b81526020600482015260146024820152732cb0b5a9ba3930ba32b3bc9d1d37b7363ca232bb60611b6044820152606401610d7f565b600c54604080516001600160a01b03928316815291831660208301527fa8e91499ed37682f43cffb045fcc7d379a91e8c9a14e6321877ee34dee564c00910160405180910390a1600c80546001600160a01b0319166001600160a01b0392909216919091179055565b60018054610a3d9061358c565b6006546001600160a01b031633146114705760405162461bcd60e51b8152600401610d7f906135df565b61271061148860115483611d6290919063ffffffff16565b111561149357600080fd5b60125460408051918252602082018390527f2a42303d002f0ba6cfe8259c91d4684443fb0b3de286ba74991175d651726131910160405180910390a1601255565b6006546001600160a01b031633146114fe5760405162461bcd60e51b8152600401610d7f906135df565b61271061151660125483611d6290919063ffffffff16565b111561152157600080fd5b60115460408051918252602082018390527fe7f97d51d307dc44045597c9978bec0f842e6bb40d19b9444084cfa30d9ed4f2910160405180910390a1601155565b6000610acb338484611ea8565b6006546001600160a01b031633146115995760405162461bcd60e51b8152600401610d7f906135df565b60135460405163044c28db60e21b81523060048201526000916001600160a01b031690631130a36c90602401602060405180830381865afa1580156115e2573d6000803e3d6000fd5b505050506040513d601f19601f8201168201806040525081019061160691906135c6565b60135460405163db006a7560e01b8152600481018390529192506001600160a01b03169063db006a7590602401600060405180830381600087803b15801561164d57600080fd5b505af1158015611661573d6000803e3d6000fd5b505060135460405163044c28db60e21b8152306004820152600093506001600160a01b039091169150631130a36c90602401602060405180830381865afa1580156116b0573d6000803e3d6000fd5b505050506040513d601f19601f820116820180604052508101906116d491906135c6565b9050836116e18284612244565b101561173f5760405162461bcd60e51b815260206004820152602760248201527f42656e71695374726174656779466f724c503a3a7265736375654465706c6f79604482015266656446756e647360c81b6064820152608401610d7f565b60098190556002546040805183815260208101929092527fc7606d21ac05cd309191543e409f0845c016120563783d70e4f41419dc0ef234910160405180910390a1600f5460ff161515600114801561179a57506001831515145b156117a9576117a96000610e5d565b50505050565b6117b93382612250565b50565b6000806117c7611801565b9050600d5481106117f9576117f36127106117ed6011548461244490919063ffffffff16565b90612450565b91505090565b600091505090565b60008061180c61245c565b949350505050565b6006546001600160a01b0316331461183e5760405162461bcd60e51b8152600401610d7f906135df565b801561184957600080fd5b60105460408051918252602082018390527f3cc372f330f95ac9540626dc8a25f5bf21ba607215a5d58304cb804d446f104a910160405180910390a1601055565b428410156118cc5760405162461bcd60e51b815260206004820152600f60248201526e1c195c9b5a5d0e8e995e1c1a5c9959608a1b6044820152606401610d7f565b6001600160a01b038716600090815260056020526040812080547f6e71edae12b1b97f4d1f60370fef10105fa2faae0126114a169c64845d6126c9918a918a918a91908661191983613647565b909155506040805160208101969096526001600160a01b0394851690860152929091166060840152608083015260a082015260c0810186905260e00160405160208183030381529060405280519060200120905061197a888286868661257b565b611985888888611d6e565b5050505050505050565b6006546001600160a01b031633146119b95760405162461bcd60e51b8152600401610d7f906135df565b600a5460135460405163095ea7b360e01b81526001600160a01b039182166004820152600019602482015291169063095ea7b3906044016020604051808303816000875af1158015611a0f573d6000803e3d6000fd5b505050506040513d601f19601f820116820180604052508101906117b99190613614565b6000611a4c60095460025461244490919063ffffffff16565b600003611a57575090565b611a726009546117ed6002548561244490919063ffffffff16565b92915050565b6006546001600160a01b03163314611aa25760405162461bcd60e51b8152600401610d7f906135df565b600e5460408051918252602082018390527fa5dae50539d56dfe1fb5273d883b0c39bc76750a25d036fc5fbd09ad8fd5f57f910160405180910390a1600e55565b6000611afc60095460025461244490919063ffffffff16565b600003611b0b57506000919050565b611a726002546117ed6009548561244490919063ffffffff16565b60007f8b73c3c69bb8fe3d512ecc4cf759cc79239f7b179b0ffacaa9a75d522b39400f60001b6000604051611b5b9190613660565b6040519081900390207fc89efdaa54c0f20c7adf612882df0950f5a951637e0307cdcb4c672f298b8bc646604080516020810195909552840192909252606083015260808201523060a082015260c00160405160208183030381529060405280519060200120905090565b6006546001600160a01b03163314611bf05760405162461bcd60e51b8152600401610d7f906135df565b6001600160a01b038116611c555760405162461bcd60e51b815260206004820152602660248201527f4f776e61626c653a206e6577206f776e657220697320746865207a65726f206160448201526564647265737360d01b6064820152608401610d7f565b6006546040516001600160a01b038084169216907f8be0079c531659141344cd1fd0a4f28419497f9722a3daafe3b4186f6b6457e090600090a3600680546001600160a01b0319166001600160a01b0392909216919091179055565b323314611cf75760405162461bcd60e51b815260206004820152601460248201527359616b53747261746567793a3a6f6e6c79454f4160601b6044820152606401610d7f565b600080611d0261245c565b9250925050600d54811015611d595760405162461bcd60e51b815260206004820152601c60248201527f42656e71695374726174656779466f724c503a3a7265696e76657374000000006044820152606401610d7f565b610cae826126a7565b6000610c2382846136fb565b6001600160a01b038316611dc45760405162461bcd60e51b815260206004820152601c60248201527f5f617070726f76653a3a6f776e6572207a65726f2061646472657373000000006044820152606401610d7f565b6001600160a01b038216611e1a5760405162461bcd60e51b815260206004820152601e60248201527f5f617070726f76653a3a7370656e646572207a65726f206164647265737300006044820152606401610d7f565b6001600160a01b0383811660008181526003602090815260408083209487168084529482529182902085905590518481527f8c5be1e5ebec7d5bd14f71427d1e84f3dd0314c0f7b2291e5b200ac8c7c3b92591015b60405180910390a3505050565b60008184841115611ea05760405162461bcd60e51b8152600401610d7f919061336d565b505050900390565b6001600160a01b038216611f1b5760405162461bcd60e51b815260206004820152603460248201527f5f7472616e73666572546f6b656e733a2063616e6e6f74207472616e7366657260448201527320746f20746865207a65726f206164647265737360601b6064820152608401610d7f565b611f58816040518060600160405280602e81526020016138c0602e91396001600160a01b0386166000908152600460205260409020549190611e7c565b6001600160a01b038085166000908152600460205260408082209390935590841681522054611f879082611d62565b6001600160a01b0380841660008181526004602052604090819020939093559151908516907fddf252ad1be2c89b69c2b068fc378daa952ba7f163c4a11628f55a4df523b3ef90611e6f9085815260200190565b6000811161203e5760405162461bcd60e51b815260206004820152602a60248201527f42656e71695374726174656779466f724c503a3a5f77697468647261774465706044820152696f736974546f6b656e7360b01b6064820152608401610d7f565b60135460405163db006a7560e01b8152600481018390526001600160a01b039091169063db006a75906024015b600060405180830381600087803b15801561208557600080fd5b505af1158015610d4e573d6000803e3d6000fd5b60405163a9059cbb60e01b81526001600160a01b0383811660048301526024820183905284169063a9059cbb906044016020604051808303816000875af11580156120e8573d6000803e3d6000fd5b505050506040513d601f19601f8201168201806040525081019061210c9190613614565b6121695760405162461bcd60e51b815260206004820152602860248201527f42656e71695374726174656779466f724c503a3a5452414e534645525f46524f6044820152671357d1905253115160c21b6064820152608401610d7f565b505050565b6121ab81604051806060016040528060278152602001613899602791396001600160a01b0385166000908152600460205260409020549190611e7c565b60046000846001600160a01b03166001600160a01b03168152602001908152602001600020819055506121fb81604051806060016040528060278152602001613843602791396002549190611e7c565b6002556040518181526000906001600160a01b038416907fddf252ad1be2c89b69c2b068fc378daa952ba7f163c4a11628f55a4df523b3ef906020015b60405180910390a35050565b6000610c238284613713565b600754156122d3573360009081526008602052604090205460ff1615156001146122d35760405162461bcd60e51b815260206004820152602e60248201527f5065726d697373696f6e65643a3a6f6e6c79416c6c6f7765644465706f73697460448201526d1ccb081b9bdd08185b1b1bddd95960921b6064820152608401610d7f565b600f5460ff16151560011461232a5760405162461bcd60e51b815260206004820152601c60248201527f42656e71695374726174656779466f724c503a3a5f6465706f736974000000006044820152606401610d7f565b600e54156123585760008061233d61245c565b9250925050600e5481111561235557612355826126a7565b50505b600a546040516323b872dd60e01b81526001600160a01b03848116600483015230602483015260448201849052909116906323b872dd906064016020604051808303816000875af11580156123b1573d6000803e3d6000fd5b505050506040513d601f19601f820116820180604052508101906123d59190613614565b6123de57600080fd5b6123e781612889565b6123f9826123f483611a33565b61291a565b6009546124069082611d62565b6009556040518181526001600160a01b038316907fe1fffcc4923d04b559f4d29a8bfc6cda04eb5b0d3c460751c2402c5c5cc9109c90602001610ca5565b6000610c23828461372a565b6000610c238284613749565b601354604051633d8b3efd60e11b815260006004820181905291829182916001600160a01b031690637b167dfa90602401602060405180830381865afa1580156124aa573d6000803e3d6000fd5b505050506040513d601f19601f820116820180604052508101906124ce91906135c6565b601354604051633d8b3efd60e11b8152600160048201529194506001600160a01b031690637b167dfa90602401602060405180830381865afa158015612518573d6000803e3d6000fd5b505050506040513d601f19601f8201168201806040525081019061253c91906135c6565b6015546014546016549294506000926125679286926001600160a01b0391821692908216911661299e565b90506125738482611d62565b915050909192565b6000612585611b26565b60405161190160f01b602082015260228101919091526042810186905260620160408051601f198184030181528282528051602091820120600080855291840180845281905260ff88169284019290925260608301869052608083018590529092509060019060a0016020604051602081039080840390855afa158015612610573d6000803e3d6000fd5b5050604051601f1901519150506001600160a01b038116158015906126465750866001600160a01b0316816001600160a01b0316145b61269e5760405162461bcd60e51b8152602060048201526024808201527f417263683a3a76616c69646174655369673a20696e76616c6964207369676e616044820152637475726560e01b6064820152608401610d7f565b50505050505050565b601360009054906101000a90046001600160a01b03166001600160a01b031663372500ab6040518163ffffffff1660e01b8152600401600060405180830381600087803b1580156126f757600080fd5b505af115801561270b573d6000803e3d6000fd5b5047925050811590506127815773b31f66aa3c1e785363f0875a1b74e27b85fd66c76001600160a01b031663d0e30db0826040518263ffffffff1660e01b81526004016000604051808303818588803b15801561276757600080fd5b505af115801561277b573d6000803e3d6000fd5b50505050505b600082116127d15760405162461bcd60e51b815260206004820152601d60248201527f42656e71695374726174656779466f724c503a3a5f7265696e766573740000006044820152606401610d7f565b6015546014546016546000926127f99286926001600160a01b03928316929182169116612a5c565b905060006128078383611d62565b601454909150600090612823906001600160a01b031683612bd0565b905061282e81612889565b60095461283b9082611d62565b60098190556002546040517fc7606d21ac05cd309191543e409f0845c016120563783d70e4f41419dc0ef2349261287a92908252602082015260400190565b60405180910390a15050505050565b600081116128e95760405162461bcd60e51b815260206004820152602760248201527f42656e71695374726174656779466f724c503a3a5f7374616b654465706f736960448201526674546f6b656e7360c81b6064820152608401610d7f565b60135460405163b6b55f2560e01b8152600481018390526001600160a01b039091169063b6b55f259060240161206b565b6002546129279082611d62565b6002556001600160a01b03821660009081526004602052604090205461294d9082611d62565b6001600160a01b0383166000818152600460205260408082209390935591519091907fddf252ad1be2c89b69c2b068fc378daa952ba7f163c4a11628f55a4df523b3ef906122389085815260200190565b6000806129ab8585612c79565b509050600080846001600160a01b0316630902f1ac6040518163ffffffff1660e01b8152600401606060405180830381865afa1580156129ef573d6000803e3d6000fd5b505050506040513d601f19601f82011682018060405250810190612a139190613782565b5091509150866001600160a01b0316836001600160a01b031614612a3357905b612a5088836001600160701b0316836001600160701b0316612caa565b98975050505050505050565b600080612a698585612c79565b509050600080846001600160a01b0316630902f1ac6040518163ffffffff1660e01b8152600401606060405180830381865afa158015612aad573d6000803e3d6000fd5b505050506040513d601f19601f82011682018060405250810190612ad19190613782565b5091509150866001600160a01b0316836001600160a01b031614612af157905b600080612b118a856001600160701b0316856001600160701b0316612caa565b9050886001600160a01b0316856001600160a01b031614612b2e57905b612b426001600160a01b038a16888c612cf8565b6040805160008152602081019182905263022c0d9f60e01b9091526001600160a01b0388169063022c0d9f90612b8190859085903090602481016137d2565b600060405180830381600087803b158015612b9b57600080fd5b505af1158015612baf573d6000803e3d6000fd5b50505050818111612bc05781612bc2565b805b9a9950505050505050505050565b600080612bee6127106117ed6012548661244490919063ffffffff16565b90508015612c0e57600c54612c0e9085906001600160a01b031683612099565b6000612c2b6127106117ed6011548761244490919063ffffffff16565b90508015612c3e57612c3e853383612099565b612c70612c5582612c4f8786612244565b90612244565b600a5460165488916001600160a01b03908116911680612d4a565b95945050505050565b600080826001600160a01b0316846001600160a01b031610612c9c578284612c9f565b83835b915091509250929050565b600080612cb9856103e5612444565b90506000612cc78285612444565b90506000612ce183612cdb886103e8612444565b90611d62565b9050612ced8282612450565b979650505050505050565b604080516001600160a01b038416602482015260448082018490528251808303909101815260649091019091526020810180516001600160e01b031663a9059cbb60e01b179052612169908490612eee565b600080612d58876002612450565b905060008111612dc25760405162461bcd60e51b815260206004820152602f60248201527f4465784c6962726172793a3a5f636f6e76657274526577617264546f6b656e7360448201526e546f4465706f736974546f6b656e7360881b6064820152608401610d7f565b6000856001600160a01b0316630dfe16816040518163ffffffff1660e01b8152600401602060405180830381865afa158015612e02573d6000803e3d6000fd5b505050506040513d601f19601f82011682018060405250810190612e269190613809565b9050816001600160a01b0388811690831614612e4b57612e4883898489612a5c565b90505b6000876001600160a01b031663d21220a76040518163ffffffff1660e01b8152600401602060405180830381865afa158015612e8b573d6000803e3d6000fd5b505050506040513d601f19601f82011682018060405250810190612eaf9190613809565b9050836001600160a01b038a811690831614612ed457612ed1858b848a612a5c565b90505b612edf898483612fc0565b9b9a5050505050505050505050565b6000612f43826040518060400160405280602081526020017f5361666545524332303a206c6f772d6c6576656c2063616c6c206661696c6564815250856001600160a01b031661319c9092919063ffffffff16565b8051909150156121695780806020019051810190612f619190613614565b6121695760405162461bcd60e51b815260206004820152602a60248201527f5361666545524332303a204552433230206f7065726174696f6e20646964206e6044820152691bdd081cdd58d8d9595960b21b6064820152608401610d7f565b6000806000856001600160a01b0316630902f1ac6040518163ffffffff1660e01b8152600401606060405180830381865afa158015613003573d6000803e3d6000fd5b505050506040513d601f19601f820116820180604052508101906130279190613782565b5091509150600061304b86846001600160701b0316846001600160701b03166131ab565b9050848111156130785784905061307585836001600160701b0316856001600160701b03166131ab565b95505b6130ef8787896001600160a01b0316630dfe16816040518163ffffffff1660e01b8152600401602060405180830381865afa1580156130bb573d6000803e3d6000fd5b505050506040513d601f19601f820116820180604052508101906130df9190613809565b6001600160a01b03169190612cf8565b6131328782896001600160a01b031663d21220a76040518163ffffffff1660e01b8152600401602060405180830381865afa1580156130bb573d6000803e3d6000fd5b6040516335313c2160e11b81523060048201526001600160a01b03881690636a627842906024016020604051808303816000875af1158015613178573d6000803e3d6000fd5b505050506040513d601f19601f82011682018060405250810190612ced91906135c6565b606061180c84846000856131bb565b600061180c836117ed8685612444565b60608247101561321c5760405162461bcd60e51b815260206004820152602660248201527f416464726573733a20696e73756666696369656e742062616c616e636520666f6044820152651c8818d85b1b60d21b6064820152608401610d7f565b6001600160a01b0385163b6132735760405162461bcd60e51b815260206004820152601d60248201527f416464726573733a2063616c6c20746f206e6f6e2d636f6e74726163740000006044820152606401610d7f565b600080866001600160a01b0316858760405161328f9190613826565b60006040518083038185875af1925050503d80600081146132cc576040519150601f19603f3d011682016040523d82523d6000602084013e6132d1565b606091505b5091509150612ced828286606083156132eb575081610c23565b8251156132fb5782518084602001fd5b8160405162461bcd60e51b8152600401610d7f919061336d565b60005b83811015613330578181015183820152602001613318565b838111156117a95750506000910152565b60008151808452613359816020860160208601613315565b601f01601f19169290920160200192915050565b602081526000610c236020830184613341565b6001600160a01b03811681146117b957600080fd5b600080604083850312156133a857600080fd5b82356133b381613380565b946020939093013593505050565b6000806000606084860312156133d657600080fd5b83356133e181613380565b925060208401356133f181613380565b929592945050506040919091013590565b60006020828403121561341457600080fd5b5035919050565b60006020828403121561342d57600080fd5b8135610c2381613380565b803560ff8116811461344957600080fd5b919050565b600080600080600060a0868803121561346657600080fd5b853594506020860135935061347d60408701613438565b94979396509394606081013594506080013592915050565b80151581146117b957600080fd5b6000602082840312156134b557600080fd5b8135610c2381613495565b600080604083850312156134d357600080fd5b82356134de81613380565b915060208301356134ee81613380565b809150509250929050565b6000806040838503121561350c57600080fd5b8235915060208301356134ee81613495565b600080600080600080600060e0888a03121561353957600080fd5b873561354481613380565b9650602088013561355481613380565b9550604088013594506060880135935061357060808901613438565b925060a0880135915060c0880135905092959891949750929550565b600181811c908216806135a057607f821691505b6020821081036135c057634e487b7160e01b600052602260045260246000fd5b50919050565b6000602082840312156135d857600080fd5b5051919050565b6020808252818101527f4f776e61626c653a2063616c6c6572206973206e6f7420746865206f776e6572604082015260600190565b60006020828403121561362657600080fd5b8151610c2381613495565b634e487b7160e01b600052601160045260246000fd5b60006001820161365957613659613631565b5060010190565b600080835481600182811c91508083168061367c57607f831692505b6020808410820361369b57634e487b7160e01b86526022600452602486fd5b8180156136af57600181146136c0576136ed565b60ff198616895284890196506136ed565b60008a81526020902060005b868110156136e55781548b8201529085019083016136cc565b505084890196505b509498975050505050505050565b6000821982111561370e5761370e613631565b500190565b60008282101561372557613725613631565b500390565b600081600019048311821515161561374457613744613631565b500290565b60008261376657634e487b7160e01b600052601260045260246000fd5b500490565b80516001600160701b038116811461344957600080fd5b60008060006060848603121561379757600080fd5b6137a08461376b565b92506137ae6020850161376b565b9150604084015163ffffffff811681146137c757600080fd5b809150509250925092565b84815283602082015260018060a01b03831660408201526080606082015260006137ff6080830184613341565b9695505050505050565b60006020828403121561381b57600080fd5b8151610c2381613380565b60008251613838818460208701613315565b919091019291505056fe5f6275726e3a206275726e20616d6f756e74206578636565647320746f74616c20737570706c797472616e7366657246726f6d3a207472616e7366657220616d6f756e74206578636565647320616c6c6f77616e63655f6275726e3a206275726e20616d6f756e7420657863656564732066726f6d2062616c616e63655f7472616e73666572546f6b656e733a207472616e7366657220657863656564732066726f6d2062616c616e6365a2646970667358221220738e19067da7644b376ce1b2ef957ff32e34f8a0e2f8d080132400622a915edc64736f6c634300080d00334f776e61626c653a2063616c6c6572206973206e6f7420746865206f776e65728be0079c531659141344cd1fd0a4f28419497f9722a3daafe3b4186f6b6457e0",
    "linkReferences": {}
  },
  "methodIdentifiers": {
    "ADMIN_FEE_BIPS()": "07677111",
    "DEPOSITS_ENABLED()": "b52a321f",
    "DEV_FEE_BIPS()": "5ea682ea",
    "DOMAIN_TYPEHASH()": "20606b70",
    "MAX_TOKENS_TO_DEPOSIT_WITHOUT_REINVEST()": "789139bc",
    "MIN_TOKENS_TO_REINVEST()": "bd079f55",
    "PERMIT_TYPEHASH()": "30adf81f",
    "REINVEST_REWARD_BIPS()": "8aff733d",
    "VERSION_HASH()": "9e4e7318",
    "allowDepositor(address)": "4bebd1e7",
    "allowance(address,address)": "dd62ed3e",
    "allowedDepositors(address)": "483c2ef0",
    "approve(address,uint256)": "095ea7b3",
    "balanceOf(address)": "70a08231",
    "checkReward()": "c4b24a46",
    "decimals()": "313ce567",
    "deposit(uint256)": "b6b55f25",
    "depositFor(address,uint256)": "2f4f21e2",
    "depositToken()": "c89039c5",
    "depositWithPermit(uint256,uint256,uint8,bytes32,bytes32)": "4a970be7",
    "devAddr()": "da09c72c",
    "estimateDeployedBalance()": "0f23475d",
    "estimateReinvestReward()": "b9e57b80",
    "getDepositTokensForShares(uint256)": "eab89a5a",
    "getDomainSeparator()": "ed24911d",
    "getSharesForDepositTokens(uint256)": "dd8ce4d6",
    "name()": "06fdde03",
    "nonces(address)": "7ecebe00",
    "numberOfAllowedDepositors()": "3bdc6e72",
    "owner()": "8da5cb5b",
    "permit(address,address,uint256,uint256,uint8,bytes32,bytes32)": "d505accf",
    "recoverAVAX(uint256)": "4ebb7916",
    "recoverERC20(address,uint256)": "8980f11f",
    "reinvest()": "fdb5a03e",
    "removeDepositor(address)": "8b73e606",
    "renounceOwnership()": "715018a6",
    "rescueDeployedFunds(uint256,bool)": "ac0d31ff",
    "revokeAllowance(address,address)": "7ae26773",
    "rewardToken()": "f7c618c1",
    "setAllowances()": "dbd9a4d4",
    "symbol()": "95d89b41",
    "totalDeposits()": "7d882097",
    "totalSupply()": "18160ddd",
    "transfer(address,uint256)": "a9059cbb",
    "transferFrom(address,address,uint256)": "23b872dd",
    "transferOwnership(address)": "f2fde38b",
    "updateAdminFee(uint256)": "cff1b6ef",
    "updateDepositsEnabled(bool)": "4e77ace5",
    "updateDevAddr(address)": "9291d563",
    "updateDevFee(uint256)": "99729ec1",
    "updateMaxTokensToDepositWithoutReinvest(uint256)": "e21ac825",
    "updateMinTokensToReinvest(uint256)": "81837230",
    "updateReinvestReward(uint256)": "a8ae2b7c",
    "withdraw(uint256)": "2e1a7d4d"
  },
  "id": 58
}