{
  "abi": [
    {
      "inputs": [
        {
          "internalType": "address",
          "name": "_voter",
          "type": "address"
        },
        {
          "internalType": "address",
          "name": "_devAddr",
          "type": "address"
        },
        {
          "internalType": "uint256",
          "name": "_boosterFeeBips",
          "type": "uint256"
        },
        {
          "internalType": "address",
          "name": "_boosterFeeReceiver",
          "type": "address"
        }
      ],
      "stateMutability": "nonpayable",
      "type": "constructor"
    },
    {
      "inputs": [
        {
          "internalType": "address",
          "name": "_stakingContract",
          "type": "address"
        },
        {
          "internalType": "address",
          "name": "_strategy",
          "type": "address"
        }
      ],
      "name": "approveStrategy",
      "outputs": [],
      "stateMutability": "nonpayable",
      "type": "function"
    },
    {
      "inputs": [],
      "name": "boosterFee",
      "outputs": [
        {
          "internalType": "uint256",
          "name": "",
          "type": "uint256"
        }
      ],
      "stateMutability": "view",
      "type": "function"
    },
    {
      "inputs": [],
      "name": "boosterFeeReceiver",
      "outputs": [
        {
          "internalType": "address",
          "name": "",
          "type": "address"
        }
      ],
      "stateMutability": "view",
      "type": "function"
    },
    {
      "inputs": [
        {
          "internalType": "address",
          "name": "_stakingContract",
          "type": "address"
        }
      ],
      "name": "claimReward",
      "outputs": [],
      "stateMutability": "nonpayable",
      "type": "function"
    },
    {
      "inputs": [
        {
          "internalType": "address",
          "name": "_stakingContract",
          "type": "address"
        },
        {
          "internalType": "address",
          "name": "_token",
          "type": "address"
        },
        {
          "internalType": "uint256",
          "name": "_amount",
          "type": "uint256"
        }
      ],
      "name": "deposit",
      "outputs": [],
      "stateMutability": "nonpayable",
      "type": "function"
    },
    {
      "inputs": [],
      "name": "devAddr",
      "outputs": [
        {
          "internalType": "address",
          "name": "",
          "type": "address"
        }
      ],
      "stateMutability": "view",
      "type": "function"
    },
    {
      "inputs": [
        {
          "internalType": "address",
          "name": "_stakingContract",
          "type": "address"
        },
        {
          "internalType": "address",
          "name": "_token",
          "type": "address"
        }
      ],
      "name": "emergencyWithdraw",
      "outputs": [],
      "stateMutability": "nonpayable",
      "type": "function"
    },
    {
      "inputs": [
        {
          "internalType": "address",
          "name": "_stakingContract",
          "type": "address"
        }
      ],
      "name": "pendingRewards",
      "outputs": [
        {
          "internalType": "uint256",
          "name": "pendingYETI",
          "type": "uint256"
        }
      ],
      "stateMutability": "view",
      "type": "function"
    },
    {
      "inputs": [
        {
          "internalType": "address",
          "name": "_stakingContract",
          "type": "address"
        }
      ],
      "name": "poolBalance",
      "outputs": [
        {
          "internalType": "uint256",
          "name": "balance",
          "type": "uint256"
        }
      ],
      "stateMutability": "view",
      "type": "function"
    },
    {
      "inputs": [
        {
          "internalType": "uint256",
          "name": "_boosterFeeBips",
          "type": "uint256"
        }
      ],
      "name": "setBoosterFee",
      "outputs": [],
      "stateMutability": "nonpayable",
      "type": "function"
    },
    {
      "inputs": [
        {
          "internalType": "address",
          "name": "_boosterFeeReceiver",
          "type": "address"
        }
      ],
      "name": "setBoosterFeeReceiver",
      "outputs": [],
      "stateMutability": "nonpayable",
      "type": "function"
    },
    {
      "inputs": [
        {
          "internalType": "address",
          "name": "newValue",
          "type": "address"
        }
      ],
      "name": "updateDevAddr",
      "outputs": [],
      "stateMutability": "nonpayable",
      "type": "function"
    },
    {
      "inputs": [],
      "name": "voter",
      "outputs": [
        {
          "internalType": "contract IYetiVoter",
          "name": "",
          "type": "address"
        }
      ],
      "stateMutability": "view",
      "type": "function"
    },
    {
      "inputs": [
        {
          "internalType": "address",
          "name": "_stakingContract",
          "type": "address"
        },
        {
          "internalType": "address",
          "name": "_token",
          "type": "address"
        },
        {
          "internalType": "uint256",
          "name": "_amount",
          "type": "uint256"
        }
      ],
      "name": "withdraw",
      "outputs": [],
      "stateMutability": "nonpayable",
      "type": "function"
    }
  ],
  "bytecode": {
    "object": "0x60a060405234801561001057600080fd5b50604051620014493803806200144983398101604081905261003191610089565b600080546001600160a01b03199081166001600160a01b03958616179091559383166080526001919091556002805490931691161790556100d6565b80516001600160a01b038116811461008457600080fd5b919050565b6000806000806080858703121561009f57600080fd5b6100a88561006d565b93506100b66020860161006d565b9250604085015191506100cb6060860161006d565b905092959194509250565b60805161130a6200013f6000396000818161011a01528181610247015281816104230152818161049d015281816104e3015281816105ad0152818161062c015281816106a2015281816108ad015281816109ab01528181610a1f0152610ade015261130a6000f3fe608060405234801561001057600080fd5b50600436106100ea5760003560e01c80638340f5491161008c578063c494448e11610066578063c494448e146101e4578063d279c191146101f7578063d9caed121461020a578063da09c72c1461021d57600080fd5b80638340f549146101ab578063865710f0146101be5780639291d563146101d157600080fd5b80636382d9ad116100c85780636382d9ad1461016957806368abb5e01461017c578063781a29d11461018f578063792a230f1461019857600080fd5b806331d7a262146100ef57806346c96aac14610115578063491cad2914610154575b600080fd5b6101026100fd366004610f52565b610230565b6040519081526020015b60405180910390f35b61013c7f000000000000000000000000000000000000000000000000000000000000000081565b6040516001600160a01b03909116815260200161010c565b610167610162366004610f52565b6102d9565b005b610167610177366004610f6d565b61032e565b61010261018a366004610f52565b6104cc565b61010260015481565b60025461013c906001600160a01b031681565b6101676101b9366004610fa0565b610563565b6101676101cc366004610fdc565b6106f5565b6101676101df366004610f52565b610724565b6101676101f2366004610f6d565b610770565b610167610205366004610f52565b61083f565b610167610218366004610fa0565b610a4e565b60005461013c906001600160a01b031681565b60405163c031a66f60e01b81526001600160a01b037f0000000000000000000000000000000000000000000000000000000000000000811660048301526000919083169063c031a66f90602401602060405180830381865afa15801561029a573d6000803e3d6000fd5b505050506040513d601f19601f820116820180604052508101906102be9190610ff5565b90506102d36102cc82610ac4565b8290610b89565b92915050565b6000546001600160a01b0316331461030c5760405162461bcd60e51b81526004016103039061100e565b60405180910390fd5b600280546001600160a01b0319166001600160a01b0392909216919091179055565b6001600160a01b0380831660009081526003602052604090205483911633146103695760405162461bcd60e51b815260040161030390611045565b6040516303455daf60e51b81526001600160a01b038416600482015260009030906368abb5e090602401602060405180830381865afa1580156103b0573d6000803e3d6000fd5b505050506040513d601f19601f820116820180604052508101906103d49190610ff5565b905061044b846000836040516024016103ef91815260200190565b60408051601f198184030181529190526020810180516001600160e01b0316632e1a7d4d60e01b1790526001600160a01b037f000000000000000000000000000000000000000000000000000000000000000016929190610b9c565b50604051336024820152604481018290526104c59084906000906064015b60408051601f198184030181529190526020810180516001600160e01b031663a9059cbb60e01b1790526001600160a01b037f000000000000000000000000000000000000000000000000000000000000000016929190610b9c565b5050505050565b604051630cacd00160e11b81526001600160a01b037f00000000000000000000000000000000000000000000000000000000000000008116600483015260009190831690631959a00290602401606060405180830381865afa158015610536573d6000803e3d6000fd5b505050506040513d601f19601f8201168201806040525081019061055a919061107c565b50909392505050565b6001600160a01b03808416600090815260036020526040902054849116331461059e5760405162461bcd60e51b815260040161030390611045565b6105d26001600160a01b0384167f000000000000000000000000000000000000000000000000000000000000000084610c7e565b6040516001600160a01b0385166024820152604481018390526106549084906000906064015b60408051601f198184030181529190526020810180516001600160e01b031663095ea7b360e01b1790526001600160a01b037f000000000000000000000000000000000000000000000000000000000000000016929190610b9c565b506106ca8460008460405160240161066e91815260200190565b60408051601f198184030181529190526020810180516001600160e01b031663b6b55f2560e01b1790526001600160a01b037f000000000000000000000000000000000000000000000000000000000000000016929190610b9c565b506040516001600160a01b03851660248201526000604482018190526104c5918591906064016105f8565b6000546001600160a01b0316331461071f5760405162461bcd60e51b81526004016103039061100e565b600155565b6000546001600160a01b0316331461074e5760405162461bcd60e51b81526004016103039061100e565b600080546001600160a01b0319166001600160a01b0392909216919091179055565b6000546001600160a01b0316331461079a5760405162461bcd60e51b81526004016103039061100e565b6001600160a01b0382811660009081526003602052604090205416156108115760405162461bcd60e51b815260206004820152602660248201527f59657469566f74657250726f78793a3a537472617465677920616c726561647960448201526508185919195960d21b6064820152608401610303565b6001600160a01b03918216600090815260036020526040902080546001600160a01b03191691909216179055565b6001600160a01b03808216600090815260036020526040902054829116331461087a5760405162461bcd60e51b815260040161030390611045565b604051600060248201819052610895918491906044016103ef565b506040516370a0823160e01b81526001600160a01b037f00000000000000000000000000000000000000000000000000000000000000001660048201526000907377777777777d4554c39223c354a05825b2e8faa3906370a0823190602401602060405180830381865afa158015610911573d6000803e3d6000fd5b505050506040513d601f19601f820116820180604052508101906109359190610ff5565b90508015610a4957600061094882610ac4565b905060006109568383610b89565b6040513360248201526044810182905290915061098e907377777777777d4554c39223c354a05825b2e8faa390600090606401610469565b5081156104c557604051637c0bb4ab60e01b8152600481018390527f00000000000000000000000000000000000000000000000000000000000000006001600160a01b031690637c0bb4ab90602401600060405180830381600087803b1580156109f757600080fd5b505af1158015610a0b573d6000803e3d6000fd5b50506002546104c592506001600160a01b037f0000000000000000000000000000000000000000000000000000000000000000811692501684610c7e565b505050565b6001600160a01b038084166000908152600360205260409020548491163314610a895760405162461bcd60e51b815260040161030390611045565b610aa2846000846040516024016103ef91815260200190565b50604051336024820152604481018390526104c5908490600090606401610469565b6002546000906001600160a01b031615801590610b5e57507f00000000000000000000000000000000000000000000000000000000000000006001600160a01b0316635392fd1c6040518163ffffffff1660e01b8152600401602060405180830381865afa158015610b3a573d6000803e3d6000fd5b505050506040513d601f19601f82011682018060405250810190610b5e91906110ba565b15610b84576102d3612710610b7e60015485610cd090919063ffffffff16565b90610cdc565b919050565b6000610b9582846110eb565b9392505050565b6060600080866001600160a01b031663b61d27f68787876040518463ffffffff1660e01b8152600401610bd19392919061115e565b6000604051808303816000875af1158015610bf0573d6000803e3d6000fd5b505050506040513d6000823e601f3d908101601f19168201604052610c1891908101906111a4565b9150915081610c745760405162461bcd60e51b815260206004820152602260248201527f59657469566f74657250726f78793a3a7361666545786563757465206661696c604482015261195960f21b6064820152608401610303565b9695505050505050565b604080516001600160a01b038416602482015260448082018490528251808303909101815260649091019091526020810180516001600160e01b031663a9059cbb60e01b179052610a49908490610ce8565b6000610b958284611264565b6000610b958284611283565b6000610d3d826040518060400160405280602081526020017f5361666545524332303a206c6f772d6c6576656c2063616c6c206661696c6564815250856001600160a01b0316610dba9092919063ffffffff16565b805190915015610a495780806020019051810190610d5b91906110ba565b610a495760405162461bcd60e51b815260206004820152602a60248201527f5361666545524332303a204552433230206f7065726174696f6e20646964206e6044820152691bdd081cdd58d8d9595960b21b6064820152608401610303565b6060610dc98484600085610dd1565b949350505050565b606082471015610e325760405162461bcd60e51b815260206004820152602660248201527f416464726573733a20696e73756666696369656e742062616c616e636520666f6044820152651c8818d85b1b60d21b6064820152608401610303565b6001600160a01b0385163b610e895760405162461bcd60e51b815260206004820152601d60248201527f416464726573733a2063616c6c20746f206e6f6e2d636f6e74726163740000006044820152606401610303565b600080866001600160a01b03168587604051610ea591906112a5565b60006040518083038185875af1925050503d8060008114610ee2576040519150601f19603f3d011682016040523d82523d6000602084013e610ee7565b606091505b5091509150610ef7828286610f02565b979650505050505050565b60608315610f11575081610b95565b825115610f215782518084602001fd5b8160405162461bcd60e51b815260040161030391906112c1565b80356001600160a01b0381168114610b8457600080fd5b600060208284031215610f6457600080fd5b610b9582610f3b565b60008060408385031215610f8057600080fd5b610f8983610f3b565b9150610f9760208401610f3b565b90509250929050565b600080600060608486031215610fb557600080fd5b610fbe84610f3b565b9250610fcc60208501610f3b565b9150604084013590509250925092565b600060208284031215610fee57600080fd5b5035919050565b60006020828403121561100757600080fd5b5051919050565b60208082526017908201527f59657469566f74657250726f78793a3a6f6e6c79446576000000000000000000604082015260600190565b6020808252601c908201527f59657469566f74657250726f78793a3a6f6e6c79537472617465677900000000604082015260600190565b60008060006060848603121561109157600080fd5b8351925060208401519150604084015190509250925092565b80518015158114610b8457600080fd5b6000602082840312156110cc57600080fd5b610b95826110aa565b634e487b7160e01b600052601160045260246000fd5b6000828210156110fd576110fd6110d5565b500390565b60005b8381101561111d578181015183820152602001611105565b8381111561112c576000848401525b50505050565b6000815180845261114a816020860160208601611102565b601f01601f19169290920160200192915050565b60018060a01b03841681528260208201526060604082015260006111856060830184611132565b95945050505050565b634e487b7160e01b600052604160045260246000fd5b600080604083850312156111b757600080fd5b6111c0836110aa565b9150602083015167ffffffffffffffff808211156111dd57600080fd5b818501915085601f8301126111f157600080fd5b8151818111156112035761120361118e565b604051601f8201601f19908116603f0116810190838211818310171561122b5761122b61118e565b8160405282815288602084870101111561124457600080fd5b611255836020830160208801611102565b80955050505050509250929050565b600081600019048311821515161561127e5761127e6110d5565b500290565b6000826112a057634e487b7160e01b600052601260045260246000fd5b500490565b600082516112b7818460208701611102565b9190910192915050565b602081526000610b95602083018461113256fea2646970667358221220999e5af861eb2971da43619880a8abaef91c3e0e264badcc897140e05831eef664736f6c634300080d0033",
    "linkReferences": {}
  },
  "methodIdentifiers": {
    "approveStrategy(address,address)": "c494448e",
    "boosterFee()": "781a29d1",
    "boosterFeeReceiver()": "792a230f",
    "claimReward(address)": "d279c191",
    "deposit(address,address,uint256)": "8340f549",
    "devAddr()": "da09c72c",
    "emergencyWithdraw(address,address)": "6382d9ad",
    "pendingRewards(address)": "31d7a262",
    "poolBalance(address)": "68abb5e0",
    "setBoosterFee(uint256)": "865710f0",
    "setBoosterFeeReceiver(address)": "491cad29",
    "updateDevAddr(address)": "9291d563",
    "voter()": "46c96aac",
    "withdraw(address,address,uint256)": "d9caed12"
  },
  "id": 165
}