{
  "abi": [
    {
      "inputs": [
        {
          "internalType": "string",
          "name": "_name",
          "type": "string"
        },
        {
          "internalType": "address",
          "name": "_depositToken",
          "type": "address"
        },
        {
          "internalType": "address",
          "name": "_swapPairToken",
          "type": "address"
        },
        {
          "internalType": "address",
          "name": "_gmxProxy",
          "type": "address"
        },
        {
          "internalType": "address",
          "name": "_timelock",
          "type": "address"
        },
        {
          "components": [
            {
              "internalType": "uint256",
              "name": "minTokensToReinvest",
              "type": "uint256"
            },
            {
              "internalType": "uint256",
              "name": "devFeeBips",
              "type": "uint256"
            },
            {
              "internalType": "uint256",
              "name": "reinvestRewardBips",
              "type": "uint256"
            }
          ],
          "internalType": "struct YakStrategyV2.StrategySettings",
          "name": "_strategySettings",
          "type": "tuple"
        }
      ],
      "stateMutability": "nonpayable",
      "type": "constructor"
    },
    {
      "anonymous": false,
      "inputs": [
        {
          "indexed": true,
          "internalType": "address",
          "name": "account",
          "type": "address"
        }
      ],
      "name": "AllowDepositor",
      "type": "event"
    },
    {
      "anonymous": false,
      "inputs": [
        {
          "indexed": true,
          "internalType": "address",
          "name": "owner",
          "type": "address"
        },
        {
          "indexed": true,
          "internalType": "address",
          "name": "spender",
          "type": "address"
        },
        {
          "indexed": false,
          "internalType": "uint256",
          "name": "value",
          "type": "uint256"
        }
      ],
      "name": "Approval",
      "type": "event"
    },
    {
      "anonymous": false,
      "inputs": [
        {
          "indexed": true,
          "internalType": "address",
          "name": "account",
          "type": "address"
        },
        {
          "indexed": false,
          "internalType": "uint256",
          "name": "amount",
          "type": "uint256"
        }
      ],
      "name": "Deposit",
      "type": "event"
    },
    {
      "anonymous": false,
      "inputs": [
        {
          "indexed": false,
          "internalType": "bool",
          "name": "newValue",
          "type": "bool"
        }
      ],
      "name": "DepositsEnabled",
      "type": "event"
    },
    {
      "anonymous": false,
      "inputs": [
        {
          "indexed": true,
          "internalType": "address",
          "name": "previousOwner",
          "type": "address"
        },
        {
          "indexed": true,
          "internalType": "address",
          "name": "newOwner",
          "type": "address"
        }
      ],
      "name": "OwnershipTransferred",
      "type": "event"
    },
    {
      "anonymous": false,
      "inputs": [
        {
          "indexed": false,
          "internalType": "address",
          "name": "token",
          "type": "address"
        },
        {
          "indexed": false,
          "internalType": "uint256",
          "name": "amount",
          "type": "uint256"
        }
      ],
      "name": "Recovered",
      "type": "event"
    },
    {
      "anonymous": false,
      "inputs": [
        {
          "indexed": false,
          "internalType": "uint256",
          "name": "newTotalDeposits",
          "type": "uint256"
        },
        {
          "indexed": false,
          "internalType": "uint256",
          "name": "newTotalSupply",
          "type": "uint256"
        }
      ],
      "name": "Reinvest",
      "type": "event"
    },
    {
      "anonymous": false,
      "inputs": [
        {
          "indexed": true,
          "internalType": "address",
          "name": "account",
          "type": "address"
        }
      ],
      "name": "RemoveDepositor",
      "type": "event"
    },
    {
      "anonymous": false,
      "inputs": [
        {
          "indexed": true,
          "internalType": "address",
          "name": "from",
          "type": "address"
        },
        {
          "indexed": true,
          "internalType": "address",
          "name": "to",
          "type": "address"
        },
        {
          "indexed": false,
          "internalType": "uint256",
          "name": "value",
          "type": "uint256"
        }
      ],
      "name": "Transfer",
      "type": "event"
    },
    {
      "anonymous": false,
      "inputs": [
        {
          "indexed": false,
          "internalType": "uint256",
          "name": "oldValue",
          "type": "uint256"
        },
        {
          "indexed": false,
          "internalType": "uint256",
          "name": "newValue",
          "type": "uint256"
        }
      ],
      "name": "UpdateAdminFee",
      "type": "event"
    },
    {
      "anonymous": false,
      "inputs": [
        {
          "indexed": false,
          "internalType": "address",
          "name": "oldValue",
          "type": "address"
        },
        {
          "indexed": false,
          "internalType": "address",
          "name": "newValue",
          "type": "address"
        }
      ],
      "name": "UpdateDevAddr",
      "type": "event"
    },
    {
      "anonymous": false,
      "inputs": [
        {
          "indexed": false,
          "internalType": "uint256",
          "name": "oldValue",
          "type": "uint256"
        },
        {
          "indexed": false,
          "internalType": "uint256",
          "name": "newValue",
          "type": "uint256"
        }
      ],
      "name": "UpdateDevFee",
      "type": "event"
    },
    {
      "anonymous": false,
      "inputs": [
        {
          "indexed": false,
          "internalType": "uint256",
          "name": "oldValue",
          "type": "uint256"
        },
        {
          "indexed": false,
          "internalType": "uint256",
          "name": "newValue",
          "type": "uint256"
        }
      ],
      "name": "UpdateMaxTokensToDepositWithoutReinvest",
      "type": "event"
    },
    {
      "anonymous": false,
      "inputs": [
        {
          "indexed": false,
          "internalType": "uint256",
          "name": "oldValue",
          "type": "uint256"
        },
        {
          "indexed": false,
          "internalType": "uint256",
          "name": "newValue",
          "type": "uint256"
        }
      ],
      "name": "UpdateMinTokensToReinvest",
      "type": "event"
    },
    {
      "anonymous": false,
      "inputs": [
        {
          "indexed": false,
          "internalType": "uint256",
          "name": "oldValue",
          "type": "uint256"
        },
        {
          "indexed": false,
          "internalType": "uint256",
          "name": "newValue",
          "type": "uint256"
        }
      ],
      "name": "UpdateReinvestReward",
      "type": "event"
    },
    {
      "anonymous": false,
      "inputs": [
        {
          "indexed": true,
          "internalType": "address",
          "name": "account",
          "type": "address"
        },
        {
          "indexed": false,
          "internalType": "uint256",
          "name": "amount",
          "type": "uint256"
        }
      ],
      "name": "Withdraw",
      "type": "event"
    },
    {
      "inputs": [],
      "name": "ADMIN_FEE_BIPS",
      "outputs": [
        {
          "internalType": "uint256",
          "name": "",
          "type": "uint256"
        }
      ],
      "stateMutability": "view",
      "type": "function"
    },
    {
      "inputs": [],
      "name": "DEPOSITS_ENABLED",
      "outputs": [
        {
          "internalType": "bool",
          "name": "",
          "type": "bool"
        }
      ],
      "stateMutability": "view",
      "type": "function"
    },
    {
      "inputs": [],
      "name": "DEV_FEE_BIPS",
      "outputs": [
        {
          "internalType": "uint256",
          "name": "",
          "type": "uint256"
        }
      ],
      "stateMutability": "view",
      "type": "function"
    },
    {
      "inputs": [],
      "name": "DOMAIN_TYPEHASH",
      "outputs": [
        {
          "internalType": "bytes32",
          "name": "",
          "type": "bytes32"
        }
      ],
      "stateMutability": "view",
      "type": "function"
    },
    {
      "inputs": [],
      "name": "MAX_TOKENS_TO_DEPOSIT_WITHOUT_REINVEST",
      "outputs": [
        {
          "internalType": "uint256",
          "name": "",
          "type": "uint256"
        }
      ],
      "stateMutability": "view",
      "type": "function"
    },
    {
      "inputs": [],
      "name": "MIN_TOKENS_TO_REINVEST",
      "outputs": [
        {
          "internalType": "uint256",
          "name": "",
          "type": "uint256"
        }
      ],
      "stateMutability": "view",
      "type": "function"
    },
    {
      "inputs": [],
      "name": "PERMIT_TYPEHASH",
      "outputs": [
        {
          "internalType": "bytes32",
          "name": "",
          "type": "bytes32"
        }
      ],
      "stateMutability": "view",
      "type": "function"
    },
    {
      "inputs": [],
      "name": "PID",
      "outputs": [
        {
          "internalType": "uint256",
          "name": "",
          "type": "uint256"
        }
      ],
      "stateMutability": "view",
      "type": "function"
    },
    {
      "inputs": [],
      "name": "REINVEST_REWARD_BIPS",
      "outputs": [
        {
          "internalType": "uint256",
          "name": "",
          "type": "uint256"
        }
      ],
      "stateMutability": "view",
      "type": "function"
    },
    {
      "inputs": [],
      "name": "VERSION_HASH",
      "outputs": [
        {
          "internalType": "bytes32",
          "name": "",
          "type": "bytes32"
        }
      ],
      "stateMutability": "view",
      "type": "function"
    },
    {
      "inputs": [
        {
          "internalType": "address",
          "name": "depositor",
          "type": "address"
        }
      ],
      "name": "allowDepositor",
      "outputs": [],
      "stateMutability": "nonpayable",
      "type": "function"
    },
    {
      "inputs": [
        {
          "internalType": "address",
          "name": "account",
          "type": "address"
        },
        {
          "internalType": "address",
          "name": "spender",
          "type": "address"
        }
      ],
      "name": "allowance",
      "outputs": [
        {
          "internalType": "uint256",
          "name": "",
          "type": "uint256"
        }
      ],
      "stateMutability": "view",
      "type": "function"
    },
    {
      "inputs": [
        {
          "internalType": "address",
          "name": "",
          "type": "address"
        }
      ],
      "name": "allowedDepositors",
      "outputs": [
        {
          "internalType": "bool",
          "name": "",
          "type": "bool"
        }
      ],
      "stateMutability": "view",
      "type": "function"
    },
    {
      "inputs": [
        {
          "internalType": "address",
          "name": "spender",
          "type": "address"
        },
        {
          "internalType": "uint256",
          "name": "amount",
          "type": "uint256"
        }
      ],
      "name": "approve",
      "outputs": [
        {
          "internalType": "bool",
          "name": "",
          "type": "bool"
        }
      ],
      "stateMutability": "nonpayable",
      "type": "function"
    },
    {
      "inputs": [
        {
          "internalType": "address",
          "name": "account",
          "type": "address"
        }
      ],
      "name": "balanceOf",
      "outputs": [
        {
          "internalType": "uint256",
          "name": "",
          "type": "uint256"
        }
      ],
      "stateMutability": "view",
      "type": "function"
    },
    {
      "inputs": [],
      "name": "checkReward",
      "outputs": [
        {
          "internalType": "uint256",
          "name": "",
          "type": "uint256"
        }
      ],
      "stateMutability": "view",
      "type": "function"
    },
    {
      "inputs": [],
      "name": "decimals",
      "outputs": [
        {
          "internalType": "uint8",
          "name": "",
          "type": "uint8"
        }
      ],
      "stateMutability": "view",
      "type": "function"
    },
    {
      "inputs": [
        {
          "internalType": "uint256",
          "name": "amount",
          "type": "uint256"
        }
      ],
      "name": "deposit",
      "outputs": [],
      "stateMutability": "nonpayable",
      "type": "function"
    },
    {
      "inputs": [
        {
          "internalType": "address",
          "name": "account",
          "type": "address"
        },
        {
          "internalType": "uint256",
          "name": "amount",
          "type": "uint256"
        }
      ],
      "name": "depositFor",
      "outputs": [],
      "stateMutability": "nonpayable",
      "type": "function"
    },
    {
      "inputs": [],
      "name": "depositToken",
      "outputs": [
        {
          "internalType": "contract IERC20",
          "name": "",
          "type": "address"
        }
      ],
      "stateMutability": "view",
      "type": "function"
    },
    {
      "inputs": [
        {
          "internalType": "uint256",
          "name": "amount",
          "type": "uint256"
        },
        {
          "internalType": "uint256",
          "name": "deadline",
          "type": "uint256"
        },
        {
          "internalType": "uint8",
          "name": "v",
          "type": "uint8"
        },
        {
          "internalType": "bytes32",
          "name": "r",
          "type": "bytes32"
        },
        {
          "internalType": "bytes32",
          "name": "s",
          "type": "bytes32"
        }
      ],
      "name": "depositWithPermit",
      "outputs": [],
      "stateMutability": "nonpayable",
      "type": "function"
    },
    {
      "inputs": [],
      "name": "devAddr",
      "outputs": [
        {
          "internalType": "address",
          "name": "",
          "type": "address"
        }
      ],
      "stateMutability": "view",
      "type": "function"
    },
    {
      "inputs": [],
      "name": "estimateDeployedBalance",
      "outputs": [
        {
          "internalType": "uint256",
          "name": "",
          "type": "uint256"
        }
      ],
      "stateMutability": "view",
      "type": "function"
    },
    {
      "inputs": [],
      "name": "estimateReinvestReward",
      "outputs": [
        {
          "internalType": "uint256",
          "name": "",
          "type": "uint256"
        }
      ],
      "stateMutability": "view",
      "type": "function"
    },
    {
      "inputs": [],
      "name": "extraToken",
      "outputs": [
        {
          "internalType": "address",
          "name": "",
          "type": "address"
        }
      ],
      "stateMutability": "view",
      "type": "function"
    },
    {
      "inputs": [
        {
          "internalType": "uint256",
          "name": "amount",
          "type": "uint256"
        }
      ],
      "name": "getDepositTokensForShares",
      "outputs": [
        {
          "internalType": "uint256",
          "name": "",
          "type": "uint256"
        }
      ],
      "stateMutability": "view",
      "type": "function"
    },
    {
      "inputs": [],
      "name": "getDomainSeparator",
      "outputs": [
        {
          "internalType": "bytes32",
          "name": "",
          "type": "bytes32"
        }
      ],
      "stateMutability": "view",
      "type": "function"
    },
    {
      "inputs": [
        {
          "internalType": "uint256",
          "name": "amount",
          "type": "uint256"
        }
      ],
      "name": "getSharesForDepositTokens",
      "outputs": [
        {
          "internalType": "uint256",
          "name": "",
          "type": "uint256"
        }
      ],
      "stateMutability": "view",
      "type": "function"
    },
    {
      "inputs": [],
      "name": "name",
      "outputs": [
        {
          "internalType": "string",
          "name": "",
          "type": "string"
        }
      ],
      "stateMutability": "view",
      "type": "function"
    },
    {
      "inputs": [
        {
          "internalType": "address",
          "name": "",
          "type": "address"
        }
      ],
      "name": "nonces",
      "outputs": [
        {
          "internalType": "uint256",
          "name": "",
          "type": "uint256"
        }
      ],
      "stateMutability": "view",
      "type": "function"
    },
    {
      "inputs": [],
      "name": "numberOfAllowedDepositors",
      "outputs": [
        {
          "internalType": "uint256",
          "name": "",
          "type": "uint256"
        }
      ],
      "stateMutability": "view",
      "type": "function"
    },
    {
      "inputs": [],
      "name": "owner",
      "outputs": [
        {
          "internalType": "address",
          "name": "",
          "type": "address"
        }
      ],
      "stateMutability": "view",
      "type": "function"
    },
    {
      "inputs": [
        {
          "internalType": "address",
          "name": "owner",
          "type": "address"
        },
        {
          "internalType": "address",
          "name": "spender",
          "type": "address"
        },
        {
          "internalType": "uint256",
          "name": "value",
          "type": "uint256"
        },
        {
          "internalType": "uint256",
          "name": "deadline",
          "type": "uint256"
        },
        {
          "internalType": "uint8",
          "name": "v",
          "type": "uint8"
        },
        {
          "internalType": "bytes32",
          "name": "r",
          "type": "bytes32"
        },
        {
          "internalType": "bytes32",
          "name": "s",
          "type": "bytes32"
        }
      ],
      "name": "permit",
      "outputs": [],
      "stateMutability": "nonpayable",
      "type": "function"
    },
    {
      "inputs": [],
      "name": "proxy",
      "outputs": [
        {
          "internalType": "contract IGmxProxy",
          "name": "",
          "type": "address"
        }
      ],
      "stateMutability": "view",
      "type": "function"
    },
    {
      "inputs": [
        {
          "internalType": "uint256",
          "name": "amount",
          "type": "uint256"
        }
      ],
      "name": "recoverAVAX",
      "outputs": [],
      "stateMutability": "nonpayable",
      "type": "function"
    },
    {
      "inputs": [
        {
          "internalType": "address",
          "name": "tokenAddress",
          "type": "address"
        },
        {
          "internalType": "uint256",
          "name": "tokenAmount",
          "type": "uint256"
        }
      ],
      "name": "recoverERC20",
      "outputs": [],
      "stateMutability": "nonpayable",
      "type": "function"
    },
    {
      "inputs": [],
      "name": "reinvest",
      "outputs": [],
      "stateMutability": "nonpayable",
      "type": "function"
    },
    {
      "inputs": [
        {
          "internalType": "address",
          "name": "depositor",
          "type": "address"
        }
      ],
      "name": "removeDepositor",
      "outputs": [],
      "stateMutability": "nonpayable",
      "type": "function"
    },
    {
      "inputs": [],
      "name": "renounceOwnership",
      "outputs": [],
      "stateMutability": "nonpayable",
      "type": "function"
    },
    {
      "inputs": [
        {
          "internalType": "uint256",
          "name": "minReturnAmountAccepted",
          "type": "uint256"
        },
        {
          "internalType": "bool",
          "name": "disableDeposits",
          "type": "bool"
        }
      ],
      "name": "rescueDeployedFunds",
      "outputs": [],
      "stateMutability": "nonpayable",
      "type": "function"
    },
    {
      "inputs": [
        {
          "internalType": "address",
          "name": "token",
          "type": "address"
        },
        {
          "internalType": "address",
          "name": "spender",
          "type": "address"
        }
      ],
      "name": "revokeAllowance",
      "outputs": [],
      "stateMutability": "nonpayable",
      "type": "function"
    },
    {
      "inputs": [],
      "name": "rewardToken",
      "outputs": [
        {
          "internalType": "contract IERC20",
          "name": "",
          "type": "address"
        }
      ],
      "stateMutability": "view",
      "type": "function"
    },
    {
      "inputs": [
        {
          "internalType": "address",
          "name": "_extraTokenSwapPair",
          "type": "address"
        }
      ],
      "name": "setExtraRewardSwapPair",
      "outputs": [],
      "stateMutability": "nonpayable",
      "type": "function"
    },
    {
      "inputs": [
        {
          "internalType": "address",
          "name": "_proxy",
          "type": "address"
        }
      ],
      "name": "setProxy",
      "outputs": [],
      "stateMutability": "nonpayable",
      "type": "function"
    },
    {
      "inputs": [],
      "name": "swapPairExtraReward",
      "outputs": [
        {
          "internalType": "address",
          "name": "",
          "type": "address"
        }
      ],
      "stateMutability": "view",
      "type": "function"
    },
    {
      "inputs": [],
      "name": "symbol",
      "outputs": [
        {
          "internalType": "string",
          "name": "",
          "type": "string"
        }
      ],
      "stateMutability": "view",
      "type": "function"
    },
    {
      "inputs": [],
      "name": "totalDeposits",
      "outputs": [
        {
          "internalType": "uint256",
          "name": "",
          "type": "uint256"
        }
      ],
      "stateMutability": "view",
      "type": "function"
    },
    {
      "inputs": [],
      "name": "totalSupply",
      "outputs": [
        {
          "internalType": "uint256",
          "name": "",
          "type": "uint256"
        }
      ],
      "stateMutability": "view",
      "type": "function"
    },
    {
      "inputs": [
        {
          "internalType": "address",
          "name": "dst",
          "type": "address"
        },
        {
          "internalType": "uint256",
          "name": "amount",
          "type": "uint256"
        }
      ],
      "name": "transfer",
      "outputs": [
        {
          "internalType": "bool",
          "name": "",
          "type": "bool"
        }
      ],
      "stateMutability": "nonpayable",
      "type": "function"
    },
    {
      "inputs": [
        {
          "internalType": "address",
          "name": "src",
          "type": "address"
        },
        {
          "internalType": "address",
          "name": "dst",
          "type": "address"
        },
        {
          "internalType": "uint256",
          "name": "amount",
          "type": "uint256"
        }
      ],
      "name": "transferFrom",
      "outputs": [
        {
          "internalType": "bool",
          "name": "",
          "type": "bool"
        }
      ],
      "stateMutability": "nonpayable",
      "type": "function"
    },
    {
      "inputs": [
        {
          "internalType": "address",
          "name": "newOwner",
          "type": "address"
        }
      ],
      "name": "transferOwnership",
      "outputs": [],
      "stateMutability": "nonpayable",
      "type": "function"
    },
    {
      "inputs": [
        {
          "internalType": "uint256",
          "name": "newValue",
          "type": "uint256"
        }
      ],
      "name": "updateAdminFee",
      "outputs": [],
      "stateMutability": "nonpayable",
      "type": "function"
    },
    {
      "inputs": [
        {
          "internalType": "bool",
          "name": "newValue",
          "type": "bool"
        }
      ],
      "name": "updateDepositsEnabled",
      "outputs": [],
      "stateMutability": "nonpayable",
      "type": "function"
    },
    {
      "inputs": [
        {
          "internalType": "address",
          "name": "newValue",
          "type": "address"
        }
      ],
      "name": "updateDevAddr",
      "outputs": [],
      "stateMutability": "nonpayable",
      "type": "function"
    },
    {
      "inputs": [
        {
          "internalType": "uint256",
          "name": "newValue",
          "type": "uint256"
        }
      ],
      "name": "updateDevFee",
      "outputs": [],
      "stateMutability": "nonpayable",
      "type": "function"
    },
    {
      "inputs": [
        {
          "internalType": "uint256",
          "name": "newValue",
          "type": "uint256"
        }
      ],
      "name": "updateMaxTokensToDepositWithoutReinvest",
      "outputs": [],
      "stateMutability": "nonpayable",
      "type": "function"
    },
    {
      "inputs": [
        {
          "internalType": "uint256",
          "name": "newValue",
          "type": "uint256"
        }
      ],
      "name": "updateMinTokensToReinvest",
      "outputs": [],
      "stateMutability": "nonpayable",
      "type": "function"
    },
    {
      "inputs": [
        {
          "internalType": "uint256",
          "name": "newValue",
          "type": "uint256"
        }
      ],
      "name": "updateReinvestReward",
      "outputs": [],
      "stateMutability": "nonpayable",
      "type": "function"
    },
    {
      "inputs": [
        {
          "internalType": "uint256",
          "name": "amount",
          "type": "uint256"
        }
      ],
      "name": "withdraw",
      "outputs": [],
      "stateMutability": "nonpayable",
      "type": "function"
    }
  ],
  "bytecode": {
    "object": "0x60e0604052600960a0819052685969656c642059616b60b81b60c09081526200002c916000919062000d93565b506040805180820190915260038082526216549560ea1b6020909201918252620000599160019162000d93565b503480156200006757600080fd5b5060405162004cd738038062004cd78339810160408190526200008a9162000efe565b858573b31f66aa3c1e785363f0875a1b74e27b85fd66c78087600081888289898988808786888188808233600680546001600160a01b0319166001600160a01b0383169081179091556040519192509060009060008051602062004cb7833981519152908290a3508051620000ff9062000243565b60208101516200010f90620002d3565b60408101516200011f906200038a565b508851620001359060009060208c019062000d93565b50600980546001600160a01b03808b166001600160a01b031992831617909255600a8054928a16928216929092179091556080839052600b8054909116732d580f9cf2fb2d09bc411532988f2afda4e7beff1790556200019787878762000441565b620001a28462000719565b620001ae6001620008fb565b620001b983620009a5565b60408051600080825260208201527fc7606d21ac05cd309191543e409f0845c016120563783d70e4f41419dc0ef234910160405180910390a15050505050505050506200020c8462000aa260201b60201c565b5050601780546001600160a01b0319166001600160a01b039c909c169b909b17909a55506200109c9b505050505050505050505050565b6006546001600160a01b03163314620002925760405162461bcd60e51b8152602060048201819052602482015260008051602062004c9783398151915260448201526064015b60405180910390fd5b600c5460408051918252602082018390527f481f79ac3a523b6d6db3c5a720e190e986d1cc1b41adcdf50f9caef849901100910160405180910390a1600c55565b6006546001600160a01b031633146200031e5760405162461bcd60e51b8152602060048201819052602482015260008051602062004c97833981519152604482015260640162000289565b6127106200033d6010548362000b5960201b62001b7f1790919060201c565b11156200034957600080fd5b60115460408051918252602082018390527f2a42303d002f0ba6cfe8259c91d4684443fb0b3de286ba74991175d651726131910160405180910390a1601155565b6006546001600160a01b03163314620003d55760405162461bcd60e51b8152602060048201819052602482015260008051602062004c97833981519152604482015260640162000289565b612710620003f46011548362000b5960201b62001b7f1790919060201c565b11156200040057600080fd5b60105460408051918252602082018390527fe7f97d51d307dc44045597c9978bec0f842e6bb40d19b9444084cfa30d9ed4f2910160405180910390a1601055565b826001600160a01b0316826001600160a01b031614620006ea57806001600160a01b0316630dfe16816040518163ffffffff1660e01b8152600401602060405180830381865afa1580156200049a573d6000803e3d6000fd5b505050506040513d601f19601f82011682018060405250810190620004c091906200101b565b6001600160a01b0316826001600160a01b031603620005bb57826001600160a01b0316816001600160a01b031663d21220a76040518163ffffffff1660e01b8152600401602060405180830381865afa15801562000522573d6000803e3d6000fd5b505050506040513d601f19601f820116820180604052508101906200054891906200101b565b6001600160a01b031614620005b55760405162461bcd60e51b815260206004820152603f602482015260008051602062004c7783398151915260448201527f6f6573206e6f7420636f6e7461696e2065636f73797374656d20746f6b656e00606482015260840162000289565b620006ea565b806001600160a01b031663d21220a76040518163ffffffff1660e01b8152600401602060405180830381865afa158015620005fa573d6000803e3d6000fd5b505050506040513d601f19601f820116820180604052508101906200062091906200101b565b6001600160a01b0316826001600160a01b0316036200068257826001600160a01b0316816001600160a01b0316630dfe16816040518163ffffffff1660e01b8152600401602060405180830381865afa15801562000522573d6000803e3d6000fd5b60405162461bcd60e51b8152602060048201526041602482015260008051602062004c7783398151915260448201527f6f6573206e6f7420636f6e7461696e20706f6f6c2072657761726420746f6b656064820152603760f91b608482015260a40162000289565b601280546001600160a01b039384166001600160a01b0319918216179091556013805492909316911617905550565b6001600160a01b03811615620008dc57600a5460408051630dfe168160e01b815290516001600160a01b0392831692841691630dfe16819160048083019260209291908290030181865afa15801562000776573d6000803e3d6000fd5b505050506040513d601f19601f820116820180604052508101906200079c91906200101b565b6001600160a01b0316036200083657806001600160a01b031663d21220a76040518163ffffffff1660e01b8152600401602060405180830381865afa158015620007ea573d6000803e3d6000fd5b505050506040513d601f19601f820116820180604052508101906200081091906200101b565b601580546001600160a01b0319166001600160a01b0392909216919091179055620008bc565b806001600160a01b0316630dfe16816040518163ffffffff1660e01b8152600401602060405180830381865afa15801562000875573d6000803e3d6000fd5b505050506040513d601f19601f820116820180604052508101906200089b91906200101b565b601580546001600160a01b0319166001600160a01b03929092169190911790555b601480546001600160a01b0383166001600160a01b031990911617905550565b601480546001600160a01b031990811690915560158054909116905550565b6006546001600160a01b03163314620009465760405162461bcd60e51b8152602060048201819052602482015260008051602062004c97833981519152604482015260640162000289565b600e5481151560ff9091161515036200095e57600080fd5b600e805460ff19168215159081179091556040519081527f7b014ed3854e7f5cb0218d58b3c6ae7d53a68bb0af2f67bfb029ea42c38a7e859060200160405180910390a150565b6006546001600160a01b03163314620009f05760405162461bcd60e51b8152602060048201819052602482015260008051602062004c97833981519152604482015260640162000289565b6001600160a01b03811662000a575760405162461bcd60e51b815260206004820152602660248201527f4f776e61626c653a206e6577206f776e657220697320746865207a65726f206160448201526564647265737360d01b606482015260840162000289565b6006546040516001600160a01b0380841692169060008051602062004cb783398151915290600090a3600680546001600160a01b0319166001600160a01b0392909216919091179055565b600954600a5462000ace9183916001600160a01b03918216911662000b6e602090811b62001b8b17901c565b62000b375760405162461bcd60e51b815260206004820152603260248201527f7377617020746f6b656e20646f6573206e6f74206d61746368206465706f73696044820152713a1030b732103932bbb0b932103a37b5b2b760711b606482015260840162000289565b601680546001600160a01b0319166001600160a01b0392909216919091179055565b600062000b67828462001039565b9392505050565b6000836001600160a01b0316630dfe16816040518163ffffffff1660e01b8152600401602060405180830381865afa15801562000baf573d6000803e3d6000fd5b505050506040513d601f19601f8201168201806040525081019062000bd591906200101b565b6001600160a01b0316836001600160a01b0316148062000c6a5750836001600160a01b031663d21220a76040518163ffffffff1660e01b8152600401602060405180830381865afa15801562000c2f573d6000803e3d6000fd5b505050506040513d601f19601f8201168201806040525081019062000c5591906200101b565b6001600160a01b0316836001600160a01b0316145b801562000d6c5750836001600160a01b0316630dfe16816040518163ffffffff1660e01b8152600401602060405180830381865afa15801562000cb1573d6000803e3d6000fd5b505050506040513d601f19601f8201168201806040525081019062000cd791906200101b565b6001600160a01b0316826001600160a01b0316148062000d6c5750836001600160a01b031663d21220a76040518163ffffffff1660e01b8152600401602060405180830381865afa15801562000d31573d6000803e3d6000fd5b505050506040513d601f19601f8201168201806040525081019062000d5791906200101b565b6001600160a01b0316826001600160a01b0316145b801562000d8b5750816001600160a01b0316836001600160a01b031614155b949350505050565b82805462000da19062001060565b90600052602060002090601f01602090048101928262000dc5576000855562000e10565b82601f1062000de057805160ff191683800117855562000e10565b8280016001018555821562000e10579182015b8281111562000e1057825182559160200191906001019062000df3565b5062000e1e92915062000e22565b5090565b5b8082111562000e1e576000815560010162000e23565b634e487b7160e01b600052604160045260246000fd5b604051601f8201601f191681016001600160401b038111828210171562000e7a5762000e7a62000e39565b604052919050565b80516001600160a01b038116811462000e9a57600080fd5b919050565b60006060828403121562000eb257600080fd5b604051606081016001600160401b038111828210171562000ed75762000ed762000e39565b80604052508091508251815260208301516020820152604083015160408201525092915050565b600080600080600080610100878903121562000f1957600080fd5b86516001600160401b038082111562000f3157600080fd5b818901915089601f83011262000f4657600080fd5b81518181111562000f5b5762000f5b62000e39565b6020915062000f73601f8201601f1916830162000e4f565b8181528b8383860101111562000f8857600080fd5b60005b8281101562000fa857848101840151828201850152830162000f8b565b8281111562000fba5760008484840101525b50985062000fcc905089820162000e82565b9650505062000fde6040880162000e82565b935062000fee6060880162000e82565b925062000ffe6080880162000e82565b91506200100f8860a0890162000e9f565b90509295509295509295565b6000602082840312156200102e57600080fd5b62000b678262000e82565b600082198211156200105b57634e487b7160e01b600052601160045260246000fd5b500190565b600181811c908216806200107557607f821691505b6020821081036200109657634e487b7160e01b600052602260045260246000fd5b50919050565b608051613b95620010e26000396000818161053001528181610edb0152818161151a01528181612036015281816126a5015281816129df0152612c3f0152613b956000f3fe608060405234801561001057600080fd5b50600436106103995760003560e01c80638b73e606116101e9578063bd079f551161010f578063dd8ce4d6116100ad578063ed24911d1161007c578063ed24911d14610812578063f2fde38b1461081a578063f7c618c11461082d578063fdb5a03e1461084057600080fd5b8063dd8ce4d6146107c6578063e21ac825146107d9578063eab89a5a146107ec578063ec556889146107ff57600080fd5b8063cff1b6ef116100e9578063cff1b6ef14610754578063d505accf14610767578063da09c72c1461077a578063dd62ed3e1461078d57600080fd5b8063bd079f5514610730578063c4b24a4614610739578063c89039c51461074157600080fd5b80639e4e731811610187578063ac0d31ff11610156578063ac0d31ff146106f5578063b52a321f14610708578063b6b55f2514610715578063b9e57b801461072857600080fd5b80639e4e731814610695578063a1a4ddeb146106bc578063a8ae2b7c146106cf578063a9059cbb146106e257600080fd5b80639291d563116101c35780639291d5631461065457806395d89b411461066757806397107d6d1461066f57806399729ec11461068257600080fd5b80638b73e606146106095780638da5cb5b1461061c578063909ac8f41461064157600080fd5b80634bebd1e7116102ce578063789139bc1161026c578063818372301161023b57806381837230146105c75780638432e894146105da5780638980f11f146105ed5780638aff733d1461060057600080fd5b8063789139bc146105835780637ae267731461058c5780637d8820971461059f5780637ecebe00146105a757600080fd5b80635ea682ea116102a85780635ea682ea146105225780635eaec0e41461052b57806370a0823114610552578063715018a61461057b57600080fd5b80634bebd1e7146104e95780634e77ace5146104fc5780634ebb79161461050f57600080fd5b80632e1a7d4d1161033b578063313ce56711610315578063313ce567146104905780633bdc6e72146104aa578063483c2ef0146104b35780634a970be7146104d657600080fd5b80632e1a7d4d146104415780632f4f21e21461045657806330adf81f1461046957600080fd5b80630f23475d116103775780630f23475d146103f657806318160ddd146103fe57806320606b701461040757806323b872dd1461042e57600080fd5b806306fdde031461039e57806307677111146103bc578063095ea7b3146103d3575b600080fd5b6103a6610848565b6040516103b391906135df565b60405180910390f35b6103c5600f5481565b6040519081526020016103b3565b6103e66103e1366004613607565b6108d6565b60405190151581526020016103b3565b6103c56108ed565b6103c560025481565b6103c57f8b73c3c69bb8fe3d512ecc4cf759cc79239f7b179b0ffacaa9a75d522b39400f81565b6103e661043c366004613633565b610928565b61045461044f366004613674565b610a0c565b005b610454610464366004613607565b610aee565b6103c57f6e71edae12b1b97f4d1f60370fef10105fa2faae0126114a169c64845d6126c981565b610498601281565b60405160ff90911681526020016103b3565b6103c560075481565b6103e66104c136600461368d565b60086020526000908152604090205460ff1681565b6104546104e43660046136c0565b610afc565b6104546104f736600461368d565b610b95565b61045461050a366004613715565b610c94565b61045461051d366004613674565b610d1d565b6103c560115481565b6103c57f000000000000000000000000000000000000000000000000000000000000000081565b6103c561056036600461368d565b6001600160a01b031660009081526004602052604090205490565b610454610db9565b6103c5600d5481565b61045461059a366004613732565b610e2d565b6103c5610ed3565b6103c56105b536600461368d565b60056020526000908152604090205481565b6104546105d5366004613674565b610f00565b6104546105e836600461368d565b610f6b565b6104546105fb366004613607565b610fc8565b6103c560105481565b61045461061736600461368d565b6110bf565b6006546001600160a01b03165b6040516001600160a01b0390911681526020016103b3565b601454610629906001600160a01b031681565b61045461066236600461368d565b611240565b6103a66112fa565b61045461067d36600461368d565b611307565b610454610690366004613674565b611353565b6103c57fc89efdaa54c0f20c7adf612882df0950f5a951637e0307cdcb4c672f298b8bc681565b601554610629906001600160a01b031681565b6104546106dd366004613674565b6113e1565b6103e66106f0366004613607565b61146f565b61045461070336600461376b565b61147c565b600e546103e69060ff1681565b610454610723366004613674565b61168a565b6103c5611694565b6103c5600c5481565b6103c56116d3565b600954610629906001600160a01b031681565b610454610762366004613674565b6116e7565b610454610775366004613790565b61175d565b600b54610629906001600160a01b031681565b6103c561079b366004613732565b6001600160a01b03918216600090815260036020908152604080832093909416825291909152205490565b6103c56107d4366004613674565b611862565b6104546107e7366004613674565b61189c565b6103c56107fa366004613674565b611907565b601754610629906001600160a01b031681565b6103c561193b565b61045461082836600461368d565b6119db565b600a54610629906001600160a01b031681565b610454611ac6565b60008054610855906137fe565b80601f0160208091040260200160405190810160405280929190818152602001828054610881906137fe565b80156108ce5780601f106108a3576101008083540402835291602001916108ce565b820191906000526020600020905b8154815290600101906020018083116108b157829003601f168201915b505050505081565b60006108e3338484611da0565b5060015b92915050565b6000806108f8610ed3565b90506000806109146127105b61090e8585611eae565b90611eba565b90506109208382611ec6565b935050505090565b6001600160a01b03831660008181526003602090815260408083203380855292528220549192909190821480159061096257506000198114155b156109f357600061098e856040518060600160405280602f8152602001613adc602f9139849190611ed2565b6001600160a01b038881166000818152600360209081526040808320948916808452948252918290208590559051848152939450919290917f8c5be1e5ebec7d5bd14f71427d1e84f3dd0314c0f7b2291e5b200ac8c7c3b925910160405180910390a3505b6109fe868686611efe565b6001925050505b9392505050565b6000610a1782611907565b905060008111610a6e5760405162461bcd60e51b815260206004820152601e60248201527f4d617374657243686566537472617465677956313a3a7769746864726177000060448201526064015b60405180910390fd5b610a7781612031565b600080610a85612710610904565b600954909150610aa8906001600160a01b031633610aa38685611ec6565b61205b565b610ab23385612132565b60405183815233907f884edad9ce6fa2440d8a54cc123490eb96d2768479d49ff9c7366125a9424364906020015b60405180910390a250505050565b610af88282612208565b5050565b60095460405163d505accf60e01b8152336004820152306024820152604481018790526064810186905260ff8516608482015260a4810184905260c481018390526001600160a01b039091169063d505accf9060e401600060405180830381600087803b158015610b6c57600080fd5b505af1158015610b80573d6000803e3d6000fd5b50505050610b8e3386612208565b5050505050565b6006546001600160a01b03163314610bbf5760405162461bcd60e51b8152600401610a6590613838565b6001600160a01b03811660009081526008602052604090205460ff1615610c285760405162461bcd60e51b815260206004820152601c60248201527f5065726d697373696f6e65643a3a616c6c6f774465706f7369746f72000000006044820152606401610a65565b6001600160a01b0381166000908152600860205260409020805460ff19166001908117909155600754610c5a91611b7f565b6007556040516001600160a01b038216907fc0a1035c16faf8d1304056d92c00edf028f87e62b8235a938f00af9e3c0312c590600090a250565b6006546001600160a01b03163314610cbe5760405162461bcd60e51b8152600401610a6590613838565b600e5481151560ff909116151503610cd557600080fd5b600e805460ff19168215159081179091556040519081527f7b014ed3854e7f5cb0218d58b3c6ae7d53a68bb0af2f67bfb029ea42c38a7e85906020015b60405180910390a150565b6006546001600160a01b03163314610d475760405162461bcd60e51b8152600401610a6590613838565b60008111610d5457600080fd5b604051339082156108fc029083906000818181858888f19350505050158015610d81573d6000803e3d6000fd5b506040805160008152602081018390527f8c1256b8896378cd5044f80c202f9772b9d77dc85c8a6eb51967210b09bfaa289101610d12565b6006546001600160a01b03163314610de35760405162461bcd60e51b8152600401610a6590613838565b6006546040516000916001600160a01b0316907f8be0079c531659141344cd1fd0a4f28419497f9722a3daafe3b4186f6b6457e0908390a3600680546001600160a01b0319169055565b6006546001600160a01b03163314610e575760405162461bcd60e51b8152600401610a6590613838565b60405163095ea7b360e01b81526001600160a01b0382811660048301526000602483015283169063095ea7b3906044016020604051808303816000875af1158015610ea6573d6000803e3d6000fd5b505050506040513d601f19601f82011682018060405250810190610eca919061386d565b610af857600080fd5b6000806108e77f0000000000000000000000000000000000000000000000000000000000000000306123d6565b6006546001600160a01b03163314610f2a5760405162461bcd60e51b8152600401610a6590613838565b600c5460408051918252602082018390527f481f79ac3a523b6d6db3c5a720e190e986d1cc1b41adcdf50f9caef849901100910160405180910390a1600c55565b600b546001600160a01b03163314610fbc5760405162461bcd60e51b81526020600482015260146024820152732cb0b5a9ba3930ba32b3bc9d1d37b7363ca232bb60611b6044820152606401610a65565b610fc5816123e0565b50565b6006546001600160a01b03163314610ff25760405162461bcd60e51b8152600401610a6590613838565b60008111610fff57600080fd5b60405163a9059cbb60e01b8152336004820152602481018290526001600160a01b0383169063a9059cbb906044016020604051808303816000875af115801561104c573d6000803e3d6000fd5b505050506040513d601f19601f82011682018060405250810190611070919061386d565b61107957600080fd5b604080516001600160a01b0384168152602081018390527f8c1256b8896378cd5044f80c202f9772b9d77dc85c8a6eb51967210b09bfaa28910160405180910390a15050565b6006546001600160a01b031633146110e95760405162461bcd60e51b8152600401610a6590613838565b6000600754116111585760405162461bcd60e51b815260206004820152603460248201527f5065726d697373696f6e65643a3a72656d6f76654465706f7369746f722c206e6044820152736f20616c6c6f776564206465706f7369746f727360601b6064820152608401610a65565b6001600160a01b03811660009081526008602052604090205460ff1615156001146111d85760405162461bcd60e51b815260206004820152602a60248201527f5065726d697373696f6e65643a3a72656d6f76654465706f7369746f722c206e6044820152691bdd08185b1b1bddd95960b21b6064820152608401610a65565b6001600160a01b0381166000908152600860205260409020805460ff19169055600754611206906001611ec6565b6007556040516001600160a01b038216907f0e86f6608b536e5339a25b65ff531f5ea91e1313d056ecd4752b35cbd16137d490600090a250565b600b546001600160a01b031633146112915760405162461bcd60e51b81526020600482015260146024820152732cb0b5a9ba3930ba32b3bc9d1d37b7363ca232bb60611b6044820152606401610a65565b600b54604080516001600160a01b03928316815291831660208301527fa8e91499ed37682f43cffb045fcc7d379a91e8c9a14e6321877ee34dee564c00910160405180910390a1600b80546001600160a01b0319166001600160a01b0392909216919091179055565b60018054610855906137fe565b6006546001600160a01b031633146113315760405162461bcd60e51b8152600401610a6590613838565b601780546001600160a01b0319166001600160a01b0392909216919091179055565b6006546001600160a01b0316331461137d5760405162461bcd60e51b8152600401610a6590613838565b61271061139560105483611b7f90919063ffffffff16565b11156113a057600080fd5b60115460408051918252602082018390527f2a42303d002f0ba6cfe8259c91d4684443fb0b3de286ba74991175d651726131910160405180910390a1601155565b6006546001600160a01b0316331461140b5760405162461bcd60e51b8152600401610a6590613838565b61271061142360115483611b7f90919063ffffffff16565b111561142e57600080fd5b60105460408051918252602082018390527fe7f97d51d307dc44045597c9978bec0f842e6bb40d19b9444084cfa30d9ed4f2910160405180910390a1601055565b60006108e3338484611efe565b6006546001600160a01b031633146114a65760405162461bcd60e51b8152600401610a6590613838565b6009546040516370a0823160e01b81523060048201526000916001600160a01b0316906370a0823190602401602060405180830381865afa1580156114ef573d6000803e3d6000fd5b505050506040513d601f19601f82011682018060405250810190611513919061388a565b905061153e7f00000000000000000000000000000000000000000000000000000000000000006125b6565b6009546040516370a0823160e01b81523060048201526000916001600160a01b0316906370a0823190602401602060405180830381865afa158015611587573d6000803e3d6000fd5b505050506040513d601f19601f820116820180604052508101906115ab919061388a565b9050836115b88284611ec6565b10156116185760405162461bcd60e51b815260206004820152602960248201527f4d617374657243686566537472617465677956313a3a7265736375654465706c6044820152686f79656446756e647360b81b6064820152608401610a65565b7fc7606d21ac05cd309191543e409f0845c016120563783d70e4f41419dc0ef234611641610ed3565b6002546040805192835260208301919091520160405180910390a1600e5460ff161515600114801561167557506001831515145b15611684576116846000610c94565b50505050565b610fc53382612208565b60008061169f6116d3565b9050600c5481106116cb576116c561271061090e60105484611eae90919063ffffffff16565b91505090565b600091505090565b6000806116de612624565b95945050505050565b6006546001600160a01b031633146117115760405162461bcd60e51b8152600401610a6590613838565b801561171c57600080fd5b600f5460408051918252602082018390527f3cc372f330f95ac9540626dc8a25f5bf21ba607215a5d58304cb804d446f104a910160405180910390a1600f55565b4284101561179f5760405162461bcd60e51b815260206004820152600f60248201526e1c195c9b5a5d0e8e995e1c1a5c9959608a1b6044820152606401610a65565b6001600160a01b038716600090815260056020526040812080547f6e71edae12b1b97f4d1f60370fef10105fa2faae0126114a169c64845d6126c9918a918a918a9190866117ec836138b9565b909155506040805160208101969096526001600160a01b0394851690860152929091166060840152608083015260a082015260c0810186905260e00160405160208183030381529060405280519060200120905061184d88828686866128ae565b611858888888611da0565b5050505050505050565b600061187861186f610ed3565b60025490611eae565b600003611883575090565b6108e761188e610ed3565b60025461090e908590611eae565b6006546001600160a01b031633146118c65760405162461bcd60e51b8152600401610a6590613838565b600d5460408051918252602082018390527fa5dae50539d56dfe1fb5273d883b0c39bc76750a25d036fc5fbd09ad8fd5f57f910160405180910390a1600d55565b600061191461186f610ed3565b60000361192357506000919050565b6108e760025461090e611934610ed3565b8590611eae565b60007f8b73c3c69bb8fe3d512ecc4cf759cc79239f7b179b0ffacaa9a75d522b39400f60001b600060405161197091906138d2565b6040519081900390207fc89efdaa54c0f20c7adf612882df0950f5a951637e0307cdcb4c672f298b8bc646604080516020810195909552840192909252606083015260808201523060a082015260c00160405160208183030381529060405280519060200120905090565b6006546001600160a01b03163314611a055760405162461bcd60e51b8152600401610a6590613838565b6001600160a01b038116611a6a5760405162461bcd60e51b815260206004820152602660248201527f4f776e61626c653a206e6577206f776e657220697320746865207a65726f206160448201526564647265737360d01b6064820152608401610a65565b6006546040516001600160a01b038084169216907f8be0079c531659141344cd1fd0a4f28419497f9722a3daafe3b4186f6b6457e090600090a3600680546001600160a01b0319166001600160a01b0392909216919091179055565b323314611b0c5760405162461bcd60e51b815260206004820152601460248201527359616b53747261746567793a3a6f6e6c79454f4160601b6044820152606401610a65565b600080600080611b1a612624565b9350935093509350600c54811015611b745760405162461bcd60e51b815260206004820152601e60248201527f4d617374657243686566537472617465677956313a3a7265696e7665737400006044820152606401610a65565b6116848285856129da565b6000610a05828461396d565b6000836001600160a01b0316630dfe16816040518163ffffffff1660e01b8152600401602060405180830381865afa158015611bcb573d6000803e3d6000fd5b505050506040513d601f19601f82011682018060405250810190611bef9190613985565b6001600160a01b0316836001600160a01b03161480611c805750836001600160a01b031663d21220a76040518163ffffffff1660e01b8152600401602060405180830381865afa158015611c47573d6000803e3d6000fd5b505050506040513d601f19601f82011682018060405250810190611c6b9190613985565b6001600160a01b0316836001600160a01b0316145b8015611d7a5750836001600160a01b0316630dfe16816040518163ffffffff1660e01b8152600401602060405180830381865afa158015611cc5573d6000803e3d6000fd5b505050506040513d601f19601f82011682018060405250810190611ce99190613985565b6001600160a01b0316826001600160a01b03161480611d7a5750836001600160a01b031663d21220a76040518163ffffffff1660e01b8152600401602060405180830381865afa158015611d41573d6000803e3d6000fd5b505050506040513d601f19601f82011682018060405250810190611d659190613985565b6001600160a01b0316826001600160a01b0316145b8015611d985750816001600160a01b0316836001600160a01b031614155b949350505050565b6001600160a01b038316611df65760405162461bcd60e51b815260206004820152601c60248201527f5f617070726f76653a3a6f776e6572207a65726f2061646472657373000000006044820152606401610a65565b6001600160a01b038216611e4c5760405162461bcd60e51b815260206004820152601e60248201527f5f617070726f76653a3a7370656e646572207a65726f206164647265737300006044820152606401610a65565b6001600160a01b0383811660008181526003602090815260408083209487168084529482529182902085905590518481527f8c5be1e5ebec7d5bd14f71427d1e84f3dd0314c0f7b2291e5b200ac8c7c3b92591015b60405180910390a3505050565b6000610a0582846139a2565b6000610a0582846139c1565b6000610a0582846139e3565b60008184841115611ef65760405162461bcd60e51b8152600401610a6591906135df565b505050900390565b6001600160a01b038216611f715760405162461bcd60e51b815260206004820152603460248201527f5f7472616e73666572546f6b656e733a2063616e6e6f74207472616e7366657260448201527320746f20746865207a65726f206164647265737360601b6064820152608401610a65565b611fae816040518060600160405280602e8152602001613b32602e91396001600160a01b0386166000908152600460205260409020549190611ed2565b6001600160a01b038085166000908152600460205260408082209390935590841681522054611fdd9082611b7f565b6001600160a01b0380841660008181526004602052604090819020939093559151908516907fddf252ad1be2c89b69c2b068fc378daa952ba7f163c4a11628f55a4df523b3ef90611ea19085815260200190565b610fc57f000000000000000000000000000000000000000000000000000000000000000082612b23565b60405163a9059cbb60e01b81526001600160a01b0383811660048301526024820183905284169063a9059cbb906044016020604051808303816000875af11580156120aa573d6000803e3d6000fd5b505050506040513d601f19601f820116820180604052508101906120ce919061386d565b61212d5760405162461bcd60e51b815260206004820152602a60248201527f4d617374657243686566537472617465677956313a3a5452414e534645525f466044820152691493d357d1905253115160b21b6064820152608401610a65565b505050565b61216f81604051806060016040528060278152602001613b0b602791396001600160a01b0385166000908152600460205260409020549190611ed2565b60046000846001600160a01b03166001600160a01b03168152602001908152602001600020819055506121bf81604051806060016040528060278152602001613ab5602791396002549190611ed2565b6002556040518181526000906001600160a01b038416907fddf252ad1be2c89b69c2b068fc378daa952ba7f163c4a11628f55a4df523b3ef906020015b60405180910390a35050565b600e5460ff16151560011461225f5760405162461bcd60e51b815260206004820152601e60248201527f4d617374657243686566537472617465677956313a3a5f6465706f73697400006044820152606401610a65565b600d541561229757600080600080612275612624565b9350935093509350600d54811115612292576122928285856129da565b505050505b6009546040516323b872dd60e01b8152336004820152306024820152604481018390526001600160a01b03909116906323b872dd906064016020604051808303816000875af11580156122ee573d6000803e3d6000fd5b505050506040513d601f19601f82011682018060405250810190612312919061386d565b61236c5760405162461bcd60e51b815260206004820152602560248201527f4d617374657243686566537472617465677956313a3a7472616e736665722066604482015264185a5b195960da1b6064820152608401610a65565b60008061237a612710610904565b90506123928461238d6107d48685611ec6565b612b54565b61239b83612bd8565b836001600160a01b03167fe1fffcc4923d04b559f4d29a8bfc6cda04eb5b0d3c460751c2402c5c5cc9109c84604051610ae091815260200190565b6000610a05612c64565b6001600160a01b0381161561259757600a5460408051630dfe168160e01b815290516001600160a01b0392831692841691630dfe16819160048083019260209291908290030181865afa15801561243b573d6000803e3d6000fd5b505050506040513d601f19601f8201168201806040525081019061245f9190613985565b6001600160a01b0316036124f457806001600160a01b031663d21220a76040518163ffffffff1660e01b8152600401602060405180830381865afa1580156124ab573d6000803e3d6000fd5b505050506040513d601f19601f820116820180604052508101906124cf9190613985565b601580546001600160a01b0319166001600160a01b0392909216919091179055612577565b806001600160a01b0316630dfe16816040518163ffffffff1660e01b8152600401602060405180830381865afa158015612532573d6000803e3d6000fd5b505050506040513d601f19601f820116820180604052508101906125569190613985565b601580546001600160a01b0319166001600160a01b03929092169190911790555b601480546001600160a01b0383166001600160a01b031990911617905550565b601480546001600160a01b031990811690915560158054909116905550565b60006125c0612c64565b601754604051635661552960e01b8152600481018390529192506001600160a01b0316906356615529906024015b600060405180830381600087803b15801561260857600080fd5b505af115801561261c573d6000803e3d6000fd5b505050505050565b6012546040516370a0823160e01b815230600482015260009182918291829182916001600160a01b0316906370a0823190602401602060405180830381865afa158015612675573d6000803e3d6000fd5b505050506040513d601f19601f82011682018060405250810190612699919061388a565b905060008060006126ca7f000000000000000000000000000000000000000000000000000000000000000030612ced565b9194509250905060006126dd8585611b7f565b600a546012549192506000916001600160a01b039182169116036127015784612726565b601254600a546013546127269285926001600160a01b03918216929082169116612d86565b905060006001600160a01b038416156128115773b31f66aa3c1e785363f0875a1b74e27b85fd66c6196001600160a01b03851601612765575083612811565b6014546001600160a01b031615612811576015546040516370a0823160e01b81523060048201526127eb916001600160a01b0316906370a0823190602401602060405180830381865afa1580156127c0573d6000803e3d6000fd5b505050506040513d601f19601f820116820180604052508101906127e4919061388a565b8690611b7f565b600a5460145491965061280e91879187916001600160a01b039182169116612d86565b90505b600a546040516370a0823160e01b815230600482015260009161288a9184916001600160a01b0316906370a0823190602401602060405180830381865afa158015612860573d6000803e3d6000fd5b505050506040513d601f19601f82011682018060405250810190612884919061388a565b90611b7f565b905060006128988285611b7f565b949d969c50909a50929850939650505050505050565b60006128b861193b565b60405161190160f01b602082015260228101919091526042810186905260620160408051601f198184030181528282528051602091820120600080855291840180845281905260ff88169284019290925260608301869052608083018590529092509060019060a0016020604051602081039080840390855afa158015612943573d6000803e3d6000fd5b5050604051601f1901519150506001600160a01b038116158015906129795750866001600160a01b0316816001600160a01b0316145b6129d15760405162461bcd60e51b8152602060048201526024808201527f417263683a3a76616c69646174655369673a20696e76616c6964207369676e616044820152637475726560e01b6064820152608401610a65565b50505050505050565b612a037f0000000000000000000000000000000000000000000000000000000000000000612e44565b6000612a18612a1184612eb2565b8590611b7f565b9050612a2e612a278584612ef6565b8290611b7f565b506000612a4c61271061090e60115485611eae90919063ffffffff16565b90508015612a7157600a54600b54612a71916001600160a01b0390811691168361205b565b6000612a8e61271061090e60105486611eae90919063ffffffff16565b90508015612aad57600a54612aad906001600160a01b0316338361205b565b6000612acb612ac683612ac08787611ec6565b90611ec6565b613035565b9050612ad681612bd8565b7fc7606d21ac05cd309191543e409f0845c016120563783d70e4f41419dc0ef234612aff610ed3565b6002546040805192835260208301919091520160405180910390a150505050505050565b60175460405163c10300f760e01b8152600481018390526001600160a01b039091169063c10300f7906024016125ee565b600254612b619082611b7f565b6002556001600160a01b038216600090815260046020526040902054612b879082611b7f565b6001600160a01b0383166000818152600460205260408082209390935591519091907fddf252ad1be2c89b69c2b068fc378daa952ba7f163c4a11628f55a4df523b3ef906121fc9085815260200190565b60008111612c3a5760405162461bcd60e51b815260206004820152602960248201527f4d617374657243686566537472617465677956313a3a5f7374616b654465706f604482015268736974546f6b656e7360b81b6064820152608401610a65565b610fc57f00000000000000000000000000000000000000000000000000000000000000008261305d565b6017546000906001600160a01b031663e9403256612c806130ab565b6040516001600160e01b031960e084901b1681526001600160a01b039091166004820152602401602060405180830381865afa158015612cc4573d6000803e3d6000fd5b505050506040513d601f19601f82011682018060405250810190612ce8919061388a565b905090565b6017546000908190819081906001600160a01b03166331d7a262612d0f6130ab565b6040516001600160e01b031960e084901b1681526001600160a01b039091166004820152602401602060405180830381865afa158015612d53573d6000803e3d6000fd5b505050506040513d601f19601f82011682018060405250810190612d77919061388a565b96600096508695509350505050565b600080612d938585613189565b509050600080846001600160a01b0316630902f1ac6040518163ffffffff1660e01b8152600401606060405180830381865afa158015612dd7573d6000803e3d6000fd5b505050506040513d601f19601f82011682018060405250810190612dfb9190613a11565b5091509150866001600160a01b0316836001600160a01b031614612e1b57905b612e3888836001600160701b0316836001600160701b03166131ba565b98975050505050505050565b6017546001600160a01b031663d279c191612e5d6130ab565b6040516001600160e01b031960e084901b1681526001600160a01b039091166004820152602401600060405180830381600087803b158015612e9e57600080fd5b505af1158015610b8e573d6000803e3d6000fd5b601254600a546000916001600160a01b03908116911603612ed1575090565b601254600a546013546108e79285926001600160a01b03918216929082169116613202565b6000811561302c576014546001600160a01b031615612f3b57601554600a54601454612f349285926001600160a01b03918216929082169116613202565b90506108e7565b478015612fab5773b31f66aa3c1e785363f0875a1b74e27b85fd66c76001600160a01b031663d0e30db0826040518263ffffffff1660e01b81526004016000604051808303818588803b158015612f9157600080fd5b505af1158015612fa5573d6000803e3d6000fd5b50505050505b6040516370a0823160e01b815230600482015261302490859073b31f66aa3c1e785363f0875a1b74e27b85fd66c7906370a0823190602401602060405180830381865afa158015613000573d6000803e3d6000fd5b505050506040513d601f19601f82011682018060405250810190612ac0919061388a565b9150506108e7565b50600092915050565b600a546009546016546000926108e79285926001600160a01b03928316929182169116613202565b60175460095461307a916001600160a01b03918216911683613376565b601754604051633cf6bab360e21b8152600481018390526001600160a01b039091169063f3daeacc906024016125ee565b600080601760009054906101000a90046001600160a01b03166001600160a01b0316639d54b5246040518163ffffffff1660e01b8152600401602060405180830381865afa158015613101573d6000803e3d6000fd5b505050506040513d601f19601f820116820180604052508101906131259190613985565b9050806001600160a01b03166351c3e3b46040518163ffffffff1660e01b8152600401602060405180830381865afa158015613165573d6000803e3d6000fd5b505050506040513d601f19601f820116820180604052508101906116c59190613985565b600080826001600160a01b0316846001600160a01b0316106131ac5782846131af565b83835b915091509250929050565b6000806131c9856103e5611eae565b905060006131d78285611eae565b905060006131eb83612884886103e8611eae565b90506131f78282611eba565b979650505050505050565b60008061320f8585613189565b509050600080846001600160a01b0316630902f1ac6040518163ffffffff1660e01b8152600401606060405180830381865afa158015613253573d6000803e3d6000fd5b505050506040513d601f19601f820116820180604052508101906132779190613a11565b5091509150866001600160a01b0316836001600160a01b03161461329757905b6000806132b78a856001600160701b0316856001600160701b03166131ba565b9050886001600160a01b0316856001600160a01b0316146132d457905b6132e86001600160a01b038a16888c613376565b6040805160008152602081019182905263022c0d9f60e01b9091526001600160a01b0388169063022c0d9f906133279085908590309060248101613a61565b600060405180830381600087803b15801561334157600080fd5b505af1158015613355573d6000803e3d6000fd5b505050508181116133665781613368565b805b9a9950505050505050505050565b604080516001600160a01b03848116602483015260448083018590528351808403909101815260649092018352602080830180516001600160e01b031663a9059cbb60e01b17905283518085019094528084527f5361666545524332303a206c6f772d6c6576656c2063616c6c206661696c65649084015261212d92869291600091613406918516908490613483565b80519091501561212d5780806020019051810190613424919061386d565b61212d5760405162461bcd60e51b815260206004820152602a60248201527f5361666545524332303a204552433230206f7065726174696f6e20646964206e6044820152691bdd081cdd58d8d9595960b21b6064820152608401610a65565b6060611d988484600085856001600160a01b0385163b6134e55760405162461bcd60e51b815260206004820152601d60248201527f416464726573733a2063616c6c20746f206e6f6e2d636f6e74726163740000006044820152606401610a65565b600080866001600160a01b031685876040516135019190613a98565b60006040518083038185875af1925050503d806000811461353e576040519150601f19603f3d011682016040523d82523d6000602084013e613543565b606091505b50915091506131f78282866060831561355d575081610a05565b82511561356d5782518084602001fd5b8160405162461bcd60e51b8152600401610a6591906135df565b60005b838110156135a257818101518382015260200161358a565b838111156116845750506000910152565b600081518084526135cb816020860160208601613587565b601f01601f19169290920160200192915050565b602081526000610a0560208301846135b3565b6001600160a01b0381168114610fc557600080fd5b6000806040838503121561361a57600080fd5b8235613625816135f2565b946020939093013593505050565b60008060006060848603121561364857600080fd5b8335613653816135f2565b92506020840135613663816135f2565b929592945050506040919091013590565b60006020828403121561368657600080fd5b5035919050565b60006020828403121561369f57600080fd5b8135610a05816135f2565b803560ff811681146136bb57600080fd5b919050565b600080600080600060a086880312156136d857600080fd5b85359450602086013593506136ef604087016136aa565b94979396509394606081013594506080013592915050565b8015158114610fc557600080fd5b60006020828403121561372757600080fd5b8135610a0581613707565b6000806040838503121561374557600080fd5b8235613750816135f2565b91506020830135613760816135f2565b809150509250929050565b6000806040838503121561377e57600080fd5b82359150602083013561376081613707565b600080600080600080600060e0888a0312156137ab57600080fd5b87356137b6816135f2565b965060208801356137c6816135f2565b955060408801359450606088013593506137e2608089016136aa565b925060a0880135915060c0880135905092959891949750929550565b600181811c9082168061381257607f821691505b60208210810361383257634e487b7160e01b600052602260045260246000fd5b50919050565b6020808252818101527f4f776e61626c653a2063616c6c6572206973206e6f7420746865206f776e6572604082015260600190565b60006020828403121561387f57600080fd5b8151610a0581613707565b60006020828403121561389c57600080fd5b5051919050565b634e487b7160e01b600052601160045260246000fd5b6000600182016138cb576138cb6138a3565b5060010190565b600080835481600182811c9150808316806138ee57607f831692505b6020808410820361390d57634e487b7160e01b86526022600452602486fd5b81801561392157600181146139325761395f565b60ff1986168952848901965061395f565b60008a81526020902060005b868110156139575781548b82015290850190830161393e565b505084890196505b509498975050505050505050565b60008219821115613980576139806138a3565b500190565b60006020828403121561399757600080fd5b8151610a05816135f2565b60008160001904831182151516156139bc576139bc6138a3565b500290565b6000826139de57634e487b7160e01b600052601260045260246000fd5b500490565b6000828210156139f5576139f56138a3565b500390565b80516001600160701b03811681146136bb57600080fd5b600080600060608486031215613a2657600080fd5b613a2f846139fa565b9250613a3d602085016139fa565b9150604084015163ffffffff81168114613a5657600080fd5b809150509250925092565b84815283602082015260018060a01b0383166040820152608060608201526000613a8e60808301846135b3565b9695505050505050565b60008251613aaa818460208701613587565b919091019291505056fe5f6275726e3a206275726e20616d6f756e74206578636565647320746f74616c20737570706c797472616e7366657246726f6d3a207472616e7366657220616d6f756e74206578636565647320616c6c6f77616e63655f6275726e3a206275726e20616d6f756e7420657863656564732066726f6d2062616c616e63655f7472616e73666572546f6b656e733a207472616e7366657220657863656564732066726f6d2062616c616e6365a2646970667358221220a8274c63ef09dd7487c44e34723a6fd3d8d8350abd87bc859eb604ca9d2dd8df64736f6c634300080d003353776170207061697220277377617050616972506f6f6c5265776172642720644f776e61626c653a2063616c6c6572206973206e6f7420746865206f776e65728be0079c531659141344cd1fd0a4f28419497f9722a3daafe3b4186f6b6457e0",
    "linkReferences": {}
  },
  "methodIdentifiers": {
    "ADMIN_FEE_BIPS()": "07677111",
    "DEPOSITS_ENABLED()": "b52a321f",
    "DEV_FEE_BIPS()": "5ea682ea",
    "DOMAIN_TYPEHASH()": "20606b70",
    "MAX_TOKENS_TO_DEPOSIT_WITHOUT_REINVEST()": "789139bc",
    "MIN_TOKENS_TO_REINVEST()": "bd079f55",
    "PERMIT_TYPEHASH()": "30adf81f",
    "PID()": "5eaec0e4",
    "REINVEST_REWARD_BIPS()": "8aff733d",
    "VERSION_HASH()": "9e4e7318",
    "allowDepositor(address)": "4bebd1e7",
    "allowance(address,address)": "dd62ed3e",
    "allowedDepositors(address)": "483c2ef0",
    "approve(address,uint256)": "095ea7b3",
    "balanceOf(address)": "70a08231",
    "checkReward()": "c4b24a46",
    "decimals()": "313ce567",
    "deposit(uint256)": "b6b55f25",
    "depositFor(address,uint256)": "2f4f21e2",
    "depositToken()": "c89039c5",
    "depositWithPermit(uint256,uint256,uint8,bytes32,bytes32)": "4a970be7",
    "devAddr()": "da09c72c",
    "estimateDeployedBalance()": "0f23475d",
    "estimateReinvestReward()": "b9e57b80",
    "extraToken()": "a1a4ddeb",
    "getDepositTokensForShares(uint256)": "eab89a5a",
    "getDomainSeparator()": "ed24911d",
    "getSharesForDepositTokens(uint256)": "dd8ce4d6",
    "name()": "06fdde03",
    "nonces(address)": "7ecebe00",
    "numberOfAllowedDepositors()": "3bdc6e72",
    "owner()": "8da5cb5b",
    "permit(address,address,uint256,uint256,uint8,bytes32,bytes32)": "d505accf",
    "proxy()": "ec556889",
    "recoverAVAX(uint256)": "4ebb7916",
    "recoverERC20(address,uint256)": "8980f11f",
    "reinvest()": "fdb5a03e",
    "removeDepositor(address)": "8b73e606",
    "renounceOwnership()": "715018a6",
    "rescueDeployedFunds(uint256,bool)": "ac0d31ff",
    "revokeAllowance(address,address)": "7ae26773",
    "rewardToken()": "f7c618c1",
    "setExtraRewardSwapPair(address)": "8432e894",
    "setProxy(address)": "97107d6d",
    "swapPairExtraReward()": "909ac8f4",
    "symbol()": "95d89b41",
    "totalDeposits()": "7d882097",
    "totalSupply()": "18160ddd",
    "transfer(address,uint256)": "a9059cbb",
    "transferFrom(address,address,uint256)": "23b872dd",
    "transferOwnership(address)": "f2fde38b",
    "updateAdminFee(uint256)": "cff1b6ef",
    "updateDepositsEnabled(bool)": "4e77ace5",
    "updateDevAddr(address)": "9291d563",
    "updateDevFee(uint256)": "99729ec1",
    "updateMaxTokensToDepositWithoutReinvest(uint256)": "e21ac825",
    "updateMinTokensToReinvest(uint256)": "81837230",
    "updateReinvestReward(uint256)": "a8ae2b7c",
    "withdraw(uint256)": "2e1a7d4d"
  },
  "id": 94
}