{
  "abi": [
    {
      "inputs": [],
      "stateMutability": "nonpayable",
      "type": "constructor"
    },
    {
      "inputs": [
        {
          "internalType": "address",
          "name": "account",
          "type": "address"
        },
        {
          "internalType": "address[]",
          "name": "tokenAddresses",
          "type": "address[]"
        }
      ],
      "name": "accountBalancesOf",
      "outputs": [
        {
          "internalType": "uint256[]",
          "name": "",
          "type": "uint256[]"
        }
      ],
      "stateMutability": "view",
      "type": "function"
    },
    {
      "inputs": [
        {
          "internalType": "address[]",
          "name": "accounts",
          "type": "address[]"
        },
        {
          "internalType": "address",
          "name": "tokenAddress",
          "type": "address"
        }
      ],
      "name": "accountsBalanceOf",
      "outputs": [
        {
          "internalType": "uint256[]",
          "name": "",
          "type": "uint256[]"
        }
      ],
      "stateMutability": "view",
      "type": "function"
    },
    {
      "inputs": [
        {
          "internalType": "address[]",
          "name": "accounts",
          "type": "address[]"
        },
        {
          "internalType": "address[]",
          "name": "tokenAddresses",
          "type": "address[]"
        }
      ],
      "name": "accountsBalancesOf",
      "outputs": [
        {
          "internalType": "uint256[]",
          "name": "",
          "type": "uint256[]"
        }
      ],
      "stateMutability": "view",
      "type": "function"
    }
  ],
  "bytecode": {
    "object": "0x608060405234801561001057600080fd5b506106ea806100206000396000f3fe608060405234801561001057600080fd5b50600436106100415760003560e01c80630b5cb275146100465780633a2047091461006f5780637dbb6f2614610082575b600080fd5b610059610054366004610524565b610095565b6040516100669190610572565b60405180910390f35b61005961007d3660046105b6565b6101bd565b610059610090366004610604565b6102d0565b60606000835167ffffffffffffffff8111156100b3576100b3610450565b6040519080825280602002602001820160405280156100dc578160200160208202803683370190505b50905060005b84518110156101b5576000846001600160a01b03166370a0823187848151811061010e5761010e61065e565b60200260200101516040518263ffffffff1660e01b815260040161014191906001600160a01b0391909116815260200190565b602060405180830381865afa15801561015e573d6000803e3d6000fd5b505050506040513d601f19601f820116820180604052508101906101829190610674565b9050808383815181106101975761019761065e565b602090810291909101015250806101ad8161068d565b9150506100e2565b509392505050565b60606000825167ffffffffffffffff8111156101db576101db610450565b604051908082528060200260200182016040528015610204578160200160208202803683370190505b50905060005b83518110156101b55760008482815181106102275761022761065e565b60209081029190910101516040516370a0823160e01b81526001600160a01b038881166004830152909116906370a0823190602401602060405180830381865afa158015610279573d6000803e3d6000fd5b505050506040513d601f19601f8201168201806040525081019061029d9190610674565b9050808383815181106102b2576102b261065e565b602090810291909101015250806102c88161068d565b91505061020a565b606081518351146103195760405162461bcd60e51b815260206004820152600f60248201526e0dcdee840e6c2daca40d8cadccee8d608b1b604482015260640160405180910390fd5b6000825167ffffffffffffffff81111561033557610335610450565b60405190808252806020026020018201604052801561035e578160200160208202803683370190505b50905060005b83518110156101b55760008482815181106103815761038161065e565b60200260200101516001600160a01b03166370a082318784815181106103a9576103a961065e565b60200260200101516040518263ffffffff1660e01b81526004016103dc91906001600160a01b0391909116815260200190565b602060405180830381865afa1580156103f9573d6000803e3d6000fd5b505050506040513d601f19601f8201168201806040525081019061041d9190610674565b9050808383815181106104325761043261065e565b602090810291909101015250806104488161068d565b915050610364565b634e487b7160e01b600052604160045260246000fd5b80356001600160a01b038116811461047d57600080fd5b919050565b600082601f83011261049357600080fd5b8135602067ffffffffffffffff808311156104b0576104b0610450565b8260051b604051601f19603f830116810181811084821117156104d5576104d5610450565b6040529384528581018301938381019250878511156104f357600080fd5b83870191505b848210156105195761050a82610466565b835291830191908301906104f9565b979650505050505050565b6000806040838503121561053757600080fd5b823567ffffffffffffffff81111561054e57600080fd5b61055a85828601610482565b92505061056960208401610466565b90509250929050565b6020808252825182820181905260009190848201906040850190845b818110156105aa5783518352928401929184019160010161058e565b50909695505050505050565b600080604083850312156105c957600080fd5b6105d283610466565b9150602083013567ffffffffffffffff8111156105ee57600080fd5b6105fa85828601610482565b9150509250929050565b6000806040838503121561061757600080fd5b823567ffffffffffffffff8082111561062f57600080fd5b61063b86838701610482565b9350602085013591508082111561065157600080fd5b506105fa85828601610482565b634e487b7160e01b600052603260045260246000fd5b60006020828403121561068657600080fd5b5051919050565b6000600182016106ad57634e487b7160e01b600052601160045260246000fd5b506001019056fea2646970667358221220c31eb76dd5125f39c38adbfc6b154c68c9ab7f4fa43cb8ae32fe1f753173d05164736f6c634300080d0033",
    "linkReferences": {}
  },
  "methodIdentifiers": {
    "accountBalancesOf(address,address[])": "3a204709",
    "accountsBalanceOf(address[],address)": "0b5cb275",
    "accountsBalancesOf(address[],address[])": "7dbb6f26"
  },
  "id": 8
}