{
  "abi": [
    {
      "inputs": [
        {
          "internalType": "string",
          "name": "_name",
          "type": "string"
        },
        {
          "internalType": "address",
          "name": "_depositToken",
          "type": "address"
        },
        {
          "internalType": "address",
          "name": "_swapPairDepositToken",
          "type": "address"
        },
        {
          "components": [
            {
              "internalType": "address",
              "name": "reward",
              "type": "address"
            },
            {
              "internalType": "address",
              "name": "swapPair",
              "type": "address"
            }
          ],
          "internalType": "struct VariableRewardsStrategy.RewardSwapPairs[]",
          "name": "_rewardSwapPairs",
          "type": "tuple[]"
        },
        {
          "internalType": "address",
          "name": "_rewardController",
          "type": "address"
        },
        {
          "internalType": "address",
          "name": "_tokenDelegator",
          "type": "address"
        },
        {
          "internalType": "address",
          "name": "_timelock",
          "type": "address"
        },
        {
          "components": [
            {
              "internalType": "uint256",
              "name": "minTokensToReinvest",
              "type": "uint256"
            },
            {
              "internalType": "uint256",
              "name": "devFeeBips",
              "type": "uint256"
            },
            {
              "internalType": "uint256",
              "name": "reinvestRewardBips",
              "type": "uint256"
            }
          ],
          "internalType": "struct YakStrategyV2.StrategySettings",
          "name": "_strategySettings",
          "type": "tuple"
        }
      ],
      "stateMutability": "nonpayable",
      "type": "constructor"
    },
    {
      "anonymous": false,
      "inputs": [
        {
          "indexed": false,
          "internalType": "address",
          "name": "rewardToken",
          "type": "address"
        },
        {
          "indexed": false,
          "internalType": "address",
          "name": "swapPair",
          "type": "address"
        }
      ],
      "name": "AddReward",
      "type": "event"
    },
    {
      "anonymous": false,
      "inputs": [
        {
          "indexed": true,
          "internalType": "address",
          "name": "account",
          "type": "address"
        }
      ],
      "name": "AllowDepositor",
      "type": "event"
    },
    {
      "anonymous": false,
      "inputs": [
        {
          "indexed": true,
          "internalType": "address",
          "name": "owner",
          "type": "address"
        },
        {
          "indexed": true,
          "internalType": "address",
          "name": "spender",
          "type": "address"
        },
        {
          "indexed": false,
          "internalType": "uint256",
          "name": "value",
          "type": "uint256"
        }
      ],
      "name": "Approval",
      "type": "event"
    },
    {
      "anonymous": false,
      "inputs": [
        {
          "indexed": true,
          "internalType": "address",
          "name": "account",
          "type": "address"
        },
        {
          "indexed": false,
          "internalType": "uint256",
          "name": "amount",
          "type": "uint256"
        }
      ],
      "name": "Deposit",
      "type": "event"
    },
    {
      "anonymous": false,
      "inputs": [
        {
          "indexed": false,
          "internalType": "bool",
          "name": "newValue",
          "type": "bool"
        }
      ],
      "name": "DepositsEnabled",
      "type": "event"
    },
    {
      "anonymous": false,
      "inputs": [
        {
          "indexed": true,
          "internalType": "address",
          "name": "previousOwner",
          "type": "address"
        },
        {
          "indexed": true,
          "internalType": "address",
          "name": "newOwner",
          "type": "address"
        }
      ],
      "name": "OwnershipTransferred",
      "type": "event"
    },
    {
      "anonymous": false,
      "inputs": [
        {
          "indexed": false,
          "internalType": "address",
          "name": "token",
          "type": "address"
        },
        {
          "indexed": false,
          "internalType": "uint256",
          "name": "amount",
          "type": "uint256"
        }
      ],
      "name": "Recovered",
      "type": "event"
    },
    {
      "anonymous": false,
      "inputs": [
        {
          "indexed": false,
          "internalType": "uint256",
          "name": "newTotalDeposits",
          "type": "uint256"
        },
        {
          "indexed": false,
          "internalType": "uint256",
          "name": "newTotalSupply",
          "type": "uint256"
        }
      ],
      "name": "Reinvest",
      "type": "event"
    },
    {
      "anonymous": false,
      "inputs": [
        {
          "indexed": true,
          "internalType": "address",
          "name": "account",
          "type": "address"
        }
      ],
      "name": "RemoveDepositor",
      "type": "event"
    },
    {
      "anonymous": false,
      "inputs": [
        {
          "indexed": false,
          "internalType": "address",
          "name": "rewardToken",
          "type": "address"
        }
      ],
      "name": "RemoveReward",
      "type": "event"
    },
    {
      "anonymous": false,
      "inputs": [
        {
          "indexed": true,
          "internalType": "address",
          "name": "from",
          "type": "address"
        },
        {
          "indexed": true,
          "internalType": "address",
          "name": "to",
          "type": "address"
        },
        {
          "indexed": false,
          "internalType": "uint256",
          "name": "value",
          "type": "uint256"
        }
      ],
      "name": "Transfer",
      "type": "event"
    },
    {
      "anonymous": false,
      "inputs": [
        {
          "indexed": false,
          "internalType": "uint256",
          "name": "oldValue",
          "type": "uint256"
        },
        {
          "indexed": false,
          "internalType": "uint256",
          "name": "newValue",
          "type": "uint256"
        }
      ],
      "name": "UpdateAdminFee",
      "type": "event"
    },
    {
      "anonymous": false,
      "inputs": [
        {
          "indexed": false,
          "internalType": "address",
          "name": "oldValue",
          "type": "address"
        },
        {
          "indexed": false,
          "internalType": "address",
          "name": "newValue",
          "type": "address"
        }
      ],
      "name": "UpdateDevAddr",
      "type": "event"
    },
    {
      "anonymous": false,
      "inputs": [
        {
          "indexed": false,
          "internalType": "uint256",
          "name": "oldValue",
          "type": "uint256"
        },
        {
          "indexed": false,
          "internalType": "uint256",
          "name": "newValue",
          "type": "uint256"
        }
      ],
      "name": "UpdateDevFee",
      "type": "event"
    },
    {
      "anonymous": false,
      "inputs": [
        {
          "indexed": false,
          "internalType": "uint256",
          "name": "oldValue",
          "type": "uint256"
        },
        {
          "indexed": false,
          "internalType": "uint256",
          "name": "newValue",
          "type": "uint256"
        }
      ],
      "name": "UpdateMaxTokensToDepositWithoutReinvest",
      "type": "event"
    },
    {
      "anonymous": false,
      "inputs": [
        {
          "indexed": false,
          "internalType": "uint256",
          "name": "oldValue",
          "type": "uint256"
        },
        {
          "indexed": false,
          "internalType": "uint256",
          "name": "newValue",
          "type": "uint256"
        }
      ],
      "name": "UpdateMinTokensToReinvest",
      "type": "event"
    },
    {
      "anonymous": false,
      "inputs": [
        {
          "indexed": false,
          "internalType": "uint256",
          "name": "oldValue",
          "type": "uint256"
        },
        {
          "indexed": false,
          "internalType": "uint256",
          "name": "newValue",
          "type": "uint256"
        }
      ],
      "name": "UpdateReinvestReward",
      "type": "event"
    },
    {
      "anonymous": false,
      "inputs": [
        {
          "indexed": true,
          "internalType": "address",
          "name": "account",
          "type": "address"
        },
        {
          "indexed": false,
          "internalType": "uint256",
          "name": "amount",
          "type": "uint256"
        }
      ],
      "name": "Withdraw",
      "type": "event"
    },
    {
      "inputs": [],
      "name": "ADMIN_FEE_BIPS",
      "outputs": [
        {
          "internalType": "uint256",
          "name": "",
          "type": "uint256"
        }
      ],
      "stateMutability": "view",
      "type": "function"
    },
    {
      "inputs": [],
      "name": "DEPOSITS_ENABLED",
      "outputs": [
        {
          "internalType": "bool",
          "name": "",
          "type": "bool"
        }
      ],
      "stateMutability": "view",
      "type": "function"
    },
    {
      "inputs": [],
      "name": "DEV_FEE_BIPS",
      "outputs": [
        {
          "internalType": "uint256",
          "name": "",
          "type": "uint256"
        }
      ],
      "stateMutability": "view",
      "type": "function"
    },
    {
      "inputs": [],
      "name": "DOMAIN_TYPEHASH",
      "outputs": [
        {
          "internalType": "bytes32",
          "name": "",
          "type": "bytes32"
        }
      ],
      "stateMutability": "view",
      "type": "function"
    },
    {
      "inputs": [],
      "name": "MAX_TOKENS_TO_DEPOSIT_WITHOUT_REINVEST",
      "outputs": [
        {
          "internalType": "uint256",
          "name": "",
          "type": "uint256"
        }
      ],
      "stateMutability": "view",
      "type": "function"
    },
    {
      "inputs": [],
      "name": "MIN_TOKENS_TO_REINVEST",
      "outputs": [
        {
          "internalType": "uint256",
          "name": "",
          "type": "uint256"
        }
      ],
      "stateMutability": "view",
      "type": "function"
    },
    {
      "inputs": [],
      "name": "PERMIT_TYPEHASH",
      "outputs": [
        {
          "internalType": "bytes32",
          "name": "",
          "type": "bytes32"
        }
      ],
      "stateMutability": "view",
      "type": "function"
    },
    {
      "inputs": [],
      "name": "REINVEST_REWARD_BIPS",
      "outputs": [
        {
          "internalType": "uint256",
          "name": "",
          "type": "uint256"
        }
      ],
      "stateMutability": "view",
      "type": "function"
    },
    {
      "inputs": [],
      "name": "VERSION_HASH",
      "outputs": [
        {
          "internalType": "bytes32",
          "name": "",
          "type": "bytes32"
        }
      ],
      "stateMutability": "view",
      "type": "function"
    },
    {
      "inputs": [
        {
          "internalType": "address",
          "name": "_rewardToken",
          "type": "address"
        },
        {
          "internalType": "address",
          "name": "_swapPair",
          "type": "address"
        }
      ],
      "name": "addReward",
      "outputs": [],
      "stateMutability": "nonpayable",
      "type": "function"
    },
    {
      "inputs": [
        {
          "internalType": "address",
          "name": "depositor",
          "type": "address"
        }
      ],
      "name": "allowDepositor",
      "outputs": [],
      "stateMutability": "nonpayable",
      "type": "function"
    },
    {
      "inputs": [
        {
          "internalType": "address",
          "name": "account",
          "type": "address"
        },
        {
          "internalType": "address",
          "name": "spender",
          "type": "address"
        }
      ],
      "name": "allowance",
      "outputs": [
        {
          "internalType": "uint256",
          "name": "",
          "type": "uint256"
        }
      ],
      "stateMutability": "view",
      "type": "function"
    },
    {
      "inputs": [
        {
          "internalType": "address",
          "name": "",
          "type": "address"
        }
      ],
      "name": "allowedDepositors",
      "outputs": [
        {
          "internalType": "bool",
          "name": "",
          "type": "bool"
        }
      ],
      "stateMutability": "view",
      "type": "function"
    },
    {
      "inputs": [
        {
          "internalType": "address",
          "name": "spender",
          "type": "address"
        },
        {
          "internalType": "uint256",
          "name": "amount",
          "type": "uint256"
        }
      ],
      "name": "approve",
      "outputs": [
        {
          "internalType": "bool",
          "name": "",
          "type": "bool"
        }
      ],
      "stateMutability": "nonpayable",
      "type": "function"
    },
    {
      "inputs": [
        {
          "internalType": "address",
          "name": "account",
          "type": "address"
        }
      ],
      "name": "balanceOf",
      "outputs": [
        {
          "internalType": "uint256",
          "name": "",
          "type": "uint256"
        }
      ],
      "stateMutability": "view",
      "type": "function"
    },
    {
      "inputs": [
        {
          "internalType": "uint256",
          "name": "_amount",
          "type": "uint256"
        }
      ],
      "name": "calculateDepositFee",
      "outputs": [
        {
          "internalType": "uint256",
          "name": "",
          "type": "uint256"
        }
      ],
      "stateMutability": "view",
      "type": "function"
    },
    {
      "inputs": [
        {
          "internalType": "uint256",
          "name": "_amount",
          "type": "uint256"
        }
      ],
      "name": "calculateWithdrawFee",
      "outputs": [
        {
          "internalType": "uint256",
          "name": "",
          "type": "uint256"
        }
      ],
      "stateMutability": "view",
      "type": "function"
    },
    {
      "inputs": [],
      "name": "checkReward",
      "outputs": [
        {
          "internalType": "uint256",
          "name": "",
          "type": "uint256"
        }
      ],
      "stateMutability": "view",
      "type": "function"
    },
    {
      "inputs": [],
      "name": "decimals",
      "outputs": [
        {
          "internalType": "uint8",
          "name": "",
          "type": "uint8"
        }
      ],
      "stateMutability": "view",
      "type": "function"
    },
    {
      "inputs": [
        {
          "internalType": "uint256",
          "name": "_amount",
          "type": "uint256"
        }
      ],
      "name": "deposit",
      "outputs": [],
      "stateMutability": "nonpayable",
      "type": "function"
    },
    {
      "inputs": [
        {
          "internalType": "address",
          "name": "_account",
          "type": "address"
        },
        {
          "internalType": "uint256",
          "name": "_amount",
          "type": "uint256"
        }
      ],
      "name": "depositFor",
      "outputs": [],
      "stateMutability": "nonpayable",
      "type": "function"
    },
    {
      "inputs": [],
      "name": "depositToken",
      "outputs": [
        {
          "internalType": "contract IERC20",
          "name": "",
          "type": "address"
        }
      ],
      "stateMutability": "view",
      "type": "function"
    },
    {
      "inputs": [
        {
          "internalType": "uint256",
          "name": "_amount",
          "type": "uint256"
        },
        {
          "internalType": "uint256",
          "name": "_deadline",
          "type": "uint256"
        },
        {
          "internalType": "uint8",
          "name": "_v",
          "type": "uint8"
        },
        {
          "internalType": "bytes32",
          "name": "_r",
          "type": "bytes32"
        },
        {
          "internalType": "bytes32",
          "name": "_s",
          "type": "bytes32"
        }
      ],
      "name": "depositWithPermit",
      "outputs": [],
      "stateMutability": "nonpayable",
      "type": "function"
    },
    {
      "inputs": [],
      "name": "devAddr",
      "outputs": [
        {
          "internalType": "address",
          "name": "",
          "type": "address"
        }
      ],
      "stateMutability": "view",
      "type": "function"
    },
    {
      "inputs": [],
      "name": "estimateDeployedBalance",
      "outputs": [
        {
          "internalType": "uint256",
          "name": "",
          "type": "uint256"
        }
      ],
      "stateMutability": "view",
      "type": "function"
    },
    {
      "inputs": [],
      "name": "estimateReinvestReward",
      "outputs": [
        {
          "internalType": "uint256",
          "name": "",
          "type": "uint256"
        }
      ],
      "stateMutability": "view",
      "type": "function"
    },
    {
      "inputs": [
        {
          "internalType": "uint256",
          "name": "amount",
          "type": "uint256"
        }
      ],
      "name": "getDepositTokensForShares",
      "outputs": [
        {
          "internalType": "uint256",
          "name": "",
          "type": "uint256"
        }
      ],
      "stateMutability": "view",
      "type": "function"
    },
    {
      "inputs": [],
      "name": "getDomainSeparator",
      "outputs": [
        {
          "internalType": "bytes32",
          "name": "",
          "type": "bytes32"
        }
      ],
      "stateMutability": "view",
      "type": "function"
    },
    {
      "inputs": [
        {
          "internalType": "uint256",
          "name": "amount",
          "type": "uint256"
        }
      ],
      "name": "getSharesForDepositTokens",
      "outputs": [
        {
          "internalType": "uint256",
          "name": "",
          "type": "uint256"
        }
      ],
      "stateMutability": "view",
      "type": "function"
    },
    {
      "inputs": [],
      "name": "name",
      "outputs": [
        {
          "internalType": "string",
          "name": "",
          "type": "string"
        }
      ],
      "stateMutability": "view",
      "type": "function"
    },
    {
      "inputs": [
        {
          "internalType": "address",
          "name": "",
          "type": "address"
        }
      ],
      "name": "nonces",
      "outputs": [
        {
          "internalType": "uint256",
          "name": "",
          "type": "uint256"
        }
      ],
      "stateMutability": "view",
      "type": "function"
    },
    {
      "inputs": [],
      "name": "numberOfAllowedDepositors",
      "outputs": [
        {
          "internalType": "uint256",
          "name": "",
          "type": "uint256"
        }
      ],
      "stateMutability": "view",
      "type": "function"
    },
    {
      "inputs": [],
      "name": "owner",
      "outputs": [
        {
          "internalType": "address",
          "name": "",
          "type": "address"
        }
      ],
      "stateMutability": "view",
      "type": "function"
    },
    {
      "inputs": [
        {
          "internalType": "address",
          "name": "owner",
          "type": "address"
        },
        {
          "internalType": "address",
          "name": "spender",
          "type": "address"
        },
        {
          "internalType": "uint256",
          "name": "value",
          "type": "uint256"
        },
        {
          "internalType": "uint256",
          "name": "deadline",
          "type": "uint256"
        },
        {
          "internalType": "uint8",
          "name": "v",
          "type": "uint8"
        },
        {
          "internalType": "bytes32",
          "name": "r",
          "type": "bytes32"
        },
        {
          "internalType": "bytes32",
          "name": "s",
          "type": "bytes32"
        }
      ],
      "name": "permit",
      "outputs": [],
      "stateMutability": "nonpayable",
      "type": "function"
    },
    {
      "inputs": [
        {
          "internalType": "uint256",
          "name": "amount",
          "type": "uint256"
        }
      ],
      "name": "recoverAVAX",
      "outputs": [],
      "stateMutability": "nonpayable",
      "type": "function"
    },
    {
      "inputs": [
        {
          "internalType": "address",
          "name": "tokenAddress",
          "type": "address"
        },
        {
          "internalType": "uint256",
          "name": "tokenAmount",
          "type": "uint256"
        }
      ],
      "name": "recoverERC20",
      "outputs": [],
      "stateMutability": "nonpayable",
      "type": "function"
    },
    {
      "inputs": [],
      "name": "reinvest",
      "outputs": [],
      "stateMutability": "nonpayable",
      "type": "function"
    },
    {
      "inputs": [
        {
          "internalType": "address",
          "name": "depositor",
          "type": "address"
        }
      ],
      "name": "removeDepositor",
      "outputs": [],
      "stateMutability": "nonpayable",
      "type": "function"
    },
    {
      "inputs": [
        {
          "internalType": "address",
          "name": "_rewardToken",
          "type": "address"
        }
      ],
      "name": "removeReward",
      "outputs": [],
      "stateMutability": "nonpayable",
      "type": "function"
    },
    {
      "inputs": [],
      "name": "renounceOwnership",
      "outputs": [],
      "stateMutability": "nonpayable",
      "type": "function"
    },
    {
      "inputs": [
        {
          "internalType": "uint256",
          "name": "_minReturnAmountAccepted",
          "type": "uint256"
        },
        {
          "internalType": "bool",
          "name": "",
          "type": "bool"
        }
      ],
      "name": "rescueDeployedFunds",
      "outputs": [],
      "stateMutability": "nonpayable",
      "type": "function"
    },
    {
      "inputs": [
        {
          "internalType": "address",
          "name": "token",
          "type": "address"
        },
        {
          "internalType": "address",
          "name": "spender",
          "type": "address"
        }
      ],
      "name": "revokeAllowance",
      "outputs": [],
      "stateMutability": "nonpayable",
      "type": "function"
    },
    {
      "inputs": [],
      "name": "rewardCount",
      "outputs": [
        {
          "internalType": "uint256",
          "name": "",
          "type": "uint256"
        }
      ],
      "stateMutability": "view",
      "type": "function"
    },
    {
      "inputs": [
        {
          "internalType": "address",
          "name": "",
          "type": "address"
        }
      ],
      "name": "rewardSwapPairs",
      "outputs": [
        {
          "internalType": "address",
          "name": "",
          "type": "address"
        }
      ],
      "stateMutability": "view",
      "type": "function"
    },
    {
      "inputs": [],
      "name": "rewardToken",
      "outputs": [
        {
          "internalType": "contract IERC20",
          "name": "",
          "type": "address"
        }
      ],
      "stateMutability": "view",
      "type": "function"
    },
    {
      "inputs": [
        {
          "internalType": "uint256",
          "name": "",
          "type": "uint256"
        }
      ],
      "name": "supportedRewards",
      "outputs": [
        {
          "internalType": "address",
          "name": "",
          "type": "address"
        }
      ],
      "stateMutability": "view",
      "type": "function"
    },
    {
      "inputs": [],
      "name": "symbol",
      "outputs": [
        {
          "internalType": "string",
          "name": "",
          "type": "string"
        }
      ],
      "stateMutability": "view",
      "type": "function"
    },
    {
      "inputs": [],
      "name": "totalDeposits",
      "outputs": [
        {
          "internalType": "uint256",
          "name": "",
          "type": "uint256"
        }
      ],
      "stateMutability": "view",
      "type": "function"
    },
    {
      "inputs": [],
      "name": "totalSupply",
      "outputs": [
        {
          "internalType": "uint256",
          "name": "",
          "type": "uint256"
        }
      ],
      "stateMutability": "view",
      "type": "function"
    },
    {
      "inputs": [
        {
          "internalType": "address",
          "name": "dst",
          "type": "address"
        },
        {
          "internalType": "uint256",
          "name": "amount",
          "type": "uint256"
        }
      ],
      "name": "transfer",
      "outputs": [
        {
          "internalType": "bool",
          "name": "",
          "type": "bool"
        }
      ],
      "stateMutability": "nonpayable",
      "type": "function"
    },
    {
      "inputs": [
        {
          "internalType": "address",
          "name": "src",
          "type": "address"
        },
        {
          "internalType": "address",
          "name": "dst",
          "type": "address"
        },
        {
          "internalType": "uint256",
          "name": "amount",
          "type": "uint256"
        }
      ],
      "name": "transferFrom",
      "outputs": [
        {
          "internalType": "bool",
          "name": "",
          "type": "bool"
        }
      ],
      "stateMutability": "nonpayable",
      "type": "function"
    },
    {
      "inputs": [
        {
          "internalType": "address",
          "name": "newOwner",
          "type": "address"
        }
      ],
      "name": "transferOwnership",
      "outputs": [],
      "stateMutability": "nonpayable",
      "type": "function"
    },
    {
      "inputs": [
        {
          "internalType": "uint256",
          "name": "newValue",
          "type": "uint256"
        }
      ],
      "name": "updateAdminFee",
      "outputs": [],
      "stateMutability": "nonpayable",
      "type": "function"
    },
    {
      "inputs": [
        {
          "internalType": "bool",
          "name": "newValue",
          "type": "bool"
        }
      ],
      "name": "updateDepositsEnabled",
      "outputs": [],
      "stateMutability": "nonpayable",
      "type": "function"
    },
    {
      "inputs": [
        {
          "internalType": "address",
          "name": "newValue",
          "type": "address"
        }
      ],
      "name": "updateDevAddr",
      "outputs": [],
      "stateMutability": "nonpayable",
      "type": "function"
    },
    {
      "inputs": [
        {
          "internalType": "uint256",
          "name": "newValue",
          "type": "uint256"
        }
      ],
      "name": "updateDevFee",
      "outputs": [],
      "stateMutability": "nonpayable",
      "type": "function"
    },
    {
      "inputs": [
        {
          "internalType": "uint256",
          "name": "newValue",
          "type": "uint256"
        }
      ],
      "name": "updateMaxTokensToDepositWithoutReinvest",
      "outputs": [],
      "stateMutability": "nonpayable",
      "type": "function"
    },
    {
      "inputs": [
        {
          "internalType": "uint256",
          "name": "newValue",
          "type": "uint256"
        }
      ],
      "name": "updateMinTokensToReinvest",
      "outputs": [],
      "stateMutability": "nonpayable",
      "type": "function"
    },
    {
      "inputs": [
        {
          "internalType": "uint256",
          "name": "newValue",
          "type": "uint256"
        }
      ],
      "name": "updateReinvestReward",
      "outputs": [],
      "stateMutability": "nonpayable",
      "type": "function"
    },
    {
      "inputs": [
        {
          "internalType": "uint256",
          "name": "_amount",
          "type": "uint256"
        }
      ],
      "name": "withdraw",
      "outputs": [],
      "stateMutability": "nonpayable",
      "type": "function"
    }
  ],
  "bytecode": {
    "object": "0x60c060405260096080819052685969656c642059616b60b81b60a09081526200002c916000919062000bc2565b506040805180820190915260038082526216549560ea1b6020909201918252620000599160019162000bc2565b503480156200006757600080fd5b50604051620058b3380380620058b38339810160408190526200008a9162000e2a565b878787878585858584848480600033600680546001600160a01b0319166001600160a01b0383169081179091556040519192509060009060008051602062005893833981519152908290a3508051620000e390620002a0565b6020810151620000f39062000330565b60408101516200010390620003e7565b5084516200011990600090602088019062000bc2565b50600980546001600160a01b0386166001600160a01b031991821617909155600a8054821673b31f66aa3c1e785363f0875a1b74e27b85fd66c7179055600b8054909116732d580f9cf2fb2d09bc411532988f2afda4e7beff17905560005b8351811015620001e957620001d48482815181106200019b576200019b62000f80565b602002602001015160000151858381518110620001bc57620001bc62000f80565b6020026020010151602001516200049e60201b60201c565b80620001e08162000fac565b91505062000178565b50620001f6600162000627565b6200020182620006d1565b60408051600080825260208201527fc7606d21ac05cd309191543e409f0845c016120563783d70e4f41419dc0ef234910160405180910390a150505050506200025084620007ce60201b60201c565b5050601680546001600160a01b03808b166001600160a01b03199283161790925560178054928a16929091169190911790555062000292925050620008b69050565b505050505050505062001125565b6006546001600160a01b03163314620002ef5760405162461bcd60e51b815260206004820181905260248201526000805160206200587383398151915260448201526064015b60405180910390fd5b600c5460408051918252602082018390527f481f79ac3a523b6d6db3c5a720e190e986d1cc1b41adcdf50f9caef849901100910160405180910390a1600c55565b6006546001600160a01b031633146200037b5760405162461bcd60e51b81526020600482018190526024820152600080516020620058738339815191526044820152606401620002e6565b6127106200039a601054836200098860201b62001f8f1790919060201c565b1115620003a657600080fd5b60115460408051918252602082018390527f2a42303d002f0ba6cfe8259c91d4684443fb0b3de286ba74991175d651726131910160405180910390a1601155565b6006546001600160a01b03163314620004325760405162461bcd60e51b81526020600482018190526024820152600080516020620058738339815191526044820152606401620002e6565b61271062000451601154836200098860201b62001f8f1790919060201c565b11156200045d57600080fd5b60105460408051918252602082018390527fe7f97d51d307dc44045597c9978bec0f842e6bb40d19b9444084cfa30d9ed4f2910160405180910390a1601055565b600a546001600160a01b038381169116146200055757620004e18183600a60009054906101000a90046001600160a01b03166200099d60201b62001f9b1760201c565b62000557576040805162461bcd60e51b81526020600482015260248101919091527f5661726961626c655265776172647353747261746567793a3a5377617020706160448201527f697220646f6573206e6f7420636f6e7461696e2072657761726420746f6b656e6064820152608401620002e6565b6001600160a01b038083166000818152601260209081526040822080549486166001600160a01b03199586161790556013805460018181018355919093527f66de8ffda797e3de9c05e8fc57b3bf0ec28a930d40b0d285d93c06501cf6a0909092018054909416909217909255601454620005dd92909162001f8f62000988821b17901c565b601455604080516001600160a01b038085168252831660208201527f916e172c080569186aa7ea048268267257cf7cc49505908863f747bca8620f80910160405180910390a15050565b6006546001600160a01b03163314620006725760405162461bcd60e51b81526020600482018190526024820152600080516020620058738339815191526044820152606401620002e6565b600e5481151560ff9091161515036200068a57600080fd5b600e805460ff19168215159081179091556040519081527f7b014ed3854e7f5cb0218d58b3c6ae7d53a68bb0af2f67bfb029ea42c38a7e859060200160405180910390a150565b6006546001600160a01b031633146200071c5760405162461bcd60e51b81526020600482018190526024820152600080516020620058738339815191526044820152606401620002e6565b6001600160a01b038116620007835760405162461bcd60e51b815260206004820152602660248201527f4f776e61626c653a206e6577206f776e657220697320746865207a65726f206160448201526564647265737360d01b6064820152608401620002e6565b6006546040516001600160a01b038084169216906000805160206200589383398151915290600090a3600680546001600160a01b0319166001600160a01b0392909216919091179055565b600954600a54620007fa9183916001600160a01b0391821691166200099d602090811b62001f9b17901c565b620008945760405162461bcd60e51b815260206004820152605a60248201527f5661726961626c65526577617264735374726174656779466f7253413a3a737760448201527f6170506169724465706f736974546f6b656e20646f6573206e6f74206d61746360648201527f68206465706f73697420616e642072657761726420746f6b656e000000000000608482015260a401620002e6565b601580546001600160a01b0319166001600160a01b0392909216919091179055565b60408051600180825281830190925260009160208083019080368337505060175482519293506001600160a01b031691839150600090620008fb57620008fb62000f80565b6001600160a01b039283166020918202929092010152601654604051631853304760e31b815291169063c2998238906200093a90849060040162000fc8565b6000604051808303816000875af11580156200095a573d6000803e3d6000fd5b505050506040513d6000823e601f3d908101601f1916820160405262000984919081019062001017565b5050565b6000620009968284620010b0565b9392505050565b6000836001600160a01b0316630dfe16816040518163ffffffff1660e01b8152600401602060405180830381865afa158015620009de573d6000803e3d6000fd5b505050506040513d601f19601f8201168201806040525081019062000a049190620010cb565b6001600160a01b0316836001600160a01b0316148062000a995750836001600160a01b031663d21220a76040518163ffffffff1660e01b8152600401602060405180830381865afa15801562000a5e573d6000803e3d6000fd5b505050506040513d601f19601f8201168201806040525081019062000a849190620010cb565b6001600160a01b0316836001600160a01b0316145b801562000b9b5750836001600160a01b0316630dfe16816040518163ffffffff1660e01b8152600401602060405180830381865afa15801562000ae0573d6000803e3d6000fd5b505050506040513d601f19601f8201168201806040525081019062000b069190620010cb565b6001600160a01b0316826001600160a01b0316148062000b9b5750836001600160a01b031663d21220a76040518163ffffffff1660e01b8152600401602060405180830381865afa15801562000b60573d6000803e3d6000fd5b505050506040513d601f19601f8201168201806040525081019062000b869190620010cb565b6001600160a01b0316826001600160a01b0316145b801562000bba5750816001600160a01b0316836001600160a01b031614155b949350505050565b82805462000bd090620010e9565b90600052602060002090601f01602090048101928262000bf4576000855562000c3f565b82601f1062000c0f57805160ff191683800117855562000c3f565b8280016001018555821562000c3f579182015b8281111562000c3f57825182559160200191906001019062000c22565b5062000c4d92915062000c51565b5090565b5b8082111562000c4d576000815560010162000c52565b634e487b7160e01b600052604160045260246000fd5b604080519081016001600160401b038111828210171562000ca35762000ca362000c68565b60405290565b604051601f8201601f191681016001600160401b038111828210171562000cd45762000cd462000c68565b604052919050565b80516001600160a01b038116811462000cf457600080fd5b919050565b60006001600160401b0382111562000d155762000d1562000c68565b5060051b60200190565b600082601f83011262000d3157600080fd5b8151602062000d4a62000d448362000cf9565b62000ca9565b82815260069290921b8401810191818101908684111562000d6a57600080fd5b8286015b8481101562000dc0576040818903121562000d895760008081fd5b62000d9362000c7e565b62000d9e8262000cdc565b815262000dad85830162000cdc565b8186015283529183019160400162000d6e565b509695505050505050565b60006060828403121562000dde57600080fd5b604051606081016001600160401b038111828210171562000e035762000e0362000c68565b80604052508091508251815260208301516020820152604083015160408201525092915050565b600080600080600080600080610140898b03121562000e4857600080fd5b88516001600160401b038082111562000e6057600080fd5b818b0191508b601f83011262000e7557600080fd5b81518181111562000e8a5762000e8a62000c68565b602062000ea0601f8301601f1916820162000ca9565b8281528e8284870101111562000eb557600080fd5b60005b8381101562000ed557858101830151828201840152820162000eb8565b8381111562000ee75760008385840101525b509b5062000ef78d820162000cdc565b9a50505062000f0960408c0162000cdc565b975060608b015191508082111562000f2057600080fd5b5062000f2f8b828c0162000d1f565b95505062000f4060808a0162000cdc565b935062000f5060a08a0162000cdc565b925062000f6060c08a0162000cdc565b915062000f718a60e08b0162000dcb565b90509295985092959890939650565b634e487b7160e01b600052603260045260246000fd5b634e487b7160e01b600052601160045260246000fd5b60006001820162000fc15762000fc162000f96565b5060010190565b6020808252825182820181905260009190848201906040850190845b818110156200100b5783516001600160a01b03168352928401929184019160010162000fe4565b50909695505050505050565b600060208083850312156200102b57600080fd5b82516001600160401b038111156200104257600080fd5b8301601f810185136200105457600080fd5b80516200106562000d448262000cf9565b81815260059190911b820183019083810190878311156200108557600080fd5b928401925b82841015620010a5578351825292840192908401906200108a565b979650505050505050565b60008219821115620010c657620010c662000f96565b500190565b600060208284031215620010de57600080fd5b620009968262000cdc565b600181811c90821680620010fe57607f821691505b6020821081036200111f57634e487b7160e01b600052602260045260246000fd5b50919050565b61473e80620011356000396000f3fe608060405234801561001057600080fd5b50600436106103a45760003560e01c80638aff733d116101e9578063bd079f551161010f578063dd8ce4d6116100ad578063ed24911d1161007c578063ed24911d14610815578063f2fde38b1461081d578063f7c618c114610830578063fdb5a03e1461084357600080fd5b8063dd8ce4d6146107c9578063e21ac825146107dc578063e75ab045146107ef578063eab89a5a1461080257600080fd5b8063cff1b6ef116100e9578063cff1b6ef14610757578063d505accf1461076a578063da09c72c1461077d578063dd62ed3e1461079057600080fd5b8063bd079f5514610733578063c4b24a461461073c578063c89039c51461074457600080fd5b8063a4d5e67c11610187578063ac0d31ff11610156578063ac0d31ff146106f8578063b52a321f1461070b578063b6b55f2514610718578063b9e57b801461072b57600080fd5b8063a4d5e67c14610696578063a5534e71146106a9578063a8ae2b7c146106d2578063a9059cbb146106e557600080fd5b80639291d563116101c35780639291d5631461064157806395d89b411461065457806399729ec11461065c5780639e4e73181461066f57600080fd5b80638aff733d146106005780638b73e606146106095780638da5cb5b1461061c57600080fd5b8063483c2ef0116102ce578063715018a61161026c5780637d8820971161023b5780637d882097146105b25780637ecebe00146105ba57806381837230146105da5780638980f11f146105ed57600080fd5b8063715018a614610585578063789139bc1461058d57806379085425146105965780637ae267731461059f57600080fd5b80634e77ace5116102a85780634e77ace51461052d5780634ebb7916146105405780635ea682ea1461055357806370a082311461055c57600080fd5b8063483c2ef0146104e45780634a970be7146105075780634bebd1e71461051a57600080fd5b806323b872dd1161034657806330adf81f1161031557806330adf81f14610487578063313ce567146104ae5780633bdc6e72146104c857806340b47e1a146104d157600080fd5b806323b872dd1461044c578063247d284b146104095780632e1a7d4d1461045f5780632f4f21e21461047457600080fd5b80630f23475d116103825780630f23475d14610401578063110560351461040957806318160ddd1461041c57806320606b701461042557600080fd5b806306fdde03146103a957806307677111146103c7578063095ea7b3146103de575b600080fd5b6103b161084b565b6040516103be919061403c565b60405180910390f35b6103d0600f5481565b6040519081526020016103be565b6103f16103ec366004614064565b6108d9565b60405190151581526020016103be565b6103d06108ef565b6103d0610417366004614090565b61091a565b6103d060025481565b6103d07f8b73c3c69bb8fe3d512ecc4cf759cc79239f7b179b0ffacaa9a75d522b39400f81565b6103f161045a3660046140a9565b61092b565b61047261046d366004614090565b610a0f565b005b610472610482366004614064565b610b0a565b6103d07f6e71edae12b1b97f4d1f60370fef10105fa2faae0126114a169c64845d6126c981565b6104b6601281565b60405160ff90911681526020016103be565b6103d060075481565b6104726104df3660046140ea565b610b18565b6103f16104f2366004614123565b60086020526000908152604090205460ff1681565b610472610515366004614156565b610b4c565b610472610528366004614123565b610be5565b61047261053b3660046141ab565b610ce4565b61047261054e366004614090565b610d6d565b6103d060115481565b6103d061056a366004614123565b6001600160a01b031660009081526004602052604090205490565b610472610e09565b6103d0600d5481565b6103d060145481565b6104726105ad3660046140ea565b610e7d565b6103d0610f23565b6103d06105c8366004614123565b60056020526000908152604090205481565b6104726105e8366004614090565b610fbf565b6104726105fb366004614064565b61102a565b6103d060105481565b610472610617366004614123565b611122565b6006546001600160a01b03165b6040516001600160a01b0390911681526020016103be565b61047261064f366004614123565b6112a3565b6103b1611336565b61047261066a366004614090565b611343565b6103d07fc89efdaa54c0f20c7adf612882df0950f5a951637e0307cdcb4c672f298b8bc681565b6104726106a4366004614123565b6113d1565b6106296106b7366004614123565b6012602052600090815260409020546001600160a01b031681565b6104726106e0366004614090565b6115d7565b6103f16106f3366004614064565b611665565b6104726107063660046141c8565b611672565b600e546103f19060ff1681565b610472610726366004614090565b61187a565b6103d0611887565b6103d0600c5481565b6103d06118c6565b600954610629906001600160a01b031681565b610472610765366004614090565b611b34565b6104726107783660046141ed565b611baa565b600b54610629906001600160a01b031681565b6103d061079e3660046140ea565b6001600160a01b03918216600090815260036020908152604080832093909416825291909152205490565b6103d06107d7366004614090565b611caf565b6104726107ea366004614090565b611ce9565b6106296107fd366004614090565b611d54565b6103d0610810366004614090565b611d7e565b6103d0611db2565b61047261082b366004614123565b611e52565b600a54610629906001600160a01b031681565b610472611f3d565b600080546108589061425b565b80601f01602080910402602001604051908101604052809291908181526020018280546108849061425b565b80156108d15780601f106108a6576101008083540402835291602001916108d1565b820191906000526020600020905b8154815290600101906020018083116108b457829003601f168201915b505050505081565b60006108e63384846121b0565b50600192915050565b6000806108fa610f23565b90506000610907826122be565b905061091382826122d1565b9250505090565b6000610925826122be565b92915050565b6001600160a01b03831660008181526003602090815260408083203380855292528220549192909190821480159061096557506000198114155b156109f6576000610991856040518060600160405280602f8152602001614685602f91398491906122dd565b6001600160a01b038881166000818152600360209081526040808320948916808452948252918290208590559051848152939450919290917f8c5be1e5ebec7d5bd14f71427d1e84f3dd0314c0f7b2291e5b200ac8c7c3b925910160405180910390a3505b610a01868686612309565b6001925050505b9392505050565b6000610a1a82611d7e565b905060008111610a8a5760405162461bcd60e51b815260206004820152603060248201527f5661726961626c655265776172647353747261746567793a3a5769746864726160448201526f7720616d6f756e7420746f6f206c6f7760801b60648201526084015b60405180910390fd5b6000610a958261243c565b90506000610aa2836122be565b9050610ac533610ab284846122d1565b6009546001600160a01b031691906124f0565b610acf3385612547565b60405183815233907f884edad9ce6fa2440d8a54cc123490eb96d2768479d49ff9c7366125a94243649060200160405180910390a250505050565b610b14828261261d565b5050565b600b546001600160a01b03163314610b425760405162461bcd60e51b8152600401610a819061428f565b610b14828261280b565b60095460405163d505accf60e01b8152336004820152306024820152604481018790526064810186905260ff8516608482015260a4810184905260c481018390526001600160a01b039091169063d505accf9060e401600060405180830381600087803b158015610bbc57600080fd5b505af1158015610bd0573d6000803e3d6000fd5b50505050610bde338661261d565b5050505050565b6006546001600160a01b03163314610c0f5760405162461bcd60e51b8152600401610a81906142bd565b6001600160a01b03811660009081526008602052604090205460ff1615610c785760405162461bcd60e51b815260206004820152601c60248201527f5065726d697373696f6e65643a3a616c6c6f774465706f7369746f72000000006044820152606401610a81565b6001600160a01b0381166000908152600860205260409020805460ff19166001908117909155600754610caa91611f8f565b6007556040516001600160a01b038216907fc0a1035c16faf8d1304056d92c00edf028f87e62b8235a938f00af9e3c0312c590600090a250565b6006546001600160a01b03163314610d0e5760405162461bcd60e51b8152600401610a81906142bd565b600e5481151560ff909116151503610d2557600080fd5b600e805460ff19168215159081179091556040519081527f7b014ed3854e7f5cb0218d58b3c6ae7d53a68bb0af2f67bfb029ea42c38a7e85906020015b60405180910390a150565b6006546001600160a01b03163314610d975760405162461bcd60e51b8152600401610a81906142bd565b60008111610da457600080fd5b604051339082156108fc029083906000818181858888f19350505050158015610dd1573d6000803e3d6000fd5b506040805160008152602081018390527f8c1256b8896378cd5044f80c202f9772b9d77dc85c8a6eb51967210b09bfaa289101610d62565b6006546001600160a01b03163314610e335760405162461bcd60e51b8152600401610a81906142bd565b6006546040516000916001600160a01b0316907f8be0079c531659141344cd1fd0a4f28419497f9722a3daafe3b4186f6b6457e0908390a3600680546001600160a01b0319169055565b6006546001600160a01b03163314610ea75760405162461bcd60e51b8152600401610a81906142bd565b60405163095ea7b360e01b81526001600160a01b0382811660048301526000602483015283169063095ea7b3906044016020604051808303816000875af1158015610ef6573d6000803e3d6000fd5b505050506040513d601f19601f82011682018060405250810190610f1a91906142f2565b610b1457600080fd5b6017546040516361bfb47160e11b8152306004820152600091829182916001600160a01b03169063c37f68e290602401608060405180830381865afa158015610f70573d6000803e3d6000fd5b505050506040513d601f19601f82011682018060405250810190610f94919061430f565b935050925050610913670de0b6b3a7640000610fb9838561296790919063ffffffff16565b90612973565b6006546001600160a01b03163314610fe95760405162461bcd60e51b8152600401610a81906142bd565b600c5460408051918252602082018390527f481f79ac3a523b6d6db3c5a720e190e986d1cc1b41adcdf50f9caef849901100910160405180910390a1600c55565b6006546001600160a01b031633146110545760405162461bcd60e51b8152600401610a81906142bd565b6000811161106157600080fd5b60405163a9059cbb60e01b8152336004820152602481018290526001600160a01b0383169063a9059cbb906044016020604051808303816000875af11580156110ae573d6000803e3d6000fd5b505050506040513d601f19601f820116820180604052508101906110d291906142f2565b6110db57600080fd5b604080516001600160a01b0384168152602081018390527f8c1256b8896378cd5044f80c202f9772b9d77dc85c8a6eb51967210b09bfaa2891015b60405180910390a15050565b6006546001600160a01b0316331461114c5760405162461bcd60e51b8152600401610a81906142bd565b6000600754116111bb5760405162461bcd60e51b815260206004820152603460248201527f5065726d697373696f6e65643a3a72656d6f76654465706f7369746f722c206e6044820152736f20616c6c6f776564206465706f7369746f727360601b6064820152608401610a81565b6001600160a01b03811660009081526008602052604090205460ff16151560011461123b5760405162461bcd60e51b815260206004820152602a60248201527f5065726d697373696f6e65643a3a72656d6f76654465706f7369746f722c206e6044820152691bdd08185b1b1bddd95960b21b6064820152608401610a81565b6001600160a01b0381166000908152600860205260409020805460ff191690556007546112699060016122d1565b6007556040516001600160a01b038216907f0e86f6608b536e5339a25b65ff531f5ea91e1313d056ecd4752b35cbd16137d490600090a250565b600b546001600160a01b031633146112cd5760405162461bcd60e51b8152600401610a819061428f565b600b54604080516001600160a01b03928316815291831660208301527fa8e91499ed37682f43cffb045fcc7d379a91e8c9a14e6321877ee34dee564c00910160405180910390a1600b80546001600160a01b0319166001600160a01b0392909216919091179055565b600180546108589061425b565b6006546001600160a01b0316331461136d5760405162461bcd60e51b8152600401610a81906142bd565b61271061138560105483611f8f90919063ffffffff16565b111561139057600080fd5b60115460408051918252602082018390527f2a42303d002f0ba6cfe8259c91d4684443fb0b3de286ba74991175d651726131910160405180910390a1601155565b600b546001600160a01b031633146113fb5760405162461bcd60e51b8152600401610a819061428f565b6001600160a01b038116600090815260126020526040812080546001600160a01b0319169055805b6013548110156114ef576013818154811061144057611440614345565b6000918252602090912001546001600160a01b03908116908416036114dd576013805460019350611472908490614371565b8154811061148257611482614345565b600091825260209091200154601380546001600160a01b0390921691839081106114ae576114ae614345565b9060005260206000200160006101000a8154816001600160a01b0302191690836001600160a01b031602179055505b806114e781614388565b915050611423565b508061155a5760405162461bcd60e51b815260206004820152603460248201527f5661726961626c655265776172647353747261746567793a3a52657761726420604482015273746f2064656c657465206e6f7420666f756e642160601b6064820152608401610a81565b601380548061156b5761156b6143a1565b600082815260209020810160001990810180546001600160a01b031916905501905560145461159b9060016122d1565b6014556040516001600160a01b03831681527f963b7c735475147a62c589c2d7cb8ec4b0a6b7af4f97373d79ebfa42ab8aa7dc90602001611116565b6006546001600160a01b031633146116015760405162461bcd60e51b8152600401610a81906142bd565b61271061161960115483611f8f90919063ffffffff16565b111561162457600080fd5b60105460408051918252602082018390527fe7f97d51d307dc44045597c9978bec0f842e6bb40d19b9444084cfa30d9ed4f2910160405180910390a1601055565b60006108e6338484612309565b6006546001600160a01b0316331461169c5760405162461bcd60e51b8152600401610a81906142bd565b6009546040516370a0823160e01b81523060048201526000916001600160a01b0316906370a0823190602401602060405180830381865afa1580156116e5573d6000803e3d6000fd5b505050506040513d601f19601f8201168201806040525081019061170991906143b7565b905061171361297f565b6009546040516370a0823160e01b81523060048201526000916001600160a01b0316906370a0823190602401602060405180830381865afa15801561175c573d6000803e3d6000fd5b505050506040513d601f19601f8201168201806040525081019061178091906143b7565b90508361178d82846122d1565b10156118175760405162461bcd60e51b815260206004820152604d60248201527f5661726961626c655265776172647353747261746567793a3a456d657267656e60448201527f6379207769746864726177206d696e696d756d2072657475726e20616d6f756e60648201526c1d081b9bdd081c995858da1959609a1b608482015260a401610a81565b7fc7606d21ac05cd309191543e409f0845c016120563783d70e4f41419dc0ef234611840610f23565b6002546040805192835260208301919091520160405180910390a1600e5460ff161515600103611874576118746000610ce4565b50505050565b611884338261261d565b50565b6000806118926118c6565b9050600c5481106118be576118b8612710610fb96010548461296790919063ffffffff16565b91505090565b600091505090565b6000806118d1612a56565b6040516370a0823160e01b815230600482015290915060009073b31f66aa3c1e785363f0875a1b74e27b85fd66c7906370a0823190602401602060405180830381865afa158015611926573d6000803e3d6000fd5b505050506040513d601f19601f8201168201806040525081019061194a91906143b7565b90506119568147611f8f565b5060005b8251811015611b2d57600083828151811061197757611977614345565b602002602001015160000151905073b31f66aa3c1e785363f0875a1b74e27b85fd66c76001600160a01b0316816001600160a01b0316036119e9576119e28483815181106119c7576119c7614345565b60200260200101516020015184611f8f90919063ffffffff16565b9250611b1a565b6040516370a0823160e01b81523060048201526000906001600160a01b038316906370a0823190602401602060405180830381865afa158015611a30573d6000803e3d6000fd5b505050506040513d601f19601f82011682018060405250810190611a5491906143b7565b90506000611a88868581518110611a6d57611a6d614345565b60200260200101516020015183611f8f90919063ffffffff16565b9050600060126000888781518110611aa257611aa2614345565b602090810291909101810151516001600160a01b03908116835290820192909252604001600020541690508115801590611ae457506001600160a01b03811615155b15611b1657611b13611b0c838673b31f66aa3c1e785363f0875a1b74e27b85fd66c785612b44565b8790611f8f565b95505b5050505b5080611b2581614388565b91505061195a565b5092915050565b6006546001600160a01b03163314611b5e5760405162461bcd60e51b8152600401610a81906142bd565b8015611b6957600080fd5b600f5460408051918252602082018390527f3cc372f330f95ac9540626dc8a25f5bf21ba607215a5d58304cb804d446f104a910160405180910390a1600f55565b42841015611bec5760405162461bcd60e51b815260206004820152600f60248201526e1c195c9b5a5d0e8e995e1c1a5c9959608a1b6044820152606401610a81565b6001600160a01b038716600090815260056020526040812080547f6e71edae12b1b97f4d1f60370fef10105fa2faae0126114a169c64845d6126c9918a918a918a919086611c3983614388565b909155506040805160208101969096526001600160a01b0394851690860152929091166060840152608083015260a082015260c0810186905260e001604051602081830303815290604052805190602001209050611c9a8882868686612c02565b611ca58888886121b0565b5050505050505050565b6000611cc5611cbc610f23565b60025490612967565b600003611cd0575090565b610925611cdb610f23565b600254610fb9908590612967565b6006546001600160a01b03163314611d135760405162461bcd60e51b8152600401610a81906142bd565b600d5460408051918252602082018390527fa5dae50539d56dfe1fb5273d883b0c39bc76750a25d036fc5fbd09ad8fd5f57f910160405180910390a1600d55565b60138181548110611d6457600080fd5b6000918252602090912001546001600160a01b0316905081565b6000611d8b611cbc610f23565b600003611d9a57506000919050565b610925600254610fb9611dab610f23565b8590612967565b60007f8b73c3c69bb8fe3d512ecc4cf759cc79239f7b179b0ffacaa9a75d522b39400f60001b6000604051611de791906143d0565b6040519081900390207fc89efdaa54c0f20c7adf612882df0950f5a951637e0307cdcb4c672f298b8bc646604080516020810195909552840192909252606083015260808201523060a082015260c00160405160208183030381529060405280519060200120905090565b6006546001600160a01b03163314611e7c5760405162461bcd60e51b8152600401610a81906142bd565b6001600160a01b038116611ee15760405162461bcd60e51b815260206004820152602660248201527f4f776e61626c653a206e6577206f776e657220697320746865207a65726f206160448201526564647265737360d01b6064820152608401610a81565b6006546040516001600160a01b038084169216907f8be0079c531659141344cd1fd0a4f28419497f9722a3daafe3b4186f6b6457e090600090a3600680546001600160a01b0319166001600160a01b0392909216919091179055565b323314611f835760405162461bcd60e51b815260206004820152601460248201527359616b53747261746567793a3a6f6e6c79454f4160601b6044820152606401610a81565b611f8d6000612d2e565b565b6000610a08828461446b565b6000836001600160a01b0316630dfe16816040518163ffffffff1660e01b8152600401602060405180830381865afa158015611fdb573d6000803e3d6000fd5b505050506040513d601f19601f82011682018060405250810190611fff9190614483565b6001600160a01b0316836001600160a01b031614806120905750836001600160a01b031663d21220a76040518163ffffffff1660e01b8152600401602060405180830381865afa158015612057573d6000803e3d6000fd5b505050506040513d601f19601f8201168201806040525081019061207b9190614483565b6001600160a01b0316836001600160a01b0316145b801561218a5750836001600160a01b0316630dfe16816040518163ffffffff1660e01b8152600401602060405180830381865afa1580156120d5573d6000803e3d6000fd5b505050506040513d601f19601f820116820180604052508101906120f99190614483565b6001600160a01b0316826001600160a01b0316148061218a5750836001600160a01b031663d21220a76040518163ffffffff1660e01b8152600401602060405180830381865afa158015612151573d6000803e3d6000fd5b505050506040513d601f19601f820116820180604052508101906121759190614483565b6001600160a01b0316826001600160a01b0316145b80156121a85750816001600160a01b0316836001600160a01b031614155b949350505050565b6001600160a01b0383166122065760405162461bcd60e51b815260206004820152601c60248201527f5f617070726f76653a3a6f776e6572207a65726f2061646472657373000000006044820152606401610a81565b6001600160a01b03821661225c5760405162461bcd60e51b815260206004820152601e60248201527f5f617070726f76653a3a7370656e646572207a65726f206164647265737300006044820152606401610a81565b6001600160a01b0383811660008181526003602090815260408083209487168084529482529182902085905590518481527f8c5be1e5ebec7d5bd14f71427d1e84f3dd0314c0f7b2291e5b200ac8c7c3b92591015b60405180910390a3505050565b600080610a08612710610fb98584612967565b6000610a088284614371565b600081848411156123015760405162461bcd60e51b8152600401610a81919061403c565b505050900390565b6001600160a01b03821661237c5760405162461bcd60e51b815260206004820152603460248201527f5f7472616e73666572546f6b656e733a2063616e6e6f74207472616e7366657260448201527320746f20746865207a65726f206164647265737360601b6064820152608401610a81565b6123b9816040518060600160405280602e81526020016146db602e91396001600160a01b03861660009081526004602052604090205491906122dd565b6001600160a01b0380851660009081526004602052604080822093909355908416815220546123e89082611f8f565b6001600160a01b0380841660008181526004602052604090819020939093559151908516907fddf252ad1be2c89b69c2b068fc378daa952ba7f163c4a11628f55a4df523b3ef906122b19085815260200190565b60175460405163852a12e360e01b8152600481018390526000916001600160a01b03169063852a12e3906024016020604051808303816000875af1158015612488573d6000803e3d6000fd5b505050506040513d601f19601f820116820180604052508101906124ac91906143b7565b156124ec5760405162461bcd60e51b815260206004820152601060248201526f6661696c656420746f2072656465656d60801b6044820152606401610a81565b5090565b604080516001600160a01b038416602482015260448082018490528251808303909101815260649091019091526020810180516001600160e01b031663a9059cbb60e01b179052612542908490612ea4565b505050565b612584816040518060600160405280602781526020016146b4602791396001600160a01b03851660009081526004602052604090205491906122dd565b60046000846001600160a01b03166001600160a01b03168152602001908152602001600020819055506125d48160405180606001604052806027815260200161465e6027913960025491906122dd565b6002556040518181526000906001600160a01b038416907fddf252ad1be2c89b69c2b068fc378daa952ba7f163c4a11628f55a4df523b3ef906020015b60405180910390a35050565b600e5460ff1615156001146126875760405162461bcd60e51b815260206004820152602a60248201527f5661726961626c655265776172647353747261746567793a3a4465706f7369746044820152691cc8191a5cd8589b195960b21b6064820152608401610a81565b600d54156126b15760006126996118c6565b9050600d548111156126af576126af6001612d2e565b505b6009546040516323b872dd60e01b8152336004820152306024820152604481018390526001600160a01b03909116906323b872dd906064016020604051808303816000875af1158015612708573d6000803e3d6000fd5b505050506040513d601f19601f8201168201806040525081019061272c91906142f2565b6127975760405162461bcd60e51b815260206004820152603660248201527f5661726961626c655265776172647353747261746567793a3a4465706f736974604482015275081d1bdad95b881d1c985b9cd9995c8819985a5b195960521b6064820152608401610a81565b60006127a2826122be565b90506127ba836127b56107d785856122d1565b612f76565b6127c382612ffa565b826001600160a01b03167fe1fffcc4923d04b559f4d29a8bfc6cda04eb5b0d3c460751c2402c5c5cc9109c836040516127fe91815260200190565b60405180910390a2505050565b600a546001600160a01b038381169116146128ad57600a5461283990829084906001600160a01b0316611f9b565b6128ad576040805162461bcd60e51b81526020600482015260248101919091527f5661726961626c655265776172647353747261746567793a3a5377617020706160448201527f697220646f6573206e6f7420636f6e7461696e2072657761726420746f6b656e6064820152608401610a81565b6001600160a01b03808316600081815260126020526040812080549385166001600160a01b03199485161790556013805460018181018355919092527f66de8ffda797e3de9c05e8fc57b3bf0ec28a930d40b0d285d93c06501cf6a090909101805490931690911790915560145461292491611f8f565b601455604080516001600160a01b038085168252831660208201527f916e172c080569186aa7ea048268267257cf7cc49505908863f747bca8620f809101611116565b6000610a0882846144a0565b6000610a0882846144bf565b601754604051633af9e66960e01b81523060048201526001600160a01b039091169063852a12e3908290633af9e669906024016020604051808303816000875af11580156129d1573d6000803e3d6000fd5b505050506040513d601f19601f820116820180604052508101906129f591906143b7565b6040518263ffffffff1660e01b8152600401612a1391815260200190565b6020604051808303816000875af1158015612a32573d6000803e3d6000fd5b505050506040513d601f19601f8201168201806040525081019061188491906143b7565b6060600060145467ffffffffffffffff811115612a7557612a756144e1565b604051908082528060200260200182016040528015612aba57816020015b6040805180820190915260008082526020820152815260200190600190039081612a935790505b50905060005b601454811015612b3e57604051806040016040528060138381548110612ae857612ae8614345565b600091825260209182902001546001600160a01b0316825201612b0b8330613069565b815250828281518110612b2057612b20614345565b60200260200101819052508080612b3690614388565b915050612ac0565b50919050565b600080612b51858561311d565b509050600080846001600160a01b0316630902f1ac6040518163ffffffff1660e01b8152600401606060405180830381865afa158015612b95573d6000803e3d6000fd5b505050506040513d601f19601f82011682018060405250810190612bb99190614522565b5091509150866001600160a01b0316836001600160a01b031614612bd957905b612bf688836001600160701b0316836001600160701b031661314e565b98975050505050505050565b6000612c0c611db2565b60405161190160f01b602082015260228101919091526042810186905260620160408051601f198184030181528282528051602091820120600080855291840180845281905260ff88169284019290925260608301869052608083018590529092509060019060a0016020604051602081039080840390855afa158015612c97573d6000803e3d6000fd5b5050604051601f1901519150506001600160a01b03811615801590612ccd5750866001600160a01b0316816001600160a01b0316145b612d255760405162461bcd60e51b8152602060048201526024808201527f417263683a3a76616c69646174655369673a20696e76616c6964207369676e616044820152637475726560e01b6064820152608401610a81565b50505050505050565b612d3661319c565b6000612d40613285565b905081612db257600c54811015612db25760405162461bcd60e51b815260206004820152603060248201527f5661726961626c655265776172647353747261746567793a3a5265696e76657360448201526f7420616d6f756e7420746f6f206c6f7760801b6064820152608401610a81565b6000612dcf612710610fb96011548561296790919063ffffffff16565b90508015612df457600b54600a54612df4916001600160a01b039182169116836124f0565b6000612e11612710610fb96010548661296790919063ffffffff16565b90508015612e3057600a54612e30906001600160a01b031633836124f0565b6000612e4e612e4983612e4387876122d1565b906122d1565b6134b6565b9050612e5981612ffa565b7fc7606d21ac05cd309191543e409f0845c016120563783d70e4f41419dc0ef234612e82610f23565b6002546040805192835260208301919091520160405180910390a15050505050565b6000612ef9826040518060400160405280602081526020017f5361666545524332303a206c6f772d6c6576656c2063616c6c206661696c6564815250856001600160a01b03166134de9092919063ffffffff16565b8051909150156125425780806020019051810190612f1791906142f2565b6125425760405162461bcd60e51b815260206004820152602a60248201527f5361666545524332303a204552433230206f7065726174696f6e20646964206e6044820152691bdd081cdd58d8d9595960b21b6064820152608401610a81565b600254612f839082611f8f565b6002556001600160a01b038216600090815260046020526040902054612fa99082611f8f565b6001600160a01b0383166000818152600460205260408082209390935591519091907fddf252ad1be2c89b69c2b068fc378daa952ba7f163c4a11628f55a4df523b3ef906126119085815260200190565b600081116130605760405162461bcd60e51b815260206004820152602d60248201527f5661726961626c655265776172647353747261746567793a3a5374616b65206160448201526c6d6f756e7420746f6f206c6f7760981b6064820152608401610a81565b611884816134ed565b6016546040516305b9783d60e01b815260ff841660048201526001600160a01b03838116602483015260009283929116906305b9783d90604401602060405180830381865afa1580156130c0573d6000803e3d6000fd5b505050506040513d601f19601f820116820180604052508101906130e491906143b7565b601654601754919250600091613108916001600160a01b039081169116878761368d565b90506131148282611f8f565b95945050505050565b600080826001600160a01b0316846001600160a01b031610613140578284613143565b83835b915091509250929050565b60008061315d856103e5612967565b9050600061316b8285612967565b905060006131858361317f886103e8612967565b90611f8f565b90506131918282612973565b979650505050505050565b60408051600180825281830190925260009160208083019080368337505060175482519293506001600160a01b0316918391506000906131de576131de614345565b60200260200101906001600160a01b031690816001600160a01b03168152505060005b601454811015610b1457601654604051633a22995760e11b81526001600160a01b039091169063744532ae906132409060009030908790600401614565565b600060405180830381600087803b15801561325a57600080fd5b505af115801561326e573d6000803e3d6000fd5b50505050808061327d90614388565b915050613201565b6040516370a0823160e01b8152306004820152600090819073b31f66aa3c1e785363f0875a1b74e27b85fd66c7906370a0823190602401602060405180830381865afa1580156132d9573d6000803e3d6000fd5b505050506040513d601f19601f820116820180604052508101906132fd91906143b7565b60135490915060005b818110156134ae5760006013828154811061332357613323614345565b6000918252602090912001546001600160a01b0316905073b31f66aa3c1e785363f0875a1b74e27b85fd66c61981016133e2574780156133db5773b31f66aa3c1e785363f0875a1b74e27b85fd66c76001600160a01b031663d0e30db0826040518263ffffffff1660e01b81526004016000604051808303818588803b1580156133ac57600080fd5b505af11580156133c0573d6000803e3d6000fd5b50505050506133d88186611f8f90919063ffffffff16565b94505b505061349c565b6040516370a0823160e01b81523060048201526000906001600160a01b038316906370a0823190602401602060405180830381865afa158015613429573d6000803e3d6000fd5b505050506040513d601f19601f8201168201806040525081019061344d91906143b7565b90508015613499576001600160a01b0380831660009081526012602052604090205416801561349757600a5461349490611b0c90849086906001600160a01b031685613808565b95505b505b50505b806134a681614388565b915050613306565b509092915050565b600a546009546015546000926109259285926001600160a01b03928316929182169116613808565b60606121a8848460008561397c565b60095460175460405163095ea7b360e01b81526001600160a01b0391821660048201526024810184905291169063095ea7b3906044016020604051808303816000875af1158015613542573d6000803e3d6000fd5b505050506040513d601f19601f8201168201806040525081019061356691906142f2565b5060175460405163140e25ad60e31b8152600481018390526001600160a01b039091169063a0712d68906024016020604051808303816000875af11580156135b2573d6000803e3d6000fd5b505050506040513d601f19601f820116820180604052508101906135d691906143b7565b156136145760405162461bcd60e51b815260206004820152600e60248201526d11195c1bdcda5d0819985a5b195960921b6044820152606401610a81565b60095460175460405163095ea7b360e01b81526001600160a01b0391821660048201526000602482015291169063095ea7b3906044016020604051808303816000875af1158015613669573d6000803e3d6000fd5b505050506040513d601f19601f82011682018060405250810190610b1491906142f2565b60008060405180602001604052806136a6888888613aa2565b6001600160e01b0316905260408051602081019182905263111d2e5760e31b90915260ff861660248201526001600160a01b0387811660448301528581166064830152919250600091819089166388e972b860848301602060405180830381865afa158015613719573d6000803e3d6000fd5b505050506040513d601f19601f8201168201806040525081019061373d91906143b7565b905280519091501580156137515750815115155b15613769576ec097ce7bc90715b34b9f100000000081525b81516000906137875760405180602001604052806000815250613791565b6137918383613ce8565b6040516370a0823160e01b81526001600160a01b038781166004830152919250612bf6918916906370a0823190602401602060405180830381865afa1580156137de573d6000803e3d6000fd5b505050506040513d601f19601f8201168201806040525081019061380291906143b7565b82613d1d565b600080613815858561311d565b509050600080846001600160a01b0316630902f1ac6040518163ffffffff1660e01b8152600401606060405180830381865afa158015613859573d6000803e3d6000fd5b505050506040513d601f19601f8201168201806040525081019061387d9190614522565b5091509150866001600160a01b0316836001600160a01b03161461389d57905b6000806138bd8a856001600160701b0316856001600160701b031661314e565b9050886001600160a01b0316856001600160a01b0316146138da57905b6138ee6001600160a01b038a16888c6124f0565b6040805160008152602081019182905263022c0d9f60e01b9091526001600160a01b0388169063022c0d9f9061392d90859085903090602481016145c9565b600060405180830381600087803b15801561394757600080fd5b505af115801561395b573d6000803e3d6000fd5b5050505081811161396c578161396e565b805b9a9950505050505050505050565b6060824710156139dd5760405162461bcd60e51b815260206004820152602660248201527f416464726573733a20696e73756666696369656e742062616c616e636520666f6044820152651c8818d85b1b60d21b6064820152608401610a81565b6001600160a01b0385163b613a345760405162461bcd60e51b815260206004820152601d60248201527f416464726573733a2063616c6c20746f206e6f6e2d636f6e74726163740000006044820152606401610a81565b600080866001600160a01b03168587604051613a509190614600565b60006040518083038185875af1925050503d8060008114613a8d576040519150601f19603f3d011682016040523d82523d6000602084013e613a92565b606091505b5091509150613191828286613d47565b60405163d81c5e4560e01b815260ff821660048201526001600160a01b038381166024830152600091829182919087169063d81c5e45906044016040805180830381865afa158015613af8573d6000803e3d6000fd5b505050506040513d601f19601f82011682018060405250810190613b1c919061461c565b60405163cf9cfb6160e01b815260ff871660048201526001600160a01b03888116602483015292945063ffffffff91909116925060009188169063cf9cfb6190604401602060405180830381865afa158015613b7c573d6000803e3d6000fd5b505050506040513d601f19601f82011682018060405250810190613ba091906143b7565b90506000613bae4284613d80565b9050600081118015613bc05750600082115b15613cda576000876001600160a01b03166318160ddd6040518163ffffffff1660e01b8152600401602060405180830381865afa158015613c05573d6000803e3d6000fd5b505050506040513d601f19601f82011682018060405250810190613c2991906143b7565b90506000613c378385613dba565b90506000808311613c575760405180602001604052806000815250613c61565b613c618284613dfc565b90506000613c8660405180602001604052808a6001600160e01b031681525083613e38565b9050613ccb81600001516040518060400160405280601a81526020017f6e657720696e6465782065786365656473203232342062697473000000000000815250613e64565b98505050505050505050610a08565b506000979650505050505050565b6040805160208101909152600081526040518060200160405280613d1485600001518560000151613d80565b90529392505050565b60006ec097ce7bc90715b34b9f1000000000613d3d848460000151613dba565b610a0891906144bf565b60608315613d56575081610a08565b825115613d665782518084602001fd5b8160405162461bcd60e51b8152600401610a81919061403c565b6000610a088383604051806040016040528060158152602001747375627472616374696f6e20756e646572666c6f7760581b815250613e93565b6000610a0883836040518060400160405280601781526020017f6d756c7469706c69636174696f6e206f766572666c6f77000000000000000000815250613ec2565b6040805160208101909152600081526040518060200160405280613d14613e32866ec097ce7bc90715b34b9f1000000000613dba565b85613f1e565b6040805160208101909152600081526040518060200160405280613d1485600001518560000151613f51565b600081600160e01b8410613e8b5760405162461bcd60e51b8152600401610a81919061403c565b509192915050565b60008184841115613eb75760405162461bcd60e51b8152600401610a81919061403c565b506121a88385614371565b6000831580613ecf575082155b15613edc57506000610a08565b6000613ee884866144a0565b905083613ef586836144bf565b148390613f155760405162461bcd60e51b8152600401610a81919061403c565b50949350505050565b6000610a0883836040518060400160405280600e81526020016d646976696465206279207a65726f60901b815250613f87565b6000610a088383604051806040016040528060118152602001706164646974696f6e206f766572666c6f7760781b815250613fb3565b60008183613fa85760405162461bcd60e51b8152600401610a81919061403c565b506121a883856144bf565b600080613fc0848661446b565b90508285821015613f155760405162461bcd60e51b8152600401610a81919061403c565b60005b83811015613fff578181015183820152602001613fe7565b838111156118745750506000910152565b60008151808452614028816020860160208601613fe4565b601f01601f19169290920160200192915050565b602081526000610a086020830184614010565b6001600160a01b038116811461188457600080fd5b6000806040838503121561407757600080fd5b82356140828161404f565b946020939093013593505050565b6000602082840312156140a257600080fd5b5035919050565b6000806000606084860312156140be57600080fd5b83356140c98161404f565b925060208401356140d98161404f565b929592945050506040919091013590565b600080604083850312156140fd57600080fd5b82356141088161404f565b915060208301356141188161404f565b809150509250929050565b60006020828403121561413557600080fd5b8135610a088161404f565b803560ff8116811461415157600080fd5b919050565b600080600080600060a0868803121561416e57600080fd5b853594506020860135935061418560408701614140565b94979396509394606081013594506080013592915050565b801515811461188457600080fd5b6000602082840312156141bd57600080fd5b8135610a088161419d565b600080604083850312156141db57600080fd5b8235915060208301356141188161419d565b600080600080600080600060e0888a03121561420857600080fd5b87356142138161404f565b965060208801356142238161404f565b9550604088013594506060880135935061423f60808901614140565b925060a0880135915060c0880135905092959891949750929550565b600181811c9082168061426f57607f821691505b602082108103612b3e57634e487b7160e01b600052602260045260246000fd5b6020808252601490820152732cb0b5a9ba3930ba32b3bc9d1d37b7363ca232bb60611b604082015260600190565b6020808252818101527f4f776e61626c653a2063616c6c6572206973206e6f7420746865206f776e6572604082015260600190565b60006020828403121561430457600080fd5b8151610a088161419d565b6000806000806080858703121561432557600080fd5b505082516020840151604085015160609095015191969095509092509050565b634e487b7160e01b600052603260045260246000fd5b634e487b7160e01b600052601160045260246000fd5b6000828210156143835761438361435b565b500390565b60006001820161439a5761439a61435b565b5060010190565b634e487b7160e01b600052603160045260246000fd5b6000602082840312156143c957600080fd5b5051919050565b600080835481600182811c9150808316806143ec57607f831692505b6020808410820361440b57634e487b7160e01b86526022600452602486fd5b81801561441f57600181146144305761445d565b60ff1986168952848901965061445d565b60008a81526020902060005b868110156144555781548b82015290850190830161443c565b505084890196505b509498975050505050505050565b6000821982111561447e5761447e61435b565b500190565b60006020828403121561449557600080fd5b8151610a088161404f565b60008160001904831182151516156144ba576144ba61435b565b500290565b6000826144dc57634e487b7160e01b600052601260045260246000fd5b500490565b634e487b7160e01b600052604160045260246000fd5b80516001600160701b038116811461415157600080fd5b805163ffffffff8116811461415157600080fd5b60008060006060848603121561453757600080fd5b614540846144f7565b925061454e602085016144f7565b915061455c6040850161450e565b90509250925092565b60006060820160ff86168352602060018060a01b038087168286015260606040860152828651808552608087019150838801945060005b818110156145ba57855184168352948401949184019160010161459c565b50909998505050505050505050565b84815283602082015260018060a01b03831660408201526080606082015260006145f66080830184614010565b9695505050505050565b60008251614612818460208701613fe4565b9190910192915050565b6000806040838503121561462f57600080fd5b82516001600160e01b038116811461464657600080fd5b91506146546020840161450e565b9050925092905056fe5f6275726e3a206275726e20616d6f756e74206578636565647320746f74616c20737570706c797472616e7366657246726f6d3a207472616e7366657220616d6f756e74206578636565647320616c6c6f77616e63655f6275726e3a206275726e20616d6f756e7420657863656564732066726f6d2062616c616e63655f7472616e73666572546f6b656e733a207472616e7366657220657863656564732066726f6d2062616c616e6365a26469706673582212206cfdea0a4746631d9fc3a5e3777732830f7aade32ed7bf78ebd920125706b74264736f6c634300080d00334f776e61626c653a2063616c6c6572206973206e6f7420746865206f776e65728be0079c531659141344cd1fd0a4f28419497f9722a3daafe3b4186f6b6457e0",
    "linkReferences": {}
  },
  "methodIdentifiers": {
    "ADMIN_FEE_BIPS()": "07677111",
    "DEPOSITS_ENABLED()": "b52a321f",
    "DEV_FEE_BIPS()": "5ea682ea",
    "DOMAIN_TYPEHASH()": "20606b70",
    "MAX_TOKENS_TO_DEPOSIT_WITHOUT_REINVEST()": "789139bc",
    "MIN_TOKENS_TO_REINVEST()": "bd079f55",
    "PERMIT_TYPEHASH()": "30adf81f",
    "REINVEST_REWARD_BIPS()": "8aff733d",
    "VERSION_HASH()": "9e4e7318",
    "addReward(address,address)": "40b47e1a",
    "allowDepositor(address)": "4bebd1e7",
    "allowance(address,address)": "dd62ed3e",
    "allowedDepositors(address)": "483c2ef0",
    "approve(address,uint256)": "095ea7b3",
    "balanceOf(address)": "70a08231",
    "calculateDepositFee(uint256)": "247d284b",
    "calculateWithdrawFee(uint256)": "11056035",
    "checkReward()": "c4b24a46",
    "decimals()": "313ce567",
    "deposit(uint256)": "b6b55f25",
    "depositFor(address,uint256)": "2f4f21e2",
    "depositToken()": "c89039c5",
    "depositWithPermit(uint256,uint256,uint8,bytes32,bytes32)": "4a970be7",
    "devAddr()": "da09c72c",
    "estimateDeployedBalance()": "0f23475d",
    "estimateReinvestReward()": "b9e57b80",
    "getDepositTokensForShares(uint256)": "eab89a5a",
    "getDomainSeparator()": "ed24911d",
    "getSharesForDepositTokens(uint256)": "dd8ce4d6",
    "name()": "06fdde03",
    "nonces(address)": "7ecebe00",
    "numberOfAllowedDepositors()": "3bdc6e72",
    "owner()": "8da5cb5b",
    "permit(address,address,uint256,uint256,uint8,bytes32,bytes32)": "d505accf",
    "recoverAVAX(uint256)": "4ebb7916",
    "recoverERC20(address,uint256)": "8980f11f",
    "reinvest()": "fdb5a03e",
    "removeDepositor(address)": "8b73e606",
    "removeReward(address)": "a4d5e67c",
    "renounceOwnership()": "715018a6",
    "rescueDeployedFunds(uint256,bool)": "ac0d31ff",
    "revokeAllowance(address,address)": "7ae26773",
    "rewardCount()": "79085425",
    "rewardSwapPairs(address)": "a5534e71",
    "rewardToken()": "f7c618c1",
    "supportedRewards(uint256)": "e75ab045",
    "symbol()": "95d89b41",
    "totalDeposits()": "7d882097",
    "totalSupply()": "18160ddd",
    "transfer(address,uint256)": "a9059cbb",
    "transferFrom(address,address,uint256)": "23b872dd",
    "transferOwnership(address)": "f2fde38b",
    "updateAdminFee(uint256)": "cff1b6ef",
    "updateDepositsEnabled(bool)": "4e77ace5",
    "updateDevAddr(address)": "9291d563",
    "updateDevFee(uint256)": "99729ec1",
    "updateMaxTokensToDepositWithoutReinvest(uint256)": "e21ac825",
    "updateMinTokensToReinvest(uint256)": "81837230",
    "updateReinvestReward(uint256)": "a8ae2b7c",
    "withdraw(uint256)": "2e1a7d4d"
  },
  "id": 59
}