{
  "abi": [
    {
      "inputs": [
        {
          "internalType": "address",
          "name": "_voter",
          "type": "address"
        },
        {
          "internalType": "address",
          "name": "_devAddr",
          "type": "address"
        },
        {
          "internalType": "uint256",
          "name": "_boosterFeeBips",
          "type": "uint256"
        },
        {
          "internalType": "address",
          "name": "_boosterFeeReceiver",
          "type": "address"
        }
      ],
      "stateMutability": "nonpayable",
      "type": "constructor"
    },
    {
      "inputs": [
        {
          "internalType": "address",
          "name": "_stakingContract",
          "type": "address"
        },
        {
          "internalType": "address",
          "name": "_strategy",
          "type": "address"
        }
      ],
      "name": "approveStrategy",
      "outputs": [],
      "stateMutability": "nonpayable",
      "type": "function"
    },
    {
      "inputs": [],
      "name": "boosterFee",
      "outputs": [
        {
          "internalType": "uint256",
          "name": "",
          "type": "uint256"
        }
      ],
      "stateMutability": "view",
      "type": "function"
    },
    {
      "inputs": [],
      "name": "boosterFeeReceiver",
      "outputs": [
        {
          "internalType": "address",
          "name": "",
          "type": "address"
        }
      ],
      "stateMutability": "view",
      "type": "function"
    },
    {
      "inputs": [
        {
          "internalType": "address",
          "name": "_stakingContract",
          "type": "address"
        },
        {
          "internalType": "uint256",
          "name": "_pid",
          "type": "uint256"
        }
      ],
      "name": "claimReward",
      "outputs": [],
      "stateMutability": "nonpayable",
      "type": "function"
    },
    {
      "inputs": [
        {
          "internalType": "uint256",
          "name": "_pid",
          "type": "uint256"
        },
        {
          "internalType": "address",
          "name": "_stakingContract",
          "type": "address"
        },
        {
          "internalType": "address",
          "name": "_token",
          "type": "address"
        },
        {
          "internalType": "uint256",
          "name": "_amount",
          "type": "uint256"
        }
      ],
      "name": "deposit",
      "outputs": [],
      "stateMutability": "nonpayable",
      "type": "function"
    },
    {
      "inputs": [],
      "name": "devAddr",
      "outputs": [
        {
          "internalType": "address",
          "name": "",
          "type": "address"
        }
      ],
      "stateMutability": "view",
      "type": "function"
    },
    {
      "inputs": [
        {
          "internalType": "address",
          "name": "_stakingContract",
          "type": "address"
        },
        {
          "internalType": "uint256",
          "name": "_pid",
          "type": "uint256"
        }
      ],
      "name": "distributeReward",
      "outputs": [],
      "stateMutability": "nonpayable",
      "type": "function"
    },
    {
      "inputs": [
        {
          "internalType": "uint256",
          "name": "_pid",
          "type": "uint256"
        },
        {
          "internalType": "address",
          "name": "_stakingContract",
          "type": "address"
        },
        {
          "internalType": "address",
          "name": "_token",
          "type": "address"
        }
      ],
      "name": "emergencyWithdraw",
      "outputs": [],
      "stateMutability": "nonpayable",
      "type": "function"
    },
    {
      "inputs": [
        {
          "internalType": "address",
          "name": "_stakingContract",
          "type": "address"
        },
        {
          "internalType": "uint256",
          "name": "_pid",
          "type": "uint256"
        }
      ],
      "name": "pendingRewards",
      "outputs": [
        {
          "internalType": "uint256",
          "name": "pendingECD",
          "type": "uint256"
        },
        {
          "internalType": "uint256",
          "name": "pendingPTP",
          "type": "uint256"
        }
      ],
      "stateMutability": "view",
      "type": "function"
    },
    {
      "inputs": [
        {
          "internalType": "address",
          "name": "_stakingContract",
          "type": "address"
        },
        {
          "internalType": "uint256",
          "name": "_pid",
          "type": "uint256"
        }
      ],
      "name": "poolBalance",
      "outputs": [
        {
          "internalType": "uint256",
          "name": "balance",
          "type": "uint256"
        }
      ],
      "stateMutability": "view",
      "type": "function"
    },
    {
      "inputs": [
        {
          "internalType": "uint256",
          "name": "_boosterFeeBips",
          "type": "uint256"
        }
      ],
      "name": "setBoosterFee",
      "outputs": [],
      "stateMutability": "nonpayable",
      "type": "function"
    },
    {
      "inputs": [
        {
          "internalType": "address",
          "name": "_boosterFeeReceiver",
          "type": "address"
        }
      ],
      "name": "setBoosterFeeReceiver",
      "outputs": [],
      "stateMutability": "nonpayable",
      "type": "function"
    },
    {
      "inputs": [
        {
          "internalType": "address",
          "name": "newValue",
          "type": "address"
        }
      ],
      "name": "updateDevAddr",
      "outputs": [],
      "stateMutability": "nonpayable",
      "type": "function"
    },
    {
      "inputs": [],
      "name": "veEcdRewardPool",
      "outputs": [
        {
          "internalType": "address",
          "name": "",
          "type": "address"
        }
      ],
      "stateMutability": "view",
      "type": "function"
    },
    {
      "inputs": [],
      "name": "voter",
      "outputs": [
        {
          "internalType": "contract IEchidnaVoter",
          "name": "",
          "type": "address"
        }
      ],
      "stateMutability": "view",
      "type": "function"
    },
    {
      "inputs": [
        {
          "internalType": "uint256",
          "name": "_pid",
          "type": "uint256"
        },
        {
          "internalType": "address",
          "name": "_stakingContract",
          "type": "address"
        },
        {
          "internalType": "address",
          "name": "_token",
          "type": "address"
        },
        {
          "internalType": "uint256",
          "name": "_amount",
          "type": "uint256"
        }
      ],
      "name": "withdraw",
      "outputs": [],
      "stateMutability": "nonpayable",
      "type": "function"
    }
  ],
  "bytecode": {
    "object": "0x60a06040523480156200001157600080fd5b506040516200190c3803806200190c83398101604081905262000034916200008e565b600080546001600160a01b03199081166001600160a01b0395861617909155938316608052600191909155600280549093169116179055620000e2565b80516001600160a01b03811681146200008957600080fd5b919050565b60008060008060808587031215620000a557600080fd5b620000b08562000071565b9350620000c06020860162000071565b925060408501519150620000d76060860162000071565b905092959194509250565b60805161179e6200016e60003960008181610158015281816102a7015281816103c80152818161040801528181610558015281816105fb015281816107a40152818161081e01528181610a3c01528181610a7c01528181610b6e01528181610bed01528181610d5f01528181610e5d01528181610ed101528181610f150152610ffa015261179e6000f3fe608060405234801561001057600080fd5b50600436106101005760003560e01c8063865710f011610097578063c494448e11610066578063c494448e1461023d578063d2cee46f14610250578063da09c72c14610263578063e4cca4b01461027657600080fd5b8063865710f0146101e95780639291d563146101fc578063a14a7a8f1461020f578063a318c1a41461022a57600080fd5b8063491cad29116100d3578063491cad29146101925780636099ecb2146101a5578063781a29d1146101cd578063792a230f146101d657600080fd5b806301e1c48d14610105578063174e31c41461012b5780631ec8bb8c1461014057806346c96aac14610153575b600080fd5b61011861011336600461138f565b610289565b6040519081526020015b60405180910390f35b61013e61013936600461138f565b610325565b005b61013e61014e36600461138f565b61049e565b61017a7f000000000000000000000000000000000000000000000000000000000000000081565b6040516001600160a01b039091168152602001610122565b61013e6101a03660046113b9565b6104ee565b6101b86101b336600461138f565b61053a565b60408051928352602083019190915201610122565b61011860015481565b60025461017a906001600160a01b031681565b61013e6101f73660046113d4565b61068b565b61013e61020a3660046113b9565b6106ba565b61017a730546a4c8e3bc4bf8cc0b44abf3ba5e7d280bbbae81565b61013e6102383660046113ed565b610706565b61013e61024b366004611431565b61084f565b61013e61025e36600461145b565b6109a7565b60005461017a906001600160a01b031681565b61013e6102843660046113ed565b610b17565b6040516393f1a40b60e01b8152600481018290526001600160a01b037f000000000000000000000000000000000000000000000000000000000000000081166024830152600091908416906393f1a40b906044016040805180830381865afa1580156102f9573d6000803e3d6000fd5b505050506040513d601f19601f8201168201806040525081019061031d9190611497565b509392505050565b6001600160a01b038083166000908152600360209081526040808320858452909152902054839183911633146103765760405162461bcd60e51b815260040161036d906114bb565b60405180910390fd5b604051602481018490526000604482018190526103f0918691906064015b60408051601f198184030181529190526020810180516001600160e01b0316631c57762b60e31b1790526001600160a01b037f000000000000000000000000000000000000000000000000000000000000000016929190610c63565b50604051630c00007b60e41b81526001600160a01b037f0000000000000000000000000000000000000000000000000000000000000000166004820152730546a4c8e3bc4bf8cc0b44abf3ba5e7d280bbbae9063c00007b0906024016020604051808303816000875af115801561046b573d6000803e3d6000fd5b505050506040513d601f19601f8201168201806040525081019061048f9190611502565b50610498610d48565b50505050565b6001600160a01b038083166000908152600360209081526040808320858452909152902054839183911633146104e65760405162461bcd60e51b815260040161036d906114bb565b610498610d48565b6000546001600160a01b031633146105185760405162461bcd60e51b815260040161036d9061151d565b600280546001600160a01b0319166001600160a01b0392909216919091179055565b604051630e92c08b60e21b8152600481018290526001600160a01b037f0000000000000000000000000000000000000000000000000000000000000000811660248301526000918291851690633a4b022c90604401602060405180830381865afa1580156105ac573d6000803e3d6000fd5b505050506040513d601f19601f820116820180604052508101906105d09190611554565b91506105e56105de83610fe0565b83906110a8565b6040516246613160e11b81526001600160a01b037f0000000000000000000000000000000000000000000000000000000000000000166004820152909250730546a4c8e3bc4bf8cc0b44abf3ba5e7d280bbbae90628cc26290602401602060405180830381865afa15801561065e573d6000803e3d6000fd5b505050506040513d601f19601f820116820180604052508101906106829190611554565b90509250929050565b6000546001600160a01b031633146106b55760405162461bcd60e51b815260040161036d9061151d565b600155565b6000546001600160a01b031633146106e45760405162461bcd60e51b815260040161036d9061151d565b600080546001600160a01b0319166001600160a01b0392909216919091179055565b6001600160a01b0380841660009081526003602090815260408083208884529091529020548491869116331461074e5760405162461bcd60e51b815260040161036d906114bb565b6107cc8560008886604051602401610770929190918252602082015260400190565b60408051601f198184030181529190526020810180516001600160e01b0316630441a3e760e41b1790526001600160a01b037f000000000000000000000000000000000000000000000000000000000000000016929190610c63565b50604051336024820152604481018490526108469085906000906064015b60408051601f198184030181529190526020810180516001600160e01b031663a9059cbb60e01b1790526001600160a01b037f000000000000000000000000000000000000000000000000000000000000000016929190610c63565b50505050505050565b6000546001600160a01b031633146108795760405162461bcd60e51b815260040161036d9061151d565b6000816001600160a01b0316635eaec0e46040518163ffffffff1660e01b81526004016020604051808303816000875af11580156108bb573d6000803e3d6000fd5b505050506040513d601f19601f820116820180604052508101906108df9190611554565b6001600160a01b038481166000908152600360209081526040808320858452909152902054919250161561096f5760405162461bcd60e51b815260206004820152603160248201527f45636869646e61566f74657250726f78793a3a537472617465677920666f722060448201527014125108185b1c9958591e481859191959607a1b606482015260840161036d565b6001600160a01b0392831660009081526003602090815260408083209383529290522080546001600160a01b03191691909216179055565b6001600160a01b038083166000908152600360209081526040808320878452909152902054839185911633146109ef5760405162461bcd60e51b815260040161036d906114bb565b610a6484600087604051602401610a0891815260200190565b60408051601f198184030181529190526020810180516001600160e01b0316632989754760e11b1790526001600160a01b037f000000000000000000000000000000000000000000000000000000000000000016929190610c63565b506040516370a0823160e01b81526001600160a01b037f000000000000000000000000000000000000000000000000000000000000000081166004830152600091908516906370a0823190602401602060405180830381865afa158015610acf573d6000803e3d6000fd5b505050506040513d601f19601f82011682018060405250810190610af39190611554565b604051336024820152604481018290529091506108469085906000906064016107ea565b6001600160a01b03808416600090815260036020908152604080832088845290915290205484918691163314610b5f5760405162461bcd60e51b815260040161036d906114bb565b610b936001600160a01b0385167f0000000000000000000000000000000000000000000000000000000000000000856110bb565b6040516001600160a01b038616602482015260448101849052610c159085906000906064015b60408051601f198184030181529190526020810180516001600160e01b031663095ea7b360e01b1790526001600160a01b037f000000000000000000000000000000000000000000000000000000000000000016929190610c63565b50610c388560008886604051602401610394929190918252602082015260400190565b506040516001600160a01b038616602482015260006044820181905261084691869190606401610bb9565b6060600080866001600160a01b031663b61d27f68787876040518463ffffffff1660e01b8152600401610c98939291906115c5565b6000604051808303816000875af1158015610cb7573d6000803e3d6000fd5b505050506040513d6000823e601f3d908101601f19168201604052610cdf919081019061160b565b9150915081610d3e5760405162461bcd60e51b815260206004820152602560248201527f45636869646e61566f74657250726f78793a3a73616665457865637574652066604482015264185a5b195960da1b606482015260840161036d565b9695505050505050565b6040516370a0823160e01b81526001600160a01b037f000000000000000000000000000000000000000000000000000000000000000016600482015260009073eb8343d5284caec921f035207ca94db6baaacbcd906370a0823190602401602060405180830381865afa158015610dc3573d6000803e3d6000fd5b505050506040513d601f19601f82011682018060405250810190610de79190611554565b90508015610efe576000610dfa82610fe0565b90506000610e0883836110a8565b60405133602482015260448101829052909150610e409073eb8343d5284caec921f035207ca94db6baaacbcd906000906064016107ea565b508115610efb57604051637c0bb4ab60e01b8152600481018390527f00000000000000000000000000000000000000000000000000000000000000006001600160a01b031690637c0bb4ab90602401600060405180830381600087803b158015610ea957600080fd5b505af1158015610ebd573d6000803e3d6000fd5b5050600254610efb92506001600160a01b037f00000000000000000000000000000000000000000000000000000000000000008116925016846110bb565b50505b6040516370a0823160e01b81526001600160a01b037f00000000000000000000000000000000000000000000000000000000000000001660048201526000907322d4002028f537599be9f666d1c4fa138522f9c8906370a0823190602401602060405180830381865afa158015610f79573d6000803e3d6000fd5b505050506040513d601f19601f82011682018060405250810190610f9d9190611554565b90508015610fdc5760405133602482015260448101829052610fda907322d4002028f537599be9f666d1c4fa138522f9c8906000906064016107ea565b505b5050565b6002546000906001600160a01b03161580159061107a57507f00000000000000000000000000000000000000000000000000000000000000006001600160a01b0316635392fd1c6040518163ffffffff1660e01b8152600401602060405180830381865afa158015611056573d6000803e3d6000fd5b505050506040513d601f19601f8201168201806040525081019061107a9190611502565b156110a3576110a061271061109a6001548561110d90919063ffffffff16565b90611119565b90505b919050565b60006110b482846116e1565b9392505050565b604080516001600160a01b038416602482015260448082018490528251808303909101815260649091019091526020810180516001600160e01b031663a9059cbb60e01b179052610fda908490611125565b60006110b482846116f8565b60006110b48284611717565b600061117a826040518060400160405280602081526020017f5361666545524332303a206c6f772d6c6576656c2063616c6c206661696c6564815250856001600160a01b03166111f79092919063ffffffff16565b805190915015610fda57808060200190518101906111989190611502565b610fda5760405162461bcd60e51b815260206004820152602a60248201527f5361666545524332303a204552433230206f7065726174696f6e20646964206e6044820152691bdd081cdd58d8d9595960b21b606482015260840161036d565b6060611206848460008561120e565b949350505050565b60608247101561126f5760405162461bcd60e51b815260206004820152602660248201527f416464726573733a20696e73756666696369656e742062616c616e636520666f6044820152651c8818d85b1b60d21b606482015260840161036d565b6001600160a01b0385163b6112c65760405162461bcd60e51b815260206004820152601d60248201527f416464726573733a2063616c6c20746f206e6f6e2d636f6e7472616374000000604482015260640161036d565b600080866001600160a01b031685876040516112e29190611739565b60006040518083038185875af1925050503d806000811461131f576040519150601f19603f3d011682016040523d82523d6000602084013e611324565b606091505b509150915061133482828661133f565b979650505050505050565b6060831561134e5750816110b4565b82511561135e5782518084602001fd5b8160405162461bcd60e51b815260040161036d9190611755565b80356001600160a01b03811681146110a357600080fd5b600080604083850312156113a257600080fd5b6113ab83611378565b946020939093013593505050565b6000602082840312156113cb57600080fd5b6110b482611378565b6000602082840312156113e657600080fd5b5035919050565b6000806000806080858703121561140357600080fd5b8435935061141360208601611378565b925061142160408601611378565b9396929550929360600135925050565b6000806040838503121561144457600080fd5b61144d83611378565b915061068260208401611378565b60008060006060848603121561147057600080fd5b8335925061148060208501611378565b915061148e60408501611378565b90509250925092565b600080604083850312156114aa57600080fd5b505080516020909101519092909150565b6020808252601f908201527f45636869646e61566f74657250726f78793a3a6f6e6c79537472617465677900604082015260600190565b805180151581146110a357600080fd5b60006020828403121561151457600080fd5b6110b4826114f2565b6020808252601a908201527f45636869646e61566f74657250726f78793a3a6f6e6c79446576000000000000604082015260600190565b60006020828403121561156657600080fd5b5051919050565b60005b83811015611588578181015183820152602001611570565b838111156104985750506000910152565b600081518084526115b181602086016020860161156d565b601f01601f19169290920160200192915050565b60018060a01b03841681528260208201526060604082015260006115ec6060830184611599565b95945050505050565b634e487b7160e01b600052604160045260246000fd5b6000806040838503121561161e57600080fd5b611627836114f2565b9150602083015167ffffffffffffffff8082111561164457600080fd5b818501915085601f83011261165857600080fd5b81518181111561166a5761166a6115f5565b604051601f8201601f19908116603f01168101908382118183101715611692576116926115f5565b816040528281528860208487010111156116ab57600080fd5b6116bc83602083016020880161156d565b80955050505050509250929050565b634e487b7160e01b600052601160045260246000fd5b6000828210156116f3576116f36116cb565b500390565b6000816000190483118215151615611712576117126116cb565b500290565b60008261173457634e487b7160e01b600052601260045260246000fd5b500490565b6000825161174b81846020870161156d565b9190910192915050565b6020815260006110b4602083018461159956fea26469706673582212205c458acc73d18935922c02f16267e87ac69e412769ec92298dd15f85523a4e1a64736f6c634300080d0033",
    "linkReferences": {}
  },
  "methodIdentifiers": {
    "approveStrategy(address,address)": "c494448e",
    "boosterFee()": "781a29d1",
    "boosterFeeReceiver()": "792a230f",
    "claimReward(address,uint256)": "174e31c4",
    "deposit(uint256,address,address,uint256)": "e4cca4b0",
    "devAddr()": "da09c72c",
    "distributeReward(address,uint256)": "1ec8bb8c",
    "emergencyWithdraw(uint256,address,address)": "d2cee46f",
    "pendingRewards(address,uint256)": "6099ecb2",
    "poolBalance(address,uint256)": "01e1c48d",
    "setBoosterFee(uint256)": "865710f0",
    "setBoosterFeeReceiver(address)": "491cad29",
    "updateDevAddr(address)": "9291d563",
    "veEcdRewardPool()": "a14a7a8f",
    "voter()": "46c96aac",
    "withdraw(uint256,address,address,uint256)": "a318c1a4"
  },
  "id": 81
}