{
  "abi": [
    {
      "inputs": [
        {
          "internalType": "string",
          "name": "_name",
          "type": "string"
        },
        {
          "internalType": "address",
          "name": "_depositToken",
          "type": "address"
        },
        {
          "components": [
            {
              "internalType": "enum CurveSwap.PoolType",
              "name": "poolType",
              "type": "uint8"
            },
            {
              "internalType": "address",
              "name": "swapPairRewardZap",
              "type": "address"
            },
            {
              "internalType": "address",
              "name": "zapToken",
              "type": "address"
            },
            {
              "internalType": "address",
              "name": "zapContract",
              "type": "address"
            },
            {
              "internalType": "uint256",
              "name": "zapTokenIndex",
              "type": "uint256"
            },
            {
              "internalType": "uint256",
              "name": "maxSlippage",
              "type": "uint256"
            }
          ],
          "internalType": "struct CurveSwap.Settings",
          "name": "_zapSettings",
          "type": "tuple"
        },
        {
          "components": [
            {
              "internalType": "address",
              "name": "reward",
              "type": "address"
            },
            {
              "internalType": "address",
              "name": "swapPair",
              "type": "address"
            }
          ],
          "internalType": "struct VariableRewardsStrategy.RewardSwapPairs[]",
          "name": "_rewardSwapPairs",
          "type": "tuple[]"
        },
        {
          "internalType": "address",
          "name": "_stakingContract",
          "type": "address"
        },
        {
          "internalType": "address",
          "name": "_voterProxy",
          "type": "address"
        },
        {
          "internalType": "address",
          "name": "_timelock",
          "type": "address"
        },
        {
          "components": [
            {
              "internalType": "uint256",
              "name": "minTokensToReinvest",
              "type": "uint256"
            },
            {
              "internalType": "uint256",
              "name": "devFeeBips",
              "type": "uint256"
            },
            {
              "internalType": "uint256",
              "name": "reinvestRewardBips",
              "type": "uint256"
            }
          ],
          "internalType": "struct YakStrategyV2.StrategySettings",
          "name": "_strategySettings",
          "type": "tuple"
        }
      ],
      "stateMutability": "nonpayable",
      "type": "constructor"
    },
    {
      "anonymous": false,
      "inputs": [
        {
          "indexed": false,
          "internalType": "address",
          "name": "rewardToken",
          "type": "address"
        },
        {
          "indexed": false,
          "internalType": "address",
          "name": "swapPair",
          "type": "address"
        }
      ],
      "name": "AddReward",
      "type": "event"
    },
    {
      "anonymous": false,
      "inputs": [
        {
          "indexed": true,
          "internalType": "address",
          "name": "account",
          "type": "address"
        }
      ],
      "name": "AllowDepositor",
      "type": "event"
    },
    {
      "anonymous": false,
      "inputs": [
        {
          "indexed": true,
          "internalType": "address",
          "name": "owner",
          "type": "address"
        },
        {
          "indexed": true,
          "internalType": "address",
          "name": "spender",
          "type": "address"
        },
        {
          "indexed": false,
          "internalType": "uint256",
          "name": "value",
          "type": "uint256"
        }
      ],
      "name": "Approval",
      "type": "event"
    },
    {
      "anonymous": false,
      "inputs": [
        {
          "indexed": true,
          "internalType": "address",
          "name": "account",
          "type": "address"
        },
        {
          "indexed": false,
          "internalType": "uint256",
          "name": "amount",
          "type": "uint256"
        }
      ],
      "name": "Deposit",
      "type": "event"
    },
    {
      "anonymous": false,
      "inputs": [
        {
          "indexed": false,
          "internalType": "bool",
          "name": "newValue",
          "type": "bool"
        }
      ],
      "name": "DepositsEnabled",
      "type": "event"
    },
    {
      "anonymous": false,
      "inputs": [
        {
          "indexed": true,
          "internalType": "address",
          "name": "previousOwner",
          "type": "address"
        },
        {
          "indexed": true,
          "internalType": "address",
          "name": "newOwner",
          "type": "address"
        }
      ],
      "name": "OwnershipTransferred",
      "type": "event"
    },
    {
      "anonymous": false,
      "inputs": [
        {
          "indexed": false,
          "internalType": "address",
          "name": "token",
          "type": "address"
        },
        {
          "indexed": false,
          "internalType": "uint256",
          "name": "amount",
          "type": "uint256"
        }
      ],
      "name": "Recovered",
      "type": "event"
    },
    {
      "anonymous": false,
      "inputs": [
        {
          "indexed": false,
          "internalType": "uint256",
          "name": "newTotalDeposits",
          "type": "uint256"
        },
        {
          "indexed": false,
          "internalType": "uint256",
          "name": "newTotalSupply",
          "type": "uint256"
        }
      ],
      "name": "Reinvest",
      "type": "event"
    },
    {
      "anonymous": false,
      "inputs": [
        {
          "indexed": true,
          "internalType": "address",
          "name": "account",
          "type": "address"
        }
      ],
      "name": "RemoveDepositor",
      "type": "event"
    },
    {
      "anonymous": false,
      "inputs": [
        {
          "indexed": false,
          "internalType": "address",
          "name": "rewardToken",
          "type": "address"
        }
      ],
      "name": "RemoveReward",
      "type": "event"
    },
    {
      "anonymous": false,
      "inputs": [
        {
          "indexed": true,
          "internalType": "address",
          "name": "from",
          "type": "address"
        },
        {
          "indexed": true,
          "internalType": "address",
          "name": "to",
          "type": "address"
        },
        {
          "indexed": false,
          "internalType": "uint256",
          "name": "value",
          "type": "uint256"
        }
      ],
      "name": "Transfer",
      "type": "event"
    },
    {
      "anonymous": false,
      "inputs": [
        {
          "indexed": false,
          "internalType": "uint256",
          "name": "oldValue",
          "type": "uint256"
        },
        {
          "indexed": false,
          "internalType": "uint256",
          "name": "newValue",
          "type": "uint256"
        }
      ],
      "name": "UpdateAdminFee",
      "type": "event"
    },
    {
      "anonymous": false,
      "inputs": [
        {
          "indexed": false,
          "internalType": "address",
          "name": "oldValue",
          "type": "address"
        },
        {
          "indexed": false,
          "internalType": "address",
          "name": "newValue",
          "type": "address"
        }
      ],
      "name": "UpdateDevAddr",
      "type": "event"
    },
    {
      "anonymous": false,
      "inputs": [
        {
          "indexed": false,
          "internalType": "uint256",
          "name": "oldValue",
          "type": "uint256"
        },
        {
          "indexed": false,
          "internalType": "uint256",
          "name": "newValue",
          "type": "uint256"
        }
      ],
      "name": "UpdateDevFee",
      "type": "event"
    },
    {
      "anonymous": false,
      "inputs": [
        {
          "indexed": false,
          "internalType": "uint256",
          "name": "oldValue",
          "type": "uint256"
        },
        {
          "indexed": false,
          "internalType": "uint256",
          "name": "newValue",
          "type": "uint256"
        }
      ],
      "name": "UpdateMaxTokensToDepositWithoutReinvest",
      "type": "event"
    },
    {
      "anonymous": false,
      "inputs": [
        {
          "indexed": false,
          "internalType": "uint256",
          "name": "oldValue",
          "type": "uint256"
        },
        {
          "indexed": false,
          "internalType": "uint256",
          "name": "newValue",
          "type": "uint256"
        }
      ],
      "name": "UpdateMinTokensToReinvest",
      "type": "event"
    },
    {
      "anonymous": false,
      "inputs": [
        {
          "indexed": false,
          "internalType": "uint256",
          "name": "oldValue",
          "type": "uint256"
        },
        {
          "indexed": false,
          "internalType": "uint256",
          "name": "newValue",
          "type": "uint256"
        }
      ],
      "name": "UpdateReinvestReward",
      "type": "event"
    },
    {
      "anonymous": false,
      "inputs": [
        {
          "indexed": true,
          "internalType": "address",
          "name": "account",
          "type": "address"
        },
        {
          "indexed": false,
          "internalType": "uint256",
          "name": "amount",
          "type": "uint256"
        }
      ],
      "name": "Withdraw",
      "type": "event"
    },
    {
      "inputs": [],
      "name": "ADMIN_FEE_BIPS",
      "outputs": [
        {
          "internalType": "uint256",
          "name": "",
          "type": "uint256"
        }
      ],
      "stateMutability": "view",
      "type": "function"
    },
    {
      "inputs": [],
      "name": "DEPOSITS_ENABLED",
      "outputs": [
        {
          "internalType": "bool",
          "name": "",
          "type": "bool"
        }
      ],
      "stateMutability": "view",
      "type": "function"
    },
    {
      "inputs": [],
      "name": "DEV_FEE_BIPS",
      "outputs": [
        {
          "internalType": "uint256",
          "name": "",
          "type": "uint256"
        }
      ],
      "stateMutability": "view",
      "type": "function"
    },
    {
      "inputs": [],
      "name": "DOMAIN_TYPEHASH",
      "outputs": [
        {
          "internalType": "bytes32",
          "name": "",
          "type": "bytes32"
        }
      ],
      "stateMutability": "view",
      "type": "function"
    },
    {
      "inputs": [],
      "name": "MAX_TOKENS_TO_DEPOSIT_WITHOUT_REINVEST",
      "outputs": [
        {
          "internalType": "uint256",
          "name": "",
          "type": "uint256"
        }
      ],
      "stateMutability": "view",
      "type": "function"
    },
    {
      "inputs": [],
      "name": "MIN_TOKENS_TO_REINVEST",
      "outputs": [
        {
          "internalType": "uint256",
          "name": "",
          "type": "uint256"
        }
      ],
      "stateMutability": "view",
      "type": "function"
    },
    {
      "inputs": [],
      "name": "PERMIT_TYPEHASH",
      "outputs": [
        {
          "internalType": "bytes32",
          "name": "",
          "type": "bytes32"
        }
      ],
      "stateMutability": "view",
      "type": "function"
    },
    {
      "inputs": [],
      "name": "REINVEST_REWARD_BIPS",
      "outputs": [
        {
          "internalType": "uint256",
          "name": "",
          "type": "uint256"
        }
      ],
      "stateMutability": "view",
      "type": "function"
    },
    {
      "inputs": [],
      "name": "VERSION_HASH",
      "outputs": [
        {
          "internalType": "bytes32",
          "name": "",
          "type": "bytes32"
        }
      ],
      "stateMutability": "view",
      "type": "function"
    },
    {
      "inputs": [
        {
          "internalType": "address",
          "name": "_rewardToken",
          "type": "address"
        },
        {
          "internalType": "address",
          "name": "_swapPair",
          "type": "address"
        }
      ],
      "name": "addReward",
      "outputs": [],
      "stateMutability": "nonpayable",
      "type": "function"
    },
    {
      "inputs": [
        {
          "internalType": "address",
          "name": "depositor",
          "type": "address"
        }
      ],
      "name": "allowDepositor",
      "outputs": [],
      "stateMutability": "nonpayable",
      "type": "function"
    },
    {
      "inputs": [
        {
          "internalType": "address",
          "name": "account",
          "type": "address"
        },
        {
          "internalType": "address",
          "name": "spender",
          "type": "address"
        }
      ],
      "name": "allowance",
      "outputs": [
        {
          "internalType": "uint256",
          "name": "",
          "type": "uint256"
        }
      ],
      "stateMutability": "view",
      "type": "function"
    },
    {
      "inputs": [
        {
          "internalType": "address",
          "name": "",
          "type": "address"
        }
      ],
      "name": "allowedDepositors",
      "outputs": [
        {
          "internalType": "bool",
          "name": "",
          "type": "bool"
        }
      ],
      "stateMutability": "view",
      "type": "function"
    },
    {
      "inputs": [
        {
          "internalType": "address",
          "name": "spender",
          "type": "address"
        },
        {
          "internalType": "uint256",
          "name": "amount",
          "type": "uint256"
        }
      ],
      "name": "approve",
      "outputs": [
        {
          "internalType": "bool",
          "name": "",
          "type": "bool"
        }
      ],
      "stateMutability": "nonpayable",
      "type": "function"
    },
    {
      "inputs": [
        {
          "internalType": "address",
          "name": "account",
          "type": "address"
        }
      ],
      "name": "balanceOf",
      "outputs": [
        {
          "internalType": "uint256",
          "name": "",
          "type": "uint256"
        }
      ],
      "stateMutability": "view",
      "type": "function"
    },
    {
      "inputs": [
        {
          "internalType": "uint256",
          "name": "_amount",
          "type": "uint256"
        }
      ],
      "name": "calculateDepositFee",
      "outputs": [
        {
          "internalType": "uint256",
          "name": "",
          "type": "uint256"
        }
      ],
      "stateMutability": "view",
      "type": "function"
    },
    {
      "inputs": [
        {
          "internalType": "uint256",
          "name": "_amount",
          "type": "uint256"
        }
      ],
      "name": "calculateWithdrawFee",
      "outputs": [
        {
          "internalType": "uint256",
          "name": "",
          "type": "uint256"
        }
      ],
      "stateMutability": "view",
      "type": "function"
    },
    {
      "inputs": [],
      "name": "checkReward",
      "outputs": [
        {
          "internalType": "uint256",
          "name": "",
          "type": "uint256"
        }
      ],
      "stateMutability": "view",
      "type": "function"
    },
    {
      "inputs": [],
      "name": "decimals",
      "outputs": [
        {
          "internalType": "uint8",
          "name": "",
          "type": "uint8"
        }
      ],
      "stateMutability": "view",
      "type": "function"
    },
    {
      "inputs": [
        {
          "internalType": "uint256",
          "name": "_amount",
          "type": "uint256"
        }
      ],
      "name": "deposit",
      "outputs": [],
      "stateMutability": "nonpayable",
      "type": "function"
    },
    {
      "inputs": [
        {
          "internalType": "address",
          "name": "_account",
          "type": "address"
        },
        {
          "internalType": "uint256",
          "name": "_amount",
          "type": "uint256"
        }
      ],
      "name": "depositFor",
      "outputs": [],
      "stateMutability": "nonpayable",
      "type": "function"
    },
    {
      "inputs": [],
      "name": "depositToken",
      "outputs": [
        {
          "internalType": "contract IERC20",
          "name": "",
          "type": "address"
        }
      ],
      "stateMutability": "view",
      "type": "function"
    },
    {
      "inputs": [
        {
          "internalType": "uint256",
          "name": "_amount",
          "type": "uint256"
        },
        {
          "internalType": "uint256",
          "name": "_deadline",
          "type": "uint256"
        },
        {
          "internalType": "uint8",
          "name": "_v",
          "type": "uint8"
        },
        {
          "internalType": "bytes32",
          "name": "_r",
          "type": "bytes32"
        },
        {
          "internalType": "bytes32",
          "name": "_s",
          "type": "bytes32"
        }
      ],
      "name": "depositWithPermit",
      "outputs": [],
      "stateMutability": "nonpayable",
      "type": "function"
    },
    {
      "inputs": [],
      "name": "devAddr",
      "outputs": [
        {
          "internalType": "address",
          "name": "",
          "type": "address"
        }
      ],
      "stateMutability": "view",
      "type": "function"
    },
    {
      "inputs": [],
      "name": "estimateDeployedBalance",
      "outputs": [
        {
          "internalType": "uint256",
          "name": "",
          "type": "uint256"
        }
      ],
      "stateMutability": "view",
      "type": "function"
    },
    {
      "inputs": [],
      "name": "estimateReinvestReward",
      "outputs": [
        {
          "internalType": "uint256",
          "name": "",
          "type": "uint256"
        }
      ],
      "stateMutability": "view",
      "type": "function"
    },
    {
      "inputs": [
        {
          "internalType": "uint256",
          "name": "amount",
          "type": "uint256"
        }
      ],
      "name": "getDepositTokensForShares",
      "outputs": [
        {
          "internalType": "uint256",
          "name": "",
          "type": "uint256"
        }
      ],
      "stateMutability": "view",
      "type": "function"
    },
    {
      "inputs": [],
      "name": "getDomainSeparator",
      "outputs": [
        {
          "internalType": "bytes32",
          "name": "",
          "type": "bytes32"
        }
      ],
      "stateMutability": "view",
      "type": "function"
    },
    {
      "inputs": [
        {
          "internalType": "uint256",
          "name": "amount",
          "type": "uint256"
        }
      ],
      "name": "getSharesForDepositTokens",
      "outputs": [
        {
          "internalType": "uint256",
          "name": "",
          "type": "uint256"
        }
      ],
      "stateMutability": "view",
      "type": "function"
    },
    {
      "inputs": [],
      "name": "name",
      "outputs": [
        {
          "internalType": "string",
          "name": "",
          "type": "string"
        }
      ],
      "stateMutability": "view",
      "type": "function"
    },
    {
      "inputs": [
        {
          "internalType": "address",
          "name": "",
          "type": "address"
        }
      ],
      "name": "nonces",
      "outputs": [
        {
          "internalType": "uint256",
          "name": "",
          "type": "uint256"
        }
      ],
      "stateMutability": "view",
      "type": "function"
    },
    {
      "inputs": [],
      "name": "numberOfAllowedDepositors",
      "outputs": [
        {
          "internalType": "uint256",
          "name": "",
          "type": "uint256"
        }
      ],
      "stateMutability": "view",
      "type": "function"
    },
    {
      "inputs": [],
      "name": "owner",
      "outputs": [
        {
          "internalType": "address",
          "name": "",
          "type": "address"
        }
      ],
      "stateMutability": "view",
      "type": "function"
    },
    {
      "inputs": [
        {
          "internalType": "address",
          "name": "owner",
          "type": "address"
        },
        {
          "internalType": "address",
          "name": "spender",
          "type": "address"
        },
        {
          "internalType": "uint256",
          "name": "value",
          "type": "uint256"
        },
        {
          "internalType": "uint256",
          "name": "deadline",
          "type": "uint256"
        },
        {
          "internalType": "uint8",
          "name": "v",
          "type": "uint8"
        },
        {
          "internalType": "bytes32",
          "name": "r",
          "type": "bytes32"
        },
        {
          "internalType": "bytes32",
          "name": "s",
          "type": "bytes32"
        }
      ],
      "name": "permit",
      "outputs": [],
      "stateMutability": "nonpayable",
      "type": "function"
    },
    {
      "inputs": [],
      "name": "proxy",
      "outputs": [
        {
          "internalType": "contract IYetiVoterProxy",
          "name": "",
          "type": "address"
        }
      ],
      "stateMutability": "view",
      "type": "function"
    },
    {
      "inputs": [
        {
          "internalType": "uint256",
          "name": "amount",
          "type": "uint256"
        }
      ],
      "name": "recoverAVAX",
      "outputs": [],
      "stateMutability": "nonpayable",
      "type": "function"
    },
    {
      "inputs": [
        {
          "internalType": "address",
          "name": "tokenAddress",
          "type": "address"
        },
        {
          "internalType": "uint256",
          "name": "tokenAmount",
          "type": "uint256"
        }
      ],
      "name": "recoverERC20",
      "outputs": [],
      "stateMutability": "nonpayable",
      "type": "function"
    },
    {
      "inputs": [],
      "name": "reinvest",
      "outputs": [],
      "stateMutability": "nonpayable",
      "type": "function"
    },
    {
      "inputs": [
        {
          "internalType": "address",
          "name": "depositor",
          "type": "address"
        }
      ],
      "name": "removeDepositor",
      "outputs": [],
      "stateMutability": "nonpayable",
      "type": "function"
    },
    {
      "inputs": [
        {
          "internalType": "address",
          "name": "_rewardToken",
          "type": "address"
        }
      ],
      "name": "removeReward",
      "outputs": [],
      "stateMutability": "nonpayable",
      "type": "function"
    },
    {
      "inputs": [],
      "name": "renounceOwnership",
      "outputs": [],
      "stateMutability": "nonpayable",
      "type": "function"
    },
    {
      "inputs": [
        {
          "internalType": "uint256",
          "name": "_minReturnAmountAccepted",
          "type": "uint256"
        },
        {
          "internalType": "bool",
          "name": "",
          "type": "bool"
        }
      ],
      "name": "rescueDeployedFunds",
      "outputs": [],
      "stateMutability": "nonpayable",
      "type": "function"
    },
    {
      "inputs": [
        {
          "internalType": "address",
          "name": "token",
          "type": "address"
        },
        {
          "internalType": "address",
          "name": "spender",
          "type": "address"
        }
      ],
      "name": "revokeAllowance",
      "outputs": [],
      "stateMutability": "nonpayable",
      "type": "function"
    },
    {
      "inputs": [],
      "name": "rewardCount",
      "outputs": [
        {
          "internalType": "uint256",
          "name": "",
          "type": "uint256"
        }
      ],
      "stateMutability": "view",
      "type": "function"
    },
    {
      "inputs": [
        {
          "internalType": "address",
          "name": "",
          "type": "address"
        }
      ],
      "name": "rewardSwapPairs",
      "outputs": [
        {
          "internalType": "address",
          "name": "",
          "type": "address"
        }
      ],
      "stateMutability": "view",
      "type": "function"
    },
    {
      "inputs": [],
      "name": "rewardToken",
      "outputs": [
        {
          "internalType": "contract IERC20",
          "name": "",
          "type": "address"
        }
      ],
      "stateMutability": "view",
      "type": "function"
    },
    {
      "inputs": [],
      "name": "stakingContract",
      "outputs": [
        {
          "internalType": "address",
          "name": "",
          "type": "address"
        }
      ],
      "stateMutability": "view",
      "type": "function"
    },
    {
      "inputs": [
        {
          "internalType": "uint256",
          "name": "",
          "type": "uint256"
        }
      ],
      "name": "supportedRewards",
      "outputs": [
        {
          "internalType": "address",
          "name": "",
          "type": "address"
        }
      ],
      "stateMutability": "view",
      "type": "function"
    },
    {
      "inputs": [],
      "name": "symbol",
      "outputs": [
        {
          "internalType": "string",
          "name": "",
          "type": "string"
        }
      ],
      "stateMutability": "view",
      "type": "function"
    },
    {
      "inputs": [],
      "name": "totalDeposits",
      "outputs": [
        {
          "internalType": "uint256",
          "name": "",
          "type": "uint256"
        }
      ],
      "stateMutability": "view",
      "type": "function"
    },
    {
      "inputs": [],
      "name": "totalSupply",
      "outputs": [
        {
          "internalType": "uint256",
          "name": "",
          "type": "uint256"
        }
      ],
      "stateMutability": "view",
      "type": "function"
    },
    {
      "inputs": [
        {
          "internalType": "address",
          "name": "dst",
          "type": "address"
        },
        {
          "internalType": "uint256",
          "name": "amount",
          "type": "uint256"
        }
      ],
      "name": "transfer",
      "outputs": [
        {
          "internalType": "bool",
          "name": "",
          "type": "bool"
        }
      ],
      "stateMutability": "nonpayable",
      "type": "function"
    },
    {
      "inputs": [
        {
          "internalType": "address",
          "name": "src",
          "type": "address"
        },
        {
          "internalType": "address",
          "name": "dst",
          "type": "address"
        },
        {
          "internalType": "uint256",
          "name": "amount",
          "type": "uint256"
        }
      ],
      "name": "transferFrom",
      "outputs": [
        {
          "internalType": "bool",
          "name": "",
          "type": "bool"
        }
      ],
      "stateMutability": "nonpayable",
      "type": "function"
    },
    {
      "inputs": [
        {
          "internalType": "address",
          "name": "newOwner",
          "type": "address"
        }
      ],
      "name": "transferOwnership",
      "outputs": [],
      "stateMutability": "nonpayable",
      "type": "function"
    },
    {
      "inputs": [
        {
          "internalType": "uint256",
          "name": "newValue",
          "type": "uint256"
        }
      ],
      "name": "updateAdminFee",
      "outputs": [],
      "stateMutability": "nonpayable",
      "type": "function"
    },
    {
      "inputs": [
        {
          "internalType": "bool",
          "name": "newValue",
          "type": "bool"
        }
      ],
      "name": "updateDepositsEnabled",
      "outputs": [],
      "stateMutability": "nonpayable",
      "type": "function"
    },
    {
      "inputs": [
        {
          "internalType": "address",
          "name": "newValue",
          "type": "address"
        }
      ],
      "name": "updateDevAddr",
      "outputs": [],
      "stateMutability": "nonpayable",
      "type": "function"
    },
    {
      "inputs": [
        {
          "internalType": "uint256",
          "name": "newValue",
          "type": "uint256"
        }
      ],
      "name": "updateDevFee",
      "outputs": [],
      "stateMutability": "nonpayable",
      "type": "function"
    },
    {
      "inputs": [
        {
          "internalType": "uint256",
          "name": "newValue",
          "type": "uint256"
        }
      ],
      "name": "updateMaxTokensToDepositWithoutReinvest",
      "outputs": [],
      "stateMutability": "nonpayable",
      "type": "function"
    },
    {
      "inputs": [
        {
          "internalType": "uint256",
          "name": "newValue",
          "type": "uint256"
        }
      ],
      "name": "updateMinTokensToReinvest",
      "outputs": [],
      "stateMutability": "nonpayable",
      "type": "function"
    },
    {
      "inputs": [
        {
          "internalType": "uint256",
          "name": "newValue",
          "type": "uint256"
        }
      ],
      "name": "updateReinvestReward",
      "outputs": [],
      "stateMutability": "nonpayable",
      "type": "function"
    },
    {
      "inputs": [
        {
          "internalType": "uint256",
          "name": "_amount",
          "type": "uint256"
        }
      ],
      "name": "withdraw",
      "outputs": [],
      "stateMutability": "nonpayable",
      "type": "function"
    }
  ],
  "bytecode": {
    "object": "0x60c060405260096080819052685969656c642059616b60b81b60a09081526200002c916000919062000a7a565b506040805180820190915260038082526216549560ea1b6020909201918252620000599160019162000a7a565b503480156200006757600080fd5b506040516200511d3803806200511d8339810160408190526200008a9162000d77565b878786848480600033600680546001600160a01b0319166001600160a01b03831690811790915560405191925090600090600080516020620050fd833981519152908290a3508051620000dd9062000312565b6020810151620000ed90620003a2565b6040810151620000fd9062000459565b5084516200011390600090602088019062000a7a565b50600980546001600160a01b0386166001600160a01b031991821617909155600a8054821673b31f66aa3c1e785363f0875a1b74e27b85fd66c7179055600b8054909116732d580f9cf2fb2d09bc411532988f2afda4e7beff17905560005b8351811015620001e357620001ce84828151811062000195576200019562000ed3565b602002602001015160000151858381518110620001b657620001b662000ed3565b6020026020010151602001516200051060201b60201c565b80620001da8162000eff565b91505062000172565b50620001f0600162000699565b620001fb8262000743565b60408051600080825260208201527fc7606d21ac05cd309191543e409f0845c016120563783d70e4f41419dc0ef234910160405180910390a15050601580546001600160a01b03808a166001600160a01b03199283161790925560168054928916929091169190911790555050865160178054899350909190829060ff1916600183600581111562000291576200029162000f1b565b0217905550602082015181546001600160a01b0391821661010002610100600160a81b031990911617825560408301516001830180549183166001600160a01b031992831617905560608401516002840180549190931691161790556080820151600382015560a0909101516004909101555062000fa69650505050505050565b6006546001600160a01b03163314620003615760405162461bcd60e51b81526020600482018190526024820152600080516020620050dd83398151915260448201526064015b60405180910390fd5b600c5460408051918252602082018390527f481f79ac3a523b6d6db3c5a720e190e986d1cc1b41adcdf50f9caef849901100910160405180910390a1600c55565b6006546001600160a01b03163314620003ed5760405162461bcd60e51b81526020600482018190526024820152600080516020620050dd833981519152604482015260640162000358565b6127106200040c601054836200084060201b62001faf1790919060201c565b11156200041857600080fd5b60115460408051918252602082018390527f2a42303d002f0ba6cfe8259c91d4684443fb0b3de286ba74991175d651726131910160405180910390a1601155565b6006546001600160a01b03163314620004a45760405162461bcd60e51b81526020600482018190526024820152600080516020620050dd833981519152604482015260640162000358565b612710620004c3601154836200084060201b62001faf1790919060201c565b1115620004cf57600080fd5b60105460408051918252602082018390527fe7f97d51d307dc44045597c9978bec0f842e6bb40d19b9444084cfa30d9ed4f2910160405180910390a1601055565b600a546001600160a01b03838116911614620005c957620005538183600a60009054906101000a90046001600160a01b03166200085560201b62001fbb1760201c565b620005c9576040805162461bcd60e51b81526020600482015260248101919091527f5661726961626c655265776172647353747261746567793a3a5377617020706160448201527f697220646f6573206e6f7420636f6e7461696e2072657761726420746f6b656e606482015260840162000358565b6001600160a01b038083166000818152601260209081526040822080549486166001600160a01b03199586161790556013805460018181018355919093527f66de8ffda797e3de9c05e8fc57b3bf0ec28a930d40b0d285d93c06501cf6a09090920180549094169092179092556014546200064f92909162001faf62000840821b17901c565b601455604080516001600160a01b038085168252831660208201527f916e172c080569186aa7ea048268267257cf7cc49505908863f747bca8620f80910160405180910390a15050565b6006546001600160a01b03163314620006e45760405162461bcd60e51b81526020600482018190526024820152600080516020620050dd833981519152604482015260640162000358565b600e5481151560ff909116151503620006fc57600080fd5b600e805460ff19168215159081179091556040519081527f7b014ed3854e7f5cb0218d58b3c6ae7d53a68bb0af2f67bfb029ea42c38a7e859060200160405180910390a150565b6006546001600160a01b031633146200078e5760405162461bcd60e51b81526020600482018190526024820152600080516020620050dd833981519152604482015260640162000358565b6001600160a01b038116620007f55760405162461bcd60e51b815260206004820152602660248201527f4f776e61626c653a206e6577206f776e657220697320746865207a65726f206160448201526564647265737360d01b606482015260840162000358565b6006546040516001600160a01b03808416921690600080516020620050fd83398151915290600090a3600680546001600160a01b0319166001600160a01b0392909216919091179055565b60006200084e828462000f31565b9392505050565b6000836001600160a01b0316630dfe16816040518163ffffffff1660e01b8152600401602060405180830381865afa15801562000896573d6000803e3d6000fd5b505050506040513d601f19601f82011682018060405250810190620008bc919062000f4c565b6001600160a01b0316836001600160a01b03161480620009515750836001600160a01b031663d21220a76040518163ffffffff1660e01b8152600401602060405180830381865afa15801562000916573d6000803e3d6000fd5b505050506040513d601f19601f820116820180604052508101906200093c919062000f4c565b6001600160a01b0316836001600160a01b0316145b801562000a535750836001600160a01b0316630dfe16816040518163ffffffff1660e01b8152600401602060405180830381865afa15801562000998573d6000803e3d6000fd5b505050506040513d601f19601f82011682018060405250810190620009be919062000f4c565b6001600160a01b0316826001600160a01b0316148062000a535750836001600160a01b031663d21220a76040518163ffffffff1660e01b8152600401602060405180830381865afa15801562000a18573d6000803e3d6000fd5b505050506040513d601f19601f8201168201806040525081019062000a3e919062000f4c565b6001600160a01b0316826001600160a01b0316145b801562000a725750816001600160a01b0316836001600160a01b031614155b949350505050565b82805462000a889062000f6a565b90600052602060002090601f01602090048101928262000aac576000855562000af7565b82601f1062000ac757805160ff191683800117855562000af7565b8280016001018555821562000af7579182015b8281111562000af757825182559160200191906001019062000ada565b5062000b0592915062000b09565b5090565b5b8082111562000b05576000815560010162000b0a565b634e487b7160e01b600052604160045260246000fd5b604080519081016001600160401b038111828210171562000b5b5762000b5b62000b20565b60405290565b604051601f8201601f191681016001600160401b038111828210171562000b8c5762000b8c62000b20565b604052919050565b80516001600160a01b038116811462000bac57600080fd5b919050565b600060c0828403121562000bc457600080fd5b60405160c081016001600160401b038111828210171562000be95762000be962000b20565b806040525080915082516006811062000c0157600080fd5b815262000c116020840162000b94565b602082015262000c246040840162000b94565b604082015262000c376060840162000b94565b60608201526080830151608082015260a083015160a08201525092915050565b600082601f83011262000c6957600080fd5b815160206001600160401b0382111562000c875762000c8762000b20565b62000c97818360051b0162000b61565b82815260069290921b8401810191818101908684111562000cb757600080fd5b8286015b8481101562000d0d576040818903121562000cd65760008081fd5b62000ce062000b36565b62000ceb8262000b94565b815262000cfa85830162000b94565b8186015283529183019160400162000cbb565b509695505050505050565b60006060828403121562000d2b57600080fd5b604051606081016001600160401b038111828210171562000d505762000d5062000b20565b80604052508091508251815260208301516020820152604083015160408201525092915050565b6000806000806000806000806101e0898b03121562000d9557600080fd5b88516001600160401b038082111562000dad57600080fd5b818b0191508b601f83011262000dc257600080fd5b81518181111562000dd75762000dd762000b20565b602062000ded601f8301601f1916820162000b61565b8281528e8284870101111562000e0257600080fd5b60005b8381101562000e2257858101830151828201840152820162000e05565b8381111562000e345760008385840101525b509b5062000e448d820162000b94565b9a50505062000e578c60408d0162000bb1565b97506101008b015191508082111562000e6f57600080fd5b5062000e7e8b828c0162000c57565b95505062000e906101208a0162000b94565b935062000ea16101408a0162000b94565b925062000eb26101608a0162000b94565b915062000ec48a6101808b0162000d18565b90509295985092959890939650565b634e487b7160e01b600052603260045260246000fd5b634e487b7160e01b600052601160045260246000fd5b60006001820162000f145762000f1462000ee9565b5060010190565b634e487b7160e01b600052602160045260246000fd5b6000821982111562000f475762000f4762000ee9565b500190565b60006020828403121562000f5f57600080fd5b6200084e8262000b94565b600181811c9082168062000f7f57607f821691505b60208210810362000fa057634e487b7160e01b600052602260045260246000fd5b50919050565b6141278062000fb66000396000f3fe608060405234801561001057600080fd5b50600436106103ba5760003560e01c80638b73e606116101f4578063c4b24a461161011a578063e75ab045116100ad578063ee99205c1161007c578063ee99205c14610846578063f2fde38b14610859578063f7c618c11461086c578063fdb5a03e1461087f57600080fd5b8063e75ab04514610805578063eab89a5a14610818578063ec5568891461082b578063ed24911d1461083e57600080fd5b8063da09c72c116100e9578063da09c72c14610793578063dd62ed3e146107a6578063dd8ce4d6146107df578063e21ac825146107f257600080fd5b8063c4b24a4614610752578063c89039c51461075a578063cff1b6ef1461076d578063d505accf1461078057600080fd5b8063a5534e7111610192578063b52a321f11610161578063b52a321f14610721578063b6b55f251461072e578063b9e57b8014610741578063bd079f551461074957600080fd5b8063a5534e71146106bf578063a8ae2b7c146106e8578063a9059cbb146106fb578063ac0d31ff1461070e57600080fd5b806395d89b41116101ce57806395d89b411461066a57806399729ec1146106725780639e4e731814610685578063a4d5e67c146106ac57600080fd5b80638b73e6061461061f5780638da5cb5b146106325780639291d5631461065757600080fd5b8063483c2ef0116102e4578063789139bc116102775780637ecebe00116102465780637ecebe00146105d057806381837230146105f05780638980f11f146106035780638aff733d1461061657600080fd5b8063789139bc146105a357806379085425146105ac5780637ae26773146105b55780637d882097146105c857600080fd5b80634ebb7916116102b35780634ebb7916146105565780635ea682ea1461056957806370a0823114610572578063715018a61461059b57600080fd5b8063483c2ef0146104fa5780634a970be71461051d5780634bebd1e7146105305780634e77ace51461054357600080fd5b806323b872dd1161035c57806330adf81f1161032b57806330adf81f1461049d578063313ce567146104c45780633bdc6e72146104de57806340b47e1a146104e757600080fd5b806323b872dd14610462578063247d284b1461041f5780632e1a7d4d146104755780632f4f21e21461048a57600080fd5b80630f23475d116103985780630f23475d14610417578063110560351461041f57806318160ddd1461043257806320606b701461043b57600080fd5b806306fdde03146103bf57806307677111146103dd578063095ea7b3146103f4575b600080fd5b6103c7610887565b6040516103d49190613aa6565b60405180910390f35b6103e6600f5481565b6040519081526020016103d4565b610407610402366004613ace565b610915565b60405190151581526020016103d4565b6103e661092b565b6103e661042d366004613afa565b610956565b6103e660025481565b6103e67f8b73c3c69bb8fe3d512ecc4cf759cc79239f7b179b0ffacaa9a75d522b39400f81565b610407610470366004613b13565b610967565b610488610483366004613afa565b610a4b565b005b610488610498366004613ace565b610b46565b6103e67f6e71edae12b1b97f4d1f60370fef10105fa2faae0126114a169c64845d6126c981565b6104cc601281565b60405160ff90911681526020016103d4565b6103e660075481565b6104886104f5366004613b54565b610b54565b610407610508366004613b8d565b60086020526000908152604090205460ff1681565b61048861052b366004613bc0565b610b88565b61048861053e366004613b8d565b610c21565b610488610551366004613c15565b610d20565b610488610564366004613afa565b610da9565b6103e660115481565b6103e6610580366004613b8d565b6001600160a01b031660009081526004602052604090205490565b610488610e45565b6103e6600d5481565b6103e660145481565b6104886105c3366004613b54565b610eb9565b6103e6610f5f565b6103e66105de366004613b8d565b60056020526000908152604090205481565b6104886105fe366004613afa565b610fd9565b610488610611366004613ace565b611044565b6103e660105481565b61048861062d366004613b8d565b61113c565b6006546001600160a01b03165b6040516001600160a01b0390911681526020016103d4565b610488610665366004613b8d565b6112bd565b6103c7611350565b610488610680366004613afa565b61135d565b6103e67fc89efdaa54c0f20c7adf612882df0950f5a951637e0307cdcb4c672f298b8bc681565b6104886106ba366004613b8d565b6113eb565b61063f6106cd366004613b8d565b6012602052600090815260409020546001600160a01b031681565b6104886106f6366004613afa565b6115f1565b610407610709366004613ace565b61167f565b61048861071c366004613c32565b61168c565b600e546104079060ff1681565b61048861073c366004613afa565b611894565b6103e66118a1565b6103e6600c5481565b6103e66118e6565b60095461063f906001600160a01b031681565b61048861077b366004613afa565b611b54565b61048861078e366004613c57565b611bca565b600b5461063f906001600160a01b031681565b6103e66107b4366004613b54565b6001600160a01b03918216600090815260036020908152604080832093909416825291909152205490565b6103e66107ed366004613afa565b611ccf565b610488610800366004613afa565b611d09565b61063f610813366004613afa565b611d74565b6103e6610826366004613afa565b611d9e565b60165461063f906001600160a01b031681565b6103e6611dd2565b60155461063f906001600160a01b031681565b610488610867366004613b8d565b611e72565b600a5461063f906001600160a01b031681565b610488611f5d565b6000805461089490613cc5565b80601f01602080910402602001604051908101604052809291908181526020018280546108c090613cc5565b801561090d5780601f106108e25761010080835404028352916020019161090d565b820191906000526020600020905b8154815290600101906020018083116108f057829003601f168201915b505050505081565b60006109223384846121d0565b50600192915050565b600080610936610f5f565b90506000610943826122de565b905061094f82826122f1565b9250505090565b6000610961826122de565b92915050565b6001600160a01b0383166000818152600360209081526040808320338085529252822054919290919082148015906109a157506000198114155b15610a325760006109cd856040518060600160405280602f815260200161406e602f91398491906122fd565b6001600160a01b038881166000818152600360209081526040808320948916808452948252918290208590559051848152939450919290917f8c5be1e5ebec7d5bd14f71427d1e84f3dd0314c0f7b2291e5b200ac8c7c3b925910160405180910390a3505b610a3d868686612329565b6001925050505b9392505050565b6000610a5682611d9e565b905060008111610ac65760405162461bcd60e51b815260206004820152603060248201527f5661726961626c655265776172647353747261746567793a3a5769746864726160448201526f7720616d6f756e7420746f6f206c6f7760801b60648201526084015b60405180910390fd5b6000610ad18261245c565b90506000610ade836122de565b9050610b0133610aee84846122f1565b6009546001600160a01b031691906124da565b610b0b3385612531565b60405183815233907f884edad9ce6fa2440d8a54cc123490eb96d2768479d49ff9c7366125a94243649060200160405180910390a250505050565b610b508282612607565b5050565b600b546001600160a01b03163314610b7e5760405162461bcd60e51b8152600401610abd90613cff565b610b5082826127f5565b60095460405163d505accf60e01b8152336004820152306024820152604481018790526064810186905260ff8516608482015260a4810184905260c481018390526001600160a01b039091169063d505accf9060e401600060405180830381600087803b158015610bf857600080fd5b505af1158015610c0c573d6000803e3d6000fd5b50505050610c1a3386612607565b5050505050565b6006546001600160a01b03163314610c4b5760405162461bcd60e51b8152600401610abd90613d2d565b6001600160a01b03811660009081526008602052604090205460ff1615610cb45760405162461bcd60e51b815260206004820152601c60248201527f5065726d697373696f6e65643a3a616c6c6f774465706f7369746f72000000006044820152606401610abd565b6001600160a01b0381166000908152600860205260409020805460ff19166001908117909155600754610ce691611faf565b6007556040516001600160a01b038216907fc0a1035c16faf8d1304056d92c00edf028f87e62b8235a938f00af9e3c0312c590600090a250565b6006546001600160a01b03163314610d4a5760405162461bcd60e51b8152600401610abd90613d2d565b600e5481151560ff909116151503610d6157600080fd5b600e805460ff19168215159081179091556040519081527f7b014ed3854e7f5cb0218d58b3c6ae7d53a68bb0af2f67bfb029ea42c38a7e85906020015b60405180910390a150565b6006546001600160a01b03163314610dd35760405162461bcd60e51b8152600401610abd90613d2d565b60008111610de057600080fd5b604051339082156108fc029083906000818181858888f19350505050158015610e0d573d6000803e3d6000fd5b506040805160008152602081018390527f8c1256b8896378cd5044f80c202f9772b9d77dc85c8a6eb51967210b09bfaa289101610d9e565b6006546001600160a01b03163314610e6f5760405162461bcd60e51b8152600401610abd90613d2d565b6006546040516000916001600160a01b0316907f8be0079c531659141344cd1fd0a4f28419497f9722a3daafe3b4186f6b6457e0908390a3600680546001600160a01b0319169055565b6006546001600160a01b03163314610ee35760405162461bcd60e51b8152600401610abd90613d2d565b60405163095ea7b360e01b81526001600160a01b0382811660048301526000602483015283169063095ea7b3906044016020604051808303816000875af1158015610f32573d6000803e3d6000fd5b505050506040513d601f19601f82011682018060405250810190610f569190613d62565b610b5057600080fd5b6016546015546040516303455daf60e51b81526001600160a01b03918216600482015260009291909116906368abb5e090602401602060405180830381865afa158015610fb0573d6000803e3d6000fd5b505050506040513d601f19601f82011682018060405250810190610fd49190613d7f565b905090565b6006546001600160a01b031633146110035760405162461bcd60e51b8152600401610abd90613d2d565b600c5460408051918252602082018390527f481f79ac3a523b6d6db3c5a720e190e986d1cc1b41adcdf50f9caef849901100910160405180910390a1600c55565b6006546001600160a01b0316331461106e5760405162461bcd60e51b8152600401610abd90613d2d565b6000811161107b57600080fd5b60405163a9059cbb60e01b8152336004820152602481018290526001600160a01b0383169063a9059cbb906044016020604051808303816000875af11580156110c8573d6000803e3d6000fd5b505050506040513d601f19601f820116820180604052508101906110ec9190613d62565b6110f557600080fd5b604080516001600160a01b0384168152602081018390527f8c1256b8896378cd5044f80c202f9772b9d77dc85c8a6eb51967210b09bfaa2891015b60405180910390a15050565b6006546001600160a01b031633146111665760405162461bcd60e51b8152600401610abd90613d2d565b6000600754116111d55760405162461bcd60e51b815260206004820152603460248201527f5065726d697373696f6e65643a3a72656d6f76654465706f7369746f722c206e6044820152736f20616c6c6f776564206465706f7369746f727360601b6064820152608401610abd565b6001600160a01b03811660009081526008602052604090205460ff1615156001146112555760405162461bcd60e51b815260206004820152602a60248201527f5065726d697373696f6e65643a3a72656d6f76654465706f7369746f722c206e6044820152691bdd08185b1b1bddd95960b21b6064820152608401610abd565b6001600160a01b0381166000908152600860205260409020805460ff191690556007546112839060016122f1565b6007556040516001600160a01b038216907f0e86f6608b536e5339a25b65ff531f5ea91e1313d056ecd4752b35cbd16137d490600090a250565b600b546001600160a01b031633146112e75760405162461bcd60e51b8152600401610abd90613cff565b600b54604080516001600160a01b03928316815291831660208301527fa8e91499ed37682f43cffb045fcc7d379a91e8c9a14e6321877ee34dee564c00910160405180910390a1600b80546001600160a01b0319166001600160a01b0392909216919091179055565b6001805461089490613cc5565b6006546001600160a01b031633146113875760405162461bcd60e51b8152600401610abd90613d2d565b61271061139f60105483611faf90919063ffffffff16565b11156113aa57600080fd5b60115460408051918252602082018390527f2a42303d002f0ba6cfe8259c91d4684443fb0b3de286ba74991175d651726131910160405180910390a1601155565b600b546001600160a01b031633146114155760405162461bcd60e51b8152600401610abd90613cff565b6001600160a01b038116600090815260126020526040812080546001600160a01b0319169055805b601354811015611509576013818154811061145a5761145a613d98565b6000918252602090912001546001600160a01b03908116908416036114f757601380546001935061148c908490613dc4565b8154811061149c5761149c613d98565b600091825260209091200154601380546001600160a01b0390921691839081106114c8576114c8613d98565b9060005260206000200160006101000a8154816001600160a01b0302191690836001600160a01b031602179055505b8061150181613ddb565b91505061143d565b50806115745760405162461bcd60e51b815260206004820152603460248201527f5661726961626c655265776172647353747261746567793a3a52657761726420604482015273746f2064656c657465206e6f7420666f756e642160601b6064820152608401610abd565b601380548061158557611585613df4565b600082815260209020810160001990810180546001600160a01b03191690550190556014546115b59060016122f1565b6014556040516001600160a01b03831681527f963b7c735475147a62c589c2d7cb8ec4b0a6b7af4f97373d79ebfa42ab8aa7dc90602001611130565b6006546001600160a01b0316331461161b5760405162461bcd60e51b8152600401610abd90613d2d565b61271061163360115483611faf90919063ffffffff16565b111561163e57600080fd5b60105460408051918252602082018390527fe7f97d51d307dc44045597c9978bec0f842e6bb40d19b9444084cfa30d9ed4f2910160405180910390a1601055565b6000610922338484612329565b6006546001600160a01b031633146116b65760405162461bcd60e51b8152600401610abd90613d2d565b6009546040516370a0823160e01b81523060048201526000916001600160a01b0316906370a0823190602401602060405180830381865afa1580156116ff573d6000803e3d6000fd5b505050506040513d601f19601f820116820180604052508101906117239190613d7f565b905061172d612951565b6009546040516370a0823160e01b81523060048201526000916001600160a01b0316906370a0823190602401602060405180830381865afa158015611776573d6000803e3d6000fd5b505050506040513d601f19601f8201168201806040525081019061179a9190613d7f565b9050836117a782846122f1565b10156118315760405162461bcd60e51b815260206004820152604d60248201527f5661726961626c655265776172647353747261746567793a3a456d657267656e60448201527f6379207769746864726177206d696e696d756d2072657475726e20616d6f756e60648201526c1d081b9bdd081c995858da1959609a1b608482015260a401610abd565b7fc7606d21ac05cd309191543e409f0845c016120563783d70e4f41419dc0ef23461185a610f5f565b6002546040805192835260208301919091520160405180910390a1600e5460ff16151560010361188e5761188e6000610d20565b50505050565b61189e3382612607565b50565b6000806118ac6118e6565b9050600c5481106118de576118d86127106118d260105484612a3490919063ffffffff16565b90612a40565b91505090565b600091505090565b6000806118f1612a4c565b6040516370a0823160e01b815230600482015290915060009073b31f66aa3c1e785363f0875a1b74e27b85fd66c7906370a0823190602401602060405180830381865afa158015611946573d6000803e3d6000fd5b505050506040513d601f19601f8201168201806040525081019061196a9190613d7f565b90506119768147611faf565b5060005b8251811015611b4d57600083828151811061199757611997613d98565b602002602001015160000151905073b31f66aa3c1e785363f0875a1b74e27b85fd66c76001600160a01b0316816001600160a01b031603611a0957611a028483815181106119e7576119e7613d98565b60200260200101516020015184611faf90919063ffffffff16565b9250611b3a565b6040516370a0823160e01b81523060048201526000906001600160a01b038316906370a0823190602401602060405180830381865afa158015611a50573d6000803e3d6000fd5b505050506040513d601f19601f82011682018060405250810190611a749190613d7f565b90506000611aa8868581518110611a8d57611a8d613d98565b60200260200101516020015183611faf90919063ffffffff16565b9050600060126000888781518110611ac257611ac2613d98565b602090810291909101810151516001600160a01b03908116835290820192909252604001600020541690508115801590611b0457506001600160a01b03811615155b15611b3657611b33611b2c838673b31f66aa3c1e785363f0875a1b74e27b85fd66c785612b5c565b8790611faf565b95505b5050505b5080611b4581613ddb565b91505061197a565b5092915050565b6006546001600160a01b03163314611b7e5760405162461bcd60e51b8152600401610abd90613d2d565b8015611b8957600080fd5b600f5460408051918252602082018390527f3cc372f330f95ac9540626dc8a25f5bf21ba607215a5d58304cb804d446f104a910160405180910390a1600f55565b42841015611c0c5760405162461bcd60e51b815260206004820152600f60248201526e1c195c9b5a5d0e8e995e1c1a5c9959608a1b6044820152606401610abd565b6001600160a01b038716600090815260056020526040812080547f6e71edae12b1b97f4d1f60370fef10105fa2faae0126114a169c64845d6126c9918a918a918a919086611c5983613ddb565b909155506040805160208101969096526001600160a01b0394851690860152929091166060840152608083015260a082015260c0810186905260e001604051602081830303815290604052805190602001209050611cba8882868686612c1a565b611cc58888886121d0565b5050505050505050565b6000611ce5611cdc610f5f565b60025490612a34565b600003611cf0575090565b610961611cfb610f5f565b6002546118d2908590612a34565b6006546001600160a01b03163314611d335760405162461bcd60e51b8152600401610abd90613d2d565b600d5460408051918252602082018390527fa5dae50539d56dfe1fb5273d883b0c39bc76750a25d036fc5fbd09ad8fd5f57f910160405180910390a1600d55565b60138181548110611d8457600080fd5b6000918252602090912001546001600160a01b0316905081565b6000611dab611cdc610f5f565b600003611dba57506000919050565b6109616002546118d2611dcb610f5f565b8590612a34565b60007f8b73c3c69bb8fe3d512ecc4cf759cc79239f7b179b0ffacaa9a75d522b39400f60001b6000604051611e079190613e0a565b6040519081900390207fc89efdaa54c0f20c7adf612882df0950f5a951637e0307cdcb4c672f298b8bc646604080516020810195909552840192909252606083015260808201523060a082015260c00160405160208183030381529060405280519060200120905090565b6006546001600160a01b03163314611e9c5760405162461bcd60e51b8152600401610abd90613d2d565b6001600160a01b038116611f015760405162461bcd60e51b815260206004820152602660248201527f4f776e61626c653a206e6577206f776e657220697320746865207a65726f206160448201526564647265737360d01b6064820152608401610abd565b6006546040516001600160a01b038084169216907f8be0079c531659141344cd1fd0a4f28419497f9722a3daafe3b4186f6b6457e090600090a3600680546001600160a01b0319166001600160a01b0392909216919091179055565b323314611fa35760405162461bcd60e51b815260206004820152601460248201527359616b53747261746567793a3a6f6e6c79454f4160601b6044820152606401610abd565b611fad6000612d46565b565b6000610a448284613ea5565b6000836001600160a01b0316630dfe16816040518163ffffffff1660e01b8152600401602060405180830381865afa158015611ffb573d6000803e3d6000fd5b505050506040513d601f19601f8201168201806040525081019061201f9190613ebd565b6001600160a01b0316836001600160a01b031614806120b05750836001600160a01b031663d21220a76040518163ffffffff1660e01b8152600401602060405180830381865afa158015612077573d6000803e3d6000fd5b505050506040513d601f19601f8201168201806040525081019061209b9190613ebd565b6001600160a01b0316836001600160a01b0316145b80156121aa5750836001600160a01b0316630dfe16816040518163ffffffff1660e01b8152600401602060405180830381865afa1580156120f5573d6000803e3d6000fd5b505050506040513d601f19601f820116820180604052508101906121199190613ebd565b6001600160a01b0316826001600160a01b031614806121aa5750836001600160a01b031663d21220a76040518163ffffffff1660e01b8152600401602060405180830381865afa158015612171573d6000803e3d6000fd5b505050506040513d601f19601f820116820180604052508101906121959190613ebd565b6001600160a01b0316826001600160a01b0316145b80156121c85750816001600160a01b0316836001600160a01b031614155b949350505050565b6001600160a01b0383166122265760405162461bcd60e51b815260206004820152601c60248201527f5f617070726f76653a3a6f776e6572207a65726f2061646472657373000000006044820152606401610abd565b6001600160a01b03821661227c5760405162461bcd60e51b815260206004820152601e60248201527f5f617070726f76653a3a7370656e646572207a65726f206164647265737300006044820152606401610abd565b6001600160a01b0383811660008181526003602090815260408083209487168084529482529182902085905590518481527f8c5be1e5ebec7d5bd14f71427d1e84f3dd0314c0f7b2291e5b200ac8c7c3b92591015b60405180910390a3505050565b600080610a446127106118d28584612a34565b6000610a448284613dc4565b600081848411156123215760405162461bcd60e51b8152600401610abd9190613aa6565b505050900390565b6001600160a01b03821661239c5760405162461bcd60e51b815260206004820152603460248201527f5f7472616e73666572546f6b656e733a2063616e6e6f74207472616e7366657260448201527320746f20746865207a65726f206164647265737360601b6064820152608401610abd565b6123d9816040518060600160405280602e81526020016140c4602e91396001600160a01b03861660009081526004602052604090205491906122fd565b6001600160a01b0380851660009081526004602052604080822093909355908416815220546124089082611faf565b6001600160a01b0380841660008181526004602052604090819020939093559151908516907fddf252ad1be2c89b69c2b068fc378daa952ba7f163c4a11628f55a4df523b3ef906122d19085815260200190565b601654601554600954604051636ce5768960e11b81526001600160a01b039283166004820152908216602482015260448101849052600092919091169063d9caed1290606401600060405180830381600087803b1580156124bc57600080fd5b505af11580156124d0573d6000803e3d6000fd5b5093949350505050565b604080516001600160a01b038416602482015260448082018490528251808303909101815260649091019091526020810180516001600160e01b031663a9059cbb60e01b17905261252c908490612ebc565b505050565b61256e8160405180606001604052806027815260200161409d602791396001600160a01b03851660009081526004602052604090205491906122fd565b60046000846001600160a01b03166001600160a01b03168152602001908152602001600020819055506125be816040518060600160405280602781526020016140476027913960025491906122fd565b6002556040518181526000906001600160a01b038416907fddf252ad1be2c89b69c2b068fc378daa952ba7f163c4a11628f55a4df523b3ef906020015b60405180910390a35050565b600e5460ff1615156001146126715760405162461bcd60e51b815260206004820152602a60248201527f5661726961626c655265776172647353747261746567793a3a4465706f7369746044820152691cc8191a5cd8589b195960b21b6064820152608401610abd565b600d541561269b5760006126836118e6565b9050600d54811115612699576126996001612d46565b505b6009546040516323b872dd60e01b8152336004820152306024820152604481018390526001600160a01b03909116906323b872dd906064016020604051808303816000875af11580156126f2573d6000803e3d6000fd5b505050506040513d601f19601f820116820180604052508101906127169190613d62565b6127815760405162461bcd60e51b815260206004820152603660248201527f5661726961626c655265776172647353747261746567793a3a4465706f736974604482015275081d1bdad95b881d1c985b9cd9995c8819985a5b195960521b6064820152608401610abd565b600061278c826122de565b90506127a48361279f6107ed85856122f1565b612f8e565b6127ad82613012565b826001600160a01b03167fe1fffcc4923d04b559f4d29a8bfc6cda04eb5b0d3c460751c2402c5c5cc9109c836040516127e891815260200190565b60405180910390a2505050565b600a546001600160a01b0383811691161461289757600a5461282390829084906001600160a01b0316611fbb565b612897576040805162461bcd60e51b81526020600482015260248101919091527f5661726961626c655265776172647353747261746567793a3a5377617020706160448201527f697220646f6573206e6f7420636f6e7461696e2072657761726420746f6b656e6064820152608401610abd565b6001600160a01b03808316600081815260126020526040812080549385166001600160a01b03199485161790556013805460018181018355919092527f66de8ffda797e3de9c05e8fc57b3bf0ec28a930d40b0d285d93c06501cf6a090909101805490931690911790915560145461290e91611faf565b601455604080516001600160a01b038085168252831660208201527f916e172c080569186aa7ea048268267257cf7cc49505908863f747bca8620f809101611130565b60095460165460405163095ea7b360e01b81526001600160a01b0391821660048201526000602482015291169063095ea7b3906044016020604051808303816000875af11580156129a6573d6000803e3d6000fd5b505050506040513d601f19601f820116820180604052508101906129ca9190613d62565b50601654601554600954604051636382d9ad60e01b81526001600160a01b0392831660048201529082166024820152911690636382d9ad906044015b600060405180830381600087803b158015612a2057600080fd5b505af115801561188e573d6000803e3d6000fd5b6000610a448284613eda565b6000610a448284613ef9565b60408051600180825281830190925260609160009190816020015b6040805180820190915260008082526020820152815260200190600190039081612a67579050506016546015546040516318ebd13160e11b81526001600160a01b0391821660048201529293506000929116906331d7a26290602401602060405180830381865afa158015612ae0573d6000803e3d6000fd5b505050506040513d601f19601f82011682018060405250810190612b049190613d7f565b905060405180604001604052807377777777777d4554c39223c354a05825b2e8faa36001600160a01b031681526020018281525082600081518110612b4b57612b4b613d98565b602090810291909101015250919050565b600080612b698585613081565b509050600080846001600160a01b0316630902f1ac6040518163ffffffff1660e01b8152600401606060405180830381865afa158015612bad573d6000803e3d6000fd5b505050506040513d601f19601f82011682018060405250810190612bd19190613f32565b5091509150866001600160a01b0316836001600160a01b031614612bf157905b612c0e88836001600160701b0316836001600160701b03166130b2565b98975050505050505050565b6000612c24611dd2565b60405161190160f01b602082015260228101919091526042810186905260620160408051601f198184030181528282528051602091820120600080855291840180845281905260ff88169284019290925260608301869052608083018590529092509060019060a0016020604051602081039080840390855afa158015612caf573d6000803e3d6000fd5b5050604051601f1901519150506001600160a01b03811615801590612ce55750866001600160a01b0316816001600160a01b0316145b612d3d5760405162461bcd60e51b8152602060048201526024808201527f417263683a3a76616c69646174655369673a20696e76616c6964207369676e616044820152637475726560e01b6064820152608401610abd565b50505050505050565b612d4e613100565b6000612d58613134565b905081612dca57600c54811015612dca5760405162461bcd60e51b815260206004820152603060248201527f5661726961626c655265776172647353747261746567793a3a5265696e76657360448201526f7420616d6f756e7420746f6f206c6f7760801b6064820152608401610abd565b6000612de76127106118d260115485612a3490919063ffffffff16565b90508015612e0c57600b54600a54612e0c916001600160a01b039182169116836124da565b6000612e296127106118d260105486612a3490919063ffffffff16565b90508015612e4857600a54612e48906001600160a01b031633836124da565b6000612e66612e6183612e5b87876122f1565b906122f1565b613365565b9050612e7181613012565b7fc7606d21ac05cd309191543e409f0845c016120563783d70e4f41419dc0ef234612e9a610f5f565b6002546040805192835260208301919091520160405180910390a15050505050565b6000612f11826040518060400160405280602081526020017f5361666545524332303a206c6f772d6c6576656c2063616c6c206661696c6564815250856001600160a01b03166134069092919063ffffffff16565b80519091501561252c5780806020019051810190612f2f9190613d62565b61252c5760405162461bcd60e51b815260206004820152602a60248201527f5361666545524332303a204552433230206f7065726174696f6e20646964206e6044820152691bdd081cdd58d8d9595960b21b6064820152608401610abd565b600254612f9b9082611faf565b6002556001600160a01b038216600090815260046020526040902054612fc19082611faf565b6001600160a01b0383166000818152600460205260408082209390935591519091907fddf252ad1be2c89b69c2b068fc378daa952ba7f163c4a11628f55a4df523b3ef906125fb9085815260200190565b600081116130785760405162461bcd60e51b815260206004820152602d60248201527f5661726961626c655265776172647353747261746567793a3a5374616b65206160448201526c6d6f756e7420746f6f206c6f7760981b6064820152608401610abd565b61189e81613415565b600080826001600160a01b0316846001600160a01b0316106130a45782846130a7565b83835b915091509250929050565b6000806130c1856103e5612a34565b905060006130cf8285612a34565b905060006130e9836130e3886103e8612a34565b90611faf565b90506130f58282612a40565b979650505050505050565b60165460155460405163d279c19160e01b81526001600160a01b03918216600482015291169063d279c19190602401612a06565b6040516370a0823160e01b8152306004820152600090819073b31f66aa3c1e785363f0875a1b74e27b85fd66c7906370a0823190602401602060405180830381865afa158015613188573d6000803e3d6000fd5b505050506040513d601f19601f820116820180604052508101906131ac9190613d7f565b60135490915060005b8181101561335d576000601382815481106131d2576131d2613d98565b6000918252602090912001546001600160a01b0316905073b31f66aa3c1e785363f0875a1b74e27b85fd66c61981016132915747801561328a5773b31f66aa3c1e785363f0875a1b74e27b85fd66c76001600160a01b031663d0e30db0826040518263ffffffff1660e01b81526004016000604051808303818588803b15801561325b57600080fd5b505af115801561326f573d6000803e3d6000fd5b50505050506132878186611faf90919063ffffffff16565b94505b505061334b565b6040516370a0823160e01b81523060048201526000906001600160a01b038316906370a0823190602401602060405180830381865afa1580156132d8573d6000803e3d6000fd5b505050506040513d601f19601f820116820180604052508101906132fc9190613d7f565b90508015613348576001600160a01b0380831660009081526012602052604090205416801561334657600a5461334390611b2c90849086906001600160a01b0316856134a1565b95505b505b50505b8061335581613ddb565b9150506131b5565b509092915050565b600a546009546040805160c08101909152601780546000946109619487946001600160a01b03928316949190921692829060ff1660058111156133aa576133aa613f82565b60058111156133bb576133bb613f82565b815281546001600160a01b036101009091048116602083015260018301548116604083015260028301541660608201526003820154608082015260049091015460a090910152613615565b60606121c884846000856138f4565b601654600954613432916001600160a01b039182169116836124da565b601654601554600954604051638340f54960e01b81526001600160a01b039283166004820152908216602482015260448101849052911690638340f54990606401600060405180830381600087803b15801561348d57600080fd5b505af1158015610c1a573d6000803e3d6000fd5b6000806134ae8585613081565b509050600080846001600160a01b0316630902f1ac6040518163ffffffff1660e01b8152600401606060405180830381865afa1580156134f2573d6000803e3d6000fd5b505050506040513d601f19601f820116820180604052508101906135169190613f32565b5091509150866001600160a01b0316836001600160a01b03161461353657905b6000806135568a856001600160701b0316856001600160701b03166130b2565b9050886001600160a01b0316856001600160a01b03161461357357905b6135876001600160a01b038a16888c6124da565b6040805160008152602081019182905263022c0d9f60e01b9091526001600160a01b0388169063022c0d9f906135c69085908590309060248101613f98565b600060405180830381600087803b1580156135e057600080fd5b505af11580156135f4573d6000803e3d6000fd5b505050508181116136055781613607565b805b9a9950505050505050505050565b600081604001516001600160a01b0316846001600160a01b03161461364b576136488585846040015185602001516134a1565b94505b60006040518060600160405280600081526020016000815260200160008152509050858184608001516003811061368457613684613d98565b60200201526060830151604051633883e11960e01b81526000916001600160a01b031690633883e119906136bf908590600190600401613ff2565b602060405180830381865afa1580156136dc573d6000803e3d6000fd5b505050506040513d601f19601f820116820180604052508101906137009190613d7f565b905060006137216127106118d28760a0015185612a3490919063ffffffff16565b6040868101516060880151915163095ea7b360e01b81526001600160a01b039283166004820152602481018c9052929350169063095ea7b3906044016020604051808303816000875af115801561377c573d6000803e3d6000fd5b505050506040513d601f19601f820116820180604052508101906137a09190613d62565b5060608501516001600160a01b0316634515cef3846137bf85856122f1565b6040518363ffffffff1660e01b81526004016137dc92919061400f565b600060405180830381600087803b1580156137f657600080fd5b505af115801561380a573d6000803e3d6000fd5b5050506040808701516060880151915163095ea7b360e01b81526001600160a01b039283166004820152600060248201529116915063095ea7b3906044016020604051808303816000875af1158015613867573d6000803e3d6000fd5b505050506040513d601f19601f8201168201806040525081019061388b9190613d62565b506040516370a0823160e01b81523060048201526001600160a01b038716906370a0823190602401602060405180830381865afa1580156138d0573d6000803e3d6000fd5b505050506040513d601f19601f82011682018060405250810190612c0e9190613d7f565b6060824710156139555760405162461bcd60e51b815260206004820152602660248201527f416464726573733a20696e73756666696369656e742062616c616e636520666f6044820152651c8818d85b1b60d21b6064820152608401610abd565b6001600160a01b0385163b6139ac5760405162461bcd60e51b815260206004820152601d60248201527f416464726573733a2063616c6c20746f206e6f6e2d636f6e74726163740000006044820152606401610abd565b600080866001600160a01b031685876040516139c8919061402a565b60006040518083038185875af1925050503d8060008114613a05576040519150601f19603f3d011682016040523d82523d6000602084013e613a0a565b606091505b50915091506130f582828660608315613a24575081610a44565b825115613a345782518084602001fd5b8160405162461bcd60e51b8152600401610abd9190613aa6565b60005b83811015613a69578181015183820152602001613a51565b8381111561188e5750506000910152565b60008151808452613a92816020860160208601613a4e565b601f01601f19169290920160200192915050565b602081526000610a446020830184613a7a565b6001600160a01b038116811461189e57600080fd5b60008060408385031215613ae157600080fd5b8235613aec81613ab9565b946020939093013593505050565b600060208284031215613b0c57600080fd5b5035919050565b600080600060608486031215613b2857600080fd5b8335613b3381613ab9565b92506020840135613b4381613ab9565b929592945050506040919091013590565b60008060408385031215613b6757600080fd5b8235613b7281613ab9565b91506020830135613b8281613ab9565b809150509250929050565b600060208284031215613b9f57600080fd5b8135610a4481613ab9565b803560ff81168114613bbb57600080fd5b919050565b600080600080600060a08688031215613bd857600080fd5b8535945060208601359350613bef60408701613baa565b94979396509394606081013594506080013592915050565b801515811461189e57600080fd5b600060208284031215613c2757600080fd5b8135610a4481613c07565b60008060408385031215613c4557600080fd5b823591506020830135613b8281613c07565b600080600080600080600060e0888a031215613c7257600080fd5b8735613c7d81613ab9565b96506020880135613c8d81613ab9565b95506040880135945060608801359350613ca960808901613baa565b925060a0880135915060c0880135905092959891949750929550565b600181811c90821680613cd957607f821691505b602082108103613cf957634e487b7160e01b600052602260045260246000fd5b50919050565b6020808252601490820152732cb0b5a9ba3930ba32b3bc9d1d37b7363ca232bb60611b604082015260600190565b6020808252818101527f4f776e61626c653a2063616c6c6572206973206e6f7420746865206f776e6572604082015260600190565b600060208284031215613d7457600080fd5b8151610a4481613c07565b600060208284031215613d9157600080fd5b5051919050565b634e487b7160e01b600052603260045260246000fd5b634e487b7160e01b600052601160045260246000fd5b600082821015613dd657613dd6613dae565b500390565b600060018201613ded57613ded613dae565b5060010190565b634e487b7160e01b600052603160045260246000fd5b600080835481600182811c915080831680613e2657607f831692505b60208084108203613e4557634e487b7160e01b86526022600452602486fd5b818015613e595760018114613e6a57613e97565b60ff19861689528489019650613e97565b60008a81526020902060005b86811015613e8f5781548b820152908501908301613e76565b505084890196505b509498975050505050505050565b60008219821115613eb857613eb8613dae565b500190565b600060208284031215613ecf57600080fd5b8151610a4481613ab9565b6000816000190483118215151615613ef457613ef4613dae565b500290565b600082613f1657634e487b7160e01b600052601260045260246000fd5b500490565b80516001600160701b0381168114613bbb57600080fd5b600080600060608486031215613f4757600080fd5b613f5084613f1b565b9250613f5e60208501613f1b565b9150604084015163ffffffff81168114613f7757600080fd5b809150509250925092565b634e487b7160e01b600052602160045260246000fd5b84815283602082015260018060a01b0383166040820152608060608201526000613fc56080830184613a7a565b9695505050505050565b8060005b600381101561188e578151845260209384019390910190600101613fd3565b608081016140008285613fcf565b82151560608301529392505050565b6080810161401d8285613fcf565b8260608301529392505050565b6000825161403c818460208701613a4e565b919091019291505056fe5f6275726e3a206275726e20616d6f756e74206578636565647320746f74616c20737570706c797472616e7366657246726f6d3a207472616e7366657220616d6f756e74206578636565647320616c6c6f77616e63655f6275726e3a206275726e20616d6f756e7420657863656564732066726f6d2062616c616e63655f7472616e73666572546f6b656e733a207472616e7366657220657863656564732066726f6d2062616c616e6365a26469706673582212200f6cff0cef9334c26dca54ba74269d96d49c503b33c2c1e48da75eea96cfb58b64736f6c634300080d00334f776e61626c653a2063616c6c6572206973206e6f7420746865206f776e65728be0079c531659141344cd1fd0a4f28419497f9722a3daafe3b4186f6b6457e0",
    "linkReferences": {}
  },
  "methodIdentifiers": {
    "ADMIN_FEE_BIPS()": "07677111",
    "DEPOSITS_ENABLED()": "b52a321f",
    "DEV_FEE_BIPS()": "5ea682ea",
    "DOMAIN_TYPEHASH()": "20606b70",
    "MAX_TOKENS_TO_DEPOSIT_WITHOUT_REINVEST()": "789139bc",
    "MIN_TOKENS_TO_REINVEST()": "bd079f55",
    "PERMIT_TYPEHASH()": "30adf81f",
    "REINVEST_REWARD_BIPS()": "8aff733d",
    "VERSION_HASH()": "9e4e7318",
    "addReward(address,address)": "40b47e1a",
    "allowDepositor(address)": "4bebd1e7",
    "allowance(address,address)": "dd62ed3e",
    "allowedDepositors(address)": "483c2ef0",
    "approve(address,uint256)": "095ea7b3",
    "balanceOf(address)": "70a08231",
    "calculateDepositFee(uint256)": "247d284b",
    "calculateWithdrawFee(uint256)": "11056035",
    "checkReward()": "c4b24a46",
    "decimals()": "313ce567",
    "deposit(uint256)": "b6b55f25",
    "depositFor(address,uint256)": "2f4f21e2",
    "depositToken()": "c89039c5",
    "depositWithPermit(uint256,uint256,uint8,bytes32,bytes32)": "4a970be7",
    "devAddr()": "da09c72c",
    "estimateDeployedBalance()": "0f23475d",
    "estimateReinvestReward()": "b9e57b80",
    "getDepositTokensForShares(uint256)": "eab89a5a",
    "getDomainSeparator()": "ed24911d",
    "getSharesForDepositTokens(uint256)": "dd8ce4d6",
    "name()": "06fdde03",
    "nonces(address)": "7ecebe00",
    "numberOfAllowedDepositors()": "3bdc6e72",
    "owner()": "8da5cb5b",
    "permit(address,address,uint256,uint256,uint8,bytes32,bytes32)": "d505accf",
    "proxy()": "ec556889",
    "recoverAVAX(uint256)": "4ebb7916",
    "recoverERC20(address,uint256)": "8980f11f",
    "reinvest()": "fdb5a03e",
    "removeDepositor(address)": "8b73e606",
    "removeReward(address)": "a4d5e67c",
    "renounceOwnership()": "715018a6",
    "rescueDeployedFunds(uint256,bool)": "ac0d31ff",
    "revokeAllowance(address,address)": "7ae26773",
    "rewardCount()": "79085425",
    "rewardSwapPairs(address)": "a5534e71",
    "rewardToken()": "f7c618c1",
    "stakingContract()": "ee99205c",
    "supportedRewards(uint256)": "e75ab045",
    "symbol()": "95d89b41",
    "totalDeposits()": "7d882097",
    "totalSupply()": "18160ddd",
    "transfer(address,uint256)": "a9059cbb",
    "transferFrom(address,address,uint256)": "23b872dd",
    "transferOwnership(address)": "f2fde38b",
    "updateAdminFee(uint256)": "cff1b6ef",
    "updateDepositsEnabled(bool)": "4e77ace5",
    "updateDevAddr(address)": "9291d563",
    "updateDevFee(uint256)": "99729ec1",
    "updateMaxTokensToDepositWithoutReinvest(uint256)": "e21ac825",
    "updateMinTokensToReinvest(uint256)": "81837230",
    "updateReinvestReward(uint256)": "a8ae2b7c",
    "withdraw(uint256)": "2e1a7d4d"
  },
  "id": 163
}