{
  "abi": [
    {
      "inputs": [],
      "name": "RAY",
      "outputs": [
        {
          "internalType": "uint256",
          "name": "",
          "type": "uint256"
        }
      ],
      "stateMutability": "view",
      "type": "function"
    },
    {
      "inputs": [],
      "name": "WAD",
      "outputs": [
        {
          "internalType": "uint256",
          "name": "",
          "type": "uint256"
        }
      ],
      "stateMutability": "view",
      "type": "function"
    }
  ],
  "bytecode": {
    "object": "0x60aa610039600b82828239805160001a60731461002c57634e487b7160e01b600052600060045260246000fd5b30600052607381538281f3fe7300000000000000000000000000000000000000003014608060405260043610603d5760003560e01c8063552033c41460425780636a146024146066575b600080fd5b60546b033b2e3c9fd0803ce800000081565b60405190815260200160405180910390f35b6054670de0b6b3a76400008156fea26469706673582212202649402a15872e8692a49480fcc31076ebc2671c354d23fca9009bdd3f75c66e64736f6c634300080d0033",
    "linkReferences": {}
  },
  "methodIdentifiers": {
    "RAY()": "552033c4",
    "WAD()": "6a146024"
  },
  "id": 130
}