{
  "abi": [
    {
      "inputs": [
        {
          "internalType": "string",
          "name": "_name",
          "type": "string"
        },
        {
          "internalType": "address",
          "name": "_depositToken",
          "type": "address"
        },
        {
          "internalType": "address",
          "name": "_swapPairWavaxPtp",
          "type": "address"
        },
        {
          "components": [
            {
              "internalType": "address",
              "name": "reward",
              "type": "address"
            },
            {
              "internalType": "address",
              "name": "swapPair",
              "type": "address"
            }
          ],
          "internalType": "struct VariableRewardsStrategy.RewardSwapPairs[]",
          "name": "_rewardSwapPairs",
          "type": "tuple[]"
        },
        {
          "internalType": "address",
          "name": "_stakingContract",
          "type": "address"
        },
        {
          "internalType": "uint256",
          "name": "_pid",
          "type": "uint256"
        },
        {
          "internalType": "address",
          "name": "_voterProxy",
          "type": "address"
        },
        {
          "internalType": "address",
          "name": "_timelock",
          "type": "address"
        },
        {
          "components": [
            {
              "internalType": "uint256",
              "name": "minTokensToReinvest",
              "type": "uint256"
            },
            {
              "internalType": "uint256",
              "name": "devFeeBips",
              "type": "uint256"
            },
            {
              "internalType": "uint256",
              "name": "reinvestRewardBips",
              "type": "uint256"
            }
          ],
          "internalType": "struct YakStrategyV2.StrategySettings",
          "name": "_strategySettings",
          "type": "tuple"
        }
      ],
      "stateMutability": "nonpayable",
      "type": "constructor"
    },
    {
      "anonymous": false,
      "inputs": [
        {
          "indexed": false,
          "internalType": "address",
          "name": "rewardToken",
          "type": "address"
        },
        {
          "indexed": false,
          "internalType": "address",
          "name": "swapPair",
          "type": "address"
        }
      ],
      "name": "AddReward",
      "type": "event"
    },
    {
      "anonymous": false,
      "inputs": [
        {
          "indexed": true,
          "internalType": "address",
          "name": "account",
          "type": "address"
        }
      ],
      "name": "AllowDepositor",
      "type": "event"
    },
    {
      "anonymous": false,
      "inputs": [
        {
          "indexed": true,
          "internalType": "address",
          "name": "owner",
          "type": "address"
        },
        {
          "indexed": true,
          "internalType": "address",
          "name": "spender",
          "type": "address"
        },
        {
          "indexed": false,
          "internalType": "uint256",
          "name": "value",
          "type": "uint256"
        }
      ],
      "name": "Approval",
      "type": "event"
    },
    {
      "anonymous": false,
      "inputs": [
        {
          "indexed": true,
          "internalType": "address",
          "name": "account",
          "type": "address"
        },
        {
          "indexed": false,
          "internalType": "uint256",
          "name": "amount",
          "type": "uint256"
        }
      ],
      "name": "Deposit",
      "type": "event"
    },
    {
      "anonymous": false,
      "inputs": [
        {
          "indexed": false,
          "internalType": "bool",
          "name": "newValue",
          "type": "bool"
        }
      ],
      "name": "DepositsEnabled",
      "type": "event"
    },
    {
      "anonymous": false,
      "inputs": [
        {
          "indexed": true,
          "internalType": "address",
          "name": "previousOwner",
          "type": "address"
        },
        {
          "indexed": true,
          "internalType": "address",
          "name": "newOwner",
          "type": "address"
        }
      ],
      "name": "OwnershipTransferred",
      "type": "event"
    },
    {
      "anonymous": false,
      "inputs": [
        {
          "indexed": false,
          "internalType": "address",
          "name": "token",
          "type": "address"
        },
        {
          "indexed": false,
          "internalType": "uint256",
          "name": "amount",
          "type": "uint256"
        }
      ],
      "name": "Recovered",
      "type": "event"
    },
    {
      "anonymous": false,
      "inputs": [
        {
          "indexed": false,
          "internalType": "uint256",
          "name": "newTotalDeposits",
          "type": "uint256"
        },
        {
          "indexed": false,
          "internalType": "uint256",
          "name": "newTotalSupply",
          "type": "uint256"
        }
      ],
      "name": "Reinvest",
      "type": "event"
    },
    {
      "anonymous": false,
      "inputs": [
        {
          "indexed": true,
          "internalType": "address",
          "name": "account",
          "type": "address"
        }
      ],
      "name": "RemoveDepositor",
      "type": "event"
    },
    {
      "anonymous": false,
      "inputs": [
        {
          "indexed": false,
          "internalType": "address",
          "name": "rewardToken",
          "type": "address"
        }
      ],
      "name": "RemoveReward",
      "type": "event"
    },
    {
      "anonymous": false,
      "inputs": [
        {
          "indexed": true,
          "internalType": "address",
          "name": "from",
          "type": "address"
        },
        {
          "indexed": true,
          "internalType": "address",
          "name": "to",
          "type": "address"
        },
        {
          "indexed": false,
          "internalType": "uint256",
          "name": "value",
          "type": "uint256"
        }
      ],
      "name": "Transfer",
      "type": "event"
    },
    {
      "anonymous": false,
      "inputs": [
        {
          "indexed": false,
          "internalType": "uint256",
          "name": "oldValue",
          "type": "uint256"
        },
        {
          "indexed": false,
          "internalType": "uint256",
          "name": "newValue",
          "type": "uint256"
        }
      ],
      "name": "UpdateAdminFee",
      "type": "event"
    },
    {
      "anonymous": false,
      "inputs": [
        {
          "indexed": false,
          "internalType": "address",
          "name": "oldValue",
          "type": "address"
        },
        {
          "indexed": false,
          "internalType": "address",
          "name": "newValue",
          "type": "address"
        }
      ],
      "name": "UpdateDevAddr",
      "type": "event"
    },
    {
      "anonymous": false,
      "inputs": [
        {
          "indexed": false,
          "internalType": "uint256",
          "name": "oldValue",
          "type": "uint256"
        },
        {
          "indexed": false,
          "internalType": "uint256",
          "name": "newValue",
          "type": "uint256"
        }
      ],
      "name": "UpdateDevFee",
      "type": "event"
    },
    {
      "anonymous": false,
      "inputs": [
        {
          "indexed": false,
          "internalType": "uint256",
          "name": "oldValue",
          "type": "uint256"
        },
        {
          "indexed": false,
          "internalType": "uint256",
          "name": "newValue",
          "type": "uint256"
        }
      ],
      "name": "UpdateMaxTokensToDepositWithoutReinvest",
      "type": "event"
    },
    {
      "anonymous": false,
      "inputs": [
        {
          "indexed": false,
          "internalType": "uint256",
          "name": "oldValue",
          "type": "uint256"
        },
        {
          "indexed": false,
          "internalType": "uint256",
          "name": "newValue",
          "type": "uint256"
        }
      ],
      "name": "UpdateMinTokensToReinvest",
      "type": "event"
    },
    {
      "anonymous": false,
      "inputs": [
        {
          "indexed": false,
          "internalType": "uint256",
          "name": "oldValue",
          "type": "uint256"
        },
        {
          "indexed": false,
          "internalType": "uint256",
          "name": "newValue",
          "type": "uint256"
        }
      ],
      "name": "UpdateReinvestReward",
      "type": "event"
    },
    {
      "anonymous": false,
      "inputs": [
        {
          "indexed": true,
          "internalType": "address",
          "name": "account",
          "type": "address"
        },
        {
          "indexed": false,
          "internalType": "uint256",
          "name": "amount",
          "type": "uint256"
        }
      ],
      "name": "Withdraw",
      "type": "event"
    },
    {
      "inputs": [],
      "name": "ADMIN_FEE_BIPS",
      "outputs": [
        {
          "internalType": "uint256",
          "name": "",
          "type": "uint256"
        }
      ],
      "stateMutability": "view",
      "type": "function"
    },
    {
      "inputs": [],
      "name": "DEPOSITS_ENABLED",
      "outputs": [
        {
          "internalType": "bool",
          "name": "",
          "type": "bool"
        }
      ],
      "stateMutability": "view",
      "type": "function"
    },
    {
      "inputs": [],
      "name": "DEV_FEE_BIPS",
      "outputs": [
        {
          "internalType": "uint256",
          "name": "",
          "type": "uint256"
        }
      ],
      "stateMutability": "view",
      "type": "function"
    },
    {
      "inputs": [],
      "name": "DOMAIN_TYPEHASH",
      "outputs": [
        {
          "internalType": "bytes32",
          "name": "",
          "type": "bytes32"
        }
      ],
      "stateMutability": "view",
      "type": "function"
    },
    {
      "inputs": [],
      "name": "MAX_TOKENS_TO_DEPOSIT_WITHOUT_REINVEST",
      "outputs": [
        {
          "internalType": "uint256",
          "name": "",
          "type": "uint256"
        }
      ],
      "stateMutability": "view",
      "type": "function"
    },
    {
      "inputs": [],
      "name": "MIN_TOKENS_TO_REINVEST",
      "outputs": [
        {
          "internalType": "uint256",
          "name": "",
          "type": "uint256"
        }
      ],
      "stateMutability": "view",
      "type": "function"
    },
    {
      "inputs": [],
      "name": "PERMIT_TYPEHASH",
      "outputs": [
        {
          "internalType": "bytes32",
          "name": "",
          "type": "bytes32"
        }
      ],
      "stateMutability": "view",
      "type": "function"
    },
    {
      "inputs": [],
      "name": "PID",
      "outputs": [
        {
          "internalType": "uint256",
          "name": "",
          "type": "uint256"
        }
      ],
      "stateMutability": "view",
      "type": "function"
    },
    {
      "inputs": [],
      "name": "REINVEST_REWARD_BIPS",
      "outputs": [
        {
          "internalType": "uint256",
          "name": "",
          "type": "uint256"
        }
      ],
      "stateMutability": "view",
      "type": "function"
    },
    {
      "inputs": [],
      "name": "VERSION_HASH",
      "outputs": [
        {
          "internalType": "bytes32",
          "name": "",
          "type": "bytes32"
        }
      ],
      "stateMutability": "view",
      "type": "function"
    },
    {
      "inputs": [
        {
          "internalType": "address",
          "name": "_rewardToken",
          "type": "address"
        },
        {
          "internalType": "address",
          "name": "_swapPair",
          "type": "address"
        }
      ],
      "name": "addReward",
      "outputs": [],
      "stateMutability": "nonpayable",
      "type": "function"
    },
    {
      "inputs": [
        {
          "internalType": "address",
          "name": "depositor",
          "type": "address"
        }
      ],
      "name": "allowDepositor",
      "outputs": [],
      "stateMutability": "nonpayable",
      "type": "function"
    },
    {
      "inputs": [
        {
          "internalType": "address",
          "name": "account",
          "type": "address"
        },
        {
          "internalType": "address",
          "name": "spender",
          "type": "address"
        }
      ],
      "name": "allowance",
      "outputs": [
        {
          "internalType": "uint256",
          "name": "",
          "type": "uint256"
        }
      ],
      "stateMutability": "view",
      "type": "function"
    },
    {
      "inputs": [
        {
          "internalType": "address",
          "name": "",
          "type": "address"
        }
      ],
      "name": "allowedDepositors",
      "outputs": [
        {
          "internalType": "bool",
          "name": "",
          "type": "bool"
        }
      ],
      "stateMutability": "view",
      "type": "function"
    },
    {
      "inputs": [
        {
          "internalType": "address",
          "name": "spender",
          "type": "address"
        },
        {
          "internalType": "uint256",
          "name": "amount",
          "type": "uint256"
        }
      ],
      "name": "approve",
      "outputs": [
        {
          "internalType": "bool",
          "name": "",
          "type": "bool"
        }
      ],
      "stateMutability": "nonpayable",
      "type": "function"
    },
    {
      "inputs": [
        {
          "internalType": "address",
          "name": "account",
          "type": "address"
        }
      ],
      "name": "balanceOf",
      "outputs": [
        {
          "internalType": "uint256",
          "name": "",
          "type": "uint256"
        }
      ],
      "stateMutability": "view",
      "type": "function"
    },
    {
      "inputs": [
        {
          "internalType": "uint256",
          "name": "_amount",
          "type": "uint256"
        }
      ],
      "name": "calculateDepositFee",
      "outputs": [
        {
          "internalType": "uint256",
          "name": "",
          "type": "uint256"
        }
      ],
      "stateMutability": "view",
      "type": "function"
    },
    {
      "inputs": [
        {
          "internalType": "uint256",
          "name": "_amount",
          "type": "uint256"
        }
      ],
      "name": "calculateWithdrawFee",
      "outputs": [
        {
          "internalType": "uint256",
          "name": "",
          "type": "uint256"
        }
      ],
      "stateMutability": "view",
      "type": "function"
    },
    {
      "inputs": [],
      "name": "checkReward",
      "outputs": [
        {
          "internalType": "uint256",
          "name": "",
          "type": "uint256"
        }
      ],
      "stateMutability": "view",
      "type": "function"
    },
    {
      "inputs": [],
      "name": "decimals",
      "outputs": [
        {
          "internalType": "uint8",
          "name": "",
          "type": "uint8"
        }
      ],
      "stateMutability": "view",
      "type": "function"
    },
    {
      "inputs": [
        {
          "internalType": "uint256",
          "name": "_amount",
          "type": "uint256"
        }
      ],
      "name": "deposit",
      "outputs": [],
      "stateMutability": "nonpayable",
      "type": "function"
    },
    {
      "inputs": [
        {
          "internalType": "address",
          "name": "_account",
          "type": "address"
        },
        {
          "internalType": "uint256",
          "name": "_amount",
          "type": "uint256"
        }
      ],
      "name": "depositFor",
      "outputs": [],
      "stateMutability": "nonpayable",
      "type": "function"
    },
    {
      "inputs": [],
      "name": "depositToken",
      "outputs": [
        {
          "internalType": "contract IERC20",
          "name": "",
          "type": "address"
        }
      ],
      "stateMutability": "view",
      "type": "function"
    },
    {
      "inputs": [
        {
          "internalType": "uint256",
          "name": "_amount",
          "type": "uint256"
        },
        {
          "internalType": "uint256",
          "name": "_deadline",
          "type": "uint256"
        },
        {
          "internalType": "uint8",
          "name": "_v",
          "type": "uint8"
        },
        {
          "internalType": "bytes32",
          "name": "_r",
          "type": "bytes32"
        },
        {
          "internalType": "bytes32",
          "name": "_s",
          "type": "bytes32"
        }
      ],
      "name": "depositWithPermit",
      "outputs": [],
      "stateMutability": "nonpayable",
      "type": "function"
    },
    {
      "inputs": [],
      "name": "devAddr",
      "outputs": [
        {
          "internalType": "address",
          "name": "",
          "type": "address"
        }
      ],
      "stateMutability": "view",
      "type": "function"
    },
    {
      "inputs": [],
      "name": "estimateDeployedBalance",
      "outputs": [
        {
          "internalType": "uint256",
          "name": "",
          "type": "uint256"
        }
      ],
      "stateMutability": "view",
      "type": "function"
    },
    {
      "inputs": [],
      "name": "estimateReinvestReward",
      "outputs": [
        {
          "internalType": "uint256",
          "name": "",
          "type": "uint256"
        }
      ],
      "stateMutability": "view",
      "type": "function"
    },
    {
      "inputs": [
        {
          "internalType": "uint256",
          "name": "amount",
          "type": "uint256"
        }
      ],
      "name": "getDepositTokensForShares",
      "outputs": [
        {
          "internalType": "uint256",
          "name": "",
          "type": "uint256"
        }
      ],
      "stateMutability": "view",
      "type": "function"
    },
    {
      "inputs": [],
      "name": "getDomainSeparator",
      "outputs": [
        {
          "internalType": "bytes32",
          "name": "",
          "type": "bytes32"
        }
      ],
      "stateMutability": "view",
      "type": "function"
    },
    {
      "inputs": [
        {
          "internalType": "uint256",
          "name": "amount",
          "type": "uint256"
        }
      ],
      "name": "getSharesForDepositTokens",
      "outputs": [
        {
          "internalType": "uint256",
          "name": "",
          "type": "uint256"
        }
      ],
      "stateMutability": "view",
      "type": "function"
    },
    {
      "inputs": [],
      "name": "name",
      "outputs": [
        {
          "internalType": "string",
          "name": "",
          "type": "string"
        }
      ],
      "stateMutability": "view",
      "type": "function"
    },
    {
      "inputs": [
        {
          "internalType": "address",
          "name": "",
          "type": "address"
        }
      ],
      "name": "nonces",
      "outputs": [
        {
          "internalType": "uint256",
          "name": "",
          "type": "uint256"
        }
      ],
      "stateMutability": "view",
      "type": "function"
    },
    {
      "inputs": [],
      "name": "numberOfAllowedDepositors",
      "outputs": [
        {
          "internalType": "uint256",
          "name": "",
          "type": "uint256"
        }
      ],
      "stateMutability": "view",
      "type": "function"
    },
    {
      "inputs": [],
      "name": "owner",
      "outputs": [
        {
          "internalType": "address",
          "name": "",
          "type": "address"
        }
      ],
      "stateMutability": "view",
      "type": "function"
    },
    {
      "inputs": [
        {
          "internalType": "address",
          "name": "owner",
          "type": "address"
        },
        {
          "internalType": "address",
          "name": "spender",
          "type": "address"
        },
        {
          "internalType": "uint256",
          "name": "value",
          "type": "uint256"
        },
        {
          "internalType": "uint256",
          "name": "deadline",
          "type": "uint256"
        },
        {
          "internalType": "uint8",
          "name": "v",
          "type": "uint8"
        },
        {
          "internalType": "bytes32",
          "name": "r",
          "type": "bytes32"
        },
        {
          "internalType": "bytes32",
          "name": "s",
          "type": "bytes32"
        }
      ],
      "name": "permit",
      "outputs": [],
      "stateMutability": "nonpayable",
      "type": "function"
    },
    {
      "inputs": [],
      "name": "proxy",
      "outputs": [
        {
          "internalType": "contract IEchidnaVoterProxy",
          "name": "",
          "type": "address"
        }
      ],
      "stateMutability": "view",
      "type": "function"
    },
    {
      "inputs": [
        {
          "internalType": "uint256",
          "name": "amount",
          "type": "uint256"
        }
      ],
      "name": "recoverAVAX",
      "outputs": [],
      "stateMutability": "nonpayable",
      "type": "function"
    },
    {
      "inputs": [
        {
          "internalType": "address",
          "name": "tokenAddress",
          "type": "address"
        },
        {
          "internalType": "uint256",
          "name": "tokenAmount",
          "type": "uint256"
        }
      ],
      "name": "recoverERC20",
      "outputs": [],
      "stateMutability": "nonpayable",
      "type": "function"
    },
    {
      "inputs": [],
      "name": "reinvest",
      "outputs": [],
      "stateMutability": "nonpayable",
      "type": "function"
    },
    {
      "inputs": [
        {
          "internalType": "address",
          "name": "depositor",
          "type": "address"
        }
      ],
      "name": "removeDepositor",
      "outputs": [],
      "stateMutability": "nonpayable",
      "type": "function"
    },
    {
      "inputs": [
        {
          "internalType": "address",
          "name": "_rewardToken",
          "type": "address"
        }
      ],
      "name": "removeReward",
      "outputs": [],
      "stateMutability": "nonpayable",
      "type": "function"
    },
    {
      "inputs": [],
      "name": "renounceOwnership",
      "outputs": [],
      "stateMutability": "nonpayable",
      "type": "function"
    },
    {
      "inputs": [
        {
          "internalType": "uint256",
          "name": "_minReturnAmountAccepted",
          "type": "uint256"
        },
        {
          "internalType": "bool",
          "name": "",
          "type": "bool"
        }
      ],
      "name": "rescueDeployedFunds",
      "outputs": [],
      "stateMutability": "nonpayable",
      "type": "function"
    },
    {
      "inputs": [
        {
          "internalType": "address",
          "name": "token",
          "type": "address"
        },
        {
          "internalType": "address",
          "name": "spender",
          "type": "address"
        }
      ],
      "name": "revokeAllowance",
      "outputs": [],
      "stateMutability": "nonpayable",
      "type": "function"
    },
    {
      "inputs": [],
      "name": "rewardCount",
      "outputs": [
        {
          "internalType": "uint256",
          "name": "",
          "type": "uint256"
        }
      ],
      "stateMutability": "view",
      "type": "function"
    },
    {
      "inputs": [
        {
          "internalType": "address",
          "name": "",
          "type": "address"
        }
      ],
      "name": "rewardSwapPairs",
      "outputs": [
        {
          "internalType": "address",
          "name": "",
          "type": "address"
        }
      ],
      "stateMutability": "view",
      "type": "function"
    },
    {
      "inputs": [],
      "name": "rewardToken",
      "outputs": [
        {
          "internalType": "contract IERC20",
          "name": "",
          "type": "address"
        }
      ],
      "stateMutability": "view",
      "type": "function"
    },
    {
      "inputs": [],
      "name": "stakingContract",
      "outputs": [
        {
          "internalType": "address",
          "name": "",
          "type": "address"
        }
      ],
      "stateMutability": "view",
      "type": "function"
    },
    {
      "inputs": [
        {
          "internalType": "uint256",
          "name": "",
          "type": "uint256"
        }
      ],
      "name": "supportedRewards",
      "outputs": [
        {
          "internalType": "address",
          "name": "",
          "type": "address"
        }
      ],
      "stateMutability": "view",
      "type": "function"
    },
    {
      "inputs": [],
      "name": "swapPairWavaxPtp",
      "outputs": [
        {
          "internalType": "address",
          "name": "",
          "type": "address"
        }
      ],
      "stateMutability": "view",
      "type": "function"
    },
    {
      "inputs": [],
      "name": "symbol",
      "outputs": [
        {
          "internalType": "string",
          "name": "",
          "type": "string"
        }
      ],
      "stateMutability": "view",
      "type": "function"
    },
    {
      "inputs": [],
      "name": "totalDeposits",
      "outputs": [
        {
          "internalType": "uint256",
          "name": "",
          "type": "uint256"
        }
      ],
      "stateMutability": "view",
      "type": "function"
    },
    {
      "inputs": [],
      "name": "totalSupply",
      "outputs": [
        {
          "internalType": "uint256",
          "name": "",
          "type": "uint256"
        }
      ],
      "stateMutability": "view",
      "type": "function"
    },
    {
      "inputs": [
        {
          "internalType": "address",
          "name": "dst",
          "type": "address"
        },
        {
          "internalType": "uint256",
          "name": "amount",
          "type": "uint256"
        }
      ],
      "name": "transfer",
      "outputs": [
        {
          "internalType": "bool",
          "name": "",
          "type": "bool"
        }
      ],
      "stateMutability": "nonpayable",
      "type": "function"
    },
    {
      "inputs": [
        {
          "internalType": "address",
          "name": "src",
          "type": "address"
        },
        {
          "internalType": "address",
          "name": "dst",
          "type": "address"
        },
        {
          "internalType": "uint256",
          "name": "amount",
          "type": "uint256"
        }
      ],
      "name": "transferFrom",
      "outputs": [
        {
          "internalType": "bool",
          "name": "",
          "type": "bool"
        }
      ],
      "stateMutability": "nonpayable",
      "type": "function"
    },
    {
      "inputs": [
        {
          "internalType": "address",
          "name": "newOwner",
          "type": "address"
        }
      ],
      "name": "transferOwnership",
      "outputs": [],
      "stateMutability": "nonpayable",
      "type": "function"
    },
    {
      "inputs": [
        {
          "internalType": "uint256",
          "name": "newValue",
          "type": "uint256"
        }
      ],
      "name": "updateAdminFee",
      "outputs": [],
      "stateMutability": "nonpayable",
      "type": "function"
    },
    {
      "inputs": [
        {
          "internalType": "bool",
          "name": "newValue",
          "type": "bool"
        }
      ],
      "name": "updateDepositsEnabled",
      "outputs": [],
      "stateMutability": "nonpayable",
      "type": "function"
    },
    {
      "inputs": [
        {
          "internalType": "address",
          "name": "newValue",
          "type": "address"
        }
      ],
      "name": "updateDevAddr",
      "outputs": [],
      "stateMutability": "nonpayable",
      "type": "function"
    },
    {
      "inputs": [
        {
          "internalType": "uint256",
          "name": "newValue",
          "type": "uint256"
        }
      ],
      "name": "updateDevFee",
      "outputs": [],
      "stateMutability": "nonpayable",
      "type": "function"
    },
    {
      "inputs": [
        {
          "internalType": "uint256",
          "name": "newValue",
          "type": "uint256"
        }
      ],
      "name": "updateMaxTokensToDepositWithoutReinvest",
      "outputs": [],
      "stateMutability": "nonpayable",
      "type": "function"
    },
    {
      "inputs": [
        {
          "internalType": "uint256",
          "name": "newValue",
          "type": "uint256"
        }
      ],
      "name": "updateMinTokensToReinvest",
      "outputs": [],
      "stateMutability": "nonpayable",
      "type": "function"
    },
    {
      "inputs": [
        {
          "internalType": "uint256",
          "name": "newValue",
          "type": "uint256"
        }
      ],
      "name": "updateReinvestReward",
      "outputs": [],
      "stateMutability": "nonpayable",
      "type": "function"
    },
    {
      "inputs": [
        {
          "internalType": "uint256",
          "name": "_amount",
          "type": "uint256"
        }
      ],
      "name": "withdraw",
      "outputs": [],
      "stateMutability": "nonpayable",
      "type": "function"
    }
  ],
  "bytecode": {
    "object": "0x60e0604052600960a0819052685969656c642059616b60b81b60c09081526200002c9160009190620009f4565b506040805180820190915260038082526216549560ea1b60209092019182526200005991600191620009f4565b503480156200006757600080fd5b50604051620052fc380380620052fc8339810160408190526200008a9162000c4b565b888887848480600033600680546001600160a01b0319166001600160a01b03831690811790915560405191925090600090600080516020620052dc833981519152908290a3508051620000dd906200028c565b6020810151620000ed906200031c565b6040810151620000fd90620003d3565b50845162000113906000906020880190620009f4565b50600980546001600160a01b0386166001600160a01b031991821617909155600a8054821673b31f66aa3c1e785363f0875a1b74e27b85fd66c7179055600b8054909116732d580f9cf2fb2d09bc411532988f2afda4e7beff17905560005b8351811015620001e357620001ce84828151811062000195576200019562000dab565b602002602001015160000151858381518110620001b657620001b662000dab565b6020026020010151602001516200048a60201b60201c565b80620001da8162000dd7565b91505062000172565b50620001f0600162000613565b620001fb82620006bd565b60408051600080825260208201527fc7606d21ac05cd309191543e409f0845c016120563783d70e4f41419dc0ef234910160405180910390a15050601580546001600160a01b03199081166001600160a01b039a8b161790915560809790975250506016805486169487169490941790935550506017805490921694909216939093179092555062000e6892505050565b6006546001600160a01b03163314620002db5760405162461bcd60e51b81526020600482018190526024820152600080516020620052bc83398151915260448201526064015b60405180910390fd5b600c5460408051918252602082018390527f481f79ac3a523b6d6db3c5a720e190e986d1cc1b41adcdf50f9caef849901100910160405180910390a1600c55565b6006546001600160a01b03163314620003675760405162461bcd60e51b81526020600482018190526024820152600080516020620052bc8339815191526044820152606401620002d2565b6127106200038660105483620007ba60201b620020151790919060201c565b11156200039257600080fd5b60115460408051918252602082018390527f2a42303d002f0ba6cfe8259c91d4684443fb0b3de286ba74991175d651726131910160405180910390a1601155565b6006546001600160a01b031633146200041e5760405162461bcd60e51b81526020600482018190526024820152600080516020620052bc8339815191526044820152606401620002d2565b6127106200043d60115483620007ba60201b620020151790919060201c565b11156200044957600080fd5b60105460408051918252602082018390527fe7f97d51d307dc44045597c9978bec0f842e6bb40d19b9444084cfa30d9ed4f2910160405180910390a1601055565b600a546001600160a01b038381169116146200054357620004cd8183600a60009054906101000a90046001600160a01b0316620007cf60201b620020211760201c565b62000543576040805162461bcd60e51b81526020600482015260248101919091527f5661726961626c655265776172647353747261746567793a3a5377617020706160448201527f697220646f6573206e6f7420636f6e7461696e2072657761726420746f6b656e6064820152608401620002d2565b6001600160a01b038083166000818152601260209081526040822080549486166001600160a01b03199586161790556013805460018181018355919093527f66de8ffda797e3de9c05e8fc57b3bf0ec28a930d40b0d285d93c06501cf6a0909092018054909416909217909255601454620005c992909162002015620007ba821b17901c565b601455604080516001600160a01b038085168252831660208201527f916e172c080569186aa7ea048268267257cf7cc49505908863f747bca8620f80910160405180910390a15050565b6006546001600160a01b031633146200065e5760405162461bcd60e51b81526020600482018190526024820152600080516020620052bc8339815191526044820152606401620002d2565b600e5481151560ff9091161515036200067657600080fd5b600e805460ff19168215159081179091556040519081527f7b014ed3854e7f5cb0218d58b3c6ae7d53a68bb0af2f67bfb029ea42c38a7e859060200160405180910390a150565b6006546001600160a01b03163314620007085760405162461bcd60e51b81526020600482018190526024820152600080516020620052bc8339815191526044820152606401620002d2565b6001600160a01b0381166200076f5760405162461bcd60e51b815260206004820152602660248201527f4f776e61626c653a206e6577206f776e657220697320746865207a65726f206160448201526564647265737360d01b6064820152608401620002d2565b6006546040516001600160a01b03808416921690600080516020620052dc83398151915290600090a3600680546001600160a01b0319166001600160a01b0392909216919091179055565b6000620007c8828462000df3565b9392505050565b6000836001600160a01b0316630dfe16816040518163ffffffff1660e01b8152600401602060405180830381865afa15801562000810573d6000803e3d6000fd5b505050506040513d601f19601f8201168201806040525081019062000836919062000e0e565b6001600160a01b0316836001600160a01b03161480620008cb5750836001600160a01b031663d21220a76040518163ffffffff1660e01b8152600401602060405180830381865afa15801562000890573d6000803e3d6000fd5b505050506040513d601f19601f82011682018060405250810190620008b6919062000e0e565b6001600160a01b0316836001600160a01b0316145b8015620009cd5750836001600160a01b0316630dfe16816040518163ffffffff1660e01b8152600401602060405180830381865afa15801562000912573d6000803e3d6000fd5b505050506040513d601f19601f8201168201806040525081019062000938919062000e0e565b6001600160a01b0316826001600160a01b03161480620009cd5750836001600160a01b031663d21220a76040518163ffffffff1660e01b8152600401602060405180830381865afa15801562000992573d6000803e3d6000fd5b505050506040513d601f19601f82011682018060405250810190620009b8919062000e0e565b6001600160a01b0316826001600160a01b0316145b8015620009ec5750816001600160a01b0316836001600160a01b031614155b949350505050565b82805462000a029062000e2c565b90600052602060002090601f01602090048101928262000a26576000855562000a71565b82601f1062000a4157805160ff191683800117855562000a71565b8280016001018555821562000a71579182015b8281111562000a7157825182559160200191906001019062000a54565b5062000a7f92915062000a83565b5090565b5b8082111562000a7f576000815560010162000a84565b634e487b7160e01b600052604160045260246000fd5b604080519081016001600160401b038111828210171562000ad55762000ad562000a9a565b60405290565b604051601f8201601f191681016001600160401b038111828210171562000b065762000b0662000a9a565b604052919050565b80516001600160a01b038116811462000b2657600080fd5b919050565b600082601f83011262000b3d57600080fd5b815160206001600160401b0382111562000b5b5762000b5b62000a9a565b62000b6b818360051b0162000adb565b82815260069290921b8401810191818101908684111562000b8b57600080fd5b8286015b8481101562000be1576040818903121562000baa5760008081fd5b62000bb462000ab0565b62000bbf8262000b0e565b815262000bce85830162000b0e565b8186015283529183019160400162000b8f565b509695505050505050565b60006060828403121562000bff57600080fd5b604051606081016001600160401b038111828210171562000c245762000c2462000a9a565b80604052508091508251815260208301516020820152604083015160408201525092915050565b60008060008060008060008060006101608a8c03121562000c6b57600080fd5b89516001600160401b038082111562000c8357600080fd5b818c0191508c601f83011262000c9857600080fd5b81518181111562000cad5762000cad62000a9a565b602062000cc3601f8301601f1916820162000adb565b8281528f8284870101111562000cd857600080fd5b60005b8381101562000cf857858101830151828201840152820162000cdb565b8381111562000d0a5760008385840101525b509c5062000d1a8e820162000b0e565b9b50505062000d2c60408d0162000b0e565b985060608c015191508082111562000d4357600080fd5b5062000d528c828d0162000b2b565b96505062000d6360808b0162000b0e565b945060a08a0151935062000d7a60c08b0162000b0e565b925062000d8a60e08b0162000b0e565b915062000d9c8b6101008c0162000bec565b90509295985092959850929598565b634e487b7160e01b600052603260045260246000fd5b634e487b7160e01b600052601160045260246000fd5b60006001820162000dec5762000dec62000dc1565b5060010190565b6000821982111562000e095762000e0962000dc1565b500190565b60006020828403121562000e2157600080fd5b620007c88262000b0e565b600181811c9082168062000e4157607f821691505b60208210810362000e6257634e487b7160e01b600052602260045260246000fd5b50919050565b60805161440062000ebc6000396000818161058d01528181610fdb015281816124da0152818161258f01528181612afd01528181612c03015281816132ea015281816135f201526136a201526144006000f3fe608060405234801561001057600080fd5b50600436106103d05760003560e01c80638b73e606116101ff578063c4b24a461161011a578063e75ab045116100ad578063ee99205c1161007c578063ee99205c14610896578063f2fde38b146108a9578063f7c618c1146108bc578063fdb5a03e146108cf57600080fd5b8063e75ab04514610855578063eab89a5a14610868578063ec5568891461087b578063ed24911d1461088e57600080fd5b8063da09c72c116100e9578063da09c72c146107e3578063dd62ed3e146107f6578063dd8ce4d61461082f578063e21ac8251461084257600080fd5b8063c4b24a46146107a2578063c89039c5146107aa578063cff1b6ef146107bd578063d505accf146107d057600080fd5b8063a8ae2b7c11610192578063b6b55f2511610161578063b6b55f251461076b578063b9e57b801461077e578063bace8bb614610786578063bd079f551461079957600080fd5b8063a8ae2b7c14610725578063a9059cbb14610738578063ac0d31ff1461074b578063b52a321f1461075e57600080fd5b806399729ec1116101ce57806399729ec1146106af5780639e4e7318146106c2578063a4d5e67c146106e9578063a5534e71146106fc57600080fd5b80638b73e6061461065c5780638da5cb5b1461066f5780639291d5631461069457806395d89b41146106a757600080fd5b80634a970be7116102ef578063789139bc116102825780637ecebe00116102515780637ecebe001461060d578063818372301461062d5780638980f11f146106405780638aff733d1461065357600080fd5b8063789139bc146105e057806379085425146105e95780637ae26773146105f25780637d8820971461060557600080fd5b80635ea682ea116102be5780635ea682ea1461057f5780635eaec0e41461058857806370a08231146105af578063715018a6146105d857600080fd5b80634a970be7146105335780634bebd1e7146105465780634e77ace5146105595780634ebb79161461056c57600080fd5b8063247d284b11610367578063313ce56711610336578063313ce567146104da5780633bdc6e72146104f457806340b47e1a146104fd578063483c2ef01461051057600080fd5b8063247d284b146104355780632e1a7d4d1461048b5780632f4f21e2146104a057806330adf81f146104b357600080fd5b806311056035116103a3578063110560351461043557806318160ddd1461044857806320606b701461045157806323b872dd1461047857600080fd5b806306fdde03146103d557806307677111146103f3578063095ea7b31461040a5780630f23475d1461042d575b600080fd5b6103dd6108d7565b6040516103ea9190613db3565b60405180910390f35b6103fc600f5481565b6040519081526020016103ea565b61041d610418366004613ddb565b610965565b60405190151581526020016103ea565b6103fc61097b565b6103fc610443366004613e07565b6109a6565b6103fc60025481565b6103fc7f8b73c3c69bb8fe3d512ecc4cf759cc79239f7b179b0ffacaa9a75d522b39400f81565b61041d610486366004613e20565b6109b7565b61049e610499366004613e07565b610a9b565b005b61049e6104ae366004613ddb565b610b96565b6103fc7f6e71edae12b1b97f4d1f60370fef10105fa2faae0126114a169c64845d6126c981565b6104e2601281565b60405160ff90911681526020016103ea565b6103fc60075481565b61049e61050b366004613e61565b610ba4565b61041d61051e366004613e9a565b60086020526000908152604090205460ff1681565b61049e610541366004613ecd565b610bd8565b61049e610554366004613e9a565b610c71565b61049e610567366004613f22565b610d70565b61049e61057a366004613e07565b610df9565b6103fc60115481565b6103fc7f000000000000000000000000000000000000000000000000000000000000000081565b6103fc6105bd366004613e9a565b6001600160a01b031660009081526004602052604090205490565b61049e610e90565b6103fc600d5481565b6103fc60145481565b61049e610600366004613e61565b610f04565b6103fc610fa9565b6103fc61061b366004613e9a565b60056020526000908152604090205481565b61049e61063b366004613e07565b611049565b61049e61064e366004613ddb565b6110b4565b6103fc60105481565b61049e61066a366004613e9a565b6111a2565b6006546001600160a01b03165b6040516001600160a01b0390911681526020016103ea565b61049e6106a2366004613e9a565b611323565b6103dd6113b6565b61049e6106bd366004613e07565b6113c3565b6103fc7fc89efdaa54c0f20c7adf612882df0950f5a951637e0307cdcb4c672f298b8bc681565b61049e6106f7366004613e9a565b611451565b61067c61070a366004613e9a565b6012602052600090815260409020546001600160a01b031681565b61049e610733366004613e07565b611657565b61041d610746366004613ddb565b6116e5565b61049e610759366004613f3f565b6116f2565b600e5461041d9060ff1681565b61049e610779366004613e07565b6118fa565b6103fc611907565b60175461067c906001600160a01b031681565b6103fc600c5481565b6103fc61194c565b60095461067c906001600160a01b031681565b61049e6107cb366004613e07565b611bba565b61049e6107de366004613f64565b611c30565b600b5461067c906001600160a01b031681565b6103fc610804366004613e61565b6001600160a01b03918216600090815260036020908152604080832093909416825291909152205490565b6103fc61083d366004613e07565b611d35565b61049e610850366004613e07565b611d6f565b61067c610863366004613e07565b611dda565b6103fc610876366004613e07565b611e04565b60165461067c906001600160a01b031681565b6103fc611e38565b60155461067c906001600160a01b031681565b61049e6108b7366004613e9a565b611ed8565b600a5461067c906001600160a01b031681565b61049e611fc3565b600080546108e490613fd2565b80601f016020809104026020016040519081016040528092919081815260200182805461091090613fd2565b801561095d5780601f106109325761010080835404028352916020019161095d565b820191906000526020600020905b81548152906001019060200180831161094057829003601f168201915b505050505081565b6000610972338484612236565b50600192915050565b600080610986610fa9565b9050600061099382612344565b905061099f8282612357565b9250505090565b60006109b182612344565b92915050565b6001600160a01b0383166000818152600360209081526040808320338085529252822054919290919082148015906109f157506000198114155b15610a82576000610a1d856040518060600160405280602f8152602001614347602f9139849190612363565b6001600160a01b038881166000818152600360209081526040808320948916808452948252918290208590559051848152939450919290917f8c5be1e5ebec7d5bd14f71427d1e84f3dd0314c0f7b2291e5b200ac8c7c3b925910160405180910390a3505b610a8d86868661238f565b6001925050505b9392505050565b6000610aa682611e04565b905060008111610b165760405162461bcd60e51b815260206004820152603060248201527f5661726961626c655265776172647353747261746567793a3a5769746864726160448201526f7720616d6f756e7420746f6f206c6f7760801b60648201526084015b60405180910390fd5b6000610b21826124c2565b90506000610b2e83612344565b9050610b5133610b3e8484612357565b6009546001600160a01b031691906125ef565b610b5b338561264a565b60405183815233907f884edad9ce6fa2440d8a54cc123490eb96d2768479d49ff9c7366125a94243649060200160405180910390a250505050565b610ba08282612720565b5050565b600b546001600160a01b03163314610bce5760405162461bcd60e51b8152600401610b0d9061400c565b610ba0828261290e565b60095460405163d505accf60e01b8152336004820152306024820152604481018790526064810186905260ff8516608482015260a4810184905260c481018390526001600160a01b039091169063d505accf9060e401600060405180830381600087803b158015610c4857600080fd5b505af1158015610c5c573d6000803e3d6000fd5b50505050610c6a3386612720565b5050505050565b6006546001600160a01b03163314610c9b5760405162461bcd60e51b8152600401610b0d9061403a565b6001600160a01b03811660009081526008602052604090205460ff1615610d045760405162461bcd60e51b815260206004820152601c60248201527f5065726d697373696f6e65643a3a616c6c6f774465706f7369746f72000000006044820152606401610b0d565b6001600160a01b0381166000908152600860205260409020805460ff19166001908117909155600754610d3691612015565b6007556040516001600160a01b038216907fc0a1035c16faf8d1304056d92c00edf028f87e62b8235a938f00af9e3c0312c590600090a250565b6006546001600160a01b03163314610d9a5760405162461bcd60e51b8152600401610b0d9061403a565b600e5481151560ff909116151503610db157600080fd5b600e805460ff19168215159081179091556040519081527f7b014ed3854e7f5cb0218d58b3c6ae7d53a68bb0af2f67bfb029ea42c38a7e85906020015b60405180910390a150565b6006546001600160a01b03163314610e235760405162461bcd60e51b8152600401610b0d9061403a565b60008111610e3057600080fd5b604051339082156108fc029083906000818181858888f19350505050158015610e5d573d6000803e3d6000fd5b507f8c1256b8896378cd5044f80c202f9772b9d77dc85c8a6eb51967210b09bfaa28600082604051610dee92919061406f565b6006546001600160a01b03163314610eba5760405162461bcd60e51b8152600401610b0d9061403a565b6006546040516000916001600160a01b0316907f8be0079c531659141344cd1fd0a4f28419497f9722a3daafe3b4186f6b6457e0908390a3600680546001600160a01b0319169055565b6006546001600160a01b03163314610f2e5760405162461bcd60e51b8152600401610b0d9061403a565b60405163095ea7b360e01b81526001600160a01b0383169063095ea7b390610f5d90849060009060040161406f565b6020604051808303816000875af1158015610f7c573d6000803e3d6000fd5b505050506040513d601f19601f82011682018060405250810190610fa09190614088565b610ba057600080fd5b6016546015546040516301e1c48d60e01b81526000926001600160a01b03908116926301e1c48d9261100392909116907f00000000000000000000000000000000000000000000000000000000000000009060040161406f565b602060405180830381865afa158015611020573d6000803e3d6000fd5b505050506040513d601f19601f8201168201806040525081019061104491906140a5565b905090565b6006546001600160a01b031633146110735760405162461bcd60e51b8152600401610b0d9061403a565b600c5460408051918252602082018390527f481f79ac3a523b6d6db3c5a720e190e986d1cc1b41adcdf50f9caef849901100910160405180910390a1600c55565b6006546001600160a01b031633146110de5760405162461bcd60e51b8152600401610b0d9061403a565b600081116110eb57600080fd5b60405163a9059cbb60e01b81526001600160a01b0383169063a9059cbb90611119903390859060040161406f565b6020604051808303816000875af1158015611138573d6000803e3d6000fd5b505050506040513d601f19601f8201168201806040525081019061115c9190614088565b61116557600080fd5b7f8c1256b8896378cd5044f80c202f9772b9d77dc85c8a6eb51967210b09bfaa28828260405161119692919061406f565b60405180910390a15050565b6006546001600160a01b031633146111cc5760405162461bcd60e51b8152600401610b0d9061403a565b60006007541161123b5760405162461bcd60e51b815260206004820152603460248201527f5065726d697373696f6e65643a3a72656d6f76654465706f7369746f722c206e6044820152736f20616c6c6f776564206465706f7369746f727360601b6064820152608401610b0d565b6001600160a01b03811660009081526008602052604090205460ff1615156001146112bb5760405162461bcd60e51b815260206004820152602a60248201527f5065726d697373696f6e65643a3a72656d6f76654465706f7369746f722c206e6044820152691bdd08185b1b1bddd95960b21b6064820152608401610b0d565b6001600160a01b0381166000908152600860205260409020805460ff191690556007546112e9906001612357565b6007556040516001600160a01b038216907f0e86f6608b536e5339a25b65ff531f5ea91e1313d056ecd4752b35cbd16137d490600090a250565b600b546001600160a01b0316331461134d5760405162461bcd60e51b8152600401610b0d9061400c565b600b54604080516001600160a01b03928316815291831660208301527fa8e91499ed37682f43cffb045fcc7d379a91e8c9a14e6321877ee34dee564c00910160405180910390a1600b80546001600160a01b0319166001600160a01b0392909216919091179055565b600180546108e490613fd2565b6006546001600160a01b031633146113ed5760405162461bcd60e51b8152600401610b0d9061403a565b6127106114056010548361201590919063ffffffff16565b111561141057600080fd5b60115460408051918252602082018390527f2a42303d002f0ba6cfe8259c91d4684443fb0b3de286ba74991175d651726131910160405180910390a1601155565b600b546001600160a01b0316331461147b5760405162461bcd60e51b8152600401610b0d9061400c565b6001600160a01b038116600090815260126020526040812080546001600160a01b0319169055805b60135481101561156f57601381815481106114c0576114c06140be565b6000918252602090912001546001600160a01b039081169084160361155d5760138054600193506114f29084906140ea565b81548110611502576115026140be565b600091825260209091200154601380546001600160a01b03909216918390811061152e5761152e6140be565b9060005260206000200160006101000a8154816001600160a01b0302191690836001600160a01b031602179055505b8061156781614101565b9150506114a3565b50806115da5760405162461bcd60e51b815260206004820152603460248201527f5661726961626c655265776172647353747261746567793a3a52657761726420604482015273746f2064656c657465206e6f7420666f756e642160601b6064820152608401610b0d565b60138054806115eb576115eb61411a565b600082815260209020810160001990810180546001600160a01b031916905501905560145461161b906001612357565b6014556040516001600160a01b03831681527f963b7c735475147a62c589c2d7cb8ec4b0a6b7af4f97373d79ebfa42ab8aa7dc90602001611196565b6006546001600160a01b031633146116815760405162461bcd60e51b8152600401610b0d9061403a565b6127106116996011548361201590919063ffffffff16565b11156116a457600080fd5b60105460408051918252602082018390527fe7f97d51d307dc44045597c9978bec0f842e6bb40d19b9444084cfa30d9ed4f2910160405180910390a1601055565b600061097233848461238f565b6006546001600160a01b0316331461171c5760405162461bcd60e51b8152600401610b0d9061403a565b6009546040516370a0823160e01b81523060048201526000916001600160a01b0316906370a0823190602401602060405180830381865afa158015611765573d6000803e3d6000fd5b505050506040513d601f19601f8201168201806040525081019061178991906140a5565b9050611793612a6a565b6009546040516370a0823160e01b81523060048201526000916001600160a01b0316906370a0823190602401602060405180830381865afa1580156117dc573d6000803e3d6000fd5b505050506040513d601f19601f8201168201806040525081019061180091906140a5565b90508361180d8284612357565b10156118975760405162461bcd60e51b815260206004820152604d60248201527f5661726961626c655265776172647353747261746567793a3a456d657267656e60448201527f6379207769746864726177206d696e696d756d2072657475726e20616d6f756e60648201526c1d081b9bdd081c995858da1959609a1b608482015260a401610b0d565b7fc7606d21ac05cd309191543e409f0845c016120563783d70e4f41419dc0ef2346118c0610fa9565b6002546040805192835260208301919091520160405180910390a1600e5460ff1615156001036118f4576118f46000610d70565b50505050565b6119043382612720565b50565b60008061191261194c565b9050600c5481106119445761193e61271061193860105484612b7490919063ffffffff16565b90612b80565b91505090565b600091505090565b600080611957612b8c565b6040516370a0823160e01b815230600482015290915060009073b31f66aa3c1e785363f0875a1b74e27b85fd66c7906370a0823190602401602060405180830381865afa1580156119ac573d6000803e3d6000fd5b505050506040513d601f19601f820116820180604052508101906119d091906140a5565b90506119dc8147612015565b5060005b8251811015611bb35760008382815181106119fd576119fd6140be565b602002602001015160000151905073b31f66aa3c1e785363f0875a1b74e27b85fd66c76001600160a01b0316816001600160a01b031603611a6f57611a68848381518110611a4d57611a4d6140be565b6020026020010151602001518461201590919063ffffffff16565b9250611ba0565b6040516370a0823160e01b81523060048201526000906001600160a01b038316906370a0823190602401602060405180830381865afa158015611ab6573d6000803e3d6000fd5b505050506040513d601f19601f82011682018060405250810190611ada91906140a5565b90506000611b0e868581518110611af357611af36140be565b6020026020010151602001518361201590919063ffffffff16565b9050600060126000888781518110611b2857611b286140be565b602090810291909101810151516001600160a01b03908116835290820192909252604001600020541690508115801590611b6a57506001600160a01b03811615155b15611b9c57611b99611b92838673b31f66aa3c1e785363f0875a1b74e27b85fd66c785612d18565b8790612015565b95505b5050505b5080611bab81614101565b9150506119e0565b5092915050565b6006546001600160a01b03163314611be45760405162461bcd60e51b8152600401610b0d9061403a565b8015611bef57600080fd5b600f5460408051918252602082018390527f3cc372f330f95ac9540626dc8a25f5bf21ba607215a5d58304cb804d446f104a910160405180910390a1600f55565b42841015611c725760405162461bcd60e51b815260206004820152600f60248201526e1c195c9b5a5d0e8e995e1c1a5c9959608a1b6044820152606401610b0d565b6001600160a01b038716600090815260056020526040812080547f6e71edae12b1b97f4d1f60370fef10105fa2faae0126114a169c64845d6126c9918a918a918a919086611cbf83614101565b909155506040805160208101969096526001600160a01b0394851690860152929091166060840152608083015260a082015260c0810186905260e001604051602081830303815290604052805190602001209050611d208882868686612dd6565b611d2b888888612236565b5050505050505050565b6000611d4b611d42610fa9565b60025490612b74565b600003611d56575090565b6109b1611d61610fa9565b600254611938908590612b74565b6006546001600160a01b03163314611d995760405162461bcd60e51b8152600401610b0d9061403a565b600d5460408051918252602082018390527fa5dae50539d56dfe1fb5273d883b0c39bc76750a25d036fc5fbd09ad8fd5f57f910160405180910390a1600d55565b60138181548110611dea57600080fd5b6000918252602090912001546001600160a01b0316905081565b6000611e11611d42610fa9565b600003611e2057506000919050565b6109b1600254611938611e31610fa9565b8590612b74565b60007f8b73c3c69bb8fe3d512ecc4cf759cc79239f7b179b0ffacaa9a75d522b39400f60001b6000604051611e6d9190614130565b6040519081900390207fc89efdaa54c0f20c7adf612882df0950f5a951637e0307cdcb4c672f298b8bc646604080516020810195909552840192909252606083015260808201523060a082015260c00160405160208183030381529060405280519060200120905090565b6006546001600160a01b03163314611f025760405162461bcd60e51b8152600401610b0d9061403a565b6001600160a01b038116611f675760405162461bcd60e51b815260206004820152602660248201527f4f776e61626c653a206e6577206f776e657220697320746865207a65726f206160448201526564647265737360d01b6064820152608401610b0d565b6006546040516001600160a01b038084169216907f8be0079c531659141344cd1fd0a4f28419497f9722a3daafe3b4186f6b6457e090600090a3600680546001600160a01b0319166001600160a01b0392909216919091179055565b3233146120095760405162461bcd60e51b815260206004820152601460248201527359616b53747261746567793a3a6f6e6c79454f4160601b6044820152606401610b0d565b6120136000612f02565b565b6000610a9482846141cb565b6000836001600160a01b0316630dfe16816040518163ffffffff1660e01b8152600401602060405180830381865afa158015612061573d6000803e3d6000fd5b505050506040513d601f19601f8201168201806040525081019061208591906141e3565b6001600160a01b0316836001600160a01b031614806121165750836001600160a01b031663d21220a76040518163ffffffff1660e01b8152600401602060405180830381865afa1580156120dd573d6000803e3d6000fd5b505050506040513d601f19601f8201168201806040525081019061210191906141e3565b6001600160a01b0316836001600160a01b0316145b80156122105750836001600160a01b0316630dfe16816040518163ffffffff1660e01b8152600401602060405180830381865afa15801561215b573d6000803e3d6000fd5b505050506040513d601f19601f8201168201806040525081019061217f91906141e3565b6001600160a01b0316826001600160a01b031614806122105750836001600160a01b031663d21220a76040518163ffffffff1660e01b8152600401602060405180830381865afa1580156121d7573d6000803e3d6000fd5b505050506040513d601f19601f820116820180604052508101906121fb91906141e3565b6001600160a01b0316826001600160a01b0316145b801561222e5750816001600160a01b0316836001600160a01b031614155b949350505050565b6001600160a01b03831661228c5760405162461bcd60e51b815260206004820152601c60248201527f5f617070726f76653a3a6f776e6572207a65726f2061646472657373000000006044820152606401610b0d565b6001600160a01b0382166122e25760405162461bcd60e51b815260206004820152601e60248201527f5f617070726f76653a3a7370656e646572207a65726f206164647265737300006044820152606401610b0d565b6001600160a01b0383811660008181526003602090815260408083209487168084529482529182902085905590518481527f8c5be1e5ebec7d5bd14f71427d1e84f3dd0314c0f7b2291e5b200ac8c7c3b92591015b60405180910390a3505050565b600080610a946127106119388584612b74565b6000610a9482846140ea565b600081848411156123875760405162461bcd60e51b8152600401610b0d9190613db3565b505050900390565b6001600160a01b0382166124025760405162461bcd60e51b815260206004820152603460248201527f5f7472616e73666572546f6b656e733a2063616e6e6f74207472616e7366657260448201527320746f20746865207a65726f206164647265737360601b6064820152608401610b0d565b61243f816040518060600160405280602e815260200161439d602e91396001600160a01b0386166000908152600460205260409020549190612363565b6001600160a01b03808516600090815260046020526040808220939093559084168152205461246e9082612015565b6001600160a01b0380841660008181526004602052604090819020939093559151908516907fddf252ad1be2c89b69c2b068fc378daa952ba7f163c4a11628f55a4df523b3ef906123379085815260200190565b6016546015546009546040516328c6306960e21b81527f000000000000000000000000000000000000000000000000000000000000000060048201526001600160a01b039283166024820152908216604482015260648101849052600092919091169063a318c1a490608401600060405180830381600087803b15801561254857600080fd5b505af115801561255c573d6000803e3d6000fd5b50506016546015546040516307b22ee360e21b81526001600160a01b039283169450631ec8bb8c93506125b792909116907f00000000000000000000000000000000000000000000000000000000000000009060040161406f565b600060405180830381600087803b1580156125d157600080fd5b505af11580156125e5573d6000803e3d6000fd5b5093949350505050565b6126458363a9059cbb60e01b848460405160240161260e92919061406f565b60408051601f198184030181529190526020810180516001600160e01b03166001600160e01b031990931692909217909152613078565b505050565b61268781604051806060016040528060278152602001614376602791396001600160a01b0385166000908152600460205260409020549190612363565b60046000846001600160a01b03166001600160a01b03168152602001908152602001600020819055506126d781604051806060016040528060278152602001614320602791396002549190612363565b6002556040518181526000906001600160a01b038416907fddf252ad1be2c89b69c2b068fc378daa952ba7f163c4a11628f55a4df523b3ef906020015b60405180910390a35050565b600e5460ff16151560011461278a5760405162461bcd60e51b815260206004820152602a60248201527f5661726961626c655265776172647353747261746567793a3a4465706f7369746044820152691cc8191a5cd8589b195960b21b6064820152608401610b0d565b600d54156127b457600061279c61194c565b9050600d548111156127b2576127b26001612f02565b505b6009546040516323b872dd60e01b8152336004820152306024820152604481018390526001600160a01b03909116906323b872dd906064016020604051808303816000875af115801561280b573d6000803e3d6000fd5b505050506040513d601f19601f8201168201806040525081019061282f9190614088565b61289a5760405162461bcd60e51b815260206004820152603660248201527f5661726961626c655265776172647353747261746567793a3a4465706f736974604482015275081d1bdad95b881d1c985b9cd9995c8819985a5b195960521b6064820152608401610b0d565b60006128a582612344565b90506128bd836128b861083d8585612357565b61314a565b6128c6826131ce565b826001600160a01b03167fe1fffcc4923d04b559f4d29a8bfc6cda04eb5b0d3c460751c2402c5c5cc9109c8360405161290191815260200190565b60405180910390a2505050565b600a546001600160a01b038381169116146129b057600a5461293c90829084906001600160a01b0316612021565b6129b0576040805162461bcd60e51b81526020600482015260248101919091527f5661726961626c655265776172647353747261746567793a3a5377617020706160448201527f697220646f6573206e6f7420636f6e7461696e2072657761726420746f6b656e6064820152608401610b0d565b6001600160a01b03808316600081815260126020526040812080549385166001600160a01b03199485161790556013805460018181018355919092527f66de8ffda797e3de9c05e8fc57b3bf0ec28a930d40b0d285d93c06501cf6a0909091018054909316909117909155601454612a2791612015565b601455604080516001600160a01b038085168252831660208201527f916e172c080569186aa7ea048268267257cf7cc49505908863f747bca8620f809101611196565b60095460165460405163095ea7b360e01b81526001600160a01b039283169263095ea7b392612aa19291169060009060040161406f565b6020604051808303816000875af1158015612ac0573d6000803e3d6000fd5b505050506040513d601f19601f82011682018060405250810190612ae49190614088565b5060165460155460095460405163d2cee46f60e01b81527f000000000000000000000000000000000000000000000000000000000000000060048201526001600160a01b039283166024820152908216604482015291169063d2cee46f906064015b600060405180830381600087803b158015612b6057600080fd5b505af11580156118f4573d6000803e3d6000fd5b6000610a948284614200565b6000610a94828461421f565b604080516002808252606082810190935260009190816020015b6040805180820190915260008082526020820152815260200190600190039081612ba657505060165460155460405163304cf65960e11b815292935060009283926001600160a01b0390811692636099ecb292612c2b92909116907f00000000000000000000000000000000000000000000000000000000000000009060040161406f565b6040805180830381865afa158015612c47573d6000803e3d6000fd5b505050506040513d601f19601f82011682018060405250810190612c6b9190614241565b91509150604051806040016040528073eb8343d5284caec921f035207ca94db6baaacbcd6001600160a01b031681526020018381525083600081518110612cb457612cb46140be565b602002602001018190525060405180604001604052807322d4002028f537599be9f666d1c4fa138522f9c86001600160a01b031681526020018281525083600181518110612d0457612d046140be565b602002602001018190525082935050505090565b600080612d25858561323d565b509050600080846001600160a01b0316630902f1ac6040518163ffffffff1660e01b8152600401606060405180830381865afa158015612d69573d6000803e3d6000fd5b505050506040513d601f19601f82011682018060405250810190612d8d919061427c565b5091509150866001600160a01b0316836001600160a01b031614612dad57905b612dca88836001600160701b0316836001600160701b031661326e565b98975050505050505050565b6000612de0611e38565b60405161190160f01b602082015260228101919091526042810186905260620160408051601f198184030181528282528051602091820120600080855291840180845281905260ff88169284019290925260608301869052608083018590529092509060019060a0016020604051602081039080840390855afa158015612e6b573d6000803e3d6000fd5b5050604051601f1901519150506001600160a01b03811615801590612ea15750866001600160a01b0316816001600160a01b0316145b612ef95760405162461bcd60e51b8152602060048201526024808201527f417263683a3a76616c69646174655369673a20696e76616c6964207369676e616044820152637475726560e01b6064820152608401610b0d565b50505050505050565b612f0a6132bc565b6000612f14613312565b905081612f8657600c54811015612f865760405162461bcd60e51b815260206004820152603060248201527f5661726961626c655265776172647353747261746567793a3a5265696e76657360448201526f7420616d6f756e7420746f6f206c6f7760801b6064820152608401610b0d565b6000612fa361271061193860115485612b7490919063ffffffff16565b90508015612fc857600b54600a54612fc8916001600160a01b039182169116836125ef565b6000612fe561271061193860105486612b7490919063ffffffff16565b9050801561300457600a54613004906001600160a01b031633836125ef565b600061302261301d836130178787612357565b90612357565b613543565b905061302d816131ce565b7fc7606d21ac05cd309191543e409f0845c016120563783d70e4f41419dc0ef234613056610fa9565b6002546040805192835260208301919091520160405180910390a15050505050565b60006130cd826040518060400160405280602081526020017f5361666545524332303a206c6f772d6c6576656c2063616c6c206661696c6564815250856001600160a01b03166135ae9092919063ffffffff16565b80519091501561264557808060200190518101906130eb9190614088565b6126455760405162461bcd60e51b815260206004820152602a60248201527f5361666545524332303a204552433230206f7065726174696f6e20646964206e6044820152691bdd081cdd58d8d9595960b21b6064820152608401610b0d565b6002546131579082612015565b6002556001600160a01b03821660009081526004602052604090205461317d9082612015565b6001600160a01b0383166000818152600460205260408082209390935591519091907fddf252ad1be2c89b69c2b068fc378daa952ba7f163c4a11628f55a4df523b3ef906127149085815260200190565b600081116132345760405162461bcd60e51b815260206004820152602d60248201527f5661726961626c655265776172647353747261746567793a3a5374616b65206160448201526c6d6f756e7420746f6f206c6f7760981b6064820152608401610b0d565b611904816135bd565b600080826001600160a01b0316846001600160a01b031610613260578284613263565b83835b915091509250929050565b60008061327d856103e5612b74565b9050600061328b8285612b74565b905060006132a58361329f886103e8612b74565b90612015565b90506132b18282612b80565b979650505050505050565b6016546015546040516305d38c7160e21b81526001600160a01b039283169263174e31c492612b46929116907f00000000000000000000000000000000000000000000000000000000000000009060040161406f565b6040516370a0823160e01b8152306004820152600090819073b31f66aa3c1e785363f0875a1b74e27b85fd66c7906370a0823190602401602060405180830381865afa158015613366573d6000803e3d6000fd5b505050506040513d601f19601f8201168201806040525081019061338a91906140a5565b60135490915060005b8181101561353b576000601382815481106133b0576133b06140be565b6000918252602090912001546001600160a01b0316905073b31f66aa3c1e785363f0875a1b74e27b85fd66c619810161346f574780156134685773b31f66aa3c1e785363f0875a1b74e27b85fd66c76001600160a01b031663d0e30db0826040518263ffffffff1660e01b81526004016000604051808303818588803b15801561343957600080fd5b505af115801561344d573d6000803e3d6000fd5b5050505050613465818661201590919063ffffffff16565b94505b5050613529565b6040516370a0823160e01b81523060048201526000906001600160a01b038316906370a0823190602401602060405180830381865afa1580156134b6573d6000803e3d6000fd5b505050506040513d601f19601f820116820180604052508101906134da91906140a5565b90508015613526576001600160a01b0380831660009081526012602052604090205416801561352457600a5461352190611b9290849086906001600160a01b0316856136f8565b95505b505b50505b8061353381614101565b915050613393565b509092915050565b600a54601754600091829161357c9185916001600160a01b03918216917322d4002028f537599be9f666d1c4fa138522f9c891166136f8565b600954909150610a949082907322d4002028f537599be9f666d1c4fa138522f9c8906001600160a01b0316808061386c565b606061222e8484600085613a10565b6016546009546135da916001600160a01b039182169116836125ef565b601654601554600954604051630e4cca4b60e41b81527f000000000000000000000000000000000000000000000000000000000000000060048201526001600160a01b03928316602482015290821660448201526064810184905291169063e4cca4b090608401600060405180830381600087803b15801561365b57600080fd5b505af115801561366f573d6000803e3d6000fd5b50506016546015546040516307b22ee360e21b81526001600160a01b039283169450631ec8bb8c93506136ca92909116907f00000000000000000000000000000000000000000000000000000000000000009060040161406f565b600060405180830381600087803b1580156136e457600080fd5b505af1158015610c6a573d6000803e3d6000fd5b600080613705858561323d565b509050600080846001600160a01b0316630902f1ac6040518163ffffffff1660e01b8152600401606060405180830381865afa158015613749573d6000803e3d6000fd5b505050506040513d601f19601f8201168201806040525081019061376d919061427c565b5091509150866001600160a01b0316836001600160a01b03161461378d57905b6000806137ad8a856001600160701b0316856001600160701b031661326e565b9050886001600160a01b0316856001600160a01b0316146137ca57905b6137de6001600160a01b038a16888c6125ef565b6040805160008152602081019182905263022c0d9f60e01b9091526001600160a01b0388169063022c0d9f9061381d90859085903090602481016142cc565b600060405180830381600087803b15801561383757600080fd5b505af115801561384b573d6000803e3d6000fd5b5050505081811161385c578161385e565b805b9a9950505050505050505050565b60008061387a876002612b80565b9050600081116138e45760405162461bcd60e51b815260206004820152602f60248201527f4465784c6962726172793a3a5f636f6e76657274526577617264546f6b656e7360448201526e546f4465706f736974546f6b656e7360881b6064820152608401610b0d565b6000856001600160a01b0316630dfe16816040518163ffffffff1660e01b8152600401602060405180830381865afa158015613924573d6000803e3d6000fd5b505050506040513d601f19601f8201168201806040525081019061394891906141e3565b9050816001600160a01b038881169083161461396d5761396a838984896136f8565b90505b6000876001600160a01b031663d21220a76040518163ffffffff1660e01b8152600401602060405180830381865afa1580156139ad573d6000803e3d6000fd5b505050506040513d601f19601f820116820180604052508101906139d191906141e3565b9050836001600160a01b038a8116908316146139f6576139f3858b848a6136f8565b90505b613a01898483613b36565b9b9a5050505050505050505050565b606082471015613a715760405162461bcd60e51b815260206004820152602660248201527f416464726573733a20696e73756666696369656e742062616c616e636520666f6044820152651c8818d85b1b60d21b6064820152608401610b0d565b6001600160a01b0385163b613ac85760405162461bcd60e51b815260206004820152601d60248201527f416464726573733a2063616c6c20746f206e6f6e2d636f6e74726163740000006044820152606401610b0d565b600080866001600160a01b03168587604051613ae49190614303565b60006040518083038185875af1925050503d8060008114613b21576040519150601f19603f3d011682016040523d82523d6000602084013e613b26565b606091505b50915091506132b1828286613d12565b6000806000856001600160a01b0316630902f1ac6040518163ffffffff1660e01b8152600401606060405180830381865afa158015613b79573d6000803e3d6000fd5b505050506040513d601f19601f82011682018060405250810190613b9d919061427c565b50915091506000613bc186846001600160701b0316846001600160701b0316613d4b565b905084811115613bee57849050613beb85836001600160701b0316856001600160701b0316613d4b565b95505b613c658787896001600160a01b0316630dfe16816040518163ffffffff1660e01b8152600401602060405180830381865afa158015613c31573d6000803e3d6000fd5b505050506040513d601f19601f82011682018060405250810190613c5591906141e3565b6001600160a01b031691906125ef565b613ca88782896001600160a01b031663d21220a76040518163ffffffff1660e01b8152600401602060405180830381865afa158015613c31573d6000803e3d6000fd5b6040516335313c2160e11b81523060048201526001600160a01b03881690636a627842906024016020604051808303816000875af1158015613cee573d6000803e3d6000fd5b505050506040513d601f19601f820116820180604052508101906132b191906140a5565b60608315613d21575081610a94565b825115613d315782518084602001fd5b8160405162461bcd60e51b8152600401610b0d9190613db3565b600061222e836119388685612b74565b60005b83811015613d76578181015183820152602001613d5e565b838111156118f45750506000910152565b60008151808452613d9f816020860160208601613d5b565b601f01601f19169290920160200192915050565b602081526000610a946020830184613d87565b6001600160a01b038116811461190457600080fd5b60008060408385031215613dee57600080fd5b8235613df981613dc6565b946020939093013593505050565b600060208284031215613e1957600080fd5b5035919050565b600080600060608486031215613e3557600080fd5b8335613e4081613dc6565b92506020840135613e5081613dc6565b929592945050506040919091013590565b60008060408385031215613e7457600080fd5b8235613e7f81613dc6565b91506020830135613e8f81613dc6565b809150509250929050565b600060208284031215613eac57600080fd5b8135610a9481613dc6565b803560ff81168114613ec857600080fd5b919050565b600080600080600060a08688031215613ee557600080fd5b8535945060208601359350613efc60408701613eb7565b94979396509394606081013594506080013592915050565b801515811461190457600080fd5b600060208284031215613f3457600080fd5b8135610a9481613f14565b60008060408385031215613f5257600080fd5b823591506020830135613e8f81613f14565b600080600080600080600060e0888a031215613f7f57600080fd5b8735613f8a81613dc6565b96506020880135613f9a81613dc6565b95506040880135945060608801359350613fb660808901613eb7565b925060a0880135915060c0880135905092959891949750929550565b600181811c90821680613fe657607f821691505b60208210810361400657634e487b7160e01b600052602260045260246000fd5b50919050565b6020808252601490820152732cb0b5a9ba3930ba32b3bc9d1d37b7363ca232bb60611b604082015260600190565b6020808252818101527f4f776e61626c653a2063616c6c6572206973206e6f7420746865206f776e6572604082015260600190565b6001600160a01b03929092168252602082015260400190565b60006020828403121561409a57600080fd5b8151610a9481613f14565b6000602082840312156140b757600080fd5b5051919050565b634e487b7160e01b600052603260045260246000fd5b634e487b7160e01b600052601160045260246000fd5b6000828210156140fc576140fc6140d4565b500390565b600060018201614113576141136140d4565b5060010190565b634e487b7160e01b600052603160045260246000fd5b600080835481600182811c91508083168061414c57607f831692505b6020808410820361416b57634e487b7160e01b86526022600452602486fd5b81801561417f5760018114614190576141bd565b60ff198616895284890196506141bd565b60008a81526020902060005b868110156141b55781548b82015290850190830161419c565b505084890196505b509498975050505050505050565b600082198211156141de576141de6140d4565b500190565b6000602082840312156141f557600080fd5b8151610a9481613dc6565b600081600019048311821515161561421a5761421a6140d4565b500290565b60008261423c57634e487b7160e01b600052601260045260246000fd5b500490565b6000806040838503121561425457600080fd5b505080516020909101519092909150565b80516001600160701b0381168114613ec857600080fd5b60008060006060848603121561429157600080fd5b61429a84614265565b92506142a860208501614265565b9150604084015163ffffffff811681146142c157600080fd5b809150509250925092565b84815283602082015260018060a01b03831660408201526080606082015260006142f96080830184613d87565b9695505050505050565b60008251614315818460208701613d5b565b919091019291505056fe5f6275726e3a206275726e20616d6f756e74206578636565647320746f74616c20737570706c797472616e7366657246726f6d3a207472616e7366657220616d6f756e74206578636565647320616c6c6f77616e63655f6275726e3a206275726e20616d6f756e7420657863656564732066726f6d2062616c616e63655f7472616e73666572546f6b656e733a207472616e7366657220657863656564732066726f6d2062616c616e6365a26469706673582212200ed41add594e575c11a7b52a2f7eb59f224c760b4526eee34a831d5e16c624f064736f6c634300080d00334f776e61626c653a2063616c6c6572206973206e6f7420746865206f776e65728be0079c531659141344cd1fd0a4f28419497f9722a3daafe3b4186f6b6457e0",
    "linkReferences": {}
  },
  "methodIdentifiers": {
    "ADMIN_FEE_BIPS()": "07677111",
    "DEPOSITS_ENABLED()": "b52a321f",
    "DEV_FEE_BIPS()": "5ea682ea",
    "DOMAIN_TYPEHASH()": "20606b70",
    "MAX_TOKENS_TO_DEPOSIT_WITHOUT_REINVEST()": "789139bc",
    "MIN_TOKENS_TO_REINVEST()": "bd079f55",
    "PERMIT_TYPEHASH()": "30adf81f",
    "PID()": "5eaec0e4",
    "REINVEST_REWARD_BIPS()": "8aff733d",
    "VERSION_HASH()": "9e4e7318",
    "addReward(address,address)": "40b47e1a",
    "allowDepositor(address)": "4bebd1e7",
    "allowance(address,address)": "dd62ed3e",
    "allowedDepositors(address)": "483c2ef0",
    "approve(address,uint256)": "095ea7b3",
    "balanceOf(address)": "70a08231",
    "calculateDepositFee(uint256)": "247d284b",
    "calculateWithdrawFee(uint256)": "11056035",
    "checkReward()": "c4b24a46",
    "decimals()": "313ce567",
    "deposit(uint256)": "b6b55f25",
    "depositFor(address,uint256)": "2f4f21e2",
    "depositToken()": "c89039c5",
    "depositWithPermit(uint256,uint256,uint8,bytes32,bytes32)": "4a970be7",
    "devAddr()": "da09c72c",
    "estimateDeployedBalance()": "0f23475d",
    "estimateReinvestReward()": "b9e57b80",
    "getDepositTokensForShares(uint256)": "eab89a5a",
    "getDomainSeparator()": "ed24911d",
    "getSharesForDepositTokens(uint256)": "dd8ce4d6",
    "name()": "06fdde03",
    "nonces(address)": "7ecebe00",
    "numberOfAllowedDepositors()": "3bdc6e72",
    "owner()": "8da5cb5b",
    "permit(address,address,uint256,uint256,uint8,bytes32,bytes32)": "d505accf",
    "proxy()": "ec556889",
    "recoverAVAX(uint256)": "4ebb7916",
    "recoverERC20(address,uint256)": "8980f11f",
    "reinvest()": "fdb5a03e",
    "removeDepositor(address)": "8b73e606",
    "removeReward(address)": "a4d5e67c",
    "renounceOwnership()": "715018a6",
    "rescueDeployedFunds(uint256,bool)": "ac0d31ff",
    "revokeAllowance(address,address)": "7ae26773",
    "rewardCount()": "79085425",
    "rewardSwapPairs(address)": "a5534e71",
    "rewardToken()": "f7c618c1",
    "stakingContract()": "ee99205c",
    "supportedRewards(uint256)": "e75ab045",
    "swapPairWavaxPtp()": "bace8bb6",
    "symbol()": "95d89b41",
    "totalDeposits()": "7d882097",
    "totalSupply()": "18160ddd",
    "transfer(address,uint256)": "a9059cbb",
    "transferFrom(address,address,uint256)": "23b872dd",
    "transferOwnership(address)": "f2fde38b",
    "updateAdminFee(uint256)": "cff1b6ef",
    "updateDepositsEnabled(bool)": "4e77ace5",
    "updateDevAddr(address)": "9291d563",
    "updateDevFee(uint256)": "99729ec1",
    "updateMaxTokensToDepositWithoutReinvest(uint256)": "e21ac825",
    "updateMinTokensToReinvest(uint256)": "81837230",
    "updateReinvestReward(uint256)": "a8ae2b7c",
    "withdraw(uint256)": "2e1a7d4d"
  },
  "id": 79
}