{
  "abi": [
    {
      "inputs": [],
      "stateMutability": "nonpayable",
      "type": "constructor"
    },
    {
      "inputs": [
        {
          "internalType": "address",
          "name": "pairAddress",
          "type": "address"
        }
      ],
      "name": "pairInfo",
      "outputs": [
        {
          "components": [
            {
              "internalType": "string",
              "name": "symbol",
              "type": "string"
            },
            {
              "internalType": "uint256",
              "name": "totalSupply",
              "type": "uint256"
            },
            {
              "internalType": "address",
              "name": "token0",
              "type": "address"
            },
            {
              "internalType": "address",
              "name": "token1",
              "type": "address"
            },
            {
              "internalType": "string",
              "name": "token0Symbol",
              "type": "string"
            },
            {
              "internalType": "string",
              "name": "token1Symbol",
              "type": "string"
            },
            {
              "internalType": "uint8",
              "name": "token0Decimals",
              "type": "uint8"
            },
            {
              "internalType": "uint8",
              "name": "token1Decimals",
              "type": "uint8"
            },
            {
              "internalType": "uint256",
              "name": "reserve0",
              "type": "uint256"
            },
            {
              "internalType": "uint256",
              "name": "reserve1",
              "type": "uint256"
            }
          ],
          "internalType": "struct PairHelper.PairInfo",
          "name": "",
          "type": "tuple"
        }
      ],
      "stateMutability": "view",
      "type": "function"
    }
  ],
  "bytecode": {
    "object": "0x608060405234801561001057600080fd5b5061083c806100206000396000f3fe608060405234801561001057600080fd5b506004361061002b5760003560e01c8063dc0a422914610030575b600080fd5b61004361003e36600461051e565b610059565b604051610050919061059e565b60405180910390f35b61006161049b565b8161006a61049b565b816001600160a01b03166395d89b416040518163ffffffff1660e01b8152600401600060405180830381865afa1580156100a8573d6000803e3d6000fd5b505050506040513d6000823e601f3d908101601f191682016040526100d09190810190610694565b8160000181905250816001600160a01b03166318160ddd6040518163ffffffff1660e01b8152600401602060405180830381865afa158015610116573d6000803e3d6000fd5b505050506040513d601f19601f8201168201806040525081019061013a9190610741565b816020018181525050816001600160a01b0316630dfe16816040518163ffffffff1660e01b8152600401602060405180830381865afa158015610181573d6000803e3d6000fd5b505050506040513d601f19601f820116820180604052508101906101a5919061075a565b81604001906001600160a01b031690816001600160a01b031681525050816001600160a01b031663d21220a76040518163ffffffff1660e01b8152600401602060405180830381865afa158015610200573d6000803e3d6000fd5b505050506040513d601f19601f82011682018060405250810190610224919061075a565b81606001906001600160a01b031690816001600160a01b03168152505080604001516001600160a01b03166395d89b416040518163ffffffff1660e01b8152600401600060405180830381865afa158015610283573d6000803e3d6000fd5b505050506040513d6000823e601f3d908101601f191682016040526102ab9190810190610694565b816080018190525080606001516001600160a01b03166395d89b416040518163ffffffff1660e01b8152600401600060405180830381865afa1580156102f5573d6000803e3d6000fd5b505050506040513d6000823e601f3d908101601f1916820160405261031d9190810190610694565b8160a0018190525080604001516001600160a01b031663313ce5676040518163ffffffff1660e01b8152600401602060405180830381865afa158015610367573d6000803e3d6000fd5b505050506040513d601f19601f8201168201806040525081019061038b9190610777565b8160c0019060ff16908160ff168152505080606001516001600160a01b031663313ce5676040518163ffffffff1660e01b8152600401602060405180830381865afa1580156103de573d6000803e3d6000fd5b505050506040513d601f19601f820116820180604052508101906104029190610777565b8160e0019060ff16908160ff1681525050600080836001600160a01b0316630902f1ac6040518163ffffffff1660e01b8152600401606060405180830381865afa158015610454573d6000803e3d6000fd5b505050506040513d601f19601f8201168201806040525081019061047891906107b6565b506001600160701b03918216610100860152166101208401525090949350505050565b604051806101400160405280606081526020016000815260200160006001600160a01b0316815260200160006001600160a01b031681526020016060815260200160608152602001600060ff168152602001600060ff16815260200160008152602001600081525090565b6001600160a01b038116811461051b57600080fd5b50565b60006020828403121561053057600080fd5b813561053b81610506565b9392505050565b60005b8381101561055d578181015183820152602001610545565b8381111561056c576000848401525b50505050565b6000815180845261058a816020860160208601610542565b601f01601f19169290920160200192915050565b60208152600082516101408060208501526105bd610160850183610572565b91506020850151604085015260408501516105e360608601826001600160a01b03169052565b5060608501516001600160a01b0381166080860152506080850151601f19808685030160a08701526106158483610572565b935060a08701519150808685030160c0870152506106338382610572565b92505060c085015161064a60e086018260ff169052565b5060e08501516101006106618187018360ff169052565b860151610120868101919091529095015193019290925250919050565b634e487b7160e01b600052604160045260246000fd5b6000602082840312156106a657600080fd5b815167ffffffffffffffff808211156106be57600080fd5b818401915084601f8301126106d257600080fd5b8151818111156106e4576106e461067e565b604051601f8201601f19908116603f0116810190838211818310171561070c5761070c61067e565b8160405282815287602084870101111561072557600080fd5b610736836020830160208801610542565b979650505050505050565b60006020828403121561075357600080fd5b5051919050565b60006020828403121561076c57600080fd5b815161053b81610506565b60006020828403121561078957600080fd5b815160ff8116811461053b57600080fd5b80516001600160701b03811681146107b157600080fd5b919050565b6000806000606084860312156107cb57600080fd5b6107d48461079a565b92506107e26020850161079a565b9150604084015163ffffffff811681146107fb57600080fd5b80915050925092509256fea26469706673582212203269ef8139811048140c4d2582594f89a75e792eee9b84efef631baf6b9db23164736f6c634300080d0033",
    "linkReferences": {}
  },
  "methodIdentifiers": {
    "pairInfo(address)": "dc0a4229"
  },
  "id": 9
}