{
  "abi": [
    {
      "inputs": [
        {
          "internalType": "string",
          "name": "_name",
          "type": "string"
        },
        {
          "internalType": "address",
          "name": "_depositToken",
          "type": "address"
        },
        {
          "internalType": "address",
          "name": "_rewardToken",
          "type": "address"
        },
        {
          "internalType": "address",
          "name": "_poolRewardToken",
          "type": "address"
        },
        {
          "components": [
            {
              "internalType": "address",
              "name": "poolReward",
              "type": "address"
            },
            {
              "internalType": "address",
              "name": "token0",
              "type": "address"
            },
            {
              "internalType": "address",
              "name": "token1",
              "type": "address"
            }
          ],
          "internalType": "struct MasterChefVariableRewardsStrategyForLP.SwapPairs",
          "name": "_swapPairs",
          "type": "tuple"
        },
        {
          "components": [
            {
              "internalType": "address",
              "name": "reward",
              "type": "address"
            },
            {
              "internalType": "address",
              "name": "swapPair",
              "type": "address"
            }
          ],
          "internalType": "struct MasterChefVariableRewardsStrategy.ExtraReward[]",
          "name": "_extraRewards",
          "type": "tuple[]"
        },
        {
          "internalType": "address",
          "name": "_stakingContract",
          "type": "address"
        },
        {
          "internalType": "uint256",
          "name": "_pid",
          "type": "uint256"
        },
        {
          "internalType": "address",
          "name": "_timelock",
          "type": "address"
        },
        {
          "components": [
            {
              "internalType": "uint256",
              "name": "minTokensToReinvest",
              "type": "uint256"
            },
            {
              "internalType": "uint256",
              "name": "devFeeBips",
              "type": "uint256"
            },
            {
              "internalType": "uint256",
              "name": "reinvestRewardBips",
              "type": "uint256"
            }
          ],
          "internalType": "struct YakStrategyV2.StrategySettings",
          "name": "_strategySettings",
          "type": "tuple"
        }
      ],
      "stateMutability": "nonpayable",
      "type": "constructor"
    },
    {
      "anonymous": false,
      "inputs": [
        {
          "indexed": true,
          "internalType": "address",
          "name": "account",
          "type": "address"
        }
      ],
      "name": "AllowDepositor",
      "type": "event"
    },
    {
      "anonymous": false,
      "inputs": [
        {
          "indexed": true,
          "internalType": "address",
          "name": "owner",
          "type": "address"
        },
        {
          "indexed": true,
          "internalType": "address",
          "name": "spender",
          "type": "address"
        },
        {
          "indexed": false,
          "internalType": "uint256",
          "name": "value",
          "type": "uint256"
        }
      ],
      "name": "Approval",
      "type": "event"
    },
    {
      "anonymous": false,
      "inputs": [
        {
          "indexed": true,
          "internalType": "address",
          "name": "account",
          "type": "address"
        },
        {
          "indexed": false,
          "internalType": "uint256",
          "name": "amount",
          "type": "uint256"
        }
      ],
      "name": "Deposit",
      "type": "event"
    },
    {
      "anonymous": false,
      "inputs": [
        {
          "indexed": false,
          "internalType": "bool",
          "name": "newValue",
          "type": "bool"
        }
      ],
      "name": "DepositsEnabled",
      "type": "event"
    },
    {
      "anonymous": false,
      "inputs": [
        {
          "indexed": true,
          "internalType": "address",
          "name": "previousOwner",
          "type": "address"
        },
        {
          "indexed": true,
          "internalType": "address",
          "name": "newOwner",
          "type": "address"
        }
      ],
      "name": "OwnershipTransferred",
      "type": "event"
    },
    {
      "anonymous": false,
      "inputs": [
        {
          "indexed": false,
          "internalType": "address",
          "name": "token",
          "type": "address"
        },
        {
          "indexed": false,
          "internalType": "uint256",
          "name": "amount",
          "type": "uint256"
        }
      ],
      "name": "Recovered",
      "type": "event"
    },
    {
      "anonymous": false,
      "inputs": [
        {
          "indexed": false,
          "internalType": "uint256",
          "name": "newTotalDeposits",
          "type": "uint256"
        },
        {
          "indexed": false,
          "internalType": "uint256",
          "name": "newTotalSupply",
          "type": "uint256"
        }
      ],
      "name": "Reinvest",
      "type": "event"
    },
    {
      "anonymous": false,
      "inputs": [
        {
          "indexed": true,
          "internalType": "address",
          "name": "account",
          "type": "address"
        }
      ],
      "name": "RemoveDepositor",
      "type": "event"
    },
    {
      "anonymous": false,
      "inputs": [
        {
          "indexed": true,
          "internalType": "address",
          "name": "from",
          "type": "address"
        },
        {
          "indexed": true,
          "internalType": "address",
          "name": "to",
          "type": "address"
        },
        {
          "indexed": false,
          "internalType": "uint256",
          "name": "value",
          "type": "uint256"
        }
      ],
      "name": "Transfer",
      "type": "event"
    },
    {
      "anonymous": false,
      "inputs": [
        {
          "indexed": false,
          "internalType": "uint256",
          "name": "oldValue",
          "type": "uint256"
        },
        {
          "indexed": false,
          "internalType": "uint256",
          "name": "newValue",
          "type": "uint256"
        }
      ],
      "name": "UpdateAdminFee",
      "type": "event"
    },
    {
      "anonymous": false,
      "inputs": [
        {
          "indexed": false,
          "internalType": "address",
          "name": "oldValue",
          "type": "address"
        },
        {
          "indexed": false,
          "internalType": "address",
          "name": "newValue",
          "type": "address"
        }
      ],
      "name": "UpdateDevAddr",
      "type": "event"
    },
    {
      "anonymous": false,
      "inputs": [
        {
          "indexed": false,
          "internalType": "uint256",
          "name": "oldValue",
          "type": "uint256"
        },
        {
          "indexed": false,
          "internalType": "uint256",
          "name": "newValue",
          "type": "uint256"
        }
      ],
      "name": "UpdateDevFee",
      "type": "event"
    },
    {
      "anonymous": false,
      "inputs": [
        {
          "indexed": false,
          "internalType": "uint256",
          "name": "oldValue",
          "type": "uint256"
        },
        {
          "indexed": false,
          "internalType": "uint256",
          "name": "newValue",
          "type": "uint256"
        }
      ],
      "name": "UpdateMaxTokensToDepositWithoutReinvest",
      "type": "event"
    },
    {
      "anonymous": false,
      "inputs": [
        {
          "indexed": false,
          "internalType": "uint256",
          "name": "oldValue",
          "type": "uint256"
        },
        {
          "indexed": false,
          "internalType": "uint256",
          "name": "newValue",
          "type": "uint256"
        }
      ],
      "name": "UpdateMinTokensToReinvest",
      "type": "event"
    },
    {
      "anonymous": false,
      "inputs": [
        {
          "indexed": false,
          "internalType": "uint256",
          "name": "oldValue",
          "type": "uint256"
        },
        {
          "indexed": false,
          "internalType": "uint256",
          "name": "newValue",
          "type": "uint256"
        }
      ],
      "name": "UpdateReinvestReward",
      "type": "event"
    },
    {
      "anonymous": false,
      "inputs": [
        {
          "indexed": true,
          "internalType": "address",
          "name": "account",
          "type": "address"
        },
        {
          "indexed": false,
          "internalType": "uint256",
          "name": "amount",
          "type": "uint256"
        }
      ],
      "name": "Withdraw",
      "type": "event"
    },
    {
      "inputs": [],
      "name": "ADMIN_FEE_BIPS",
      "outputs": [
        {
          "internalType": "uint256",
          "name": "",
          "type": "uint256"
        }
      ],
      "stateMutability": "view",
      "type": "function"
    },
    {
      "inputs": [],
      "name": "DEPOSITS_ENABLED",
      "outputs": [
        {
          "internalType": "bool",
          "name": "",
          "type": "bool"
        }
      ],
      "stateMutability": "view",
      "type": "function"
    },
    {
      "inputs": [],
      "name": "DEV_FEE_BIPS",
      "outputs": [
        {
          "internalType": "uint256",
          "name": "",
          "type": "uint256"
        }
      ],
      "stateMutability": "view",
      "type": "function"
    },
    {
      "inputs": [],
      "name": "DOMAIN_TYPEHASH",
      "outputs": [
        {
          "internalType": "bytes32",
          "name": "",
          "type": "bytes32"
        }
      ],
      "stateMutability": "view",
      "type": "function"
    },
    {
      "inputs": [],
      "name": "MAX_TOKENS_TO_DEPOSIT_WITHOUT_REINVEST",
      "outputs": [
        {
          "internalType": "uint256",
          "name": "",
          "type": "uint256"
        }
      ],
      "stateMutability": "view",
      "type": "function"
    },
    {
      "inputs": [],
      "name": "MIN_TOKENS_TO_REINVEST",
      "outputs": [
        {
          "internalType": "uint256",
          "name": "",
          "type": "uint256"
        }
      ],
      "stateMutability": "view",
      "type": "function"
    },
    {
      "inputs": [],
      "name": "PERMIT_TYPEHASH",
      "outputs": [
        {
          "internalType": "bytes32",
          "name": "",
          "type": "bytes32"
        }
      ],
      "stateMutability": "view",
      "type": "function"
    },
    {
      "inputs": [],
      "name": "PID",
      "outputs": [
        {
          "internalType": "uint256",
          "name": "",
          "type": "uint256"
        }
      ],
      "stateMutability": "view",
      "type": "function"
    },
    {
      "inputs": [],
      "name": "REINVEST_REWARD_BIPS",
      "outputs": [
        {
          "internalType": "uint256",
          "name": "",
          "type": "uint256"
        }
      ],
      "stateMutability": "view",
      "type": "function"
    },
    {
      "inputs": [],
      "name": "VERSION_HASH",
      "outputs": [
        {
          "internalType": "bytes32",
          "name": "",
          "type": "bytes32"
        }
      ],
      "stateMutability": "view",
      "type": "function"
    },
    {
      "inputs": [
        {
          "internalType": "address",
          "name": "_rewardToken",
          "type": "address"
        },
        {
          "internalType": "address",
          "name": "_swapPair",
          "type": "address"
        }
      ],
      "name": "addReward",
      "outputs": [],
      "stateMutability": "nonpayable",
      "type": "function"
    },
    {
      "inputs": [
        {
          "internalType": "address",
          "name": "depositor",
          "type": "address"
        }
      ],
      "name": "allowDepositor",
      "outputs": [],
      "stateMutability": "nonpayable",
      "type": "function"
    },
    {
      "inputs": [
        {
          "internalType": "address",
          "name": "account",
          "type": "address"
        },
        {
          "internalType": "address",
          "name": "spender",
          "type": "address"
        }
      ],
      "name": "allowance",
      "outputs": [
        {
          "internalType": "uint256",
          "name": "",
          "type": "uint256"
        }
      ],
      "stateMutability": "view",
      "type": "function"
    },
    {
      "inputs": [
        {
          "internalType": "address",
          "name": "",
          "type": "address"
        }
      ],
      "name": "allowedDepositors",
      "outputs": [
        {
          "internalType": "bool",
          "name": "",
          "type": "bool"
        }
      ],
      "stateMutability": "view",
      "type": "function"
    },
    {
      "inputs": [
        {
          "internalType": "address",
          "name": "spender",
          "type": "address"
        },
        {
          "internalType": "uint256",
          "name": "amount",
          "type": "uint256"
        }
      ],
      "name": "approve",
      "outputs": [
        {
          "internalType": "bool",
          "name": "",
          "type": "bool"
        }
      ],
      "stateMutability": "nonpayable",
      "type": "function"
    },
    {
      "inputs": [
        {
          "internalType": "address",
          "name": "account",
          "type": "address"
        }
      ],
      "name": "balanceOf",
      "outputs": [
        {
          "internalType": "uint256",
          "name": "",
          "type": "uint256"
        }
      ],
      "stateMutability": "view",
      "type": "function"
    },
    {
      "inputs": [],
      "name": "checkReward",
      "outputs": [
        {
          "internalType": "uint256",
          "name": "",
          "type": "uint256"
        }
      ],
      "stateMutability": "view",
      "type": "function"
    },
    {
      "inputs": [],
      "name": "decimals",
      "outputs": [
        {
          "internalType": "uint8",
          "name": "",
          "type": "uint8"
        }
      ],
      "stateMutability": "view",
      "type": "function"
    },
    {
      "inputs": [
        {
          "internalType": "uint256",
          "name": "amount",
          "type": "uint256"
        }
      ],
      "name": "deposit",
      "outputs": [],
      "stateMutability": "nonpayable",
      "type": "function"
    },
    {
      "inputs": [
        {
          "internalType": "address",
          "name": "account",
          "type": "address"
        },
        {
          "internalType": "uint256",
          "name": "amount",
          "type": "uint256"
        }
      ],
      "name": "depositFor",
      "outputs": [],
      "stateMutability": "nonpayable",
      "type": "function"
    },
    {
      "inputs": [],
      "name": "depositToken",
      "outputs": [
        {
          "internalType": "contract IERC20",
          "name": "",
          "type": "address"
        }
      ],
      "stateMutability": "view",
      "type": "function"
    },
    {
      "inputs": [
        {
          "internalType": "uint256",
          "name": "amount",
          "type": "uint256"
        },
        {
          "internalType": "uint256",
          "name": "deadline",
          "type": "uint256"
        },
        {
          "internalType": "uint8",
          "name": "v",
          "type": "uint8"
        },
        {
          "internalType": "bytes32",
          "name": "r",
          "type": "bytes32"
        },
        {
          "internalType": "bytes32",
          "name": "s",
          "type": "bytes32"
        }
      ],
      "name": "depositWithPermit",
      "outputs": [],
      "stateMutability": "nonpayable",
      "type": "function"
    },
    {
      "inputs": [],
      "name": "devAddr",
      "outputs": [
        {
          "internalType": "address",
          "name": "",
          "type": "address"
        }
      ],
      "stateMutability": "view",
      "type": "function"
    },
    {
      "inputs": [],
      "name": "estimateDeployedBalance",
      "outputs": [
        {
          "internalType": "uint256",
          "name": "",
          "type": "uint256"
        }
      ],
      "stateMutability": "view",
      "type": "function"
    },
    {
      "inputs": [],
      "name": "estimateReinvestReward",
      "outputs": [
        {
          "internalType": "uint256",
          "name": "",
          "type": "uint256"
        }
      ],
      "stateMutability": "view",
      "type": "function"
    },
    {
      "inputs": [
        {
          "internalType": "uint256",
          "name": "amount",
          "type": "uint256"
        }
      ],
      "name": "getDepositTokensForShares",
      "outputs": [
        {
          "internalType": "uint256",
          "name": "",
          "type": "uint256"
        }
      ],
      "stateMutability": "view",
      "type": "function"
    },
    {
      "inputs": [],
      "name": "getDomainSeparator",
      "outputs": [
        {
          "internalType": "bytes32",
          "name": "",
          "type": "bytes32"
        }
      ],
      "stateMutability": "view",
      "type": "function"
    },
    {
      "inputs": [
        {
          "internalType": "uint256",
          "name": "amount",
          "type": "uint256"
        }
      ],
      "name": "getSharesForDepositTokens",
      "outputs": [
        {
          "internalType": "uint256",
          "name": "",
          "type": "uint256"
        }
      ],
      "stateMutability": "view",
      "type": "function"
    },
    {
      "inputs": [],
      "name": "miniChef",
      "outputs": [
        {
          "internalType": "contract IMiniChefV2",
          "name": "",
          "type": "address"
        }
      ],
      "stateMutability": "view",
      "type": "function"
    },
    {
      "inputs": [],
      "name": "name",
      "outputs": [
        {
          "internalType": "string",
          "name": "",
          "type": "string"
        }
      ],
      "stateMutability": "view",
      "type": "function"
    },
    {
      "inputs": [
        {
          "internalType": "address",
          "name": "",
          "type": "address"
        }
      ],
      "name": "nonces",
      "outputs": [
        {
          "internalType": "uint256",
          "name": "",
          "type": "uint256"
        }
      ],
      "stateMutability": "view",
      "type": "function"
    },
    {
      "inputs": [],
      "name": "numberOfAllowedDepositors",
      "outputs": [
        {
          "internalType": "uint256",
          "name": "",
          "type": "uint256"
        }
      ],
      "stateMutability": "view",
      "type": "function"
    },
    {
      "inputs": [],
      "name": "owner",
      "outputs": [
        {
          "internalType": "address",
          "name": "",
          "type": "address"
        }
      ],
      "stateMutability": "view",
      "type": "function"
    },
    {
      "inputs": [
        {
          "internalType": "address",
          "name": "owner",
          "type": "address"
        },
        {
          "internalType": "address",
          "name": "spender",
          "type": "address"
        },
        {
          "internalType": "uint256",
          "name": "value",
          "type": "uint256"
        },
        {
          "internalType": "uint256",
          "name": "deadline",
          "type": "uint256"
        },
        {
          "internalType": "uint8",
          "name": "v",
          "type": "uint8"
        },
        {
          "internalType": "bytes32",
          "name": "r",
          "type": "bytes32"
        },
        {
          "internalType": "bytes32",
          "name": "s",
          "type": "bytes32"
        }
      ],
      "name": "permit",
      "outputs": [],
      "stateMutability": "nonpayable",
      "type": "function"
    },
    {
      "inputs": [
        {
          "internalType": "uint256",
          "name": "amount",
          "type": "uint256"
        }
      ],
      "name": "recoverAVAX",
      "outputs": [],
      "stateMutability": "nonpayable",
      "type": "function"
    },
    {
      "inputs": [
        {
          "internalType": "address",
          "name": "tokenAddress",
          "type": "address"
        },
        {
          "internalType": "uint256",
          "name": "tokenAmount",
          "type": "uint256"
        }
      ],
      "name": "recoverERC20",
      "outputs": [],
      "stateMutability": "nonpayable",
      "type": "function"
    },
    {
      "inputs": [],
      "name": "reinvest",
      "outputs": [],
      "stateMutability": "nonpayable",
      "type": "function"
    },
    {
      "inputs": [
        {
          "internalType": "address",
          "name": "depositor",
          "type": "address"
        }
      ],
      "name": "removeDepositor",
      "outputs": [],
      "stateMutability": "nonpayable",
      "type": "function"
    },
    {
      "inputs": [
        {
          "internalType": "address",
          "name": "rewardToken",
          "type": "address"
        }
      ],
      "name": "removeReward",
      "outputs": [],
      "stateMutability": "nonpayable",
      "type": "function"
    },
    {
      "inputs": [],
      "name": "renounceOwnership",
      "outputs": [],
      "stateMutability": "nonpayable",
      "type": "function"
    },
    {
      "inputs": [
        {
          "internalType": "uint256",
          "name": "minReturnAmountAccepted",
          "type": "uint256"
        },
        {
          "internalType": "bool",
          "name": "disableDeposits",
          "type": "bool"
        }
      ],
      "name": "rescueDeployedFunds",
      "outputs": [],
      "stateMutability": "nonpayable",
      "type": "function"
    },
    {
      "inputs": [
        {
          "internalType": "address",
          "name": "token",
          "type": "address"
        },
        {
          "internalType": "address",
          "name": "spender",
          "type": "address"
        }
      ],
      "name": "revokeAllowance",
      "outputs": [],
      "stateMutability": "nonpayable",
      "type": "function"
    },
    {
      "inputs": [],
      "name": "rewardCount",
      "outputs": [
        {
          "internalType": "uint256",
          "name": "",
          "type": "uint256"
        }
      ],
      "stateMutability": "view",
      "type": "function"
    },
    {
      "inputs": [
        {
          "internalType": "address",
          "name": "",
          "type": "address"
        }
      ],
      "name": "rewardSwapPairs",
      "outputs": [
        {
          "internalType": "address",
          "name": "",
          "type": "address"
        }
      ],
      "stateMutability": "view",
      "type": "function"
    },
    {
      "inputs": [],
      "name": "rewardToken",
      "outputs": [
        {
          "internalType": "contract IERC20",
          "name": "",
          "type": "address"
        }
      ],
      "stateMutability": "view",
      "type": "function"
    },
    {
      "inputs": [],
      "name": "symbol",
      "outputs": [
        {
          "internalType": "string",
          "name": "",
          "type": "string"
        }
      ],
      "stateMutability": "view",
      "type": "function"
    },
    {
      "inputs": [],
      "name": "totalDeposits",
      "outputs": [
        {
          "internalType": "uint256",
          "name": "",
          "type": "uint256"
        }
      ],
      "stateMutability": "view",
      "type": "function"
    },
    {
      "inputs": [],
      "name": "totalSupply",
      "outputs": [
        {
          "internalType": "uint256",
          "name": "",
          "type": "uint256"
        }
      ],
      "stateMutability": "view",
      "type": "function"
    },
    {
      "inputs": [
        {
          "internalType": "address",
          "name": "dst",
          "type": "address"
        },
        {
          "internalType": "uint256",
          "name": "amount",
          "type": "uint256"
        }
      ],
      "name": "transfer",
      "outputs": [
        {
          "internalType": "bool",
          "name": "",
          "type": "bool"
        }
      ],
      "stateMutability": "nonpayable",
      "type": "function"
    },
    {
      "inputs": [
        {
          "internalType": "address",
          "name": "src",
          "type": "address"
        },
        {
          "internalType": "address",
          "name": "dst",
          "type": "address"
        },
        {
          "internalType": "uint256",
          "name": "amount",
          "type": "uint256"
        }
      ],
      "name": "transferFrom",
      "outputs": [
        {
          "internalType": "bool",
          "name": "",
          "type": "bool"
        }
      ],
      "stateMutability": "nonpayable",
      "type": "function"
    },
    {
      "inputs": [
        {
          "internalType": "address",
          "name": "newOwner",
          "type": "address"
        }
      ],
      "name": "transferOwnership",
      "outputs": [],
      "stateMutability": "nonpayable",
      "type": "function"
    },
    {
      "inputs": [
        {
          "internalType": "uint256",
          "name": "newValue",
          "type": "uint256"
        }
      ],
      "name": "updateAdminFee",
      "outputs": [],
      "stateMutability": "nonpayable",
      "type": "function"
    },
    {
      "inputs": [
        {
          "internalType": "bool",
          "name": "newValue",
          "type": "bool"
        }
      ],
      "name": "updateDepositsEnabled",
      "outputs": [],
      "stateMutability": "nonpayable",
      "type": "function"
    },
    {
      "inputs": [
        {
          "internalType": "address",
          "name": "newValue",
          "type": "address"
        }
      ],
      "name": "updateDevAddr",
      "outputs": [],
      "stateMutability": "nonpayable",
      "type": "function"
    },
    {
      "inputs": [
        {
          "internalType": "uint256",
          "name": "newValue",
          "type": "uint256"
        }
      ],
      "name": "updateDevFee",
      "outputs": [],
      "stateMutability": "nonpayable",
      "type": "function"
    },
    {
      "inputs": [
        {
          "internalType": "uint256",
          "name": "newValue",
          "type": "uint256"
        }
      ],
      "name": "updateMaxTokensToDepositWithoutReinvest",
      "outputs": [],
      "stateMutability": "nonpayable",
      "type": "function"
    },
    {
      "inputs": [
        {
          "internalType": "uint256",
          "name": "newValue",
          "type": "uint256"
        }
      ],
      "name": "updateMinTokensToReinvest",
      "outputs": [],
      "stateMutability": "nonpayable",
      "type": "function"
    },
    {
      "inputs": [
        {
          "internalType": "uint256",
          "name": "newValue",
          "type": "uint256"
        }
      ],
      "name": "updateReinvestReward",
      "outputs": [],
      "stateMutability": "nonpayable",
      "type": "function"
    },
    {
      "inputs": [
        {
          "internalType": "uint256",
          "name": "amount",
          "type": "uint256"
        }
      ],
      "name": "withdraw",
      "outputs": [],
      "stateMutability": "nonpayable",
      "type": "function"
    }
  ],
  "bytecode": {
    "object": "0x60e0604052600960a0819052685969656c642059616b60b81b60c09081526200002c916000919062001686565b506040805180820190915260038082526216549560ea1b6020909201918252620000599160019162001686565b5060016014553480156200006c57600080fd5b5060405162005f1438038062005f148339810160408190526200008f91620019cd565b89898989898989888a898989898989600001518989898989806000620000ba620002ff60201b60201c565b600680546001600160a01b0319166001600160a01b0383169081179091556040519192509060009060008051602062005ef4833981519152908290a3508051620001049062000303565b6020810151620001149062000393565b604081015162000124906200044a565b5089516200013a9060009060208d019062001686565b50600980546001600160a01b03808c166001600160a01b031992831617909255600a80548b84169083161790556080849052600b80548216732d580f9cf2fb2d09bc411532988f2afda4e7beff1790556012805487841690831617905588821660009081526013602052604081208054938a16939092169290921790555b8551811015620002295762000214868281518110620001db57620001db62001ac9565b602002602001015160000151878381518110620001fc57620001fc62001ac9565b6020026020010151602001516200050160201b60201c565b80620002208162001af5565b915050620001b8565b506200023660016200080e565b6200024183620008b8565b60408051600080825260208201527fc7606d21ac05cd309191543e409f0845c016120563783d70e4f41419dc0ef234910160405180910390a15050505050505050505062000297868989620009b560201b60201c565b5050505050505050505086601860006101000a8154816001600160a01b0302191690836001600160a01b0316021790555083601760006101000a8154816001600160a01b0302191690836001600160a01b031602179055505050505050505050505062001b86565b3390565b6006546001600160a01b03163314620003525760405162461bcd60e51b8152602060048201819052602482015260008051602062005ed483398151915260448201526064015b60405180910390fd5b600c5460408051918252602082018390527f481f79ac3a523b6d6db3c5a720e190e986d1cc1b41adcdf50f9caef849901100910160405180910390a1600c55565b6006546001600160a01b03163314620003de5760405162461bcd60e51b8152602060048201819052602482015260008051602062005ed4833981519152604482015260640162000349565b612710620003fd601054836200167160201b62001b4c1790919060201c565b11156200040957600080fd5b60115460408051918252602082018390527f2a42303d002f0ba6cfe8259c91d4684443fb0b3de286ba74991175d651726131910160405180910390a1601155565b6006546001600160a01b03163314620004955760405162461bcd60e51b8152602060048201819052602482015260008051602062005ed4833981519152604482015260640162000349565b612710620004b4601154836200167160201b62001b4c1790919060201c565b1115620004c057600080fd5b60105460408051918252602082018390527fe7f97d51d307dc44045597c9978bec0f842e6bb40d19b9444084cfa30d9ed4f2910160405180910390a1601055565b600a546001600160a01b03838116911614620007bb57806001600160a01b0316630dfe16816040518163ffffffff1660e01b8152600401602060405180830381865afa15801562000556573d6000803e3d6000fd5b505050506040513d601f19601f820116820180604052508101906200057c919062001b11565b6001600160a01b0316826001600160a01b0316036200066a57600a546040805163d21220a760e01b815290516001600160a01b039283169284169163d21220a79160048083019260209291908290030181865afa158015620005e2573d6000803e3d6000fd5b505050506040513d601f19601f8201168201806040525081019062000608919062001b11565b6001600160a01b031614620006645760405162461bcd60e51b815260206004820152603a602482015260008051602062005e94833981519152604482015260008051602062005eb4833981519152606482015260840162000349565b620007bb565b600a5460408051630dfe168160e01b815290516001600160a01b0392831692841691630dfe16819160048083019260209291908290030181865afa158015620006b7573d6000803e3d6000fd5b505050506040513d601f19601f82011682018060405250810190620006dd919062001b11565b6001600160a01b0316148015620007695750816001600160a01b0316816001600160a01b031663d21220a76040518163ffffffff1660e01b8152600401602060405180830381865afa15801562000738573d6000803e3d6000fd5b505050506040513d601f19601f820116820180604052508101906200075e919062001b11565b6001600160a01b0316145b620007bb5760405162461bcd60e51b815260206004820152603a602482015260008051602062005e94833981519152604482015260008051602062005eb4833981519152606482015260840162000349565b6001600160a01b03828116600090815260136020908152604090912080546001600160a01b03191692841692909217909155601454620008079160019062001671811b62001b4c17901c565b6014555050565b6006546001600160a01b03163314620008595760405162461bcd60e51b8152602060048201819052602482015260008051602062005ed4833981519152604482015260640162000349565b600e5481151560ff9091161515036200087157600080fd5b600e805460ff19168215159081179091556040519081527f7b014ed3854e7f5cb0218d58b3c6ae7d53a68bb0af2f67bfb029ea42c38a7e859060200160405180910390a150565b6006546001600160a01b03163314620009035760405162461bcd60e51b8152602060048201819052602482015260008051602062005ed4833981519152604482015260640162000349565b6001600160a01b0381166200096a5760405162461bcd60e51b815260206004820152602660248201527f4f776e61626c653a206e6577206f776e657220697320746865207a65726f206160448201526564647265737360d01b606482015260840162000349565b6006546040516001600160a01b0380841692169060008051602062005ef483398151915290600090a3600680546001600160a01b0319166001600160a01b0392909216919091179055565b600960009054906101000a90046001600160a01b03166001600160a01b0316630dfe16816040518163ffffffff1660e01b8152600401602060405180830381865afa15801562000a09573d6000803e3d6000fd5b505050506040513d601f19601f8201168201806040525081019062000a2f919062001b11565b6001600160a01b0316826001600160a01b03161415801562000adc5750600960009054906101000a90046001600160a01b03166001600160a01b031663d21220a76040518163ffffffff1660e01b8152600401602060405180830381865afa15801562000aa0573d6000803e3d6000fd5b505050506040513d601f19601f8201168201806040525081019062000ac6919062001b11565b6001600160a01b0316826001600160a01b031614155b15620012865760208301516001600160a01b031662000b505760405162461bcd60e51b815260206004820152602960248201527f5377617020706169722030206973206e656365737361727920627574206e6f74604482015268081cdd5c1c1b1a595960ba1b606482015260840162000349565b60408301516001600160a01b031662000bbe5760405162461bcd60e51b815260206004820152602960248201527f5377617020706169722031206973206e656365737361727920627574206e6f74604482015268081cdd5c1c1b1a595960ba1b606482015260840162000349565b602080840151601580546001600160a01b039283166001600160a01b031991821681179092556040808801516016805491861691909316179091558051630dfe168160e01b81529051928616939192630dfe1681926004808401939192918290030181865afa15801562000c36573d6000803e3d6000fd5b505050506040513d601f19601f8201168201806040525081019062000c5c919062001b11565b6001600160a01b0316148062000cea57506015546040805163d21220a760e01b815290516001600160a01b0380861693169163d21220a79160048083019260209291908290030181865afa15801562000cb9573d6000803e3d6000fd5b505050506040513d601f19601f8201168201806040525081019062000cdf919062001b11565b6001600160a01b0316145b62000d6c5760405162461bcd60e51b815260206004820152604560248201527f53776170207061697220737570706c69656420646f6573206e6f74206861766560448201527f207468652072657761726420746f6b656e206173206f6e65206f662069742773606482015264103830b4b960d91b608482015260a40162000349565b600960009054906101000a90046001600160a01b03166001600160a01b0316630dfe16816040518163ffffffff1660e01b8152600401602060405180830381865afa15801562000dc0573d6000803e3d6000fd5b505050506040513d601f19601f8201168201806040525081019062000de6919062001b11565b6001600160a01b0316601560009054906101000a90046001600160a01b03166001600160a01b0316630dfe16816040518163ffffffff1660e01b8152600401602060405180830381865afa15801562000e43573d6000803e3d6000fd5b505050506040513d601f19601f8201168201806040525081019062000e69919062001b11565b6001600160a01b0316148062000f825750600960009054906101000a90046001600160a01b03166001600160a01b0316630dfe16816040518163ffffffff1660e01b8152600401602060405180830381865afa15801562000ece573d6000803e3d6000fd5b505050506040513d601f19601f8201168201806040525081019062000ef4919062001b11565b6001600160a01b0316601560009054906101000a90046001600160a01b03166001600160a01b031663d21220a76040518163ffffffff1660e01b8152600401602060405180830381865afa15801562000f51573d6000803e3d6000fd5b505050506040513d601f19601f8201168201806040525081019062000f77919062001b11565b6001600160a01b0316145b62000ff65760405162461bcd60e51b815260206004820152603860248201527f537761702070616972203020737570706c69656420646f6573206e6f74206d6160448201527f74636820746865207061697220696e207175657374696f6e0000000000000000606482015260840162000349565b600960009054906101000a90046001600160a01b03166001600160a01b031663d21220a76040518163ffffffff1660e01b8152600401602060405180830381865afa1580156200104a573d6000803e3d6000fd5b505050506040513d601f19601f8201168201806040525081019062001070919062001b11565b6001600160a01b0316601660009054906101000a90046001600160a01b03166001600160a01b0316630dfe16816040518163ffffffff1660e01b8152600401602060405180830381865afa158015620010cd573d6000803e3d6000fd5b505050506040513d601f19601f82011682018060405250810190620010f3919062001b11565b6001600160a01b031614806200120c5750600960009054906101000a90046001600160a01b03166001600160a01b031663d21220a76040518163ffffffff1660e01b8152600401602060405180830381865afa15801562001158573d6000803e3d6000fd5b505050506040513d601f19601f820116820180604052508101906200117e919062001b11565b6001600160a01b0316601660009054906101000a90046001600160a01b03166001600160a01b031663d21220a76040518163ffffffff1660e01b8152600401602060405180830381865afa158015620011db573d6000803e3d6000fd5b505050506040513d601f19601f8201168201806040525081019062001201919062001b11565b6001600160a01b0316145b620012805760405162461bcd60e51b815260206004820152603860248201527f537761702070616972203120737570706c69656420646f6573206e6f74206d6160448201527f74636820746865207061697220696e207175657374696f6e0000000000000000606482015260840162000349565b620013f7565b600960009054906101000a90046001600160a01b03166001600160a01b0316630dfe16816040518163ffffffff1660e01b8152600401602060405180830381865afa158015620012da573d6000803e3d6000fd5b505050506040513d601f19601f8201168201806040525081019062001300919062001b11565b6001600160a01b0316826001600160a01b0316036200134157600954601680546001600160a01b0319166001600160a01b03909216919091179055620013f7565b600960009054906101000a90046001600160a01b03166001600160a01b031663d21220a76040518163ffffffff1660e01b8152600401602060405180830381865afa15801562001395573d6000803e3d6000fd5b505050506040513d601f19601f82011682018060405250810190620013bb919062001b11565b6001600160a01b0316826001600160a01b031603620013f757600954601580546001600160a01b0319166001600160a01b039092169190911790555b82600001516001600160a01b0316630dfe16816040518163ffffffff1660e01b8152600401602060405180830381865afa1580156200143a573d6000803e3d6000fd5b505050506040513d601f19601f8201168201806040525081019062001460919062001b11565b6001600160a01b0316816001600160a01b0316036200154d57816001600160a01b031683600001516001600160a01b031663d21220a76040518163ffffffff1660e01b8152600401602060405180830381865afa158015620014c6573d6000803e3d6000fd5b505050506040513d601f19601f82011682018060405250810190620014ec919062001b11565b6001600160a01b031614620015485760405162461bcd60e51b815260206004820152603a602482015260008051602062005e94833981519152604482015260008051602062005eb4833981519152606482015260840162000349565b505050565b816001600160a01b031683600001516001600160a01b0316630dfe16816040518163ffffffff1660e01b8152600401602060405180830381865afa1580156200159a573d6000803e3d6000fd5b505050506040513d601f19601f82011682018060405250810190620015c0919062001b11565b6001600160a01b03161480156200161f5750806001600160a01b031683600001516001600160a01b031663d21220a76040518163ffffffff1660e01b8152600401602060405180830381865afa158015620014c6573d6000803e3d6000fd5b620015485760405162461bcd60e51b815260206004820152603a602482015260008051602062005e94833981519152604482015260008051602062005eb4833981519152606482015260840162000349565b60006200167f828462001b2f565b9392505050565b828054620016949062001b4a565b90600052602060002090601f016020900481019282620016b8576000855562001703565b82601f10620016d357805160ff191683800117855562001703565b8280016001018555821562001703579182015b8281111562001703578251825591602001919060010190620016e6565b506200171192915062001715565b5090565b5b8082111562001711576000815560010162001716565b634e487b7160e01b600052604160045260246000fd5b604051606081016001600160401b03811182821017156200176757620017676200172c565b60405290565b604080519081016001600160401b03811182821017156200176757620017676200172c565b604051601f8201601f191681016001600160401b0381118282101715620017bd57620017bd6200172c565b604052919050565b600082601f830112620017d757600080fd5b81516001600160401b03811115620017f357620017f36200172c565b602062001809601f8301601f1916820162001792565b82815285828487010111156200181e57600080fd5b60005b838110156200183e57858101830151828201840152820162001821565b83811115620018505760008385840101525b5095945050505050565b80516001600160a01b03811681146200187257600080fd5b919050565b6000606082840312156200188a57600080fd5b6200189462001742565b9050620018a1826200185a565b8152620018b1602083016200185a565b6020820152620018c4604083016200185a565b604082015292915050565b600082601f830112620018e157600080fd5b815160206001600160401b03821115620018ff57620018ff6200172c565b6200190f818360051b0162001792565b82815260069290921b840181019181810190868411156200192f57600080fd5b8286015b848110156200198557604081890312156200194e5760008081fd5b620019586200176d565b62001963826200185a565b8152620019728583016200185a565b8186015283529183019160400162001933565b509695505050505050565b600060608284031215620019a357600080fd5b620019ad62001742565b905081518152602082015160208201526040820151604082015292915050565b6000806000806000806000806000806101c08b8d031215620019ee57600080fd5b8a516001600160401b038082111562001a0657600080fd5b62001a148e838f01620017c5565b9b5062001a2460208e016200185a565b9a5062001a3460408e016200185a565b995062001a4460608e016200185a565b985062001a558e60808f0162001877565b975060e08d015191508082111562001a6c57600080fd5b5062001a7b8d828e01620018cf565b95505062001a8d6101008c016200185a565b93506101208b0151925062001aa66101408c016200185a565b915062001ab88c6101608d0162001990565b90509295989b9194979a5092959850565b634e487b7160e01b600052603260045260246000fd5b634e487b7160e01b600052601160045260246000fd5b60006001820162001b0a5762001b0a62001adf565b5060010190565b60006020828403121562001b2457600080fd5b6200167f826200185a565b6000821982111562001b455762001b4562001adf565b500190565b600181811c9082168062001b5f57607f821691505b60208210810362001b8057634e487b7160e01b600052602260045260246000fd5b50919050565b6080516142c862001bcc6000396000818161056e01528181610f1e015281816114f601528181611dee01528181612565015281816129120152612b9001526142c86000f3fe608060405234801561001057600080fd5b50600436106103995760003560e01c80638980f11f116101e9578063b9e57b801161010f578063dd62ed3e116100ad578063ed24911d1161007c578063ed24911d14610822578063f2fde38b1461082a578063f7c618c11461083d578063fdb5a03e1461085057600080fd5b8063dd62ed3e146107b0578063dd8ce4d6146107e9578063e21ac825146107fc578063eab89a5a1461080f57600080fd5b8063c89039c5116100e9578063c89039c514610764578063cff1b6ef14610777578063d505accf1461078a578063da09c72c1461079d57600080fd5b8063b9e57b801461074b578063bd079f5514610753578063c4b24a461461075c57600080fd5b80639e4e731811610187578063a9059cbb11610156578063a9059cbb14610705578063ac0d31ff14610718578063b52a321f1461072b578063b6b55f251461073857600080fd5b80639e4e73181461068f578063a4d5e67c146106b6578063a5534e71146106c9578063a8ae2b7c146106f257600080fd5b80638da5cb5b116101c35780638da5cb5b146106505780639291d5631461066157806395d89b411461067457806399729ec11461067c57600080fd5b80638980f11f146106215780638aff733d146106345780638b73e6061461063d57600080fd5b8063483c2ef0116102ce57806370a082311161026c5780637ae267731161023b5780637ae26773146105d35780637d882097146105e65780637ecebe00146105ee578063818372301461060e57600080fd5b806370a0823114610590578063715018a6146105b9578063789139bc146105c157806379085425146105ca57600080fd5b80634e77ace5116102a85780634e77ace51461053a5780634ebb79161461054d5780635ea682ea146105605780635eaec0e41461056957600080fd5b8063483c2ef0146104f15780634a970be7146105145780634bebd1e71461052757600080fd5b80632e1a7d4d1161033b578063313ce56711610315578063313ce567146104905780633bdc6e72146104aa5780634005760a146104b357806340b47e1a146104de57600080fd5b80632e1a7d4d146104415780632f4f21e21461045657806330adf81f1461046957600080fd5b80630f23475d116103775780630f23475d146103f657806318160ddd146103fe57806320606b701461040757806323b872dd1461042e57600080fd5b806306fdde031461039e57806307677111146103bc578063095ea7b3146103d3575b600080fd5b6103a6610858565b6040516103b39190613ab2565b60405180910390f35b6103c5600f5481565b6040519081526020016103b3565b6103e66103e1366004613ada565b6108e6565b60405190151581526020016103b3565b6103c56108fc565b6103c560025481565b6103c57f8b73c3c69bb8fe3d512ecc4cf759cc79239f7b179b0ffacaa9a75d522b39400f81565b6103e661043c366004613b06565b610937565b61045461044f366004613b47565b610a1b565b005b610454610464366004613ada565b610afd565b6103c57f6e71edae12b1b97f4d1f60370fef10105fa2faae0126114a169c64845d6126c981565b610498601281565b60405160ff90911681526020016103b3565b6103c560075481565b6017546104c6906001600160a01b031681565b6040516001600160a01b0390911681526020016103b3565b6104546104ec366004613b60565b610b0b565b6103e66104ff366004613b99565b60086020526000908152604090205460ff1681565b610454610522366004613bcc565b610b3f565b610454610535366004613b99565b610bd8565b610454610548366004613c21565b610cd7565b61045461055b366004613b47565b610d60565b6103c560115481565b6103c57f000000000000000000000000000000000000000000000000000000000000000081565b6103c561059e366004613b99565b6001600160a01b031660009081526004602052604090205490565b610454610dfc565b6103c5600d5481565b6103c560145481565b6104546105e1366004613b60565b610e70565b6103c5610f16565b6103c56105fc366004613b99565b60056020526000908152604090205481565b61045461061c366004613b47565b610f48565b61045461062f366004613ada565b610fb3565b6103c560105481565b61045461064b366004613b99565b6110aa565b6006546001600160a01b03166104c6565b61045461066f366004613b99565b61122b565b6103a66112be565b61045461068a366004613b47565b6112cb565b6103c57fc89efdaa54c0f20c7adf612882df0950f5a951637e0307cdcb4c672f298b8bc681565b6104546106c4366004613b99565b611359565b6104c66106d7366004613b99565b6013602052600090815260409020546001600160a01b031681565b610454610700366004613b47565b6113bd565b6103e6610713366004613ada565b61144b565b610454610726366004613c3e565b611458565b600e546103e69060ff1681565b610454610746366004613b47565b611666565b6103c5611673565b6103c5600c5481565b6103c56116b2565b6009546104c6906001600160a01b031681565b610454610785366004613b47565b6116bd565b610454610798366004613c63565b611733565b600b546104c6906001600160a01b031681565b6103c56107be366004613b60565b6001600160a01b03918216600090815260036020908152604080832093909416825291909152205490565b6103c56107f7366004613b47565b611838565b61045461080a366004613b47565b611872565b6103c561081d366004613b47565b6118dd565b6103c5611911565b610454610838366004613b99565b6119b1565b600a546104c6906001600160a01b031681565b610454611a9c565b6000805461086590613cd1565b80601f016020809104026020016040519081016040528092919081815260200182805461089190613cd1565b80156108de5780601f106108b3576101008083540402835291602001916108de565b820191906000526020600020905b8154815290600101906020018083116108c157829003601f168201915b505050505081565b60006108f3338484611b58565b50600192915050565b600080610907610f16565b90506000806109236127105b61091d8585611c66565b90611c72565b905061092f8382611c7e565b935050505090565b6001600160a01b03831660008181526003602090815260408083203380855292528220549192909190821480159061097157506000198114155b15610a0257600061099d856040518060600160405280602f815260200161420f602f9139849190611c8a565b6001600160a01b038881166000818152600360209081526040808320948916808452948252918290208590559051848152939450919290917f8c5be1e5ebec7d5bd14f71427d1e84f3dd0314c0f7b2291e5b200ac8c7c3b925910160405180910390a3505b610a0d868686611cb6565b6001925050505b9392505050565b6000610a26826118dd565b905060008111610a7d5760405162461bcd60e51b815260206004820152601e60248201527f4d617374657243686566537472617465677956313a3a7769746864726177000060448201526064015b60405180910390fd5b610a8681611de9565b600080610a94612710610913565b600954909150610ab7906001600160a01b031633610ab28685611c7e565b611e13565b610ac13385611eea565b60405183815233907f884edad9ce6fa2440d8a54cc123490eb96d2768479d49ff9c7366125a9424364906020015b60405180910390a250505050565b610b078282611fc0565b5050565b600b546001600160a01b03163314610b355760405162461bcd60e51b8152600401610a7490613d0b565b610b078282612183565b60095460405163d505accf60e01b8152336004820152306024820152604481018790526064810186905260ff8516608482015260a4810184905260c481018390526001600160a01b039091169063d505accf9060e401600060405180830381600087803b158015610baf57600080fd5b505af1158015610bc3573d6000803e3d6000fd5b50505050610bd13386611fc0565b5050505050565b6006546001600160a01b03163314610c025760405162461bcd60e51b8152600401610a7490613d39565b6001600160a01b03811660009081526008602052604090205460ff1615610c6b5760405162461bcd60e51b815260206004820152601c60248201527f5065726d697373696f6e65643a3a616c6c6f774465706f7369746f72000000006044820152606401610a74565b6001600160a01b0381166000908152600860205260409020805460ff19166001908117909155600754610c9d91611b4c565b6007556040516001600160a01b038216907fc0a1035c16faf8d1304056d92c00edf028f87e62b8235a938f00af9e3c0312c590600090a250565b6006546001600160a01b03163314610d015760405162461bcd60e51b8152600401610a7490613d39565b600e5481151560ff909116151503610d1857600080fd5b600e805460ff19168215159081179091556040519081527f7b014ed3854e7f5cb0218d58b3c6ae7d53a68bb0af2f67bfb029ea42c38a7e85906020015b60405180910390a150565b6006546001600160a01b03163314610d8a5760405162461bcd60e51b8152600401610a7490613d39565b60008111610d9757600080fd5b604051339082156108fc029083906000818181858888f19350505050158015610dc4573d6000803e3d6000fd5b506040805160008152602081018390527f8c1256b8896378cd5044f80c202f9772b9d77dc85c8a6eb51967210b09bfaa289101610d55565b6006546001600160a01b03163314610e265760405162461bcd60e51b8152600401610a7490613d39565b6006546040516000916001600160a01b0316907f8be0079c531659141344cd1fd0a4f28419497f9722a3daafe3b4186f6b6457e0908390a3600680546001600160a01b0319169055565b6006546001600160a01b03163314610e9a5760405162461bcd60e51b8152600401610a7490613d39565b60405163095ea7b360e01b81526001600160a01b0382811660048301526000602483015283169063095ea7b3906044016020604051808303816000875af1158015610ee9573d6000803e3d6000fd5b505050506040513d601f19601f82011682018060405250810190610f0d9190613d6e565b610b0757600080fd5b600080610f427f0000000000000000000000000000000000000000000000000000000000000000612404565b92915050565b6006546001600160a01b03163314610f725760405162461bcd60e51b8152600401610a7490613d39565b600c5460408051918252602082018390527f481f79ac3a523b6d6db3c5a720e190e986d1cc1b41adcdf50f9caef849901100910160405180910390a1600c55565b6006546001600160a01b03163314610fdd5760405162461bcd60e51b8152600401610a7490613d39565b60008111610fea57600080fd5b60405163a9059cbb60e01b8152336004820152602481018290526001600160a01b0383169063a9059cbb906044016020604051808303816000875af1158015611037573d6000803e3d6000fd5b505050506040513d601f19601f8201168201806040525081019061105b9190613d6e565b61106457600080fd5b604080516001600160a01b0384168152602081018390527f8c1256b8896378cd5044f80c202f9772b9d77dc85c8a6eb51967210b09bfaa28910160405180910390a15050565b6006546001600160a01b031633146110d45760405162461bcd60e51b8152600401610a7490613d39565b6000600754116111435760405162461bcd60e51b815260206004820152603460248201527f5065726d697373696f6e65643a3a72656d6f76654465706f7369746f722c206e6044820152736f20616c6c6f776564206465706f7369746f727360601b6064820152608401610a74565b6001600160a01b03811660009081526008602052604090205460ff1615156001146111c35760405162461bcd60e51b815260206004820152602a60248201527f5065726d697373696f6e65643a3a72656d6f76654465706f7369746f722c206e6044820152691bdd08185b1b1bddd95960b21b6064820152608401610a74565b6001600160a01b0381166000908152600860205260409020805460ff191690556007546111f1906001611c7e565b6007556040516001600160a01b038216907f0e86f6608b536e5339a25b65ff531f5ea91e1313d056ecd4752b35cbd16137d490600090a250565b600b546001600160a01b031633146112555760405162461bcd60e51b8152600401610a7490613d0b565b600b54604080516001600160a01b03928316815291831660208301527fa8e91499ed37682f43cffb045fcc7d379a91e8c9a14e6321877ee34dee564c00910160405180910390a1600b80546001600160a01b0319166001600160a01b0392909216919091179055565b6001805461086590613cd1565b6006546001600160a01b031633146112f55760405162461bcd60e51b8152600401610a7490613d39565b61271061130d60105483611b4c90919063ffffffff16565b111561131857600080fd5b60115460408051918252602082018390527f2a42303d002f0ba6cfe8259c91d4684443fb0b3de286ba74991175d651726131910160405180910390a1601155565b600b546001600160a01b031633146113835760405162461bcd60e51b8152600401610a7490613d0b565b6001600160a01b038116600090815260136020526040902080546001600160a01b03191690556014546113b7906001611c7e565b60145550565b6006546001600160a01b031633146113e75760405162461bcd60e51b8152600401610a7490613d39565b6127106113ff60115483611b4c90919063ffffffff16565b111561140a57600080fd5b60105460408051918252602082018390527fe7f97d51d307dc44045597c9978bec0f842e6bb40d19b9444084cfa30d9ed4f2910160405180910390a1601055565b60006108f3338484611cb6565b6006546001600160a01b031633146114825760405162461bcd60e51b8152600401610a7490613d39565b6009546040516370a0823160e01b81523060048201526000916001600160a01b0316906370a0823190602401602060405180830381865afa1580156114cb573d6000803e3d6000fd5b505050506040513d601f19601f820116820180604052508101906114ef9190613d8b565b905061151a7f000000000000000000000000000000000000000000000000000000000000000061247e565b6009546040516370a0823160e01b81523060048201526000916001600160a01b0316906370a0823190602401602060405180830381865afa158015611563573d6000803e3d6000fd5b505050506040513d601f19601f820116820180604052508101906115879190613d8b565b9050836115948284611c7e565b10156115f45760405162461bcd60e51b815260206004820152602960248201527f4d617374657243686566537472617465677956313a3a7265736375654465706c6044820152686f79656446756e647360b81b6064820152608401610a74565b7fc7606d21ac05cd309191543e409f0845c016120563783d70e4f41419dc0ef23461161d610f16565b6002546040805192835260208301919091520160405180910390a1600e5460ff161515600114801561165157506001831515145b15611660576116606000610cd7565b50505050565b6116703382611fc0565b50565b60008061167e6116b2565b9050600c5481106116aa576116a461271061091d60105484611c6690919063ffffffff16565b91505090565b600091505090565b600080610a1461255b565b6006546001600160a01b031633146116e75760405162461bcd60e51b8152600401610a7490613d39565b80156116f257600080fd5b600f5460408051918252602082018390527f3cc372f330f95ac9540626dc8a25f5bf21ba607215a5d58304cb804d446f104a910160405180910390a1600f55565b428410156117755760405162461bcd60e51b815260206004820152600f60248201526e1c195c9b5a5d0e8e995e1c1a5c9959608a1b6044820152606401610a74565b6001600160a01b038716600090815260056020526040812080547f6e71edae12b1b97f4d1f60370fef10105fa2faae0126114a169c64845d6126c9918a918a918a9190866117c283613dba565b909155506040805160208101969096526001600160a01b0394851690860152929091166060840152608083015260a082015260c0810186905260e00160405160208183030381529060405280519060200120905061182388828686866127e1565b61182e888888611b58565b5050505050505050565b600061184e611845610f16565b60025490611c66565b600003611859575090565b610f42611864610f16565b60025461091d908590611c66565b6006546001600160a01b0316331461189c5760405162461bcd60e51b8152600401610a7490613d39565b600d5460408051918252602082018390527fa5dae50539d56dfe1fb5273d883b0c39bc76750a25d036fc5fbd09ad8fd5f57f910160405180910390a1600d55565b60006118ea611845610f16565b6000036118f957506000919050565b610f4260025461091d61190a610f16565b8590611c66565b60007f8b73c3c69bb8fe3d512ecc4cf759cc79239f7b179b0ffacaa9a75d522b39400f60001b60006040516119469190613dd3565b6040519081900390207fc89efdaa54c0f20c7adf612882df0950f5a951637e0307cdcb4c672f298b8bc646604080516020810195909552840192909252606083015260808201523060a082015260c00160405160208183030381529060405280519060200120905090565b6006546001600160a01b031633146119db5760405162461bcd60e51b8152600401610a7490613d39565b6001600160a01b038116611a405760405162461bcd60e51b815260206004820152602660248201527f4f776e61626c653a206e6577206f776e657220697320746865207a65726f206160448201526564647265737360d01b6064820152608401610a74565b6006546040516001600160a01b038084169216907f8be0079c531659141344cd1fd0a4f28419497f9722a3daafe3b4186f6b6457e090600090a3600680546001600160a01b0319166001600160a01b0392909216919091179055565b323314611ae25760405162461bcd60e51b815260206004820152601460248201527359616b53747261746567793a3a6f6e6c79454f4160601b6044820152606401610a74565b600080611aed61255b565b91509150600c54811015611b435760405162461bcd60e51b815260206004820152601e60248201527f4d617374657243686566537472617465677956313a3a7265696e7665737400006044820152606401610a74565b610b078261290d565b6000610a148284613e6e565b6001600160a01b038316611bae5760405162461bcd60e51b815260206004820152601c60248201527f5f617070726f76653a3a6f776e6572207a65726f2061646472657373000000006044820152606401610a74565b6001600160a01b038216611c045760405162461bcd60e51b815260206004820152601e60248201527f5f617070726f76653a3a7370656e646572207a65726f206164647265737300006044820152606401610a74565b6001600160a01b0383811660008181526003602090815260408083209487168084529482529182902085905590518481527f8c5be1e5ebec7d5bd14f71427d1e84f3dd0314c0f7b2291e5b200ac8c7c3b92591015b60405180910390a3505050565b6000610a148284613e86565b6000610a148284613ea5565b6000610a148284613ec7565b60008184841115611cae5760405162461bcd60e51b8152600401610a749190613ab2565b505050900390565b6001600160a01b038216611d295760405162461bcd60e51b815260206004820152603460248201527f5f7472616e73666572546f6b656e733a2063616e6e6f74207472616e7366657260448201527320746f20746865207a65726f206164647265737360601b6064820152608401610a74565b611d66816040518060600160405280602e8152602001614265602e91396001600160a01b0386166000908152600460205260409020549190611c8a565b6001600160a01b038085166000908152600460205260408082209390935590841681522054611d959082611b4c565b6001600160a01b0380841660008181526004602052604090819020939093559151908516907fddf252ad1be2c89b69c2b068fc378daa952ba7f163c4a11628f55a4df523b3ef90611c599085815260200190565b6116707f000000000000000000000000000000000000000000000000000000000000000082612a35565b60405163a9059cbb60e01b81526001600160a01b0383811660048301526024820183905284169063a9059cbb906044016020604051808303816000875af1158015611e62573d6000803e3d6000fd5b505050506040513d601f19601f82011682018060405250810190611e869190613d6e565b611ee55760405162461bcd60e51b815260206004820152602a60248201527f4d617374657243686566537472617465677956313a3a5452414e534645525f466044820152691493d357d1905253115160b21b6064820152608401610a74565b505050565b611f278160405180606001604052806027815260200161423e602791396001600160a01b0385166000908152600460205260409020549190611c8a565b60046000846001600160a01b03166001600160a01b0316815260200190815260200160002081905550611f77816040518060600160405280602781526020016141e8602791396002549190611c8a565b6002556040518181526000906001600160a01b038416907fddf252ad1be2c89b69c2b068fc378daa952ba7f163c4a11628f55a4df523b3ef906020015b60405180910390a35050565b600e5460ff1615156001146120175760405162461bcd60e51b815260206004820152601e60248201527f4d617374657243686566537472617465677956313a3a5f6465706f73697400006044820152606401610a74565b600d54156120445760008061202a61255b565b91509150600d54811115612041576120418261290d565b50505b6009546040516323b872dd60e01b8152336004820152306024820152604481018390526001600160a01b03909116906323b872dd906064016020604051808303816000875af115801561209b573d6000803e3d6000fd5b505050506040513d601f19601f820116820180604052508101906120bf9190613d6e565b6121195760405162461bcd60e51b815260206004820152602560248201527f4d617374657243686566537472617465677956313a3a7472616e736665722066604482015264185a5b195960da1b6064820152608401610a74565b600080612127612710610913565b905061213f8461213a6107f78685611c7e565b612aa5565b61214883612b29565b836001600160a01b03167fe1fffcc4923d04b559f4d29a8bfc6cda04eb5b0d3c460751c2402c5c5cc9109c84604051610aef91815260200190565b600a546001600160a01b038381169116146123c157806001600160a01b0316630dfe16816040518163ffffffff1660e01b8152600401602060405180830381865afa1580156121d6573d6000803e3d6000fd5b505050506040513d601f19601f820116820180604052508101906121fa9190613ede565b6001600160a01b0316826001600160a01b0316036122ad57600a546040805163d21220a760e01b815290516001600160a01b039283169284169163d21220a79160048083019260209291908290030181865afa15801561225e573d6000803e3d6000fd5b505050506040513d601f19601f820116820180604052508101906122829190613ede565b6001600160a01b0316146122a85760405162461bcd60e51b8152600401610a7490613efb565b6123c1565b600a5460408051630dfe168160e01b815290516001600160a01b0392831692841691630dfe16819160048083019260209291908290030181865afa1580156122f9573d6000803e3d6000fd5b505050506040513d601f19601f8201168201806040525081019061231d9190613ede565b6001600160a01b03161480156123a55750816001600160a01b0316816001600160a01b031663d21220a76040518163ffffffff1660e01b8152600401602060405180830381865afa158015612376573d6000803e3d6000fd5b505050506040513d601f19601f8201168201806040525081019061239a9190613ede565b6001600160a01b0316145b6123c15760405162461bcd60e51b8152600401610a7490613efb565b6001600160a01b03828116600090815260136020526040902080546001600160a01b0319169183169190911790556014546123fd906001611b4c565b6014555050565b6017546040516393f1a40b60e01b8152600481018390523060248201526000916001600160a01b0316906393f1a40b906044016040805180830381865afa158015612453573d6000803e3d6000fd5b505050506040513d601f19601f820116820180604052508101906124779190613f58565b5092915050565b6017546040516302f940c760e41b8152600481018390523060248201526001600160a01b0390911690632f940c7090604401600060405180830381600087803b1580156124ca57600080fd5b505af11580156124de573d6000803e3d6000fd5b505060095460175460405163095ea7b360e01b81526001600160a01b039182166004820152600060248201529116925063095ea7b391506044016020604051808303816000875af1158015612537573d6000803e3d6000fd5b505050506040513d601f19601f82011682018060405250810190610b079190613d6e565b60606000806125897f0000000000000000000000000000000000000000000000000000000000000000612bb5565b600a546040516370a0823160e01b81523060048201529192506000916001600160a01b03909116906370a0823190602401602060405180830381865afa1580156125d7573d6000803e3d6000fd5b505050506040513d601f19601f820116820180604052508101906125fb9190613d8b565b905060005b82518110156127d757600083828151811061261d5761261d613f7c565b602002602001015160000151905060006013600086858151811061264357612643613f7c565b602090810291909101810151516001600160a01b03908116835290820192909252604090810160009081205491516370a0823160e01b81523060048201529183169350918416906370a0823190602401602060405180830381865afa1580156126b0573d6000803e3d6000fd5b505050506040513d601f19601f820116820180604052508101906126d49190613d8b565b600a549091506001600160a01b0384811691161461278e57600061271e87868151811061270357612703613f7c565b60200260200101516020015183611b4c90919063ffffffff16565b905060008111801561273857506001600160a01b03831615155b1561278857600a546127629061275b90839087906001600160a01b031687612ec9565b8790611b4c565b95508087868151811061277757612777613f7c565b602002602001015160200181815250505b506127c1565b6127be8685815181106127a3576127a3613f7c565b60200260200101516020015186611b4c90919063ffffffff16565b94505b50505080806127cf90613dba565b915050612600565b5090939092509050565b60006127eb611911565b60405161190160f01b602082015260228101919091526042810186905260620160408051601f198184030181528282528051602091820120600080855291840180845281905260ff88169284019290925260608301869052608083018590529092509060019060a0016020604051602081039080840390855afa158015612876573d6000803e3d6000fd5b5050604051601f1901519150506001600160a01b038116158015906128ac5750866001600160a01b0316816001600160a01b0316145b6129045760405162461bcd60e51b8152602060048201526024808201527f417263683a3a76616c69646174655369673a20696e76616c6964207369676e616044820152637475726560e01b6064820152608401610a74565b50505050505050565b6129367f0000000000000000000000000000000000000000000000000000000000000000612f87565b600061294182612fe7565b9050600061296061271061091d60115485611c6690919063ffffffff16565b9050801561298557600a54600b54612985916001600160a01b03908116911683611e13565b60006129a261271061091d60105486611c6690919063ffffffff16565b905080156129c157600a546129c1906001600160a01b03163383611e13565b60006129df6129da836129d48787611c7e565b90611c7e565b6131c0565b90506129ea81612b29565b7fc7606d21ac05cd309191543e409f0845c016120563783d70e4f41419dc0ef234612a13610f16565b6002546040805192835260208301919091520160405180910390a15050505050565b601754604051630ad58d2f60e01b815260048101849052602481018390523060448201526001600160a01b0390911690630ad58d2f906064015b600060405180830381600087803b158015612a8957600080fd5b505af1158015612a9d573d6000803e3d6000fd5b505050505050565b600254612ab29082611b4c565b6002556001600160a01b038216600090815260046020526040902054612ad89082611b4c565b6001600160a01b0383166000818152600460205260408082209390935591519091907fddf252ad1be2c89b69c2b068fc378daa952ba7f163c4a11628f55a4df523b3ef90611fb49085815260200190565b60008111612b8b5760405162461bcd60e51b815260206004820152602960248201527f4d617374657243686566537472617465677956313a3a5f7374616b654465706f604482015268736974546f6b656e7360b81b6064820152608401610a74565b6116707f0000000000000000000000000000000000000000000000000000000000000000826131ef565b601754604051634c4b4f4160e11b8152600481018390523060248201526060916000916001600160a01b03909116906398969e8290604401602060405180830381865afa158015612c0a573d6000803e3d6000fd5b505050506040513d601f19601f82011682018060405250810190612c2e9190613d8b565b60175460405163c346253d60e01b8152600481018690529192506000916001600160a01b039091169063c346253d90602401602060405180830381865afa158015612c7d573d6000803e3d6000fd5b505050506040513d601f19601f82011682018060405250810190612ca19190613ede565b905060606001600160a01b03821615612e455760405163d63b3c4960e01b8152600060048201819052306024830152604482018590529081906001600160a01b0385169063d63b3c4990606401600060405180830381865afa158015612d0b573d6000803e3d6000fd5b505050506040513d6000823e601f3d908101601f19168201604052612d339190810190614068565b81519193509150612d45906001611b4c565b67ffffffffffffffff811115612d5d57612d5d613f92565b604051908082528060200260200182016040528015612da257816020015b6040805180820190915260008082526020820152815260200190600190039081612d7b5790505b50925060005b8251811015612e3d576040518060400160405280848381518110612dce57612dce613f7c565b60200260200101516001600160a01b03168152602001838381518110612df657612df6613f7c565b602002602001015181525084826001612e0f9190613e6e565b81518110612e1f57612e1f613f7c565b60200260200101819052508080612e3590613dba565b915050612da8565b505050612e84565b60408051600180825281830190925290816020015b6040805180820190915260008082526020820152815260200190600190039081612e5a5790505090505b604080518082019091526018546001600160a01b031681526020810184905281518290600090612eb657612eb6613f7c565b6020908102919091010152949350505050565b600080612ed685856132a7565b509050600080846001600160a01b0316630902f1ac6040518163ffffffff1660e01b8152600401606060405180830381865afa158015612f1a573d6000803e3d6000fd5b505050506040513d601f19601f82011682018060405250810190612f3e9190614144565b5091509150866001600160a01b0316836001600160a01b031614612f5e57905b612f7b88836001600160701b0316836001600160701b03166132d8565b98975050505050505050565b601754604051630c7e663b60e11b8152600481018390523060248201526001600160a01b03909116906318fccc7690604401600060405180830381600087803b158015612fd357600080fd5b505af1158015610bd1573d6000803e3d6000fd5b600a546040516370a0823160e01b815230600482015260009182916001600160a01b03909116906370a0823190602401602060405180830381865afa158015613034573d6000803e3d6000fd5b505050506040513d601f19601f820116820180604052508101906130589190613d8b565b905060005b835181101561247757600084828151811061307a5761307a613f7c565b602090810291909101810151516001600160a01b0380821660009081526013909352604083205488519294501691908790859081106130bb576130bb613f7c565b602002602001015160200151905060008111156131aa57600a546001600160a01b03908116908416036131735747801561316d5773b31f66aa3c1e785363f0875a1b74e27b85fd66c76001600160a01b031663d0e30db0826040518263ffffffff1660e01b81526004016000604051808303818588803b15801561313e57600080fd5b505af1158015613152573d6000803e3d6000fd5b505050505061316a8287611b4c90919063ffffffff16565b95505b506131aa565b6001600160a01b038216156131aa57600a546131a7906131a090839086906001600160a01b031686613326565b8690611b4c565b94505b50505080806131b890613dba565b91505061305d565b600a54600954601554601654600093610f429386936001600160a01b039283169391831692908116911661349a565b60095460175460405163095ea7b360e01b81526001600160a01b0391821660048201526024810184905291169063095ea7b3906044016020604051808303816000875af1158015613244573d6000803e3d6000fd5b505050506040513d601f19601f820116820180604052508101906132689190613d6e565b50601754604051638dbdbe6d60e01b815260048101849052602481018390523060448201526001600160a01b0390911690638dbdbe6d90606401612a6f565b600080826001600160a01b0316846001600160a01b0316106132ca5782846132cd565b83835b915091509250929050565b6000806132e7856103e5611c66565b905060006132f58285611c66565b9050600061330f83613309886103e8611c66565b90611b4c565b905061331b8282611c72565b979650505050505050565b60008061333385856132a7565b509050600080846001600160a01b0316630902f1ac6040518163ffffffff1660e01b8152600401606060405180830381865afa158015613377573d6000803e3d6000fd5b505050506040513d601f19601f8201168201806040525081019061339b9190614144565b5091509150866001600160a01b0316836001600160a01b0316146133bb57905b6000806133db8a856001600160701b0316856001600160701b03166132d8565b9050886001600160a01b0316856001600160a01b0316146133f857905b61340c6001600160a01b038a16888c61363e565b6040805160008152602081019182905263022c0d9f60e01b9091526001600160a01b0388169063022c0d9f9061344b9085908590309060248101614194565b600060405180830381600087803b15801561346557600080fd5b505af1158015613479573d6000803e3d6000fd5b5050505081811161348a578161348c565b805b9a9950505050505050505050565b6000806134a8876002611c72565b9050600081116135125760405162461bcd60e51b815260206004820152602f60248201527f4465784c6962726172793a3a5f636f6e76657274526577617264546f6b656e7360448201526e546f4465706f736974546f6b656e7360881b6064820152608401610a74565b6000856001600160a01b0316630dfe16816040518163ffffffff1660e01b8152600401602060405180830381865afa158015613552573d6000803e3d6000fd5b505050506040513d601f19601f820116820180604052508101906135769190613ede565b9050816001600160a01b038881169083161461359b5761359883898489613326565b90505b6000876001600160a01b031663d21220a76040518163ffffffff1660e01b8152600401602060405180830381865afa1580156135db573d6000803e3d6000fd5b505050506040513d601f19601f820116820180604052508101906135ff9190613ede565b9050836001600160a01b038a81169083161461362457613621858b848a613326565b90505b61362f898483613690565b9b9a5050505050505050505050565b604080516001600160a01b038416602482015260448082018490528251808303909101815260649091019091526020810180516001600160e01b031663a9059cbb60e01b179052611ee590849061386c565b6000806000856001600160a01b0316630902f1ac6040518163ffffffff1660e01b8152600401606060405180830381865afa1580156136d3573d6000803e3d6000fd5b505050506040513d601f19601f820116820180604052508101906136f79190614144565b5091509150600061371b86846001600160701b0316846001600160701b031661393e565b9050848111156137485784905061374585836001600160701b0316856001600160701b031661393e565b95505b6137bf8787896001600160a01b0316630dfe16816040518163ffffffff1660e01b8152600401602060405180830381865afa15801561378b573d6000803e3d6000fd5b505050506040513d601f19601f820116820180604052508101906137af9190613ede565b6001600160a01b0316919061363e565b6138028782896001600160a01b031663d21220a76040518163ffffffff1660e01b8152600401602060405180830381865afa15801561378b573d6000803e3d6000fd5b6040516335313c2160e11b81523060048201526001600160a01b03881690636a627842906024016020604051808303816000875af1158015613848573d6000803e3d6000fd5b505050506040513d601f19601f8201168201806040525081019061331b9190613d8b565b60006138c1826040518060400160405280602081526020017f5361666545524332303a206c6f772d6c6576656c2063616c6c206661696c6564815250856001600160a01b03166139569092919063ffffffff16565b805190915015611ee557808060200190518101906138df9190613d6e565b611ee55760405162461bcd60e51b815260206004820152602a60248201527f5361666545524332303a204552433230206f7065726174696f6e20646964206e6044820152691bdd081cdd58d8d9595960b21b6064820152608401610a74565b600061394e8361091d8685611c66565b949350505050565b606061394e8484600085856001600160a01b0385163b6139b85760405162461bcd60e51b815260206004820152601d60248201527f416464726573733a2063616c6c20746f206e6f6e2d636f6e74726163740000006044820152606401610a74565b600080866001600160a01b031685876040516139d491906141cb565b60006040518083038185875af1925050503d8060008114613a11576040519150601f19603f3d011682016040523d82523d6000602084013e613a16565b606091505b509150915061331b82828660608315613a30575081610a14565b825115613a405782518084602001fd5b8160405162461bcd60e51b8152600401610a749190613ab2565b60005b83811015613a75578181015183820152602001613a5d565b838111156116605750506000910152565b60008151808452613a9e816020860160208601613a5a565b601f01601f19169290920160200192915050565b602081526000610a146020830184613a86565b6001600160a01b038116811461167057600080fd5b60008060408385031215613aed57600080fd5b8235613af881613ac5565b946020939093013593505050565b600080600060608486031215613b1b57600080fd5b8335613b2681613ac5565b92506020840135613b3681613ac5565b929592945050506040919091013590565b600060208284031215613b5957600080fd5b5035919050565b60008060408385031215613b7357600080fd5b8235613b7e81613ac5565b91506020830135613b8e81613ac5565b809150509250929050565b600060208284031215613bab57600080fd5b8135610a1481613ac5565b803560ff81168114613bc757600080fd5b919050565b600080600080600060a08688031215613be457600080fd5b8535945060208601359350613bfb60408701613bb6565b94979396509394606081013594506080013592915050565b801515811461167057600080fd5b600060208284031215613c3357600080fd5b8135610a1481613c13565b60008060408385031215613c5157600080fd5b823591506020830135613b8e81613c13565b600080600080600080600060e0888a031215613c7e57600080fd5b8735613c8981613ac5565b96506020880135613c9981613ac5565b95506040880135945060608801359350613cb560808901613bb6565b925060a0880135915060c0880135905092959891949750929550565b600181811c90821680613ce557607f821691505b602082108103613d0557634e487b7160e01b600052602260045260246000fd5b50919050565b6020808252601490820152732cb0b5a9ba3930ba32b3bc9d1d37b7363ca232bb60611b604082015260600190565b6020808252818101527f4f776e61626c653a2063616c6c6572206973206e6f7420746865206f776e6572604082015260600190565b600060208284031215613d8057600080fd5b8151610a1481613c13565b600060208284031215613d9d57600080fd5b5051919050565b634e487b7160e01b600052601160045260246000fd5b600060018201613dcc57613dcc613da4565b5060010190565b600080835481600182811c915080831680613def57607f831692505b60208084108203613e0e57634e487b7160e01b86526022600452602486fd5b818015613e225760018114613e3357613e60565b60ff19861689528489019650613e60565b60008a81526020902060005b86811015613e585781548b820152908501908301613e3f565b505084890196505b509498975050505050505050565b60008219821115613e8157613e81613da4565b500190565b6000816000190483118215151615613ea057613ea0613da4565b500290565b600082613ec257634e487b7160e01b600052601260045260246000fd5b500490565b600082821015613ed957613ed9613da4565b500390565b600060208284031215613ef057600080fd5b8151610a1481613ac5565b6020808252603a908201527f537761702070616972207377617050616972506f6f6c52657761726420646f6560408201527f73206e6f7420636f6e7461696e2072657761726420746f6b656e000000000000606082015260800190565b60008060408385031215613f6b57600080fd5b505080516020909101519092909150565b634e487b7160e01b600052603260045260246000fd5b634e487b7160e01b600052604160045260246000fd5b604051601f8201601f1916810167ffffffffffffffff81118282101715613fd157613fd1613f92565b604052919050565b600067ffffffffffffffff821115613ff357613ff3613f92565b5060051b60200190565b600082601f83011261400e57600080fd5b8151602061402361401e83613fd9565b613fa8565b82815260059290921b8401810191818101908684111561404257600080fd5b8286015b8481101561405d5780518352918301918301614046565b509695505050505050565b6000806040838503121561407b57600080fd5b825167ffffffffffffffff8082111561409357600080fd5b818501915085601f8301126140a757600080fd5b815160206140b761401e83613fd9565b82815260059290921b840181019181810190898411156140d657600080fd5b948201945b838610156140fd5785516140ee81613ac5565b825294820194908201906140db565b9188015191965090935050508082111561411657600080fd5b5061412385828601613ffd565b9150509250929050565b80516001600160701b0381168114613bc757600080fd5b60008060006060848603121561415957600080fd5b6141628461412d565b92506141706020850161412d565b9150604084015163ffffffff8116811461418957600080fd5b809150509250925092565b84815283602082015260018060a01b03831660408201526080606082015260006141c16080830184613a86565b9695505050505050565b600082516141dd818460208701613a5a565b919091019291505056fe5f6275726e3a206275726e20616d6f756e74206578636565647320746f74616c20737570706c797472616e7366657246726f6d3a207472616e7366657220616d6f756e74206578636565647320616c6c6f77616e63655f6275726e3a206275726e20616d6f756e7420657863656564732066726f6d2062616c616e63655f7472616e73666572546f6b656e733a207472616e7366657220657863656564732066726f6d2062616c616e6365a264697066735822122035fc5114e9f57d30588d3e13d4a78bac6a069695312252b782b8d54ef65f500e64736f6c634300080d0033537761702070616972207377617050616972506f6f6c52657761726420646f6573206e6f7420636f6e7461696e2072657761726420746f6b656e0000000000004f776e61626c653a2063616c6c6572206973206e6f7420746865206f776e65728be0079c531659141344cd1fd0a4f28419497f9722a3daafe3b4186f6b6457e0",
    "linkReferences": {}
  },
  "methodIdentifiers": {
    "ADMIN_FEE_BIPS()": "07677111",
    "DEPOSITS_ENABLED()": "b52a321f",
    "DEV_FEE_BIPS()": "5ea682ea",
    "DOMAIN_TYPEHASH()": "20606b70",
    "MAX_TOKENS_TO_DEPOSIT_WITHOUT_REINVEST()": "789139bc",
    "MIN_TOKENS_TO_REINVEST()": "bd079f55",
    "PERMIT_TYPEHASH()": "30adf81f",
    "PID()": "5eaec0e4",
    "REINVEST_REWARD_BIPS()": "8aff733d",
    "VERSION_HASH()": "9e4e7318",
    "addReward(address,address)": "40b47e1a",
    "allowDepositor(address)": "4bebd1e7",
    "allowance(address,address)": "dd62ed3e",
    "allowedDepositors(address)": "483c2ef0",
    "approve(address,uint256)": "095ea7b3",
    "balanceOf(address)": "70a08231",
    "checkReward()": "c4b24a46",
    "decimals()": "313ce567",
    "deposit(uint256)": "b6b55f25",
    "depositFor(address,uint256)": "2f4f21e2",
    "depositToken()": "c89039c5",
    "depositWithPermit(uint256,uint256,uint8,bytes32,bytes32)": "4a970be7",
    "devAddr()": "da09c72c",
    "estimateDeployedBalance()": "0f23475d",
    "estimateReinvestReward()": "b9e57b80",
    "getDepositTokensForShares(uint256)": "eab89a5a",
    "getDomainSeparator()": "ed24911d",
    "getSharesForDepositTokens(uint256)": "dd8ce4d6",
    "miniChef()": "4005760a",
    "name()": "06fdde03",
    "nonces(address)": "7ecebe00",
    "numberOfAllowedDepositors()": "3bdc6e72",
    "owner()": "8da5cb5b",
    "permit(address,address,uint256,uint256,uint8,bytes32,bytes32)": "d505accf",
    "recoverAVAX(uint256)": "4ebb7916",
    "recoverERC20(address,uint256)": "8980f11f",
    "reinvest()": "fdb5a03e",
    "removeDepositor(address)": "8b73e606",
    "removeReward(address)": "a4d5e67c",
    "renounceOwnership()": "715018a6",
    "rescueDeployedFunds(uint256,bool)": "ac0d31ff",
    "revokeAllowance(address,address)": "7ae26773",
    "rewardCount()": "79085425",
    "rewardSwapPairs(address)": "a5534e71",
    "rewardToken()": "f7c618c1",
    "symbol()": "95d89b41",
    "totalDeposits()": "7d882097",
    "totalSupply()": "18160ddd",
    "transfer(address,uint256)": "a9059cbb",
    "transferFrom(address,address,uint256)": "23b872dd",
    "transferOwnership(address)": "f2fde38b",
    "updateAdminFee(uint256)": "cff1b6ef",
    "updateDepositsEnabled(bool)": "4e77ace5",
    "updateDevAddr(address)": "9291d563",
    "updateDevFee(uint256)": "99729ec1",
    "updateMaxTokensToDepositWithoutReinvest(uint256)": "e21ac825",
    "updateMinTokensToReinvest(uint256)": "81837230",
    "updateReinvestReward(uint256)": "a8ae2b7c",
    "withdraw(uint256)": "2e1a7d4d"
  },
  "id": 115
}