{
  "abi": [
    {
      "inputs": [
        {
          "internalType": "string",
          "name": "_name",
          "type": "string"
        },
        {
          "internalType": "address",
          "name": "_depositToken",
          "type": "address"
        },
        {
          "internalType": "address",
          "name": "_swapPairDepositToken",
          "type": "address"
        },
        {
          "components": [
            {
              "internalType": "address",
              "name": "reward",
              "type": "address"
            },
            {
              "internalType": "address",
              "name": "swapPair",
              "type": "address"
            }
          ],
          "internalType": "struct VariableRewardsStrategy.RewardSwapPairs[]",
          "name": "_rewardSwapPairs",
          "type": "tuple[]"
        },
        {
          "internalType": "address",
          "name": "_stakingContract",
          "type": "address"
        },
        {
          "internalType": "address",
          "name": "_boosterFeeCollector",
          "type": "address"
        },
        {
          "internalType": "address",
          "name": "_timelock",
          "type": "address"
        },
        {
          "components": [
            {
              "internalType": "uint256",
              "name": "minTokensToReinvest",
              "type": "uint256"
            },
            {
              "internalType": "uint256",
              "name": "devFeeBips",
              "type": "uint256"
            },
            {
              "internalType": "uint256",
              "name": "reinvestRewardBips",
              "type": "uint256"
            }
          ],
          "internalType": "struct YakStrategyV2.StrategySettings",
          "name": "_strategySettings",
          "type": "tuple"
        }
      ],
      "stateMutability": "nonpayable",
      "type": "constructor"
    },
    {
      "anonymous": false,
      "inputs": [
        {
          "indexed": false,
          "internalType": "address",
          "name": "rewardToken",
          "type": "address"
        },
        {
          "indexed": false,
          "internalType": "address",
          "name": "swapPair",
          "type": "address"
        }
      ],
      "name": "AddReward",
      "type": "event"
    },
    {
      "anonymous": false,
      "inputs": [
        {
          "indexed": true,
          "internalType": "address",
          "name": "account",
          "type": "address"
        }
      ],
      "name": "AllowDepositor",
      "type": "event"
    },
    {
      "anonymous": false,
      "inputs": [
        {
          "indexed": true,
          "internalType": "address",
          "name": "owner",
          "type": "address"
        },
        {
          "indexed": true,
          "internalType": "address",
          "name": "spender",
          "type": "address"
        },
        {
          "indexed": false,
          "internalType": "uint256",
          "name": "value",
          "type": "uint256"
        }
      ],
      "name": "Approval",
      "type": "event"
    },
    {
      "anonymous": false,
      "inputs": [
        {
          "indexed": true,
          "internalType": "address",
          "name": "account",
          "type": "address"
        },
        {
          "indexed": false,
          "internalType": "uint256",
          "name": "amount",
          "type": "uint256"
        }
      ],
      "name": "Deposit",
      "type": "event"
    },
    {
      "anonymous": false,
      "inputs": [
        {
          "indexed": false,
          "internalType": "bool",
          "name": "newValue",
          "type": "bool"
        }
      ],
      "name": "DepositsEnabled",
      "type": "event"
    },
    {
      "anonymous": false,
      "inputs": [
        {
          "indexed": true,
          "internalType": "address",
          "name": "previousOwner",
          "type": "address"
        },
        {
          "indexed": true,
          "internalType": "address",
          "name": "newOwner",
          "type": "address"
        }
      ],
      "name": "OwnershipTransferred",
      "type": "event"
    },
    {
      "anonymous": false,
      "inputs": [
        {
          "indexed": false,
          "internalType": "address",
          "name": "token",
          "type": "address"
        },
        {
          "indexed": false,
          "internalType": "uint256",
          "name": "amount",
          "type": "uint256"
        }
      ],
      "name": "Recovered",
      "type": "event"
    },
    {
      "anonymous": false,
      "inputs": [
        {
          "indexed": false,
          "internalType": "uint256",
          "name": "newTotalDeposits",
          "type": "uint256"
        },
        {
          "indexed": false,
          "internalType": "uint256",
          "name": "newTotalSupply",
          "type": "uint256"
        }
      ],
      "name": "Reinvest",
      "type": "event"
    },
    {
      "anonymous": false,
      "inputs": [
        {
          "indexed": true,
          "internalType": "address",
          "name": "account",
          "type": "address"
        }
      ],
      "name": "RemoveDepositor",
      "type": "event"
    },
    {
      "anonymous": false,
      "inputs": [
        {
          "indexed": false,
          "internalType": "address",
          "name": "rewardToken",
          "type": "address"
        }
      ],
      "name": "RemoveReward",
      "type": "event"
    },
    {
      "anonymous": false,
      "inputs": [
        {
          "indexed": true,
          "internalType": "address",
          "name": "from",
          "type": "address"
        },
        {
          "indexed": true,
          "internalType": "address",
          "name": "to",
          "type": "address"
        },
        {
          "indexed": false,
          "internalType": "uint256",
          "name": "value",
          "type": "uint256"
        }
      ],
      "name": "Transfer",
      "type": "event"
    },
    {
      "anonymous": false,
      "inputs": [
        {
          "indexed": false,
          "internalType": "uint256",
          "name": "oldValue",
          "type": "uint256"
        },
        {
          "indexed": false,
          "internalType": "uint256",
          "name": "newValue",
          "type": "uint256"
        }
      ],
      "name": "UpdateAdminFee",
      "type": "event"
    },
    {
      "anonymous": false,
      "inputs": [
        {
          "indexed": false,
          "internalType": "address",
          "name": "oldValue",
          "type": "address"
        },
        {
          "indexed": false,
          "internalType": "address",
          "name": "newValue",
          "type": "address"
        }
      ],
      "name": "UpdateDevAddr",
      "type": "event"
    },
    {
      "anonymous": false,
      "inputs": [
        {
          "indexed": false,
          "internalType": "uint256",
          "name": "oldValue",
          "type": "uint256"
        },
        {
          "indexed": false,
          "internalType": "uint256",
          "name": "newValue",
          "type": "uint256"
        }
      ],
      "name": "UpdateDevFee",
      "type": "event"
    },
    {
      "anonymous": false,
      "inputs": [
        {
          "indexed": false,
          "internalType": "uint256",
          "name": "oldValue",
          "type": "uint256"
        },
        {
          "indexed": false,
          "internalType": "uint256",
          "name": "newValue",
          "type": "uint256"
        }
      ],
      "name": "UpdateMaxTokensToDepositWithoutReinvest",
      "type": "event"
    },
    {
      "anonymous": false,
      "inputs": [
        {
          "indexed": false,
          "internalType": "uint256",
          "name": "oldValue",
          "type": "uint256"
        },
        {
          "indexed": false,
          "internalType": "uint256",
          "name": "newValue",
          "type": "uint256"
        }
      ],
      "name": "UpdateMinTokensToReinvest",
      "type": "event"
    },
    {
      "anonymous": false,
      "inputs": [
        {
          "indexed": false,
          "internalType": "uint256",
          "name": "oldValue",
          "type": "uint256"
        },
        {
          "indexed": false,
          "internalType": "uint256",
          "name": "newValue",
          "type": "uint256"
        }
      ],
      "name": "UpdateReinvestReward",
      "type": "event"
    },
    {
      "anonymous": false,
      "inputs": [
        {
          "indexed": true,
          "internalType": "address",
          "name": "account",
          "type": "address"
        },
        {
          "indexed": false,
          "internalType": "uint256",
          "name": "amount",
          "type": "uint256"
        }
      ],
      "name": "Withdraw",
      "type": "event"
    },
    {
      "inputs": [],
      "name": "ADMIN_FEE_BIPS",
      "outputs": [
        {
          "internalType": "uint256",
          "name": "",
          "type": "uint256"
        }
      ],
      "stateMutability": "view",
      "type": "function"
    },
    {
      "inputs": [],
      "name": "DEPOSITS_ENABLED",
      "outputs": [
        {
          "internalType": "bool",
          "name": "",
          "type": "bool"
        }
      ],
      "stateMutability": "view",
      "type": "function"
    },
    {
      "inputs": [],
      "name": "DEV_FEE_BIPS",
      "outputs": [
        {
          "internalType": "uint256",
          "name": "",
          "type": "uint256"
        }
      ],
      "stateMutability": "view",
      "type": "function"
    },
    {
      "inputs": [],
      "name": "DOMAIN_TYPEHASH",
      "outputs": [
        {
          "internalType": "bytes32",
          "name": "",
          "type": "bytes32"
        }
      ],
      "stateMutability": "view",
      "type": "function"
    },
    {
      "inputs": [],
      "name": "MAX_TOKENS_TO_DEPOSIT_WITHOUT_REINVEST",
      "outputs": [
        {
          "internalType": "uint256",
          "name": "",
          "type": "uint256"
        }
      ],
      "stateMutability": "view",
      "type": "function"
    },
    {
      "inputs": [],
      "name": "MIN_TOKENS_TO_REINVEST",
      "outputs": [
        {
          "internalType": "uint256",
          "name": "",
          "type": "uint256"
        }
      ],
      "stateMutability": "view",
      "type": "function"
    },
    {
      "inputs": [],
      "name": "PERMIT_TYPEHASH",
      "outputs": [
        {
          "internalType": "bytes32",
          "name": "",
          "type": "bytes32"
        }
      ],
      "stateMutability": "view",
      "type": "function"
    },
    {
      "inputs": [],
      "name": "REINVEST_REWARD_BIPS",
      "outputs": [
        {
          "internalType": "uint256",
          "name": "",
          "type": "uint256"
        }
      ],
      "stateMutability": "view",
      "type": "function"
    },
    {
      "inputs": [],
      "name": "VERSION_HASH",
      "outputs": [
        {
          "internalType": "bytes32",
          "name": "",
          "type": "bytes32"
        }
      ],
      "stateMutability": "view",
      "type": "function"
    },
    {
      "inputs": [
        {
          "internalType": "address",
          "name": "_rewardToken",
          "type": "address"
        },
        {
          "internalType": "address",
          "name": "_swapPair",
          "type": "address"
        }
      ],
      "name": "addReward",
      "outputs": [],
      "stateMutability": "nonpayable",
      "type": "function"
    },
    {
      "inputs": [
        {
          "internalType": "address",
          "name": "depositor",
          "type": "address"
        }
      ],
      "name": "allowDepositor",
      "outputs": [],
      "stateMutability": "nonpayable",
      "type": "function"
    },
    {
      "inputs": [
        {
          "internalType": "address",
          "name": "account",
          "type": "address"
        },
        {
          "internalType": "address",
          "name": "spender",
          "type": "address"
        }
      ],
      "name": "allowance",
      "outputs": [
        {
          "internalType": "uint256",
          "name": "",
          "type": "uint256"
        }
      ],
      "stateMutability": "view",
      "type": "function"
    },
    {
      "inputs": [
        {
          "internalType": "address",
          "name": "",
          "type": "address"
        }
      ],
      "name": "allowedDepositors",
      "outputs": [
        {
          "internalType": "bool",
          "name": "",
          "type": "bool"
        }
      ],
      "stateMutability": "view",
      "type": "function"
    },
    {
      "inputs": [
        {
          "internalType": "address",
          "name": "spender",
          "type": "address"
        },
        {
          "internalType": "uint256",
          "name": "amount",
          "type": "uint256"
        }
      ],
      "name": "approve",
      "outputs": [
        {
          "internalType": "bool",
          "name": "",
          "type": "bool"
        }
      ],
      "stateMutability": "nonpayable",
      "type": "function"
    },
    {
      "inputs": [
        {
          "internalType": "address",
          "name": "account",
          "type": "address"
        }
      ],
      "name": "balanceOf",
      "outputs": [
        {
          "internalType": "uint256",
          "name": "",
          "type": "uint256"
        }
      ],
      "stateMutability": "view",
      "type": "function"
    },
    {
      "inputs": [],
      "name": "boosterFeeCollector",
      "outputs": [
        {
          "internalType": "contract IBoosterFeeCollector",
          "name": "",
          "type": "address"
        }
      ],
      "stateMutability": "view",
      "type": "function"
    },
    {
      "inputs": [
        {
          "internalType": "uint256",
          "name": "_amount",
          "type": "uint256"
        }
      ],
      "name": "calculateDepositFee",
      "outputs": [
        {
          "internalType": "uint256",
          "name": "",
          "type": "uint256"
        }
      ],
      "stateMutability": "view",
      "type": "function"
    },
    {
      "inputs": [
        {
          "internalType": "uint256",
          "name": "_amount",
          "type": "uint256"
        }
      ],
      "name": "calculateWithdrawFee",
      "outputs": [
        {
          "internalType": "uint256",
          "name": "",
          "type": "uint256"
        }
      ],
      "stateMutability": "view",
      "type": "function"
    },
    {
      "inputs": [],
      "name": "checkReward",
      "outputs": [
        {
          "internalType": "uint256",
          "name": "",
          "type": "uint256"
        }
      ],
      "stateMutability": "view",
      "type": "function"
    },
    {
      "inputs": [],
      "name": "decimals",
      "outputs": [
        {
          "internalType": "uint8",
          "name": "",
          "type": "uint8"
        }
      ],
      "stateMutability": "view",
      "type": "function"
    },
    {
      "inputs": [
        {
          "internalType": "uint256",
          "name": "_amount",
          "type": "uint256"
        }
      ],
      "name": "deposit",
      "outputs": [],
      "stateMutability": "nonpayable",
      "type": "function"
    },
    {
      "inputs": [
        {
          "internalType": "address",
          "name": "_account",
          "type": "address"
        },
        {
          "internalType": "uint256",
          "name": "_amount",
          "type": "uint256"
        }
      ],
      "name": "depositFor",
      "outputs": [],
      "stateMutability": "nonpayable",
      "type": "function"
    },
    {
      "inputs": [],
      "name": "depositToken",
      "outputs": [
        {
          "internalType": "contract IERC20",
          "name": "",
          "type": "address"
        }
      ],
      "stateMutability": "view",
      "type": "function"
    },
    {
      "inputs": [
        {
          "internalType": "uint256",
          "name": "_amount",
          "type": "uint256"
        },
        {
          "internalType": "uint256",
          "name": "_deadline",
          "type": "uint256"
        },
        {
          "internalType": "uint8",
          "name": "_v",
          "type": "uint8"
        },
        {
          "internalType": "bytes32",
          "name": "_r",
          "type": "bytes32"
        },
        {
          "internalType": "bytes32",
          "name": "_s",
          "type": "bytes32"
        }
      ],
      "name": "depositWithPermit",
      "outputs": [],
      "stateMutability": "nonpayable",
      "type": "function"
    },
    {
      "inputs": [],
      "name": "devAddr",
      "outputs": [
        {
          "internalType": "address",
          "name": "",
          "type": "address"
        }
      ],
      "stateMutability": "view",
      "type": "function"
    },
    {
      "inputs": [],
      "name": "estimateDeployedBalance",
      "outputs": [
        {
          "internalType": "uint256",
          "name": "",
          "type": "uint256"
        }
      ],
      "stateMutability": "view",
      "type": "function"
    },
    {
      "inputs": [],
      "name": "estimateReinvestReward",
      "outputs": [
        {
          "internalType": "uint256",
          "name": "",
          "type": "uint256"
        }
      ],
      "stateMutability": "view",
      "type": "function"
    },
    {
      "inputs": [
        {
          "internalType": "uint256",
          "name": "amount",
          "type": "uint256"
        }
      ],
      "name": "getDepositTokensForShares",
      "outputs": [
        {
          "internalType": "uint256",
          "name": "",
          "type": "uint256"
        }
      ],
      "stateMutability": "view",
      "type": "function"
    },
    {
      "inputs": [],
      "name": "getDomainSeparator",
      "outputs": [
        {
          "internalType": "bytes32",
          "name": "",
          "type": "bytes32"
        }
      ],
      "stateMutability": "view",
      "type": "function"
    },
    {
      "inputs": [
        {
          "internalType": "uint256",
          "name": "amount",
          "type": "uint256"
        }
      ],
      "name": "getSharesForDepositTokens",
      "outputs": [
        {
          "internalType": "uint256",
          "name": "",
          "type": "uint256"
        }
      ],
      "stateMutability": "view",
      "type": "function"
    },
    {
      "inputs": [],
      "name": "name",
      "outputs": [
        {
          "internalType": "string",
          "name": "",
          "type": "string"
        }
      ],
      "stateMutability": "view",
      "type": "function"
    },
    {
      "inputs": [
        {
          "internalType": "address",
          "name": "",
          "type": "address"
        }
      ],
      "name": "nonces",
      "outputs": [
        {
          "internalType": "uint256",
          "name": "",
          "type": "uint256"
        }
      ],
      "stateMutability": "view",
      "type": "function"
    },
    {
      "inputs": [],
      "name": "numberOfAllowedDepositors",
      "outputs": [
        {
          "internalType": "uint256",
          "name": "",
          "type": "uint256"
        }
      ],
      "stateMutability": "view",
      "type": "function"
    },
    {
      "inputs": [],
      "name": "owner",
      "outputs": [
        {
          "internalType": "address",
          "name": "",
          "type": "address"
        }
      ],
      "stateMutability": "view",
      "type": "function"
    },
    {
      "inputs": [
        {
          "internalType": "address",
          "name": "owner",
          "type": "address"
        },
        {
          "internalType": "address",
          "name": "spender",
          "type": "address"
        },
        {
          "internalType": "uint256",
          "name": "value",
          "type": "uint256"
        },
        {
          "internalType": "uint256",
          "name": "deadline",
          "type": "uint256"
        },
        {
          "internalType": "uint8",
          "name": "v",
          "type": "uint8"
        },
        {
          "internalType": "bytes32",
          "name": "r",
          "type": "bytes32"
        },
        {
          "internalType": "bytes32",
          "name": "s",
          "type": "bytes32"
        }
      ],
      "name": "permit",
      "outputs": [],
      "stateMutability": "nonpayable",
      "type": "function"
    },
    {
      "inputs": [
        {
          "internalType": "uint256",
          "name": "amount",
          "type": "uint256"
        }
      ],
      "name": "recoverAVAX",
      "outputs": [],
      "stateMutability": "nonpayable",
      "type": "function"
    },
    {
      "inputs": [
        {
          "internalType": "address",
          "name": "tokenAddress",
          "type": "address"
        },
        {
          "internalType": "uint256",
          "name": "tokenAmount",
          "type": "uint256"
        }
      ],
      "name": "recoverERC20",
      "outputs": [],
      "stateMutability": "nonpayable",
      "type": "function"
    },
    {
      "inputs": [],
      "name": "reinvest",
      "outputs": [],
      "stateMutability": "nonpayable",
      "type": "function"
    },
    {
      "inputs": [
        {
          "internalType": "address",
          "name": "depositor",
          "type": "address"
        }
      ],
      "name": "removeDepositor",
      "outputs": [],
      "stateMutability": "nonpayable",
      "type": "function"
    },
    {
      "inputs": [
        {
          "internalType": "address",
          "name": "_rewardToken",
          "type": "address"
        }
      ],
      "name": "removeReward",
      "outputs": [],
      "stateMutability": "nonpayable",
      "type": "function"
    },
    {
      "inputs": [],
      "name": "renounceOwnership",
      "outputs": [],
      "stateMutability": "nonpayable",
      "type": "function"
    },
    {
      "inputs": [
        {
          "internalType": "uint256",
          "name": "_minReturnAmountAccepted",
          "type": "uint256"
        },
        {
          "internalType": "bool",
          "name": "",
          "type": "bool"
        }
      ],
      "name": "rescueDeployedFunds",
      "outputs": [],
      "stateMutability": "nonpayable",
      "type": "function"
    },
    {
      "inputs": [
        {
          "internalType": "address",
          "name": "token",
          "type": "address"
        },
        {
          "internalType": "address",
          "name": "spender",
          "type": "address"
        }
      ],
      "name": "revokeAllowance",
      "outputs": [],
      "stateMutability": "nonpayable",
      "type": "function"
    },
    {
      "inputs": [],
      "name": "rewardCount",
      "outputs": [
        {
          "internalType": "uint256",
          "name": "",
          "type": "uint256"
        }
      ],
      "stateMutability": "view",
      "type": "function"
    },
    {
      "inputs": [
        {
          "internalType": "address",
          "name": "",
          "type": "address"
        }
      ],
      "name": "rewardSwapPairs",
      "outputs": [
        {
          "internalType": "address",
          "name": "",
          "type": "address"
        }
      ],
      "stateMutability": "view",
      "type": "function"
    },
    {
      "inputs": [],
      "name": "rewardToken",
      "outputs": [
        {
          "internalType": "contract IERC20",
          "name": "",
          "type": "address"
        }
      ],
      "stateMutability": "view",
      "type": "function"
    },
    {
      "inputs": [
        {
          "internalType": "uint256",
          "name": "",
          "type": "uint256"
        }
      ],
      "name": "supportedRewards",
      "outputs": [
        {
          "internalType": "address",
          "name": "",
          "type": "address"
        }
      ],
      "stateMutability": "view",
      "type": "function"
    },
    {
      "inputs": [],
      "name": "symbol",
      "outputs": [
        {
          "internalType": "string",
          "name": "",
          "type": "string"
        }
      ],
      "stateMutability": "view",
      "type": "function"
    },
    {
      "inputs": [],
      "name": "totalDeposits",
      "outputs": [
        {
          "internalType": "uint256",
          "name": "",
          "type": "uint256"
        }
      ],
      "stateMutability": "view",
      "type": "function"
    },
    {
      "inputs": [],
      "name": "totalSupply",
      "outputs": [
        {
          "internalType": "uint256",
          "name": "",
          "type": "uint256"
        }
      ],
      "stateMutability": "view",
      "type": "function"
    },
    {
      "inputs": [
        {
          "internalType": "address",
          "name": "dst",
          "type": "address"
        },
        {
          "internalType": "uint256",
          "name": "amount",
          "type": "uint256"
        }
      ],
      "name": "transfer",
      "outputs": [
        {
          "internalType": "bool",
          "name": "",
          "type": "bool"
        }
      ],
      "stateMutability": "nonpayable",
      "type": "function"
    },
    {
      "inputs": [
        {
          "internalType": "address",
          "name": "src",
          "type": "address"
        },
        {
          "internalType": "address",
          "name": "dst",
          "type": "address"
        },
        {
          "internalType": "uint256",
          "name": "amount",
          "type": "uint256"
        }
      ],
      "name": "transferFrom",
      "outputs": [
        {
          "internalType": "bool",
          "name": "",
          "type": "bool"
        }
      ],
      "stateMutability": "nonpayable",
      "type": "function"
    },
    {
      "inputs": [
        {
          "internalType": "address",
          "name": "newOwner",
          "type": "address"
        }
      ],
      "name": "transferOwnership",
      "outputs": [],
      "stateMutability": "nonpayable",
      "type": "function"
    },
    {
      "inputs": [
        {
          "internalType": "uint256",
          "name": "newValue",
          "type": "uint256"
        }
      ],
      "name": "updateAdminFee",
      "outputs": [],
      "stateMutability": "nonpayable",
      "type": "function"
    },
    {
      "inputs": [
        {
          "internalType": "address",
          "name": "_collector",
          "type": "address"
        }
      ],
      "name": "updateBoosterFeeCollector",
      "outputs": [],
      "stateMutability": "nonpayable",
      "type": "function"
    },
    {
      "inputs": [
        {
          "internalType": "bool",
          "name": "newValue",
          "type": "bool"
        }
      ],
      "name": "updateDepositsEnabled",
      "outputs": [],
      "stateMutability": "nonpayable",
      "type": "function"
    },
    {
      "inputs": [
        {
          "internalType": "address",
          "name": "newValue",
          "type": "address"
        }
      ],
      "name": "updateDevAddr",
      "outputs": [],
      "stateMutability": "nonpayable",
      "type": "function"
    },
    {
      "inputs": [
        {
          "internalType": "uint256",
          "name": "newValue",
          "type": "uint256"
        }
      ],
      "name": "updateDevFee",
      "outputs": [],
      "stateMutability": "nonpayable",
      "type": "function"
    },
    {
      "inputs": [
        {
          "internalType": "uint256",
          "name": "newValue",
          "type": "uint256"
        }
      ],
      "name": "updateMaxTokensToDepositWithoutReinvest",
      "outputs": [],
      "stateMutability": "nonpayable",
      "type": "function"
    },
    {
      "inputs": [
        {
          "internalType": "uint256",
          "name": "newValue",
          "type": "uint256"
        }
      ],
      "name": "updateMinTokensToReinvest",
      "outputs": [],
      "stateMutability": "nonpayable",
      "type": "function"
    },
    {
      "inputs": [
        {
          "internalType": "uint256",
          "name": "newValue",
          "type": "uint256"
        }
      ],
      "name": "updateReinvestReward",
      "outputs": [],
      "stateMutability": "nonpayable",
      "type": "function"
    },
    {
      "inputs": [],
      "name": "vectorMainStaking",
      "outputs": [
        {
          "internalType": "contract IVectorMainStaking",
          "name": "",
          "type": "address"
        }
      ],
      "stateMutability": "view",
      "type": "function"
    },
    {
      "inputs": [
        {
          "internalType": "uint256",
          "name": "_amount",
          "type": "uint256"
        }
      ],
      "name": "withdraw",
      "outputs": [],
      "stateMutability": "nonpayable",
      "type": "function"
    }
  ],
  "bytecode": {
    "object": "0x60e0604052600960a0819052685969656c642059616b60b81b60c09081526200002c916000919062000ada565b506040805180820190915260038082526216549560ea1b6020909201918252620000599160019162000ada565b503480156200006757600080fd5b50604051620055c1380380620055c18339810160408190526200008a9162000d31565b878787878585858584848480600033600680546001600160a01b0319166001600160a01b03831690811790915560405191925090600090600080516020620055a1833981519152908290a3508051620000e3906200028a565b6020810151620000f3906200031a565b60408101516200010390620003d1565b5084516200011990600090602088019062000ada565b50600980546001600160a01b0386166001600160a01b031991821617909155600a8054821673b31f66aa3c1e785363f0875a1b74e27b85fd66c7179055600b8054909116732d580f9cf2fb2d09bc411532988f2afda4e7beff17905560005b8351811015620001e957620001d48482815181106200019b576200019b62000e87565b602002602001015160000151858381518110620001bc57620001bc62000e87565b6020026020010151602001516200048860201b60201c565b80620001e08162000eb3565b91505062000178565b50620001f6600162000611565b6200020182620006bb565b60408051600080825260208201527fc7606d21ac05cd309191543e409f0845c016120563783d70e4f41419dc0ef234910160405180910390a150505050506200025084620007b860201b60201c565b505050506001600160a01b039586166080525050601680546001600160a01b03191693909416929092179092555062000f44945050505050565b6006546001600160a01b03163314620002d95760405162461bcd60e51b815260206004820181905260248201526000805160206200558183398151915260448201526064015b60405180910390fd5b600c5460408051918252602082018390527f481f79ac3a523b6d6db3c5a720e190e986d1cc1b41adcdf50f9caef849901100910160405180910390a1600c55565b6006546001600160a01b03163314620003655760405162461bcd60e51b81526020600482018190526024820152600080516020620055818339815191526044820152606401620002d0565b6127106200038460105483620008a060201b620020201790919060201c565b11156200039057600080fd5b60115460408051918252602082018390527f2a42303d002f0ba6cfe8259c91d4684443fb0b3de286ba74991175d651726131910160405180910390a1601155565b6006546001600160a01b031633146200041c5760405162461bcd60e51b81526020600482018190526024820152600080516020620055818339815191526044820152606401620002d0565b6127106200043b60115483620008a060201b620020201790919060201c565b11156200044757600080fd5b60105460408051918252602082018390527fe7f97d51d307dc44045597c9978bec0f842e6bb40d19b9444084cfa30d9ed4f2910160405180910390a1601055565b600a546001600160a01b038381169116146200054157620004cb8183600a60009054906101000a90046001600160a01b0316620008b560201b6200202c1760201c565b62000541576040805162461bcd60e51b81526020600482015260248101919091527f5661726961626c655265776172647353747261746567793a3a5377617020706160448201527f697220646f6573206e6f7420636f6e7461696e2072657761726420746f6b656e6064820152608401620002d0565b6001600160a01b038083166000818152601260209081526040822080549486166001600160a01b03199586161790556013805460018181018355919093527f66de8ffda797e3de9c05e8fc57b3bf0ec28a930d40b0d285d93c06501cf6a0909092018054909416909217909255601454620005c792909162002020620008a0821b17901c565b601455604080516001600160a01b038085168252831660208201527f916e172c080569186aa7ea048268267257cf7cc49505908863f747bca8620f80910160405180910390a15050565b6006546001600160a01b031633146200065c5760405162461bcd60e51b81526020600482018190526024820152600080516020620055818339815191526044820152606401620002d0565b600e5481151560ff9091161515036200067457600080fd5b600e805460ff19168215159081179091556040519081527f7b014ed3854e7f5cb0218d58b3c6ae7d53a68bb0af2f67bfb029ea42c38a7e859060200160405180910390a150565b6006546001600160a01b03163314620007065760405162461bcd60e51b81526020600482018190526024820152600080516020620055818339815191526044820152606401620002d0565b6001600160a01b0381166200076d5760405162461bcd60e51b815260206004820152602660248201527f4f776e61626c653a206e6577206f776e657220697320746865207a65726f206160448201526564647265737360d01b6064820152608401620002d0565b6006546040516001600160a01b03808416921690600080516020620055a183398151915290600090a3600680546001600160a01b0319166001600160a01b0392909216919091179055565b600954600a54620007e49183916001600160a01b039182169116620008b5602090811b6200202c17901c565b6200087e5760405162461bcd60e51b815260206004820152605a60248201527f5661726961626c65526577617264735374726174656779466f7253413a3a737760448201527f6170506169724465706f736974546f6b656e20646f6573206e6f74206d61746360648201527f68206465706f73697420616e642072657761726420746f6b656e000000000000608482015260a401620002d0565b601580546001600160a01b0319166001600160a01b0392909216919091179055565b6000620008ae828462000ecf565b9392505050565b6000836001600160a01b0316630dfe16816040518163ffffffff1660e01b8152600401602060405180830381865afa158015620008f6573d6000803e3d6000fd5b505050506040513d601f19601f820116820180604052508101906200091c919062000eea565b6001600160a01b0316836001600160a01b03161480620009b15750836001600160a01b031663d21220a76040518163ffffffff1660e01b8152600401602060405180830381865afa15801562000976573d6000803e3d6000fd5b505050506040513d601f19601f820116820180604052508101906200099c919062000eea565b6001600160a01b0316836001600160a01b0316145b801562000ab35750836001600160a01b0316630dfe16816040518163ffffffff1660e01b8152600401602060405180830381865afa158015620009f8573d6000803e3d6000fd5b505050506040513d601f19601f8201168201806040525081019062000a1e919062000eea565b6001600160a01b0316826001600160a01b0316148062000ab35750836001600160a01b031663d21220a76040518163ffffffff1660e01b8152600401602060405180830381865afa15801562000a78573d6000803e3d6000fd5b505050506040513d601f19601f8201168201806040525081019062000a9e919062000eea565b6001600160a01b0316826001600160a01b0316145b801562000ad25750816001600160a01b0316836001600160a01b031614155b949350505050565b82805462000ae89062000f08565b90600052602060002090601f01602090048101928262000b0c576000855562000b57565b82601f1062000b2757805160ff191683800117855562000b57565b8280016001018555821562000b57579182015b8281111562000b5757825182559160200191906001019062000b3a565b5062000b6592915062000b69565b5090565b5b8082111562000b65576000815560010162000b6a565b634e487b7160e01b600052604160045260246000fd5b604080519081016001600160401b038111828210171562000bbb5762000bbb62000b80565b60405290565b604051601f8201601f191681016001600160401b038111828210171562000bec5762000bec62000b80565b604052919050565b80516001600160a01b038116811462000c0c57600080fd5b919050565b600082601f83011262000c2357600080fd5b815160206001600160401b0382111562000c415762000c4162000b80565b62000c51818360051b0162000bc1565b82815260069290921b8401810191818101908684111562000c7157600080fd5b8286015b8481101562000cc7576040818903121562000c905760008081fd5b62000c9a62000b96565b62000ca58262000bf4565b815262000cb485830162000bf4565b8186015283529183019160400162000c75565b509695505050505050565b60006060828403121562000ce557600080fd5b604051606081016001600160401b038111828210171562000d0a5762000d0a62000b80565b80604052508091508251815260208301516020820152604083015160408201525092915050565b600080600080600080600080610140898b03121562000d4f57600080fd5b88516001600160401b038082111562000d6757600080fd5b818b0191508b601f83011262000d7c57600080fd5b81518181111562000d915762000d9162000b80565b602062000da7601f8301601f1916820162000bc1565b8281528e8284870101111562000dbc57600080fd5b60005b8381101562000ddc57858101830151828201840152820162000dbf565b8381111562000dee5760008385840101525b509b5062000dfe8d820162000bf4565b9a50505062000e1060408c0162000bf4565b975060608b015191508082111562000e2757600080fd5b5062000e368b828c0162000c11565b95505062000e4760808a0162000bf4565b935062000e5760a08a0162000bf4565b925062000e6760c08a0162000bf4565b915062000e788a60e08b0162000cd2565b90509295985092959890939650565b634e487b7160e01b600052603260045260246000fd5b634e487b7160e01b600052601160045260246000fd5b60006001820162000ec85762000ec862000e9d565b5060010190565b6000821982111562000ee55762000ee562000e9d565b500190565b60006020828403121562000efd57600080fd5b620008ae8262000bf4565b600181811c9082168062000f1d57607f821691505b60208210810362000f3e57634e487b7160e01b600052602260045260246000fd5b50919050565b60805161461a62000f676000396000818161061e0152612ac7015261461a6000f3fe608060405234801561001057600080fd5b50600436106103c55760003560e01c806381837230116101ff578063b9e57b801161011a578063dd8ce4d6116100ad578063ed24911d1161007c578063ed24911d14610887578063f2fde38b1461088f578063f7c618c1146108a2578063fdb5a03e146108b557600080fd5b8063dd8ce4d61461083b578063e21ac8251461084e578063e75ab04514610861578063eab89a5a1461087457600080fd5b8063cff1b6ef116100e9578063cff1b6ef146107c9578063d505accf146107dc578063da09c72c146107ef578063dd62ed3e1461080257600080fd5b8063b9e57b801461079d578063bd079f55146107a5578063c4b24a46146107ae578063c89039c5146107b657600080fd5b80639e4e731811610192578063a9059cbb11610161578063a9059cbb14610757578063ac0d31ff1461076a578063b52a321f1461077d578063b6b55f251461078a57600080fd5b80639e4e7318146106e1578063a4d5e67c14610708578063a5534e711461071b578063a8ae2b7c1461074457600080fd5b80638da5cb5b116101ce5780638da5cb5b146106a25780639291d563146106b357806395d89b41146106c657806399729ec1146106ce57600080fd5b806381837230146106605780638980f11f146106735780638aff733d146106865780638b73e6061461068f57600080fd5b806340b47e1a116102ef57806370a08231116102825780637ae26773116102515780637ae26773146105fe5780637d882097146106115780637e08c185146106195780637ecebe001461064057600080fd5b806370a08231146105bb578063715018a6146105e4578063789139bc146105ec57806379085425146105f557600080fd5b80634e77ace5116102be5780634e77ace5146105795780634ebb79161461058c5780635ea682ea1461059f5780636c8b4b52146105a857600080fd5b806340b47e1a1461051d578063483c2ef0146105305780634a970be7146105535780634bebd1e71461056657600080fd5b806320606b70116103675780632f4f21e2116103365780632f4f21e2146104c057806330adf81f146104d3578063313ce567146104fa5780633bdc6e721461051457600080fd5b806320606b701461047157806323b872dd14610498578063247d284b146104555780632e1a7d4d146104ab57600080fd5b80630f23475d116103a35780630f23475d146104225780630fccc4001461042a578063110560351461045557806318160ddd1461046857600080fd5b806306fdde03146103ca57806307677111146103e8578063095ea7b3146103ff575b600080fd5b6103d26108bd565b6040516103df9190613f11565b60405180910390f35b6103f1600f5481565b6040519081526020016103df565b61041261040d366004613f39565b61094b565b60405190151581526020016103df565b6103f1610961565b60165461043d906001600160a01b031681565b6040516001600160a01b0390911681526020016103df565b6103f1610463366004613f65565b61098c565b6103f160025481565b6103f17f8b73c3c69bb8fe3d512ecc4cf759cc79239f7b179b0ffacaa9a75d522b39400f81565b6104126104a6366004613f7e565b61099d565b6104be6104b9366004613f65565b610a81565b005b6104be6104ce366004613f39565b610b7c565b6103f17f6e71edae12b1b97f4d1f60370fef10105fa2faae0126114a169c64845d6126c981565b610502601281565b60405160ff90911681526020016103df565b6103f160075481565b6104be61052b366004613fbf565b610b8a565b61041261053e366004613ff8565b60086020526000908152604090205460ff1681565b6104be61056136600461402b565b610bbe565b6104be610574366004613ff8565b610c57565b6104be610587366004614080565b610d56565b6104be61059a366004613f65565b610ddf565b6103f160115481565b6104be6105b6366004613ff8565b610e76565b6103f16105c9366004613ff8565b6001600160a01b031660009081526004602052604090205490565b6104be610ec2565b6103f1600d5481565b6103f160145481565b6104be61060c366004613fbf565b610f36565b6103f1610fdb565b61043d7f000000000000000000000000000000000000000000000000000000000000000081565b6103f161064e366004613ff8565b60056020526000908152604090205481565b6104be61066e366004613f65565b611054565b6104be610681366004613f39565b6110bf565b6103f160105481565b6104be61069d366004613ff8565b6111ad565b6006546001600160a01b031661043d565b6104be6106c1366004613ff8565b61132e565b6103d26113c1565b6104be6106dc366004613f65565b6113ce565b6103f17fc89efdaa54c0f20c7adf612882df0950f5a951637e0307cdcb4c672f298b8bc681565b6104be610716366004613ff8565b61145c565b61043d610729366004613ff8565b6012602052600090815260409020546001600160a01b031681565b6104be610752366004613f65565b611662565b610412610765366004613f39565b6116f0565b6104be61077836600461409d565b6116fd565b600e546104129060ff1681565b6104be610798366004613f65565b611905565b6103f1611912565b6103f1600c5481565b6103f1611957565b60095461043d906001600160a01b031681565b6104be6107d7366004613f65565b611bc5565b6104be6107ea3660046140c2565b611c3b565b600b5461043d906001600160a01b031681565b6103f1610810366004613fbf565b6001600160a01b03918216600090815260036020908152604080832093909416825291909152205490565b6103f1610849366004613f65565b611d40565b6104be61085c366004613f65565b611d7a565b61043d61086f366004613f65565b611de5565b6103f1610882366004613f65565b611e0f565b6103f1611e43565b6104be61089d366004613ff8565b611ee3565b600a5461043d906001600160a01b031681565b6104be611fce565b600080546108ca90614130565b80601f01602080910402602001604051908101604052809291908181526020018280546108f690614130565b80156109435780601f1061091857610100808354040283529160200191610943565b820191906000526020600020905b81548152906001019060200180831161092657829003601f168201915b505050505081565b6000610958338484612241565b50600192915050565b60008061096c610fdb565b905060006109798261234f565b90506109858282612362565b9250505090565b60006109978261234f565b92915050565b6001600160a01b0383166000818152600360209081526040808320338085529252822054919290919082148015906109d757506000198114155b15610a68576000610a03856040518060600160405280602f8152602001614561602f913984919061236e565b6001600160a01b038881166000818152600360209081526040808320948916808452948252918290208590559051848152939450919290917f8c5be1e5ebec7d5bd14f71427d1e84f3dd0314c0f7b2291e5b200ac8c7c3b925910160405180910390a3505b610a7386868661239a565b6001925050505b9392505050565b6000610a8c82611e0f565b905060008111610afc5760405162461bcd60e51b815260206004820152603060248201527f5661726961626c655265776172647353747261746567793a3a5769746864726160448201526f7720616d6f756e7420746f6f206c6f7760801b60648201526084015b60405180910390fd5b6000610b07826124cd565b90506000610b148361234f565b9050610b3733610b248484612362565b6009546001600160a01b03169190612626565b610b413385612681565b60405183815233907f884edad9ce6fa2440d8a54cc123490eb96d2768479d49ff9c7366125a94243649060200160405180910390a250505050565b610b868282612757565b5050565b600b546001600160a01b03163314610bb45760405162461bcd60e51b8152600401610af39061416a565b610b868282612945565b60095460405163d505accf60e01b8152336004820152306024820152604481018790526064810186905260ff8516608482015260a4810184905260c481018390526001600160a01b039091169063d505accf9060e401600060405180830381600087803b158015610c2e57600080fd5b505af1158015610c42573d6000803e3d6000fd5b50505050610c503386612757565b5050505050565b6006546001600160a01b03163314610c815760405162461bcd60e51b8152600401610af390614198565b6001600160a01b03811660009081526008602052604090205460ff1615610cea5760405162461bcd60e51b815260206004820152601c60248201527f5065726d697373696f6e65643a3a616c6c6f774465706f7369746f72000000006044820152606401610af3565b6001600160a01b0381166000908152600860205260409020805460ff19166001908117909155600754610d1c91612020565b6007556040516001600160a01b038216907fc0a1035c16faf8d1304056d92c00edf028f87e62b8235a938f00af9e3c0312c590600090a250565b6006546001600160a01b03163314610d805760405162461bcd60e51b8152600401610af390614198565b600e5481151560ff909116151503610d9757600080fd5b600e805460ff19168215159081179091556040519081527f7b014ed3854e7f5cb0218d58b3c6ae7d53a68bb0af2f67bfb029ea42c38a7e85906020015b60405180910390a150565b6006546001600160a01b03163314610e095760405162461bcd60e51b8152600401610af390614198565b60008111610e1657600080fd5b604051339082156108fc029083906000818181858888f19350505050158015610e43573d6000803e3d6000fd5b507f8c1256b8896378cd5044f80c202f9772b9d77dc85c8a6eb51967210b09bfaa28600082604051610dd49291906141cd565b6006546001600160a01b03163314610ea05760405162461bcd60e51b8152600401610af390614198565b601680546001600160a01b0319166001600160a01b0392909216919091179055565b6006546001600160a01b03163314610eec5760405162461bcd60e51b8152600401610af390614198565b6006546040516000916001600160a01b0316907f8be0079c531659141344cd1fd0a4f28419497f9722a3daafe3b4186f6b6457e0908390a3600680546001600160a01b0319169055565b6006546001600160a01b03163314610f605760405162461bcd60e51b8152600401610af390614198565b60405163095ea7b360e01b81526001600160a01b0383169063095ea7b390610f8f9084906000906004016141cd565b6020604051808303816000875af1158015610fae573d6000803e3d6000fd5b505050506040513d601f19601f82011682018060405250810190610fd291906141e6565b610b8657600080fd5b6000610fe5612aa1565b604051635273fb3b60e11b81523060048201526001600160a01b03919091169063a4e7f67690602401602060405180830381865afa15801561102b573d6000803e3d6000fd5b505050506040513d601f19601f8201168201806040525081019061104f9190614203565b905090565b6006546001600160a01b0316331461107e5760405162461bcd60e51b8152600401610af390614198565b600c5460408051918252602082018390527f481f79ac3a523b6d6db3c5a720e190e986d1cc1b41adcdf50f9caef849901100910160405180910390a1600c55565b6006546001600160a01b031633146110e95760405162461bcd60e51b8152600401610af390614198565b600081116110f657600080fd5b60405163a9059cbb60e01b81526001600160a01b0383169063a9059cbb9061112490339085906004016141cd565b6020604051808303816000875af1158015611143573d6000803e3d6000fd5b505050506040513d601f19601f8201168201806040525081019061116791906141e6565b61117057600080fd5b7f8c1256b8896378cd5044f80c202f9772b9d77dc85c8a6eb51967210b09bfaa2882826040516111a19291906141cd565b60405180910390a15050565b6006546001600160a01b031633146111d75760405162461bcd60e51b8152600401610af390614198565b6000600754116112465760405162461bcd60e51b815260206004820152603460248201527f5065726d697373696f6e65643a3a72656d6f76654465706f7369746f722c206e6044820152736f20616c6c6f776564206465706f7369746f727360601b6064820152608401610af3565b6001600160a01b03811660009081526008602052604090205460ff1615156001146112c65760405162461bcd60e51b815260206004820152602a60248201527f5065726d697373696f6e65643a3a72656d6f76654465706f7369746f722c206e6044820152691bdd08185b1b1bddd95960b21b6064820152608401610af3565b6001600160a01b0381166000908152600860205260409020805460ff191690556007546112f4906001612362565b6007556040516001600160a01b038216907f0e86f6608b536e5339a25b65ff531f5ea91e1313d056ecd4752b35cbd16137d490600090a250565b600b546001600160a01b031633146113585760405162461bcd60e51b8152600401610af39061416a565b600b54604080516001600160a01b03928316815291831660208301527fa8e91499ed37682f43cffb045fcc7d379a91e8c9a14e6321877ee34dee564c00910160405180910390a1600b80546001600160a01b0319166001600160a01b0392909216919091179055565b600180546108ca90614130565b6006546001600160a01b031633146113f85760405162461bcd60e51b8152600401610af390614198565b6127106114106010548361202090919063ffffffff16565b111561141b57600080fd5b60115460408051918252602082018390527f2a42303d002f0ba6cfe8259c91d4684443fb0b3de286ba74991175d651726131910160405180910390a1601155565b600b546001600160a01b031633146114865760405162461bcd60e51b8152600401610af39061416a565b6001600160a01b038116600090815260126020526040812080546001600160a01b0319169055805b60135481101561157a57601381815481106114cb576114cb61421c565b6000918252602090912001546001600160a01b03908116908416036115685760138054600193506114fd908490614248565b8154811061150d5761150d61421c565b600091825260209091200154601380546001600160a01b0390921691839081106115395761153961421c565b9060005260206000200160006101000a8154816001600160a01b0302191690836001600160a01b031602179055505b806115728161425f565b9150506114ae565b50806115e55760405162461bcd60e51b815260206004820152603460248201527f5661726961626c655265776172647353747261746567793a3a52657761726420604482015273746f2064656c657465206e6f7420666f756e642160601b6064820152608401610af3565b60138054806115f6576115f6614278565b600082815260209020810160001990810180546001600160a01b0319169055019055601454611626906001612362565b6014556040516001600160a01b03831681527f963b7c735475147a62c589c2d7cb8ec4b0a6b7af4f97373d79ebfa42ab8aa7dc906020016111a1565b6006546001600160a01b0316331461168c5760405162461bcd60e51b8152600401610af390614198565b6127106116a46011548361202090919063ffffffff16565b11156116af57600080fd5b60105460408051918252602082018390527fe7f97d51d307dc44045597c9978bec0f842e6bb40d19b9444084cfa30d9ed4f2910160405180910390a1601055565b600061095833848461239a565b6006546001600160a01b031633146117275760405162461bcd60e51b8152600401610af390614198565b6009546040516370a0823160e01b81523060048201526000916001600160a01b0316906370a0823190602401602060405180830381865afa158015611770573d6000803e3d6000fd5b505050506040513d601f19601f820116820180604052508101906117949190614203565b905061179e612b43565b6009546040516370a0823160e01b81523060048201526000916001600160a01b0316906370a0823190602401602060405180830381865afa1580156117e7573d6000803e3d6000fd5b505050506040513d601f19601f8201168201806040525081019061180b9190614203565b9050836118188284612362565b10156118a25760405162461bcd60e51b815260206004820152604d60248201527f5661726961626c655265776172647353747261746567793a3a456d657267656e60448201527f6379207769746864726177206d696e696d756d2072657475726e20616d6f756e60648201526c1d081b9bdd081c995858da1959609a1b608482015260a401610af3565b7fc7606d21ac05cd309191543e409f0845c016120563783d70e4f41419dc0ef2346118cb610fdb565b6002546040805192835260208301919091520160405180910390a1600e5460ff1615156001036118ff576118ff6000610d56565b50505050565b61190f3382612757565b50565b60008061191d611957565b9050600c54811061194f5761194961271061194360105484612c3090919063ffffffff16565b90612c3c565b91505090565b600091505090565b600080611962612c48565b6040516370a0823160e01b815230600482015290915060009073b31f66aa3c1e785363f0875a1b74e27b85fd66c7906370a0823190602401602060405180830381865afa1580156119b7573d6000803e3d6000fd5b505050506040513d601f19601f820116820180604052508101906119db9190614203565b90506119e78147612020565b5060005b8251811015611bbe576000838281518110611a0857611a0861421c565b602002602001015160000151905073b31f66aa3c1e785363f0875a1b74e27b85fd66c76001600160a01b0316816001600160a01b031603611a7a57611a73848381518110611a5857611a5861421c565b6020026020010151602001518461202090919063ffffffff16565b9250611bab565b6040516370a0823160e01b81523060048201526000906001600160a01b038316906370a0823190602401602060405180830381865afa158015611ac1573d6000803e3d6000fd5b505050506040513d601f19601f82011682018060405250810190611ae59190614203565b90506000611b19868581518110611afe57611afe61421c565b6020026020010151602001518361202090919063ffffffff16565b9050600060126000888781518110611b3357611b3361421c565b602090810291909101810151516001600160a01b03908116835290820192909252604001600020541690508115801590611b7557506001600160a01b03811615155b15611ba757611ba4611b9d838673b31f66aa3c1e785363f0875a1b74e27b85fd66c785612fb6565b8790612020565b95505b5050505b5080611bb68161425f565b9150506119eb565b5092915050565b6006546001600160a01b03163314611bef5760405162461bcd60e51b8152600401610af390614198565b8015611bfa57600080fd5b600f5460408051918252602082018390527f3cc372f330f95ac9540626dc8a25f5bf21ba607215a5d58304cb804d446f104a910160405180910390a1600f55565b42841015611c7d5760405162461bcd60e51b815260206004820152600f60248201526e1c195c9b5a5d0e8e995e1c1a5c9959608a1b6044820152606401610af3565b6001600160a01b038716600090815260056020526040812080547f6e71edae12b1b97f4d1f60370fef10105fa2faae0126114a169c64845d6126c9918a918a918a919086611cca8361425f565b909155506040805160208101969096526001600160a01b0394851690860152929091166060840152608083015260a082015260c0810186905260e001604051602081830303815290604052805190602001209050611d2b8882868686613074565b611d36888888612241565b5050505050505050565b6000611d56611d4d610fdb565b60025490612c30565b600003611d61575090565b610997611d6c610fdb565b600254611943908590612c30565b6006546001600160a01b03163314611da45760405162461bcd60e51b8152600401610af390614198565b600d5460408051918252602082018390527fa5dae50539d56dfe1fb5273d883b0c39bc76750a25d036fc5fbd09ad8fd5f57f910160405180910390a1600d55565b60138181548110611df557600080fd5b6000918252602090912001546001600160a01b0316905081565b6000611e1c611d4d610fdb565b600003611e2b57506000919050565b610997600254611943611e3c610fdb565b8590612c30565b60007f8b73c3c69bb8fe3d512ecc4cf759cc79239f7b179b0ffacaa9a75d522b39400f60001b6000604051611e78919061428e565b6040519081900390207fc89efdaa54c0f20c7adf612882df0950f5a951637e0307cdcb4c672f298b8bc646604080516020810195909552840192909252606083015260808201523060a082015260c00160405160208183030381529060405280519060200120905090565b6006546001600160a01b03163314611f0d5760405162461bcd60e51b8152600401610af390614198565b6001600160a01b038116611f725760405162461bcd60e51b815260206004820152602660248201527f4f776e61626c653a206e6577206f776e657220697320746865207a65726f206160448201526564647265737360d01b6064820152608401610af3565b6006546040516001600160a01b038084169216907f8be0079c531659141344cd1fd0a4f28419497f9722a3daafe3b4186f6b6457e090600090a3600680546001600160a01b0319166001600160a01b0392909216919091179055565b3233146120145760405162461bcd60e51b815260206004820152601460248201527359616b53747261746567793a3a6f6e6c79454f4160601b6044820152606401610af3565b61201e60006131a0565b565b6000610a7a8284614329565b6000836001600160a01b0316630dfe16816040518163ffffffff1660e01b8152600401602060405180830381865afa15801561206c573d6000803e3d6000fd5b505050506040513d601f19601f820116820180604052508101906120909190614341565b6001600160a01b0316836001600160a01b031614806121215750836001600160a01b031663d21220a76040518163ffffffff1660e01b8152600401602060405180830381865afa1580156120e8573d6000803e3d6000fd5b505050506040513d601f19601f8201168201806040525081019061210c9190614341565b6001600160a01b0316836001600160a01b0316145b801561221b5750836001600160a01b0316630dfe16816040518163ffffffff1660e01b8152600401602060405180830381865afa158015612166573d6000803e3d6000fd5b505050506040513d601f19601f8201168201806040525081019061218a9190614341565b6001600160a01b0316826001600160a01b0316148061221b5750836001600160a01b031663d21220a76040518163ffffffff1660e01b8152600401602060405180830381865afa1580156121e2573d6000803e3d6000fd5b505050506040513d601f19601f820116820180604052508101906122069190614341565b6001600160a01b0316826001600160a01b0316145b80156122395750816001600160a01b0316836001600160a01b031614155b949350505050565b6001600160a01b0383166122975760405162461bcd60e51b815260206004820152601c60248201527f5f617070726f76653a3a6f776e6572207a65726f2061646472657373000000006044820152606401610af3565b6001600160a01b0382166122ed5760405162461bcd60e51b815260206004820152601e60248201527f5f617070726f76653a3a7370656e646572207a65726f206164647265737300006044820152606401610af3565b6001600160a01b0383811660008181526003602090815260408083209487168084529482529182902085905590518481527f8c5be1e5ebec7d5bd14f71427d1e84f3dd0314c0f7b2291e5b200ac8c7c3b92591015b60405180910390a3505050565b600080610a7a6127106119438584612c30565b6000610a7a8284614248565b600081848411156123925760405162461bcd60e51b8152600401610af39190613f11565b505050900390565b6001600160a01b03821661240d5760405162461bcd60e51b815260206004820152603460248201527f5f7472616e73666572546f6b656e733a2063616e6e6f74207472616e7366657260448201527320746f20746865207a65726f206164647265737360601b6064820152608401610af3565b61244a816040518060600160405280602e81526020016145b7602e91396001600160a01b038616600090815260046020526040902054919061236e565b6001600160a01b0380851660009081526004602052604080822093909355908416815220546124799082612020565b6001600160a01b0380841660008181526004602052604090819020939093559151908516907fddf252ad1be2c89b69c2b068fc378daa952ba7f163c4a11628f55a4df523b3ef906123429085815260200190565b6009546040516370a0823160e01b815230600482015260009182916001600160a01b03909116906370a0823190602401602060405180830381865afa15801561251a573d6000803e3d6000fd5b505050506040513d601f19601f8201168201806040525081019061253e9190614203565b9050612548612aa1565b604051630441a3e760e41b815260048101859052600060248201526001600160a01b03919091169063441a3e7090604401600060405180830381600087803b15801561259357600080fd5b505af11580156125a7573d6000803e3d6000fd5b50506009546040516370a0823160e01b8152306004820152600093506001600160a01b0390911691506370a0823190602401602060405180830381865afa1580156125f6573d6000803e3d6000fd5b505050506040513d601f19601f8201168201806040525081019061261a9190614203565b90506122398183612362565b61267c8363a9059cbb60e01b84846040516024016126459291906141cd565b60408051601f198184030181529190526020810180516001600160e01b03166001600160e01b031990931692909217909152613316565b505050565b6126be81604051806060016040528060278152602001614590602791396001600160a01b038516600090815260046020526040902054919061236e565b60046000846001600160a01b03166001600160a01b031681526020019081526020016000208190555061270e8160405180606001604052806027815260200161453a60279139600254919061236e565b6002556040518181526000906001600160a01b038416907fddf252ad1be2c89b69c2b068fc378daa952ba7f163c4a11628f55a4df523b3ef906020015b60405180910390a35050565b600e5460ff1615156001146127c15760405162461bcd60e51b815260206004820152602a60248201527f5661726961626c655265776172647353747261746567793a3a4465706f7369746044820152691cc8191a5cd8589b195960b21b6064820152608401610af3565b600d54156127eb5760006127d3611957565b9050600d548111156127e9576127e960016131a0565b505b6009546040516323b872dd60e01b8152336004820152306024820152604481018390526001600160a01b03909116906323b872dd906064016020604051808303816000875af1158015612842573d6000803e3d6000fd5b505050506040513d601f19601f8201168201806040525081019061286691906141e6565b6128d15760405162461bcd60e51b815260206004820152603660248201527f5661726961626c655265776172647353747261746567793a3a4465706f736974604482015275081d1bdad95b881d1c985b9cd9995c8819985a5b195960521b6064820152608401610af3565b60006128dc8261234f565b90506128f4836128ef6108498585612362565b6133e8565b6128fd8261346c565b826001600160a01b03167fe1fffcc4923d04b559f4d29a8bfc6cda04eb5b0d3c460751c2402c5c5cc9109c8360405161293891815260200190565b60405180910390a2505050565b600a546001600160a01b038381169116146129e757600a5461297390829084906001600160a01b031661202c565b6129e7576040805162461bcd60e51b81526020600482015260248101919091527f5661726961626c655265776172647353747261746567793a3a5377617020706160448201527f697220646f6573206e6f7420636f6e7461696e2072657761726420746f6b656e6064820152608401610af3565b6001600160a01b03808316600081815260126020526040812080549385166001600160a01b03199485161790556013805460018181018355919092527f66de8ffda797e3de9c05e8fc57b3bf0ec28a930d40b0d285d93c06501cf6a0909091018054909316909117909155601454612a5e91612020565b601455604080516001600160a01b038085168252831660208201527f916e172c080569186aa7ea048268267257cf7cc49505908863f747bca8620f8091016111a1565b60095460405162d7f52760e31b81526001600160a01b03918216600482015260009182917f0000000000000000000000000000000000000000000000000000000000000000909116906306bfa9389060240161012060405180830381865afa158015612b11573d6000803e3d6000fd5b505050506040513d601f19601f82011682018060405250810190612b35919061435e565b9a9950505050505050505050565b6000612b4d612aa1565b60095460405163095ea7b360e01b81529192506001600160a01b03169063095ea7b390612b819084906000906004016141cd565b6020604051808303816000875af1158015612ba0573d6000803e3d6000fd5b505050506040513d601f19601f82011682018060405250810190612bc491906141e6565b50806001600160a01b031663441a3e70612bdc610fdb565b6040516001600160e01b031960e084901b168152600481019190915260006024820152604401600060405180830381600087803b158015612c1c57600080fd5b505af1158015610c50573d6000803e3d6000fd5b6000610a7a8284614404565b6000610a7a8284614423565b60606000612c54612aa1565b60145490915060008167ffffffffffffffff811115612c7557612c75614445565b604051908082528060200260200182016040528015612cba57816020015b6040805180820190915260008082526020820152815260200190600190039081612c935790505b506040516246613160e11b81527322d4002028f537599be9f666d1c4fa138522f9c8600482015290915060009081906001600160a01b03861690628cc262906024016040805180830381865afa158015612d18573d6000803e3d6000fd5b505050506040513d601f19601f82011682018060405250810190612d3c919061445b565b601654604051633cb6bbcb60e21b81529294509092506000916001600160a01b039091169063f2daef2c90612d7790309086906004016141cd565b602060405180830381865afa158015612d94573d6000803e3d6000fd5b505050506040513d601f19601f82011682018060405250810190612db89190614203565b604080518082019091527322d4002028f537599be9f666d1c4fa138522f9c8815290915060208101612dea8484612362565b81525084600081518110612e0057612e0061421c565b60200260200101819052506040518060400160405280735817d4f0b62a59b17f75207da1848c2ce75e7af46001600160a01b031681526020018481525084600181518110612e5057612e5061421c565b6020908102919091010152600260005b86811015612fa957600060138281548110612e7d57612e7d61421c565b6000918252602090912001546001600160a01b031690507322d4002028f537599be9f666d1c4fa138522f9c8811480612ed257506001600160a01b038116735817d4f0b62a59b17f75207da1848c2ce75e7af4145b15612edd5750612f97565b6040516246613160e11b81526001600160a01b038281166004830152600091908b1690628cc262906024016040805180830381865afa158015612f24573d6000803e3d6000fd5b505050506040513d601f19601f82011682018060405250810190612f48919061445b565b9150506040518060400160405280836001600160a01b0316815260200182815250888581518110612f7b57612f7b61421c565b60200260200101819052508380612f919061425f565b94505050505b80612fa18161425f565b915050612e60565b5093979650505050505050565b600080612fc385856134db565b509050600080846001600160a01b0316630902f1ac6040518163ffffffff1660e01b8152600401606060405180830381865afa158015613007573d6000803e3d6000fd5b505050506040513d601f19601f8201168201806040525081019061302b9190614496565b5091509150866001600160a01b0316836001600160a01b03161461304b57905b61306888836001600160701b0316836001600160701b031661350c565b98975050505050505050565b600061307e611e43565b60405161190160f01b602082015260228101919091526042810186905260620160408051601f198184030181528282528051602091820120600080855291840180845281905260ff88169284019290925260608301869052608083018590529092509060019060a0016020604051602081039080840390855afa158015613109573d6000803e3d6000fd5b5050604051601f1901519150506001600160a01b0381161580159061313f5750866001600160a01b0316816001600160a01b0316145b6131975760405162461bcd60e51b8152602060048201526024808201527f417263683a3a76616c69646174655369673a20696e76616c6964207369676e616044820152637475726560e01b6064820152608401610af3565b50505050505050565b6131a861355a565b60006131b2613750565b90508161322457600c548110156132245760405162461bcd60e51b815260206004820152603060248201527f5661726961626c655265776172647353747261746567793a3a5265696e76657360448201526f7420616d6f756e7420746f6f206c6f7760801b6064820152608401610af3565b600061324161271061194360115485612c3090919063ffffffff16565b9050801561326657600b54600a54613266916001600160a01b03918216911683612626565b600061328361271061194360105486612c3090919063ffffffff16565b905080156132a257600a546132a2906001600160a01b03163383612626565b60006132c06132bb836132b58787612362565b90612362565b613981565b90506132cb8161346c565b7fc7606d21ac05cd309191543e409f0845c016120563783d70e4f41419dc0ef2346132f4610fdb565b6002546040805192835260208301919091520160405180910390a15050505050565b600061336b826040518060400160405280602081526020017f5361666545524332303a206c6f772d6c6576656c2063616c6c206661696c6564815250856001600160a01b03166139a99092919063ffffffff16565b80519091501561267c578080602001905181019061338991906141e6565b61267c5760405162461bcd60e51b815260206004820152602a60248201527f5361666545524332303a204552433230206f7065726174696f6e20646964206e6044820152691bdd081cdd58d8d9595960b21b6064820152608401610af3565b6002546133f59082612020565b6002556001600160a01b03821660009081526004602052604090205461341b9082612020565b6001600160a01b0383166000818152600460205260408082209390935591519091907fddf252ad1be2c89b69c2b068fc378daa952ba7f163c4a11628f55a4df523b3ef9061274b9085815260200190565b600081116134d25760405162461bcd60e51b815260206004820152602d60248201527f5661726961626c655265776172647353747261746567793a3a5374616b65206160448201526c6d6f756e7420746f6f206c6f7760981b6064820152608401610af3565b61190f816139b8565b600080826001600160a01b0316846001600160a01b0316106134fe578284613501565b83835b915091509250929050565b60008061351b856103e5612c30565b905060006135298285612c30565b905060006135438361353d886103e8612c30565b90612020565b905061354f8282612c3c565b979650505050505050565b6040516370a0823160e01b81523060048201526000907322d4002028f537599be9f666d1c4fa138522f9c8906370a0823190602401602060405180830381865afa1580156135ac573d6000803e3d6000fd5b505050506040513d601f19601f820116820180604052508101906135d09190614203565b90506135da612aa1565b6001600160a01b0316633d18b9126040518163ffffffff1660e01b8152600401600060405180830381600087803b15801561361457600080fd5b505af1158015613628573d6000803e3d6000fd5b50506040516370a0823160e01b8152306004820152600092506136a8915083907322d4002028f537599be9f666d1c4fa138522f9c8906370a0823190602401602060405180830381865afa158015613684573d6000803e3d6000fd5b505050506040513d601f19601f820116820180604052508101906132b59190614203565b601654604051633cb6bbcb60e21b81529192506000916001600160a01b039091169063f2daef2c906136e090309086906004016141cd565b602060405180830381865afa1580156136fd573d6000803e3d6000fd5b505050506040513d601f19601f820116820180604052508101906137219190614203565b60165490915061267c907322d4002028f537599be9f666d1c4fa138522f9c8906001600160a01b031683612626565b6040516370a0823160e01b8152306004820152600090819073b31f66aa3c1e785363f0875a1b74e27b85fd66c7906370a0823190602401602060405180830381865afa1580156137a4573d6000803e3d6000fd5b505050506040513d601f19601f820116820180604052508101906137c89190614203565b60135490915060005b81811015613979576000601382815481106137ee576137ee61421c565b6000918252602090912001546001600160a01b0316905073b31f66aa3c1e785363f0875a1b74e27b85fd66c61981016138ad574780156138a65773b31f66aa3c1e785363f0875a1b74e27b85fd66c76001600160a01b031663d0e30db0826040518263ffffffff1660e01b81526004016000604051808303818588803b15801561387757600080fd5b505af115801561388b573d6000803e3d6000fd5b50505050506138a3818661202090919063ffffffff16565b94505b5050613967565b6040516370a0823160e01b81523060048201526000906001600160a01b038316906370a0823190602401602060405180830381865afa1580156138f4573d6000803e3d6000fd5b505050506040513d601f19601f820116820180604052508101906139189190614203565b90508015613964576001600160a01b0380831660009081526012602052604090205416801561396257600a5461395f90611b9d90849086906001600160a01b031685613bee565b95505b505b50505b806139718161425f565b9150506137d1565b509092915050565b600a546009546015546000926109979285926001600160a01b03928316929182169116613bee565b60606122398484600085613d5f565b60006139c2612aa1565b9050600960009054906101000a90046001600160a01b03166001600160a01b031663095ea7b3826001600160a01b0316631208e15b6040518163ffffffff1660e01b8152600401602060405180830381865afa158015613a26573d6000803e3d6000fd5b505050506040513d601f19601f82011682018060405250810190613a4a9190614341565b846040518363ffffffff1660e01b8152600401613a689291906141cd565b6020604051808303816000875af1158015613a87573d6000803e3d6000fd5b505050506040513d601f19601f82011682018060405250810190613aab91906141e6565b5060405163b6b55f2560e01b8152600481018390526001600160a01b0382169063b6b55f2590602401600060405180830381600087803b158015613aee57600080fd5b505af1158015613b02573d6000803e3d6000fd5b50505050600960009054906101000a90046001600160a01b03166001600160a01b031663095ea7b3826001600160a01b0316631208e15b6040518163ffffffff1660e01b8152600401602060405180830381865afa158015613b68573d6000803e3d6000fd5b505050506040513d601f19601f82011682018060405250810190613b8c9190614341565b60006040518363ffffffff1660e01b8152600401613bab9291906141cd565b6020604051808303816000875af1158015613bca573d6000803e3d6000fd5b505050506040513d601f19601f8201168201806040525081019061267c91906141e6565b600080613bfb85856134db565b509050600080846001600160a01b0316630902f1ac6040518163ffffffff1660e01b8152600401606060405180830381865afa158015613c3f573d6000803e3d6000fd5b505050506040513d601f19601f82011682018060405250810190613c639190614496565b5091509150866001600160a01b0316836001600160a01b031614613c8357905b600080613ca38a856001600160701b0316856001600160701b031661350c565b9050886001600160a01b0316856001600160a01b031614613cc057905b613cd46001600160a01b038a16888c612626565b6040805160008152602081019182905263022c0d9f60e01b9091526001600160a01b0388169063022c0d9f90613d1390859085903090602481016144e6565b600060405180830381600087803b158015613d2d57600080fd5b505af1158015613d41573d6000803e3d6000fd5b50505050818111613d525781612b35565b9998505050505050505050565b606082471015613dc05760405162461bcd60e51b815260206004820152602660248201527f416464726573733a20696e73756666696369656e742062616c616e636520666f6044820152651c8818d85b1b60d21b6064820152608401610af3565b6001600160a01b0385163b613e175760405162461bcd60e51b815260206004820152601d60248201527f416464726573733a2063616c6c20746f206e6f6e2d636f6e74726163740000006044820152606401610af3565b600080866001600160a01b03168587604051613e33919061451d565b60006040518083038185875af1925050503d8060008114613e70576040519150601f19603f3d011682016040523d82523d6000602084013e613e75565b606091505b509150915061354f82828660608315613e8f575081610a7a565b825115613e9f5782518084602001fd5b8160405162461bcd60e51b8152600401610af39190613f11565b60005b83811015613ed4578181015183820152602001613ebc565b838111156118ff5750506000910152565b60008151808452613efd816020860160208601613eb9565b601f01601f19169290920160200192915050565b602081526000610a7a6020830184613ee5565b6001600160a01b038116811461190f57600080fd5b60008060408385031215613f4c57600080fd5b8235613f5781613f24565b946020939093013593505050565b600060208284031215613f7757600080fd5b5035919050565b600080600060608486031215613f9357600080fd5b8335613f9e81613f24565b92506020840135613fae81613f24565b929592945050506040919091013590565b60008060408385031215613fd257600080fd5b8235613fdd81613f24565b91506020830135613fed81613f24565b809150509250929050565b60006020828403121561400a57600080fd5b8135610a7a81613f24565b803560ff8116811461402657600080fd5b919050565b600080600080600060a0868803121561404357600080fd5b853594506020860135935061405a60408701614015565b94979396509394606081013594506080013592915050565b801515811461190f57600080fd5b60006020828403121561409257600080fd5b8135610a7a81614072565b600080604083850312156140b057600080fd5b823591506020830135613fed81614072565b600080600080600080600060e0888a0312156140dd57600080fd5b87356140e881613f24565b965060208801356140f881613f24565b9550604088013594506060880135935061411460808901614015565b925060a0880135915060c0880135905092959891949750929550565b600181811c9082168061414457607f821691505b60208210810361416457634e487b7160e01b600052602260045260246000fd5b50919050565b6020808252601490820152732cb0b5a9ba3930ba32b3bc9d1d37b7363ca232bb60611b604082015260600190565b6020808252818101527f4f776e61626c653a2063616c6c6572206973206e6f7420746865206f776e6572604082015260600190565b6001600160a01b03929092168252602082015260400190565b6000602082840312156141f857600080fd5b8151610a7a81614072565b60006020828403121561421557600080fd5b5051919050565b634e487b7160e01b600052603260045260246000fd5b634e487b7160e01b600052601160045260246000fd5b60008282101561425a5761425a614232565b500390565b60006001820161427157614271614232565b5060010190565b634e487b7160e01b600052603160045260246000fd5b600080835481600182811c9150808316806142aa57607f831692505b602080841082036142c957634e487b7160e01b86526022600452602486fd5b8180156142dd57600181146142ee5761431b565b60ff1986168952848901965061431b565b60008a81526020902060005b868110156143135781548b8201529085019083016142fa565b505084890196505b509498975050505050505050565b6000821982111561433c5761433c614232565b500190565b60006020828403121561435357600080fd5b8151610a7a81613f24565b60008060008060008060008060006101208a8c03121561437d57600080fd5b8951985060208a015161438f81614072565b60408b01519098506143a081613f24565b60608b01519097506143b181613f24565b60808b015160a08c015191975095506143c981613f24565b60c08b015160e08c015191955093506143e181613f24565b6101008b01519092506143f381613f24565b809150509295985092959850929598565b600081600019048311821515161561441e5761441e614232565b500290565b60008261444057634e487b7160e01b600052601260045260246000fd5b500490565b634e487b7160e01b600052604160045260246000fd5b6000806040838503121561446e57600080fd5b505080516020909101519092909150565b80516001600160701b038116811461402657600080fd5b6000806000606084860312156144ab57600080fd5b6144b48461447f565b92506144c26020850161447f565b9150604084015163ffffffff811681146144db57600080fd5b809150509250925092565b84815283602082015260018060a01b03831660408201526080606082015260006145136080830184613ee5565b9695505050505050565b6000825161452f818460208701613eb9565b919091019291505056fe5f6275726e3a206275726e20616d6f756e74206578636565647320746f74616c20737570706c797472616e7366657246726f6d3a207472616e7366657220616d6f756e74206578636565647320616c6c6f77616e63655f6275726e3a206275726e20616d6f756e7420657863656564732066726f6d2062616c616e63655f7472616e73666572546f6b656e733a207472616e7366657220657863656564732066726f6d2062616c616e6365a26469706673582212206cd3796eb5beb3a331890ebee8784ec9e84119580abaf84d26db96fb196ce76c64736f6c634300080d00334f776e61626c653a2063616c6c6572206973206e6f7420746865206f776e65728be0079c531659141344cd1fd0a4f28419497f9722a3daafe3b4186f6b6457e0",
    "linkReferences": {}
  },
  "methodIdentifiers": {
    "ADMIN_FEE_BIPS()": "07677111",
    "DEPOSITS_ENABLED()": "b52a321f",
    "DEV_FEE_BIPS()": "5ea682ea",
    "DOMAIN_TYPEHASH()": "20606b70",
    "MAX_TOKENS_TO_DEPOSIT_WITHOUT_REINVEST()": "789139bc",
    "MIN_TOKENS_TO_REINVEST()": "bd079f55",
    "PERMIT_TYPEHASH()": "30adf81f",
    "REINVEST_REWARD_BIPS()": "8aff733d",
    "VERSION_HASH()": "9e4e7318",
    "addReward(address,address)": "40b47e1a",
    "allowDepositor(address)": "4bebd1e7",
    "allowance(address,address)": "dd62ed3e",
    "allowedDepositors(address)": "483c2ef0",
    "approve(address,uint256)": "095ea7b3",
    "balanceOf(address)": "70a08231",
    "boosterFeeCollector()": "0fccc400",
    "calculateDepositFee(uint256)": "247d284b",
    "calculateWithdrawFee(uint256)": "11056035",
    "checkReward()": "c4b24a46",
    "decimals()": "313ce567",
    "deposit(uint256)": "b6b55f25",
    "depositFor(address,uint256)": "2f4f21e2",
    "depositToken()": "c89039c5",
    "depositWithPermit(uint256,uint256,uint8,bytes32,bytes32)": "4a970be7",
    "devAddr()": "da09c72c",
    "estimateDeployedBalance()": "0f23475d",
    "estimateReinvestReward()": "b9e57b80",
    "getDepositTokensForShares(uint256)": "eab89a5a",
    "getDomainSeparator()": "ed24911d",
    "getSharesForDepositTokens(uint256)": "dd8ce4d6",
    "name()": "06fdde03",
    "nonces(address)": "7ecebe00",
    "numberOfAllowedDepositors()": "3bdc6e72",
    "owner()": "8da5cb5b",
    "permit(address,address,uint256,uint256,uint8,bytes32,bytes32)": "d505accf",
    "recoverAVAX(uint256)": "4ebb7916",
    "recoverERC20(address,uint256)": "8980f11f",
    "reinvest()": "fdb5a03e",
    "removeDepositor(address)": "8b73e606",
    "removeReward(address)": "a4d5e67c",
    "renounceOwnership()": "715018a6",
    "rescueDeployedFunds(uint256,bool)": "ac0d31ff",
    "revokeAllowance(address,address)": "7ae26773",
    "rewardCount()": "79085425",
    "rewardSwapPairs(address)": "a5534e71",
    "rewardToken()": "f7c618c1",
    "supportedRewards(uint256)": "e75ab045",
    "symbol()": "95d89b41",
    "totalDeposits()": "7d882097",
    "totalSupply()": "18160ddd",
    "transfer(address,uint256)": "a9059cbb",
    "transferFrom(address,address,uint256)": "23b872dd",
    "transferOwnership(address)": "f2fde38b",
    "updateAdminFee(uint256)": "cff1b6ef",
    "updateBoosterFeeCollector(address)": "6c8b4b52",
    "updateDepositsEnabled(bool)": "4e77ace5",
    "updateDevAddr(address)": "9291d563",
    "updateDevFee(uint256)": "99729ec1",
    "updateMaxTokensToDepositWithoutReinvest(uint256)": "e21ac825",
    "updateMinTokensToReinvest(uint256)": "81837230",
    "updateReinvestReward(uint256)": "a8ae2b7c",
    "vectorMainStaking()": "7e08c185",
    "withdraw(uint256)": "2e1a7d4d"
  },
  "id": 152
}