{
  "abi": [
    {
      "inputs": [
        {
          "internalType": "string",
          "name": "_name",
          "type": "string"
        },
        {
          "internalType": "address",
          "name": "_depositToken",
          "type": "address"
        },
        {
          "internalType": "address",
          "name": "_poolRewardToken",
          "type": "address"
        },
        {
          "components": [
            {
              "internalType": "address",
              "name": "swapPairToken",
              "type": "address"
            },
            {
              "internalType": "address",
              "name": "swapPairPoolReward",
              "type": "address"
            },
            {
              "internalType": "address",
              "name": "swapPairExtraReward",
              "type": "address"
            }
          ],
          "internalType": "struct PlatypusStrategy.SwapPairs",
          "name": "swapPairs",
          "type": "tuple"
        },
        {
          "internalType": "uint256",
          "name": "_maxSlippage",
          "type": "uint256"
        },
        {
          "internalType": "address",
          "name": "_pool",
          "type": "address"
        },
        {
          "internalType": "address",
          "name": "_stakingContract",
          "type": "address"
        },
        {
          "internalType": "address",
          "name": "_voterProxy",
          "type": "address"
        },
        {
          "internalType": "uint256",
          "name": "_pid",
          "type": "uint256"
        },
        {
          "internalType": "address",
          "name": "_timelock",
          "type": "address"
        },
        {
          "components": [
            {
              "internalType": "uint256",
              "name": "minTokensToReinvest",
              "type": "uint256"
            },
            {
              "internalType": "uint256",
              "name": "devFeeBips",
              "type": "uint256"
            },
            {
              "internalType": "uint256",
              "name": "reinvestRewardBips",
              "type": "uint256"
            }
          ],
          "internalType": "struct YakStrategyV2.StrategySettings",
          "name": "_strategySettings",
          "type": "tuple"
        }
      ],
      "stateMutability": "nonpayable",
      "type": "constructor"
    },
    {
      "anonymous": false,
      "inputs": [
        {
          "indexed": true,
          "internalType": "address",
          "name": "account",
          "type": "address"
        }
      ],
      "name": "AllowDepositor",
      "type": "event"
    },
    {
      "anonymous": false,
      "inputs": [
        {
          "indexed": true,
          "internalType": "address",
          "name": "owner",
          "type": "address"
        },
        {
          "indexed": true,
          "internalType": "address",
          "name": "spender",
          "type": "address"
        },
        {
          "indexed": false,
          "internalType": "uint256",
          "name": "value",
          "type": "uint256"
        }
      ],
      "name": "Approval",
      "type": "event"
    },
    {
      "anonymous": false,
      "inputs": [
        {
          "indexed": true,
          "internalType": "address",
          "name": "account",
          "type": "address"
        },
        {
          "indexed": false,
          "internalType": "uint256",
          "name": "amount",
          "type": "uint256"
        }
      ],
      "name": "Deposit",
      "type": "event"
    },
    {
      "anonymous": false,
      "inputs": [
        {
          "indexed": false,
          "internalType": "bool",
          "name": "newValue",
          "type": "bool"
        }
      ],
      "name": "DepositsEnabled",
      "type": "event"
    },
    {
      "anonymous": false,
      "inputs": [
        {
          "indexed": true,
          "internalType": "address",
          "name": "previousOwner",
          "type": "address"
        },
        {
          "indexed": true,
          "internalType": "address",
          "name": "newOwner",
          "type": "address"
        }
      ],
      "name": "OwnershipTransferred",
      "type": "event"
    },
    {
      "anonymous": false,
      "inputs": [
        {
          "indexed": false,
          "internalType": "address",
          "name": "token",
          "type": "address"
        },
        {
          "indexed": false,
          "internalType": "uint256",
          "name": "amount",
          "type": "uint256"
        }
      ],
      "name": "Recovered",
      "type": "event"
    },
    {
      "anonymous": false,
      "inputs": [
        {
          "indexed": false,
          "internalType": "uint256",
          "name": "newTotalDeposits",
          "type": "uint256"
        },
        {
          "indexed": false,
          "internalType": "uint256",
          "name": "newTotalSupply",
          "type": "uint256"
        }
      ],
      "name": "Reinvest",
      "type": "event"
    },
    {
      "anonymous": false,
      "inputs": [
        {
          "indexed": true,
          "internalType": "address",
          "name": "account",
          "type": "address"
        }
      ],
      "name": "RemoveDepositor",
      "type": "event"
    },
    {
      "anonymous": false,
      "inputs": [
        {
          "indexed": true,
          "internalType": "address",
          "name": "from",
          "type": "address"
        },
        {
          "indexed": true,
          "internalType": "address",
          "name": "to",
          "type": "address"
        },
        {
          "indexed": false,
          "internalType": "uint256",
          "name": "value",
          "type": "uint256"
        }
      ],
      "name": "Transfer",
      "type": "event"
    },
    {
      "anonymous": false,
      "inputs": [
        {
          "indexed": false,
          "internalType": "uint256",
          "name": "oldValue",
          "type": "uint256"
        },
        {
          "indexed": false,
          "internalType": "uint256",
          "name": "newValue",
          "type": "uint256"
        }
      ],
      "name": "UpdateAdminFee",
      "type": "event"
    },
    {
      "anonymous": false,
      "inputs": [
        {
          "indexed": false,
          "internalType": "address",
          "name": "oldValue",
          "type": "address"
        },
        {
          "indexed": false,
          "internalType": "address",
          "name": "newValue",
          "type": "address"
        }
      ],
      "name": "UpdateDevAddr",
      "type": "event"
    },
    {
      "anonymous": false,
      "inputs": [
        {
          "indexed": false,
          "internalType": "uint256",
          "name": "oldValue",
          "type": "uint256"
        },
        {
          "indexed": false,
          "internalType": "uint256",
          "name": "newValue",
          "type": "uint256"
        }
      ],
      "name": "UpdateDevFee",
      "type": "event"
    },
    {
      "anonymous": false,
      "inputs": [
        {
          "indexed": false,
          "internalType": "uint256",
          "name": "oldValue",
          "type": "uint256"
        },
        {
          "indexed": false,
          "internalType": "uint256",
          "name": "newValue",
          "type": "uint256"
        }
      ],
      "name": "UpdateMaxTokensToDepositWithoutReinvest",
      "type": "event"
    },
    {
      "anonymous": false,
      "inputs": [
        {
          "indexed": false,
          "internalType": "uint256",
          "name": "oldValue",
          "type": "uint256"
        },
        {
          "indexed": false,
          "internalType": "uint256",
          "name": "newValue",
          "type": "uint256"
        }
      ],
      "name": "UpdateMinTokensToReinvest",
      "type": "event"
    },
    {
      "anonymous": false,
      "inputs": [
        {
          "indexed": false,
          "internalType": "uint256",
          "name": "oldValue",
          "type": "uint256"
        },
        {
          "indexed": false,
          "internalType": "uint256",
          "name": "newValue",
          "type": "uint256"
        }
      ],
      "name": "UpdateReinvestReward",
      "type": "event"
    },
    {
      "anonymous": false,
      "inputs": [
        {
          "indexed": true,
          "internalType": "address",
          "name": "account",
          "type": "address"
        },
        {
          "indexed": false,
          "internalType": "uint256",
          "name": "amount",
          "type": "uint256"
        }
      ],
      "name": "Withdraw",
      "type": "event"
    },
    {
      "inputs": [],
      "name": "ADMIN_FEE_BIPS",
      "outputs": [
        {
          "internalType": "uint256",
          "name": "",
          "type": "uint256"
        }
      ],
      "stateMutability": "view",
      "type": "function"
    },
    {
      "inputs": [],
      "name": "DEPOSITS_ENABLED",
      "outputs": [
        {
          "internalType": "bool",
          "name": "",
          "type": "bool"
        }
      ],
      "stateMutability": "view",
      "type": "function"
    },
    {
      "inputs": [],
      "name": "DEV_FEE_BIPS",
      "outputs": [
        {
          "internalType": "uint256",
          "name": "",
          "type": "uint256"
        }
      ],
      "stateMutability": "view",
      "type": "function"
    },
    {
      "inputs": [],
      "name": "DOMAIN_TYPEHASH",
      "outputs": [
        {
          "internalType": "bytes32",
          "name": "",
          "type": "bytes32"
        }
      ],
      "stateMutability": "view",
      "type": "function"
    },
    {
      "inputs": [],
      "name": "MAX_TOKENS_TO_DEPOSIT_WITHOUT_REINVEST",
      "outputs": [
        {
          "internalType": "uint256",
          "name": "",
          "type": "uint256"
        }
      ],
      "stateMutability": "view",
      "type": "function"
    },
    {
      "inputs": [],
      "name": "MIN_TOKENS_TO_REINVEST",
      "outputs": [
        {
          "internalType": "uint256",
          "name": "",
          "type": "uint256"
        }
      ],
      "stateMutability": "view",
      "type": "function"
    },
    {
      "inputs": [],
      "name": "PERMIT_TYPEHASH",
      "outputs": [
        {
          "internalType": "bytes32",
          "name": "",
          "type": "bytes32"
        }
      ],
      "stateMutability": "view",
      "type": "function"
    },
    {
      "inputs": [],
      "name": "PID",
      "outputs": [
        {
          "internalType": "uint256",
          "name": "",
          "type": "uint256"
        }
      ],
      "stateMutability": "view",
      "type": "function"
    },
    {
      "inputs": [],
      "name": "REINVEST_REWARD_BIPS",
      "outputs": [
        {
          "internalType": "uint256",
          "name": "",
          "type": "uint256"
        }
      ],
      "stateMutability": "view",
      "type": "function"
    },
    {
      "inputs": [],
      "name": "VERSION_HASH",
      "outputs": [
        {
          "internalType": "bytes32",
          "name": "",
          "type": "bytes32"
        }
      ],
      "stateMutability": "view",
      "type": "function"
    },
    {
      "inputs": [
        {
          "internalType": "address",
          "name": "depositor",
          "type": "address"
        }
      ],
      "name": "allowDepositor",
      "outputs": [],
      "stateMutability": "nonpayable",
      "type": "function"
    },
    {
      "inputs": [
        {
          "internalType": "address",
          "name": "account",
          "type": "address"
        },
        {
          "internalType": "address",
          "name": "spender",
          "type": "address"
        }
      ],
      "name": "allowance",
      "outputs": [
        {
          "internalType": "uint256",
          "name": "",
          "type": "uint256"
        }
      ],
      "stateMutability": "view",
      "type": "function"
    },
    {
      "inputs": [
        {
          "internalType": "address",
          "name": "",
          "type": "address"
        }
      ],
      "name": "allowedDepositors",
      "outputs": [
        {
          "internalType": "bool",
          "name": "",
          "type": "bool"
        }
      ],
      "stateMutability": "view",
      "type": "function"
    },
    {
      "inputs": [
        {
          "internalType": "address",
          "name": "spender",
          "type": "address"
        },
        {
          "internalType": "uint256",
          "name": "amount",
          "type": "uint256"
        }
      ],
      "name": "approve",
      "outputs": [
        {
          "internalType": "bool",
          "name": "",
          "type": "bool"
        }
      ],
      "stateMutability": "nonpayable",
      "type": "function"
    },
    {
      "inputs": [],
      "name": "asset",
      "outputs": [
        {
          "internalType": "contract IPlatypusAsset",
          "name": "",
          "type": "address"
        }
      ],
      "stateMutability": "view",
      "type": "function"
    },
    {
      "inputs": [
        {
          "internalType": "address",
          "name": "account",
          "type": "address"
        }
      ],
      "name": "balanceOf",
      "outputs": [
        {
          "internalType": "uint256",
          "name": "",
          "type": "uint256"
        }
      ],
      "stateMutability": "view",
      "type": "function"
    },
    {
      "inputs": [],
      "name": "checkReward",
      "outputs": [
        {
          "internalType": "uint256",
          "name": "",
          "type": "uint256"
        }
      ],
      "stateMutability": "view",
      "type": "function"
    },
    {
      "inputs": [],
      "name": "decimals",
      "outputs": [
        {
          "internalType": "uint8",
          "name": "",
          "type": "uint8"
        }
      ],
      "stateMutability": "view",
      "type": "function"
    },
    {
      "inputs": [
        {
          "internalType": "uint256",
          "name": "amount",
          "type": "uint256"
        }
      ],
      "name": "deposit",
      "outputs": [],
      "stateMutability": "nonpayable",
      "type": "function"
    },
    {
      "inputs": [
        {
          "internalType": "address",
          "name": "account",
          "type": "address"
        },
        {
          "internalType": "uint256",
          "name": "amount",
          "type": "uint256"
        }
      ],
      "name": "depositFor",
      "outputs": [],
      "stateMutability": "nonpayable",
      "type": "function"
    },
    {
      "inputs": [],
      "name": "depositToken",
      "outputs": [
        {
          "internalType": "contract IERC20",
          "name": "",
          "type": "address"
        }
      ],
      "stateMutability": "view",
      "type": "function"
    },
    {
      "inputs": [
        {
          "internalType": "uint256",
          "name": "amount",
          "type": "uint256"
        },
        {
          "internalType": "uint256",
          "name": "deadline",
          "type": "uint256"
        },
        {
          "internalType": "uint8",
          "name": "v",
          "type": "uint8"
        },
        {
          "internalType": "bytes32",
          "name": "r",
          "type": "bytes32"
        },
        {
          "internalType": "bytes32",
          "name": "s",
          "type": "bytes32"
        }
      ],
      "name": "depositWithPermit",
      "outputs": [],
      "stateMutability": "nonpayable",
      "type": "function"
    },
    {
      "inputs": [],
      "name": "devAddr",
      "outputs": [
        {
          "internalType": "address",
          "name": "",
          "type": "address"
        }
      ],
      "stateMutability": "view",
      "type": "function"
    },
    {
      "inputs": [],
      "name": "estimateDeployedBalance",
      "outputs": [
        {
          "internalType": "uint256",
          "name": "",
          "type": "uint256"
        }
      ],
      "stateMutability": "view",
      "type": "function"
    },
    {
      "inputs": [],
      "name": "estimateReinvestReward",
      "outputs": [
        {
          "internalType": "uint256",
          "name": "",
          "type": "uint256"
        }
      ],
      "stateMutability": "view",
      "type": "function"
    },
    {
      "inputs": [],
      "name": "extraToken",
      "outputs": [
        {
          "internalType": "address",
          "name": "",
          "type": "address"
        }
      ],
      "stateMutability": "view",
      "type": "function"
    },
    {
      "inputs": [
        {
          "internalType": "uint256",
          "name": "amount",
          "type": "uint256"
        }
      ],
      "name": "getDepositTokensForShares",
      "outputs": [
        {
          "internalType": "uint256",
          "name": "",
          "type": "uint256"
        }
      ],
      "stateMutability": "view",
      "type": "function"
    },
    {
      "inputs": [],
      "name": "getDomainSeparator",
      "outputs": [
        {
          "internalType": "bytes32",
          "name": "",
          "type": "bytes32"
        }
      ],
      "stateMutability": "view",
      "type": "function"
    },
    {
      "inputs": [
        {
          "internalType": "uint256",
          "name": "amount",
          "type": "uint256"
        }
      ],
      "name": "getSharesForDepositTokens",
      "outputs": [
        {
          "internalType": "uint256",
          "name": "",
          "type": "uint256"
        }
      ],
      "stateMutability": "view",
      "type": "function"
    },
    {
      "inputs": [],
      "name": "masterchef",
      "outputs": [
        {
          "internalType": "contract IMasterPlatypus",
          "name": "",
          "type": "address"
        }
      ],
      "stateMutability": "view",
      "type": "function"
    },
    {
      "inputs": [],
      "name": "maxSlippage",
      "outputs": [
        {
          "internalType": "uint256",
          "name": "",
          "type": "uint256"
        }
      ],
      "stateMutability": "view",
      "type": "function"
    },
    {
      "inputs": [],
      "name": "name",
      "outputs": [
        {
          "internalType": "string",
          "name": "",
          "type": "string"
        }
      ],
      "stateMutability": "view",
      "type": "function"
    },
    {
      "inputs": [
        {
          "internalType": "address",
          "name": "",
          "type": "address"
        }
      ],
      "name": "nonces",
      "outputs": [
        {
          "internalType": "uint256",
          "name": "",
          "type": "uint256"
        }
      ],
      "stateMutability": "view",
      "type": "function"
    },
    {
      "inputs": [],
      "name": "numberOfAllowedDepositors",
      "outputs": [
        {
          "internalType": "uint256",
          "name": "",
          "type": "uint256"
        }
      ],
      "stateMutability": "view",
      "type": "function"
    },
    {
      "inputs": [],
      "name": "owner",
      "outputs": [
        {
          "internalType": "address",
          "name": "",
          "type": "address"
        }
      ],
      "stateMutability": "view",
      "type": "function"
    },
    {
      "inputs": [
        {
          "internalType": "address",
          "name": "owner",
          "type": "address"
        },
        {
          "internalType": "address",
          "name": "spender",
          "type": "address"
        },
        {
          "internalType": "uint256",
          "name": "value",
          "type": "uint256"
        },
        {
          "internalType": "uint256",
          "name": "deadline",
          "type": "uint256"
        },
        {
          "internalType": "uint8",
          "name": "v",
          "type": "uint8"
        },
        {
          "internalType": "bytes32",
          "name": "r",
          "type": "bytes32"
        },
        {
          "internalType": "bytes32",
          "name": "s",
          "type": "bytes32"
        }
      ],
      "name": "permit",
      "outputs": [],
      "stateMutability": "nonpayable",
      "type": "function"
    },
    {
      "inputs": [],
      "name": "pool",
      "outputs": [
        {
          "internalType": "contract IPlatypusPool",
          "name": "",
          "type": "address"
        }
      ],
      "stateMutability": "view",
      "type": "function"
    },
    {
      "inputs": [],
      "name": "proxy",
      "outputs": [
        {
          "internalType": "contract IPlatypusVoterProxy",
          "name": "",
          "type": "address"
        }
      ],
      "stateMutability": "view",
      "type": "function"
    },
    {
      "inputs": [
        {
          "internalType": "uint256",
          "name": "amount",
          "type": "uint256"
        }
      ],
      "name": "recoverAVAX",
      "outputs": [],
      "stateMutability": "nonpayable",
      "type": "function"
    },
    {
      "inputs": [
        {
          "internalType": "address",
          "name": "tokenAddress",
          "type": "address"
        },
        {
          "internalType": "uint256",
          "name": "tokenAmount",
          "type": "uint256"
        }
      ],
      "name": "recoverERC20",
      "outputs": [],
      "stateMutability": "nonpayable",
      "type": "function"
    },
    {
      "inputs": [],
      "name": "reinvest",
      "outputs": [],
      "stateMutability": "nonpayable",
      "type": "function"
    },
    {
      "inputs": [
        {
          "internalType": "address",
          "name": "depositor",
          "type": "address"
        }
      ],
      "name": "removeDepositor",
      "outputs": [],
      "stateMutability": "nonpayable",
      "type": "function"
    },
    {
      "inputs": [],
      "name": "renounceOwnership",
      "outputs": [],
      "stateMutability": "nonpayable",
      "type": "function"
    },
    {
      "inputs": [
        {
          "internalType": "uint256",
          "name": "minReturnAmountAccepted",
          "type": "uint256"
        },
        {
          "internalType": "bool",
          "name": "disableDeposits",
          "type": "bool"
        }
      ],
      "name": "rescueDeployedFunds",
      "outputs": [],
      "stateMutability": "nonpayable",
      "type": "function"
    },
    {
      "inputs": [
        {
          "internalType": "address",
          "name": "token",
          "type": "address"
        },
        {
          "internalType": "address",
          "name": "spender",
          "type": "address"
        }
      ],
      "name": "revokeAllowance",
      "outputs": [],
      "stateMutability": "nonpayable",
      "type": "function"
    },
    {
      "inputs": [],
      "name": "rewardToken",
      "outputs": [
        {
          "internalType": "contract IERC20",
          "name": "",
          "type": "address"
        }
      ],
      "stateMutability": "view",
      "type": "function"
    },
    {
      "inputs": [
        {
          "internalType": "address",
          "name": "_extraTokenSwapPair",
          "type": "address"
        }
      ],
      "name": "setExtraRewardSwapPair",
      "outputs": [],
      "stateMutability": "nonpayable",
      "type": "function"
    },
    {
      "inputs": [
        {
          "internalType": "address",
          "name": "_voterProxy",
          "type": "address"
        }
      ],
      "name": "setPlatypusVoterProxy",
      "outputs": [],
      "stateMutability": "nonpayable",
      "type": "function"
    },
    {
      "inputs": [],
      "name": "swapPairExtraReward",
      "outputs": [
        {
          "internalType": "address",
          "name": "",
          "type": "address"
        }
      ],
      "stateMutability": "view",
      "type": "function"
    },
    {
      "inputs": [],
      "name": "symbol",
      "outputs": [
        {
          "internalType": "string",
          "name": "",
          "type": "string"
        }
      ],
      "stateMutability": "view",
      "type": "function"
    },
    {
      "inputs": [],
      "name": "totalDeposits",
      "outputs": [
        {
          "internalType": "uint256",
          "name": "",
          "type": "uint256"
        }
      ],
      "stateMutability": "view",
      "type": "function"
    },
    {
      "inputs": [],
      "name": "totalSupply",
      "outputs": [
        {
          "internalType": "uint256",
          "name": "",
          "type": "uint256"
        }
      ],
      "stateMutability": "view",
      "type": "function"
    },
    {
      "inputs": [
        {
          "internalType": "address",
          "name": "dst",
          "type": "address"
        },
        {
          "internalType": "uint256",
          "name": "amount",
          "type": "uint256"
        }
      ],
      "name": "transfer",
      "outputs": [
        {
          "internalType": "bool",
          "name": "",
          "type": "bool"
        }
      ],
      "stateMutability": "nonpayable",
      "type": "function"
    },
    {
      "inputs": [
        {
          "internalType": "address",
          "name": "src",
          "type": "address"
        },
        {
          "internalType": "address",
          "name": "dst",
          "type": "address"
        },
        {
          "internalType": "uint256",
          "name": "amount",
          "type": "uint256"
        }
      ],
      "name": "transferFrom",
      "outputs": [
        {
          "internalType": "bool",
          "name": "",
          "type": "bool"
        }
      ],
      "stateMutability": "nonpayable",
      "type": "function"
    },
    {
      "inputs": [
        {
          "internalType": "address",
          "name": "newOwner",
          "type": "address"
        }
      ],
      "name": "transferOwnership",
      "outputs": [],
      "stateMutability": "nonpayable",
      "type": "function"
    },
    {
      "inputs": [
        {
          "internalType": "uint256",
          "name": "newValue",
          "type": "uint256"
        }
      ],
      "name": "updateAdminFee",
      "outputs": [],
      "stateMutability": "nonpayable",
      "type": "function"
    },
    {
      "inputs": [
        {
          "internalType": "bool",
          "name": "newValue",
          "type": "bool"
        }
      ],
      "name": "updateDepositsEnabled",
      "outputs": [],
      "stateMutability": "nonpayable",
      "type": "function"
    },
    {
      "inputs": [
        {
          "internalType": "address",
          "name": "newValue",
          "type": "address"
        }
      ],
      "name": "updateDevAddr",
      "outputs": [],
      "stateMutability": "nonpayable",
      "type": "function"
    },
    {
      "inputs": [
        {
          "internalType": "uint256",
          "name": "newValue",
          "type": "uint256"
        }
      ],
      "name": "updateDevFee",
      "outputs": [],
      "stateMutability": "nonpayable",
      "type": "function"
    },
    {
      "inputs": [
        {
          "internalType": "uint256",
          "name": "slippageBips",
          "type": "uint256"
        }
      ],
      "name": "updateMaxSwapSlippage",
      "outputs": [],
      "stateMutability": "nonpayable",
      "type": "function"
    },
    {
      "inputs": [
        {
          "internalType": "uint256",
          "name": "newValue",
          "type": "uint256"
        }
      ],
      "name": "updateMaxTokensToDepositWithoutReinvest",
      "outputs": [],
      "stateMutability": "nonpayable",
      "type": "function"
    },
    {
      "inputs": [
        {
          "internalType": "uint256",
          "name": "newValue",
          "type": "uint256"
        }
      ],
      "name": "updateMinTokensToReinvest",
      "outputs": [],
      "stateMutability": "nonpayable",
      "type": "function"
    },
    {
      "inputs": [
        {
          "internalType": "uint256",
          "name": "newValue",
          "type": "uint256"
        }
      ],
      "name": "updateReinvestReward",
      "outputs": [],
      "stateMutability": "nonpayable",
      "type": "function"
    },
    {
      "inputs": [
        {
          "internalType": "uint256",
          "name": "amount",
          "type": "uint256"
        }
      ],
      "name": "withdraw",
      "outputs": [],
      "stateMutability": "nonpayable",
      "type": "function"
    }
  ],
  "bytecode": {
    "object": "0x610120604052600960e0819052685969656c642059616b60b81b6101009081526200002e916000919062000c35565b506040805180820190915260038082526216549560ea1b60209092019182526200005b9160019162000c35565b503480156200006957600080fd5b50604051620055cd380380620055cd8339810160408190526200008c9162000e01565b600680546001600160a01b031916339081179091556040518291908190600090600080516020620055ad833981519152908290a3508051620000ce906200028f565b6020810151620000de906200031f565b6040810151620000ee90620003d6565b508a51620001049060009060208e019062000c35565b50600980546001600160a01b038c81166001600160a01b03199283168117909355600a8054831673b31f66aa3c1e785363f0875a1b74e27b85fd66c717905560c0869052600b80548316732d580f9cf2fb2d09bc411532988f2afda4e7beff17905587811660805260128054918a169190921681179091556040516371f9621160e01b81526004810192909252906371f9621190602401602060405180830381865afa158015620001b9573d6000803e3d6000fd5b505050506040513d601f19601f82011682018060405250810190620001df919062000f73565b6001600160a01b0390811660a052601380546001600160a01b0319169186169190911790556014879055875160208901516200021e91908b906200048d565b60408801516200022e90620005ae565b6200023a600162000854565b6200024582620008fe565b60408051600080825260208201527fc7606d21ac05cd309191543e409f0845c016120563783d70e4f41419dc0ef234910160405180910390a1505050505050505050505062000ff4565b6006546001600160a01b03163314620002de5760405162461bcd60e51b815260206004820181905260248201526000805160206200558d83398151915260448201526064015b60405180910390fd5b600c5460408051918252602082018390527f481f79ac3a523b6d6db3c5a720e190e986d1cc1b41adcdf50f9caef849901100910160405180910390a1600c55565b6006546001600160a01b031633146200036a5760405162461bcd60e51b815260206004820181905260248201526000805160206200558d8339815191526044820152606401620002d5565b6127106200038960105483620009fb60201b62001f281790919060201c565b11156200039557600080fd5b60115460408051918252602082018390527f2a42303d002f0ba6cfe8259c91d4684443fb0b3de286ba74991175d651726131910160405180910390a1601155565b6006546001600160a01b03163314620004215760405162461bcd60e51b815260206004820181905260248201526000805160206200558d8339815191526044820152606401620002d5565b6127106200044060115483620009fb60201b62001f281790919060201c565b11156200044c57600080fd5b60105460408051918252602082018390527fe7f97d51d307dc44045597c9978bec0f842e6bb40d19b9444084cfa30d9ed4f2910160405180910390a1601055565b600954600a54620004b99185916001600160a01b03918216911662000a10602090811b62001f3417901c565b620005225760405162461bcd60e51b815260206004820152603260248201527f7377617020746f6b656e20646f6573206e6f74206d61746368206465706f73696044820152713a1030b732103932bbb0b932103a37b5b2b760711b6064820152608401620002d5565b601580546001600160a01b0319166001600160a01b0385811691909117909155600a548116908316146200057f576200057d81600a60009054906101000a90046001600160a01b03168462000a1060201b62001f341760201c565b505b601680546001600160a01b039384166001600160a01b0319918216179091556017805492909316911617905550565b6001600160a01b038116156200083557600a5460408051630dfe168160e01b815290516001600160a01b0392831692841691630dfe16819160048083019260209291908290030181865afa1580156200060b573d6000803e3d6000fd5b505050506040513d601f19601f8201168201806040525081019062000631919062000f73565b6001600160a01b031603620006cb57806001600160a01b031663d21220a76040518163ffffffff1660e01b8152600401602060405180830381865afa1580156200067f573d6000803e3d6000fd5b505050506040513d601f19601f82011682018060405250810190620006a5919062000f73565b601980546001600160a01b0319166001600160a01b039290921691909117905562000815565b600a546040805163d21220a760e01b815290516001600160a01b039283169284169163d21220a79160048083019260209291908290030181865afa15801562000718573d6000803e3d6000fd5b505050506040513d601f19601f820116820180604052508101906200073e919062000f73565b6001600160a01b0316036200078c57806001600160a01b0316630dfe16816040518163ffffffff1660e01b8152600401602060405180830381865afa1580156200067f573d6000803e3d6000fd5b60405162461bcd60e51b815260206004820152605160248201527f506c61747970757353747261746567793a3a5f7365744578747261526577617260448201527f6453776170506169722053776170207061697220646f6573206e6f7420636f6e6064820152703a30b4b7103932bbb0b932103a37b5b2b760791b608482015260a401620002d5565b601880546001600160a01b0383166001600160a01b031990911617905550565b601880546001600160a01b031990811690915560198054909116905550565b6006546001600160a01b031633146200089f5760405162461bcd60e51b815260206004820181905260248201526000805160206200558d8339815191526044820152606401620002d5565b600e5481151560ff909116151503620008b757600080fd5b600e805460ff19168215159081179091556040519081527f7b014ed3854e7f5cb0218d58b3c6ae7d53a68bb0af2f67bfb029ea42c38a7e859060200160405180910390a150565b6006546001600160a01b03163314620009495760405162461bcd60e51b815260206004820181905260248201526000805160206200558d8339815191526044820152606401620002d5565b6001600160a01b038116620009b05760405162461bcd60e51b815260206004820152602660248201527f4f776e61626c653a206e6577206f776e657220697320746865207a65726f206160448201526564647265737360d01b6064820152608401620002d5565b6006546040516001600160a01b03808416921690600080516020620055ad83398151915290600090a3600680546001600160a01b0319166001600160a01b0392909216919091179055565b600062000a09828462000f91565b9392505050565b6000836001600160a01b0316630dfe16816040518163ffffffff1660e01b8152600401602060405180830381865afa15801562000a51573d6000803e3d6000fd5b505050506040513d601f19601f8201168201806040525081019062000a77919062000f73565b6001600160a01b0316836001600160a01b0316148062000b0c5750836001600160a01b031663d21220a76040518163ffffffff1660e01b8152600401602060405180830381865afa15801562000ad1573d6000803e3d6000fd5b505050506040513d601f19601f8201168201806040525081019062000af7919062000f73565b6001600160a01b0316836001600160a01b0316145b801562000c0e5750836001600160a01b0316630dfe16816040518163ffffffff1660e01b8152600401602060405180830381865afa15801562000b53573d6000803e3d6000fd5b505050506040513d601f19601f8201168201806040525081019062000b79919062000f73565b6001600160a01b0316826001600160a01b0316148062000c0e5750836001600160a01b031663d21220a76040518163ffffffff1660e01b8152600401602060405180830381865afa15801562000bd3573d6000803e3d6000fd5b505050506040513d601f19601f8201168201806040525081019062000bf9919062000f73565b6001600160a01b0316826001600160a01b0316145b801562000c2d5750816001600160a01b0316836001600160a01b031614155b949350505050565b82805462000c439062000fb8565b90600052602060002090601f01602090048101928262000c67576000855562000cb2565b82601f1062000c8257805160ff191683800117855562000cb2565b8280016001018555821562000cb2579182015b8281111562000cb257825182559160200191906001019062000c95565b5062000cc092915062000cc4565b5090565b5b8082111562000cc0576000815560010162000cc5565b634e487b7160e01b600052604160045260246000fd5b604051606081016001600160401b038111828210171562000d165762000d1662000cdb565b60405290565b604051601f8201601f191681016001600160401b038111828210171562000d475762000d4762000cdb565b604052919050565b80516001600160a01b038116811462000d6757600080fd5b919050565b60006060828403121562000d7f57600080fd5b62000d8962000cf1565b905062000d968262000d4f565b815262000da66020830162000d4f565b602082015262000db96040830162000d4f565b604082015292915050565b60006060828403121562000dd757600080fd5b62000de162000cf1565b905081518152602082015160208201526040820151604082015292915050565b60008060008060008060008060008060006101e08c8e03121562000e2457600080fd5b8b516001600160401b038082111562000e3c57600080fd5b818e0191508e601f83011262000e5157600080fd5b81518181111562000e665762000e6662000cdb565b62000e7b601f8201601f191660200162000d1c565b91508082528f602082850101111562000e9357600080fd5b60005b8181101562000eb45760208185018101518483018201520162000e96565b8181111562000ec7576000602083850101525b5050809c50505062000edc60208d0162000d4f565b995062000eec60408d0162000d4f565b985062000efd8d60608e0162000d6c565b975060c08c0151965062000f1460e08d0162000d4f565b955062000f256101008d0162000d4f565b945062000f366101208d0162000d4f565b93506101408c0151925062000f4f6101608d0162000d4f565b915062000f618d6101808e0162000dc4565b90509295989b509295989b9093969950565b60006020828403121562000f8657600080fd5b62000a098262000d4f565b6000821982111562000fb357634e487b7160e01b600052601160045260246000fd5b500190565b600181811c9082168062000fcd57607f821691505b60208210810362000fee57634e487b7160e01b600052602260045260246000fd5b50919050565b60805160a05160c0516144d6620010b7600039600081816105b901528181610bd701528181610c65015281816111ab01528181611817015281816125c4015281816129e301528181612d6101526133cf01526000818161051101528181610cb00152818161187d015281816131d70152818161325901526138e20152600081816108d601528181610bb501528181610c870152818161118901528181611845015281816125a201528181612d3f0152818161342a01526138b801526144d66000f3fe608060405234801561001057600080fd5b50600436106103d05760003560e01c80638c04166f116101ff578063bd079f551161011a578063e21ac825116100ad578063f2fde38b1161007c578063f2fde38b146108ab578063f7c618c1146108be578063fb1db278146108d1578063fdb5a03e146108f857600080fd5b8063e21ac8251461086a578063eab89a5a1461087d578063ec55688914610890578063ed24911d146108a357600080fd5b8063d505accf116100e9578063d505accf146107f8578063da09c72c1461080b578063dd62ed3e1461081e578063dd8ce4d61461085757600080fd5b8063bd079f55146107c1578063c4b24a46146107ca578063c89039c5146107d2578063cff1b6ef146107e557600080fd5b8063a1a4ddeb11610192578063ac0d31ff11610161578063ac0d31ff14610786578063b52a321f14610799578063b6b55f25146107a6578063b9e57b80146107b957600080fd5b8063a1a4ddeb1461073a578063a8ae2b7c1461074d578063a9059cbb14610760578063abff19631461077357600080fd5b806395d89b41116101ce57806395d89b41146106e557806399729ec1146106ed5780639e4e7318146107005780639f0237b11461072757600080fd5b80638c04166f146106a55780638da5cb5b146106ae578063909ac8f4146106bf5780639291d563146106d257600080fd5b80634bebd1e7116102ef5780637ae26773116102825780638432e894116102515780638432e894146106635780638980f11f146106765780638aff733d146106895780638b73e6061461069257600080fd5b80637ae26773146106155780637d882097146106285780637ecebe0014610630578063818372301461065057600080fd5b80635eaec0e4116102be5780635eaec0e4146105b457806370a08231146105db578063715018a614610604578063789139bc1461060c57600080fd5b80634bebd1e7146105725780634e77ace5146105855780634ebb7916146105985780635ea682ea146105ab57600080fd5b80632e1a7d4d1161036757806338d52e0f1161033657806338d52e0f1461050c5780633bdc6e7214610533578063483c2ef01461053c5780634a970be71461055f57600080fd5b80632e1a7d4d146104a35780632f4f21e2146104b857806330adf81f146104cb578063313ce567146104f257600080fd5b806316f0115b116103a357806316f0115b1461043557806318160ddd1461046057806320606b701461046957806323b872dd1461049057600080fd5b806306fdde03146103d557806307677111146103f3578063095ea7b31461040a5780630f23475d1461042d575b600080fd5b6103dd610900565b6040516103ea9190613e23565b60405180910390f35b6103fc600f5481565b6040519081526020016103ea565b61041d610418366004613e4b565b61098e565b60405190151581526020016103ea565b6103fc6109a5565b601254610448906001600160a01b031681565b6040516001600160a01b0390911681526020016103ea565b6103fc60025481565b6103fc7f8b73c3c69bb8fe3d512ecc4cf759cc79239f7b179b0ffacaa9a75d522b39400f81565b61041d61049e366004613e77565b610a47565b6104b66104b1366004613eb8565b610b2b565b005b6104b66104c6366004613e4b565b610d7d565b6103fc7f6e71edae12b1b97f4d1f60370fef10105fa2faae0126114a169c64845d6126c981565b6104fa601281565b60405160ff90911681526020016103ea565b6104487f000000000000000000000000000000000000000000000000000000000000000081565b6103fc60075481565b61041d61054a366004613ed1565b60086020526000908152604090205460ff1681565b6104b661056d366004613f04565b610d8b565b6104b6610580366004613ed1565b610e24565b6104b6610593366004613f59565b610f23565b6104b66105a6366004613eb8565b610fac565b6103fc60115481565b6103fc7f000000000000000000000000000000000000000000000000000000000000000081565b6103fc6105e9366004613ed1565b6001600160a01b031660009081526004602052604090205490565b6104b6611043565b6103fc600d5481565b6104b6610623366004613f76565b6110b7565b6103fc61115c565b6103fc61063e366004613ed1565b60056020526000908152604090205481565b6104b661065e366004613eb8565b611214565b6104b6610671366004613ed1565b61127f565b6104b6610684366004613e4b565b6112b5565b6103fc60105481565b6104b66106a0366004613ed1565b6113a3565b6103fc60145481565b6006546001600160a01b0316610448565b601854610448906001600160a01b031681565b6104b66106e0366004613ed1565b611524565b6103dd6115b7565b6104b66106fb366004613eb8565b6115c4565b6103fc7fc89efdaa54c0f20c7adf612882df0950f5a951637e0307cdcb4c672f298b8bc681565b6104b6610735366004613ed1565b611652565b601954610448906001600160a01b031681565b6104b661075b366004613eb8565b61169e565b61041d61076e366004613e4b565b61172c565b6104b6610781366004613eb8565b611739565b6104b6610794366004613faf565b611768565b600e5461041d9060ff1681565b6104b66107b4366004613eb8565b611a2d565b6103fc611a37565b6103fc600c5481565b6103fc611a7c565b600954610448906001600160a01b031681565b6104b66107f3366004613eb8565b611a90565b6104b6610806366004613fd4565b611b06565b600b54610448906001600160a01b031681565b6103fc61082c366004613f76565b6001600160a01b03918216600090815260036020908152604080832093909416825291909152205490565b6103fc610865366004613eb8565b611c0b565b6104b6610878366004613eb8565b611c45565b6103fc61088b366004613eb8565b611cb0565b601354610448906001600160a01b031681565b6103fc611ce4565b6104b66108b9366004613ed1565b611d84565b600a54610448906001600160a01b031681565b6104487f000000000000000000000000000000000000000000000000000000000000000081565b6104b6611e6f565b6000805461090d90614042565b80601f016020809104026020016040519081016040528092919081815260200182805461093990614042565b80156109865780601f1061095b57610100808354040283529160200191610986565b820191906000526020600020905b81548152906001019060200180831161096957829003601f168201915b505050505081565b600061099b338484612149565b5060015b92915050565b6000806109b061115c565b9050806000036109c257600091505090565b60125460095460405163907448ed60e01b81526000926001600160a01b039081169263907448ed926109fc9290911690869060040161407c565b606060405180830381865afa158015610a19573d6000803e3d6000fd5b505050506040513d601f19601f82011682018060405250810190610a3d9190614095565b5090949350505050565b6001600160a01b038316600081815260036020908152604080832033808552925282205491929091908214801590610a8157506000198114155b15610b12576000610aad856040518060600160405280602f815260200161441d602f9139849190612257565b6001600160a01b038881166000818152600360209081526040808320948916808452948252918290208590559051848152939450919290917f8c5be1e5ebec7d5bd14f71427d1e84f3dd0314c0f7b2291e5b200ac8c7c3b925910160405180910390a3505b610b1d868686612283565b6001925050505b9392505050565b6000610b3682611cb0565b905060008111610b8d5760405162461bcd60e51b815260206004820152601a60248201527f506c61747970757353747261746567793a3a776974686472617700000000000060448201526064015b60405180910390fd5b6013546040516305d38c7160e21b81526001600160a01b039091169063174e31c490610bff907f0000000000000000000000000000000000000000000000000000000000000000907f00000000000000000000000000000000000000000000000000000000000000009060040161407c565b600060405180830381600087803b158015610c1957600080fd5b505af1158015610c2d573d6000803e3d6000fd5b5050601354601254600954601454604051635298441760e11b8152600096506001600160a01b03948516955063a530882e94610cdb947f0000000000000000000000000000000000000000000000000000000000000000947f000000000000000000000000000000000000000000000000000000000000000094918316939216917f000000000000000000000000000000000000000000000000000000000000000091908b906004016140ce565b6020604051808303816000875af1158015610cfa573d6000803e3d6000fd5b505050506040513d601f19601f82011682018060405250810190610d1e919061410c565b600954909150610d38906001600160a01b031633836123b6565b610d423384612411565b60405182815233907f884edad9ce6fa2440d8a54cc123490eb96d2768479d49ff9c7366125a9424364906020015b60405180910390a2505050565b610d8782826124e7565b5050565b60095460405163d505accf60e01b8152336004820152306024820152604481018790526064810186905260ff8516608482015260a4810184905260c481018390526001600160a01b039091169063d505accf9060e401600060405180830381600087803b158015610dfb57600080fd5b505af1158015610e0f573d6000803e3d6000fd5b50505050610e1d33866124e7565b5050505050565b6006546001600160a01b03163314610e4e5760405162461bcd60e51b8152600401610b8490614125565b6001600160a01b03811660009081526008602052604090205460ff1615610eb75760405162461bcd60e51b815260206004820152601c60248201527f5065726d697373696f6e65643a3a616c6c6f774465706f7369746f72000000006044820152606401610b84565b6001600160a01b0381166000908152600860205260409020805460ff19166001908117909155600754610ee991611f28565b6007556040516001600160a01b038216907fc0a1035c16faf8d1304056d92c00edf028f87e62b8235a938f00af9e3c0312c590600090a250565b6006546001600160a01b03163314610f4d5760405162461bcd60e51b8152600401610b8490614125565b600e5481151560ff909116151503610f6457600080fd5b600e805460ff19168215159081179091556040519081527f7b014ed3854e7f5cb0218d58b3c6ae7d53a68bb0af2f67bfb029ea42c38a7e85906020015b60405180910390a150565b6006546001600160a01b03163314610fd65760405162461bcd60e51b8152600401610b8490614125565b60008111610fe357600080fd5b604051339082156108fc029083906000818181858888f19350505050158015611010573d6000803e3d6000fd5b507f8c1256b8896378cd5044f80c202f9772b9d77dc85c8a6eb51967210b09bfaa28600082604051610fa192919061407c565b6006546001600160a01b0316331461106d5760405162461bcd60e51b8152600401610b8490614125565b6006546040516000916001600160a01b0316907f8be0079c531659141344cd1fd0a4f28419497f9722a3daafe3b4186f6b6457e0908390a3600680546001600160a01b0319169055565b6006546001600160a01b031633146110e15760405162461bcd60e51b8152600401610b8490614125565b60405163095ea7b360e01b81526001600160a01b0383169063095ea7b39061111090849060009060040161407c565b6020604051808303816000875af115801561112f573d6000803e3d6000fd5b505050506040513d601f19601f82011682018060405250810190611153919061415a565b610d8757600080fd5b6013546040516301e1c48d60e01b815260009182916001600160a01b03909116906301e1c48d906111d3907f0000000000000000000000000000000000000000000000000000000000000000907f00000000000000000000000000000000000000000000000000000000000000009060040161407c565b602060405180830381865afa1580156111f0573d6000803e3d6000fd5b505050506040513d601f19601f8201168201806040525081019061099f919061410c565b6006546001600160a01b0316331461123e5760405162461bcd60e51b8152600401610b8490614125565b600c5460408051918252602082018390527f481f79ac3a523b6d6db3c5a720e190e986d1cc1b41adcdf50f9caef849901100910160405180910390a1600c55565b600b546001600160a01b031633146112a95760405162461bcd60e51b8152600401610b8490614177565b6112b2816126a7565b50565b6006546001600160a01b031633146112df5760405162461bcd60e51b8152600401610b8490614125565b600081116112ec57600080fd5b60405163a9059cbb60e01b81526001600160a01b0383169063a9059cbb9061131a903390859060040161407c565b6020604051808303816000875af1158015611339573d6000803e3d6000fd5b505050506040513d601f19601f8201168201806040525081019061135d919061415a565b61136657600080fd5b7f8c1256b8896378cd5044f80c202f9772b9d77dc85c8a6eb51967210b09bfaa28828260405161139792919061407c565b60405180910390a15050565b6006546001600160a01b031633146113cd5760405162461bcd60e51b8152600401610b8490614125565b60006007541161143c5760405162461bcd60e51b815260206004820152603460248201527f5065726d697373696f6e65643a3a72656d6f76654465706f7369746f722c206e6044820152736f20616c6c6f776564206465706f7369746f727360601b6064820152608401610b84565b6001600160a01b03811660009081526008602052604090205460ff1615156001146114bc5760405162461bcd60e51b815260206004820152602a60248201527f5065726d697373696f6e65643a3a72656d6f76654465706f7369746f722c206e6044820152691bdd08185b1b1bddd95960b21b6064820152608401610b84565b6001600160a01b0381166000908152600860205260409020805460ff191690556007546114ea90600161293e565b6007556040516001600160a01b038216907f0e86f6608b536e5339a25b65ff531f5ea91e1313d056ecd4752b35cbd16137d490600090a250565b600b546001600160a01b0316331461154e5760405162461bcd60e51b8152600401610b8490614177565b600b54604080516001600160a01b03928316815291831660208301527fa8e91499ed37682f43cffb045fcc7d379a91e8c9a14e6321877ee34dee564c00910160405180910390a1600b80546001600160a01b0319166001600160a01b0392909216919091179055565b6001805461090d90614042565b6006546001600160a01b031633146115ee5760405162461bcd60e51b8152600401610b8490614125565b61271061160660105483611f2890919063ffffffff16565b111561161157600080fd5b60115460408051918252602082018390527f2a42303d002f0ba6cfe8259c91d4684443fb0b3de286ba74991175d651726131910160405180910390a1601155565b6006546001600160a01b0316331461167c5760405162461bcd60e51b8152600401610b8490614125565b601380546001600160a01b0319166001600160a01b0392909216919091179055565b6006546001600160a01b031633146116c85760405162461bcd60e51b8152600401610b8490614125565b6127106116e060115483611f2890919063ffffffff16565b11156116eb57600080fd5b60105460408051918252602082018390527fe7f97d51d307dc44045597c9978bec0f842e6bb40d19b9444084cfa30d9ed4f2910160405180910390a1601055565b600061099b338484612283565b600b546001600160a01b031633146117635760405162461bcd60e51b8152600401610b8490614177565b601455565b6006546001600160a01b031633146117925760405162461bcd60e51b8152600401610b8490614125565b6009546040516370a0823160e01b81523060048201526000916001600160a01b0316906370a0823190602401602060405180830381865afa1580156117db573d6000803e3d6000fd5b505050506040513d601f19601f820116820180604052508101906117ff919061410c565b601354601254600954604051630175b7bf60e11b81527f000000000000000000000000000000000000000000000000000000000000000060048201526001600160a01b037f000000000000000000000000000000000000000000000000000000000000000081166024830152928316604482015290821660648201527f00000000000000000000000000000000000000000000000000000000000000008216608482015292935016906302eb6f7e9060a401600060405180830381600087803b1580156118cb57600080fd5b505af11580156118df573d6000803e3d6000fd5b50506009546040516370a0823160e01b8152306004820152600093506001600160a01b0390911691506370a0823190602401602060405180830381865afa15801561192e573d6000803e3d6000fd5b505050506040513d601f19601f82011682018060405250810190611952919061410c565b90508361195f828461293e565b10156119bb5760405162461bcd60e51b815260206004820152602560248201527f506c61747970757353747261746567793a3a7265736375654465706c6f79656460448201526446756e647360d81b6064820152608401610b84565b7fc7606d21ac05cd309191543e409f0845c016120563783d70e4f41419dc0ef2346119e461115c565b6002546040805192835260208301919091520160405180910390a1600e5460ff1615156001148015611a1857506001831515145b15611a2757611a276000610f23565b50505050565b6112b233826124e7565b600080611a42611a7c565b9050600c548110611a7457611a6e612710611a686010548461294a90919063ffffffff16565b90612956565b91505090565b600091505090565b600080611a87612962565b95945050505050565b6006546001600160a01b03163314611aba5760405162461bcd60e51b8152600401610b8490614125565b8015611ac557600080fd5b600f5460408051918252602082018390527f3cc372f330f95ac9540626dc8a25f5bf21ba607215a5d58304cb804d446f104a910160405180910390a1600f55565b42841015611b485760405162461bcd60e51b815260206004820152600f60248201526e1c195c9b5a5d0e8e995e1c1a5c9959608a1b6044820152606401610b84565b6001600160a01b038716600090815260056020526040812080547f6e71edae12b1b97f4d1f60370fef10105fa2faae0126114a169c64845d6126c9918a918a918a919086611b95836141bb565b909155506040805160208101969096526001600160a01b0394851690860152929091166060840152608083015260a082015260c0810186905260e001604051602081830303815290604052805190602001209050611bf68882868686612beb565b611c01888888612149565b5050505050505050565b6000611c21611c1861115c565b6002549061294a565b600003611c2c575090565b61099f611c3761115c565b600254611a6890859061294a565b6006546001600160a01b03163314611c6f5760405162461bcd60e51b8152600401610b8490614125565b600d5460408051918252602082018390527fa5dae50539d56dfe1fb5273d883b0c39bc76750a25d036fc5fbd09ad8fd5f57f910160405180910390a1600d55565b6000611cbd611c1861115c565b600003611ccc57506000919050565b61099f600254611a68611cdd61115c565b859061294a565b60007f8b73c3c69bb8fe3d512ecc4cf759cc79239f7b179b0ffacaa9a75d522b39400f60001b6000604051611d1991906141d4565b6040519081900390207fc89efdaa54c0f20c7adf612882df0950f5a951637e0307cdcb4c672f298b8bc646604080516020810195909552840192909252606083015260808201523060a082015260c00160405160208183030381529060405280519060200120905090565b6006546001600160a01b03163314611dae5760405162461bcd60e51b8152600401610b8490614125565b6001600160a01b038116611e135760405162461bcd60e51b815260206004820152602660248201527f4f776e61626c653a206e6577206f776e657220697320746865207a65726f206160448201526564647265737360d01b6064820152608401610b84565b6006546040516001600160a01b038084169216907f8be0079c531659141344cd1fd0a4f28419497f9722a3daafe3b4186f6b6457e090600090a3600680546001600160a01b0319166001600160a01b0392909216919091179055565b323314611eb55760405162461bcd60e51b815260206004820152601460248201527359616b53747261746567793a3a6f6e6c79454f4160601b6044820152606401610b84565b600080600080611ec3612962565b9350935093509350600c54811015611f1d5760405162461bcd60e51b815260206004820152601a60248201527f506c61747970757353747261746567793a3a7265696e766573740000000000006044820152606401610b84565b611a27828585612d17565b6000610b24828461426f565b6000836001600160a01b0316630dfe16816040518163ffffffff1660e01b8152600401602060405180830381865afa158015611f74573d6000803e3d6000fd5b505050506040513d601f19601f82011682018060405250810190611f989190614287565b6001600160a01b0316836001600160a01b031614806120295750836001600160a01b031663d21220a76040518163ffffffff1660e01b8152600401602060405180830381865afa158015611ff0573d6000803e3d6000fd5b505050506040513d601f19601f820116820180604052508101906120149190614287565b6001600160a01b0316836001600160a01b0316145b80156121235750836001600160a01b0316630dfe16816040518163ffffffff1660e01b8152600401602060405180830381865afa15801561206e573d6000803e3d6000fd5b505050506040513d601f19601f820116820180604052508101906120929190614287565b6001600160a01b0316826001600160a01b031614806121235750836001600160a01b031663d21220a76040518163ffffffff1660e01b8152600401602060405180830381865afa1580156120ea573d6000803e3d6000fd5b505050506040513d601f19601f8201168201806040525081019061210e9190614287565b6001600160a01b0316826001600160a01b0316145b80156121415750816001600160a01b0316836001600160a01b031614155b949350505050565b6001600160a01b03831661219f5760405162461bcd60e51b815260206004820152601c60248201527f5f617070726f76653a3a6f776e6572207a65726f2061646472657373000000006044820152606401610b84565b6001600160a01b0382166121f55760405162461bcd60e51b815260206004820152601e60248201527f5f617070726f76653a3a7370656e646572207a65726f206164647265737300006044820152606401610b84565b6001600160a01b0383811660008181526003602090815260408083209487168084529482529182902085905590518481527f8c5be1e5ebec7d5bd14f71427d1e84f3dd0314c0f7b2291e5b200ac8c7c3b92591015b60405180910390a3505050565b6000818484111561227b5760405162461bcd60e51b8152600401610b849190613e23565b505050900390565b6001600160a01b0382166122f65760405162461bcd60e51b815260206004820152603460248201527f5f7472616e73666572546f6b656e733a2063616e6e6f74207472616e7366657260448201527320746f20746865207a65726f206164647265737360601b6064820152608401610b84565b612333816040518060600160405280602e8152602001614473602e91396001600160a01b0386166000908152600460205260409020549190612257565b6001600160a01b0380851660009081526004602052604080822093909355908416815220546123629082611f28565b6001600160a01b0380841660008181526004602052604090819020939093559151908516907fddf252ad1be2c89b69c2b068fc378daa952ba7f163c4a11628f55a4df523b3ef9061224a9085815260200190565b61240c8363a9059cbb60e01b84846040516024016123d592919061407c565b60408051601f198184030181529190526020810180516001600160e01b03166001600160e01b031990931692909217909152612eea565b505050565b61244e8160405180606001604052806027815260200161444c602791396001600160a01b0385166000908152600460205260409020549190612257565b60046000846001600160a01b03166001600160a01b031681526020019081526020016000208190555061249e816040518060600160405280602781526020016143f6602791396002549190612257565b6002556040518181526000906001600160a01b038416907fddf252ad1be2c89b69c2b068fc378daa952ba7f163c4a11628f55a4df523b3ef906020015b60405180910390a35050565b600e5460ff16151560011461253e5760405162461bcd60e51b815260206004820152601a60248201527f506c61747970757353747261746567793a3a5f6465706f7369740000000000006044820152606401610b84565b600d541561257a57600080600080612554612962565b9350935093509350600d5481111561257157612571828585612d17565b5050505061261f565b6013546040516305d38c7160e21b81526001600160a01b039091169063174e31c4906125ec907f0000000000000000000000000000000000000000000000000000000000000000907f00000000000000000000000000000000000000000000000000000000000000009060040161407c565b600060405180830381600087803b15801561260657600080fd5b505af115801561261a573d6000803e3d6000fd5b505050505b600954612637906001600160a01b0316333084612fbc565b600061264282612ff4565b905061265a83612655610865858561293e565b6132df565b6126648282613363565b6001600160a01b0383167fe1fffcc4923d04b559f4d29a8bfc6cda04eb5b0d3c460751c2402c5c5cc9109c612699848461293e565b604051908152602001610d70565b6001600160a01b0381161561291f57600a5460408051630dfe168160e01b815290516001600160a01b0392831692841691630dfe16819160048083019260209291908290030181865afa158015612702573d6000803e3d6000fd5b505050506040513d601f19601f820116820180604052508101906127269190614287565b6001600160a01b0316036127bb57806001600160a01b031663d21220a76040518163ffffffff1660e01b8152600401602060405180830381865afa158015612772573d6000803e3d6000fd5b505050506040513d601f19601f820116820180604052508101906127969190614287565b601980546001600160a01b0319166001600160a01b03929092169190911790556128ff565b600a546040805163d21220a760e01b815290516001600160a01b039283169284169163d21220a79160048083019260209291908290030181865afa158015612807573d6000803e3d6000fd5b505050506040513d601f19601f8201168201806040525081019061282b9190614287565b6001600160a01b03160361287757806001600160a01b0316630dfe16816040518163ffffffff1660e01b8152600401602060405180830381865afa158015612772573d6000803e3d6000fd5b60405162461bcd60e51b815260206004820152605160248201527f506c61747970757353747261746567793a3a5f7365744578747261526577617260448201527f6453776170506169722053776170207061697220646f6573206e6f7420636f6e6064820152703a30b4b7103932bbb0b932103a37b5b2b760791b608482015260a401610b84565b601880546001600160a01b0383166001600160a01b031990911617905550565b601880546001600160a01b031990811690915560198054909116905550565b6000610b2482846142a4565b6000610b2482846142bb565b6000610b2482846142f0565b6016546040516370a0823160e01b815230600482015260009182918291829182916001600160a01b0316906370a0823190602401602060405180830381865afa1580156129b3573d6000803e3d6000fd5b505050506040513d601f19601f820116820180604052508101906129d7919061410c565b90506000806000612a077f00000000000000000000000000000000000000000000000000000000000000006133f5565b919450925090506000612a1a8585611f28565b600a546016549192506000916001600160a01b03918216911603612a3e5784612a63565b601654600a54601754612a639285926001600160a01b03918216929082169116613544565b905060006001600160a01b03841615612b4e5773b31f66aa3c1e785363f0875a1b74e27b85fd66c6196001600160a01b03851601612aa2575083612b4e565b6018546001600160a01b031615612b4e576019546040516370a0823160e01b8152306004820152612b28916001600160a01b0316906370a0823190602401602060405180830381865afa158015612afd573d6000803e3d6000fd5b505050506040513d601f19601f82011682018060405250810190612b21919061410c565b8690611f28565b600a54601854919650612b4b91879187916001600160a01b039182169116613544565b90505b600a546040516370a0823160e01b8152306004820152600091612bc79184916001600160a01b0316906370a0823190602401602060405180830381865afa158015612b9d573d6000803e3d6000fd5b505050506040513d601f19601f82011682018060405250810190612bc1919061410c565b90611f28565b90506000612bd58285611f28565b949d969c50909a50929850939650505050505050565b6000612bf5611ce4565b60405161190160f01b602082015260228101919091526042810186905260620160408051601f198184030181528282528051602091820120600080855291840180845281905260ff88169284019290925260608301869052608083018590529092509060019060a0016020604051602081039080840390855afa158015612c80573d6000803e3d6000fd5b5050604051601f1901519150506001600160a01b03811615801590612cb65750866001600160a01b0316816001600160a01b0316145b612d0e5760405162461bcd60e51b8152602060048201526024808201527f417263683a3a76616c69646174655369673a20696e76616c6964207369676e616044820152637475726560e01b6064820152608401610b84565b50505050505050565b6013546040516305d38c7160e21b81526001600160a01b039091169063174e31c490612d89907f0000000000000000000000000000000000000000000000000000000000000000907f00000000000000000000000000000000000000000000000000000000000000009060040161407c565b600060405180830381600087803b158015612da357600080fd5b505af1158015612db7573d6000803e3d6000fd5b505050506000612dd0612dc984613602565b8590611f28565b9050612de6612ddf8584613646565b8290611f28565b506000612e04612710611a686011548561294a90919063ffffffff16565b90508015612e2957600b54600a54612e29916001600160a01b039182169116836123b6565b6000612e46612710611a686010548661294a90919063ffffffff16565b90508015612e6557600a54612e65906001600160a01b031633836123b6565b6000612e83612e7e83612e78878761293e565b9061293e565b613785565b90506000612e9082612ff4565b9050612e9c8282613363565b7fc7606d21ac05cd309191543e409f0845c016120563783d70e4f41419dc0ef234612ec561115c565b6002546040805192835260208301919091520160405180910390a15050505050505050565b6000612f3f826040518060400160405280602081526020017f5361666545524332303a206c6f772d6c6576656c2063616c6c206661696c6564815250856001600160a01b03166137ad9092919063ffffffff16565b80519091501561240c5780806020019051810190612f5d919061415a565b61240c5760405162461bcd60e51b815260206004820152602a60248201527f5361666545524332303a204552433230206f7065726174696f6e20646964206e6044820152691bdd081cdd58d8d9595960b21b6064820152608401610b84565b6040516001600160a01b0380851660248301528316604482015260648101829052611a279085906323b872dd60e01b906084016123d5565b600061099f601260009054906101000a90046001600160a01b03166001600160a01b03166355af008a6040518163ffffffff1660e01b8152600401602060405180830381865afa15801561304c573d6000803e3d6000fd5b505050506040513d601f19601f82011682018060405250810190613070919061410c565b601260009054906101000a90046001600160a01b03166001600160a01b0316637727c6556040518163ffffffff1660e01b8152600401602060405180830381865afa1580156130c3573d6000803e3d6000fd5b505050506040513d601f19601f820116820180604052508101906130e7919061410c565b601260009054906101000a90046001600160a01b03166001600160a01b031663a76f54d26040518163ffffffff1660e01b8152600401602060405180830381865afa15801561313a573d6000803e3d6000fd5b505050506040513d601f19601f8201168201806040525081019061315e919061410c565b601260009054906101000a90046001600160a01b03166001600160a01b0316637a1c36d16040518163ffffffff1660e01b8152600401602060405180830381865afa1580156131b1573d6000803e3d6000fd5b505050506040513d601f19601f820116820180604052508101906131d5919061410c565b7f00000000000000000000000000000000000000000000000000000000000000006001600160a01b031663961be3916040518163ffffffff1660e01b8152600401602060405180830381865afa158015613233573d6000803e3d6000fd5b505050506040513d601f19601f82011682018060405250810190613257919061410c565b7f00000000000000000000000000000000000000000000000000000000000000006001600160a01b031663705727b56040518163ffffffff1660e01b8152600401602060405180830381865afa1580156132b5573d6000803e3d6000fd5b505050506040513d601f19601f820116820180604052508101906132d9919061410c565b886137bc565b6002546132ec9082611f28565b6002556001600160a01b0382166000908152600460205260409020546133129082611f28565b6001600160a01b0383166000818152600460205260408082209390935591519091907fddf252ad1be2c89b69c2b068fc378daa952ba7f163c4a11628f55a4df523b3ef906124db9085815260200190565b600061336f838361293e565b116133ca5760405162461bcd60e51b815260206004820152602560248201527f506c61747970757353747261746567793a3a5f7374616b654465706f736974546044820152646f6b656e7360d81b6064820152608401610b84565b610d877f0000000000000000000000000000000000000000000000000000000000000000838361386b565b60135460405163304cf65960e11b8152600091829182918291829182916001600160a01b0390911690636099ecb290613454907f0000000000000000000000000000000000000000000000000000000000000000908b9060040161407c565b606060405180830381865afa158015613471573d6000803e3d6000fd5b505050506040513d601f19601f820116820180604052508101906134959190614304565b9250925092506000601360009054906101000a90046001600160a01b03166001600160a01b0316638583b7fa6040518163ffffffff1660e01b8152600401602060405180830381865afa1580156134f0573d6000803e3d6000fd5b505050506040513d601f19601f82011682018060405250810190613514919061410c565b90506000613528612710611a68878561294a565b9050613534858261293e565b9993985091965091945050505050565b600080613551858561393c565b509050600080846001600160a01b0316630902f1ac6040518163ffffffff1660e01b8152600401606060405180830381865afa158015613595573d6000803e3d6000fd5b505050506040513d601f19601f820116820180604052508101906135b99190614349565b5091509150866001600160a01b0316836001600160a01b0316146135d957905b6135f688836001600160701b0316836001600160701b031661396d565b98975050505050505050565b601654600a546000916001600160a01b03908116911603613621575090565b601654600a5460175461099f9285926001600160a01b039182169290821691166139aa565b6000811561377c576018546001600160a01b03161561368b57601954600a546018546136849285926001600160a01b039182169290821691166139aa565b905061099f565b4780156136fb5773b31f66aa3c1e785363f0875a1b74e27b85fd66c76001600160a01b031663d0e30db0826040518263ffffffff1660e01b81526004016000604051808303818588803b1580156136e157600080fd5b505af11580156136f5573d6000803e3d6000fd5b50505050505b6040516370a0823160e01b815230600482015261377490859073b31f66aa3c1e785363f0875a1b74e27b85fd66c7906370a0823190602401602060405180830381865afa158015613750573d6000803e3d6000fd5b505050506040513d601f19601f82011682018060405250810190612e78919061410c565b91505061099f565b50600092915050565b600a5460095460155460009261099f9285926001600160a01b039283169291821691166139aa565b60606121418484600085613b1e565b6000826000036137ce57506000613860565b60006137da8585613c44565b9050670de0b6b3a764000081116137f5576000915050613860565b60006138146138048686611f28565b61380e8887611f28565b90613c44565b905060006138258b8b8b8b87613c6a565b905060006138368c8c8c8c87613c6a565b90506138596138458884613cc7565b612e78836138538b8b611f28565b90613cc7565b9450505050505b979650505050505050565b601354600954613888916001600160a01b039182169116846123b6565b60135460125460095460405163529ebc7d60e01b81526001600160a01b039384169363529ebc7d9361390e9389937f00000000000000000000000000000000000000000000000000000000000000009392831692909116907f0000000000000000000000000000000000000000000000000000000000000000908a908a906004016140ce565b600060405180830381600087803b15801561392857600080fd5b505af1158015612d0e573d6000803e3d6000fd5b600080826001600160a01b0316846001600160a01b03161061395f578284613962565b83835b915091509250929050565b60008061397c856103e561294a565b9050600061398a828561294a565b9050600061399e83612bc1886103e861294a565b90506138608282612956565b6000806139b7858561393c565b509050600080846001600160a01b0316630902f1ac6040518163ffffffff1660e01b8152600401606060405180830381865afa1580156139fb573d6000803e3d6000fd5b505050506040513d601f19601f82011682018060405250810190613a1f9190614349565b5091509150866001600160a01b0316836001600160a01b031614613a3f57905b600080613a5f8a856001600160701b0316856001600160701b031661396d565b9050886001600160a01b0316856001600160a01b031614613a7c57905b613a906001600160a01b038a16888c6123b6565b6040805160008152602081019182905263022c0d9f60e01b9091526001600160a01b0388169063022c0d9f90613acf908590859030906024810161438e565b600060405180830381600087803b158015613ae957600080fd5b505af1158015613afd573d6000803e3d6000fd5b50505050818111613b0e5781613b10565b805b9a9950505050505050505050565b606082471015613b7f5760405162461bcd60e51b815260206004820152602660248201527f416464726573733a20696e73756666696369656e742062616c616e636520666f6044820152651c8818d85b1b60d21b6064820152608401610b84565b6001600160a01b0385163b613bd65760405162461bcd60e51b815260206004820152601d60248201527f416464726573733a2063616c6c20746f206e6f6e2d636f6e74726163740000006044820152606401610b84565b600080866001600160a01b03168587604051613bf291906143c5565b60006040518083038185875af1925050503d8060008114613c2f576040519150601f19603f3d011682016040523d82523d6000602084013e613c34565b606091505b5091509150613860828286613ced565b6000610b2482611a68613c58826002612956565b612bc187670de0b6b3a764000061294a565b600082821015613c8557613c7e848361293e565b9050611a87565b613c7e613cc06b033b2e3c9fd0803ce8000000611a68670de0b6b3a7640000613cba8a613cb483858b8861294a565b90613d26565b9061294a565b8790613c44565b6000610b24670de0b6b3a7640000611a68613ce3826002612956565b612bc1878761294a565b60608315613cfc575081610b24565b825115613d0c5782518084602001fd5b8160405162461bcd60e51b8152600401610b849190613e23565b6000613d33826002613d9f565b600003613d4c576b033b2e3c9fd0803ce8000000613d4e565b825b9050613d5b826002612956565b91505b811561099f57613d6e8384613dab565b9250613d7b826002613d9f565b15613d8d57613d8a8184613dab565b90505b613d98826002612956565b9150613d5e565b6000610b2482846143e1565b6000610b246b033b2e3c9fd0803ce8000000611a68613ce3826002612956565b60005b83811015613de6578181015183820152602001613dce565b83811115611a275750506000910152565b60008151808452613e0f816020860160208601613dcb565b601f01601f19169290920160200192915050565b602081526000610b246020830184613df7565b6001600160a01b03811681146112b257600080fd5b60008060408385031215613e5e57600080fd5b8235613e6981613e36565b946020939093013593505050565b600080600060608486031215613e8c57600080fd5b8335613e9781613e36565b92506020840135613ea781613e36565b929592945050506040919091013590565b600060208284031215613eca57600080fd5b5035919050565b600060208284031215613ee357600080fd5b8135610b2481613e36565b803560ff81168114613eff57600080fd5b919050565b600080600080600060a08688031215613f1c57600080fd5b8535945060208601359350613f3360408701613eee565b94979396509394606081013594506080013592915050565b80151581146112b257600080fd5b600060208284031215613f6b57600080fd5b8135610b2481613f4b565b60008060408385031215613f8957600080fd5b8235613f9481613e36565b91506020830135613fa481613e36565b809150509250929050565b60008060408385031215613fc257600080fd5b823591506020830135613fa481613f4b565b600080600080600080600060e0888a031215613fef57600080fd5b8735613ffa81613e36565b9650602088013561400a81613e36565b9550604088013594506060880135935061402660808901613eee565b925060a0880135915060c0880135905092959891949750929550565b600181811c9082168061405657607f821691505b60208210810361407657634e487b7160e01b600052602260045260246000fd5b50919050565b6001600160a01b03929092168252602082015260400190565b6000806000606084860312156140aa57600080fd5b835192506020840151915060408401516140c381613f4b565b809150509250925092565b9687526001600160a01b03958616602088015293851660408701529184166060860152909216608084015260a083019190915260c082015260e00190565b60006020828403121561411e57600080fd5b5051919050565b6020808252818101527f4f776e61626c653a2063616c6c6572206973206e6f7420746865206f776e6572604082015260600190565b60006020828403121561416c57600080fd5b8151610b2481613f4b565b6020808252601490820152732cb0b5a9ba3930ba32b3bc9d1d37b7363ca232bb60611b604082015260600190565b634e487b7160e01b600052601160045260246000fd5b6000600182016141cd576141cd6141a5565b5060010190565b600080835481600182811c9150808316806141f057607f831692505b6020808410820361420f57634e487b7160e01b86526022600452602486fd5b818015614223576001811461423457614261565b60ff19861689528489019650614261565b60008a81526020902060005b868110156142595781548b820152908501908301614240565b505084890196505b509498975050505050505050565b60008219821115614282576142826141a5565b500190565b60006020828403121561429957600080fd5b8151610b2481613e36565b6000828210156142b6576142b66141a5565b500390565b60008160001904831182151516156142d5576142d56141a5565b500290565b634e487b7160e01b600052601260045260246000fd5b6000826142ff576142ff6142da565b500490565b60008060006060848603121561431957600080fd5b835192506020840151915060408401516140c381613e36565b80516001600160701b0381168114613eff57600080fd5b60008060006060848603121561435e57600080fd5b61436784614332565b925061437560208501614332565b9150604084015163ffffffff811681146140c357600080fd5b84815283602082015260018060a01b03831660408201526080606082015260006143bb6080830184613df7565b9695505050505050565b600082516143d7818460208701613dcb565b9190910192915050565b6000826143f0576143f06142da565b50069056fe5f6275726e3a206275726e20616d6f756e74206578636565647320746f74616c20737570706c797472616e7366657246726f6d3a207472616e7366657220616d6f756e74206578636565647320616c6c6f77616e63655f6275726e3a206275726e20616d6f756e7420657863656564732066726f6d2062616c616e63655f7472616e73666572546f6b656e733a207472616e7366657220657863656564732066726f6d2062616c616e6365a26469706673582212205a2169c54751bf6bbb84c9368698e5ce2aedb5175c6dc6c2d5931bebedecc3b564736f6c634300080d00334f776e61626c653a2063616c6c6572206973206e6f7420746865206f776e65728be0079c531659141344cd1fd0a4f28419497f9722a3daafe3b4186f6b6457e0",
    "linkReferences": {}
  },
  "methodIdentifiers": {
    "ADMIN_FEE_BIPS()": "07677111",
    "DEPOSITS_ENABLED()": "b52a321f",
    "DEV_FEE_BIPS()": "5ea682ea",
    "DOMAIN_TYPEHASH()": "20606b70",
    "MAX_TOKENS_TO_DEPOSIT_WITHOUT_REINVEST()": "789139bc",
    "MIN_TOKENS_TO_REINVEST()": "bd079f55",
    "PERMIT_TYPEHASH()": "30adf81f",
    "PID()": "5eaec0e4",
    "REINVEST_REWARD_BIPS()": "8aff733d",
    "VERSION_HASH()": "9e4e7318",
    "allowDepositor(address)": "4bebd1e7",
    "allowance(address,address)": "dd62ed3e",
    "allowedDepositors(address)": "483c2ef0",
    "approve(address,uint256)": "095ea7b3",
    "asset()": "38d52e0f",
    "balanceOf(address)": "70a08231",
    "checkReward()": "c4b24a46",
    "decimals()": "313ce567",
    "deposit(uint256)": "b6b55f25",
    "depositFor(address,uint256)": "2f4f21e2",
    "depositToken()": "c89039c5",
    "depositWithPermit(uint256,uint256,uint8,bytes32,bytes32)": "4a970be7",
    "devAddr()": "da09c72c",
    "estimateDeployedBalance()": "0f23475d",
    "estimateReinvestReward()": "b9e57b80",
    "extraToken()": "a1a4ddeb",
    "getDepositTokensForShares(uint256)": "eab89a5a",
    "getDomainSeparator()": "ed24911d",
    "getSharesForDepositTokens(uint256)": "dd8ce4d6",
    "masterchef()": "fb1db278",
    "maxSlippage()": "8c04166f",
    "name()": "06fdde03",
    "nonces(address)": "7ecebe00",
    "numberOfAllowedDepositors()": "3bdc6e72",
    "owner()": "8da5cb5b",
    "permit(address,address,uint256,uint256,uint8,bytes32,bytes32)": "d505accf",
    "pool()": "16f0115b",
    "proxy()": "ec556889",
    "recoverAVAX(uint256)": "4ebb7916",
    "recoverERC20(address,uint256)": "8980f11f",
    "reinvest()": "fdb5a03e",
    "removeDepositor(address)": "8b73e606",
    "renounceOwnership()": "715018a6",
    "rescueDeployedFunds(uint256,bool)": "ac0d31ff",
    "revokeAllowance(address,address)": "7ae26773",
    "rewardToken()": "f7c618c1",
    "setExtraRewardSwapPair(address)": "8432e894",
    "setPlatypusVoterProxy(address)": "9f0237b1",
    "swapPairExtraReward()": "909ac8f4",
    "symbol()": "95d89b41",
    "totalDeposits()": "7d882097",
    "totalSupply()": "18160ddd",
    "transfer(address,uint256)": "a9059cbb",
    "transferFrom(address,address,uint256)": "23b872dd",
    "transferOwnership(address)": "f2fde38b",
    "updateAdminFee(uint256)": "cff1b6ef",
    "updateDepositsEnabled(bool)": "4e77ace5",
    "updateDevAddr(address)": "9291d563",
    "updateDevFee(uint256)": "99729ec1",
    "updateMaxSwapSlippage(uint256)": "abff1963",
    "updateMaxTokensToDepositWithoutReinvest(uint256)": "e21ac825",
    "updateMinTokensToReinvest(uint256)": "81837230",
    "updateReinvestReward(uint256)": "a8ae2b7c",
    "withdraw(uint256)": "2e1a7d4d"
  },
  "id": 118
}