{
  "abi": [
    {
      "inputs": [
        {
          "internalType": "string",
          "name": "_name",
          "type": "string"
        },
        {
          "internalType": "address",
          "name": "_depositToken",
          "type": "address"
        },
        {
          "internalType": "address",
          "name": "_rewardToken",
          "type": "address"
        },
        {
          "internalType": "address",
          "name": "_nativeRewardToken",
          "type": "address"
        },
        {
          "components": [
            {
              "internalType": "address",
              "name": "poolReward",
              "type": "address"
            },
            {
              "internalType": "address",
              "name": "extraReward",
              "type": "address"
            },
            {
              "internalType": "address",
              "name": "token0",
              "type": "address"
            },
            {
              "internalType": "address",
              "name": "token1",
              "type": "address"
            }
          ],
          "internalType": "struct MasterChefStrategyForLP.SwapPairs",
          "name": "_swapPairs",
          "type": "tuple"
        },
        {
          "internalType": "address",
          "name": "_stakingContract",
          "type": "address"
        },
        {
          "internalType": "uint256",
          "name": "_pid",
          "type": "uint256"
        },
        {
          "internalType": "address",
          "name": "_voterProxy",
          "type": "address"
        },
        {
          "internalType": "address",
          "name": "_timelock",
          "type": "address"
        },
        {
          "components": [
            {
              "internalType": "uint256",
              "name": "minTokensToReinvest",
              "type": "uint256"
            },
            {
              "internalType": "uint256",
              "name": "devFeeBips",
              "type": "uint256"
            },
            {
              "internalType": "uint256",
              "name": "reinvestRewardBips",
              "type": "uint256"
            }
          ],
          "internalType": "struct YakStrategyV2.StrategySettings",
          "name": "_strategySettings",
          "type": "tuple"
        }
      ],
      "stateMutability": "nonpayable",
      "type": "constructor"
    },
    {
      "anonymous": false,
      "inputs": [
        {
          "indexed": true,
          "internalType": "address",
          "name": "account",
          "type": "address"
        }
      ],
      "name": "AllowDepositor",
      "type": "event"
    },
    {
      "anonymous": false,
      "inputs": [
        {
          "indexed": true,
          "internalType": "address",
          "name": "owner",
          "type": "address"
        },
        {
          "indexed": true,
          "internalType": "address",
          "name": "spender",
          "type": "address"
        },
        {
          "indexed": false,
          "internalType": "uint256",
          "name": "value",
          "type": "uint256"
        }
      ],
      "name": "Approval",
      "type": "event"
    },
    {
      "anonymous": false,
      "inputs": [
        {
          "indexed": true,
          "internalType": "address",
          "name": "account",
          "type": "address"
        },
        {
          "indexed": false,
          "internalType": "uint256",
          "name": "amount",
          "type": "uint256"
        }
      ],
      "name": "Deposit",
      "type": "event"
    },
    {
      "anonymous": false,
      "inputs": [
        {
          "indexed": false,
          "internalType": "bool",
          "name": "newValue",
          "type": "bool"
        }
      ],
      "name": "DepositsEnabled",
      "type": "event"
    },
    {
      "anonymous": false,
      "inputs": [
        {
          "indexed": true,
          "internalType": "address",
          "name": "previousOwner",
          "type": "address"
        },
        {
          "indexed": true,
          "internalType": "address",
          "name": "newOwner",
          "type": "address"
        }
      ],
      "name": "OwnershipTransferred",
      "type": "event"
    },
    {
      "anonymous": false,
      "inputs": [
        {
          "indexed": false,
          "internalType": "address",
          "name": "token",
          "type": "address"
        },
        {
          "indexed": false,
          "internalType": "uint256",
          "name": "amount",
          "type": "uint256"
        }
      ],
      "name": "Recovered",
      "type": "event"
    },
    {
      "anonymous": false,
      "inputs": [
        {
          "indexed": false,
          "internalType": "uint256",
          "name": "newTotalDeposits",
          "type": "uint256"
        },
        {
          "indexed": false,
          "internalType": "uint256",
          "name": "newTotalSupply",
          "type": "uint256"
        }
      ],
      "name": "Reinvest",
      "type": "event"
    },
    {
      "anonymous": false,
      "inputs": [
        {
          "indexed": true,
          "internalType": "address",
          "name": "account",
          "type": "address"
        }
      ],
      "name": "RemoveDepositor",
      "type": "event"
    },
    {
      "anonymous": false,
      "inputs": [
        {
          "indexed": true,
          "internalType": "address",
          "name": "from",
          "type": "address"
        },
        {
          "indexed": true,
          "internalType": "address",
          "name": "to",
          "type": "address"
        },
        {
          "indexed": false,
          "internalType": "uint256",
          "name": "value",
          "type": "uint256"
        }
      ],
      "name": "Transfer",
      "type": "event"
    },
    {
      "anonymous": false,
      "inputs": [
        {
          "indexed": false,
          "internalType": "uint256",
          "name": "oldValue",
          "type": "uint256"
        },
        {
          "indexed": false,
          "internalType": "uint256",
          "name": "newValue",
          "type": "uint256"
        }
      ],
      "name": "UpdateAdminFee",
      "type": "event"
    },
    {
      "anonymous": false,
      "inputs": [
        {
          "indexed": false,
          "internalType": "address",
          "name": "oldValue",
          "type": "address"
        },
        {
          "indexed": false,
          "internalType": "address",
          "name": "newValue",
          "type": "address"
        }
      ],
      "name": "UpdateDevAddr",
      "type": "event"
    },
    {
      "anonymous": false,
      "inputs": [
        {
          "indexed": false,
          "internalType": "uint256",
          "name": "oldValue",
          "type": "uint256"
        },
        {
          "indexed": false,
          "internalType": "uint256",
          "name": "newValue",
          "type": "uint256"
        }
      ],
      "name": "UpdateDevFee",
      "type": "event"
    },
    {
      "anonymous": false,
      "inputs": [
        {
          "indexed": false,
          "internalType": "uint256",
          "name": "oldValue",
          "type": "uint256"
        },
        {
          "indexed": false,
          "internalType": "uint256",
          "name": "newValue",
          "type": "uint256"
        }
      ],
      "name": "UpdateMaxTokensToDepositWithoutReinvest",
      "type": "event"
    },
    {
      "anonymous": false,
      "inputs": [
        {
          "indexed": false,
          "internalType": "uint256",
          "name": "oldValue",
          "type": "uint256"
        },
        {
          "indexed": false,
          "internalType": "uint256",
          "name": "newValue",
          "type": "uint256"
        }
      ],
      "name": "UpdateMinTokensToReinvest",
      "type": "event"
    },
    {
      "anonymous": false,
      "inputs": [
        {
          "indexed": false,
          "internalType": "uint256",
          "name": "oldValue",
          "type": "uint256"
        },
        {
          "indexed": false,
          "internalType": "uint256",
          "name": "newValue",
          "type": "uint256"
        }
      ],
      "name": "UpdateReinvestReward",
      "type": "event"
    },
    {
      "anonymous": false,
      "inputs": [
        {
          "indexed": true,
          "internalType": "address",
          "name": "account",
          "type": "address"
        },
        {
          "indexed": false,
          "internalType": "uint256",
          "name": "amount",
          "type": "uint256"
        }
      ],
      "name": "Withdraw",
      "type": "event"
    },
    {
      "inputs": [],
      "name": "ADMIN_FEE_BIPS",
      "outputs": [
        {
          "internalType": "uint256",
          "name": "",
          "type": "uint256"
        }
      ],
      "stateMutability": "view",
      "type": "function"
    },
    {
      "inputs": [],
      "name": "DEPOSITS_ENABLED",
      "outputs": [
        {
          "internalType": "bool",
          "name": "",
          "type": "bool"
        }
      ],
      "stateMutability": "view",
      "type": "function"
    },
    {
      "inputs": [],
      "name": "DEV_FEE_BIPS",
      "outputs": [
        {
          "internalType": "uint256",
          "name": "",
          "type": "uint256"
        }
      ],
      "stateMutability": "view",
      "type": "function"
    },
    {
      "inputs": [],
      "name": "DOMAIN_TYPEHASH",
      "outputs": [
        {
          "internalType": "bytes32",
          "name": "",
          "type": "bytes32"
        }
      ],
      "stateMutability": "view",
      "type": "function"
    },
    {
      "inputs": [],
      "name": "MAX_TOKENS_TO_DEPOSIT_WITHOUT_REINVEST",
      "outputs": [
        {
          "internalType": "uint256",
          "name": "",
          "type": "uint256"
        }
      ],
      "stateMutability": "view",
      "type": "function"
    },
    {
      "inputs": [],
      "name": "MIN_TOKENS_TO_REINVEST",
      "outputs": [
        {
          "internalType": "uint256",
          "name": "",
          "type": "uint256"
        }
      ],
      "stateMutability": "view",
      "type": "function"
    },
    {
      "inputs": [],
      "name": "PERMIT_TYPEHASH",
      "outputs": [
        {
          "internalType": "bytes32",
          "name": "",
          "type": "bytes32"
        }
      ],
      "stateMutability": "view",
      "type": "function"
    },
    {
      "inputs": [],
      "name": "PID",
      "outputs": [
        {
          "internalType": "uint256",
          "name": "",
          "type": "uint256"
        }
      ],
      "stateMutability": "view",
      "type": "function"
    },
    {
      "inputs": [],
      "name": "REINVEST_REWARD_BIPS",
      "outputs": [
        {
          "internalType": "uint256",
          "name": "",
          "type": "uint256"
        }
      ],
      "stateMutability": "view",
      "type": "function"
    },
    {
      "inputs": [],
      "name": "VERSION_HASH",
      "outputs": [
        {
          "internalType": "bytes32",
          "name": "",
          "type": "bytes32"
        }
      ],
      "stateMutability": "view",
      "type": "function"
    },
    {
      "inputs": [
        {
          "internalType": "address",
          "name": "depositor",
          "type": "address"
        }
      ],
      "name": "allowDepositor",
      "outputs": [],
      "stateMutability": "nonpayable",
      "type": "function"
    },
    {
      "inputs": [
        {
          "internalType": "address",
          "name": "account",
          "type": "address"
        },
        {
          "internalType": "address",
          "name": "spender",
          "type": "address"
        }
      ],
      "name": "allowance",
      "outputs": [
        {
          "internalType": "uint256",
          "name": "",
          "type": "uint256"
        }
      ],
      "stateMutability": "view",
      "type": "function"
    },
    {
      "inputs": [
        {
          "internalType": "address",
          "name": "",
          "type": "address"
        }
      ],
      "name": "allowedDepositors",
      "outputs": [
        {
          "internalType": "bool",
          "name": "",
          "type": "bool"
        }
      ],
      "stateMutability": "view",
      "type": "function"
    },
    {
      "inputs": [
        {
          "internalType": "address",
          "name": "spender",
          "type": "address"
        },
        {
          "internalType": "uint256",
          "name": "amount",
          "type": "uint256"
        }
      ],
      "name": "approve",
      "outputs": [
        {
          "internalType": "bool",
          "name": "",
          "type": "bool"
        }
      ],
      "stateMutability": "nonpayable",
      "type": "function"
    },
    {
      "inputs": [
        {
          "internalType": "address",
          "name": "account",
          "type": "address"
        }
      ],
      "name": "balanceOf",
      "outputs": [
        {
          "internalType": "uint256",
          "name": "",
          "type": "uint256"
        }
      ],
      "stateMutability": "view",
      "type": "function"
    },
    {
      "inputs": [],
      "name": "checkReward",
      "outputs": [
        {
          "internalType": "uint256",
          "name": "",
          "type": "uint256"
        }
      ],
      "stateMutability": "view",
      "type": "function"
    },
    {
      "inputs": [],
      "name": "decimals",
      "outputs": [
        {
          "internalType": "uint8",
          "name": "",
          "type": "uint8"
        }
      ],
      "stateMutability": "view",
      "type": "function"
    },
    {
      "inputs": [
        {
          "internalType": "uint256",
          "name": "amount",
          "type": "uint256"
        }
      ],
      "name": "deposit",
      "outputs": [],
      "stateMutability": "nonpayable",
      "type": "function"
    },
    {
      "inputs": [
        {
          "internalType": "address",
          "name": "account",
          "type": "address"
        },
        {
          "internalType": "uint256",
          "name": "amount",
          "type": "uint256"
        }
      ],
      "name": "depositFor",
      "outputs": [],
      "stateMutability": "nonpayable",
      "type": "function"
    },
    {
      "inputs": [],
      "name": "depositToken",
      "outputs": [
        {
          "internalType": "contract IERC20",
          "name": "",
          "type": "address"
        }
      ],
      "stateMutability": "view",
      "type": "function"
    },
    {
      "inputs": [
        {
          "internalType": "uint256",
          "name": "amount",
          "type": "uint256"
        },
        {
          "internalType": "uint256",
          "name": "deadline",
          "type": "uint256"
        },
        {
          "internalType": "uint8",
          "name": "v",
          "type": "uint8"
        },
        {
          "internalType": "bytes32",
          "name": "r",
          "type": "bytes32"
        },
        {
          "internalType": "bytes32",
          "name": "s",
          "type": "bytes32"
        }
      ],
      "name": "depositWithPermit",
      "outputs": [],
      "stateMutability": "nonpayable",
      "type": "function"
    },
    {
      "inputs": [],
      "name": "devAddr",
      "outputs": [
        {
          "internalType": "address",
          "name": "",
          "type": "address"
        }
      ],
      "stateMutability": "view",
      "type": "function"
    },
    {
      "inputs": [],
      "name": "estimateDeployedBalance",
      "outputs": [
        {
          "internalType": "uint256",
          "name": "",
          "type": "uint256"
        }
      ],
      "stateMutability": "view",
      "type": "function"
    },
    {
      "inputs": [],
      "name": "estimateReinvestReward",
      "outputs": [
        {
          "internalType": "uint256",
          "name": "",
          "type": "uint256"
        }
      ],
      "stateMutability": "view",
      "type": "function"
    },
    {
      "inputs": [],
      "name": "extraToken",
      "outputs": [
        {
          "internalType": "address",
          "name": "",
          "type": "address"
        }
      ],
      "stateMutability": "view",
      "type": "function"
    },
    {
      "inputs": [
        {
          "internalType": "uint256",
          "name": "amount",
          "type": "uint256"
        }
      ],
      "name": "getDepositTokensForShares",
      "outputs": [
        {
          "internalType": "uint256",
          "name": "",
          "type": "uint256"
        }
      ],
      "stateMutability": "view",
      "type": "function"
    },
    {
      "inputs": [],
      "name": "getDomainSeparator",
      "outputs": [
        {
          "internalType": "bytes32",
          "name": "",
          "type": "bytes32"
        }
      ],
      "stateMutability": "view",
      "type": "function"
    },
    {
      "inputs": [
        {
          "internalType": "uint256",
          "name": "amount",
          "type": "uint256"
        }
      ],
      "name": "getSharesForDepositTokens",
      "outputs": [
        {
          "internalType": "uint256",
          "name": "",
          "type": "uint256"
        }
      ],
      "stateMutability": "view",
      "type": "function"
    },
    {
      "inputs": [],
      "name": "name",
      "outputs": [
        {
          "internalType": "string",
          "name": "",
          "type": "string"
        }
      ],
      "stateMutability": "view",
      "type": "function"
    },
    {
      "inputs": [
        {
          "internalType": "address",
          "name": "",
          "type": "address"
        }
      ],
      "name": "nonces",
      "outputs": [
        {
          "internalType": "uint256",
          "name": "",
          "type": "uint256"
        }
      ],
      "stateMutability": "view",
      "type": "function"
    },
    {
      "inputs": [],
      "name": "numberOfAllowedDepositors",
      "outputs": [
        {
          "internalType": "uint256",
          "name": "",
          "type": "uint256"
        }
      ],
      "stateMutability": "view",
      "type": "function"
    },
    {
      "inputs": [],
      "name": "owner",
      "outputs": [
        {
          "internalType": "address",
          "name": "",
          "type": "address"
        }
      ],
      "stateMutability": "view",
      "type": "function"
    },
    {
      "inputs": [
        {
          "internalType": "address",
          "name": "owner",
          "type": "address"
        },
        {
          "internalType": "address",
          "name": "spender",
          "type": "address"
        },
        {
          "internalType": "uint256",
          "name": "value",
          "type": "uint256"
        },
        {
          "internalType": "uint256",
          "name": "deadline",
          "type": "uint256"
        },
        {
          "internalType": "uint8",
          "name": "v",
          "type": "uint8"
        },
        {
          "internalType": "bytes32",
          "name": "r",
          "type": "bytes32"
        },
        {
          "internalType": "bytes32",
          "name": "s",
          "type": "bytes32"
        }
      ],
      "name": "permit",
      "outputs": [],
      "stateMutability": "nonpayable",
      "type": "function"
    },
    {
      "inputs": [],
      "name": "proxy",
      "outputs": [
        {
          "internalType": "contract IJoeVoterProxy",
          "name": "",
          "type": "address"
        }
      ],
      "stateMutability": "view",
      "type": "function"
    },
    {
      "inputs": [
        {
          "internalType": "uint256",
          "name": "amount",
          "type": "uint256"
        }
      ],
      "name": "recoverAVAX",
      "outputs": [],
      "stateMutability": "nonpayable",
      "type": "function"
    },
    {
      "inputs": [
        {
          "internalType": "address",
          "name": "tokenAddress",
          "type": "address"
        },
        {
          "internalType": "uint256",
          "name": "tokenAmount",
          "type": "uint256"
        }
      ],
      "name": "recoverERC20",
      "outputs": [],
      "stateMutability": "nonpayable",
      "type": "function"
    },
    {
      "inputs": [],
      "name": "reinvest",
      "outputs": [],
      "stateMutability": "nonpayable",
      "type": "function"
    },
    {
      "inputs": [
        {
          "internalType": "address",
          "name": "depositor",
          "type": "address"
        }
      ],
      "name": "removeDepositor",
      "outputs": [],
      "stateMutability": "nonpayable",
      "type": "function"
    },
    {
      "inputs": [],
      "name": "renounceOwnership",
      "outputs": [],
      "stateMutability": "nonpayable",
      "type": "function"
    },
    {
      "inputs": [
        {
          "internalType": "uint256",
          "name": "minReturnAmountAccepted",
          "type": "uint256"
        },
        {
          "internalType": "bool",
          "name": "disableDeposits",
          "type": "bool"
        }
      ],
      "name": "rescueDeployedFunds",
      "outputs": [],
      "stateMutability": "nonpayable",
      "type": "function"
    },
    {
      "inputs": [
        {
          "internalType": "address",
          "name": "token",
          "type": "address"
        },
        {
          "internalType": "address",
          "name": "spender",
          "type": "address"
        }
      ],
      "name": "revokeAllowance",
      "outputs": [],
      "stateMutability": "nonpayable",
      "type": "function"
    },
    {
      "inputs": [],
      "name": "rewardToken",
      "outputs": [
        {
          "internalType": "contract IERC20",
          "name": "",
          "type": "address"
        }
      ],
      "stateMutability": "view",
      "type": "function"
    },
    {
      "inputs": [
        {
          "internalType": "address",
          "name": "_extraTokenSwapPair",
          "type": "address"
        }
      ],
      "name": "setExtraRewardSwapPair",
      "outputs": [],
      "stateMutability": "nonpayable",
      "type": "function"
    },
    {
      "inputs": [],
      "name": "stakingContract",
      "outputs": [
        {
          "internalType": "address",
          "name": "",
          "type": "address"
        }
      ],
      "stateMutability": "view",
      "type": "function"
    },
    {
      "inputs": [],
      "name": "swapPairExtraReward",
      "outputs": [
        {
          "internalType": "address",
          "name": "",
          "type": "address"
        }
      ],
      "stateMutability": "view",
      "type": "function"
    },
    {
      "inputs": [],
      "name": "swapPairRewardToken",
      "outputs": [
        {
          "internalType": "address",
          "name": "",
          "type": "address"
        }
      ],
      "stateMutability": "view",
      "type": "function"
    },
    {
      "inputs": [],
      "name": "symbol",
      "outputs": [
        {
          "internalType": "string",
          "name": "",
          "type": "string"
        }
      ],
      "stateMutability": "view",
      "type": "function"
    },
    {
      "inputs": [],
      "name": "totalDeposits",
      "outputs": [
        {
          "internalType": "uint256",
          "name": "",
          "type": "uint256"
        }
      ],
      "stateMutability": "view",
      "type": "function"
    },
    {
      "inputs": [],
      "name": "totalSupply",
      "outputs": [
        {
          "internalType": "uint256",
          "name": "",
          "type": "uint256"
        }
      ],
      "stateMutability": "view",
      "type": "function"
    },
    {
      "inputs": [
        {
          "internalType": "address",
          "name": "dst",
          "type": "address"
        },
        {
          "internalType": "uint256",
          "name": "amount",
          "type": "uint256"
        }
      ],
      "name": "transfer",
      "outputs": [
        {
          "internalType": "bool",
          "name": "",
          "type": "bool"
        }
      ],
      "stateMutability": "nonpayable",
      "type": "function"
    },
    {
      "inputs": [
        {
          "internalType": "address",
          "name": "src",
          "type": "address"
        },
        {
          "internalType": "address",
          "name": "dst",
          "type": "address"
        },
        {
          "internalType": "uint256",
          "name": "amount",
          "type": "uint256"
        }
      ],
      "name": "transferFrom",
      "outputs": [
        {
          "internalType": "bool",
          "name": "",
          "type": "bool"
        }
      ],
      "stateMutability": "nonpayable",
      "type": "function"
    },
    {
      "inputs": [
        {
          "internalType": "address",
          "name": "newOwner",
          "type": "address"
        }
      ],
      "name": "transferOwnership",
      "outputs": [],
      "stateMutability": "nonpayable",
      "type": "function"
    },
    {
      "inputs": [
        {
          "internalType": "uint256",
          "name": "newValue",
          "type": "uint256"
        }
      ],
      "name": "updateAdminFee",
      "outputs": [],
      "stateMutability": "nonpayable",
      "type": "function"
    },
    {
      "inputs": [
        {
          "internalType": "bool",
          "name": "newValue",
          "type": "bool"
        }
      ],
      "name": "updateDepositsEnabled",
      "outputs": [],
      "stateMutability": "nonpayable",
      "type": "function"
    },
    {
      "inputs": [
        {
          "internalType": "address",
          "name": "newValue",
          "type": "address"
        }
      ],
      "name": "updateDevAddr",
      "outputs": [],
      "stateMutability": "nonpayable",
      "type": "function"
    },
    {
      "inputs": [
        {
          "internalType": "uint256",
          "name": "newValue",
          "type": "uint256"
        }
      ],
      "name": "updateDevFee",
      "outputs": [],
      "stateMutability": "nonpayable",
      "type": "function"
    },
    {
      "inputs": [
        {
          "internalType": "uint256",
          "name": "newValue",
          "type": "uint256"
        }
      ],
      "name": "updateMaxTokensToDepositWithoutReinvest",
      "outputs": [],
      "stateMutability": "nonpayable",
      "type": "function"
    },
    {
      "inputs": [
        {
          "internalType": "uint256",
          "name": "newValue",
          "type": "uint256"
        }
      ],
      "name": "updateMinTokensToReinvest",
      "outputs": [],
      "stateMutability": "nonpayable",
      "type": "function"
    },
    {
      "inputs": [
        {
          "internalType": "uint256",
          "name": "newValue",
          "type": "uint256"
        }
      ],
      "name": "updateReinvestReward",
      "outputs": [],
      "stateMutability": "nonpayable",
      "type": "function"
    },
    {
      "inputs": [
        {
          "internalType": "uint256",
          "name": "amount",
          "type": "uint256"
        }
      ],
      "name": "withdraw",
      "outputs": [],
      "stateMutability": "nonpayable",
      "type": "function"
    }
  ],
  "bytecode": {
    "object": "0x60e0604052600960a0819052685969656c642059616b60b81b60c09081526200002c916000919062001689565b506040805180820190915260038082526216549560ea1b6020909201918252620000599160019162001689565b503480156200006757600080fd5b5060405162005887380380620058878339810160408190526200008a916200187f565b89898989898689878787878787600001518860200151888888806000620000b66200025660201b60201c565b600680546001600160a01b0319166001600160a01b0383169081179091556040519192509060009060008051602062005867833981519152908290a350805162000100906200025a565b60208101516200011090620002ea565b60408101516200012090620003a1565b508851620001369060009060208c019062001689565b50600980546001600160a01b03808b166001600160a01b031992831617909255600a8054928a16928216929092179091556080839052600b8054909116732d580f9cf2fb2d09bc411532988f2afda4e7beff1790556200019887878762000458565b620001a38462000730565b620001af600162000912565b620001ba83620009bc565b60408051600080825260208201527fc7606d21ac05cd309191543e409f0845c016120563783d70e4f41419dc0ef234910160405180910390a15050505050505050506200020f84878762000ab960201b60201c565b5050601880546001600160a01b039c8d166001600160a01b031991821617909155601980549a909c169916989098179099555062001a659c50505050505050505050505050565b3390565b6006546001600160a01b03163314620002a95760405162461bcd60e51b815260206004820181905260248201526000805160206200584783398151915260448201526064015b60405180910390fd5b600c5460408051918252602082018390527f481f79ac3a523b6d6db3c5a720e190e986d1cc1b41adcdf50f9caef849901100910160405180910390a1600c55565b6006546001600160a01b03163314620003355760405162461bcd60e51b81526020600482018190526024820152600080516020620058478339815191526044820152606401620002a0565b61271062000354601054836200167460201b62001b551790919060201c565b11156200036057600080fd5b60115460408051918252602082018390527f2a42303d002f0ba6cfe8259c91d4684443fb0b3de286ba74991175d651726131910160405180910390a1601155565b6006546001600160a01b03163314620003ec5760405162461bcd60e51b81526020600482018190526024820152600080516020620058478339815191526044820152606401620002a0565b6127106200040b601154836200167460201b62001b551790919060201c565b11156200041757600080fd5b60105460408051918252602082018390527fe7f97d51d307dc44045597c9978bec0f842e6bb40d19b9444084cfa30d9ed4f2910160405180910390a1601055565b826001600160a01b0316826001600160a01b0316146200070157806001600160a01b0316630dfe16816040518163ffffffff1660e01b8152600401602060405180830381865afa158015620004b1573d6000803e3d6000fd5b505050506040513d601f19601f82011682018060405250810190620004d79190620019e4565b6001600160a01b0316826001600160a01b031603620005d257826001600160a01b0316816001600160a01b031663d21220a76040518163ffffffff1660e01b8152600401602060405180830381865afa15801562000539573d6000803e3d6000fd5b505050506040513d601f19601f820116820180604052508101906200055f9190620019e4565b6001600160a01b031614620005cc5760405162461bcd60e51b815260206004820152603f60248201526000805160206200582783398151915260448201527f6f6573206e6f7420636f6e7461696e2065636f73797374656d20746f6b656e006064820152608401620002a0565b62000701565b806001600160a01b031663d21220a76040518163ffffffff1660e01b8152600401602060405180830381865afa15801562000611573d6000803e3d6000fd5b505050506040513d601f19601f82011682018060405250810190620006379190620019e4565b6001600160a01b0316826001600160a01b0316036200069957826001600160a01b0316816001600160a01b0316630dfe16816040518163ffffffff1660e01b8152600401602060405180830381865afa15801562000539573d6000803e3d6000fd5b60405162461bcd60e51b815260206004820152604160248201526000805160206200582783398151915260448201527f6f6573206e6f7420636f6e7461696e20706f6f6c2072657761726420746f6b656064820152603760f91b608482015260a401620002a0565b601280546001600160a01b039384166001600160a01b0319918216179091556013805492909316911617905550565b6001600160a01b03811615620008f357600a5460408051630dfe168160e01b815290516001600160a01b0392831692841691630dfe16819160048083019260209291908290030181865afa1580156200078d573d6000803e3d6000fd5b505050506040513d601f19601f82011682018060405250810190620007b39190620019e4565b6001600160a01b0316036200084d57806001600160a01b031663d21220a76040518163ffffffff1660e01b8152600401602060405180830381865afa15801562000801573d6000803e3d6000fd5b505050506040513d601f19601f82011682018060405250810190620008279190620019e4565b601580546001600160a01b0319166001600160a01b0392909216919091179055620008d3565b806001600160a01b0316630dfe16816040518163ffffffff1660e01b8152600401602060405180830381865afa1580156200088c573d6000803e3d6000fd5b505050506040513d601f19601f82011682018060405250810190620008b29190620019e4565b601580546001600160a01b0319166001600160a01b03929092169190911790555b601480546001600160a01b0383166001600160a01b031990911617905550565b601480546001600160a01b031990811690915560158054909116905550565b6006546001600160a01b031633146200095d5760405162461bcd60e51b81526020600482018190526024820152600080516020620058478339815191526044820152606401620002a0565b600e5481151560ff9091161515036200097557600080fd5b600e805460ff19168215159081179091556040519081527f7b014ed3854e7f5cb0218d58b3c6ae7d53a68bb0af2f67bfb029ea42c38a7e859060200160405180910390a150565b6006546001600160a01b0316331462000a075760405162461bcd60e51b81526020600482018190526024820152600080516020620058478339815191526044820152606401620002a0565b6001600160a01b03811662000a6e5760405162461bcd60e51b815260206004820152602660248201527f4f776e61626c653a206e6577206f776e657220697320746865207a65726f206160448201526564647265737360d01b6064820152608401620002a0565b6006546040516001600160a01b038084169216906000805160206200586783398151915290600090a3600680546001600160a01b0319166001600160a01b0392909216919091179055565b600960009054906101000a90046001600160a01b03166001600160a01b0316630dfe16816040518163ffffffff1660e01b8152600401602060405180830381865afa15801562000b0d573d6000803e3d6000fd5b505050506040513d601f19601f8201168201806040525081019062000b339190620019e4565b6001600160a01b0316826001600160a01b03161415801562000be05750600960009054906101000a90046001600160a01b03166001600160a01b031663d21220a76040518163ffffffff1660e01b8152600401602060405180830381865afa15801562000ba4573d6000803e3d6000fd5b505050506040513d601f19601f8201168201806040525081019062000bca9190620019e4565b6001600160a01b0316826001600160a01b031614155b156200138b5760408301516001600160a01b031662000c545760405162461bcd60e51b815260206004820152602960248201527f5377617020706169722030206973206e656365737361727920627574206e6f74604482015268081cdd5c1c1b1a595960ba1b6064820152608401620002a0565b60608301516001600160a01b031662000cc25760405162461bcd60e51b815260206004820152602960248201527f5377617020706169722031206973206e656365737361727920627574206e6f74604482015268081cdd5c1c1b1a595960ba1b6064820152608401620002a0565b604080840151601680546001600160a01b039283166001600160a01b03199182168117909255606087015160178054918516919092161790558251630dfe168160e01b81529251918516929091630dfe1681916004808201926020929091908290030181865afa15801562000d3b573d6000803e3d6000fd5b505050506040513d601f19601f8201168201806040525081019062000d619190620019e4565b6001600160a01b0316148062000def57506016546040805163d21220a760e01b815290516001600160a01b0380861693169163d21220a79160048083019260209291908290030181865afa15801562000dbe573d6000803e3d6000fd5b505050506040513d601f19601f8201168201806040525081019062000de49190620019e4565b6001600160a01b0316145b62000e715760405162461bcd60e51b815260206004820152604560248201527f53776170207061697220737570706c69656420646f6573206e6f74206861766560448201527f207468652072657761726420746f6b656e206173206f6e65206f662069742773606482015264103830b4b960d91b608482015260a401620002a0565b600960009054906101000a90046001600160a01b03166001600160a01b0316630dfe16816040518163ffffffff1660e01b8152600401602060405180830381865afa15801562000ec5573d6000803e3d6000fd5b505050506040513d601f19601f8201168201806040525081019062000eeb9190620019e4565b6001600160a01b0316601660009054906101000a90046001600160a01b03166001600160a01b0316630dfe16816040518163ffffffff1660e01b8152600401602060405180830381865afa15801562000f48573d6000803e3d6000fd5b505050506040513d601f19601f8201168201806040525081019062000f6e9190620019e4565b6001600160a01b03161480620010875750600960009054906101000a90046001600160a01b03166001600160a01b0316630dfe16816040518163ffffffff1660e01b8152600401602060405180830381865afa15801562000fd3573d6000803e3d6000fd5b505050506040513d601f19601f8201168201806040525081019062000ff99190620019e4565b6001600160a01b0316601660009054906101000a90046001600160a01b03166001600160a01b031663d21220a76040518163ffffffff1660e01b8152600401602060405180830381865afa15801562001056573d6000803e3d6000fd5b505050506040513d601f19601f820116820180604052508101906200107c9190620019e4565b6001600160a01b0316145b620010fb5760405162461bcd60e51b815260206004820152603860248201527f537761702070616972203020737570706c69656420646f6573206e6f74206d6160448201527f74636820746865207061697220696e207175657374696f6e00000000000000006064820152608401620002a0565b600960009054906101000a90046001600160a01b03166001600160a01b031663d21220a76040518163ffffffff1660e01b8152600401602060405180830381865afa1580156200114f573d6000803e3d6000fd5b505050506040513d601f19601f82011682018060405250810190620011759190620019e4565b6001600160a01b0316601760009054906101000a90046001600160a01b03166001600160a01b0316630dfe16816040518163ffffffff1660e01b8152600401602060405180830381865afa158015620011d2573d6000803e3d6000fd5b505050506040513d601f19601f82011682018060405250810190620011f89190620019e4565b6001600160a01b03161480620013115750600960009054906101000a90046001600160a01b03166001600160a01b031663d21220a76040518163ffffffff1660e01b8152600401602060405180830381865afa1580156200125d573d6000803e3d6000fd5b505050506040513d601f19601f82011682018060405250810190620012839190620019e4565b6001600160a01b0316601760009054906101000a90046001600160a01b03166001600160a01b031663d21220a76040518163ffffffff1660e01b8152600401602060405180830381865afa158015620012e0573d6000803e3d6000fd5b505050506040513d601f19601f82011682018060405250810190620013069190620019e4565b6001600160a01b0316145b620013855760405162461bcd60e51b815260206004820152603860248201527f537761702070616972203120737570706c69656420646f6573206e6f74206d6160448201527f74636820746865207061697220696e207175657374696f6e00000000000000006064820152608401620002a0565b620014fc565b600960009054906101000a90046001600160a01b03166001600160a01b0316630dfe16816040518163ffffffff1660e01b8152600401602060405180830381865afa158015620013df573d6000803e3d6000fd5b505050506040513d601f19601f82011682018060405250810190620014059190620019e4565b6001600160a01b0316826001600160a01b0316036200144657600954601780546001600160a01b0319166001600160a01b03909216919091179055620014fc565b600960009054906101000a90046001600160a01b03166001600160a01b031663d21220a76040518163ffffffff1660e01b8152600401602060405180830381865afa1580156200149a573d6000803e3d6000fd5b505050506040513d601f19601f82011682018060405250810190620014c09190620019e4565b6001600160a01b0316826001600160a01b031603620014fc57600954601680546001600160a01b0319166001600160a01b039092169190911790555b82600001516001600160a01b0316630dfe16816040518163ffffffff1660e01b8152600401602060405180830381865afa1580156200153f573d6000803e3d6000fd5b505050506040513d601f19601f82011682018060405250810190620015659190620019e4565b6001600160a01b0316816001600160a01b0316036200166f57816001600160a01b031683600001516001600160a01b031663d21220a76040518163ffffffff1660e01b8152600401602060405180830381865afa158015620015cb573d6000803e3d6000fd5b505050506040513d601f19601f82011682018060405250810190620015f19190620019e4565b6001600160a01b0316146200166f5760405162461bcd60e51b815260206004820152603a60248201527f537761702070616972207377617050616972506f6f6c52657761726420646f6560448201527f73206e6f7420636f6e7461696e2072657761726420746f6b656e0000000000006064820152608401620002a0565b505050565b600062001682828462001a02565b9392505050565b828054620016979062001a29565b90600052602060002090601f016020900481019282620016bb576000855562001706565b82601f10620016d657805160ff191683800117855562001706565b8280016001018555821562001706579182015b8281111562001706578251825591602001919060010190620016e9565b506200171492915062001718565b5090565b5b8082111562001714576000815560010162001719565b634e487b7160e01b600052604160045260246000fd5b604051601f8201601f191681016001600160401b03811182821017156200177057620017706200172f565b604052919050565b80516001600160a01b03811681146200179057600080fd5b919050565b600060808284031215620017a857600080fd5b604051608081016001600160401b0381118282101715620017cd57620017cd6200172f565b604052905080620017de8362001778565b8152620017ee6020840162001778565b6020820152620018016040840162001778565b6040820152620018146060840162001778565b60608201525092915050565b6000606082840312156200183357600080fd5b604051606081016001600160401b03811182821017156200185857620018586200172f565b80604052508091508251815260208301516020820152604083015160408201525092915050565b6000806000806000806000806000806101e08b8d031215620018a057600080fd5b8a516001600160401b0380821115620018b857600080fd5b818d0191508d601f830112620018cd57600080fd5b815181811115620018e257620018e26200172f565b60209150620018fa601f8201601f1916830162001745565b8181528f838386010111156200190f57600080fd5b60005b828110156200192f57848101840151828201850152830162001912565b82811115620019415760008484840101525b509c506200195390508d820162001778565b9a5050506200196560408c0162001778565b97506200197560608c0162001778565b9650620019868c60808d0162001795565b9550620019976101008c0162001778565b94506101208b01519350620019b06101408c0162001778565b9250620019c16101608c0162001778565b9150620019d38c6101808d0162001820565b90509295989b9194979a5092959850565b600060208284031215620019f757600080fd5b620016828262001778565b6000821982111562001a2457634e487b7160e01b600052601160045260246000fd5b500190565b600181811c9082168062001a3e57607f821691505b60208210810362001a5f57634e487b7160e01b600052602260045260246000fd5b50919050565b608051613d7c62001aab6000396000818161056601528181610efd015281816114f001528181611df7015281816125540152818161288e0152612baf0152613d7c6000f3fe608060405234801561001057600080fd5b50600436106103a45760003560e01c80638b73e606116101e9578063c4b24a461161010f578063e21ac825116100ad578063ee99205c1161007c578063ee99205c14610829578063f2fde38b1461083c578063f7c618c11461084f578063fdb5a03e1461086257600080fd5b8063e21ac825146107e8578063eab89a5a146107fb578063ec5568891461080e578063ed24911d1461082157600080fd5b8063d505accf116100e9578063d505accf14610776578063da09c72c14610789578063dd62ed3e1461079c578063dd8ce4d6146107d557600080fd5b8063c4b24a4614610748578063c89039c514610750578063cff1b6ef1461076357600080fd5b8063a1a4ddeb11610187578063b52a321f11610156578063b52a321f14610717578063b6b55f2514610724578063b9e57b8014610737578063bd079f551461073f57600080fd5b8063a1a4ddeb146106cb578063a8ae2b7c146106de578063a9059cbb146106f1578063ac0d31ff1461070457600080fd5b80639291d563116101c35780639291d5631461067657806395d89b411461068957806399729ec1146106915780639e4e7318146106a457600080fd5b80638b73e6061461063f5780638da5cb5b14610652578063909ac8f41461066357600080fd5b80634e77ace5116102ce578063789139bc1161026c578063818372301161023b57806381837230146105fd5780638432e894146106105780638980f11f146106235780638aff733d1461063657600080fd5b8063789139bc146105b95780637ae26773146105c25780637d882097146105d55780637ecebe00146105dd57600080fd5b80635ea682ea116102a85780635ea682ea146105585780635eaec0e41461056157806370a0823114610588578063715018a6146105b157600080fd5b80634e77ace5146105075780634ebb79161461051a5780635e5eee1b1461052d57600080fd5b80632e1a7d4d116103465780633bdc6e72116103155780633bdc6e72146104b5578063483c2ef0146104be5780634a970be7146104e15780634bebd1e7146104f457600080fd5b80632e1a7d4d1461044c5780632f4f21e21461046157806330adf81f14610474578063313ce5671461049b57600080fd5b80630f23475d116103825780630f23475d1461040157806318160ddd1461040957806320606b701461041257806323b872dd1461043957600080fd5b806306fdde03146103a957806307677111146103c7578063095ea7b3146103de575b600080fd5b6103b161086a565b6040516103be919061378d565b60405180910390f35b6103d0600f5481565b6040519081526020016103be565b6103f16103ec3660046137b5565b6108f8565b60405190151581526020016103be565b6103d061090f565b6103d060025481565b6103d07f8b73c3c69bb8fe3d512ecc4cf759cc79239f7b179b0ffacaa9a75d522b39400f81565b6103f16104473660046137e1565b61094a565b61045f61045a366004613822565b610a2e565b005b61045f61046f3660046137b5565b610b10565b6103d07f6e71edae12b1b97f4d1f60370fef10105fa2faae0126114a169c64845d6126c981565b6104a3601281565b60405160ff90911681526020016103be565b6103d060075481565b6103f16104cc36600461383b565b60086020526000908152604090205460ff1681565b61045f6104ef36600461386e565b610b1e565b61045f61050236600461383b565b610bb7565b61045f6105153660046138c3565b610cb6565b61045f610528366004613822565b610d3f565b601a54610540906001600160a01b031681565b6040516001600160a01b0390911681526020016103be565b6103d060115481565b6103d07f000000000000000000000000000000000000000000000000000000000000000081565b6103d061059636600461383b565b6001600160a01b031660009081526004602052604090205490565b61045f610ddb565b6103d0600d5481565b61045f6105d03660046138e0565b610e4f565b6103d0610ef5565b6103d06105eb36600461383b565b60056020526000908152604090205481565b61045f61060b366004613822565b610f22565b61045f61061e36600461383b565b610f8d565b61045f6106313660046137b5565b610fea565b6103d060105481565b61045f61064d36600461383b565b6110e1565b6006546001600160a01b0316610540565b601454610540906001600160a01b031681565b61045f61068436600461383b565b611262565b6103b161131c565b61045f61069f366004613822565b611329565b6103d07fc89efdaa54c0f20c7adf612882df0950f5a951637e0307cdcb4c672f298b8bc681565b601554610540906001600160a01b031681565b61045f6106ec366004613822565b6113b7565b6103f16106ff3660046137b5565b611445565b61045f610712366004613919565b611452565b600e546103f19060ff1681565b61045f610732366004613822565b611660565b6103d061166a565b6103d0600c5481565b6103d06116a9565b600954610540906001600160a01b031681565b61045f610771366004613822565b6116bd565b61045f61078436600461393e565b611733565b600b54610540906001600160a01b031681565b6103d06107aa3660046138e0565b6001600160a01b03918216600090815260036020908152604080832093909416825291909152205490565b6103d06107e3366004613822565b611838565b61045f6107f6366004613822565b611872565b6103d0610809366004613822565b6118dd565b601954610540906001600160a01b031681565b6103d0611911565b601854610540906001600160a01b031681565b61045f61084a36600461383b565b6119b1565b600a54610540906001600160a01b031681565b61045f611a9c565b60008054610877906139ac565b80601f01602080910402602001604051908101604052809291908181526020018280546108a3906139ac565b80156108f05780601f106108c5576101008083540402835291602001916108f0565b820191906000526020600020905b8154815290600101906020018083116108d357829003601f168201915b505050505081565b6000610905338484611b61565b5060015b92915050565b60008061091a610ef5565b90506000806109366127105b6109308585611c6f565b90611c7b565b90506109428382611c87565b935050505090565b6001600160a01b03831660008181526003602090815260408083203380855292528220549192909190821480159061098457506000198114155b15610a155760006109b0856040518060600160405280602f8152602001613cc3602f9139849190611c93565b6001600160a01b038881166000818152600360209081526040808320948916808452948252918290208590559051848152939450919290917f8c5be1e5ebec7d5bd14f71427d1e84f3dd0314c0f7b2291e5b200ac8c7c3b925910160405180910390a3505b610a20868686611cbf565b6001925050505b9392505050565b6000610a39826118dd565b905060008111610a905760405162461bcd60e51b815260206004820152601e60248201527f4d617374657243686566537472617465677956313a3a7769746864726177000060448201526064015b60405180910390fd5b610a9981611df2565b600080610aa7612710610926565b600954909150610aca906001600160a01b031633610ac58685611c87565b611e1c565b610ad43385611ef3565b60405183815233907f884edad9ce6fa2440d8a54cc123490eb96d2768479d49ff9c7366125a9424364906020015b60405180910390a250505050565b610b1a8282611fc9565b5050565b60095460405163d505accf60e01b8152336004820152306024820152604481018790526064810186905260ff8516608482015260a4810184905260c481018390526001600160a01b039091169063d505accf9060e401600060405180830381600087803b158015610b8e57600080fd5b505af1158015610ba2573d6000803e3d6000fd5b50505050610bb03386611fc9565b5050505050565b6006546001600160a01b03163314610be15760405162461bcd60e51b8152600401610a87906139e6565b6001600160a01b03811660009081526008602052604090205460ff1615610c4a5760405162461bcd60e51b815260206004820152601c60248201527f5065726d697373696f6e65643a3a616c6c6f774465706f7369746f72000000006044820152606401610a87565b6001600160a01b0381166000908152600860205260409020805460ff19166001908117909155600754610c7c91611b55565b6007556040516001600160a01b038216907fc0a1035c16faf8d1304056d92c00edf028f87e62b8235a938f00af9e3c0312c590600090a250565b6006546001600160a01b03163314610ce05760405162461bcd60e51b8152600401610a87906139e6565b600e5481151560ff909116151503610cf757600080fd5b600e805460ff19168215159081179091556040519081527f7b014ed3854e7f5cb0218d58b3c6ae7d53a68bb0af2f67bfb029ea42c38a7e85906020015b60405180910390a150565b6006546001600160a01b03163314610d695760405162461bcd60e51b8152600401610a87906139e6565b60008111610d7657600080fd5b604051339082156108fc029083906000818181858888f19350505050158015610da3573d6000803e3d6000fd5b506040805160008152602081018390527f8c1256b8896378cd5044f80c202f9772b9d77dc85c8a6eb51967210b09bfaa289101610d34565b6006546001600160a01b03163314610e055760405162461bcd60e51b8152600401610a87906139e6565b6006546040516000916001600160a01b0316907f8be0079c531659141344cd1fd0a4f28419497f9722a3daafe3b4186f6b6457e0908390a3600680546001600160a01b0319169055565b6006546001600160a01b03163314610e795760405162461bcd60e51b8152600401610a87906139e6565b60405163095ea7b360e01b81526001600160a01b0382811660048301526000602483015283169063095ea7b3906044016020604051808303816000875af1158015610ec8573d6000803e3d6000fd5b505050506040513d601f19601f82011682018060405250810190610eec9190613a1b565b610b1a57600080fd5b6000806109097f000000000000000000000000000000000000000000000000000000000000000030612197565b6006546001600160a01b03163314610f4c5760405162461bcd60e51b8152600401610a87906139e6565b600c5460408051918252602082018390527f481f79ac3a523b6d6db3c5a720e190e986d1cc1b41adcdf50f9caef849901100910160405180910390a1600c55565b600b546001600160a01b03163314610fde5760405162461bcd60e51b81526020600482015260146024820152732cb0b5a9ba3930ba32b3bc9d1d37b7363ca232bb60611b6044820152606401610a87565b610fe781612213565b50565b6006546001600160a01b031633146110145760405162461bcd60e51b8152600401610a87906139e6565b6000811161102157600080fd5b60405163a9059cbb60e01b8152336004820152602481018290526001600160a01b0383169063a9059cbb906044016020604051808303816000875af115801561106e573d6000803e3d6000fd5b505050506040513d601f19601f820116820180604052508101906110929190613a1b565b61109b57600080fd5b604080516001600160a01b0384168152602081018390527f8c1256b8896378cd5044f80c202f9772b9d77dc85c8a6eb51967210b09bfaa28910160405180910390a15050565b6006546001600160a01b0316331461110b5760405162461bcd60e51b8152600401610a87906139e6565b60006007541161117a5760405162461bcd60e51b815260206004820152603460248201527f5065726d697373696f6e65643a3a72656d6f76654465706f7369746f722c206e6044820152736f20616c6c6f776564206465706f7369746f727360601b6064820152608401610a87565b6001600160a01b03811660009081526008602052604090205460ff1615156001146111fa5760405162461bcd60e51b815260206004820152602a60248201527f5065726d697373696f6e65643a3a72656d6f76654465706f7369746f722c206e6044820152691bdd08185b1b1bddd95960b21b6064820152608401610a87565b6001600160a01b0381166000908152600860205260409020805460ff19169055600754611228906001611c87565b6007556040516001600160a01b038216907f0e86f6608b536e5339a25b65ff531f5ea91e1313d056ecd4752b35cbd16137d490600090a250565b600b546001600160a01b031633146112b35760405162461bcd60e51b81526020600482015260146024820152732cb0b5a9ba3930ba32b3bc9d1d37b7363ca232bb60611b6044820152606401610a87565b600b54604080516001600160a01b03928316815291831660208301527fa8e91499ed37682f43cffb045fcc7d379a91e8c9a14e6321877ee34dee564c00910160405180910390a1600b80546001600160a01b0319166001600160a01b0392909216919091179055565b60018054610877906139ac565b6006546001600160a01b031633146113535760405162461bcd60e51b8152600401610a87906139e6565b61271061136b60105483611b5590919063ffffffff16565b111561137657600080fd5b60115460408051918252602082018390527f2a42303d002f0ba6cfe8259c91d4684443fb0b3de286ba74991175d651726131910160405180910390a1601155565b6006546001600160a01b031633146113e15760405162461bcd60e51b8152600401610a87906139e6565b6127106113f960115483611b5590919063ffffffff16565b111561140457600080fd5b60105460408051918252602082018390527fe7f97d51d307dc44045597c9978bec0f842e6bb40d19b9444084cfa30d9ed4f2910160405180910390a1601055565b6000610905338484611cbf565b6006546001600160a01b0316331461147c5760405162461bcd60e51b8152600401610a87906139e6565b6009546040516370a0823160e01b81523060048201526000916001600160a01b0316906370a0823190602401602060405180830381865afa1580156114c5573d6000803e3d6000fd5b505050506040513d601f19601f820116820180604052508101906114e99190613a38565b90506115147f00000000000000000000000000000000000000000000000000000000000000006123e9565b6009546040516370a0823160e01b81523060048201526000916001600160a01b0316906370a0823190602401602060405180830381865afa15801561155d573d6000803e3d6000fd5b505050506040513d601f19601f820116820180604052508101906115819190613a38565b90508361158e8284611c87565b10156115ee5760405162461bcd60e51b815260206004820152602960248201527f4d617374657243686566537472617465677956313a3a7265736375654465706c6044820152686f79656446756e647360b81b6064820152608401610a87565b7fc7606d21ac05cd309191543e409f0845c016120563783d70e4f41419dc0ef234611617610ef5565b6002546040805192835260208301919091520160405180910390a1600e5460ff161515600114801561164b57506001831515145b1561165a5761165a6000610cb6565b50505050565b610fe73382611fc9565b6000806116756116a9565b9050600c5481106116a15761169b61271061093060105484611c6f90919063ffffffff16565b91505090565b600091505090565b6000806116b46124d3565b95945050505050565b6006546001600160a01b031633146116e75760405162461bcd60e51b8152600401610a87906139e6565b80156116f257600080fd5b600f5460408051918252602082018390527f3cc372f330f95ac9540626dc8a25f5bf21ba607215a5d58304cb804d446f104a910160405180910390a1600f55565b428410156117755760405162461bcd60e51b815260206004820152600f60248201526e1c195c9b5a5d0e8e995e1c1a5c9959608a1b6044820152606401610a87565b6001600160a01b038716600090815260056020526040812080547f6e71edae12b1b97f4d1f60370fef10105fa2faae0126114a169c64845d6126c9918a918a918a9190866117c283613a67565b909155506040805160208101969096526001600160a01b0394851690860152929091166060840152608083015260a082015260c0810186905260e001604051602081830303815290604052805190602001209050611823888286868661275d565b61182e888888611b61565b5050505050505050565b600061184e611845610ef5565b60025490611c6f565b600003611859575090565b610909611864610ef5565b600254610930908590611c6f565b6006546001600160a01b0316331461189c5760405162461bcd60e51b8152600401610a87906139e6565b600d5460408051918252602082018390527fa5dae50539d56dfe1fb5273d883b0c39bc76750a25d036fc5fbd09ad8fd5f57f910160405180910390a1600d55565b60006118ea611845610ef5565b6000036118f957506000919050565b61090960025461093061190a610ef5565b8590611c6f565b60007f8b73c3c69bb8fe3d512ecc4cf759cc79239f7b179b0ffacaa9a75d522b39400f60001b60006040516119469190613a80565b6040519081900390207fc89efdaa54c0f20c7adf612882df0950f5a951637e0307cdcb4c672f298b8bc646604080516020810195909552840192909252606083015260808201523060a082015260c00160405160208183030381529060405280519060200120905090565b6006546001600160a01b031633146119db5760405162461bcd60e51b8152600401610a87906139e6565b6001600160a01b038116611a405760405162461bcd60e51b815260206004820152602660248201527f4f776e61626c653a206e6577206f776e657220697320746865207a65726f206160448201526564647265737360d01b6064820152608401610a87565b6006546040516001600160a01b038084169216907f8be0079c531659141344cd1fd0a4f28419497f9722a3daafe3b4186f6b6457e090600090a3600680546001600160a01b0319166001600160a01b0392909216919091179055565b323314611ae25760405162461bcd60e51b815260206004820152601460248201527359616b53747261746567793a3a6f6e6c79454f4160601b6044820152606401610a87565b600080600080611af06124d3565b9350935093509350600c54811015611b4a5760405162461bcd60e51b815260206004820152601e60248201527f4d617374657243686566537472617465677956313a3a7265696e7665737400006044820152606401610a87565b61165a828585612889565b6000610a278284613b1b565b6001600160a01b038316611bb75760405162461bcd60e51b815260206004820152601c60248201527f5f617070726f76653a3a6f776e6572207a65726f2061646472657373000000006044820152606401610a87565b6001600160a01b038216611c0d5760405162461bcd60e51b815260206004820152601e60248201527f5f617070726f76653a3a7370656e646572207a65726f206164647265737300006044820152606401610a87565b6001600160a01b0383811660008181526003602090815260408083209487168084529482529182902085905590518481527f8c5be1e5ebec7d5bd14f71427d1e84f3dd0314c0f7b2291e5b200ac8c7c3b92591015b60405180910390a3505050565b6000610a278284613b33565b6000610a278284613b52565b6000610a278284613b74565b60008184841115611cb75760405162461bcd60e51b8152600401610a87919061378d565b505050900390565b6001600160a01b038216611d325760405162461bcd60e51b815260206004820152603460248201527f5f7472616e73666572546f6b656e733a2063616e6e6f74207472616e7366657260448201527320746f20746865207a65726f206164647265737360601b6064820152608401610a87565b611d6f816040518060600160405280602e8152602001613d19602e91396001600160a01b0386166000908152600460205260409020549190611c93565b6001600160a01b038085166000908152600460205260408082209390935590841681522054611d9e9082611b55565b6001600160a01b0380841660008181526004602052604090819020939093559151908516907fddf252ad1be2c89b69c2b068fc378daa952ba7f163c4a11628f55a4df523b3ef90611c629085815260200190565b610fe77f0000000000000000000000000000000000000000000000000000000000000000826129d2565b60405163a9059cbb60e01b81526001600160a01b0383811660048301526024820183905284169063a9059cbb906044016020604051808303816000875af1158015611e6b573d6000803e3d6000fd5b505050506040513d601f19601f82011682018060405250810190611e8f9190613a1b565b611eee5760405162461bcd60e51b815260206004820152602a60248201527f4d617374657243686566537472617465677956313a3a5452414e534645525f466044820152691493d357d1905253115160b21b6064820152608401610a87565b505050565b611f3081604051806060016040528060278152602001613cf2602791396001600160a01b0385166000908152600460205260409020549190611c93565b60046000846001600160a01b03166001600160a01b0316815260200190815260200160002081905550611f8081604051806060016040528060278152602001613c9c602791396002549190611c93565b6002556040518181526000906001600160a01b038416907fddf252ad1be2c89b69c2b068fc378daa952ba7f163c4a11628f55a4df523b3ef906020015b60405180910390a35050565b600e5460ff1615156001146120205760405162461bcd60e51b815260206004820152601e60248201527f4d617374657243686566537472617465677956313a3a5f6465706f73697400006044820152606401610a87565b600d5415612058576000806000806120366124d3565b9350935093509350600d5481111561205357612053828585612889565b505050505b6009546040516323b872dd60e01b8152336004820152306024820152604481018390526001600160a01b03909116906323b872dd906064016020604051808303816000875af11580156120af573d6000803e3d6000fd5b505050506040513d601f19601f820116820180604052508101906120d39190613a1b565b61212d5760405162461bcd60e51b815260206004820152602560248201527f4d617374657243686566537472617465677956313a3a7472616e736665722066604482015264185a5b195960da1b6064820152608401610a87565b60008061213b612710610926565b90506121538461214e6107e38685611c87565b612ac4565b61215c83612b48565b836001600160a01b03167fe1fffcc4923d04b559f4d29a8bfc6cda04eb5b0d3c460751c2402c5c5cc9109c84604051610b0291815260200190565b6019546018546040516301e1c48d60e01b81526001600160a01b0391821660048201526024810185905260009291909116906301e1c48d90604401602060405180830381865afa1580156121ef573d6000803e3d6000fd5b505050506040513d601f19601f82011682018060405250810190610a279190613a38565b6001600160a01b038116156123ca57600a5460408051630dfe168160e01b815290516001600160a01b0392831692841691630dfe16819160048083019260209291908290030181865afa15801561226e573d6000803e3d6000fd5b505050506040513d601f19601f820116820180604052508101906122929190613b8b565b6001600160a01b03160361232757806001600160a01b031663d21220a76040518163ffffffff1660e01b8152600401602060405180830381865afa1580156122de573d6000803e3d6000fd5b505050506040513d601f19601f820116820180604052508101906123029190613b8b565b601580546001600160a01b0319166001600160a01b03929092169190911790556123aa565b806001600160a01b0316630dfe16816040518163ffffffff1660e01b8152600401602060405180830381865afa158015612365573d6000803e3d6000fd5b505050506040513d601f19601f820116820180604052508101906123899190613b8b565b601580546001600160a01b0319166001600160a01b03929092169190911790555b601480546001600160a01b0383166001600160a01b031990911617905550565b601480546001600160a01b031990811690915560158054909116905550565b60095460195460405163095ea7b360e01b81526001600160a01b0391821660048201526000602482015291169063095ea7b3906044016020604051808303816000875af115801561243e573d6000803e3d6000fd5b505050506040513d601f19601f820116820180604052508101906124629190613a1b565b5060195460185460095460405163d2cee46f60e01b8152600481018590526001600160a01b039283166024820152908216604482015291169063d2cee46f906064015b600060405180830381600087803b1580156124bf57600080fd5b505af1158015610bb0573d6000803e3d6000fd5b6012546040516370a0823160e01b815230600482015260009182918291829182916001600160a01b0316906370a0823190602401602060405180830381865afa158015612524573d6000803e3d6000fd5b505050506040513d601f19601f820116820180604052508101906125489190613a38565b905060008060006125797f000000000000000000000000000000000000000000000000000000000000000030612bd4565b91945092509050600061258c8585611b55565b600a546012549192506000916001600160a01b039182169116036125b057846125d5565b601254600a546013546125d59285926001600160a01b03918216929082169116612c68565b905060006001600160a01b038416156126c05773b31f66aa3c1e785363f0875a1b74e27b85fd66c6196001600160a01b038516016126145750836126c0565b6014546001600160a01b0316156126c0576015546040516370a0823160e01b815230600482015261269a916001600160a01b0316906370a0823190602401602060405180830381865afa15801561266f573d6000803e3d6000fd5b505050506040513d601f19601f820116820180604052508101906126939190613a38565b8690611b55565b600a546014549196506126bd91879187916001600160a01b039182169116612c68565b90505b600a546040516370a0823160e01b81523060048201526000916127399184916001600160a01b0316906370a0823190602401602060405180830381865afa15801561270f573d6000803e3d6000fd5b505050506040513d601f19601f820116820180604052508101906127339190613a38565b90611b55565b905060006127478285611b55565b949d969c50909a50929850939650505050505050565b6000612767611911565b60405161190160f01b602082015260228101919091526042810186905260620160408051601f198184030181528282528051602091820120600080855291840180845281905260ff88169284019290925260608301869052608083018590529092509060019060a0016020604051602081039080840390855afa1580156127f2573d6000803e3d6000fd5b5050604051601f1901519150506001600160a01b038116158015906128285750866001600160a01b0316816001600160a01b0316145b6128805760405162461bcd60e51b8152602060048201526024808201527f417263683a3a76616c69646174655369673a20696e76616c6964207369676e616044820152637475726560e01b6064820152608401610a87565b50505050505050565b6128b27f0000000000000000000000000000000000000000000000000000000000000000612d26565b60006128c76128c084612d6c565b8590611b55565b90506128dd6128d68584612db0565b8290611b55565b5060006128fb61271061093060115485611c6f90919063ffffffff16565b9050801561292057600a54600b54612920916001600160a01b03908116911683611e1c565b600061293d61271061093060105486611c6f90919063ffffffff16565b9050801561295c57600a5461295c906001600160a01b03163383611e1c565b600061297a6129758361296f8787611c87565b90611c87565b612eef565b905061298581612b48565b7fc7606d21ac05cd309191543e409f0845c016120563783d70e4f41419dc0ef2346129ae610ef5565b6002546040805192835260208301919091520160405180910390a150505050505050565b6019546018546009546040516328c6306960e21b8152600481018690526001600160a01b03928316602482015290821660448201526064810184905291169063a318c1a4906084015b600060405180830381600087803b158015612a3557600080fd5b505af1158015612a49573d6000803e3d6000fd5b505060195460185460155460405163bb51e89f60e01b8152600481018890526001600160a01b03928316602482015290821660448201529116925063bb51e89f9150606401600060405180830381600087803b158015612aa857600080fd5b505af1158015612abc573d6000803e3d6000fd5b505050505050565b600254612ad19082611b55565b6002556001600160a01b038216600090815260046020526040902054612af79082611b55565b6001600160a01b0383166000818152600460205260408082209390935591519091907fddf252ad1be2c89b69c2b068fc378daa952ba7f163c4a11628f55a4df523b3ef90611fbd9085815260200190565b60008111612baa5760405162461bcd60e51b815260206004820152602960248201527f4d617374657243686566537472617465677956313a3a5f7374616b654465706f604482015268736974546f6b656e7360b81b6064820152608401610a87565b610fe77f000000000000000000000000000000000000000000000000000000000000000082612f1e565b60195460185460405163304cf65960e11b81526001600160a01b0391821660048201526024810185905260009283928392839283928392911690636099ecb290604401606060405180830381865afa158015612c34573d6000803e3d6000fd5b505050506040513d601f19601f82011682018060405250810190612c589190613ba8565b919a919950975095505050505050565b600080612c758585612f88565b509050600080846001600160a01b0316630902f1ac6040518163ffffffff1660e01b8152600401606060405180830381865afa158015612cb9573d6000803e3d6000fd5b505050506040513d601f19601f82011682018060405250810190612cdd9190613bf8565b5091509150866001600160a01b0316836001600160a01b031614612cfd57905b612d1a88836001600160701b0316836001600160701b0316612fb9565b98975050505050505050565b6019546018546015546040516337bd953160e11b8152600481018590526001600160a01b0392831660248201529082166044820152911690636f7b2a62906064016124a5565b601254600a546000916001600160a01b03908116911603612d8b575090565b601254600a546013546109099285926001600160a01b03918216929082169116613001565b60008115612ee6576014546001600160a01b031615612df557601554600a54601454612dee9285926001600160a01b03918216929082169116613001565b9050610909565b478015612e655773b31f66aa3c1e785363f0875a1b74e27b85fd66c76001600160a01b031663d0e30db0826040518263ffffffff1660e01b81526004016000604051808303818588803b158015612e4b57600080fd5b505af1158015612e5f573d6000803e3d6000fd5b50505050505b6040516370a0823160e01b8152306004820152612ede90859073b31f66aa3c1e785363f0875a1b74e27b85fd66c7906370a0823190602401602060405180830381865afa158015612eba573d6000803e3d6000fd5b505050506040513d601f19601f8201168201806040525081019061296f9190613a38565b915050610909565b50600092915050565b600a546009546016546017546000936109099386936001600160a01b0392831693918316929081169116613175565b601954600954612f3b916001600160a01b03918216911683613319565b601954601854600954604051630e4cca4b60e41b8152600481018690526001600160a01b03928316602482015290821660448201526064810184905291169063e4cca4b090608401612a1b565b600080826001600160a01b0316846001600160a01b031610612fab578284612fae565b83835b915091509250929050565b600080612fc8856103e5611c6f565b90506000612fd68285611c6f565b90506000612fea83612733886103e8611c6f565b9050612ff68282611c7b565b979650505050505050565b60008061300e8585612f88565b509050600080846001600160a01b0316630902f1ac6040518163ffffffff1660e01b8152600401606060405180830381865afa158015613052573d6000803e3d6000fd5b505050506040513d601f19601f820116820180604052508101906130769190613bf8565b5091509150866001600160a01b0316836001600160a01b03161461309657905b6000806130b68a856001600160701b0316856001600160701b0316612fb9565b9050886001600160a01b0316856001600160a01b0316146130d357905b6130e76001600160a01b038a16888c613319565b6040805160008152602081019182905263022c0d9f60e01b9091526001600160a01b0388169063022c0d9f906131269085908590309060248101613c48565b600060405180830381600087803b15801561314057600080fd5b505af1158015613154573d6000803e3d6000fd5b505050508181116131655781613167565b805b9a9950505050505050505050565b600080613183876002611c7b565b9050600081116131ed5760405162461bcd60e51b815260206004820152602f60248201527f4465784c6962726172793a3a5f636f6e76657274526577617264546f6b656e7360448201526e546f4465706f736974546f6b656e7360881b6064820152608401610a87565b6000856001600160a01b0316630dfe16816040518163ffffffff1660e01b8152600401602060405180830381865afa15801561322d573d6000803e3d6000fd5b505050506040513d601f19601f820116820180604052508101906132519190613b8b565b9050816001600160a01b03888116908316146132765761327383898489613001565b90505b6000876001600160a01b031663d21220a76040518163ffffffff1660e01b8152600401602060405180830381865afa1580156132b6573d6000803e3d6000fd5b505050506040513d601f19601f820116820180604052508101906132da9190613b8b565b9050836001600160a01b038a8116908316146132ff576132fc858b848a613001565b90505b61330a89848361336b565b9b9a5050505050505050505050565b604080516001600160a01b038416602482015260448082018490528251808303909101815260649091019091526020810180516001600160e01b031663a9059cbb60e01b179052611eee908490613547565b6000806000856001600160a01b0316630902f1ac6040518163ffffffff1660e01b8152600401606060405180830381865afa1580156133ae573d6000803e3d6000fd5b505050506040513d601f19601f820116820180604052508101906133d29190613bf8565b509150915060006133f686846001600160701b0316846001600160701b0316613619565b9050848111156134235784905061342085836001600160701b0316856001600160701b0316613619565b95505b61349a8787896001600160a01b0316630dfe16816040518163ffffffff1660e01b8152600401602060405180830381865afa158015613466573d6000803e3d6000fd5b505050506040513d601f19601f8201168201806040525081019061348a9190613b8b565b6001600160a01b03169190613319565b6134dd8782896001600160a01b031663d21220a76040518163ffffffff1660e01b8152600401602060405180830381865afa158015613466573d6000803e3d6000fd5b6040516335313c2160e11b81523060048201526001600160a01b03881690636a627842906024016020604051808303816000875af1158015613523573d6000803e3d6000fd5b505050506040513d601f19601f82011682018060405250810190612ff69190613a38565b600061359c826040518060400160405280602081526020017f5361666545524332303a206c6f772d6c6576656c2063616c6c206661696c6564815250856001600160a01b03166136319092919063ffffffff16565b805190915015611eee57808060200190518101906135ba9190613a1b565b611eee5760405162461bcd60e51b815260206004820152602a60248201527f5361666545524332303a204552433230206f7065726174696f6e20646964206e6044820152691bdd081cdd58d8d9595960b21b6064820152608401610a87565b6000613629836109308685611c6f565b949350505050565b60606136298484600085856001600160a01b0385163b6136935760405162461bcd60e51b815260206004820152601d60248201527f416464726573733a2063616c6c20746f206e6f6e2d636f6e74726163740000006044820152606401610a87565b600080866001600160a01b031685876040516136af9190613c7f565b60006040518083038185875af1925050503d80600081146136ec576040519150601f19603f3d011682016040523d82523d6000602084013e6136f1565b606091505b5091509150612ff68282866060831561370b575081610a27565b82511561371b5782518084602001fd5b8160405162461bcd60e51b8152600401610a87919061378d565b60005b83811015613750578181015183820152602001613738565b8381111561165a5750506000910152565b60008151808452613779816020860160208601613735565b601f01601f19169290920160200192915050565b602081526000610a276020830184613761565b6001600160a01b0381168114610fe757600080fd5b600080604083850312156137c857600080fd5b82356137d3816137a0565b946020939093013593505050565b6000806000606084860312156137f657600080fd5b8335613801816137a0565b92506020840135613811816137a0565b929592945050506040919091013590565b60006020828403121561383457600080fd5b5035919050565b60006020828403121561384d57600080fd5b8135610a27816137a0565b803560ff8116811461386957600080fd5b919050565b600080600080600060a0868803121561388657600080fd5b853594506020860135935061389d60408701613858565b94979396509394606081013594506080013592915050565b8015158114610fe757600080fd5b6000602082840312156138d557600080fd5b8135610a27816138b5565b600080604083850312156138f357600080fd5b82356138fe816137a0565b9150602083013561390e816137a0565b809150509250929050565b6000806040838503121561392c57600080fd5b82359150602083013561390e816138b5565b600080600080600080600060e0888a03121561395957600080fd5b8735613964816137a0565b96506020880135613974816137a0565b9550604088013594506060880135935061399060808901613858565b925060a0880135915060c0880135905092959891949750929550565b600181811c908216806139c057607f821691505b6020821081036139e057634e487b7160e01b600052602260045260246000fd5b50919050565b6020808252818101527f4f776e61626c653a2063616c6c6572206973206e6f7420746865206f776e6572604082015260600190565b600060208284031215613a2d57600080fd5b8151610a27816138b5565b600060208284031215613a4a57600080fd5b5051919050565b634e487b7160e01b600052601160045260246000fd5b600060018201613a7957613a79613a51565b5060010190565b600080835481600182811c915080831680613a9c57607f831692505b60208084108203613abb57634e487b7160e01b86526022600452602486fd5b818015613acf5760018114613ae057613b0d565b60ff19861689528489019650613b0d565b60008a81526020902060005b86811015613b055781548b820152908501908301613aec565b505084890196505b509498975050505050505050565b60008219821115613b2e57613b2e613a51565b500190565b6000816000190483118215151615613b4d57613b4d613a51565b500290565b600082613b6f57634e487b7160e01b600052601260045260246000fd5b500490565b600082821015613b8657613b86613a51565b500390565b600060208284031215613b9d57600080fd5b8151610a27816137a0565b600080600060608486031215613bbd57600080fd5b835192506020840151613bcf816137a0565b80925050604084015190509250925092565b80516001600160701b038116811461386957600080fd5b600080600060608486031215613c0d57600080fd5b613c1684613be1565b9250613c2460208501613be1565b9150604084015163ffffffff81168114613c3d57600080fd5b809150509250925092565b84815283602082015260018060a01b0383166040820152608060608201526000613c756080830184613761565b9695505050505050565b60008251613c91818460208701613735565b919091019291505056fe5f6275726e3a206275726e20616d6f756e74206578636565647320746f74616c20737570706c797472616e7366657246726f6d3a207472616e7366657220616d6f756e74206578636565647320616c6c6f77616e63655f6275726e3a206275726e20616d6f756e7420657863656564732066726f6d2062616c616e63655f7472616e73666572546f6b656e733a207472616e7366657220657863656564732066726f6d2062616c616e6365a26469706673582212208b93174e96ad07c77e4cb23c340249c5aa515dbd3b159973e0a40b01e01ae63464736f6c634300080d003353776170207061697220277377617050616972506f6f6c5265776172642720644f776e61626c653a2063616c6c6572206973206e6f7420746865206f776e65728be0079c531659141344cd1fd0a4f28419497f9722a3daafe3b4186f6b6457e0",
    "linkReferences": {}
  },
  "methodIdentifiers": {
    "ADMIN_FEE_BIPS()": "07677111",
    "DEPOSITS_ENABLED()": "b52a321f",
    "DEV_FEE_BIPS()": "5ea682ea",
    "DOMAIN_TYPEHASH()": "20606b70",
    "MAX_TOKENS_TO_DEPOSIT_WITHOUT_REINVEST()": "789139bc",
    "MIN_TOKENS_TO_REINVEST()": "bd079f55",
    "PERMIT_TYPEHASH()": "30adf81f",
    "PID()": "5eaec0e4",
    "REINVEST_REWARD_BIPS()": "8aff733d",
    "VERSION_HASH()": "9e4e7318",
    "allowDepositor(address)": "4bebd1e7",
    "allowance(address,address)": "dd62ed3e",
    "allowedDepositors(address)": "483c2ef0",
    "approve(address,uint256)": "095ea7b3",
    "balanceOf(address)": "70a08231",
    "checkReward()": "c4b24a46",
    "decimals()": "313ce567",
    "deposit(uint256)": "b6b55f25",
    "depositFor(address,uint256)": "2f4f21e2",
    "depositToken()": "c89039c5",
    "depositWithPermit(uint256,uint256,uint8,bytes32,bytes32)": "4a970be7",
    "devAddr()": "da09c72c",
    "estimateDeployedBalance()": "0f23475d",
    "estimateReinvestReward()": "b9e57b80",
    "extraToken()": "a1a4ddeb",
    "getDepositTokensForShares(uint256)": "eab89a5a",
    "getDomainSeparator()": "ed24911d",
    "getSharesForDepositTokens(uint256)": "dd8ce4d6",
    "name()": "06fdde03",
    "nonces(address)": "7ecebe00",
    "numberOfAllowedDepositors()": "3bdc6e72",
    "owner()": "8da5cb5b",
    "permit(address,address,uint256,uint256,uint8,bytes32,bytes32)": "d505accf",
    "proxy()": "ec556889",
    "recoverAVAX(uint256)": "4ebb7916",
    "recoverERC20(address,uint256)": "8980f11f",
    "reinvest()": "fdb5a03e",
    "removeDepositor(address)": "8b73e606",
    "renounceOwnership()": "715018a6",
    "rescueDeployedFunds(uint256,bool)": "ac0d31ff",
    "revokeAllowance(address,address)": "7ae26773",
    "rewardToken()": "f7c618c1",
    "setExtraRewardSwapPair(address)": "8432e894",
    "stakingContract()": "ee99205c",
    "swapPairExtraReward()": "909ac8f4",
    "swapPairRewardToken()": "5e5eee1b",
    "symbol()": "95d89b41",
    "totalDeposits()": "7d882097",
    "totalSupply()": "18160ddd",
    "transfer(address,uint256)": "a9059cbb",
    "transferFrom(address,address,uint256)": "23b872dd",
    "transferOwnership(address)": "f2fde38b",
    "updateAdminFee(uint256)": "cff1b6ef",
    "updateDepositsEnabled(bool)": "4e77ace5",
    "updateDevAddr(address)": "9291d563",
    "updateDevFee(uint256)": "99729ec1",
    "updateMaxTokensToDepositWithoutReinvest(uint256)": "e21ac825",
    "updateMinTokensToReinvest(uint256)": "81837230",
    "updateReinvestReward(uint256)": "a8ae2b7c",
    "withdraw(uint256)": "2e1a7d4d"
  },
  "id": 137
}