{
  "abi": [
    {
      "inputs": [
        {
          "internalType": "string",
          "name": "_name",
          "type": "string"
        },
        {
          "internalType": "address",
          "name": "_depositToken",
          "type": "address"
        },
        {
          "internalType": "address",
          "name": "_rewardToken",
          "type": "address"
        },
        {
          "internalType": "address",
          "name": "_nativeRewardToken",
          "type": "address"
        },
        {
          "components": [
            {
              "internalType": "address",
              "name": "poolReward",
              "type": "address"
            },
            {
              "internalType": "address",
              "name": "extraReward",
              "type": "address"
            },
            {
              "internalType": "address",
              "name": "token0",
              "type": "address"
            },
            {
              "internalType": "address",
              "name": "token1",
              "type": "address"
            }
          ],
          "internalType": "struct MasterChefStrategyForLP.SwapPairs",
          "name": "_swapPairs",
          "type": "tuple"
        },
        {
          "internalType": "address",
          "name": "_stakingRewards",
          "type": "address"
        },
        {
          "internalType": "uint256",
          "name": "_pid",
          "type": "uint256"
        },
        {
          "internalType": "address",
          "name": "_timelock",
          "type": "address"
        },
        {
          "components": [
            {
              "internalType": "uint256",
              "name": "minTokensToReinvest",
              "type": "uint256"
            },
            {
              "internalType": "uint256",
              "name": "devFeeBips",
              "type": "uint256"
            },
            {
              "internalType": "uint256",
              "name": "reinvestRewardBips",
              "type": "uint256"
            }
          ],
          "internalType": "struct YakStrategyV2.StrategySettings",
          "name": "_strategySettings",
          "type": "tuple"
        }
      ],
      "stateMutability": "nonpayable",
      "type": "constructor"
    },
    {
      "anonymous": false,
      "inputs": [
        {
          "indexed": true,
          "internalType": "address",
          "name": "account",
          "type": "address"
        }
      ],
      "name": "AllowDepositor",
      "type": "event"
    },
    {
      "anonymous": false,
      "inputs": [
        {
          "indexed": true,
          "internalType": "address",
          "name": "owner",
          "type": "address"
        },
        {
          "indexed": true,
          "internalType": "address",
          "name": "spender",
          "type": "address"
        },
        {
          "indexed": false,
          "internalType": "uint256",
          "name": "value",
          "type": "uint256"
        }
      ],
      "name": "Approval",
      "type": "event"
    },
    {
      "anonymous": false,
      "inputs": [
        {
          "indexed": true,
          "internalType": "address",
          "name": "account",
          "type": "address"
        },
        {
          "indexed": false,
          "internalType": "uint256",
          "name": "amount",
          "type": "uint256"
        }
      ],
      "name": "Deposit",
      "type": "event"
    },
    {
      "anonymous": false,
      "inputs": [
        {
          "indexed": false,
          "internalType": "bool",
          "name": "newValue",
          "type": "bool"
        }
      ],
      "name": "DepositsEnabled",
      "type": "event"
    },
    {
      "anonymous": false,
      "inputs": [
        {
          "indexed": true,
          "internalType": "address",
          "name": "previousOwner",
          "type": "address"
        },
        {
          "indexed": true,
          "internalType": "address",
          "name": "newOwner",
          "type": "address"
        }
      ],
      "name": "OwnershipTransferred",
      "type": "event"
    },
    {
      "anonymous": false,
      "inputs": [
        {
          "indexed": false,
          "internalType": "address",
          "name": "token",
          "type": "address"
        },
        {
          "indexed": false,
          "internalType": "uint256",
          "name": "amount",
          "type": "uint256"
        }
      ],
      "name": "Recovered",
      "type": "event"
    },
    {
      "anonymous": false,
      "inputs": [
        {
          "indexed": false,
          "internalType": "uint256",
          "name": "newTotalDeposits",
          "type": "uint256"
        },
        {
          "indexed": false,
          "internalType": "uint256",
          "name": "newTotalSupply",
          "type": "uint256"
        }
      ],
      "name": "Reinvest",
      "type": "event"
    },
    {
      "anonymous": false,
      "inputs": [
        {
          "indexed": true,
          "internalType": "address",
          "name": "account",
          "type": "address"
        }
      ],
      "name": "RemoveDepositor",
      "type": "event"
    },
    {
      "anonymous": false,
      "inputs": [
        {
          "indexed": true,
          "internalType": "address",
          "name": "from",
          "type": "address"
        },
        {
          "indexed": true,
          "internalType": "address",
          "name": "to",
          "type": "address"
        },
        {
          "indexed": false,
          "internalType": "uint256",
          "name": "value",
          "type": "uint256"
        }
      ],
      "name": "Transfer",
      "type": "event"
    },
    {
      "anonymous": false,
      "inputs": [
        {
          "indexed": false,
          "internalType": "uint256",
          "name": "oldValue",
          "type": "uint256"
        },
        {
          "indexed": false,
          "internalType": "uint256",
          "name": "newValue",
          "type": "uint256"
        }
      ],
      "name": "UpdateAdminFee",
      "type": "event"
    },
    {
      "anonymous": false,
      "inputs": [
        {
          "indexed": false,
          "internalType": "address",
          "name": "oldValue",
          "type": "address"
        },
        {
          "indexed": false,
          "internalType": "address",
          "name": "newValue",
          "type": "address"
        }
      ],
      "name": "UpdateDevAddr",
      "type": "event"
    },
    {
      "anonymous": false,
      "inputs": [
        {
          "indexed": false,
          "internalType": "uint256",
          "name": "oldValue",
          "type": "uint256"
        },
        {
          "indexed": false,
          "internalType": "uint256",
          "name": "newValue",
          "type": "uint256"
        }
      ],
      "name": "UpdateDevFee",
      "type": "event"
    },
    {
      "anonymous": false,
      "inputs": [
        {
          "indexed": false,
          "internalType": "uint256",
          "name": "oldValue",
          "type": "uint256"
        },
        {
          "indexed": false,
          "internalType": "uint256",
          "name": "newValue",
          "type": "uint256"
        }
      ],
      "name": "UpdateMaxTokensToDepositWithoutReinvest",
      "type": "event"
    },
    {
      "anonymous": false,
      "inputs": [
        {
          "indexed": false,
          "internalType": "uint256",
          "name": "oldValue",
          "type": "uint256"
        },
        {
          "indexed": false,
          "internalType": "uint256",
          "name": "newValue",
          "type": "uint256"
        }
      ],
      "name": "UpdateMinTokensToReinvest",
      "type": "event"
    },
    {
      "anonymous": false,
      "inputs": [
        {
          "indexed": false,
          "internalType": "uint256",
          "name": "oldValue",
          "type": "uint256"
        },
        {
          "indexed": false,
          "internalType": "uint256",
          "name": "newValue",
          "type": "uint256"
        }
      ],
      "name": "UpdateReinvestReward",
      "type": "event"
    },
    {
      "anonymous": false,
      "inputs": [
        {
          "indexed": true,
          "internalType": "address",
          "name": "account",
          "type": "address"
        },
        {
          "indexed": false,
          "internalType": "uint256",
          "name": "amount",
          "type": "uint256"
        }
      ],
      "name": "Withdraw",
      "type": "event"
    },
    {
      "inputs": [],
      "name": "ADMIN_FEE_BIPS",
      "outputs": [
        {
          "internalType": "uint256",
          "name": "",
          "type": "uint256"
        }
      ],
      "stateMutability": "view",
      "type": "function"
    },
    {
      "inputs": [],
      "name": "DEPOSITS_ENABLED",
      "outputs": [
        {
          "internalType": "bool",
          "name": "",
          "type": "bool"
        }
      ],
      "stateMutability": "view",
      "type": "function"
    },
    {
      "inputs": [],
      "name": "DEV_FEE_BIPS",
      "outputs": [
        {
          "internalType": "uint256",
          "name": "",
          "type": "uint256"
        }
      ],
      "stateMutability": "view",
      "type": "function"
    },
    {
      "inputs": [],
      "name": "DOMAIN_TYPEHASH",
      "outputs": [
        {
          "internalType": "bytes32",
          "name": "",
          "type": "bytes32"
        }
      ],
      "stateMutability": "view",
      "type": "function"
    },
    {
      "inputs": [],
      "name": "MAX_TOKENS_TO_DEPOSIT_WITHOUT_REINVEST",
      "outputs": [
        {
          "internalType": "uint256",
          "name": "",
          "type": "uint256"
        }
      ],
      "stateMutability": "view",
      "type": "function"
    },
    {
      "inputs": [],
      "name": "MIN_TOKENS_TO_REINVEST",
      "outputs": [
        {
          "internalType": "uint256",
          "name": "",
          "type": "uint256"
        }
      ],
      "stateMutability": "view",
      "type": "function"
    },
    {
      "inputs": [],
      "name": "PERMIT_TYPEHASH",
      "outputs": [
        {
          "internalType": "bytes32",
          "name": "",
          "type": "bytes32"
        }
      ],
      "stateMutability": "view",
      "type": "function"
    },
    {
      "inputs": [],
      "name": "PID",
      "outputs": [
        {
          "internalType": "uint256",
          "name": "",
          "type": "uint256"
        }
      ],
      "stateMutability": "view",
      "type": "function"
    },
    {
      "inputs": [],
      "name": "REINVEST_REWARD_BIPS",
      "outputs": [
        {
          "internalType": "uint256",
          "name": "",
          "type": "uint256"
        }
      ],
      "stateMutability": "view",
      "type": "function"
    },
    {
      "inputs": [],
      "name": "VERSION_HASH",
      "outputs": [
        {
          "internalType": "bytes32",
          "name": "",
          "type": "bytes32"
        }
      ],
      "stateMutability": "view",
      "type": "function"
    },
    {
      "inputs": [
        {
          "internalType": "address",
          "name": "depositor",
          "type": "address"
        }
      ],
      "name": "allowDepositor",
      "outputs": [],
      "stateMutability": "nonpayable",
      "type": "function"
    },
    {
      "inputs": [
        {
          "internalType": "address",
          "name": "account",
          "type": "address"
        },
        {
          "internalType": "address",
          "name": "spender",
          "type": "address"
        }
      ],
      "name": "allowance",
      "outputs": [
        {
          "internalType": "uint256",
          "name": "",
          "type": "uint256"
        }
      ],
      "stateMutability": "view",
      "type": "function"
    },
    {
      "inputs": [
        {
          "internalType": "address",
          "name": "",
          "type": "address"
        }
      ],
      "name": "allowedDepositors",
      "outputs": [
        {
          "internalType": "bool",
          "name": "",
          "type": "bool"
        }
      ],
      "stateMutability": "view",
      "type": "function"
    },
    {
      "inputs": [
        {
          "internalType": "address",
          "name": "spender",
          "type": "address"
        },
        {
          "internalType": "uint256",
          "name": "amount",
          "type": "uint256"
        }
      ],
      "name": "approve",
      "outputs": [
        {
          "internalType": "bool",
          "name": "",
          "type": "bool"
        }
      ],
      "stateMutability": "nonpayable",
      "type": "function"
    },
    {
      "inputs": [
        {
          "internalType": "address",
          "name": "account",
          "type": "address"
        }
      ],
      "name": "balanceOf",
      "outputs": [
        {
          "internalType": "uint256",
          "name": "",
          "type": "uint256"
        }
      ],
      "stateMutability": "view",
      "type": "function"
    },
    {
      "inputs": [],
      "name": "checkReward",
      "outputs": [
        {
          "internalType": "uint256",
          "name": "",
          "type": "uint256"
        }
      ],
      "stateMutability": "view",
      "type": "function"
    },
    {
      "inputs": [],
      "name": "decimals",
      "outputs": [
        {
          "internalType": "uint8",
          "name": "",
          "type": "uint8"
        }
      ],
      "stateMutability": "view",
      "type": "function"
    },
    {
      "inputs": [
        {
          "internalType": "uint256",
          "name": "amount",
          "type": "uint256"
        }
      ],
      "name": "deposit",
      "outputs": [],
      "stateMutability": "nonpayable",
      "type": "function"
    },
    {
      "inputs": [
        {
          "internalType": "address",
          "name": "account",
          "type": "address"
        },
        {
          "internalType": "uint256",
          "name": "amount",
          "type": "uint256"
        }
      ],
      "name": "depositFor",
      "outputs": [],
      "stateMutability": "nonpayable",
      "type": "function"
    },
    {
      "inputs": [],
      "name": "depositToken",
      "outputs": [
        {
          "internalType": "contract IERC20",
          "name": "",
          "type": "address"
        }
      ],
      "stateMutability": "view",
      "type": "function"
    },
    {
      "inputs": [
        {
          "internalType": "uint256",
          "name": "amount",
          "type": "uint256"
        },
        {
          "internalType": "uint256",
          "name": "deadline",
          "type": "uint256"
        },
        {
          "internalType": "uint8",
          "name": "v",
          "type": "uint8"
        },
        {
          "internalType": "bytes32",
          "name": "r",
          "type": "bytes32"
        },
        {
          "internalType": "bytes32",
          "name": "s",
          "type": "bytes32"
        }
      ],
      "name": "depositWithPermit",
      "outputs": [],
      "stateMutability": "nonpayable",
      "type": "function"
    },
    {
      "inputs": [],
      "name": "devAddr",
      "outputs": [
        {
          "internalType": "address",
          "name": "",
          "type": "address"
        }
      ],
      "stateMutability": "view",
      "type": "function"
    },
    {
      "inputs": [],
      "name": "estimateDeployedBalance",
      "outputs": [
        {
          "internalType": "uint256",
          "name": "",
          "type": "uint256"
        }
      ],
      "stateMutability": "view",
      "type": "function"
    },
    {
      "inputs": [],
      "name": "estimateReinvestReward",
      "outputs": [
        {
          "internalType": "uint256",
          "name": "",
          "type": "uint256"
        }
      ],
      "stateMutability": "view",
      "type": "function"
    },
    {
      "inputs": [],
      "name": "extraToken",
      "outputs": [
        {
          "internalType": "address",
          "name": "",
          "type": "address"
        }
      ],
      "stateMutability": "view",
      "type": "function"
    },
    {
      "inputs": [
        {
          "internalType": "uint256",
          "name": "amount",
          "type": "uint256"
        }
      ],
      "name": "getDepositTokensForShares",
      "outputs": [
        {
          "internalType": "uint256",
          "name": "",
          "type": "uint256"
        }
      ],
      "stateMutability": "view",
      "type": "function"
    },
    {
      "inputs": [],
      "name": "getDomainSeparator",
      "outputs": [
        {
          "internalType": "bytes32",
          "name": "",
          "type": "bytes32"
        }
      ],
      "stateMutability": "view",
      "type": "function"
    },
    {
      "inputs": [
        {
          "internalType": "uint256",
          "name": "amount",
          "type": "uint256"
        }
      ],
      "name": "getSharesForDepositTokens",
      "outputs": [
        {
          "internalType": "uint256",
          "name": "",
          "type": "uint256"
        }
      ],
      "stateMutability": "view",
      "type": "function"
    },
    {
      "inputs": [],
      "name": "hakuChef",
      "outputs": [
        {
          "internalType": "contract IHakuChef",
          "name": "",
          "type": "address"
        }
      ],
      "stateMutability": "view",
      "type": "function"
    },
    {
      "inputs": [],
      "name": "name",
      "outputs": [
        {
          "internalType": "string",
          "name": "",
          "type": "string"
        }
      ],
      "stateMutability": "view",
      "type": "function"
    },
    {
      "inputs": [
        {
          "internalType": "address",
          "name": "",
          "type": "address"
        }
      ],
      "name": "nonces",
      "outputs": [
        {
          "internalType": "uint256",
          "name": "",
          "type": "uint256"
        }
      ],
      "stateMutability": "view",
      "type": "function"
    },
    {
      "inputs": [],
      "name": "numberOfAllowedDepositors",
      "outputs": [
        {
          "internalType": "uint256",
          "name": "",
          "type": "uint256"
        }
      ],
      "stateMutability": "view",
      "type": "function"
    },
    {
      "inputs": [],
      "name": "owner",
      "outputs": [
        {
          "internalType": "address",
          "name": "",
          "type": "address"
        }
      ],
      "stateMutability": "view",
      "type": "function"
    },
    {
      "inputs": [
        {
          "internalType": "address",
          "name": "owner",
          "type": "address"
        },
        {
          "internalType": "address",
          "name": "spender",
          "type": "address"
        },
        {
          "internalType": "uint256",
          "name": "value",
          "type": "uint256"
        },
        {
          "internalType": "uint256",
          "name": "deadline",
          "type": "uint256"
        },
        {
          "internalType": "uint8",
          "name": "v",
          "type": "uint8"
        },
        {
          "internalType": "bytes32",
          "name": "r",
          "type": "bytes32"
        },
        {
          "internalType": "bytes32",
          "name": "s",
          "type": "bytes32"
        }
      ],
      "name": "permit",
      "outputs": [],
      "stateMutability": "nonpayable",
      "type": "function"
    },
    {
      "inputs": [
        {
          "internalType": "uint256",
          "name": "amount",
          "type": "uint256"
        }
      ],
      "name": "recoverAVAX",
      "outputs": [],
      "stateMutability": "nonpayable",
      "type": "function"
    },
    {
      "inputs": [
        {
          "internalType": "address",
          "name": "tokenAddress",
          "type": "address"
        },
        {
          "internalType": "uint256",
          "name": "tokenAmount",
          "type": "uint256"
        }
      ],
      "name": "recoverERC20",
      "outputs": [],
      "stateMutability": "nonpayable",
      "type": "function"
    },
    {
      "inputs": [],
      "name": "reinvest",
      "outputs": [],
      "stateMutability": "nonpayable",
      "type": "function"
    },
    {
      "inputs": [
        {
          "internalType": "address",
          "name": "depositor",
          "type": "address"
        }
      ],
      "name": "removeDepositor",
      "outputs": [],
      "stateMutability": "nonpayable",
      "type": "function"
    },
    {
      "inputs": [],
      "name": "renounceOwnership",
      "outputs": [],
      "stateMutability": "nonpayable",
      "type": "function"
    },
    {
      "inputs": [
        {
          "internalType": "uint256",
          "name": "minReturnAmountAccepted",
          "type": "uint256"
        },
        {
          "internalType": "bool",
          "name": "disableDeposits",
          "type": "bool"
        }
      ],
      "name": "rescueDeployedFunds",
      "outputs": [],
      "stateMutability": "nonpayable",
      "type": "function"
    },
    {
      "inputs": [
        {
          "internalType": "address",
          "name": "token",
          "type": "address"
        },
        {
          "internalType": "address",
          "name": "spender",
          "type": "address"
        }
      ],
      "name": "revokeAllowance",
      "outputs": [],
      "stateMutability": "nonpayable",
      "type": "function"
    },
    {
      "inputs": [],
      "name": "rewardToken",
      "outputs": [
        {
          "internalType": "contract IERC20",
          "name": "",
          "type": "address"
        }
      ],
      "stateMutability": "view",
      "type": "function"
    },
    {
      "inputs": [
        {
          "internalType": "address",
          "name": "_extraTokenSwapPair",
          "type": "address"
        }
      ],
      "name": "setExtraRewardSwapPair",
      "outputs": [],
      "stateMutability": "nonpayable",
      "type": "function"
    },
    {
      "inputs": [],
      "name": "swapPairExtraReward",
      "outputs": [
        {
          "internalType": "address",
          "name": "",
          "type": "address"
        }
      ],
      "stateMutability": "view",
      "type": "function"
    },
    {
      "inputs": [],
      "name": "swapPairRewardToken",
      "outputs": [
        {
          "internalType": "address",
          "name": "",
          "type": "address"
        }
      ],
      "stateMutability": "view",
      "type": "function"
    },
    {
      "inputs": [],
      "name": "symbol",
      "outputs": [
        {
          "internalType": "string",
          "name": "",
          "type": "string"
        }
      ],
      "stateMutability": "view",
      "type": "function"
    },
    {
      "inputs": [],
      "name": "totalDeposits",
      "outputs": [
        {
          "internalType": "uint256",
          "name": "",
          "type": "uint256"
        }
      ],
      "stateMutability": "view",
      "type": "function"
    },
    {
      "inputs": [],
      "name": "totalSupply",
      "outputs": [
        {
          "internalType": "uint256",
          "name": "",
          "type": "uint256"
        }
      ],
      "stateMutability": "view",
      "type": "function"
    },
    {
      "inputs": [
        {
          "internalType": "address",
          "name": "dst",
          "type": "address"
        },
        {
          "internalType": "uint256",
          "name": "amount",
          "type": "uint256"
        }
      ],
      "name": "transfer",
      "outputs": [
        {
          "internalType": "bool",
          "name": "",
          "type": "bool"
        }
      ],
      "stateMutability": "nonpayable",
      "type": "function"
    },
    {
      "inputs": [
        {
          "internalType": "address",
          "name": "src",
          "type": "address"
        },
        {
          "internalType": "address",
          "name": "dst",
          "type": "address"
        },
        {
          "internalType": "uint256",
          "name": "amount",
          "type": "uint256"
        }
      ],
      "name": "transferFrom",
      "outputs": [
        {
          "internalType": "bool",
          "name": "",
          "type": "bool"
        }
      ],
      "stateMutability": "nonpayable",
      "type": "function"
    },
    {
      "inputs": [
        {
          "internalType": "address",
          "name": "newOwner",
          "type": "address"
        }
      ],
      "name": "transferOwnership",
      "outputs": [],
      "stateMutability": "nonpayable",
      "type": "function"
    },
    {
      "inputs": [
        {
          "internalType": "uint256",
          "name": "newValue",
          "type": "uint256"
        }
      ],
      "name": "updateAdminFee",
      "outputs": [],
      "stateMutability": "nonpayable",
      "type": "function"
    },
    {
      "inputs": [
        {
          "internalType": "bool",
          "name": "newValue",
          "type": "bool"
        }
      ],
      "name": "updateDepositsEnabled",
      "outputs": [],
      "stateMutability": "nonpayable",
      "type": "function"
    },
    {
      "inputs": [
        {
          "internalType": "address",
          "name": "newValue",
          "type": "address"
        }
      ],
      "name": "updateDevAddr",
      "outputs": [],
      "stateMutability": "nonpayable",
      "type": "function"
    },
    {
      "inputs": [
        {
          "internalType": "uint256",
          "name": "newValue",
          "type": "uint256"
        }
      ],
      "name": "updateDevFee",
      "outputs": [],
      "stateMutability": "nonpayable",
      "type": "function"
    },
    {
      "inputs": [
        {
          "internalType": "uint256",
          "name": "newValue",
          "type": "uint256"
        }
      ],
      "name": "updateMaxTokensToDepositWithoutReinvest",
      "outputs": [],
      "stateMutability": "nonpayable",
      "type": "function"
    },
    {
      "inputs": [
        {
          "internalType": "uint256",
          "name": "newValue",
          "type": "uint256"
        }
      ],
      "name": "updateMinTokensToReinvest",
      "outputs": [],
      "stateMutability": "nonpayable",
      "type": "function"
    },
    {
      "inputs": [
        {
          "internalType": "uint256",
          "name": "newValue",
          "type": "uint256"
        }
      ],
      "name": "updateReinvestReward",
      "outputs": [],
      "stateMutability": "nonpayable",
      "type": "function"
    },
    {
      "inputs": [
        {
          "internalType": "uint256",
          "name": "amount",
          "type": "uint256"
        }
      ],
      "name": "withdraw",
      "outputs": [],
      "stateMutability": "nonpayable",
      "type": "function"
    }
  ],
  "bytecode": {
    "object": "0x60e0604052600960a0819052685969656c642059616b60b81b60c09081526200002c91600091906200167a565b506040805180820190915260038082526216549560ea1b602090920191825262000059916001916200167a565b503480156200006757600080fd5b50604051620057c6380380620057c68339810160408190526200008a9162001870565b88888888888688878787878787600001518860200151888888806000620000b66200024760201b60201c565b600680546001600160a01b0319166001600160a01b03831690811790915560405191925090600090600080516020620057a6833981519152908290a350805162000100906200024b565b60208101516200011090620002db565b6040810151620001209062000392565b508851620001369060009060208c01906200167a565b50600980546001600160a01b03808b166001600160a01b031992831617909255600a8054928a16928216929092179091556080839052600b8054909116732d580f9cf2fb2d09bc411532988f2afda4e7beff1790556200019887878762000449565b620001a38462000721565b620001af600162000903565b620001ba83620009ad565b60408051600080825260208201527fc7606d21ac05cd309191543e409f0845c016120563783d70e4f41419dc0ef234910160405180910390a15050505050505050506200020f84878762000aaa60201b60201c565b5050601880546001600160a01b0319166001600160a01b039b909b169a909a179099555062001a429c50505050505050505050505050565b3390565b6006546001600160a01b031633146200029a5760405162461bcd60e51b815260206004820181905260248201526000805160206200578683398151915260448201526064015b60405180910390fd5b600c5460408051918252602082018390527f481f79ac3a523b6d6db3c5a720e190e986d1cc1b41adcdf50f9caef849901100910160405180910390a1600c55565b6006546001600160a01b03163314620003265760405162461bcd60e51b8152602060048201819052602482015260008051602062005786833981519152604482015260640162000291565b61271062000345601054836200166560201b62001b371790919060201c565b11156200035157600080fd5b60115460408051918252602082018390527f2a42303d002f0ba6cfe8259c91d4684443fb0b3de286ba74991175d651726131910160405180910390a1601155565b6006546001600160a01b03163314620003dd5760405162461bcd60e51b8152602060048201819052602482015260008051602062005786833981519152604482015260640162000291565b612710620003fc601154836200166560201b62001b371790919060201c565b11156200040857600080fd5b60105460408051918252602082018390527fe7f97d51d307dc44045597c9978bec0f842e6bb40d19b9444084cfa30d9ed4f2910160405180910390a1601055565b826001600160a01b0316826001600160a01b031614620006f257806001600160a01b0316630dfe16816040518163ffffffff1660e01b8152600401602060405180830381865afa158015620004a2573d6000803e3d6000fd5b505050506040513d601f19601f82011682018060405250810190620004c89190620019c1565b6001600160a01b0316826001600160a01b031603620005c357826001600160a01b0316816001600160a01b031663d21220a76040518163ffffffff1660e01b8152600401602060405180830381865afa1580156200052a573d6000803e3d6000fd5b505050506040513d601f19601f82011682018060405250810190620005509190620019c1565b6001600160a01b031614620005bd5760405162461bcd60e51b815260206004820152603f60248201526000805160206200576683398151915260448201527f6f6573206e6f7420636f6e7461696e2065636f73797374656d20746f6b656e00606482015260840162000291565b620006f2565b806001600160a01b031663d21220a76040518163ffffffff1660e01b8152600401602060405180830381865afa15801562000602573d6000803e3d6000fd5b505050506040513d601f19601f82011682018060405250810190620006289190620019c1565b6001600160a01b0316826001600160a01b0316036200068a57826001600160a01b0316816001600160a01b0316630dfe16816040518163ffffffff1660e01b8152600401602060405180830381865afa1580156200052a573d6000803e3d6000fd5b60405162461bcd60e51b815260206004820152604160248201526000805160206200576683398151915260448201527f6f6573206e6f7420636f6e7461696e20706f6f6c2072657761726420746f6b656064820152603760f91b608482015260a40162000291565b601280546001600160a01b039384166001600160a01b0319918216179091556013805492909316911617905550565b6001600160a01b03811615620008e457600a5460408051630dfe168160e01b815290516001600160a01b0392831692841691630dfe16819160048083019260209291908290030181865afa1580156200077e573d6000803e3d6000fd5b505050506040513d601f19601f82011682018060405250810190620007a49190620019c1565b6001600160a01b0316036200083e57806001600160a01b031663d21220a76040518163ffffffff1660e01b8152600401602060405180830381865afa158015620007f2573d6000803e3d6000fd5b505050506040513d601f19601f82011682018060405250810190620008189190620019c1565b601580546001600160a01b0319166001600160a01b0392909216919091179055620008c4565b806001600160a01b0316630dfe16816040518163ffffffff1660e01b8152600401602060405180830381865afa1580156200087d573d6000803e3d6000fd5b505050506040513d601f19601f82011682018060405250810190620008a39190620019c1565b601580546001600160a01b0319166001600160a01b03929092169190911790555b601480546001600160a01b0383166001600160a01b031990911617905550565b601480546001600160a01b031990811690915560158054909116905550565b6006546001600160a01b031633146200094e5760405162461bcd60e51b8152602060048201819052602482015260008051602062005786833981519152604482015260640162000291565b600e5481151560ff9091161515036200096657600080fd5b600e805460ff19168215159081179091556040519081527f7b014ed3854e7f5cb0218d58b3c6ae7d53a68bb0af2f67bfb029ea42c38a7e859060200160405180910390a150565b6006546001600160a01b03163314620009f85760405162461bcd60e51b8152602060048201819052602482015260008051602062005786833981519152604482015260640162000291565b6001600160a01b03811662000a5f5760405162461bcd60e51b815260206004820152602660248201527f4f776e61626c653a206e6577206f776e657220697320746865207a65726f206160448201526564647265737360d01b606482015260840162000291565b6006546040516001600160a01b03808416921690600080516020620057a683398151915290600090a3600680546001600160a01b0319166001600160a01b0392909216919091179055565b600960009054906101000a90046001600160a01b03166001600160a01b0316630dfe16816040518163ffffffff1660e01b8152600401602060405180830381865afa15801562000afe573d6000803e3d6000fd5b505050506040513d601f19601f8201168201806040525081019062000b249190620019c1565b6001600160a01b0316826001600160a01b03161415801562000bd15750600960009054906101000a90046001600160a01b03166001600160a01b031663d21220a76040518163ffffffff1660e01b8152600401602060405180830381865afa15801562000b95573d6000803e3d6000fd5b505050506040513d601f19601f8201168201806040525081019062000bbb9190620019c1565b6001600160a01b0316826001600160a01b031614155b156200137c5760408301516001600160a01b031662000c455760405162461bcd60e51b815260206004820152602960248201527f5377617020706169722030206973206e656365737361727920627574206e6f74604482015268081cdd5c1c1b1a595960ba1b606482015260840162000291565b60608301516001600160a01b031662000cb35760405162461bcd60e51b815260206004820152602960248201527f5377617020706169722031206973206e656365737361727920627574206e6f74604482015268081cdd5c1c1b1a595960ba1b606482015260840162000291565b604080840151601680546001600160a01b039283166001600160a01b03199182168117909255606087015160178054918516919092161790558251630dfe168160e01b81529251918516929091630dfe1681916004808201926020929091908290030181865afa15801562000d2c573d6000803e3d6000fd5b505050506040513d601f19601f8201168201806040525081019062000d529190620019c1565b6001600160a01b0316148062000de057506016546040805163d21220a760e01b815290516001600160a01b0380861693169163d21220a79160048083019260209291908290030181865afa15801562000daf573d6000803e3d6000fd5b505050506040513d601f19601f8201168201806040525081019062000dd59190620019c1565b6001600160a01b0316145b62000e625760405162461bcd60e51b815260206004820152604560248201527f53776170207061697220737570706c69656420646f6573206e6f74206861766560448201527f207468652072657761726420746f6b656e206173206f6e65206f662069742773606482015264103830b4b960d91b608482015260a40162000291565b600960009054906101000a90046001600160a01b03166001600160a01b0316630dfe16816040518163ffffffff1660e01b8152600401602060405180830381865afa15801562000eb6573d6000803e3d6000fd5b505050506040513d601f19601f8201168201806040525081019062000edc9190620019c1565b6001600160a01b0316601660009054906101000a90046001600160a01b03166001600160a01b0316630dfe16816040518163ffffffff1660e01b8152600401602060405180830381865afa15801562000f39573d6000803e3d6000fd5b505050506040513d601f19601f8201168201806040525081019062000f5f9190620019c1565b6001600160a01b03161480620010785750600960009054906101000a90046001600160a01b03166001600160a01b0316630dfe16816040518163ffffffff1660e01b8152600401602060405180830381865afa15801562000fc4573d6000803e3d6000fd5b505050506040513d601f19601f8201168201806040525081019062000fea9190620019c1565b6001600160a01b0316601660009054906101000a90046001600160a01b03166001600160a01b031663d21220a76040518163ffffffff1660e01b8152600401602060405180830381865afa15801562001047573d6000803e3d6000fd5b505050506040513d601f19601f820116820180604052508101906200106d9190620019c1565b6001600160a01b0316145b620010ec5760405162461bcd60e51b815260206004820152603860248201527f537761702070616972203020737570706c69656420646f6573206e6f74206d6160448201527f74636820746865207061697220696e207175657374696f6e0000000000000000606482015260840162000291565b600960009054906101000a90046001600160a01b03166001600160a01b031663d21220a76040518163ffffffff1660e01b8152600401602060405180830381865afa15801562001140573d6000803e3d6000fd5b505050506040513d601f19601f82011682018060405250810190620011669190620019c1565b6001600160a01b0316601760009054906101000a90046001600160a01b03166001600160a01b0316630dfe16816040518163ffffffff1660e01b8152600401602060405180830381865afa158015620011c3573d6000803e3d6000fd5b505050506040513d601f19601f82011682018060405250810190620011e99190620019c1565b6001600160a01b03161480620013025750600960009054906101000a90046001600160a01b03166001600160a01b031663d21220a76040518163ffffffff1660e01b8152600401602060405180830381865afa1580156200124e573d6000803e3d6000fd5b505050506040513d601f19601f82011682018060405250810190620012749190620019c1565b6001600160a01b0316601760009054906101000a90046001600160a01b03166001600160a01b031663d21220a76040518163ffffffff1660e01b8152600401602060405180830381865afa158015620012d1573d6000803e3d6000fd5b505050506040513d601f19601f82011682018060405250810190620012f79190620019c1565b6001600160a01b0316145b620013765760405162461bcd60e51b815260206004820152603860248201527f537761702070616972203120737570706c69656420646f6573206e6f74206d6160448201527f74636820746865207061697220696e207175657374696f6e0000000000000000606482015260840162000291565b620014ed565b600960009054906101000a90046001600160a01b03166001600160a01b0316630dfe16816040518163ffffffff1660e01b8152600401602060405180830381865afa158015620013d0573d6000803e3d6000fd5b505050506040513d601f19601f82011682018060405250810190620013f69190620019c1565b6001600160a01b0316826001600160a01b0316036200143757600954601780546001600160a01b0319166001600160a01b03909216919091179055620014ed565b600960009054906101000a90046001600160a01b03166001600160a01b031663d21220a76040518163ffffffff1660e01b8152600401602060405180830381865afa1580156200148b573d6000803e3d6000fd5b505050506040513d601f19601f82011682018060405250810190620014b19190620019c1565b6001600160a01b0316826001600160a01b031603620014ed57600954601680546001600160a01b0319166001600160a01b039092169190911790555b82600001516001600160a01b0316630dfe16816040518163ffffffff1660e01b8152600401602060405180830381865afa15801562001530573d6000803e3d6000fd5b505050506040513d601f19601f82011682018060405250810190620015569190620019c1565b6001600160a01b0316816001600160a01b0316036200166057816001600160a01b031683600001516001600160a01b031663d21220a76040518163ffffffff1660e01b8152600401602060405180830381865afa158015620015bc573d6000803e3d6000fd5b505050506040513d601f19601f82011682018060405250810190620015e29190620019c1565b6001600160a01b031614620016605760405162461bcd60e51b815260206004820152603a60248201527f537761702070616972207377617050616972506f6f6c52657761726420646f6560448201527f73206e6f7420636f6e7461696e2072657761726420746f6b656e000000000000606482015260840162000291565b505050565b6000620016738284620019df565b9392505050565b828054620016889062001a06565b90600052602060002090601f016020900481019282620016ac5760008555620016f7565b82601f10620016c757805160ff1916838001178555620016f7565b82800160010185558215620016f7579182015b82811115620016f7578251825591602001919060010190620016da565b506200170592915062001709565b5090565b5b808211156200170557600081556001016200170a565b634e487b7160e01b600052604160045260246000fd5b604051601f8201601f191681016001600160401b038111828210171562001761576200176162001720565b604052919050565b80516001600160a01b03811681146200178157600080fd5b919050565b6000608082840312156200179957600080fd5b604051608081016001600160401b0381118282101715620017be57620017be62001720565b604052905080620017cf8362001769565b8152620017df6020840162001769565b6020820152620017f26040840162001769565b6040820152620018056060840162001769565b60608201525092915050565b6000606082840312156200182457600080fd5b604051606081016001600160401b038111828210171562001849576200184962001720565b80604052508091508251815260208301516020820152604083015160408201525092915050565b60008060008060008060008060006101c08a8c0312156200189057600080fd5b89516001600160401b0380821115620018a857600080fd5b818c0191508c601f830112620018bd57600080fd5b815181811115620018d257620018d262001720565b60209150620018ea601f8201601f1916830162001736565b8181528e83838601011115620018ff57600080fd5b60005b828110156200191f57848101840151828201850152830162001902565b82811115620019315760008484840101525b509b506200194390508c820162001769565b995050506200195560408b0162001769565b96506200196560608b0162001769565b9550620019768b60808c0162001786565b9450620019876101008b0162001769565b93506101208a01519250620019a06101408b0162001769565b9150620019b28b6101608c0162001811565b90509295985092959850929598565b600060208284031215620019d457600080fd5b620016738262001769565b6000821982111562001a0157634e487b7160e01b600052601160045260246000fd5b500190565b600181811c9082168062001a1b57607f821691505b60208210810362001a3c57634e487b7160e01b600052602260045260246000fd5b50919050565b608051613cde62001a886000396000818161055b01528181610edf015281816114d201528181611dd9015281816125220152818161285c0152612af50152613cde6000f3fe608060405234801561001057600080fd5b50600436106103995760003560e01c80638aff733d116101e9578063bd079f551161010f578063dd62ed3e116100ad578063ed24911d1161007c578063ed24911d14610816578063f2fde38b1461081e578063f7c618c114610831578063fdb5a03e1461084457600080fd5b8063dd62ed3e146107a4578063dd8ce4d6146107dd578063e21ac825146107f0578063eab89a5a1461080357600080fd5b8063ca796304116100e9578063ca79630414610758578063cff1b6ef1461076b578063d505accf1461077e578063da09c72c1461079157600080fd5b8063bd079f5514610734578063c4b24a461461073d578063c89039c51461074557600080fd5b80639e4e731811610187578063ac0d31ff11610156578063ac0d31ff146106f9578063b52a321f1461070c578063b6b55f2514610719578063b9e57b801461072c57600080fd5b80639e4e731814610699578063a1a4ddeb146106c0578063a8ae2b7c146106d3578063a9059cbb146106e657600080fd5b8063909ac8f4116101c3578063909ac8f4146106585780639291d5631461066b57806395d89b411461067e57806399729ec11461068657600080fd5b80638aff733d1461062b5780638b73e606146106345780638da5cb5b1461064757600080fd5b80634bebd1e7116102ce578063715018a61161026c5780637ecebe001161023b5780637ecebe00146105d257806381837230146105f25780638432e894146106055780638980f11f1461061857600080fd5b8063715018a6146105a6578063789139bc146105ae5780637ae26773146105b75780637d882097146105ca57600080fd5b80635e5eee1b116102a85780635e5eee1b146105225780635ea682ea1461054d5780635eaec0e41461055657806370a082311461057d57600080fd5b80634bebd1e7146104e95780634e77ace5146104fc5780634ebb79161461050f57600080fd5b80632e1a7d4d1161033b578063313ce56711610315578063313ce567146104905780633bdc6e72146104aa578063483c2ef0146104b35780634a970be7146104d657600080fd5b80632e1a7d4d146104415780632f4f21e21461045657806330adf81f1461046957600080fd5b80630f23475d116103775780630f23475d146103f657806318160ddd146103fe57806320606b701461040757806323b872dd1461042e57600080fd5b806306fdde031461039e57806307677111146103bc578063095ea7b3146103d3575b600080fd5b6103a661084c565b6040516103b39190613704565b60405180910390f35b6103c5600f5481565b6040519081526020016103b3565b6103e66103e136600461372c565b6108da565b60405190151581526020016103b3565b6103c56108f1565b6103c560025481565b6103c57f8b73c3c69bb8fe3d512ecc4cf759cc79239f7b179b0ffacaa9a75d522b39400f81565b6103e661043c366004613758565b61092c565b61045461044f366004613799565b610a10565b005b61045461046436600461372c565b610af2565b6103c57f6e71edae12b1b97f4d1f60370fef10105fa2faae0126114a169c64845d6126c981565b610498601281565b60405160ff90911681526020016103b3565b6103c560075481565b6103e66104c13660046137b2565b60086020526000908152604090205460ff1681565b6104546104e43660046137e5565b610b00565b6104546104f73660046137b2565b610b99565b61045461050a36600461383a565b610c98565b61045461051d366004613799565b610d21565b601954610535906001600160a01b031681565b6040516001600160a01b0390911681526020016103b3565b6103c560115481565b6103c57f000000000000000000000000000000000000000000000000000000000000000081565b6103c561058b3660046137b2565b6001600160a01b031660009081526004602052604090205490565b610454610dbd565b6103c5600d5481565b6104546105c5366004613857565b610e31565b6103c5610ed7565b6103c56105e03660046137b2565b60056020526000908152604090205481565b610454610600366004613799565b610f04565b6104546106133660046137b2565b610f6f565b61045461062636600461372c565b610fcc565b6103c560105481565b6104546106423660046137b2565b6110c3565b6006546001600160a01b0316610535565b601454610535906001600160a01b031681565b6104546106793660046137b2565b611244565b6103a66112fe565b610454610694366004613799565b61130b565b6103c57fc89efdaa54c0f20c7adf612882df0950f5a951637e0307cdcb4c672f298b8bc681565b601554610535906001600160a01b031681565b6104546106e1366004613799565b611399565b6103e66106f436600461372c565b611427565b610454610707366004613890565b611434565b600e546103e69060ff1681565b610454610727366004613799565b611642565b6103c561164c565b6103c5600c5481565b6103c561168b565b600954610535906001600160a01b031681565b601854610535906001600160a01b031681565b610454610779366004613799565b61169f565b61045461078c3660046138b5565b611715565b600b54610535906001600160a01b031681565b6103c56107b2366004613857565b6001600160a01b03918216600090815260036020908152604080832093909416825291909152205490565b6103c56107eb366004613799565b61181a565b6104546107fe366004613799565b611854565b6103c5610811366004613799565b6118bf565b6103c56118f3565b61045461082c3660046137b2565b611993565b600a54610535906001600160a01b031681565b610454611a7e565b6000805461085990613923565b80601f016020809104026020016040519081016040528092919081815260200182805461088590613923565b80156108d25780601f106108a7576101008083540402835291602001916108d2565b820191906000526020600020905b8154815290600101906020018083116108b557829003601f168201915b505050505081565b60006108e7338484611b43565b5060015b92915050565b6000806108fc610ed7565b90506000806109186127105b6109128585611c51565b90611c5d565b90506109248382611c69565b935050505090565b6001600160a01b03831660008181526003602090815260408083203380855292528220549192909190821480159061096657506000198114155b156109f7576000610992856040518060600160405280602f8152602001613c25602f9139849190611c75565b6001600160a01b038881166000818152600360209081526040808320948916808452948252918290208590559051848152939450919290917f8c5be1e5ebec7d5bd14f71427d1e84f3dd0314c0f7b2291e5b200ac8c7c3b925910160405180910390a3505b610a02868686611ca1565b6001925050505b9392505050565b6000610a1b826118bf565b905060008111610a725760405162461bcd60e51b815260206004820152601e60248201527f4d617374657243686566537472617465677956313a3a7769746864726177000060448201526064015b60405180910390fd5b610a7b81611dd4565b600080610a89612710610908565b600954909150610aac906001600160a01b031633610aa78685611c69565b611dfe565b610ab63385611ed5565b60405183815233907f884edad9ce6fa2440d8a54cc123490eb96d2768479d49ff9c7366125a9424364906020015b60405180910390a250505050565b610afc8282611fab565b5050565b60095460405163d505accf60e01b8152336004820152306024820152604481018790526064810186905260ff8516608482015260a4810184905260c481018390526001600160a01b039091169063d505accf9060e401600060405180830381600087803b158015610b7057600080fd5b505af1158015610b84573d6000803e3d6000fd5b50505050610b923386611fab565b5050505050565b6006546001600160a01b03163314610bc35760405162461bcd60e51b8152600401610a699061395d565b6001600160a01b03811660009081526008602052604090205460ff1615610c2c5760405162461bcd60e51b815260206004820152601c60248201527f5065726d697373696f6e65643a3a616c6c6f774465706f7369746f72000000006044820152606401610a69565b6001600160a01b0381166000908152600860205260409020805460ff19166001908117909155600754610c5e91611b37565b6007556040516001600160a01b038216907fc0a1035c16faf8d1304056d92c00edf028f87e62b8235a938f00af9e3c0312c590600090a250565b6006546001600160a01b03163314610cc25760405162461bcd60e51b8152600401610a699061395d565b600e5481151560ff909116151503610cd957600080fd5b600e805460ff19168215159081179091556040519081527f7b014ed3854e7f5cb0218d58b3c6ae7d53a68bb0af2f67bfb029ea42c38a7e85906020015b60405180910390a150565b6006546001600160a01b03163314610d4b5760405162461bcd60e51b8152600401610a699061395d565b60008111610d5857600080fd5b604051339082156108fc029083906000818181858888f19350505050158015610d85573d6000803e3d6000fd5b506040805160008152602081018390527f8c1256b8896378cd5044f80c202f9772b9d77dc85c8a6eb51967210b09bfaa289101610d16565b6006546001600160a01b03163314610de75760405162461bcd60e51b8152600401610a699061395d565b6006546040516000916001600160a01b0316907f8be0079c531659141344cd1fd0a4f28419497f9722a3daafe3b4186f6b6457e0908390a3600680546001600160a01b0319169055565b6006546001600160a01b03163314610e5b5760405162461bcd60e51b8152600401610a699061395d565b60405163095ea7b360e01b81526001600160a01b0382811660048301526000602483015283169063095ea7b3906044016020604051808303816000875af1158015610eaa573d6000803e3d6000fd5b505050506040513d601f19601f82011682018060405250810190610ece9190613992565b610afc57600080fd5b6000806108eb7f000000000000000000000000000000000000000000000000000000000000000030612179565b6006546001600160a01b03163314610f2e5760405162461bcd60e51b8152600401610a699061395d565b600c5460408051918252602082018390527f481f79ac3a523b6d6db3c5a720e190e986d1cc1b41adcdf50f9caef849901100910160405180910390a1600c55565b600b546001600160a01b03163314610fc05760405162461bcd60e51b81526020600482015260146024820152732cb0b5a9ba3930ba32b3bc9d1d37b7363ca232bb60611b6044820152606401610a69565b610fc9816121f6565b50565b6006546001600160a01b03163314610ff65760405162461bcd60e51b8152600401610a699061395d565b6000811161100357600080fd5b60405163a9059cbb60e01b8152336004820152602481018290526001600160a01b0383169063a9059cbb906044016020604051808303816000875af1158015611050573d6000803e3d6000fd5b505050506040513d601f19601f820116820180604052508101906110749190613992565b61107d57600080fd5b604080516001600160a01b0384168152602081018390527f8c1256b8896378cd5044f80c202f9772b9d77dc85c8a6eb51967210b09bfaa28910160405180910390a15050565b6006546001600160a01b031633146110ed5760405162461bcd60e51b8152600401610a699061395d565b60006007541161115c5760405162461bcd60e51b815260206004820152603460248201527f5065726d697373696f6e65643a3a72656d6f76654465706f7369746f722c206e6044820152736f20616c6c6f776564206465706f7369746f727360601b6064820152608401610a69565b6001600160a01b03811660009081526008602052604090205460ff1615156001146111dc5760405162461bcd60e51b815260206004820152602a60248201527f5065726d697373696f6e65643a3a72656d6f76654465706f7369746f722c206e6044820152691bdd08185b1b1bddd95960b21b6064820152608401610a69565b6001600160a01b0381166000908152600860205260409020805460ff1916905560075461120a906001611c69565b6007556040516001600160a01b038216907f0e86f6608b536e5339a25b65ff531f5ea91e1313d056ecd4752b35cbd16137d490600090a250565b600b546001600160a01b031633146112955760405162461bcd60e51b81526020600482015260146024820152732cb0b5a9ba3930ba32b3bc9d1d37b7363ca232bb60611b6044820152606401610a69565b600b54604080516001600160a01b03928316815291831660208301527fa8e91499ed37682f43cffb045fcc7d379a91e8c9a14e6321877ee34dee564c00910160405180910390a1600b80546001600160a01b0319166001600160a01b0392909216919091179055565b6001805461085990613923565b6006546001600160a01b031633146113355760405162461bcd60e51b8152600401610a699061395d565b61271061134d60105483611b3790919063ffffffff16565b111561135857600080fd5b60115460408051918252602082018390527f2a42303d002f0ba6cfe8259c91d4684443fb0b3de286ba74991175d651726131910160405180910390a1601155565b6006546001600160a01b031633146113c35760405162461bcd60e51b8152600401610a699061395d565b6127106113db60115483611b3790919063ffffffff16565b11156113e657600080fd5b60105460408051918252602082018390527fe7f97d51d307dc44045597c9978bec0f842e6bb40d19b9444084cfa30d9ed4f2910160405180910390a1601055565b60006108e7338484611ca1565b6006546001600160a01b0316331461145e5760405162461bcd60e51b8152600401610a699061395d565b6009546040516370a0823160e01b81523060048201526000916001600160a01b0316906370a0823190602401602060405180830381865afa1580156114a7573d6000803e3d6000fd5b505050506040513d601f19601f820116820180604052508101906114cb91906139af565b90506114f67f00000000000000000000000000000000000000000000000000000000000000006123cc565b6009546040516370a0823160e01b81523060048201526000916001600160a01b0316906370a0823190602401602060405180830381865afa15801561153f573d6000803e3d6000fd5b505050506040513d601f19601f8201168201806040525081019061156391906139af565b9050836115708284611c69565b10156115d05760405162461bcd60e51b815260206004820152602960248201527f4d617374657243686566537472617465677956313a3a7265736375654465706c6044820152686f79656446756e647360b81b6064820152608401610a69565b7fc7606d21ac05cd309191543e409f0845c016120563783d70e4f41419dc0ef2346115f9610ed7565b6002546040805192835260208301919091520160405180910390a1600e5460ff161515600114801561162d57506001831515145b1561163c5761163c6000610c98565b50505050565b610fc93382611fab565b60008061165761168b565b9050600c5481106116835761167d61271061091260105484611c5190919063ffffffff16565b91505090565b600091505090565b6000806116966124a1565b95945050505050565b6006546001600160a01b031633146116c95760405162461bcd60e51b8152600401610a699061395d565b80156116d457600080fd5b600f5460408051918252602082018390527f3cc372f330f95ac9540626dc8a25f5bf21ba607215a5d58304cb804d446f104a910160405180910390a1600f55565b428410156117575760405162461bcd60e51b815260206004820152600f60248201526e1c195c9b5a5d0e8e995e1c1a5c9959608a1b6044820152606401610a69565b6001600160a01b038716600090815260056020526040812080547f6e71edae12b1b97f4d1f60370fef10105fa2faae0126114a169c64845d6126c9918a918a918a9190866117a4836139de565b909155506040805160208101969096526001600160a01b0394851690860152929091166060840152608083015260a082015260c0810186905260e001604051602081830303815290604052805190602001209050611805888286868661272b565b611810888888611b43565b5050505050505050565b6000611830611827610ed7565b60025490611c51565b60000361183b575090565b6108eb611846610ed7565b600254610912908590611c51565b6006546001600160a01b0316331461187e5760405162461bcd60e51b8152600401610a699061395d565b600d5460408051918252602082018390527fa5dae50539d56dfe1fb5273d883b0c39bc76750a25d036fc5fbd09ad8fd5f57f910160405180910390a1600d55565b60006118cc611827610ed7565b6000036118db57506000919050565b6108eb6002546109126118ec610ed7565b8590611c51565b60007f8b73c3c69bb8fe3d512ecc4cf759cc79239f7b179b0ffacaa9a75d522b39400f60001b600060405161192891906139f7565b6040519081900390207fc89efdaa54c0f20c7adf612882df0950f5a951637e0307cdcb4c672f298b8bc646604080516020810195909552840192909252606083015260808201523060a082015260c00160405160208183030381529060405280519060200120905090565b6006546001600160a01b031633146119bd5760405162461bcd60e51b8152600401610a699061395d565b6001600160a01b038116611a225760405162461bcd60e51b815260206004820152602660248201527f4f776e61626c653a206e6577206f776e657220697320746865207a65726f206160448201526564647265737360d01b6064820152608401610a69565b6006546040516001600160a01b038084169216907f8be0079c531659141344cd1fd0a4f28419497f9722a3daafe3b4186f6b6457e090600090a3600680546001600160a01b0319166001600160a01b0392909216919091179055565b323314611ac45760405162461bcd60e51b815260206004820152601460248201527359616b53747261746567793a3a6f6e6c79454f4160601b6044820152606401610a69565b600080600080611ad26124a1565b9350935093509350600c54811015611b2c5760405162461bcd60e51b815260206004820152601e60248201527f4d617374657243686566537472617465677956313a3a7265696e7665737400006044820152606401610a69565b61163c828585612857565b6000610a098284613a92565b6001600160a01b038316611b995760405162461bcd60e51b815260206004820152601c60248201527f5f617070726f76653a3a6f776e6572207a65726f2061646472657373000000006044820152606401610a69565b6001600160a01b038216611bef5760405162461bcd60e51b815260206004820152601e60248201527f5f617070726f76653a3a7370656e646572207a65726f206164647265737300006044820152606401610a69565b6001600160a01b0383811660008181526003602090815260408083209487168084529482529182902085905590518481527f8c5be1e5ebec7d5bd14f71427d1e84f3dd0314c0f7b2291e5b200ac8c7c3b92591015b60405180910390a3505050565b6000610a098284613aaa565b6000610a098284613ac9565b6000610a098284613aeb565b60008184841115611c995760405162461bcd60e51b8152600401610a699190613704565b505050900390565b6001600160a01b038216611d145760405162461bcd60e51b815260206004820152603460248201527f5f7472616e73666572546f6b656e733a2063616e6e6f74207472616e7366657260448201527320746f20746865207a65726f206164647265737360601b6064820152608401610a69565b611d51816040518060600160405280602e8152602001613c7b602e91396001600160a01b0386166000908152600460205260409020549190611c75565b6001600160a01b038085166000908152600460205260408082209390935590841681522054611d809082611b37565b6001600160a01b0380841660008181526004602052604090819020939093559151908516907fddf252ad1be2c89b69c2b068fc378daa952ba7f163c4a11628f55a4df523b3ef90611c449085815260200190565b610fc97f0000000000000000000000000000000000000000000000000000000000000000826129a0565b60405163a9059cbb60e01b81526001600160a01b0383811660048301526024820183905284169063a9059cbb906044016020604051808303816000875af1158015611e4d573d6000803e3d6000fd5b505050506040513d601f19601f82011682018060405250810190611e719190613992565b611ed05760405162461bcd60e51b815260206004820152602a60248201527f4d617374657243686566537472617465677956313a3a5452414e534645525f466044820152691493d357d1905253115160b21b6064820152608401610a69565b505050565b611f1281604051806060016040528060278152602001613c54602791396001600160a01b0385166000908152600460205260409020549190611c75565b60046000846001600160a01b03166001600160a01b0316815260200190815260200160002081905550611f6281604051806060016040528060278152602001613bfe602791396002549190611c75565b6002556040518181526000906001600160a01b038416907fddf252ad1be2c89b69c2b068fc378daa952ba7f163c4a11628f55a4df523b3ef906020015b60405180910390a35050565b600e5460ff1615156001146120025760405162461bcd60e51b815260206004820152601e60248201527f4d617374657243686566537472617465677956313a3a5f6465706f73697400006044820152606401610a69565b600d541561203a576000806000806120186124a1565b9350935093509350600d5481111561203557612035828585612857565b505050505b6009546040516323b872dd60e01b8152336004820152306024820152604481018390526001600160a01b03909116906323b872dd906064016020604051808303816000875af1158015612091573d6000803e3d6000fd5b505050506040513d601f19601f820116820180604052508101906120b59190613992565b61210f5760405162461bcd60e51b815260206004820152602560248201527f4d617374657243686566537472617465677956313a3a7472616e736665722066604482015264185a5b195960da1b6064820152608401610a69565b60008061211d612710610908565b9050612135846121306107eb8685611c69565b612a0a565b61213e83612a8e565b836001600160a01b03167fe1fffcc4923d04b559f4d29a8bfc6cda04eb5b0d3c460751c2402c5c5cc9109c84604051610ae491815260200190565b6018546040516393f1a40b60e01b8152600481018490526001600160a01b03838116602483015260009216906393f1a40b906044016040805180830381865afa1580156121ca573d6000803e3d6000fd5b505050506040513d601f19601f820116820180604052508101906121ee9190613b02565b509392505050565b6001600160a01b038116156123ad57600a5460408051630dfe168160e01b815290516001600160a01b0392831692841691630dfe16819160048083019260209291908290030181865afa158015612251573d6000803e3d6000fd5b505050506040513d601f19601f820116820180604052508101906122759190613b26565b6001600160a01b03160361230a57806001600160a01b031663d21220a76040518163ffffffff1660e01b8152600401602060405180830381865afa1580156122c1573d6000803e3d6000fd5b505050506040513d601f19601f820116820180604052508101906122e59190613b26565b601580546001600160a01b0319166001600160a01b039290921691909117905561238d565b806001600160a01b0316630dfe16816040518163ffffffff1660e01b8152600401602060405180830381865afa158015612348573d6000803e3d6000fd5b505050506040513d601f19601f8201168201806040525081019061236c9190613b26565b601580546001600160a01b0319166001600160a01b03929092169190911790555b601480546001600160a01b0383166001600160a01b031990911617905550565b601480546001600160a01b031990811690915560158054909116905550565b60095460185460405163095ea7b360e01b81526001600160a01b0391821660048201526000602482015291169063095ea7b3906044016020604051808303816000875af1158015612421573d6000803e3d6000fd5b505050506040513d601f19601f820116820180604052508101906124459190613992565b50601854604051632989754760e11b8152600481018390526001600160a01b0390911690635312ea8e906024015b600060405180830381600087803b15801561248d57600080fd5b505af1158015610b92573d6000803e3d6000fd5b6012546040516370a0823160e01b815230600482015260009182918291829182916001600160a01b0316906370a0823190602401602060405180830381865afa1580156124f2573d6000803e3d6000fd5b505050506040513d601f19601f8201168201806040525081019061251691906139af565b905060008060006125477f000000000000000000000000000000000000000000000000000000000000000030612b1a565b91945092509050600061255a8585611b37565b600a546012549192506000916001600160a01b0391821691160361257e57846125a3565b601254600a546013546125a39285926001600160a01b03918216929082169116612ba5565b905060006001600160a01b0384161561268e5773b31f66aa3c1e785363f0875a1b74e27b85fd66c6196001600160a01b038516016125e257508361268e565b6014546001600160a01b03161561268e576015546040516370a0823160e01b8152306004820152612668916001600160a01b0316906370a0823190602401602060405180830381865afa15801561263d573d6000803e3d6000fd5b505050506040513d601f19601f8201168201806040525081019061266191906139af565b8690611b37565b600a5460145491965061268b91879187916001600160a01b039182169116612ba5565b90505b600a546040516370a0823160e01b81523060048201526000916127079184916001600160a01b0316906370a0823190602401602060405180830381865afa1580156126dd573d6000803e3d6000fd5b505050506040513d601f19601f8201168201806040525081019061270191906139af565b90611b37565b905060006127158285611b37565b949d969c50909a50929850939650505050505050565b60006127356118f3565b60405161190160f01b602082015260228101919091526042810186905260620160408051601f198184030181528282528051602091820120600080855291840180845281905260ff88169284019290925260608301869052608083018590529092509060019060a0016020604051602081039080840390855afa1580156127c0573d6000803e3d6000fd5b5050604051601f1901519150506001600160a01b038116158015906127f65750866001600160a01b0316816001600160a01b0316145b61284e5760405162461bcd60e51b8152602060048201526024808201527f417263683a3a76616c69646174655369673a20696e76616c6964207369676e616044820152637475726560e01b6064820152608401610a69565b50505050505050565b6128807f0000000000000000000000000000000000000000000000000000000000000000612c63565b600061289561288e84612c9b565b8590611b37565b90506128ab6128a48584612cdf565b8290611b37565b5060006128c961271061091260115485611c5190919063ffffffff16565b905080156128ee57600a54600b546128ee916001600160a01b03908116911683611dfe565b600061290b61271061091260105486611c5190919063ffffffff16565b9050801561292a57600a5461292a906001600160a01b03163383611dfe565b60006129486129438361293d8787611c69565b90611c69565b612e1e565b905061295381612a8e565b7fc7606d21ac05cd309191543e409f0845c016120563783d70e4f41419dc0ef23461297c610ed7565b6002546040805192835260208301919091520160405180910390a150505050505050565b601854604051630441a3e760e41b815260048101849052602481018390526001600160a01b039091169063441a3e70906044015b600060405180830381600087803b1580156129ee57600080fd5b505af1158015612a02573d6000803e3d6000fd5b505050505050565b600254612a179082611b37565b6002556001600160a01b038216600090815260046020526040902054612a3d9082611b37565b6001600160a01b0383166000818152600460205260408082209390935591519091907fddf252ad1be2c89b69c2b068fc378daa952ba7f163c4a11628f55a4df523b3ef90611f9f9085815260200190565b60008111612af05760405162461bcd60e51b815260206004820152602960248201527f4d617374657243686566537472617465677956313a3a5f7374616b654465706f604482015268736974546f6b656e7360b81b6064820152608401610a69565b610fc97f000000000000000000000000000000000000000000000000000000000000000082612e4d565b601854604051631175a1dd60e01b8152600481018490526001600160a01b0383811660248301526000928392839283921690631175a1dd90604401602060405180830381865afa158015612b72573d6000803e3d6000fd5b505050506040513d601f19601f82011682018060405250810190612b9691906139af565b96600096508695509350505050565b600080612bb28585612eff565b509050600080846001600160a01b0316630902f1ac6040518163ffffffff1660e01b8152600401606060405180830381865afa158015612bf6573d6000803e3d6000fd5b505050506040513d601f19601f82011682018060405250810190612c1a9190613b5a565b5091509150866001600160a01b0316836001600160a01b031614612c3a57905b612c5788836001600160701b0316836001600160701b0316612f30565b98975050505050505050565b601854604051631c57762b60e31b815260048101839052600060248201526001600160a01b039091169063e2bbb15890604401612473565b601254600a546000916001600160a01b03908116911603612cba575090565b601254600a546013546108eb9285926001600160a01b03918216929082169116612f78565b60008115612e15576014546001600160a01b031615612d2457601554600a54601454612d1d9285926001600160a01b03918216929082169116612f78565b90506108eb565b478015612d945773b31f66aa3c1e785363f0875a1b74e27b85fd66c76001600160a01b031663d0e30db0826040518263ffffffff1660e01b81526004016000604051808303818588803b158015612d7a57600080fd5b505af1158015612d8e573d6000803e3d6000fd5b50505050505b6040516370a0823160e01b8152306004820152612e0d90859073b31f66aa3c1e785363f0875a1b74e27b85fd66c7906370a0823190602401602060405180830381865afa158015612de9573d6000803e3d6000fd5b505050506040513d601f19601f8201168201806040525081019061293d91906139af565b9150506108eb565b50600092915050565b600a546009546016546017546000936108eb9386936001600160a01b03928316939183169290811691166130ec565b60095460185460405163095ea7b360e01b81526001600160a01b0391821660048201526024810184905291169063095ea7b3906044016020604051808303816000875af1158015612ea2573d6000803e3d6000fd5b505050506040513d601f19601f82011682018060405250810190612ec69190613992565b50601854604051631c57762b60e31b815260048101849052602481018390526001600160a01b039091169063e2bbb158906044016129d4565b600080826001600160a01b0316846001600160a01b031610612f22578284612f25565b83835b915091509250929050565b600080612f3f856103e5611c51565b90506000612f4d8285611c51565b90506000612f6183612701886103e8611c51565b9050612f6d8282611c5d565b979650505050505050565b600080612f858585612eff565b509050600080846001600160a01b0316630902f1ac6040518163ffffffff1660e01b8152600401606060405180830381865afa158015612fc9573d6000803e3d6000fd5b505050506040513d601f19601f82011682018060405250810190612fed9190613b5a565b5091509150866001600160a01b0316836001600160a01b03161461300d57905b60008061302d8a856001600160701b0316856001600160701b0316612f30565b9050886001600160a01b0316856001600160a01b03161461304a57905b61305e6001600160a01b038a16888c613290565b6040805160008152602081019182905263022c0d9f60e01b9091526001600160a01b0388169063022c0d9f9061309d9085908590309060248101613baa565b600060405180830381600087803b1580156130b757600080fd5b505af11580156130cb573d6000803e3d6000fd5b505050508181116130dc57816130de565b805b9a9950505050505050505050565b6000806130fa876002611c5d565b9050600081116131645760405162461bcd60e51b815260206004820152602f60248201527f4465784c6962726172793a3a5f636f6e76657274526577617264546f6b656e7360448201526e546f4465706f736974546f6b656e7360881b6064820152608401610a69565b6000856001600160a01b0316630dfe16816040518163ffffffff1660e01b8152600401602060405180830381865afa1580156131a4573d6000803e3d6000fd5b505050506040513d601f19601f820116820180604052508101906131c89190613b26565b9050816001600160a01b03888116908316146131ed576131ea83898489612f78565b90505b6000876001600160a01b031663d21220a76040518163ffffffff1660e01b8152600401602060405180830381865afa15801561322d573d6000803e3d6000fd5b505050506040513d601f19601f820116820180604052508101906132519190613b26565b9050836001600160a01b038a81169083161461327657613273858b848a612f78565b90505b6132818984836132e2565b9b9a5050505050505050505050565b604080516001600160a01b038416602482015260448082018490528251808303909101815260649091019091526020810180516001600160e01b031663a9059cbb60e01b179052611ed09084906134be565b6000806000856001600160a01b0316630902f1ac6040518163ffffffff1660e01b8152600401606060405180830381865afa158015613325573d6000803e3d6000fd5b505050506040513d601f19601f820116820180604052508101906133499190613b5a565b5091509150600061336d86846001600160701b0316846001600160701b0316613590565b90508481111561339a5784905061339785836001600160701b0316856001600160701b0316613590565b95505b6134118787896001600160a01b0316630dfe16816040518163ffffffff1660e01b8152600401602060405180830381865afa1580156133dd573d6000803e3d6000fd5b505050506040513d601f19601f820116820180604052508101906134019190613b26565b6001600160a01b03169190613290565b6134548782896001600160a01b031663d21220a76040518163ffffffff1660e01b8152600401602060405180830381865afa1580156133dd573d6000803e3d6000fd5b6040516335313c2160e11b81523060048201526001600160a01b03881690636a627842906024016020604051808303816000875af115801561349a573d6000803e3d6000fd5b505050506040513d601f19601f82011682018060405250810190612f6d91906139af565b6000613513826040518060400160405280602081526020017f5361666545524332303a206c6f772d6c6576656c2063616c6c206661696c6564815250856001600160a01b03166135a89092919063ffffffff16565b805190915015611ed057808060200190518101906135319190613992565b611ed05760405162461bcd60e51b815260206004820152602a60248201527f5361666545524332303a204552433230206f7065726174696f6e20646964206e6044820152691bdd081cdd58d8d9595960b21b6064820152608401610a69565b60006135a0836109128685611c51565b949350505050565b60606135a08484600085856001600160a01b0385163b61360a5760405162461bcd60e51b815260206004820152601d60248201527f416464726573733a2063616c6c20746f206e6f6e2d636f6e74726163740000006044820152606401610a69565b600080866001600160a01b031685876040516136269190613be1565b60006040518083038185875af1925050503d8060008114613663576040519150601f19603f3d011682016040523d82523d6000602084013e613668565b606091505b5091509150612f6d82828660608315613682575081610a09565b8251156136925782518084602001fd5b8160405162461bcd60e51b8152600401610a699190613704565b60005b838110156136c75781810151838201526020016136af565b8381111561163c5750506000910152565b600081518084526136f08160208601602086016136ac565b601f01601f19169290920160200192915050565b602081526000610a0960208301846136d8565b6001600160a01b0381168114610fc957600080fd5b6000806040838503121561373f57600080fd5b823561374a81613717565b946020939093013593505050565b60008060006060848603121561376d57600080fd5b833561377881613717565b9250602084013561378881613717565b929592945050506040919091013590565b6000602082840312156137ab57600080fd5b5035919050565b6000602082840312156137c457600080fd5b8135610a0981613717565b803560ff811681146137e057600080fd5b919050565b600080600080600060a086880312156137fd57600080fd5b8535945060208601359350613814604087016137cf565b94979396509394606081013594506080013592915050565b8015158114610fc957600080fd5b60006020828403121561384c57600080fd5b8135610a098161382c565b6000806040838503121561386a57600080fd5b823561387581613717565b9150602083013561388581613717565b809150509250929050565b600080604083850312156138a357600080fd5b8235915060208301356138858161382c565b600080600080600080600060e0888a0312156138d057600080fd5b87356138db81613717565b965060208801356138eb81613717565b95506040880135945060608801359350613907608089016137cf565b925060a0880135915060c0880135905092959891949750929550565b600181811c9082168061393757607f821691505b60208210810361395757634e487b7160e01b600052602260045260246000fd5b50919050565b6020808252818101527f4f776e61626c653a2063616c6c6572206973206e6f7420746865206f776e6572604082015260600190565b6000602082840312156139a457600080fd5b8151610a098161382c565b6000602082840312156139c157600080fd5b5051919050565b634e487b7160e01b600052601160045260246000fd5b6000600182016139f0576139f06139c8565b5060010190565b600080835481600182811c915080831680613a1357607f831692505b60208084108203613a3257634e487b7160e01b86526022600452602486fd5b818015613a465760018114613a5757613a84565b60ff19861689528489019650613a84565b60008a81526020902060005b86811015613a7c5781548b820152908501908301613a63565b505084890196505b509498975050505050505050565b60008219821115613aa557613aa56139c8565b500190565b6000816000190483118215151615613ac457613ac46139c8565b500290565b600082613ae657634e487b7160e01b600052601260045260246000fd5b500490565b600082821015613afd57613afd6139c8565b500390565b60008060408385031215613b1557600080fd5b505080516020909101519092909150565b600060208284031215613b3857600080fd5b8151610a0981613717565b80516001600160701b03811681146137e057600080fd5b600080600060608486031215613b6f57600080fd5b613b7884613b43565b9250613b8660208501613b43565b9150604084015163ffffffff81168114613b9f57600080fd5b809150509250925092565b84815283602082015260018060a01b0383166040820152608060608201526000613bd760808301846136d8565b9695505050505050565b60008251613bf38184602087016136ac565b919091019291505056fe5f6275726e3a206275726e20616d6f756e74206578636565647320746f74616c20737570706c797472616e7366657246726f6d3a207472616e7366657220616d6f756e74206578636565647320616c6c6f77616e63655f6275726e3a206275726e20616d6f756e7420657863656564732066726f6d2062616c616e63655f7472616e73666572546f6b656e733a207472616e7366657220657863656564732066726f6d2062616c616e6365a26469706673582212209a8c61182b870e7f9f6c659d242c2ca4beb528b893a6091fb6531ee1e2264fef64736f6c634300080d003353776170207061697220277377617050616972506f6f6c5265776172642720644f776e61626c653a2063616c6c6572206973206e6f7420746865206f776e65728be0079c531659141344cd1fd0a4f28419497f9722a3daafe3b4186f6b6457e0",
    "linkReferences": {}
  },
  "methodIdentifiers": {
    "ADMIN_FEE_BIPS()": "07677111",
    "DEPOSITS_ENABLED()": "b52a321f",
    "DEV_FEE_BIPS()": "5ea682ea",
    "DOMAIN_TYPEHASH()": "20606b70",
    "MAX_TOKENS_TO_DEPOSIT_WITHOUT_REINVEST()": "789139bc",
    "MIN_TOKENS_TO_REINVEST()": "bd079f55",
    "PERMIT_TYPEHASH()": "30adf81f",
    "PID()": "5eaec0e4",
    "REINVEST_REWARD_BIPS()": "8aff733d",
    "VERSION_HASH()": "9e4e7318",
    "allowDepositor(address)": "4bebd1e7",
    "allowance(address,address)": "dd62ed3e",
    "allowedDepositors(address)": "483c2ef0",
    "approve(address,uint256)": "095ea7b3",
    "balanceOf(address)": "70a08231",
    "checkReward()": "c4b24a46",
    "decimals()": "313ce567",
    "deposit(uint256)": "b6b55f25",
    "depositFor(address,uint256)": "2f4f21e2",
    "depositToken()": "c89039c5",
    "depositWithPermit(uint256,uint256,uint8,bytes32,bytes32)": "4a970be7",
    "devAddr()": "da09c72c",
    "estimateDeployedBalance()": "0f23475d",
    "estimateReinvestReward()": "b9e57b80",
    "extraToken()": "a1a4ddeb",
    "getDepositTokensForShares(uint256)": "eab89a5a",
    "getDomainSeparator()": "ed24911d",
    "getSharesForDepositTokens(uint256)": "dd8ce4d6",
    "hakuChef()": "ca796304",
    "name()": "06fdde03",
    "nonces(address)": "7ecebe00",
    "numberOfAllowedDepositors()": "3bdc6e72",
    "owner()": "8da5cb5b",
    "permit(address,address,uint256,uint256,uint8,bytes32,bytes32)": "d505accf",
    "recoverAVAX(uint256)": "4ebb7916",
    "recoverERC20(address,uint256)": "8980f11f",
    "reinvest()": "fdb5a03e",
    "removeDepositor(address)": "8b73e606",
    "renounceOwnership()": "715018a6",
    "rescueDeployedFunds(uint256,bool)": "ac0d31ff",
    "revokeAllowance(address,address)": "7ae26773",
    "rewardToken()": "f7c618c1",
    "setExtraRewardSwapPair(address)": "8432e894",
    "swapPairExtraReward()": "909ac8f4",
    "swapPairRewardToken()": "5e5eee1b",
    "symbol()": "95d89b41",
    "totalDeposits()": "7d882097",
    "totalSupply()": "18160ddd",
    "transfer(address,uint256)": "a9059cbb",
    "transferFrom(address,address,uint256)": "23b872dd",
    "transferOwnership(address)": "f2fde38b",
    "updateAdminFee(uint256)": "cff1b6ef",
    "updateDepositsEnabled(bool)": "4e77ace5",
    "updateDevAddr(address)": "9291d563",
    "updateDevFee(uint256)": "99729ec1",
    "updateMaxTokensToDepositWithoutReinvest(uint256)": "e21ac825",
    "updateMinTokensToReinvest(uint256)": "81837230",
    "updateReinvestReward(uint256)": "a8ae2b7c",
    "withdraw(uint256)": "2e1a7d4d"
  },
  "id": 100
}