{
  "abi": [
    {
      "inputs": [
        {
          "internalType": "string",
          "name": "_name",
          "type": "string"
        },
        {
          "internalType": "address",
          "name": "_depositToken",
          "type": "address"
        },
        {
          "internalType": "address",
          "name": "_rewardToken",
          "type": "address"
        },
        {
          "internalType": "address",
          "name": "_poolRewardToken",
          "type": "address"
        },
        {
          "internalType": "address",
          "name": "_swapPairToken",
          "type": "address"
        },
        {
          "components": [
            {
              "internalType": "address",
              "name": "reward",
              "type": "address"
            },
            {
              "internalType": "address",
              "name": "swapPair",
              "type": "address"
            }
          ],
          "internalType": "struct MasterChefVariableRewardsStrategy.ExtraReward[]",
          "name": "_extraRewards",
          "type": "tuple[]"
        },
        {
          "internalType": "address",
          "name": "_stakingContract",
          "type": "address"
        },
        {
          "internalType": "address",
          "name": "_timelock",
          "type": "address"
        },
        {
          "components": [
            {
              "internalType": "uint256",
              "name": "minTokensToReinvest",
              "type": "uint256"
            },
            {
              "internalType": "uint256",
              "name": "devFeeBips",
              "type": "uint256"
            },
            {
              "internalType": "uint256",
              "name": "reinvestRewardBips",
              "type": "uint256"
            }
          ],
          "internalType": "struct YakStrategyV2.StrategySettings",
          "name": "_strategySettings",
          "type": "tuple"
        }
      ],
      "stateMutability": "nonpayable",
      "type": "constructor"
    },
    {
      "anonymous": false,
      "inputs": [
        {
          "indexed": true,
          "internalType": "address",
          "name": "account",
          "type": "address"
        }
      ],
      "name": "AllowDepositor",
      "type": "event"
    },
    {
      "anonymous": false,
      "inputs": [
        {
          "indexed": true,
          "internalType": "address",
          "name": "owner",
          "type": "address"
        },
        {
          "indexed": true,
          "internalType": "address",
          "name": "spender",
          "type": "address"
        },
        {
          "indexed": false,
          "internalType": "uint256",
          "name": "value",
          "type": "uint256"
        }
      ],
      "name": "Approval",
      "type": "event"
    },
    {
      "anonymous": false,
      "inputs": [
        {
          "indexed": true,
          "internalType": "address",
          "name": "account",
          "type": "address"
        },
        {
          "indexed": false,
          "internalType": "uint256",
          "name": "amount",
          "type": "uint256"
        }
      ],
      "name": "Deposit",
      "type": "event"
    },
    {
      "anonymous": false,
      "inputs": [
        {
          "indexed": false,
          "internalType": "bool",
          "name": "newValue",
          "type": "bool"
        }
      ],
      "name": "DepositsEnabled",
      "type": "event"
    },
    {
      "anonymous": false,
      "inputs": [
        {
          "indexed": true,
          "internalType": "address",
          "name": "previousOwner",
          "type": "address"
        },
        {
          "indexed": true,
          "internalType": "address",
          "name": "newOwner",
          "type": "address"
        }
      ],
      "name": "OwnershipTransferred",
      "type": "event"
    },
    {
      "anonymous": false,
      "inputs": [
        {
          "indexed": false,
          "internalType": "address",
          "name": "token",
          "type": "address"
        },
        {
          "indexed": false,
          "internalType": "uint256",
          "name": "amount",
          "type": "uint256"
        }
      ],
      "name": "Recovered",
      "type": "event"
    },
    {
      "anonymous": false,
      "inputs": [
        {
          "indexed": false,
          "internalType": "uint256",
          "name": "newTotalDeposits",
          "type": "uint256"
        },
        {
          "indexed": false,
          "internalType": "uint256",
          "name": "newTotalSupply",
          "type": "uint256"
        }
      ],
      "name": "Reinvest",
      "type": "event"
    },
    {
      "anonymous": false,
      "inputs": [
        {
          "indexed": true,
          "internalType": "address",
          "name": "account",
          "type": "address"
        }
      ],
      "name": "RemoveDepositor",
      "type": "event"
    },
    {
      "anonymous": false,
      "inputs": [
        {
          "indexed": true,
          "internalType": "address",
          "name": "from",
          "type": "address"
        },
        {
          "indexed": true,
          "internalType": "address",
          "name": "to",
          "type": "address"
        },
        {
          "indexed": false,
          "internalType": "uint256",
          "name": "value",
          "type": "uint256"
        }
      ],
      "name": "Transfer",
      "type": "event"
    },
    {
      "anonymous": false,
      "inputs": [
        {
          "indexed": false,
          "internalType": "uint256",
          "name": "oldValue",
          "type": "uint256"
        },
        {
          "indexed": false,
          "internalType": "uint256",
          "name": "newValue",
          "type": "uint256"
        }
      ],
      "name": "UpdateAdminFee",
      "type": "event"
    },
    {
      "anonymous": false,
      "inputs": [
        {
          "indexed": false,
          "internalType": "address",
          "name": "oldValue",
          "type": "address"
        },
        {
          "indexed": false,
          "internalType": "address",
          "name": "newValue",
          "type": "address"
        }
      ],
      "name": "UpdateDevAddr",
      "type": "event"
    },
    {
      "anonymous": false,
      "inputs": [
        {
          "indexed": false,
          "internalType": "uint256",
          "name": "oldValue",
          "type": "uint256"
        },
        {
          "indexed": false,
          "internalType": "uint256",
          "name": "newValue",
          "type": "uint256"
        }
      ],
      "name": "UpdateDevFee",
      "type": "event"
    },
    {
      "anonymous": false,
      "inputs": [
        {
          "indexed": false,
          "internalType": "uint256",
          "name": "oldValue",
          "type": "uint256"
        },
        {
          "indexed": false,
          "internalType": "uint256",
          "name": "newValue",
          "type": "uint256"
        }
      ],
      "name": "UpdateMaxTokensToDepositWithoutReinvest",
      "type": "event"
    },
    {
      "anonymous": false,
      "inputs": [
        {
          "indexed": false,
          "internalType": "uint256",
          "name": "oldValue",
          "type": "uint256"
        },
        {
          "indexed": false,
          "internalType": "uint256",
          "name": "newValue",
          "type": "uint256"
        }
      ],
      "name": "UpdateMinTokensToReinvest",
      "type": "event"
    },
    {
      "anonymous": false,
      "inputs": [
        {
          "indexed": false,
          "internalType": "uint256",
          "name": "oldValue",
          "type": "uint256"
        },
        {
          "indexed": false,
          "internalType": "uint256",
          "name": "newValue",
          "type": "uint256"
        }
      ],
      "name": "UpdateReinvestReward",
      "type": "event"
    },
    {
      "anonymous": false,
      "inputs": [
        {
          "indexed": true,
          "internalType": "address",
          "name": "account",
          "type": "address"
        },
        {
          "indexed": false,
          "internalType": "uint256",
          "name": "amount",
          "type": "uint256"
        }
      ],
      "name": "Withdraw",
      "type": "event"
    },
    {
      "inputs": [],
      "name": "ADMIN_FEE_BIPS",
      "outputs": [
        {
          "internalType": "uint256",
          "name": "",
          "type": "uint256"
        }
      ],
      "stateMutability": "view",
      "type": "function"
    },
    {
      "inputs": [],
      "name": "DEPOSITS_ENABLED",
      "outputs": [
        {
          "internalType": "bool",
          "name": "",
          "type": "bool"
        }
      ],
      "stateMutability": "view",
      "type": "function"
    },
    {
      "inputs": [],
      "name": "DEV_FEE_BIPS",
      "outputs": [
        {
          "internalType": "uint256",
          "name": "",
          "type": "uint256"
        }
      ],
      "stateMutability": "view",
      "type": "function"
    },
    {
      "inputs": [],
      "name": "DOMAIN_TYPEHASH",
      "outputs": [
        {
          "internalType": "bytes32",
          "name": "",
          "type": "bytes32"
        }
      ],
      "stateMutability": "view",
      "type": "function"
    },
    {
      "inputs": [],
      "name": "MAX_TOKENS_TO_DEPOSIT_WITHOUT_REINVEST",
      "outputs": [
        {
          "internalType": "uint256",
          "name": "",
          "type": "uint256"
        }
      ],
      "stateMutability": "view",
      "type": "function"
    },
    {
      "inputs": [],
      "name": "MIN_TOKENS_TO_REINVEST",
      "outputs": [
        {
          "internalType": "uint256",
          "name": "",
          "type": "uint256"
        }
      ],
      "stateMutability": "view",
      "type": "function"
    },
    {
      "inputs": [],
      "name": "PERMIT_TYPEHASH",
      "outputs": [
        {
          "internalType": "bytes32",
          "name": "",
          "type": "bytes32"
        }
      ],
      "stateMutability": "view",
      "type": "function"
    },
    {
      "inputs": [],
      "name": "PID",
      "outputs": [
        {
          "internalType": "uint256",
          "name": "",
          "type": "uint256"
        }
      ],
      "stateMutability": "view",
      "type": "function"
    },
    {
      "inputs": [],
      "name": "REINVEST_REWARD_BIPS",
      "outputs": [
        {
          "internalType": "uint256",
          "name": "",
          "type": "uint256"
        }
      ],
      "stateMutability": "view",
      "type": "function"
    },
    {
      "inputs": [],
      "name": "VERSION_HASH",
      "outputs": [
        {
          "internalType": "bytes32",
          "name": "",
          "type": "bytes32"
        }
      ],
      "stateMutability": "view",
      "type": "function"
    },
    {
      "inputs": [
        {
          "internalType": "address",
          "name": "_rewardToken",
          "type": "address"
        },
        {
          "internalType": "address",
          "name": "_swapPair",
          "type": "address"
        }
      ],
      "name": "addReward",
      "outputs": [],
      "stateMutability": "nonpayable",
      "type": "function"
    },
    {
      "inputs": [
        {
          "internalType": "address",
          "name": "depositor",
          "type": "address"
        }
      ],
      "name": "allowDepositor",
      "outputs": [],
      "stateMutability": "nonpayable",
      "type": "function"
    },
    {
      "inputs": [
        {
          "internalType": "address",
          "name": "account",
          "type": "address"
        },
        {
          "internalType": "address",
          "name": "spender",
          "type": "address"
        }
      ],
      "name": "allowance",
      "outputs": [
        {
          "internalType": "uint256",
          "name": "",
          "type": "uint256"
        }
      ],
      "stateMutability": "view",
      "type": "function"
    },
    {
      "inputs": [
        {
          "internalType": "address",
          "name": "",
          "type": "address"
        }
      ],
      "name": "allowedDepositors",
      "outputs": [
        {
          "internalType": "bool",
          "name": "",
          "type": "bool"
        }
      ],
      "stateMutability": "view",
      "type": "function"
    },
    {
      "inputs": [
        {
          "internalType": "address",
          "name": "spender",
          "type": "address"
        },
        {
          "internalType": "uint256",
          "name": "amount",
          "type": "uint256"
        }
      ],
      "name": "approve",
      "outputs": [
        {
          "internalType": "bool",
          "name": "",
          "type": "bool"
        }
      ],
      "stateMutability": "nonpayable",
      "type": "function"
    },
    {
      "inputs": [
        {
          "internalType": "address",
          "name": "account",
          "type": "address"
        }
      ],
      "name": "balanceOf",
      "outputs": [
        {
          "internalType": "uint256",
          "name": "",
          "type": "uint256"
        }
      ],
      "stateMutability": "view",
      "type": "function"
    },
    {
      "inputs": [],
      "name": "checkReward",
      "outputs": [
        {
          "internalType": "uint256",
          "name": "",
          "type": "uint256"
        }
      ],
      "stateMutability": "view",
      "type": "function"
    },
    {
      "inputs": [],
      "name": "decimals",
      "outputs": [
        {
          "internalType": "uint8",
          "name": "",
          "type": "uint8"
        }
      ],
      "stateMutability": "view",
      "type": "function"
    },
    {
      "inputs": [
        {
          "internalType": "uint256",
          "name": "amount",
          "type": "uint256"
        }
      ],
      "name": "deposit",
      "outputs": [],
      "stateMutability": "nonpayable",
      "type": "function"
    },
    {
      "inputs": [
        {
          "internalType": "address",
          "name": "account",
          "type": "address"
        },
        {
          "internalType": "uint256",
          "name": "amount",
          "type": "uint256"
        }
      ],
      "name": "depositFor",
      "outputs": [],
      "stateMutability": "nonpayable",
      "type": "function"
    },
    {
      "inputs": [],
      "name": "depositToken",
      "outputs": [
        {
          "internalType": "contract IERC20",
          "name": "",
          "type": "address"
        }
      ],
      "stateMutability": "view",
      "type": "function"
    },
    {
      "inputs": [
        {
          "internalType": "uint256",
          "name": "amount",
          "type": "uint256"
        },
        {
          "internalType": "uint256",
          "name": "deadline",
          "type": "uint256"
        },
        {
          "internalType": "uint8",
          "name": "v",
          "type": "uint8"
        },
        {
          "internalType": "bytes32",
          "name": "r",
          "type": "bytes32"
        },
        {
          "internalType": "bytes32",
          "name": "s",
          "type": "bytes32"
        }
      ],
      "name": "depositWithPermit",
      "outputs": [],
      "stateMutability": "nonpayable",
      "type": "function"
    },
    {
      "inputs": [],
      "name": "devAddr",
      "outputs": [
        {
          "internalType": "address",
          "name": "",
          "type": "address"
        }
      ],
      "stateMutability": "view",
      "type": "function"
    },
    {
      "inputs": [],
      "name": "estimateDeployedBalance",
      "outputs": [
        {
          "internalType": "uint256",
          "name": "",
          "type": "uint256"
        }
      ],
      "stateMutability": "view",
      "type": "function"
    },
    {
      "inputs": [],
      "name": "estimateReinvestReward",
      "outputs": [
        {
          "internalType": "uint256",
          "name": "",
          "type": "uint256"
        }
      ],
      "stateMutability": "view",
      "type": "function"
    },
    {
      "inputs": [
        {
          "internalType": "uint256",
          "name": "amount",
          "type": "uint256"
        }
      ],
      "name": "getDepositTokensForShares",
      "outputs": [
        {
          "internalType": "uint256",
          "name": "",
          "type": "uint256"
        }
      ],
      "stateMutability": "view",
      "type": "function"
    },
    {
      "inputs": [],
      "name": "getDomainSeparator",
      "outputs": [
        {
          "internalType": "bytes32",
          "name": "",
          "type": "bytes32"
        }
      ],
      "stateMutability": "view",
      "type": "function"
    },
    {
      "inputs": [
        {
          "internalType": "uint256",
          "name": "amount",
          "type": "uint256"
        }
      ],
      "name": "getSharesForDepositTokens",
      "outputs": [
        {
          "internalType": "uint256",
          "name": "",
          "type": "uint256"
        }
      ],
      "stateMutability": "view",
      "type": "function"
    },
    {
      "inputs": [],
      "name": "name",
      "outputs": [
        {
          "internalType": "string",
          "name": "",
          "type": "string"
        }
      ],
      "stateMutability": "view",
      "type": "function"
    },
    {
      "inputs": [
        {
          "internalType": "address",
          "name": "",
          "type": "address"
        }
      ],
      "name": "nonces",
      "outputs": [
        {
          "internalType": "uint256",
          "name": "",
          "type": "uint256"
        }
      ],
      "stateMutability": "view",
      "type": "function"
    },
    {
      "inputs": [],
      "name": "numberOfAllowedDepositors",
      "outputs": [
        {
          "internalType": "uint256",
          "name": "",
          "type": "uint256"
        }
      ],
      "stateMutability": "view",
      "type": "function"
    },
    {
      "inputs": [],
      "name": "owner",
      "outputs": [
        {
          "internalType": "address",
          "name": "",
          "type": "address"
        }
      ],
      "stateMutability": "view",
      "type": "function"
    },
    {
      "inputs": [
        {
          "internalType": "address",
          "name": "owner",
          "type": "address"
        },
        {
          "internalType": "address",
          "name": "spender",
          "type": "address"
        },
        {
          "internalType": "uint256",
          "name": "value",
          "type": "uint256"
        },
        {
          "internalType": "uint256",
          "name": "deadline",
          "type": "uint256"
        },
        {
          "internalType": "uint8",
          "name": "v",
          "type": "uint8"
        },
        {
          "internalType": "bytes32",
          "name": "r",
          "type": "bytes32"
        },
        {
          "internalType": "bytes32",
          "name": "s",
          "type": "bytes32"
        }
      ],
      "name": "permit",
      "outputs": [],
      "stateMutability": "nonpayable",
      "type": "function"
    },
    {
      "inputs": [
        {
          "internalType": "uint256",
          "name": "amount",
          "type": "uint256"
        }
      ],
      "name": "recoverAVAX",
      "outputs": [],
      "stateMutability": "nonpayable",
      "type": "function"
    },
    {
      "inputs": [
        {
          "internalType": "address",
          "name": "tokenAddress",
          "type": "address"
        },
        {
          "internalType": "uint256",
          "name": "tokenAmount",
          "type": "uint256"
        }
      ],
      "name": "recoverERC20",
      "outputs": [],
      "stateMutability": "nonpayable",
      "type": "function"
    },
    {
      "inputs": [],
      "name": "reinvest",
      "outputs": [],
      "stateMutability": "nonpayable",
      "type": "function"
    },
    {
      "inputs": [
        {
          "internalType": "address",
          "name": "depositor",
          "type": "address"
        }
      ],
      "name": "removeDepositor",
      "outputs": [],
      "stateMutability": "nonpayable",
      "type": "function"
    },
    {
      "inputs": [
        {
          "internalType": "address",
          "name": "rewardToken",
          "type": "address"
        }
      ],
      "name": "removeReward",
      "outputs": [],
      "stateMutability": "nonpayable",
      "type": "function"
    },
    {
      "inputs": [],
      "name": "renounceOwnership",
      "outputs": [],
      "stateMutability": "nonpayable",
      "type": "function"
    },
    {
      "inputs": [
        {
          "internalType": "uint256",
          "name": "minReturnAmountAccepted",
          "type": "uint256"
        },
        {
          "internalType": "bool",
          "name": "disableDeposits",
          "type": "bool"
        }
      ],
      "name": "rescueDeployedFunds",
      "outputs": [],
      "stateMutability": "nonpayable",
      "type": "function"
    },
    {
      "inputs": [
        {
          "internalType": "address",
          "name": "token",
          "type": "address"
        },
        {
          "internalType": "address",
          "name": "spender",
          "type": "address"
        }
      ],
      "name": "revokeAllowance",
      "outputs": [],
      "stateMutability": "nonpayable",
      "type": "function"
    },
    {
      "inputs": [],
      "name": "rewardCount",
      "outputs": [
        {
          "internalType": "uint256",
          "name": "",
          "type": "uint256"
        }
      ],
      "stateMutability": "view",
      "type": "function"
    },
    {
      "inputs": [
        {
          "internalType": "address",
          "name": "",
          "type": "address"
        }
      ],
      "name": "rewardSwapPairs",
      "outputs": [
        {
          "internalType": "address",
          "name": "",
          "type": "address"
        }
      ],
      "stateMutability": "view",
      "type": "function"
    },
    {
      "inputs": [],
      "name": "rewardToken",
      "outputs": [
        {
          "internalType": "contract IERC20",
          "name": "",
          "type": "address"
        }
      ],
      "stateMutability": "view",
      "type": "function"
    },
    {
      "inputs": [],
      "name": "stakingContract",
      "outputs": [
        {
          "internalType": "contract IStableJoeStaking",
          "name": "",
          "type": "address"
        }
      ],
      "stateMutability": "view",
      "type": "function"
    },
    {
      "inputs": [],
      "name": "symbol",
      "outputs": [
        {
          "internalType": "string",
          "name": "",
          "type": "string"
        }
      ],
      "stateMutability": "view",
      "type": "function"
    },
    {
      "inputs": [],
      "name": "totalDeposits",
      "outputs": [
        {
          "internalType": "uint256",
          "name": "",
          "type": "uint256"
        }
      ],
      "stateMutability": "view",
      "type": "function"
    },
    {
      "inputs": [],
      "name": "totalSupply",
      "outputs": [
        {
          "internalType": "uint256",
          "name": "",
          "type": "uint256"
        }
      ],
      "stateMutability": "view",
      "type": "function"
    },
    {
      "inputs": [
        {
          "internalType": "address",
          "name": "dst",
          "type": "address"
        },
        {
          "internalType": "uint256",
          "name": "amount",
          "type": "uint256"
        }
      ],
      "name": "transfer",
      "outputs": [
        {
          "internalType": "bool",
          "name": "",
          "type": "bool"
        }
      ],
      "stateMutability": "nonpayable",
      "type": "function"
    },
    {
      "inputs": [
        {
          "internalType": "address",
          "name": "src",
          "type": "address"
        },
        {
          "internalType": "address",
          "name": "dst",
          "type": "address"
        },
        {
          "internalType": "uint256",
          "name": "amount",
          "type": "uint256"
        }
      ],
      "name": "transferFrom",
      "outputs": [
        {
          "internalType": "bool",
          "name": "",
          "type": "bool"
        }
      ],
      "stateMutability": "nonpayable",
      "type": "function"
    },
    {
      "inputs": [
        {
          "internalType": "address",
          "name": "newOwner",
          "type": "address"
        }
      ],
      "name": "transferOwnership",
      "outputs": [],
      "stateMutability": "nonpayable",
      "type": "function"
    },
    {
      "inputs": [
        {
          "internalType": "uint256",
          "name": "newValue",
          "type": "uint256"
        }
      ],
      "name": "updateAdminFee",
      "outputs": [],
      "stateMutability": "nonpayable",
      "type": "function"
    },
    {
      "inputs": [
        {
          "internalType": "bool",
          "name": "newValue",
          "type": "bool"
        }
      ],
      "name": "updateDepositsEnabled",
      "outputs": [],
      "stateMutability": "nonpayable",
      "type": "function"
    },
    {
      "inputs": [
        {
          "internalType": "address",
          "name": "newValue",
          "type": "address"
        }
      ],
      "name": "updateDevAddr",
      "outputs": [],
      "stateMutability": "nonpayable",
      "type": "function"
    },
    {
      "inputs": [
        {
          "internalType": "uint256",
          "name": "newValue",
          "type": "uint256"
        }
      ],
      "name": "updateDevFee",
      "outputs": [],
      "stateMutability": "nonpayable",
      "type": "function"
    },
    {
      "inputs": [
        {
          "internalType": "uint256",
          "name": "newValue",
          "type": "uint256"
        }
      ],
      "name": "updateMaxTokensToDepositWithoutReinvest",
      "outputs": [],
      "stateMutability": "nonpayable",
      "type": "function"
    },
    {
      "inputs": [
        {
          "internalType": "uint256",
          "name": "newValue",
          "type": "uint256"
        }
      ],
      "name": "updateMinTokensToReinvest",
      "outputs": [],
      "stateMutability": "nonpayable",
      "type": "function"
    },
    {
      "inputs": [
        {
          "internalType": "uint256",
          "name": "newValue",
          "type": "uint256"
        }
      ],
      "name": "updateReinvestReward",
      "outputs": [],
      "stateMutability": "nonpayable",
      "type": "function"
    },
    {
      "inputs": [
        {
          "internalType": "uint256",
          "name": "amount",
          "type": "uint256"
        }
      ],
      "name": "withdraw",
      "outputs": [],
      "stateMutability": "nonpayable",
      "type": "function"
    }
  ],
  "bytecode": {
    "object": "0x60e0604052600960a0819052685969656c642059616b60b81b60c09081526200002c916000919062000cae565b506040805180820190915260038082526216549560ea1b6020909201918252620000599160019162000cae565b5060016014553480156200006c57600080fd5b5060405162005229380380620052298339810160408190526200008f9162000f05565b888888888888888860008989898989898989898989808233600680546001600160a01b0319166001600160a01b0383169081179091556040519192509060009060008051602062005209833981519152908290a3508051620000f190620002e9565b6020810151620001019062000379565b6040810151620001119062000430565b508951620001279060009060208d019062000cae565b50600980546001600160a01b03808c166001600160a01b031992831617909255600a80548b84169083161790556080849052600b80548216732d580f9cf2fb2d09bc411532988f2afda4e7beff1790556012805487841690831617905588821660009081526013602052604081208054938a16939092169290921790555b8551811015620002165762000201868281518110620001c857620001c86200106e565b602002602001015160000151878381518110620001e957620001e96200106e565b602002602001015160200151620004e760201b60201c565b806200020d816200109a565b915050620001a5565b5062000223600162000816565b6200022e83620008c0565b60408051600080825260208201527fc7606d21ac05cd309191543e409f0845c016120563783d70e4f41419dc0ef234910160405180910390a1505050505050505050506200028286620009bd60201b60201c565b5050505050505050505085601760006101000a8154816001600160a01b0302191690836001600160a01b0316021790555082601660006101000a8154816001600160a01b0302191690836001600160a01b031602179055505050505050505050506200112b565b6006546001600160a01b03163314620003385760405162461bcd60e51b81526020600482018190526024820152600080516020620051e983398151915260448201526064015b60405180910390fd5b600c5460408051918252602082018390527f481f79ac3a523b6d6db3c5a720e190e986d1cc1b41adcdf50f9caef849901100910160405180910390a1600c55565b6006546001600160a01b03163314620003c45760405162461bcd60e51b81526020600482018190526024820152600080516020620051e983398151915260448201526064016200032f565b612710620003e36010548362000a7460201b62001b4c1790919060201c565b1115620003ef57600080fd5b60115460408051918252602082018390527f2a42303d002f0ba6cfe8259c91d4684443fb0b3de286ba74991175d651726131910160405180910390a1601155565b6006546001600160a01b031633146200047b5760405162461bcd60e51b81526020600482018190526024820152600080516020620051e983398151915260448201526064016200032f565b6127106200049a6011548362000a7460201b62001b4c1790919060201c565b1115620004a657600080fd5b60105460408051918252602082018390527fe7f97d51d307dc44045597c9978bec0f842e6bb40d19b9444084cfa30d9ed4f2910160405180910390a1601055565b600a546001600160a01b03838116911614620007c357806001600160a01b0316630dfe16816040518163ffffffff1660e01b8152600401602060405180830381865afa1580156200053c573d6000803e3d6000fd5b505050506040513d601f19601f82011682018060405250810190620005629190620010b6565b6001600160a01b0316826001600160a01b0316036200066157600a546040805163d21220a760e01b815290516001600160a01b039283169284169163d21220a79160048083019260209291908290030181865afa158015620005c8573d6000803e3d6000fd5b505050506040513d601f19601f82011682018060405250810190620005ee9190620010b6565b6001600160a01b0316146200065b5760405162461bcd60e51b815260206004820152603a6024820152600080516020620051c983398151915260448201527f73206e6f7420636f6e7461696e2072657761726420746f6b656e00000000000060648201526084016200032f565b620007c3565b600a5460408051630dfe168160e01b815290516001600160a01b0392831692841691630dfe16819160048083019260209291908290030181865afa158015620006ae573d6000803e3d6000fd5b505050506040513d601f19601f82011682018060405250810190620006d49190620010b6565b6001600160a01b0316148015620007605750816001600160a01b0316816001600160a01b031663d21220a76040518163ffffffff1660e01b8152600401602060405180830381865afa1580156200072f573d6000803e3d6000fd5b505050506040513d601f19601f82011682018060405250810190620007559190620010b6565b6001600160a01b0316145b620007c35760405162461bcd60e51b815260206004820152603a6024820152600080516020620051c983398151915260448201527f73206e6f7420636f6e7461696e2072657761726420746f6b656e00000000000060648201526084016200032f565b6001600160a01b03828116600090815260136020908152604090912080546001600160a01b031916928416929092179091556014546200080f9160019062000a74811b62001b4c17901c565b6014555050565b6006546001600160a01b03163314620008615760405162461bcd60e51b81526020600482018190526024820152600080516020620051e983398151915260448201526064016200032f565b600e5481151560ff9091161515036200087957600080fd5b600e805460ff19168215159081179091556040519081527f7b014ed3854e7f5cb0218d58b3c6ae7d53a68bb0af2f67bfb029ea42c38a7e859060200160405180910390a150565b6006546001600160a01b031633146200090b5760405162461bcd60e51b81526020600482018190526024820152600080516020620051e983398151915260448201526064016200032f565b6001600160a01b038116620009725760405162461bcd60e51b815260206004820152602660248201527f4f776e61626c653a206e6577206f776e657220697320746865207a65726f206160448201526564647265737360d01b60648201526084016200032f565b6006546040516001600160a01b038084169216906000805160206200520983398151915290600090a3600680546001600160a01b0319166001600160a01b0392909216919091179055565b600954600a54620009e99183916001600160a01b03918216911662000a89602090811b62001b5817901c565b62000a525760405162461bcd60e51b815260206004820152603260248201527f7377617020746f6b656e20646f6573206e6f74206d61746368206465706f73696044820152713a1030b732103932bbb0b932103a37b5b2b760711b60648201526084016200032f565b601580546001600160a01b0319166001600160a01b0392909216919091179055565b600062000a828284620010d4565b9392505050565b6000836001600160a01b0316630dfe16816040518163ffffffff1660e01b8152600401602060405180830381865afa15801562000aca573d6000803e3d6000fd5b505050506040513d601f19601f8201168201806040525081019062000af09190620010b6565b6001600160a01b0316836001600160a01b0316148062000b855750836001600160a01b031663d21220a76040518163ffffffff1660e01b8152600401602060405180830381865afa15801562000b4a573d6000803e3d6000fd5b505050506040513d601f19601f8201168201806040525081019062000b709190620010b6565b6001600160a01b0316836001600160a01b0316145b801562000c875750836001600160a01b0316630dfe16816040518163ffffffff1660e01b8152600401602060405180830381865afa15801562000bcc573d6000803e3d6000fd5b505050506040513d601f19601f8201168201806040525081019062000bf29190620010b6565b6001600160a01b0316826001600160a01b0316148062000c875750836001600160a01b031663d21220a76040518163ffffffff1660e01b8152600401602060405180830381865afa15801562000c4c573d6000803e3d6000fd5b505050506040513d601f19601f8201168201806040525081019062000c729190620010b6565b6001600160a01b0316826001600160a01b0316145b801562000ca65750816001600160a01b0316836001600160a01b031614155b949350505050565b82805462000cbc90620010ef565b90600052602060002090601f01602090048101928262000ce0576000855562000d2b565b82601f1062000cfb57805160ff191683800117855562000d2b565b8280016001018555821562000d2b579182015b8281111562000d2b57825182559160200191906001019062000d0e565b5062000d3992915062000d3d565b5090565b5b8082111562000d39576000815560010162000d3e565b634e487b7160e01b600052604160045260246000fd5b604080519081016001600160401b038111828210171562000d8f5762000d8f62000d54565b60405290565b604051601f8201601f191681016001600160401b038111828210171562000dc05762000dc062000d54565b604052919050565b80516001600160a01b038116811462000de057600080fd5b919050565b600082601f83011262000df757600080fd5b815160206001600160401b0382111562000e155762000e1562000d54565b62000e25818360051b0162000d95565b82815260069290921b8401810191818101908684111562000e4557600080fd5b8286015b8481101562000e9b576040818903121562000e645760008081fd5b62000e6e62000d6a565b62000e798262000dc8565b815262000e8885830162000dc8565b8186015283529183019160400162000e49565b509695505050505050565b60006060828403121562000eb957600080fd5b604051606081016001600160401b038111828210171562000ede5762000ede62000d54565b80604052508091508251815260208301516020820152604083015160408201525092915050565b60008060008060008060008060006101608a8c03121562000f2557600080fd5b89516001600160401b038082111562000f3d57600080fd5b818c0191508c601f83011262000f5257600080fd5b81518181111562000f675762000f6762000d54565b602062000f7d601f8301601f1916820162000d95565b8281528f8284870101111562000f9257600080fd5b60005b8381101562000fb257858101830151828201840152820162000f95565b8381111562000fc45760008385840101525b509c5062000fd48e820162000dc8565b9b50505062000fe660408d0162000dc8565b985062000ff660608d0162000dc8565b97506200100660808d0162000dc8565b965060a08c01519150808211156200101d57600080fd5b506200102c8c828d0162000de5565b9450506200103d60c08b0162000dc8565b92506200104d60e08b0162000dc8565b91506200105f8b6101008c0162000ea6565b90509295985092959850929598565b634e487b7160e01b600052603260045260246000fd5b634e487b7160e01b600052601160045260246000fd5b600060018201620010af57620010af62001084565b5060010190565b600060208284031215620010c957600080fd5b62000a828262000dc8565b60008219821115620010ea57620010ea62001084565b500190565b600181811c908216806200110457607f821691505b6020821081036200112557634e487b7160e01b600052602260045260246000fd5b50919050565b608051614051620011786000396000818161054301528181610f1e015281816114f601528181612076015281816123a80152818161281d01528181612bca0152612ea801526140516000f3fe608060405234801561001057600080fd5b50600436106103995760003560e01c80638aff733d116101e9578063bd079f551161010f578063dd8ce4d6116100ad578063ee99205c1161007c578063ee99205c14610813578063f2fde38b14610826578063f7c618c114610839578063fdb5a03e1461084c57600080fd5b8063dd8ce4d6146107d2578063e21ac825146107e5578063eab89a5a146107f8578063ed24911d1461080b57600080fd5b8063cff1b6ef116100e9578063cff1b6ef14610760578063d505accf14610773578063da09c72c14610786578063dd62ed3e1461079957600080fd5b8063bd079f551461073c578063c4b24a4614610745578063c89039c51461074d57600080fd5b8063a4d5e67c11610187578063ac0d31ff11610156578063ac0d31ff14610701578063b52a321f14610714578063b6b55f2514610721578063b9e57b801461073457600080fd5b8063a4d5e67c1461069f578063a5534e71146106b2578063a8ae2b7c146106db578063a9059cbb146106ee57600080fd5b80639291d563116101c35780639291d5631461064a57806395d89b411461065d57806399729ec1146106655780639e4e73181461067857600080fd5b80638aff733d146106095780638b73e606146106125780638da5cb5b1461062557600080fd5b80634a970be7116102ce578063715018a61161026c5780637d8820971161023b5780637d882097146105bb5780637ecebe00146105c357806381837230146105e35780638980f11f146105f657600080fd5b8063715018a61461058e578063789139bc14610596578063790854251461059f5780637ae26773146105a857600080fd5b80634ebb7916116102a85780634ebb7916146105225780635ea682ea146105355780635eaec0e41461053e57806370a082311461056557600080fd5b80634a970be7146104e95780634bebd1e7146104fc5780634e77ace51461050f57600080fd5b80632e1a7d4d1161033b578063313ce56711610315578063313ce567146104905780633bdc6e72146104aa57806340b47e1a146104b3578063483c2ef0146104c657600080fd5b80632e1a7d4d146104415780632f4f21e21461045657806330adf81f1461046957600080fd5b80630f23475d116103775780630f23475d146103f657806318160ddd146103fe57806320606b701461040757806323b872dd1461042e57600080fd5b806306fdde031461039e57806307677111146103bc578063095ea7b3146103d3575b600080fd5b6103a6610854565b6040516103b391906139c0565b60405180910390f35b6103c5600f5481565b6040519081526020016103b3565b6103e66103e13660046139e8565b6108e2565b60405190151581526020016103b3565b6103c56108f8565b6103c560025481565b6103c57f8b73c3c69bb8fe3d512ecc4cf759cc79239f7b179b0ffacaa9a75d522b39400f81565b6103e661043c366004613a14565b610937565b61045461044f366004613a55565b610a1b565b005b6104546104643660046139e8565b610afd565b6103c57f6e71edae12b1b97f4d1f60370fef10105fa2faae0126114a169c64845d6126c981565b610498601281565b60405160ff90911681526020016103b3565b6103c560075481565b6104546104c1366004613a6e565b610b0b565b6103e66104d4366004613aa7565b60086020526000908152604090205460ff1681565b6104546104f7366004613ada565b610b3f565b61045461050a366004613aa7565b610bd8565b61045461051d366004613b2f565b610cd7565b610454610530366004613a55565b610d60565b6103c560115481565b6103c57f000000000000000000000000000000000000000000000000000000000000000081565b6103c5610573366004613aa7565b6001600160a01b031660009081526004602052604090205490565b610454610dfc565b6103c5600d5481565b6103c560145481565b6104546105b6366004613a6e565b610e70565b6103c5610f16565b6103c56105d1366004613aa7565b60056020526000908152604090205481565b6104546105f1366004613a55565b610f48565b6104546106043660046139e8565b610fb3565b6103c560105481565b610454610620366004613aa7565b6110aa565b6006546001600160a01b03165b6040516001600160a01b0390911681526020016103b3565b610454610658366004613aa7565b61122b565b6103a66112be565b610454610673366004613a55565b6112cb565b6103c57fc89efdaa54c0f20c7adf612882df0950f5a951637e0307cdcb4c672f298b8bc681565b6104546106ad366004613aa7565b611359565b6106326106c0366004613aa7565b6013602052600090815260409020546001600160a01b031681565b6104546106e9366004613a55565b6113bd565b6103e66106fc3660046139e8565b61144b565b61045461070f366004613b4c565b611458565b600e546103e69060ff1681565b61045461072f366004613a55565b611666565b6103c5611673565b6103c5600c5481565b6103c56116b2565b600954610632906001600160a01b031681565b61045461076e366004613a55565b6116bd565b610454610781366004613b71565b611733565b600b54610632906001600160a01b031681565b6103c56107a7366004613a6e565b6001600160a01b03918216600090815260036020908152604080832093909416825291909152205490565b6103c56107e0366004613a55565b611838565b6104546107f3366004613a55565b611872565b6103c5610806366004613a55565b6118dd565b6103c5611911565b601654610632906001600160a01b031681565b610454610834366004613aa7565b6119b1565b600a54610632906001600160a01b031681565b610454611a9c565b6000805461086190613bdf565b80601f016020809104026020016040519081016040528092919081815260200182805461088d90613bdf565b80156108da5780601f106108af576101008083540402835291602001916108da565b820191906000526020600020905b8154815290600101906020018083116108bd57829003601f168201915b505050505081565b60006108ef338484611d6d565b50600192915050565b600080610903610f16565b9050600080610923610913611e7b565b61091d8585611eee565b90611efa565b905061092f8382611f06565b935050505090565b6001600160a01b03831660008181526003602090815260408083203380855292528220549192909190821480159061097157506000198114155b15610a0257600061099d856040518060600160405280602f8152602001613f98602f9139849190611f12565b6001600160a01b038881166000818152600360209081526040808320948916808452948252918290208590559051848152939450919290917f8c5be1e5ebec7d5bd14f71427d1e84f3dd0314c0f7b2291e5b200ac8c7c3b925910160405180910390a3505b610a0d868686611f3e565b6001925050505b9392505050565b6000610a26826118dd565b905060008111610a7d5760405162461bcd60e51b815260206004820152601e60248201527f4d617374657243686566537472617465677956313a3a7769746864726177000060448201526064015b60405180910390fd5b610a8681612071565b600080610a94610913611e7b565b600954909150610ab7906001600160a01b031633610ab28685611f06565b61209b565b610ac13385612172565b60405183815233907f884edad9ce6fa2440d8a54cc123490eb96d2768479d49ff9c7366125a9424364906020015b60405180910390a250505050565b610b078282612248565b5050565b600b546001600160a01b03163314610b355760405162461bcd60e51b8152600401610a7490613c19565b610b078282612437565b60095460405163d505accf60e01b8152336004820152306024820152604481018790526064810186905260ff8516608482015260a4810184905260c481018390526001600160a01b039091169063d505accf9060e401600060405180830381600087803b158015610baf57600080fd5b505af1158015610bc3573d6000803e3d6000fd5b50505050610bd13386612248565b5050505050565b6006546001600160a01b03163314610c025760405162461bcd60e51b8152600401610a7490613c47565b6001600160a01b03811660009081526008602052604090205460ff1615610c6b5760405162461bcd60e51b815260206004820152601c60248201527f5065726d697373696f6e65643a3a616c6c6f774465706f7369746f72000000006044820152606401610a74565b6001600160a01b0381166000908152600860205260409020805460ff19166001908117909155600754610c9d91611b4c565b6007556040516001600160a01b038216907fc0a1035c16faf8d1304056d92c00edf028f87e62b8235a938f00af9e3c0312c590600090a250565b6006546001600160a01b03163314610d015760405162461bcd60e51b8152600401610a7490613c47565b600e5481151560ff909116151503610d1857600080fd5b600e805460ff19168215159081179091556040519081527f7b014ed3854e7f5cb0218d58b3c6ae7d53a68bb0af2f67bfb029ea42c38a7e85906020015b60405180910390a150565b6006546001600160a01b03163314610d8a5760405162461bcd60e51b8152600401610a7490613c47565b60008111610d9757600080fd5b604051339082156108fc029083906000818181858888f19350505050158015610dc4573d6000803e3d6000fd5b506040805160008152602081018390527f8c1256b8896378cd5044f80c202f9772b9d77dc85c8a6eb51967210b09bfaa289101610d55565b6006546001600160a01b03163314610e265760405162461bcd60e51b8152600401610a7490613c47565b6006546040516000916001600160a01b0316907f8be0079c531659141344cd1fd0a4f28419497f9722a3daafe3b4186f6b6457e0908390a3600680546001600160a01b0319169055565b6006546001600160a01b03163314610e9a5760405162461bcd60e51b8152600401610a7490613c47565b60405163095ea7b360e01b81526001600160a01b0382811660048301526000602483015283169063095ea7b3906044016020604051808303816000875af1158015610ee9573d6000803e3d6000fd5b505050506040513d601f19601f82011682018060405250810190610f0d9190613c7c565b610b0757600080fd5b600080610f427f00000000000000000000000000000000000000000000000000000000000000006126b8565b92915050565b6006546001600160a01b03163314610f725760405162461bcd60e51b8152600401610a7490613c47565b600c5460408051918252602082018390527f481f79ac3a523b6d6db3c5a720e190e986d1cc1b41adcdf50f9caef849901100910160405180910390a1600c55565b6006546001600160a01b03163314610fdd5760405162461bcd60e51b8152600401610a7490613c47565b60008111610fea57600080fd5b60405163a9059cbb60e01b8152336004820152602481018290526001600160a01b0383169063a9059cbb906044016020604051808303816000875af1158015611037573d6000803e3d6000fd5b505050506040513d601f19601f8201168201806040525081019061105b9190613c7c565b61106457600080fd5b604080516001600160a01b0384168152602081018390527f8c1256b8896378cd5044f80c202f9772b9d77dc85c8a6eb51967210b09bfaa28910160405180910390a15050565b6006546001600160a01b031633146110d45760405162461bcd60e51b8152600401610a7490613c47565b6000600754116111435760405162461bcd60e51b815260206004820152603460248201527f5065726d697373696f6e65643a3a72656d6f76654465706f7369746f722c206e6044820152736f20616c6c6f776564206465706f7369746f727360601b6064820152608401610a74565b6001600160a01b03811660009081526008602052604090205460ff1615156001146111c35760405162461bcd60e51b815260206004820152602a60248201527f5065726d697373696f6e65643a3a72656d6f76654465706f7369746f722c206e6044820152691bdd08185b1b1bddd95960b21b6064820152608401610a74565b6001600160a01b0381166000908152600860205260409020805460ff191690556007546111f1906001611f06565b6007556040516001600160a01b038216907f0e86f6608b536e5339a25b65ff531f5ea91e1313d056ecd4752b35cbd16137d490600090a250565b600b546001600160a01b031633146112555760405162461bcd60e51b8152600401610a7490613c19565b600b54604080516001600160a01b03928316815291831660208301527fa8e91499ed37682f43cffb045fcc7d379a91e8c9a14e6321877ee34dee564c00910160405180910390a1600b80546001600160a01b0319166001600160a01b0392909216919091179055565b6001805461086190613bdf565b6006546001600160a01b031633146112f55760405162461bcd60e51b8152600401610a7490613c47565b61271061130d60105483611b4c90919063ffffffff16565b111561131857600080fd5b60115460408051918252602082018390527f2a42303d002f0ba6cfe8259c91d4684443fb0b3de286ba74991175d651726131910160405180910390a1601155565b600b546001600160a01b031633146113835760405162461bcd60e51b8152600401610a7490613c19565b6001600160a01b038116600090815260136020526040902080546001600160a01b03191690556014546113b7906001611f06565b60145550565b6006546001600160a01b031633146113e75760405162461bcd60e51b8152600401610a7490613c47565b6127106113ff60115483611b4c90919063ffffffff16565b111561140a57600080fd5b60105460408051918252602082018390527fe7f97d51d307dc44045597c9978bec0f842e6bb40d19b9444084cfa30d9ed4f2910160405180910390a1601055565b60006108ef338484611f3e565b6006546001600160a01b031633146114825760405162461bcd60e51b8152600401610a7490613c47565b6009546040516370a0823160e01b81523060048201526000916001600160a01b0316906370a0823190602401602060405180830381865afa1580156114cb573d6000803e3d6000fd5b505050506040513d601f19601f820116820180604052508101906114ef9190613c99565b905061151a7f0000000000000000000000000000000000000000000000000000000000000000612732565b6009546040516370a0823160e01b81523060048201526000916001600160a01b0316906370a0823190602401602060405180830381865afa158015611563573d6000803e3d6000fd5b505050506040513d601f19601f820116820180604052508101906115879190613c99565b9050836115948284611f06565b10156115f45760405162461bcd60e51b815260206004820152602960248201527f4d617374657243686566537472617465677956313a3a7265736375654465706c6044820152686f79656446756e647360b81b6064820152608401610a74565b7fc7606d21ac05cd309191543e409f0845c016120563783d70e4f41419dc0ef23461161d610f16565b6002546040805192835260208301919091520160405180910390a1600e5460ff161515600114801561165157506001831515145b15611660576116606000610cd7565b50505050565b6116703382612248565b50565b60008061167e6116b2565b9050600c5481106116aa576116a461271061091d60105484611eee90919063ffffffff16565b91505090565b600091505090565b600080610a14612813565b6006546001600160a01b031633146116e75760405162461bcd60e51b8152600401610a7490613c47565b80156116f257600080fd5b600f5460408051918252602082018390527f3cc372f330f95ac9540626dc8a25f5bf21ba607215a5d58304cb804d446f104a910160405180910390a1600f55565b428410156117755760405162461bcd60e51b815260206004820152600f60248201526e1c195c9b5a5d0e8e995e1c1a5c9959608a1b6044820152606401610a74565b6001600160a01b038716600090815260056020526040812080547f6e71edae12b1b97f4d1f60370fef10105fa2faae0126114a169c64845d6126c9918a918a918a9190866117c283613cc8565b909155506040805160208101969096526001600160a01b0394851690860152929091166060840152608083015260a082015260c0810186905260e0016040516020818303038152906040528051906020012090506118238882868686612a99565b61182e888888611d6d565b5050505050505050565b600061184e611845610f16565b60025490611eee565b600003611859575090565b610f42611864610f16565b60025461091d908590611eee565b6006546001600160a01b0316331461189c5760405162461bcd60e51b8152600401610a7490613c47565b600d5460408051918252602082018390527fa5dae50539d56dfe1fb5273d883b0c39bc76750a25d036fc5fbd09ad8fd5f57f910160405180910390a1600d55565b60006118ea611845610f16565b6000036118f957506000919050565b610f4260025461091d61190a610f16565b8590611eee565b60007f8b73c3c69bb8fe3d512ecc4cf759cc79239f7b179b0ffacaa9a75d522b39400f60001b60006040516119469190613ce1565b6040519081900390207fc89efdaa54c0f20c7adf612882df0950f5a951637e0307cdcb4c672f298b8bc646604080516020810195909552840192909252606083015260808201523060a082015260c00160405160208183030381529060405280519060200120905090565b6006546001600160a01b031633146119db5760405162461bcd60e51b8152600401610a7490613c47565b6001600160a01b038116611a405760405162461bcd60e51b815260206004820152602660248201527f4f776e61626c653a206e6577206f776e657220697320746865207a65726f206160448201526564647265737360d01b6064820152608401610a74565b6006546040516001600160a01b038084169216907f8be0079c531659141344cd1fd0a4f28419497f9722a3daafe3b4186f6b6457e090600090a3600680546001600160a01b0319166001600160a01b0392909216919091179055565b323314611ae25760405162461bcd60e51b815260206004820152601460248201527359616b53747261746567793a3a6f6e6c79454f4160601b6044820152606401610a74565b600080611aed612813565b91509150600c54811015611b435760405162461bcd60e51b815260206004820152601e60248201527f4d617374657243686566537472617465677956313a3a7265696e7665737400006044820152606401610a74565b610b0782612bc5565b6000610a148284613d7c565b6000836001600160a01b0316630dfe16816040518163ffffffff1660e01b8152600401602060405180830381865afa158015611b98573d6000803e3d6000fd5b505050506040513d601f19601f82011682018060405250810190611bbc9190613d94565b6001600160a01b0316836001600160a01b03161480611c4d5750836001600160a01b031663d21220a76040518163ffffffff1660e01b8152600401602060405180830381865afa158015611c14573d6000803e3d6000fd5b505050506040513d601f19601f82011682018060405250810190611c389190613d94565b6001600160a01b0316836001600160a01b0316145b8015611d475750836001600160a01b0316630dfe16816040518163ffffffff1660e01b8152600401602060405180830381865afa158015611c92573d6000803e3d6000fd5b505050506040513d601f19601f82011682018060405250810190611cb69190613d94565b6001600160a01b0316826001600160a01b03161480611d475750836001600160a01b031663d21220a76040518163ffffffff1660e01b8152600401602060405180830381865afa158015611d0e573d6000803e3d6000fd5b505050506040513d601f19601f82011682018060405250810190611d329190613d94565b6001600160a01b0316826001600160a01b0316145b8015611d655750816001600160a01b0316836001600160a01b031614155b949350505050565b6001600160a01b038316611dc35760405162461bcd60e51b815260206004820152601c60248201527f5f617070726f76653a3a6f776e6572207a65726f2061646472657373000000006044820152606401610a74565b6001600160a01b038216611e195760405162461bcd60e51b815260206004820152601e60248201527f5f617070726f76653a3a7370656e646572207a65726f206164647265737300006044820152606401610a74565b6001600160a01b0383811660008181526003602090815260408083209487168084529482529182902085905590518481527f8c5be1e5ebec7d5bd14f71427d1e84f3dd0314c0f7b2291e5b200ac8c7c3b92591015b60405180910390a3505050565b60165460408051635308384560e11b815290516000926001600160a01b03169163a610708a9160048083019260209291908290030181865afa158015611ec5573d6000803e3d6000fd5b505050506040513d601f19601f82011682018060405250810190611ee99190613c99565b905090565b6000610a148284613db1565b6000610a148284613dd0565b6000610a148284613df2565b60008184841115611f365760405162461bcd60e51b8152600401610a7491906139c0565b505050900390565b6001600160a01b038216611fb15760405162461bcd60e51b815260206004820152603460248201527f5f7472616e73666572546f6b656e733a2063616e6e6f74207472616e7366657260448201527320746f20746865207a65726f206164647265737360601b6064820152608401610a74565b611fee816040518060600160405280602e8152602001613fee602e91396001600160a01b0386166000908152600460205260409020549190611f12565b6001600160a01b03808516600090815260046020526040808220939093559084168152205461201d9082611b4c565b6001600160a01b0380841660008181526004602052604090819020939093559151908516907fddf252ad1be2c89b69c2b068fc378daa952ba7f163c4a11628f55a4df523b3ef90611e6e9085815260200190565b6116707f000000000000000000000000000000000000000000000000000000000000000082612ced565b60405163a9059cbb60e01b81526001600160a01b0383811660048301526024820183905284169063a9059cbb906044016020604051808303816000875af11580156120ea573d6000803e3d6000fd5b505050506040513d601f19601f8201168201806040525081019061210e9190613c7c565b61216d5760405162461bcd60e51b815260206004820152602a60248201527f4d617374657243686566537472617465677956313a3a5452414e534645525f466044820152691493d357d1905253115160b21b6064820152608401610a74565b505050565b6121af81604051806060016040528060278152602001613fc7602791396001600160a01b0385166000908152600460205260409020549190611f12565b60046000846001600160a01b03166001600160a01b03168152602001908152602001600020819055506121ff81604051806060016040528060278152602001613f71602791396002549190611f12565b6002556040518181526000906001600160a01b038416907fddf252ad1be2c89b69c2b068fc378daa952ba7f163c4a11628f55a4df523b3ef906020015b60405180910390a35050565b600e5460ff16151560011461229f5760405162461bcd60e51b815260206004820152601e60248201527f4d617374657243686566537472617465677956313a3a5f6465706f73697400006044820152606401610a74565b600d54156122cc576000806122b2612813565b91509150600d548111156122c9576122c982612bc5565b50505b6009546040516323b872dd60e01b8152336004820152306024820152604481018390526001600160a01b03909116906323b872dd906064016020604051808303816000875af1158015612323573d6000803e3d6000fd5b505050506040513d601f19601f820116820180604052508101906123479190613c7c565b6123a15760405162461bcd60e51b815260206004820152602560248201527f4d617374657243686566537472617465677956313a3a7472616e736665722066604482015264185a5b195960da1b6064820152608401610a74565b60006123cc7f0000000000000000000000000000000000000000000000000000000000000000612d4f565b905060006123db610913611e7b565b90506123f3846123ee6107e08685611f06565b612dbd565b6123fc83612e41565b836001600160a01b03167fe1fffcc4923d04b559f4d29a8bfc6cda04eb5b0d3c460751c2402c5c5cc9109c84604051610aef91815260200190565b600a546001600160a01b0383811691161461267557806001600160a01b0316630dfe16816040518163ffffffff1660e01b8152600401602060405180830381865afa15801561248a573d6000803e3d6000fd5b505050506040513d601f19601f820116820180604052508101906124ae9190613d94565b6001600160a01b0316826001600160a01b03160361256157600a546040805163d21220a760e01b815290516001600160a01b039283169284169163d21220a79160048083019260209291908290030181865afa158015612512573d6000803e3d6000fd5b505050506040513d601f19601f820116820180604052508101906125369190613d94565b6001600160a01b03161461255c5760405162461bcd60e51b8152600401610a7490613e09565b612675565b600a5460408051630dfe168160e01b815290516001600160a01b0392831692841691630dfe16819160048083019260209291908290030181865afa1580156125ad573d6000803e3d6000fd5b505050506040513d601f19601f820116820180604052508101906125d19190613d94565b6001600160a01b03161480156126595750816001600160a01b0316816001600160a01b031663d21220a76040518163ffffffff1660e01b8152600401602060405180830381865afa15801561262a573d6000803e3d6000fd5b505050506040513d601f19601f8201168201806040525081019061264e9190613d94565b6001600160a01b0316145b6126755760405162461bcd60e51b8152600401610a7490613e09565b6001600160a01b03828116600090815260136020526040902080546001600160a01b0319169183169190911790556014546126b1906001611b4c565b6014555050565b60165460405163f2801fe760e01b8152306004820152600060248201819052916001600160a01b03169063f2801fe7906044016040805180830381865afa158015612707573d6000803e3d6000fd5b505050506040513d601f19601f8201168201806040525081019061272b9190613e66565b5092915050565b601660009054906101000a90046001600160a01b03166001600160a01b031663db2e21bc6040518163ffffffff1660e01b8152600401600060405180830381600087803b15801561278257600080fd5b505af1158015612796573d6000803e3d6000fd5b505060095460165460405163095ea7b360e01b81526001600160a01b039182166004820152600060248201529116925063095ea7b391506044016020604051808303816000875af11580156127ef573d6000803e3d6000fd5b505050506040513d601f19601f82011682018060405250810190610b079190613c7c565b60606000806128417f0000000000000000000000000000000000000000000000000000000000000000612ecd565b600a546040516370a0823160e01b81523060048201529192506000916001600160a01b03909116906370a0823190602401602060405180830381865afa15801561288f573d6000803e3d6000fd5b505050506040513d601f19601f820116820180604052508101906128b39190613c99565b905060005b8251811015612a8f5760008382815181106128d5576128d5613e8a565b60200260200101516000015190506000601360008685815181106128fb576128fb613e8a565b602090810291909101810151516001600160a01b03908116835290820192909252604090810160009081205491516370a0823160e01b81523060048201529183169350918416906370a0823190602401602060405180830381865afa158015612968573d6000803e3d6000fd5b505050506040513d601f19601f8201168201806040525081019061298c9190613c99565b600a549091506001600160a01b03848116911614612a465760006129d68786815181106129bb576129bb613e8a565b60200260200101516020015183611b4c90919063ffffffff16565b90506000811180156129f057506001600160a01b03831615155b15612a4057600a54612a1a90612a1390839087906001600160a01b0316876130fa565b8790611b4c565b955080878681518110612a2f57612a2f613e8a565b602002602001015160200181815250505b50612a79565b612a76868581518110612a5b57612a5b613e8a565b60200260200101516020015186611b4c90919063ffffffff16565b94505b5050508080612a8790613cc8565b9150506128b8565b5090939092509050565b6000612aa3611911565b60405161190160f01b602082015260228101919091526042810186905260620160408051601f198184030181528282528051602091820120600080855291840180845281905260ff88169284019290925260608301869052608083018590529092509060019060a0016020604051602081039080840390855afa158015612b2e573d6000803e3d6000fd5b5050604051601f1901519150506001600160a01b03811615801590612b645750866001600160a01b0316816001600160a01b0316145b612bbc5760405162461bcd60e51b8152602060048201526024808201527f417263683a3a76616c69646174655369673a20696e76616c6964207369676e616044820152637475726560e01b6064820152608401610a74565b50505050505050565b612bee7f00000000000000000000000000000000000000000000000000000000000000006131b8565b6000612bf982613212565b90506000612c1861271061091d60115485611eee90919063ffffffff16565b90508015612c3d57600a54600b54612c3d916001600160a01b0390811691168361209b565b6000612c5a61271061091d60105486611eee90919063ffffffff16565b90508015612c7957600a54612c79906001600160a01b0316338361209b565b6000612c97612c9283612c8c8787611f06565b90611f06565b6133eb565b9050612ca281612e41565b7fc7606d21ac05cd309191543e409f0845c016120563783d70e4f41419dc0ef234612ccb610f16565b6002546040805192835260208301919091520160405180910390a15050505050565b601654604051632e1a7d4d60e01b8152600481018390526001600160a01b0390911690632e1a7d4d90602401600060405180830381600087803b158015612d3357600080fd5b505af1158015612d47573d6000803e3d6000fd5b505050505050565b60165460408051636609295760e11b815290516000926001600160a01b03169163cc1252ae9160048083019260209291908290030181865afa158015612d99573d6000803e3d6000fd5b505050506040513d601f19601f82011682018060405250810190610f429190613c99565b600254612dca9082611b4c565b6002556001600160a01b038216600090815260046020526040902054612df09082611b4c565b6001600160a01b0383166000818152600460205260408082209390935591519091907fddf252ad1be2c89b69c2b068fc378daa952ba7f163c4a11628f55a4df523b3ef9061223c9085815260200190565b60008111612ea35760405162461bcd60e51b815260206004820152602960248201527f4d617374657243686566537472617465677956313a3a5f7374616b654465706f604482015268736974546f6b656e7360b81b6064820152608401610a74565b6116707f000000000000000000000000000000000000000000000000000000000000000082613413565b60606000601660009054906101000a90046001600160a01b03166001600160a01b031663bf199e626040518163ffffffff1660e01b8152600401602060405180830381865afa158015612f24573d6000803e3d6000fd5b505050506040513d601f19601f82011682018060405250810190612f489190613c99565b905060008167ffffffffffffffff811115612f6557612f65613ea0565b604051908082528060200260200182016040528015612faa57816020015b6040805180820190915260008082526020820152815260200190600190039081612f835790505b50905060005b828110156130f257601654604051637bb7bed160e01b8152600481018390526000916001600160a01b031690637bb7bed190602401602060405180830381865afa158015613002573d6000803e3d6000fd5b505050506040513d601f19601f820116820180604052508101906130269190613d94565b601654604051634e76bf3b60e11b81523060048201526001600160a01b03808416602483015292935060009290911690639ced7e7690604401602060405180830381865afa15801561307c573d6000803e3d6000fd5b505050506040513d601f19601f820116820180604052508101906130a09190613c99565b90506040518060400160405280836001600160a01b03168152602001828152508484815181106130d2576130d2613e8a565b6020026020010181905250505080806130ea90613cc8565b915050612fb0565b509392505050565b6000806131078585613564565b509050600080846001600160a01b0316630902f1ac6040518163ffffffff1660e01b8152600401606060405180830381865afa15801561314b573d6000803e3d6000fd5b505050506040513d601f19601f8201168201806040525081019061316f9190613ecd565b5091509150866001600160a01b0316836001600160a01b03161461318f57905b6131ac88836001600160701b0316836001600160701b0316613595565b98975050505050505050565b60165460405163b6b55f2560e01b8152600060048201526001600160a01b039091169063b6b55f2590602401600060405180830381600087803b1580156131fe57600080fd5b505af1158015610bd1573d6000803e3d6000fd5b600a546040516370a0823160e01b815230600482015260009182916001600160a01b03909116906370a0823190602401602060405180830381865afa15801561325f573d6000803e3d6000fd5b505050506040513d601f19601f820116820180604052508101906132839190613c99565b905060005b835181101561272b5760008482815181106132a5576132a5613e8a565b602090810291909101810151516001600160a01b0380821660009081526013909352604083205488519294501691908790859081106132e6576132e6613e8a565b602002602001015160200151905060008111156133d557600a546001600160a01b039081169084160361339e574780156133985773b31f66aa3c1e785363f0875a1b74e27b85fd66c76001600160a01b031663d0e30db0826040518263ffffffff1660e01b81526004016000604051808303818588803b15801561336957600080fd5b505af115801561337d573d6000803e3d6000fd5b50505050506133958287611b4c90919063ffffffff16565b95505b506133d5565b6001600160a01b038216156133d557600a546133d2906133cb90839086906001600160a01b0316866135e3565b8690611b4c565b94505b50505080806133e390613cc8565b915050613288565b600a54600954601554600092610f429285926001600160a01b039283169291821691166135e3565b60095460165460405163095ea7b360e01b81526001600160a01b0391821660048201526024810184905291169063095ea7b3906044016020604051808303816000875af1158015613468573d6000803e3d6000fd5b505050506040513d601f19601f8201168201806040525081019061348c9190613c7c565b5060165460405163b6b55f2560e01b8152600481018390526001600160a01b039091169063b6b55f2590602401600060405180830381600087803b1580156134d357600080fd5b505af11580156134e7573d6000803e3d6000fd5b505060095460165460405163095ea7b360e01b81526001600160a01b039182166004820152600060248201529116925063095ea7b391506044016020604051808303816000875af1158015613540573d6000803e3d6000fd5b505050506040513d601f19601f8201168201806040525081019061216d9190613c7c565b600080826001600160a01b0316846001600160a01b03161061358757828461358a565b83835b915091509250929050565b6000806135a4856103e5611eee565b905060006135b28285611eee565b905060006135cc836135c6886103e8611eee565b90611b4c565b90506135d88282611efa565b979650505050505050565b6000806135f08585613564565b509050600080846001600160a01b0316630902f1ac6040518163ffffffff1660e01b8152600401606060405180830381865afa158015613634573d6000803e3d6000fd5b505050506040513d601f19601f820116820180604052508101906136589190613ecd565b5091509150866001600160a01b0316836001600160a01b03161461367857905b6000806136988a856001600160701b0316856001600160701b0316613595565b9050886001600160a01b0316856001600160a01b0316146136b557905b6136c96001600160a01b038a16888c613757565b6040805160008152602081019182905263022c0d9f60e01b9091526001600160a01b0388169063022c0d9f906137089085908590309060248101613f1d565b600060405180830381600087803b15801561372257600080fd5b505af1158015613736573d6000803e3d6000fd5b505050508181116137475781613749565b805b9a9950505050505050505050565b604080516001600160a01b03848116602483015260448083018590528351808403909101815260649092018352602080830180516001600160e01b031663a9059cbb60e01b17905283518085019094528084527f5361666545524332303a206c6f772d6c6576656c2063616c6c206661696c65649084015261216d928692916000916137e7918516908490613864565b80519091501561216d57808060200190518101906138059190613c7c565b61216d5760405162461bcd60e51b815260206004820152602a60248201527f5361666545524332303a204552433230206f7065726174696f6e20646964206e6044820152691bdd081cdd58d8d9595960b21b6064820152608401610a74565b6060611d658484600085856001600160a01b0385163b6138c65760405162461bcd60e51b815260206004820152601d60248201527f416464726573733a2063616c6c20746f206e6f6e2d636f6e74726163740000006044820152606401610a74565b600080866001600160a01b031685876040516138e29190613f54565b60006040518083038185875af1925050503d806000811461391f576040519150601f19603f3d011682016040523d82523d6000602084013e613924565b606091505b50915091506135d88282866060831561393e575081610a14565b82511561394e5782518084602001fd5b8160405162461bcd60e51b8152600401610a7491906139c0565b60005b8381101561398357818101518382015260200161396b565b838111156116605750506000910152565b600081518084526139ac816020860160208601613968565b601f01601f19169290920160200192915050565b602081526000610a146020830184613994565b6001600160a01b038116811461167057600080fd5b600080604083850312156139fb57600080fd5b8235613a06816139d3565b946020939093013593505050565b600080600060608486031215613a2957600080fd5b8335613a34816139d3565b92506020840135613a44816139d3565b929592945050506040919091013590565b600060208284031215613a6757600080fd5b5035919050565b60008060408385031215613a8157600080fd5b8235613a8c816139d3565b91506020830135613a9c816139d3565b809150509250929050565b600060208284031215613ab957600080fd5b8135610a14816139d3565b803560ff81168114613ad557600080fd5b919050565b600080600080600060a08688031215613af257600080fd5b8535945060208601359350613b0960408701613ac4565b94979396509394606081013594506080013592915050565b801515811461167057600080fd5b600060208284031215613b4157600080fd5b8135610a1481613b21565b60008060408385031215613b5f57600080fd5b823591506020830135613a9c81613b21565b600080600080600080600060e0888a031215613b8c57600080fd5b8735613b97816139d3565b96506020880135613ba7816139d3565b95506040880135945060608801359350613bc360808901613ac4565b925060a0880135915060c0880135905092959891949750929550565b600181811c90821680613bf357607f821691505b602082108103613c1357634e487b7160e01b600052602260045260246000fd5b50919050565b6020808252601490820152732cb0b5a9ba3930ba32b3bc9d1d37b7363ca232bb60611b604082015260600190565b6020808252818101527f4f776e61626c653a2063616c6c6572206973206e6f7420746865206f776e6572604082015260600190565b600060208284031215613c8e57600080fd5b8151610a1481613b21565b600060208284031215613cab57600080fd5b5051919050565b634e487b7160e01b600052601160045260246000fd5b600060018201613cda57613cda613cb2565b5060010190565b600080835481600182811c915080831680613cfd57607f831692505b60208084108203613d1c57634e487b7160e01b86526022600452602486fd5b818015613d305760018114613d4157613d6e565b60ff19861689528489019650613d6e565b60008a81526020902060005b86811015613d665781548b820152908501908301613d4d565b505084890196505b509498975050505050505050565b60008219821115613d8f57613d8f613cb2565b500190565b600060208284031215613da657600080fd5b8151610a14816139d3565b6000816000190483118215151615613dcb57613dcb613cb2565b500290565b600082613ded57634e487b7160e01b600052601260045260246000fd5b500490565b600082821015613e0457613e04613cb2565b500390565b6020808252603a908201527f537761702070616972207377617050616972506f6f6c52657761726420646f6560408201527f73206e6f7420636f6e7461696e2072657761726420746f6b656e000000000000606082015260800190565b60008060408385031215613e7957600080fd5b505080516020909101519092909150565b634e487b7160e01b600052603260045260246000fd5b634e487b7160e01b600052604160045260246000fd5b80516001600160701b0381168114613ad557600080fd5b600080600060608486031215613ee257600080fd5b613eeb84613eb6565b9250613ef960208501613eb6565b9150604084015163ffffffff81168114613f1257600080fd5b809150509250925092565b84815283602082015260018060a01b0383166040820152608060608201526000613f4a6080830184613994565b9695505050505050565b60008251613f66818460208701613968565b919091019291505056fe5f6275726e3a206275726e20616d6f756e74206578636565647320746f74616c20737570706c797472616e7366657246726f6d3a207472616e7366657220616d6f756e74206578636565647320616c6c6f77616e63655f6275726e3a206275726e20616d6f756e7420657863656564732066726f6d2062616c616e63655f7472616e73666572546f6b656e733a207472616e7366657220657863656564732066726f6d2062616c616e6365a2646970667358221220c32b24ccf46b1513f22b728769b20404ba1782c05baf87a82969aa2f1bbe387164736f6c634300080d0033537761702070616972207377617050616972506f6f6c52657761726420646f654f776e61626c653a2063616c6c6572206973206e6f7420746865206f776e65728be0079c531659141344cd1fd0a4f28419497f9722a3daafe3b4186f6b6457e0",
    "linkReferences": {}
  },
  "methodIdentifiers": {
    "ADMIN_FEE_BIPS()": "07677111",
    "DEPOSITS_ENABLED()": "b52a321f",
    "DEV_FEE_BIPS()": "5ea682ea",
    "DOMAIN_TYPEHASH()": "20606b70",
    "MAX_TOKENS_TO_DEPOSIT_WITHOUT_REINVEST()": "789139bc",
    "MIN_TOKENS_TO_REINVEST()": "bd079f55",
    "PERMIT_TYPEHASH()": "30adf81f",
    "PID()": "5eaec0e4",
    "REINVEST_REWARD_BIPS()": "8aff733d",
    "VERSION_HASH()": "9e4e7318",
    "addReward(address,address)": "40b47e1a",
    "allowDepositor(address)": "4bebd1e7",
    "allowance(address,address)": "dd62ed3e",
    "allowedDepositors(address)": "483c2ef0",
    "approve(address,uint256)": "095ea7b3",
    "balanceOf(address)": "70a08231",
    "checkReward()": "c4b24a46",
    "decimals()": "313ce567",
    "deposit(uint256)": "b6b55f25",
    "depositFor(address,uint256)": "2f4f21e2",
    "depositToken()": "c89039c5",
    "depositWithPermit(uint256,uint256,uint8,bytes32,bytes32)": "4a970be7",
    "devAddr()": "da09c72c",
    "estimateDeployedBalance()": "0f23475d",
    "estimateReinvestReward()": "b9e57b80",
    "getDepositTokensForShares(uint256)": "eab89a5a",
    "getDomainSeparator()": "ed24911d",
    "getSharesForDepositTokens(uint256)": "dd8ce4d6",
    "name()": "06fdde03",
    "nonces(address)": "7ecebe00",
    "numberOfAllowedDepositors()": "3bdc6e72",
    "owner()": "8da5cb5b",
    "permit(address,address,uint256,uint256,uint8,bytes32,bytes32)": "d505accf",
    "recoverAVAX(uint256)": "4ebb7916",
    "recoverERC20(address,uint256)": "8980f11f",
    "reinvest()": "fdb5a03e",
    "removeDepositor(address)": "8b73e606",
    "removeReward(address)": "a4d5e67c",
    "renounceOwnership()": "715018a6",
    "rescueDeployedFunds(uint256,bool)": "ac0d31ff",
    "revokeAllowance(address,address)": "7ae26773",
    "rewardCount()": "79085425",
    "rewardSwapPairs(address)": "a5534e71",
    "rewardToken()": "f7c618c1",
    "stakingContract()": "ee99205c",
    "symbol()": "95d89b41",
    "totalDeposits()": "7d882097",
    "totalSupply()": "18160ddd",
    "transfer(address,uint256)": "a9059cbb",
    "transferFrom(address,address,uint256)": "23b872dd",
    "transferOwnership(address)": "f2fde38b",
    "updateAdminFee(uint256)": "cff1b6ef",
    "updateDepositsEnabled(bool)": "4e77ace5",
    "updateDevAddr(address)": "9291d563",
    "updateDevFee(uint256)": "99729ec1",
    "updateMaxTokensToDepositWithoutReinvest(uint256)": "e21ac825",
    "updateMinTokensToReinvest(uint256)": "81837230",
    "updateReinvestReward(uint256)": "a8ae2b7c",
    "withdraw(uint256)": "2e1a7d4d"
  },
  "id": 138
}