{
  "abi": [
    {
      "inputs": [
        {
          "internalType": "string",
          "name": "_name",
          "type": "string"
        },
        {
          "internalType": "address",
          "name": "_depositToken",
          "type": "address"
        },
        {
          "internalType": "address",
          "name": "_rewardToken",
          "type": "address"
        },
        {
          "internalType": "address",
          "name": "_nativeRewardToken",
          "type": "address"
        },
        {
          "components": [
            {
              "internalType": "address",
              "name": "poolReward",
              "type": "address"
            },
            {
              "internalType": "address",
              "name": "extraReward",
              "type": "address"
            },
            {
              "internalType": "address",
              "name": "token0",
              "type": "address"
            },
            {
              "internalType": "address",
              "name": "token1",
              "type": "address"
            }
          ],
          "internalType": "struct MasterChefStrategyForLP.SwapPairs",
          "name": "_swapPairs",
          "type": "tuple"
        },
        {
          "internalType": "address",
          "name": "_stakingRewards",
          "type": "address"
        },
        {
          "internalType": "uint256",
          "name": "_pid",
          "type": "uint256"
        },
        {
          "internalType": "address",
          "name": "_timelock",
          "type": "address"
        },
        {
          "components": [
            {
              "internalType": "uint256",
              "name": "minTokensToReinvest",
              "type": "uint256"
            },
            {
              "internalType": "uint256",
              "name": "devFeeBips",
              "type": "uint256"
            },
            {
              "internalType": "uint256",
              "name": "reinvestRewardBips",
              "type": "uint256"
            }
          ],
          "internalType": "struct YakStrategyV2.StrategySettings",
          "name": "_strategySettings",
          "type": "tuple"
        }
      ],
      "stateMutability": "nonpayable",
      "type": "constructor"
    },
    {
      "anonymous": false,
      "inputs": [
        {
          "indexed": true,
          "internalType": "address",
          "name": "account",
          "type": "address"
        }
      ],
      "name": "AllowDepositor",
      "type": "event"
    },
    {
      "anonymous": false,
      "inputs": [
        {
          "indexed": true,
          "internalType": "address",
          "name": "owner",
          "type": "address"
        },
        {
          "indexed": true,
          "internalType": "address",
          "name": "spender",
          "type": "address"
        },
        {
          "indexed": false,
          "internalType": "uint256",
          "name": "value",
          "type": "uint256"
        }
      ],
      "name": "Approval",
      "type": "event"
    },
    {
      "anonymous": false,
      "inputs": [
        {
          "indexed": true,
          "internalType": "address",
          "name": "account",
          "type": "address"
        },
        {
          "indexed": false,
          "internalType": "uint256",
          "name": "amount",
          "type": "uint256"
        }
      ],
      "name": "Deposit",
      "type": "event"
    },
    {
      "anonymous": false,
      "inputs": [
        {
          "indexed": false,
          "internalType": "bool",
          "name": "newValue",
          "type": "bool"
        }
      ],
      "name": "DepositsEnabled",
      "type": "event"
    },
    {
      "anonymous": false,
      "inputs": [
        {
          "indexed": true,
          "internalType": "address",
          "name": "previousOwner",
          "type": "address"
        },
        {
          "indexed": true,
          "internalType": "address",
          "name": "newOwner",
          "type": "address"
        }
      ],
      "name": "OwnershipTransferred",
      "type": "event"
    },
    {
      "anonymous": false,
      "inputs": [
        {
          "indexed": false,
          "internalType": "address",
          "name": "token",
          "type": "address"
        },
        {
          "indexed": false,
          "internalType": "uint256",
          "name": "amount",
          "type": "uint256"
        }
      ],
      "name": "Recovered",
      "type": "event"
    },
    {
      "anonymous": false,
      "inputs": [
        {
          "indexed": false,
          "internalType": "uint256",
          "name": "newTotalDeposits",
          "type": "uint256"
        },
        {
          "indexed": false,
          "internalType": "uint256",
          "name": "newTotalSupply",
          "type": "uint256"
        }
      ],
      "name": "Reinvest",
      "type": "event"
    },
    {
      "anonymous": false,
      "inputs": [
        {
          "indexed": true,
          "internalType": "address",
          "name": "account",
          "type": "address"
        }
      ],
      "name": "RemoveDepositor",
      "type": "event"
    },
    {
      "anonymous": false,
      "inputs": [
        {
          "indexed": true,
          "internalType": "address",
          "name": "from",
          "type": "address"
        },
        {
          "indexed": true,
          "internalType": "address",
          "name": "to",
          "type": "address"
        },
        {
          "indexed": false,
          "internalType": "uint256",
          "name": "value",
          "type": "uint256"
        }
      ],
      "name": "Transfer",
      "type": "event"
    },
    {
      "anonymous": false,
      "inputs": [
        {
          "indexed": false,
          "internalType": "uint256",
          "name": "oldValue",
          "type": "uint256"
        },
        {
          "indexed": false,
          "internalType": "uint256",
          "name": "newValue",
          "type": "uint256"
        }
      ],
      "name": "UpdateAdminFee",
      "type": "event"
    },
    {
      "anonymous": false,
      "inputs": [
        {
          "indexed": false,
          "internalType": "address",
          "name": "oldValue",
          "type": "address"
        },
        {
          "indexed": false,
          "internalType": "address",
          "name": "newValue",
          "type": "address"
        }
      ],
      "name": "UpdateDevAddr",
      "type": "event"
    },
    {
      "anonymous": false,
      "inputs": [
        {
          "indexed": false,
          "internalType": "uint256",
          "name": "oldValue",
          "type": "uint256"
        },
        {
          "indexed": false,
          "internalType": "uint256",
          "name": "newValue",
          "type": "uint256"
        }
      ],
      "name": "UpdateDevFee",
      "type": "event"
    },
    {
      "anonymous": false,
      "inputs": [
        {
          "indexed": false,
          "internalType": "uint256",
          "name": "oldValue",
          "type": "uint256"
        },
        {
          "indexed": false,
          "internalType": "uint256",
          "name": "newValue",
          "type": "uint256"
        }
      ],
      "name": "UpdateMaxTokensToDepositWithoutReinvest",
      "type": "event"
    },
    {
      "anonymous": false,
      "inputs": [
        {
          "indexed": false,
          "internalType": "uint256",
          "name": "oldValue",
          "type": "uint256"
        },
        {
          "indexed": false,
          "internalType": "uint256",
          "name": "newValue",
          "type": "uint256"
        }
      ],
      "name": "UpdateMinTokensToReinvest",
      "type": "event"
    },
    {
      "anonymous": false,
      "inputs": [
        {
          "indexed": false,
          "internalType": "uint256",
          "name": "oldValue",
          "type": "uint256"
        },
        {
          "indexed": false,
          "internalType": "uint256",
          "name": "newValue",
          "type": "uint256"
        }
      ],
      "name": "UpdateReinvestReward",
      "type": "event"
    },
    {
      "anonymous": false,
      "inputs": [
        {
          "indexed": true,
          "internalType": "address",
          "name": "account",
          "type": "address"
        },
        {
          "indexed": false,
          "internalType": "uint256",
          "name": "amount",
          "type": "uint256"
        }
      ],
      "name": "Withdraw",
      "type": "event"
    },
    {
      "inputs": [],
      "name": "ADMIN_FEE_BIPS",
      "outputs": [
        {
          "internalType": "uint256",
          "name": "",
          "type": "uint256"
        }
      ],
      "stateMutability": "view",
      "type": "function"
    },
    {
      "inputs": [],
      "name": "DEPOSITS_ENABLED",
      "outputs": [
        {
          "internalType": "bool",
          "name": "",
          "type": "bool"
        }
      ],
      "stateMutability": "view",
      "type": "function"
    },
    {
      "inputs": [],
      "name": "DEV_FEE_BIPS",
      "outputs": [
        {
          "internalType": "uint256",
          "name": "",
          "type": "uint256"
        }
      ],
      "stateMutability": "view",
      "type": "function"
    },
    {
      "inputs": [],
      "name": "DOMAIN_TYPEHASH",
      "outputs": [
        {
          "internalType": "bytes32",
          "name": "",
          "type": "bytes32"
        }
      ],
      "stateMutability": "view",
      "type": "function"
    },
    {
      "inputs": [],
      "name": "MAX_TOKENS_TO_DEPOSIT_WITHOUT_REINVEST",
      "outputs": [
        {
          "internalType": "uint256",
          "name": "",
          "type": "uint256"
        }
      ],
      "stateMutability": "view",
      "type": "function"
    },
    {
      "inputs": [],
      "name": "MIN_TOKENS_TO_REINVEST",
      "outputs": [
        {
          "internalType": "uint256",
          "name": "",
          "type": "uint256"
        }
      ],
      "stateMutability": "view",
      "type": "function"
    },
    {
      "inputs": [],
      "name": "PERMIT_TYPEHASH",
      "outputs": [
        {
          "internalType": "bytes32",
          "name": "",
          "type": "bytes32"
        }
      ],
      "stateMutability": "view",
      "type": "function"
    },
    {
      "inputs": [],
      "name": "PID",
      "outputs": [
        {
          "internalType": "uint256",
          "name": "",
          "type": "uint256"
        }
      ],
      "stateMutability": "view",
      "type": "function"
    },
    {
      "inputs": [],
      "name": "REINVEST_REWARD_BIPS",
      "outputs": [
        {
          "internalType": "uint256",
          "name": "",
          "type": "uint256"
        }
      ],
      "stateMutability": "view",
      "type": "function"
    },
    {
      "inputs": [],
      "name": "VERSION_HASH",
      "outputs": [
        {
          "internalType": "bytes32",
          "name": "",
          "type": "bytes32"
        }
      ],
      "stateMutability": "view",
      "type": "function"
    },
    {
      "inputs": [
        {
          "internalType": "address",
          "name": "depositor",
          "type": "address"
        }
      ],
      "name": "allowDepositor",
      "outputs": [],
      "stateMutability": "nonpayable",
      "type": "function"
    },
    {
      "inputs": [
        {
          "internalType": "address",
          "name": "account",
          "type": "address"
        },
        {
          "internalType": "address",
          "name": "spender",
          "type": "address"
        }
      ],
      "name": "allowance",
      "outputs": [
        {
          "internalType": "uint256",
          "name": "",
          "type": "uint256"
        }
      ],
      "stateMutability": "view",
      "type": "function"
    },
    {
      "inputs": [
        {
          "internalType": "address",
          "name": "",
          "type": "address"
        }
      ],
      "name": "allowedDepositors",
      "outputs": [
        {
          "internalType": "bool",
          "name": "",
          "type": "bool"
        }
      ],
      "stateMutability": "view",
      "type": "function"
    },
    {
      "inputs": [
        {
          "internalType": "address",
          "name": "spender",
          "type": "address"
        },
        {
          "internalType": "uint256",
          "name": "amount",
          "type": "uint256"
        }
      ],
      "name": "approve",
      "outputs": [
        {
          "internalType": "bool",
          "name": "",
          "type": "bool"
        }
      ],
      "stateMutability": "nonpayable",
      "type": "function"
    },
    {
      "inputs": [
        {
          "internalType": "address",
          "name": "account",
          "type": "address"
        }
      ],
      "name": "balanceOf",
      "outputs": [
        {
          "internalType": "uint256",
          "name": "",
          "type": "uint256"
        }
      ],
      "stateMutability": "view",
      "type": "function"
    },
    {
      "inputs": [],
      "name": "checkReward",
      "outputs": [
        {
          "internalType": "uint256",
          "name": "",
          "type": "uint256"
        }
      ],
      "stateMutability": "view",
      "type": "function"
    },
    {
      "inputs": [],
      "name": "decimals",
      "outputs": [
        {
          "internalType": "uint8",
          "name": "",
          "type": "uint8"
        }
      ],
      "stateMutability": "view",
      "type": "function"
    },
    {
      "inputs": [
        {
          "internalType": "uint256",
          "name": "amount",
          "type": "uint256"
        }
      ],
      "name": "deposit",
      "outputs": [],
      "stateMutability": "nonpayable",
      "type": "function"
    },
    {
      "inputs": [
        {
          "internalType": "address",
          "name": "account",
          "type": "address"
        },
        {
          "internalType": "uint256",
          "name": "amount",
          "type": "uint256"
        }
      ],
      "name": "depositFor",
      "outputs": [],
      "stateMutability": "nonpayable",
      "type": "function"
    },
    {
      "inputs": [],
      "name": "depositToken",
      "outputs": [
        {
          "internalType": "contract IERC20",
          "name": "",
          "type": "address"
        }
      ],
      "stateMutability": "view",
      "type": "function"
    },
    {
      "inputs": [
        {
          "internalType": "uint256",
          "name": "amount",
          "type": "uint256"
        },
        {
          "internalType": "uint256",
          "name": "deadline",
          "type": "uint256"
        },
        {
          "internalType": "uint8",
          "name": "v",
          "type": "uint8"
        },
        {
          "internalType": "bytes32",
          "name": "r",
          "type": "bytes32"
        },
        {
          "internalType": "bytes32",
          "name": "s",
          "type": "bytes32"
        }
      ],
      "name": "depositWithPermit",
      "outputs": [],
      "stateMutability": "nonpayable",
      "type": "function"
    },
    {
      "inputs": [],
      "name": "devAddr",
      "outputs": [
        {
          "internalType": "address",
          "name": "",
          "type": "address"
        }
      ],
      "stateMutability": "view",
      "type": "function"
    },
    {
      "inputs": [],
      "name": "estimateDeployedBalance",
      "outputs": [
        {
          "internalType": "uint256",
          "name": "",
          "type": "uint256"
        }
      ],
      "stateMutability": "view",
      "type": "function"
    },
    {
      "inputs": [],
      "name": "estimateReinvestReward",
      "outputs": [
        {
          "internalType": "uint256",
          "name": "",
          "type": "uint256"
        }
      ],
      "stateMutability": "view",
      "type": "function"
    },
    {
      "inputs": [],
      "name": "extraToken",
      "outputs": [
        {
          "internalType": "address",
          "name": "",
          "type": "address"
        }
      ],
      "stateMutability": "view",
      "type": "function"
    },
    {
      "inputs": [
        {
          "internalType": "uint256",
          "name": "amount",
          "type": "uint256"
        }
      ],
      "name": "getDepositTokensForShares",
      "outputs": [
        {
          "internalType": "uint256",
          "name": "",
          "type": "uint256"
        }
      ],
      "stateMutability": "view",
      "type": "function"
    },
    {
      "inputs": [],
      "name": "getDomainSeparator",
      "outputs": [
        {
          "internalType": "bytes32",
          "name": "",
          "type": "bytes32"
        }
      ],
      "stateMutability": "view",
      "type": "function"
    },
    {
      "inputs": [
        {
          "internalType": "uint256",
          "name": "amount",
          "type": "uint256"
        }
      ],
      "name": "getSharesForDepositTokens",
      "outputs": [
        {
          "internalType": "uint256",
          "name": "",
          "type": "uint256"
        }
      ],
      "stateMutability": "view",
      "type": "function"
    },
    {
      "inputs": [],
      "name": "joeChef",
      "outputs": [
        {
          "internalType": "contract IJoeChef",
          "name": "",
          "type": "address"
        }
      ],
      "stateMutability": "view",
      "type": "function"
    },
    {
      "inputs": [],
      "name": "name",
      "outputs": [
        {
          "internalType": "string",
          "name": "",
          "type": "string"
        }
      ],
      "stateMutability": "view",
      "type": "function"
    },
    {
      "inputs": [
        {
          "internalType": "address",
          "name": "",
          "type": "address"
        }
      ],
      "name": "nonces",
      "outputs": [
        {
          "internalType": "uint256",
          "name": "",
          "type": "uint256"
        }
      ],
      "stateMutability": "view",
      "type": "function"
    },
    {
      "inputs": [],
      "name": "numberOfAllowedDepositors",
      "outputs": [
        {
          "internalType": "uint256",
          "name": "",
          "type": "uint256"
        }
      ],
      "stateMutability": "view",
      "type": "function"
    },
    {
      "inputs": [],
      "name": "owner",
      "outputs": [
        {
          "internalType": "address",
          "name": "",
          "type": "address"
        }
      ],
      "stateMutability": "view",
      "type": "function"
    },
    {
      "inputs": [
        {
          "internalType": "address",
          "name": "owner",
          "type": "address"
        },
        {
          "internalType": "address",
          "name": "spender",
          "type": "address"
        },
        {
          "internalType": "uint256",
          "name": "value",
          "type": "uint256"
        },
        {
          "internalType": "uint256",
          "name": "deadline",
          "type": "uint256"
        },
        {
          "internalType": "uint8",
          "name": "v",
          "type": "uint8"
        },
        {
          "internalType": "bytes32",
          "name": "r",
          "type": "bytes32"
        },
        {
          "internalType": "bytes32",
          "name": "s",
          "type": "bytes32"
        }
      ],
      "name": "permit",
      "outputs": [],
      "stateMutability": "nonpayable",
      "type": "function"
    },
    {
      "inputs": [
        {
          "internalType": "uint256",
          "name": "amount",
          "type": "uint256"
        }
      ],
      "name": "recoverAVAX",
      "outputs": [],
      "stateMutability": "nonpayable",
      "type": "function"
    },
    {
      "inputs": [
        {
          "internalType": "address",
          "name": "tokenAddress",
          "type": "address"
        },
        {
          "internalType": "uint256",
          "name": "tokenAmount",
          "type": "uint256"
        }
      ],
      "name": "recoverERC20",
      "outputs": [],
      "stateMutability": "nonpayable",
      "type": "function"
    },
    {
      "inputs": [],
      "name": "reinvest",
      "outputs": [],
      "stateMutability": "nonpayable",
      "type": "function"
    },
    {
      "inputs": [
        {
          "internalType": "address",
          "name": "depositor",
          "type": "address"
        }
      ],
      "name": "removeDepositor",
      "outputs": [],
      "stateMutability": "nonpayable",
      "type": "function"
    },
    {
      "inputs": [],
      "name": "renounceOwnership",
      "outputs": [],
      "stateMutability": "nonpayable",
      "type": "function"
    },
    {
      "inputs": [
        {
          "internalType": "uint256",
          "name": "minReturnAmountAccepted",
          "type": "uint256"
        },
        {
          "internalType": "bool",
          "name": "disableDeposits",
          "type": "bool"
        }
      ],
      "name": "rescueDeployedFunds",
      "outputs": [],
      "stateMutability": "nonpayable",
      "type": "function"
    },
    {
      "inputs": [
        {
          "internalType": "address",
          "name": "token",
          "type": "address"
        },
        {
          "internalType": "address",
          "name": "spender",
          "type": "address"
        }
      ],
      "name": "revokeAllowance",
      "outputs": [],
      "stateMutability": "nonpayable",
      "type": "function"
    },
    {
      "inputs": [],
      "name": "rewardToken",
      "outputs": [
        {
          "internalType": "contract IERC20",
          "name": "",
          "type": "address"
        }
      ],
      "stateMutability": "view",
      "type": "function"
    },
    {
      "inputs": [
        {
          "internalType": "address",
          "name": "_extraTokenSwapPair",
          "type": "address"
        }
      ],
      "name": "setExtraRewardSwapPair",
      "outputs": [],
      "stateMutability": "nonpayable",
      "type": "function"
    },
    {
      "inputs": [],
      "name": "swapPairExtraReward",
      "outputs": [
        {
          "internalType": "address",
          "name": "",
          "type": "address"
        }
      ],
      "stateMutability": "view",
      "type": "function"
    },
    {
      "inputs": [],
      "name": "swapPairRewardToken",
      "outputs": [
        {
          "internalType": "address",
          "name": "",
          "type": "address"
        }
      ],
      "stateMutability": "view",
      "type": "function"
    },
    {
      "inputs": [],
      "name": "symbol",
      "outputs": [
        {
          "internalType": "string",
          "name": "",
          "type": "string"
        }
      ],
      "stateMutability": "view",
      "type": "function"
    },
    {
      "inputs": [],
      "name": "totalDeposits",
      "outputs": [
        {
          "internalType": "uint256",
          "name": "",
          "type": "uint256"
        }
      ],
      "stateMutability": "view",
      "type": "function"
    },
    {
      "inputs": [],
      "name": "totalSupply",
      "outputs": [
        {
          "internalType": "uint256",
          "name": "",
          "type": "uint256"
        }
      ],
      "stateMutability": "view",
      "type": "function"
    },
    {
      "inputs": [
        {
          "internalType": "address",
          "name": "dst",
          "type": "address"
        },
        {
          "internalType": "uint256",
          "name": "amount",
          "type": "uint256"
        }
      ],
      "name": "transfer",
      "outputs": [
        {
          "internalType": "bool",
          "name": "",
          "type": "bool"
        }
      ],
      "stateMutability": "nonpayable",
      "type": "function"
    },
    {
      "inputs": [
        {
          "internalType": "address",
          "name": "src",
          "type": "address"
        },
        {
          "internalType": "address",
          "name": "dst",
          "type": "address"
        },
        {
          "internalType": "uint256",
          "name": "amount",
          "type": "uint256"
        }
      ],
      "name": "transferFrom",
      "outputs": [
        {
          "internalType": "bool",
          "name": "",
          "type": "bool"
        }
      ],
      "stateMutability": "nonpayable",
      "type": "function"
    },
    {
      "inputs": [
        {
          "internalType": "address",
          "name": "newOwner",
          "type": "address"
        }
      ],
      "name": "transferOwnership",
      "outputs": [],
      "stateMutability": "nonpayable",
      "type": "function"
    },
    {
      "inputs": [
        {
          "internalType": "uint256",
          "name": "newValue",
          "type": "uint256"
        }
      ],
      "name": "updateAdminFee",
      "outputs": [],
      "stateMutability": "nonpayable",
      "type": "function"
    },
    {
      "inputs": [
        {
          "internalType": "bool",
          "name": "newValue",
          "type": "bool"
        }
      ],
      "name": "updateDepositsEnabled",
      "outputs": [],
      "stateMutability": "nonpayable",
      "type": "function"
    },
    {
      "inputs": [
        {
          "internalType": "address",
          "name": "newValue",
          "type": "address"
        }
      ],
      "name": "updateDevAddr",
      "outputs": [],
      "stateMutability": "nonpayable",
      "type": "function"
    },
    {
      "inputs": [
        {
          "internalType": "uint256",
          "name": "newValue",
          "type": "uint256"
        }
      ],
      "name": "updateDevFee",
      "outputs": [],
      "stateMutability": "nonpayable",
      "type": "function"
    },
    {
      "inputs": [
        {
          "internalType": "uint256",
          "name": "newValue",
          "type": "uint256"
        }
      ],
      "name": "updateMaxTokensToDepositWithoutReinvest",
      "outputs": [],
      "stateMutability": "nonpayable",
      "type": "function"
    },
    {
      "inputs": [
        {
          "internalType": "uint256",
          "name": "newValue",
          "type": "uint256"
        }
      ],
      "name": "updateMinTokensToReinvest",
      "outputs": [],
      "stateMutability": "nonpayable",
      "type": "function"
    },
    {
      "inputs": [
        {
          "internalType": "uint256",
          "name": "newValue",
          "type": "uint256"
        }
      ],
      "name": "updateReinvestReward",
      "outputs": [],
      "stateMutability": "nonpayable",
      "type": "function"
    },
    {
      "inputs": [
        {
          "internalType": "uint256",
          "name": "amount",
          "type": "uint256"
        }
      ],
      "name": "withdraw",
      "outputs": [],
      "stateMutability": "nonpayable",
      "type": "function"
    },
    {
      "stateMutability": "payable",
      "type": "receive"
    }
  ],
  "bytecode": {
    "object": "0x60e0604052600960a0819052685969656c642059616b60b81b60c09081526200002c91600091906200167a565b506040805180820190915260038082526216549560ea1b602090920191825262000059916001916200167a565b503480156200006757600080fd5b5060405162005d3a38038062005d3a8339810160408190526200008a9162001870565b88888888888688878787878787600001518860200151888888806000620000b66200024760201b60201c565b600680546001600160a01b0319166001600160a01b0383169081179091556040519192509060009060008051602062005d1a833981519152908290a350805162000100906200024b565b60208101516200011090620002db565b6040810151620001209062000392565b508851620001369060009060208c01906200167a565b50600980546001600160a01b03808b166001600160a01b031992831617909255600a8054928a16928216929092179091556080839052600b8054909116732d580f9cf2fb2d09bc411532988f2afda4e7beff1790556200019887878762000449565b620001a38462000721565b620001af600162000903565b620001ba83620009ad565b60408051600080825260208201527fc7606d21ac05cd309191543e409f0845c016120563783d70e4f41419dc0ef234910160405180910390a15050505050505050506200020f84878762000aaa60201b60201c565b5050601880546001600160a01b0319166001600160a01b039b909b169a909a179099555062001a429c50505050505050505050505050565b3390565b6006546001600160a01b031633146200029a5760405162461bcd60e51b8152602060048201819052602482015260008051602062005cfa83398151915260448201526064015b60405180910390fd5b600c5460408051918252602082018390527f481f79ac3a523b6d6db3c5a720e190e986d1cc1b41adcdf50f9caef849901100910160405180910390a1600c55565b6006546001600160a01b03163314620003265760405162461bcd60e51b8152602060048201819052602482015260008051602062005cfa833981519152604482015260640162000291565b61271062000345601054836200166560201b62001f531790919060201c565b11156200035157600080fd5b60115460408051918252602082018390527f2a42303d002f0ba6cfe8259c91d4684443fb0b3de286ba74991175d651726131910160405180910390a1601155565b6006546001600160a01b03163314620003dd5760405162461bcd60e51b8152602060048201819052602482015260008051602062005cfa833981519152604482015260640162000291565b612710620003fc601154836200166560201b62001f531790919060201c565b11156200040857600080fd5b60105460408051918252602082018390527fe7f97d51d307dc44045597c9978bec0f842e6bb40d19b9444084cfa30d9ed4f2910160405180910390a1601055565b826001600160a01b0316826001600160a01b031614620006f257806001600160a01b0316630dfe16816040518163ffffffff1660e01b8152600401602060405180830381865afa158015620004a2573d6000803e3d6000fd5b505050506040513d601f19601f82011682018060405250810190620004c89190620019c1565b6001600160a01b0316826001600160a01b031603620005c357826001600160a01b0316816001600160a01b031663d21220a76040518163ffffffff1660e01b8152600401602060405180830381865afa1580156200052a573d6000803e3d6000fd5b505050506040513d601f19601f82011682018060405250810190620005509190620019c1565b6001600160a01b031614620005bd5760405162461bcd60e51b815260206004820152603f602482015260008051602062005cda83398151915260448201527f6f6573206e6f7420636f6e7461696e2065636f73797374656d20746f6b656e00606482015260840162000291565b620006f2565b806001600160a01b031663d21220a76040518163ffffffff1660e01b8152600401602060405180830381865afa15801562000602573d6000803e3d6000fd5b505050506040513d601f19601f82011682018060405250810190620006289190620019c1565b6001600160a01b0316826001600160a01b0316036200068a57826001600160a01b0316816001600160a01b0316630dfe16816040518163ffffffff1660e01b8152600401602060405180830381865afa1580156200052a573d6000803e3d6000fd5b60405162461bcd60e51b8152602060048201526041602482015260008051602062005cda83398151915260448201527f6f6573206e6f7420636f6e7461696e20706f6f6c2072657761726420746f6b656064820152603760f91b608482015260a40162000291565b601280546001600160a01b039384166001600160a01b0319918216179091556013805492909316911617905550565b6001600160a01b03811615620008e457600a5460408051630dfe168160e01b815290516001600160a01b0392831692841691630dfe16819160048083019260209291908290030181865afa1580156200077e573d6000803e3d6000fd5b505050506040513d601f19601f82011682018060405250810190620007a49190620019c1565b6001600160a01b0316036200083e57806001600160a01b031663d21220a76040518163ffffffff1660e01b8152600401602060405180830381865afa158015620007f2573d6000803e3d6000fd5b505050506040513d601f19601f82011682018060405250810190620008189190620019c1565b601580546001600160a01b0319166001600160a01b0392909216919091179055620008c4565b806001600160a01b0316630dfe16816040518163ffffffff1660e01b8152600401602060405180830381865afa1580156200087d573d6000803e3d6000fd5b505050506040513d601f19601f82011682018060405250810190620008a39190620019c1565b601580546001600160a01b0319166001600160a01b03929092169190911790555b601480546001600160a01b0383166001600160a01b031990911617905550565b601480546001600160a01b031990811690915560158054909116905550565b6006546001600160a01b031633146200094e5760405162461bcd60e51b8152602060048201819052602482015260008051602062005cfa833981519152604482015260640162000291565b600e5481151560ff9091161515036200096657600080fd5b600e805460ff19168215159081179091556040519081527f7b014ed3854e7f5cb0218d58b3c6ae7d53a68bb0af2f67bfb029ea42c38a7e859060200160405180910390a150565b6006546001600160a01b03163314620009f85760405162461bcd60e51b8152602060048201819052602482015260008051602062005cfa833981519152604482015260640162000291565b6001600160a01b03811662000a5f5760405162461bcd60e51b815260206004820152602660248201527f4f776e61626c653a206e6577206f776e657220697320746865207a65726f206160448201526564647265737360d01b606482015260840162000291565b6006546040516001600160a01b0380841692169060008051602062005d1a83398151915290600090a3600680546001600160a01b0319166001600160a01b0392909216919091179055565b600960009054906101000a90046001600160a01b03166001600160a01b0316630dfe16816040518163ffffffff1660e01b8152600401602060405180830381865afa15801562000afe573d6000803e3d6000fd5b505050506040513d601f19601f8201168201806040525081019062000b249190620019c1565b6001600160a01b0316826001600160a01b03161415801562000bd15750600960009054906101000a90046001600160a01b03166001600160a01b031663d21220a76040518163ffffffff1660e01b8152600401602060405180830381865afa15801562000b95573d6000803e3d6000fd5b505050506040513d601f19601f8201168201806040525081019062000bbb9190620019c1565b6001600160a01b0316826001600160a01b031614155b156200137c5760408301516001600160a01b031662000c455760405162461bcd60e51b815260206004820152602960248201527f5377617020706169722030206973206e656365737361727920627574206e6f74604482015268081cdd5c1c1b1a595960ba1b606482015260840162000291565b60608301516001600160a01b031662000cb35760405162461bcd60e51b815260206004820152602960248201527f5377617020706169722031206973206e656365737361727920627574206e6f74604482015268081cdd5c1c1b1a595960ba1b606482015260840162000291565b604080840151601680546001600160a01b039283166001600160a01b03199182168117909255606087015160178054918516919092161790558251630dfe168160e01b81529251918516929091630dfe1681916004808201926020929091908290030181865afa15801562000d2c573d6000803e3d6000fd5b505050506040513d601f19601f8201168201806040525081019062000d529190620019c1565b6001600160a01b0316148062000de057506016546040805163d21220a760e01b815290516001600160a01b0380861693169163d21220a79160048083019260209291908290030181865afa15801562000daf573d6000803e3d6000fd5b505050506040513d601f19601f8201168201806040525081019062000dd59190620019c1565b6001600160a01b0316145b62000e625760405162461bcd60e51b815260206004820152604560248201527f53776170207061697220737570706c69656420646f6573206e6f74206861766560448201527f207468652072657761726420746f6b656e206173206f6e65206f662069742773606482015264103830b4b960d91b608482015260a40162000291565b600960009054906101000a90046001600160a01b03166001600160a01b0316630dfe16816040518163ffffffff1660e01b8152600401602060405180830381865afa15801562000eb6573d6000803e3d6000fd5b505050506040513d601f19601f8201168201806040525081019062000edc9190620019c1565b6001600160a01b0316601660009054906101000a90046001600160a01b03166001600160a01b0316630dfe16816040518163ffffffff1660e01b8152600401602060405180830381865afa15801562000f39573d6000803e3d6000fd5b505050506040513d601f19601f8201168201806040525081019062000f5f9190620019c1565b6001600160a01b03161480620010785750600960009054906101000a90046001600160a01b03166001600160a01b0316630dfe16816040518163ffffffff1660e01b8152600401602060405180830381865afa15801562000fc4573d6000803e3d6000fd5b505050506040513d601f19601f8201168201806040525081019062000fea9190620019c1565b6001600160a01b0316601660009054906101000a90046001600160a01b03166001600160a01b031663d21220a76040518163ffffffff1660e01b8152600401602060405180830381865afa15801562001047573d6000803e3d6000fd5b505050506040513d601f19601f820116820180604052508101906200106d9190620019c1565b6001600160a01b0316145b620010ec5760405162461bcd60e51b815260206004820152603860248201527f537761702070616972203020737570706c69656420646f6573206e6f74206d6160448201527f74636820746865207061697220696e207175657374696f6e0000000000000000606482015260840162000291565b600960009054906101000a90046001600160a01b03166001600160a01b031663d21220a76040518163ffffffff1660e01b8152600401602060405180830381865afa15801562001140573d6000803e3d6000fd5b505050506040513d601f19601f82011682018060405250810190620011669190620019c1565b6001600160a01b0316601760009054906101000a90046001600160a01b03166001600160a01b0316630dfe16816040518163ffffffff1660e01b8152600401602060405180830381865afa158015620011c3573d6000803e3d6000fd5b505050506040513d601f19601f82011682018060405250810190620011e99190620019c1565b6001600160a01b03161480620013025750600960009054906101000a90046001600160a01b03166001600160a01b031663d21220a76040518163ffffffff1660e01b8152600401602060405180830381865afa1580156200124e573d6000803e3d6000fd5b505050506040513d601f19601f82011682018060405250810190620012749190620019c1565b6001600160a01b0316601760009054906101000a90046001600160a01b03166001600160a01b031663d21220a76040518163ffffffff1660e01b8152600401602060405180830381865afa158015620012d1573d6000803e3d6000fd5b505050506040513d601f19601f82011682018060405250810190620012f79190620019c1565b6001600160a01b0316145b620013765760405162461bcd60e51b815260206004820152603860248201527f537761702070616972203120737570706c69656420646f6573206e6f74206d6160448201527f74636820746865207061697220696e207175657374696f6e0000000000000000606482015260840162000291565b620014ed565b600960009054906101000a90046001600160a01b03166001600160a01b0316630dfe16816040518163ffffffff1660e01b8152600401602060405180830381865afa158015620013d0573d6000803e3d6000fd5b505050506040513d601f19601f82011682018060405250810190620013f69190620019c1565b6001600160a01b0316826001600160a01b0316036200143757600954601780546001600160a01b0319166001600160a01b03909216919091179055620014ed565b600960009054906101000a90046001600160a01b03166001600160a01b031663d21220a76040518163ffffffff1660e01b8152600401602060405180830381865afa1580156200148b573d6000803e3d6000fd5b505050506040513d601f19601f82011682018060405250810190620014b19190620019c1565b6001600160a01b0316826001600160a01b031603620014ed57600954601680546001600160a01b0319166001600160a01b039092169190911790555b82600001516001600160a01b0316630dfe16816040518163ffffffff1660e01b8152600401602060405180830381865afa15801562001530573d6000803e3d6000fd5b505050506040513d601f19601f82011682018060405250810190620015569190620019c1565b6001600160a01b0316816001600160a01b0316036200166057816001600160a01b031683600001516001600160a01b031663d21220a76040518163ffffffff1660e01b8152600401602060405180830381865afa158015620015bc573d6000803e3d6000fd5b505050506040513d601f19601f82011682018060405250810190620015e29190620019c1565b6001600160a01b031614620016605760405162461bcd60e51b815260206004820152603a60248201527f537761702070616972207377617050616972506f6f6c52657761726420646f6560448201527f73206e6f7420636f6e7461696e2072657761726420746f6b656e000000000000606482015260840162000291565b505050565b6000620016738284620019df565b9392505050565b828054620016889062001a06565b90600052602060002090601f016020900481019282620016ac5760008555620016f7565b82601f10620016c757805160ff1916838001178555620016f7565b82800160010185558215620016f7579182015b82811115620016f7578251825591602001919060010190620016da565b506200170592915062001709565b5090565b5b808211156200170557600081556001016200170a565b634e487b7160e01b600052604160045260246000fd5b604051601f8201601f191681016001600160401b038111828210171562001761576200176162001720565b604052919050565b80516001600160a01b03811681146200178157600080fd5b919050565b6000608082840312156200179957600080fd5b604051608081016001600160401b0381118282101715620017be57620017be62001720565b604052905080620017cf8362001769565b8152620017df6020840162001769565b6020820152620017f26040840162001769565b6040820152620018056060840162001769565b60608201525092915050565b6000606082840312156200182457600080fd5b604051606081016001600160401b038111828210171562001849576200184962001720565b80604052508091508251815260208301516020820152604083015160408201525092915050565b60008060008060008060008060006101c08a8c0312156200189057600080fd5b89516001600160401b0380821115620018a857600080fd5b818c0191508c601f830112620018bd57600080fd5b815181811115620018d257620018d262001720565b60209150620018ea601f8201601f1916830162001736565b8181528e83838601011115620018ff57600080fd5b60005b828110156200191f57848101840151828201850152830162001902565b82811115620019315760008484840101525b509b506200194390508c820162001769565b995050506200195560408b0162001769565b96506200196560608b0162001769565b9550620019768b60808c0162001786565b9450620019876101008b0162001769565b93506101208a01519250620019a06101408b0162001769565b9150620019b28b6101608c0162001811565b90509295985092959850929598565b600060208284031215620019d457600080fd5b620016738262001769565b6000821982111562001a0157634e487b7160e01b600052601160045260246000fd5b500190565b600181811c9082168062001a1b57607f821691505b60208210810362001a3c57634e487b7160e01b600052602260045260246000fd5b50919050565b60805161424b62001a8f600039600081816103a701528181610781015281816112fb015281816118ee015281816121f50152818161293e01528181612c780152612f11015261424b6000f3fe6080604052600436106103905760003560e01c80638aff733d116101dc578063b9e57b8011610102578063dd62ed3e116100a0578063ed24911d1161006f578063ed24911d14610c03578063f2fde38b14610c18578063f7c618c114610c38578063fdb5a03e14610c5857600080fd5b8063dd62ed3e14610b5d578063dd8ce4d614610ba3578063e21ac82514610bc3578063eab89a5a14610be357600080fd5b8063c89039c5116100dc578063c89039c514610add578063cff1b6ef14610afd578063d505accf14610b1d578063da09c72c14610b3d57600080fd5b8063b9e57b8014610a9d578063bd079f5514610ab2578063c4b24a4614610ac857600080fd5b806399729ec11161017a578063a9059cbb11610149578063a9059cbb14610a23578063ac0d31ff14610a43578063b52a321f14610a63578063b6b55f2514610a7d57600080fd5b806399729ec11461098f5780639e4e7318146109af578063a1a4ddeb146109e3578063a8ae2b7c14610a0357600080fd5b80638da5cb5b116101b65780638da5cb5b1461091c578063909ac8f41461093a5780639291d5631461095a57806395d89b411461097a57600080fd5b80638aff733d146108c65780638b73e606146108dc5780638ba8d345146108fc57600080fd5b80634bebd1e7116102c1578063715018a61161025f5780637ecebe001161022e5780637ecebe001461083957806381837230146108665780638432e894146108865780638980f11f146108a657600080fd5b8063715018a6146107d9578063789139bc146107ee5780637ae26773146108045780637d8820971461082457600080fd5b80635e5eee1b1161029b5780635e5eee1b146107215780635ea682ea146107595780635eaec0e41461076f57806370a08231146107a357600080fd5b80634bebd1e7146106c15780634e77ace5146106e15780634ebb79161461070157600080fd5b80632e1a7d4d1161032e578063313ce56711610308578063313ce567146106345780633bdc6e721461065b578063483c2ef0146106715780634a970be7146106a157600080fd5b80632e1a7d4d146105c05780632f4f21e2146105e057806330adf81f1461060057600080fd5b80630f23475d1161036a5780630f23475d1461054157806318160ddd1461055657806320606b701461056c57806323b872dd146105a057600080fd5b806306fdde03146104c257806307677111146104ed578063095ea7b31461051157600080fd5b366104bd57601854604051631526fe2760e01b81527f000000000000000000000000000000000000000000000000000000000000000060048201526000916001600160a01b031690631526fe279060240160a060405180830381865afa1580156103fe573d6000803e3d6000fd5b505050506040513d601f19601f820116820180604052508101906104229190613aee565b945050505050806001600160a01b0316336001600160a01b0316148061045257506018546001600160a01b031633145b8061046757506006546001600160a01b031633145b8061047c5750600b546001600160a01b031633145b6104bb5760405162461bcd60e51b815260206004820152600b60248201526a1b9bdd08185b1b1bddd95960aa1b60448201526064015b60405180910390fd5b005b600080fd5b3480156104ce57600080fd5b506104d7610c6d565b6040516104e49190613b9e565b60405180910390f35b3480156104f957600080fd5b50610503600f5481565b6040519081526020016104e4565b34801561051d57600080fd5b5061053161052c366004613bb1565b610cfb565b60405190151581526020016104e4565b34801561054d57600080fd5b50610503610d12565b34801561056257600080fd5b5061050360025481565b34801561057857600080fd5b506105037f8b73c3c69bb8fe3d512ecc4cf759cc79239f7b179b0ffacaa9a75d522b39400f81565b3480156105ac57600080fd5b506105316105bb366004613bdd565b610d4d565b3480156105cc57600080fd5b506104bb6105db366004613c1e565b610e31565b3480156105ec57600080fd5b506104bb6105fb366004613bb1565b610f0e565b34801561060c57600080fd5b506105037f6e71edae12b1b97f4d1f60370fef10105fa2faae0126114a169c64845d6126c981565b34801561064057600080fd5b50610649601281565b60405160ff90911681526020016104e4565b34801561066757600080fd5b5061050360075481565b34801561067d57600080fd5b5061053161068c366004613c37565b60086020526000908152604090205460ff1681565b3480156106ad57600080fd5b506104bb6106bc366004613c6a565b610f1c565b3480156106cd57600080fd5b506104bb6106dc366004613c37565b610fb5565b3480156106ed57600080fd5b506104bb6106fc366004613cbf565b6110b4565b34801561070d57600080fd5b506104bb61071c366004613c1e565b61113d565b34801561072d57600080fd5b50601954610741906001600160a01b031681565b6040516001600160a01b0390911681526020016104e4565b34801561076557600080fd5b5061050360115481565b34801561077b57600080fd5b506105037f000000000000000000000000000000000000000000000000000000000000000081565b3480156107af57600080fd5b506105036107be366004613c37565b6001600160a01b031660009081526004602052604090205490565b3480156107e557600080fd5b506104bb6111d9565b3480156107fa57600080fd5b50610503600d5481565b34801561081057600080fd5b506104bb61081f366004613cdc565b61124d565b34801561083057600080fd5b506105036112f3565b34801561084557600080fd5b50610503610854366004613c37565b60056020526000908152604090205481565b34801561087257600080fd5b506104bb610881366004613c1e565b611320565b34801561089257600080fd5b506104bb6108a1366004613c37565b61138b565b3480156108b257600080fd5b506104bb6108c1366004613bb1565b6113e8565b3480156108d257600080fd5b5061050360105481565b3480156108e857600080fd5b506104bb6108f7366004613c37565b6114df565b34801561090857600080fd5b50601854610741906001600160a01b031681565b34801561092857600080fd5b506006546001600160a01b0316610741565b34801561094657600080fd5b50601454610741906001600160a01b031681565b34801561096657600080fd5b506104bb610975366004613c37565b611660565b34801561098657600080fd5b506104d761171a565b34801561099b57600080fd5b506104bb6109aa366004613c1e565b611727565b3480156109bb57600080fd5b506105037fc89efdaa54c0f20c7adf612882df0950f5a951637e0307cdcb4c672f298b8bc681565b3480156109ef57600080fd5b50601554610741906001600160a01b031681565b348015610a0f57600080fd5b506104bb610a1e366004613c1e565b6117b5565b348015610a2f57600080fd5b50610531610a3e366004613bb1565b611843565b348015610a4f57600080fd5b506104bb610a5e366004613d15565b611850565b348015610a6f57600080fd5b50600e546105319060ff1681565b348015610a8957600080fd5b506104bb610a98366004613c1e565b611a5e565b348015610aa957600080fd5b50610503611a68565b348015610abe57600080fd5b50610503600c5481565b348015610ad457600080fd5b50610503611aa7565b348015610ae957600080fd5b50600954610741906001600160a01b031681565b348015610b0957600080fd5b506104bb610b18366004613c1e565b611abb565b348015610b2957600080fd5b506104bb610b38366004613d3a565b611b31565b348015610b4957600080fd5b50600b54610741906001600160a01b031681565b348015610b6957600080fd5b50610503610b78366004613cdc565b6001600160a01b03918216600090815260036020908152604080832093909416825291909152205490565b348015610baf57600080fd5b50610503610bbe366004613c1e565b611c36565b348015610bcf57600080fd5b506104bb610bde366004613c1e565b611c70565b348015610bef57600080fd5b50610503610bfe366004613c1e565b611cdb565b348015610c0f57600080fd5b50610503611d0f565b348015610c2457600080fd5b506104bb610c33366004613c37565b611daf565b348015610c4457600080fd5b50600a54610741906001600160a01b031681565b348015610c6457600080fd5b506104bb611e9a565b60008054610c7a90613da8565b80601f0160208091040260200160405190810160405280929190818152602001828054610ca690613da8565b8015610cf35780601f10610cc857610100808354040283529160200191610cf3565b820191906000526020600020905b815481529060010190602001808311610cd657829003601f168201915b505050505081565b6000610d08338484611f5f565b5060015b92915050565b600080610d1d6112f3565b9050600080610d396127105b610d33858561206d565b90612079565b9050610d458382612085565b935050505090565b6001600160a01b038316600081815260036020908152604080832033808552925282205491929091908214801590610d8757506000198114155b15610e18576000610db3856040518060600160405280602f8152602001614192602f9139849190612091565b6001600160a01b038881166000818152600360209081526040808320948916808452948252918290208590559051848152939450919290917f8c5be1e5ebec7d5bd14f71427d1e84f3dd0314c0f7b2291e5b200ac8c7c3b925910160405180910390a3505b610e238686866120bd565b6001925050505b9392505050565b6000610e3c82611cdb565b905060008111610e8e5760405162461bcd60e51b815260206004820152601e60248201527f4d617374657243686566537472617465677956313a3a7769746864726177000060448201526064016104b2565b610e97816121f0565b600080610ea5612710610d29565b600954909150610ec8906001600160a01b031633610ec38685612085565b61221a565b610ed233856122f1565b60405183815233907f884edad9ce6fa2440d8a54cc123490eb96d2768479d49ff9c7366125a9424364906020015b60405180910390a250505050565b610f1882826123c7565b5050565b60095460405163d505accf60e01b8152336004820152306024820152604481018790526064810186905260ff8516608482015260a4810184905260c481018390526001600160a01b039091169063d505accf9060e401600060405180830381600087803b158015610f8c57600080fd5b505af1158015610fa0573d6000803e3d6000fd5b50505050610fae33866123c7565b5050505050565b6006546001600160a01b03163314610fdf5760405162461bcd60e51b81526004016104b290613de2565b6001600160a01b03811660009081526008602052604090205460ff16156110485760405162461bcd60e51b815260206004820152601c60248201527f5065726d697373696f6e65643a3a616c6c6f774465706f7369746f720000000060448201526064016104b2565b6001600160a01b0381166000908152600860205260409020805460ff1916600190811790915560075461107a91611f53565b6007556040516001600160a01b038216907fc0a1035c16faf8d1304056d92c00edf028f87e62b8235a938f00af9e3c0312c590600090a250565b6006546001600160a01b031633146110de5760405162461bcd60e51b81526004016104b290613de2565b600e5481151560ff9091161515036110f557600080fd5b600e805460ff19168215159081179091556040519081527f7b014ed3854e7f5cb0218d58b3c6ae7d53a68bb0af2f67bfb029ea42c38a7e85906020015b60405180910390a150565b6006546001600160a01b031633146111675760405162461bcd60e51b81526004016104b290613de2565b6000811161117457600080fd5b604051339082156108fc029083906000818181858888f193505050501580156111a1573d6000803e3d6000fd5b506040805160008152602081018390527f8c1256b8896378cd5044f80c202f9772b9d77dc85c8a6eb51967210b09bfaa289101611132565b6006546001600160a01b031633146112035760405162461bcd60e51b81526004016104b290613de2565b6006546040516000916001600160a01b0316907f8be0079c531659141344cd1fd0a4f28419497f9722a3daafe3b4186f6b6457e0908390a3600680546001600160a01b0319169055565b6006546001600160a01b031633146112775760405162461bcd60e51b81526004016104b290613de2565b60405163095ea7b360e01b81526001600160a01b0382811660048301526000602483015283169063095ea7b3906044016020604051808303816000875af11580156112c6573d6000803e3d6000fd5b505050506040513d601f19601f820116820180604052508101906112ea9190613e17565b610f1857600080fd5b600080610d0c7f000000000000000000000000000000000000000000000000000000000000000030612595565b6006546001600160a01b0316331461134a5760405162461bcd60e51b81526004016104b290613de2565b600c5460408051918252602082018390527f481f79ac3a523b6d6db3c5a720e190e986d1cc1b41adcdf50f9caef849901100910160405180910390a1600c55565b600b546001600160a01b031633146113dc5760405162461bcd60e51b81526020600482015260146024820152732cb0b5a9ba3930ba32b3bc9d1d37b7363ca232bb60611b60448201526064016104b2565b6113e581612612565b50565b6006546001600160a01b031633146114125760405162461bcd60e51b81526004016104b290613de2565b6000811161141f57600080fd5b60405163a9059cbb60e01b8152336004820152602481018290526001600160a01b0383169063a9059cbb906044016020604051808303816000875af115801561146c573d6000803e3d6000fd5b505050506040513d601f19601f820116820180604052508101906114909190613e17565b61149957600080fd5b604080516001600160a01b0384168152602081018390527f8c1256b8896378cd5044f80c202f9772b9d77dc85c8a6eb51967210b09bfaa28910160405180910390a15050565b6006546001600160a01b031633146115095760405162461bcd60e51b81526004016104b290613de2565b6000600754116115785760405162461bcd60e51b815260206004820152603460248201527f5065726d697373696f6e65643a3a72656d6f76654465706f7369746f722c206e6044820152736f20616c6c6f776564206465706f7369746f727360601b60648201526084016104b2565b6001600160a01b03811660009081526008602052604090205460ff1615156001146115f85760405162461bcd60e51b815260206004820152602a60248201527f5065726d697373696f6e65643a3a72656d6f76654465706f7369746f722c206e6044820152691bdd08185b1b1bddd95960b21b60648201526084016104b2565b6001600160a01b0381166000908152600860205260409020805460ff19169055600754611626906001612085565b6007556040516001600160a01b038216907f0e86f6608b536e5339a25b65ff531f5ea91e1313d056ecd4752b35cbd16137d490600090a250565b600b546001600160a01b031633146116b15760405162461bcd60e51b81526020600482015260146024820152732cb0b5a9ba3930ba32b3bc9d1d37b7363ca232bb60611b60448201526064016104b2565b600b54604080516001600160a01b03928316815291831660208301527fa8e91499ed37682f43cffb045fcc7d379a91e8c9a14e6321877ee34dee564c00910160405180910390a1600b80546001600160a01b0319166001600160a01b0392909216919091179055565b60018054610c7a90613da8565b6006546001600160a01b031633146117515760405162461bcd60e51b81526004016104b290613de2565b61271061176960105483611f5390919063ffffffff16565b111561177457600080fd5b60115460408051918252602082018390527f2a42303d002f0ba6cfe8259c91d4684443fb0b3de286ba74991175d651726131910160405180910390a1601155565b6006546001600160a01b031633146117df5760405162461bcd60e51b81526004016104b290613de2565b6127106117f760115483611f5390919063ffffffff16565b111561180257600080fd5b60105460408051918252602082018390527fe7f97d51d307dc44045597c9978bec0f842e6bb40d19b9444084cfa30d9ed4f2910160405180910390a1601055565b6000610d083384846120bd565b6006546001600160a01b0316331461187a5760405162461bcd60e51b81526004016104b290613de2565b6009546040516370a0823160e01b81523060048201526000916001600160a01b0316906370a0823190602401602060405180830381865afa1580156118c3573d6000803e3d6000fd5b505050506040513d601f19601f820116820180604052508101906118e79190613e34565b90506119127f00000000000000000000000000000000000000000000000000000000000000006127e8565b6009546040516370a0823160e01b81523060048201526000916001600160a01b0316906370a0823190602401602060405180830381865afa15801561195b573d6000803e3d6000fd5b505050506040513d601f19601f8201168201806040525081019061197f9190613e34565b90508361198c8284612085565b10156119ec5760405162461bcd60e51b815260206004820152602960248201527f4d617374657243686566537472617465677956313a3a7265736375654465706c6044820152686f79656446756e647360b81b60648201526084016104b2565b7fc7606d21ac05cd309191543e409f0845c016120563783d70e4f41419dc0ef234611a156112f3565b6002546040805192835260208301919091520160405180910390a1600e5460ff1615156001148015611a4957506001831515145b15611a5857611a5860006110b4565b50505050565b6113e533826123c7565b600080611a73611aa7565b9050600c548110611a9f57611a99612710610d336010548461206d90919063ffffffff16565b91505090565b600091505090565b600080611ab26128bd565b95945050505050565b6006546001600160a01b03163314611ae55760405162461bcd60e51b81526004016104b290613de2565b8015611af057600080fd5b600f5460408051918252602082018390527f3cc372f330f95ac9540626dc8a25f5bf21ba607215a5d58304cb804d446f104a910160405180910390a1600f55565b42841015611b735760405162461bcd60e51b815260206004820152600f60248201526e1c195c9b5a5d0e8e995e1c1a5c9959608a1b60448201526064016104b2565b6001600160a01b038716600090815260056020526040812080547f6e71edae12b1b97f4d1f60370fef10105fa2faae0126114a169c64845d6126c9918a918a918a919086611bc083613e63565b909155506040805160208101969096526001600160a01b0394851690860152929091166060840152608083015260a082015260c0810186905260e001604051602081830303815290604052805190602001209050611c218882868686612b47565b611c2c888888611f5f565b5050505050505050565b6000611c4c611c436112f3565b6002549061206d565b600003611c57575090565b610d0c611c626112f3565b600254610d3390859061206d565b6006546001600160a01b03163314611c9a5760405162461bcd60e51b81526004016104b290613de2565b600d5460408051918252602082018390527fa5dae50539d56dfe1fb5273d883b0c39bc76750a25d036fc5fbd09ad8fd5f57f910160405180910390a1600d55565b6000611ce8611c436112f3565b600003611cf757506000919050565b610d0c600254610d33611d086112f3565b859061206d565b60007f8b73c3c69bb8fe3d512ecc4cf759cc79239f7b179b0ffacaa9a75d522b39400f60001b6000604051611d449190613e7c565b6040519081900390207fc89efdaa54c0f20c7adf612882df0950f5a951637e0307cdcb4c672f298b8bc646604080516020810195909552840192909252606083015260808201523060a082015260c00160405160208183030381529060405280519060200120905090565b6006546001600160a01b03163314611dd95760405162461bcd60e51b81526004016104b290613de2565b6001600160a01b038116611e3e5760405162461bcd60e51b815260206004820152602660248201527f4f776e61626c653a206e6577206f776e657220697320746865207a65726f206160448201526564647265737360d01b60648201526084016104b2565b6006546040516001600160a01b038084169216907f8be0079c531659141344cd1fd0a4f28419497f9722a3daafe3b4186f6b6457e090600090a3600680546001600160a01b0319166001600160a01b0392909216919091179055565b323314611ee05760405162461bcd60e51b815260206004820152601460248201527359616b53747261746567793a3a6f6e6c79454f4160601b60448201526064016104b2565b600080600080611eee6128bd565b9350935093509350600c54811015611f485760405162461bcd60e51b815260206004820152601e60248201527f4d617374657243686566537472617465677956313a3a7265696e76657374000060448201526064016104b2565b611a58828585612c73565b6000610e2a8284613f17565b6001600160a01b038316611fb55760405162461bcd60e51b815260206004820152601c60248201527f5f617070726f76653a3a6f776e6572207a65726f20616464726573730000000060448201526064016104b2565b6001600160a01b03821661200b5760405162461bcd60e51b815260206004820152601e60248201527f5f617070726f76653a3a7370656e646572207a65726f2061646472657373000060448201526064016104b2565b6001600160a01b0383811660008181526003602090815260408083209487168084529482529182902085905590518481527f8c5be1e5ebec7d5bd14f71427d1e84f3dd0314c0f7b2291e5b200ac8c7c3b92591015b60405180910390a3505050565b6000610e2a8284613f2f565b6000610e2a8284613f4e565b6000610e2a8284613f70565b600081848411156120b55760405162461bcd60e51b81526004016104b29190613b9e565b505050900390565b6001600160a01b0382166121305760405162461bcd60e51b815260206004820152603460248201527f5f7472616e73666572546f6b656e733a2063616e6e6f74207472616e7366657260448201527320746f20746865207a65726f206164647265737360601b60648201526084016104b2565b61216d816040518060600160405280602e81526020016141e8602e91396001600160a01b0386166000908152600460205260409020549190612091565b6001600160a01b03808516600090815260046020526040808220939093559084168152205461219c9082611f53565b6001600160a01b0380841660008181526004602052604090819020939093559151908516907fddf252ad1be2c89b69c2b068fc378daa952ba7f163c4a11628f55a4df523b3ef906120609085815260200190565b6113e57f000000000000000000000000000000000000000000000000000000000000000082612dbc565b60405163a9059cbb60e01b81526001600160a01b0383811660048301526024820183905284169063a9059cbb906044016020604051808303816000875af1158015612269573d6000803e3d6000fd5b505050506040513d601f19601f8201168201806040525081019061228d9190613e17565b6122ec5760405162461bcd60e51b815260206004820152602a60248201527f4d617374657243686566537472617465677956313a3a5452414e534645525f466044820152691493d357d1905253115160b21b60648201526084016104b2565b505050565b61232e816040518060600160405280602781526020016141c1602791396001600160a01b0385166000908152600460205260409020549190612091565b60046000846001600160a01b03166001600160a01b031681526020019081526020016000208190555061237e8160405180606001604052806027815260200161416b602791396002549190612091565b6002556040518181526000906001600160a01b038416907fddf252ad1be2c89b69c2b068fc378daa952ba7f163c4a11628f55a4df523b3ef906020015b60405180910390a35050565b600e5460ff16151560011461241e5760405162461bcd60e51b815260206004820152601e60248201527f4d617374657243686566537472617465677956313a3a5f6465706f736974000060448201526064016104b2565b600d5415612456576000806000806124346128bd565b9350935093509350600d5481111561245157612451828585612c73565b505050505b6009546040516323b872dd60e01b8152336004820152306024820152604481018390526001600160a01b03909116906323b872dd906064016020604051808303816000875af11580156124ad573d6000803e3d6000fd5b505050506040513d601f19601f820116820180604052508101906124d19190613e17565b61252b5760405162461bcd60e51b815260206004820152602560248201527f4d617374657243686566537472617465677956313a3a7472616e736665722066604482015264185a5b195960da1b60648201526084016104b2565b600080612539612710610d29565b90506125518461254c610bbe8685612085565b612e26565b61255a83612eaa565b836001600160a01b03167fe1fffcc4923d04b559f4d29a8bfc6cda04eb5b0d3c460751c2402c5c5cc9109c84604051610f0091815260200190565b6018546040516393f1a40b60e01b8152600481018490526001600160a01b03838116602483015260009216906393f1a40b906044016040805180830381865afa1580156125e6573d6000803e3d6000fd5b505050506040513d601f19601f8201168201806040525081019061260a9190613f87565b509392505050565b6001600160a01b038116156127c957600a5460408051630dfe168160e01b815290516001600160a01b0392831692841691630dfe16819160048083019260209291908290030181865afa15801561266d573d6000803e3d6000fd5b505050506040513d601f19601f820116820180604052508101906126919190613fab565b6001600160a01b03160361272657806001600160a01b031663d21220a76040518163ffffffff1660e01b8152600401602060405180830381865afa1580156126dd573d6000803e3d6000fd5b505050506040513d601f19601f820116820180604052508101906127019190613fab565b601580546001600160a01b0319166001600160a01b03929092169190911790556127a9565b806001600160a01b0316630dfe16816040518163ffffffff1660e01b8152600401602060405180830381865afa158015612764573d6000803e3d6000fd5b505050506040513d601f19601f820116820180604052508101906127889190613fab565b601580546001600160a01b0319166001600160a01b03929092169190911790555b601480546001600160a01b0383166001600160a01b031990911617905550565b601480546001600160a01b031990811690915560158054909116905550565b60095460185460405163095ea7b360e01b81526001600160a01b0391821660048201526000602482015291169063095ea7b3906044016020604051808303816000875af115801561283d573d6000803e3d6000fd5b505050506040513d601f19601f820116820180604052508101906128619190613e17565b50601854604051632989754760e11b8152600481018390526001600160a01b0390911690635312ea8e906024015b600060405180830381600087803b1580156128a957600080fd5b505af1158015610fae573d6000803e3d6000fd5b6012546040516370a0823160e01b815230600482015260009182918291829182916001600160a01b0316906370a0823190602401602060405180830381865afa15801561290e573d6000803e3d6000fd5b505050506040513d601f19601f820116820180604052508101906129329190613e34565b905060008060006129637f000000000000000000000000000000000000000000000000000000000000000030612f36565b9194509250905060006129768585611f53565b600a546012549192506000916001600160a01b0391821691160361299a57846129bf565b601254600a546013546129bf9285926001600160a01b03918216929082169116612fd2565b905060006001600160a01b03841615612aaa5773b31f66aa3c1e785363f0875a1b74e27b85fd66c6196001600160a01b038516016129fe575083612aaa565b6014546001600160a01b031615612aaa576015546040516370a0823160e01b8152306004820152612a84916001600160a01b0316906370a0823190602401602060405180830381865afa158015612a59573d6000803e3d6000fd5b505050506040513d601f19601f82011682018060405250810190612a7d9190613e34565b8690611f53565b600a54601454919650612aa791879187916001600160a01b039182169116612fd2565b90505b600a546040516370a0823160e01b8152306004820152600091612b239184916001600160a01b0316906370a0823190602401602060405180830381865afa158015612af9573d6000803e3d6000fd5b505050506040513d601f19601f82011682018060405250810190612b1d9190613e34565b90611f53565b90506000612b318285611f53565b949d969c50909a50929850939650505050505050565b6000612b51611d0f565b60405161190160f01b602082015260228101919091526042810186905260620160408051601f198184030181528282528051602091820120600080855291840180845281905260ff88169284019290925260608301869052608083018590529092509060019060a0016020604051602081039080840390855afa158015612bdc573d6000803e3d6000fd5b5050604051601f1901519150506001600160a01b03811615801590612c125750866001600160a01b0316816001600160a01b0316145b612c6a5760405162461bcd60e51b8152602060048201526024808201527f417263683a3a76616c69646174655369673a20696e76616c6964207369676e616044820152637475726560e01b60648201526084016104b2565b50505050505050565b612c9c7f0000000000000000000000000000000000000000000000000000000000000000613090565b6000612cb1612caa846130c8565b8590611f53565b9050612cc7612cc0858461310c565b8290611f53565b506000612ce5612710610d336011548561206d90919063ffffffff16565b90508015612d0a57600a54600b54612d0a916001600160a01b0390811691168361221a565b6000612d27612710610d336010548661206d90919063ffffffff16565b90508015612d4657600a54612d46906001600160a01b0316338361221a565b6000612d64612d5f83612d598787612085565b90612085565b61324b565b9050612d6f81612eaa565b7fc7606d21ac05cd309191543e409f0845c016120563783d70e4f41419dc0ef234612d986112f3565b6002546040805192835260208301919091520160405180910390a150505050505050565b601854604051630441a3e760e41b815260048101849052602481018390526001600160a01b039091169063441a3e70906044015b600060405180830381600087803b158015612e0a57600080fd5b505af1158015612e1e573d6000803e3d6000fd5b505050505050565b600254612e339082611f53565b6002556001600160a01b038216600090815260046020526040902054612e599082611f53565b6001600160a01b0383166000818152600460205260408082209390935591519091907fddf252ad1be2c89b69c2b068fc378daa952ba7f163c4a11628f55a4df523b3ef906123bb9085815260200190565b60008111612f0c5760405162461bcd60e51b815260206004820152602960248201527f4d617374657243686566537472617465677956313a3a5f7374616b654465706f604482015268736974546f6b656e7360b81b60648201526084016104b2565b6113e57f00000000000000000000000000000000000000000000000000000000000000008261327a565b60185460405160016232bd9d60e01b03198152600481018490526001600160a01b038381166024830152600092839283928392839283929091169063ffcd426390604401600060405180830381865afa158015612f97573d6000803e3d6000fd5b505050506040513d6000823e601f3d908101601f19168201604052612fbf9190810190613fde565b9298509196509450505050509250925092565b600080612fdf858561332c565b509050600080846001600160a01b0316630902f1ac6040518163ffffffff1660e01b8152600401606060405180830381865afa158015613023573d6000803e3d6000fd5b505050506040513d601f19601f8201168201806040525081019061304791906140c7565b5091509150866001600160a01b0316836001600160a01b03161461306757905b61308488836001600160701b0316836001600160701b031661335d565b98975050505050505050565b601854604051631c57762b60e31b815260048101839052600060248201526001600160a01b039091169063e2bbb1589060440161288f565b601254600a546000916001600160a01b039081169116036130e7575090565b601254600a54601354610d0c9285926001600160a01b039182169290821691166133a5565b60008115613242576014546001600160a01b03161561315157601554600a5460145461314a9285926001600160a01b039182169290821691166133a5565b9050610d0c565b4780156131c15773b31f66aa3c1e785363f0875a1b74e27b85fd66c76001600160a01b031663d0e30db0826040518263ffffffff1660e01b81526004016000604051808303818588803b1580156131a757600080fd5b505af11580156131bb573d6000803e3d6000fd5b50505050505b6040516370a0823160e01b815230600482015261323a90859073b31f66aa3c1e785363f0875a1b74e27b85fd66c7906370a0823190602401602060405180830381865afa158015613216573d6000803e3d6000fd5b505050506040513d601f19601f82011682018060405250810190612d599190613e34565b915050610d0c565b50600092915050565b600a54600954601654601754600093610d0c9386936001600160a01b0392831693918316929081169116613519565b60095460185460405163095ea7b360e01b81526001600160a01b0391821660048201526024810184905291169063095ea7b3906044016020604051808303816000875af11580156132cf573d6000803e3d6000fd5b505050506040513d601f19601f820116820180604052508101906132f39190613e17565b50601854604051631c57762b60e31b815260048101849052602481018390526001600160a01b039091169063e2bbb15890604401612df0565b600080826001600160a01b0316846001600160a01b03161061334f578284613352565b83835b915091509250929050565b60008061336c856103e561206d565b9050600061337a828561206d565b9050600061338e83612b1d886103e861206d565b905061339a8282612079565b979650505050505050565b6000806133b2858561332c565b509050600080846001600160a01b0316630902f1ac6040518163ffffffff1660e01b8152600401606060405180830381865afa1580156133f6573d6000803e3d6000fd5b505050506040513d601f19601f8201168201806040525081019061341a91906140c7565b5091509150866001600160a01b0316836001600160a01b03161461343a57905b60008061345a8a856001600160701b0316856001600160701b031661335d565b9050886001600160a01b0316856001600160a01b03161461347757905b61348b6001600160a01b038a16888c6136bd565b6040805160008152602081019182905263022c0d9f60e01b9091526001600160a01b0388169063022c0d9f906134ca9085908590309060248101614117565b600060405180830381600087803b1580156134e457600080fd5b505af11580156134f8573d6000803e3d6000fd5b50505050818111613509578161350b565b805b9a9950505050505050505050565b600080613527876002612079565b9050600081116135915760405162461bcd60e51b815260206004820152602f60248201527f4465784c6962726172793a3a5f636f6e76657274526577617264546f6b656e7360448201526e546f4465706f736974546f6b656e7360881b60648201526084016104b2565b6000856001600160a01b0316630dfe16816040518163ffffffff1660e01b8152600401602060405180830381865afa1580156135d1573d6000803e3d6000fd5b505050506040513d601f19601f820116820180604052508101906135f59190613fab565b9050816001600160a01b038881169083161461361a57613617838984896133a5565b90505b6000876001600160a01b031663d21220a76040518163ffffffff1660e01b8152600401602060405180830381865afa15801561365a573d6000803e3d6000fd5b505050506040513d601f19601f8201168201806040525081019061367e9190613fab565b9050836001600160a01b038a8116908316146136a3576136a0858b848a6133a5565b90505b6136ae89848361370f565b9b9a5050505050505050505050565b604080516001600160a01b038416602482015260448082018490528251808303909101815260649091019091526020810180516001600160e01b031663a9059cbb60e01b1790526122ec9084906138eb565b6000806000856001600160a01b0316630902f1ac6040518163ffffffff1660e01b8152600401606060405180830381865afa158015613752573d6000803e3d6000fd5b505050506040513d601f19601f8201168201806040525081019061377691906140c7565b5091509150600061379a86846001600160701b0316846001600160701b03166139bd565b9050848111156137c7578490506137c485836001600160701b0316856001600160701b03166139bd565b95505b61383e8787896001600160a01b0316630dfe16816040518163ffffffff1660e01b8152600401602060405180830381865afa15801561380a573d6000803e3d6000fd5b505050506040513d601f19601f8201168201806040525081019061382e9190613fab565b6001600160a01b031691906136bd565b6138818782896001600160a01b031663d21220a76040518163ffffffff1660e01b8152600401602060405180830381865afa15801561380a573d6000803e3d6000fd5b6040516335313c2160e11b81523060048201526001600160a01b03881690636a627842906024016020604051808303816000875af11580156138c7573d6000803e3d6000fd5b505050506040513d601f19601f8201168201806040525081019061339a9190613e34565b6000613940826040518060400160405280602081526020017f5361666545524332303a206c6f772d6c6576656c2063616c6c206661696c6564815250856001600160a01b03166139d59092919063ffffffff16565b8051909150156122ec578080602001905181019061395e9190613e17565b6122ec5760405162461bcd60e51b815260206004820152602a60248201527f5361666545524332303a204552433230206f7065726174696f6e20646964206e6044820152691bdd081cdd58d8d9595960b21b60648201526084016104b2565b60006139cd83610d33868561206d565b949350505050565b60606139cd8484600085856001600160a01b0385163b613a375760405162461bcd60e51b815260206004820152601d60248201527f416464726573733a2063616c6c20746f206e6f6e2d636f6e747261637400000060448201526064016104b2565b600080866001600160a01b03168587604051613a53919061414e565b60006040518083038185875af1925050503d8060008114613a90576040519150601f19603f3d011682016040523d82523d6000602084013e613a95565b606091505b509150915061339a82828660608315613aaf575081610e2a565b825115613abf5782518084602001fd5b8160405162461bcd60e51b81526004016104b29190613b9e565b6001600160a01b03811681146113e557600080fd5b600080600080600060a08688031215613b0657600080fd5b8551613b1181613ad9565b809550506020860151935060408601519250606086015191506080860151613b3881613ad9565b809150509295509295909350565b60005b83811015613b61578181015183820152602001613b49565b83811115611a585750506000910152565b60008151808452613b8a816020860160208601613b46565b601f01601f19169290920160200192915050565b602081526000610e2a6020830184613b72565b60008060408385031215613bc457600080fd5b8235613bcf81613ad9565b946020939093013593505050565b600080600060608486031215613bf257600080fd5b8335613bfd81613ad9565b92506020840135613c0d81613ad9565b929592945050506040919091013590565b600060208284031215613c3057600080fd5b5035919050565b600060208284031215613c4957600080fd5b8135610e2a81613ad9565b803560ff81168114613c6557600080fd5b919050565b600080600080600060a08688031215613c8257600080fd5b8535945060208601359350613c9960408701613c54565b94979396509394606081013594506080013592915050565b80151581146113e557600080fd5b600060208284031215613cd157600080fd5b8135610e2a81613cb1565b60008060408385031215613cef57600080fd5b8235613cfa81613ad9565b91506020830135613d0a81613ad9565b809150509250929050565b60008060408385031215613d2857600080fd5b823591506020830135613d0a81613cb1565b600080600080600080600060e0888a031215613d5557600080fd5b8735613d6081613ad9565b96506020880135613d7081613ad9565b95506040880135945060608801359350613d8c60808901613c54565b925060a0880135915060c0880135905092959891949750929550565b600181811c90821680613dbc57607f821691505b602082108103613ddc57634e487b7160e01b600052602260045260246000fd5b50919050565b6020808252818101527f4f776e61626c653a2063616c6c6572206973206e6f7420746865206f776e6572604082015260600190565b600060208284031215613e2957600080fd5b8151610e2a81613cb1565b600060208284031215613e4657600080fd5b5051919050565b634e487b7160e01b600052601160045260246000fd5b600060018201613e7557613e75613e4d565b5060010190565b600080835481600182811c915080831680613e9857607f831692505b60208084108203613eb757634e487b7160e01b86526022600452602486fd5b818015613ecb5760018114613edc57613f09565b60ff19861689528489019650613f09565b60008a81526020902060005b86811015613f015781548b820152908501908301613ee8565b505084890196505b509498975050505050505050565b60008219821115613f2a57613f2a613e4d565b500190565b6000816000190483118215151615613f4957613f49613e4d565b500290565b600082613f6b57634e487b7160e01b600052601260045260246000fd5b500490565b600082821015613f8257613f82613e4d565b500390565b60008060408385031215613f9a57600080fd5b505080516020909101519092909150565b600060208284031215613fbd57600080fd5b8151610e2a81613ad9565b634e487b7160e01b600052604160045260246000fd5b60008060008060808587031215613ff457600080fd5b84519350602085015161400681613ad9565b604086015190935067ffffffffffffffff8082111561402457600080fd5b818701915087601f83011261403857600080fd5b81518181111561404a5761404a613fc8565b604051601f8201601f19908116603f0116810190838211818310171561407257614072613fc8565b816040528281528a602084870101111561408b57600080fd5b61409c836020830160208801613b46565b60609990990151979a969950505050505050565b80516001600160701b0381168114613c6557600080fd5b6000806000606084860312156140dc57600080fd5b6140e5846140b0565b92506140f3602085016140b0565b9150604084015163ffffffff8116811461410c57600080fd5b809150509250925092565b84815283602082015260018060a01b03831660408201526080606082015260006141446080830184613b72565b9695505050505050565b60008251614160818460208701613b46565b919091019291505056fe5f6275726e3a206275726e20616d6f756e74206578636565647320746f74616c20737570706c797472616e7366657246726f6d3a207472616e7366657220616d6f756e74206578636565647320616c6c6f77616e63655f6275726e3a206275726e20616d6f756e7420657863656564732066726f6d2062616c616e63655f7472616e73666572546f6b656e733a207472616e7366657220657863656564732066726f6d2062616c616e6365a2646970667358221220529a9101c129702863697275bc1da469fd0a937e7fb4faf5c0f411dea903f2a764736f6c634300080d003353776170207061697220277377617050616972506f6f6c5265776172642720644f776e61626c653a2063616c6c6572206973206e6f7420746865206f776e65728be0079c531659141344cd1fd0a4f28419497f9722a3daafe3b4186f6b6457e0",
    "linkReferences": {}
  },
  "methodIdentifiers": {
    "ADMIN_FEE_BIPS()": "07677111",
    "DEPOSITS_ENABLED()": "b52a321f",
    "DEV_FEE_BIPS()": "5ea682ea",
    "DOMAIN_TYPEHASH()": "20606b70",
    "MAX_TOKENS_TO_DEPOSIT_WITHOUT_REINVEST()": "789139bc",
    "MIN_TOKENS_TO_REINVEST()": "bd079f55",
    "PERMIT_TYPEHASH()": "30adf81f",
    "PID()": "5eaec0e4",
    "REINVEST_REWARD_BIPS()": "8aff733d",
    "VERSION_HASH()": "9e4e7318",
    "allowDepositor(address)": "4bebd1e7",
    "allowance(address,address)": "dd62ed3e",
    "allowedDepositors(address)": "483c2ef0",
    "approve(address,uint256)": "095ea7b3",
    "balanceOf(address)": "70a08231",
    "checkReward()": "c4b24a46",
    "decimals()": "313ce567",
    "deposit(uint256)": "b6b55f25",
    "depositFor(address,uint256)": "2f4f21e2",
    "depositToken()": "c89039c5",
    "depositWithPermit(uint256,uint256,uint8,bytes32,bytes32)": "4a970be7",
    "devAddr()": "da09c72c",
    "estimateDeployedBalance()": "0f23475d",
    "estimateReinvestReward()": "b9e57b80",
    "extraToken()": "a1a4ddeb",
    "getDepositTokensForShares(uint256)": "eab89a5a",
    "getDomainSeparator()": "ed24911d",
    "getSharesForDepositTokens(uint256)": "dd8ce4d6",
    "joeChef()": "8ba8d345",
    "name()": "06fdde03",
    "nonces(address)": "7ecebe00",
    "numberOfAllowedDepositors()": "3bdc6e72",
    "owner()": "8da5cb5b",
    "permit(address,address,uint256,uint256,uint8,bytes32,bytes32)": "d505accf",
    "recoverAVAX(uint256)": "4ebb7916",
    "recoverERC20(address,uint256)": "8980f11f",
    "reinvest()": "fdb5a03e",
    "removeDepositor(address)": "8b73e606",
    "renounceOwnership()": "715018a6",
    "rescueDeployedFunds(uint256,bool)": "ac0d31ff",
    "revokeAllowance(address,address)": "7ae26773",
    "rewardToken()": "f7c618c1",
    "setExtraRewardSwapPair(address)": "8432e894",
    "swapPairExtraReward()": "909ac8f4",
    "swapPairRewardToken()": "5e5eee1b",
    "symbol()": "95d89b41",
    "totalDeposits()": "7d882097",
    "totalSupply()": "18160ddd",
    "transfer(address,uint256)": "a9059cbb",
    "transferFrom(address,address,uint256)": "23b872dd",
    "transferOwnership(address)": "f2fde38b",
    "updateAdminFee(uint256)": "cff1b6ef",
    "updateDepositsEnabled(bool)": "4e77ace5",
    "updateDevAddr(address)": "9291d563",
    "updateDevFee(uint256)": "99729ec1",
    "updateMaxTokensToDepositWithoutReinvest(uint256)": "e21ac825",
    "updateMinTokensToReinvest(uint256)": "81837230",
    "updateReinvestReward(uint256)": "a8ae2b7c",
    "withdraw(uint256)": "2e1a7d4d"
  },
  "id": 139
}