{
  "abi": [
    {
      "inputs": [
        {
          "internalType": "string",
          "name": "_name",
          "type": "string"
        },
        {
          "internalType": "address",
          "name": "_rewardController",
          "type": "address"
        },
        {
          "internalType": "address",
          "name": "_tokenDelegator",
          "type": "address"
        },
        {
          "components": [
            {
              "internalType": "address",
              "name": "reward",
              "type": "address"
            },
            {
              "internalType": "address",
              "name": "swapPair",
              "type": "address"
            }
          ],
          "internalType": "struct AaveV3StrategyEthV1.RewardSwapPairs[]",
          "name": "_rewardSwapPairs",
          "type": "tuple[]"
        },
        {
          "internalType": "address",
          "name": "_avToken",
          "type": "address"
        },
        {
          "internalType": "address",
          "name": "_avDebtToken",
          "type": "address"
        },
        {
          "internalType": "address",
          "name": "_timelock",
          "type": "address"
        },
        {
          "components": [
            {
              "internalType": "uint256",
              "name": "leverageLevel",
              "type": "uint256"
            },
            {
              "internalType": "uint256",
              "name": "safetyFactor",
              "type": "uint256"
            },
            {
              "internalType": "uint256",
              "name": "leverageBips",
              "type": "uint256"
            },
            {
              "internalType": "uint256",
              "name": "minMinting",
              "type": "uint256"
            }
          ],
          "internalType": "struct AaveV3StrategyEthV1.LeverageSettings",
          "name": "_leverageSettings",
          "type": "tuple"
        },
        {
          "components": [
            {
              "internalType": "uint256",
              "name": "minTokensToReinvest",
              "type": "uint256"
            },
            {
              "internalType": "uint256",
              "name": "devFeeBips",
              "type": "uint256"
            },
            {
              "internalType": "uint256",
              "name": "reinvestRewardBips",
              "type": "uint256"
            }
          ],
          "internalType": "struct YakStrategyV2.StrategySettings",
          "name": "_strategySettings",
          "type": "tuple"
        }
      ],
      "stateMutability": "nonpayable",
      "type": "constructor"
    },
    {
      "anonymous": false,
      "inputs": [
        {
          "indexed": false,
          "internalType": "address",
          "name": "rewardToken",
          "type": "address"
        },
        {
          "indexed": false,
          "internalType": "address",
          "name": "swapPair",
          "type": "address"
        }
      ],
      "name": "AddReward",
      "type": "event"
    },
    {
      "anonymous": false,
      "inputs": [
        {
          "indexed": true,
          "internalType": "address",
          "name": "account",
          "type": "address"
        }
      ],
      "name": "AllowDepositor",
      "type": "event"
    },
    {
      "anonymous": false,
      "inputs": [
        {
          "indexed": true,
          "internalType": "address",
          "name": "owner",
          "type": "address"
        },
        {
          "indexed": true,
          "internalType": "address",
          "name": "spender",
          "type": "address"
        },
        {
          "indexed": false,
          "internalType": "uint256",
          "name": "value",
          "type": "uint256"
        }
      ],
      "name": "Approval",
      "type": "event"
    },
    {
      "anonymous": false,
      "inputs": [
        {
          "indexed": true,
          "internalType": "address",
          "name": "account",
          "type": "address"
        },
        {
          "indexed": false,
          "internalType": "uint256",
          "name": "amount",
          "type": "uint256"
        }
      ],
      "name": "Deposit",
      "type": "event"
    },
    {
      "anonymous": false,
      "inputs": [
        {
          "indexed": false,
          "internalType": "bool",
          "name": "newValue",
          "type": "bool"
        }
      ],
      "name": "DepositsEnabled",
      "type": "event"
    },
    {
      "anonymous": false,
      "inputs": [
        {
          "indexed": true,
          "internalType": "address",
          "name": "previousOwner",
          "type": "address"
        },
        {
          "indexed": true,
          "internalType": "address",
          "name": "newOwner",
          "type": "address"
        }
      ],
      "name": "OwnershipTransferred",
      "type": "event"
    },
    {
      "anonymous": false,
      "inputs": [
        {
          "indexed": false,
          "internalType": "address",
          "name": "token",
          "type": "address"
        },
        {
          "indexed": false,
          "internalType": "uint256",
          "name": "amount",
          "type": "uint256"
        }
      ],
      "name": "Recovered",
      "type": "event"
    },
    {
      "anonymous": false,
      "inputs": [
        {
          "indexed": false,
          "internalType": "uint256",
          "name": "newTotalDeposits",
          "type": "uint256"
        },
        {
          "indexed": false,
          "internalType": "uint256",
          "name": "newTotalSupply",
          "type": "uint256"
        }
      ],
      "name": "Reinvest",
      "type": "event"
    },
    {
      "anonymous": false,
      "inputs": [
        {
          "indexed": true,
          "internalType": "address",
          "name": "account",
          "type": "address"
        }
      ],
      "name": "RemoveDepositor",
      "type": "event"
    },
    {
      "anonymous": false,
      "inputs": [
        {
          "indexed": false,
          "internalType": "address",
          "name": "rewardToken",
          "type": "address"
        }
      ],
      "name": "RemoveReward",
      "type": "event"
    },
    {
      "anonymous": false,
      "inputs": [
        {
          "indexed": true,
          "internalType": "address",
          "name": "from",
          "type": "address"
        },
        {
          "indexed": true,
          "internalType": "address",
          "name": "to",
          "type": "address"
        },
        {
          "indexed": false,
          "internalType": "uint256",
          "name": "value",
          "type": "uint256"
        }
      ],
      "name": "Transfer",
      "type": "event"
    },
    {
      "anonymous": false,
      "inputs": [
        {
          "indexed": false,
          "internalType": "uint256",
          "name": "oldValue",
          "type": "uint256"
        },
        {
          "indexed": false,
          "internalType": "uint256",
          "name": "newValue",
          "type": "uint256"
        }
      ],
      "name": "UpdateAdminFee",
      "type": "event"
    },
    {
      "anonymous": false,
      "inputs": [
        {
          "indexed": false,
          "internalType": "address",
          "name": "oldValue",
          "type": "address"
        },
        {
          "indexed": false,
          "internalType": "address",
          "name": "newValue",
          "type": "address"
        }
      ],
      "name": "UpdateDevAddr",
      "type": "event"
    },
    {
      "anonymous": false,
      "inputs": [
        {
          "indexed": false,
          "internalType": "uint256",
          "name": "oldValue",
          "type": "uint256"
        },
        {
          "indexed": false,
          "internalType": "uint256",
          "name": "newValue",
          "type": "uint256"
        }
      ],
      "name": "UpdateDevFee",
      "type": "event"
    },
    {
      "anonymous": false,
      "inputs": [
        {
          "indexed": false,
          "internalType": "uint256",
          "name": "oldValue",
          "type": "uint256"
        },
        {
          "indexed": false,
          "internalType": "uint256",
          "name": "newValue",
          "type": "uint256"
        }
      ],
      "name": "UpdateMaxTokensToDepositWithoutReinvest",
      "type": "event"
    },
    {
      "anonymous": false,
      "inputs": [
        {
          "indexed": false,
          "internalType": "uint256",
          "name": "oldValue",
          "type": "uint256"
        },
        {
          "indexed": false,
          "internalType": "uint256",
          "name": "newValue",
          "type": "uint256"
        }
      ],
      "name": "UpdateMinTokensToReinvest",
      "type": "event"
    },
    {
      "anonymous": false,
      "inputs": [
        {
          "indexed": false,
          "internalType": "uint256",
          "name": "oldValue",
          "type": "uint256"
        },
        {
          "indexed": false,
          "internalType": "uint256",
          "name": "newValue",
          "type": "uint256"
        }
      ],
      "name": "UpdateReinvestReward",
      "type": "event"
    },
    {
      "anonymous": false,
      "inputs": [
        {
          "indexed": true,
          "internalType": "address",
          "name": "account",
          "type": "address"
        },
        {
          "indexed": false,
          "internalType": "uint256",
          "name": "amount",
          "type": "uint256"
        }
      ],
      "name": "Withdraw",
      "type": "event"
    },
    {
      "inputs": [],
      "name": "ADMIN_FEE_BIPS",
      "outputs": [
        {
          "internalType": "uint256",
          "name": "",
          "type": "uint256"
        }
      ],
      "stateMutability": "view",
      "type": "function"
    },
    {
      "inputs": [],
      "name": "DEPOSITS_ENABLED",
      "outputs": [
        {
          "internalType": "bool",
          "name": "",
          "type": "bool"
        }
      ],
      "stateMutability": "view",
      "type": "function"
    },
    {
      "inputs": [],
      "name": "DEV_FEE_BIPS",
      "outputs": [
        {
          "internalType": "uint256",
          "name": "",
          "type": "uint256"
        }
      ],
      "stateMutability": "view",
      "type": "function"
    },
    {
      "inputs": [],
      "name": "DOMAIN_TYPEHASH",
      "outputs": [
        {
          "internalType": "bytes32",
          "name": "",
          "type": "bytes32"
        }
      ],
      "stateMutability": "view",
      "type": "function"
    },
    {
      "inputs": [],
      "name": "MAX_TOKENS_TO_DEPOSIT_WITHOUT_REINVEST",
      "outputs": [
        {
          "internalType": "uint256",
          "name": "",
          "type": "uint256"
        }
      ],
      "stateMutability": "view",
      "type": "function"
    },
    {
      "inputs": [],
      "name": "MIN_TOKENS_TO_REINVEST",
      "outputs": [
        {
          "internalType": "uint256",
          "name": "",
          "type": "uint256"
        }
      ],
      "stateMutability": "view",
      "type": "function"
    },
    {
      "inputs": [],
      "name": "PERMIT_TYPEHASH",
      "outputs": [
        {
          "internalType": "bytes32",
          "name": "",
          "type": "bytes32"
        }
      ],
      "stateMutability": "view",
      "type": "function"
    },
    {
      "inputs": [],
      "name": "REINVEST_REWARD_BIPS",
      "outputs": [
        {
          "internalType": "uint256",
          "name": "",
          "type": "uint256"
        }
      ],
      "stateMutability": "view",
      "type": "function"
    },
    {
      "inputs": [],
      "name": "VERSION_HASH",
      "outputs": [
        {
          "internalType": "bytes32",
          "name": "",
          "type": "bytes32"
        }
      ],
      "stateMutability": "view",
      "type": "function"
    },
    {
      "inputs": [
        {
          "internalType": "address",
          "name": "_rewardToken",
          "type": "address"
        },
        {
          "internalType": "address",
          "name": "_swapPair",
          "type": "address"
        }
      ],
      "name": "addReward",
      "outputs": [],
      "stateMutability": "nonpayable",
      "type": "function"
    },
    {
      "inputs": [
        {
          "internalType": "address",
          "name": "depositor",
          "type": "address"
        }
      ],
      "name": "allowDepositor",
      "outputs": [],
      "stateMutability": "nonpayable",
      "type": "function"
    },
    {
      "inputs": [
        {
          "internalType": "address",
          "name": "account",
          "type": "address"
        },
        {
          "internalType": "address",
          "name": "spender",
          "type": "address"
        }
      ],
      "name": "allowance",
      "outputs": [
        {
          "internalType": "uint256",
          "name": "",
          "type": "uint256"
        }
      ],
      "stateMutability": "view",
      "type": "function"
    },
    {
      "inputs": [
        {
          "internalType": "address",
          "name": "",
          "type": "address"
        }
      ],
      "name": "allowedDepositors",
      "outputs": [
        {
          "internalType": "bool",
          "name": "",
          "type": "bool"
        }
      ],
      "stateMutability": "view",
      "type": "function"
    },
    {
      "inputs": [
        {
          "internalType": "address",
          "name": "spender",
          "type": "address"
        },
        {
          "internalType": "uint256",
          "name": "amount",
          "type": "uint256"
        }
      ],
      "name": "approve",
      "outputs": [
        {
          "internalType": "bool",
          "name": "",
          "type": "bool"
        }
      ],
      "stateMutability": "nonpayable",
      "type": "function"
    },
    {
      "inputs": [
        {
          "internalType": "address",
          "name": "account",
          "type": "address"
        }
      ],
      "name": "balanceOf",
      "outputs": [
        {
          "internalType": "uint256",
          "name": "",
          "type": "uint256"
        }
      ],
      "stateMutability": "view",
      "type": "function"
    },
    {
      "inputs": [],
      "name": "checkReward",
      "outputs": [
        {
          "internalType": "uint256",
          "name": "",
          "type": "uint256"
        }
      ],
      "stateMutability": "view",
      "type": "function"
    },
    {
      "inputs": [],
      "name": "decimals",
      "outputs": [
        {
          "internalType": "uint8",
          "name": "",
          "type": "uint8"
        }
      ],
      "stateMutability": "view",
      "type": "function"
    },
    {
      "inputs": [
        {
          "internalType": "uint256",
          "name": "",
          "type": "uint256"
        }
      ],
      "name": "deposit",
      "outputs": [],
      "stateMutability": "pure",
      "type": "function"
    },
    {
      "inputs": [],
      "name": "deposit",
      "outputs": [],
      "stateMutability": "payable",
      "type": "function"
    },
    {
      "inputs": [
        {
          "internalType": "address",
          "name": "",
          "type": "address"
        },
        {
          "internalType": "uint256",
          "name": "",
          "type": "uint256"
        }
      ],
      "name": "depositFor",
      "outputs": [],
      "stateMutability": "pure",
      "type": "function"
    },
    {
      "inputs": [
        {
          "internalType": "address",
          "name": "account",
          "type": "address"
        }
      ],
      "name": "depositFor",
      "outputs": [],
      "stateMutability": "payable",
      "type": "function"
    },
    {
      "inputs": [],
      "name": "depositToken",
      "outputs": [
        {
          "internalType": "contract IERC20",
          "name": "",
          "type": "address"
        }
      ],
      "stateMutability": "view",
      "type": "function"
    },
    {
      "inputs": [
        {
          "internalType": "uint256",
          "name": "amount",
          "type": "uint256"
        },
        {
          "internalType": "uint256",
          "name": "deadline",
          "type": "uint256"
        },
        {
          "internalType": "uint8",
          "name": "v",
          "type": "uint8"
        },
        {
          "internalType": "bytes32",
          "name": "r",
          "type": "bytes32"
        },
        {
          "internalType": "bytes32",
          "name": "s",
          "type": "bytes32"
        }
      ],
      "name": "depositWithPermit",
      "outputs": [],
      "stateMutability": "nonpayable",
      "type": "function"
    },
    {
      "inputs": [],
      "name": "devAddr",
      "outputs": [
        {
          "internalType": "address",
          "name": "",
          "type": "address"
        }
      ],
      "stateMutability": "view",
      "type": "function"
    },
    {
      "inputs": [],
      "name": "estimateDeployedBalance",
      "outputs": [
        {
          "internalType": "uint256",
          "name": "",
          "type": "uint256"
        }
      ],
      "stateMutability": "view",
      "type": "function"
    },
    {
      "inputs": [],
      "name": "estimateReinvestReward",
      "outputs": [
        {
          "internalType": "uint256",
          "name": "",
          "type": "uint256"
        }
      ],
      "stateMutability": "view",
      "type": "function"
    },
    {
      "inputs": [],
      "name": "getActualLeverage",
      "outputs": [
        {
          "internalType": "uint256",
          "name": "",
          "type": "uint256"
        }
      ],
      "stateMutability": "view",
      "type": "function"
    },
    {
      "inputs": [
        {
          "internalType": "uint256",
          "name": "amount",
          "type": "uint256"
        }
      ],
      "name": "getDepositTokensForShares",
      "outputs": [
        {
          "internalType": "uint256",
          "name": "",
          "type": "uint256"
        }
      ],
      "stateMutability": "view",
      "type": "function"
    },
    {
      "inputs": [],
      "name": "getDomainSeparator",
      "outputs": [
        {
          "internalType": "bytes32",
          "name": "",
          "type": "bytes32"
        }
      ],
      "stateMutability": "view",
      "type": "function"
    },
    {
      "inputs": [
        {
          "internalType": "uint256",
          "name": "amount",
          "type": "uint256"
        }
      ],
      "name": "getSharesForDepositTokens",
      "outputs": [
        {
          "internalType": "uint256",
          "name": "",
          "type": "uint256"
        }
      ],
      "stateMutability": "view",
      "type": "function"
    },
    {
      "inputs": [],
      "name": "leverageBips",
      "outputs": [
        {
          "internalType": "uint256",
          "name": "",
          "type": "uint256"
        }
      ],
      "stateMutability": "view",
      "type": "function"
    },
    {
      "inputs": [],
      "name": "leverageLevel",
      "outputs": [
        {
          "internalType": "uint256",
          "name": "",
          "type": "uint256"
        }
      ],
      "stateMutability": "view",
      "type": "function"
    },
    {
      "inputs": [],
      "name": "minMinting",
      "outputs": [
        {
          "internalType": "uint256",
          "name": "",
          "type": "uint256"
        }
      ],
      "stateMutability": "view",
      "type": "function"
    },
    {
      "inputs": [],
      "name": "name",
      "outputs": [
        {
          "internalType": "string",
          "name": "",
          "type": "string"
        }
      ],
      "stateMutability": "view",
      "type": "function"
    },
    {
      "inputs": [
        {
          "internalType": "address",
          "name": "",
          "type": "address"
        }
      ],
      "name": "nonces",
      "outputs": [
        {
          "internalType": "uint256",
          "name": "",
          "type": "uint256"
        }
      ],
      "stateMutability": "view",
      "type": "function"
    },
    {
      "inputs": [],
      "name": "numberOfAllowedDepositors",
      "outputs": [
        {
          "internalType": "uint256",
          "name": "",
          "type": "uint256"
        }
      ],
      "stateMutability": "view",
      "type": "function"
    },
    {
      "inputs": [],
      "name": "owner",
      "outputs": [
        {
          "internalType": "address",
          "name": "",
          "type": "address"
        }
      ],
      "stateMutability": "view",
      "type": "function"
    },
    {
      "inputs": [
        {
          "internalType": "address",
          "name": "owner",
          "type": "address"
        },
        {
          "internalType": "address",
          "name": "spender",
          "type": "address"
        },
        {
          "internalType": "uint256",
          "name": "value",
          "type": "uint256"
        },
        {
          "internalType": "uint256",
          "name": "deadline",
          "type": "uint256"
        },
        {
          "internalType": "uint8",
          "name": "v",
          "type": "uint8"
        },
        {
          "internalType": "bytes32",
          "name": "r",
          "type": "bytes32"
        },
        {
          "internalType": "bytes32",
          "name": "s",
          "type": "bytes32"
        }
      ],
      "name": "permit",
      "outputs": [],
      "stateMutability": "nonpayable",
      "type": "function"
    },
    {
      "inputs": [
        {
          "internalType": "address",
          "name": "tokenAddress",
          "type": "address"
        },
        {
          "internalType": "uint256",
          "name": "tokenAmount",
          "type": "uint256"
        }
      ],
      "name": "recoverERC20",
      "outputs": [],
      "stateMutability": "nonpayable",
      "type": "function"
    },
    {
      "inputs": [
        {
          "internalType": "uint256",
          "name": "amount",
          "type": "uint256"
        }
      ],
      "name": "recoverWETH",
      "outputs": [],
      "stateMutability": "nonpayable",
      "type": "function"
    },
    {
      "inputs": [],
      "name": "reinvest",
      "outputs": [],
      "stateMutability": "nonpayable",
      "type": "function"
    },
    {
      "inputs": [
        {
          "internalType": "address",
          "name": "depositor",
          "type": "address"
        }
      ],
      "name": "removeDepositor",
      "outputs": [],
      "stateMutability": "nonpayable",
      "type": "function"
    },
    {
      "inputs": [
        {
          "internalType": "address",
          "name": "_rewardToken",
          "type": "address"
        }
      ],
      "name": "removeReward",
      "outputs": [],
      "stateMutability": "nonpayable",
      "type": "function"
    },
    {
      "inputs": [],
      "name": "renounceOwnership",
      "outputs": [],
      "stateMutability": "nonpayable",
      "type": "function"
    },
    {
      "inputs": [
        {
          "internalType": "uint256",
          "name": "minReturnAmountAccepted",
          "type": "uint256"
        },
        {
          "internalType": "bool",
          "name": "",
          "type": "bool"
        }
      ],
      "name": "rescueDeployedFunds",
      "outputs": [],
      "stateMutability": "nonpayable",
      "type": "function"
    },
    {
      "inputs": [
        {
          "internalType": "address",
          "name": "token",
          "type": "address"
        },
        {
          "internalType": "address",
          "name": "spender",
          "type": "address"
        }
      ],
      "name": "revokeAllowance",
      "outputs": [],
      "stateMutability": "nonpayable",
      "type": "function"
    },
    {
      "inputs": [],
      "name": "rewardCount",
      "outputs": [
        {
          "internalType": "uint256",
          "name": "",
          "type": "uint256"
        }
      ],
      "stateMutability": "view",
      "type": "function"
    },
    {
      "inputs": [
        {
          "internalType": "address",
          "name": "",
          "type": "address"
        }
      ],
      "name": "rewardSwapPairs",
      "outputs": [
        {
          "internalType": "address",
          "name": "",
          "type": "address"
        }
      ],
      "stateMutability": "view",
      "type": "function"
    },
    {
      "inputs": [],
      "name": "rewardToken",
      "outputs": [
        {
          "internalType": "contract IERC20",
          "name": "",
          "type": "address"
        }
      ],
      "stateMutability": "view",
      "type": "function"
    },
    {
      "inputs": [],
      "name": "safetyFactor",
      "outputs": [
        {
          "internalType": "uint256",
          "name": "",
          "type": "uint256"
        }
      ],
      "stateMutability": "view",
      "type": "function"
    },
    {
      "inputs": [
        {
          "internalType": "uint256",
          "name": "",
          "type": "uint256"
        }
      ],
      "name": "supportedRewards",
      "outputs": [
        {
          "internalType": "address",
          "name": "",
          "type": "address"
        }
      ],
      "stateMutability": "view",
      "type": "function"
    },
    {
      "inputs": [],
      "name": "symbol",
      "outputs": [
        {
          "internalType": "string",
          "name": "",
          "type": "string"
        }
      ],
      "stateMutability": "view",
      "type": "function"
    },
    {
      "inputs": [],
      "name": "totalDeposits",
      "outputs": [
        {
          "internalType": "uint256",
          "name": "",
          "type": "uint256"
        }
      ],
      "stateMutability": "view",
      "type": "function"
    },
    {
      "inputs": [],
      "name": "totalSupply",
      "outputs": [
        {
          "internalType": "uint256",
          "name": "",
          "type": "uint256"
        }
      ],
      "stateMutability": "view",
      "type": "function"
    },
    {
      "inputs": [
        {
          "internalType": "address",
          "name": "dst",
          "type": "address"
        },
        {
          "internalType": "uint256",
          "name": "amount",
          "type": "uint256"
        }
      ],
      "name": "transfer",
      "outputs": [
        {
          "internalType": "bool",
          "name": "",
          "type": "bool"
        }
      ],
      "stateMutability": "nonpayable",
      "type": "function"
    },
    {
      "inputs": [
        {
          "internalType": "address",
          "name": "src",
          "type": "address"
        },
        {
          "internalType": "address",
          "name": "dst",
          "type": "address"
        },
        {
          "internalType": "uint256",
          "name": "amount",
          "type": "uint256"
        }
      ],
      "name": "transferFrom",
      "outputs": [
        {
          "internalType": "bool",
          "name": "",
          "type": "bool"
        }
      ],
      "stateMutability": "nonpayable",
      "type": "function"
    },
    {
      "inputs": [
        {
          "internalType": "address",
          "name": "newOwner",
          "type": "address"
        }
      ],
      "name": "transferOwnership",
      "outputs": [],
      "stateMutability": "nonpayable",
      "type": "function"
    },
    {
      "inputs": [
        {
          "internalType": "uint256",
          "name": "newValue",
          "type": "uint256"
        }
      ],
      "name": "updateAdminFee",
      "outputs": [],
      "stateMutability": "nonpayable",
      "type": "function"
    },
    {
      "inputs": [
        {
          "internalType": "bool",
          "name": "newValue",
          "type": "bool"
        }
      ],
      "name": "updateDepositsEnabled",
      "outputs": [],
      "stateMutability": "nonpayable",
      "type": "function"
    },
    {
      "inputs": [
        {
          "internalType": "address",
          "name": "newValue",
          "type": "address"
        }
      ],
      "name": "updateDevAddr",
      "outputs": [],
      "stateMutability": "nonpayable",
      "type": "function"
    },
    {
      "inputs": [
        {
          "internalType": "uint256",
          "name": "newValue",
          "type": "uint256"
        }
      ],
      "name": "updateDevFee",
      "outputs": [],
      "stateMutability": "nonpayable",
      "type": "function"
    },
    {
      "inputs": [
        {
          "internalType": "uint256",
          "name": "_leverageLevel",
          "type": "uint256"
        },
        {
          "internalType": "uint256",
          "name": "_safetyFactor",
          "type": "uint256"
        },
        {
          "internalType": "uint256",
          "name": "_minMinting",
          "type": "uint256"
        },
        {
          "internalType": "uint256",
          "name": "_leverageBips",
          "type": "uint256"
        }
      ],
      "name": "updateLeverage",
      "outputs": [],
      "stateMutability": "nonpayable",
      "type": "function"
    },
    {
      "inputs": [
        {
          "internalType": "uint256",
          "name": "newValue",
          "type": "uint256"
        }
      ],
      "name": "updateMaxTokensToDepositWithoutReinvest",
      "outputs": [],
      "stateMutability": "nonpayable",
      "type": "function"
    },
    {
      "inputs": [
        {
          "internalType": "uint256",
          "name": "newValue",
          "type": "uint256"
        }
      ],
      "name": "updateMinTokensToReinvest",
      "outputs": [],
      "stateMutability": "nonpayable",
      "type": "function"
    },
    {
      "inputs": [
        {
          "internalType": "uint256",
          "name": "newValue",
          "type": "uint256"
        }
      ],
      "name": "updateReinvestReward",
      "outputs": [],
      "stateMutability": "nonpayable",
      "type": "function"
    },
    {
      "inputs": [
        {
          "internalType": "uint256",
          "name": "amount",
          "type": "uint256"
        }
      ],
      "name": "withdraw",
      "outputs": [],
      "stateMutability": "nonpayable",
      "type": "function"
    },
    {
      "stateMutability": "payable",
      "type": "receive"
    }
  ],
  "bytecode": {
    "object": "0x60c060405260096080819052685969656c642059616b60b81b60a09081526200002c9160009190620009ee565b506040805180820190915260038082526216549560ea1b60209092019182526200005991600191620009ee565b503480156200006757600080fd5b5060405162005a0f38038062005a0f8339810160408190526200008a9162000cae565b600680546001600160a01b031916339081179091556040518291908190600090600080516020620059ef833981519152908290a3508051620000cc9062000286565b6020810151620000dc9062000316565b6040810151620000ec90620003cd565b5060016012558851620001079060009060208c0190620009ee565b50601a80546001600160a01b03808b166001600160a01b031992831617909255601b8054928a1692821692909217909155600a805490911673b31f66aa3c1e785363f0875a1b74e27b85fd66c717905581516020830151606084015160408501516200018493929190601693909355601892909255601755601955565b600b8054336001600160a01b031991821617909155601c805482166001600160a01b0388811691909117909155601d805490921690861617905560005b865181101562000226576200021d878281518110620001e457620001e462000e18565b60200260200101516000015188838151811062000205576200020562000e18565b6020026020010151602001516200048460201b60201c565b600101620001c1565b506200023360016200060d565b6200023e83620006b7565b60408051600080825260208201527fc7606d21ac05cd309191543e409f0845c016120563783d70e4f41419dc0ef234910160405180910390a150505050505050505062000eaf565b6006546001600160a01b03163314620002d55760405162461bcd60e51b81526020600482018190526024820152600080516020620059cf83398151915260448201526064015b60405180910390fd5b600c5460408051918252602082018390527f481f79ac3a523b6d6db3c5a720e190e986d1cc1b41adcdf50f9caef849901100910160405180910390a1600c55565b6006546001600160a01b03163314620003615760405162461bcd60e51b81526020600482018190526024820152600080516020620059cf8339815191526044820152606401620002cc565b6127106200038060105483620007b460201b620026b81790919060201c565b11156200038c57600080fd5b60115460408051918252602082018390527f2a42303d002f0ba6cfe8259c91d4684443fb0b3de286ba74991175d651726131910160405180910390a1601155565b6006546001600160a01b03163314620004185760405162461bcd60e51b81526020600482018190526024820152600080516020620059cf8339815191526044820152606401620002cc565b6127106200043760115483620007b460201b620026b81790919060201c565b11156200044357600080fd5b60105460408051918252602082018390527fe7f97d51d307dc44045597c9978bec0f842e6bb40d19b9444084cfa30d9ed4f2910160405180910390a1601055565b600a546001600160a01b038381169116146200053d57620004c78183600a60009054906101000a90046001600160a01b0316620007c960201b620026c41760201c565b6200053d576040805162461bcd60e51b81526020600482015260248101919091527f5661726961626c655265776172647353747261746567793a3a5377617020706160448201527f697220646f6573206e6f7420636f6e7461696e2072657761726420746f6b656e6064820152608401620002cc565b6001600160a01b038083166000818152601360209081526040822080549486166001600160a01b03199586161790556014805460018181018355919093527fce6d7b5282bd9a3661ae061feed1dbda4e52ab073b1f9285be6e155d9c38d4ec9092018054909416909217909255601554620005c3929091620026b8620007b4821b17901c565b601555604080516001600160a01b038085168252831660208201527f916e172c080569186aa7ea048268267257cf7cc49505908863f747bca8620f80910160405180910390a15050565b6006546001600160a01b03163314620006585760405162461bcd60e51b81526020600482018190526024820152600080516020620059cf8339815191526044820152606401620002cc565b600e5481151560ff9091161515036200067057600080fd5b600e805460ff19168215159081179091556040519081527f7b014ed3854e7f5cb0218d58b3c6ae7d53a68bb0af2f67bfb029ea42c38a7e859060200160405180910390a150565b6006546001600160a01b03163314620007025760405162461bcd60e51b81526020600482018190526024820152600080516020620059cf8339815191526044820152606401620002cc565b6001600160a01b038116620007695760405162461bcd60e51b815260206004820152602660248201527f4f776e61626c653a206e6577206f776e657220697320746865207a65726f206160448201526564647265737360d01b6064820152608401620002cc565b6006546040516001600160a01b03808416921690600080516020620059ef83398151915290600090a3600680546001600160a01b0319166001600160a01b0392909216919091179055565b6000620007c2828462000e2e565b9392505050565b6000836001600160a01b0316630dfe16816040518163ffffffff1660e01b8152600401602060405180830381865afa1580156200080a573d6000803e3d6000fd5b505050506040513d601f19601f8201168201806040525081019062000830919062000e55565b6001600160a01b0316836001600160a01b03161480620008c55750836001600160a01b031663d21220a76040518163ffffffff1660e01b8152600401602060405180830381865afa1580156200088a573d6000803e3d6000fd5b505050506040513d601f19601f82011682018060405250810190620008b0919062000e55565b6001600160a01b0316836001600160a01b0316145b8015620009c75750836001600160a01b0316630dfe16816040518163ffffffff1660e01b8152600401602060405180830381865afa1580156200090c573d6000803e3d6000fd5b505050506040513d601f19601f8201168201806040525081019062000932919062000e55565b6001600160a01b0316826001600160a01b03161480620009c75750836001600160a01b031663d21220a76040518163ffffffff1660e01b8152600401602060405180830381865afa1580156200098c573d6000803e3d6000fd5b505050506040513d601f19601f82011682018060405250810190620009b2919062000e55565b6001600160a01b0316826001600160a01b0316145b8015620009e65750816001600160a01b0316836001600160a01b031614155b949350505050565b828054620009fc9062000e73565b90600052602060002090601f01602090048101928262000a20576000855562000a6b565b82601f1062000a3b57805160ff191683800117855562000a6b565b8280016001018555821562000a6b579182015b8281111562000a6b57825182559160200191906001019062000a4e565b5062000a7992915062000a7d565b5090565b5b8082111562000a79576000815560010162000a7e565b634e487b7160e01b600052604160045260246000fd5b604080519081016001600160401b038111828210171562000acf5762000acf62000a94565b60405290565b604051601f8201601f191681016001600160401b038111828210171562000b005762000b0062000a94565b604052919050565b80516001600160a01b038116811462000b2057600080fd5b919050565b600082601f83011262000b3757600080fd5b815160206001600160401b0382111562000b555762000b5562000a94565b62000b65818360051b0162000ad5565b82815260069290921b8401810191818101908684111562000b8557600080fd5b8286015b8481101562000bdb576040818903121562000ba45760008081fd5b62000bae62000aaa565b62000bb98262000b08565b815262000bc885830162000b08565b8186015283529183019160400162000b89565b509695505050505050565b60006080828403121562000bf957600080fd5b604051608081016001600160401b038111828210171562000c1e5762000c1e62000a94565b8060405250809150825181526020830151602082015260408301516040820152606083015160608201525092915050565b60006060828403121562000c6257600080fd5b604051606081016001600160401b038111828210171562000c875762000c8762000a94565b80604052508091508251815260208301516020820152604083015160408201525092915050565b60008060008060008060008060006101c08a8c03121562000cce57600080fd5b89516001600160401b038082111562000ce657600080fd5b818c0191508c601f83011262000cfb57600080fd5b81518181111562000d105762000d1062000a94565b602062000d26601f8301601f1916820162000ad5565b8281528f8284870101111562000d3b57600080fd5b60005b8381101562000d5b57858101830151828201840152820162000d3e565b8381111562000d6d5760008385840101525b509c5062000d7d8e820162000b08565b9b50505062000d8f60408d0162000b08565b985060608c015191508082111562000da657600080fd5b5062000db58c828d0162000b25565b96505062000dc660808b0162000b08565b945062000dd660a08b0162000b08565b935062000de660c08b0162000b08565b925062000df78b60e08c0162000be6565b915062000e098b6101608c0162000c4f565b90509295985092959850929598565b634e487b7160e01b600052603260045260246000fd5b6000821982111562000e5057634e487b7160e01b600052601160045260246000fd5b500190565b60006020828403121562000e6857600080fd5b620007c28262000b08565b600181811c9082168062000e8857607f821691505b60208210810362000ea957634e487b7160e01b600052602260045260246000fd5b50919050565b614b108062000ebf6000396000f3fe6080604052600436106103dd5760003560e01c80638da5cb5b116101fd578063c89039c511610118578063e21ac825116100ab578063ed24911d1161007a578063ed24911d14610bd6578063f02ecb7114610beb578063f2fde38b14610c01578063f7c618c114610c21578063fdb5a03e14610c4157600080fd5b8063e21ac82514610b60578063e592c5fa14610b80578063e75ab04514610b96578063eab89a5a14610bb657600080fd5b8063da09c72c116100e7578063da09c72c14610ac5578063db8dd95c14610ae5578063dd62ed3e14610afa578063dd8ce4d614610b4057600080fd5b8063c89039c514610a5d578063cff1b6ef14610a7d578063d0e30db014610a9d578063d505accf14610aa557600080fd5b8063a9059cbb11610190578063b6b55f251161015f578063b6b55f2514610a02578063b9e57b8014610a1d578063bd079f5514610a32578063c4b24a4614610a4857600080fd5b8063a9059cbb14610995578063aa67c919146109b5578063ac0d31ff146109c8578063b52a321f146109e857600080fd5b80639e4e7318116101cc5780639e4e7318146108eb578063a4d5e67c1461091f578063a5534e711461093f578063a8ae2b7c1461097557600080fd5b80638da5cb5b146108645780639291d5631461089657806395d89b41146108b657806399729ec1146108cb57600080fd5b8063483c2ef0116102f8578063789139bc1161028b5780637ecebe001161025a5780637ecebe00146107c157806381837230146107ee5780638980f11f1461080e5780638aff733d1461082e5780638b73e6061461084457600080fd5b8063789139bc1461076057806379085425146107765780637ae267731461078c5780637d882097146107ac57600080fd5b80635ea682ea116102c75780635ea682ea146106e957806362ac20a5146106ff57806370a0823114610715578063715018a61461074b57600080fd5b8063483c2ef0146106595780634a970be7146106895780634bebd1e7146106a95780634e77ace5146106c957600080fd5b806323b872dd11610370578063313ce5671161033f578063313ce567146105dc5780633bdc6e72146106035780633ebf89f11461061957806340b47e1a1461063957600080fd5b806323b872dd1461054d5780632e1a7d4d1461056d5780632f4f21e21461058d57806330adf81f146105a857600080fd5b806318160ddd116103ac57806318160ddd146104cd5780631f15d71a146104e357806320606b70146104f957806322a051411461052d57600080fd5b806306fdde03146104395780630767711114610464578063095ea7b3146104885780630f23475d146104b857600080fd5b366104345733600080516020614a37833981519152146104325760405162461bcd60e51b815260206004820152600b60248201526a1b9bdd08185b1b1bddd95960aa1b60448201526064015b60405180910390fd5b005b600080fd5b34801561044557600080fd5b5061044e610c56565b60405161045b919061428b565b60405180910390f35b34801561047057600080fd5b5061047a600f5481565b60405190815260200161045b565b34801561049457600080fd5b506104a86104a33660046142b3565b610ce4565b604051901515815260200161045b565b3480156104c457600080fd5b5061047a610cfa565b3480156104d957600080fd5b5061047a60025481565b3480156104ef57600080fd5b5061047a60185481565b34801561050557600080fd5b5061047a7f8b73c3c69bb8fe3d512ecc4cf759cc79239f7b179b0ffacaa9a75d522b39400f81565b34801561053957600080fd5b506104326105483660046142df565b610d09565b34801561055957600080fd5b506104a8610568366004614311565b610d7a565b34801561057957600080fd5b50610432610588366004614352565b610e5e565b34801561059957600080fd5b506104326104343660046142b3565b3480156105b457600080fd5b5061047a7f6e71edae12b1b97f4d1f60370fef10105fa2faae0126114a169c64845d6126c981565b3480156105e857600080fd5b506105f1601281565b60405160ff909116815260200161045b565b34801561060f57600080fd5b5061047a60075481565b34801561062557600080fd5b50610432610634366004614352565b611011565b34801561064557600080fd5b5061043261065436600461436b565b6110b4565b34801561066557600080fd5b506104a86106743660046143a4565b60086020526000908152604090205460ff1681565b34801561069557600080fd5b506104326106a43660046143d7565b6110ec565b3480156106b557600080fd5b506104326106c43660046143a4565b611185565b3480156106d557600080fd5b506104326106e436600461442c565b611284565b3480156106f557600080fd5b5061047a60115481565b34801561070b57600080fd5b5061047a60195481565b34801561072157600080fd5b5061047a6107303660046143a4565b6001600160a01b031660009081526004602052604090205490565b34801561075757600080fd5b50610432611306565b34801561076c57600080fd5b5061047a600d5481565b34801561078257600080fd5b5061047a60155481565b34801561079857600080fd5b506104326107a736600461436b565b61137a565b3480156107b857600080fd5b5061047a611420565b3480156107cd57600080fd5b5061047a6107dc3660046143a4565b60056020526000908152604090205481565b3480156107fa57600080fd5b50610432610809366004614352565b611444565b34801561081a57600080fd5b506104326108293660046142b3565b6114af565b34801561083a57600080fd5b5061047a60105481565b34801561085057600080fd5b5061043261085f3660046143a4565b6115a7565b34801561087057600080fd5b506006546001600160a01b03165b6040516001600160a01b03909116815260200161045b565b3480156108a257600080fd5b506104326108b13660046143a4565b611728565b3480156108c257600080fd5b5061044e6117bb565b3480156108d757600080fd5b506104326108e6366004614352565b6117c8565b3480156108f757600080fd5b5061047a7fc89efdaa54c0f20c7adf612882df0950f5a951637e0307cdcb4c672f298b8bc681565b34801561092b57600080fd5b5061043261093a3660046143a4565b611856565b34801561094b57600080fd5b5061087e61095a3660046143a4565b6013602052600090815260409020546001600160a01b031681565b34801561098157600080fd5b50610432610990366004614352565b611a5b565b3480156109a157600080fd5b506104a86109b03660046142b3565b611ae9565b6104326109c33660046143a4565b611af6565b3480156109d457600080fd5b506104326109e3366004614449565b611b94565b3480156109f457600080fd5b50600e546104a89060ff1681565b348015610a0e57600080fd5b50610432610434366004614352565b348015610a2957600080fd5b5061047a611e11565b348015610a3e57600080fd5b5061047a600c5481565b348015610a5457600080fd5b5061047a611e50565b348015610a6957600080fd5b5060095461087e906001600160a01b031681565b348015610a8957600080fd5b50610432610a98366004614352565b612170565b6104326121e6565b348015610ab157600080fd5b50610432610ac036600461446e565b612283565b348015610ad157600080fd5b50600b5461087e906001600160a01b031681565b348015610af157600080fd5b5061047a612388565b348015610b0657600080fd5b5061047a610b1536600461436b565b6001600160a01b03918216600090815260036020908152604080832093909416825291909152205490565b348015610b4c57600080fd5b5061047a610b5b366004614352565b6123ba565b348015610b6c57600080fd5b50610432610b7b366004614352565b6123fa565b348015610b8c57600080fd5b5061047a60165481565b348015610ba257600080fd5b5061087e610bb1366004614352565b612465565b348015610bc257600080fd5b5061047a610bd1366004614352565b61248f565b348015610be257600080fd5b5061047a6124c3565b348015610bf757600080fd5b5061047a60175481565b348015610c0d57600080fd5b50610432610c1c3660046143a4565b612563565b348015610c2d57600080fd5b50600a5461087e906001600160a01b031681565b348015610c4d57600080fd5b5061043261264e565b60008054610c63906144dc565b80601f0160208091040260200160405190810160405280929190818152602001828054610c8f906144dc565b8015610cdc5780601f10610cb157610100808354040283529160200191610cdc565b820191906000526020600020905b815481529060010190602001808311610cbf57829003601f168201915b505050505081565b6000610cf13384846128d9565b50600192915050565b6000610d04611420565b905090565b600b546001600160a01b03163314610d335760405162461bcd60e51b815260040161042990614516565b6016849055601881905560178390556019829055600080610d526129e7565b509092509050610d6a610d658383612b38565b612b44565b610d72612c36565b505050505050565b6001600160a01b038316600081815260036020908152604080832033808552925282205491929091908214801590610db457506000198114155b15610e45576000610de0856040518060600160405280602f8152602001614a57602f9139849190612ec8565b6001600160a01b038881166000818152600360209081526040808320948916808452948252918290208590559051848152939450919290917f8c5be1e5ebec7d5bd14f71427d1e84f3dd0314c0f7b2291e5b200ac8c7c3b925910160405180910390a3505b610e50868686612ef4565b6001925050505b9392505050565b600260125403610e805760405162461bcd60e51b815260040161042990614538565b60026012819055506000610ea8600254610ea284610e9c611420565b90613027565b90613033565b90506019548111610f0e5760405162461bcd60e51b815260206004820152602a60248201527f4161766553747261746567794176617856313a3a62656c6f77206d696e696d756044820152696d20776974686472617760b01b6064820152608401610429565b801561100857610f1e338361303f565b6000610f2982613115565b604051909150600090339083908381818185875af1925050503d8060008114610f6e576040519150601f19603f3d011682016040523d82523d6000602084013e610f73565b606091505b5050905080610fd05760405162461bcd60e51b815260206004820152602360248201527f4161766553747261746567794176617856313a3a7472616e73666572206661696044820152621b195960ea1b6064820152608401610429565b60405182815233907f884edad9ce6fa2440d8a54cc123490eb96d2768479d49ff9c7366125a94243649060200160405180910390a250505b50506001601255565b6006546001600160a01b0316331461103b5760405162461bcd60e51b81526004016104299061456f565b6000811161104857600080fd5b604051339082156108fc029083906000818181858888f19350505050158015611075573d6000803e3d6000fd5b506040805160008152602081018390527f8c1256b8896378cd5044f80c202f9772b9d77dc85c8a6eb51967210b09bfaa2891015b60405180910390a150565b600b546001600160a01b031633146110de5760405162461bcd60e51b815260040161042990614516565b6110e88282613230565b5050565b60095460405163d505accf60e01b8152336004820152306024820152604481018790526064810186905260ff8516608482015260a4810184905260c481018390526001600160a01b039091169063d505accf9060e401600060405180830381600087803b15801561115c57600080fd5b505af1158015611170573d6000803e3d6000fd5b5050505061117e338661338c565b5050505050565b6006546001600160a01b031633146111af5760405162461bcd60e51b81526004016104299061456f565b6001600160a01b03811660009081526008602052604090205460ff16156112185760405162461bcd60e51b815260206004820152601c60248201527f5065726d697373696f6e65643a3a616c6c6f774465706f7369746f72000000006044820152606401610429565b6001600160a01b0381166000908152600860205260409020805460ff1916600190811790915560075461124a916126b8565b6007556040516001600160a01b038216907fc0a1035c16faf8d1304056d92c00edf028f87e62b8235a938f00af9e3c0312c590600090a250565b6006546001600160a01b031633146112ae5760405162461bcd60e51b81526004016104299061456f565b600e5481151560ff9091161515036112c557600080fd5b600e805460ff19168215159081179091556040519081527f7b014ed3854e7f5cb0218d58b3c6ae7d53a68bb0af2f67bfb029ea42c38a7e85906020016110a9565b6006546001600160a01b031633146113305760405162461bcd60e51b81526004016104299061456f565b6006546040516000916001600160a01b0316907f8be0079c531659141344cd1fd0a4f28419497f9722a3daafe3b4186f6b6457e0908390a3600680546001600160a01b0319169055565b6006546001600160a01b031633146113a45760405162461bcd60e51b81526004016104299061456f565b60405163095ea7b360e01b81526001600160a01b0382811660048301526000602483015283169063095ea7b3906044016020604051808303816000875af11580156113f3573d6000803e3d6000fd5b505050506040513d601f19601f8201168201806040525081019061141791906145a4565b6110e857600080fd5b600080600061142d6129e7565b50909250905061143d8282612b38565b9250505090565b6006546001600160a01b0316331461146e5760405162461bcd60e51b81526004016104299061456f565b600c5460408051918252602082018390527f481f79ac3a523b6d6db3c5a720e190e986d1cc1b41adcdf50f9caef849901100910160405180910390a1600c55565b6006546001600160a01b031633146114d95760405162461bcd60e51b81526004016104299061456f565b600081116114e657600080fd5b60405163a9059cbb60e01b8152336004820152602481018290526001600160a01b0383169063a9059cbb906044016020604051808303816000875af1158015611533573d6000803e3d6000fd5b505050506040513d601f19601f8201168201806040525081019061155791906145a4565b61156057600080fd5b604080516001600160a01b0384168152602081018390527f8c1256b8896378cd5044f80c202f9772b9d77dc85c8a6eb51967210b09bfaa2891015b60405180910390a15050565b6006546001600160a01b031633146115d15760405162461bcd60e51b81526004016104299061456f565b6000600754116116405760405162461bcd60e51b815260206004820152603460248201527f5065726d697373696f6e65643a3a72656d6f76654465706f7369746f722c206e6044820152736f20616c6c6f776564206465706f7369746f727360601b6064820152608401610429565b6001600160a01b03811660009081526008602052604090205460ff1615156001146116c05760405162461bcd60e51b815260206004820152602a60248201527f5065726d697373696f6e65643a3a72656d6f76654465706f7369746f722c206e6044820152691bdd08185b1b1bddd95960b21b6064820152608401610429565b6001600160a01b0381166000908152600860205260409020805460ff191690556007546116ee906001612b38565b6007556040516001600160a01b038216907f0e86f6608b536e5339a25b65ff531f5ea91e1313d056ecd4752b35cbd16137d490600090a250565b600b546001600160a01b031633146117525760405162461bcd60e51b815260040161042990614516565b600b54604080516001600160a01b03928316815291831660208301527fa8e91499ed37682f43cffb045fcc7d379a91e8c9a14e6321877ee34dee564c00910160405180910390a1600b80546001600160a01b0319166001600160a01b0392909216919091179055565b60018054610c63906144dc565b6006546001600160a01b031633146117f25760405162461bcd60e51b81526004016104299061456f565b61271061180a601054836126b890919063ffffffff16565b111561181557600080fd5b60115460408051918252602082018390527f2a42303d002f0ba6cfe8259c91d4684443fb0b3de286ba74991175d651726131910160405180910390a1601155565b600b546001600160a01b031633146118805760405162461bcd60e51b815260040161042990614516565b6001600160a01b038116600090815260136020526040812080546001600160a01b0319169055601454815b8181101561196b57601481815481106118c6576118c66145c1565b6000918252602090912001546001600160a01b03908116908516036119635760148054600194506118f89085906145ed565b81548110611908576119086145c1565b600091825260209091200154601480546001600160a01b039092169183908110611934576119346145c1565b9060005260206000200160006101000a8154816001600160a01b0302191690836001600160a01b031602179055505b6001016118ab565b50816119d65760405162461bcd60e51b815260206004820152603460248201527f5661726961626c655265776172647353747261746567793a3a52657761726420604482015273746f2064656c657465206e6f7420666f756e642160601b6064820152608401610429565b60148054806119e7576119e7614604565b600082815260209020810160001990810180546001600160a01b0319169055019055601554611a17906001612b38565b6015556040516001600160a01b03841681527f963b7c735475147a62c589c2d7cb8ec4b0a6b7af4f97373d79ebfa42ab8aa7dc9060200160405180910390a1505050565b6006546001600160a01b03163314611a855760405162461bcd60e51b81526004016104299061456f565b612710611a9d601154836126b890919063ffffffff16565b1115611aa857600080fd5b60105460408051918252602082018390527fe7f97d51d307dc44045597c9978bec0f842e6bb40d19b9444084cfa30d9ed4f2910160405180910390a1601055565b6000610cf1338484612ef4565b600260125403611b185760405162461bcd60e51b815260040161042990614538565b6002601281905550600080516020614a378339815191526001600160a01b031663d0e30db0346040518263ffffffff1660e01b81526004016000604051808303818588803b158015611b6957600080fd5b505af1158015611b7d573d6000803e3d6000fd5b5050505050611b8c813461338c565b506001601255565b6006546001600160a01b03163314611bbe5760405162461bcd60e51b81526004016104299061456f565b6040516370a0823160e01b8152306004820152600090600080516020614a37833981519152906370a0823190602401602060405180830381865afa158015611c0a573d6000803e3d6000fd5b505050506040513d601f19601f82011682018060405250810190611c2e919061461a565b9050600080611c3b6129e7565b509092509050611c4e610d658383612b38565b601b54604051631a4ca37b60e21b8152600080516020614a37833981519152600482015260001960248201523060448201526001600160a01b03909116906369328dec906064016020604051808303816000875af1158015611cb4573d6000803e3d6000fd5b505050506040513d601f19601f82011682018060405250810190611cd8919061461a565b506040516370a0823160e01b8152306004820152600090600080516020614a37833981519152906370a0823190602401602060405180830381865afa158015611d25573d6000803e3d6000fd5b505050506040513d601f19601f82011682018060405250810190611d49919061461a565b905085611d568286612b38565b1015611db45760405162461bcd60e51b815260206004820152602760248201527f4161766553747261746567794176617856313a3a7265736375654465706c6f79604482015266656446756e647360c81b6064820152608401610429565b7fc7606d21ac05cd309191543e409f0845c016120563783d70e4f41419dc0ef234611ddd611420565b6002546040805192835260208301919091520160405180910390a1600e5460ff161515600103610d7257610d726000611284565b600080611e1c611e50565b9050600c548110611e4857611e42612710610ea26010548461302790919063ffffffff16565b91505090565b600091505090565b604080516002808252606082018352600092839291906020830190803683375050601c5482519293506001600160a01b031691839150600090611e9557611e956145c1565b6001600160a01b039283166020918202929092010152601d54825191169082906001908110611ec657611ec66145c1565b6001600160a01b039283166020918202929092010152601a54604051634c0369c360e01b815260009283921690634c0369c390611f099086903090600401614649565b600060405180830381865afa158015611f26573d6000803e3d6000fd5b505050506040513d6000823e601f3d908101601f19168201604052611f4e9190810190614766565b6040516370a0823160e01b81523060048201529193509150600090600080516020614a37833981519152906370a0823190602401602060405180830381865afa158015611f9f573d6000803e3d6000fd5b505050506040513d601f19601f82011682018060405250810190611fc3919061461a565b9050611fcf81476126b8565b5060005b8351811015612167576000848281518110611ff057611ff06145c1565b60200260200101519050600080516020614a378339815191526001600160a01b0316816001600160a01b0316036120545761204d848381518110612036576120366145c1565b6020026020010151846126b890919063ffffffff16565b9250612154565b6040516370a0823160e01b81523060048201526000906001600160a01b038316906370a0823190602401602060405180830381865afa15801561209b573d6000803e3d6000fd5b505050506040513d601f19601f820116820180604052508101906120bf919061461a565b905060006120ef8685815181106120d8576120d86145c1565b6020026020010151836126b890919063ffffffff16565b6001600160a01b0380851660009081526013602052604090205491925016811580159061212457506001600160a01b03811615155b156121505761214d6121468386600080516020614a37833981519152856134f1565b87906126b8565b95505b5050505b508061215f8161482b565b915050611fd3565b50949350505050565b6006546001600160a01b0316331461219a5760405162461bcd60e51b81526004016104299061456f565b80156121a557600080fd5b600f5460408051918252602082018390527f3cc372f330f95ac9540626dc8a25f5bf21ba607215a5d58304cb804d446f104a910160405180910390a1600f55565b6002601254036122085760405162461bcd60e51b815260040161042990614538565b6002601281905550600080516020614a378339815191526001600160a01b031663d0e30db0346040518263ffffffff1660e01b81526004016000604051808303818588803b15801561225957600080fd5b505af115801561226d573d6000803e3d6000fd5b505050505061227c333461338c565b6001601255565b428410156122c55760405162461bcd60e51b815260206004820152600f60248201526e1c195c9b5a5d0e8e995e1c1a5c9959608a1b6044820152606401610429565b6001600160a01b038716600090815260056020526040812080547f6e71edae12b1b97f4d1f60370fef10105fa2faae0126114a169c64845d6126c9918a918a918a9190866123128361482b565b909155506040805160208101969096526001600160a01b0394851690860152929091166060840152608083015260a082015260c0810186905260e00160405160208183030381529060405280519060200120905061237388828686866135af565b61237e8888886128d9565b5050505050505050565b60008060006123956129e7565b50909250905061143d6123a88383612b38565b610ea284670de0b6b3a7640000613027565b60006123d06123c7611420565b60025490613027565b6000036123db575090565b6123f46123e6611420565b600254610ea2908590613027565b92915050565b6006546001600160a01b031633146124245760405162461bcd60e51b81526004016104299061456f565b600d5460408051918252602082018390527fa5dae50539d56dfe1fb5273d883b0c39bc76750a25d036fc5fbd09ad8fd5f57f910160405180910390a1600d55565b6014818154811061247557600080fd5b6000918252602090912001546001600160a01b0316905081565b600061249c6123c7611420565b6000036124ab57506000919050565b6123f4600254610ea26124bc611420565b8590613027565b60007f8b73c3c69bb8fe3d512ecc4cf759cc79239f7b179b0ffacaa9a75d522b39400f60001b60006040516124f89190614844565b6040519081900390207fc89efdaa54c0f20c7adf612882df0950f5a951637e0307cdcb4c672f298b8bc646604080516020810195909552840192909252606083015260808201523060a082015260c00160405160208183030381529060405280519060200120905090565b6006546001600160a01b0316331461258d5760405162461bcd60e51b81526004016104299061456f565b6001600160a01b0381166125f25760405162461bcd60e51b815260206004820152602660248201527f4f776e61626c653a206e6577206f776e657220697320746865207a65726f206160448201526564647265737360d01b6064820152608401610429565b6006546040516001600160a01b038084169216907f8be0079c531659141344cd1fd0a4f28419497f9722a3daafe3b4186f6b6457e090600090a3600680546001600160a01b0319166001600160a01b0392909216919091179055565b3233146126875760405162461bcd60e51b81526020600482015260076024820152666f6e6c79454f4160c81b6044820152606401610429565b6002601254036126a95760405162461bcd60e51b815260040161042990614538565b600260125561227c60006136db565b6000610e5782846148df565b6000836001600160a01b0316630dfe16816040518163ffffffff1660e01b8152600401602060405180830381865afa158015612704573d6000803e3d6000fd5b505050506040513d601f19601f8201168201806040525081019061272891906148f7565b6001600160a01b0316836001600160a01b031614806127b95750836001600160a01b031663d21220a76040518163ffffffff1660e01b8152600401602060405180830381865afa158015612780573d6000803e3d6000fd5b505050506040513d601f19601f820116820180604052508101906127a491906148f7565b6001600160a01b0316836001600160a01b0316145b80156128b35750836001600160a01b0316630dfe16816040518163ffffffff1660e01b8152600401602060405180830381865afa1580156127fe573d6000803e3d6000fd5b505050506040513d601f19601f8201168201806040525081019061282291906148f7565b6001600160a01b0316826001600160a01b031614806128b35750836001600160a01b031663d21220a76040518163ffffffff1660e01b8152600401602060405180830381865afa15801561287a573d6000803e3d6000fd5b505050506040513d601f19601f8201168201806040525081019061289e91906148f7565b6001600160a01b0316826001600160a01b0316145b80156128d15750816001600160a01b0316836001600160a01b031614155b949350505050565b6001600160a01b03831661292f5760405162461bcd60e51b815260206004820152601c60248201527f5f617070726f76653a3a6f776e6572207a65726f2061646472657373000000006044820152606401610429565b6001600160a01b0382166129855760405162461bcd60e51b815260206004820152601e60248201527f5f617070726f76653a3a7370656e646572207a65726f206164647265737300006044820152606401610429565b6001600160a01b0383811660008181526003602090815260408083209487168084529482529182902085905590518481527f8c5be1e5ebec7d5bd14f71427d1e84f3dd0314c0f7b2291e5b200ac8c7c3b92591015b60405180910390a3505050565b601c546040516370a0823160e01b8152306004820152600091829182916001600160a01b0316906370a0823190602401602060405180830381865afa158015612a34573d6000803e3d6000fd5b505050506040513d601f19601f82011682018060405250810190612a58919061461a565b601d546040516370a0823160e01b81523060048201529194506001600160a01b0316906370a0823190602401602060405180830381865afa158015612aa1573d6000803e3d6000fd5b505050506040513d601f19601f82011682018060405250810190612ac5919061461a565b9150600090506000612af4601654610ea2612aed601854601654612b3890919063ffffffff16565b8790613027565b905082811115612b3257612b2f83612b29601654610ea2612b22601854601654612b3890919063ffffffff16565b8990613027565b90612b38565b91505b50909192565b6000610e5782846145ed565b600080612b4f6129e7565b5090925090506000612b96612b6885612b298686612b38565b612b29601854610ea2612b88601754601654612b3890919063ffffffff16565b610e9c8a612b298b8b612b38565b90506000612ba48383612b38565b9050801561117e57601b54604051630b6b65f560e21b8152600080516020614a37833981519152600482015260248101839052600260448201526001600160a01b0390911690632dad97d4906064016020604051808303816000875af1158015612c12573d6000803e3d6000fd5b505050506040513d601f19601f82011682018060405250810190610d72919061461a565b6000806000612c436129e7565b9250925092506000612c75601854610ea2612c6b601754601654612b3890919063ffffffff16565b610e9c8888612b38565b601b5460405163095ea7b360e01b81526001600160a01b03909116600482015260248101829052909150600080516020614a378339815191529063095ea7b3906044016020604051808303816000875af1158015612cd7573d6000803e3d6000fd5b505050506040513d601f19601f82011682018060405250810190612cfb91906145a4565b505b80841015612e455780612d1085846126b8565b1115612d2357612d208185612b38565b91505b6019548210612e4557601b5460405163a415bcad60e01b8152600080516020614a3783398151915260048201526024810184905260026044820152600060648201523060848201526001600160a01b039091169063a415bcad9060a401600060405180830381600087803b158015612d9a57600080fd5b505af1158015612dae573d6000803e3d6000fd5b5050601b5460405163617ba03760e01b8152600080516020614a37833981519152600482015260248101869052306044820152600060648201526001600160a01b03909116925063617ba0379150608401600060405180830381600087803b158015612e1957600080fd5b505af1158015612e2d573d6000803e3d6000fd5b50505050612e396129e7565b91955093509150612cfd565b601b5460405163095ea7b360e01b81526001600160a01b03909116600482015260006024820152600080516020614a378339815191529063095ea7b3906044016020604051808303816000875af1158015612ea4573d6000803e3d6000fd5b505050506040513d601f19601f8201168201806040525081019061117e91906145a4565b60008184841115612eec5760405162461bcd60e51b8152600401610429919061428b565b505050900390565b6001600160a01b038216612f675760405162461bcd60e51b815260206004820152603460248201527f5f7472616e73666572546f6b656e733a2063616e6e6f74207472616e7366657260448201527320746f20746865207a65726f206164647265737360601b6064820152608401610429565b612fa4816040518060600160405280602e8152602001614aad602e91396001600160a01b0386166000908152600460205260409020549190612ec8565b6001600160a01b038085166000908152600460205260408082209390935590841681522054612fd390826126b8565b6001600160a01b0380841660008181526004602052604090819020939093559151908516907fddf252ad1be2c89b69c2b068fc378daa952ba7f163c4a11628f55a4df523b3ef906129da9085815260200190565b6000610e578284614914565b6000610e578284614933565b61307c81604051806060016040528060278152602001614a86602791396001600160a01b0385166000908152600460205260409020549190612ec8565b60046000846001600160a01b03166001600160a01b03168152602001908152602001600020819055506130cc81604051806060016040528060278152602001614a10602791396002549190612ec8565b6002556040518181526000906001600160a01b038416907fddf252ad1be2c89b69c2b068fc378daa952ba7f163c4a11628f55a4df523b3ef906020015b60405180910390a35050565b600061312082612b44565b600061312a6129e7565b505090508083111561313c5760001992505b601b54604051631a4ca37b60e21b8152600080516020614a378339815191526004820152602481018590523060448201526000916001600160a01b0316906369328dec906064016020604051808303816000875af11580156131a2573d6000803e3d6000fd5b505050506040513d601f19601f820116820180604052508101906131c6919061461a565b604051632e1a7d4d60e01b815260048101829052909150600080516020614a3783398151915290632e1a7d4d90602401600060405180830381600087803b15801561321057600080fd5b505af1158015613224573d6000803e3d6000fd5b50505050610e57612c36565b600a546001600160a01b038381169116146132d257600a5461325e90829084906001600160a01b03166126c4565b6132d2576040805162461bcd60e51b81526020600482015260248101919091527f5661726961626c655265776172647353747261746567793a3a5377617020706160448201527f697220646f6573206e6f7420636f6e7461696e2072657761726420746f6b656e6064820152608401610429565b6001600160a01b03808316600081815260136020526040812080549385166001600160a01b03199485161790556014805460018181018355919092527fce6d7b5282bd9a3661ae061feed1dbda4e52ab073b1f9285be6e155d9c38d4ec9091018054909316909117909155601554613349916126b8565b601555604080516001600160a01b038085168252831660208201527f916e172c080569186aa7ea048268267257cf7cc49505908863f747bca8620f80910161159b565b6007541561340f573360009081526008602052604090205460ff16151560011461340f5760405162461bcd60e51b815260206004820152602e60248201527f5065726d697373696f6e65643a3a6f6e6c79416c6c6f7765644465706f73697460448201526d1ccb081b9bdd08185b1b1bddd95960921b6064820152608401610429565b600e5460ff1615156001146134665760405162461bcd60e51b815260206004820152601c60248201527f4161766553747261746567794176617856313a3a5f6465706f736974000000006044820152606401610429565b600d541561348f576000613478611e50565b9050600d5481111561348d5761348d826136db565b505b6134a18261349c836123ba565b61393f565b6134aa816139c3565b816001600160a01b03167fe1fffcc4923d04b559f4d29a8bfc6cda04eb5b0d3c460751c2402c5c5cc9109c826040516134e591815260200190565b60405180910390a25050565b6000806134fe8585613b31565b509050600080846001600160a01b0316630902f1ac6040518163ffffffff1660e01b8152600401606060405180830381865afa158015613542573d6000803e3d6000fd5b505050506040513d601f19601f82011682018060405250810190613566919061496c565b5091509150866001600160a01b0316836001600160a01b03161461358657905b6135a388836001600160701b0316836001600160701b0316613b62565b98975050505050505050565b60006135b96124c3565b60405161190160f01b602082015260228101919091526042810186905260620160408051601f198184030181528282528051602091820120600080855291840180845281905260ff88169284019290925260608301869052608083018590529092509060019060a0016020604051602081039080840390855afa158015613644573d6000803e3d6000fd5b5050604051601f1901519150506001600160a01b0381161580159061367a5750866001600160a01b0316816001600160a01b0316145b6136d25760405162461bcd60e51b8152602060048201526024808201527f417263683a3a76616c69646174655369673a20696e76616c6964207369676e616044820152637475726560e01b6064820152608401610429565b50505050505050565b6040805160028082526060820183526000926020830190803683375050601c5482519293506001600160a01b03169183915060009061371c5761371c6145c1565b6001600160a01b039283166020918202929092010152601d5482519116908290600190811061374d5761374d6145c1565b6001600160a01b039283166020918202929092010152601a5460405163bb492bf560e01b815291169063bb492bf59061378c9084903090600401614649565b6000604051808303816000875af11580156137ab573d6000803e3d6000fd5b505050506040513d6000823e601f3d908101601f191682016040526137d39190810190614766565b505060006137df613bb0565b90506137eb8184612b38565b90508260000361386057600c548110156138605760405162461bcd60e51b815260206004820152603060248201527f5661726961626c655265776172647353747261746567793a3a5265696e76657360448201526f7420616d6f756e7420746f6f206c6f7760801b6064820152608401610429565b600061387d612710610ea26011548561302790919063ffffffff16565b905080156138a257600a54600b546138a2916001600160a01b03908116911683613dd5565b60006138bf612710610ea26010548661302790919063ffffffff16565b905080156138de57600a546138de906001600160a01b03163383613dd5565b6138f46138ef82612b298686612b38565b6139c3565b7fc7606d21ac05cd309191543e409f0845c016120563783d70e4f41419dc0ef23461391d611420565b6002546040805192835260208301919091520160405180910390a15050505050565b60025461394c90826126b8565b6002556001600160a01b03821660009081526004602052604090205461397290826126b8565b6001600160a01b0383166000818152600460205260408082209390935591519091907fddf252ad1be2c89b69c2b068fc378daa952ba7f163c4a11628f55a4df523b3ef906131099085815260200190565b60008111613a235760405162461bcd60e51b815260206004820152602760248201527f4161766553747261746567794176617856313a3a5f7374616b654465706f736960448201526674546f6b656e7360c81b6064820152608401610429565b601b5460405163095ea7b360e01b81526001600160a01b03909116600482015260248101829052600080516020614a378339815191529063095ea7b3906044016020604051808303816000875af1158015613a82573d6000803e3d6000fd5b505050506040513d601f19601f82011682018060405250810190613aa691906145a4565b50601b5460405163617ba03760e01b8152600080516020614a37833981519152600482015260248101839052306044820152600060648201526001600160a01b039091169063617ba03790608401600060405180830381600087803b158015613b0e57600080fd5b505af1158015613b22573d6000803e3d6000fd5b50505050613b2e612c36565b50565b600080826001600160a01b0316846001600160a01b031610613b54578284613b57565b83835b915091509250929050565b600080613b71856103e5613027565b90506000613b7f8285613027565b90506000613b9983613b93886103e8613027565b906126b8565b9050613ba58282613033565b979650505050505050565b6040516370a0823160e01b81523060048201526000908190600080516020614a37833981519152906370a0823190602401602060405180830381865afa158015613bfe573d6000803e3d6000fd5b505050506040513d601f19601f82011682018060405250810190613c22919061461a565b60145490915060005b81811015613dcd57600060148281548110613c4857613c486145c1565b6000918252602090912001546001600160a01b0316905073b31f66aa3c1e785363f0875a1b74e27b85fd66c6198101613d0157478015613cfa57600080516020614a378339815191526001600160a01b031663d0e30db0826040518263ffffffff1660e01b81526004016000604051808303818588803b158015613ccb57600080fd5b505af1158015613cdf573d6000803e3d6000fd5b5050505050613cf781866126b890919063ffffffff16565b94505b5050613dbb565b6040516370a0823160e01b81523060048201526000906001600160a01b038316906370a0823190602401602060405180830381865afa158015613d48573d6000803e3d6000fd5b505050506040513d601f19601f82011682018060405250810190613d6c919061461a565b90508015613db8576001600160a01b03808316600090815260136020526040902054168015613db657600a54613db39061214690849086906001600160a01b031685613eaa565b95505b505b50505b80613dc58161482b565b915050613c2b565b509092915050565b60405163a9059cbb60e01b81526001600160a01b0383811660048301526024820183905284169063a9059cbb906044016020604051808303816000875af1158015613e24573d6000803e3d6000fd5b505050506040513d601f19601f82011682018060405250810190613e4891906145a4565b613ea55760405162461bcd60e51b815260206004820152602860248201527f4161766553747261746567794176617856313a3a5452414e534645525f46524f6044820152671357d1905253115160c21b6064820152608401610429565b505050565b600080613eb78585613b31565b509050600080846001600160a01b0316630902f1ac6040518163ffffffff1660e01b8152600401606060405180830381865afa158015613efb573d6000803e3d6000fd5b505050506040513d601f19601f82011682018060405250810190613f1f919061496c565b5091509150866001600160a01b0316836001600160a01b031614613f3f57905b600080613f5f8a856001600160701b0316856001600160701b0316613b62565b9050886001600160a01b0316856001600160a01b031614613f7c57905b613f906001600160a01b038a16888c61401e565b6040805160008152602081019182905263022c0d9f60e01b9091526001600160a01b0388169063022c0d9f90613fcf90859085903090602481016149bc565b600060405180830381600087803b158015613fe957600080fd5b505af1158015613ffd573d6000803e3d6000fd5b5050505081811161400e5781614010565b805b9a9950505050505050505050565b604080516001600160a01b03848116602483015260448083018590528351808403909101815260649092018352602080830180516001600160e01b031663a9059cbb60e01b17905283518085019094528084527f5361666545524332303a206c6f772d6c6576656c2063616c6c206661696c656490840152613ea5928692916000916140ae91851690849061412b565b805190915015613ea557808060200190518101906140cc91906145a4565b613ea55760405162461bcd60e51b815260206004820152602a60248201527f5361666545524332303a204552433230206f7065726174696f6e20646964206e6044820152691bdd081cdd58d8d9595960b21b6064820152608401610429565b60606128d18484600085856001600160a01b0385163b61418d5760405162461bcd60e51b815260206004820152601d60248201527f416464726573733a2063616c6c20746f206e6f6e2d636f6e74726163740000006044820152606401610429565b600080866001600160a01b031685876040516141a991906149f3565b60006040518083038185875af1925050503d80600081146141e6576040519150601f19603f3d011682016040523d82523d6000602084013e6141eb565b606091505b5091509150613ba582828660608315614205575081610e57565b8251156142155782518084602001fd5b8160405162461bcd60e51b8152600401610429919061428b565b60005b8381101561424a578181015183820152602001614232565b83811115614259576000848401525b50505050565b6000815180845261427781602086016020860161422f565b601f01601f19169290920160200192915050565b602081526000610e57602083018461425f565b6001600160a01b0381168114613b2e57600080fd5b600080604083850312156142c657600080fd5b82356142d18161429e565b946020939093013593505050565b600080600080608085870312156142f557600080fd5b5050823594602084013594506040840135936060013592509050565b60008060006060848603121561432657600080fd5b83356143318161429e565b925060208401356143418161429e565b929592945050506040919091013590565b60006020828403121561436457600080fd5b5035919050565b6000806040838503121561437e57600080fd5b82356143898161429e565b915060208301356143998161429e565b809150509250929050565b6000602082840312156143b657600080fd5b8135610e578161429e565b803560ff811681146143d257600080fd5b919050565b600080600080600060a086880312156143ef57600080fd5b8535945060208601359350614406604087016143c1565b94979396509394606081013594506080013592915050565b8015158114613b2e57600080fd5b60006020828403121561443e57600080fd5b8135610e578161441e565b6000806040838503121561445c57600080fd5b8235915060208301356143998161441e565b600080600080600080600060e0888a03121561448957600080fd5b87356144948161429e565b965060208801356144a48161429e565b955060408801359450606088013593506144c0608089016143c1565b925060a0880135915060c0880135905092959891949750929550565b600181811c908216806144f057607f821691505b60208210810361451057634e487b7160e01b600052602260045260246000fd5b50919050565b6020808252600890820152672cb7b7363ca232bb60c11b604082015260600190565b6020808252601f908201527f5265656e7472616e637947756172643a207265656e7472616e742063616c6c00604082015260600190565b6020808252818101527f4f776e61626c653a2063616c6c6572206973206e6f7420746865206f776e6572604082015260600190565b6000602082840312156145b657600080fd5b8151610e578161441e565b634e487b7160e01b600052603260045260246000fd5b634e487b7160e01b600052601160045260246000fd5b6000828210156145ff576145ff6145d7565b500390565b634e487b7160e01b600052603160045260246000fd5b60006020828403121561462c57600080fd5b5051919050565b634e487b7160e01b600052604160045260246000fd5b604080825283519082018190526000906020906060840190828701845b8281101561468b5781516001600160a01b031684529284019290840190600101614666565b5050506001600160a01b039490941692019190915250919050565b604051601f8201601f1916810167ffffffffffffffff811182821017156146cf576146cf614633565b604052919050565b600067ffffffffffffffff8211156146f1576146f1614633565b5060051b60200190565b600082601f83011261470c57600080fd5b8151602061472161471c836146d7565b6146a6565b82815260059290921b8401810191818101908684111561474057600080fd5b8286015b8481101561475b5780518352918301918301614744565b509695505050505050565b6000806040838503121561477957600080fd5b825167ffffffffffffffff8082111561479157600080fd5b818501915085601f8301126147a557600080fd5b815160206147b561471c836146d7565b82815260059290921b840181019181810190898411156147d457600080fd5b948201945b838610156147fb5785516147ec8161429e565b825294820194908201906147d9565b9188015191965090935050508082111561481457600080fd5b50614821858286016146fb565b9150509250929050565b60006001820161483d5761483d6145d7565b5060010190565b600080835481600182811c91508083168061486057607f831692505b6020808410820361487f57634e487b7160e01b86526022600452602486fd5b81801561489357600181146148a4576148d1565b60ff198616895284890196506148d1565b60008a81526020902060005b868110156148c95781548b8201529085019083016148b0565b505084890196505b509498975050505050505050565b600082198211156148f2576148f26145d7565b500190565b60006020828403121561490957600080fd5b8151610e578161429e565b600081600019048311821515161561492e5761492e6145d7565b500290565b60008261495057634e487b7160e01b600052601260045260246000fd5b500490565b80516001600160701b03811681146143d257600080fd5b60008060006060848603121561498157600080fd5b61498a84614955565b925061499860208501614955565b9150604084015163ffffffff811681146149b157600080fd5b809150509250925092565b84815283602082015260018060a01b03831660408201526080606082015260006149e9608083018461425f565b9695505050505050565b60008251614a0581846020870161422f565b919091019291505056fe5f6275726e3a206275726e20616d6f756e74206578636565647320746f74616c20737570706c79000000000000000000000000b31f66aa3c1e785363f0875a1b74e27b85fd66c77472616e7366657246726f6d3a207472616e7366657220616d6f756e74206578636565647320616c6c6f77616e63655f6275726e3a206275726e20616d6f756e7420657863656564732066726f6d2062616c616e63655f7472616e73666572546f6b656e733a207472616e7366657220657863656564732066726f6d2062616c616e6365a26469706673582212201e425758dea89d468fc73e657001baccbd4937958d87e2d23bf7587d852a055e64736f6c634300080d00334f776e61626c653a2063616c6c6572206973206e6f7420746865206f776e65728be0079c531659141344cd1fd0a4f28419497f9722a3daafe3b4186f6b6457e0",
    "linkReferences": {}
  },
  "methodIdentifiers": {
    "ADMIN_FEE_BIPS()": "07677111",
    "DEPOSITS_ENABLED()": "b52a321f",
    "DEV_FEE_BIPS()": "5ea682ea",
    "DOMAIN_TYPEHASH()": "20606b70",
    "MAX_TOKENS_TO_DEPOSIT_WITHOUT_REINVEST()": "789139bc",
    "MIN_TOKENS_TO_REINVEST()": "bd079f55",
    "PERMIT_TYPEHASH()": "30adf81f",
    "REINVEST_REWARD_BIPS()": "8aff733d",
    "VERSION_HASH()": "9e4e7318",
    "addReward(address,address)": "40b47e1a",
    "allowDepositor(address)": "4bebd1e7",
    "allowance(address,address)": "dd62ed3e",
    "allowedDepositors(address)": "483c2ef0",
    "approve(address,uint256)": "095ea7b3",
    "balanceOf(address)": "70a08231",
    "checkReward()": "c4b24a46",
    "decimals()": "313ce567",
    "deposit()": "d0e30db0",
    "deposit(uint256)": "b6b55f25",
    "depositFor(address)": "aa67c919",
    "depositFor(address,uint256)": "2f4f21e2",
    "depositToken()": "c89039c5",
    "depositWithPermit(uint256,uint256,uint8,bytes32,bytes32)": "4a970be7",
    "devAddr()": "da09c72c",
    "estimateDeployedBalance()": "0f23475d",
    "estimateReinvestReward()": "b9e57b80",
    "getActualLeverage()": "db8dd95c",
    "getDepositTokensForShares(uint256)": "eab89a5a",
    "getDomainSeparator()": "ed24911d",
    "getSharesForDepositTokens(uint256)": "dd8ce4d6",
    "leverageBips()": "1f15d71a",
    "leverageLevel()": "e592c5fa",
    "minMinting()": "62ac20a5",
    "name()": "06fdde03",
    "nonces(address)": "7ecebe00",
    "numberOfAllowedDepositors()": "3bdc6e72",
    "owner()": "8da5cb5b",
    "permit(address,address,uint256,uint256,uint8,bytes32,bytes32)": "d505accf",
    "recoverERC20(address,uint256)": "8980f11f",
    "recoverWETH(uint256)": "3ebf89f1",
    "reinvest()": "fdb5a03e",
    "removeDepositor(address)": "8b73e606",
    "removeReward(address)": "a4d5e67c",
    "renounceOwnership()": "715018a6",
    "rescueDeployedFunds(uint256,bool)": "ac0d31ff",
    "revokeAllowance(address,address)": "7ae26773",
    "rewardCount()": "79085425",
    "rewardSwapPairs(address)": "a5534e71",
    "rewardToken()": "f7c618c1",
    "safetyFactor()": "f02ecb71",
    "supportedRewards(uint256)": "e75ab045",
    "symbol()": "95d89b41",
    "totalDeposits()": "7d882097",
    "totalSupply()": "18160ddd",
    "transfer(address,uint256)": "a9059cbb",
    "transferFrom(address,address,uint256)": "23b872dd",
    "transferOwnership(address)": "f2fde38b",
    "updateAdminFee(uint256)": "cff1b6ef",
    "updateDepositsEnabled(bool)": "4e77ace5",
    "updateDevAddr(address)": "9291d563",
    "updateDevFee(uint256)": "99729ec1",
    "updateLeverage(uint256,uint256,uint256,uint256)": "22a05141",
    "updateMaxTokensToDepositWithoutReinvest(uint256)": "e21ac825",
    "updateMinTokensToReinvest(uint256)": "81837230",
    "updateReinvestReward(uint256)": "a8ae2b7c",
    "withdraw(uint256)": "2e1a7d4d"
  },
  "id": 17
}