{
  "abi": [
    {
      "inputs": [
        {
          "internalType": "address",
          "name": "_manager",
          "type": "address"
        },
        {
          "internalType": "address",
          "name": "_tokenSweeper",
          "type": "address"
        },
        {
          "internalType": "address",
          "name": "_upgrader",
          "type": "address"
        },
        {
          "internalType": "address payable",
          "name": "_feeCollector",
          "type": "address"
        },
        {
          "internalType": "address[]",
          "name": "_distributionAddresses",
          "type": "address[]"
        },
        {
          "internalType": "uint256[]",
          "name": "_distributionRatios",
          "type": "uint256[]"
        },
        {
          "internalType": "uint256",
          "name": "_startTimestamp",
          "type": "uint256"
        }
      ],
      "stateMutability": "nonpayable",
      "type": "constructor"
    },
    {
      "anonymous": false,
      "inputs": [
        {
          "indexed": true,
          "internalType": "uint256",
          "name": "epoch",
          "type": "uint256"
        },
        {
          "indexed": true,
          "internalType": "address",
          "name": "by",
          "type": "address"
        },
        {
          "indexed": false,
          "internalType": "uint256",
          "name": "amount",
          "type": "uint256"
        }
      ],
      "name": "Distribution",
      "type": "event"
    },
    {
      "anonymous": false,
      "inputs": [
        {
          "indexed": true,
          "internalType": "uint256",
          "name": "epoch",
          "type": "uint256"
        },
        {
          "indexed": true,
          "internalType": "address",
          "name": "payee",
          "type": "address"
        },
        {
          "indexed": false,
          "internalType": "uint256",
          "name": "amount",
          "type": "uint256"
        }
      ],
      "name": "Paid",
      "type": "event"
    },
    {
      "anonymous": false,
      "inputs": [
        {
          "indexed": true,
          "internalType": "bytes32",
          "name": "role",
          "type": "bytes32"
        },
        {
          "indexed": true,
          "internalType": "bytes32",
          "name": "previousAdminRole",
          "type": "bytes32"
        },
        {
          "indexed": true,
          "internalType": "bytes32",
          "name": "newAdminRole",
          "type": "bytes32"
        }
      ],
      "name": "RoleAdminChanged",
      "type": "event"
    },
    {
      "anonymous": false,
      "inputs": [
        {
          "indexed": true,
          "internalType": "bytes32",
          "name": "role",
          "type": "bytes32"
        },
        {
          "indexed": true,
          "internalType": "address",
          "name": "account",
          "type": "address"
        },
        {
          "indexed": true,
          "internalType": "address",
          "name": "sender",
          "type": "address"
        }
      ],
      "name": "RoleGranted",
      "type": "event"
    },
    {
      "anonymous": false,
      "inputs": [
        {
          "indexed": true,
          "internalType": "bytes32",
          "name": "role",
          "type": "bytes32"
        },
        {
          "indexed": true,
          "internalType": "address",
          "name": "account",
          "type": "address"
        },
        {
          "indexed": true,
          "internalType": "address",
          "name": "sender",
          "type": "address"
        }
      ],
      "name": "RoleRevoked",
      "type": "event"
    },
    {
      "anonymous": false,
      "inputs": [
        {
          "indexed": true,
          "internalType": "address",
          "name": "sweeper",
          "type": "address"
        },
        {
          "indexed": false,
          "internalType": "address",
          "name": "token",
          "type": "address"
        },
        {
          "indexed": false,
          "internalType": "uint256",
          "name": "amount",
          "type": "uint256"
        }
      ],
      "name": "Sweep",
      "type": "event"
    },
    {
      "anonymous": false,
      "inputs": [
        {
          "indexed": false,
          "internalType": "address[]",
          "name": "payee",
          "type": "address[]"
        },
        {
          "indexed": false,
          "internalType": "uint256[]",
          "name": "ratioBips",
          "type": "uint256[]"
        }
      ],
      "name": "UpdateDistributions",
      "type": "event"
    },
    {
      "inputs": [],
      "name": "DEFAULT_ADMIN_ROLE",
      "outputs": [
        {
          "internalType": "bytes32",
          "name": "",
          "type": "bytes32"
        }
      ],
      "stateMutability": "view",
      "type": "function"
    },
    {
      "inputs": [],
      "name": "DISTRIBUTION_UPDATER_ROLE",
      "outputs": [
        {
          "internalType": "bytes32",
          "name": "",
          "type": "bytes32"
        }
      ],
      "stateMutability": "view",
      "type": "function"
    },
    {
      "inputs": [],
      "name": "TOKEN_SWEEPER_ROLE",
      "outputs": [
        {
          "internalType": "bytes32",
          "name": "",
          "type": "bytes32"
        }
      ],
      "stateMutability": "view",
      "type": "function"
    },
    {
      "inputs": [],
      "name": "currentBalance",
      "outputs": [
        {
          "internalType": "uint256",
          "name": "",
          "type": "uint256"
        }
      ],
      "stateMutability": "view",
      "type": "function"
    },
    {
      "inputs": [],
      "name": "currentEpoch",
      "outputs": [
        {
          "internalType": "uint256",
          "name": "",
          "type": "uint256"
        }
      ],
      "stateMutability": "view",
      "type": "function"
    },
    {
      "inputs": [],
      "name": "distribute",
      "outputs": [],
      "stateMutability": "nonpayable",
      "type": "function"
    },
    {
      "inputs": [
        {
          "internalType": "uint256",
          "name": "",
          "type": "uint256"
        }
      ],
      "name": "distributionAddresses",
      "outputs": [
        {
          "internalType": "address",
          "name": "",
          "type": "address"
        }
      ],
      "stateMutability": "view",
      "type": "function"
    },
    {
      "inputs": [
        {
          "internalType": "uint256",
          "name": "",
          "type": "uint256"
        }
      ],
      "name": "distributionRatios",
      "outputs": [
        {
          "internalType": "uint256",
          "name": "",
          "type": "uint256"
        }
      ],
      "stateMutability": "view",
      "type": "function"
    },
    {
      "inputs": [],
      "name": "epochLength",
      "outputs": [
        {
          "internalType": "uint256",
          "name": "",
          "type": "uint256"
        }
      ],
      "stateMutability": "view",
      "type": "function"
    },
    {
      "inputs": [],
      "name": "feeCollector",
      "outputs": [
        {
          "internalType": "contract YakFeeCollectorV1",
          "name": "",
          "type": "address"
        }
      ],
      "stateMutability": "view",
      "type": "function"
    },
    {
      "inputs": [],
      "name": "getDistributionLength",
      "outputs": [
        {
          "internalType": "uint256",
          "name": "",
          "type": "uint256"
        }
      ],
      "stateMutability": "view",
      "type": "function"
    },
    {
      "inputs": [
        {
          "internalType": "bytes32",
          "name": "role",
          "type": "bytes32"
        }
      ],
      "name": "getRoleAdmin",
      "outputs": [
        {
          "internalType": "bytes32",
          "name": "",
          "type": "bytes32"
        }
      ],
      "stateMutability": "view",
      "type": "function"
    },
    {
      "inputs": [
        {
          "internalType": "bytes32",
          "name": "role",
          "type": "bytes32"
        },
        {
          "internalType": "uint256",
          "name": "index",
          "type": "uint256"
        }
      ],
      "name": "getRoleMember",
      "outputs": [
        {
          "internalType": "address",
          "name": "",
          "type": "address"
        }
      ],
      "stateMutability": "view",
      "type": "function"
    },
    {
      "inputs": [
        {
          "internalType": "bytes32",
          "name": "role",
          "type": "bytes32"
        }
      ],
      "name": "getRoleMemberCount",
      "outputs": [
        {
          "internalType": "uint256",
          "name": "",
          "type": "uint256"
        }
      ],
      "stateMutability": "view",
      "type": "function"
    },
    {
      "inputs": [
        {
          "internalType": "bytes32",
          "name": "role",
          "type": "bytes32"
        },
        {
          "internalType": "address",
          "name": "account",
          "type": "address"
        }
      ],
      "name": "grantRole",
      "outputs": [],
      "stateMutability": "nonpayable",
      "type": "function"
    },
    {
      "inputs": [
        {
          "internalType": "bytes32",
          "name": "role",
          "type": "bytes32"
        },
        {
          "internalType": "address",
          "name": "account",
          "type": "address"
        }
      ],
      "name": "hasRole",
      "outputs": [
        {
          "internalType": "bool",
          "name": "",
          "type": "bool"
        }
      ],
      "stateMutability": "view",
      "type": "function"
    },
    {
      "inputs": [],
      "name": "lastPaymentEpoch",
      "outputs": [
        {
          "internalType": "uint256",
          "name": "",
          "type": "uint256"
        }
      ],
      "stateMutability": "view",
      "type": "function"
    },
    {
      "inputs": [],
      "name": "nextEpoch",
      "outputs": [
        {
          "internalType": "uint256",
          "name": "",
          "type": "uint256"
        }
      ],
      "stateMutability": "view",
      "type": "function"
    },
    {
      "inputs": [
        {
          "internalType": "bytes32",
          "name": "role",
          "type": "bytes32"
        },
        {
          "internalType": "address",
          "name": "account",
          "type": "address"
        }
      ],
      "name": "renounceRole",
      "outputs": [],
      "stateMutability": "nonpayable",
      "type": "function"
    },
    {
      "inputs": [
        {
          "internalType": "bytes32",
          "name": "role",
          "type": "bytes32"
        },
        {
          "internalType": "address",
          "name": "account",
          "type": "address"
        }
      ],
      "name": "revokeRole",
      "outputs": [],
      "stateMutability": "nonpayable",
      "type": "function"
    },
    {
      "inputs": [],
      "name": "startTimestamp",
      "outputs": [
        {
          "internalType": "uint256",
          "name": "",
          "type": "uint256"
        }
      ],
      "stateMutability": "view",
      "type": "function"
    },
    {
      "inputs": [
        {
          "internalType": "address",
          "name": "tokenAddress",
          "type": "address"
        },
        {
          "internalType": "uint256",
          "name": "tokenAmount",
          "type": "uint256"
        }
      ],
      "name": "sweepTokens",
      "outputs": [],
      "stateMutability": "nonpayable",
      "type": "function"
    },
    {
      "inputs": [
        {
          "internalType": "address[]",
          "name": "addresses",
          "type": "address[]"
        },
        {
          "internalType": "uint256[]",
          "name": "ratioBips",
          "type": "uint256[]"
        }
      ],
      "name": "updateDistributions",
      "outputs": [],
      "stateMutability": "nonpayable",
      "type": "function"
    },
    {
      "stateMutability": "payable",
      "type": "receive"
    }
  ],
  "bytecode": {
    "object": "0x60a06040523480156200001157600080fd5b5060405162001f4938038062001f4983398101604081905262000034916200054d565b6200004160008862000114565b6200006d7faaeb0e7b67698f8ec0689e359bbe895bc1bc081c58211f57940cf243fc05a2188762000114565b620000997ff9c7bc305b2216f07fea9b30fbe5cb4fcb3821978373ea5029d87ae8774b95828662000114565b600180546001600160a01b0319166001600160a01b038616179055620000c0838362000124565b42811115620001045760405162461bcd60e51b815260206004820152600b60248201526a31b7b739ba393ab1ba37b960a91b60448201526064015b60405180910390fd5b608052506200076b945050505050565b620001208282620002b2565b5050565b8051825114620001875760405162461bcd60e51b815260206004820152602760248201527f5f757064617465446973747269627574696f6e733a3a646966666572656e74206044820152666c656e6774687360c81b6064820152608401620000fb565b6000805b8351811015620001e257620001cb838281518110620001ae57620001ae62000680565b6020026020010151836200031960201b62000e611790919060201c565b915080620001d981620006ac565b9150506200018b565b508061271014620002465760405162461bcd60e51b815260206004820152602760248201527f5f757064617465446973747269627574696f6e733a3a696e76616c696420726160448201526674696f4269707360c81b6064820152608401620000fb565b82516200025b90600390602086019062000393565b50815162000271906004906020850190620003fd565b507f4edd0cfa6d0f0c578d77d6449d8b4408d162f7069b58cd63ff5cb3b50123c4598383604051620002a5929190620006c8565b60405180910390a1505050565b600082815260208181526040909120620002d791839062000e6d62000330821b17901c565b15620001205760405133906001600160a01b0383169084907f2f8788117e7eff1d82e926ec794901d17c78024a50270940304540a733656f0d90600090a45050565b600062000327828462000750565b90505b92915050565b600062000327836001600160a01b03841660008181526001830160205260408120546200038a575081546001818101845560008481526020808220909301849055845484825282860190935260409020919091556200032a565b5060006200032a565b828054828255906000526020600020908101928215620003eb579160200282015b82811115620003eb57825182546001600160a01b0319166001600160a01b03909116178255602090920191600190910190620003b4565b50620003f99291506200043b565b5090565b828054828255906000526020600020908101928215620003eb579160200282015b82811115620003eb5782518255916020019190600101906200041e565b5b80821115620003f957600081556001016200043c565b6001600160a01b03811681146200046857600080fd5b50565b634e487b7160e01b600052604160045260246000fd5b604051601f8201601f191681016001600160401b0381118282101715620004ac57620004ac6200046b565b604052919050565b60006001600160401b03821115620004d057620004d06200046b565b5060051b60200190565b600082601f830112620004ec57600080fd5b8151602062000505620004ff83620004b4565b62000481565b82815260059290921b840181019181810190868411156200052557600080fd5b8286015b8481101562000542578051835291830191830162000529565b509695505050505050565b600080600080600080600060e0888a0312156200056957600080fd5b8751620005768162000452565b809750506020808901516200058b8162000452565b60408a01519097506200059e8162000452565b60608a0151909650620005b18162000452565b60808a01519095506001600160401b0380821115620005cf57600080fd5b818b0191508b601f830112620005e457600080fd5b8151620005f5620004ff82620004b4565b81815260059190911b8301840190848101908e8311156200061557600080fd5b938501935b8285101562000640578451620006308162000452565b825293850193908501906200061a565b60a08e015190985094505050808311156200065a57600080fd5b50506200066a8a828b01620004da565b92505060c0880151905092959891949750929550565b634e487b7160e01b600052603260045260246000fd5b634e487b7160e01b600052601160045260246000fd5b600060018201620006c157620006c162000696565b5060010190565b604080825283519082018190526000906020906060840190828701845b828110156200070c5781516001600160a01b031684529284019290840190600101620006e5565b5050508381038285015284518082528583019183019060005b81811015620007435783518352928401929184019160010162000725565b5090979650505050505050565b6000821982111562000766576200076662000696565b500190565b6080516117b462000795600039600081816104220152818161058001526106fb01526117b46000f3fe6080604052600436106101445760003560e01c8063a217fddf116100b6578063d547741f1161006f578063d547741f14610387578063dec66036146103a7578063e1d0a986146103c7578063e4fc6b6d146103fb578063e6fd48bc14610410578063e7f77bc51461044457600080fd5b8063a217fddf146102e8578063aea0e78b146102fd578063c0a21d3214610312578063c415b95c14610332578063ca15c87314610352578063ce845d1d1461037257600080fd5b806362f72e101161010857806362f72e101461022057806376671808146102365780639010d07c1461024b57806391d14854146102835780639d8ddc7e146102b35780639f1915a8146102c857600080fd5b806312980afe14610150578063248a9ca3146101975780632f2ff15d146101c757806336568abe146101e957806357d775f81461020957600080fd5b3661014b57005b600080fd5b34801561015c57600080fd5b506101847faaeb0e7b67698f8ec0689e359bbe895bc1bc081c58211f57940cf243fc05a21881565b6040519081526020015b60405180910390f35b3480156101a357600080fd5b506101846101b2366004611488565b60009081526020819052604090206002015490565b3480156101d357600080fd5b506101e76101e23660046114bd565b610464565b005b3480156101f557600080fd5b506101e76102043660046114bd565b6104f7565b34801561021557600080fd5b506101846201518081565b34801561022c57600080fd5b5061018460025481565b34801561024257600080fd5b50610184610571565b34801561025757600080fd5b5061026b6102663660046114e9565b6105af565b6040516001600160a01b03909116815260200161018e565b34801561028f57600080fd5b506102a361029e3660046114bd565b6105d0565b604051901515815260200161018e565b3480156102bf57600080fd5b50600354610184565b3480156102d457600080fd5b506101e76102e3366004611557565b6105e8565b3480156102f457600080fd5b50610184600081565b34801561030957600080fd5b506101846106d1565b34801561031e57600080fd5b5061026b61032d366004611488565b610720565b34801561033e57600080fd5b5060015461026b906001600160a01b031681565b34801561035e57600080fd5b5061018461036d366004611488565b61074a565b34801561037e57600080fd5b50610184610761565b34801561039357600080fd5b506101e76103a23660046114bd565b6107f2565b3480156103b357600080fd5b506101e76103c23660046115c3565b610873565b3480156103d357600080fd5b506101847ff9c7bc305b2216f07fea9b30fbe5cb4fcb3821978373ea5029d87ae8774b958281565b34801561040757600080fd5b506101e7610b2f565b34801561041c57600080fd5b506101847f000000000000000000000000000000000000000000000000000000000000000081565b34801561045057600080fd5b5061018461045f366004611488565b610e40565b60008281526020819052604090206002015461048090336105d0565b6104e95760405162461bcd60e51b815260206004820152602f60248201527f416363657373436f6e74726f6c3a2073656e646572206d75737420626520616e60448201526e0818591b5a5b881d1bc819dc985b9d608a1b60648201526084015b60405180910390fd5b6104f38282610e82565b5050565b6001600160a01b03811633146105675760405162461bcd60e51b815260206004820152602f60248201527f416363657373436f6e74726f6c3a2063616e206f6e6c792072656e6f756e636560448201526e103937b632b9903337b91039b2b63360891b60648201526084016104e0565b6104f38282610edb565b60006105aa620151806105a4427f0000000000000000000000000000000000000000000000000000000000000000610f34565b90610f40565b905090565b60008281526020819052604081206105c79083610f4c565b90505b92915050565b60008281526020819052604081206105c79083610f58565b6106127ff9c7bc305b2216f07fea9b30fbe5cb4fcb3821978373ea5029d87ae8774b9582336105d0565b61065e5760405162461bcd60e51b815260206004820152601960248201527f757064617465446973747269627574696f6e733a3a617574680000000000000060448201526064016104e0565b6106cb84848080602002602001604051908101604052809392919081815260200183836020028082843760009201919091525050604080516020808802828101820190935287825290935087925086918291850190849080828437600092019190915250610f7a92505050565b50505050565b60006105aa6106f9620151806106f36001600254610e6190919063ffffffff16565b906110f0565b7f000000000000000000000000000000000000000000000000000000000000000090610e61565b6003818154811061073057600080fd5b6000918252602090912001546001600160a01b0316905081565b60008181526020819052604081206105ca906110fc565b6001546040516370a0823160e01b81526001600160a01b03909116600482018190526000916105aa91319073b31f66aa3c1e785363f0875a1b74e27b85fd66c7906370a0823190602401602060405180830381865afa1580156107c8573d6000803e3d6000fd5b505050506040513d601f19601f820116820180604052508101906107ec91906115ed565b90610e61565b60008281526020819052604090206002015461080e90336105d0565b6105675760405162461bcd60e51b815260206004820152603060248201527f416363657373436f6e74726f6c3a2073656e646572206d75737420626520616e60448201526f2061646d696e20746f207265766f6b6560801b60648201526084016104e0565b61089d7faaeb0e7b67698f8ec0689e359bbe895bc1bc081c58211f57940cf243fc05a218336105d0565b6108dd5760405162461bcd60e51b81526020600482015260116024820152700e6eecacae0a8ded6cadce67474c2eae8d607b1b60448201526064016104e0565b73b31f66aa3c1e785363f0875a1b74e27b85fd66c6196001600160a01b0383160161094a5760405162461bcd60e51b815260206004820152601860248201527f7377656570546f6b656e733a3a6e6f7420616c6c6f776564000000000000000060448201526064016104e0565b600154604051636f63301b60e11b81526001600160a01b038481166004830152602482018490529091169063dec6603690604401600060405180830381600087803b15801561099857600080fd5b505af11580156109ac573d6000803e3d6000fd5b50506040516370a0823160e01b8152306004820152600092506001600160a01b03851691506370a0823190602401602060405180830381865afa1580156109f7573d6000803e3d6000fd5b505050506040513d601f19601f82011682018060405250810190610a1b91906115ed565b905081811015610a29578091505b60405163a9059cbb60e01b8152336004820152602481018390526001600160a01b0384169063a9059cbb906044016020604051808303816000875af1158015610a76573d6000803e3d6000fd5b505050506040513d601f19601f82011682018060405250810190610a9a9190611606565b610ae65760405162461bcd60e51b815260206004820152601c60248201527f7377656570546f6b656e733a3a7472616e73666572206661696c65640000000060448201526064016104e0565b604080516001600160a01b03851681526020810184905233917fed679328aebf74ede77ae09efcf36e90244f83643dadac1c2d9f0b21a46f6ab7910160405180910390a2505050565b42610b386106d1565b1115610b7d5760405162461bcd60e51b81526020600482015260146024820152733234b9ba3934b13aba329d1d3a37b79039b7b7b760611b60448201526064016104e0565b610b85611106565b610b8d61117c565b6040516370a0823160e01b815230600482015273b31f66aa3c1e785363f0875a1b74e27b85fd66c790632e1a7d4d9082906370a0823190602401602060405180830381865afa158015610be4573d6000803e3d6000fd5b505050506040513d601f19601f82011682018060405250810190610c0891906115ed565b6040518263ffffffff1660e01b8152600401610c2691815260200190565b600060405180830381600087803b158015610c4057600080fd5b505af1158015610c54573d6000803e3d6000fd5b5050505060004790506000805b600354811015610df4576000610ca36127106105a460048581548110610c8957610c8961162f565b9060005260206000200154876110f090919063ffffffff16565b90508015610de157610cb58382610e61565b9250600060038381548110610ccc57610ccc61162f565b60009182526020822001546040516001600160a01b039091169184919081818185875af1925050503d8060008114610d20576040519150601f19603f3d011682016040523d82523d6000602084013e610d25565b606091505b5090915050600181151514610d7c5760405162461bcd60e51b815260206004820152601b60248201527f646973747269627574653a3a7472616e73666572206661696c6564000000000060448201526064016104e0565b60038381548110610d8f57610d8f61162f565b6000918252602090912001546001600160a01b0316610dac610571565b6040518481527f4f2d18324ee95128de091ed2adc501295479000ce4c2cec607aeb1b67e189e2f9060200160405180910390a3505b5080610dec8161165b565b915050610c61565b5033610dfe610571565b6040518381527fb6bcab815b7a952b8759f2f92fc9981dc1156f6c11bf4dc7e9cb3036495e653a9060200160405180910390a3610e39610571565b6002555050565b60048181548110610e5057600080fd5b600091825260209091200154905081565b60006105c78284611674565b60006105c7836001600160a01b038416611252565b6000828152602081905260409020610e9a9082610e6d565b156104f35760405133906001600160a01b0383169084907f2f8788117e7eff1d82e926ec794901d17c78024a50270940304540a733656f0d90600090a45050565b6000828152602081905260409020610ef390826112a1565b156104f35760405133906001600160a01b0383169084907ff6391f5c32d9c69d2a47ea670b442974b53935d1edc7fd64eb21e047a839171b90600090a45050565b60006105c7828461168c565b60006105c782846116a3565b60006105c783836112b6565b6001600160a01b038116600090815260018301602052604081205415156105c7565b8051825114610fdb5760405162461bcd60e51b815260206004820152602760248201527f5f757064617465446973747269627574696f6e733a3a646966666572656e74206044820152666c656e6774687360c81b60648201526084016104e0565b6000805b835181101561102857611014838281518110610ffd57610ffd61162f565b602002602001015183610e6190919063ffffffff16565b9150806110208161165b565b915050610fdf565b50806127101461108a5760405162461bcd60e51b815260206004820152602760248201527f5f757064617465446973747269627574696f6e733a3a696e76616c696420726160448201526674696f4269707360c81b60648201526084016104e0565b825161109d9060039060208601906113d3565b5081516110b1906004906020850190611438565b507f4edd0cfa6d0f0c578d77d6449d8b4408d162f7069b58cd63ff5cb3b50123c45983836040516110e39291906116c5565b60405180910390a1505050565b60006105c78284611749565b60006105ca825490565b6001546001600160a01b031631801561117957600154604051631d22532960e31b8152600481018390526001600160a01b039091169063e9129948906024015b600060405180830381600087803b15801561116057600080fd5b505af1158015611174573d6000803e3d6000fd5b505050505b50565b6001546040516370a0823160e01b81526001600160a01b03909116600482015260009073b31f66aa3c1e785363f0875a1b74e27b85fd66c7906370a0823190602401602060405180830381865afa1580156111db573d6000803e3d6000fd5b505050506040513d601f19601f820116820180604052508101906111ff91906115ed565b9050801561117957600154604051636f63301b60e11b815273b31f66aa3c1e785363f0875a1b74e27b85fd66c76004820152602481018390526001600160a01b039091169063dec6603690604401611146565b6000818152600183016020526040812054611299575081546001818101845560008481526020808220909301849055845484825282860190935260409020919091556105ca565b5060006105ca565b60006105c7836001600160a01b0384166112e0565b60008260000182815481106112cd576112cd61162f565b9060005260206000200154905092915050565b600081815260018301602052604081205480156113c957600061130460018361168c565b85549091506000906113189060019061168c565b905081811461137d5760008660000182815481106113385761133861162f565b906000526020600020015490508087600001848154811061135b5761135b61162f565b6000918252602080832090910192909255918252600188019052604090208390555b855486908061138e5761138e611768565b6001900381819060005260206000200160009055905585600101600086815260200190815260200160002060009055600193505050506105ca565b60009150506105ca565b828054828255906000526020600020908101928215611428579160200282015b8281111561142857825182546001600160a01b0319166001600160a01b039091161782556020909201916001909101906113f3565b50611434929150611473565b5090565b828054828255906000526020600020908101928215611428579160200282015b82811115611428578251825591602001919060010190611458565b5b808211156114345760008155600101611474565b60006020828403121561149a57600080fd5b5035919050565b80356001600160a01b03811681146114b857600080fd5b919050565b600080604083850312156114d057600080fd5b823591506114e0602084016114a1565b90509250929050565b600080604083850312156114fc57600080fd5b50508035926020909101359150565b60008083601f84011261151d57600080fd5b50813567ffffffffffffffff81111561153557600080fd5b6020830191508360208260051b850101111561155057600080fd5b9250929050565b6000806000806040858703121561156d57600080fd5b843567ffffffffffffffff8082111561158557600080fd5b6115918883890161150b565b909650945060208701359150808211156115aa57600080fd5b506115b78782880161150b565b95989497509550505050565b600080604083850312156115d657600080fd5b6115df836114a1565b946020939093013593505050565b6000602082840312156115ff57600080fd5b5051919050565b60006020828403121561161857600080fd5b8151801515811461162857600080fd5b9392505050565b634e487b7160e01b600052603260045260246000fd5b634e487b7160e01b600052601160045260246000fd5b60006001820161166d5761166d611645565b5060010190565b6000821982111561168757611687611645565b500190565b60008282101561169e5761169e611645565b500390565b6000826116c057634e487b7160e01b600052601260045260246000fd5b500490565b604080825283519082018190526000906020906060840190828701845b828110156117075781516001600160a01b0316845292840192908401906001016116e2565b5050508381038285015284518082528583019183019060005b8181101561173c57835183529284019291840191600101611720565b5090979650505050505050565b600081600019048311821515161561176357611763611645565b500290565b634e487b7160e01b600052603160045260246000fdfea264697066735822122060f8c8717ccf3f4abb02f1dfac112aa7a0b1c358d27a64208d60d6137a64421664736f6c634300080d0033",
    "linkReferences": {}
  },
  "methodIdentifiers": {
    "DEFAULT_ADMIN_ROLE()": "a217fddf",
    "DISTRIBUTION_UPDATER_ROLE()": "e1d0a986",
    "TOKEN_SWEEPER_ROLE()": "12980afe",
    "currentBalance()": "ce845d1d",
    "currentEpoch()": "76671808",
    "distribute()": "e4fc6b6d",
    "distributionAddresses(uint256)": "c0a21d32",
    "distributionRatios(uint256)": "e7f77bc5",
    "epochLength()": "57d775f8",
    "feeCollector()": "c415b95c",
    "getDistributionLength()": "9d8ddc7e",
    "getRoleAdmin(bytes32)": "248a9ca3",
    "getRoleMember(bytes32,uint256)": "9010d07c",
    "getRoleMemberCount(bytes32)": "ca15c873",
    "grantRole(bytes32,address)": "2f2ff15d",
    "hasRole(bytes32,address)": "91d14854",
    "lastPaymentEpoch()": "62f72e10",
    "nextEpoch()": "aea0e78b",
    "renounceRole(bytes32,address)": "36568abe",
    "revokeRole(bytes32,address)": "d547741f",
    "startTimestamp()": "e6fd48bc",
    "sweepTokens(address,uint256)": "dec66036",
    "updateDistributions(address[],uint256[])": "9f1915a8"
  },
  "id": 0
}