{
  "abi": [
    {
      "inputs": [
        {
          "internalType": "address",
          "name": "_owner",
          "type": "address"
        }
      ],
      "stateMutability": "nonpayable",
      "type": "constructor"
    },
    {
      "anonymous": false,
      "inputs": [
        {
          "indexed": true,
          "internalType": "address",
          "name": "owner",
          "type": "address"
        },
        {
          "indexed": true,
          "internalType": "address",
          "name": "spender",
          "type": "address"
        },
        {
          "indexed": false,
          "internalType": "uint256",
          "name": "value",
          "type": "uint256"
        }
      ],
      "name": "Approval",
      "type": "event"
    },
    {
      "anonymous": false,
      "inputs": [
        {
          "indexed": true,
          "internalType": "address",
          "name": "previousOwner",
          "type": "address"
        },
        {
          "indexed": true,
          "internalType": "address",
          "name": "newOwner",
          "type": "address"
        }
      ],
      "name": "OwnershipTransferred",
      "type": "event"
    },
    {
      "anonymous": false,
      "inputs": [
        {
          "indexed": true,
          "internalType": "address",
          "name": "from",
          "type": "address"
        },
        {
          "indexed": true,
          "internalType": "address",
          "name": "to",
          "type": "address"
        },
        {
          "indexed": false,
          "internalType": "uint256",
          "name": "value",
          "type": "uint256"
        }
      ],
      "name": "Transfer",
      "type": "event"
    },
    {
      "inputs": [],
      "name": "DOMAIN_TYPEHASH",
      "outputs": [
        {
          "internalType": "bytes32",
          "name": "",
          "type": "bytes32"
        }
      ],
      "stateMutability": "view",
      "type": "function"
    },
    {
      "inputs": [],
      "name": "ESCROW",
      "outputs": [
        {
          "internalType": "contract IVoteEscrow",
          "name": "",
          "type": "address"
        }
      ],
      "stateMutability": "view",
      "type": "function"
    },
    {
      "inputs": [],
      "name": "PERMIT_TYPEHASH",
      "outputs": [
        {
          "internalType": "bytes32",
          "name": "",
          "type": "bytes32"
        }
      ],
      "stateMutability": "view",
      "type": "function"
    },
    {
      "inputs": [],
      "name": "VERSION_HASH",
      "outputs": [
        {
          "internalType": "bytes32",
          "name": "",
          "type": "bytes32"
        }
      ],
      "stateMutability": "view",
      "type": "function"
    },
    {
      "inputs": [
        {
          "internalType": "address",
          "name": "owner",
          "type": "address"
        },
        {
          "internalType": "address",
          "name": "spender",
          "type": "address"
        }
      ],
      "name": "allowance",
      "outputs": [
        {
          "internalType": "uint256",
          "name": "",
          "type": "uint256"
        }
      ],
      "stateMutability": "view",
      "type": "function"
    },
    {
      "inputs": [
        {
          "internalType": "address",
          "name": "spender",
          "type": "address"
        },
        {
          "internalType": "uint256",
          "name": "amount",
          "type": "uint256"
        }
      ],
      "name": "approve",
      "outputs": [
        {
          "internalType": "bool",
          "name": "",
          "type": "bool"
        }
      ],
      "stateMutability": "nonpayable",
      "type": "function"
    },
    {
      "inputs": [
        {
          "internalType": "address",
          "name": "account",
          "type": "address"
        }
      ],
      "name": "balanceOf",
      "outputs": [
        {
          "internalType": "uint256",
          "name": "",
          "type": "uint256"
        }
      ],
      "stateMutability": "view",
      "type": "function"
    },
    {
      "inputs": [],
      "name": "decimals",
      "outputs": [
        {
          "internalType": "uint8",
          "name": "",
          "type": "uint8"
        }
      ],
      "stateMutability": "view",
      "type": "function"
    },
    {
      "inputs": [
        {
          "internalType": "address",
          "name": "spender",
          "type": "address"
        },
        {
          "internalType": "uint256",
          "name": "subtractedValue",
          "type": "uint256"
        }
      ],
      "name": "decreaseAllowance",
      "outputs": [
        {
          "internalType": "bool",
          "name": "",
          "type": "bool"
        }
      ],
      "stateMutability": "nonpayable",
      "type": "function"
    },
    {
      "inputs": [
        {
          "internalType": "uint256",
          "name": "_amount",
          "type": "uint256"
        }
      ],
      "name": "deposit",
      "outputs": [],
      "stateMutability": "nonpayable",
      "type": "function"
    },
    {
      "inputs": [
        {
          "internalType": "uint256",
          "name": "_amount",
          "type": "uint256"
        }
      ],
      "name": "depositFromBalance",
      "outputs": [],
      "stateMutability": "nonpayable",
      "type": "function"
    },
    {
      "inputs": [],
      "name": "depositsEnabled",
      "outputs": [
        {
          "internalType": "bool",
          "name": "",
          "type": "bool"
        }
      ],
      "stateMutability": "view",
      "type": "function"
    },
    {
      "inputs": [
        {
          "internalType": "address",
          "name": "target",
          "type": "address"
        },
        {
          "internalType": "uint256",
          "name": "value",
          "type": "uint256"
        },
        {
          "internalType": "bytes",
          "name": "data",
          "type": "bytes"
        }
      ],
      "name": "execute",
      "outputs": [
        {
          "internalType": "bool",
          "name": "",
          "type": "bool"
        },
        {
          "internalType": "bytes",
          "name": "",
          "type": "bytes"
        }
      ],
      "stateMutability": "nonpayable",
      "type": "function"
    },
    {
      "inputs": [],
      "name": "getDomainSeparator",
      "outputs": [
        {
          "internalType": "bytes32",
          "name": "",
          "type": "bytes32"
        }
      ],
      "stateMutability": "view",
      "type": "function"
    },
    {
      "inputs": [
        {
          "internalType": "address",
          "name": "spender",
          "type": "address"
        },
        {
          "internalType": "uint256",
          "name": "addedValue",
          "type": "uint256"
        }
      ],
      "name": "increaseAllowance",
      "outputs": [
        {
          "internalType": "bool",
          "name": "",
          "type": "bool"
        }
      ],
      "stateMutability": "nonpayable",
      "type": "function"
    },
    {
      "inputs": [],
      "name": "name",
      "outputs": [
        {
          "internalType": "string",
          "name": "",
          "type": "string"
        }
      ],
      "stateMutability": "view",
      "type": "function"
    },
    {
      "inputs": [
        {
          "internalType": "address",
          "name": "",
          "type": "address"
        }
      ],
      "name": "nonces",
      "outputs": [
        {
          "internalType": "uint256",
          "name": "",
          "type": "uint256"
        }
      ],
      "stateMutability": "view",
      "type": "function"
    },
    {
      "inputs": [],
      "name": "owner",
      "outputs": [
        {
          "internalType": "address",
          "name": "",
          "type": "address"
        }
      ],
      "stateMutability": "view",
      "type": "function"
    },
    {
      "inputs": [
        {
          "internalType": "address",
          "name": "owner",
          "type": "address"
        },
        {
          "internalType": "address",
          "name": "spender",
          "type": "address"
        },
        {
          "internalType": "uint256",
          "name": "value",
          "type": "uint256"
        },
        {
          "internalType": "uint256",
          "name": "deadline",
          "type": "uint256"
        },
        {
          "internalType": "uint8",
          "name": "v",
          "type": "uint8"
        },
        {
          "internalType": "bytes32",
          "name": "r",
          "type": "bytes32"
        },
        {
          "internalType": "bytes32",
          "name": "s",
          "type": "bytes32"
        }
      ],
      "name": "permit",
      "outputs": [],
      "stateMutability": "nonpayable",
      "type": "function"
    },
    {
      "inputs": [],
      "name": "renounceOwnership",
      "outputs": [],
      "stateMutability": "nonpayable",
      "type": "function"
    },
    {
      "inputs": [
        {
          "internalType": "address",
          "name": "_voterProxy",
          "type": "address"
        }
      ],
      "name": "setVoterProxy",
      "outputs": [],
      "stateMutability": "nonpayable",
      "type": "function"
    },
    {
      "inputs": [],
      "name": "symbol",
      "outputs": [
        {
          "internalType": "string",
          "name": "",
          "type": "string"
        }
      ],
      "stateMutability": "view",
      "type": "function"
    },
    {
      "inputs": [],
      "name": "totalSupply",
      "outputs": [
        {
          "internalType": "uint256",
          "name": "",
          "type": "uint256"
        }
      ],
      "stateMutability": "view",
      "type": "function"
    },
    {
      "inputs": [
        {
          "internalType": "address",
          "name": "to",
          "type": "address"
        },
        {
          "internalType": "uint256",
          "name": "amount",
          "type": "uint256"
        }
      ],
      "name": "transfer",
      "outputs": [
        {
          "internalType": "bool",
          "name": "",
          "type": "bool"
        }
      ],
      "stateMutability": "nonpayable",
      "type": "function"
    },
    {
      "inputs": [
        {
          "internalType": "address",
          "name": "from",
          "type": "address"
        },
        {
          "internalType": "address",
          "name": "to",
          "type": "address"
        },
        {
          "internalType": "uint256",
          "name": "amount",
          "type": "uint256"
        }
      ],
      "name": "transferFrom",
      "outputs": [
        {
          "internalType": "bool",
          "name": "",
          "type": "bool"
        }
      ],
      "stateMutability": "nonpayable",
      "type": "function"
    },
    {
      "inputs": [
        {
          "internalType": "address",
          "name": "newOwner",
          "type": "address"
        }
      ],
      "name": "transferOwnership",
      "outputs": [],
      "stateMutability": "nonpayable",
      "type": "function"
    },
    {
      "inputs": [
        {
          "internalType": "bool",
          "name": "newValue",
          "type": "bool"
        }
      ],
      "name": "updateDepositsEnabled",
      "outputs": [],
      "stateMutability": "nonpayable",
      "type": "function"
    },
    {
      "inputs": [],
      "name": "veECDBalance",
      "outputs": [
        {
          "internalType": "uint256",
          "name": "",
          "type": "uint256"
        }
      ],
      "stateMutability": "view",
      "type": "function"
    },
    {
      "inputs": [],
      "name": "voterProxy",
      "outputs": [
        {
          "internalType": "address",
          "name": "",
          "type": "address"
        }
      ],
      "stateMutability": "view",
      "type": "function"
    }
  ],
  "bytecode": {
    "object": "0x60806040526007805460ff60a81b1916600160a81b1790553480156200002457600080fd5b5060405162001ec738038062001ec78339810160408190526200004791620002d7565b6040518060400160405280600d81526020016c165a595b190816585ac81150d1609a1b815250604051806040016040528060058152602001641e5e5150d160da1b81525060006200009d6200011c60201b60201c565b600080546001600160a01b0319166001600160a01b03831690811782556040519293509160008051602062001ea7833981519152908290a3508151620000eb90600590602085019062000231565b5080516200010190600690602084019062000231565b50505062000115816200012060201b60201c565b5062000345565b3390565b6000546001600160a01b03163314620001805760405162461bcd60e51b815260206004820181905260248201527f4f776e61626c653a2063616c6c6572206973206e6f7420746865206f776e657260448201526064015b60405180910390fd5b6001600160a01b038116620001e75760405162461bcd60e51b815260206004820152602660248201527f4f776e61626c653a206e6577206f776e657220697320746865207a65726f206160448201526564647265737360d01b606482015260840162000177565b600080546040516001600160a01b038085169392169160008051602062001ea783398151915291a3600080546001600160a01b0319166001600160a01b0392909216919091179055565b8280546200023f9062000309565b90600052602060002090601f016020900481019282620002635760008555620002ae565b82601f106200027e57805160ff1916838001178555620002ae565b82800160010185558215620002ae579182015b82811115620002ae57825182559160200191906001019062000291565b50620002bc929150620002c0565b5090565b5b80821115620002bc5760008155600101620002c1565b600060208284031215620002ea57600080fd5b81516001600160a01b03811681146200030257600080fd5b9392505050565b600181811c908216806200031e57607f821691505b6020821081036200033f57634e487b7160e01b600052602260045260246000fd5b50919050565b611b5280620003556000396000f3fe608060405234801561001057600080fd5b50600436106101cf5760003560e01c80637c0bb4ab11610104578063b53fb622116100a2578063dd62ed3e11610071578063dd62ed3e1461042a578063e681c4aa1461043d578063ed24911d14610458578063f2fde38b1461046057600080fd5b8063b53fb622146103db578063b61d27f6146103e3578063b6b55f2514610404578063d505accf1461041757600080fd5b806395d89b41116100de57806395d89b41146103865780639e4e73181461038e578063a457c2d7146103b5578063a9059cbb146103c857600080fd5b80637c0bb4ab146103425780637ecebe00146103555780638da5cb5b1461037557600080fd5b806330adf81f116101715780634e77ace51161014b5780634e77ace5146102ea5780635392fd1c146102fd57806370a0823114610311578063715018a61461033a57600080fd5b806330adf81f146102a1578063313ce567146102c857806339509351146102d757600080fd5b806318160ddd116101ad57806318160ddd1461022a5780631ba980b31461023c57806320606b701461026757806323b872dd1461028e57600080fd5b8063052cdc0c146101d457806306fdde03146101e9578063095ea7b314610207575b600080fd5b6101e76101e2366004611736565b610473565b005b6101f16104c8565b6040516101fe919061179e565b60405180910390f35b61021a6102153660046117b1565b61055a565b60405190151581526020016101fe565b6004545b6040519081526020016101fe565b60075461024f906001600160a01b031681565b6040516001600160a01b0390911681526020016101fe565b61022e7f8b73c3c69bb8fe3d512ecc4cf759cc79239f7b179b0ffacaa9a75d522b39400f81565b61021a61029c3660046117db565b610572565b61022e7f6e71edae12b1b97f4d1f60370fef10105fa2faae0126114a169c64845d6126c981565b604051601281526020016101fe565b61021a6102e53660046117b1565b610596565b6101e76102f8366004611825565b6105b8565b60075461021a90600160a81b900460ff1681565b61022e61031f366004611736565b6001600160a01b031660009081526002602052604090205490565b6101e761061f565b6101e7610350366004611842565b610693565b61022e610363366004611736565b60016020526000908152604090205481565b6000546001600160a01b031661024f565b6101f1610751565b61022e7fc89efdaa54c0f20c7adf612882df0950f5a951637e0307cdcb4c672f298b8bc681565b61021a6103c33660046117b1565b610760565b61021a6103d63660046117b1565b6107db565b61022e6107e9565b6103f66103f136600461185b565b610864565b6040516101fe9291906118e2565b6101e7610412366004611842565b61092e565b6101e7610425366004611905565b610a5a565b61022e610438366004611978565b610b5f565b61024f73721c2c768635d2b0147552861a0d8fdfde55c03281565b61022e610b8a565b6101e761046e366004611736565b610c1f565b6000546001600160a01b031633146104a65760405162461bcd60e51b815260040161049d906119ab565b60405180910390fd5b600780546001600160a01b0319166001600160a01b0392909216919091179055565b6060600580546104d7906119e0565b80601f0160208091040260200160405190810160405280929190818152602001828054610503906119e0565b80156105505780601f1061052557610100808354040283529160200191610550565b820191906000526020600020905b81548152906001019060200180831161053357829003601f168201915b5050505050905090565b600033610568818585610d09565b5060019392505050565b600033610580858285610e2d565b61058b858585610ea7565b506001949350505050565b6000336105688185856105a98383610b5f565b6105b39190611a30565b610d09565b6000546001600160a01b031633146105e25760405162461bcd60e51b815260040161049d906119ab565b801515600760159054906101000a900460ff1615150361060157600080fd5b60078054911515600160a81b0260ff60a81b19909216919091179055565b6000546001600160a01b031633146106495760405162461bcd60e51b815260040161049d906119ab565b600080546040516001600160a01b03909116907f8be0079c531659141344cd1fd0a4f28419497f9722a3daafe3b4186f6b6457e0908390a3600080546001600160a01b0319169055565b6007546001600160a01b031633146106e75760405162461bcd60e51b815260206004820152601760248201527645636869646e61566f7465723a3a6f6e6c7950726f787960481b604482015260640161049d565b600754600160a81b900460ff1615156001146107455760405162461bcd60e51b815260206004820152601e60248201527f45636869646e61566f7465723a6465706f736974732064697361626c65640000604482015260640161049d565b61074e81611075565b50565b6060600680546104d7906119e0565b6000338161076e8286610b5f565b9050838110156107ce5760405162461bcd60e51b815260206004820152602560248201527f45524332303a2064656372656173656420616c6c6f77616e63652062656c6f77604482015264207a65726f60d81b606482015260840161049d565b61058b8286868403610d09565b600033610568818585610ea7565b6040516370a0823160e01b815230600482015260009073721c2c768635d2b0147552861a0d8fdfde55c032906370a0823190602401602060405180830381865afa15801561083b573d6000803e3d6000fd5b505050506040513d601f19601f8201168201806040525081019061085f9190611a48565b905090565b6007546000906060906001600160a01b031633146108be5760405162461bcd60e51b815260206004820152601760248201527645636869646e61566f7465723a3a6f6e6c7950726f787960481b604482015260640161049d565b600080876001600160a01b03168787876040516108dc929190611a61565b60006040518083038185875af1925050503d8060008114610919576040519150601f19603f3d011682016040523d82523d6000602084013e61091e565b606091505b5090999098509650505050505050565b600754600160a81b900460ff16151560011461098c5760405162461bcd60e51b815260206004820152601f60248201527f45636869646e61566f7465723a3a6465706f736974732064697361626c656400604482015260640161049d565b6040516323b872dd60e01b81523360048201523060248201526044810182905273eb8343d5284caec921f035207ca94db6baaacbcd906323b872dd906064016020604051808303816000875af11580156109ea573d6000803e3d6000fd5b505050506040513d601f19601f82011682018060405250810190610a0e9190611a71565b6107455760405162461bcd60e51b815260206004820152601d60248201527f45636869646e61566f7465723a3a7472616e73666572206661696c6564000000604482015260640161049d565b42841015610a9c5760405162461bcd60e51b815260206004820152600f60248201526e1c195c9b5a5d0e8e995e1c1a5c9959608a1b604482015260640161049d565b6001600160a01b038716600090815260016020526040812080547f6e71edae12b1b97f4d1f60370fef10105fa2faae0126114a169c64845d6126c9918a918a918a919086610ae983611a8e565b909155506040805160208101969096526001600160a01b0394851690860152929091166060840152608083015260a082015260c0810186905260e001604051602081830303815290604052805190602001209050610b4a8882868686611335565b610b55888888610d09565b5050505050505050565b6001600160a01b03918216600090815260036020908152604080832093909416825291909152205490565b60007f8b73c3c69bb8fe3d512ecc4cf759cc79239f7b179b0ffacaa9a75d522b39400f610bb56104c8565b80516020909101207fc89efdaa54c0f20c7adf612882df0950f5a951637e0307cdcb4c672f298b8bc646604080516020810195909552840192909252606083015260808201523060a082015260c00160405160208183030381529060405280519060200120905090565b6000546001600160a01b03163314610c495760405162461bcd60e51b815260040161049d906119ab565b6001600160a01b038116610cae5760405162461bcd60e51b815260206004820152602660248201527f4f776e61626c653a206e6577206f776e657220697320746865207a65726f206160448201526564647265737360d01b606482015260840161049d565b600080546040516001600160a01b03808516939216917f8be0079c531659141344cd1fd0a4f28419497f9722a3daafe3b4186f6b6457e091a3600080546001600160a01b0319166001600160a01b0392909216919091179055565b6001600160a01b038316610d6b5760405162461bcd60e51b8152602060048201526024808201527f45524332303a20617070726f76652066726f6d20746865207a65726f206164646044820152637265737360e01b606482015260840161049d565b6001600160a01b038216610dcc5760405162461bcd60e51b815260206004820152602260248201527f45524332303a20617070726f766520746f20746865207a65726f206164647265604482015261737360f01b606482015260840161049d565b6001600160a01b0383811660008181526003602090815260408083209487168084529482529182902085905590518481527f8c5be1e5ebec7d5bd14f71427d1e84f3dd0314c0f7b2291e5b200ac8c7c3b925910160405180910390a3505050565b6000610e398484610b5f565b90506000198114610ea15781811015610e945760405162461bcd60e51b815260206004820152601d60248201527f45524332303a20696e73756666696369656e7420616c6c6f77616e6365000000604482015260640161049d565b610ea18484848403610d09565b50505050565b6001600160a01b038316610f0b5760405162461bcd60e51b815260206004820152602560248201527f45524332303a207472616e736665722066726f6d20746865207a65726f206164604482015264647265737360d81b606482015260840161049d565b6001600160a01b038216610f6d5760405162461bcd60e51b815260206004820152602360248201527f45524332303a207472616e7366657220746f20746865207a65726f206164647260448201526265737360e81b606482015260840161049d565b6001600160a01b03831660009081526002602052604090205481811015610fe55760405162461bcd60e51b815260206004820152602660248201527f45524332303a207472616e7366657220616d6f756e7420657863656564732062604482015265616c616e636560d01b606482015260840161049d565b6001600160a01b0380851660009081526002602052604080822085850390559185168152908120805484929061101c908490611a30565b92505081905550826001600160a01b0316846001600160a01b03167fddf252ad1be2c89b69c2b068fc378daa952ba7f163c4a11628f55a4df523b3ef8460405161106891815260200190565b60405180910390a3610ea1565b61107f3382611458565b600754600160a01b900460ff161561132c5760405163095ea7b360e01b815273721c2c768635d2b0147552861a0d8fdfde55c03260048201526024810182905273eb8343d5284caec921f035207ca94db6baaacbcd9063095ea7b3906044016020604051808303816000875af11580156110fd573d6000803e3d6000fd5b505050506040513d601f19601f820116820180604052508101906111219190611a71565b50604051631255d9df60e21b81526004810182905273721c2c768635d2b0147552861a0d8fdfde55c03290634957677c90602401600060405180830381600087803b15801561116f57600080fd5b505af1158015611183573d6000803e3d6000fd5b505060405163095ea7b360e01b815273721c2c768635d2b0147552861a0d8fdfde55c03260048201526000602482015273eb8343d5284caec921f035207ca94db6baaacbcd925063095ea7b391506044016020604051808303816000875af11580156111f3573d6000803e3d6000fd5b505050506040513d601f19601f820116820180604052508101906112179190611a71565b5060405163cbf9fe5f60e01b815230600482015260009073721c2c768635d2b0147552861a0d8fdfde55c0329063cbf9fe5f906024016040805180830381865afa158015611269573d6000803e3d6000fd5b505050506040513d601f19601f8201168201806040525081019061128d9190611aa7565b9150600090506112a1426303c26700611537565b9050816112bb62093a806112b5848261154a565b90611556565b1115611327576040516377fbd30960e11b81526004810182905273721c2c768635d2b0147552861a0d8fdfde55c0329063eff7a61290602401600060405180830381600087803b15801561130e57600080fd5b505af1158015611322573d6000803e3d6000fd5b505050505b505050565b61074e81611562565b600061133f610b8a565b60405161190160f01b602082015260228101919091526042810186905260620160408051601f198184030181528282528051602091820120600080855291840180845281905260ff88169284019290925260608301869052608083018590529092509060019060a0016020604051602081039080840390855afa1580156113ca573d6000803e3d6000fd5b5050604051601f1901519150506001600160a01b038116158015906114005750866001600160a01b0316816001600160a01b0316145b6113225760405162461bcd60e51b8152602060048201526024808201527f417263683a3a76616c69646174655369673a20696e76616c6964207369676e616044820152637475726560e01b606482015260840161049d565b6001600160a01b0382166114ae5760405162461bcd60e51b815260206004820152601f60248201527f45524332303a206d696e7420746f20746865207a65726f206164647265737300604482015260640161049d565b80600460008282546114c09190611a30565b90915550506001600160a01b038216600090815260026020526040812080548392906114ed908490611a30565b90915550506040518181526001600160a01b038316906000907fddf252ad1be2c89b69c2b068fc378daa952ba7f163c4a11628f55a4df523b3ef9060200160405180910390a35050565b60006115438284611a30565b9392505050565b60006115438284611adb565b60006115438284611afd565b6000611572426303c26700611537565b60405163095ea7b360e01b815273721c2c768635d2b0147552861a0d8fdfde55c03260048201526024810184905290915073eb8343d5284caec921f035207ca94db6baaacbcd9063095ea7b3906044016020604051808303816000875af11580156115e1573d6000803e3d6000fd5b505050506040513d601f19601f820116820180604052508101906116059190611a71565b506040516365fc387360e01b8152600481018390526024810182905273721c2c768635d2b0147552861a0d8fdfde55c032906365fc387390604401600060405180830381600087803b15801561165a57600080fd5b505af115801561166e573d6000803e3d6000fd5b505060405163095ea7b360e01b815273721c2c768635d2b0147552861a0d8fdfde55c03260048201526000602482015273eb8343d5284caec921f035207ca94db6baaacbcd925063095ea7b391506044016020604051808303816000875af11580156116de573d6000803e3d6000fd5b505050506040513d601f19601f820116820180604052508101906117029190611a71565b50506007805460ff60a01b1916600160a01b17905550565b80356001600160a01b038116811461173157600080fd5b919050565b60006020828403121561174857600080fd5b6115438261171a565b6000815180845260005b818110156117775760208185018101518683018201520161175b565b81811115611789576000602083870101525b50601f01601f19169290920160200192915050565b6020815260006115436020830184611751565b600080604083850312156117c457600080fd5b6117cd8361171a565b946020939093013593505050565b6000806000606084860312156117f057600080fd5b6117f98461171a565b92506118076020850161171a565b9150604084013590509250925092565b801515811461074e57600080fd5b60006020828403121561183757600080fd5b813561154381611817565b60006020828403121561185457600080fd5b5035919050565b6000806000806060858703121561187157600080fd5b61187a8561171a565b935060208501359250604085013567ffffffffffffffff8082111561189e57600080fd5b818701915087601f8301126118b257600080fd5b8135818111156118c157600080fd5b8860208285010111156118d357600080fd5b95989497505060200194505050565b82151581526040602082015260006118fd6040830184611751565b949350505050565b600080600080600080600060e0888a03121561192057600080fd5b6119298861171a565b96506119376020890161171a565b95506040880135945060608801359350608088013560ff8116811461195b57600080fd5b9699959850939692959460a0840135945060c09093013592915050565b6000806040838503121561198b57600080fd5b6119948361171a565b91506119a26020840161171a565b90509250929050565b6020808252818101527f4f776e61626c653a2063616c6c6572206973206e6f7420746865206f776e6572604082015260600190565b600181811c908216806119f457607f821691505b602082108103611a1457634e487b7160e01b600052602260045260246000fd5b50919050565b634e487b7160e01b600052601160045260246000fd5b60008219821115611a4357611a43611a1a565b500190565b600060208284031215611a5a57600080fd5b5051919050565b8183823760009101908152919050565b600060208284031215611a8357600080fd5b815161154381611817565b600060018201611aa057611aa0611a1a565b5060010190565b60008060408385031215611aba57600080fd5b825180600f0b8114611acb57600080fd5b6020939093015192949293505050565b600082611af857634e487b7160e01b600052601260045260246000fd5b500490565b6000816000190483118215151615611b1757611b17611a1a565b50029056fea2646970667358221220502c290c1fa52426ad8c33b70e8ff145b339f3e43190bf91fff5d0eafd494bf364736f6c634300080d00338be0079c531659141344cd1fd0a4f28419497f9722a3daafe3b4186f6b6457e0",
    "linkReferences": {}
  },
  "methodIdentifiers": {
    "DOMAIN_TYPEHASH()": "20606b70",
    "ESCROW()": "e681c4aa",
    "PERMIT_TYPEHASH()": "30adf81f",
    "VERSION_HASH()": "9e4e7318",
    "allowance(address,address)": "dd62ed3e",
    "approve(address,uint256)": "095ea7b3",
    "balanceOf(address)": "70a08231",
    "decimals()": "313ce567",
    "decreaseAllowance(address,uint256)": "a457c2d7",
    "deposit(uint256)": "b6b55f25",
    "depositFromBalance(uint256)": "7c0bb4ab",
    "depositsEnabled()": "5392fd1c",
    "execute(address,uint256,bytes)": "b61d27f6",
    "getDomainSeparator()": "ed24911d",
    "increaseAllowance(address,uint256)": "39509351",
    "name()": "06fdde03",
    "nonces(address)": "7ecebe00",
    "owner()": "8da5cb5b",
    "permit(address,address,uint256,uint256,uint8,bytes32,bytes32)": "d505accf",
    "renounceOwnership()": "715018a6",
    "setVoterProxy(address)": "052cdc0c",
    "symbol()": "95d89b41",
    "totalSupply()": "18160ddd",
    "transfer(address,uint256)": "a9059cbb",
    "transferFrom(address,address,uint256)": "23b872dd",
    "transferOwnership(address)": "f2fde38b",
    "updateDepositsEnabled(bool)": "4e77ace5",
    "veECDBalance()": "b53fb622",
    "voterProxy()": "1ba980b3"
  },
  "id": 80
}