{
  "abi": [
    {
      "inputs": [
        {
          "internalType": "string",
          "name": "_name",
          "type": "string"
        },
        {
          "internalType": "address",
          "name": "_depositToken",
          "type": "address"
        },
        {
          "internalType": "address",
          "name": "_poolRewardToken",
          "type": "address"
        },
        {
          "internalType": "address",
          "name": "_swapPairPoolReward",
          "type": "address"
        },
        {
          "internalType": "address",
          "name": "_swapPairExtraReward",
          "type": "address"
        },
        {
          "internalType": "address",
          "name": "_stakingContract",
          "type": "address"
        },
        {
          "components": [
            {
              "internalType": "uint256",
              "name": "tokenCount",
              "type": "uint256"
            },
            {
              "internalType": "uint256",
              "name": "tokenIndex",
              "type": "uint256"
            },
            {
              "internalType": "address",
              "name": "swapPairRewardZap",
              "type": "address"
            },
            {
              "internalType": "address",
              "name": "zapToken",
              "type": "address"
            },
            {
              "internalType": "address",
              "name": "zapContract",
              "type": "address"
            },
            {
              "internalType": "uint256",
              "name": "maxSlippage",
              "type": "uint256"
            }
          ],
          "internalType": "struct AxialStrategyForMetapoolLP.ZapSettings",
          "name": "_zapSettings",
          "type": "tuple"
        },
        {
          "internalType": "uint256",
          "name": "_pid",
          "type": "uint256"
        },
        {
          "internalType": "address",
          "name": "_timelock",
          "type": "address"
        },
        {
          "components": [
            {
              "internalType": "uint256",
              "name": "minTokensToReinvest",
              "type": "uint256"
            },
            {
              "internalType": "uint256",
              "name": "devFeeBips",
              "type": "uint256"
            },
            {
              "internalType": "uint256",
              "name": "reinvestRewardBips",
              "type": "uint256"
            }
          ],
          "internalType": "struct YakStrategyV2.StrategySettings",
          "name": "_strategySettings",
          "type": "tuple"
        }
      ],
      "stateMutability": "nonpayable",
      "type": "constructor"
    },
    {
      "anonymous": false,
      "inputs": [
        {
          "indexed": true,
          "internalType": "address",
          "name": "account",
          "type": "address"
        }
      ],
      "name": "AllowDepositor",
      "type": "event"
    },
    {
      "anonymous": false,
      "inputs": [
        {
          "indexed": true,
          "internalType": "address",
          "name": "owner",
          "type": "address"
        },
        {
          "indexed": true,
          "internalType": "address",
          "name": "spender",
          "type": "address"
        },
        {
          "indexed": false,
          "internalType": "uint256",
          "name": "value",
          "type": "uint256"
        }
      ],
      "name": "Approval",
      "type": "event"
    },
    {
      "anonymous": false,
      "inputs": [
        {
          "indexed": true,
          "internalType": "address",
          "name": "account",
          "type": "address"
        },
        {
          "indexed": false,
          "internalType": "uint256",
          "name": "amount",
          "type": "uint256"
        }
      ],
      "name": "Deposit",
      "type": "event"
    },
    {
      "anonymous": false,
      "inputs": [
        {
          "indexed": false,
          "internalType": "bool",
          "name": "newValue",
          "type": "bool"
        }
      ],
      "name": "DepositsEnabled",
      "type": "event"
    },
    {
      "anonymous": false,
      "inputs": [
        {
          "indexed": true,
          "internalType": "address",
          "name": "previousOwner",
          "type": "address"
        },
        {
          "indexed": true,
          "internalType": "address",
          "name": "newOwner",
          "type": "address"
        }
      ],
      "name": "OwnershipTransferred",
      "type": "event"
    },
    {
      "anonymous": false,
      "inputs": [
        {
          "indexed": false,
          "internalType": "address",
          "name": "token",
          "type": "address"
        },
        {
          "indexed": false,
          "internalType": "uint256",
          "name": "amount",
          "type": "uint256"
        }
      ],
      "name": "Recovered",
      "type": "event"
    },
    {
      "anonymous": false,
      "inputs": [
        {
          "indexed": false,
          "internalType": "uint256",
          "name": "newTotalDeposits",
          "type": "uint256"
        },
        {
          "indexed": false,
          "internalType": "uint256",
          "name": "newTotalSupply",
          "type": "uint256"
        }
      ],
      "name": "Reinvest",
      "type": "event"
    },
    {
      "anonymous": false,
      "inputs": [
        {
          "indexed": true,
          "internalType": "address",
          "name": "account",
          "type": "address"
        }
      ],
      "name": "RemoveDepositor",
      "type": "event"
    },
    {
      "anonymous": false,
      "inputs": [
        {
          "indexed": true,
          "internalType": "address",
          "name": "from",
          "type": "address"
        },
        {
          "indexed": true,
          "internalType": "address",
          "name": "to",
          "type": "address"
        },
        {
          "indexed": false,
          "internalType": "uint256",
          "name": "value",
          "type": "uint256"
        }
      ],
      "name": "Transfer",
      "type": "event"
    },
    {
      "anonymous": false,
      "inputs": [
        {
          "indexed": false,
          "internalType": "uint256",
          "name": "oldValue",
          "type": "uint256"
        },
        {
          "indexed": false,
          "internalType": "uint256",
          "name": "newValue",
          "type": "uint256"
        }
      ],
      "name": "UpdateAdminFee",
      "type": "event"
    },
    {
      "anonymous": false,
      "inputs": [
        {
          "indexed": false,
          "internalType": "address",
          "name": "oldValue",
          "type": "address"
        },
        {
          "indexed": false,
          "internalType": "address",
          "name": "newValue",
          "type": "address"
        }
      ],
      "name": "UpdateDevAddr",
      "type": "event"
    },
    {
      "anonymous": false,
      "inputs": [
        {
          "indexed": false,
          "internalType": "uint256",
          "name": "oldValue",
          "type": "uint256"
        },
        {
          "indexed": false,
          "internalType": "uint256",
          "name": "newValue",
          "type": "uint256"
        }
      ],
      "name": "UpdateDevFee",
      "type": "event"
    },
    {
      "anonymous": false,
      "inputs": [
        {
          "indexed": false,
          "internalType": "uint256",
          "name": "oldValue",
          "type": "uint256"
        },
        {
          "indexed": false,
          "internalType": "uint256",
          "name": "newValue",
          "type": "uint256"
        }
      ],
      "name": "UpdateMaxTokensToDepositWithoutReinvest",
      "type": "event"
    },
    {
      "anonymous": false,
      "inputs": [
        {
          "indexed": false,
          "internalType": "uint256",
          "name": "oldValue",
          "type": "uint256"
        },
        {
          "indexed": false,
          "internalType": "uint256",
          "name": "newValue",
          "type": "uint256"
        }
      ],
      "name": "UpdateMinTokensToReinvest",
      "type": "event"
    },
    {
      "anonymous": false,
      "inputs": [
        {
          "indexed": false,
          "internalType": "uint256",
          "name": "oldValue",
          "type": "uint256"
        },
        {
          "indexed": false,
          "internalType": "uint256",
          "name": "newValue",
          "type": "uint256"
        }
      ],
      "name": "UpdateReinvestReward",
      "type": "event"
    },
    {
      "anonymous": false,
      "inputs": [
        {
          "indexed": true,
          "internalType": "address",
          "name": "account",
          "type": "address"
        },
        {
          "indexed": false,
          "internalType": "uint256",
          "name": "amount",
          "type": "uint256"
        }
      ],
      "name": "Withdraw",
      "type": "event"
    },
    {
      "inputs": [],
      "name": "ADMIN_FEE_BIPS",
      "outputs": [
        {
          "internalType": "uint256",
          "name": "",
          "type": "uint256"
        }
      ],
      "stateMutability": "view",
      "type": "function"
    },
    {
      "inputs": [],
      "name": "DEPOSITS_ENABLED",
      "outputs": [
        {
          "internalType": "bool",
          "name": "",
          "type": "bool"
        }
      ],
      "stateMutability": "view",
      "type": "function"
    },
    {
      "inputs": [],
      "name": "DEV_FEE_BIPS",
      "outputs": [
        {
          "internalType": "uint256",
          "name": "",
          "type": "uint256"
        }
      ],
      "stateMutability": "view",
      "type": "function"
    },
    {
      "inputs": [],
      "name": "DOMAIN_TYPEHASH",
      "outputs": [
        {
          "internalType": "bytes32",
          "name": "",
          "type": "bytes32"
        }
      ],
      "stateMutability": "view",
      "type": "function"
    },
    {
      "inputs": [],
      "name": "MAX_TOKENS_TO_DEPOSIT_WITHOUT_REINVEST",
      "outputs": [
        {
          "internalType": "uint256",
          "name": "",
          "type": "uint256"
        }
      ],
      "stateMutability": "view",
      "type": "function"
    },
    {
      "inputs": [],
      "name": "MIN_TOKENS_TO_REINVEST",
      "outputs": [
        {
          "internalType": "uint256",
          "name": "",
          "type": "uint256"
        }
      ],
      "stateMutability": "view",
      "type": "function"
    },
    {
      "inputs": [],
      "name": "PERMIT_TYPEHASH",
      "outputs": [
        {
          "internalType": "bytes32",
          "name": "",
          "type": "bytes32"
        }
      ],
      "stateMutability": "view",
      "type": "function"
    },
    {
      "inputs": [],
      "name": "PID",
      "outputs": [
        {
          "internalType": "uint256",
          "name": "",
          "type": "uint256"
        }
      ],
      "stateMutability": "view",
      "type": "function"
    },
    {
      "inputs": [],
      "name": "REINVEST_REWARD_BIPS",
      "outputs": [
        {
          "internalType": "uint256",
          "name": "",
          "type": "uint256"
        }
      ],
      "stateMutability": "view",
      "type": "function"
    },
    {
      "inputs": [],
      "name": "VERSION_HASH",
      "outputs": [
        {
          "internalType": "bytes32",
          "name": "",
          "type": "bytes32"
        }
      ],
      "stateMutability": "view",
      "type": "function"
    },
    {
      "inputs": [
        {
          "internalType": "address",
          "name": "depositor",
          "type": "address"
        }
      ],
      "name": "allowDepositor",
      "outputs": [],
      "stateMutability": "nonpayable",
      "type": "function"
    },
    {
      "inputs": [
        {
          "internalType": "address",
          "name": "account",
          "type": "address"
        },
        {
          "internalType": "address",
          "name": "spender",
          "type": "address"
        }
      ],
      "name": "allowance",
      "outputs": [
        {
          "internalType": "uint256",
          "name": "",
          "type": "uint256"
        }
      ],
      "stateMutability": "view",
      "type": "function"
    },
    {
      "inputs": [
        {
          "internalType": "address",
          "name": "",
          "type": "address"
        }
      ],
      "name": "allowedDepositors",
      "outputs": [
        {
          "internalType": "bool",
          "name": "",
          "type": "bool"
        }
      ],
      "stateMutability": "view",
      "type": "function"
    },
    {
      "inputs": [
        {
          "internalType": "address",
          "name": "spender",
          "type": "address"
        },
        {
          "internalType": "uint256",
          "name": "amount",
          "type": "uint256"
        }
      ],
      "name": "approve",
      "outputs": [
        {
          "internalType": "bool",
          "name": "",
          "type": "bool"
        }
      ],
      "stateMutability": "nonpayable",
      "type": "function"
    },
    {
      "inputs": [],
      "name": "axialChef",
      "outputs": [
        {
          "internalType": "contract IAxialChef",
          "name": "",
          "type": "address"
        }
      ],
      "stateMutability": "view",
      "type": "function"
    },
    {
      "inputs": [
        {
          "internalType": "address",
          "name": "account",
          "type": "address"
        }
      ],
      "name": "balanceOf",
      "outputs": [
        {
          "internalType": "uint256",
          "name": "",
          "type": "uint256"
        }
      ],
      "stateMutability": "view",
      "type": "function"
    },
    {
      "inputs": [],
      "name": "checkReward",
      "outputs": [
        {
          "internalType": "uint256",
          "name": "",
          "type": "uint256"
        }
      ],
      "stateMutability": "view",
      "type": "function"
    },
    {
      "inputs": [],
      "name": "decimals",
      "outputs": [
        {
          "internalType": "uint8",
          "name": "",
          "type": "uint8"
        }
      ],
      "stateMutability": "view",
      "type": "function"
    },
    {
      "inputs": [
        {
          "internalType": "uint256",
          "name": "amount",
          "type": "uint256"
        }
      ],
      "name": "deposit",
      "outputs": [],
      "stateMutability": "nonpayable",
      "type": "function"
    },
    {
      "inputs": [
        {
          "internalType": "address",
          "name": "account",
          "type": "address"
        },
        {
          "internalType": "uint256",
          "name": "amount",
          "type": "uint256"
        }
      ],
      "name": "depositFor",
      "outputs": [],
      "stateMutability": "nonpayable",
      "type": "function"
    },
    {
      "inputs": [],
      "name": "depositToken",
      "outputs": [
        {
          "internalType": "contract IERC20",
          "name": "",
          "type": "address"
        }
      ],
      "stateMutability": "view",
      "type": "function"
    },
    {
      "inputs": [
        {
          "internalType": "uint256",
          "name": "amount",
          "type": "uint256"
        },
        {
          "internalType": "uint256",
          "name": "deadline",
          "type": "uint256"
        },
        {
          "internalType": "uint8",
          "name": "v",
          "type": "uint8"
        },
        {
          "internalType": "bytes32",
          "name": "r",
          "type": "bytes32"
        },
        {
          "internalType": "bytes32",
          "name": "s",
          "type": "bytes32"
        }
      ],
      "name": "depositWithPermit",
      "outputs": [],
      "stateMutability": "nonpayable",
      "type": "function"
    },
    {
      "inputs": [],
      "name": "devAddr",
      "outputs": [
        {
          "internalType": "address",
          "name": "",
          "type": "address"
        }
      ],
      "stateMutability": "view",
      "type": "function"
    },
    {
      "inputs": [],
      "name": "estimateDeployedBalance",
      "outputs": [
        {
          "internalType": "uint256",
          "name": "",
          "type": "uint256"
        }
      ],
      "stateMutability": "view",
      "type": "function"
    },
    {
      "inputs": [],
      "name": "estimateReinvestReward",
      "outputs": [
        {
          "internalType": "uint256",
          "name": "",
          "type": "uint256"
        }
      ],
      "stateMutability": "view",
      "type": "function"
    },
    {
      "inputs": [],
      "name": "extraToken",
      "outputs": [
        {
          "internalType": "address",
          "name": "",
          "type": "address"
        }
      ],
      "stateMutability": "view",
      "type": "function"
    },
    {
      "inputs": [
        {
          "internalType": "uint256",
          "name": "amount",
          "type": "uint256"
        }
      ],
      "name": "getDepositTokensForShares",
      "outputs": [
        {
          "internalType": "uint256",
          "name": "",
          "type": "uint256"
        }
      ],
      "stateMutability": "view",
      "type": "function"
    },
    {
      "inputs": [],
      "name": "getDomainSeparator",
      "outputs": [
        {
          "internalType": "bytes32",
          "name": "",
          "type": "bytes32"
        }
      ],
      "stateMutability": "view",
      "type": "function"
    },
    {
      "inputs": [
        {
          "internalType": "uint256",
          "name": "amount",
          "type": "uint256"
        }
      ],
      "name": "getSharesForDepositTokens",
      "outputs": [
        {
          "internalType": "uint256",
          "name": "",
          "type": "uint256"
        }
      ],
      "stateMutability": "view",
      "type": "function"
    },
    {
      "inputs": [],
      "name": "name",
      "outputs": [
        {
          "internalType": "string",
          "name": "",
          "type": "string"
        }
      ],
      "stateMutability": "view",
      "type": "function"
    },
    {
      "inputs": [
        {
          "internalType": "address",
          "name": "",
          "type": "address"
        }
      ],
      "name": "nonces",
      "outputs": [
        {
          "internalType": "uint256",
          "name": "",
          "type": "uint256"
        }
      ],
      "stateMutability": "view",
      "type": "function"
    },
    {
      "inputs": [],
      "name": "numberOfAllowedDepositors",
      "outputs": [
        {
          "internalType": "uint256",
          "name": "",
          "type": "uint256"
        }
      ],
      "stateMutability": "view",
      "type": "function"
    },
    {
      "inputs": [],
      "name": "owner",
      "outputs": [
        {
          "internalType": "address",
          "name": "",
          "type": "address"
        }
      ],
      "stateMutability": "view",
      "type": "function"
    },
    {
      "inputs": [
        {
          "internalType": "address",
          "name": "owner",
          "type": "address"
        },
        {
          "internalType": "address",
          "name": "spender",
          "type": "address"
        },
        {
          "internalType": "uint256",
          "name": "value",
          "type": "uint256"
        },
        {
          "internalType": "uint256",
          "name": "deadline",
          "type": "uint256"
        },
        {
          "internalType": "uint8",
          "name": "v",
          "type": "uint8"
        },
        {
          "internalType": "bytes32",
          "name": "r",
          "type": "bytes32"
        },
        {
          "internalType": "bytes32",
          "name": "s",
          "type": "bytes32"
        }
      ],
      "name": "permit",
      "outputs": [],
      "stateMutability": "nonpayable",
      "type": "function"
    },
    {
      "inputs": [
        {
          "internalType": "uint256",
          "name": "amount",
          "type": "uint256"
        }
      ],
      "name": "recoverAVAX",
      "outputs": [],
      "stateMutability": "nonpayable",
      "type": "function"
    },
    {
      "inputs": [
        {
          "internalType": "address",
          "name": "tokenAddress",
          "type": "address"
        },
        {
          "internalType": "uint256",
          "name": "tokenAmount",
          "type": "uint256"
        }
      ],
      "name": "recoverERC20",
      "outputs": [],
      "stateMutability": "nonpayable",
      "type": "function"
    },
    {
      "inputs": [],
      "name": "reinvest",
      "outputs": [],
      "stateMutability": "nonpayable",
      "type": "function"
    },
    {
      "inputs": [
        {
          "internalType": "address",
          "name": "depositor",
          "type": "address"
        }
      ],
      "name": "removeDepositor",
      "outputs": [],
      "stateMutability": "nonpayable",
      "type": "function"
    },
    {
      "inputs": [],
      "name": "renounceOwnership",
      "outputs": [],
      "stateMutability": "nonpayable",
      "type": "function"
    },
    {
      "inputs": [
        {
          "internalType": "uint256",
          "name": "minReturnAmountAccepted",
          "type": "uint256"
        },
        {
          "internalType": "bool",
          "name": "disableDeposits",
          "type": "bool"
        }
      ],
      "name": "rescueDeployedFunds",
      "outputs": [],
      "stateMutability": "nonpayable",
      "type": "function"
    },
    {
      "inputs": [
        {
          "internalType": "address",
          "name": "token",
          "type": "address"
        },
        {
          "internalType": "address",
          "name": "spender",
          "type": "address"
        }
      ],
      "name": "revokeAllowance",
      "outputs": [],
      "stateMutability": "nonpayable",
      "type": "function"
    },
    {
      "inputs": [],
      "name": "rewardToken",
      "outputs": [
        {
          "internalType": "contract IERC20",
          "name": "",
          "type": "address"
        }
      ],
      "stateMutability": "view",
      "type": "function"
    },
    {
      "inputs": [
        {
          "internalType": "address",
          "name": "_extraTokenSwapPair",
          "type": "address"
        }
      ],
      "name": "setExtraRewardSwapPair",
      "outputs": [],
      "stateMutability": "nonpayable",
      "type": "function"
    },
    {
      "inputs": [],
      "name": "swapPairExtraReward",
      "outputs": [
        {
          "internalType": "address",
          "name": "",
          "type": "address"
        }
      ],
      "stateMutability": "view",
      "type": "function"
    },
    {
      "inputs": [],
      "name": "symbol",
      "outputs": [
        {
          "internalType": "string",
          "name": "",
          "type": "string"
        }
      ],
      "stateMutability": "view",
      "type": "function"
    },
    {
      "inputs": [],
      "name": "totalDeposits",
      "outputs": [
        {
          "internalType": "uint256",
          "name": "",
          "type": "uint256"
        }
      ],
      "stateMutability": "view",
      "type": "function"
    },
    {
      "inputs": [],
      "name": "totalSupply",
      "outputs": [
        {
          "internalType": "uint256",
          "name": "",
          "type": "uint256"
        }
      ],
      "stateMutability": "view",
      "type": "function"
    },
    {
      "inputs": [
        {
          "internalType": "address",
          "name": "dst",
          "type": "address"
        },
        {
          "internalType": "uint256",
          "name": "amount",
          "type": "uint256"
        }
      ],
      "name": "transfer",
      "outputs": [
        {
          "internalType": "bool",
          "name": "",
          "type": "bool"
        }
      ],
      "stateMutability": "nonpayable",
      "type": "function"
    },
    {
      "inputs": [
        {
          "internalType": "address",
          "name": "src",
          "type": "address"
        },
        {
          "internalType": "address",
          "name": "dst",
          "type": "address"
        },
        {
          "internalType": "uint256",
          "name": "amount",
          "type": "uint256"
        }
      ],
      "name": "transferFrom",
      "outputs": [
        {
          "internalType": "bool",
          "name": "",
          "type": "bool"
        }
      ],
      "stateMutability": "nonpayable",
      "type": "function"
    },
    {
      "inputs": [
        {
          "internalType": "address",
          "name": "newOwner",
          "type": "address"
        }
      ],
      "name": "transferOwnership",
      "outputs": [],
      "stateMutability": "nonpayable",
      "type": "function"
    },
    {
      "inputs": [
        {
          "internalType": "uint256",
          "name": "newValue",
          "type": "uint256"
        }
      ],
      "name": "updateAdminFee",
      "outputs": [],
      "stateMutability": "nonpayable",
      "type": "function"
    },
    {
      "inputs": [
        {
          "internalType": "bool",
          "name": "newValue",
          "type": "bool"
        }
      ],
      "name": "updateDepositsEnabled",
      "outputs": [],
      "stateMutability": "nonpayable",
      "type": "function"
    },
    {
      "inputs": [
        {
          "internalType": "address",
          "name": "newValue",
          "type": "address"
        }
      ],
      "name": "updateDevAddr",
      "outputs": [],
      "stateMutability": "nonpayable",
      "type": "function"
    },
    {
      "inputs": [
        {
          "internalType": "uint256",
          "name": "newValue",
          "type": "uint256"
        }
      ],
      "name": "updateDevFee",
      "outputs": [],
      "stateMutability": "nonpayable",
      "type": "function"
    },
    {
      "inputs": [
        {
          "internalType": "uint256",
          "name": "_maxSlippageBips",
          "type": "uint256"
        }
      ],
      "name": "updateMaxSwapSlippage",
      "outputs": [],
      "stateMutability": "nonpayable",
      "type": "function"
    },
    {
      "inputs": [
        {
          "internalType": "uint256",
          "name": "newValue",
          "type": "uint256"
        }
      ],
      "name": "updateMaxTokensToDepositWithoutReinvest",
      "outputs": [],
      "stateMutability": "nonpayable",
      "type": "function"
    },
    {
      "inputs": [
        {
          "internalType": "uint256",
          "name": "newValue",
          "type": "uint256"
        }
      ],
      "name": "updateMinTokensToReinvest",
      "outputs": [],
      "stateMutability": "nonpayable",
      "type": "function"
    },
    {
      "inputs": [
        {
          "internalType": "uint256",
          "name": "newValue",
          "type": "uint256"
        }
      ],
      "name": "updateReinvestReward",
      "outputs": [],
      "stateMutability": "nonpayable",
      "type": "function"
    },
    {
      "inputs": [
        {
          "internalType": "uint256",
          "name": "amount",
          "type": "uint256"
        }
      ],
      "name": "withdraw",
      "outputs": [],
      "stateMutability": "nonpayable",
      "type": "function"
    }
  ],
  "bytecode": {
    "object": "0x60e0604052600960a0819052685969656c642059616b60b81b60c09081526200002c916000919062000b55565b506040805180820190915260038082526216549560ea1b6020909201918252620000599160019162000b55565b503480156200006757600080fd5b5060405162004c5c38038062004c5c8339810160408190526200008a9162000d58565b898973b31f66aa3c1e785363f0875a1b74e27b85fd66c78a8a8a87898880600033600680546001600160a01b0319166001600160a01b0383169081179091556040519192509060009060008051602062004c3c833981519152908290a3508051620000f590620002e1565b6020810151620001059062000371565b6040810151620001159062000428565b5088516200012b9060009060208c019062000b55565b50600980546001600160a01b03808b166001600160a01b031992831617909255600a8054928a16928216929092179091556080839052600b8054909116732d580f9cf2fb2d09bc411532988f2afda4e7beff1790556200018d878787620004df565b6200019884620007b7565b620001a4600162000999565b620001af8362000a43565b60408051600080825260208201527fc7606d21ac05cd309191543e409f0845c016120563783d70e4f41419dc0ef234910160405180910390a15050601680546001600160a01b03808f166001600160a01b0319928316179092558c5160175560208d01516018556040808e01516019805491851691841691909117905560608e0151601a80549185169184168217905560808f0151601b8054919095169316831790935560a08e0151601c555163095ea7b360e01b815291985063095ea7b397506200028a965094506000199350600401915062000ebb9050565b6020604051808303816000875af1158015620002aa573d6000803e3d6000fd5b505050506040513d601f19601f82011682018060405250810190620002d0919062000ed4565b505050505050505050505062000f79565b6006546001600160a01b03163314620003305760405162461bcd60e51b8152602060048201819052602482015260008051602062004c1c83398151915260448201526064015b60405180910390fd5b600c5460408051918252602082018390527f481f79ac3a523b6d6db3c5a720e190e986d1cc1b41adcdf50f9caef849901100910160405180910390a1600c55565b6006546001600160a01b03163314620003bc5760405162461bcd60e51b8152602060048201819052602482015260008051602062004c1c833981519152604482015260640162000327565b612710620003db6010548362000b4060201b62001b141790919060201c565b1115620003e757600080fd5b60115460408051918252602082018390527f2a42303d002f0ba6cfe8259c91d4684443fb0b3de286ba74991175d651726131910160405180910390a1601155565b6006546001600160a01b03163314620004735760405162461bcd60e51b8152602060048201819052602482015260008051602062004c1c833981519152604482015260640162000327565b612710620004926011548362000b4060201b62001b141790919060201c565b11156200049e57600080fd5b60105460408051918252602082018390527fe7f97d51d307dc44045597c9978bec0f842e6bb40d19b9444084cfa30d9ed4f2910160405180910390a1601055565b826001600160a01b0316826001600160a01b0316146200078857806001600160a01b0316630dfe16816040518163ffffffff1660e01b8152600401602060405180830381865afa15801562000538573d6000803e3d6000fd5b505050506040513d601f19601f820116820180604052508101906200055e919062000ef8565b6001600160a01b0316826001600160a01b0316036200065957826001600160a01b0316816001600160a01b031663d21220a76040518163ffffffff1660e01b8152600401602060405180830381865afa158015620005c0573d6000803e3d6000fd5b505050506040513d601f19601f82011682018060405250810190620005e6919062000ef8565b6001600160a01b031614620006535760405162461bcd60e51b815260206004820152603f602482015260008051602062004bfc83398151915260448201527f6f6573206e6f7420636f6e7461696e2065636f73797374656d20746f6b656e00606482015260840162000327565b62000788565b806001600160a01b031663d21220a76040518163ffffffff1660e01b8152600401602060405180830381865afa15801562000698573d6000803e3d6000fd5b505050506040513d601f19601f82011682018060405250810190620006be919062000ef8565b6001600160a01b0316826001600160a01b0316036200072057826001600160a01b0316816001600160a01b0316630dfe16816040518163ffffffff1660e01b8152600401602060405180830381865afa158015620005c0573d6000803e3d6000fd5b60405162461bcd60e51b8152602060048201526041602482015260008051602062004bfc83398151915260448201527f6f6573206e6f7420636f6e7461696e20706f6f6c2072657761726420746f6b656064820152603760f91b608482015260a40162000327565b601280546001600160a01b039384166001600160a01b0319918216179091556013805492909316911617905550565b6001600160a01b038116156200097a57600a5460408051630dfe168160e01b815290516001600160a01b0392831692841691630dfe16819160048083019260209291908290030181865afa15801562000814573d6000803e3d6000fd5b505050506040513d601f19601f820116820180604052508101906200083a919062000ef8565b6001600160a01b031603620008d457806001600160a01b031663d21220a76040518163ffffffff1660e01b8152600401602060405180830381865afa15801562000888573d6000803e3d6000fd5b505050506040513d601f19601f82011682018060405250810190620008ae919062000ef8565b601580546001600160a01b0319166001600160a01b03929092169190911790556200095a565b806001600160a01b0316630dfe16816040518163ffffffff1660e01b8152600401602060405180830381865afa15801562000913573d6000803e3d6000fd5b505050506040513d601f19601f8201168201806040525081019062000939919062000ef8565b601580546001600160a01b0319166001600160a01b03929092169190911790555b601480546001600160a01b0383166001600160a01b031990911617905550565b601480546001600160a01b031990811690915560158054909116905550565b6006546001600160a01b03163314620009e45760405162461bcd60e51b8152602060048201819052602482015260008051602062004c1c833981519152604482015260640162000327565b600e5481151560ff909116151503620009fc57600080fd5b600e805460ff19168215159081179091556040519081527f7b014ed3854e7f5cb0218d58b3c6ae7d53a68bb0af2f67bfb029ea42c38a7e859060200160405180910390a150565b6006546001600160a01b0316331462000a8e5760405162461bcd60e51b8152602060048201819052602482015260008051602062004c1c833981519152604482015260640162000327565b6001600160a01b03811662000af55760405162461bcd60e51b815260206004820152602660248201527f4f776e61626c653a206e6577206f776e657220697320746865207a65726f206160448201526564647265737360d01b606482015260840162000327565b6006546040516001600160a01b0380841692169060008051602062004c3c83398151915290600090a3600680546001600160a01b0319166001600160a01b0392909216919091179055565b600062000b4e828462000f16565b9392505050565b82805462000b639062000f3d565b90600052602060002090601f01602090048101928262000b87576000855562000bd2565b82601f1062000ba257805160ff191683800117855562000bd2565b8280016001018555821562000bd2579182015b8281111562000bd257825182559160200191906001019062000bb5565b5062000be092915062000be4565b5090565b5b8082111562000be0576000815560010162000be5565b634e487b7160e01b600052604160045260246000fd5b604051601f8201601f191681016001600160401b038111828210171562000c3c5762000c3c62000bfb565b604052919050565b80516001600160a01b038116811462000c5c57600080fd5b919050565b600060c0828403121562000c7457600080fd5b60405160c081016001600160401b038111828210171562000c995762000c9962000bfb565b8060405250809150825181526020830151602082015262000cbd6040840162000c44565b604082015262000cd06060840162000c44565b606082015262000ce36080840162000c44565b608082015260a083015160a08201525092915050565b60006060828403121562000d0c57600080fd5b604051606081016001600160401b038111828210171562000d315762000d3162000bfb565b80604052508091508251815260208301516020820152604083015160408201525092915050565b6000806000806000806000806000806102208b8d03121562000d7957600080fd5b8a516001600160401b038082111562000d9157600080fd5b818d0191508d601f83011262000da657600080fd5b81518181111562000dbb5762000dbb62000bfb565b6020915062000dd3601f8201601f1916830162000c11565b8181528f8383860101111562000de857600080fd5b60005b8281101562000e0857848101840151828201850152830162000deb565b8281111562000e1a5760008484840101525b509c5062000e2c90508d820162000c44565b9a50505062000e3e60408c0162000c44565b975062000e4e60608c0162000c44565b965062000e5e60808c0162000c44565b955062000e6e60a08c0162000c44565b945062000e7f8c60c08d0162000c61565b93506101808b0151925062000e986101a08c0162000c44565b915062000eaa8c6101c08d0162000cf9565b90509295989b9194979a5092959850565b6001600160a01b03929092168252602082015260400190565b60006020828403121562000ee757600080fd5b8151801515811462000b4e57600080fd5b60006020828403121562000f0b57600080fd5b62000b4e8262000c44565b6000821982111562000f3857634e487b7160e01b600052601160045260246000fd5b500190565b600181811c9082168062000f5257607f821691505b60208210810362000f7357634e487b7160e01b600052602260045260246000fd5b50919050565b608051613c3d62000fbf6000396000818161053001528181610edb015281816114af01528181611db6015281816125010152818161283b0152612ad40152613c3d6000f3fe608060405234801561001057600080fd5b50600436106103995760003560e01c80638b73e606116101e9578063b9e57b801161010f578063dd62ed3e116100ad578063ed24911d1161007c578063ed24911d14610812578063f2fde38b1461081a578063f7c618c11461082d578063fdb5a03e1461084057600080fd5b8063dd62ed3e146107a0578063dd8ce4d6146107d9578063e21ac825146107ec578063eab89a5a146107ff57600080fd5b8063c89039c5116100e9578063c89039c514610754578063cff1b6ef14610767578063d505accf1461077a578063da09c72c1461078d57600080fd5b8063b9e57b801461073b578063bd079f5514610743578063c4b24a461461074c57600080fd5b8063a1a4ddeb11610187578063abff196311610156578063abff1963146106f5578063ac0d31ff14610708578063b52a321f1461071b578063b6b55f251461072857600080fd5b8063a1a4ddeb146106a9578063a573c856146106bc578063a8ae2b7c146106cf578063a9059cbb146106e257600080fd5b80639291d563116101c35780639291d5631461065457806395d89b411461066757806399729ec11461066f5780639e4e73181461068257600080fd5b80638b73e606146106095780638da5cb5b1461061c578063909ac8f41461064157600080fd5b80634bebd1e7116102ce578063789139bc1161026c578063818372301161023b57806381837230146105c75780638432e894146105da5780638980f11f146105ed5780638aff733d1461060057600080fd5b8063789139bc146105835780637ae267731461058c5780637d8820971461059f5780637ecebe00146105a757600080fd5b80635ea682ea116102a85780635ea682ea146105225780635eaec0e41461052b57806370a0823114610552578063715018a61461057b57600080fd5b80634bebd1e7146104e95780634e77ace5146104fc5780634ebb79161461050f57600080fd5b80632e1a7d4d1161033b578063313ce56711610315578063313ce567146104905780633bdc6e72146104aa578063483c2ef0146104b35780634a970be7146104d657600080fd5b80632e1a7d4d146104415780632f4f21e21461045657806330adf81f1461046957600080fd5b80630f23475d116103775780630f23475d146103f657806318160ddd146103fe57806320606b701461040757806323b872dd1461042e57600080fd5b806306fdde031461039e57806307677111146103bc578063095ea7b3146103d3575b600080fd5b6103a6610848565b6040516103b391906134ea565b60405180910390f35b6103c5600f5481565b6040519081526020016103b3565b6103e66103e1366004613512565b6108d6565b60405190151581526020016103b3565b6103c56108ed565b6103c560025481565b6103c57f8b73c3c69bb8fe3d512ecc4cf759cc79239f7b179b0ffacaa9a75d522b39400f81565b6103e661043c36600461353e565b610928565b61045461044f36600461357f565b610a0c565b005b610454610464366004613512565b610aee565b6103c57f6e71edae12b1b97f4d1f60370fef10105fa2faae0126114a169c64845d6126c981565b610498601281565b60405160ff90911681526020016103b3565b6103c560075481565b6103e66104c1366004613598565b60086020526000908152604090205460ff1681565b6104546104e43660046135cb565b610afc565b6104546104f7366004613598565b610b95565b61045461050a366004613620565b610c94565b61045461051d36600461357f565b610d1d565b6103c560115481565b6103c57f000000000000000000000000000000000000000000000000000000000000000081565b6103c5610560366004613598565b6001600160a01b031660009081526004602052604090205490565b610454610db9565b6103c5600d5481565b61045461059a36600461363d565b610e2d565b6103c5610ed3565b6103c56105b5366004613598565b60056020526000908152604090205481565b6104546105d536600461357f565b610f00565b6104546105e8366004613598565b610f6b565b6104546105fb366004613512565b610fa1565b6103c560105481565b610454610617366004613598565b611098565b6006546001600160a01b03165b6040516001600160a01b0390911681526020016103b3565b601454610629906001600160a01b031681565b610454610662366004613598565b611219565b6103a66112ac565b61045461067d36600461357f565b6112b9565b6103c57fc89efdaa54c0f20c7adf612882df0950f5a951637e0307cdcb4c672f298b8bc681565b601554610629906001600160a01b031681565b601654610629906001600160a01b031681565b6104546106dd36600461357f565b611347565b6103e66106f0366004613512565b6113d5565b61045461070336600461357f565b6113e2565b610454610716366004613676565b611411565b600e546103e69060ff1681565b61045461073636600461357f565b61161f565b6103c5611629565b6103c5600c5481565b6103c5611668565b600954610629906001600160a01b031681565b61045461077536600461357f565b61167c565b61045461078836600461369b565b6116f2565b600b54610629906001600160a01b031681565b6103c56107ae36600461363d565b6001600160a01b03918216600090815260036020908152604080832093909416825291909152205490565b6103c56107e736600461357f565b6117f7565b6104546107fa36600461357f565b611831565b6103c561080d36600461357f565b61189c565b6103c56118d0565b610454610828366004613598565b611970565b600a54610629906001600160a01b031681565b610454611a5b565b6000805461085590613709565b80601f016020809104026020016040519081016040528092919081815260200182805461088190613709565b80156108ce5780601f106108a3576101008083540402835291602001916108ce565b820191906000526020600020905b8154815290600101906020018083116108b157829003601f168201915b505050505081565b60006108e3338484611b20565b5060015b92915050565b6000806108f8610ed3565b90506000806109146127105b61090e8585611c2e565b90611c3a565b90506109208382611c46565b935050505090565b6001600160a01b03831660008181526003602090815260408083203380855292528220549192909190821480159061096257506000198114155b156109f357600061098e856040518060600160405280602f8152602001613b84602f9139849190611c52565b6001600160a01b038881166000818152600360209081526040808320948916808452948252918290208590559051848152939450919290917f8c5be1e5ebec7d5bd14f71427d1e84f3dd0314c0f7b2291e5b200ac8c7c3b925910160405180910390a3505b6109fe868686611c7e565b6001925050505b9392505050565b6000610a178261189c565b905060008111610a6e5760405162461bcd60e51b815260206004820152601e60248201527f4d617374657243686566537472617465677956313a3a7769746864726177000060448201526064015b60405180910390fd5b610a7781611db1565b600080610a85612710610904565b600954909150610aa8906001600160a01b031633610aa38685611c46565b611ddb565b610ab23385611eb2565b60405183815233907f884edad9ce6fa2440d8a54cc123490eb96d2768479d49ff9c7366125a9424364906020015b60405180910390a250505050565b610af88282611f88565b5050565b60095460405163d505accf60e01b8152336004820152306024820152604481018790526064810186905260ff8516608482015260a4810184905260c481018390526001600160a01b039091169063d505accf9060e401600060405180830381600087803b158015610b6c57600080fd5b505af1158015610b80573d6000803e3d6000fd5b50505050610b8e3386611f88565b5050505050565b6006546001600160a01b03163314610bbf5760405162461bcd60e51b8152600401610a6590613743565b6001600160a01b03811660009081526008602052604090205460ff1615610c285760405162461bcd60e51b815260206004820152601c60248201527f5065726d697373696f6e65643a3a616c6c6f774465706f7369746f72000000006044820152606401610a65565b6001600160a01b0381166000908152600860205260409020805460ff19166001908117909155600754610c5a91611b14565b6007556040516001600160a01b038216907fc0a1035c16faf8d1304056d92c00edf028f87e62b8235a938f00af9e3c0312c590600090a250565b6006546001600160a01b03163314610cbe5760405162461bcd60e51b8152600401610a6590613743565b600e5481151560ff909116151503610cd557600080fd5b600e805460ff19168215159081179091556040519081527f7b014ed3854e7f5cb0218d58b3c6ae7d53a68bb0af2f67bfb029ea42c38a7e85906020015b60405180910390a150565b6006546001600160a01b03163314610d475760405162461bcd60e51b8152600401610a6590613743565b60008111610d5457600080fd5b604051339082156108fc029083906000818181858888f19350505050158015610d81573d6000803e3d6000fd5b506040805160008152602081018390527f8c1256b8896378cd5044f80c202f9772b9d77dc85c8a6eb51967210b09bfaa289101610d12565b6006546001600160a01b03163314610de35760405162461bcd60e51b8152600401610a6590613743565b6006546040516000916001600160a01b0316907f8be0079c531659141344cd1fd0a4f28419497f9722a3daafe3b4186f6b6457e0908390a3600680546001600160a01b0319169055565b6006546001600160a01b03163314610e575760405162461bcd60e51b8152600401610a6590613743565b60405163095ea7b360e01b81526001600160a01b0382811660048301526000602483015283169063095ea7b3906044016020604051808303816000875af1158015610ea6573d6000803e3d6000fd5b505050506040513d601f19601f82011682018060405250810190610eca9190613778565b610af857600080fd5b6000806108e77f000000000000000000000000000000000000000000000000000000000000000030612156565b6006546001600160a01b03163314610f2a5760405162461bcd60e51b8152600401610a6590613743565b600c5460408051918252602082018390527f481f79ac3a523b6d6db3c5a720e190e986d1cc1b41adcdf50f9caef849901100910160405180910390a1600c55565b600b546001600160a01b03163314610f955760405162461bcd60e51b8152600401610a6590613795565b610f9e816121d3565b50565b6006546001600160a01b03163314610fcb5760405162461bcd60e51b8152600401610a6590613743565b60008111610fd857600080fd5b60405163a9059cbb60e01b8152336004820152602481018290526001600160a01b0383169063a9059cbb906044016020604051808303816000875af1158015611025573d6000803e3d6000fd5b505050506040513d601f19601f820116820180604052508101906110499190613778565b61105257600080fd5b604080516001600160a01b0384168152602081018390527f8c1256b8896378cd5044f80c202f9772b9d77dc85c8a6eb51967210b09bfaa28910160405180910390a15050565b6006546001600160a01b031633146110c25760405162461bcd60e51b8152600401610a6590613743565b6000600754116111315760405162461bcd60e51b815260206004820152603460248201527f5065726d697373696f6e65643a3a72656d6f76654465706f7369746f722c206e6044820152736f20616c6c6f776564206465706f7369746f727360601b6064820152608401610a65565b6001600160a01b03811660009081526008602052604090205460ff1615156001146111b15760405162461bcd60e51b815260206004820152602a60248201527f5065726d697373696f6e65643a3a72656d6f76654465706f7369746f722c206e6044820152691bdd08185b1b1bddd95960b21b6064820152608401610a65565b6001600160a01b0381166000908152600860205260409020805460ff191690556007546111df906001611c46565b6007556040516001600160a01b038216907f0e86f6608b536e5339a25b65ff531f5ea91e1313d056ecd4752b35cbd16137d490600090a250565b600b546001600160a01b031633146112435760405162461bcd60e51b8152600401610a6590613795565b600b54604080516001600160a01b03928316815291831660208301527fa8e91499ed37682f43cffb045fcc7d379a91e8c9a14e6321877ee34dee564c00910160405180910390a1600b80546001600160a01b0319166001600160a01b0392909216919091179055565b6001805461085590613709565b6006546001600160a01b031633146112e35760405162461bcd60e51b8152600401610a6590613743565b6127106112fb60105483611b1490919063ffffffff16565b111561130657600080fd5b60115460408051918252602082018390527f2a42303d002f0ba6cfe8259c91d4684443fb0b3de286ba74991175d651726131910160405180910390a1601155565b6006546001600160a01b031633146113715760405162461bcd60e51b8152600401610a6590613743565b61271061138960115483611b1490919063ffffffff16565b111561139457600080fd5b60105460408051918252602082018390527fe7f97d51d307dc44045597c9978bec0f842e6bb40d19b9444084cfa30d9ed4f2910160405180910390a1601055565b60006108e3338484611c7e565b600b546001600160a01b0316331461140c5760405162461bcd60e51b8152600401610a6590613795565b601c55565b6006546001600160a01b0316331461143b5760405162461bcd60e51b8152600401610a6590613743565b6009546040516370a0823160e01b81523060048201526000916001600160a01b0316906370a0823190602401602060405180830381865afa158015611484573d6000803e3d6000fd5b505050506040513d601f19601f820116820180604052508101906114a891906137c3565b90506114d37f00000000000000000000000000000000000000000000000000000000000000006123a9565b6009546040516370a0823160e01b81523060048201526000916001600160a01b0316906370a0823190602401602060405180830381865afa15801561151c573d6000803e3d6000fd5b505050506040513d601f19601f8201168201806040525081019061154091906137c3565b90508361154d8284611c46565b10156115ad5760405162461bcd60e51b815260206004820152602960248201527f4d617374657243686566537472617465677956313a3a7265736375654465706c6044820152686f79656446756e647360b81b6064820152608401610a65565b7fc7606d21ac05cd309191543e409f0845c016120563783d70e4f41419dc0ef2346115d6610ed3565b6002546040805192835260208301919091520160405180910390a1600e5460ff161515600114801561160a57506001831515145b15611619576116196000610c94565b50505050565b610f9e3382611f88565b600080611634611668565b9050600c5481106116605761165a61271061090e60105484611c2e90919063ffffffff16565b91505090565b600091505090565b600080611673612480565b95945050505050565b6006546001600160a01b031633146116a65760405162461bcd60e51b8152600401610a6590613743565b80156116b157600080fd5b600f5460408051918252602082018390527f3cc372f330f95ac9540626dc8a25f5bf21ba607215a5d58304cb804d446f104a910160405180910390a1600f55565b428410156117345760405162461bcd60e51b815260206004820152600f60248201526e1c195c9b5a5d0e8e995e1c1a5c9959608a1b6044820152606401610a65565b6001600160a01b038716600090815260056020526040812080547f6e71edae12b1b97f4d1f60370fef10105fa2faae0126114a169c64845d6126c9918a918a918a919086611781836137f2565b909155506040805160208101969096526001600160a01b0394851690860152929091166060840152608083015260a082015260c0810186905260e0016040516020818303038152906040528051906020012090506117e2888286868661270a565b6117ed888888611b20565b5050505050505050565b600061180d611804610ed3565b60025490611c2e565b600003611818575090565b6108e7611823610ed3565b60025461090e908590611c2e565b6006546001600160a01b0316331461185b5760405162461bcd60e51b8152600401610a6590613743565b600d5460408051918252602082018390527fa5dae50539d56dfe1fb5273d883b0c39bc76750a25d036fc5fbd09ad8fd5f57f910160405180910390a1600d55565b60006118a9611804610ed3565b6000036118b857506000919050565b6108e760025461090e6118c9610ed3565b8590611c2e565b60007f8b73c3c69bb8fe3d512ecc4cf759cc79239f7b179b0ffacaa9a75d522b39400f60001b6000604051611905919061380b565b6040519081900390207fc89efdaa54c0f20c7adf612882df0950f5a951637e0307cdcb4c672f298b8bc646604080516020810195909552840192909252606083015260808201523060a082015260c00160405160208183030381529060405280519060200120905090565b6006546001600160a01b0316331461199a5760405162461bcd60e51b8152600401610a6590613743565b6001600160a01b0381166119ff5760405162461bcd60e51b815260206004820152602660248201527f4f776e61626c653a206e6577206f776e657220697320746865207a65726f206160448201526564647265737360d01b6064820152608401610a65565b6006546040516001600160a01b038084169216907f8be0079c531659141344cd1fd0a4f28419497f9722a3daafe3b4186f6b6457e090600090a3600680546001600160a01b0319166001600160a01b0392909216919091179055565b323314611aa15760405162461bcd60e51b815260206004820152601460248201527359616b53747261746567793a3a6f6e6c79454f4160601b6044820152606401610a65565b600080600080611aaf612480565b9350935093509350600c54811015611b095760405162461bcd60e51b815260206004820152601e60248201527f4d617374657243686566537472617465677956313a3a7265696e7665737400006044820152606401610a65565b611619828585612836565b6000610a0582846138a6565b6001600160a01b038316611b765760405162461bcd60e51b815260206004820152601c60248201527f5f617070726f76653a3a6f776e6572207a65726f2061646472657373000000006044820152606401610a65565b6001600160a01b038216611bcc5760405162461bcd60e51b815260206004820152601e60248201527f5f617070726f76653a3a7370656e646572207a65726f206164647265737300006044820152606401610a65565b6001600160a01b0383811660008181526003602090815260408083209487168084529482529182902085905590518481527f8c5be1e5ebec7d5bd14f71427d1e84f3dd0314c0f7b2291e5b200ac8c7c3b92591015b60405180910390a3505050565b6000610a0582846138be565b6000610a0582846138dd565b6000610a0582846138ff565b60008184841115611c765760405162461bcd60e51b8152600401610a6591906134ea565b505050900390565b6001600160a01b038216611cf15760405162461bcd60e51b815260206004820152603460248201527f5f7472616e73666572546f6b656e733a2063616e6e6f74207472616e7366657260448201527320746f20746865207a65726f206164647265737360601b6064820152608401610a65565b611d2e816040518060600160405280602e8152602001613bda602e91396001600160a01b0386166000908152600460205260409020549190611c52565b6001600160a01b038085166000908152600460205260408082209390935590841681522054611d5d9082611b14565b6001600160a01b0380841660008181526004602052604090819020939093559151908516907fddf252ad1be2c89b69c2b068fc378daa952ba7f163c4a11628f55a4df523b3ef90611c219085815260200190565b610f9e7f00000000000000000000000000000000000000000000000000000000000000008261297f565b60405163a9059cbb60e01b81526001600160a01b0383811660048301526024820183905284169063a9059cbb906044016020604051808303816000875af1158015611e2a573d6000803e3d6000fd5b505050506040513d601f19601f82011682018060405250810190611e4e9190613778565b611ead5760405162461bcd60e51b815260206004820152602a60248201527f4d617374657243686566537472617465677956313a3a5452414e534645525f466044820152691493d357d1905253115160b21b6064820152608401610a65565b505050565b611eef81604051806060016040528060278152602001613bb3602791396001600160a01b0385166000908152600460205260409020549190611c52565b60046000846001600160a01b03166001600160a01b0316815260200190815260200160002081905550611f3f81604051806060016040528060278152602001613b5d602791396002549190611c52565b6002556040518181526000906001600160a01b038416907fddf252ad1be2c89b69c2b068fc378daa952ba7f163c4a11628f55a4df523b3ef906020015b60405180910390a35050565b600e5460ff161515600114611fdf5760405162461bcd60e51b815260206004820152601e60248201527f4d617374657243686566537472617465677956313a3a5f6465706f73697400006044820152606401610a65565b600d541561201757600080600080611ff5612480565b9350935093509350600d5481111561201257612012828585612836565b505050505b6009546040516323b872dd60e01b8152336004820152306024820152604481018390526001600160a01b03909116906323b872dd906064016020604051808303816000875af115801561206e573d6000803e3d6000fd5b505050506040513d601f19601f820116820180604052508101906120929190613778565b6120ec5760405162461bcd60e51b815260206004820152602560248201527f4d617374657243686566537472617465677956313a3a7472616e736665722066604482015264185a5b195960da1b6064820152608401610a65565b6000806120fa612710610904565b90506121128461210d6107e78685611c46565b6129e9565b61211b83612a6d565b836001600160a01b03167fe1fffcc4923d04b559f4d29a8bfc6cda04eb5b0d3c460751c2402c5c5cc9109c84604051610ae091815260200190565b6016546040516393f1a40b60e01b8152600481018490526001600160a01b03838116602483015260009216906393f1a40b906044016040805180830381865afa1580156121a7573d6000803e3d6000fd5b505050506040513d601f19601f820116820180604052508101906121cb9190613916565b509392505050565b6001600160a01b0381161561238a57600a5460408051630dfe168160e01b815290516001600160a01b0392831692841691630dfe16819160048083019260209291908290030181865afa15801561222e573d6000803e3d6000fd5b505050506040513d601f19601f82011682018060405250810190612252919061393a565b6001600160a01b0316036122e757806001600160a01b031663d21220a76040518163ffffffff1660e01b8152600401602060405180830381865afa15801561229e573d6000803e3d6000fd5b505050506040513d601f19601f820116820180604052508101906122c2919061393a565b601580546001600160a01b0319166001600160a01b039290921691909117905561236a565b806001600160a01b0316630dfe16816040518163ffffffff1660e01b8152600401602060405180830381865afa158015612325573d6000803e3d6000fd5b505050506040513d601f19601f82011682018060405250810190612349919061393a565b601580546001600160a01b0319166001600160a01b03929092169190911790555b601480546001600160a01b0383166001600160a01b031990911617905550565b601480546001600160a01b031990811690915560158054909116905550565b601654604051632989754760e11b8152600481018390526001600160a01b0390911690635312ea8e90602401600060405180830381600087803b1580156123ef57600080fd5b505af1158015612403573d6000803e3d6000fd5b505060095460165460405163095ea7b360e01b81526001600160a01b039182166004820152600060248201529116925063095ea7b391506044016020604051808303816000875af115801561245c573d6000803e3d6000fd5b505050506040513d601f19601f82011682018060405250810190610af89190613778565b6012546040516370a0823160e01b815230600482015260009182918291829182916001600160a01b0316906370a0823190602401602060405180830381865afa1580156124d1573d6000803e3d6000fd5b505050506040513d601f19601f820116820180604052508101906124f591906137c3565b905060008060006125267f000000000000000000000000000000000000000000000000000000000000000030612af9565b9194509250905060006125398585611b14565b600a546012549192506000916001600160a01b0391821691160361255d5784612582565b601254600a546013546125829285926001600160a01b03918216929082169116612b95565b905060006001600160a01b0384161561266d5773b31f66aa3c1e785363f0875a1b74e27b85fd66c6196001600160a01b038516016125c157508361266d565b6014546001600160a01b03161561266d576015546040516370a0823160e01b8152306004820152612647916001600160a01b0316906370a0823190602401602060405180830381865afa15801561261c573d6000803e3d6000fd5b505050506040513d601f19601f8201168201806040525081019061264091906137c3565b8690611b14565b600a5460145491965061266a91879187916001600160a01b039182169116612b95565b90505b600a546040516370a0823160e01b81523060048201526000916126e69184916001600160a01b0316906370a0823190602401602060405180830381865afa1580156126bc573d6000803e3d6000fd5b505050506040513d601f19601f820116820180604052508101906126e091906137c3565b90611b14565b905060006126f48285611b14565b949d969c50909a50929850939650505050505050565b60006127146118d0565b60405161190160f01b602082015260228101919091526042810186905260620160408051601f198184030181528282528051602091820120600080855291840180845281905260ff88169284019290925260608301869052608083018590529092509060019060a0016020604051602081039080840390855afa15801561279f573d6000803e3d6000fd5b5050604051601f1901519150506001600160a01b038116158015906127d55750866001600160a01b0316816001600160a01b0316145b61282d5760405162461bcd60e51b8152602060048201526024808201527f417263683a3a76616c69646174655369673a20696e76616c6964207369676e616044820152637475726560e01b6064820152608401610a65565b50505050505050565b61285f7f0000000000000000000000000000000000000000000000000000000000000000612c53565b600061287461286d84612cb4565b8590611b14565b905061288a6128838584612cf8565b8290611b14565b5060006128a861271061090e60115485611c2e90919063ffffffff16565b905080156128cd57600a54600b546128cd916001600160a01b03908116911683611ddb565b60006128ea61271061090e60105486611c2e90919063ffffffff16565b9050801561290957600a54612909906001600160a01b03163383611ddb565b60006129276129228361291c8787611c46565b90611c46565b612e37565b905061293281612a6d565b7fc7606d21ac05cd309191543e409f0845c016120563783d70e4f41419dc0ef23461295b610ed3565b6002546040805192835260208301919091520160405180910390a150505050505050565b601654604051630441a3e760e41b815260048101849052602481018390526001600160a01b039091169063441a3e70906044015b600060405180830381600087803b1580156129cd57600080fd5b505af11580156129e1573d6000803e3d6000fd5b505050505050565b6002546129f69082611b14565b6002556001600160a01b038216600090815260046020526040902054612a1c9082611b14565b6001600160a01b0383166000818152600460205260408082209390935591519091907fddf252ad1be2c89b69c2b068fc378daa952ba7f163c4a11628f55a4df523b3ef90611f7c9085815260200190565b60008111612acf5760405162461bcd60e51b815260206004820152602960248201527f4d617374657243686566537472617465677956313a3a5f7374616b654465706f604482015268736974546f6b656e7360b81b6064820152608401610a65565b610f9e7f000000000000000000000000000000000000000000000000000000000000000082612f75565b60165460405160016232bd9d60e01b03198152600481018490526001600160a01b038381166024830152600092839283928392839283929091169063ffcd426390604401600060405180830381865afa158015612b5a573d6000803e3d6000fd5b505050506040513d6000823e601f3d908101601f19168201604052612b82919081019061396d565b9298509196509450505050509250925092565b600080612ba28585613027565b509050600080846001600160a01b0316630902f1ac6040518163ffffffff1660e01b8152600401606060405180830381865afa158015612be6573d6000803e3d6000fd5b505050506040513d601f19601f82011682018060405250810190612c0a9190613a56565b5091509150866001600160a01b0316836001600160a01b031614612c2a57905b612c4788836001600160701b0316836001600160701b0316613058565b98975050505050505050565b601654604051630441a3e760e41b815260048101839052600060248201526001600160a01b039091169063441a3e7090604401600060405180830381600087803b158015612ca057600080fd5b505af1158015610b8e573d6000803e3d6000fd5b601254600a546000916001600160a01b03908116911603612cd3575090565b601254600a546013546108e79285926001600160a01b039182169290821691166130a0565b60008115612e2e576014546001600160a01b031615612d3d57601554600a54601454612d369285926001600160a01b039182169290821691166130a0565b90506108e7565b478015612dad5773b31f66aa3c1e785363f0875a1b74e27b85fd66c76001600160a01b031663d0e30db0826040518263ffffffff1660e01b81526004016000604051808303818588803b158015612d9357600080fd5b505af1158015612da7573d6000803e3d6000fd5b50505050505b6040516370a0823160e01b8152306004820152612e2690859073b31f66aa3c1e785363f0875a1b74e27b85fd66c7906370a0823190602401602060405180830381865afa158015612e02573d6000803e3d6000fd5b505050506040513d601f19601f8201168201806040525081019061291c91906137c3565b9150506108e7565b50600092915050565b600a54601a546019546000928392612e609286926001600160a01b0390811692811691166130a0565b9050600060176000015467ffffffffffffffff811115612e8257612e82613957565b604051908082528060200260200182016040528015612eab578160200160208202803683370190505b509050818160176001015481518110612ec657612ec6613aa6565b6020026020010181815250506000612ef261271061090e60176005015486611c2e90919063ffffffff16565b601b549091506001600160a01b0316634d49e87d83612f118685611c46565b6000196040518463ffffffff1660e01b8152600401612f3293929190613abc565b6020604051808303816000875af1158015612f51573d6000803e3d6000fd5b505050506040513d601f19601f8201168201806040525081019061167391906137c3565b60095460165460405163095ea7b360e01b81526001600160a01b0391821660048201526024810184905291169063095ea7b3906044016020604051808303816000875af1158015612fca573d6000803e3d6000fd5b505050506040513d601f19601f82011682018060405250810190612fee9190613778565b50601654604051631c57762b60e31b815260048101849052602481018390526001600160a01b039091169063e2bbb158906044016129b3565b600080826001600160a01b0316846001600160a01b03161061304a57828461304d565b83835b915091509250929050565b600080613067856103e5611c2e565b905060006130758285611c2e565b90506000613089836126e0886103e8611c2e565b90506130958282611c3a565b979650505050505050565b6000806130ad8585613027565b509050600080846001600160a01b0316630902f1ac6040518163ffffffff1660e01b8152600401606060405180830381865afa1580156130f1573d6000803e3d6000fd5b505050506040513d601f19601f820116820180604052508101906131159190613a56565b5091509150866001600160a01b0316836001600160a01b03161461313557905b6000806131558a856001600160701b0316856001600160701b0316613058565b9050886001600160a01b0316856001600160a01b03161461317257905b6131866001600160a01b038a16888c613214565b6040805160008152602081019182905263022c0d9f60e01b9091526001600160a01b0388169063022c0d9f906131c59085908590309060248101613b09565b600060405180830381600087803b1580156131df57600080fd5b505af11580156131f3573d6000803e3d6000fd5b505050508181116132045781613206565b805b9a9950505050505050505050565b604080516001600160a01b03848116602483015260448083018590528351808403909101815260649092018352602080830180516001600160e01b031663a9059cbb60e01b17905283518085019094528084527f5361666545524332303a206c6f772d6c6576656c2063616c6c206661696c656490840152611ead928692916000916132a4918516908490613321565b805190915015611ead57808060200190518101906132c29190613778565b611ead5760405162461bcd60e51b815260206004820152602a60248201527f5361666545524332303a204552433230206f7065726174696f6e20646964206e6044820152691bdd081cdd58d8d9595960b21b6064820152608401610a65565b60606133308484600085613338565b949350505050565b6060824710156133995760405162461bcd60e51b815260206004820152602660248201527f416464726573733a20696e73756666696369656e742062616c616e636520666f6044820152651c8818d85b1b60d21b6064820152608401610a65565b6001600160a01b0385163b6133f05760405162461bcd60e51b815260206004820152601d60248201527f416464726573733a2063616c6c20746f206e6f6e2d636f6e74726163740000006044820152606401610a65565b600080866001600160a01b0316858760405161340c9190613b40565b60006040518083038185875af1925050503d8060008114613449576040519150601f19603f3d011682016040523d82523d6000602084013e61344e565b606091505b509150915061309582828660608315613468575081610a05565b8251156134785782518084602001fd5b8160405162461bcd60e51b8152600401610a6591906134ea565b60005b838110156134ad578181015183820152602001613495565b838111156116195750506000910152565b600081518084526134d6816020860160208601613492565b601f01601f19169290920160200192915050565b602081526000610a0560208301846134be565b6001600160a01b0381168114610f9e57600080fd5b6000806040838503121561352557600080fd5b8235613530816134fd565b946020939093013593505050565b60008060006060848603121561355357600080fd5b833561355e816134fd565b9250602084013561356e816134fd565b929592945050506040919091013590565b60006020828403121561359157600080fd5b5035919050565b6000602082840312156135aa57600080fd5b8135610a05816134fd565b803560ff811681146135c657600080fd5b919050565b600080600080600060a086880312156135e357600080fd5b85359450602086013593506135fa604087016135b5565b94979396509394606081013594506080013592915050565b8015158114610f9e57600080fd5b60006020828403121561363257600080fd5b8135610a0581613612565b6000806040838503121561365057600080fd5b823561365b816134fd565b9150602083013561366b816134fd565b809150509250929050565b6000806040838503121561368957600080fd5b82359150602083013561366b81613612565b600080600080600080600060e0888a0312156136b657600080fd5b87356136c1816134fd565b965060208801356136d1816134fd565b955060408801359450606088013593506136ed608089016135b5565b925060a0880135915060c0880135905092959891949750929550565b600181811c9082168061371d57607f821691505b60208210810361373d57634e487b7160e01b600052602260045260246000fd5b50919050565b6020808252818101527f4f776e61626c653a2063616c6c6572206973206e6f7420746865206f776e6572604082015260600190565b60006020828403121561378a57600080fd5b8151610a0581613612565b6020808252601490820152732cb0b5a9ba3930ba32b3bc9d1d37b7363ca232bb60611b604082015260600190565b6000602082840312156137d557600080fd5b5051919050565b634e487b7160e01b600052601160045260246000fd5b600060018201613804576138046137dc565b5060010190565b600080835481600182811c91508083168061382757607f831692505b6020808410820361384657634e487b7160e01b86526022600452602486fd5b81801561385a576001811461386b57613898565b60ff19861689528489019650613898565b60008a81526020902060005b868110156138905781548b820152908501908301613877565b505084890196505b509498975050505050505050565b600082198211156138b9576138b96137dc565b500190565b60008160001904831182151516156138d8576138d86137dc565b500290565b6000826138fa57634e487b7160e01b600052601260045260246000fd5b500490565b600082821015613911576139116137dc565b500390565b6000806040838503121561392957600080fd5b505080516020909101519092909150565b60006020828403121561394c57600080fd5b8151610a05816134fd565b634e487b7160e01b600052604160045260246000fd5b6000806000806080858703121561398357600080fd5b845193506020850151613995816134fd565b604086015190935067ffffffffffffffff808211156139b357600080fd5b818701915087601f8301126139c757600080fd5b8151818111156139d9576139d9613957565b604051601f8201601f19908116603f01168101908382118183101715613a0157613a01613957565b816040528281528a6020848701011115613a1a57600080fd5b613a2b836020830160208801613492565b60609990990151979a969950505050505050565b80516001600160701b03811681146135c657600080fd5b600080600060608486031215613a6b57600080fd5b613a7484613a3f565b9250613a8260208501613a3f565b9150604084015163ffffffff81168114613a9b57600080fd5b809150509250925092565b634e487b7160e01b600052603260045260246000fd5b606080825284519082018190526000906020906080840190828801845b82811015613af557815184529284019290840190600101613ad9565b505050908301949094525060400152919050565b84815283602082015260018060a01b0383166040820152608060608201526000613b3660808301846134be565b9695505050505050565b60008251613b52818460208701613492565b919091019291505056fe5f6275726e3a206275726e20616d6f756e74206578636565647320746f74616c20737570706c797472616e7366657246726f6d3a207472616e7366657220616d6f756e74206578636565647320616c6c6f77616e63655f6275726e3a206275726e20616d6f756e7420657863656564732066726f6d2062616c616e63655f7472616e73666572546f6b656e733a207472616e7366657220657863656564732066726f6d2062616c616e6365a26469706673582212202a7bce499f835d3acd04aa1653e0143fbd5ed41ded41b86964d9f3e450e08d2464736f6c634300080d003353776170207061697220277377617050616972506f6f6c5265776172642720644f776e61626c653a2063616c6c6572206973206e6f7420746865206f776e65728be0079c531659141344cd1fd0a4f28419497f9722a3daafe3b4186f6b6457e0",
    "linkReferences": {}
  },
  "methodIdentifiers": {
    "ADMIN_FEE_BIPS()": "07677111",
    "DEPOSITS_ENABLED()": "b52a321f",
    "DEV_FEE_BIPS()": "5ea682ea",
    "DOMAIN_TYPEHASH()": "20606b70",
    "MAX_TOKENS_TO_DEPOSIT_WITHOUT_REINVEST()": "789139bc",
    "MIN_TOKENS_TO_REINVEST()": "bd079f55",
    "PERMIT_TYPEHASH()": "30adf81f",
    "PID()": "5eaec0e4",
    "REINVEST_REWARD_BIPS()": "8aff733d",
    "VERSION_HASH()": "9e4e7318",
    "allowDepositor(address)": "4bebd1e7",
    "allowance(address,address)": "dd62ed3e",
    "allowedDepositors(address)": "483c2ef0",
    "approve(address,uint256)": "095ea7b3",
    "axialChef()": "a573c856",
    "balanceOf(address)": "70a08231",
    "checkReward()": "c4b24a46",
    "decimals()": "313ce567",
    "deposit(uint256)": "b6b55f25",
    "depositFor(address,uint256)": "2f4f21e2",
    "depositToken()": "c89039c5",
    "depositWithPermit(uint256,uint256,uint8,bytes32,bytes32)": "4a970be7",
    "devAddr()": "da09c72c",
    "estimateDeployedBalance()": "0f23475d",
    "estimateReinvestReward()": "b9e57b80",
    "extraToken()": "a1a4ddeb",
    "getDepositTokensForShares(uint256)": "eab89a5a",
    "getDomainSeparator()": "ed24911d",
    "getSharesForDepositTokens(uint256)": "dd8ce4d6",
    "name()": "06fdde03",
    "nonces(address)": "7ecebe00",
    "numberOfAllowedDepositors()": "3bdc6e72",
    "owner()": "8da5cb5b",
    "permit(address,address,uint256,uint256,uint8,bytes32,bytes32)": "d505accf",
    "recoverAVAX(uint256)": "4ebb7916",
    "recoverERC20(address,uint256)": "8980f11f",
    "reinvest()": "fdb5a03e",
    "removeDepositor(address)": "8b73e606",
    "renounceOwnership()": "715018a6",
    "rescueDeployedFunds(uint256,bool)": "ac0d31ff",
    "revokeAllowance(address,address)": "7ae26773",
    "rewardToken()": "f7c618c1",
    "setExtraRewardSwapPair(address)": "8432e894",
    "swapPairExtraReward()": "909ac8f4",
    "symbol()": "95d89b41",
    "totalDeposits()": "7d882097",
    "totalSupply()": "18160ddd",
    "transfer(address,uint256)": "a9059cbb",
    "transferFrom(address,address,uint256)": "23b872dd",
    "transferOwnership(address)": "f2fde38b",
    "updateAdminFee(uint256)": "cff1b6ef",
    "updateDepositsEnabled(bool)": "4e77ace5",
    "updateDevAddr(address)": "9291d563",
    "updateDevFee(uint256)": "99729ec1",
    "updateMaxSwapSlippage(uint256)": "abff1963",
    "updateMaxTokensToDepositWithoutReinvest(uint256)": "e21ac825",
    "updateMinTokensToReinvest(uint256)": "81837230",
    "updateReinvestReward(uint256)": "a8ae2b7c",
    "withdraw(uint256)": "2e1a7d4d"
  },
  "id": 48
}