{
  "abi": [
    {
      "inputs": [
        {
          "internalType": "string",
          "name": "_name",
          "type": "string"
        },
        {
          "internalType": "address",
          "name": "_rewardController",
          "type": "address"
        },
        {
          "internalType": "address",
          "name": "_tokenDelegator",
          "type": "address"
        },
        {
          "components": [
            {
              "internalType": "address",
              "name": "reward",
              "type": "address"
            },
            {
              "internalType": "address",
              "name": "swapPair",
              "type": "address"
            }
          ],
          "internalType": "struct AaveV3StrategyAvaxV1.RewardSwapPairs[]",
          "name": "_rewardSwapPairs",
          "type": "tuple[]"
        },
        {
          "internalType": "address",
          "name": "_avToken",
          "type": "address"
        },
        {
          "internalType": "address",
          "name": "_avDebtToken",
          "type": "address"
        },
        {
          "internalType": "address",
          "name": "_timelock",
          "type": "address"
        },
        {
          "components": [
            {
              "internalType": "uint256",
              "name": "leverageLevel",
              "type": "uint256"
            },
            {
              "internalType": "uint256",
              "name": "safetyFactor",
              "type": "uint256"
            },
            {
              "internalType": "uint256",
              "name": "leverageBips",
              "type": "uint256"
            },
            {
              "internalType": "uint256",
              "name": "minMinting",
              "type": "uint256"
            }
          ],
          "internalType": "struct AaveV3StrategyAvaxV1.LeverageSettings",
          "name": "_leverageSettings",
          "type": "tuple"
        },
        {
          "components": [
            {
              "internalType": "uint256",
              "name": "minTokensToReinvest",
              "type": "uint256"
            },
            {
              "internalType": "uint256",
              "name": "devFeeBips",
              "type": "uint256"
            },
            {
              "internalType": "uint256",
              "name": "reinvestRewardBips",
              "type": "uint256"
            }
          ],
          "internalType": "struct YakStrategyV2.StrategySettings",
          "name": "_strategySettings",
          "type": "tuple"
        }
      ],
      "stateMutability": "nonpayable",
      "type": "constructor"
    },
    {
      "anonymous": false,
      "inputs": [
        {
          "indexed": false,
          "internalType": "address",
          "name": "rewardToken",
          "type": "address"
        },
        {
          "indexed": false,
          "internalType": "address",
          "name": "swapPair",
          "type": "address"
        }
      ],
      "name": "AddReward",
      "type": "event"
    },
    {
      "anonymous": false,
      "inputs": [
        {
          "indexed": true,
          "internalType": "address",
          "name": "account",
          "type": "address"
        }
      ],
      "name": "AllowDepositor",
      "type": "event"
    },
    {
      "anonymous": false,
      "inputs": [
        {
          "indexed": true,
          "internalType": "address",
          "name": "owner",
          "type": "address"
        },
        {
          "indexed": true,
          "internalType": "address",
          "name": "spender",
          "type": "address"
        },
        {
          "indexed": false,
          "internalType": "uint256",
          "name": "value",
          "type": "uint256"
        }
      ],
      "name": "Approval",
      "type": "event"
    },
    {
      "anonymous": false,
      "inputs": [
        {
          "indexed": true,
          "internalType": "address",
          "name": "account",
          "type": "address"
        },
        {
          "indexed": false,
          "internalType": "uint256",
          "name": "amount",
          "type": "uint256"
        }
      ],
      "name": "Deposit",
      "type": "event"
    },
    {
      "anonymous": false,
      "inputs": [
        {
          "indexed": false,
          "internalType": "bool",
          "name": "newValue",
          "type": "bool"
        }
      ],
      "name": "DepositsEnabled",
      "type": "event"
    },
    {
      "anonymous": false,
      "inputs": [
        {
          "indexed": true,
          "internalType": "address",
          "name": "previousOwner",
          "type": "address"
        },
        {
          "indexed": true,
          "internalType": "address",
          "name": "newOwner",
          "type": "address"
        }
      ],
      "name": "OwnershipTransferred",
      "type": "event"
    },
    {
      "anonymous": false,
      "inputs": [
        {
          "indexed": false,
          "internalType": "address",
          "name": "token",
          "type": "address"
        },
        {
          "indexed": false,
          "internalType": "uint256",
          "name": "amount",
          "type": "uint256"
        }
      ],
      "name": "Recovered",
      "type": "event"
    },
    {
      "anonymous": false,
      "inputs": [
        {
          "indexed": false,
          "internalType": "uint256",
          "name": "newTotalDeposits",
          "type": "uint256"
        },
        {
          "indexed": false,
          "internalType": "uint256",
          "name": "newTotalSupply",
          "type": "uint256"
        }
      ],
      "name": "Reinvest",
      "type": "event"
    },
    {
      "anonymous": false,
      "inputs": [
        {
          "indexed": true,
          "internalType": "address",
          "name": "account",
          "type": "address"
        }
      ],
      "name": "RemoveDepositor",
      "type": "event"
    },
    {
      "anonymous": false,
      "inputs": [
        {
          "indexed": false,
          "internalType": "address",
          "name": "rewardToken",
          "type": "address"
        }
      ],
      "name": "RemoveReward",
      "type": "event"
    },
    {
      "anonymous": false,
      "inputs": [
        {
          "indexed": true,
          "internalType": "address",
          "name": "from",
          "type": "address"
        },
        {
          "indexed": true,
          "internalType": "address",
          "name": "to",
          "type": "address"
        },
        {
          "indexed": false,
          "internalType": "uint256",
          "name": "value",
          "type": "uint256"
        }
      ],
      "name": "Transfer",
      "type": "event"
    },
    {
      "anonymous": false,
      "inputs": [
        {
          "indexed": false,
          "internalType": "uint256",
          "name": "oldValue",
          "type": "uint256"
        },
        {
          "indexed": false,
          "internalType": "uint256",
          "name": "newValue",
          "type": "uint256"
        }
      ],
      "name": "UpdateAdminFee",
      "type": "event"
    },
    {
      "anonymous": false,
      "inputs": [
        {
          "indexed": false,
          "internalType": "address",
          "name": "oldValue",
          "type": "address"
        },
        {
          "indexed": false,
          "internalType": "address",
          "name": "newValue",
          "type": "address"
        }
      ],
      "name": "UpdateDevAddr",
      "type": "event"
    },
    {
      "anonymous": false,
      "inputs": [
        {
          "indexed": false,
          "internalType": "uint256",
          "name": "oldValue",
          "type": "uint256"
        },
        {
          "indexed": false,
          "internalType": "uint256",
          "name": "newValue",
          "type": "uint256"
        }
      ],
      "name": "UpdateDevFee",
      "type": "event"
    },
    {
      "anonymous": false,
      "inputs": [
        {
          "indexed": false,
          "internalType": "uint256",
          "name": "oldValue",
          "type": "uint256"
        },
        {
          "indexed": false,
          "internalType": "uint256",
          "name": "newValue",
          "type": "uint256"
        }
      ],
      "name": "UpdateMaxTokensToDepositWithoutReinvest",
      "type": "event"
    },
    {
      "anonymous": false,
      "inputs": [
        {
          "indexed": false,
          "internalType": "uint256",
          "name": "oldValue",
          "type": "uint256"
        },
        {
          "indexed": false,
          "internalType": "uint256",
          "name": "newValue",
          "type": "uint256"
        }
      ],
      "name": "UpdateMinTokensToReinvest",
      "type": "event"
    },
    {
      "anonymous": false,
      "inputs": [
        {
          "indexed": false,
          "internalType": "uint256",
          "name": "oldValue",
          "type": "uint256"
        },
        {
          "indexed": false,
          "internalType": "uint256",
          "name": "newValue",
          "type": "uint256"
        }
      ],
      "name": "UpdateReinvestReward",
      "type": "event"
    },
    {
      "anonymous": false,
      "inputs": [
        {
          "indexed": true,
          "internalType": "address",
          "name": "account",
          "type": "address"
        },
        {
          "indexed": false,
          "internalType": "uint256",
          "name": "amount",
          "type": "uint256"
        }
      ],
      "name": "Withdraw",
      "type": "event"
    },
    {
      "inputs": [],
      "name": "ADMIN_FEE_BIPS",
      "outputs": [
        {
          "internalType": "uint256",
          "name": "",
          "type": "uint256"
        }
      ],
      "stateMutability": "view",
      "type": "function"
    },
    {
      "inputs": [],
      "name": "DEPOSITS_ENABLED",
      "outputs": [
        {
          "internalType": "bool",
          "name": "",
          "type": "bool"
        }
      ],
      "stateMutability": "view",
      "type": "function"
    },
    {
      "inputs": [],
      "name": "DEV_FEE_BIPS",
      "outputs": [
        {
          "internalType": "uint256",
          "name": "",
          "type": "uint256"
        }
      ],
      "stateMutability": "view",
      "type": "function"
    },
    {
      "inputs": [],
      "name": "DOMAIN_TYPEHASH",
      "outputs": [
        {
          "internalType": "bytes32",
          "name": "",
          "type": "bytes32"
        }
      ],
      "stateMutability": "view",
      "type": "function"
    },
    {
      "inputs": [],
      "name": "MAX_TOKENS_TO_DEPOSIT_WITHOUT_REINVEST",
      "outputs": [
        {
          "internalType": "uint256",
          "name": "",
          "type": "uint256"
        }
      ],
      "stateMutability": "view",
      "type": "function"
    },
    {
      "inputs": [],
      "name": "MIN_TOKENS_TO_REINVEST",
      "outputs": [
        {
          "internalType": "uint256",
          "name": "",
          "type": "uint256"
        }
      ],
      "stateMutability": "view",
      "type": "function"
    },
    {
      "inputs": [],
      "name": "PERMIT_TYPEHASH",
      "outputs": [
        {
          "internalType": "bytes32",
          "name": "",
          "type": "bytes32"
        }
      ],
      "stateMutability": "view",
      "type": "function"
    },
    {
      "inputs": [],
      "name": "REINVEST_REWARD_BIPS",
      "outputs": [
        {
          "internalType": "uint256",
          "name": "",
          "type": "uint256"
        }
      ],
      "stateMutability": "view",
      "type": "function"
    },
    {
      "inputs": [],
      "name": "VERSION_HASH",
      "outputs": [
        {
          "internalType": "bytes32",
          "name": "",
          "type": "bytes32"
        }
      ],
      "stateMutability": "view",
      "type": "function"
    },
    {
      "inputs": [
        {
          "internalType": "address",
          "name": "_rewardToken",
          "type": "address"
        },
        {
          "internalType": "address",
          "name": "_swapPair",
          "type": "address"
        }
      ],
      "name": "addReward",
      "outputs": [],
      "stateMutability": "nonpayable",
      "type": "function"
    },
    {
      "inputs": [
        {
          "internalType": "address",
          "name": "depositor",
          "type": "address"
        }
      ],
      "name": "allowDepositor",
      "outputs": [],
      "stateMutability": "nonpayable",
      "type": "function"
    },
    {
      "inputs": [
        {
          "internalType": "address",
          "name": "account",
          "type": "address"
        },
        {
          "internalType": "address",
          "name": "spender",
          "type": "address"
        }
      ],
      "name": "allowance",
      "outputs": [
        {
          "internalType": "uint256",
          "name": "",
          "type": "uint256"
        }
      ],
      "stateMutability": "view",
      "type": "function"
    },
    {
      "inputs": [
        {
          "internalType": "address",
          "name": "",
          "type": "address"
        }
      ],
      "name": "allowedDepositors",
      "outputs": [
        {
          "internalType": "bool",
          "name": "",
          "type": "bool"
        }
      ],
      "stateMutability": "view",
      "type": "function"
    },
    {
      "inputs": [
        {
          "internalType": "address",
          "name": "spender",
          "type": "address"
        },
        {
          "internalType": "uint256",
          "name": "amount",
          "type": "uint256"
        }
      ],
      "name": "approve",
      "outputs": [
        {
          "internalType": "bool",
          "name": "",
          "type": "bool"
        }
      ],
      "stateMutability": "nonpayable",
      "type": "function"
    },
    {
      "inputs": [
        {
          "internalType": "address",
          "name": "account",
          "type": "address"
        }
      ],
      "name": "balanceOf",
      "outputs": [
        {
          "internalType": "uint256",
          "name": "",
          "type": "uint256"
        }
      ],
      "stateMutability": "view",
      "type": "function"
    },
    {
      "inputs": [],
      "name": "checkReward",
      "outputs": [
        {
          "internalType": "uint256",
          "name": "",
          "type": "uint256"
        }
      ],
      "stateMutability": "view",
      "type": "function"
    },
    {
      "inputs": [],
      "name": "decimals",
      "outputs": [
        {
          "internalType": "uint8",
          "name": "",
          "type": "uint8"
        }
      ],
      "stateMutability": "view",
      "type": "function"
    },
    {
      "inputs": [
        {
          "internalType": "uint256",
          "name": "",
          "type": "uint256"
        }
      ],
      "name": "deposit",
      "outputs": [],
      "stateMutability": "pure",
      "type": "function"
    },
    {
      "inputs": [],
      "name": "deposit",
      "outputs": [],
      "stateMutability": "payable",
      "type": "function"
    },
    {
      "inputs": [
        {
          "internalType": "address",
          "name": "",
          "type": "address"
        },
        {
          "internalType": "uint256",
          "name": "",
          "type": "uint256"
        }
      ],
      "name": "depositFor",
      "outputs": [],
      "stateMutability": "pure",
      "type": "function"
    },
    {
      "inputs": [
        {
          "internalType": "address",
          "name": "account",
          "type": "address"
        }
      ],
      "name": "depositFor",
      "outputs": [],
      "stateMutability": "payable",
      "type": "function"
    },
    {
      "inputs": [],
      "name": "depositToken",
      "outputs": [
        {
          "internalType": "contract IERC20",
          "name": "",
          "type": "address"
        }
      ],
      "stateMutability": "view",
      "type": "function"
    },
    {
      "inputs": [
        {
          "internalType": "uint256",
          "name": "",
          "type": "uint256"
        },
        {
          "internalType": "uint256",
          "name": "",
          "type": "uint256"
        },
        {
          "internalType": "uint8",
          "name": "",
          "type": "uint8"
        },
        {
          "internalType": "bytes32",
          "name": "",
          "type": "bytes32"
        },
        {
          "internalType": "bytes32",
          "name": "",
          "type": "bytes32"
        }
      ],
      "name": "depositWithPermit",
      "outputs": [],
      "stateMutability": "pure",
      "type": "function"
    },
    {
      "inputs": [],
      "name": "devAddr",
      "outputs": [
        {
          "internalType": "address",
          "name": "",
          "type": "address"
        }
      ],
      "stateMutability": "view",
      "type": "function"
    },
    {
      "inputs": [],
      "name": "estimateDeployedBalance",
      "outputs": [
        {
          "internalType": "uint256",
          "name": "",
          "type": "uint256"
        }
      ],
      "stateMutability": "view",
      "type": "function"
    },
    {
      "inputs": [],
      "name": "estimateReinvestReward",
      "outputs": [
        {
          "internalType": "uint256",
          "name": "",
          "type": "uint256"
        }
      ],
      "stateMutability": "view",
      "type": "function"
    },
    {
      "inputs": [],
      "name": "getActualLeverage",
      "outputs": [
        {
          "internalType": "uint256",
          "name": "",
          "type": "uint256"
        }
      ],
      "stateMutability": "view",
      "type": "function"
    },
    {
      "inputs": [
        {
          "internalType": "uint256",
          "name": "amount",
          "type": "uint256"
        }
      ],
      "name": "getDepositTokensForShares",
      "outputs": [
        {
          "internalType": "uint256",
          "name": "",
          "type": "uint256"
        }
      ],
      "stateMutability": "view",
      "type": "function"
    },
    {
      "inputs": [],
      "name": "getDomainSeparator",
      "outputs": [
        {
          "internalType": "bytes32",
          "name": "",
          "type": "bytes32"
        }
      ],
      "stateMutability": "view",
      "type": "function"
    },
    {
      "inputs": [
        {
          "internalType": "uint256",
          "name": "amount",
          "type": "uint256"
        }
      ],
      "name": "getSharesForDepositTokens",
      "outputs": [
        {
          "internalType": "uint256",
          "name": "",
          "type": "uint256"
        }
      ],
      "stateMutability": "view",
      "type": "function"
    },
    {
      "inputs": [],
      "name": "leverageBips",
      "outputs": [
        {
          "internalType": "uint256",
          "name": "",
          "type": "uint256"
        }
      ],
      "stateMutability": "view",
      "type": "function"
    },
    {
      "inputs": [],
      "name": "leverageLevel",
      "outputs": [
        {
          "internalType": "uint256",
          "name": "",
          "type": "uint256"
        }
      ],
      "stateMutability": "view",
      "type": "function"
    },
    {
      "inputs": [],
      "name": "minMinting",
      "outputs": [
        {
          "internalType": "uint256",
          "name": "",
          "type": "uint256"
        }
      ],
      "stateMutability": "view",
      "type": "function"
    },
    {
      "inputs": [],
      "name": "name",
      "outputs": [
        {
          "internalType": "string",
          "name": "",
          "type": "string"
        }
      ],
      "stateMutability": "view",
      "type": "function"
    },
    {
      "inputs": [
        {
          "internalType": "address",
          "name": "",
          "type": "address"
        }
      ],
      "name": "nonces",
      "outputs": [
        {
          "internalType": "uint256",
          "name": "",
          "type": "uint256"
        }
      ],
      "stateMutability": "view",
      "type": "function"
    },
    {
      "inputs": [],
      "name": "numberOfAllowedDepositors",
      "outputs": [
        {
          "internalType": "uint256",
          "name": "",
          "type": "uint256"
        }
      ],
      "stateMutability": "view",
      "type": "function"
    },
    {
      "inputs": [],
      "name": "owner",
      "outputs": [
        {
          "internalType": "address",
          "name": "",
          "type": "address"
        }
      ],
      "stateMutability": "view",
      "type": "function"
    },
    {
      "inputs": [
        {
          "internalType": "address",
          "name": "owner",
          "type": "address"
        },
        {
          "internalType": "address",
          "name": "spender",
          "type": "address"
        },
        {
          "internalType": "uint256",
          "name": "value",
          "type": "uint256"
        },
        {
          "internalType": "uint256",
          "name": "deadline",
          "type": "uint256"
        },
        {
          "internalType": "uint8",
          "name": "v",
          "type": "uint8"
        },
        {
          "internalType": "bytes32",
          "name": "r",
          "type": "bytes32"
        },
        {
          "internalType": "bytes32",
          "name": "s",
          "type": "bytes32"
        }
      ],
      "name": "permit",
      "outputs": [],
      "stateMutability": "nonpayable",
      "type": "function"
    },
    {
      "inputs": [
        {
          "internalType": "uint256",
          "name": "amount",
          "type": "uint256"
        }
      ],
      "name": "recoverAVAX",
      "outputs": [],
      "stateMutability": "nonpayable",
      "type": "function"
    },
    {
      "inputs": [
        {
          "internalType": "address",
          "name": "tokenAddress",
          "type": "address"
        },
        {
          "internalType": "uint256",
          "name": "tokenAmount",
          "type": "uint256"
        }
      ],
      "name": "recoverERC20",
      "outputs": [],
      "stateMutability": "nonpayable",
      "type": "function"
    },
    {
      "inputs": [],
      "name": "reinvest",
      "outputs": [],
      "stateMutability": "nonpayable",
      "type": "function"
    },
    {
      "inputs": [
        {
          "internalType": "address",
          "name": "depositor",
          "type": "address"
        }
      ],
      "name": "removeDepositor",
      "outputs": [],
      "stateMutability": "nonpayable",
      "type": "function"
    },
    {
      "inputs": [
        {
          "internalType": "address",
          "name": "_rewardToken",
          "type": "address"
        }
      ],
      "name": "removeReward",
      "outputs": [],
      "stateMutability": "nonpayable",
      "type": "function"
    },
    {
      "inputs": [],
      "name": "renounceOwnership",
      "outputs": [],
      "stateMutability": "nonpayable",
      "type": "function"
    },
    {
      "inputs": [
        {
          "internalType": "uint256",
          "name": "minReturnAmountAccepted",
          "type": "uint256"
        },
        {
          "internalType": "bool",
          "name": "",
          "type": "bool"
        }
      ],
      "name": "rescueDeployedFunds",
      "outputs": [],
      "stateMutability": "nonpayable",
      "type": "function"
    },
    {
      "inputs": [
        {
          "internalType": "address",
          "name": "token",
          "type": "address"
        },
        {
          "internalType": "address",
          "name": "spender",
          "type": "address"
        }
      ],
      "name": "revokeAllowance",
      "outputs": [],
      "stateMutability": "nonpayable",
      "type": "function"
    },
    {
      "inputs": [],
      "name": "rewardCount",
      "outputs": [
        {
          "internalType": "uint256",
          "name": "",
          "type": "uint256"
        }
      ],
      "stateMutability": "view",
      "type": "function"
    },
    {
      "inputs": [
        {
          "internalType": "address",
          "name": "",
          "type": "address"
        }
      ],
      "name": "rewardSwapPairs",
      "outputs": [
        {
          "internalType": "address",
          "name": "",
          "type": "address"
        }
      ],
      "stateMutability": "view",
      "type": "function"
    },
    {
      "inputs": [],
      "name": "rewardToken",
      "outputs": [
        {
          "internalType": "contract IERC20",
          "name": "",
          "type": "address"
        }
      ],
      "stateMutability": "view",
      "type": "function"
    },
    {
      "inputs": [],
      "name": "safetyFactor",
      "outputs": [
        {
          "internalType": "uint256",
          "name": "",
          "type": "uint256"
        }
      ],
      "stateMutability": "view",
      "type": "function"
    },
    {
      "inputs": [
        {
          "internalType": "uint256",
          "name": "",
          "type": "uint256"
        }
      ],
      "name": "supportedRewards",
      "outputs": [
        {
          "internalType": "address",
          "name": "",
          "type": "address"
        }
      ],
      "stateMutability": "view",
      "type": "function"
    },
    {
      "inputs": [],
      "name": "symbol",
      "outputs": [
        {
          "internalType": "string",
          "name": "",
          "type": "string"
        }
      ],
      "stateMutability": "view",
      "type": "function"
    },
    {
      "inputs": [],
      "name": "totalDeposits",
      "outputs": [
        {
          "internalType": "uint256",
          "name": "",
          "type": "uint256"
        }
      ],
      "stateMutability": "view",
      "type": "function"
    },
    {
      "inputs": [],
      "name": "totalSupply",
      "outputs": [
        {
          "internalType": "uint256",
          "name": "",
          "type": "uint256"
        }
      ],
      "stateMutability": "view",
      "type": "function"
    },
    {
      "inputs": [
        {
          "internalType": "address",
          "name": "dst",
          "type": "address"
        },
        {
          "internalType": "uint256",
          "name": "amount",
          "type": "uint256"
        }
      ],
      "name": "transfer",
      "outputs": [
        {
          "internalType": "bool",
          "name": "",
          "type": "bool"
        }
      ],
      "stateMutability": "nonpayable",
      "type": "function"
    },
    {
      "inputs": [
        {
          "internalType": "address",
          "name": "src",
          "type": "address"
        },
        {
          "internalType": "address",
          "name": "dst",
          "type": "address"
        },
        {
          "internalType": "uint256",
          "name": "amount",
          "type": "uint256"
        }
      ],
      "name": "transferFrom",
      "outputs": [
        {
          "internalType": "bool",
          "name": "",
          "type": "bool"
        }
      ],
      "stateMutability": "nonpayable",
      "type": "function"
    },
    {
      "inputs": [
        {
          "internalType": "address",
          "name": "newOwner",
          "type": "address"
        }
      ],
      "name": "transferOwnership",
      "outputs": [],
      "stateMutability": "nonpayable",
      "type": "function"
    },
    {
      "inputs": [
        {
          "internalType": "uint256",
          "name": "newValue",
          "type": "uint256"
        }
      ],
      "name": "updateAdminFee",
      "outputs": [],
      "stateMutability": "nonpayable",
      "type": "function"
    },
    {
      "inputs": [
        {
          "internalType": "bool",
          "name": "newValue",
          "type": "bool"
        }
      ],
      "name": "updateDepositsEnabled",
      "outputs": [],
      "stateMutability": "nonpayable",
      "type": "function"
    },
    {
      "inputs": [
        {
          "internalType": "address",
          "name": "newValue",
          "type": "address"
        }
      ],
      "name": "updateDevAddr",
      "outputs": [],
      "stateMutability": "nonpayable",
      "type": "function"
    },
    {
      "inputs": [
        {
          "internalType": "uint256",
          "name": "newValue",
          "type": "uint256"
        }
      ],
      "name": "updateDevFee",
      "outputs": [],
      "stateMutability": "nonpayable",
      "type": "function"
    },
    {
      "inputs": [
        {
          "internalType": "uint256",
          "name": "_leverageLevel",
          "type": "uint256"
        },
        {
          "internalType": "uint256",
          "name": "_safetyFactor",
          "type": "uint256"
        },
        {
          "internalType": "uint256",
          "name": "_minMinting",
          "type": "uint256"
        },
        {
          "internalType": "uint256",
          "name": "_leverageBips",
          "type": "uint256"
        }
      ],
      "name": "updateLeverage",
      "outputs": [],
      "stateMutability": "nonpayable",
      "type": "function"
    },
    {
      "inputs": [
        {
          "internalType": "uint256",
          "name": "newValue",
          "type": "uint256"
        }
      ],
      "name": "updateMaxTokensToDepositWithoutReinvest",
      "outputs": [],
      "stateMutability": "nonpayable",
      "type": "function"
    },
    {
      "inputs": [
        {
          "internalType": "uint256",
          "name": "newValue",
          "type": "uint256"
        }
      ],
      "name": "updateMinTokensToReinvest",
      "outputs": [],
      "stateMutability": "nonpayable",
      "type": "function"
    },
    {
      "inputs": [
        {
          "internalType": "uint256",
          "name": "newValue",
          "type": "uint256"
        }
      ],
      "name": "updateReinvestReward",
      "outputs": [],
      "stateMutability": "nonpayable",
      "type": "function"
    },
    {
      "inputs": [
        {
          "internalType": "uint256",
          "name": "amount",
          "type": "uint256"
        }
      ],
      "name": "withdraw",
      "outputs": [],
      "stateMutability": "nonpayable",
      "type": "function"
    },
    {
      "stateMutability": "payable",
      "type": "receive"
    }
  ],
  "bytecode": {
    "object": "0x60c060405260096080819052685969656c642059616b60b81b60a09081526200002c9160009190620009fa565b506040805180820190915260038082526216549560ea1b60209092019182526200005991600191620009fa565b503480156200006757600080fd5b50604051620059be380380620059be8339810160408190526200008a9162000cba565b600680546001600160a01b0319163390811790915560405182919081906000906000805160206200599e833981519152908290a3508051620000cc9062000292565b6020810151620000dc9062000322565b6040810151620000ec90620003d9565b5060016012558851620001079060009060208c0190620009fa565b50601a80546001600160a01b03808b166001600160a01b031992831617909255601b8054928a1692821692909217909155600a805490911673b31f66aa3c1e785363f0875a1b74e27b85fd66c717905581516020830151606084015160408501516200018493929190601693909355601892909255601755601955565b600b8054336001600160a01b031991821617909155601c805482166001600160a01b0388811691909117909155601d805490921690861617905560005b865181101562000232576200021d878281518110620001e457620001e462000e24565b60200260200101516000015188838151811062000205576200020562000e24565b6020026020010151602001516200049060201b60201c565b80620002298162000e50565b915050620001c1565b506200023f600162000619565b6200024a83620006c3565b60408051600080825260208201527fc7606d21ac05cd309191543e409f0845c016120563783d70e4f41419dc0ef234910160405180910390a150505050505050505062000ee1565b6006546001600160a01b03163314620002e15760405162461bcd60e51b815260206004820181905260248201526000805160206200597e83398151915260448201526064015b60405180910390fd5b600c5460408051918252602082018390527f481f79ac3a523b6d6db3c5a720e190e986d1cc1b41adcdf50f9caef849901100910160405180910390a1600c55565b6006546001600160a01b031633146200036d5760405162461bcd60e51b815260206004820181905260248201526000805160206200597e8339815191526044820152606401620002d8565b6127106200038c60105483620007c060201b620026281790919060201c565b11156200039857600080fd5b60115460408051918252602082018390527f2a42303d002f0ba6cfe8259c91d4684443fb0b3de286ba74991175d651726131910160405180910390a1601155565b6006546001600160a01b03163314620004245760405162461bcd60e51b815260206004820181905260248201526000805160206200597e8339815191526044820152606401620002d8565b6127106200044360115483620007c060201b620026281790919060201c565b11156200044f57600080fd5b60105460408051918252602082018390527fe7f97d51d307dc44045597c9978bec0f842e6bb40d19b9444084cfa30d9ed4f2910160405180910390a1601055565b600a546001600160a01b038381169116146200054957620004d38183600a60009054906101000a90046001600160a01b0316620007d560201b620026341760201c565b62000549576040805162461bcd60e51b81526020600482015260248101919091527f5661726961626c655265776172647353747261746567793a3a5377617020706160448201527f697220646f6573206e6f7420636f6e7461696e2072657761726420746f6b656e6064820152608401620002d8565b6001600160a01b038083166000818152601360209081526040822080549486166001600160a01b03199586161790556014805460018181018355919093527fce6d7b5282bd9a3661ae061feed1dbda4e52ab073b1f9285be6e155d9c38d4ec9092018054909416909217909255601554620005cf92909162002628620007c0821b17901c565b601555604080516001600160a01b038085168252831660208201527f916e172c080569186aa7ea048268267257cf7cc49505908863f747bca8620f80910160405180910390a15050565b6006546001600160a01b03163314620006645760405162461bcd60e51b815260206004820181905260248201526000805160206200597e8339815191526044820152606401620002d8565b600e5481151560ff9091161515036200067c57600080fd5b600e805460ff19168215159081179091556040519081527f7b014ed3854e7f5cb0218d58b3c6ae7d53a68bb0af2f67bfb029ea42c38a7e859060200160405180910390a150565b6006546001600160a01b031633146200070e5760405162461bcd60e51b815260206004820181905260248201526000805160206200597e8339815191526044820152606401620002d8565b6001600160a01b038116620007755760405162461bcd60e51b815260206004820152602660248201527f4f776e61626c653a206e6577206f776e657220697320746865207a65726f206160448201526564647265737360d01b6064820152608401620002d8565b6006546040516001600160a01b038084169216906000805160206200599e83398151915290600090a3600680546001600160a01b0319166001600160a01b0392909216919091179055565b6000620007ce828462000e6c565b9392505050565b6000836001600160a01b0316630dfe16816040518163ffffffff1660e01b8152600401602060405180830381865afa15801562000816573d6000803e3d6000fd5b505050506040513d601f19601f820116820180604052508101906200083c919062000e87565b6001600160a01b0316836001600160a01b03161480620008d15750836001600160a01b031663d21220a76040518163ffffffff1660e01b8152600401602060405180830381865afa15801562000896573d6000803e3d6000fd5b505050506040513d601f19601f82011682018060405250810190620008bc919062000e87565b6001600160a01b0316836001600160a01b0316145b8015620009d35750836001600160a01b0316630dfe16816040518163ffffffff1660e01b8152600401602060405180830381865afa15801562000918573d6000803e3d6000fd5b505050506040513d601f19601f820116820180604052508101906200093e919062000e87565b6001600160a01b0316826001600160a01b03161480620009d35750836001600160a01b031663d21220a76040518163ffffffff1660e01b8152600401602060405180830381865afa15801562000998573d6000803e3d6000fd5b505050506040513d601f19601f82011682018060405250810190620009be919062000e87565b6001600160a01b0316826001600160a01b0316145b8015620009f25750816001600160a01b0316836001600160a01b031614155b949350505050565b82805462000a089062000ea5565b90600052602060002090601f01602090048101928262000a2c576000855562000a77565b82601f1062000a4757805160ff191683800117855562000a77565b8280016001018555821562000a77579182015b8281111562000a7757825182559160200191906001019062000a5a565b5062000a8592915062000a89565b5090565b5b8082111562000a85576000815560010162000a8a565b634e487b7160e01b600052604160045260246000fd5b604080519081016001600160401b038111828210171562000adb5762000adb62000aa0565b60405290565b604051601f8201601f191681016001600160401b038111828210171562000b0c5762000b0c62000aa0565b604052919050565b80516001600160a01b038116811462000b2c57600080fd5b919050565b600082601f83011262000b4357600080fd5b815160206001600160401b0382111562000b615762000b6162000aa0565b62000b71818360051b0162000ae1565b82815260069290921b8401810191818101908684111562000b9157600080fd5b8286015b8481101562000be7576040818903121562000bb05760008081fd5b62000bba62000ab6565b62000bc58262000b14565b815262000bd485830162000b14565b8186015283529183019160400162000b95565b509695505050505050565b60006080828403121562000c0557600080fd5b604051608081016001600160401b038111828210171562000c2a5762000c2a62000aa0565b8060405250809150825181526020830151602082015260408301516040820152606083015160608201525092915050565b60006060828403121562000c6e57600080fd5b604051606081016001600160401b038111828210171562000c935762000c9362000aa0565b80604052508091508251815260208301516020820152604083015160408201525092915050565b60008060008060008060008060006101c08a8c03121562000cda57600080fd5b89516001600160401b038082111562000cf257600080fd5b818c0191508c601f83011262000d0757600080fd5b81518181111562000d1c5762000d1c62000aa0565b602062000d32601f8301601f1916820162000ae1565b8281528f8284870101111562000d4757600080fd5b60005b8381101562000d6757858101830151828201840152820162000d4a565b8381111562000d795760008385840101525b509c5062000d898e820162000b14565b9b50505062000d9b60408d0162000b14565b985060608c015191508082111562000db257600080fd5b5062000dc18c828d0162000b31565b96505062000dd260808b0162000b14565b945062000de260a08b0162000b14565b935062000df260c08b0162000b14565b925062000e038b60e08c0162000bf2565b915062000e158b6101608c0162000c5b565b90509295985092959850929598565b634e487b7160e01b600052603260045260246000fd5b634e487b7160e01b600052601160045260246000fd5b60006001820162000e655762000e6562000e3a565b5060010190565b6000821982111562000e825762000e8262000e3a565b500190565b60006020828403121562000e9a57600080fd5b620007ce8262000b14565b600181811c9082168062000eba57607f821691505b60208210810362000edb57634e487b7160e01b600052602260045260246000fd5b50919050565b614a8d8062000ef16000396000f3fe6080604052600436106103dd5760003560e01c80638da5cb5b116101fd578063c89039c511610118578063e21ac825116100ab578063ed24911d1161007a578063ed24911d14610bd1578063f02ecb7114610be6578063f2fde38b14610bfc578063f7c618c114610c1c578063fdb5a03e14610c3c57600080fd5b8063e21ac82514610b5b578063e592c5fa14610b7b578063e75ab04514610b91578063eab89a5a14610bb157600080fd5b8063da09c72c116100e7578063da09c72c14610ac0578063db8dd95c14610ae0578063dd62ed3e14610af5578063dd8ce4d614610b3b57600080fd5b8063c89039c514610a58578063cff1b6ef14610a78578063d0e30db014610a98578063d505accf14610aa057600080fd5b8063a9059cbb11610190578063b6b55f251161015f578063b6b55f25146109fd578063b9e57b8014610a18578063bd079f5514610a2d578063c4b24a4614610a4357600080fd5b8063a9059cbb14610990578063aa67c919146109b0578063ac0d31ff146109c3578063b52a321f146109e357600080fd5b80639e4e7318116101cc5780639e4e7318146108e6578063a4d5e67c1461091a578063a5534e711461093a578063a8ae2b7c1461097057600080fd5b80638da5cb5b1461085f5780639291d5631461089157806395d89b41146108b157806399729ec1146108c657600080fd5b80634a970be7116102f8578063789139bc1161028b5780637ecebe001161025a5780637ecebe00146107bc57806381837230146107e95780638980f11f146108095780638aff733d146108295780638b73e6061461083f57600080fd5b8063789139bc1461075b57806379085425146107715780637ae26773146107875780637d882097146107a757600080fd5b80635ea682ea116102c75780635ea682ea146106e457806362ac20a5146106fa57806370a0823114610710578063715018a61461074657600080fd5b80634a970be7146106695780634bebd1e7146106845780634e77ace5146106a45780634ebb7916146106c457600080fd5b806323b872dd11610370578063313ce5671161033f578063313ce567146105dc5780633bdc6e721461060357806340b47e1a14610619578063483c2ef01461063957600080fd5b806323b872dd1461054d5780632e1a7d4d1461056d5780632f4f21e21461058d57806330adf81f146105a857600080fd5b806318160ddd116103ac57806318160ddd146104cd5780631f15d71a146104e357806320606b70146104f957806322a051411461052d57600080fd5b806306fdde03146104395780630767711114610464578063095ea7b3146104885780630f23475d146104b857600080fd5b3661043457336000805160206149b4833981519152146104325760405162461bcd60e51b815260206004820152600b60248201526a1b9bdd08185b1b1bddd95960aa1b60448201526064015b60405180910390fd5b005b600080fd5b34801561044557600080fd5b5061044e610c51565b60405161045b91906141fc565b60405180910390f35b34801561047057600080fd5b5061047a600f5481565b60405190815260200161045b565b34801561049457600080fd5b506104a86104a3366004614224565b610cdf565b604051901515815260200161045b565b3480156104c457600080fd5b5061047a610cf5565b3480156104d957600080fd5b5061047a60025481565b3480156104ef57600080fd5b5061047a60185481565b34801561050557600080fd5b5061047a7f8b73c3c69bb8fe3d512ecc4cf759cc79239f7b179b0ffacaa9a75d522b39400f81565b34801561053957600080fd5b50610432610548366004614250565b610d04565b34801561055957600080fd5b506104a8610568366004614282565b610d75565b34801561057957600080fd5b506104326105883660046142c3565b610e59565b34801561059957600080fd5b50610432610434366004614224565b3480156105b457600080fd5b5061047a7f6e71edae12b1b97f4d1f60370fef10105fa2faae0126114a169c64845d6126c981565b3480156105e857600080fd5b506105f1601281565b60405160ff909116815260200161045b565b34801561060f57600080fd5b5061047a60075481565b34801561062557600080fd5b506104326106343660046142dc565b61100c565b34801561064557600080fd5b506104a8610654366004614315565b60086020526000908152604090205460ff1681565b34801561067557600080fd5b50610432610434366004614348565b34801561069057600080fd5b5061043261069f366004614315565b611044565b3480156106b057600080fd5b506104326106bf36600461439d565b611143565b3480156106d057600080fd5b506104326106df3660046142c3565b6111cc565b3480156106f057600080fd5b5061047a60115481565b34801561070657600080fd5b5061047a60195481565b34801561071c57600080fd5b5061047a61072b366004614315565b6001600160a01b031660009081526004602052604090205490565b34801561075257600080fd5b50610432611268565b34801561076757600080fd5b5061047a600d5481565b34801561077d57600080fd5b5061047a60155481565b34801561079357600080fd5b506104326107a23660046142dc565b6112dc565b3480156107b357600080fd5b5061047a611382565b3480156107c857600080fd5b5061047a6107d7366004614315565b60056020526000908152604090205481565b3480156107f557600080fd5b506104326108043660046142c3565b6113a6565b34801561081557600080fd5b50610432610824366004614224565b611411565b34801561083557600080fd5b5061047a60105481565b34801561084b57600080fd5b5061043261085a366004614315565b611509565b34801561086b57600080fd5b506006546001600160a01b03165b6040516001600160a01b03909116815260200161045b565b34801561089d57600080fd5b506104326108ac366004614315565b61168a565b3480156108bd57600080fd5b5061044e61171d565b3480156108d257600080fd5b506104326108e13660046142c3565b61172a565b3480156108f257600080fd5b5061047a7fc89efdaa54c0f20c7adf612882df0950f5a951637e0307cdcb4c672f298b8bc681565b34801561092657600080fd5b50610432610935366004614315565b6117b8565b34801561094657600080fd5b50610879610955366004614315565b6013602052600090815260409020546001600160a01b031681565b34801561097c57600080fd5b5061043261098b3660046142c3565b6119be565b34801561099c57600080fd5b506104a86109ab366004614224565b611a4c565b6104326109be366004614315565b611a59565b3480156109cf57600080fd5b506104326109de3660046143ba565b611af7565b3480156109ef57600080fd5b50600e546104a89060ff1681565b348015610a0957600080fd5b506104326104343660046142c3565b348015610a2457600080fd5b5061047a611d74565b348015610a3957600080fd5b5061047a600c5481565b348015610a4f57600080fd5b5061047a611db3565b348015610a6457600080fd5b50600954610879906001600160a01b031681565b348015610a8457600080fd5b50610432610a933660046142c3565b6120d3565b610432612149565b348015610aac57600080fd5b50610432610abb3660046143df565b6121e6565b348015610acc57600080fd5b50600b54610879906001600160a01b031681565b348015610aec57600080fd5b5061047a6122eb565b348015610b0157600080fd5b5061047a610b103660046142dc565b6001600160a01b03918216600090815260036020908152604080832093909416825291909152205490565b348015610b4757600080fd5b5061047a610b563660046142c3565b61231d565b348015610b6757600080fd5b50610432610b763660046142c3565b61235d565b348015610b8757600080fd5b5061047a60165481565b348015610b9d57600080fd5b50610879610bac3660046142c3565b6123c8565b348015610bbd57600080fd5b5061047a610bcc3660046142c3565b6123f2565b348015610bdd57600080fd5b5061047a612426565b348015610bf257600080fd5b5061047a60175481565b348015610c0857600080fd5b50610432610c17366004614315565b6124c6565b348015610c2857600080fd5b50600a54610879906001600160a01b031681565b348015610c4857600080fd5b506104326125b1565b60008054610c5e9061444d565b80601f0160208091040260200160405190810160405280929190818152602001828054610c8a9061444d565b8015610cd75780601f10610cac57610100808354040283529160200191610cd7565b820191906000526020600020905b815481529060010190602001808311610cba57829003601f168201915b505050505081565b6000610cec338484612849565b50600192915050565b6000610cff611382565b905090565b600b546001600160a01b03163314610d2e5760405162461bcd60e51b815260040161042990614487565b6016849055601881905560178390556019829055600080610d4d612957565b509092509050610d65610d608383612aa2565b612aae565b610d6d612ba7565b505050505050565b6001600160a01b038316600081815260036020908152604080832033808552925282205491929091908214801590610daf57506000198114155b15610e40576000610ddb856040518060600160405280602f81526020016149d4602f9139849190612e39565b6001600160a01b038881166000818152600360209081526040808320948916808452948252918290208590559051848152939450919290917f8c5be1e5ebec7d5bd14f71427d1e84f3dd0314c0f7b2291e5b200ac8c7c3b925910160405180910390a3505b610e4b868686612e65565b6001925050505b9392505050565b600260125403610e7b5760405162461bcd60e51b8152600401610429906144b5565b60026012819055506000610ea3600254610e9d84610e97611382565b90612f98565b90612fa4565b90506019548111610f095760405162461bcd60e51b815260206004820152602a60248201527f4161766553747261746567794176617856313a3a62656c6f77206d696e696d756044820152696d20776974686472617760b01b6064820152608401610429565b801561100357610f193383612fb0565b6000610f2482613086565b604051909150600090339083908381818185875af1925050503d8060008114610f69576040519150601f19603f3d011682016040523d82523d6000602084013e610f6e565b606091505b5050905080610fcb5760405162461bcd60e51b815260206004820152602360248201527f4161766553747261746567794176617856313a3a7472616e73666572206661696044820152621b195960ea1b6064820152608401610429565b60405182815233907f884edad9ce6fa2440d8a54cc123490eb96d2768479d49ff9c7366125a94243649060200160405180910390a250505b50506001601255565b600b546001600160a01b031633146110365760405162461bcd60e51b815260040161042990614487565b61104082826131a1565b5050565b6006546001600160a01b0316331461106e5760405162461bcd60e51b8152600401610429906144ec565b6001600160a01b03811660009081526008602052604090205460ff16156110d75760405162461bcd60e51b815260206004820152601c60248201527f5065726d697373696f6e65643a3a616c6c6f774465706f7369746f72000000006044820152606401610429565b6001600160a01b0381166000908152600860205260409020805460ff1916600190811790915560075461110991612628565b6007556040516001600160a01b038216907fc0a1035c16faf8d1304056d92c00edf028f87e62b8235a938f00af9e3c0312c590600090a250565b6006546001600160a01b0316331461116d5760405162461bcd60e51b8152600401610429906144ec565b600e5481151560ff90911615150361118457600080fd5b600e805460ff19168215159081179091556040519081527f7b014ed3854e7f5cb0218d58b3c6ae7d53a68bb0af2f67bfb029ea42c38a7e85906020015b60405180910390a150565b6006546001600160a01b031633146111f65760405162461bcd60e51b8152600401610429906144ec565b6000811161120357600080fd5b604051339082156108fc029083906000818181858888f19350505050158015611230573d6000803e3d6000fd5b506040805160008152602081018390527f8c1256b8896378cd5044f80c202f9772b9d77dc85c8a6eb51967210b09bfaa2891016111c1565b6006546001600160a01b031633146112925760405162461bcd60e51b8152600401610429906144ec565b6006546040516000916001600160a01b0316907f8be0079c531659141344cd1fd0a4f28419497f9722a3daafe3b4186f6b6457e0908390a3600680546001600160a01b0319169055565b6006546001600160a01b031633146113065760405162461bcd60e51b8152600401610429906144ec565b60405163095ea7b360e01b81526001600160a01b0382811660048301526000602483015283169063095ea7b3906044016020604051808303816000875af1158015611355573d6000803e3d6000fd5b505050506040513d601f19601f820116820180604052508101906113799190614521565b61104057600080fd5b600080600061138f612957565b50909250905061139f8282612aa2565b9250505090565b6006546001600160a01b031633146113d05760405162461bcd60e51b8152600401610429906144ec565b600c5460408051918252602082018390527f481f79ac3a523b6d6db3c5a720e190e986d1cc1b41adcdf50f9caef849901100910160405180910390a1600c55565b6006546001600160a01b0316331461143b5760405162461bcd60e51b8152600401610429906144ec565b6000811161144857600080fd5b60405163a9059cbb60e01b8152336004820152602481018290526001600160a01b0383169063a9059cbb906044016020604051808303816000875af1158015611495573d6000803e3d6000fd5b505050506040513d601f19601f820116820180604052508101906114b99190614521565b6114c257600080fd5b604080516001600160a01b0384168152602081018390527f8c1256b8896378cd5044f80c202f9772b9d77dc85c8a6eb51967210b09bfaa2891015b60405180910390a15050565b6006546001600160a01b031633146115335760405162461bcd60e51b8152600401610429906144ec565b6000600754116115a25760405162461bcd60e51b815260206004820152603460248201527f5065726d697373696f6e65643a3a72656d6f76654465706f7369746f722c206e6044820152736f20616c6c6f776564206465706f7369746f727360601b6064820152608401610429565b6001600160a01b03811660009081526008602052604090205460ff1615156001146116225760405162461bcd60e51b815260206004820152602a60248201527f5065726d697373696f6e65643a3a72656d6f76654465706f7369746f722c206e6044820152691bdd08185b1b1bddd95960b21b6064820152608401610429565b6001600160a01b0381166000908152600860205260409020805460ff19169055600754611650906001612aa2565b6007556040516001600160a01b038216907f0e86f6608b536e5339a25b65ff531f5ea91e1313d056ecd4752b35cbd16137d490600090a250565b600b546001600160a01b031633146116b45760405162461bcd60e51b815260040161042990614487565b600b54604080516001600160a01b03928316815291831660208301527fa8e91499ed37682f43cffb045fcc7d379a91e8c9a14e6321877ee34dee564c00910160405180910390a1600b80546001600160a01b0319166001600160a01b0392909216919091179055565b60018054610c5e9061444d565b6006546001600160a01b031633146117545760405162461bcd60e51b8152600401610429906144ec565b61271061176c6010548361262890919063ffffffff16565b111561177757600080fd5b60115460408051918252602082018390527f2a42303d002f0ba6cfe8259c91d4684443fb0b3de286ba74991175d651726131910160405180910390a1601155565b600b546001600160a01b031633146117e25760405162461bcd60e51b815260040161042990614487565b6001600160a01b038116600090815260136020526040812080546001600160a01b0319169055805b6014548110156118d657601481815481106118275761182761453e565b6000918252602090912001546001600160a01b03908116908416036118c457601480546001935061185990849061456a565b815481106118695761186961453e565b600091825260209091200154601480546001600160a01b0390921691839081106118955761189561453e565b9060005260206000200160006101000a8154816001600160a01b0302191690836001600160a01b031602179055505b806118ce81614581565b91505061180a565b50806119415760405162461bcd60e51b815260206004820152603460248201527f5661726961626c655265776172647353747261746567793a3a52657761726420604482015273746f2064656c657465206e6f7420666f756e642160601b6064820152608401610429565b60148054806119525761195261459a565b600082815260209020810160001990810180546001600160a01b0319169055019055601554611982906001612aa2565b6015556040516001600160a01b03831681527f963b7c735475147a62c589c2d7cb8ec4b0a6b7af4f97373d79ebfa42ab8aa7dc906020016114fd565b6006546001600160a01b031633146119e85760405162461bcd60e51b8152600401610429906144ec565b612710611a006011548361262890919063ffffffff16565b1115611a0b57600080fd5b60105460408051918252602082018390527fe7f97d51d307dc44045597c9978bec0f842e6bb40d19b9444084cfa30d9ed4f2910160405180910390a1601055565b6000610cec338484612e65565b600260125403611a7b5760405162461bcd60e51b8152600401610429906144b5565b60026012819055506000805160206149b48339815191526001600160a01b031663d0e30db0346040518263ffffffff1660e01b81526004016000604051808303818588803b158015611acc57600080fd5b505af1158015611ae0573d6000803e3d6000fd5b5050505050611aef81346132fd565b506001601255565b6006546001600160a01b03163314611b215760405162461bcd60e51b8152600401610429906144ec565b6040516370a0823160e01b81523060048201526000906000805160206149b4833981519152906370a0823190602401602060405180830381865afa158015611b6d573d6000803e3d6000fd5b505050506040513d601f19601f82011682018060405250810190611b9191906145b0565b9050600080611b9e612957565b509092509050611bb1610d608383612aa2565b601b54604051631a4ca37b60e21b81526000805160206149b4833981519152600482015260001960248201523060448201526001600160a01b03909116906369328dec906064016020604051808303816000875af1158015611c17573d6000803e3d6000fd5b505050506040513d601f19601f82011682018060405250810190611c3b91906145b0565b506040516370a0823160e01b81523060048201526000906000805160206149b4833981519152906370a0823190602401602060405180830381865afa158015611c88573d6000803e3d6000fd5b505050506040513d601f19601f82011682018060405250810190611cac91906145b0565b905085611cb98286612aa2565b1015611d175760405162461bcd60e51b815260206004820152602760248201527f4161766553747261746567794176617856313a3a7265736375654465706c6f79604482015266656446756e647360c81b6064820152608401610429565b7fc7606d21ac05cd309191543e409f0845c016120563783d70e4f41419dc0ef234611d40611382565b6002546040805192835260208301919091520160405180910390a1600e5460ff161515600103610d6d57610d6d6000611143565b600080611d7f611db3565b9050600c548110611dab57611da5612710610e9d60105484612f9890919063ffffffff16565b91505090565b600091505090565b604080516002808252606082018352600092839291906020830190803683375050601c5482519293506001600160a01b031691839150600090611df857611df861453e565b6001600160a01b039283166020918202929092010152601d54825191169082906001908110611e2957611e2961453e565b6001600160a01b039283166020918202929092010152601a54604051634c0369c360e01b815260009283921690634c0369c390611e6c90869030906004016145df565b600060405180830381865afa158015611e89573d6000803e3d6000fd5b505050506040513d6000823e601f3d908101601f19168201604052611eb191908101906146fc565b6040516370a0823160e01b815230600482015291935091506000906000805160206149b4833981519152906370a0823190602401602060405180830381865afa158015611f02573d6000803e3d6000fd5b505050506040513d601f19601f82011682018060405250810190611f2691906145b0565b9050611f328147612628565b5060005b83518110156120ca576000848281518110611f5357611f5361453e565b602002602001015190506000805160206149b48339815191526001600160a01b0316816001600160a01b031603611fb757611fb0848381518110611f9957611f9961453e565b60200260200101518461262890919063ffffffff16565b92506120b7565b6040516370a0823160e01b81523060048201526000906001600160a01b038316906370a0823190602401602060405180830381865afa158015611ffe573d6000803e3d6000fd5b505050506040513d601f19601f8201168201806040525081019061202291906145b0565b9050600061205286858151811061203b5761203b61453e565b60200260200101518361262890919063ffffffff16565b6001600160a01b0380851660009081526013602052604090205491925016811580159061208757506001600160a01b03811615155b156120b3576120b06120a983866000805160206149b483398151915285613462565b8790612628565b95505b5050505b50806120c281614581565b915050611f36565b50949350505050565b6006546001600160a01b031633146120fd5760405162461bcd60e51b8152600401610429906144ec565b801561210857600080fd5b600f5460408051918252602082018390527f3cc372f330f95ac9540626dc8a25f5bf21ba607215a5d58304cb804d446f104a910160405180910390a1600f55565b60026012540361216b5760405162461bcd60e51b8152600401610429906144b5565b60026012819055506000805160206149b48339815191526001600160a01b031663d0e30db0346040518263ffffffff1660e01b81526004016000604051808303818588803b1580156121bc57600080fd5b505af11580156121d0573d6000803e3d6000fd5b50505050506121df33346132fd565b6001601255565b428410156122285760405162461bcd60e51b815260206004820152600f60248201526e1c195c9b5a5d0e8e995e1c1a5c9959608a1b6044820152606401610429565b6001600160a01b038716600090815260056020526040812080547f6e71edae12b1b97f4d1f60370fef10105fa2faae0126114a169c64845d6126c9918a918a918a91908661227583614581565b909155506040805160208101969096526001600160a01b0394851690860152929091166060840152608083015260a082015260c0810186905260e0016040516020818303038152906040528051906020012090506122d68882868686613520565b6122e1888888612849565b5050505050505050565b60008060006122f8612957565b50909250905061139f61230b8383612aa2565b610e9d84670de0b6b3a7640000612f98565b600061233361232a611382565b60025490612f98565b60000361233e575090565b612357612349611382565b600254610e9d908590612f98565b92915050565b6006546001600160a01b031633146123875760405162461bcd60e51b8152600401610429906144ec565b600d5460408051918252602082018390527fa5dae50539d56dfe1fb5273d883b0c39bc76750a25d036fc5fbd09ad8fd5f57f910160405180910390a1600d55565b601481815481106123d857600080fd5b6000918252602090912001546001600160a01b0316905081565b60006123ff61232a611382565b60000361240e57506000919050565b612357600254610e9d61241f611382565b8590612f98565b60007f8b73c3c69bb8fe3d512ecc4cf759cc79239f7b179b0ffacaa9a75d522b39400f60001b600060405161245b91906147c1565b6040519081900390207fc89efdaa54c0f20c7adf612882df0950f5a951637e0307cdcb4c672f298b8bc646604080516020810195909552840192909252606083015260808201523060a082015260c00160405160208183030381529060405280519060200120905090565b6006546001600160a01b031633146124f05760405162461bcd60e51b8152600401610429906144ec565b6001600160a01b0381166125555760405162461bcd60e51b815260206004820152602660248201527f4f776e61626c653a206e6577206f776e657220697320746865207a65726f206160448201526564647265737360d01b6064820152608401610429565b6006546040516001600160a01b038084169216907f8be0079c531659141344cd1fd0a4f28419497f9722a3daafe3b4186f6b6457e090600090a3600680546001600160a01b0319166001600160a01b0392909216919091179055565b3233146125f75760405162461bcd60e51b815260206004820152601460248201527359616b53747261746567793a3a6f6e6c79454f4160601b6044820152606401610429565b6002601254036126195760405162461bcd60e51b8152600401610429906144b5565b60026012556121df600061364c565b6000610e52828461485c565b6000836001600160a01b0316630dfe16816040518163ffffffff1660e01b8152600401602060405180830381865afa158015612674573d6000803e3d6000fd5b505050506040513d601f19601f820116820180604052508101906126989190614874565b6001600160a01b0316836001600160a01b031614806127295750836001600160a01b031663d21220a76040518163ffffffff1660e01b8152600401602060405180830381865afa1580156126f0573d6000803e3d6000fd5b505050506040513d601f19601f820116820180604052508101906127149190614874565b6001600160a01b0316836001600160a01b0316145b80156128235750836001600160a01b0316630dfe16816040518163ffffffff1660e01b8152600401602060405180830381865afa15801561276e573d6000803e3d6000fd5b505050506040513d601f19601f820116820180604052508101906127929190614874565b6001600160a01b0316826001600160a01b031614806128235750836001600160a01b031663d21220a76040518163ffffffff1660e01b8152600401602060405180830381865afa1580156127ea573d6000803e3d6000fd5b505050506040513d601f19601f8201168201806040525081019061280e9190614874565b6001600160a01b0316826001600160a01b0316145b80156128415750816001600160a01b0316836001600160a01b031614155b949350505050565b6001600160a01b03831661289f5760405162461bcd60e51b815260206004820152601c60248201527f5f617070726f76653a3a6f776e6572207a65726f2061646472657373000000006044820152606401610429565b6001600160a01b0382166128f55760405162461bcd60e51b815260206004820152601e60248201527f5f617070726f76653a3a7370656e646572207a65726f206164647265737300006044820152606401610429565b6001600160a01b0383811660008181526003602090815260408083209487168084529482529182902085905590518481527f8c5be1e5ebec7d5bd14f71427d1e84f3dd0314c0f7b2291e5b200ac8c7c3b92591015b60405180910390a3505050565b601c546040516370a0823160e01b8152306004820152600091829182916001600160a01b0316906370a0823190602401602060405180830381865afa1580156129a4573d6000803e3d6000fd5b505050506040513d601f19601f820116820180604052508101906129c891906145b0565b601d546040516370a0823160e01b81523060048201529194506001600160a01b0316906370a0823190602401602060405180830381865afa158015612a11573d6000803e3d6000fd5b505050506040513d601f19601f82011682018060405250810190612a3591906145b0565b91506000905081612a63601654610e9d612a5c601854601654612aa290919063ffffffff16565b8790612f98565b1115612a9d57612a9a82612a94601654610e9d612a8d601854601654612aa290919063ffffffff16565b8890612f98565b90612aa2565b90505b909192565b6000610e52828461456a565b600080612ab9612957565b5090925090506000612b00612ad285612a948686612aa2565b612a94601854610e9d612af2601754601654612aa290919063ffffffff16565b610e978a612a948b8b612aa2565b90506000612b0e8383612aa2565b90508015612ba057601b54604051630b6b65f560e21b81526000805160206149b4833981519152600482015260248101839052600260448201526001600160a01b0390911690632dad97d4906064016020604051808303816000875af1158015612b7c573d6000803e3d6000fd5b505050506040513d601f19601f82011682018060405250810190610d6d91906145b0565b5050505050565b6000806000612bb4612957565b9250925092506000612be6601854610e9d612bdc601754601654612aa290919063ffffffff16565b610e978888612aa2565b601b5460405163095ea7b360e01b81526001600160a01b039091166004820152602481018290529091506000805160206149b48339815191529063095ea7b3906044016020604051808303816000875af1158015612c48573d6000803e3d6000fd5b505050506040513d601f19601f82011682018060405250810190612c6c9190614521565b505b80841015612db65780612c818584612628565b1115612c9457612c918185612aa2565b91505b6019548210612db657601b5460405163a415bcad60e01b81526000805160206149b483398151915260048201526024810184905260026044820152600060648201523060848201526001600160a01b039091169063a415bcad9060a401600060405180830381600087803b158015612d0b57600080fd5b505af1158015612d1f573d6000803e3d6000fd5b5050601b5460405163617ba03760e01b81526000805160206149b4833981519152600482015260248101869052306044820152600060648201526001600160a01b03909116925063617ba0379150608401600060405180830381600087803b158015612d8a57600080fd5b505af1158015612d9e573d6000803e3d6000fd5b50505050612daa612957565b91955093509150612c6e565b601b5460405163095ea7b360e01b81526001600160a01b039091166004820152600060248201526000805160206149b48339815191529063095ea7b3906044016020604051808303816000875af1158015612e15573d6000803e3d6000fd5b505050506040513d601f19601f82011682018060405250810190612ba09190614521565b60008184841115612e5d5760405162461bcd60e51b815260040161042991906141fc565b505050900390565b6001600160a01b038216612ed85760405162461bcd60e51b815260206004820152603460248201527f5f7472616e73666572546f6b656e733a2063616e6e6f74207472616e7366657260448201527320746f20746865207a65726f206164647265737360601b6064820152608401610429565b612f15816040518060600160405280602e8152602001614a2a602e91396001600160a01b0386166000908152600460205260409020549190612e39565b6001600160a01b038085166000908152600460205260408082209390935590841681522054612f449082612628565b6001600160a01b0380841660008181526004602052604090819020939093559151908516907fddf252ad1be2c89b69c2b068fc378daa952ba7f163c4a11628f55a4df523b3ef9061294a9085815260200190565b6000610e528284614891565b6000610e5282846148b0565b612fed81604051806060016040528060278152602001614a03602791396001600160a01b0385166000908152600460205260409020549190612e39565b60046000846001600160a01b03166001600160a01b031681526020019081526020016000208190555061303d8160405180606001604052806027815260200161498d602791396002549190612e39565b6002556040518181526000906001600160a01b038416907fddf252ad1be2c89b69c2b068fc378daa952ba7f163c4a11628f55a4df523b3ef906020015b60405180910390a35050565b600061309182612aae565b600061309b612957565b50509050808311156130ad5760001992505b601b54604051631a4ca37b60e21b81526000805160206149b48339815191526004820152602481018590523060448201526000916001600160a01b0316906369328dec906064016020604051808303816000875af1158015613113573d6000803e3d6000fd5b505050506040513d601f19601f8201168201806040525081019061313791906145b0565b604051632e1a7d4d60e01b8152600481018290529091506000805160206149b483398151915290632e1a7d4d90602401600060405180830381600087803b15801561318157600080fd5b505af1158015613195573d6000803e3d6000fd5b50505050610e52612ba7565b600a546001600160a01b0383811691161461324357600a546131cf90829084906001600160a01b0316612634565b613243576040805162461bcd60e51b81526020600482015260248101919091527f5661726961626c655265776172647353747261746567793a3a5377617020706160448201527f697220646f6573206e6f7420636f6e7461696e2072657761726420746f6b656e6064820152608401610429565b6001600160a01b03808316600081815260136020526040812080549385166001600160a01b03199485161790556014805460018181018355919092527fce6d7b5282bd9a3661ae061feed1dbda4e52ab073b1f9285be6e155d9c38d4ec90910180549093169091179091556015546132ba91612628565b601555604080516001600160a01b038085168252831660208201527f916e172c080569186aa7ea048268267257cf7cc49505908863f747bca8620f8091016114fd565b60075415613380573360009081526008602052604090205460ff1615156001146133805760405162461bcd60e51b815260206004820152602e60248201527f5065726d697373696f6e65643a3a6f6e6c79416c6c6f7765644465706f73697460448201526d1ccb081b9bdd08185b1b1bddd95960921b6064820152608401610429565b600e5460ff1615156001146133d75760405162461bcd60e51b815260206004820152601c60248201527f4161766553747261746567794176617856313a3a5f6465706f736974000000006044820152606401610429565b600d54156134005760006133e9611db3565b9050600d548111156133fe576133fe8261364c565b505b6134128261340d8361231d565b6138b0565b61341b81613934565b816001600160a01b03167fe1fffcc4923d04b559f4d29a8bfc6cda04eb5b0d3c460751c2402c5c5cc9109c8260405161345691815260200190565b60405180910390a25050565b60008061346f8585613aa2565b509050600080846001600160a01b0316630902f1ac6040518163ffffffff1660e01b8152600401606060405180830381865afa1580156134b3573d6000803e3d6000fd5b505050506040513d601f19601f820116820180604052508101906134d791906148e9565b5091509150866001600160a01b0316836001600160a01b0316146134f757905b61351488836001600160701b0316836001600160701b0316613ad3565b98975050505050505050565b600061352a612426565b60405161190160f01b602082015260228101919091526042810186905260620160408051601f198184030181528282528051602091820120600080855291840180845281905260ff88169284019290925260608301869052608083018590529092509060019060a0016020604051602081039080840390855afa1580156135b5573d6000803e3d6000fd5b5050604051601f1901519150506001600160a01b038116158015906135eb5750866001600160a01b0316816001600160a01b0316145b6136435760405162461bcd60e51b8152602060048201526024808201527f417263683a3a76616c69646174655369673a20696e76616c6964207369676e616044820152637475726560e01b6064820152608401610429565b50505050505050565b6040805160028082526060820183526000926020830190803683375050601c5482519293506001600160a01b03169183915060009061368d5761368d61453e565b6001600160a01b039283166020918202929092010152601d548251911690829060019081106136be576136be61453e565b6001600160a01b039283166020918202929092010152601a5460405163bb492bf560e01b815291169063bb492bf5906136fd90849030906004016145df565b6000604051808303816000875af115801561371c573d6000803e3d6000fd5b505050506040513d6000823e601f3d908101601f1916820160405261374491908101906146fc565b50506000613750613b21565b905061375c8184612aa2565b9050826000036137d157600c548110156137d15760405162461bcd60e51b815260206004820152603060248201527f5661726961626c655265776172647353747261746567793a3a5265696e76657360448201526f7420616d6f756e7420746f6f206c6f7760801b6064820152608401610429565b60006137ee612710610e9d60115485612f9890919063ffffffff16565b9050801561381357600a54600b54613813916001600160a01b03908116911683613d46565b6000613830612710610e9d60105486612f9890919063ffffffff16565b9050801561384f57600a5461384f906001600160a01b03163383613d46565b61386561386082612a948686612aa2565b613934565b7fc7606d21ac05cd309191543e409f0845c016120563783d70e4f41419dc0ef23461388e611382565b6002546040805192835260208301919091520160405180910390a15050505050565b6002546138bd9082612628565b6002556001600160a01b0382166000908152600460205260409020546138e39082612628565b6001600160a01b0383166000818152600460205260408082209390935591519091907fddf252ad1be2c89b69c2b068fc378daa952ba7f163c4a11628f55a4df523b3ef9061307a9085815260200190565b600081116139945760405162461bcd60e51b815260206004820152602760248201527f4161766553747261746567794176617856313a3a5f7374616b654465706f736960448201526674546f6b656e7360c81b6064820152608401610429565b601b5460405163095ea7b360e01b81526001600160a01b039091166004820152602481018290526000805160206149b48339815191529063095ea7b3906044016020604051808303816000875af11580156139f3573d6000803e3d6000fd5b505050506040513d601f19601f82011682018060405250810190613a179190614521565b50601b5460405163617ba03760e01b81526000805160206149b4833981519152600482015260248101839052306044820152600060648201526001600160a01b039091169063617ba03790608401600060405180830381600087803b158015613a7f57600080fd5b505af1158015613a93573d6000803e3d6000fd5b50505050613a9f612ba7565b50565b600080826001600160a01b0316846001600160a01b031610613ac5578284613ac8565b83835b915091509250929050565b600080613ae2856103e5612f98565b90506000613af08285612f98565b90506000613b0a83613b04886103e8612f98565b90612628565b9050613b168282612fa4565b979650505050505050565b6040516370a0823160e01b815230600482015260009081906000805160206149b4833981519152906370a0823190602401602060405180830381865afa158015613b6f573d6000803e3d6000fd5b505050506040513d601f19601f82011682018060405250810190613b9391906145b0565b60145490915060005b81811015613d3e57600060148281548110613bb957613bb961453e565b6000918252602090912001546001600160a01b0316905073b31f66aa3c1e785363f0875a1b74e27b85fd66c6198101613c7257478015613c6b576000805160206149b48339815191526001600160a01b031663d0e30db0826040518263ffffffff1660e01b81526004016000604051808303818588803b158015613c3c57600080fd5b505af1158015613c50573d6000803e3d6000fd5b5050505050613c68818661262890919063ffffffff16565b94505b5050613d2c565b6040516370a0823160e01b81523060048201526000906001600160a01b038316906370a0823190602401602060405180830381865afa158015613cb9573d6000803e3d6000fd5b505050506040513d601f19601f82011682018060405250810190613cdd91906145b0565b90508015613d29576001600160a01b03808316600090815260136020526040902054168015613d2757600a54613d24906120a990849086906001600160a01b031685613e1b565b95505b505b50505b80613d3681614581565b915050613b9c565b509092915050565b60405163a9059cbb60e01b81526001600160a01b0383811660048301526024820183905284169063a9059cbb906044016020604051808303816000875af1158015613d95573d6000803e3d6000fd5b505050506040513d601f19601f82011682018060405250810190613db99190614521565b613e165760405162461bcd60e51b815260206004820152602860248201527f4161766553747261746567794176617856313a3a5452414e534645525f46524f6044820152671357d1905253115160c21b6064820152608401610429565b505050565b600080613e288585613aa2565b509050600080846001600160a01b0316630902f1ac6040518163ffffffff1660e01b8152600401606060405180830381865afa158015613e6c573d6000803e3d6000fd5b505050506040513d601f19601f82011682018060405250810190613e9091906148e9565b5091509150866001600160a01b0316836001600160a01b031614613eb057905b600080613ed08a856001600160701b0316856001600160701b0316613ad3565b9050886001600160a01b0316856001600160a01b031614613eed57905b613f016001600160a01b038a16888c613f8f565b6040805160008152602081019182905263022c0d9f60e01b9091526001600160a01b0388169063022c0d9f90613f409085908590309060248101614939565b600060405180830381600087803b158015613f5a57600080fd5b505af1158015613f6e573d6000803e3d6000fd5b50505050818111613f7f5781613f81565b805b9a9950505050505050505050565b604080516001600160a01b03848116602483015260448083018590528351808403909101815260649092018352602080830180516001600160e01b031663a9059cbb60e01b17905283518085019094528084527f5361666545524332303a206c6f772d6c6576656c2063616c6c206661696c656490840152613e169286929160009161401f91851690849061409c565b805190915015613e16578080602001905181019061403d9190614521565b613e165760405162461bcd60e51b815260206004820152602a60248201527f5361666545524332303a204552433230206f7065726174696f6e20646964206e6044820152691bdd081cdd58d8d9595960b21b6064820152608401610429565b60606128418484600085856001600160a01b0385163b6140fe5760405162461bcd60e51b815260206004820152601d60248201527f416464726573733a2063616c6c20746f206e6f6e2d636f6e74726163740000006044820152606401610429565b600080866001600160a01b0316858760405161411a9190614970565b60006040518083038185875af1925050503d8060008114614157576040519150601f19603f3d011682016040523d82523d6000602084013e61415c565b606091505b5091509150613b1682828660608315614176575081610e52565b8251156141865782518084602001fd5b8160405162461bcd60e51b815260040161042991906141fc565b60005b838110156141bb5781810151838201526020016141a3565b838111156141ca576000848401525b50505050565b600081518084526141e88160208601602086016141a0565b601f01601f19169290920160200192915050565b602081526000610e5260208301846141d0565b6001600160a01b0381168114613a9f57600080fd5b6000806040838503121561423757600080fd5b82356142428161420f565b946020939093013593505050565b6000806000806080858703121561426657600080fd5b5050823594602084013594506040840135936060013592509050565b60008060006060848603121561429757600080fd5b83356142a28161420f565b925060208401356142b28161420f565b929592945050506040919091013590565b6000602082840312156142d557600080fd5b5035919050565b600080604083850312156142ef57600080fd5b82356142fa8161420f565b9150602083013561430a8161420f565b809150509250929050565b60006020828403121561432757600080fd5b8135610e528161420f565b803560ff8116811461434357600080fd5b919050565b600080600080600060a0868803121561436057600080fd5b853594506020860135935061437760408701614332565b94979396509394606081013594506080013592915050565b8015158114613a9f57600080fd5b6000602082840312156143af57600080fd5b8135610e528161438f565b600080604083850312156143cd57600080fd5b82359150602083013561430a8161438f565b600080600080600080600060e0888a0312156143fa57600080fd5b87356144058161420f565b965060208801356144158161420f565b9550604088013594506060880135935061443160808901614332565b925060a0880135915060c0880135905092959891949750929550565b600181811c9082168061446157607f821691505b60208210810361448157634e487b7160e01b600052602260045260246000fd5b50919050565b6020808252601490820152732cb0b5a9ba3930ba32b3bc9d1d37b7363ca232bb60611b604082015260600190565b6020808252601f908201527f5265656e7472616e637947756172643a207265656e7472616e742063616c6c00604082015260600190565b6020808252818101527f4f776e61626c653a2063616c6c6572206973206e6f7420746865206f776e6572604082015260600190565b60006020828403121561453357600080fd5b8151610e528161438f565b634e487b7160e01b600052603260045260246000fd5b634e487b7160e01b600052601160045260246000fd5b60008282101561457c5761457c614554565b500390565b60006001820161459357614593614554565b5060010190565b634e487b7160e01b600052603160045260246000fd5b6000602082840312156145c257600080fd5b5051919050565b634e487b7160e01b600052604160045260246000fd5b604080825283519082018190526000906020906060840190828701845b828110156146215781516001600160a01b0316845292840192908401906001016145fc565b5050506001600160a01b039490941692019190915250919050565b604051601f8201601f1916810167ffffffffffffffff81118282101715614665576146656145c9565b604052919050565b600067ffffffffffffffff821115614687576146876145c9565b5060051b60200190565b600082601f8301126146a257600080fd5b815160206146b76146b28361466d565b61463c565b82815260059290921b840181019181810190868411156146d657600080fd5b8286015b848110156146f157805183529183019183016146da565b509695505050505050565b6000806040838503121561470f57600080fd5b825167ffffffffffffffff8082111561472757600080fd5b818501915085601f83011261473b57600080fd5b8151602061474b6146b28361466d565b82815260059290921b8401810191818101908984111561476a57600080fd5b948201945b838610156147915785516147828161420f565b8252948201949082019061476f565b918801519196509093505050808211156147aa57600080fd5b506147b785828601614691565b9150509250929050565b600080835481600182811c9150808316806147dd57607f831692505b602080841082036147fc57634e487b7160e01b86526022600452602486fd5b81801561481057600181146148215761484e565b60ff1986168952848901965061484e565b60008a81526020902060005b868110156148465781548b82015290850190830161482d565b505084890196505b509498975050505050505050565b6000821982111561486f5761486f614554565b500190565b60006020828403121561488657600080fd5b8151610e528161420f565b60008160001904831182151516156148ab576148ab614554565b500290565b6000826148cd57634e487b7160e01b600052601260045260246000fd5b500490565b80516001600160701b038116811461434357600080fd5b6000806000606084860312156148fe57600080fd5b614907846148d2565b9250614915602085016148d2565b9150604084015163ffffffff8116811461492e57600080fd5b809150509250925092565b84815283602082015260018060a01b038316604082015260806060820152600061496660808301846141d0565b9695505050505050565b600082516149828184602087016141a0565b919091019291505056fe5f6275726e3a206275726e20616d6f756e74206578636565647320746f74616c20737570706c79000000000000000000000000b31f66aa3c1e785363f0875a1b74e27b85fd66c77472616e7366657246726f6d3a207472616e7366657220616d6f756e74206578636565647320616c6c6f77616e63655f6275726e3a206275726e20616d6f756e7420657863656564732066726f6d2062616c616e63655f7472616e73666572546f6b656e733a207472616e7366657220657863656564732066726f6d2062616c616e6365a2646970667358221220d26fb25cceb7523dbe683d80e7db88e04fdff7267bd219b58752d7e9cd66cb1864736f6c634300080d00334f776e61626c653a2063616c6c6572206973206e6f7420746865206f776e65728be0079c531659141344cd1fd0a4f28419497f9722a3daafe3b4186f6b6457e0",
    "linkReferences": {}
  },
  "methodIdentifiers": {
    "ADMIN_FEE_BIPS()": "07677111",
    "DEPOSITS_ENABLED()": "b52a321f",
    "DEV_FEE_BIPS()": "5ea682ea",
    "DOMAIN_TYPEHASH()": "20606b70",
    "MAX_TOKENS_TO_DEPOSIT_WITHOUT_REINVEST()": "789139bc",
    "MIN_TOKENS_TO_REINVEST()": "bd079f55",
    "PERMIT_TYPEHASH()": "30adf81f",
    "REINVEST_REWARD_BIPS()": "8aff733d",
    "VERSION_HASH()": "9e4e7318",
    "addReward(address,address)": "40b47e1a",
    "allowDepositor(address)": "4bebd1e7",
    "allowance(address,address)": "dd62ed3e",
    "allowedDepositors(address)": "483c2ef0",
    "approve(address,uint256)": "095ea7b3",
    "balanceOf(address)": "70a08231",
    "checkReward()": "c4b24a46",
    "decimals()": "313ce567",
    "deposit()": "d0e30db0",
    "deposit(uint256)": "b6b55f25",
    "depositFor(address)": "aa67c919",
    "depositFor(address,uint256)": "2f4f21e2",
    "depositToken()": "c89039c5",
    "depositWithPermit(uint256,uint256,uint8,bytes32,bytes32)": "4a970be7",
    "devAddr()": "da09c72c",
    "estimateDeployedBalance()": "0f23475d",
    "estimateReinvestReward()": "b9e57b80",
    "getActualLeverage()": "db8dd95c",
    "getDepositTokensForShares(uint256)": "eab89a5a",
    "getDomainSeparator()": "ed24911d",
    "getSharesForDepositTokens(uint256)": "dd8ce4d6",
    "leverageBips()": "1f15d71a",
    "leverageLevel()": "e592c5fa",
    "minMinting()": "62ac20a5",
    "name()": "06fdde03",
    "nonces(address)": "7ecebe00",
    "numberOfAllowedDepositors()": "3bdc6e72",
    "owner()": "8da5cb5b",
    "permit(address,address,uint256,uint256,uint8,bytes32,bytes32)": "d505accf",
    "recoverAVAX(uint256)": "4ebb7916",
    "recoverERC20(address,uint256)": "8980f11f",
    "reinvest()": "fdb5a03e",
    "removeDepositor(address)": "8b73e606",
    "removeReward(address)": "a4d5e67c",
    "renounceOwnership()": "715018a6",
    "rescueDeployedFunds(uint256,bool)": "ac0d31ff",
    "revokeAllowance(address,address)": "7ae26773",
    "rewardCount()": "79085425",
    "rewardSwapPairs(address)": "a5534e71",
    "rewardToken()": "f7c618c1",
    "safetyFactor()": "f02ecb71",
    "supportedRewards(uint256)": "e75ab045",
    "symbol()": "95d89b41",
    "totalDeposits()": "7d882097",
    "totalSupply()": "18160ddd",
    "transfer(address,uint256)": "a9059cbb",
    "transferFrom(address,address,uint256)": "23b872dd",
    "transferOwnership(address)": "f2fde38b",
    "updateAdminFee(uint256)": "cff1b6ef",
    "updateDepositsEnabled(bool)": "4e77ace5",
    "updateDevAddr(address)": "9291d563",
    "updateDevFee(uint256)": "99729ec1",
    "updateLeverage(uint256,uint256,uint256,uint256)": "22a05141",
    "updateMaxTokensToDepositWithoutReinvest(uint256)": "e21ac825",
    "updateMinTokensToReinvest(uint256)": "81837230",
    "updateReinvestReward(uint256)": "a8ae2b7c",
    "withdraw(uint256)": "2e1a7d4d"
  },
  "id": 38
}