{
  "abi": [
    {
      "inputs": [
        {
          "internalType": "address",
          "name": "_owner",
          "type": "address"
        }
      ],
      "stateMutability": "nonpayable",
      "type": "constructor"
    },
    {
      "anonymous": false,
      "inputs": [
        {
          "indexed": true,
          "internalType": "address",
          "name": "owner",
          "type": "address"
        },
        {
          "indexed": true,
          "internalType": "address",
          "name": "spender",
          "type": "address"
        },
        {
          "indexed": false,
          "internalType": "uint256",
          "name": "value",
          "type": "uint256"
        }
      ],
      "name": "Approval",
      "type": "event"
    },
    {
      "anonymous": false,
      "inputs": [
        {
          "indexed": true,
          "internalType": "address",
          "name": "previousOwner",
          "type": "address"
        },
        {
          "indexed": true,
          "internalType": "address",
          "name": "newOwner",
          "type": "address"
        }
      ],
      "name": "OwnershipTransferred",
      "type": "event"
    },
    {
      "anonymous": false,
      "inputs": [
        {
          "indexed": true,
          "internalType": "address",
          "name": "from",
          "type": "address"
        },
        {
          "indexed": true,
          "internalType": "address",
          "name": "to",
          "type": "address"
        },
        {
          "indexed": false,
          "internalType": "uint256",
          "name": "value",
          "type": "uint256"
        }
      ],
      "name": "Transfer",
      "type": "event"
    },
    {
      "inputs": [],
      "name": "DOMAIN_TYPEHASH",
      "outputs": [
        {
          "internalType": "bytes32",
          "name": "",
          "type": "bytes32"
        }
      ],
      "stateMutability": "view",
      "type": "function"
    },
    {
      "inputs": [],
      "name": "PERMIT_TYPEHASH",
      "outputs": [
        {
          "internalType": "bytes32",
          "name": "",
          "type": "bytes32"
        }
      ],
      "stateMutability": "view",
      "type": "function"
    },
    {
      "inputs": [],
      "name": "PTP",
      "outputs": [
        {
          "internalType": "address",
          "name": "",
          "type": "address"
        }
      ],
      "stateMutability": "view",
      "type": "function"
    },
    {
      "inputs": [],
      "name": "VERSION_HASH",
      "outputs": [
        {
          "internalType": "bytes32",
          "name": "",
          "type": "bytes32"
        }
      ],
      "stateMutability": "view",
      "type": "function"
    },
    {
      "inputs": [
        {
          "internalType": "address",
          "name": "owner",
          "type": "address"
        },
        {
          "internalType": "address",
          "name": "spender",
          "type": "address"
        }
      ],
      "name": "allowance",
      "outputs": [
        {
          "internalType": "uint256",
          "name": "",
          "type": "uint256"
        }
      ],
      "stateMutability": "view",
      "type": "function"
    },
    {
      "inputs": [
        {
          "internalType": "address",
          "name": "spender",
          "type": "address"
        },
        {
          "internalType": "uint256",
          "name": "amount",
          "type": "uint256"
        }
      ],
      "name": "approve",
      "outputs": [
        {
          "internalType": "bool",
          "name": "",
          "type": "bool"
        }
      ],
      "stateMutability": "nonpayable",
      "type": "function"
    },
    {
      "inputs": [
        {
          "internalType": "address",
          "name": "account",
          "type": "address"
        }
      ],
      "name": "balanceOf",
      "outputs": [
        {
          "internalType": "uint256",
          "name": "",
          "type": "uint256"
        }
      ],
      "stateMutability": "view",
      "type": "function"
    },
    {
      "inputs": [],
      "name": "claimVePTP",
      "outputs": [],
      "stateMutability": "nonpayable",
      "type": "function"
    },
    {
      "inputs": [],
      "name": "decimals",
      "outputs": [
        {
          "internalType": "uint8",
          "name": "",
          "type": "uint8"
        }
      ],
      "stateMutability": "view",
      "type": "function"
    },
    {
      "inputs": [
        {
          "internalType": "address",
          "name": "spender",
          "type": "address"
        },
        {
          "internalType": "uint256",
          "name": "subtractedValue",
          "type": "uint256"
        }
      ],
      "name": "decreaseAllowance",
      "outputs": [
        {
          "internalType": "bool",
          "name": "",
          "type": "bool"
        }
      ],
      "stateMutability": "nonpayable",
      "type": "function"
    },
    {
      "inputs": [
        {
          "internalType": "uint256",
          "name": "_amount",
          "type": "uint256"
        }
      ],
      "name": "deposit",
      "outputs": [],
      "stateMutability": "nonpayable",
      "type": "function"
    },
    {
      "inputs": [
        {
          "internalType": "uint256",
          "name": "_amount",
          "type": "uint256"
        }
      ],
      "name": "depositFromBalance",
      "outputs": [],
      "stateMutability": "nonpayable",
      "type": "function"
    },
    {
      "inputs": [],
      "name": "depositsEnabled",
      "outputs": [
        {
          "internalType": "bool",
          "name": "",
          "type": "bool"
        }
      ],
      "stateMutability": "view",
      "type": "function"
    },
    {
      "inputs": [
        {
          "internalType": "address",
          "name": "target",
          "type": "address"
        },
        {
          "internalType": "uint256",
          "name": "value",
          "type": "uint256"
        },
        {
          "internalType": "bytes",
          "name": "data",
          "type": "bytes"
        }
      ],
      "name": "execute",
      "outputs": [
        {
          "internalType": "bool",
          "name": "",
          "type": "bool"
        },
        {
          "internalType": "bytes",
          "name": "",
          "type": "bytes"
        }
      ],
      "stateMutability": "nonpayable",
      "type": "function"
    },
    {
      "inputs": [],
      "name": "getDomainSeparator",
      "outputs": [
        {
          "internalType": "bytes32",
          "name": "",
          "type": "bytes32"
        }
      ],
      "stateMutability": "view",
      "type": "function"
    },
    {
      "inputs": [
        {
          "internalType": "address",
          "name": "spender",
          "type": "address"
        },
        {
          "internalType": "uint256",
          "name": "addedValue",
          "type": "uint256"
        }
      ],
      "name": "increaseAllowance",
      "outputs": [
        {
          "internalType": "bool",
          "name": "",
          "type": "bool"
        }
      ],
      "stateMutability": "nonpayable",
      "type": "function"
    },
    {
      "inputs": [],
      "name": "name",
      "outputs": [
        {
          "internalType": "string",
          "name": "",
          "type": "string"
        }
      ],
      "stateMutability": "view",
      "type": "function"
    },
    {
      "inputs": [
        {
          "internalType": "address",
          "name": "",
          "type": "address"
        }
      ],
      "name": "nonces",
      "outputs": [
        {
          "internalType": "uint256",
          "name": "",
          "type": "uint256"
        }
      ],
      "stateMutability": "view",
      "type": "function"
    },
    {
      "inputs": [],
      "name": "owner",
      "outputs": [
        {
          "internalType": "address",
          "name": "",
          "type": "address"
        }
      ],
      "stateMutability": "view",
      "type": "function"
    },
    {
      "inputs": [
        {
          "internalType": "address",
          "name": "owner",
          "type": "address"
        },
        {
          "internalType": "address",
          "name": "spender",
          "type": "address"
        },
        {
          "internalType": "uint256",
          "name": "value",
          "type": "uint256"
        },
        {
          "internalType": "uint256",
          "name": "deadline",
          "type": "uint256"
        },
        {
          "internalType": "uint8",
          "name": "v",
          "type": "uint8"
        },
        {
          "internalType": "bytes32",
          "name": "r",
          "type": "bytes32"
        },
        {
          "internalType": "bytes32",
          "name": "s",
          "type": "bytes32"
        }
      ],
      "name": "permit",
      "outputs": [],
      "stateMutability": "nonpayable",
      "type": "function"
    },
    {
      "inputs": [],
      "name": "renounceOwnership",
      "outputs": [],
      "stateMutability": "nonpayable",
      "type": "function"
    },
    {
      "inputs": [
        {
          "internalType": "address",
          "name": "_voterProxy",
          "type": "address"
        }
      ],
      "name": "setVoterProxy",
      "outputs": [],
      "stateMutability": "nonpayable",
      "type": "function"
    },
    {
      "inputs": [],
      "name": "symbol",
      "outputs": [
        {
          "internalType": "string",
          "name": "",
          "type": "string"
        }
      ],
      "stateMutability": "view",
      "type": "function"
    },
    {
      "inputs": [],
      "name": "totalSupply",
      "outputs": [
        {
          "internalType": "uint256",
          "name": "",
          "type": "uint256"
        }
      ],
      "stateMutability": "view",
      "type": "function"
    },
    {
      "inputs": [
        {
          "internalType": "address",
          "name": "to",
          "type": "address"
        },
        {
          "internalType": "uint256",
          "name": "amount",
          "type": "uint256"
        }
      ],
      "name": "transfer",
      "outputs": [
        {
          "internalType": "bool",
          "name": "",
          "type": "bool"
        }
      ],
      "stateMutability": "nonpayable",
      "type": "function"
    },
    {
      "inputs": [
        {
          "internalType": "address",
          "name": "from",
          "type": "address"
        },
        {
          "internalType": "address",
          "name": "to",
          "type": "address"
        },
        {
          "internalType": "uint256",
          "name": "amount",
          "type": "uint256"
        }
      ],
      "name": "transferFrom",
      "outputs": [
        {
          "internalType": "bool",
          "name": "",
          "type": "bool"
        }
      ],
      "stateMutability": "nonpayable",
      "type": "function"
    },
    {
      "inputs": [
        {
          "internalType": "address",
          "name": "newOwner",
          "type": "address"
        }
      ],
      "name": "transferOwnership",
      "outputs": [],
      "stateMutability": "nonpayable",
      "type": "function"
    },
    {
      "inputs": [
        {
          "internalType": "bool",
          "name": "newValue",
          "type": "bool"
        }
      ],
      "name": "updateDepositsEnabled",
      "outputs": [],
      "stateMutability": "nonpayable",
      "type": "function"
    },
    {
      "inputs": [],
      "name": "vePTP",
      "outputs": [
        {
          "internalType": "contract IVePTP",
          "name": "",
          "type": "address"
        }
      ],
      "stateMutability": "view",
      "type": "function"
    },
    {
      "inputs": [],
      "name": "vePTPBalance",
      "outputs": [
        {
          "internalType": "uint256",
          "name": "",
          "type": "uint256"
        }
      ],
      "stateMutability": "view",
      "type": "function"
    },
    {
      "inputs": [],
      "name": "voterProxy",
      "outputs": [
        {
          "internalType": "address",
          "name": "",
          "type": "address"
        }
      ],
      "stateMutability": "view",
      "type": "function"
    },
    {
      "inputs": [],
      "name": "wrapAvaxBalance",
      "outputs": [
        {
          "internalType": "uint256",
          "name": "",
          "type": "uint256"
        }
      ],
      "stateMutability": "nonpayable",
      "type": "function"
    },
    {
      "stateMutability": "payable",
      "type": "receive"
    }
  ],
  "bytecode": {
    "object": "0x60806040526007805460ff60a01b1916600160a01b1790553480156200002457600080fd5b5060405162002125380380620021258339810160408190526200004791620002d7565b6040518060400160405280600d81526020016c05969656c642059616b2050545609c1b81525060405180604001604052806005815260200164079795054560dc1b81525060006200009d6200011c60201b60201c565b600080546001600160a01b0319166001600160a01b03831690811782556040519293509160008051602062002105833981519152908290a3508151620000eb90600590602085019062000231565b5080516200010190600690602084019062000231565b50505062000115816200012060201b60201c565b5062000345565b3390565b6000546001600160a01b03163314620001805760405162461bcd60e51b815260206004820181905260248201527f4f776e61626c653a2063616c6c6572206973206e6f7420746865206f776e657260448201526064015b60405180910390fd5b6001600160a01b038116620001e75760405162461bcd60e51b815260206004820152602660248201527f4f776e61626c653a206e6577206f776e657220697320746865207a65726f206160448201526564647265737360d01b606482015260840162000177565b600080546040516001600160a01b03808516939216916000805160206200210583398151915291a3600080546001600160a01b0319166001600160a01b0392909216919091179055565b8280546200023f9062000309565b90600052602060002090601f016020900481019282620002635760008555620002ae565b82601f106200027e57805160ff1916838001178555620002ae565b82800160010185558215620002ae579182015b82811115620002ae57825182559160200191906001019062000291565b50620002bc929150620002c0565b5090565b5b80821115620002bc5760008155600101620002c1565b600060208284031215620002ea57600080fd5b81516001600160a01b03811681146200030257600080fd5b9392505050565b600181811c908216806200031e57607f821691505b6020821081036200033f57634e487b7160e01b600052602260045260246000fd5b50919050565b611db080620003556000396000f3fe6080604052600436106101e75760003560e01c80637c0bb4ab11610102578063a9059cbb11610095578063d505accf11610064578063d505accf146105ec578063dd62ed3e1461060c578063ed24911d1461062c578063f2fde38b1461064157600080fd5b8063a9059cbb14610556578063b61d27f614610576578063b6b55f25146105a4578063b821da0b146105c457600080fd5b806395d89b41116100d157806395d89b41146104d85780639e4e7318146104ed578063a457c2d714610521578063a71871221461054157600080fd5b80637c0bb4ab146104455780637ecebe00146104655780638da5cb5b146104925780638dc1564a146104b057600080fd5b806330adf81f1161017a5780635392fd1c116101495780635392fd1c146103c45780635a556f51146103e557806370a08231146103fa578063715018a61461043057600080fd5b806330adf81f14610334578063313ce5671461036857806339509351146103845780634e77ace5146103a457600080fd5b806318160ddd116101b657806318160ddd146102935780631ba980b3146102a857806320606b70146102e057806323b872dd1461031457600080fd5b8063052cdc0c146101f357806306fdde0314610215578063095ea7b314610240578063129635951461027057600080fd5b366101ee57005b600080fd5b3480156101ff57600080fd5b5061021361020e3660046119a5565b610661565b005b34801561022157600080fd5b5061022a6106b6565b6040516102379190611a18565b60405180910390f35b34801561024c57600080fd5b5061026061025b366004611a2b565b610748565b6040519015158152602001610237565b34801561027c57600080fd5b50610285610760565b604051908152602001610237565b34801561029f57600080fd5b50600454610285565b3480156102b457600080fd5b506007546102c8906001600160a01b031681565b6040516001600160a01b039091168152602001610237565b3480156102ec57600080fd5b506102857f8b73c3c69bb8fe3d512ecc4cf759cc79239f7b179b0ffacaa9a75d522b39400f81565b34801561032057600080fd5b5061026061032f366004611a55565b6107db565b34801561034057600080fd5b506102857f6e71edae12b1b97f4d1f60370fef10105fa2faae0126114a169c64845d6126c981565b34801561037457600080fd5b5060405160128152602001610237565b34801561039057600080fd5b5061026061039f366004611a2b565b610801565b3480156103b057600080fd5b506102136103bf366004611a9f565b610823565b3480156103d057600080fd5b5060075461026090600160a01b900460ff1681565b3480156103f157600080fd5b5061028561088a565b34801561040657600080fd5b506102856104153660046119a5565b6001600160a01b031660009081526002602052604090205490565b34801561043c57600080fd5b50610213610921565b34801561045157600080fd5b50610213610460366004611abc565b610995565b34801561047157600080fd5b506102856104803660046119a5565b60016020526000908152604090205481565b34801561049e57600080fd5b506000546001600160a01b03166102c8565b3480156104bc57600080fd5b506102c87322d4002028f537599be9f666d1c4fa138522f9c881565b3480156104e457600080fd5b5061022a610a29565b3480156104f957600080fd5b506102857fc89efdaa54c0f20c7adf612882df0950f5a951637e0307cdcb4c672f298b8bc681565b34801561052d57600080fd5b5061026061053c366004611a2b565b610a38565b34801561054d57600080fd5b50610213610abe565b34801561056257600080fd5b50610260610571366004611a2b565b610b27565b34801561058257600080fd5b50610596610591366004611ad5565b610b35565b604051610237929190611b5c565b3480156105b057600080fd5b506102136105bf366004611abc565b610bd5565b3480156105d057600080fd5b506102c8735857019c749147eee22b1fe63500f237f3c1b69281565b3480156105f857600080fd5b50610213610607366004611b77565b610d01565b34801561061857600080fd5b50610285610627366004611bea565b610e06565b34801561063857600080fd5b50610285610e31565b34801561064d57600080fd5b5061021361065c3660046119a5565b610ec6565b6000546001600160a01b031633146106945760405162461bcd60e51b815260040161068b90611c1d565b60405180910390fd5b600780546001600160a01b0319166001600160a01b0392909216919091179055565b6060600580546106c590611c52565b80601f01602080910402602001604051908101604052809291908181526020018280546106f190611c52565b801561073e5780601f106107135761010080835404028352916020019161073e565b820191906000526020600020905b81548152906001019060200180831161072157829003601f168201915b5050505050905090565b600033610756818585610fb0565b5060019392505050565b6040516370a0823160e01b8152306004820152600090735857019c749147eee22b1fe63500f237f3c1b692906370a0823190602401602060405180830381865afa1580156107b2573d6000803e3d6000fd5b505050506040513d601f19601f820116820180604052508101906107d69190611c8c565b905090565b6000336107e98582856110d4565b6107f4858585611148565b60019150505b9392505050565b6000336107568185856108148383610e06565b61081e9190611cbb565b610fb0565b6000546001600160a01b0316331461084d5760405162461bcd60e51b815260040161068b90611c1d565b801515600760149054906101000a900460ff1615150361086c57600080fd5b60078054911515600160a01b0260ff60a01b19909216919091179055565b6007546000906001600160a01b031633146108b75760405162461bcd60e51b815260040161068b90611cd3565b4780156107d65773b31f66aa3c1e785363f0875a1b74e27b85fd66c76001600160a01b031663d0e30db0826040518263ffffffff1660e01b81526004016000604051808303818588803b15801561090d57600080fd5b505af115801561073e573d6000803e3d6000fd5b6000546001600160a01b0316331461094b5760405162461bcd60e51b815260040161068b90611c1d565b600080546040516001600160a01b03909116907f8be0079c531659141344cd1fd0a4f28419497f9722a3daafe3b4186f6b6457e0908390a3600080546001600160a01b0319169055565b6007546001600160a01b031633146109bf5760405162461bcd60e51b815260040161068b90611cd3565b600754600160a01b900460ff161515600114610a1d5760405162461bcd60e51b815260206004820152601f60248201527f506c617479707573566f7465723a6465706f736974732064697361626c656400604482015260640161068b565b610a2681611316565b50565b6060600680546106c590611c52565b60003381610a468286610e06565b905083811015610aa65760405162461bcd60e51b815260206004820152602560248201527f45524332303a2064656372656173656420616c6c6f77616e63652062656c6f77604482015264207a65726f60d81b606482015260840161068b565b610ab38286868403610fb0565b506001949350505050565b735857019c749147eee22b1fe63500f237f3c1b6926001600160a01b0316634e71d92d6040518163ffffffff1660e01b8152600401600060405180830381600087803b158015610b0d57600080fd5b505af1158015610b21573d6000803e3d6000fd5b50505050565b600033610756818585611148565b6007546000906060906001600160a01b03163314610b655760405162461bcd60e51b815260040161068b90611cd3565b600080876001600160a01b0316878787604051610b83929190611d18565b60006040518083038185875af1925050503d8060008114610bc0576040519150601f19603f3d011682016040523d82523d6000602084013e610bc5565b606091505b5090999098509650505050505050565b600754600160a01b900460ff161515600114610c335760405162461bcd60e51b815260206004820152601f60248201527f506c617479707573566f7465723a6465706f736974732064697361626c656400604482015260640161068b565b6040516323b872dd60e01b8152336004820152306024820152604481018290527322d4002028f537599be9f666d1c4fa138522f9c8906323b872dd906064016020604051808303816000875af1158015610c91573d6000803e3d6000fd5b505050506040513d601f19601f82011682018060405250810190610cb59190611d28565b610a1d5760405162461bcd60e51b815260206004820152601e60248201527f506c617479707573566f7465723a3a7472616e73666572206661696c65640000604482015260640161068b565b42841015610d435760405162461bcd60e51b815260206004820152600f60248201526e1c195c9b5a5d0e8e995e1c1a5c9959608a1b604482015260640161068b565b6001600160a01b038716600090815260016020526040812080547f6e71edae12b1b97f4d1f60370fef10105fa2faae0126114a169c64845d6126c9918a918a918a919086610d9083611d45565b909155506040805160208101969096526001600160a01b0394851690860152929091166060840152608083015260a082015260c0810186905260e001604051602081830303815290604052805190602001209050610df188828686866113ef565b610dfc888888610fb0565b5050505050505050565b6001600160a01b03918216600090815260036020908152604080832093909416825291909152205490565b60007f8b73c3c69bb8fe3d512ecc4cf759cc79239f7b179b0ffacaa9a75d522b39400f610e5c6106b6565b80516020909101207fc89efdaa54c0f20c7adf612882df0950f5a951637e0307cdcb4c672f298b8bc646604080516020810195909552840192909252606083015260808201523060a082015260c00160405160208183030381529060405280519060200120905090565b6000546001600160a01b03163314610ef05760405162461bcd60e51b815260040161068b90611c1d565b6001600160a01b038116610f555760405162461bcd60e51b815260206004820152602660248201527f4f776e61626c653a206e6577206f776e657220697320746865207a65726f206160448201526564647265737360d01b606482015260840161068b565b600080546040516001600160a01b03808516939216917f8be0079c531659141344cd1fd0a4f28419497f9722a3daafe3b4186f6b6457e091a3600080546001600160a01b0319166001600160a01b0392909216919091179055565b6001600160a01b0383166110125760405162461bcd60e51b8152602060048201526024808201527f45524332303a20617070726f76652066726f6d20746865207a65726f206164646044820152637265737360e01b606482015260840161068b565b6001600160a01b0382166110735760405162461bcd60e51b815260206004820152602260248201527f45524332303a20617070726f766520746f20746865207a65726f206164647265604482015261737360f01b606482015260840161068b565b6001600160a01b0383811660008181526003602090815260408083209487168084529482529182902085905590518481527f8c5be1e5ebec7d5bd14f71427d1e84f3dd0314c0f7b2291e5b200ac8c7c3b925910160405180910390a3505050565b60006110e08484610e06565b90506000198114610b21578181101561113b5760405162461bcd60e51b815260206004820152601d60248201527f45524332303a20696e73756666696369656e7420616c6c6f77616e6365000000604482015260640161068b565b610b218484848403610fb0565b6001600160a01b0383166111ac5760405162461bcd60e51b815260206004820152602560248201527f45524332303a207472616e736665722066726f6d20746865207a65726f206164604482015264647265737360d81b606482015260840161068b565b6001600160a01b03821661120e5760405162461bcd60e51b815260206004820152602360248201527f45524332303a207472616e7366657220746f20746865207a65726f206164647260448201526265737360e81b606482015260840161068b565b6001600160a01b038316600090815260026020526040902054818110156112865760405162461bcd60e51b815260206004820152602660248201527f45524332303a207472616e7366657220616d6f756e7420657863656564732062604482015265616c616e636560d01b606482015260840161068b565b6001600160a01b038085166000908152600260205260408082208585039055918516815290812080548492906112bd908490611cbb565b92505081905550826001600160a01b0316846001600160a01b03167fddf252ad1be2c89b69c2b068fc378daa952ba7f163c4a11628f55a4df523b3ef8460405161130991815260200190565b60405180910390a3610b21565b6113497322d4002028f537599be9f666d1c4fa138522f9c8735857019c749147eee22b1fe63500f237f3c1b69283611520565b6113533382611657565b60405163b6b55f2560e01b815260048101829052735857019c749147eee22b1fe63500f237f3c1b6929063b6b55f2590602401600060405180830381600087803b1580156113a057600080fd5b505af11580156113b4573d6000803e3d6000fd5b50610a2692507322d4002028f537599be9f666d1c4fa138522f9c89150735857019c749147eee22b1fe63500f237f3c1b69290506000611520565b60006113f9610e31565b60405161190160f01b602082015260228101919091526042810186905260620160408051601f198184030181528282528051602091820120600080855291840180845281905260ff88169284019290925260608301869052608083018590529092509060019060a0016020604051602081039080840390855afa158015611484573d6000803e3d6000fd5b5050604051601f1901519150506001600160a01b038116158015906114ba5750866001600160a01b0316816001600160a01b0316145b6115125760405162461bcd60e51b8152602060048201526024808201527f417263683a3a76616c69646174655369673a20696e76616c6964207369676e616044820152637475726560e01b606482015260840161068b565b50505050505050565b505050565b80158061159a5750604051636eb1769f60e11b81523060048201526001600160a01b03838116602483015284169063dd62ed3e90604401602060405180830381865afa158015611574573d6000803e3d6000fd5b505050506040513d601f19601f820116820180604052508101906115989190611c8c565b155b6116055760405162461bcd60e51b815260206004820152603660248201527f5361666545524332303a20617070726f76652066726f6d206e6f6e2d7a65726f60448201527520746f206e6f6e2d7a65726f20616c6c6f77616e636560501b606482015260840161068b565b604080516001600160a01b038416602482015260448082018490528251808303909101815260649091019091526020810180516001600160e01b031663095ea7b360e01b17905261151b908490611736565b6001600160a01b0382166116ad5760405162461bcd60e51b815260206004820152601f60248201527f45524332303a206d696e7420746f20746865207a65726f206164647265737300604482015260640161068b565b80600460008282546116bf9190611cbb565b90915550506001600160a01b038216600090815260026020526040812080548392906116ec908490611cbb565b90915550506040518181526001600160a01b038316906000907fddf252ad1be2c89b69c2b068fc378daa952ba7f163c4a11628f55a4df523b3ef9060200160405180910390a35050565b600061178b826040518060400160405280602081526020017f5361666545524332303a206c6f772d6c6576656c2063616c6c206661696c6564815250856001600160a01b03166118089092919063ffffffff16565b80519091501561151b57808060200190518101906117a99190611d28565b61151b5760405162461bcd60e51b815260206004820152602a60248201527f5361666545524332303a204552433230206f7065726174696f6e20646964206e6044820152691bdd081cdd58d8d9595960b21b606482015260840161068b565b6060611817848460008561181f565b949350505050565b6060824710156118805760405162461bcd60e51b815260206004820152602660248201527f416464726573733a20696e73756666696369656e742062616c616e636520666f6044820152651c8818d85b1b60d21b606482015260840161068b565b6001600160a01b0385163b6118d75760405162461bcd60e51b815260206004820152601d60248201527f416464726573733a2063616c6c20746f206e6f6e2d636f6e7472616374000000604482015260640161068b565b600080866001600160a01b031685876040516118f39190611d5e565b60006040518083038185875af1925050503d8060008114611930576040519150601f19603f3d011682016040523d82523d6000602084013e611935565b606091505b5091509150611945828286611950565b979650505050505050565b6060831561195f5750816107fa565b82511561196f5782518084602001fd5b8160405162461bcd60e51b815260040161068b9190611a18565b80356001600160a01b03811681146119a057600080fd5b919050565b6000602082840312156119b757600080fd5b6107fa82611989565b60005b838110156119db5781810151838201526020016119c3565b83811115610b215750506000910152565b60008151808452611a048160208601602086016119c0565b601f01601f19169290920160200192915050565b6020815260006107fa60208301846119ec565b60008060408385031215611a3e57600080fd5b611a4783611989565b946020939093013593505050565b600080600060608486031215611a6a57600080fd5b611a7384611989565b9250611a8160208501611989565b9150604084013590509250925092565b8015158114610a2657600080fd5b600060208284031215611ab157600080fd5b81356107fa81611a91565b600060208284031215611ace57600080fd5b5035919050565b60008060008060608587031215611aeb57600080fd5b611af485611989565b935060208501359250604085013567ffffffffffffffff80821115611b1857600080fd5b818701915087601f830112611b2c57600080fd5b813581811115611b3b57600080fd5b886020828501011115611b4d57600080fd5b95989497505060200194505050565b821515815260406020820152600061181760408301846119ec565b600080600080600080600060e0888a031215611b9257600080fd5b611b9b88611989565b9650611ba960208901611989565b95506040880135945060608801359350608088013560ff81168114611bcd57600080fd5b9699959850939692959460a0840135945060c09093013592915050565b60008060408385031215611bfd57600080fd5b611c0683611989565b9150611c1460208401611989565b90509250929050565b6020808252818101527f4f776e61626c653a2063616c6c6572206973206e6f7420746865206f776e6572604082015260600190565b600181811c90821680611c6657607f821691505b602082108103611c8657634e487b7160e01b600052602260045260246000fd5b50919050565b600060208284031215611c9e57600080fd5b5051919050565b634e487b7160e01b600052601160045260246000fd5b60008219821115611cce57611cce611ca5565b500190565b60208082526025908201527f506c617479707573566f7465723a3a6f6e6c79506c617479707573566f74657260408201526450726f787960d81b606082015260800190565b8183823760009101908152919050565b600060208284031215611d3a57600080fd5b81516107fa81611a91565b600060018201611d5757611d57611ca5565b5060010190565b60008251611d708184602087016119c0565b919091019291505056fea264697066735822122084f12bf474b0c866cb66482de9553ab4ae0b0bc933f11cd1438b3c80027fd58764736f6c634300080d00338be0079c531659141344cd1fd0a4f28419497f9722a3daafe3b4186f6b6457e0",
    "linkReferences": {}
  },
  "methodIdentifiers": {
    "DOMAIN_TYPEHASH()": "20606b70",
    "PERMIT_TYPEHASH()": "30adf81f",
    "PTP()": "8dc1564a",
    "VERSION_HASH()": "9e4e7318",
    "allowance(address,address)": "dd62ed3e",
    "approve(address,uint256)": "095ea7b3",
    "balanceOf(address)": "70a08231",
    "claimVePTP()": "a7187122",
    "decimals()": "313ce567",
    "decreaseAllowance(address,uint256)": "a457c2d7",
    "deposit(uint256)": "b6b55f25",
    "depositFromBalance(uint256)": "7c0bb4ab",
    "depositsEnabled()": "5392fd1c",
    "execute(address,uint256,bytes)": "b61d27f6",
    "getDomainSeparator()": "ed24911d",
    "increaseAllowance(address,uint256)": "39509351",
    "name()": "06fdde03",
    "nonces(address)": "7ecebe00",
    "owner()": "8da5cb5b",
    "permit(address,address,uint256,uint256,uint8,bytes32,bytes32)": "d505accf",
    "renounceOwnership()": "715018a6",
    "setVoterProxy(address)": "052cdc0c",
    "symbol()": "95d89b41",
    "totalSupply()": "18160ddd",
    "transfer(address,uint256)": "a9059cbb",
    "transferFrom(address,address,uint256)": "23b872dd",
    "transferOwnership(address)": "f2fde38b",
    "updateDepositsEnabled(bool)": "4e77ace5",
    "vePTP()": "b821da0b",
    "vePTPBalance()": "12963595",
    "voterProxy()": "1ba980b3",
    "wrapAvaxBalance()": "5a556f51"
  },
  "id": 119
}