{
  "abi": [
    {
      "inputs": [
        {
          "internalType": "string",
          "name": "_name",
          "type": "string"
        },
        {
          "internalType": "address",
          "name": "_depositToken",
          "type": "address"
        },
        {
          "internalType": "address",
          "name": "_swapPairDepositToken",
          "type": "address"
        },
        {
          "components": [
            {
              "internalType": "address",
              "name": "reward",
              "type": "address"
            },
            {
              "internalType": "address",
              "name": "swapPair",
              "type": "address"
            }
          ],
          "internalType": "struct VariableRewardsStrategy.RewardSwapPairs[]",
          "name": "_rewardSwapPairs",
          "type": "tuple[]"
        },
        {
          "internalType": "address",
          "name": "_stakingContract",
          "type": "address"
        },
        {
          "internalType": "address",
          "name": "_platypusPool",
          "type": "address"
        },
        {
          "internalType": "uint256",
          "name": "_pid",
          "type": "uint256"
        },
        {
          "internalType": "address",
          "name": "_boosterFeeCollector",
          "type": "address"
        },
        {
          "internalType": "address",
          "name": "_timelock",
          "type": "address"
        },
        {
          "components": [
            {
              "internalType": "uint256",
              "name": "minTokensToReinvest",
              "type": "uint256"
            },
            {
              "internalType": "uint256",
              "name": "devFeeBips",
              "type": "uint256"
            },
            {
              "internalType": "uint256",
              "name": "reinvestRewardBips",
              "type": "uint256"
            }
          ],
          "internalType": "struct YakStrategyV2.StrategySettings",
          "name": "_strategySettings",
          "type": "tuple"
        }
      ],
      "stateMutability": "nonpayable",
      "type": "constructor"
    },
    {
      "anonymous": false,
      "inputs": [
        {
          "indexed": false,
          "internalType": "address",
          "name": "rewardToken",
          "type": "address"
        },
        {
          "indexed": false,
          "internalType": "address",
          "name": "swapPair",
          "type": "address"
        }
      ],
      "name": "AddReward",
      "type": "event"
    },
    {
      "anonymous": false,
      "inputs": [
        {
          "indexed": true,
          "internalType": "address",
          "name": "account",
          "type": "address"
        }
      ],
      "name": "AllowDepositor",
      "type": "event"
    },
    {
      "anonymous": false,
      "inputs": [
        {
          "indexed": true,
          "internalType": "address",
          "name": "owner",
          "type": "address"
        },
        {
          "indexed": true,
          "internalType": "address",
          "name": "spender",
          "type": "address"
        },
        {
          "indexed": false,
          "internalType": "uint256",
          "name": "value",
          "type": "uint256"
        }
      ],
      "name": "Approval",
      "type": "event"
    },
    {
      "anonymous": false,
      "inputs": [
        {
          "indexed": true,
          "internalType": "address",
          "name": "account",
          "type": "address"
        },
        {
          "indexed": false,
          "internalType": "uint256",
          "name": "amount",
          "type": "uint256"
        }
      ],
      "name": "Deposit",
      "type": "event"
    },
    {
      "anonymous": false,
      "inputs": [
        {
          "indexed": false,
          "internalType": "bool",
          "name": "newValue",
          "type": "bool"
        }
      ],
      "name": "DepositsEnabled",
      "type": "event"
    },
    {
      "anonymous": false,
      "inputs": [
        {
          "indexed": true,
          "internalType": "address",
          "name": "previousOwner",
          "type": "address"
        },
        {
          "indexed": true,
          "internalType": "address",
          "name": "newOwner",
          "type": "address"
        }
      ],
      "name": "OwnershipTransferred",
      "type": "event"
    },
    {
      "anonymous": false,
      "inputs": [
        {
          "indexed": false,
          "internalType": "address",
          "name": "token",
          "type": "address"
        },
        {
          "indexed": false,
          "internalType": "uint256",
          "name": "amount",
          "type": "uint256"
        }
      ],
      "name": "Recovered",
      "type": "event"
    },
    {
      "anonymous": false,
      "inputs": [
        {
          "indexed": false,
          "internalType": "uint256",
          "name": "newTotalDeposits",
          "type": "uint256"
        },
        {
          "indexed": false,
          "internalType": "uint256",
          "name": "newTotalSupply",
          "type": "uint256"
        }
      ],
      "name": "Reinvest",
      "type": "event"
    },
    {
      "anonymous": false,
      "inputs": [
        {
          "indexed": true,
          "internalType": "address",
          "name": "account",
          "type": "address"
        }
      ],
      "name": "RemoveDepositor",
      "type": "event"
    },
    {
      "anonymous": false,
      "inputs": [
        {
          "indexed": false,
          "internalType": "address",
          "name": "rewardToken",
          "type": "address"
        }
      ],
      "name": "RemoveReward",
      "type": "event"
    },
    {
      "anonymous": false,
      "inputs": [
        {
          "indexed": true,
          "internalType": "address",
          "name": "from",
          "type": "address"
        },
        {
          "indexed": true,
          "internalType": "address",
          "name": "to",
          "type": "address"
        },
        {
          "indexed": false,
          "internalType": "uint256",
          "name": "value",
          "type": "uint256"
        }
      ],
      "name": "Transfer",
      "type": "event"
    },
    {
      "anonymous": false,
      "inputs": [
        {
          "indexed": false,
          "internalType": "uint256",
          "name": "oldValue",
          "type": "uint256"
        },
        {
          "indexed": false,
          "internalType": "uint256",
          "name": "newValue",
          "type": "uint256"
        }
      ],
      "name": "UpdateAdminFee",
      "type": "event"
    },
    {
      "anonymous": false,
      "inputs": [
        {
          "indexed": false,
          "internalType": "address",
          "name": "oldValue",
          "type": "address"
        },
        {
          "indexed": false,
          "internalType": "address",
          "name": "newValue",
          "type": "address"
        }
      ],
      "name": "UpdateDevAddr",
      "type": "event"
    },
    {
      "anonymous": false,
      "inputs": [
        {
          "indexed": false,
          "internalType": "uint256",
          "name": "oldValue",
          "type": "uint256"
        },
        {
          "indexed": false,
          "internalType": "uint256",
          "name": "newValue",
          "type": "uint256"
        }
      ],
      "name": "UpdateDevFee",
      "type": "event"
    },
    {
      "anonymous": false,
      "inputs": [
        {
          "indexed": false,
          "internalType": "uint256",
          "name": "oldValue",
          "type": "uint256"
        },
        {
          "indexed": false,
          "internalType": "uint256",
          "name": "newValue",
          "type": "uint256"
        }
      ],
      "name": "UpdateMaxTokensToDepositWithoutReinvest",
      "type": "event"
    },
    {
      "anonymous": false,
      "inputs": [
        {
          "indexed": false,
          "internalType": "uint256",
          "name": "oldValue",
          "type": "uint256"
        },
        {
          "indexed": false,
          "internalType": "uint256",
          "name": "newValue",
          "type": "uint256"
        }
      ],
      "name": "UpdateMinTokensToReinvest",
      "type": "event"
    },
    {
      "anonymous": false,
      "inputs": [
        {
          "indexed": false,
          "internalType": "uint256",
          "name": "oldValue",
          "type": "uint256"
        },
        {
          "indexed": false,
          "internalType": "uint256",
          "name": "newValue",
          "type": "uint256"
        }
      ],
      "name": "UpdateReinvestReward",
      "type": "event"
    },
    {
      "anonymous": false,
      "inputs": [
        {
          "indexed": true,
          "internalType": "address",
          "name": "account",
          "type": "address"
        },
        {
          "indexed": false,
          "internalType": "uint256",
          "name": "amount",
          "type": "uint256"
        }
      ],
      "name": "Withdraw",
      "type": "event"
    },
    {
      "inputs": [],
      "name": "ADMIN_FEE_BIPS",
      "outputs": [
        {
          "internalType": "uint256",
          "name": "",
          "type": "uint256"
        }
      ],
      "stateMutability": "view",
      "type": "function"
    },
    {
      "inputs": [],
      "name": "DEPOSITS_ENABLED",
      "outputs": [
        {
          "internalType": "bool",
          "name": "",
          "type": "bool"
        }
      ],
      "stateMutability": "view",
      "type": "function"
    },
    {
      "inputs": [],
      "name": "DEV_FEE_BIPS",
      "outputs": [
        {
          "internalType": "uint256",
          "name": "",
          "type": "uint256"
        }
      ],
      "stateMutability": "view",
      "type": "function"
    },
    {
      "inputs": [],
      "name": "DOMAIN_TYPEHASH",
      "outputs": [
        {
          "internalType": "bytes32",
          "name": "",
          "type": "bytes32"
        }
      ],
      "stateMutability": "view",
      "type": "function"
    },
    {
      "inputs": [],
      "name": "MAX_TOKENS_TO_DEPOSIT_WITHOUT_REINVEST",
      "outputs": [
        {
          "internalType": "uint256",
          "name": "",
          "type": "uint256"
        }
      ],
      "stateMutability": "view",
      "type": "function"
    },
    {
      "inputs": [],
      "name": "MIN_TOKENS_TO_REINVEST",
      "outputs": [
        {
          "internalType": "uint256",
          "name": "",
          "type": "uint256"
        }
      ],
      "stateMutability": "view",
      "type": "function"
    },
    {
      "inputs": [],
      "name": "PERMIT_TYPEHASH",
      "outputs": [
        {
          "internalType": "bytes32",
          "name": "",
          "type": "bytes32"
        }
      ],
      "stateMutability": "view",
      "type": "function"
    },
    {
      "inputs": [],
      "name": "PID",
      "outputs": [
        {
          "internalType": "uint256",
          "name": "",
          "type": "uint256"
        }
      ],
      "stateMutability": "view",
      "type": "function"
    },
    {
      "inputs": [],
      "name": "REINVEST_REWARD_BIPS",
      "outputs": [
        {
          "internalType": "uint256",
          "name": "",
          "type": "uint256"
        }
      ],
      "stateMutability": "view",
      "type": "function"
    },
    {
      "inputs": [],
      "name": "VERSION_HASH",
      "outputs": [
        {
          "internalType": "bytes32",
          "name": "",
          "type": "bytes32"
        }
      ],
      "stateMutability": "view",
      "type": "function"
    },
    {
      "inputs": [
        {
          "internalType": "address",
          "name": "_rewardToken",
          "type": "address"
        },
        {
          "internalType": "address",
          "name": "_swapPair",
          "type": "address"
        }
      ],
      "name": "addReward",
      "outputs": [],
      "stateMutability": "nonpayable",
      "type": "function"
    },
    {
      "inputs": [
        {
          "internalType": "address",
          "name": "depositor",
          "type": "address"
        }
      ],
      "name": "allowDepositor",
      "outputs": [],
      "stateMutability": "nonpayable",
      "type": "function"
    },
    {
      "inputs": [
        {
          "internalType": "address",
          "name": "account",
          "type": "address"
        },
        {
          "internalType": "address",
          "name": "spender",
          "type": "address"
        }
      ],
      "name": "allowance",
      "outputs": [
        {
          "internalType": "uint256",
          "name": "",
          "type": "uint256"
        }
      ],
      "stateMutability": "view",
      "type": "function"
    },
    {
      "inputs": [
        {
          "internalType": "address",
          "name": "",
          "type": "address"
        }
      ],
      "name": "allowedDepositors",
      "outputs": [
        {
          "internalType": "bool",
          "name": "",
          "type": "bool"
        }
      ],
      "stateMutability": "view",
      "type": "function"
    },
    {
      "inputs": [
        {
          "internalType": "address",
          "name": "spender",
          "type": "address"
        },
        {
          "internalType": "uint256",
          "name": "amount",
          "type": "uint256"
        }
      ],
      "name": "approve",
      "outputs": [
        {
          "internalType": "bool",
          "name": "",
          "type": "bool"
        }
      ],
      "stateMutability": "nonpayable",
      "type": "function"
    },
    {
      "inputs": [
        {
          "internalType": "address",
          "name": "account",
          "type": "address"
        }
      ],
      "name": "balanceOf",
      "outputs": [
        {
          "internalType": "uint256",
          "name": "",
          "type": "uint256"
        }
      ],
      "stateMutability": "view",
      "type": "function"
    },
    {
      "inputs": [],
      "name": "boosterFeeCollector",
      "outputs": [
        {
          "internalType": "contract IBoosterFeeCollector",
          "name": "",
          "type": "address"
        }
      ],
      "stateMutability": "view",
      "type": "function"
    },
    {
      "inputs": [
        {
          "internalType": "uint256",
          "name": "_amount",
          "type": "uint256"
        }
      ],
      "name": "calculateDepositFee",
      "outputs": [
        {
          "internalType": "uint256",
          "name": "",
          "type": "uint256"
        }
      ],
      "stateMutability": "view",
      "type": "function"
    },
    {
      "inputs": [
        {
          "internalType": "uint256",
          "name": "_amount",
          "type": "uint256"
        }
      ],
      "name": "calculateWithdrawFee",
      "outputs": [
        {
          "internalType": "uint256",
          "name": "",
          "type": "uint256"
        }
      ],
      "stateMutability": "view",
      "type": "function"
    },
    {
      "inputs": [],
      "name": "checkReward",
      "outputs": [
        {
          "internalType": "uint256",
          "name": "",
          "type": "uint256"
        }
      ],
      "stateMutability": "view",
      "type": "function"
    },
    {
      "inputs": [],
      "name": "decimals",
      "outputs": [
        {
          "internalType": "uint8",
          "name": "",
          "type": "uint8"
        }
      ],
      "stateMutability": "view",
      "type": "function"
    },
    {
      "inputs": [
        {
          "internalType": "uint256",
          "name": "_amount",
          "type": "uint256"
        }
      ],
      "name": "deposit",
      "outputs": [],
      "stateMutability": "nonpayable",
      "type": "function"
    },
    {
      "inputs": [
        {
          "internalType": "address",
          "name": "_account",
          "type": "address"
        },
        {
          "internalType": "uint256",
          "name": "_amount",
          "type": "uint256"
        }
      ],
      "name": "depositFor",
      "outputs": [],
      "stateMutability": "nonpayable",
      "type": "function"
    },
    {
      "inputs": [],
      "name": "depositToken",
      "outputs": [
        {
          "internalType": "contract IERC20",
          "name": "",
          "type": "address"
        }
      ],
      "stateMutability": "view",
      "type": "function"
    },
    {
      "inputs": [
        {
          "internalType": "uint256",
          "name": "_amount",
          "type": "uint256"
        },
        {
          "internalType": "uint256",
          "name": "_deadline",
          "type": "uint256"
        },
        {
          "internalType": "uint8",
          "name": "_v",
          "type": "uint8"
        },
        {
          "internalType": "bytes32",
          "name": "_r",
          "type": "bytes32"
        },
        {
          "internalType": "bytes32",
          "name": "_s",
          "type": "bytes32"
        }
      ],
      "name": "depositWithPermit",
      "outputs": [],
      "stateMutability": "nonpayable",
      "type": "function"
    },
    {
      "inputs": [],
      "name": "devAddr",
      "outputs": [
        {
          "internalType": "address",
          "name": "",
          "type": "address"
        }
      ],
      "stateMutability": "view",
      "type": "function"
    },
    {
      "inputs": [],
      "name": "echidnaBooster",
      "outputs": [
        {
          "internalType": "contract IEchidnaBooster",
          "name": "",
          "type": "address"
        }
      ],
      "stateMutability": "view",
      "type": "function"
    },
    {
      "inputs": [],
      "name": "estimateDeployedBalance",
      "outputs": [
        {
          "internalType": "uint256",
          "name": "",
          "type": "uint256"
        }
      ],
      "stateMutability": "view",
      "type": "function"
    },
    {
      "inputs": [],
      "name": "estimateReinvestReward",
      "outputs": [
        {
          "internalType": "uint256",
          "name": "",
          "type": "uint256"
        }
      ],
      "stateMutability": "view",
      "type": "function"
    },
    {
      "inputs": [
        {
          "internalType": "uint256",
          "name": "amount",
          "type": "uint256"
        }
      ],
      "name": "getDepositTokensForShares",
      "outputs": [
        {
          "internalType": "uint256",
          "name": "",
          "type": "uint256"
        }
      ],
      "stateMutability": "view",
      "type": "function"
    },
    {
      "inputs": [],
      "name": "getDomainSeparator",
      "outputs": [
        {
          "internalType": "bytes32",
          "name": "",
          "type": "bytes32"
        }
      ],
      "stateMutability": "view",
      "type": "function"
    },
    {
      "inputs": [
        {
          "internalType": "uint256",
          "name": "amount",
          "type": "uint256"
        }
      ],
      "name": "getSharesForDepositTokens",
      "outputs": [
        {
          "internalType": "uint256",
          "name": "",
          "type": "uint256"
        }
      ],
      "stateMutability": "view",
      "type": "function"
    },
    {
      "inputs": [],
      "name": "name",
      "outputs": [
        {
          "internalType": "string",
          "name": "",
          "type": "string"
        }
      ],
      "stateMutability": "view",
      "type": "function"
    },
    {
      "inputs": [
        {
          "internalType": "address",
          "name": "",
          "type": "address"
        }
      ],
      "name": "nonces",
      "outputs": [
        {
          "internalType": "uint256",
          "name": "",
          "type": "uint256"
        }
      ],
      "stateMutability": "view",
      "type": "function"
    },
    {
      "inputs": [],
      "name": "numberOfAllowedDepositors",
      "outputs": [
        {
          "internalType": "uint256",
          "name": "",
          "type": "uint256"
        }
      ],
      "stateMutability": "view",
      "type": "function"
    },
    {
      "inputs": [],
      "name": "owner",
      "outputs": [
        {
          "internalType": "address",
          "name": "",
          "type": "address"
        }
      ],
      "stateMutability": "view",
      "type": "function"
    },
    {
      "inputs": [
        {
          "internalType": "address",
          "name": "owner",
          "type": "address"
        },
        {
          "internalType": "address",
          "name": "spender",
          "type": "address"
        },
        {
          "internalType": "uint256",
          "name": "value",
          "type": "uint256"
        },
        {
          "internalType": "uint256",
          "name": "deadline",
          "type": "uint256"
        },
        {
          "internalType": "uint8",
          "name": "v",
          "type": "uint8"
        },
        {
          "internalType": "bytes32",
          "name": "r",
          "type": "bytes32"
        },
        {
          "internalType": "bytes32",
          "name": "s",
          "type": "bytes32"
        }
      ],
      "name": "permit",
      "outputs": [],
      "stateMutability": "nonpayable",
      "type": "function"
    },
    {
      "inputs": [],
      "name": "platypusAsset",
      "outputs": [
        {
          "internalType": "contract IPlatypusAsset",
          "name": "",
          "type": "address"
        }
      ],
      "stateMutability": "view",
      "type": "function"
    },
    {
      "inputs": [],
      "name": "platypusPool",
      "outputs": [
        {
          "internalType": "contract IPlatypusPool",
          "name": "",
          "type": "address"
        }
      ],
      "stateMutability": "view",
      "type": "function"
    },
    {
      "inputs": [
        {
          "internalType": "uint256",
          "name": "amount",
          "type": "uint256"
        }
      ],
      "name": "recoverAVAX",
      "outputs": [],
      "stateMutability": "nonpayable",
      "type": "function"
    },
    {
      "inputs": [
        {
          "internalType": "address",
          "name": "tokenAddress",
          "type": "address"
        },
        {
          "internalType": "uint256",
          "name": "tokenAmount",
          "type": "uint256"
        }
      ],
      "name": "recoverERC20",
      "outputs": [],
      "stateMutability": "nonpayable",
      "type": "function"
    },
    {
      "inputs": [],
      "name": "reinvest",
      "outputs": [],
      "stateMutability": "nonpayable",
      "type": "function"
    },
    {
      "inputs": [
        {
          "internalType": "address",
          "name": "depositor",
          "type": "address"
        }
      ],
      "name": "removeDepositor",
      "outputs": [],
      "stateMutability": "nonpayable",
      "type": "function"
    },
    {
      "inputs": [
        {
          "internalType": "address",
          "name": "_rewardToken",
          "type": "address"
        }
      ],
      "name": "removeReward",
      "outputs": [],
      "stateMutability": "nonpayable",
      "type": "function"
    },
    {
      "inputs": [],
      "name": "renounceOwnership",
      "outputs": [],
      "stateMutability": "nonpayable",
      "type": "function"
    },
    {
      "inputs": [
        {
          "internalType": "uint256",
          "name": "_minReturnAmountAccepted",
          "type": "uint256"
        },
        {
          "internalType": "bool",
          "name": "",
          "type": "bool"
        }
      ],
      "name": "rescueDeployedFunds",
      "outputs": [],
      "stateMutability": "nonpayable",
      "type": "function"
    },
    {
      "inputs": [
        {
          "internalType": "address",
          "name": "token",
          "type": "address"
        },
        {
          "internalType": "address",
          "name": "spender",
          "type": "address"
        }
      ],
      "name": "revokeAllowance",
      "outputs": [],
      "stateMutability": "nonpayable",
      "type": "function"
    },
    {
      "inputs": [],
      "name": "rewardCount",
      "outputs": [
        {
          "internalType": "uint256",
          "name": "",
          "type": "uint256"
        }
      ],
      "stateMutability": "view",
      "type": "function"
    },
    {
      "inputs": [
        {
          "internalType": "address",
          "name": "",
          "type": "address"
        }
      ],
      "name": "rewardSwapPairs",
      "outputs": [
        {
          "internalType": "address",
          "name": "",
          "type": "address"
        }
      ],
      "stateMutability": "view",
      "type": "function"
    },
    {
      "inputs": [],
      "name": "rewardToken",
      "outputs": [
        {
          "internalType": "contract IERC20",
          "name": "",
          "type": "address"
        }
      ],
      "stateMutability": "view",
      "type": "function"
    },
    {
      "inputs": [
        {
          "internalType": "uint256",
          "name": "",
          "type": "uint256"
        }
      ],
      "name": "supportedRewards",
      "outputs": [
        {
          "internalType": "address",
          "name": "",
          "type": "address"
        }
      ],
      "stateMutability": "view",
      "type": "function"
    },
    {
      "inputs": [],
      "name": "symbol",
      "outputs": [
        {
          "internalType": "string",
          "name": "",
          "type": "string"
        }
      ],
      "stateMutability": "view",
      "type": "function"
    },
    {
      "inputs": [],
      "name": "totalDeposits",
      "outputs": [
        {
          "internalType": "uint256",
          "name": "",
          "type": "uint256"
        }
      ],
      "stateMutability": "view",
      "type": "function"
    },
    {
      "inputs": [],
      "name": "totalSupply",
      "outputs": [
        {
          "internalType": "uint256",
          "name": "",
          "type": "uint256"
        }
      ],
      "stateMutability": "view",
      "type": "function"
    },
    {
      "inputs": [
        {
          "internalType": "address",
          "name": "dst",
          "type": "address"
        },
        {
          "internalType": "uint256",
          "name": "amount",
          "type": "uint256"
        }
      ],
      "name": "transfer",
      "outputs": [
        {
          "internalType": "bool",
          "name": "",
          "type": "bool"
        }
      ],
      "stateMutability": "nonpayable",
      "type": "function"
    },
    {
      "inputs": [
        {
          "internalType": "address",
          "name": "src",
          "type": "address"
        },
        {
          "internalType": "address",
          "name": "dst",
          "type": "address"
        },
        {
          "internalType": "uint256",
          "name": "amount",
          "type": "uint256"
        }
      ],
      "name": "transferFrom",
      "outputs": [
        {
          "internalType": "bool",
          "name": "",
          "type": "bool"
        }
      ],
      "stateMutability": "nonpayable",
      "type": "function"
    },
    {
      "inputs": [
        {
          "internalType": "address",
          "name": "newOwner",
          "type": "address"
        }
      ],
      "name": "transferOwnership",
      "outputs": [],
      "stateMutability": "nonpayable",
      "type": "function"
    },
    {
      "inputs": [
        {
          "internalType": "uint256",
          "name": "newValue",
          "type": "uint256"
        }
      ],
      "name": "updateAdminFee",
      "outputs": [],
      "stateMutability": "nonpayable",
      "type": "function"
    },
    {
      "inputs": [
        {
          "internalType": "address",
          "name": "_collector",
          "type": "address"
        }
      ],
      "name": "updateBoosterFeeCollector",
      "outputs": [],
      "stateMutability": "nonpayable",
      "type": "function"
    },
    {
      "inputs": [
        {
          "internalType": "bool",
          "name": "newValue",
          "type": "bool"
        }
      ],
      "name": "updateDepositsEnabled",
      "outputs": [],
      "stateMutability": "nonpayable",
      "type": "function"
    },
    {
      "inputs": [
        {
          "internalType": "address",
          "name": "newValue",
          "type": "address"
        }
      ],
      "name": "updateDevAddr",
      "outputs": [],
      "stateMutability": "nonpayable",
      "type": "function"
    },
    {
      "inputs": [
        {
          "internalType": "uint256",
          "name": "newValue",
          "type": "uint256"
        }
      ],
      "name": "updateDevFee",
      "outputs": [],
      "stateMutability": "nonpayable",
      "type": "function"
    },
    {
      "inputs": [
        {
          "internalType": "uint256",
          "name": "newValue",
          "type": "uint256"
        }
      ],
      "name": "updateMaxTokensToDepositWithoutReinvest",
      "outputs": [],
      "stateMutability": "nonpayable",
      "type": "function"
    },
    {
      "inputs": [
        {
          "internalType": "uint256",
          "name": "newValue",
          "type": "uint256"
        }
      ],
      "name": "updateMinTokensToReinvest",
      "outputs": [],
      "stateMutability": "nonpayable",
      "type": "function"
    },
    {
      "inputs": [
        {
          "internalType": "uint256",
          "name": "newValue",
          "type": "uint256"
        }
      ],
      "name": "updateReinvestReward",
      "outputs": [],
      "stateMutability": "nonpayable",
      "type": "function"
    },
    {
      "inputs": [
        {
          "internalType": "uint256",
          "name": "_amount",
          "type": "uint256"
        }
      ],
      "name": "withdraw",
      "outputs": [],
      "stateMutability": "nonpayable",
      "type": "function"
    }
  ],
  "bytecode": {
    "object": "0x6101406040526009610100819052685969656c642059616b60b81b6101209081526200002f916000919062000b5e565b506040805180820190915260038082526216549560ea1b60209092019182526200005c9160019162000b5e565b503480156200006a57600080fd5b50604051620063cc380380620063cc8339810160408190526200008d9162000e4a565b898989898585858584848480600033600680546001600160a01b0319166001600160a01b03831690811790915560405191925090600090600080516020620063ac833981519152908290a3508051620000e6906200030e565b6020810151620000f6906200039e565b6040810151620001069062000455565b5084516200011c90600090602088019062000b5e565b50600980546001600160a01b0386166001600160a01b031991821617909155600a8054821673b31f66aa3c1e785363f0875a1b74e27b85fd66c7179055600b8054909116732d580f9cf2fb2d09bc411532988f2afda4e7beff17905560005b8351811015620001ec57620001d78482815181106200019e576200019e62000f43565b602002602001015160000151858381518110620001bf57620001bf62000f43565b6020026020010151602001516200050c60201b60201c565b80620001e38162000f6f565b9150506200017b565b50620001f9600162000695565b62000204826200073f565b60408051600080825260208201527fc7606d21ac05cd309191543e409f0845c016120563783d70e4f41419dc0ef234910160405180910390a1505050505062000253846200083c60201b60201c565b50505060808790525050506001600160a01b0385811660c081905287821660a0526040516371f9621160e01b8152918b166004830152906371f9621190602401602060405180830381865afa158015620002b1573d6000803e3d6000fd5b505050506040513d601f19601f82011682018060405250810190620002d7919062000f8b565b6001600160a01b0390811660e052601680546001600160a01b03191694909116939093179092555062001000975050505050505050565b6006546001600160a01b031633146200035d5760405162461bcd60e51b815260206004820181905260248201526000805160206200638c83398151915260448201526064015b60405180910390fd5b600c5460408051918252602082018390527f481f79ac3a523b6d6db3c5a720e190e986d1cc1b41adcdf50f9caef849901100910160405180910390a1600c55565b6006546001600160a01b03163314620003e95760405162461bcd60e51b815260206004820181905260248201526000805160206200638c833981519152604482015260640162000354565b61271062000408601054836200092460201b620021ec1790919060201c565b11156200041457600080fd5b60115460408051918252602082018390527f2a42303d002f0ba6cfe8259c91d4684443fb0b3de286ba74991175d651726131910160405180910390a1601155565b6006546001600160a01b03163314620004a05760405162461bcd60e51b815260206004820181905260248201526000805160206200638c833981519152604482015260640162000354565b612710620004bf601154836200092460201b620021ec1790919060201c565b1115620004cb57600080fd5b60105460408051918252602082018390527fe7f97d51d307dc44045597c9978bec0f842e6bb40d19b9444084cfa30d9ed4f2910160405180910390a1601055565b600a546001600160a01b03838116911614620005c5576200054f8183600a60009054906101000a90046001600160a01b03166200093960201b620021f81760201c565b620005c5576040805162461bcd60e51b81526020600482015260248101919091527f5661726961626c655265776172647353747261746567793a3a5377617020706160448201527f697220646f6573206e6f7420636f6e7461696e2072657761726420746f6b656e606482015260840162000354565b6001600160a01b038083166000818152601260209081526040822080549486166001600160a01b03199586161790556013805460018181018355919093527f66de8ffda797e3de9c05e8fc57b3bf0ec28a930d40b0d285d93c06501cf6a09090920180549094169092179092556014546200064b929091620021ec62000924821b17901c565b601455604080516001600160a01b038085168252831660208201527f916e172c080569186aa7ea048268267257cf7cc49505908863f747bca8620f80910160405180910390a15050565b6006546001600160a01b03163314620006e05760405162461bcd60e51b815260206004820181905260248201526000805160206200638c833981519152604482015260640162000354565b600e5481151560ff909116151503620006f857600080fd5b600e805460ff19168215159081179091556040519081527f7b014ed3854e7f5cb0218d58b3c6ae7d53a68bb0af2f67bfb029ea42c38a7e859060200160405180910390a150565b6006546001600160a01b031633146200078a5760405162461bcd60e51b815260206004820181905260248201526000805160206200638c833981519152604482015260640162000354565b6001600160a01b038116620007f15760405162461bcd60e51b815260206004820152602660248201527f4f776e61626c653a206e6577206f776e657220697320746865207a65726f206160448201526564647265737360d01b606482015260840162000354565b6006546040516001600160a01b03808416921690600080516020620063ac83398151915290600090a3600680546001600160a01b0319166001600160a01b0392909216919091179055565b600954600a54620008689183916001600160a01b03918216911662000939602090811b620021f817901c565b620009025760405162461bcd60e51b815260206004820152605a60248201527f5661726961626c65526577617264735374726174656779466f7253413a3a737760448201527f6170506169724465706f736974546f6b656e20646f6573206e6f74206d61746360648201527f68206465706f73697420616e642072657761726420746f6b656e000000000000608482015260a40162000354565b601580546001600160a01b0319166001600160a01b0392909216919091179055565b600062000932828462000fa9565b9392505050565b6000836001600160a01b0316630dfe16816040518163ffffffff1660e01b8152600401602060405180830381865afa1580156200097a573d6000803e3d6000fd5b505050506040513d601f19601f82011682018060405250810190620009a0919062000f8b565b6001600160a01b0316836001600160a01b0316148062000a355750836001600160a01b031663d21220a76040518163ffffffff1660e01b8152600401602060405180830381865afa158015620009fa573d6000803e3d6000fd5b505050506040513d601f19601f8201168201806040525081019062000a20919062000f8b565b6001600160a01b0316836001600160a01b0316145b801562000b375750836001600160a01b0316630dfe16816040518163ffffffff1660e01b8152600401602060405180830381865afa15801562000a7c573d6000803e3d6000fd5b505050506040513d601f19601f8201168201806040525081019062000aa2919062000f8b565b6001600160a01b0316826001600160a01b0316148062000b375750836001600160a01b031663d21220a76040518163ffffffff1660e01b8152600401602060405180830381865afa15801562000afc573d6000803e3d6000fd5b505050506040513d601f19601f8201168201806040525081019062000b22919062000f8b565b6001600160a01b0316826001600160a01b0316145b801562000b565750816001600160a01b0316836001600160a01b031614155b949350505050565b82805462000b6c9062000fc4565b90600052602060002090601f01602090048101928262000b90576000855562000bdb565b82601f1062000bab57805160ff191683800117855562000bdb565b8280016001018555821562000bdb579182015b8281111562000bdb57825182559160200191906001019062000bbe565b5062000be992915062000bed565b5090565b5b8082111562000be9576000815560010162000bee565b634e487b7160e01b600052604160045260246000fd5b604080519081016001600160401b038111828210171562000c3f5762000c3f62000c04565b60405290565b604051601f8201601f191681016001600160401b038111828210171562000c705762000c7062000c04565b604052919050565b600082601f83011262000c8a57600080fd5b81516001600160401b0381111562000ca65762000ca662000c04565b602062000cbc601f8301601f1916820162000c45565b828152858284870101111562000cd157600080fd5b60005b8381101562000cf157858101830151828201840152820162000cd4565b8381111562000d035760008385840101525b5095945050505050565b80516001600160a01b038116811462000d2557600080fd5b919050565b600082601f83011262000d3c57600080fd5b815160206001600160401b0382111562000d5a5762000d5a62000c04565b62000d6a818360051b0162000c45565b82815260069290921b8401810191818101908684111562000d8a57600080fd5b8286015b8481101562000de0576040818903121562000da95760008081fd5b62000db362000c1a565b62000dbe8262000d0d565b815262000dcd85830162000d0d565b8186015283529183019160400162000d8e565b509695505050505050565b60006060828403121562000dfe57600080fd5b604051606081016001600160401b038111828210171562000e235762000e2362000c04565b80604052508091508251815260208301516020820152604083015160408201525092915050565b6000806000806000806000806000806101808b8d03121562000e6b57600080fd5b8a516001600160401b038082111562000e8357600080fd5b62000e918e838f0162000c78565b9b5062000ea160208e0162000d0d565b9a5062000eb160408e0162000d0d565b995060608d015191508082111562000ec857600080fd5b5062000ed78d828e0162000d2a565b97505062000ee860808c0162000d0d565b955062000ef860a08c0162000d0d565b945060c08b0151935062000f0f60e08c0162000d0d565b925062000f206101008c0162000d0d565b915062000f328c6101208d0162000deb565b90509295989b9194979a5092959850565b634e487b7160e01b600052603260045260246000fd5b634e487b7160e01b600052601160045260246000fd5b60006001820162000f845762000f8462000f59565b5060010190565b60006020828403121562000f9e57600080fd5b620009328262000d0d565b6000821982111562000fbf5762000fbf62000f59565b500190565b600181811c9082168062000fd957607f821691505b60208210810362000ffa57634e487b7160e01b600052602260045260246000fd5b50919050565b60805160a05160c05160e05161529c620010f0600039600081816105d8015281816126c1015281816128f801528181612a5a015281816141be015281816143d0015261452f01526000818161074101528181611132015281816126a00152818161286101528181612925015281816129d101528181612a870152818161420d015281816142b2015261434a015260008181610835015281816127e101528181612fbb0152818161305801528181613197015281816143fd015281816144b6015261455e0152600081816106080152818161279401528181612f880152818161314a015261447a015261529c6000f3fe608060405234801561001057600080fd5b50600436106103e65760003560e01c80638980f11f1161020a578063b9e57b8011610125578063dd62ed3e116100b8578063eab89a5a11610087578063eab89a5a1461091d578063ed24911d14610930578063f2fde38b14610938578063f7c618c11461094b578063fdb5a03e1461095e57600080fd5b8063dd62ed3e146108ab578063dd8ce4d6146108e4578063e21ac825146108f7578063e75ab0451461090a57600080fd5b8063c89039c5116100f4578063c89039c51461085f578063cff1b6ef14610872578063d505accf14610885578063da09c72c1461089857600080fd5b8063b9e57b801461081f578063bd079f5514610827578063c1d8a4c514610830578063c4b24a461461085757600080fd5b80639e4e73181161019d578063a9059cbb1161016c578063a9059cbb146107d9578063ac0d31ff146107ec578063b52a321f146107ff578063b6b55f251461080c57600080fd5b80639e4e731814610763578063a4d5e67c1461078a578063a5534e711461079d578063a8ae2b7c146107c657600080fd5b80639291d563116101d95780639291d5631461070e57806395d89b411461072157806399729ec1146107295780639a222a891461073c57600080fd5b80638980f11f146106ce5780638aff733d146106e15780638b73e606146106ea5780638da5cb5b146106fd57600080fd5b8063483c2ef0116103055780636c8b4b5211610298578063790854251161026757806379085425146106775780637ae26773146106805780637d882097146106935780637ecebe001461069b57806381837230146106bb57600080fd5b80636c8b4b521461062a57806370a082311461063d578063715018a614610666578063789139bc1461066e57600080fd5b80634ebb7916116102d45780634ebb7916146105c057806358822000146105d35780635ea682ea146105fa5780635eaec0e41461060357600080fd5b8063483c2ef0146105645780634a970be7146105875780634bebd1e71461059a5780634e77ace5146105ad57600080fd5b806323b872dd1161037d57806330adf81f1161034c57806330adf81f14610507578063313ce5671461052e5780633bdc6e721461054857806340b47e1a1461055157600080fd5b806323b872dd146104b9578063247d284b146104cc5780632e1a7d4d146104df5780632f4f21e2146104f457600080fd5b80630fccc400116103b95780630fccc4001461044b578063110560351461047657806318160ddd1461048957806320606b701461049257600080fd5b806306fdde03146103eb5780630767711114610409578063095ea7b3146104205780630f23475d14610443575b600080fd5b6103f3610966565b6040516104009190614b9e565b60405180910390f35b610412600f5481565b604051908152602001610400565b61043361042e366004614bc6565b6109f4565b6040519015158152602001610400565b610412610a0b565b60165461045e906001600160a01b031681565b6040516001600160a01b039091168152602001610400565b610412610484366004614bf2565b610a36565b61041260025481565b6104127f8b73c3c69bb8fe3d512ecc4cf759cc79239f7b179b0ffacaa9a75d522b39400f81565b6104336104c7366004614c0b565b610a41565b6104126104da366004614bf2565b610b25565b6104f26104ed366004614bf2565b610b30565b005b6104f2610502366004614bc6565b610c2b565b6104127f6e71edae12b1b97f4d1f60370fef10105fa2faae0126114a169c64845d6126c981565b610536601281565b60405160ff9091168152602001610400565b61041260075481565b6104f261055f366004614c4c565b610c39565b610433610572366004614c85565b60086020526000908152604090205460ff1681565b6104f2610595366004614cb8565b610c6d565b6104f26105a8366004614c85565b610d06565b6104f26105bb366004614d0d565b610e05565b6104f26105ce366004614bf2565b610e8e565b61045e7f000000000000000000000000000000000000000000000000000000000000000081565b61041260115481565b6104127f000000000000000000000000000000000000000000000000000000000000000081565b6104f2610638366004614c85565b610f25565b61041261064b366004614c85565b6001600160a01b031660009081526004602052604090205490565b6104f2610f71565b610412600d5481565b61041260145481565b6104f261068e366004614c4c565b610fe5565b61041261108a565b6104126106a9366004614c85565b60056020526000908152604090205481565b6104f26106c9366004614bf2565b611220565b6104f26106dc366004614bc6565b61128b565b61041260105481565b6104f26106f8366004614c85565b611379565b6006546001600160a01b031661045e565b6104f261071c366004614c85565b6114fa565b6103f361158d565b6104f2610737366004614bf2565b61159a565b61045e7f000000000000000000000000000000000000000000000000000000000000000081565b6104127fc89efdaa54c0f20c7adf612882df0950f5a951637e0307cdcb4c672f298b8bc681565b6104f2610798366004614c85565b611628565b61045e6107ab366004614c85565b6012602052600090815260409020546001600160a01b031681565b6104f26107d4366004614bf2565b61182e565b6104336107e7366004614bc6565b6118bc565b6104f26107fa366004614d2a565b6118c9565b600e546104339060ff1681565b6104f261081a366004614bf2565b611ad1565b610412611ade565b610412600c5481565b61045e7f000000000000000000000000000000000000000000000000000000000000000081565b610412611b23565b60095461045e906001600160a01b031681565b6104f2610880366004614bf2565b611d91565b6104f2610893366004614d4f565b611e07565b600b5461045e906001600160a01b031681565b6104126108b9366004614c4c565b6001600160a01b03918216600090815260036020908152604080832093909416825291909152205490565b6104126108f2366004614bf2565b611f0c565b6104f2610905366004614bf2565b611f46565b61045e610918366004614bf2565b611fb1565b61041261092b366004614bf2565b611fdb565b61041261200f565b6104f2610946366004614c85565b6120af565b600a5461045e906001600160a01b031681565b6104f261219a565b6000805461097390614dbd565b80601f016020809104026020016040519081016040528092919081815260200182805461099f90614dbd565b80156109ec5780601f106109c1576101008083540402835291602001916109ec565b820191906000526020600020905b8154815290600101906020018083116109cf57829003601f168201915b505050505081565b6000610a0133848461240d565b5060015b92915050565b600080610a1661108a565b90506000610a238261251b565b9050610a2f828261252e565b9250505090565b6000610a058261251b565b6001600160a01b038316600081815260036020908152604080832033808552925282205491929091908214801590610a7b57506000198114155b15610b0c576000610aa7856040518060600160405280602f81526020016151e3602f913984919061253a565b6001600160a01b038881166000818152600360209081526040808320948916808452948252918290208590559051848152939450919290917f8c5be1e5ebec7d5bd14f71427d1e84f3dd0314c0f7b2291e5b200ac8c7c3b925910160405180910390a3505b610b17868686612566565b6001925050505b9392505050565b6000610a0582612699565b6000610b3b82611fdb565b905060008111610bab5760405162461bcd60e51b815260206004820152603060248201527f5661726961626c655265776172647353747261746567793a3a5769746864726160448201526f7720616d6f756e7420746f6f206c6f7760801b60648201526084015b60405180910390fd5b6000610bb6826126e6565b90506000610bc38361251b565b9050610be633610bd3848461252e565b6009546001600160a01b03169190612afe565b610bf03385612b59565b60405183815233907f884edad9ce6fa2440d8a54cc123490eb96d2768479d49ff9c7366125a94243649060200160405180910390a250505050565b610c358282612c2f565b5050565b600b546001600160a01b03163314610c635760405162461bcd60e51b8152600401610ba290614df7565b610c358282612e1d565b60095460405163d505accf60e01b8152336004820152306024820152604481018790526064810186905260ff8516608482015260a4810184905260c481018390526001600160a01b039091169063d505accf9060e401600060405180830381600087803b158015610cdd57600080fd5b505af1158015610cf1573d6000803e3d6000fd5b50505050610cff3386612c2f565b5050505050565b6006546001600160a01b03163314610d305760405162461bcd60e51b8152600401610ba290614e25565b6001600160a01b03811660009081526008602052604090205460ff1615610d995760405162461bcd60e51b815260206004820152601c60248201527f5065726d697373696f6e65643a3a616c6c6f774465706f7369746f72000000006044820152606401610ba2565b6001600160a01b0381166000908152600860205260409020805460ff19166001908117909155600754610dcb916121ec565b6007556040516001600160a01b038216907fc0a1035c16faf8d1304056d92c00edf028f87e62b8235a938f00af9e3c0312c590600090a250565b6006546001600160a01b03163314610e2f5760405162461bcd60e51b8152600401610ba290614e25565b600e5481151560ff909116151503610e4657600080fd5b600e805460ff19168215159081179091556040519081527f7b014ed3854e7f5cb0218d58b3c6ae7d53a68bb0af2f67bfb029ea42c38a7e85906020015b60405180910390a150565b6006546001600160a01b03163314610eb85760405162461bcd60e51b8152600401610ba290614e25565b60008111610ec557600080fd5b604051339082156108fc029083906000818181858888f19350505050158015610ef2573d6000803e3d6000fd5b507f8c1256b8896378cd5044f80c202f9772b9d77dc85c8a6eb51967210b09bfaa28600082604051610e83929190614e5a565b6006546001600160a01b03163314610f4f5760405162461bcd60e51b8152600401610ba290614e25565b601680546001600160a01b0319166001600160a01b0392909216919091179055565b6006546001600160a01b03163314610f9b5760405162461bcd60e51b8152600401610ba290614e25565b6006546040516000916001600160a01b0316907f8be0079c531659141344cd1fd0a4f28419497f9722a3daafe3b4186f6b6457e0908390a3600680546001600160a01b0319169055565b6006546001600160a01b0316331461100f5760405162461bcd60e51b8152600401610ba290614e25565b60405163095ea7b360e01b81526001600160a01b0383169063095ea7b39061103e908490600090600401614e5a565b6020604051808303816000875af115801561105d573d6000803e3d6000fd5b505050506040513d601f19601f820116820180604052508101906110819190614e73565b610c3557600080fd5b600080611095612f79565b6040516370a0823160e01b81523060048201526001600160a01b0391909116906370a0823190602401602060405180830381865afa1580156110db573d6000803e3d6000fd5b505050506040513d601f19601f820116820180604052508101906110ff9190614e90565b90508060000361111157600091505090565b60095460405163907448ed60e01b8152600091829182916001600160a01b037f000000000000000000000000000000000000000000000000000000000000000081169263907448ed9261116a9216908890600401614e5a565b606060405180830381865afa158015611187573d6000803e3d6000fd5b505050506040513d601f19601f820116820180604052508101906111ab9190614ea9565b9250925092508061120d5760405162461bcd60e51b815260206004820152602660248201527f45636869646e6153747261746567793a3a546869732073686f756c646e2774206044820152653430b83832b760d11b6064820152608401610ba2565b61121783836121ec565b94505050505090565b6006546001600160a01b0316331461124a5760405162461bcd60e51b8152600401610ba290614e25565b600c5460408051918252602082018390527f481f79ac3a523b6d6db3c5a720e190e986d1cc1b41adcdf50f9caef849901100910160405180910390a1600c55565b6006546001600160a01b031633146112b55760405162461bcd60e51b8152600401610ba290614e25565b600081116112c257600080fd5b60405163a9059cbb60e01b81526001600160a01b0383169063a9059cbb906112f09033908590600401614e5a565b6020604051808303816000875af115801561130f573d6000803e3d6000fd5b505050506040513d601f19601f820116820180604052508101906113339190614e73565b61133c57600080fd5b7f8c1256b8896378cd5044f80c202f9772b9d77dc85c8a6eb51967210b09bfaa28828260405161136d929190614e5a565b60405180910390a15050565b6006546001600160a01b031633146113a35760405162461bcd60e51b8152600401610ba290614e25565b6000600754116114125760405162461bcd60e51b815260206004820152603460248201527f5065726d697373696f6e65643a3a72656d6f76654465706f7369746f722c206e6044820152736f20616c6c6f776564206465706f7369746f727360601b6064820152608401610ba2565b6001600160a01b03811660009081526008602052604090205460ff1615156001146114925760405162461bcd60e51b815260206004820152602a60248201527f5065726d697373696f6e65643a3a72656d6f76654465706f7369746f722c206e6044820152691bdd08185b1b1bddd95960b21b6064820152608401610ba2565b6001600160a01b0381166000908152600860205260409020805460ff191690556007546114c090600161252e565b6007556040516001600160a01b038216907f0e86f6608b536e5339a25b65ff531f5ea91e1313d056ecd4752b35cbd16137d490600090a250565b600b546001600160a01b031633146115245760405162461bcd60e51b8152600401610ba290614df7565b600b54604080516001600160a01b03928316815291831660208301527fa8e91499ed37682f43cffb045fcc7d379a91e8c9a14e6321877ee34dee564c00910160405180910390a1600b80546001600160a01b0319166001600160a01b0392909216919091179055565b6001805461097390614dbd565b6006546001600160a01b031633146115c45760405162461bcd60e51b8152600401610ba290614e25565b6127106115dc601054836121ec90919063ffffffff16565b11156115e757600080fd5b60115460408051918252602082018390527f2a42303d002f0ba6cfe8259c91d4684443fb0b3de286ba74991175d651726131910160405180910390a1601155565b600b546001600160a01b031633146116525760405162461bcd60e51b8152600401610ba290614df7565b6001600160a01b038116600090815260126020526040812080546001600160a01b0319169055805b601354811015611746576013818154811061169757611697614ee2565b6000918252602090912001546001600160a01b03908116908416036117345760138054600193506116c9908490614f0e565b815481106116d9576116d9614ee2565b600091825260209091200154601380546001600160a01b03909216918390811061170557611705614ee2565b9060005260206000200160006101000a8154816001600160a01b0302191690836001600160a01b031602179055505b8061173e81614f25565b91505061167a565b50806117b15760405162461bcd60e51b815260206004820152603460248201527f5661726961626c655265776172647353747261746567793a3a52657761726420604482015273746f2064656c657465206e6f7420666f756e642160601b6064820152608401610ba2565b60138054806117c2576117c2614f3e565b600082815260209020810160001990810180546001600160a01b03191690550190556014546117f290600161252e565b6014556040516001600160a01b03831681527f963b7c735475147a62c589c2d7cb8ec4b0a6b7af4f97373d79ebfa42ab8aa7dc9060200161136d565b6006546001600160a01b031633146118585760405162461bcd60e51b8152600401610ba290614e25565b612710611870601154836121ec90919063ffffffff16565b111561187b57600080fd5b60105460408051918252602082018390527fe7f97d51d307dc44045597c9978bec0f842e6bb40d19b9444084cfa30d9ed4f2910160405180910390a1601055565b6000610a01338484612566565b6006546001600160a01b031633146118f35760405162461bcd60e51b8152600401610ba290614e25565b6009546040516370a0823160e01b81523060048201526000916001600160a01b0316906370a0823190602401602060405180830381865afa15801561193c573d6000803e3d6000fd5b505050506040513d601f19601f820116820180604052508101906119609190614e90565b905061196a613030565b6009546040516370a0823160e01b81523060048201526000916001600160a01b0316906370a0823190602401602060405180830381865afa1580156119b3573d6000803e3d6000fd5b505050506040513d601f19601f820116820180604052508101906119d79190614e90565b9050836119e4828461252e565b1015611a6e5760405162461bcd60e51b815260206004820152604d60248201527f5661726961626c655265776172647353747261746567793a3a456d657267656e60448201527f6379207769746864726177206d696e696d756d2072657475726e20616d6f756e60648201526c1d081b9bdd081c995858da1959609a1b608482015260a401610ba2565b7fc7606d21ac05cd309191543e409f0845c016120563783d70e4f41419dc0ef234611a9761108a565b6002546040805192835260208301919091520160405180910390a1600e5460ff161515600103611acb57611acb6000610e05565b50505050565b611adb3382612c2f565b50565b600080611ae9611b23565b9050600c548110611b1b57611b15612710611b0f601054846131f790919063ffffffff16565b90613203565b91505090565b600091505090565b600080611b2e61320f565b6040516370a0823160e01b815230600482015290915060009073b31f66aa3c1e785363f0875a1b74e27b85fd66c7906370a0823190602401602060405180830381865afa158015611b83573d6000803e3d6000fd5b505050506040513d601f19601f82011682018060405250810190611ba79190614e90565b9050611bb381476121ec565b5060005b8251811015611d8a576000838281518110611bd457611bd4614ee2565b602002602001015160000151905073b31f66aa3c1e785363f0875a1b74e27b85fd66c76001600160a01b0316816001600160a01b031603611c4657611c3f848381518110611c2457611c24614ee2565b602002602001015160200151846121ec90919063ffffffff16565b9250611d77565b6040516370a0823160e01b81523060048201526000906001600160a01b038316906370a0823190602401602060405180830381865afa158015611c8d573d6000803e3d6000fd5b505050506040513d601f19601f82011682018060405250810190611cb19190614e90565b90506000611ce5868581518110611cca57611cca614ee2565b602002602001015160200151836121ec90919063ffffffff16565b9050600060126000888781518110611cff57611cff614ee2565b602090810291909101810151516001600160a01b03908116835290820192909252604001600020541690508115801590611d4157506001600160a01b03811615155b15611d7357611d70611d69838673b31f66aa3c1e785363f0875a1b74e27b85fd66c7856134f7565b87906121ec565b95505b5050505b5080611d8281614f25565b915050611bb7565b5092915050565b6006546001600160a01b03163314611dbb5760405162461bcd60e51b8152600401610ba290614e25565b8015611dc657600080fd5b600f5460408051918252602082018390527f3cc372f330f95ac9540626dc8a25f5bf21ba607215a5d58304cb804d446f104a910160405180910390a1600f55565b42841015611e495760405162461bcd60e51b815260206004820152600f60248201526e1c195c9b5a5d0e8e995e1c1a5c9959608a1b6044820152606401610ba2565b6001600160a01b038716600090815260056020526040812080547f6e71edae12b1b97f4d1f60370fef10105fa2faae0126114a169c64845d6126c9918a918a918a919086611e9683614f25565b909155506040805160208101969096526001600160a01b0394851690860152929091166060840152608083015260a082015260c0810186905260e001604051602081830303815290604052805190602001209050611ef788828686866135b5565b611f0288888861240d565b5050505050505050565b6000611f22611f1961108a565b600254906131f7565b600003611f2d575090565b610a05611f3861108a565b600254611b0f9085906131f7565b6006546001600160a01b03163314611f705760405162461bcd60e51b8152600401610ba290614e25565b600d5460408051918252602082018390527fa5dae50539d56dfe1fb5273d883b0c39bc76750a25d036fc5fbd09ad8fd5f57f910160405180910390a1600d55565b60138181548110611fc157600080fd5b6000918252602090912001546001600160a01b0316905081565b6000611fe8611f1961108a565b600003611ff757506000919050565b610a05600254611b0f61200861108a565b85906131f7565b60007f8b73c3c69bb8fe3d512ecc4cf759cc79239f7b179b0ffacaa9a75d522b39400f60001b60006040516120449190614f54565b6040519081900390207fc89efdaa54c0f20c7adf612882df0950f5a951637e0307cdcb4c672f298b8bc646604080516020810195909552840192909252606083015260808201523060a082015260c00160405160208183030381529060405280519060200120905090565b6006546001600160a01b031633146120d95760405162461bcd60e51b8152600401610ba290614e25565b6001600160a01b03811661213e5760405162461bcd60e51b815260206004820152602660248201527f4f776e61626c653a206e6577206f776e657220697320746865207a65726f206160448201526564647265737360d01b6064820152608401610ba2565b6006546040516001600160a01b038084169216907f8be0079c531659141344cd1fd0a4f28419497f9722a3daafe3b4186f6b6457e090600090a3600680546001600160a01b0319166001600160a01b0392909216919091179055565b3233146121e05760405162461bcd60e51b815260206004820152601460248201527359616b53747261746567793a3a6f6e6c79454f4160601b6044820152606401610ba2565b6121ea60006136e1565b565b6000610b1e8284614fef565b6000836001600160a01b0316630dfe16816040518163ffffffff1660e01b8152600401602060405180830381865afa158015612238573d6000803e3d6000fd5b505050506040513d601f19601f8201168201806040525081019061225c9190615007565b6001600160a01b0316836001600160a01b031614806122ed5750836001600160a01b031663d21220a76040518163ffffffff1660e01b8152600401602060405180830381865afa1580156122b4573d6000803e3d6000fd5b505050506040513d601f19601f820116820180604052508101906122d89190615007565b6001600160a01b0316836001600160a01b0316145b80156123e75750836001600160a01b0316630dfe16816040518163ffffffff1660e01b8152600401602060405180830381865afa158015612332573d6000803e3d6000fd5b505050506040513d601f19601f820116820180604052508101906123569190615007565b6001600160a01b0316826001600160a01b031614806123e75750836001600160a01b031663d21220a76040518163ffffffff1660e01b8152600401602060405180830381865afa1580156123ae573d6000803e3d6000fd5b505050506040513d601f19601f820116820180604052508101906123d29190615007565b6001600160a01b0316826001600160a01b0316145b80156124055750816001600160a01b0316836001600160a01b031614155b949350505050565b6001600160a01b0383166124635760405162461bcd60e51b815260206004820152601c60248201527f5f617070726f76653a3a6f776e6572207a65726f2061646472657373000000006044820152606401610ba2565b6001600160a01b0382166124b95760405162461bcd60e51b815260206004820152601e60248201527f5f617070726f76653a3a7370656e646572207a65726f206164647265737300006044820152606401610ba2565b6001600160a01b0383811660008181526003602090815260408083209487168084529482529182902085905590518481527f8c5be1e5ebec7d5bd14f71427d1e84f3dd0314c0f7b2291e5b200ac8c7c3b92591015b60405180910390a3505050565b600080610b1e612710611b0f85846131f7565b6000610b1e8284614f0e565b6000818484111561255e5760405162461bcd60e51b8152600401610ba29190614b9e565b505050900390565b6001600160a01b0382166125d95760405162461bcd60e51b815260206004820152603460248201527f5f7472616e73666572546f6b656e733a2063616e6e6f74207472616e7366657260448201527320746f20746865207a65726f206164647265737360601b6064820152608401610ba2565b612616816040518060600160405280602e8152602001615239602e91396001600160a01b038616600090815260046020526040902054919061253a565b6001600160a01b03808516600090815260046020526040808220939093559084168152205461264590826121ec565b6001600160a01b0380841660008181526004602052604090819020939093559151908516907fddf252ad1be2c89b69c2b068fc378daa952ba7f163c4a11628f55a4df523b3ef9061250e9085815260200190565b6000610a057f00000000000000000000000000000000000000000000000000000000000000007f000000000000000000000000000000000000000000000000000000000000000084613857565b6000806126f1612f79565b6040516370a0823160e01b81523060048201526001600160a01b0391909116906370a0823190602401602060405180830381865afa158015612737573d6000803e3d6000fd5b505050506040513d601f19601f8201168201806040525081019061275b9190614e90565b9050600061277461276a61108a565b611b0f86856131f7565b90508181116127835780612785565b815b604051630ab626ab60e41b81527f000000000000000000000000000000000000000000000000000000000000000060048201526024810182905260006044820181905260648201819052608482015260001960a48201529091507f00000000000000000000000000000000000000000000000000000000000000006001600160a01b03169063ab626ab09060c401600060405180830381600087803b15801561282d57600080fd5b505af1158015612841573d6000803e3d6000fd5b505060095460405163907448ed60e01b8152600093506001600160a01b037f00000000000000000000000000000000000000000000000000000000000000008116935063907448ed9261289b929116908690600401614e5a565b606060405180830381865afa1580156128b8573d6000803e3d6000fd5b505050506040513d601f19601f820116820180604052508101906128dc9190614ea9565b505060405163095ea7b360e01b81529091506001600160a01b037f0000000000000000000000000000000000000000000000000000000000000000169063095ea7b39061294f907f0000000000000000000000000000000000000000000000000000000000000000908690600401614e5a565b6020604051808303816000875af115801561296e573d6000803e3d6000fd5b505050506040513d601f19601f820116820180604052508101906129929190614e73565b506009546040516309a5fca360e01b81526001600160a01b039182166004820152602481018490526044810183905230606482015260001960848201527f0000000000000000000000000000000000000000000000000000000000000000909116906309a5fca39060a4016020604051808303816000875af1158015612a1c573d6000803e3d6000fd5b505050506040513d601f19601f82011682018060405250810190612a409190614e90565b60405163095ea7b360e01b81529094506001600160a01b037f0000000000000000000000000000000000000000000000000000000000000000169063095ea7b390612ab2907f000000000000000000000000000000000000000000000000000000000000000090600090600401614e5a565b6020604051808303816000875af1158015612ad1573d6000803e3d6000fd5b505050506040513d601f19601f82011682018060405250810190612af59190614e73565b50505050919050565b612b548363a9059cbb60e01b8484604051602401612b1d929190614e5a565b60408051601f198184030181529190526020810180516001600160e01b03166001600160e01b031990931692909217909152613aae565b505050565b612b9681604051806060016040528060278152602001615212602791396001600160a01b038516600090815260046020526040902054919061253a565b60046000846001600160a01b03166001600160a01b0316815260200190815260200160002081905550612be6816040518060600160405280602781526020016151bc60279139600254919061253a565b6002556040518181526000906001600160a01b038416907fddf252ad1be2c89b69c2b068fc378daa952ba7f163c4a11628f55a4df523b3ef906020015b60405180910390a35050565b600e5460ff161515600114612c995760405162461bcd60e51b815260206004820152602a60248201527f5661726961626c655265776172647353747261746567793a3a4465706f7369746044820152691cc8191a5cd8589b195960b21b6064820152608401610ba2565b600d5415612cc3576000612cab611b23565b9050600d54811115612cc157612cc160016136e1565b505b6009546040516323b872dd60e01b8152336004820152306024820152604481018390526001600160a01b03909116906323b872dd906064016020604051808303816000875af1158015612d1a573d6000803e3d6000fd5b505050506040513d601f19601f82011682018060405250810190612d3e9190614e73565b612da95760405162461bcd60e51b815260206004820152603660248201527f5661726961626c655265776172647353747261746567793a3a4465706f736974604482015275081d1bdad95b881d1c985b9cd9995c8819985a5b195960521b6064820152608401610ba2565b6000612db482612699565b9050612dcc83612dc76108f2858561252e565b613b80565b612dd582613c04565b826001600160a01b03167fe1fffcc4923d04b559f4d29a8bfc6cda04eb5b0d3c460751c2402c5c5cc9109c83604051612e1091815260200190565b60405180910390a2505050565b600a546001600160a01b03838116911614612ebf57600a54612e4b90829084906001600160a01b03166121f8565b612ebf576040805162461bcd60e51b81526020600482015260248101919091527f5661726961626c655265776172647353747261746567793a3a5377617020706160448201527f697220646f6573206e6f7420636f6e7461696e2072657761726420746f6b656e6064820152608401610ba2565b6001600160a01b03808316600081815260126020526040812080549385166001600160a01b03199485161790556013805460018181018355919092527f66de8ffda797e3de9c05e8fc57b3bf0ec28a930d40b0d285d93c06501cf6a0909091018054909316909117909155601454612f36916121ec565b601455604080516001600160a01b038085168252831660208201527f916e172c080569186aa7ea048268267257cf7cc49505908863f747bca8620f80910161136d565b6040516315895f4760e31b81527f0000000000000000000000000000000000000000000000000000000000000000600482015260009081906001600160a01b037f0000000000000000000000000000000000000000000000000000000000000000169063ac4afa389060240160a060405180830381865afa158015613002573d6000803e3d6000fd5b505050506040513d601f19601f820116820180604052508101906130269190615024565b5095945050505050565b60095460405163095ea7b360e01b81526001600160a01b039091169063095ea7b390613083907f000000000000000000000000000000000000000000000000000000000000000090600090600401614e5a565b6020604051808303816000875af11580156130a2573d6000803e3d6000fd5b505050506040513d601f19601f820116820180604052508101906130c69190614e73565b5060006130d1612f79565b6040516370a0823160e01b81523060048201526001600160a01b0391909116906370a0823190602401602060405180830381865afa158015613117573d6000803e3d6000fd5b505050506040513d601f19601f8201168201806040525081019061313b9190614e90565b604051630ab626ab60e41b81527f000000000000000000000000000000000000000000000000000000000000000060048201526024810182905260006044820181905260648201819052608482015260001960a48201529091507f00000000000000000000000000000000000000000000000000000000000000006001600160a01b03169063ab626ab09060c401600060405180830381600087803b1580156131e357600080fd5b505af1158015610cff573d6000803e3d6000fd5b6000610b1e8284615099565b6000610b1e82846150ce565b6060600061321b612f79565b9050600061328c6001836001600160a01b031663d55a23f46040518163ffffffff1660e01b8152600401602060405180830381865afa158015613262573d6000803e3d6000fd5b505050506040513d601f19601f820116820180604052508101906132869190614e90565b906121ec565b905060008167ffffffffffffffff8111156132a9576132a96150e2565b6040519080825280602002602001820160405280156132ee57816020015b60408051808201909152600080825260208201528152602001906001900390816132c75790505b5090506000806132fc613c73565b604080518082019091527322d4002028f537599be9f666d1c4fa138522f9c88152919350915060208101613330848461252e565b8152508360008151811061334657613346614ee2565b602090810291909101015260015b848110156134ec5760006001600160a01b0387166340c35446613378600185614f0e565b6040518263ffffffff1660e01b815260040161339691815260200190565b602060405180830381865afa1580156133b3573d6000803e3d6000fd5b505050506040513d601f19601f820116820180604052508101906133d79190615007565b90506040518060400160405280826001600160a01b031663f7c618c16040518163ffffffff1660e01b8152600401602060405180830381865afa158015613422573d6000803e3d6000fd5b505050506040513d601f19601f820116820180604052508101906134469190615007565b6001600160a01b0390811682526040516246613160e11b815230600482015260209092019190841690628cc26290602401602060405180830381865afa158015613494573d6000803e3d6000fd5b505050506040513d601f19601f820116820180604052508101906134b89190614e90565b8152508583815181106134cd576134cd614ee2565b60200260200101819052505080806134e490614f25565b915050613354565b509195945050505050565b6000806135048585613d60565b509050600080846001600160a01b0316630902f1ac6040518163ffffffff1660e01b8152600401606060405180830381865afa158015613548573d6000803e3d6000fd5b505050506040513d601f19601f8201168201806040525081019061356c919061510f565b5091509150866001600160a01b0316836001600160a01b03161461358c57905b6135a988836001600160701b0316836001600160701b0316613d91565b98975050505050505050565b60006135bf61200f565b60405161190160f01b602082015260228101919091526042810186905260620160408051601f198184030181528282528051602091820120600080855291840180845281905260ff88169284019290925260608301869052608083018590529092509060019060a0016020604051602081039080840390855afa15801561364a573d6000803e3d6000fd5b5050604051601f1901519150506001600160a01b038116158015906136805750866001600160a01b0316816001600160a01b0316145b6136d85760405162461bcd60e51b8152602060048201526024808201527f417263683a3a76616c69646174655369673a20696e76616c6964207369676e616044820152637475726560e01b6064820152608401610ba2565b50505050505050565b6136e9613dd9565b60006136f3613e8e565b90508161376557600c548110156137655760405162461bcd60e51b815260206004820152603060248201527f5661726961626c655265776172647353747261746567793a3a5265696e76657360448201526f7420616d6f756e7420746f6f206c6f7760801b6064820152608401610ba2565b6000613782612710611b0f601154856131f790919063ffffffff16565b905080156137a757600b54600a546137a7916001600160a01b03918216911683612afe565b60006137c4612710611b0f601054866131f790919063ffffffff16565b905080156137e357600a546137e3906001600160a01b03163383612afe565b60006138016137fc836137f6878761252e565b9061252e565b6140bf565b905061380c81613c04565b7fc7606d21ac05cd309191543e409f0845c016120563783d70e4f41419dc0ef23461383561108a565b6002546040805192835260208301919091520160405180910390a15050505050565b6000612405846001600160a01b03166355af008a6040518163ffffffff1660e01b8152600401602060405180830381865afa15801561389a573d6000803e3d6000fd5b505050506040513d601f19601f820116820180604052508101906138be9190614e90565b856001600160a01b0316637727c6556040518163ffffffff1660e01b8152600401602060405180830381865afa1580156138fc573d6000803e3d6000fd5b505050506040513d601f19601f820116820180604052508101906139209190614e90565b866001600160a01b031663a76f54d26040518163ffffffff1660e01b8152600401602060405180830381865afa15801561395e573d6000803e3d6000fd5b505050506040513d601f19601f820116820180604052508101906139829190614e90565b876001600160a01b0316637a1c36d16040518163ffffffff1660e01b8152600401602060405180830381865afa1580156139c0573d6000803e3d6000fd5b505050506040513d601f19601f820116820180604052508101906139e49190614e90565b876001600160a01b031663961be3916040518163ffffffff1660e01b8152600401602060405180830381865afa158015613a22573d6000803e3d6000fd5b505050506040513d601f19601f82011682018060405250810190613a469190614e90565b886001600160a01b031663705727b56040518163ffffffff1660e01b8152600401602060405180830381865afa158015613a84573d6000803e3d6000fd5b505050506040513d601f19601f82011682018060405250810190613aa89190614e90565b886140e7565b6000613b03826040518060400160405280602081526020017f5361666545524332303a206c6f772d6c6576656c2063616c6c206661696c6564815250856001600160a01b031661419b9092919063ffffffff16565b805190915015612b545780806020019051810190613b219190614e73565b612b545760405162461bcd60e51b815260206004820152602a60248201527f5361666545524332303a204552433230206f7065726174696f6e20646964206e6044820152691bdd081cdd58d8d9595960b21b6064820152608401610ba2565b600254613b8d90826121ec565b6002556001600160a01b038216600090815260046020526040902054613bb390826121ec565b6001600160a01b0383166000818152600460205260408082209390935591519091907fddf252ad1be2c89b69c2b068fc378daa952ba7f163c4a11628f55a4df523b3ef90612c239085815260200190565b60008111613c6a5760405162461bcd60e51b815260206004820152602d60248201527f5661726961626c655265776172647353747261746567793a3a5374616b65206160448201526c6d6f756e7420746f6f206c6f7760981b6064820152608401610ba2565b611adb816141aa565b600080613c7e612f79565b6040516246613160e11b81523060048201526001600160a01b039190911690628cc26290602401602060405180830381865afa158015613cc2573d6000803e3d6000fd5b505050506040513d601f19601f82011682018060405250810190613ce69190614e90565b601654604051633cb6bbcb60e21b81529193506001600160a01b03169063f2daef2c90613d199030908690600401614e5a565b602060405180830381865afa158015613d36573d6000803e3d6000fd5b505050506040513d601f19601f82011682018060405250810190613d5a9190614e90565b90509091565b600080826001600160a01b0316846001600160a01b031610613d83578284613d86565b83835b915091509250929050565b600080613da0856103e56131f7565b90506000613dae82856131f7565b90506000613dc283613286886103e86131f7565b9050613dce8282613203565b979650505050505050565b6000613de3613c73565b915050613dee612f79565b604051637050ccd960e01b8152306004820152600160248201526001600160a01b039190911690637050ccd9906044016020604051808303816000875af1158015613e3d573d6000803e3d6000fd5b505050506040513d601f19601f82011682018060405250810190613e619190614e73565b50601654611adb907322d4002028f537599be9f666d1c4fa138522f9c8906001600160a01b031683612afe565b6040516370a0823160e01b8152306004820152600090819073b31f66aa3c1e785363f0875a1b74e27b85fd66c7906370a0823190602401602060405180830381865afa158015613ee2573d6000803e3d6000fd5b505050506040513d601f19601f82011682018060405250810190613f069190614e90565b60135490915060005b818110156140b757600060138281548110613f2c57613f2c614ee2565b6000918252602090912001546001600160a01b0316905073b31f66aa3c1e785363f0875a1b74e27b85fd66c6198101613feb57478015613fe45773b31f66aa3c1e785363f0875a1b74e27b85fd66c76001600160a01b031663d0e30db0826040518263ffffffff1660e01b81526004016000604051808303818588803b158015613fb557600080fd5b505af1158015613fc9573d6000803e3d6000fd5b5050505050613fe181866121ec90919063ffffffff16565b94505b50506140a5565b6040516370a0823160e01b81523060048201526000906001600160a01b038316906370a0823190602401602060405180830381865afa158015614032573d6000803e3d6000fd5b505050506040513d601f19601f820116820180604052508101906140569190614e90565b905080156140a2576001600160a01b038083166000908152601260205260409020541680156140a057600a5461409d90611d6990849086906001600160a01b0316856145cc565b95505b505b50505b806140af81614f25565b915050613f0f565b509092915050565b600a54600954601554600092610a059285926001600160a01b039283169291821691166145cc565b6000826000036140f957506000613dce565b60006141058585614740565b9050670de0b6b3a76400008111614120576000915050613dce565b600061413f61412f86866121ec565b61413988876121ec565b90614740565b905060006141508b8b8b8b87614766565b905060006141618c8c8c8c87614766565b905061416d87836147cc565b6141818261417b8a8a6121ec565b906147cc565b61418b9190614f0e565b9c9b505050505050505050505050565b606061240584846000856147f2565b60006141b582612699565b905060006141e47f00000000000000000000000000000000000000000000000000000000000000008484614918565b60095460405163095ea7b360e01b81529192506001600160a01b03169063095ea7b390614237907f0000000000000000000000000000000000000000000000000000000000000000908790600401614e5a565b6020604051808303816000875af1158015614256573d6000803e3d6000fd5b505050506040513d601f19601f8201168201806040525081019061427a9190614e73565b50600954604051632434941d60e21b81526001600160a01b0391821660048201526024810185905230604482015260001960648201527f0000000000000000000000000000000000000000000000000000000000000000909116906390d25074906084016020604051808303816000875af11580156142fd573d6000803e3d6000fd5b505050506040513d601f19601f820116820180604052508101906143219190614e90565b5060095460405163095ea7b360e01b81526001600160a01b039091169063095ea7b390614375907f000000000000000000000000000000000000000000000000000000000000000090600090600401614e5a565b6020604051808303816000875af1158015614394573d6000803e3d6000fd5b505050506040513d601f19601f820116820180604052508101906143b89190614e73565b5060405163095ea7b360e01b81526001600160a01b037f0000000000000000000000000000000000000000000000000000000000000000169063095ea7b390614427907f0000000000000000000000000000000000000000000000000000000000000000908590600401614e5a565b6020604051808303816000875af1158015614446573d6000803e3d6000fd5b505050506040513d601f19601f8201168201806040525081019061446a9190614e73565b5060405163f1c5833360e01b81527f00000000000000000000000000000000000000000000000000000000000000006004820152602481018290526000604482015260001960648201527f00000000000000000000000000000000000000000000000000000000000000006001600160a01b03169063f1c5833390608401600060405180830381600087803b15801561450257600080fd5b505af1158015614516573d6000803e3d6000fd5b505060405163095ea7b360e01b81526001600160a01b037f000000000000000000000000000000000000000000000000000000000000000016925063095ea7b39150614589907f000000000000000000000000000000000000000000000000000000000000000090600090600401614e5a565b6020604051808303816000875af11580156145a8573d6000803e3d6000fd5b505050506040513d601f19601f82011682018060405250810190611acb9190614e73565b6000806145d98585613d60565b509050600080846001600160a01b0316630902f1ac6040518163ffffffff1660e01b8152600401606060405180830381865afa15801561461d573d6000803e3d6000fd5b505050506040513d601f19601f82011682018060405250810190614641919061510f565b5091509150866001600160a01b0316836001600160a01b03161461466157905b6000806146818a856001600160701b0316856001600160701b0316613d91565b9050886001600160a01b0316856001600160a01b03161461469e57905b6146b26001600160a01b038a16888c612afe565b6040805160008152602081019182905263022c0d9f60e01b9091526001600160a01b0388169063022c0d9f906146f19085908590309060248101615154565b600060405180830381600087803b15801561470b57600080fd5b505af115801561471f573d6000803e3d6000fd5b505050508181116147305781614732565b805b9a9950505050505050505050565b6000610b1e82611b0f614754826002613203565b61328687670de0b6b3a76400006131f7565b6000828210156147815761477a848361252e565b90506147c3565b61477a6147bc6b033b2e3c9fd0803ce8000000611b0f670de0b6b3a76400006147b68a6147b083858b886131f7565b90614a68565b906131f7565b8790614740565b95945050505050565b6000610b1e670de0b6b3a7640000611b0f6147e8826002613203565b61328687876131f7565b6060824710156148535760405162461bcd60e51b815260206004820152602660248201527f416464726573733a20696e73756666696369656e742062616c616e636520666f6044820152651c8818d85b1b60d21b6064820152608401610ba2565b6001600160a01b0385163b6148aa5760405162461bcd60e51b815260206004820152601d60248201527f416464726573733a2063616c6c20746f206e6f6e2d636f6e74726163740000006044820152606401610ba2565b600080866001600160a01b031685876040516148c6919061518b565b60006040518083038185875af1925050503d8060008114614903576040519150601f19603f3d011682016040523d82523d6000602084013e614908565b606091505b5091509150613dce828286614ae1565b6000836001600160a01b031663705727b56040518163ffffffff1660e01b8152600401602060405180830381865afa158015614958573d6000803e3d6000fd5b505050506040513d601f19601f8201168201806040525081019061497c9190614e90565b6000036149945761498d838361252e565b9050610b1e565b612405846001600160a01b031663705727b56040518163ffffffff1660e01b8152600401602060405180830381865afa1580156149d5573d6000803e3d6000fd5b505050506040513d601f19601f820116820180604052508101906149f99190614e90565b611b0f866001600160a01b03166318160ddd6040518163ffffffff1660e01b8152600401602060405180830381865afa158015614a3a573d6000803e3d6000fd5b505050506040513d601f19601f82011682018060405250810190614a5e9190614e90565b6147b6878761252e565b6000614a75826002614b1a565b600003614a8e576b033b2e3c9fd0803ce8000000614a90565b825b9050614a9d826002613203565b91505b8115610a0557614ab08384614b26565b9250614abd826002614b1a565b15614acf57614acc8184614b26565b90505b614ada826002613203565b9150614aa0565b60608315614af0575081610b1e565b825115614b005782518084602001fd5b8160405162461bcd60e51b8152600401610ba29190614b9e565b6000610b1e82846151a7565b6000610b1e6b033b2e3c9fd0803ce8000000611b0f6147e8826002613203565b60005b83811015614b61578181015183820152602001614b49565b83811115611acb5750506000910152565b60008151808452614b8a816020860160208601614b46565b601f01601f19169290920160200192915050565b602081526000610b1e6020830184614b72565b6001600160a01b0381168114611adb57600080fd5b60008060408385031215614bd957600080fd5b8235614be481614bb1565b946020939093013593505050565b600060208284031215614c0457600080fd5b5035919050565b600080600060608486031215614c2057600080fd5b8335614c2b81614bb1565b92506020840135614c3b81614bb1565b929592945050506040919091013590565b60008060408385031215614c5f57600080fd5b8235614c6a81614bb1565b91506020830135614c7a81614bb1565b809150509250929050565b600060208284031215614c9757600080fd5b8135610b1e81614bb1565b803560ff81168114614cb357600080fd5b919050565b600080600080600060a08688031215614cd057600080fd5b8535945060208601359350614ce760408701614ca2565b94979396509394606081013594506080013592915050565b8015158114611adb57600080fd5b600060208284031215614d1f57600080fd5b8135610b1e81614cff565b60008060408385031215614d3d57600080fd5b823591506020830135614c7a81614cff565b600080600080600080600060e0888a031215614d6a57600080fd5b8735614d7581614bb1565b96506020880135614d8581614bb1565b95506040880135945060608801359350614da160808901614ca2565b925060a0880135915060c0880135905092959891949750929550565b600181811c90821680614dd157607f821691505b602082108103614df157634e487b7160e01b600052602260045260246000fd5b50919050565b6020808252601490820152732cb0b5a9ba3930ba32b3bc9d1d37b7363ca232bb60611b604082015260600190565b6020808252818101527f4f776e61626c653a2063616c6c6572206973206e6f7420746865206f776e6572604082015260600190565b6001600160a01b03929092168252602082015260400190565b600060208284031215614e8557600080fd5b8151610b1e81614cff565b600060208284031215614ea257600080fd5b5051919050565b600080600060608486031215614ebe57600080fd5b83519250602084015191506040840151614ed781614cff565b809150509250925092565b634e487b7160e01b600052603260045260246000fd5b634e487b7160e01b600052601160045260246000fd5b600082821015614f2057614f20614ef8565b500390565b600060018201614f3757614f37614ef8565b5060010190565b634e487b7160e01b600052603160045260246000fd5b600080835481600182811c915080831680614f7057607f831692505b60208084108203614f8f57634e487b7160e01b86526022600452602486fd5b818015614fa35760018114614fb457614fe1565b60ff19861689528489019650614fe1565b60008a81526020902060005b86811015614fd95781548b820152908501908301614fc0565b505084890196505b509498975050505050505050565b6000821982111561500257615002614ef8565b500190565b60006020828403121561501957600080fd5b8151610b1e81614bb1565b600080600080600060a0868803121561503c57600080fd5b855161504781614bb1565b602087015190955061505881614bb1565b604087015190945061506981614bb1565b606087015190935061507a81614bb1565b608087015190925061508b81614cff565b809150509295509295909350565b60008160001904831182151516156150b3576150b3614ef8565b500290565b634e487b7160e01b600052601260045260246000fd5b6000826150dd576150dd6150b8565b500490565b634e487b7160e01b600052604160045260246000fd5b80516001600160701b0381168114614cb357600080fd5b60008060006060848603121561512457600080fd5b61512d846150f8565b925061513b602085016150f8565b9150604084015163ffffffff81168114614ed757600080fd5b84815283602082015260018060a01b03831660408201526080606082015260006151816080830184614b72565b9695505050505050565b6000825161519d818460208701614b46565b9190910192915050565b6000826151b6576151b66150b8565b50069056fe5f6275726e3a206275726e20616d6f756e74206578636565647320746f74616c20737570706c797472616e7366657246726f6d3a207472616e7366657220616d6f756e74206578636565647320616c6c6f77616e63655f6275726e3a206275726e20616d6f756e7420657863656564732066726f6d2062616c616e63655f7472616e73666572546f6b656e733a207472616e7366657220657863656564732066726f6d2062616c616e6365a2646970667358221220ae426105b4205d151c999495a9a1b3ea745cbd1e8c7e65aea6869237e897772e64736f6c634300080d00334f776e61626c653a2063616c6c6572206973206e6f7420746865206f776e65728be0079c531659141344cd1fd0a4f28419497f9722a3daafe3b4186f6b6457e0",
    "linkReferences": {}
  },
  "methodIdentifiers": {
    "ADMIN_FEE_BIPS()": "07677111",
    "DEPOSITS_ENABLED()": "b52a321f",
    "DEV_FEE_BIPS()": "5ea682ea",
    "DOMAIN_TYPEHASH()": "20606b70",
    "MAX_TOKENS_TO_DEPOSIT_WITHOUT_REINVEST()": "789139bc",
    "MIN_TOKENS_TO_REINVEST()": "bd079f55",
    "PERMIT_TYPEHASH()": "30adf81f",
    "PID()": "5eaec0e4",
    "REINVEST_REWARD_BIPS()": "8aff733d",
    "VERSION_HASH()": "9e4e7318",
    "addReward(address,address)": "40b47e1a",
    "allowDepositor(address)": "4bebd1e7",
    "allowance(address,address)": "dd62ed3e",
    "allowedDepositors(address)": "483c2ef0",
    "approve(address,uint256)": "095ea7b3",
    "balanceOf(address)": "70a08231",
    "boosterFeeCollector()": "0fccc400",
    "calculateDepositFee(uint256)": "247d284b",
    "calculateWithdrawFee(uint256)": "11056035",
    "checkReward()": "c4b24a46",
    "decimals()": "313ce567",
    "deposit(uint256)": "b6b55f25",
    "depositFor(address,uint256)": "2f4f21e2",
    "depositToken()": "c89039c5",
    "depositWithPermit(uint256,uint256,uint8,bytes32,bytes32)": "4a970be7",
    "devAddr()": "da09c72c",
    "echidnaBooster()": "c1d8a4c5",
    "estimateDeployedBalance()": "0f23475d",
    "estimateReinvestReward()": "b9e57b80",
    "getDepositTokensForShares(uint256)": "eab89a5a",
    "getDomainSeparator()": "ed24911d",
    "getSharesForDepositTokens(uint256)": "dd8ce4d6",
    "name()": "06fdde03",
    "nonces(address)": "7ecebe00",
    "numberOfAllowedDepositors()": "3bdc6e72",
    "owner()": "8da5cb5b",
    "permit(address,address,uint256,uint256,uint8,bytes32,bytes32)": "d505accf",
    "platypusAsset()": "58822000",
    "platypusPool()": "9a222a89",
    "recoverAVAX(uint256)": "4ebb7916",
    "recoverERC20(address,uint256)": "8980f11f",
    "reinvest()": "fdb5a03e",
    "removeDepositor(address)": "8b73e606",
    "removeReward(address)": "a4d5e67c",
    "renounceOwnership()": "715018a6",
    "rescueDeployedFunds(uint256,bool)": "ac0d31ff",
    "revokeAllowance(address,address)": "7ae26773",
    "rewardCount()": "79085425",
    "rewardSwapPairs(address)": "a5534e71",
    "rewardToken()": "f7c618c1",
    "supportedRewards(uint256)": "e75ab045",
    "symbol()": "95d89b41",
    "totalDeposits()": "7d882097",
    "totalSupply()": "18160ddd",
    "transfer(address,uint256)": "a9059cbb",
    "transferFrom(address,address,uint256)": "23b872dd",
    "transferOwnership(address)": "f2fde38b",
    "updateAdminFee(uint256)": "cff1b6ef",
    "updateBoosterFeeCollector(address)": "6c8b4b52",
    "updateDepositsEnabled(bool)": "4e77ace5",
    "updateDevAddr(address)": "9291d563",
    "updateDevFee(uint256)": "99729ec1",
    "updateMaxTokensToDepositWithoutReinvest(uint256)": "e21ac825",
    "updateMinTokensToReinvest(uint256)": "81837230",
    "updateReinvestReward(uint256)": "a8ae2b7c",
    "withdraw(uint256)": "2e1a7d4d"
  },
  "id": 78
}