{
  "abi": [
    {
      "inputs": [
        {
          "internalType": "string",
          "name": "_name",
          "type": "string"
        },
        {
          "internalType": "address",
          "name": "_depositToken",
          "type": "address"
        },
        {
          "internalType": "address",
          "name": "_gmxProxy",
          "type": "address"
        },
        {
          "internalType": "address",
          "name": "_timelock",
          "type": "address"
        },
        {
          "components": [
            {
              "internalType": "uint256",
              "name": "minTokensToReinvest",
              "type": "uint256"
            },
            {
              "internalType": "uint256",
              "name": "devFeeBips",
              "type": "uint256"
            },
            {
              "internalType": "uint256",
              "name": "reinvestRewardBips",
              "type": "uint256"
            }
          ],
          "internalType": "struct YakStrategyV2.StrategySettings",
          "name": "_strategySettings",
          "type": "tuple"
        }
      ],
      "stateMutability": "nonpayable",
      "type": "constructor"
    },
    {
      "anonymous": false,
      "inputs": [
        {
          "indexed": true,
          "internalType": "address",
          "name": "account",
          "type": "address"
        }
      ],
      "name": "AllowDepositor",
      "type": "event"
    },
    {
      "anonymous": false,
      "inputs": [
        {
          "indexed": true,
          "internalType": "address",
          "name": "owner",
          "type": "address"
        },
        {
          "indexed": true,
          "internalType": "address",
          "name": "spender",
          "type": "address"
        },
        {
          "indexed": false,
          "internalType": "uint256",
          "name": "value",
          "type": "uint256"
        }
      ],
      "name": "Approval",
      "type": "event"
    },
    {
      "anonymous": false,
      "inputs": [
        {
          "indexed": true,
          "internalType": "address",
          "name": "account",
          "type": "address"
        },
        {
          "indexed": false,
          "internalType": "uint256",
          "name": "amount",
          "type": "uint256"
        }
      ],
      "name": "Deposit",
      "type": "event"
    },
    {
      "anonymous": false,
      "inputs": [
        {
          "indexed": false,
          "internalType": "bool",
          "name": "newValue",
          "type": "bool"
        }
      ],
      "name": "DepositsEnabled",
      "type": "event"
    },
    {
      "anonymous": false,
      "inputs": [
        {
          "indexed": true,
          "internalType": "address",
          "name": "previousOwner",
          "type": "address"
        },
        {
          "indexed": true,
          "internalType": "address",
          "name": "newOwner",
          "type": "address"
        }
      ],
      "name": "OwnershipTransferred",
      "type": "event"
    },
    {
      "anonymous": false,
      "inputs": [
        {
          "indexed": false,
          "internalType": "address",
          "name": "token",
          "type": "address"
        },
        {
          "indexed": false,
          "internalType": "uint256",
          "name": "amount",
          "type": "uint256"
        }
      ],
      "name": "Recovered",
      "type": "event"
    },
    {
      "anonymous": false,
      "inputs": [
        {
          "indexed": false,
          "internalType": "uint256",
          "name": "newTotalDeposits",
          "type": "uint256"
        },
        {
          "indexed": false,
          "internalType": "uint256",
          "name": "newTotalSupply",
          "type": "uint256"
        }
      ],
      "name": "Reinvest",
      "type": "event"
    },
    {
      "anonymous": false,
      "inputs": [
        {
          "indexed": true,
          "internalType": "address",
          "name": "account",
          "type": "address"
        }
      ],
      "name": "RemoveDepositor",
      "type": "event"
    },
    {
      "anonymous": false,
      "inputs": [
        {
          "indexed": true,
          "internalType": "address",
          "name": "from",
          "type": "address"
        },
        {
          "indexed": true,
          "internalType": "address",
          "name": "to",
          "type": "address"
        },
        {
          "indexed": false,
          "internalType": "uint256",
          "name": "value",
          "type": "uint256"
        }
      ],
      "name": "Transfer",
      "type": "event"
    },
    {
      "anonymous": false,
      "inputs": [
        {
          "indexed": false,
          "internalType": "uint256",
          "name": "oldValue",
          "type": "uint256"
        },
        {
          "indexed": false,
          "internalType": "uint256",
          "name": "newValue",
          "type": "uint256"
        }
      ],
      "name": "UpdateAdminFee",
      "type": "event"
    },
    {
      "anonymous": false,
      "inputs": [
        {
          "indexed": false,
          "internalType": "address",
          "name": "oldValue",
          "type": "address"
        },
        {
          "indexed": false,
          "internalType": "address",
          "name": "newValue",
          "type": "address"
        }
      ],
      "name": "UpdateDevAddr",
      "type": "event"
    },
    {
      "anonymous": false,
      "inputs": [
        {
          "indexed": false,
          "internalType": "uint256",
          "name": "oldValue",
          "type": "uint256"
        },
        {
          "indexed": false,
          "internalType": "uint256",
          "name": "newValue",
          "type": "uint256"
        }
      ],
      "name": "UpdateDevFee",
      "type": "event"
    },
    {
      "anonymous": false,
      "inputs": [
        {
          "indexed": false,
          "internalType": "uint256",
          "name": "oldValue",
          "type": "uint256"
        },
        {
          "indexed": false,
          "internalType": "uint256",
          "name": "newValue",
          "type": "uint256"
        }
      ],
      "name": "UpdateMaxTokensToDepositWithoutReinvest",
      "type": "event"
    },
    {
      "anonymous": false,
      "inputs": [
        {
          "indexed": false,
          "internalType": "uint256",
          "name": "oldValue",
          "type": "uint256"
        },
        {
          "indexed": false,
          "internalType": "uint256",
          "name": "newValue",
          "type": "uint256"
        }
      ],
      "name": "UpdateMinTokensToReinvest",
      "type": "event"
    },
    {
      "anonymous": false,
      "inputs": [
        {
          "indexed": false,
          "internalType": "uint256",
          "name": "oldValue",
          "type": "uint256"
        },
        {
          "indexed": false,
          "internalType": "uint256",
          "name": "newValue",
          "type": "uint256"
        }
      ],
      "name": "UpdateReinvestReward",
      "type": "event"
    },
    {
      "anonymous": false,
      "inputs": [
        {
          "indexed": true,
          "internalType": "address",
          "name": "account",
          "type": "address"
        },
        {
          "indexed": false,
          "internalType": "uint256",
          "name": "amount",
          "type": "uint256"
        }
      ],
      "name": "Withdraw",
      "type": "event"
    },
    {
      "inputs": [],
      "name": "ADMIN_FEE_BIPS",
      "outputs": [
        {
          "internalType": "uint256",
          "name": "",
          "type": "uint256"
        }
      ],
      "stateMutability": "view",
      "type": "function"
    },
    {
      "inputs": [],
      "name": "DEPOSITS_ENABLED",
      "outputs": [
        {
          "internalType": "bool",
          "name": "",
          "type": "bool"
        }
      ],
      "stateMutability": "view",
      "type": "function"
    },
    {
      "inputs": [],
      "name": "DEV_FEE_BIPS",
      "outputs": [
        {
          "internalType": "uint256",
          "name": "",
          "type": "uint256"
        }
      ],
      "stateMutability": "view",
      "type": "function"
    },
    {
      "inputs": [],
      "name": "DOMAIN_TYPEHASH",
      "outputs": [
        {
          "internalType": "bytes32",
          "name": "",
          "type": "bytes32"
        }
      ],
      "stateMutability": "view",
      "type": "function"
    },
    {
      "inputs": [],
      "name": "MAX_TOKENS_TO_DEPOSIT_WITHOUT_REINVEST",
      "outputs": [
        {
          "internalType": "uint256",
          "name": "",
          "type": "uint256"
        }
      ],
      "stateMutability": "view",
      "type": "function"
    },
    {
      "inputs": [],
      "name": "MIN_TOKENS_TO_REINVEST",
      "outputs": [
        {
          "internalType": "uint256",
          "name": "",
          "type": "uint256"
        }
      ],
      "stateMutability": "view",
      "type": "function"
    },
    {
      "inputs": [],
      "name": "PERMIT_TYPEHASH",
      "outputs": [
        {
          "internalType": "bytes32",
          "name": "",
          "type": "bytes32"
        }
      ],
      "stateMutability": "view",
      "type": "function"
    },
    {
      "inputs": [],
      "name": "REINVEST_REWARD_BIPS",
      "outputs": [
        {
          "internalType": "uint256",
          "name": "",
          "type": "uint256"
        }
      ],
      "stateMutability": "view",
      "type": "function"
    },
    {
      "inputs": [],
      "name": "VERSION_HASH",
      "outputs": [
        {
          "internalType": "bytes32",
          "name": "",
          "type": "bytes32"
        }
      ],
      "stateMutability": "view",
      "type": "function"
    },
    {
      "inputs": [
        {
          "internalType": "address",
          "name": "depositor",
          "type": "address"
        }
      ],
      "name": "allowDepositor",
      "outputs": [],
      "stateMutability": "nonpayable",
      "type": "function"
    },
    {
      "inputs": [
        {
          "internalType": "address",
          "name": "account",
          "type": "address"
        },
        {
          "internalType": "address",
          "name": "spender",
          "type": "address"
        }
      ],
      "name": "allowance",
      "outputs": [
        {
          "internalType": "uint256",
          "name": "",
          "type": "uint256"
        }
      ],
      "stateMutability": "view",
      "type": "function"
    },
    {
      "inputs": [
        {
          "internalType": "address",
          "name": "",
          "type": "address"
        }
      ],
      "name": "allowedDepositors",
      "outputs": [
        {
          "internalType": "bool",
          "name": "",
          "type": "bool"
        }
      ],
      "stateMutability": "view",
      "type": "function"
    },
    {
      "inputs": [
        {
          "internalType": "address",
          "name": "spender",
          "type": "address"
        },
        {
          "internalType": "uint256",
          "name": "amount",
          "type": "uint256"
        }
      ],
      "name": "approve",
      "outputs": [
        {
          "internalType": "bool",
          "name": "",
          "type": "bool"
        }
      ],
      "stateMutability": "nonpayable",
      "type": "function"
    },
    {
      "inputs": [
        {
          "internalType": "address",
          "name": "account",
          "type": "address"
        }
      ],
      "name": "balanceOf",
      "outputs": [
        {
          "internalType": "uint256",
          "name": "",
          "type": "uint256"
        }
      ],
      "stateMutability": "view",
      "type": "function"
    },
    {
      "inputs": [],
      "name": "checkReward",
      "outputs": [
        {
          "internalType": "uint256",
          "name": "",
          "type": "uint256"
        }
      ],
      "stateMutability": "view",
      "type": "function"
    },
    {
      "inputs": [],
      "name": "decimals",
      "outputs": [
        {
          "internalType": "uint8",
          "name": "",
          "type": "uint8"
        }
      ],
      "stateMutability": "view",
      "type": "function"
    },
    {
      "inputs": [
        {
          "internalType": "uint256",
          "name": "amount",
          "type": "uint256"
        }
      ],
      "name": "deposit",
      "outputs": [],
      "stateMutability": "nonpayable",
      "type": "function"
    },
    {
      "inputs": [
        {
          "internalType": "address",
          "name": "account",
          "type": "address"
        },
        {
          "internalType": "uint256",
          "name": "amount",
          "type": "uint256"
        }
      ],
      "name": "depositFor",
      "outputs": [],
      "stateMutability": "nonpayable",
      "type": "function"
    },
    {
      "inputs": [],
      "name": "depositToken",
      "outputs": [
        {
          "internalType": "contract IERC20",
          "name": "",
          "type": "address"
        }
      ],
      "stateMutability": "view",
      "type": "function"
    },
    {
      "inputs": [
        {
          "internalType": "uint256",
          "name": "amount",
          "type": "uint256"
        },
        {
          "internalType": "uint256",
          "name": "deadline",
          "type": "uint256"
        },
        {
          "internalType": "uint8",
          "name": "v",
          "type": "uint8"
        },
        {
          "internalType": "bytes32",
          "name": "r",
          "type": "bytes32"
        },
        {
          "internalType": "bytes32",
          "name": "s",
          "type": "bytes32"
        }
      ],
      "name": "depositWithPermit",
      "outputs": [],
      "stateMutability": "nonpayable",
      "type": "function"
    },
    {
      "inputs": [],
      "name": "devAddr",
      "outputs": [
        {
          "internalType": "address",
          "name": "",
          "type": "address"
        }
      ],
      "stateMutability": "view",
      "type": "function"
    },
    {
      "inputs": [],
      "name": "estimateDeployedBalance",
      "outputs": [
        {
          "internalType": "uint256",
          "name": "",
          "type": "uint256"
        }
      ],
      "stateMutability": "view",
      "type": "function"
    },
    {
      "inputs": [],
      "name": "estimateReinvestReward",
      "outputs": [
        {
          "internalType": "uint256",
          "name": "",
          "type": "uint256"
        }
      ],
      "stateMutability": "view",
      "type": "function"
    },
    {
      "inputs": [
        {
          "internalType": "uint256",
          "name": "amount",
          "type": "uint256"
        }
      ],
      "name": "getDepositTokensForShares",
      "outputs": [
        {
          "internalType": "uint256",
          "name": "",
          "type": "uint256"
        }
      ],
      "stateMutability": "view",
      "type": "function"
    },
    {
      "inputs": [],
      "name": "getDomainSeparator",
      "outputs": [
        {
          "internalType": "bytes32",
          "name": "",
          "type": "bytes32"
        }
      ],
      "stateMutability": "view",
      "type": "function"
    },
    {
      "inputs": [
        {
          "internalType": "uint256",
          "name": "amount",
          "type": "uint256"
        }
      ],
      "name": "getSharesForDepositTokens",
      "outputs": [
        {
          "internalType": "uint256",
          "name": "",
          "type": "uint256"
        }
      ],
      "stateMutability": "view",
      "type": "function"
    },
    {
      "inputs": [],
      "name": "name",
      "outputs": [
        {
          "internalType": "string",
          "name": "",
          "type": "string"
        }
      ],
      "stateMutability": "view",
      "type": "function"
    },
    {
      "inputs": [
        {
          "internalType": "address",
          "name": "",
          "type": "address"
        }
      ],
      "name": "nonces",
      "outputs": [
        {
          "internalType": "uint256",
          "name": "",
          "type": "uint256"
        }
      ],
      "stateMutability": "view",
      "type": "function"
    },
    {
      "inputs": [],
      "name": "numberOfAllowedDepositors",
      "outputs": [
        {
          "internalType": "uint256",
          "name": "",
          "type": "uint256"
        }
      ],
      "stateMutability": "view",
      "type": "function"
    },
    {
      "inputs": [],
      "name": "owner",
      "outputs": [
        {
          "internalType": "address",
          "name": "",
          "type": "address"
        }
      ],
      "stateMutability": "view",
      "type": "function"
    },
    {
      "inputs": [
        {
          "internalType": "address",
          "name": "owner",
          "type": "address"
        },
        {
          "internalType": "address",
          "name": "spender",
          "type": "address"
        },
        {
          "internalType": "uint256",
          "name": "value",
          "type": "uint256"
        },
        {
          "internalType": "uint256",
          "name": "deadline",
          "type": "uint256"
        },
        {
          "internalType": "uint8",
          "name": "v",
          "type": "uint8"
        },
        {
          "internalType": "bytes32",
          "name": "r",
          "type": "bytes32"
        },
        {
          "internalType": "bytes32",
          "name": "s",
          "type": "bytes32"
        }
      ],
      "name": "permit",
      "outputs": [],
      "stateMutability": "nonpayable",
      "type": "function"
    },
    {
      "inputs": [],
      "name": "proxy",
      "outputs": [
        {
          "internalType": "contract IGmxProxy",
          "name": "",
          "type": "address"
        }
      ],
      "stateMutability": "view",
      "type": "function"
    },
    {
      "inputs": [
        {
          "internalType": "uint256",
          "name": "amount",
          "type": "uint256"
        }
      ],
      "name": "recoverAVAX",
      "outputs": [],
      "stateMutability": "nonpayable",
      "type": "function"
    },
    {
      "inputs": [
        {
          "internalType": "address",
          "name": "tokenAddress",
          "type": "address"
        },
        {
          "internalType": "uint256",
          "name": "tokenAmount",
          "type": "uint256"
        }
      ],
      "name": "recoverERC20",
      "outputs": [],
      "stateMutability": "nonpayable",
      "type": "function"
    },
    {
      "inputs": [],
      "name": "reinvest",
      "outputs": [],
      "stateMutability": "nonpayable",
      "type": "function"
    },
    {
      "inputs": [
        {
          "internalType": "address",
          "name": "depositor",
          "type": "address"
        }
      ],
      "name": "removeDepositor",
      "outputs": [],
      "stateMutability": "nonpayable",
      "type": "function"
    },
    {
      "inputs": [],
      "name": "renounceOwnership",
      "outputs": [],
      "stateMutability": "nonpayable",
      "type": "function"
    },
    {
      "inputs": [
        {
          "internalType": "uint256",
          "name": "",
          "type": "uint256"
        },
        {
          "internalType": "bool",
          "name": "disableDeposits",
          "type": "bool"
        }
      ],
      "name": "rescueDeployedFunds",
      "outputs": [],
      "stateMutability": "nonpayable",
      "type": "function"
    },
    {
      "inputs": [
        {
          "internalType": "address",
          "name": "token",
          "type": "address"
        },
        {
          "internalType": "address",
          "name": "spender",
          "type": "address"
        }
      ],
      "name": "revokeAllowance",
      "outputs": [],
      "stateMutability": "nonpayable",
      "type": "function"
    },
    {
      "inputs": [],
      "name": "rewardToken",
      "outputs": [
        {
          "internalType": "contract IERC20",
          "name": "",
          "type": "address"
        }
      ],
      "stateMutability": "view",
      "type": "function"
    },
    {
      "inputs": [
        {
          "internalType": "address",
          "name": "_proxy",
          "type": "address"
        }
      ],
      "name": "setProxy",
      "outputs": [],
      "stateMutability": "nonpayable",
      "type": "function"
    },
    {
      "inputs": [],
      "name": "symbol",
      "outputs": [
        {
          "internalType": "string",
          "name": "",
          "type": "string"
        }
      ],
      "stateMutability": "view",
      "type": "function"
    },
    {
      "inputs": [],
      "name": "totalDeposits",
      "outputs": [
        {
          "internalType": "uint256",
          "name": "",
          "type": "uint256"
        }
      ],
      "stateMutability": "view",
      "type": "function"
    },
    {
      "inputs": [],
      "name": "totalSupply",
      "outputs": [
        {
          "internalType": "uint256",
          "name": "",
          "type": "uint256"
        }
      ],
      "stateMutability": "view",
      "type": "function"
    },
    {
      "inputs": [
        {
          "internalType": "address",
          "name": "dst",
          "type": "address"
        },
        {
          "internalType": "uint256",
          "name": "amount",
          "type": "uint256"
        }
      ],
      "name": "transfer",
      "outputs": [
        {
          "internalType": "bool",
          "name": "",
          "type": "bool"
        }
      ],
      "stateMutability": "nonpayable",
      "type": "function"
    },
    {
      "inputs": [
        {
          "internalType": "address",
          "name": "src",
          "type": "address"
        },
        {
          "internalType": "address",
          "name": "dst",
          "type": "address"
        },
        {
          "internalType": "uint256",
          "name": "amount",
          "type": "uint256"
        }
      ],
      "name": "transferFrom",
      "outputs": [
        {
          "internalType": "bool",
          "name": "",
          "type": "bool"
        }
      ],
      "stateMutability": "nonpayable",
      "type": "function"
    },
    {
      "inputs": [
        {
          "internalType": "address",
          "name": "newOwner",
          "type": "address"
        }
      ],
      "name": "transferOwnership",
      "outputs": [],
      "stateMutability": "nonpayable",
      "type": "function"
    },
    {
      "inputs": [
        {
          "internalType": "uint256",
          "name": "newValue",
          "type": "uint256"
        }
      ],
      "name": "updateAdminFee",
      "outputs": [],
      "stateMutability": "nonpayable",
      "type": "function"
    },
    {
      "inputs": [
        {
          "internalType": "bool",
          "name": "newValue",
          "type": "bool"
        }
      ],
      "name": "updateDepositsEnabled",
      "outputs": [],
      "stateMutability": "nonpayable",
      "type": "function"
    },
    {
      "inputs": [
        {
          "internalType": "address",
          "name": "newValue",
          "type": "address"
        }
      ],
      "name": "updateDevAddr",
      "outputs": [],
      "stateMutability": "nonpayable",
      "type": "function"
    },
    {
      "inputs": [
        {
          "internalType": "uint256",
          "name": "newValue",
          "type": "uint256"
        }
      ],
      "name": "updateDevFee",
      "outputs": [],
      "stateMutability": "nonpayable",
      "type": "function"
    },
    {
      "inputs": [
        {
          "internalType": "uint256",
          "name": "newValue",
          "type": "uint256"
        }
      ],
      "name": "updateMaxTokensToDepositWithoutReinvest",
      "outputs": [],
      "stateMutability": "nonpayable",
      "type": "function"
    },
    {
      "inputs": [
        {
          "internalType": "uint256",
          "name": "newValue",
          "type": "uint256"
        }
      ],
      "name": "updateMinTokensToReinvest",
      "outputs": [],
      "stateMutability": "nonpayable",
      "type": "function"
    },
    {
      "inputs": [
        {
          "internalType": "uint256",
          "name": "newValue",
          "type": "uint256"
        }
      ],
      "name": "updateReinvestReward",
      "outputs": [],
      "stateMutability": "nonpayable",
      "type": "function"
    },
    {
      "inputs": [
        {
          "internalType": "uint256",
          "name": "amount",
          "type": "uint256"
        }
      ],
      "name": "withdraw",
      "outputs": [],
      "stateMutability": "nonpayable",
      "type": "function"
    }
  ],
  "bytecode": {
    "object": "0x60c060405260096080819052685969656c642059616b60b81b60a09081526200002c916000919062000585565b506040805180820190915260038082526216549560ea1b6020909201918252620000599160019162000585565b503480156200006757600080fd5b506040516200361e3803806200361e8339810160408190526200008a91620006f0565b600680546001600160a01b031916339081179091556040518291908190600090600080516020620035fe833981519152908290a3508051620000cc90620001cb565b6020810151620000dc906200025b565b6040810151620000ec9062000312565b5084516200010290600090602088019062000585565b50600980546001600160a01b038087166001600160a01b031992831617909255600a8054821673b31f66aa3c1e785363f0875a1b74e27b85fd66c71790556012805492861692821692909217909155600b8054909116732d580f9cf2fb2d09bc411532988f2afda4e7beff1790556200017c6001620003c9565b620001878262000473565b60408051600080825260208201527fc7606d21ac05cd309191543e409f0845c016120563783d70e4f41419dc0ef234910160405180910390a150505050506200085e565b6006546001600160a01b031633146200021a5760405162461bcd60e51b81526020600482018190526024820152600080516020620035de83398151915260448201526064015b60405180910390fd5b600c5460408051918252602082018390527f481f79ac3a523b6d6db3c5a720e190e986d1cc1b41adcdf50f9caef849901100910160405180910390a1600c55565b6006546001600160a01b03163314620002a65760405162461bcd60e51b81526020600482018190526024820152600080516020620035de833981519152604482015260640162000211565b612710620002c5601054836200057060201b62001a851790919060201c565b1115620002d157600080fd5b60115460408051918252602082018390527f2a42303d002f0ba6cfe8259c91d4684443fb0b3de286ba74991175d651726131910160405180910390a1601155565b6006546001600160a01b031633146200035d5760405162461bcd60e51b81526020600482018190526024820152600080516020620035de833981519152604482015260640162000211565b6127106200037c601154836200057060201b62001a851790919060201c565b11156200038857600080fd5b60105460408051918252602082018390527fe7f97d51d307dc44045597c9978bec0f842e6bb40d19b9444084cfa30d9ed4f2910160405180910390a1601055565b6006546001600160a01b03163314620004145760405162461bcd60e51b81526020600482018190526024820152600080516020620035de833981519152604482015260640162000211565b600e5481151560ff9091161515036200042c57600080fd5b600e805460ff19168215159081179091556040519081527f7b014ed3854e7f5cb0218d58b3c6ae7d53a68bb0af2f67bfb029ea42c38a7e859060200160405180910390a150565b6006546001600160a01b03163314620004be5760405162461bcd60e51b81526020600482018190526024820152600080516020620035de833981519152604482015260640162000211565b6001600160a01b038116620005255760405162461bcd60e51b815260206004820152602660248201527f4f776e61626c653a206e6577206f776e657220697320746865207a65726f206160448201526564647265737360d01b606482015260840162000211565b6006546040516001600160a01b03808416921690600080516020620035fe83398151915290600090a3600680546001600160a01b0319166001600160a01b0392909216919091179055565b60006200057e8284620007fb565b9392505050565b828054620005939062000822565b90600052602060002090601f016020900481019282620005b7576000855562000602565b82601f10620005d257805160ff191683800117855562000602565b8280016001018555821562000602579182015b8281111562000602578251825591602001919060010190620005e5565b506200061092915062000614565b5090565b5b8082111562000610576000815560010162000615565b634e487b7160e01b600052604160045260246000fd5b604051601f8201601f191681016001600160401b03811182821017156200066c576200066c6200062b565b604052919050565b80516001600160a01b03811681146200068c57600080fd5b919050565b600060608284031215620006a457600080fd5b604051606081016001600160401b0381118282101715620006c957620006c96200062b565b80604052508091508251815260208301516020820152604083015160408201525092915050565b600080600080600060e086880312156200070957600080fd5b85516001600160401b03808211156200072157600080fd5b818801915088601f8301126200073657600080fd5b8151818111156200074b576200074b6200062b565b6020915062000763601f8201601f1916830162000641565b8181528a838386010111156200077857600080fd5b60005b82811015620007985784810184015182820185015283016200077b565b82811115620007aa5760008484840101525b509750620007bc905088820162000674565b95505050620007ce6040870162000674565b9250620007de6060870162000674565b9150620007ef876080880162000691565b90509295509295909350565b600082198211156200081d57634e487b7160e01b600052601160045260246000fd5b500190565b600181811c908216806200083757607f821691505b6020821081036200085857634e487b7160e01b600052602260045260246000fd5b50919050565b612d70806200086e6000396000f3fe608060405234801561001057600080fd5b506004361061035d5760003560e01c80638b73e606116101d3578063c4b24a4611610104578063e21ac825116100a2578063ed24911d1161007c578063ed24911d14610776578063f2fde38b1461077e578063f7c618c114610791578063fdb5a03e146107a457600080fd5b8063e21ac8251461073d578063eab89a5a14610750578063ec5568891461076357600080fd5b8063d505accf116100de578063d505accf146106cb578063da09c72c146106de578063dd62ed3e146106f1578063dd8ce4d61461072a57600080fd5b8063c4b24a461461069d578063c89039c5146106a5578063cff1b6ef146106b857600080fd5b8063a8ae2b7c11610171578063b52a321f1161014b578063b52a321f1461066c578063b6b55f2514610679578063b9e57b801461068c578063bd079f551461069457600080fd5b8063a8ae2b7c14610633578063a9059cbb14610646578063ac0d31ff1461065957600080fd5b806395d89b41116101ad57806395d89b41146105de57806397107d6d146105e657806399729ec1146105f95780639e4e73181461060c57600080fd5b80638b73e606146105935780638da5cb5b146105a65780639291d563146105cb57600080fd5b80634a970be7116102ad578063789139bc1161024b5780637ecebe00116102255780637ecebe001461054457806381837230146105645780638980f11f146105775780638aff733d1461058a57600080fd5b8063789139bc146105205780637ae26773146105295780637d8820971461053c57600080fd5b80634ebb7916116102875780634ebb7916146104d35780635ea682ea146104e657806370a08231146104ef578063715018a61461051857600080fd5b80634a970be71461049a5780634bebd1e7146104ad5780634e77ace5146104c057600080fd5b806323b872dd1161031a57806330adf81f116102f457806330adf81f1461042d578063313ce567146104545780633bdc6e721461046e578063483c2ef01461047757600080fd5b806323b872dd146103f25780632e1a7d4d146104055780632f4f21e21461041a57600080fd5b806306fdde03146103625780630767711114610380578063095ea7b3146103975780630f23475d146103ba57806318160ddd146103c257806320606b70146103cb575b600080fd5b61036a6107ac565b6040516103779190612838565b60405180910390f35b610389600f5481565b604051908152602001610377565b6103aa6103a5366004612880565b61083a565b6040519015158152602001610377565b610389610850565b61038960025481565b6103897f8b73c3c69bb8fe3d512ecc4cf759cc79239f7b179b0ffacaa9a75d522b39400f81565b6103aa6104003660046128ac565b610861565b6104186104133660046128ed565b610945565b005b610418610428366004612880565b610a0b565b6103897f6e71edae12b1b97f4d1f60370fef10105fa2faae0126114a169c64845d6126c981565b61045c601281565b60405160ff9091168152602001610377565b61038960075481565b6103aa610485366004612906565b60086020526000908152604090205460ff1681565b6104186104a8366004612939565b610a19565b6104186104bb366004612906565b610ab2565b6104186104ce36600461298e565b610bb1565b6104186104e13660046128ed565b610c3a565b61038960115481565b6103896104fd366004612906565b6001600160a01b031660009081526004602052604090205490565b610418610cd6565b610389600d5481565b6104186105373660046129ab565b610d4a565b610389610df0565b610389610552366004612906565b60056020526000908152604090205481565b6104186105723660046128ed565b610e79565b610418610585366004612880565b610ee4565b61038960105481565b6104186105a1366004612906565b610fdb565b6006546001600160a01b03165b6040516001600160a01b039091168152602001610377565b6104186105d9366004612906565b61115c565b61036a611216565b6104186105f4366004612906565b611223565b6104186106073660046128ed565b61126f565b6103897fc89efdaa54c0f20c7adf612882df0950f5a951637e0307cdcb4c672f298b8bc681565b6104186106413660046128ed565b6112fd565b6103aa610654366004612880565b61138b565b6104186106673660046129e4565b611398565b600e546103aa9060ff1681565b6104186106873660046128ed565b61149c565b6103896114a9565b610389600c5481565b6103896114ee565b6009546105b3906001600160a01b031681565b6104186106c63660046128ed565b6115f9565b6104186106d9366004612a09565b61166f565b600b546105b3906001600160a01b031681565b6103896106ff3660046129ab565b6001600160a01b03918216600090815260036020908152604080832093909416825291909152205490565b6103896107383660046128ed565b611774565b61041861074b3660046128ed565b6117ae565b61038961075e3660046128ed565b611819565b6012546105b3906001600160a01b031681565b61038961184d565b61041861078c366004612906565b6118ed565b600a546105b3906001600160a01b031681565b6104186119d8565b600080546107b990612a77565b80601f01602080910402602001604051908101604052809291908181526020018280546107e590612a77565b80156108325780601f1061080757610100808354040283529160200191610832565b820191906000526020600020905b81548152906001019060200180831161081557829003601f168201915b505050505081565b6000610847338484611a91565b50600192915050565b60008061085b610df0565b92915050565b6001600160a01b03831660008181526003602090815260408083203380855292528220549192909190821480159061089b57506000198114155b1561092c5760006108c7856040518060600160405280602f8152602001612cb7602f9139849190611b9f565b6001600160a01b038881166000818152600360209081526040808320948916808452948252918290208590559051848152939450919290917f8c5be1e5ebec7d5bd14f71427d1e84f3dd0314c0f7b2291e5b200ac8c7c3b925910160405180910390a3505b610937868686611bcb565b6001925050505b9392505050565b600061095082611819565b9050600081116109a75760405162461bcd60e51b815260206004820152601b60248201527f476d785374726174656779466f72474c503a3a7769746864726177000000000060448201526064015b60405180910390fd5b6109b081611cfe565b6009546109c7906001600160a01b03163383611d58565b6109d13383611daa565b60405181815233907f884edad9ce6fa2440d8a54cc123490eb96d2768479d49ff9c7366125a9424364906020015b60405180910390a25050565b610a158282611e80565b5050565b60095460405163d505accf60e01b8152336004820152306024820152604481018790526064810186905260ff8516608482015260a4810184905260c481018390526001600160a01b039091169063d505accf9060e401600060405180830381600087803b158015610a8957600080fd5b505af1158015610a9d573d6000803e3d6000fd5b50505050610aab3386611e80565b5050505050565b6006546001600160a01b03163314610adc5760405162461bcd60e51b815260040161099e90612ab1565b6001600160a01b03811660009081526008602052604090205460ff1615610b455760405162461bcd60e51b815260206004820152601c60248201527f5065726d697373696f6e65643a3a616c6c6f774465706f7369746f7200000000604482015260640161099e565b6001600160a01b0381166000908152600860205260409020805460ff19166001908117909155600754610b7791611a85565b6007556040516001600160a01b038216907fc0a1035c16faf8d1304056d92c00edf028f87e62b8235a938f00af9e3c0312c590600090a250565b6006546001600160a01b03163314610bdb5760405162461bcd60e51b815260040161099e90612ab1565b600e5481151560ff909116151503610bf257600080fd5b600e805460ff19168215159081179091556040519081527f7b014ed3854e7f5cb0218d58b3c6ae7d53a68bb0af2f67bfb029ea42c38a7e85906020015b60405180910390a150565b6006546001600160a01b03163314610c645760405162461bcd60e51b815260040161099e90612ab1565b60008111610c7157600080fd5b604051339082156108fc029083906000818181858888f19350505050158015610c9e573d6000803e3d6000fd5b506040805160008152602081018390527f8c1256b8896378cd5044f80c202f9772b9d77dc85c8a6eb51967210b09bfaa289101610c2f565b6006546001600160a01b03163314610d005760405162461bcd60e51b815260040161099e90612ab1565b6006546040516000916001600160a01b0316907f8be0079c531659141344cd1fd0a4f28419497f9722a3daafe3b4186f6b6457e0908390a3600680546001600160a01b0319169055565b6006546001600160a01b03163314610d745760405162461bcd60e51b815260040161099e90612ab1565b60405163095ea7b360e01b81526001600160a01b0382811660048301526000602483015283169063095ea7b3906044016020604051808303816000875af1158015610dc3573d6000803e3d6000fd5b505050506040513d601f19601f82011682018060405250810190610de79190612ae6565b610a1557600080fd5b6012546000906001600160a01b031663e9403256610e0c612028565b6040516001600160e01b031960e084901b1681526001600160a01b039091166004820152602401602060405180830381865afa158015610e50573d6000803e3d6000fd5b505050506040513d601f19601f82011682018060405250810190610e749190612b03565b905090565b6006546001600160a01b03163314610ea35760405162461bcd60e51b815260040161099e90612ab1565b600c5460408051918252602082018390527f481f79ac3a523b6d6db3c5a720e190e986d1cc1b41adcdf50f9caef849901100910160405180910390a1600c55565b6006546001600160a01b03163314610f0e5760405162461bcd60e51b815260040161099e90612ab1565b60008111610f1b57600080fd5b60405163a9059cbb60e01b8152336004820152602481018290526001600160a01b0383169063a9059cbb906044016020604051808303816000875af1158015610f68573d6000803e3d6000fd5b505050506040513d601f19601f82011682018060405250810190610f8c9190612ae6565b610f9557600080fd5b604080516001600160a01b0384168152602081018390527f8c1256b8896378cd5044f80c202f9772b9d77dc85c8a6eb51967210b09bfaa28910160405180910390a15050565b6006546001600160a01b031633146110055760405162461bcd60e51b815260040161099e90612ab1565b6000600754116110745760405162461bcd60e51b815260206004820152603460248201527f5065726d697373696f6e65643a3a72656d6f76654465706f7369746f722c206e6044820152736f20616c6c6f776564206465706f7369746f727360601b606482015260840161099e565b6001600160a01b03811660009081526008602052604090205460ff1615156001146110f45760405162461bcd60e51b815260206004820152602a60248201527f5065726d697373696f6e65643a3a72656d6f76654465706f7369746f722c206e6044820152691bdd08185b1b1bddd95960b21b606482015260840161099e565b6001600160a01b0381166000908152600860205260409020805460ff19169055600754611122906001612106565b6007556040516001600160a01b038216907f0e86f6608b536e5339a25b65ff531f5ea91e1313d056ecd4752b35cbd16137d490600090a250565b600b546001600160a01b031633146111ad5760405162461bcd60e51b81526020600482015260146024820152732cb0b5a9ba3930ba32b3bc9d1d37b7363ca232bb60611b604482015260640161099e565b600b54604080516001600160a01b03928316815291831660208301527fa8e91499ed37682f43cffb045fcc7d379a91e8c9a14e6321877ee34dee564c00910160405180910390a1600b80546001600160a01b0319166001600160a01b0392909216919091179055565b600180546107b990612a77565b6006546001600160a01b0316331461124d5760405162461bcd60e51b815260040161099e90612ab1565b601280546001600160a01b0319166001600160a01b0392909216919091179055565b6006546001600160a01b031633146112995760405162461bcd60e51b815260040161099e90612ab1565b6127106112b160105483611a8590919063ffffffff16565b11156112bc57600080fd5b60115460408051918252602082018390527f2a42303d002f0ba6cfe8259c91d4684443fb0b3de286ba74991175d651726131910160405180910390a1601155565b6006546001600160a01b031633146113275760405162461bcd60e51b815260040161099e90612ab1565b61271061133f60115483611a8590919063ffffffff16565b111561134a57600080fd5b60105460408051918252602082018390527fe7f97d51d307dc44045597c9978bec0f842e6bb40d19b9444084cfa30d9ed4f2910160405180910390a1601055565b6000610847338484611bcb565b6006546001600160a01b031633146113c25760405162461bcd60e51b815260040161099e90612ab1565b60006113cc610df0565b6012546040516333c3066760e11b8152600481018390529192506001600160a01b0316906367860cce90602401600060405180830381600087803b15801561141357600080fd5b505af1158015611427573d6000803e3d6000fd5b505050507fc7606d21ac05cd309191543e409f0845c016120563783d70e4f41419dc0ef234611454610df0565b6002546040805192835260208301919091520160405180910390a1600e5460ff161515600114801561148857506001821515145b15611497576114976000610bb1565b505050565b6114a63382611e80565b50565b6000806114b46114ee565b9050600c5481106114e6576114e06127106114da6010548461211290919063ffffffff16565b9061211e565b91505090565b600091505090565b60125460009081906001600160a01b03166331d7a26261150c612028565b6040516001600160e01b031960e084901b1681526001600160a01b039091166004820152602401602060405180830381865afa158015611550573d6000803e3d6000fd5b505050506040513d601f19601f820116820180604052508101906115749190612b03565b600a546040516370a0823160e01b81523060048201529192506000916001600160a01b03909116906370a0823190602401602060405180830381865afa1580156115c2573d6000803e3d6000fd5b505050506040513d601f19601f820116820180604052508101906115e69190612b03565b90506115f28183611a85565b9250505090565b6006546001600160a01b031633146116235760405162461bcd60e51b815260040161099e90612ab1565b801561162e57600080fd5b600f5460408051918252602082018390527f3cc372f330f95ac9540626dc8a25f5bf21ba607215a5d58304cb804d446f104a910160405180910390a1600f55565b428410156116b15760405162461bcd60e51b815260206004820152600f60248201526e1c195c9b5a5d0e8e995e1c1a5c9959608a1b604482015260640161099e565b6001600160a01b038716600090815260056020526040812080547f6e71edae12b1b97f4d1f60370fef10105fa2faae0126114a169c64845d6126c9918a918a918a9190866116fe83612b32565b909155506040805160208101969096526001600160a01b0394851690860152929091166060840152608083015260a082015260c0810186905260e00160405160208183030381529060405280519060200120905061175f888286868661212a565b61176a888888611a91565b5050505050505050565b600061178a611781610df0565b60025490612112565b600003611795575090565b61085b6117a0610df0565b6002546114da908590612112565b6006546001600160a01b031633146117d85760405162461bcd60e51b815260040161099e90612ab1565b600d5460408051918252602082018390527fa5dae50539d56dfe1fb5273d883b0c39bc76750a25d036fc5fbd09ad8fd5f57f910160405180910390a1600d55565b6000611826611781610df0565b60000361183557506000919050565b61085b6002546114da611846610df0565b8590612112565b60007f8b73c3c69bb8fe3d512ecc4cf759cc79239f7b179b0ffacaa9a75d522b39400f60001b60006040516118829190612b4b565b6040519081900390207fc89efdaa54c0f20c7adf612882df0950f5a951637e0307cdcb4c672f298b8bc646604080516020810195909552840192909252606083015260808201523060a082015260c00160405160208183030381529060405280519060200120905090565b6006546001600160a01b031633146119175760405162461bcd60e51b815260040161099e90612ab1565b6001600160a01b03811661197c5760405162461bcd60e51b815260206004820152602660248201527f4f776e61626c653a206e6577206f776e657220697320746865207a65726f206160448201526564647265737360d01b606482015260840161099e565b6006546040516001600160a01b038084169216907f8be0079c531659141344cd1fd0a4f28419497f9722a3daafe3b4186f6b6457e090600090a3600680546001600160a01b0319166001600160a01b0392909216919091179055565b323314611a1e5760405162461bcd60e51b815260206004820152601460248201527359616b53747261746567793a3a6f6e6c79454f4160601b604482015260640161099e565b6000611a286114ee565b9050600c54811015611a7c5760405162461bcd60e51b815260206004820152601b60248201527f476d785374726174656779466f72474c503a3a7265696e766573740000000000604482015260640161099e565b6114a681612256565b600061093e8284612be6565b6001600160a01b038316611ae75760405162461bcd60e51b815260206004820152601c60248201527f5f617070726f76653a3a6f776e6572207a65726f206164647265737300000000604482015260640161099e565b6001600160a01b038216611b3d5760405162461bcd60e51b815260206004820152601e60248201527f5f617070726f76653a3a7370656e646572207a65726f20616464726573730000604482015260640161099e565b6001600160a01b0383811660008181526003602090815260408083209487168084529482529182902085905590518481527f8c5be1e5ebec7d5bd14f71427d1e84f3dd0314c0f7b2291e5b200ac8c7c3b92591015b60405180910390a3505050565b60008184841115611bc35760405162461bcd60e51b815260040161099e9190612838565b505050900390565b6001600160a01b038216611c3e5760405162461bcd60e51b815260206004820152603460248201527f5f7472616e73666572546f6b656e733a2063616e6e6f74207472616e7366657260448201527320746f20746865207a65726f206164647265737360601b606482015260840161099e565b611c7b816040518060600160405280602e8152602001612d0d602e91396001600160a01b0386166000908152600460205260409020549190611b9f565b6001600160a01b038085166000908152600460205260408082209390935590841681522054611caa9082611a85565b6001600160a01b0380841660008181526004602052604090819020939093559151908516907fddf252ad1be2c89b69c2b068fc378daa952ba7f163c4a11628f55a4df523b3ef90611b929085815260200190565b601254604051635c72f4b560e01b8152600481018390526001600160a01b0390911690635c72f4b590602401600060405180830381600087803b158015611d4457600080fd5b505af1158015610aab573d6000803e3d6000fd5b604080516001600160a01b038416602482015260448082018490528251808303909101815260649091019091526020810180516001600160e01b031663a9059cbb60e01b179052611497908490612447565b611de781604051806060016040528060278152602001612ce6602791396001600160a01b0385166000908152600460205260409020549190611b9f565b60046000846001600160a01b03166001600160a01b0316815260200190815260200160002081905550611e3781604051806060016040528060278152602001612c90602791396002549190611b9f565b6002556040518181526000906001600160a01b038416907fddf252ad1be2c89b69c2b068fc378daa952ba7f163c4a11628f55a4df523b3ef906020015b60405180910390a35050565b600e5460ff161515600114611ed75760405162461bcd60e51b815260206004820152601b60248201527f476d785374726174656779466f72474c503a3a5f6465706f7369740000000000604482015260640161099e565b600d5415611f00576000611ee96114ee565b9050600d54811115611efe57611efe81612256565b505b6009546040516323b872dd60e01b8152336004820152306024820152604481018390526001600160a01b03909116906323b872dd906064016020604051808303816000875af1158015611f57573d6000803e3d6000fd5b505050506040513d601f19601f82011682018060405250810190611f7b9190612ae6565b611fd25760405162461bcd60e51b815260206004820152602260248201527f476d785374726174656779466f72474c503a3a7472616e73666572206661696c604482015261195960f21b606482015260840161099e565b611fe482611fdf83611774565b612519565b611fed8161259d565b816001600160a01b03167fe1fffcc4923d04b559f4d29a8bfc6cda04eb5b0d3c460751c2402c5c5cc9109c826040516109ff91815260200190565b600080601260009054906101000a90046001600160a01b03166001600160a01b0316639d54b5246040518163ffffffff1660e01b8152600401602060405180830381865afa15801561207e573d6000803e3d6000fd5b505050506040513d601f19601f820116820180604052508101906120a29190612bfe565b9050806001600160a01b031663e1c363b76040518163ffffffff1660e01b8152600401602060405180830381865afa1580156120e2573d6000803e3d6000fd5b505050506040513d601f19601f820116820180604052508101906114e09190612bfe565b600061093e8284612c1b565b600061093e8284612c32565b600061093e8284612c51565b600061213461184d565b60405161190160f01b602082015260228101919091526042810186905260620160408051601f198184030181528282528051602091820120600080855291840180845281905260ff88169284019290925260608301869052608083018590529092509060019060a0016020604051602081039080840390855afa1580156121bf573d6000803e3d6000fd5b5050604051601f1901519150506001600160a01b038116158015906121f55750866001600160a01b0316816001600160a01b0316145b61224d5760405162461bcd60e51b8152602060048201526024808201527f417263683a3a76616c69646174655369673a20696e76616c6964207369676e616044820152637475726560e01b606482015260840161099e565b50505050505050565b6012546001600160a01b031663d279c19161226f612028565b6040516001600160e01b031960e084901b1681526001600160a01b039091166004820152602401600060405180830381600087803b1580156122b057600080fd5b505af11580156122c4573d6000803e3d6000fd5b5050505060006122e56127106114da6011548561211290919063ffffffff16565b9050801561230a57600b54600a5461230a916001600160a01b03918216911683611d58565b60006123276127106114da6010548661211290919063ffffffff16565b9050801561234657600a54612346906001600160a01b03163383611d58565b60125461237d906001600160a01b031661236a836123648787612106565b90612106565b600a546001600160a01b03169190611d58565b6012546001600160a01b031663bf4d14d561239c836123648787612106565b6040518263ffffffff1660e01b81526004016123ba91815260200190565b6020604051808303816000875af11580156123d9573d6000803e3d6000fd5b505050506040513d601f19601f820116820180604052508101906123fd9190612b03565b507fc7606d21ac05cd309191543e409f0845c016120563783d70e4f41419dc0ef234612427610df0565b6002546040805192835260208301919091520160405180910390a1505050565b600061249c826040518060400160405280602081526020017f5361666545524332303a206c6f772d6c6576656c2063616c6c206661696c6564815250856001600160a01b031661261a9092919063ffffffff16565b80519091501561149757808060200190518101906124ba9190612ae6565b6114975760405162461bcd60e51b815260206004820152602a60248201527f5361666545524332303a204552433230206f7065726174696f6e20646964206e6044820152691bdd081cdd58d8d9595960b21b606482015260840161099e565b6002546125269082611a85565b6002556001600160a01b03821660009081526004602052604090205461254c9082611a85565b6001600160a01b0383166000818152600460205260408082209390935591519091907fddf252ad1be2c89b69c2b068fc378daa952ba7f163c4a11628f55a4df523b3ef90611e749085815260200190565b600081116125fc5760405162461bcd60e51b815260206004820152602660248201527f476d785374726174656779466f72474c503a3a5f7374616b654465706f736974604482015265546f6b656e7360d01b606482015260840161099e565b6114a6612607612631565b6009546001600160a01b03169083611d58565b6060612629848460008561269e565b949350505050565b60125460408051629a1e7760e21b815290516000926001600160a01b03169163026879dc9160048083019260209291908290030181865afa15801561267a573d6000803e3d6000fd5b505050506040513d601f19601f82011682018060405250810190610e749190612bfe565b6060824710156126ff5760405162461bcd60e51b815260206004820152602660248201527f416464726573733a20696e73756666696369656e742062616c616e636520666f6044820152651c8818d85b1b60d21b606482015260840161099e565b6001600160a01b0385163b6127565760405162461bcd60e51b815260206004820152601d60248201527f416464726573733a2063616c6c20746f206e6f6e2d636f6e7472616374000000604482015260640161099e565b600080866001600160a01b031685876040516127729190612c73565b60006040518083038185875af1925050503d80600081146127af576040519150601f19603f3d011682016040523d82523d6000602084013e6127b4565b606091505b50915091506127c48282866127cf565b979650505050505050565b606083156127de57508161093e565b8251156127ee5782518084602001fd5b8160405162461bcd60e51b815260040161099e9190612838565b60005b8381101561282357818101518382015260200161280b565b83811115612832576000848401525b50505050565b6020815260008251806020840152612857816040850160208701612808565b601f01601f19169190910160400192915050565b6001600160a01b03811681146114a657600080fd5b6000806040838503121561289357600080fd5b823561289e8161286b565b946020939093013593505050565b6000806000606084860312156128c157600080fd5b83356128cc8161286b565b925060208401356128dc8161286b565b929592945050506040919091013590565b6000602082840312156128ff57600080fd5b5035919050565b60006020828403121561291857600080fd5b813561093e8161286b565b803560ff8116811461293457600080fd5b919050565b600080600080600060a0868803121561295157600080fd5b853594506020860135935061296860408701612923565b94979396509394606081013594506080013592915050565b80151581146114a657600080fd5b6000602082840312156129a057600080fd5b813561093e81612980565b600080604083850312156129be57600080fd5b82356129c98161286b565b915060208301356129d98161286b565b809150509250929050565b600080604083850312156129f757600080fd5b8235915060208301356129d981612980565b600080600080600080600060e0888a031215612a2457600080fd5b8735612a2f8161286b565b96506020880135612a3f8161286b565b95506040880135945060608801359350612a5b60808901612923565b925060a0880135915060c0880135905092959891949750929550565b600181811c90821680612a8b57607f821691505b602082108103612aab57634e487b7160e01b600052602260045260246000fd5b50919050565b6020808252818101527f4f776e61626c653a2063616c6c6572206973206e6f7420746865206f776e6572604082015260600190565b600060208284031215612af857600080fd5b815161093e81612980565b600060208284031215612b1557600080fd5b5051919050565b634e487b7160e01b600052601160045260246000fd5b600060018201612b4457612b44612b1c565b5060010190565b600080835481600182811c915080831680612b6757607f831692505b60208084108203612b8657634e487b7160e01b86526022600452602486fd5b818015612b9a5760018114612bab57612bd8565b60ff19861689528489019650612bd8565b60008a81526020902060005b86811015612bd05781548b820152908501908301612bb7565b505084890196505b509498975050505050505050565b60008219821115612bf957612bf9612b1c565b500190565b600060208284031215612c1057600080fd5b815161093e8161286b565b600082821015612c2d57612c2d612b1c565b500390565b6000816000190483118215151615612c4c57612c4c612b1c565b500290565b600082612c6e57634e487b7160e01b600052601260045260246000fd5b500490565b60008251612c85818460208701612808565b919091019291505056fe5f6275726e3a206275726e20616d6f756e74206578636565647320746f74616c20737570706c797472616e7366657246726f6d3a207472616e7366657220616d6f756e74206578636565647320616c6c6f77616e63655f6275726e3a206275726e20616d6f756e7420657863656564732066726f6d2062616c616e63655f7472616e73666572546f6b656e733a207472616e7366657220657863656564732066726f6d2062616c616e6365a2646970667358221220fbaad8f0a021a0fb7dc564a2e049dd95ea73a196d00a15604fdf9317915ff1b264736f6c634300080d00334f776e61626c653a2063616c6c6572206973206e6f7420746865206f776e65728be0079c531659141344cd1fd0a4f28419497f9722a3daafe3b4186f6b6457e0",
    "linkReferences": {}
  },
  "methodIdentifiers": {
    "ADMIN_FEE_BIPS()": "07677111",
    "DEPOSITS_ENABLED()": "b52a321f",
    "DEV_FEE_BIPS()": "5ea682ea",
    "DOMAIN_TYPEHASH()": "20606b70",
    "MAX_TOKENS_TO_DEPOSIT_WITHOUT_REINVEST()": "789139bc",
    "MIN_TOKENS_TO_REINVEST()": "bd079f55",
    "PERMIT_TYPEHASH()": "30adf81f",
    "REINVEST_REWARD_BIPS()": "8aff733d",
    "VERSION_HASH()": "9e4e7318",
    "allowDepositor(address)": "4bebd1e7",
    "allowance(address,address)": "dd62ed3e",
    "allowedDepositors(address)": "483c2ef0",
    "approve(address,uint256)": "095ea7b3",
    "balanceOf(address)": "70a08231",
    "checkReward()": "c4b24a46",
    "decimals()": "313ce567",
    "deposit(uint256)": "b6b55f25",
    "depositFor(address,uint256)": "2f4f21e2",
    "depositToken()": "c89039c5",
    "depositWithPermit(uint256,uint256,uint8,bytes32,bytes32)": "4a970be7",
    "devAddr()": "da09c72c",
    "estimateDeployedBalance()": "0f23475d",
    "estimateReinvestReward()": "b9e57b80",
    "getDepositTokensForShares(uint256)": "eab89a5a",
    "getDomainSeparator()": "ed24911d",
    "getSharesForDepositTokens(uint256)": "dd8ce4d6",
    "name()": "06fdde03",
    "nonces(address)": "7ecebe00",
    "numberOfAllowedDepositors()": "3bdc6e72",
    "owner()": "8da5cb5b",
    "permit(address,address,uint256,uint256,uint8,bytes32,bytes32)": "d505accf",
    "proxy()": "ec556889",
    "recoverAVAX(uint256)": "4ebb7916",
    "recoverERC20(address,uint256)": "8980f11f",
    "reinvest()": "fdb5a03e",
    "removeDepositor(address)": "8b73e606",
    "renounceOwnership()": "715018a6",
    "rescueDeployedFunds(uint256,bool)": "ac0d31ff",
    "revokeAllowance(address,address)": "7ae26773",
    "rewardToken()": "f7c618c1",
    "setProxy(address)": "97107d6d",
    "symbol()": "95d89b41",
    "totalDeposits()": "7d882097",
    "totalSupply()": "18160ddd",
    "transfer(address,uint256)": "a9059cbb",
    "transferFrom(address,address,uint256)": "23b872dd",
    "transferOwnership(address)": "f2fde38b",
    "updateAdminFee(uint256)": "cff1b6ef",
    "updateDepositsEnabled(bool)": "4e77ace5",
    "updateDevAddr(address)": "9291d563",
    "updateDevFee(uint256)": "99729ec1",
    "updateMaxTokensToDepositWithoutReinvest(uint256)": "e21ac825",
    "updateMinTokensToReinvest(uint256)": "81837230",
    "updateReinvestReward(uint256)": "a8ae2b7c",
    "withdraw(uint256)": "2e1a7d4d"
  },
  "id": 93
}