{
  "abi": [
    {
      "inputs": [
        {
          "internalType": "string",
          "name": "_name",
          "type": "string"
        },
        {
          "internalType": "address",
          "name": "_depositToken",
          "type": "address"
        },
        {
          "components": [
            {
              "internalType": "address",
              "name": "token0",
              "type": "address"
            },
            {
              "internalType": "address",
              "name": "token1",
              "type": "address"
            }
          ],
          "internalType": "struct VariableRewardsStrategyForLP.SwapPairs",
          "name": "_swapPairs",
          "type": "tuple"
        },
        {
          "components": [
            {
              "internalType": "address",
              "name": "reward",
              "type": "address"
            },
            {
              "internalType": "address",
              "name": "swapPair",
              "type": "address"
            }
          ],
          "internalType": "struct VariableRewardsStrategy.RewardSwapPairs[]",
          "name": "_rewardSwapPairs",
          "type": "tuple[]"
        },
        {
          "internalType": "address",
          "name": "_stakingContract",
          "type": "address"
        },
        {
          "internalType": "uint256",
          "name": "_pid",
          "type": "uint256"
        },
        {
          "internalType": "address",
          "name": "_boosterFeeCollector",
          "type": "address"
        },
        {
          "internalType": "address",
          "name": "_timelock",
          "type": "address"
        },
        {
          "components": [
            {
              "internalType": "uint256",
              "name": "minTokensToReinvest",
              "type": "uint256"
            },
            {
              "internalType": "uint256",
              "name": "devFeeBips",
              "type": "uint256"
            },
            {
              "internalType": "uint256",
              "name": "reinvestRewardBips",
              "type": "uint256"
            }
          ],
          "internalType": "struct YakStrategyV2.StrategySettings",
          "name": "_strategySettings",
          "type": "tuple"
        }
      ],
      "stateMutability": "nonpayable",
      "type": "constructor"
    },
    {
      "anonymous": false,
      "inputs": [
        {
          "indexed": false,
          "internalType": "address",
          "name": "rewardToken",
          "type": "address"
        },
        {
          "indexed": false,
          "internalType": "address",
          "name": "swapPair",
          "type": "address"
        }
      ],
      "name": "AddReward",
      "type": "event"
    },
    {
      "anonymous": false,
      "inputs": [
        {
          "indexed": true,
          "internalType": "address",
          "name": "account",
          "type": "address"
        }
      ],
      "name": "AllowDepositor",
      "type": "event"
    },
    {
      "anonymous": false,
      "inputs": [
        {
          "indexed": true,
          "internalType": "address",
          "name": "owner",
          "type": "address"
        },
        {
          "indexed": true,
          "internalType": "address",
          "name": "spender",
          "type": "address"
        },
        {
          "indexed": false,
          "internalType": "uint256",
          "name": "value",
          "type": "uint256"
        }
      ],
      "name": "Approval",
      "type": "event"
    },
    {
      "anonymous": false,
      "inputs": [
        {
          "indexed": true,
          "internalType": "address",
          "name": "account",
          "type": "address"
        },
        {
          "indexed": false,
          "internalType": "uint256",
          "name": "amount",
          "type": "uint256"
        }
      ],
      "name": "Deposit",
      "type": "event"
    },
    {
      "anonymous": false,
      "inputs": [
        {
          "indexed": false,
          "internalType": "bool",
          "name": "newValue",
          "type": "bool"
        }
      ],
      "name": "DepositsEnabled",
      "type": "event"
    },
    {
      "anonymous": false,
      "inputs": [
        {
          "indexed": true,
          "internalType": "address",
          "name": "previousOwner",
          "type": "address"
        },
        {
          "indexed": true,
          "internalType": "address",
          "name": "newOwner",
          "type": "address"
        }
      ],
      "name": "OwnershipTransferred",
      "type": "event"
    },
    {
      "anonymous": false,
      "inputs": [
        {
          "indexed": false,
          "internalType": "address",
          "name": "token",
          "type": "address"
        },
        {
          "indexed": false,
          "internalType": "uint256",
          "name": "amount",
          "type": "uint256"
        }
      ],
      "name": "Recovered",
      "type": "event"
    },
    {
      "anonymous": false,
      "inputs": [
        {
          "indexed": false,
          "internalType": "uint256",
          "name": "newTotalDeposits",
          "type": "uint256"
        },
        {
          "indexed": false,
          "internalType": "uint256",
          "name": "newTotalSupply",
          "type": "uint256"
        }
      ],
      "name": "Reinvest",
      "type": "event"
    },
    {
      "anonymous": false,
      "inputs": [
        {
          "indexed": true,
          "internalType": "address",
          "name": "account",
          "type": "address"
        }
      ],
      "name": "RemoveDepositor",
      "type": "event"
    },
    {
      "anonymous": false,
      "inputs": [
        {
          "indexed": false,
          "internalType": "address",
          "name": "rewardToken",
          "type": "address"
        }
      ],
      "name": "RemoveReward",
      "type": "event"
    },
    {
      "anonymous": false,
      "inputs": [
        {
          "indexed": true,
          "internalType": "address",
          "name": "from",
          "type": "address"
        },
        {
          "indexed": true,
          "internalType": "address",
          "name": "to",
          "type": "address"
        },
        {
          "indexed": false,
          "internalType": "uint256",
          "name": "value",
          "type": "uint256"
        }
      ],
      "name": "Transfer",
      "type": "event"
    },
    {
      "anonymous": false,
      "inputs": [
        {
          "indexed": false,
          "internalType": "uint256",
          "name": "oldValue",
          "type": "uint256"
        },
        {
          "indexed": false,
          "internalType": "uint256",
          "name": "newValue",
          "type": "uint256"
        }
      ],
      "name": "UpdateAdminFee",
      "type": "event"
    },
    {
      "anonymous": false,
      "inputs": [
        {
          "indexed": false,
          "internalType": "address",
          "name": "oldValue",
          "type": "address"
        },
        {
          "indexed": false,
          "internalType": "address",
          "name": "newValue",
          "type": "address"
        }
      ],
      "name": "UpdateDevAddr",
      "type": "event"
    },
    {
      "anonymous": false,
      "inputs": [
        {
          "indexed": false,
          "internalType": "uint256",
          "name": "oldValue",
          "type": "uint256"
        },
        {
          "indexed": false,
          "internalType": "uint256",
          "name": "newValue",
          "type": "uint256"
        }
      ],
      "name": "UpdateDevFee",
      "type": "event"
    },
    {
      "anonymous": false,
      "inputs": [
        {
          "indexed": false,
          "internalType": "uint256",
          "name": "oldValue",
          "type": "uint256"
        },
        {
          "indexed": false,
          "internalType": "uint256",
          "name": "newValue",
          "type": "uint256"
        }
      ],
      "name": "UpdateMaxTokensToDepositWithoutReinvest",
      "type": "event"
    },
    {
      "anonymous": false,
      "inputs": [
        {
          "indexed": false,
          "internalType": "uint256",
          "name": "oldValue",
          "type": "uint256"
        },
        {
          "indexed": false,
          "internalType": "uint256",
          "name": "newValue",
          "type": "uint256"
        }
      ],
      "name": "UpdateMinTokensToReinvest",
      "type": "event"
    },
    {
      "anonymous": false,
      "inputs": [
        {
          "indexed": false,
          "internalType": "uint256",
          "name": "oldValue",
          "type": "uint256"
        },
        {
          "indexed": false,
          "internalType": "uint256",
          "name": "newValue",
          "type": "uint256"
        }
      ],
      "name": "UpdateReinvestReward",
      "type": "event"
    },
    {
      "anonymous": false,
      "inputs": [
        {
          "indexed": true,
          "internalType": "address",
          "name": "account",
          "type": "address"
        },
        {
          "indexed": false,
          "internalType": "uint256",
          "name": "amount",
          "type": "uint256"
        }
      ],
      "name": "Withdraw",
      "type": "event"
    },
    {
      "inputs": [],
      "name": "ADMIN_FEE_BIPS",
      "outputs": [
        {
          "internalType": "uint256",
          "name": "",
          "type": "uint256"
        }
      ],
      "stateMutability": "view",
      "type": "function"
    },
    {
      "inputs": [],
      "name": "DEPOSITS_ENABLED",
      "outputs": [
        {
          "internalType": "bool",
          "name": "",
          "type": "bool"
        }
      ],
      "stateMutability": "view",
      "type": "function"
    },
    {
      "inputs": [],
      "name": "DEV_FEE_BIPS",
      "outputs": [
        {
          "internalType": "uint256",
          "name": "",
          "type": "uint256"
        }
      ],
      "stateMutability": "view",
      "type": "function"
    },
    {
      "inputs": [],
      "name": "DOMAIN_TYPEHASH",
      "outputs": [
        {
          "internalType": "bytes32",
          "name": "",
          "type": "bytes32"
        }
      ],
      "stateMutability": "view",
      "type": "function"
    },
    {
      "inputs": [],
      "name": "MAX_TOKENS_TO_DEPOSIT_WITHOUT_REINVEST",
      "outputs": [
        {
          "internalType": "uint256",
          "name": "",
          "type": "uint256"
        }
      ],
      "stateMutability": "view",
      "type": "function"
    },
    {
      "inputs": [],
      "name": "MIN_TOKENS_TO_REINVEST",
      "outputs": [
        {
          "internalType": "uint256",
          "name": "",
          "type": "uint256"
        }
      ],
      "stateMutability": "view",
      "type": "function"
    },
    {
      "inputs": [],
      "name": "PERMIT_TYPEHASH",
      "outputs": [
        {
          "internalType": "bytes32",
          "name": "",
          "type": "bytes32"
        }
      ],
      "stateMutability": "view",
      "type": "function"
    },
    {
      "inputs": [],
      "name": "PID",
      "outputs": [
        {
          "internalType": "uint256",
          "name": "",
          "type": "uint256"
        }
      ],
      "stateMutability": "view",
      "type": "function"
    },
    {
      "inputs": [],
      "name": "REINVEST_REWARD_BIPS",
      "outputs": [
        {
          "internalType": "uint256",
          "name": "",
          "type": "uint256"
        }
      ],
      "stateMutability": "view",
      "type": "function"
    },
    {
      "inputs": [],
      "name": "VERSION_HASH",
      "outputs": [
        {
          "internalType": "bytes32",
          "name": "",
          "type": "bytes32"
        }
      ],
      "stateMutability": "view",
      "type": "function"
    },
    {
      "inputs": [
        {
          "internalType": "address",
          "name": "_rewardToken",
          "type": "address"
        },
        {
          "internalType": "address",
          "name": "_swapPair",
          "type": "address"
        }
      ],
      "name": "addReward",
      "outputs": [],
      "stateMutability": "nonpayable",
      "type": "function"
    },
    {
      "inputs": [
        {
          "internalType": "address",
          "name": "depositor",
          "type": "address"
        }
      ],
      "name": "allowDepositor",
      "outputs": [],
      "stateMutability": "nonpayable",
      "type": "function"
    },
    {
      "inputs": [
        {
          "internalType": "address",
          "name": "account",
          "type": "address"
        },
        {
          "internalType": "address",
          "name": "spender",
          "type": "address"
        }
      ],
      "name": "allowance",
      "outputs": [
        {
          "internalType": "uint256",
          "name": "",
          "type": "uint256"
        }
      ],
      "stateMutability": "view",
      "type": "function"
    },
    {
      "inputs": [
        {
          "internalType": "address",
          "name": "",
          "type": "address"
        }
      ],
      "name": "allowedDepositors",
      "outputs": [
        {
          "internalType": "bool",
          "name": "",
          "type": "bool"
        }
      ],
      "stateMutability": "view",
      "type": "function"
    },
    {
      "inputs": [
        {
          "internalType": "address",
          "name": "spender",
          "type": "address"
        },
        {
          "internalType": "uint256",
          "name": "amount",
          "type": "uint256"
        }
      ],
      "name": "approve",
      "outputs": [
        {
          "internalType": "bool",
          "name": "",
          "type": "bool"
        }
      ],
      "stateMutability": "nonpayable",
      "type": "function"
    },
    {
      "inputs": [
        {
          "internalType": "address",
          "name": "account",
          "type": "address"
        }
      ],
      "name": "balanceOf",
      "outputs": [
        {
          "internalType": "uint256",
          "name": "",
          "type": "uint256"
        }
      ],
      "stateMutability": "view",
      "type": "function"
    },
    {
      "inputs": [],
      "name": "boosterFeeCollector",
      "outputs": [
        {
          "internalType": "contract IBoosterFeeCollector",
          "name": "",
          "type": "address"
        }
      ],
      "stateMutability": "view",
      "type": "function"
    },
    {
      "inputs": [
        {
          "internalType": "uint256",
          "name": "_amount",
          "type": "uint256"
        }
      ],
      "name": "calculateDepositFee",
      "outputs": [
        {
          "internalType": "uint256",
          "name": "",
          "type": "uint256"
        }
      ],
      "stateMutability": "view",
      "type": "function"
    },
    {
      "inputs": [
        {
          "internalType": "uint256",
          "name": "_amount",
          "type": "uint256"
        }
      ],
      "name": "calculateWithdrawFee",
      "outputs": [
        {
          "internalType": "uint256",
          "name": "",
          "type": "uint256"
        }
      ],
      "stateMutability": "view",
      "type": "function"
    },
    {
      "inputs": [],
      "name": "checkReward",
      "outputs": [
        {
          "internalType": "uint256",
          "name": "",
          "type": "uint256"
        }
      ],
      "stateMutability": "view",
      "type": "function"
    },
    {
      "inputs": [],
      "name": "decimals",
      "outputs": [
        {
          "internalType": "uint8",
          "name": "",
          "type": "uint8"
        }
      ],
      "stateMutability": "view",
      "type": "function"
    },
    {
      "inputs": [
        {
          "internalType": "uint256",
          "name": "_amount",
          "type": "uint256"
        }
      ],
      "name": "deposit",
      "outputs": [],
      "stateMutability": "nonpayable",
      "type": "function"
    },
    {
      "inputs": [
        {
          "internalType": "address",
          "name": "_account",
          "type": "address"
        },
        {
          "internalType": "uint256",
          "name": "_amount",
          "type": "uint256"
        }
      ],
      "name": "depositFor",
      "outputs": [],
      "stateMutability": "nonpayable",
      "type": "function"
    },
    {
      "inputs": [],
      "name": "depositToken",
      "outputs": [
        {
          "internalType": "contract IERC20",
          "name": "",
          "type": "address"
        }
      ],
      "stateMutability": "view",
      "type": "function"
    },
    {
      "inputs": [
        {
          "internalType": "uint256",
          "name": "_amount",
          "type": "uint256"
        },
        {
          "internalType": "uint256",
          "name": "_deadline",
          "type": "uint256"
        },
        {
          "internalType": "uint8",
          "name": "_v",
          "type": "uint8"
        },
        {
          "internalType": "bytes32",
          "name": "_r",
          "type": "bytes32"
        },
        {
          "internalType": "bytes32",
          "name": "_s",
          "type": "bytes32"
        }
      ],
      "name": "depositWithPermit",
      "outputs": [],
      "stateMutability": "nonpayable",
      "type": "function"
    },
    {
      "inputs": [],
      "name": "devAddr",
      "outputs": [
        {
          "internalType": "address",
          "name": "",
          "type": "address"
        }
      ],
      "stateMutability": "view",
      "type": "function"
    },
    {
      "inputs": [],
      "name": "estimateDeployedBalance",
      "outputs": [
        {
          "internalType": "uint256",
          "name": "",
          "type": "uint256"
        }
      ],
      "stateMutability": "view",
      "type": "function"
    },
    {
      "inputs": [],
      "name": "estimateReinvestReward",
      "outputs": [
        {
          "internalType": "uint256",
          "name": "",
          "type": "uint256"
        }
      ],
      "stateMutability": "view",
      "type": "function"
    },
    {
      "inputs": [
        {
          "internalType": "uint256",
          "name": "amount",
          "type": "uint256"
        }
      ],
      "name": "getDepositTokensForShares",
      "outputs": [
        {
          "internalType": "uint256",
          "name": "",
          "type": "uint256"
        }
      ],
      "stateMutability": "view",
      "type": "function"
    },
    {
      "inputs": [],
      "name": "getDomainSeparator",
      "outputs": [
        {
          "internalType": "bytes32",
          "name": "",
          "type": "bytes32"
        }
      ],
      "stateMutability": "view",
      "type": "function"
    },
    {
      "inputs": [
        {
          "internalType": "uint256",
          "name": "amount",
          "type": "uint256"
        }
      ],
      "name": "getSharesForDepositTokens",
      "outputs": [
        {
          "internalType": "uint256",
          "name": "",
          "type": "uint256"
        }
      ],
      "stateMutability": "view",
      "type": "function"
    },
    {
      "inputs": [],
      "name": "name",
      "outputs": [
        {
          "internalType": "string",
          "name": "",
          "type": "string"
        }
      ],
      "stateMutability": "view",
      "type": "function"
    },
    {
      "inputs": [
        {
          "internalType": "address",
          "name": "",
          "type": "address"
        }
      ],
      "name": "nonces",
      "outputs": [
        {
          "internalType": "uint256",
          "name": "",
          "type": "uint256"
        }
      ],
      "stateMutability": "view",
      "type": "function"
    },
    {
      "inputs": [],
      "name": "numberOfAllowedDepositors",
      "outputs": [
        {
          "internalType": "uint256",
          "name": "",
          "type": "uint256"
        }
      ],
      "stateMutability": "view",
      "type": "function"
    },
    {
      "inputs": [],
      "name": "owner",
      "outputs": [
        {
          "internalType": "address",
          "name": "",
          "type": "address"
        }
      ],
      "stateMutability": "view",
      "type": "function"
    },
    {
      "inputs": [
        {
          "internalType": "address",
          "name": "owner",
          "type": "address"
        },
        {
          "internalType": "address",
          "name": "spender",
          "type": "address"
        },
        {
          "internalType": "uint256",
          "name": "value",
          "type": "uint256"
        },
        {
          "internalType": "uint256",
          "name": "deadline",
          "type": "uint256"
        },
        {
          "internalType": "uint8",
          "name": "v",
          "type": "uint8"
        },
        {
          "internalType": "bytes32",
          "name": "r",
          "type": "bytes32"
        },
        {
          "internalType": "bytes32",
          "name": "s",
          "type": "bytes32"
        }
      ],
      "name": "permit",
      "outputs": [],
      "stateMutability": "nonpayable",
      "type": "function"
    },
    {
      "inputs": [
        {
          "internalType": "uint256",
          "name": "amount",
          "type": "uint256"
        }
      ],
      "name": "recoverAVAX",
      "outputs": [],
      "stateMutability": "nonpayable",
      "type": "function"
    },
    {
      "inputs": [
        {
          "internalType": "address",
          "name": "tokenAddress",
          "type": "address"
        },
        {
          "internalType": "uint256",
          "name": "tokenAmount",
          "type": "uint256"
        }
      ],
      "name": "recoverERC20",
      "outputs": [],
      "stateMutability": "nonpayable",
      "type": "function"
    },
    {
      "inputs": [],
      "name": "reinvest",
      "outputs": [],
      "stateMutability": "nonpayable",
      "type": "function"
    },
    {
      "inputs": [
        {
          "internalType": "address",
          "name": "depositor",
          "type": "address"
        }
      ],
      "name": "removeDepositor",
      "outputs": [],
      "stateMutability": "nonpayable",
      "type": "function"
    },
    {
      "inputs": [
        {
          "internalType": "address",
          "name": "_rewardToken",
          "type": "address"
        }
      ],
      "name": "removeReward",
      "outputs": [],
      "stateMutability": "nonpayable",
      "type": "function"
    },
    {
      "inputs": [],
      "name": "renounceOwnership",
      "outputs": [],
      "stateMutability": "nonpayable",
      "type": "function"
    },
    {
      "inputs": [
        {
          "internalType": "uint256",
          "name": "_minReturnAmountAccepted",
          "type": "uint256"
        },
        {
          "internalType": "bool",
          "name": "",
          "type": "bool"
        }
      ],
      "name": "rescueDeployedFunds",
      "outputs": [],
      "stateMutability": "nonpayable",
      "type": "function"
    },
    {
      "inputs": [
        {
          "internalType": "address",
          "name": "token",
          "type": "address"
        },
        {
          "internalType": "address",
          "name": "spender",
          "type": "address"
        }
      ],
      "name": "revokeAllowance",
      "outputs": [],
      "stateMutability": "nonpayable",
      "type": "function"
    },
    {
      "inputs": [],
      "name": "rewardCount",
      "outputs": [
        {
          "internalType": "uint256",
          "name": "",
          "type": "uint256"
        }
      ],
      "stateMutability": "view",
      "type": "function"
    },
    {
      "inputs": [
        {
          "internalType": "address",
          "name": "",
          "type": "address"
        }
      ],
      "name": "rewardSwapPairs",
      "outputs": [
        {
          "internalType": "address",
          "name": "",
          "type": "address"
        }
      ],
      "stateMutability": "view",
      "type": "function"
    },
    {
      "inputs": [],
      "name": "rewardToken",
      "outputs": [
        {
          "internalType": "contract IERC20",
          "name": "",
          "type": "address"
        }
      ],
      "stateMutability": "view",
      "type": "function"
    },
    {
      "inputs": [],
      "name": "steakMasterChef",
      "outputs": [
        {
          "internalType": "contract ISteakMasterChef",
          "name": "",
          "type": "address"
        }
      ],
      "stateMutability": "view",
      "type": "function"
    },
    {
      "inputs": [
        {
          "internalType": "uint256",
          "name": "",
          "type": "uint256"
        }
      ],
      "name": "supportedRewards",
      "outputs": [
        {
          "internalType": "address",
          "name": "",
          "type": "address"
        }
      ],
      "stateMutability": "view",
      "type": "function"
    },
    {
      "inputs": [],
      "name": "symbol",
      "outputs": [
        {
          "internalType": "string",
          "name": "",
          "type": "string"
        }
      ],
      "stateMutability": "view",
      "type": "function"
    },
    {
      "inputs": [],
      "name": "totalDeposits",
      "outputs": [
        {
          "internalType": "uint256",
          "name": "",
          "type": "uint256"
        }
      ],
      "stateMutability": "view",
      "type": "function"
    },
    {
      "inputs": [],
      "name": "totalSupply",
      "outputs": [
        {
          "internalType": "uint256",
          "name": "",
          "type": "uint256"
        }
      ],
      "stateMutability": "view",
      "type": "function"
    },
    {
      "inputs": [
        {
          "internalType": "address",
          "name": "dst",
          "type": "address"
        },
        {
          "internalType": "uint256",
          "name": "amount",
          "type": "uint256"
        }
      ],
      "name": "transfer",
      "outputs": [
        {
          "internalType": "bool",
          "name": "",
          "type": "bool"
        }
      ],
      "stateMutability": "nonpayable",
      "type": "function"
    },
    {
      "inputs": [
        {
          "internalType": "address",
          "name": "src",
          "type": "address"
        },
        {
          "internalType": "address",
          "name": "dst",
          "type": "address"
        },
        {
          "internalType": "uint256",
          "name": "amount",
          "type": "uint256"
        }
      ],
      "name": "transferFrom",
      "outputs": [
        {
          "internalType": "bool",
          "name": "",
          "type": "bool"
        }
      ],
      "stateMutability": "nonpayable",
      "type": "function"
    },
    {
      "inputs": [
        {
          "internalType": "address",
          "name": "newOwner",
          "type": "address"
        }
      ],
      "name": "transferOwnership",
      "outputs": [],
      "stateMutability": "nonpayable",
      "type": "function"
    },
    {
      "inputs": [
        {
          "internalType": "uint256",
          "name": "newValue",
          "type": "uint256"
        }
      ],
      "name": "updateAdminFee",
      "outputs": [],
      "stateMutability": "nonpayable",
      "type": "function"
    },
    {
      "inputs": [
        {
          "internalType": "address",
          "name": "_collector",
          "type": "address"
        }
      ],
      "name": "updateBoosterFeeCollector",
      "outputs": [],
      "stateMutability": "nonpayable",
      "type": "function"
    },
    {
      "inputs": [
        {
          "internalType": "bool",
          "name": "newValue",
          "type": "bool"
        }
      ],
      "name": "updateDepositsEnabled",
      "outputs": [],
      "stateMutability": "nonpayable",
      "type": "function"
    },
    {
      "inputs": [
        {
          "internalType": "address",
          "name": "newValue",
          "type": "address"
        }
      ],
      "name": "updateDevAddr",
      "outputs": [],
      "stateMutability": "nonpayable",
      "type": "function"
    },
    {
      "inputs": [
        {
          "internalType": "uint256",
          "name": "newValue",
          "type": "uint256"
        }
      ],
      "name": "updateDevFee",
      "outputs": [],
      "stateMutability": "nonpayable",
      "type": "function"
    },
    {
      "inputs": [
        {
          "internalType": "uint256",
          "name": "newValue",
          "type": "uint256"
        }
      ],
      "name": "updateMaxTokensToDepositWithoutReinvest",
      "outputs": [],
      "stateMutability": "nonpayable",
      "type": "function"
    },
    {
      "inputs": [
        {
          "internalType": "uint256",
          "name": "newValue",
          "type": "uint256"
        }
      ],
      "name": "updateMinTokensToReinvest",
      "outputs": [],
      "stateMutability": "nonpayable",
      "type": "function"
    },
    {
      "inputs": [
        {
          "internalType": "uint256",
          "name": "newValue",
          "type": "uint256"
        }
      ],
      "name": "updateReinvestReward",
      "outputs": [],
      "stateMutability": "nonpayable",
      "type": "function"
    },
    {
      "inputs": [
        {
          "internalType": "uint256",
          "name": "_amount",
          "type": "uint256"
        }
      ],
      "name": "withdraw",
      "outputs": [],
      "stateMutability": "nonpayable",
      "type": "function"
    }
  ],
  "bytecode": {
    "object": "0x610100604052600960c0819052685969656c642059616b60b81b60e09081526200002d91600091906200146b565b506040805180820190915260038082526216549560ea1b60209092019182526200005a916001916200146b565b503480156200006857600080fd5b5060405162006080380380620060808339810160408190526200008b91620016ce565b888888888585858584848480600033600680546001600160a01b0319166001600160a01b0383169081179091556040519192509060009060008051602062006040833981519152908290a3508051620000e49062000289565b6020810151620000f49062000319565b60408101516200010490620003d0565b5084516200011a9060009060208801906200146b565b50600980546001600160a01b0386166001600160a01b031991821617909155600a8054821660008051602062006060833981519152179055600b8054909116732d580f9cf2fb2d09bc411532988f2afda4e7beff17905560005b8351811015620001e557620001d084828151811062000197576200019762001830565b602002602001015160000151858381518110620001b857620001b862001830565b6020026020010151602001516200048760201b60201c565b80620001dc816200185c565b91505062000174565b50620001f2600162000610565b620001fd82620006ba565b60408051600080825260208201527fc7606d21ac05cd309191543e409f0845c016120563783d70e4f41419dc0ef234910160405180910390a150505050506200024c84620007b760201b60201c565b505050506001600160a01b039687166080525050601780546001600160a01b03191693909516929092179093555060a05250620018ed9350505050565b6006546001600160a01b03163314620002d85760405162461bcd60e51b815260206004820181905260248201526000805160206200602083398151915260448201526064015b60405180910390fd5b600c5460408051918252602082018390527f481f79ac3a523b6d6db3c5a720e190e986d1cc1b41adcdf50f9caef849901100910160405180910390a1600c55565b6006546001600160a01b03163314620003645760405162461bcd60e51b81526020600482018190526024820152600080516020620060208339815191526044820152606401620002cf565b61271062000383601054836200123160201b6200208b1790919060201c565b11156200038f57600080fd5b60115460408051918252602082018390527f2a42303d002f0ba6cfe8259c91d4684443fb0b3de286ba74991175d651726131910160405180910390a1601155565b6006546001600160a01b031633146200041b5760405162461bcd60e51b81526020600482018190526024820152600080516020620060208339815191526044820152606401620002cf565b6127106200043a601154836200123160201b6200208b1790919060201c565b11156200044657600080fd5b60105460408051918252602082018390527fe7f97d51d307dc44045597c9978bec0f842e6bb40d19b9444084cfa30d9ed4f2910160405180910390a1601055565b600a546001600160a01b038381169116146200054057620004ca8183600a60009054906101000a90046001600160a01b03166200124660201b620020971760201c565b62000540576040805162461bcd60e51b81526020600482015260248101919091527f5661726961626c655265776172647353747261746567793a3a5377617020706160448201527f697220646f6573206e6f7420636f6e7461696e2072657761726420746f6b656e6064820152608401620002cf565b6001600160a01b038083166000818152601260209081526040822080549486166001600160a01b03199586161790556013805460018181018355919093527f66de8ffda797e3de9c05e8fc57b3bf0ec28a930d40b0d285d93c06501cf6a0909092018054909416909217909255601454620005c69290916200208b62001231821b17901c565b601455604080516001600160a01b038085168252831660208201527f916e172c080569186aa7ea048268267257cf7cc49505908863f747bca8620f80910160405180910390a15050565b6006546001600160a01b031633146200065b5760405162461bcd60e51b81526020600482018190526024820152600080516020620060208339815191526044820152606401620002cf565b600e5481151560ff9091161515036200067357600080fd5b600e805460ff19168215159081179091556040519081527f7b014ed3854e7f5cb0218d58b3c6ae7d53a68bb0af2f67bfb029ea42c38a7e859060200160405180910390a150565b6006546001600160a01b03163314620007055760405162461bcd60e51b81526020600482018190526024820152600080516020620060208339815191526044820152606401620002cf565b6001600160a01b0381166200076c5760405162461bcd60e51b815260206004820152602660248201527f4f776e61626c653a206e6577206f776e657220697320746865207a65726f206160448201526564647265737360d01b6064820152608401620002cf565b6006546040516001600160a01b038084169216906000805160206200604083398151915290600090a3600680546001600160a01b0319166001600160a01b0392909216919091179055565b600960009054906101000a90046001600160a01b03166001600160a01b0316630dfe16816040518163ffffffff1660e01b8152600401602060405180830381865afa1580156200080b573d6000803e3d6000fd5b505050506040513d601f19601f8201168201806040525081019062000831919062001878565b6001600160a01b0316600080516020620060608339815191526001600160a01b031614158015620008fc5750600960009054906101000a90046001600160a01b03166001600160a01b031663d21220a76040518163ffffffff1660e01b8152600401602060405180830381865afa158015620008b1573d6000803e3d6000fd5b505050506040513d601f19601f82011682018060405250810190620008d7919062001878565b6001600160a01b0316600080516020620060608339815191526001600160a01b031614155b15620010b55780516001600160a01b03166200096d5760405162461bcd60e51b815260206004820152602960248201527f5377617020706169722030206973206e656365737361727920627574206e6f74604482015268081cdd5c1c1b1a595960ba1b6064820152608401620002cf565b60208101516001600160a01b0316620009db5760405162461bcd60e51b815260206004820152602960248201527f5377617020706169722031206973206e656365737361727920627574206e6f74604482015268081cdd5c1c1b1a595960ba1b6064820152608401620002cf565b8051601580546001600160a01b03199081166001600160a01b0393841690811790925560208085015160168054909316941693909317905560408051630dfe168160e01b815290516000805160206200606083398151915293630dfe168192600480820193918290030181865afa15801562000a5b573d6000803e3d6000fd5b505050506040513d601f19601f8201168201806040525081019062000a81919062001878565b6001600160a01b0316148062000b1c57506015546040805163d21220a760e01b8152905160008051602062006060833981519152926001600160a01b03169163d21220a79160048083019260209291908290030181865afa15801562000aeb573d6000803e3d6000fd5b505050506040513d601f19601f8201168201806040525081019062000b11919062001878565b6001600160a01b0316145b62000b9e5760405162461bcd60e51b815260206004820152604560248201527f53776170207061697220737570706c69656420646f6573206e6f74206861766560448201527f207468652072657761726420746f6b656e206173206f6e65206f662069742773606482015264103830b4b960d91b608482015260a401620002cf565b600960009054906101000a90046001600160a01b03166001600160a01b0316630dfe16816040518163ffffffff1660e01b8152600401602060405180830381865afa15801562000bf2573d6000803e3d6000fd5b505050506040513d601f19601f8201168201806040525081019062000c18919062001878565b6001600160a01b0316601560009054906101000a90046001600160a01b03166001600160a01b0316630dfe16816040518163ffffffff1660e01b8152600401602060405180830381865afa15801562000c75573d6000803e3d6000fd5b505050506040513d601f19601f8201168201806040525081019062000c9b919062001878565b6001600160a01b0316148062000db45750600960009054906101000a90046001600160a01b03166001600160a01b0316630dfe16816040518163ffffffff1660e01b8152600401602060405180830381865afa15801562000d00573d6000803e3d6000fd5b505050506040513d601f19601f8201168201806040525081019062000d26919062001878565b6001600160a01b0316601560009054906101000a90046001600160a01b03166001600160a01b031663d21220a76040518163ffffffff1660e01b8152600401602060405180830381865afa15801562000d83573d6000803e3d6000fd5b505050506040513d601f19601f8201168201806040525081019062000da9919062001878565b6001600160a01b0316145b62000e285760405162461bcd60e51b815260206004820152603860248201527f537761702070616972203020737570706c69656420646f6573206e6f74206d6160448201527f74636820746865207061697220696e207175657374696f6e00000000000000006064820152608401620002cf565b600960009054906101000a90046001600160a01b03166001600160a01b031663d21220a76040518163ffffffff1660e01b8152600401602060405180830381865afa15801562000e7c573d6000803e3d6000fd5b505050506040513d601f19601f8201168201806040525081019062000ea2919062001878565b6001600160a01b0316601660009054906101000a90046001600160a01b03166001600160a01b0316630dfe16816040518163ffffffff1660e01b8152600401602060405180830381865afa15801562000eff573d6000803e3d6000fd5b505050506040513d601f19601f8201168201806040525081019062000f25919062001878565b6001600160a01b031614806200103e5750600960009054906101000a90046001600160a01b03166001600160a01b031663d21220a76040518163ffffffff1660e01b8152600401602060405180830381865afa15801562000f8a573d6000803e3d6000fd5b505050506040513d601f19601f8201168201806040525081019062000fb0919062001878565b6001600160a01b0316601660009054906101000a90046001600160a01b03166001600160a01b031663d21220a76040518163ffffffff1660e01b8152600401602060405180830381865afa1580156200100d573d6000803e3d6000fd5b505050506040513d601f19601f8201168201806040525081019062001033919062001878565b6001600160a01b0316145b620010b25760405162461bcd60e51b815260206004820152603860248201527f537761702070616972203120737570706c69656420646f6573206e6f74206d6160448201527f74636820746865207061697220696e207175657374696f6e00000000000000006064820152608401620002cf565b50565b600960009054906101000a90046001600160a01b03166001600160a01b0316630dfe16816040518163ffffffff1660e01b8152600401602060405180830381865afa15801562001109573d6000803e3d6000fd5b505050506040513d601f19601f820116820180604052508101906200112f919062001878565b6001600160a01b031660008051602062006060833981519152036200117357600954601680546001600160a01b0319166001600160a01b0390921691909117905550565b600960009054906101000a90046001600160a01b03166001600160a01b031663d21220a76040518163ffffffff1660e01b8152600401602060405180830381865afa158015620011c7573d6000803e3d6000fd5b505050506040513d601f19601f82011682018060405250810190620011ed919062001878565b6001600160a01b03166000805160206200606083398151915203620010b257600954601580546001600160a01b0319166001600160a01b0390921691909117905550565b60006200123f828462001896565b9392505050565b6000836001600160a01b0316630dfe16816040518163ffffffff1660e01b8152600401602060405180830381865afa15801562001287573d6000803e3d6000fd5b505050506040513d601f19601f82011682018060405250810190620012ad919062001878565b6001600160a01b0316836001600160a01b03161480620013425750836001600160a01b031663d21220a76040518163ffffffff1660e01b8152600401602060405180830381865afa15801562001307573d6000803e3d6000fd5b505050506040513d601f19601f820116820180604052508101906200132d919062001878565b6001600160a01b0316836001600160a01b0316145b8015620014445750836001600160a01b0316630dfe16816040518163ffffffff1660e01b8152600401602060405180830381865afa15801562001389573d6000803e3d6000fd5b505050506040513d601f19601f82011682018060405250810190620013af919062001878565b6001600160a01b0316826001600160a01b03161480620014445750836001600160a01b031663d21220a76040518163ffffffff1660e01b8152600401602060405180830381865afa15801562001409573d6000803e3d6000fd5b505050506040513d601f19601f820116820180604052508101906200142f919062001878565b6001600160a01b0316826001600160a01b0316145b8015620014635750816001600160a01b0316836001600160a01b031614155b949350505050565b8280546200147990620018b1565b90600052602060002090601f0160209004810192826200149d5760008555620014e8565b82601f10620014b857805160ff1916838001178555620014e8565b82800160010185558215620014e8579182015b82811115620014e8578251825591602001919060010190620014cb565b50620014f6929150620014fa565b5090565b5b80821115620014f65760008155600101620014fb565b634e487b7160e01b600052604160045260246000fd5b604051601f8201601f191681016001600160401b038111828210171562001552576200155262001511565b604052919050565b80516001600160a01b03811681146200157257600080fd5b919050565b6000604082840312156200158a57600080fd5b604080519081016001600160401b0381118282101715620015af57620015af62001511565b604052905080620015c0836200155a565b8152620015d0602084016200155a565b60208201525092915050565b600082601f830112620015ee57600080fd5b815160206001600160401b038211156200160c576200160c62001511565b6200161c818360051b0162001527565b82815260069290921b840181019181810190868411156200163c57600080fd5b8286015b84811015620016645762001655888262001577565b83529183019160400162001640565b509695505050505050565b6000606082840312156200168257600080fd5b604051606081016001600160401b0381118282101715620016a757620016a762001511565b80604052508091508251815260208301516020820152604083015160408201525092915050565b60008060008060008060008060006101808a8c031215620016ee57600080fd5b89516001600160401b03808211156200170657600080fd5b818c0191508c601f8301126200171b57600080fd5b81518181111562001730576200173062001511565b602062001746601f8301601f1916820162001527565b8281528f828487010111156200175b57600080fd5b60005b838110156200177b5785810183015182820184015282016200175e565b838111156200178d5760008385840101525b509c506200179d8e82016200155a565b9b505050620017b08d60408e0162001577565b985060808c0151915080821115620017c757600080fd5b50620017d68c828d01620015dc565b965050620017e760a08b016200155a565b945060c08a01519350620017fe60e08b016200155a565b92506200180f6101008b016200155a565b9150620018218b6101208c016200166f565b90509295985092959850929598565b634e487b7160e01b600052603260045260246000fd5b634e487b7160e01b600052601160045260246000fd5b60006001820162001871576200187162001846565b5060010190565b6000602082840312156200188b57600080fd5b6200123f826200155a565b60008219821115620018ac57620018ac62001846565b500190565b600181811c90821680620018c657607f821691505b602082108103620018e757634e487b7160e01b600052602260045260246000fd5b50919050565b60805160a0516146a46200197c600039600081816105b80152818161101c0152818161254701528181612b2401528181612c06015281816133a90152613875015260008181610718015281816110550152818161257701528181612a8401528181612af501528181612c40015281816133d9015281816137f8015281816138a2015261392e01526146a46000f3fe608060405234801561001057600080fd5b50600436106103d05760003560e01c80638980f11f116101ff578063b9e57b801161011a578063dd8ce4d6116100ad578063ed24911d1161007c578063ed24911d146108b9578063f2fde38b146108c1578063f7c618c1146108d4578063fdb5a03e146108e757600080fd5b8063dd8ce4d61461086d578063e21ac82514610880578063e75ab04514610893578063eab89a5a146108a657600080fd5b8063cff1b6ef116100e9578063cff1b6ef146107fb578063d505accf1461080e578063da09c72c14610821578063dd62ed3e1461083457600080fd5b8063b9e57b80146107cf578063bd079f55146107d7578063c4b24a46146107e0578063c89039c5146107e857600080fd5b8063a0faeb9111610192578063a9059cbb11610161578063a9059cbb14610789578063ac0d31ff1461079c578063b52a321f146107af578063b6b55f25146107bc57600080fd5b8063a0faeb9114610713578063a4d5e67c1461073a578063a5534e711461074d578063a8ae2b7c1461077657600080fd5b80639291d563116101ce5780639291d563146106be57806395d89b41146106d157806399729ec1146106d95780639e4e7318146106ec57600080fd5b80638980f11f1461067e5780638aff733d146106915780638b73e6061461069a5780638da5cb5b146106ad57600080fd5b8063483c2ef0116102ef57806370a08231116102825780637ae26773116102515780637ae26773146106305780637d882097146106435780637ecebe001461064b578063818372301461066b57600080fd5b806370a08231146105ed578063715018a614610616578063789139bc1461061e578063790854251461062757600080fd5b80634ebb7916116102be5780634ebb7916146105975780635ea682ea146105aa5780635eaec0e4146105b35780636c8b4b52146105da57600080fd5b8063483c2ef01461053b5780634a970be71461055e5780634bebd1e7146105715780634e77ace51461058457600080fd5b806323b872dd1161036757806330adf81f1161033657806330adf81f146104de578063313ce567146105055780633bdc6e721461051f57806340b47e1a1461052857600080fd5b806323b872dd146104a3578063247d284b146104605780632e1a7d4d146104b65780632f4f21e2146104cb57600080fd5b80630fccc400116103a35780630fccc40014610435578063110560351461046057806318160ddd1461047357806320606b701461047c57600080fd5b806306fdde03146103d557806307677111146103f3578063095ea7b31461040a5780630f23475d1461042d575b600080fd5b6103dd6108ef565b6040516103ea9190614057565b60405180910390f35b6103fc600f5481565b6040519081526020016103ea565b61041d61041836600461407f565b61097d565b60405190151581526020016103ea565b6103fc610993565b601754610448906001600160a01b031681565b6040516001600160a01b0390911681526020016103ea565b6103fc61046e3660046140ab565b6109be565b6103fc60025481565b6103fc7f8b73c3c69bb8fe3d512ecc4cf759cc79239f7b179b0ffacaa9a75d522b39400f81565b61041d6104b13660046140c4565b6109cf565b6104c96104c43660046140ab565b610ab3565b005b6104c96104d936600461407f565b610bae565b6103fc7f6e71edae12b1b97f4d1f60370fef10105fa2faae0126114a169c64845d6126c981565b61050d601281565b60405160ff90911681526020016103ea565b6103fc60075481565b6104c9610536366004614105565b610bbc565b61041d61054936600461413e565b60086020526000908152604090205460ff1681565b6104c961056c366004614171565b610bf0565b6104c961057f36600461413e565b610c89565b6104c96105923660046141c6565b610d88565b6104c96105a53660046140ab565b610e11565b6103fc60115481565b6103fc7f000000000000000000000000000000000000000000000000000000000000000081565b6104c96105e836600461413e565b610ea8565b6103fc6105fb36600461413e565b6001600160a01b031660009081526004602052604090205490565b6104c9610ef4565b6103fc600d5481565b6103fc60145481565b6104c961063e366004614105565b610f68565b6103fc61100d565b6103fc61065936600461413e565b60056020526000908152604090205481565b6104c96106793660046140ab565b6110c6565b6104c961068c36600461407f565b611131565b6103fc60105481565b6104c96106a836600461413e565b61121f565b6006546001600160a01b0316610448565b6104c96106cc36600461413e565b6113a0565b6103dd611433565b6104c96106e73660046140ab565b611440565b6103fc7fc89efdaa54c0f20c7adf612882df0950f5a951637e0307cdcb4c672f298b8bc681565b6104487f000000000000000000000000000000000000000000000000000000000000000081565b6104c961074836600461413e565b6114ce565b61044861075b36600461413e565b6012602052600090815260409020546001600160a01b031681565b6104c96107843660046140ab565b6116d4565b61041d61079736600461407f565b611762565b6104c96107aa3660046141e3565b61176f565b600e5461041d9060ff1681565b6104c96107ca3660046140ab565b611977565b6103fc611984565b6103fc600c5481565b6103fc6119c9565b600954610448906001600160a01b031681565b6104c96108093660046140ab565b611c30565b6104c961081c366004614208565b611ca6565b600b54610448906001600160a01b031681565b6103fc610842366004614105565b6001600160a01b03918216600090815260036020908152604080832093909416825291909152205490565b6103fc61087b3660046140ab565b611dab565b6104c961088e3660046140ab565b611de5565b6104486108a13660046140ab565b611e50565b6103fc6108b43660046140ab565b611e7a565b6103fc611eae565b6104c96108cf36600461413e565b611f4e565b600a54610448906001600160a01b031681565b6104c9612039565b600080546108fc90614276565b80601f016020809104026020016040519081016040528092919081815260200182805461092890614276565b80156109755780601f1061094a57610100808354040283529160200191610975565b820191906000526020600020905b81548152906001019060200180831161095857829003601f168201915b505050505081565b600061098a3384846122ac565b50600192915050565b60008061099e61100d565b905060006109ab826123ba565b90506109b782826123cd565b9250505090565b60006109c9826123ba565b92915050565b6001600160a01b038316600081815260036020908152604080832033808552925282205491929091908214801590610a0957506000198114155b15610a9a576000610a35856040518060600160405280602f81526020016145eb602f91398491906123d9565b6001600160a01b038881166000818152600360209081526040808320948916808452948252918290208590559051848152939450919290917f8c5be1e5ebec7d5bd14f71427d1e84f3dd0314c0f7b2291e5b200ac8c7c3b925910160405180910390a3505b610aa5868686612405565b6001925050505b9392505050565b6000610abe82611e7a565b905060008111610b2e5760405162461bcd60e51b815260206004820152603060248201527f5661726961626c655265776172647353747261746567793a3a5769746864726160448201526f7720616d6f756e7420746f6f206c6f7760801b60648201526084015b60405180910390fd5b6000610b3982612538565b90506000610b46836123ba565b9050610b6933610b5684846123cd565b6009546001600160a01b031691906125e1565b610b73338561263c565b60405183815233907f884edad9ce6fa2440d8a54cc123490eb96d2768479d49ff9c7366125a94243649060200160405180910390a250505050565b610bb88282612712565b5050565b600b546001600160a01b03163314610be65760405162461bcd60e51b8152600401610b25906142b0565b610bb88282612900565b60095460405163d505accf60e01b8152336004820152306024820152604481018790526064810186905260ff8516608482015260a4810184905260c481018390526001600160a01b039091169063d505accf9060e401600060405180830381600087803b158015610c6057600080fd5b505af1158015610c74573d6000803e3d6000fd5b50505050610c823386612712565b5050505050565b6006546001600160a01b03163314610cb35760405162461bcd60e51b8152600401610b25906142de565b6001600160a01b03811660009081526008602052604090205460ff1615610d1c5760405162461bcd60e51b815260206004820152601c60248201527f5065726d697373696f6e65643a3a616c6c6f774465706f7369746f72000000006044820152606401610b25565b6001600160a01b0381166000908152600860205260409020805460ff19166001908117909155600754610d4e9161208b565b6007556040516001600160a01b038216907fc0a1035c16faf8d1304056d92c00edf028f87e62b8235a938f00af9e3c0312c590600090a250565b6006546001600160a01b03163314610db25760405162461bcd60e51b8152600401610b25906142de565b600e5481151560ff909116151503610dc957600080fd5b600e805460ff19168215159081179091556040519081527f7b014ed3854e7f5cb0218d58b3c6ae7d53a68bb0af2f67bfb029ea42c38a7e85906020015b60405180910390a150565b6006546001600160a01b03163314610e3b5760405162461bcd60e51b8152600401610b25906142de565b60008111610e4857600080fd5b604051339082156108fc029083906000818181858888f19350505050158015610e75573d6000803e3d6000fd5b507f8c1256b8896378cd5044f80c202f9772b9d77dc85c8a6eb51967210b09bfaa28600082604051610e06929190614313565b6006546001600160a01b03163314610ed25760405162461bcd60e51b8152600401610b25906142de565b601780546001600160a01b0319166001600160a01b0392909216919091179055565b6006546001600160a01b03163314610f1e5760405162461bcd60e51b8152600401610b25906142de565b6006546040516000916001600160a01b0316907f8be0079c531659141344cd1fd0a4f28419497f9722a3daafe3b4186f6b6457e0908390a3600680546001600160a01b0319169055565b6006546001600160a01b03163314610f925760405162461bcd60e51b8152600401610b25906142de565b60405163095ea7b360e01b81526001600160a01b0383169063095ea7b390610fc1908490600090600401614313565b6020604051808303816000875af1158015610fe0573d6000803e3d6000fd5b505050506040513d601f19601f82011682018060405250810190611004919061432c565b610bb857600080fd5b6040516393f1a40b60e01b81527f0000000000000000000000000000000000000000000000000000000000000000600482015230602482015260009081906001600160a01b037f000000000000000000000000000000000000000000000000000000000000000016906393f1a40b906044016040805180830381865afa15801561109b573d6000803e3d6000fd5b505050506040513d601f19601f820116820180604052508101906110bf9190614349565b5092915050565b6006546001600160a01b031633146110f05760405162461bcd60e51b8152600401610b25906142de565b600c5460408051918252602082018390527f481f79ac3a523b6d6db3c5a720e190e986d1cc1b41adcdf50f9caef849901100910160405180910390a1600c55565b6006546001600160a01b0316331461115b5760405162461bcd60e51b8152600401610b25906142de565b6000811161116857600080fd5b60405163a9059cbb60e01b81526001600160a01b0383169063a9059cbb906111969033908590600401614313565b6020604051808303816000875af11580156111b5573d6000803e3d6000fd5b505050506040513d601f19601f820116820180604052508101906111d9919061432c565b6111e257600080fd5b7f8c1256b8896378cd5044f80c202f9772b9d77dc85c8a6eb51967210b09bfaa288282604051611213929190614313565b60405180910390a15050565b6006546001600160a01b031633146112495760405162461bcd60e51b8152600401610b25906142de565b6000600754116112b85760405162461bcd60e51b815260206004820152603460248201527f5065726d697373696f6e65643a3a72656d6f76654465706f7369746f722c206e6044820152736f20616c6c6f776564206465706f7369746f727360601b6064820152608401610b25565b6001600160a01b03811660009081526008602052604090205460ff1615156001146113385760405162461bcd60e51b815260206004820152602a60248201527f5065726d697373696f6e65643a3a72656d6f76654465706f7369746f722c206e6044820152691bdd08185b1b1bddd95960b21b6064820152608401610b25565b6001600160a01b0381166000908152600860205260409020805460ff191690556007546113669060016123cd565b6007556040516001600160a01b038216907f0e86f6608b536e5339a25b65ff531f5ea91e1313d056ecd4752b35cbd16137d490600090a250565b600b546001600160a01b031633146113ca5760405162461bcd60e51b8152600401610b25906142b0565b600b54604080516001600160a01b03928316815291831660208301527fa8e91499ed37682f43cffb045fcc7d379a91e8c9a14e6321877ee34dee564c00910160405180910390a1600b80546001600160a01b0319166001600160a01b0392909216919091179055565b600180546108fc90614276565b6006546001600160a01b0316331461146a5760405162461bcd60e51b8152600401610b25906142de565b6127106114826010548361208b90919063ffffffff16565b111561148d57600080fd5b60115460408051918252602082018390527f2a42303d002f0ba6cfe8259c91d4684443fb0b3de286ba74991175d651726131910160405180910390a1601155565b600b546001600160a01b031633146114f85760405162461bcd60e51b8152600401610b25906142b0565b6001600160a01b038116600090815260126020526040812080546001600160a01b0319169055805b6013548110156115ec576013818154811061153d5761153d61436d565b6000918252602090912001546001600160a01b03908116908416036115da57601380546001935061156f908490614399565b8154811061157f5761157f61436d565b600091825260209091200154601380546001600160a01b0390921691839081106115ab576115ab61436d565b9060005260206000200160006101000a8154816001600160a01b0302191690836001600160a01b031602179055505b806115e4816143b0565b915050611520565b50806116575760405162461bcd60e51b815260206004820152603460248201527f5661726961626c655265776172647353747261746567793a3a52657761726420604482015273746f2064656c657465206e6f7420666f756e642160601b6064820152608401610b25565b6013805480611668576116686143c9565b600082815260209020810160001990810180546001600160a01b03191690550190556014546116989060016123cd565b6014556040516001600160a01b03831681527f963b7c735475147a62c589c2d7cb8ec4b0a6b7af4f97373d79ebfa42ab8aa7dc90602001611213565b6006546001600160a01b031633146116fe5760405162461bcd60e51b8152600401610b25906142de565b6127106117166011548361208b90919063ffffffff16565b111561172157600080fd5b60105460408051918252602082018390527fe7f97d51d307dc44045597c9978bec0f842e6bb40d19b9444084cfa30d9ed4f2910160405180910390a1601055565b600061098a338484612405565b6006546001600160a01b031633146117995760405162461bcd60e51b8152600401610b25906142de565b6009546040516370a0823160e01b81523060048201526000916001600160a01b0316906370a0823190602401602060405180830381865afa1580156117e2573d6000803e3d6000fd5b505050506040513d601f19601f8201168201806040525081019061180691906143df565b9050611810612a5c565b6009546040516370a0823160e01b81523060048201526000916001600160a01b0316906370a0823190602401602060405180830381865afa158015611859573d6000803e3d6000fd5b505050506040513d601f19601f8201168201806040525081019061187d91906143df565b90508361188a82846123cd565b10156119145760405162461bcd60e51b815260206004820152604d60248201527f5661726961626c655265776172647353747261746567793a3a456d657267656e60448201527f6379207769746864726177206d696e696d756d2072657475726e20616d6f756e60648201526c1d081b9bdd081c995858da1959609a1b608482015260a401610b25565b7fc7606d21ac05cd309191543e409f0845c016120563783d70e4f41419dc0ef23461193d61100d565b6002546040805192835260208301919091520160405180910390a1600e5460ff161515600103611971576119716000610d88565b50505050565b6119813382612712565b50565b60008061198f6119c9565b9050600c5481106119c1576119bb6127106119b560105484612b9d90919063ffffffff16565b90612ba9565b91505090565b600091505090565b6000806119d4612bb5565b6040516370a0823160e01b815230600482015290915060009073b31f66aa3c1e785363f0875a1b74e27b85fd66c7906370a0823190602401602060405180830381865afa158015611a29573d6000803e3d6000fd5b505050506040513d601f19601f82011682018060405250810190611a4d91906143df565b9050611a59814761208b565b5060005b82518110156110bf576000838281518110611a7a57611a7a61436d565b602002602001015160000151905073b31f66aa3c1e785363f0875a1b74e27b85fd66c76001600160a01b0316816001600160a01b031603611aec57611ae5848381518110611aca57611aca61436d565b6020026020010151602001518461208b90919063ffffffff16565b9250611c1d565b6040516370a0823160e01b81523060048201526000906001600160a01b038316906370a0823190602401602060405180830381865afa158015611b33573d6000803e3d6000fd5b505050506040513d601f19601f82011682018060405250810190611b5791906143df565b90506000611b8b868581518110611b7057611b7061436d565b6020026020010151602001518361208b90919063ffffffff16565b9050600060126000888781518110611ba557611ba561436d565b602090810291909101810151516001600160a01b03908116835290820192909252604001600020541690508115801590611be757506001600160a01b03811615155b15611c1957611c16611c0f838673b31f66aa3c1e785363f0875a1b74e27b85fd66c785612d80565b879061208b565b95505b5050505b5080611c28816143b0565b915050611a5d565b6006546001600160a01b03163314611c5a5760405162461bcd60e51b8152600401610b25906142de565b8015611c6557600080fd5b600f5460408051918252602082018390527f3cc372f330f95ac9540626dc8a25f5bf21ba607215a5d58304cb804d446f104a910160405180910390a1600f55565b42841015611ce85760405162461bcd60e51b815260206004820152600f60248201526e1c195c9b5a5d0e8e995e1c1a5c9959608a1b6044820152606401610b25565b6001600160a01b038716600090815260056020526040812080547f6e71edae12b1b97f4d1f60370fef10105fa2faae0126114a169c64845d6126c9918a918a918a919086611d35836143b0565b909155506040805160208101969096526001600160a01b0394851690860152929091166060840152608083015260a082015260c0810186905260e001604051602081830303815290604052805190602001209050611d968882868686612e3e565b611da18888886122ac565b5050505050505050565b6000611dc1611db861100d565b60025490612b9d565b600003611dcc575090565b6109c9611dd761100d565b6002546119b5908590612b9d565b6006546001600160a01b03163314611e0f5760405162461bcd60e51b8152600401610b25906142de565b600d5460408051918252602082018390527fa5dae50539d56dfe1fb5273d883b0c39bc76750a25d036fc5fbd09ad8fd5f57f910160405180910390a1600d55565b60138181548110611e6057600080fd5b6000918252602090912001546001600160a01b0316905081565b6000611e87611db861100d565b600003611e9657506000919050565b6109c96002546119b5611ea761100d565b8590612b9d565b60007f8b73c3c69bb8fe3d512ecc4cf759cc79239f7b179b0ffacaa9a75d522b39400f60001b6000604051611ee391906143f8565b6040519081900390207fc89efdaa54c0f20c7adf612882df0950f5a951637e0307cdcb4c672f298b8bc646604080516020810195909552840192909252606083015260808201523060a082015260c00160405160208183030381529060405280519060200120905090565b6006546001600160a01b03163314611f785760405162461bcd60e51b8152600401610b25906142de565b6001600160a01b038116611fdd5760405162461bcd60e51b815260206004820152602660248201527f4f776e61626c653a206e6577206f776e657220697320746865207a65726f206160448201526564647265737360d01b6064820152608401610b25565b6006546040516001600160a01b038084169216907f8be0079c531659141344cd1fd0a4f28419497f9722a3daafe3b4186f6b6457e090600090a3600680546001600160a01b0319166001600160a01b0392909216919091179055565b32331461207f5760405162461bcd60e51b815260206004820152601460248201527359616b53747261746567793a3a6f6e6c79454f4160601b6044820152606401610b25565b6120896000612f6a565b565b6000610aac8284614493565b6000836001600160a01b0316630dfe16816040518163ffffffff1660e01b8152600401602060405180830381865afa1580156120d7573d6000803e3d6000fd5b505050506040513d601f19601f820116820180604052508101906120fb91906144ab565b6001600160a01b0316836001600160a01b0316148061218c5750836001600160a01b031663d21220a76040518163ffffffff1660e01b8152600401602060405180830381865afa158015612153573d6000803e3d6000fd5b505050506040513d601f19601f8201168201806040525081019061217791906144ab565b6001600160a01b0316836001600160a01b0316145b80156122865750836001600160a01b0316630dfe16816040518163ffffffff1660e01b8152600401602060405180830381865afa1580156121d1573d6000803e3d6000fd5b505050506040513d601f19601f820116820180604052508101906121f591906144ab565b6001600160a01b0316826001600160a01b031614806122865750836001600160a01b031663d21220a76040518163ffffffff1660e01b8152600401602060405180830381865afa15801561224d573d6000803e3d6000fd5b505050506040513d601f19601f8201168201806040525081019061227191906144ab565b6001600160a01b0316826001600160a01b0316145b80156122a45750816001600160a01b0316836001600160a01b031614155b949350505050565b6001600160a01b0383166123025760405162461bcd60e51b815260206004820152601c60248201527f5f617070726f76653a3a6f776e6572207a65726f2061646472657373000000006044820152606401610b25565b6001600160a01b0382166123585760405162461bcd60e51b815260206004820152601e60248201527f5f617070726f76653a3a7370656e646572207a65726f206164647265737300006044820152606401610b25565b6001600160a01b0383811660008181526003602090815260408083209487168084529482529182902085905590518481527f8c5be1e5ebec7d5bd14f71427d1e84f3dd0314c0f7b2291e5b200ac8c7c3b92591015b60405180910390a3505050565b600080610aac6127106119b58584612b9d565b6000610aac8284614399565b600081848411156123fd5760405162461bcd60e51b8152600401610b259190614057565b505050900390565b6001600160a01b0382166124785760405162461bcd60e51b815260206004820152603460248201527f5f7472616e73666572546f6b656e733a2063616e6e6f74207472616e7366657260448201527320746f20746865207a65726f206164647265737360601b6064820152608401610b25565b6124b5816040518060600160405280602e8152602001614641602e91396001600160a01b03861660009081526004602052604090205491906123d9565b6001600160a01b0380851660009081526004602052604080822093909355908416815220546124e4908261208b565b6001600160a01b0380841660008181526004602052604090819020939093559151908516907fddf252ad1be2c89b69c2b068fc378daa952ba7f163c4a11628f55a4df523b3ef906123ad9085815260200190565b604051630441a3e760e41b81527f00000000000000000000000000000000000000000000000000000000000000006004820152602481018290526000907f00000000000000000000000000000000000000000000000000000000000000006001600160a01b03169063441a3e7090604401600060405180830381600087803b1580156125c357600080fd5b505af11580156125d7573d6000803e3d6000fd5b5093949350505050565b6126378363a9059cbb60e01b8484604051602401612600929190614313565b60408051601f198184030181529190526020810180516001600160e01b03166001600160e01b0319909316929092179091526130e0565b505050565b6126798160405180606001604052806027815260200161461a602791396001600160a01b03851660009081526004602052604090205491906123d9565b60046000846001600160a01b03166001600160a01b03168152602001908152602001600020819055506126c9816040518060600160405280602781526020016145c46027913960025491906123d9565b6002556040518181526000906001600160a01b038416907fddf252ad1be2c89b69c2b068fc378daa952ba7f163c4a11628f55a4df523b3ef906020015b60405180910390a35050565b600e5460ff16151560011461277c5760405162461bcd60e51b815260206004820152602a60248201527f5661726961626c655265776172647353747261746567793a3a4465706f7369746044820152691cc8191a5cd8589b195960b21b6064820152608401610b25565b600d54156127a657600061278e6119c9565b9050600d548111156127a4576127a46001612f6a565b505b6009546040516323b872dd60e01b8152336004820152306024820152604481018390526001600160a01b03909116906323b872dd906064016020604051808303816000875af11580156127fd573d6000803e3d6000fd5b505050506040513d601f19601f82011682018060405250810190612821919061432c565b61288c5760405162461bcd60e51b815260206004820152603660248201527f5661726961626c655265776172647353747261746567793a3a4465706f736974604482015275081d1bdad95b881d1c985b9cd9995c8819985a5b195960521b6064820152608401610b25565b6000612897826123ba565b90506128af836128aa61087b85856123cd565b6131b2565b6128b882613236565b826001600160a01b03167fe1fffcc4923d04b559f4d29a8bfc6cda04eb5b0d3c460751c2402c5c5cc9109c836040516128f391815260200190565b60405180910390a2505050565b600a546001600160a01b038381169116146129a257600a5461292e90829084906001600160a01b0316612097565b6129a2576040805162461bcd60e51b81526020600482015260248101919091527f5661726961626c655265776172647353747261746567793a3a5377617020706160448201527f697220646f6573206e6f7420636f6e7461696e2072657761726420746f6b656e6064820152608401610b25565b6001600160a01b03808316600081815260126020526040812080549385166001600160a01b03199485161790556013805460018181018355919092527f66de8ffda797e3de9c05e8fc57b3bf0ec28a930d40b0d285d93c06501cf6a0909091018054909316909117909155601454612a199161208b565b601455604080516001600160a01b038085168252831660208201527f916e172c080569186aa7ea048268267257cf7cc49505908863f747bca8620f809101611213565b60095460405163095ea7b360e01b81526001600160a01b039091169063095ea7b390612aaf907f000000000000000000000000000000000000000000000000000000000000000090600090600401614313565b6020604051808303816000875af1158015612ace573d6000803e3d6000fd5b505050506040513d601f19601f82011682018060405250810190612af2919061432c565b507f00000000000000000000000000000000000000000000000000000000000000006001600160a01b031663441a3e707f0000000000000000000000000000000000000000000000000000000000000000612b4b61100d565b6040516001600160e01b031960e085901b16815260048101929092526024820152604401600060405180830381600087803b158015612b8957600080fd5b505af1158015611971573d6000803e3d6000fd5b6000610aac82846144c8565b6000610aac82846144e7565b60408051600180825281830190925260609160009190816020015b6040805180820190915260008082526020820152815260200190600190039081612bd057905050604051633ccb214960e01b81527f000000000000000000000000000000000000000000000000000000000000000060048201523060248201529091506000906001600160a01b037f00000000000000000000000000000000000000000000000000000000000000001690633ccb214990604401602060405180830381865afa158015612c87573d6000803e3d6000fd5b505050506040513d601f19601f82011682018060405250810190612cab91906143df565b601754604051633cb6bbcb60e21b81529192506000916001600160a01b039091169063f2daef2c90612ce39030908690600401614313565b602060405180830381865afa158015612d00573d6000803e3d6000fd5b505050506040513d601f19601f82011682018060405250810190612d2491906143df565b60408051808201909152736e84a6216ea6dacc71ee8e6b0a5b7322eebc0fdd815290915060208101612d5684846123cd565b81525083600081518110612d6c57612d6c61436d565b602002602001018190525082935050505090565b600080612d8d85856132a5565b509050600080846001600160a01b0316630902f1ac6040518163ffffffff1660e01b8152600401606060405180830381865afa158015612dd1573d6000803e3d6000fd5b505050506040513d601f19601f82011682018060405250810190612df59190614520565b5091509150866001600160a01b0316836001600160a01b031614612e1557905b612e3288836001600160701b0316836001600160701b03166132d6565b98975050505050505050565b6000612e48611eae565b60405161190160f01b602082015260228101919091526042810186905260620160408051601f198184030181528282528051602091820120600080855291840180845281905260ff88169284019290925260608301869052608083018590529092509060019060a0016020604051602081039080840390855afa158015612ed3573d6000803e3d6000fd5b5050604051601f1901519150506001600160a01b03811615801590612f095750866001600160a01b0316816001600160a01b0316145b612f615760405162461bcd60e51b8152602060048201526024808201527f417263683a3a76616c69646174655369673a20696e76616c6964207369676e616044820152637475726560e01b6064820152608401610b25565b50505050505050565b612f72613324565b6000612f7c613561565b905081612fee57600c54811015612fee5760405162461bcd60e51b815260206004820152603060248201527f5661726961626c655265776172647353747261746567793a3a5265696e76657360448201526f7420616d6f756e7420746f6f206c6f7760801b6064820152608401610b25565b600061300b6127106119b560115485612b9d90919063ffffffff16565b9050801561303057600b54600a54613030916001600160a01b039182169116836125e1565b600061304d6127106119b560105486612b9d90919063ffffffff16565b9050801561306c57600a5461306c906001600160a01b031633836125e1565b600061308a6130858361307f87876123cd565b906123cd565b613792565b905061309581613236565b7fc7606d21ac05cd309191543e409f0845c016120563783d70e4f41419dc0ef2346130be61100d565b6002546040805192835260208301919091520160405180910390a15050505050565b6000613135826040518060400160405280602081526020017f5361666545524332303a206c6f772d6c6576656c2063616c6c206661696c6564815250856001600160a01b03166137c19092919063ffffffff16565b8051909150156126375780806020019051810190613153919061432c565b6126375760405162461bcd60e51b815260206004820152602a60248201527f5361666545524332303a204552433230206f7065726174696f6e20646964206e6044820152691bdd081cdd58d8d9595960b21b6064820152608401610b25565b6002546131bf908261208b565b6002556001600160a01b0382166000908152600460205260409020546131e5908261208b565b6001600160a01b0383166000818152600460205260408082209390935591519091907fddf252ad1be2c89b69c2b068fc378daa952ba7f163c4a11628f55a4df523b3ef906127069085815260200190565b6000811161329c5760405162461bcd60e51b815260206004820152602d60248201527f5661726961626c655265776172647353747261746567793a3a5374616b65206160448201526c6d6f756e7420746f6f206c6f7760981b6064820152608401610b25565b611981816137d0565b600080826001600160a01b0316846001600160a01b0316106132c85782846132cb565b83835b915091509250929050565b6000806132e5856103e5612b9d565b905060006132f38285612b9d565b9050600061330d83613307886103e8612b9d565b9061208b565b90506133198282612ba9565b979650505050505050565b6040516370a0823160e01b8152306004820152600090736e84a6216ea6dacc71ee8e6b0a5b7322eebc0fdd906370a0823190602401602060405180830381865afa158015613376573d6000803e3d6000fd5b505050506040513d601f19601f8201168201806040525081019061339a91906143df565b604051631c57762b60e31b81527f00000000000000000000000000000000000000000000000000000000000000006004820152600060248201529091507f00000000000000000000000000000000000000000000000000000000000000006001600160a01b03169063e2bbb15890604401600060405180830381600087803b15801561342557600080fd5b505af1158015613439573d6000803e3d6000fd5b50506040516370a0823160e01b8152306004820152600092506134b991508390736e84a6216ea6dacc71ee8e6b0a5b7322eebc0fdd906370a0823190602401602060405180830381865afa158015613495573d6000803e3d6000fd5b505050506040513d601f19601f8201168201806040525081019061307f91906143df565b601754604051633cb6bbcb60e21b81529192506000916001600160a01b039091169063f2daef2c906134f19030908690600401614313565b602060405180830381865afa15801561350e573d6000803e3d6000fd5b505050506040513d601f19601f8201168201806040525081019061353291906143df565b60175490915061263790736e84a6216ea6dacc71ee8e6b0a5b7322eebc0fdd906001600160a01b0316836125e1565b6040516370a0823160e01b8152306004820152600090819073b31f66aa3c1e785363f0875a1b74e27b85fd66c7906370a0823190602401602060405180830381865afa1580156135b5573d6000803e3d6000fd5b505050506040513d601f19601f820116820180604052508101906135d991906143df565b60135490915060005b8181101561378a576000601382815481106135ff576135ff61436d565b6000918252602090912001546001600160a01b0316905073b31f66aa3c1e785363f0875a1b74e27b85fd66c61981016136be574780156136b75773b31f66aa3c1e785363f0875a1b74e27b85fd66c76001600160a01b031663d0e30db0826040518263ffffffff1660e01b81526004016000604051808303818588803b15801561368857600080fd5b505af115801561369c573d6000803e3d6000fd5b50505050506136b4818661208b90919063ffffffff16565b94505b5050613778565b6040516370a0823160e01b81523060048201526000906001600160a01b038316906370a0823190602401602060405180830381865afa158015613705573d6000803e3d6000fd5b505050506040513d601f19601f8201168201806040525081019061372991906143df565b90508015613775576001600160a01b0380831660009081526012602052604090205416801561377357600a5461377090611c0f90849086906001600160a01b03168561399c565b95505b505b50505b80613782816143b0565b9150506135e2565b509092915050565b600a546009546015546016546000936109c99386936001600160a01b0392831693918316929081169116613b10565b60606122a48484600085613cb4565b60095460405163095ea7b360e01b81526001600160a01b039091169063095ea7b390613822907f0000000000000000000000000000000000000000000000000000000000000000908590600401614313565b6020604051808303816000875af1158015613841573d6000803e3d6000fd5b505050506040513d601f19601f82011682018060405250810190613865919061432c565b50604051631c57762b60e31b81527f00000000000000000000000000000000000000000000000000000000000000006004820152602481018290527f00000000000000000000000000000000000000000000000000000000000000006001600160a01b03169063e2bbb15890604401600060405180830381600087803b1580156138ee57600080fd5b505af1158015613902573d6000803e3d6000fd5b505060095460405163095ea7b360e01b81526001600160a01b03909116925063095ea7b39150613959907f000000000000000000000000000000000000000000000000000000000000000090600090600401614313565b6020604051808303816000875af1158015613978573d6000803e3d6000fd5b505050506040513d601f19601f82011682018060405250810190610bb8919061432c565b6000806139a985856132a5565b509050600080846001600160a01b0316630902f1ac6040518163ffffffff1660e01b8152600401606060405180830381865afa1580156139ed573d6000803e3d6000fd5b505050506040513d601f19601f82011682018060405250810190613a119190614520565b5091509150866001600160a01b0316836001600160a01b031614613a3157905b600080613a518a856001600160701b0316856001600160701b03166132d6565b9050886001600160a01b0316856001600160a01b031614613a6e57905b613a826001600160a01b038a16888c6125e1565b6040805160008152602081019182905263022c0d9f60e01b9091526001600160a01b0388169063022c0d9f90613ac19085908590309060248101614570565b600060405180830381600087803b158015613adb57600080fd5b505af1158015613aef573d6000803e3d6000fd5b50505050818111613b005781613b02565b805b9a9950505050505050505050565b600080613b1e876002612ba9565b905060008111613b885760405162461bcd60e51b815260206004820152602f60248201527f4465784c6962726172793a3a5f636f6e76657274526577617264546f6b656e7360448201526e546f4465706f736974546f6b656e7360881b6064820152608401610b25565b6000856001600160a01b0316630dfe16816040518163ffffffff1660e01b8152600401602060405180830381865afa158015613bc8573d6000803e3d6000fd5b505050506040513d601f19601f82011682018060405250810190613bec91906144ab565b9050816001600160a01b0388811690831614613c1157613c0e8389848961399c565b90505b6000876001600160a01b031663d21220a76040518163ffffffff1660e01b8152600401602060405180830381865afa158015613c51573d6000803e3d6000fd5b505050506040513d601f19601f82011682018060405250810190613c7591906144ab565b9050836001600160a01b038a811690831614613c9a57613c97858b848a61399c565b90505b613ca5898483613dda565b9b9a5050505050505050505050565b606082471015613d155760405162461bcd60e51b815260206004820152602660248201527f416464726573733a20696e73756666696369656e742062616c616e636520666f6044820152651c8818d85b1b60d21b6064820152608401610b25565b6001600160a01b0385163b613d6c5760405162461bcd60e51b815260206004820152601d60248201527f416464726573733a2063616c6c20746f206e6f6e2d636f6e74726163740000006044820152606401610b25565b600080866001600160a01b03168587604051613d8891906145a7565b60006040518083038185875af1925050503d8060008114613dc5576040519150601f19603f3d011682016040523d82523d6000602084013e613dca565b606091505b5091509150613319828286613fb6565b6000806000856001600160a01b0316630902f1ac6040518163ffffffff1660e01b8152600401606060405180830381865afa158015613e1d573d6000803e3d6000fd5b505050506040513d601f19601f82011682018060405250810190613e419190614520565b50915091506000613e6586846001600160701b0316846001600160701b0316613fef565b905084811115613e9257849050613e8f85836001600160701b0316856001600160701b0316613fef565b95505b613f098787896001600160a01b0316630dfe16816040518163ffffffff1660e01b8152600401602060405180830381865afa158015613ed5573d6000803e3d6000fd5b505050506040513d601f19601f82011682018060405250810190613ef991906144ab565b6001600160a01b031691906125e1565b613f4c8782896001600160a01b031663d21220a76040518163ffffffff1660e01b8152600401602060405180830381865afa158015613ed5573d6000803e3d6000fd5b6040516335313c2160e11b81523060048201526001600160a01b03881690636a627842906024016020604051808303816000875af1158015613f92573d6000803e3d6000fd5b505050506040513d601f19601f8201168201806040525081019061331991906143df565b60608315613fc5575081610aac565b825115613fd55782518084602001fd5b8160405162461bcd60e51b8152600401610b259190614057565b60006122a4836119b58685612b9d565b60005b8381101561401a578181015183820152602001614002565b838111156119715750506000910152565b60008151808452614043816020860160208601613fff565b601f01601f19169290920160200192915050565b602081526000610aac602083018461402b565b6001600160a01b038116811461198157600080fd5b6000806040838503121561409257600080fd5b823561409d8161406a565b946020939093013593505050565b6000602082840312156140bd57600080fd5b5035919050565b6000806000606084860312156140d957600080fd5b83356140e48161406a565b925060208401356140f48161406a565b929592945050506040919091013590565b6000806040838503121561411857600080fd5b82356141238161406a565b915060208301356141338161406a565b809150509250929050565b60006020828403121561415057600080fd5b8135610aac8161406a565b803560ff8116811461416c57600080fd5b919050565b600080600080600060a0868803121561418957600080fd5b85359450602086013593506141a06040870161415b565b94979396509394606081013594506080013592915050565b801515811461198157600080fd5b6000602082840312156141d857600080fd5b8135610aac816141b8565b600080604083850312156141f657600080fd5b823591506020830135614133816141b8565b600080600080600080600060e0888a03121561422357600080fd5b873561422e8161406a565b9650602088013561423e8161406a565b9550604088013594506060880135935061425a6080890161415b565b925060a0880135915060c0880135905092959891949750929550565b600181811c9082168061428a57607f821691505b6020821081036142aa57634e487b7160e01b600052602260045260246000fd5b50919050565b6020808252601490820152732cb0b5a9ba3930ba32b3bc9d1d37b7363ca232bb60611b604082015260600190565b6020808252818101527f4f776e61626c653a2063616c6c6572206973206e6f7420746865206f776e6572604082015260600190565b6001600160a01b03929092168252602082015260400190565b60006020828403121561433e57600080fd5b8151610aac816141b8565b6000806040838503121561435c57600080fd5b505080516020909101519092909150565b634e487b7160e01b600052603260045260246000fd5b634e487b7160e01b600052601160045260246000fd5b6000828210156143ab576143ab614383565b500390565b6000600182016143c2576143c2614383565b5060010190565b634e487b7160e01b600052603160045260246000fd5b6000602082840312156143f157600080fd5b5051919050565b600080835481600182811c91508083168061441457607f831692505b6020808410820361443357634e487b7160e01b86526022600452602486fd5b818015614447576001811461445857614485565b60ff19861689528489019650614485565b60008a81526020902060005b8681101561447d5781548b820152908501908301614464565b505084890196505b509498975050505050505050565b600082198211156144a6576144a6614383565b500190565b6000602082840312156144bd57600080fd5b8151610aac8161406a565b60008160001904831182151516156144e2576144e2614383565b500290565b60008261450457634e487b7160e01b600052601260045260246000fd5b500490565b80516001600160701b038116811461416c57600080fd5b60008060006060848603121561453557600080fd5b61453e84614509565b925061454c60208501614509565b9150604084015163ffffffff8116811461456557600080fd5b809150509250925092565b84815283602082015260018060a01b038316604082015260806060820152600061459d608083018461402b565b9695505050505050565b600082516145b9818460208701613fff565b919091019291505056fe5f6275726e3a206275726e20616d6f756e74206578636565647320746f74616c20737570706c797472616e7366657246726f6d3a207472616e7366657220616d6f756e74206578636565647320616c6c6f77616e63655f6275726e3a206275726e20616d6f756e7420657863656564732066726f6d2062616c616e63655f7472616e73666572546f6b656e733a207472616e7366657220657863656564732066726f6d2062616c616e6365a26469706673582212207466772e69260e6bc3e06eae2ef7b6355e0c3e83dcf8464c10cddf2eaacbaee864736f6c634300080d00334f776e61626c653a2063616c6c6572206973206e6f7420746865206f776e65728be0079c531659141344cd1fd0a4f28419497f9722a3daafe3b4186f6b6457e0000000000000000000000000b31f66aa3c1e785363f0875a1b74e27b85fd66c7",
    "linkReferences": {}
  },
  "methodIdentifiers": {
    "ADMIN_FEE_BIPS()": "07677111",
    "DEPOSITS_ENABLED()": "b52a321f",
    "DEV_FEE_BIPS()": "5ea682ea",
    "DOMAIN_TYPEHASH()": "20606b70",
    "MAX_TOKENS_TO_DEPOSIT_WITHOUT_REINVEST()": "789139bc",
    "MIN_TOKENS_TO_REINVEST()": "bd079f55",
    "PERMIT_TYPEHASH()": "30adf81f",
    "PID()": "5eaec0e4",
    "REINVEST_REWARD_BIPS()": "8aff733d",
    "VERSION_HASH()": "9e4e7318",
    "addReward(address,address)": "40b47e1a",
    "allowDepositor(address)": "4bebd1e7",
    "allowance(address,address)": "dd62ed3e",
    "allowedDepositors(address)": "483c2ef0",
    "approve(address,uint256)": "095ea7b3",
    "balanceOf(address)": "70a08231",
    "boosterFeeCollector()": "0fccc400",
    "calculateDepositFee(uint256)": "247d284b",
    "calculateWithdrawFee(uint256)": "11056035",
    "checkReward()": "c4b24a46",
    "decimals()": "313ce567",
    "deposit(uint256)": "b6b55f25",
    "depositFor(address,uint256)": "2f4f21e2",
    "depositToken()": "c89039c5",
    "depositWithPermit(uint256,uint256,uint8,bytes32,bytes32)": "4a970be7",
    "devAddr()": "da09c72c",
    "estimateDeployedBalance()": "0f23475d",
    "estimateReinvestReward()": "b9e57b80",
    "getDepositTokensForShares(uint256)": "eab89a5a",
    "getDomainSeparator()": "ed24911d",
    "getSharesForDepositTokens(uint256)": "dd8ce4d6",
    "name()": "06fdde03",
    "nonces(address)": "7ecebe00",
    "numberOfAllowedDepositors()": "3bdc6e72",
    "owner()": "8da5cb5b",
    "permit(address,address,uint256,uint256,uint8,bytes32,bytes32)": "d505accf",
    "recoverAVAX(uint256)": "4ebb7916",
    "recoverERC20(address,uint256)": "8980f11f",
    "reinvest()": "fdb5a03e",
    "removeDepositor(address)": "8b73e606",
    "removeReward(address)": "a4d5e67c",
    "renounceOwnership()": "715018a6",
    "rescueDeployedFunds(uint256,bool)": "ac0d31ff",
    "revokeAllowance(address,address)": "7ae26773",
    "rewardCount()": "79085425",
    "rewardSwapPairs(address)": "a5534e71",
    "rewardToken()": "f7c618c1",
    "steakMasterChef()": "a0faeb91",
    "supportedRewards(uint256)": "e75ab045",
    "symbol()": "95d89b41",
    "totalDeposits()": "7d882097",
    "totalSupply()": "18160ddd",
    "transfer(address,uint256)": "a9059cbb",
    "transferFrom(address,address,uint256)": "23b872dd",
    "transferOwnership(address)": "f2fde38b",
    "updateAdminFee(uint256)": "cff1b6ef",
    "updateBoosterFeeCollector(address)": "6c8b4b52",
    "updateDepositsEnabled(bool)": "4e77ace5",
    "updateDevAddr(address)": "9291d563",
    "updateDevFee(uint256)": "99729ec1",
    "updateMaxTokensToDepositWithoutReinvest(uint256)": "e21ac825",
    "updateMinTokensToReinvest(uint256)": "81837230",
    "updateReinvestReward(uint256)": "a8ae2b7c",
    "withdraw(uint256)": "2e1a7d4d"
  },
  "id": 135
}