{
  "abi": [
    {
      "inputs": [
        {
          "internalType": "address",
          "name": "_owner",
          "type": "address"
        },
        {
          "internalType": "address",
          "name": "_stakingContract",
          "type": "address"
        }
      ],
      "stateMutability": "nonpayable",
      "type": "constructor"
    },
    {
      "anonymous": false,
      "inputs": [
        {
          "indexed": true,
          "internalType": "address",
          "name": "owner",
          "type": "address"
        },
        {
          "indexed": true,
          "internalType": "address",
          "name": "spender",
          "type": "address"
        },
        {
          "indexed": false,
          "internalType": "uint256",
          "name": "value",
          "type": "uint256"
        }
      ],
      "name": "Approval",
      "type": "event"
    },
    {
      "anonymous": false,
      "inputs": [
        {
          "indexed": true,
          "internalType": "address",
          "name": "previousOwner",
          "type": "address"
        },
        {
          "indexed": true,
          "internalType": "address",
          "name": "newOwner",
          "type": "address"
        }
      ],
      "name": "OwnershipTransferred",
      "type": "event"
    },
    {
      "anonymous": false,
      "inputs": [
        {
          "indexed": true,
          "internalType": "address",
          "name": "from",
          "type": "address"
        },
        {
          "indexed": true,
          "internalType": "address",
          "name": "to",
          "type": "address"
        },
        {
          "indexed": false,
          "internalType": "uint256",
          "name": "value",
          "type": "uint256"
        }
      ],
      "name": "Transfer",
      "type": "event"
    },
    {
      "inputs": [],
      "name": "DOMAIN_TYPEHASH",
      "outputs": [
        {
          "internalType": "bytes32",
          "name": "",
          "type": "bytes32"
        }
      ],
      "stateMutability": "view",
      "type": "function"
    },
    {
      "inputs": [],
      "name": "JOE",
      "outputs": [
        {
          "internalType": "address",
          "name": "",
          "type": "address"
        }
      ],
      "stateMutability": "view",
      "type": "function"
    },
    {
      "inputs": [],
      "name": "PERMIT_TYPEHASH",
      "outputs": [
        {
          "internalType": "bytes32",
          "name": "",
          "type": "bytes32"
        }
      ],
      "stateMutability": "view",
      "type": "function"
    },
    {
      "inputs": [],
      "name": "VERSION_HASH",
      "outputs": [
        {
          "internalType": "bytes32",
          "name": "",
          "type": "bytes32"
        }
      ],
      "stateMutability": "view",
      "type": "function"
    },
    {
      "inputs": [
        {
          "internalType": "address",
          "name": "owner",
          "type": "address"
        },
        {
          "internalType": "address",
          "name": "spender",
          "type": "address"
        }
      ],
      "name": "allowance",
      "outputs": [
        {
          "internalType": "uint256",
          "name": "",
          "type": "uint256"
        }
      ],
      "stateMutability": "view",
      "type": "function"
    },
    {
      "inputs": [
        {
          "internalType": "address",
          "name": "spender",
          "type": "address"
        },
        {
          "internalType": "uint256",
          "name": "amount",
          "type": "uint256"
        }
      ],
      "name": "approve",
      "outputs": [
        {
          "internalType": "bool",
          "name": "",
          "type": "bool"
        }
      ],
      "stateMutability": "nonpayable",
      "type": "function"
    },
    {
      "inputs": [
        {
          "internalType": "address",
          "name": "account",
          "type": "address"
        }
      ],
      "name": "balanceOf",
      "outputs": [
        {
          "internalType": "uint256",
          "name": "",
          "type": "uint256"
        }
      ],
      "stateMutability": "view",
      "type": "function"
    },
    {
      "inputs": [],
      "name": "claimVeJOE",
      "outputs": [],
      "stateMutability": "nonpayable",
      "type": "function"
    },
    {
      "inputs": [],
      "name": "decimals",
      "outputs": [
        {
          "internalType": "uint8",
          "name": "",
          "type": "uint8"
        }
      ],
      "stateMutability": "view",
      "type": "function"
    },
    {
      "inputs": [
        {
          "internalType": "address",
          "name": "spender",
          "type": "address"
        },
        {
          "internalType": "uint256",
          "name": "subtractedValue",
          "type": "uint256"
        }
      ],
      "name": "decreaseAllowance",
      "outputs": [
        {
          "internalType": "bool",
          "name": "",
          "type": "bool"
        }
      ],
      "stateMutability": "nonpayable",
      "type": "function"
    },
    {
      "inputs": [
        {
          "internalType": "uint256",
          "name": "_amount",
          "type": "uint256"
        }
      ],
      "name": "deposit",
      "outputs": [],
      "stateMutability": "nonpayable",
      "type": "function"
    },
    {
      "inputs": [
        {
          "internalType": "uint256",
          "name": "_amount",
          "type": "uint256"
        }
      ],
      "name": "depositFromBalance",
      "outputs": [],
      "stateMutability": "nonpayable",
      "type": "function"
    },
    {
      "inputs": [],
      "name": "depositsEnabled",
      "outputs": [
        {
          "internalType": "bool",
          "name": "",
          "type": "bool"
        }
      ],
      "stateMutability": "view",
      "type": "function"
    },
    {
      "inputs": [
        {
          "internalType": "address",
          "name": "target",
          "type": "address"
        },
        {
          "internalType": "uint256",
          "name": "value",
          "type": "uint256"
        },
        {
          "internalType": "bytes",
          "name": "data",
          "type": "bytes"
        }
      ],
      "name": "execute",
      "outputs": [
        {
          "internalType": "bool",
          "name": "",
          "type": "bool"
        },
        {
          "internalType": "bytes",
          "name": "",
          "type": "bytes"
        }
      ],
      "stateMutability": "nonpayable",
      "type": "function"
    },
    {
      "inputs": [],
      "name": "getDomainSeparator",
      "outputs": [
        {
          "internalType": "bytes32",
          "name": "",
          "type": "bytes32"
        }
      ],
      "stateMutability": "view",
      "type": "function"
    },
    {
      "inputs": [
        {
          "internalType": "address",
          "name": "spender",
          "type": "address"
        },
        {
          "internalType": "uint256",
          "name": "addedValue",
          "type": "uint256"
        }
      ],
      "name": "increaseAllowance",
      "outputs": [
        {
          "internalType": "bool",
          "name": "",
          "type": "bool"
        }
      ],
      "stateMutability": "nonpayable",
      "type": "function"
    },
    {
      "inputs": [],
      "name": "name",
      "outputs": [
        {
          "internalType": "string",
          "name": "",
          "type": "string"
        }
      ],
      "stateMutability": "view",
      "type": "function"
    },
    {
      "inputs": [
        {
          "internalType": "address",
          "name": "",
          "type": "address"
        }
      ],
      "name": "nonces",
      "outputs": [
        {
          "internalType": "uint256",
          "name": "",
          "type": "uint256"
        }
      ],
      "stateMutability": "view",
      "type": "function"
    },
    {
      "inputs": [],
      "name": "owner",
      "outputs": [
        {
          "internalType": "address",
          "name": "",
          "type": "address"
        }
      ],
      "stateMutability": "view",
      "type": "function"
    },
    {
      "inputs": [
        {
          "internalType": "address",
          "name": "owner",
          "type": "address"
        },
        {
          "internalType": "address",
          "name": "spender",
          "type": "address"
        },
        {
          "internalType": "uint256",
          "name": "value",
          "type": "uint256"
        },
        {
          "internalType": "uint256",
          "name": "deadline",
          "type": "uint256"
        },
        {
          "internalType": "uint8",
          "name": "v",
          "type": "uint8"
        },
        {
          "internalType": "bytes32",
          "name": "r",
          "type": "bytes32"
        },
        {
          "internalType": "bytes32",
          "name": "s",
          "type": "bytes32"
        }
      ],
      "name": "permit",
      "outputs": [],
      "stateMutability": "nonpayable",
      "type": "function"
    },
    {
      "inputs": [],
      "name": "renounceOwnership",
      "outputs": [],
      "stateMutability": "nonpayable",
      "type": "function"
    },
    {
      "inputs": [
        {
          "internalType": "address",
          "name": "_stakingContract",
          "type": "address"
        }
      ],
      "name": "setStakingContract",
      "outputs": [],
      "stateMutability": "nonpayable",
      "type": "function"
    },
    {
      "inputs": [
        {
          "internalType": "address",
          "name": "_voterProxy",
          "type": "address"
        }
      ],
      "name": "setVoterProxy",
      "outputs": [],
      "stateMutability": "nonpayable",
      "type": "function"
    },
    {
      "inputs": [],
      "name": "stakingContract",
      "outputs": [
        {
          "internalType": "contract IVeJoeStaking",
          "name": "",
          "type": "address"
        }
      ],
      "stateMutability": "view",
      "type": "function"
    },
    {
      "inputs": [],
      "name": "symbol",
      "outputs": [
        {
          "internalType": "string",
          "name": "",
          "type": "string"
        }
      ],
      "stateMutability": "view",
      "type": "function"
    },
    {
      "inputs": [],
      "name": "totalSupply",
      "outputs": [
        {
          "internalType": "uint256",
          "name": "",
          "type": "uint256"
        }
      ],
      "stateMutability": "view",
      "type": "function"
    },
    {
      "inputs": [
        {
          "internalType": "address",
          "name": "to",
          "type": "address"
        },
        {
          "internalType": "uint256",
          "name": "amount",
          "type": "uint256"
        }
      ],
      "name": "transfer",
      "outputs": [
        {
          "internalType": "bool",
          "name": "",
          "type": "bool"
        }
      ],
      "stateMutability": "nonpayable",
      "type": "function"
    },
    {
      "inputs": [
        {
          "internalType": "address",
          "name": "from",
          "type": "address"
        },
        {
          "internalType": "address",
          "name": "to",
          "type": "address"
        },
        {
          "internalType": "uint256",
          "name": "amount",
          "type": "uint256"
        }
      ],
      "name": "transferFrom",
      "outputs": [
        {
          "internalType": "bool",
          "name": "",
          "type": "bool"
        }
      ],
      "stateMutability": "nonpayable",
      "type": "function"
    },
    {
      "inputs": [
        {
          "internalType": "address",
          "name": "newOwner",
          "type": "address"
        }
      ],
      "name": "transferOwnership",
      "outputs": [],
      "stateMutability": "nonpayable",
      "type": "function"
    },
    {
      "inputs": [
        {
          "internalType": "bool",
          "name": "newValue",
          "type": "bool"
        }
      ],
      "name": "updateDepositsEnabled",
      "outputs": [],
      "stateMutability": "nonpayable",
      "type": "function"
    },
    {
      "inputs": [],
      "name": "veJOE",
      "outputs": [
        {
          "internalType": "contract IERC20",
          "name": "",
          "type": "address"
        }
      ],
      "stateMutability": "view",
      "type": "function"
    },
    {
      "inputs": [],
      "name": "veJOEBalance",
      "outputs": [
        {
          "internalType": "uint256",
          "name": "",
          "type": "uint256"
        }
      ],
      "stateMutability": "view",
      "type": "function"
    },
    {
      "inputs": [],
      "name": "voterProxy",
      "outputs": [
        {
          "internalType": "address",
          "name": "",
          "type": "address"
        }
      ],
      "stateMutability": "view",
      "type": "function"
    },
    {
      "inputs": [],
      "name": "wrapAvaxBalance",
      "outputs": [
        {
          "internalType": "uint256",
          "name": "",
          "type": "uint256"
        }
      ],
      "stateMutability": "nonpayable",
      "type": "function"
    },
    {
      "stateMutability": "payable",
      "type": "receive"
    }
  ],
  "bytecode": {
    "object": "0x60806040526008805460ff60a01b1916600160a01b1790553480156200002457600080fd5b5060405162001ee138038062001ee183398101604081905262000047916200030a565b6040518060400160405280600d81526020016c5969656c642059616b204a4f4560981b8152506040518060400160405280600581526020016479794a4f4560d81b81525060006200009d6200013260201b60201c565b600080546001600160a01b0319166001600160a01b03831690811782556040519293509160008051602062001ec1833981519152908290a3508151620000eb90600590602085019062000247565b5080516200010190600690602084019062000247565b5050600780546001600160a01b0319166001600160a01b038416179055506200012a8262000136565b50506200037e565b3390565b6000546001600160a01b03163314620001965760405162461bcd60e51b815260206004820181905260248201527f4f776e61626c653a2063616c6c6572206973206e6f7420746865206f776e657260448201526064015b60405180910390fd5b6001600160a01b038116620001fd5760405162461bcd60e51b815260206004820152602660248201527f4f776e61626c653a206e6577206f776e657220697320746865207a65726f206160448201526564647265737360d01b60648201526084016200018d565b600080546040516001600160a01b038085169392169160008051602062001ec183398151915291a3600080546001600160a01b0319166001600160a01b0392909216919091179055565b828054620002559062000342565b90600052602060002090601f016020900481019282620002795760008555620002c4565b82601f106200029457805160ff1916838001178555620002c4565b82800160010185558215620002c4579182015b82811115620002c4578251825591602001919060010190620002a7565b50620002d2929150620002d6565b5090565b5b80821115620002d25760008155600101620002d7565b80516001600160a01b03811681146200030557600080fd5b919050565b600080604083850312156200031e57600080fd5b6200032983620002ed565b91506200033960208401620002ed565b90509250929050565b600181811c908216806200035757607f821691505b6020821081036200037857634e487b7160e01b600052602260045260246000fd5b50919050565b611b33806200038e6000396000f3fe6080604052600436106101fd5760003560e01c8063715018a61161010d578063a9059cbb116100a0578063dd62ed3e1161006f578063dd62ed3e14610616578063ed24911d14610636578063ee99205c1461064b578063f2fde38b1461066b578063ffebad301461068b57600080fd5b8063a9059cbb14610588578063b61d27f6146105a8578063b6b55f25146105d6578063d505accf146105f657600080fd5b806395d89b41116100dc57806395d89b41146104ff5780639dd373b9146105145780639e4e731814610534578063a457c2d71461056857600080fd5b8063715018a61461047f5780637c0bb4ab146104945780637ecebe00146104b45780638da5cb5b146104e157600080fd5b806330adf81f116101905780633b29b4bc1161015f5780633b29b4bc146103de5780634e77ace5146103f35780635392fd1c146104135780635a556f511461043457806370a082311461044957600080fd5b806330adf81f1461035957806330c622661461038d578063313ce567146103a257806339509351146103be57600080fd5b80631ba980b3116101cc5780631ba980b3146102a557806320606b70146102dd57806323b872dd14610311578063278b3bc91461033157600080fd5b8063052cdc0c1461020957806306fdde031461022b578063095ea7b31461025657806318160ddd1461028657600080fd5b3661020457005b600080fd5b34801561021557600080fd5b5061022961022436600461174e565b6106b3565b005b34801561023757600080fd5b50610240610708565b60405161024d91906117bd565b60405180910390f35b34801561026257600080fd5b506102766102713660046117d0565b61079a565b604051901515815260200161024d565b34801561029257600080fd5b506004545b60405190815260200161024d565b3480156102b157600080fd5b506008546102c5906001600160a01b031681565b6040516001600160a01b03909116815260200161024d565b3480156102e957600080fd5b506102977f8b73c3c69bb8fe3d512ecc4cf759cc79239f7b179b0ffacaa9a75d522b39400f81565b34801561031d57600080fd5b5061027661032c3660046117fa565b6107b2565b34801561033d57600080fd5b506102c5733cabf341943bc8466245e4d6f1ae0f8d071a145681565b34801561036557600080fd5b506102977f6e71edae12b1b97f4d1f60370fef10105fa2faae0126114a169c64845d6126c981565b34801561039957600080fd5b506102976107d6565b3480156103ae57600080fd5b506040516012815260200161024d565b3480156103ca57600080fd5b506102766103d93660046117d0565b610851565b3480156103ea57600080fd5b50610229610873565b3480156103ff57600080fd5b5061022961040e366004611844565b6108dd565b34801561041f57600080fd5b5060085461027690600160a01b900460ff1681565b34801561044057600080fd5b50610297610944565b34801561045557600080fd5b5061029761046436600461174e565b6001600160a01b031660009081526002602052604090205490565b34801561048b57600080fd5b506102296109db565b3480156104a057600080fd5b506102296104af366004611861565b610a4f565b3480156104c057600080fd5b506102976104cf36600461174e565b60016020526000908152604090205481565b3480156104ed57600080fd5b506000546001600160a01b03166102c5565b34801561050b57600080fd5b50610240610ae3565b34801561052057600080fd5b5061022961052f36600461174e565b610af2565b34801561054057600080fd5b506102977fc89efdaa54c0f20c7adf612882df0950f5a951637e0307cdcb4c672f298b8bc681565b34801561057457600080fd5b506102766105833660046117d0565b610b3e565b34801561059457600080fd5b506102766105a33660046117d0565b610bb9565b3480156105b457600080fd5b506105c86105c336600461187a565b610bc7565b60405161024d929190611901565b3480156105e257600080fd5b506102296105f1366004611861565b610c67565b34801561060257600080fd5b50610229610611366004611924565b610d93565b34801561062257600080fd5b50610297610631366004611997565b610e98565b34801561064257600080fd5b50610297610ec3565b34801561065757600080fd5b506007546102c5906001600160a01b031681565b34801561067757600080fd5b5061022961068636600461174e565b610f58565b34801561069757600080fd5b506102c5736e84a6216ea6dacc71ee8e6b0a5b7322eebc0fdd81565b6000546001600160a01b031633146106e65760405162461bcd60e51b81526004016106dd906119ca565b60405180910390fd5b600880546001600160a01b0319166001600160a01b0392909216919091179055565b606060058054610717906119ff565b80601f0160208091040260200160405190810160405280929190818152602001828054610743906119ff565b80156107905780601f1061076557610100808354040283529160200191610790565b820191906000526020600020905b81548152906001019060200180831161077357829003601f168201915b5050505050905090565b6000336107a8818585611042565b5060019392505050565b6000336107c0858285611166565b6107cb8585856111da565b506001949350505050565b6040516370a0823160e01b8152306004820152600090733cabf341943bc8466245e4d6f1ae0f8d071a1456906370a0823190602401602060405180830381865afa158015610828573d6000803e3d6000fd5b505050506040513d601f19601f8201168201806040525081019061084c9190611a39565b905090565b6000336107a88185856108648383610e98565b61086e9190611a68565b611042565b600760009054906101000a90046001600160a01b03166001600160a01b0316634e71d92d6040518163ffffffff1660e01b8152600401600060405180830381600087803b1580156108c357600080fd5b505af11580156108d7573d6000803e3d6000fd5b50505050565b6000546001600160a01b031633146109075760405162461bcd60e51b81526004016106dd906119ca565b801515600860149054906101000a900460ff1615150361092657600080fd5b60088054911515600160a01b0260ff60a01b19909216919091179055565b6008546000906001600160a01b031633146109715760405162461bcd60e51b81526004016106dd90611a80565b47801561084c5773b31f66aa3c1e785363f0875a1b74e27b85fd66c76001600160a01b031663d0e30db0826040518263ffffffff1660e01b81526004016000604051808303818588803b1580156109c757600080fd5b505af1158015610790573d6000803e3d6000fd5b6000546001600160a01b03163314610a055760405162461bcd60e51b81526004016106dd906119ca565b600080546040516001600160a01b03909116907f8be0079c531659141344cd1fd0a4f28419497f9722a3daafe3b4186f6b6457e0908390a3600080546001600160a01b0319169055565b6008546001600160a01b03163314610a795760405162461bcd60e51b81526004016106dd90611a80565b600854600160a01b900460ff161515600114610ad75760405162461bcd60e51b815260206004820152601a60248201527f4a6f65566f7465723a6465706f736974732064697361626c656400000000000060448201526064016106dd565b610ae0816113a8565b50565b606060068054610717906119ff565b6000546001600160a01b03163314610b1c5760405162461bcd60e51b81526004016106dd906119ca565b600780546001600160a01b0319166001600160a01b0392909216919091179055565b60003381610b4c8286610e98565b905083811015610bac5760405162461bcd60e51b815260206004820152602560248201527f45524332303a2064656372656173656420616c6c6f77616e63652062656c6f77604482015264207a65726f60d81b60648201526084016106dd565b6107cb8286868403611042565b6000336107a88185856111da565b6008546000906060906001600160a01b03163314610bf75760405162461bcd60e51b81526004016106dd90611a80565b600080876001600160a01b0316878787604051610c15929190611ab7565b60006040518083038185875af1925050503d8060008114610c52576040519150601f19603f3d011682016040523d82523d6000602084013e610c57565b606091505b5090999098509650505050505050565b600854600160a01b900460ff161515600114610cc55760405162461bcd60e51b815260206004820152601b60248201527f4a6f65566f7465723a3a6465706f736974732064697361626c6564000000000060448201526064016106dd565b6040516323b872dd60e01b815233600482015230602482015260448101829052736e84a6216ea6dacc71ee8e6b0a5b7322eebc0fdd906323b872dd906064016020604051808303816000875af1158015610d23573d6000803e3d6000fd5b505050506040513d601f19601f82011682018060405250810190610d479190611ac7565b610ad75760405162461bcd60e51b815260206004820152601960248201527f4a6f65566f7465723a3a7472616e73666572206661696c65640000000000000060448201526064016106dd565b42841015610dd55760405162461bcd60e51b815260206004820152600f60248201526e1c195c9b5a5d0e8e995e1c1a5c9959608a1b60448201526064016106dd565b6001600160a01b038716600090815260016020526040812080547f6e71edae12b1b97f4d1f60370fef10105fa2faae0126114a169c64845d6126c9918a918a918a919086610e2283611ae4565b909155506040805160208101969096526001600160a01b0394851690860152929091166060840152608083015260a082015260c0810186905260e001604051602081830303815290604052805190602001209050610e838882868686611527565b610e8e888888611042565b5050505050505050565b6001600160a01b03918216600090815260036020908152604080832093909416825291909152205490565b60007f8b73c3c69bb8fe3d512ecc4cf759cc79239f7b179b0ffacaa9a75d522b39400f610eee610708565b80516020909101207fc89efdaa54c0f20c7adf612882df0950f5a951637e0307cdcb4c672f298b8bc646604080516020810195909552840192909252606083015260808201523060a082015260c00160405160208183030381529060405280519060200120905090565b6000546001600160a01b03163314610f825760405162461bcd60e51b81526004016106dd906119ca565b6001600160a01b038116610fe75760405162461bcd60e51b815260206004820152602660248201527f4f776e61626c653a206e6577206f776e657220697320746865207a65726f206160448201526564647265737360d01b60648201526084016106dd565b600080546040516001600160a01b03808516939216917f8be0079c531659141344cd1fd0a4f28419497f9722a3daafe3b4186f6b6457e091a3600080546001600160a01b0319166001600160a01b0392909216919091179055565b6001600160a01b0383166110a45760405162461bcd60e51b8152602060048201526024808201527f45524332303a20617070726f76652066726f6d20746865207a65726f206164646044820152637265737360e01b60648201526084016106dd565b6001600160a01b0382166111055760405162461bcd60e51b815260206004820152602260248201527f45524332303a20617070726f766520746f20746865207a65726f206164647265604482015261737360f01b60648201526084016106dd565b6001600160a01b0383811660008181526003602090815260408083209487168084529482529182902085905590518481527f8c5be1e5ebec7d5bd14f71427d1e84f3dd0314c0f7b2291e5b200ac8c7c3b925910160405180910390a3505050565b60006111728484610e98565b905060001981146108d757818110156111cd5760405162461bcd60e51b815260206004820152601d60248201527f45524332303a20696e73756666696369656e7420616c6c6f77616e636500000060448201526064016106dd565b6108d78484848403611042565b6001600160a01b03831661123e5760405162461bcd60e51b815260206004820152602560248201527f45524332303a207472616e736665722066726f6d20746865207a65726f206164604482015264647265737360d81b60648201526084016106dd565b6001600160a01b0382166112a05760405162461bcd60e51b815260206004820152602360248201527f45524332303a207472616e7366657220746f20746865207a65726f206164647260448201526265737360e81b60648201526084016106dd565b6001600160a01b038316600090815260026020526040902054818110156113185760405162461bcd60e51b815260206004820152602660248201527f45524332303a207472616e7366657220616d6f756e7420657863656564732062604482015265616c616e636560d01b60648201526084016106dd565b6001600160a01b0380851660009081526002602052604080822085850390559185168152908120805484929061134f908490611a68565b92505081905550826001600160a01b0316846001600160a01b03167fddf252ad1be2c89b69c2b068fc378daa952ba7f163c4a11628f55a4df523b3ef8460405161139b91815260200190565b60405180910390a36108d7565b60075460405163095ea7b360e01b81526001600160a01b03909116600482015260248101829052736e84a6216ea6dacc71ee8e6b0a5b7322eebc0fdd9063095ea7b3906044016020604051808303816000875af115801561140d573d6000803e3d6000fd5b505050506040513d601f19601f820116820180604052508101906114319190611ac7565b5061143c3382611653565b60075460405163b6b55f2560e01b8152600481018390526001600160a01b039091169063b6b55f2590602401600060405180830381600087803b15801561148257600080fd5b505af1158015611496573d6000803e3d6000fd5b505060075460405163095ea7b360e01b81526001600160a01b03909116600482015260006024820152736e84a6216ea6dacc71ee8e6b0a5b7322eebc0fdd925063095ea7b391506044016020604051808303816000875af11580156114ff573d6000803e3d6000fd5b505050506040513d601f19601f820116820180604052508101906115239190611ac7565b5050565b6000611531610ec3565b60405161190160f01b602082015260228101919091526042810186905260620160408051601f198184030181528282528051602091820120600080855291840180845281905260ff88169284019290925260608301869052608083018590529092509060019060a0016020604051602081039080840390855afa1580156115bc573d6000803e3d6000fd5b5050604051601f1901519150506001600160a01b038116158015906115f25750866001600160a01b0316816001600160a01b0316145b61164a5760405162461bcd60e51b8152602060048201526024808201527f417263683a3a76616c69646174655369673a20696e76616c6964207369676e616044820152637475726560e01b60648201526084016106dd565b50505050505050565b6001600160a01b0382166116a95760405162461bcd60e51b815260206004820152601f60248201527f45524332303a206d696e7420746f20746865207a65726f20616464726573730060448201526064016106dd565b80600460008282546116bb9190611a68565b90915550506001600160a01b038216600090815260026020526040812080548392906116e8908490611a68565b90915550506040518181526001600160a01b038316906000907fddf252ad1be2c89b69c2b068fc378daa952ba7f163c4a11628f55a4df523b3ef9060200160405180910390a35050565b80356001600160a01b038116811461174957600080fd5b919050565b60006020828403121561176057600080fd5b61176982611732565b9392505050565b6000815180845260005b818110156117965760208185018101518683018201520161177a565b818111156117a8576000602083870101525b50601f01601f19169290920160200192915050565b6020815260006117696020830184611770565b600080604083850312156117e357600080fd5b6117ec83611732565b946020939093013593505050565b60008060006060848603121561180f57600080fd5b61181884611732565b925061182660208501611732565b9150604084013590509250925092565b8015158114610ae057600080fd5b60006020828403121561185657600080fd5b813561176981611836565b60006020828403121561187357600080fd5b5035919050565b6000806000806060858703121561189057600080fd5b61189985611732565b935060208501359250604085013567ffffffffffffffff808211156118bd57600080fd5b818701915087601f8301126118d157600080fd5b8135818111156118e057600080fd5b8860208285010111156118f257600080fd5b95989497505060200194505050565b821515815260406020820152600061191c6040830184611770565b949350505050565b600080600080600080600060e0888a03121561193f57600080fd5b61194888611732565b965061195660208901611732565b95506040880135945060608801359350608088013560ff8116811461197a57600080fd5b9699959850939692959460a0840135945060c09093013592915050565b600080604083850312156119aa57600080fd5b6119b383611732565b91506119c160208401611732565b90509250929050565b6020808252818101527f4f776e61626c653a2063616c6c6572206973206e6f7420746865206f776e6572604082015260600190565b600181811c90821680611a1357607f821691505b602082108103611a3357634e487b7160e01b600052602260045260246000fd5b50919050565b600060208284031215611a4b57600080fd5b5051919050565b634e487b7160e01b600052601160045260246000fd5b60008219821115611a7b57611a7b611a52565b500190565b6020808252601b908201527f4a6f65566f7465723a3a6f6e6c794a6f65566f74657250726f78790000000000604082015260600190565b8183823760009101908152919050565b600060208284031215611ad957600080fd5b815161176981611836565b600060018201611af657611af6611a52565b506001019056fea2646970667358221220f236eebaf8433342b05a7983e7b9c47dc2d13cd0c409d7499c5cc3a39ac99f8264736f6c634300080d00338be0079c531659141344cd1fd0a4f28419497f9722a3daafe3b4186f6b6457e0",
    "linkReferences": {}
  },
  "methodIdentifiers": {
    "DOMAIN_TYPEHASH()": "20606b70",
    "JOE()": "ffebad30",
    "PERMIT_TYPEHASH()": "30adf81f",
    "VERSION_HASH()": "9e4e7318",
    "allowance(address,address)": "dd62ed3e",
    "approve(address,uint256)": "095ea7b3",
    "balanceOf(address)": "70a08231",
    "claimVeJOE()": "3b29b4bc",
    "decimals()": "313ce567",
    "decreaseAllowance(address,uint256)": "a457c2d7",
    "deposit(uint256)": "b6b55f25",
    "depositFromBalance(uint256)": "7c0bb4ab",
    "depositsEnabled()": "5392fd1c",
    "execute(address,uint256,bytes)": "b61d27f6",
    "getDomainSeparator()": "ed24911d",
    "increaseAllowance(address,uint256)": "39509351",
    "name()": "06fdde03",
    "nonces(address)": "7ecebe00",
    "owner()": "8da5cb5b",
    "permit(address,address,uint256,uint256,uint8,bytes32,bytes32)": "d505accf",
    "renounceOwnership()": "715018a6",
    "setStakingContract(address)": "9dd373b9",
    "setVoterProxy(address)": "052cdc0c",
    "stakingContract()": "ee99205c",
    "symbol()": "95d89b41",
    "totalSupply()": "18160ddd",
    "transfer(address,uint256)": "a9059cbb",
    "transferFrom(address,address,uint256)": "23b872dd",
    "transferOwnership(address)": "f2fde38b",
    "updateDepositsEnabled(bool)": "4e77ace5",
    "veJOE()": "278b3bc9",
    "veJOEBalance()": "30c62266",
    "voterProxy()": "1ba980b3",
    "wrapAvaxBalance()": "5a556f51"
  },
  "id": 140
}