{
  "abi": [
    {
      "inputs": [
        {
          "internalType": "address",
          "name": "_manager",
          "type": "address"
        },
        {
          "internalType": "address",
          "name": "_team",
          "type": "address"
        },
        {
          "internalType": "address",
          "name": "_deployer",
          "type": "address"
        }
      ],
      "stateMutability": "nonpayable",
      "type": "constructor"
    },
    {
      "anonymous": false,
      "inputs": [
        {
          "indexed": true,
          "internalType": "address",
          "name": "strategy",
          "type": "address"
        },
        {
          "indexed": true,
          "internalType": "address",
          "name": "depositor",
          "type": "address"
        }
      ],
      "name": "AllowDepositor",
      "type": "event"
    },
    {
      "anonymous": false,
      "inputs": [
        {
          "indexed": true,
          "internalType": "address",
          "name": "strategy",
          "type": "address"
        }
      ],
      "name": "EmergencyWithdraw",
      "type": "event"
    },
    {
      "anonymous": false,
      "inputs": [
        {
          "indexed": true,
          "internalType": "address",
          "name": "strategy",
          "type": "address"
        },
        {
          "indexed": true,
          "internalType": "address",
          "name": "newOwner",
          "type": "address"
        }
      ],
      "name": "ProposeOwner",
      "type": "event"
    },
    {
      "anonymous": false,
      "inputs": [
        {
          "indexed": true,
          "internalType": "address",
          "name": "strategy",
          "type": "address"
        },
        {
          "indexed": true,
          "internalType": "address",
          "name": "token",
          "type": "address"
        },
        {
          "indexed": false,
          "internalType": "uint256",
          "name": "amount",
          "type": "uint256"
        }
      ],
      "name": "Recover",
      "type": "event"
    },
    {
      "anonymous": false,
      "inputs": [
        {
          "indexed": false,
          "internalType": "address",
          "name": "token",
          "type": "address"
        },
        {
          "indexed": false,
          "internalType": "uint256",
          "name": "amount",
          "type": "uint256"
        }
      ],
      "name": "Recovered",
      "type": "event"
    },
    {
      "anonymous": false,
      "inputs": [
        {
          "indexed": true,
          "internalType": "address",
          "name": "strategy",
          "type": "address"
        },
        {
          "indexed": true,
          "internalType": "address",
          "name": "depositor",
          "type": "address"
        }
      ],
      "name": "RemoveDepositor",
      "type": "event"
    },
    {
      "anonymous": false,
      "inputs": [
        {
          "indexed": true,
          "internalType": "bytes32",
          "name": "role",
          "type": "bytes32"
        },
        {
          "indexed": true,
          "internalType": "bytes32",
          "name": "previousAdminRole",
          "type": "bytes32"
        },
        {
          "indexed": true,
          "internalType": "bytes32",
          "name": "newAdminRole",
          "type": "bytes32"
        }
      ],
      "name": "RoleAdminChanged",
      "type": "event"
    },
    {
      "anonymous": false,
      "inputs": [
        {
          "indexed": true,
          "internalType": "bytes32",
          "name": "role",
          "type": "bytes32"
        },
        {
          "indexed": true,
          "internalType": "address",
          "name": "account",
          "type": "address"
        },
        {
          "indexed": true,
          "internalType": "address",
          "name": "sender",
          "type": "address"
        }
      ],
      "name": "RoleGranted",
      "type": "event"
    },
    {
      "anonymous": false,
      "inputs": [
        {
          "indexed": true,
          "internalType": "bytes32",
          "name": "role",
          "type": "bytes32"
        },
        {
          "indexed": true,
          "internalType": "address",
          "name": "account",
          "type": "address"
        },
        {
          "indexed": true,
          "internalType": "address",
          "name": "sender",
          "type": "address"
        }
      ],
      "name": "RoleRevoked",
      "type": "event"
    },
    {
      "anonymous": false,
      "inputs": [
        {
          "indexed": true,
          "internalType": "address",
          "name": "strategy",
          "type": "address"
        }
      ],
      "name": "SetAllowances",
      "type": "event"
    },
    {
      "anonymous": false,
      "inputs": [
        {
          "indexed": true,
          "internalType": "address",
          "name": "strategy",
          "type": "address"
        },
        {
          "indexed": false,
          "internalType": "bool",
          "name": "newValue",
          "type": "bool"
        }
      ],
      "name": "SetDepositsEnabled",
      "type": "event"
    },
    {
      "anonymous": false,
      "inputs": [
        {
          "indexed": true,
          "internalType": "address",
          "name": "strategy",
          "type": "address"
        },
        {
          "indexed": false,
          "internalType": "uint256",
          "name": "adminFeeBips",
          "type": "uint256"
        },
        {
          "indexed": false,
          "internalType": "uint256",
          "name": "devFeeBips",
          "type": "uint256"
        },
        {
          "indexed": false,
          "internalType": "uint256",
          "name": "reinvestFeeBips",
          "type": "uint256"
        }
      ],
      "name": "SetFees",
      "type": "event"
    },
    {
      "anonymous": false,
      "inputs": [
        {
          "indexed": false,
          "internalType": "uint256",
          "name": "maxFeeBips",
          "type": "uint256"
        },
        {
          "indexed": false,
          "internalType": "uint256",
          "name": "newMaxFeeBips",
          "type": "uint256"
        }
      ],
      "name": "SetGlobalMaxFee",
      "type": "event"
    },
    {
      "anonymous": false,
      "inputs": [
        {
          "indexed": true,
          "internalType": "address",
          "name": "strategy",
          "type": "address"
        },
        {
          "indexed": false,
          "internalType": "uint256",
          "name": "newValue",
          "type": "uint256"
        }
      ],
      "name": "SetMaxTokensToDepositWithoutReinvest",
      "type": "event"
    },
    {
      "anonymous": false,
      "inputs": [
        {
          "indexed": true,
          "internalType": "address",
          "name": "strategy",
          "type": "address"
        },
        {
          "indexed": false,
          "internalType": "uint256",
          "name": "newValue",
          "type": "uint256"
        }
      ],
      "name": "SetMinTokensToReinvest",
      "type": "event"
    },
    {
      "anonymous": false,
      "inputs": [
        {
          "indexed": true,
          "internalType": "address",
          "name": "strategy",
          "type": "address"
        },
        {
          "indexed": true,
          "internalType": "address",
          "name": "newValue",
          "type": "address"
        }
      ],
      "name": "SetOwner",
      "type": "event"
    },
    {
      "inputs": [],
      "name": "DEFAULT_ADMIN_ROLE",
      "outputs": [
        {
          "internalType": "bytes32",
          "name": "",
          "type": "bytes32"
        }
      ],
      "stateMutability": "view",
      "type": "function"
    },
    {
      "inputs": [],
      "name": "EMERGENCY_RESCUER_ROLE",
      "outputs": [
        {
          "internalType": "bytes32",
          "name": "",
          "type": "bytes32"
        }
      ],
      "stateMutability": "view",
      "type": "function"
    },
    {
      "inputs": [],
      "name": "EMERGENCY_SWEEPER_ROLE",
      "outputs": [
        {
          "internalType": "bytes32",
          "name": "",
          "type": "bytes32"
        }
      ],
      "stateMutability": "view",
      "type": "function"
    },
    {
      "inputs": [],
      "name": "FEE_SETTER_ROLE",
      "outputs": [
        {
          "internalType": "bytes32",
          "name": "",
          "type": "bytes32"
        }
      ],
      "stateMutability": "view",
      "type": "function"
    },
    {
      "inputs": [],
      "name": "GLOBAL_MAX_FEE_SETTER_ROLE",
      "outputs": [
        {
          "internalType": "bytes32",
          "name": "",
          "type": "bytes32"
        }
      ],
      "stateMutability": "view",
      "type": "function"
    },
    {
      "inputs": [],
      "name": "STRATEGY_DISABLER_ROLE",
      "outputs": [
        {
          "internalType": "bytes32",
          "name": "",
          "type": "bytes32"
        }
      ],
      "stateMutability": "view",
      "type": "function"
    },
    {
      "inputs": [],
      "name": "STRATEGY_ENABLER_ROLE",
      "outputs": [
        {
          "internalType": "bytes32",
          "name": "",
          "type": "bytes32"
        }
      ],
      "stateMutability": "view",
      "type": "function"
    },
    {
      "inputs": [],
      "name": "STRATEGY_OWNER_SETTER_ROLE",
      "outputs": [
        {
          "internalType": "bytes32",
          "name": "",
          "type": "bytes32"
        }
      ],
      "stateMutability": "view",
      "type": "function"
    },
    {
      "inputs": [],
      "name": "STRATEGY_PERMISSIONER_ROLE",
      "outputs": [
        {
          "internalType": "bytes32",
          "name": "",
          "type": "bytes32"
        }
      ],
      "stateMutability": "view",
      "type": "function"
    },
    {
      "inputs": [
        {
          "internalType": "address",
          "name": "strategy",
          "type": "address"
        },
        {
          "internalType": "address",
          "name": "depositor",
          "type": "address"
        }
      ],
      "name": "allowDepositor",
      "outputs": [],
      "stateMutability": "nonpayable",
      "type": "function"
    },
    {
      "inputs": [
        {
          "internalType": "address",
          "name": "strategy",
          "type": "address"
        }
      ],
      "name": "disableDeposits",
      "outputs": [],
      "stateMutability": "nonpayable",
      "type": "function"
    },
    {
      "inputs": [
        {
          "internalType": "address",
          "name": "strategy",
          "type": "address"
        }
      ],
      "name": "enableDeposits",
      "outputs": [],
      "stateMutability": "nonpayable",
      "type": "function"
    },
    {
      "inputs": [
        {
          "internalType": "bytes32",
          "name": "role",
          "type": "bytes32"
        }
      ],
      "name": "getRoleAdmin",
      "outputs": [
        {
          "internalType": "bytes32",
          "name": "",
          "type": "bytes32"
        }
      ],
      "stateMutability": "view",
      "type": "function"
    },
    {
      "inputs": [
        {
          "internalType": "bytes32",
          "name": "role",
          "type": "bytes32"
        },
        {
          "internalType": "uint256",
          "name": "index",
          "type": "uint256"
        }
      ],
      "name": "getRoleMember",
      "outputs": [
        {
          "internalType": "address",
          "name": "",
          "type": "address"
        }
      ],
      "stateMutability": "view",
      "type": "function"
    },
    {
      "inputs": [
        {
          "internalType": "bytes32",
          "name": "role",
          "type": "bytes32"
        }
      ],
      "name": "getRoleMemberCount",
      "outputs": [
        {
          "internalType": "uint256",
          "name": "",
          "type": "uint256"
        }
      ],
      "stateMutability": "view",
      "type": "function"
    },
    {
      "inputs": [
        {
          "internalType": "bytes32",
          "name": "role",
          "type": "bytes32"
        },
        {
          "internalType": "address",
          "name": "account",
          "type": "address"
        }
      ],
      "name": "grantRole",
      "outputs": [],
      "stateMutability": "nonpayable",
      "type": "function"
    },
    {
      "inputs": [
        {
          "internalType": "bytes32",
          "name": "role",
          "type": "bytes32"
        },
        {
          "internalType": "address",
          "name": "account",
          "type": "address"
        }
      ],
      "name": "hasRole",
      "outputs": [
        {
          "internalType": "bool",
          "name": "",
          "type": "bool"
        }
      ],
      "stateMutability": "view",
      "type": "function"
    },
    {
      "inputs": [],
      "name": "maxFeeBips",
      "outputs": [
        {
          "internalType": "uint256",
          "name": "",
          "type": "uint256"
        }
      ],
      "stateMutability": "view",
      "type": "function"
    },
    {
      "inputs": [
        {
          "internalType": "address",
          "name": "",
          "type": "address"
        }
      ],
      "name": "pendingOwners",
      "outputs": [
        {
          "internalType": "address",
          "name": "",
          "type": "address"
        }
      ],
      "stateMutability": "view",
      "type": "function"
    },
    {
      "inputs": [
        {
          "internalType": "address",
          "name": "",
          "type": "address"
        }
      ],
      "name": "pendingOwnersTimelock",
      "outputs": [
        {
          "internalType": "uint256",
          "name": "",
          "type": "uint256"
        }
      ],
      "stateMutability": "view",
      "type": "function"
    },
    {
      "inputs": [
        {
          "internalType": "address",
          "name": "strategy",
          "type": "address"
        },
        {
          "internalType": "address",
          "name": "newOwner",
          "type": "address"
        }
      ],
      "name": "proposeOwner",
      "outputs": [],
      "stateMutability": "nonpayable",
      "type": "function"
    },
    {
      "inputs": [
        {
          "internalType": "address",
          "name": "strategy",
          "type": "address"
        },
        {
          "internalType": "uint256",
          "name": "amount",
          "type": "uint256"
        }
      ],
      "name": "recoverAVAX",
      "outputs": [],
      "stateMutability": "nonpayable",
      "type": "function"
    },
    {
      "inputs": [
        {
          "internalType": "address",
          "name": "strategy",
          "type": "address"
        },
        {
          "internalType": "address",
          "name": "tokenAddress",
          "type": "address"
        },
        {
          "internalType": "uint256",
          "name": "tokenAmount",
          "type": "uint256"
        }
      ],
      "name": "recoverTokens",
      "outputs": [],
      "stateMutability": "nonpayable",
      "type": "function"
    },
    {
      "inputs": [
        {
          "internalType": "address",
          "name": "strategy",
          "type": "address"
        },
        {
          "internalType": "address",
          "name": "depositor",
          "type": "address"
        }
      ],
      "name": "removeDepositor",
      "outputs": [],
      "stateMutability": "nonpayable",
      "type": "function"
    },
    {
      "inputs": [
        {
          "internalType": "bytes32",
          "name": "role",
          "type": "bytes32"
        },
        {
          "internalType": "address",
          "name": "account",
          "type": "address"
        }
      ],
      "name": "renounceRole",
      "outputs": [],
      "stateMutability": "nonpayable",
      "type": "function"
    },
    {
      "inputs": [
        {
          "internalType": "address",
          "name": "strategy",
          "type": "address"
        },
        {
          "internalType": "uint256",
          "name": "minReturnAmountAccepted",
          "type": "uint256"
        }
      ],
      "name": "rescueDeployedFunds",
      "outputs": [],
      "stateMutability": "nonpayable",
      "type": "function"
    },
    {
      "inputs": [
        {
          "internalType": "address",
          "name": "strategy",
          "type": "address"
        },
        {
          "internalType": "address",
          "name": "token",
          "type": "address"
        },
        {
          "internalType": "address",
          "name": "spender",
          "type": "address"
        }
      ],
      "name": "revokeAllowance",
      "outputs": [],
      "stateMutability": "nonpayable",
      "type": "function"
    },
    {
      "inputs": [
        {
          "internalType": "bytes32",
          "name": "role",
          "type": "bytes32"
        },
        {
          "internalType": "address",
          "name": "account",
          "type": "address"
        }
      ],
      "name": "revokeRole",
      "outputs": [],
      "stateMutability": "nonpayable",
      "type": "function"
    },
    {
      "inputs": [
        {
          "internalType": "address",
          "name": "strategy",
          "type": "address"
        }
      ],
      "name": "setAllowances",
      "outputs": [],
      "stateMutability": "nonpayable",
      "type": "function"
    },
    {
      "inputs": [
        {
          "internalType": "address",
          "name": "strategy",
          "type": "address"
        },
        {
          "internalType": "uint256",
          "name": "adminFeeBips",
          "type": "uint256"
        },
        {
          "internalType": "uint256",
          "name": "devFeeBips",
          "type": "uint256"
        },
        {
          "internalType": "uint256",
          "name": "reinvestRewardBips",
          "type": "uint256"
        }
      ],
      "name": "setFees",
      "outputs": [],
      "stateMutability": "nonpayable",
      "type": "function"
    },
    {
      "inputs": [
        {
          "internalType": "address",
          "name": "strategy",
          "type": "address"
        },
        {
          "internalType": "uint256",
          "name": "newValue",
          "type": "uint256"
        }
      ],
      "name": "setMaxTokensToDepositWithoutReinvest",
      "outputs": [],
      "stateMutability": "nonpayable",
      "type": "function"
    },
    {
      "inputs": [
        {
          "internalType": "address",
          "name": "strategy",
          "type": "address"
        },
        {
          "internalType": "uint256",
          "name": "newValue",
          "type": "uint256"
        }
      ],
      "name": "setMinTokensToReinvest",
      "outputs": [],
      "stateMutability": "nonpayable",
      "type": "function"
    },
    {
      "inputs": [
        {
          "internalType": "address",
          "name": "strategy",
          "type": "address"
        }
      ],
      "name": "setOwner",
      "outputs": [],
      "stateMutability": "nonpayable",
      "type": "function"
    },
    {
      "inputs": [
        {
          "internalType": "uint256",
          "name": "amount",
          "type": "uint256"
        }
      ],
      "name": "sweepAVAX",
      "outputs": [],
      "stateMutability": "nonpayable",
      "type": "function"
    },
    {
      "inputs": [
        {
          "internalType": "address",
          "name": "tokenAddress",
          "type": "address"
        },
        {
          "internalType": "uint256",
          "name": "tokenAmount",
          "type": "uint256"
        }
      ],
      "name": "sweepTokens",
      "outputs": [],
      "stateMutability": "nonpayable",
      "type": "function"
    },
    {
      "inputs": [],
      "name": "timelockLengthForOwnershipTransfer",
      "outputs": [
        {
          "internalType": "uint256",
          "name": "",
          "type": "uint256"
        }
      ],
      "stateMutability": "view",
      "type": "function"
    },
    {
      "inputs": [
        {
          "internalType": "uint256",
          "name": "newMaxFeeBips",
          "type": "uint256"
        }
      ],
      "name": "updateGlobalMaxFees",
      "outputs": [],
      "stateMutability": "nonpayable",
      "type": "function"
    },
    {
      "stateMutability": "payable",
      "type": "receive"
    }
  ],
  "bytecode": {
    "object": "0x60806040526103e86001553480156200001757600080fd5b5060405162002720380380620027208339810160408190526200003a91620002ca565b62000047600084620001c4565b620000737f991c4c5cddbc44e8d8011af509abc8abc3e6903d4492304b96aeebf2a78f533183620001c4565b6200009f7f73fb3e7d4fecad7bdd745b59d3969c10ce867b7cb1c0c9400a927ad4e790465982620001c4565b620000cb7fda6834b40de317c200109dd932fffccf15b3a8b1c5253b9673071323bf5d161b83620001c4565b620000e6600080516020620026e083398151915282620001c4565b62000101600080516020620026e083398151915283620001c4565b6200012d7f89ec7a0579833692a9924aa860413ec97c377cd5a372919afe15cf5dd082a2f984620001c4565b620001486000805160206200270083398151915282620001c4565b620001636000805160206200270083398151915283620001c4565b6200018f7fbbd3d06d49767fcff106f49c48351aa7d3dc73e05fe05371cf7fe0b0ca30d76783620001c4565b620001bb7f85b579aac898da0ed3cee14a4714dfc240e40a9ef2b216af43daa6b754e8e0ca83620001c4565b50505062000314565b620001d08282620001d4565b5050565b600082815260208181526040909120620001f991839062001d226200023b821b17901c565b15620001d05760405133906001600160a01b0383169084907f2f8788117e7eff1d82e926ec794901d17c78024a50270940304540a733656f0d90600090a45050565b600062000252836001600160a01b0384166200025b565b90505b92915050565b6000818152600183016020526040812054620002a45750815460018181018455600084815260208082209093018490558454848252828601909352604090209190915562000255565b50600062000255565b80516001600160a01b0381168114620002c557600080fd5b919050565b600080600060608486031215620002e057600080fd5b620002eb84620002ad565b9250620002fb60208501620002ad565b91506200030b60408501620002ad565b90509250925092565b6123bc80620003246000396000f3fe60806040526004361061021e5760003560e01c80639017e46511610123578063c4b1a3c2116100ab578063e3adbc561161006f578063e3adbc56146106e2578063e912994814610716578063e934768314610736578063ef8cb90314610758578063f5a2da201461077857600080fd5b8063c4b1a3c21461062e578063c8cb96e514610662578063ca15c87314610682578063d547741f146106a2578063dec66036146106c257600080fd5b8063a1169780116100f2578063a11697801461054e578063a217fddf1461057b578063a46d99b414610590578063a75c7452146105c4578063b7c2a2ee146105fa57600080fd5b80639017e465146104be57806391d14854146104de57806391e6e9681461050e5780639f4295291461052e57600080fd5b806344b07d0d116101a657806362a5127a1161017557806362a5127a146103f257806367528f2f146104125780637669d489146104465780637f309cc4146104665780639010d07c1461048657600080fd5b806344b07d0d1461035c578063516908fa1461039057806352658c43146103b25780635f3e849f146103d257600080fd5b80632438ba10116101ed5780632438ba10146102ac578063248a9ca3146102cc5780632f2ff15d146102fc57806336568abe1461031c5780633c0590271461033c57600080fd5b80630121ee711461022a5780630bb6f0ef146102535780630fba7d621461026a57806313af40351461028c57600080fd5b3661022557005b600080fd5b34801561023657600080fd5b5061024060015481565b6040519081526020015b60405180910390f35b34801561025f57600080fd5b506102406212750081565b34801561027657600080fd5b5061028a610285366004612105565b610798565b005b34801561029857600080fd5b5061028a6102a736600461212f565b6108a2565b3480156102b857600080fd5b5061028a6102c7366004612105565b610a3f565b3480156102d857600080fd5b506102406102e736600461214a565b60009081526020819052604090206002015490565b34801561030857600080fd5b5061028a610317366004612163565b610b4e565b34801561032857600080fd5b5061028a610337366004612163565b610bdc565b34801561034857600080fd5b5061028a61035736600461212f565b610c56565b34801561036857600080fd5b506102407f482ed56549d7462c0678911a19432fceeca01b8fb8c06d339ffb285b04d371a381565b34801561039c57600080fd5b5061024060008051602061236783398151915281565b3480156103be57600080fd5b5061028a6103cd36600461212f565b610d4c565b3480156103de57600080fd5b5061028a6103ed36600461218f565b610e56565b3480156103fe57600080fd5b5061028a61040d36600461214a565b610f6e565b34801561041e57600080fd5b506102407f991c4c5cddbc44e8d8011af509abc8abc3e6903d4492304b96aeebf2a78f533181565b34801561045257600080fd5b5061028a6104613660046121cb565b611025565b34801561047257600080fd5b5061028a610481366004612204565b611372565b34801561049257600080fd5b506104a66104a1366004612247565b611478565b6040516001600160a01b03909116815260200161024a565b3480156104ca57600080fd5b5061028a6104d9366004612269565b611499565b3480156104ea57600080fd5b506104fe6104f9366004612163565b61157a565b604051901515815260200161024a565b34801561051a57600080fd5b5061028a610529366004612105565b611592565b34801561053a57600080fd5b5061028a610549366004612105565b61169e565b34801561055a57600080fd5b5061024061056936600461212f565b60036020526000908152604090205481565b34801561058757600080fd5b50610240600081565b34801561059c57600080fd5b506102407f85b579aac898da0ed3cee14a4714dfc240e40a9ef2b216af43daa6b754e8e0ca81565b3480156105d057600080fd5b506104a66105df36600461212f565b6002602052600090815260409020546001600160a01b031681565b34801561060657600080fd5b506102407fda6834b40de317c200109dd932fffccf15b3a8b1c5253b9673071323bf5d161b81565b34801561063a57600080fd5b506102407f89ec7a0579833692a9924aa860413ec97c377cd5a372919afe15cf5dd082a2f981565b34801561066e57600080fd5b5061028a61067d366004612269565b611795565b34801561068e57600080fd5b5061024061069d36600461214a565b611899565b3480156106ae57600080fd5b5061028a6106bd366004612163565b6118b0565b3480156106ce57600080fd5b5061028a6106dd366004612105565b611931565b3480156106ee57600080fd5b506102407fbbd3d06d49767fcff106f49c48351aa7d3dc73e05fe05371cf7fe0b0ca30d76781565b34801561072257600080fd5b5061028a61073136600461214a565b6119d9565b34801561074257600080fd5b5061024060008051602061234783398151915281565b34801561076457600080fd5b5061028a610773366004612269565b611b19565b34801561078457600080fd5b5061028a61079336600461212f565b611c1e565b6107b06000805160206123478339815191523361157a565b6108015760405162461bcd60e51b815260206004820152601c60248201527f7365744d696e546f6b656e73546f5265696e766573743a3a617574680000000060448201526064015b60405180910390fd5b604051630818372360e41b8152600481018290526001600160a01b03831690638183723090602401600060405180830381600087803b15801561084357600080fd5b505af1158015610857573d6000803e3d6000fd5b50505050816001600160a01b03167f33e6c9b106719003294f6819992332aa70728bcccd167ba6905cc7f94a5618ba8260405161089691815260200190565b60405180910390a25050565b6001600160a01b03811660009081526003602052604081205490036109015760405162461bcd60e51b81526020600482015260156024820152741cd95d13dddb995c8e8e9b9bdd08185b1b1bddd959605a1b60448201526064016107f8565b6001600160a01b03811660009081526003602052604090205442101561095e5760405162461bcd60e51b815260206004820152601260248201527139b2ba27bbb732b91d1d3a37b79039b7b7b760711b60448201526064016107f8565b6001600160a01b038181166000818152600260205260409081902054905163f2fde38b60e01b8152921660048301529063f2fde38b90602401600060405180830381600087803b1580156109b157600080fd5b505af11580156109c5573d6000803e3d6000fd5b505050506001600160a01b038181166000818152600260205260408082205490519316927fcbf985117192c8f614a58aaf97226bb80a754772f5f6edf06f87c675f2e6c6639190a36001600160a01b0316600090815260026020908152604080832080546001600160a01b03191690556003909152812055565b610a697f991c4c5cddbc44e8d8011af509abc8abc3e6903d4492304b96aeebf2a78f53313361157a565b610ab55760405162461bcd60e51b815260206004820152601960248201527f7265736375654465706c6f79656446756e64733a3a617574680000000000000060448201526064016107f8565b60405163ac0d31ff60e01b815260048101829052600160248201526001600160a01b0383169063ac0d31ff90604401600060405180830381600087803b158015610afe57600080fd5b505af1158015610b12573d6000803e3d6000fd5b50506040516001600160a01b03851692507f5e7b34819cd91b239220bec92fcfd3c10da2214ba13e4e2b1f6c9cfdbd68a9a29150600090a25050565b600082815260208190526040902060020154610b6a903361157a565b610bce5760405162461bcd60e51b815260206004820152602f60248201527f416363657373436f6e74726f6c3a2073656e646572206d75737420626520616e60448201526e0818591b5a5b881d1bc819dc985b9d608a1b60648201526084016107f8565b610bd88282611d37565b5050565b6001600160a01b0381163314610c4c5760405162461bcd60e51b815260206004820152602f60248201527f416363657373436f6e74726f6c3a2063616e206f6e6c792072656e6f756e636560448201526e103937b632b9903337b91039b2b63360891b60648201526084016107f8565b610bd88282611d90565b610c807fbbd3d06d49767fcff106f49c48351aa7d3dc73e05fe05371cf7fe0b0ca30d7673361157a565b610cc25760405162461bcd60e51b81526020600482015260136024820152720e6cae882d8d8deeec2dcc6cae67474c2eae8d606b1b60448201526064016107f8565b806001600160a01b031663dbd9a4d46040518163ffffffff1660e01b8152600401600060405180830381600087803b158015610cfd57600080fd5b505af1158015610d11573d6000803e3d6000fd5b50506040516001600160a01b03841692507fbe661787fd881a4d9c6746c8328471bbf49b92f2a73a744f65b1f41f6db98e849150600090a250565b610d767fbbd3d06d49767fcff106f49c48351aa7d3dc73e05fe05371cf7fe0b0ca30d7673361157a565b610db95760405162461bcd60e51b81526020600482015260146024820152730cadcc2c4d8ca88cae0dee6d2e8e67474c2eae8d60631b60448201526064016107f8565b604051634e77ace560e01b8152600160048201526001600160a01b03821690634e77ace590602401600060405180830381600087803b158015610dfb57600080fd5b505af1158015610e0f573d6000803e3d6000fd5b5050604051600181526001600160a01b03841692507feafd77c9fa26ce797aa519fcee932a662cc58f6d55ced547c1db42b90b6f3e4991506020015b60405180910390a250565b610e6e6000805160206123678339815191523361157a565b610eb05760405162461bcd60e51b81526020600482015260136024820152720e4cac6deeccae4a8ded6cadce67474c2eae8d606b1b60448201526064016107f8565b604051638980f11f60e01b81526001600160a01b03838116600483015260248201839052841690638980f11f90604401600060405180830381600087803b158015610efa57600080fd5b505af1158015610f0e573d6000803e3d6000fd5b50505050610f1c8282611de9565b816001600160a01b0316836001600160a01b03167ff6891c84a6c6af32a6d052172a8acc4c631b1d5057ffa2bc1da268b6938ea2da83604051610f6191815260200190565b60405180910390a3505050565b610f987fda6834b40de317c200109dd932fffccf15b3a8b1c5253b9673071323bf5d161b3361157a565b610fe45760405162461bcd60e51b815260206004820152601960248201527f757064617465476c6f62616c4d6178466565733a3a617574680000000000000060448201526064016107f8565b60015460408051918252602082018390527f873398b46df1c31ccc78e7e6742bbe1ff518c017dcf4a995ce2ea48fab9c37a6910160405180910390a1600155565b61103d6000805160206123478339815191523361157a565b6110795760405162461bcd60e51b815260206004820152600d60248201526c0e6cae88ccacae67474c2eae8d609b1b60448201526064016107f8565b6001546110908261108a8686611f24565b90611f24565b11156110d75760405162461bcd60e51b81526020600482015260166024820152750e6cae88ccacae674748ccacae640e8dede40d0d2ced60531b60448201526064016107f8565b836001600160a01b031663076771116040518163ffffffff1660e01b8152600401602060405180830381865afa158015611115573d6000803e3d6000fd5b505050506040513d601f19601f820116820180604052508101906111399190612293565b831461119a5760405163cff1b6ef60e01b8152600481018490526001600160a01b0385169063cff1b6ef90602401600060405180830381600087803b15801561118157600080fd5b505af1158015611195573d6000803e3d6000fd5b505050505b836001600160a01b0316635ea682ea6040518163ffffffff1660e01b8152600401602060405180830381865afa1580156111d8573d6000803e3d6000fd5b505050506040513d601f19601f820116820180604052508101906111fc9190612293565b821461125d576040516399729ec160e01b8152600481018390526001600160a01b038516906399729ec190602401600060405180830381600087803b15801561124457600080fd5b505af1158015611258573d6000803e3d6000fd5b505050505b836001600160a01b0316638aff733d6040518163ffffffff1660e01b8152600401602060405180830381865afa15801561129b573d6000803e3d6000fd5b505050506040513d601f19601f820116820180604052508101906112bf9190612293565b811461132057604051632a2b8adf60e21b8152600481018290526001600160a01b0385169063a8ae2b7c90602401600060405180830381600087803b15801561130757600080fd5b505af115801561131b573d6000803e3d6000fd5b505050505b60408051848152602081018490529081018290526001600160a01b038516907fa3d6785d245166bf1a1c7309b3cddae87c8dcbb4104b1489d2d872f7d1deef4b9060600160405180910390a250505050565b61139c7f482ed56549d7462c0678911a19432fceeca01b8fb8c06d339ffb285b04d371a33361157a565b806113cc57506113cc7f991c4c5cddbc44e8d8011af509abc8abc3e6903d4492304b96aeebf2a78f53313361157a565b6114105760405162461bcd60e51b81526020600482015260156024820152740e4caecded6ca82d8d8deeec2dcc6ca7474c2eae8d605b1b60448201526064016107f8565b604051637ae2677360e01b81526001600160a01b0383811660048301528281166024830152841690637ae2677390604401600060405180830381600087803b15801561145b57600080fd5b505af115801561146f573d6000803e3d6000fd5b50505050505050565b60008281526020819052604081206114909083611f30565b90505b92915050565b6114c37f89ec7a0579833692a9924aa860413ec97c377cd5a372919afe15cf5dd082a2f93361157a565b6115045760405162461bcd60e51b81526020600482015260126024820152710e0e4dee0dee6ca9eeedccae47474c2eae8d60731b60448201526064016107f8565b6115114262127500611f24565b6001600160a01b038381166000818152600360209081526040808320959095556002905283812080546001600160a01b03191693861693841790559251919290917fbe4bd47d7fab36e1211e8c8341e32d52031f680bb19d1b42264fc60d69dbce529190a35050565b60008281526020819052604081206114909083611f3c565b6115aa6000805160206123478339815191523361157a565b6116095760405162461bcd60e51b815260206004820152602a60248201527f7365744d6178546f6b656e73546f4465706f736974576974686f75745265696e6044820152690eccae6e87474c2eae8d60b31b60648201526084016107f8565b60405163e21ac82560e01b8152600481018290526001600160a01b0383169063e21ac82590602401600060405180830381600087803b15801561164b57600080fd5b505af115801561165f573d6000803e3d6000fd5b50505050816001600160a01b03167fdbb580f99e1235e40743f9ee026ca30950dc2f7576b7fd13d9e3b39200afd7068260405161089691815260200190565b6116b66000805160206123678339815191523361157a565b6116f65760405162461bcd60e51b81526020600482015260116024820152700e4cac6deeccae482ac82b07474c2eae8d607b1b60448201526064016107f8565b6040518181526000906001600160a01b038416907ff6891c84a6c6af32a6d052172a8acc4c631b1d5057ffa2bc1da268b6938ea2da9060200160405180910390a360405163275dbc8b60e11b8152600481018290526001600160a01b03831690634ebb791690602401600060405180830381600087803b15801561177957600080fd5b505af115801561178d573d6000803e3d6000fd5b505050505050565b6117bf7f85b579aac898da0ed3cee14a4714dfc240e40a9ef2b216af43daa6b754e8e0ca3361157a565b6118025760405162461bcd60e51b81526020600482015260146024820152730c2d8d8deee88cae0dee6d2e8dee47474c2eae8d60631b60448201526064016107f8565b604051634bebd1e760e01b81526001600160a01b038281166004830152831690634bebd1e790602401600060405180830381600087803b15801561184557600080fd5b505af1158015611859573d6000803e3d6000fd5b50506040516001600160a01b038085169350851691507f5d0ea6134a0c9e3dea7acd11f1eb64a68d5e199d709b8e7533bf4ef4244362c290600090a35050565b600081815260208190526040812061149390611f5e565b6000828152602081905260409020600201546118cc903361157a565b610c4c5760405162461bcd60e51b815260206004820152603060248201527f416363657373436f6e74726f6c3a2073656e646572206d75737420626520616e60448201526f2061646d696e20746f207265766f6b6560801b60648201526084016107f8565b6119496000805160206123678339815191523361157a565b6119895760405162461bcd60e51b81526020600482015260116024820152700e6eecacae0a8ded6cadce67474c2eae8d607b1b60448201526064016107f8565b6119938282611de9565b604080516001600160a01b0384168152602081018390527f8c1256b8896378cd5044f80c202f9772b9d77dc85c8a6eb51967210b09bfaa28910160405180910390a15050565b6119f16000805160206123678339815191523361157a565b611a2f5760405162461bcd60e51b815260206004820152600f60248201526e0e6eecacae082ac82b07474c2eae8d608b1b60448201526064016107f8565b4780821015611a3c578091505b604051600090339084908381818185875af1925050503d8060008114611a7e576040519150601f19603f3d011682016040523d82523d6000602084013e611a83565b606091505b5090915050600181151514611ada5760405162461bcd60e51b815260206004820152601c60248201527f7265636f766572415641583a3a7472616e73666572206661696c65640000000060448201526064016107f8565b6040805160008152602081018590527f8c1256b8896378cd5044f80c202f9772b9d77dc85c8a6eb51967210b09bfaa28910160405180910390a1505050565b611b437f85b579aac898da0ed3cee14a4714dfc240e40a9ef2b216af43daa6b754e8e0ca3361157a565b611b875760405162461bcd60e51b81526020600482015260156024820152740e4cadadeecca88cae0dee6d2e8dee47474c2eae8d605b1b60448201526064016107f8565b6040516345b9f30360e11b81526001600160a01b038281166004830152831690638b73e60690602401600060405180830381600087803b158015611bca57600080fd5b505af1158015611bde573d6000803e3d6000fd5b50506040516001600160a01b038085169350851691507fa692de2ad9f500cf34fa95397026ae7a5ccc57cb2d1528b6aaed6104b63008f090600090a35050565b611c487f482ed56549d7462c0678911a19432fceeca01b8fb8c06d339ffb285b04d371a33361157a565b611c8c5760405162461bcd60e51b81526020600482015260156024820152740c8d2e6c2c4d8ca88cae0dee6d2e8e67474c2eae8d605b1b60448201526064016107f8565b604051634e77ace560e01b8152600060048201526001600160a01b03821690634e77ace590602401600060405180830381600087803b158015611cce57600080fd5b505af1158015611ce2573d6000803e3d6000fd5b5050604051600081526001600160a01b03841692507feafd77c9fa26ce797aa519fcee932a662cc58f6d55ced547c1db42b90b6f3e499150602001610e4b565b6000611490836001600160a01b038416611f68565b6000828152602081905260409020611d4f9082611d22565b15610bd85760405133906001600160a01b0383169084907f2f8788117e7eff1d82e926ec794901d17c78024a50270940304540a733656f0d90600090a45050565b6000828152602081905260409020611da89082611fb7565b15610bd85760405133906001600160a01b0383169084907ff6391f5c32d9c69d2a47ea670b442974b53935d1edc7fd64eb21e047a839171b90600090a45050565b6040516370a0823160e01b81523060048201526000906001600160a01b038416906370a0823190602401602060405180830381865afa158015611e30573d6000803e3d6000fd5b505050506040513d601f19601f82011682018060405250810190611e549190612293565b905080821015611e62578091505b60405163a9059cbb60e01b8152336004820152602481018390526001600160a01b0384169063a9059cbb906044016020604051808303816000875af1158015611eaf573d6000803e3d6000fd5b505050506040513d601f19601f82011682018060405250810190611ed391906122ac565b611f1f5760405162461bcd60e51b815260206004820181905260248201527f5f7472616e73666572546f6b656e733a3a7472616e73666572206661696c656460448201526064016107f8565b505050565b600061149082846122eb565b60006114908383611fcc565b6001600160a01b03811660009081526001830160205260408120541515611490565b6000611493825490565b6000818152600183016020526040812054611faf57508154600181810184556000848152602080822090930184905584548482528286019093526040902091909155611493565b506000611493565b6000611490836001600160a01b038416611ff6565b6000826000018281548110611fe357611fe3612303565b9060005260206000200154905092915050565b600081815260018301602052604081205480156120df57600061201a600183612319565b855490915060009061202e90600190612319565b905081811461209357600086600001828154811061204e5761204e612303565b906000526020600020015490508087600001848154811061207157612071612303565b6000918252602080832090910192909255918252600188019052604090208390555b85548690806120a4576120a4612330565b600190038181906000526020600020016000905590558560010160008681526020019081526020016000206000905560019350505050611493565b6000915050611493565b80356001600160a01b038116811461210057600080fd5b919050565b6000806040838503121561211857600080fd5b612121836120e9565b946020939093013593505050565b60006020828403121561214157600080fd5b611490826120e9565b60006020828403121561215c57600080fd5b5035919050565b6000806040838503121561217657600080fd5b82359150612186602084016120e9565b90509250929050565b6000806000606084860312156121a457600080fd5b6121ad846120e9565b92506121bb602085016120e9565b9150604084013590509250925092565b600080600080608085870312156121e157600080fd5b6121ea856120e9565b966020860135965060408601359560600135945092505050565b60008060006060848603121561221957600080fd5b612222846120e9565b9250612230602085016120e9565b915061223e604085016120e9565b90509250925092565b6000806040838503121561225a57600080fd5b50508035926020909101359150565b6000806040838503121561227c57600080fd5b612285836120e9565b9150612186602084016120e9565b6000602082840312156122a557600080fd5b5051919050565b6000602082840312156122be57600080fd5b815180151581146122ce57600080fd5b9392505050565b634e487b7160e01b600052601160045260246000fd5b600082198211156122fe576122fe6122d5565b500190565b634e487b7160e01b600052603260045260246000fd5b60008282101561232b5761232b6122d5565b500390565b634e487b7160e01b600052603160045260246000fdfee6ad9a47fbda1dc18de1eb5eeb7d935e5e81b4748f3cfc61e233e64f8818206073fb3e7d4fecad7bdd745b59d3969c10ce867b7cb1c0c9400a927ad4e7904659a2646970667358221220e263935718ef50068946cfa62842802c73a7b6857011791d26e4752a7222c4f764736f6c634300080d0033e6ad9a47fbda1dc18de1eb5eeb7d935e5e81b4748f3cfc61e233e64f88182060482ed56549d7462c0678911a19432fceeca01b8fb8c06d339ffb285b04d371a3",
    "linkReferences": {}
  },
  "methodIdentifiers": {
    "DEFAULT_ADMIN_ROLE()": "a217fddf",
    "EMERGENCY_RESCUER_ROLE()": "67528f2f",
    "EMERGENCY_SWEEPER_ROLE()": "516908fa",
    "FEE_SETTER_ROLE()": "e9347683",
    "GLOBAL_MAX_FEE_SETTER_ROLE()": "b7c2a2ee",
    "STRATEGY_DISABLER_ROLE()": "44b07d0d",
    "STRATEGY_ENABLER_ROLE()": "e3adbc56",
    "STRATEGY_OWNER_SETTER_ROLE()": "c4b1a3c2",
    "STRATEGY_PERMISSIONER_ROLE()": "a46d99b4",
    "allowDepositor(address,address)": "c8cb96e5",
    "disableDeposits(address)": "f5a2da20",
    "enableDeposits(address)": "52658c43",
    "getRoleAdmin(bytes32)": "248a9ca3",
    "getRoleMember(bytes32,uint256)": "9010d07c",
    "getRoleMemberCount(bytes32)": "ca15c873",
    "grantRole(bytes32,address)": "2f2ff15d",
    "hasRole(bytes32,address)": "91d14854",
    "maxFeeBips()": "0121ee71",
    "pendingOwners(address)": "a75c7452",
    "pendingOwnersTimelock(address)": "a1169780",
    "proposeOwner(address,address)": "9017e465",
    "recoverAVAX(address,uint256)": "9f429529",
    "recoverTokens(address,address,uint256)": "5f3e849f",
    "removeDepositor(address,address)": "ef8cb903",
    "renounceRole(bytes32,address)": "36568abe",
    "rescueDeployedFunds(address,uint256)": "2438ba10",
    "revokeAllowance(address,address,address)": "7f309cc4",
    "revokeRole(bytes32,address)": "d547741f",
    "setAllowances(address)": "3c059027",
    "setFees(address,uint256,uint256,uint256)": "7669d489",
    "setMaxTokensToDepositWithoutReinvest(address,uint256)": "91e6e968",
    "setMinTokensToReinvest(address,uint256)": "0fba7d62",
    "setOwner(address)": "13af4035",
    "sweepAVAX(uint256)": "e9129948",
    "sweepTokens(address,uint256)": "dec66036",
    "timelockLengthForOwnershipTransfer()": "0bb6f0ef",
    "updateGlobalMaxFees(uint256)": "62a5127a"
  },
  "id": 172
}