{
  "abi": [
    {
      "inputs": [
        {
          "internalType": "address",
          "name": "_owner",
          "type": "address"
        }
      ],
      "stateMutability": "nonpayable",
      "type": "constructor"
    },
    {
      "anonymous": false,
      "inputs": [
        {
          "indexed": true,
          "internalType": "address",
          "name": "previousOwner",
          "type": "address"
        },
        {
          "indexed": true,
          "internalType": "address",
          "name": "newOwner",
          "type": "address"
        }
      ],
      "name": "OwnershipTransferred",
      "type": "event"
    },
    {
      "inputs": [
        {
          "internalType": "address",
          "name": "target",
          "type": "address"
        },
        {
          "internalType": "uint256",
          "name": "value",
          "type": "uint256"
        },
        {
          "internalType": "bytes",
          "name": "data",
          "type": "bytes"
        }
      ],
      "name": "execute",
      "outputs": [
        {
          "internalType": "bool",
          "name": "",
          "type": "bool"
        },
        {
          "internalType": "bytes",
          "name": "",
          "type": "bytes"
        }
      ],
      "stateMutability": "nonpayable",
      "type": "function"
    },
    {
      "inputs": [],
      "name": "owner",
      "outputs": [
        {
          "internalType": "address",
          "name": "",
          "type": "address"
        }
      ],
      "stateMutability": "view",
      "type": "function"
    },
    {
      "inputs": [],
      "name": "proxy",
      "outputs": [
        {
          "internalType": "address",
          "name": "",
          "type": "address"
        }
      ],
      "stateMutability": "view",
      "type": "function"
    },
    {
      "inputs": [],
      "name": "renounceOwnership",
      "outputs": [],
      "stateMutability": "nonpayable",
      "type": "function"
    },
    {
      "inputs": [
        {
          "internalType": "address",
          "name": "_proxy",
          "type": "address"
        }
      ],
      "name": "setGmxProxy",
      "outputs": [],
      "stateMutability": "nonpayable",
      "type": "function"
    },
    {
      "inputs": [
        {
          "internalType": "address",
          "name": "newOwner",
          "type": "address"
        }
      ],
      "name": "transferOwnership",
      "outputs": [],
      "stateMutability": "nonpayable",
      "type": "function"
    }
  ],
  "bytecode": {
    "object": "0x608060405234801561001057600080fd5b506040516106f03803806106f083398101604081905261002f9161017a565b600080546001600160a01b031916339081178255604051909182916000805160206106d0833981519152908290a3506100678161006d565b506101aa565b6000546001600160a01b031633146100cc5760405162461bcd60e51b815260206004820181905260248201527f4f776e61626c653a2063616c6c6572206973206e6f7420746865206f776e657260448201526064015b60405180910390fd5b6001600160a01b0381166101315760405162461bcd60e51b815260206004820152602660248201527f4f776e61626c653a206e6577206f776e657220697320746865207a65726f206160448201526564647265737360d01b60648201526084016100c3565b600080546040516001600160a01b03808516939216916000805160206106d083398151915291a3600080546001600160a01b0319166001600160a01b0392909216919091179055565b60006020828403121561018c57600080fd5b81516001600160a01b03811681146101a357600080fd5b9392505050565b610517806101b96000396000f3fe608060405234801561001057600080fd5b50600436106100625760003560e01c806323bac30b14610067578063715018a61461007c5780638da5cb5b14610084578063b61d27f6146100ae578063ec556889146100cf578063f2fde38b146100e2575b600080fd5b61007a610075366004610394565b6100f5565b005b61007a61014a565b6000546001600160a01b03165b6040516001600160a01b0390911681526020015b60405180910390f35b6100c16100bc3660046103b6565b6101be565b6040516100a592919061043d565b600154610091906001600160a01b031681565b61007a6100f0366004610394565b61028e565b6000546001600160a01b031633146101285760405162461bcd60e51b815260040161011f9061049c565b60405180910390fd5b600180546001600160a01b0319166001600160a01b0392909216919091179055565b6000546001600160a01b031633146101745760405162461bcd60e51b815260040161011f9061049c565b600080546040516001600160a01b03909116907f8be0079c531659141344cd1fd0a4f28419497f9722a3daafe3b4186f6b6457e0908390a3600080546001600160a01b0319169055565b6001546000906060906001600160a01b0316331461021e5760405162461bcd60e51b815260206004820152601a60248201527f476d784465706f7369746f723a3a6f6e6c79476d7850726f7879000000000000604482015260640161011f565b600080876001600160a01b031687878760405161023c9291906104d1565b60006040518083038185875af1925050503d8060008114610279576040519150601f19603f3d011682016040523d82523d6000602084013e61027e565b606091505b5090999098509650505050505050565b6000546001600160a01b031633146102b85760405162461bcd60e51b815260040161011f9061049c565b6001600160a01b03811661031d5760405162461bcd60e51b815260206004820152602660248201527f4f776e61626c653a206e6577206f776e657220697320746865207a65726f206160448201526564647265737360d01b606482015260840161011f565b600080546040516001600160a01b03808516939216917f8be0079c531659141344cd1fd0a4f28419497f9722a3daafe3b4186f6b6457e091a3600080546001600160a01b0319166001600160a01b0392909216919091179055565b80356001600160a01b038116811461038f57600080fd5b919050565b6000602082840312156103a657600080fd5b6103af82610378565b9392505050565b600080600080606085870312156103cc57600080fd5b6103d585610378565b935060208501359250604085013567ffffffffffffffff808211156103f957600080fd5b818701915087601f83011261040d57600080fd5b81358181111561041c57600080fd5b88602082850101111561042e57600080fd5b95989497505060200194505050565b821515815260006020604081840152835180604085015260005b8181101561047357858101830151858201606001528201610457565b81811115610485576000606083870101525b50601f01601f191692909201606001949350505050565b6020808252818101527f4f776e61626c653a2063616c6c6572206973206e6f7420746865206f776e6572604082015260600190565b818382376000910190815291905056fea264697066735822122022b93a291f12b32af99bf5b291bae9eb12df35d0a067ccbb1b4eebcf39e28d5e64736f6c634300080d00338be0079c531659141344cd1fd0a4f28419497f9722a3daafe3b4186f6b6457e0",
    "linkReferences": {}
  },
  "methodIdentifiers": {
    "execute(address,uint256,bytes)": "b61d27f6",
    "owner()": "8da5cb5b",
    "proxy()": "ec556889",
    "renounceOwnership()": "715018a6",
    "setGmxProxy(address)": "23bac30b",
    "transferOwnership(address)": "f2fde38b"
  },
  "id": 91
}