{
  "abi": [
    {
      "inputs": [
        {
          "internalType": "string",
          "name": "_name",
          "type": "string"
        },
        {
          "internalType": "address",
          "name": "_depositToken",
          "type": "address"
        },
        {
          "internalType": "address",
          "name": "_preSwapToken",
          "type": "address"
        },
        {
          "internalType": "address",
          "name": "_swapPairPreSwap",
          "type": "address"
        },
        {
          "internalType": "address",
          "name": "_swapPairToken",
          "type": "address"
        },
        {
          "components": [
            {
              "internalType": "address",
              "name": "reward",
              "type": "address"
            },
            {
              "internalType": "address",
              "name": "swapPair",
              "type": "address"
            }
          ],
          "internalType": "struct VariableRewardsStrategy.RewardSwapPairs[]",
          "name": "_rewardSwapPairs",
          "type": "tuple[]"
        },
        {
          "internalType": "address",
          "name": "_stakingContract",
          "type": "address"
        },
        {
          "internalType": "address",
          "name": "_timelock",
          "type": "address"
        },
        {
          "components": [
            {
              "internalType": "uint256",
              "name": "minTokensToReinvest",
              "type": "uint256"
            },
            {
              "internalType": "uint256",
              "name": "devFeeBips",
              "type": "uint256"
            },
            {
              "internalType": "uint256",
              "name": "reinvestRewardBips",
              "type": "uint256"
            }
          ],
          "internalType": "struct YakStrategyV2.StrategySettings",
          "name": "_strategySettings",
          "type": "tuple"
        }
      ],
      "stateMutability": "nonpayable",
      "type": "constructor"
    },
    {
      "anonymous": false,
      "inputs": [
        {
          "indexed": false,
          "internalType": "address",
          "name": "rewardToken",
          "type": "address"
        },
        {
          "indexed": false,
          "internalType": "address",
          "name": "swapPair",
          "type": "address"
        }
      ],
      "name": "AddReward",
      "type": "event"
    },
    {
      "anonymous": false,
      "inputs": [
        {
          "indexed": true,
          "internalType": "address",
          "name": "account",
          "type": "address"
        }
      ],
      "name": "AllowDepositor",
      "type": "event"
    },
    {
      "anonymous": false,
      "inputs": [
        {
          "indexed": true,
          "internalType": "address",
          "name": "owner",
          "type": "address"
        },
        {
          "indexed": true,
          "internalType": "address",
          "name": "spender",
          "type": "address"
        },
        {
          "indexed": false,
          "internalType": "uint256",
          "name": "value",
          "type": "uint256"
        }
      ],
      "name": "Approval",
      "type": "event"
    },
    {
      "anonymous": false,
      "inputs": [
        {
          "indexed": true,
          "internalType": "address",
          "name": "account",
          "type": "address"
        },
        {
          "indexed": false,
          "internalType": "uint256",
          "name": "amount",
          "type": "uint256"
        }
      ],
      "name": "Deposit",
      "type": "event"
    },
    {
      "anonymous": false,
      "inputs": [
        {
          "indexed": false,
          "internalType": "bool",
          "name": "newValue",
          "type": "bool"
        }
      ],
      "name": "DepositsEnabled",
      "type": "event"
    },
    {
      "anonymous": false,
      "inputs": [
        {
          "indexed": true,
          "internalType": "address",
          "name": "previousOwner",
          "type": "address"
        },
        {
          "indexed": true,
          "internalType": "address",
          "name": "newOwner",
          "type": "address"
        }
      ],
      "name": "OwnershipTransferred",
      "type": "event"
    },
    {
      "anonymous": false,
      "inputs": [
        {
          "indexed": false,
          "internalType": "address",
          "name": "token",
          "type": "address"
        },
        {
          "indexed": false,
          "internalType": "uint256",
          "name": "amount",
          "type": "uint256"
        }
      ],
      "name": "Recovered",
      "type": "event"
    },
    {
      "anonymous": false,
      "inputs": [
        {
          "indexed": false,
          "internalType": "uint256",
          "name": "newTotalDeposits",
          "type": "uint256"
        },
        {
          "indexed": false,
          "internalType": "uint256",
          "name": "newTotalSupply",
          "type": "uint256"
        }
      ],
      "name": "Reinvest",
      "type": "event"
    },
    {
      "anonymous": false,
      "inputs": [
        {
          "indexed": true,
          "internalType": "address",
          "name": "account",
          "type": "address"
        }
      ],
      "name": "RemoveDepositor",
      "type": "event"
    },
    {
      "anonymous": false,
      "inputs": [
        {
          "indexed": false,
          "internalType": "address",
          "name": "rewardToken",
          "type": "address"
        }
      ],
      "name": "RemoveReward",
      "type": "event"
    },
    {
      "anonymous": false,
      "inputs": [
        {
          "indexed": true,
          "internalType": "address",
          "name": "from",
          "type": "address"
        },
        {
          "indexed": true,
          "internalType": "address",
          "name": "to",
          "type": "address"
        },
        {
          "indexed": false,
          "internalType": "uint256",
          "name": "value",
          "type": "uint256"
        }
      ],
      "name": "Transfer",
      "type": "event"
    },
    {
      "anonymous": false,
      "inputs": [
        {
          "indexed": false,
          "internalType": "uint256",
          "name": "oldValue",
          "type": "uint256"
        },
        {
          "indexed": false,
          "internalType": "uint256",
          "name": "newValue",
          "type": "uint256"
        }
      ],
      "name": "UpdateAdminFee",
      "type": "event"
    },
    {
      "anonymous": false,
      "inputs": [
        {
          "indexed": false,
          "internalType": "address",
          "name": "oldValue",
          "type": "address"
        },
        {
          "indexed": false,
          "internalType": "address",
          "name": "newValue",
          "type": "address"
        }
      ],
      "name": "UpdateDevAddr",
      "type": "event"
    },
    {
      "anonymous": false,
      "inputs": [
        {
          "indexed": false,
          "internalType": "uint256",
          "name": "oldValue",
          "type": "uint256"
        },
        {
          "indexed": false,
          "internalType": "uint256",
          "name": "newValue",
          "type": "uint256"
        }
      ],
      "name": "UpdateDevFee",
      "type": "event"
    },
    {
      "anonymous": false,
      "inputs": [
        {
          "indexed": false,
          "internalType": "uint256",
          "name": "oldValue",
          "type": "uint256"
        },
        {
          "indexed": false,
          "internalType": "uint256",
          "name": "newValue",
          "type": "uint256"
        }
      ],
      "name": "UpdateMaxTokensToDepositWithoutReinvest",
      "type": "event"
    },
    {
      "anonymous": false,
      "inputs": [
        {
          "indexed": false,
          "internalType": "uint256",
          "name": "oldValue",
          "type": "uint256"
        },
        {
          "indexed": false,
          "internalType": "uint256",
          "name": "newValue",
          "type": "uint256"
        }
      ],
      "name": "UpdateMinTokensToReinvest",
      "type": "event"
    },
    {
      "anonymous": false,
      "inputs": [
        {
          "indexed": false,
          "internalType": "uint256",
          "name": "oldValue",
          "type": "uint256"
        },
        {
          "indexed": false,
          "internalType": "uint256",
          "name": "newValue",
          "type": "uint256"
        }
      ],
      "name": "UpdateReinvestReward",
      "type": "event"
    },
    {
      "anonymous": false,
      "inputs": [
        {
          "indexed": true,
          "internalType": "address",
          "name": "account",
          "type": "address"
        },
        {
          "indexed": false,
          "internalType": "uint256",
          "name": "amount",
          "type": "uint256"
        }
      ],
      "name": "Withdraw",
      "type": "event"
    },
    {
      "inputs": [],
      "name": "ADMIN_FEE_BIPS",
      "outputs": [
        {
          "internalType": "uint256",
          "name": "",
          "type": "uint256"
        }
      ],
      "stateMutability": "view",
      "type": "function"
    },
    {
      "inputs": [],
      "name": "DEPOSITS_ENABLED",
      "outputs": [
        {
          "internalType": "bool",
          "name": "",
          "type": "bool"
        }
      ],
      "stateMutability": "view",
      "type": "function"
    },
    {
      "inputs": [],
      "name": "DEV_FEE_BIPS",
      "outputs": [
        {
          "internalType": "uint256",
          "name": "",
          "type": "uint256"
        }
      ],
      "stateMutability": "view",
      "type": "function"
    },
    {
      "inputs": [],
      "name": "DOMAIN_TYPEHASH",
      "outputs": [
        {
          "internalType": "bytes32",
          "name": "",
          "type": "bytes32"
        }
      ],
      "stateMutability": "view",
      "type": "function"
    },
    {
      "inputs": [],
      "name": "MAX_TOKENS_TO_DEPOSIT_WITHOUT_REINVEST",
      "outputs": [
        {
          "internalType": "uint256",
          "name": "",
          "type": "uint256"
        }
      ],
      "stateMutability": "view",
      "type": "function"
    },
    {
      "inputs": [],
      "name": "MIN_TOKENS_TO_REINVEST",
      "outputs": [
        {
          "internalType": "uint256",
          "name": "",
          "type": "uint256"
        }
      ],
      "stateMutability": "view",
      "type": "function"
    },
    {
      "inputs": [],
      "name": "PERMIT_TYPEHASH",
      "outputs": [
        {
          "internalType": "bytes32",
          "name": "",
          "type": "bytes32"
        }
      ],
      "stateMutability": "view",
      "type": "function"
    },
    {
      "inputs": [],
      "name": "REINVEST_REWARD_BIPS",
      "outputs": [
        {
          "internalType": "uint256",
          "name": "",
          "type": "uint256"
        }
      ],
      "stateMutability": "view",
      "type": "function"
    },
    {
      "inputs": [],
      "name": "VERSION_HASH",
      "outputs": [
        {
          "internalType": "bytes32",
          "name": "",
          "type": "bytes32"
        }
      ],
      "stateMutability": "view",
      "type": "function"
    },
    {
      "inputs": [
        {
          "internalType": "address",
          "name": "_rewardToken",
          "type": "address"
        },
        {
          "internalType": "address",
          "name": "_swapPair",
          "type": "address"
        }
      ],
      "name": "addReward",
      "outputs": [],
      "stateMutability": "nonpayable",
      "type": "function"
    },
    {
      "inputs": [
        {
          "internalType": "address",
          "name": "depositor",
          "type": "address"
        }
      ],
      "name": "allowDepositor",
      "outputs": [],
      "stateMutability": "nonpayable",
      "type": "function"
    },
    {
      "inputs": [
        {
          "internalType": "address",
          "name": "account",
          "type": "address"
        },
        {
          "internalType": "address",
          "name": "spender",
          "type": "address"
        }
      ],
      "name": "allowance",
      "outputs": [
        {
          "internalType": "uint256",
          "name": "",
          "type": "uint256"
        }
      ],
      "stateMutability": "view",
      "type": "function"
    },
    {
      "inputs": [
        {
          "internalType": "address",
          "name": "",
          "type": "address"
        }
      ],
      "name": "allowedDepositors",
      "outputs": [
        {
          "internalType": "bool",
          "name": "",
          "type": "bool"
        }
      ],
      "stateMutability": "view",
      "type": "function"
    },
    {
      "inputs": [
        {
          "internalType": "address",
          "name": "spender",
          "type": "address"
        },
        {
          "internalType": "uint256",
          "name": "amount",
          "type": "uint256"
        }
      ],
      "name": "approve",
      "outputs": [
        {
          "internalType": "bool",
          "name": "",
          "type": "bool"
        }
      ],
      "stateMutability": "nonpayable",
      "type": "function"
    },
    {
      "inputs": [
        {
          "internalType": "address",
          "name": "account",
          "type": "address"
        }
      ],
      "name": "balanceOf",
      "outputs": [
        {
          "internalType": "uint256",
          "name": "",
          "type": "uint256"
        }
      ],
      "stateMutability": "view",
      "type": "function"
    },
    {
      "inputs": [
        {
          "internalType": "uint256",
          "name": "_amount",
          "type": "uint256"
        }
      ],
      "name": "calculateDepositFee",
      "outputs": [
        {
          "internalType": "uint256",
          "name": "",
          "type": "uint256"
        }
      ],
      "stateMutability": "view",
      "type": "function"
    },
    {
      "inputs": [
        {
          "internalType": "uint256",
          "name": "_amount",
          "type": "uint256"
        }
      ],
      "name": "calculateWithdrawFee",
      "outputs": [
        {
          "internalType": "uint256",
          "name": "",
          "type": "uint256"
        }
      ],
      "stateMutability": "view",
      "type": "function"
    },
    {
      "inputs": [],
      "name": "checkReward",
      "outputs": [
        {
          "internalType": "uint256",
          "name": "",
          "type": "uint256"
        }
      ],
      "stateMutability": "view",
      "type": "function"
    },
    {
      "inputs": [],
      "name": "decimals",
      "outputs": [
        {
          "internalType": "uint8",
          "name": "",
          "type": "uint8"
        }
      ],
      "stateMutability": "view",
      "type": "function"
    },
    {
      "inputs": [
        {
          "internalType": "uint256",
          "name": "_amount",
          "type": "uint256"
        }
      ],
      "name": "deposit",
      "outputs": [],
      "stateMutability": "nonpayable",
      "type": "function"
    },
    {
      "inputs": [
        {
          "internalType": "address",
          "name": "_account",
          "type": "address"
        },
        {
          "internalType": "uint256",
          "name": "_amount",
          "type": "uint256"
        }
      ],
      "name": "depositFor",
      "outputs": [],
      "stateMutability": "nonpayable",
      "type": "function"
    },
    {
      "inputs": [],
      "name": "depositToken",
      "outputs": [
        {
          "internalType": "contract IERC20",
          "name": "",
          "type": "address"
        }
      ],
      "stateMutability": "view",
      "type": "function"
    },
    {
      "inputs": [
        {
          "internalType": "uint256",
          "name": "_amount",
          "type": "uint256"
        },
        {
          "internalType": "uint256",
          "name": "_deadline",
          "type": "uint256"
        },
        {
          "internalType": "uint8",
          "name": "_v",
          "type": "uint8"
        },
        {
          "internalType": "bytes32",
          "name": "_r",
          "type": "bytes32"
        },
        {
          "internalType": "bytes32",
          "name": "_s",
          "type": "bytes32"
        }
      ],
      "name": "depositWithPermit",
      "outputs": [],
      "stateMutability": "nonpayable",
      "type": "function"
    },
    {
      "inputs": [],
      "name": "devAddr",
      "outputs": [
        {
          "internalType": "address",
          "name": "",
          "type": "address"
        }
      ],
      "stateMutability": "view",
      "type": "function"
    },
    {
      "inputs": [],
      "name": "estimateDeployedBalance",
      "outputs": [
        {
          "internalType": "uint256",
          "name": "",
          "type": "uint256"
        }
      ],
      "stateMutability": "view",
      "type": "function"
    },
    {
      "inputs": [],
      "name": "estimateReinvestReward",
      "outputs": [
        {
          "internalType": "uint256",
          "name": "",
          "type": "uint256"
        }
      ],
      "stateMutability": "view",
      "type": "function"
    },
    {
      "inputs": [
        {
          "internalType": "uint256",
          "name": "amount",
          "type": "uint256"
        }
      ],
      "name": "getDepositTokensForShares",
      "outputs": [
        {
          "internalType": "uint256",
          "name": "",
          "type": "uint256"
        }
      ],
      "stateMutability": "view",
      "type": "function"
    },
    {
      "inputs": [],
      "name": "getDomainSeparator",
      "outputs": [
        {
          "internalType": "bytes32",
          "name": "",
          "type": "bytes32"
        }
      ],
      "stateMutability": "view",
      "type": "function"
    },
    {
      "inputs": [
        {
          "internalType": "uint256",
          "name": "amount",
          "type": "uint256"
        }
      ],
      "name": "getSharesForDepositTokens",
      "outputs": [
        {
          "internalType": "uint256",
          "name": "",
          "type": "uint256"
        }
      ],
      "stateMutability": "view",
      "type": "function"
    },
    {
      "inputs": [],
      "name": "name",
      "outputs": [
        {
          "internalType": "string",
          "name": "",
          "type": "string"
        }
      ],
      "stateMutability": "view",
      "type": "function"
    },
    {
      "inputs": [
        {
          "internalType": "address",
          "name": "",
          "type": "address"
        }
      ],
      "name": "nonces",
      "outputs": [
        {
          "internalType": "uint256",
          "name": "",
          "type": "uint256"
        }
      ],
      "stateMutability": "view",
      "type": "function"
    },
    {
      "inputs": [],
      "name": "numberOfAllowedDepositors",
      "outputs": [
        {
          "internalType": "uint256",
          "name": "",
          "type": "uint256"
        }
      ],
      "stateMutability": "view",
      "type": "function"
    },
    {
      "inputs": [],
      "name": "owner",
      "outputs": [
        {
          "internalType": "address",
          "name": "",
          "type": "address"
        }
      ],
      "stateMutability": "view",
      "type": "function"
    },
    {
      "inputs": [
        {
          "internalType": "address",
          "name": "owner",
          "type": "address"
        },
        {
          "internalType": "address",
          "name": "spender",
          "type": "address"
        },
        {
          "internalType": "uint256",
          "name": "value",
          "type": "uint256"
        },
        {
          "internalType": "uint256",
          "name": "deadline",
          "type": "uint256"
        },
        {
          "internalType": "uint8",
          "name": "v",
          "type": "uint8"
        },
        {
          "internalType": "bytes32",
          "name": "r",
          "type": "bytes32"
        },
        {
          "internalType": "bytes32",
          "name": "s",
          "type": "bytes32"
        }
      ],
      "name": "permit",
      "outputs": [],
      "stateMutability": "nonpayable",
      "type": "function"
    },
    {
      "inputs": [],
      "name": "preSwapToken",
      "outputs": [
        {
          "internalType": "address",
          "name": "",
          "type": "address"
        }
      ],
      "stateMutability": "view",
      "type": "function"
    },
    {
      "inputs": [
        {
          "internalType": "uint256",
          "name": "amount",
          "type": "uint256"
        }
      ],
      "name": "recoverAVAX",
      "outputs": [],
      "stateMutability": "nonpayable",
      "type": "function"
    },
    {
      "inputs": [
        {
          "internalType": "address",
          "name": "tokenAddress",
          "type": "address"
        },
        {
          "internalType": "uint256",
          "name": "tokenAmount",
          "type": "uint256"
        }
      ],
      "name": "recoverERC20",
      "outputs": [],
      "stateMutability": "nonpayable",
      "type": "function"
    },
    {
      "inputs": [],
      "name": "reinvest",
      "outputs": [],
      "stateMutability": "nonpayable",
      "type": "function"
    },
    {
      "inputs": [
        {
          "internalType": "address",
          "name": "depositor",
          "type": "address"
        }
      ],
      "name": "removeDepositor",
      "outputs": [],
      "stateMutability": "nonpayable",
      "type": "function"
    },
    {
      "inputs": [
        {
          "internalType": "address",
          "name": "_rewardToken",
          "type": "address"
        }
      ],
      "name": "removeReward",
      "outputs": [],
      "stateMutability": "nonpayable",
      "type": "function"
    },
    {
      "inputs": [],
      "name": "renounceOwnership",
      "outputs": [],
      "stateMutability": "nonpayable",
      "type": "function"
    },
    {
      "inputs": [
        {
          "internalType": "uint256",
          "name": "_minReturnAmountAccepted",
          "type": "uint256"
        },
        {
          "internalType": "bool",
          "name": "",
          "type": "bool"
        }
      ],
      "name": "rescueDeployedFunds",
      "outputs": [],
      "stateMutability": "nonpayable",
      "type": "function"
    },
    {
      "inputs": [
        {
          "internalType": "address",
          "name": "token",
          "type": "address"
        },
        {
          "internalType": "address",
          "name": "spender",
          "type": "address"
        }
      ],
      "name": "revokeAllowance",
      "outputs": [],
      "stateMutability": "nonpayable",
      "type": "function"
    },
    {
      "inputs": [],
      "name": "rewardCount",
      "outputs": [
        {
          "internalType": "uint256",
          "name": "",
          "type": "uint256"
        }
      ],
      "stateMutability": "view",
      "type": "function"
    },
    {
      "inputs": [
        {
          "internalType": "address",
          "name": "",
          "type": "address"
        }
      ],
      "name": "rewardSwapPairs",
      "outputs": [
        {
          "internalType": "address",
          "name": "",
          "type": "address"
        }
      ],
      "stateMutability": "view",
      "type": "function"
    },
    {
      "inputs": [],
      "name": "rewardToken",
      "outputs": [
        {
          "internalType": "contract IERC20",
          "name": "",
          "type": "address"
        }
      ],
      "stateMutability": "view",
      "type": "function"
    },
    {
      "inputs": [],
      "name": "stakingContract",
      "outputs": [
        {
          "internalType": "contract IYYStaking",
          "name": "",
          "type": "address"
        }
      ],
      "stateMutability": "view",
      "type": "function"
    },
    {
      "inputs": [
        {
          "internalType": "uint256",
          "name": "",
          "type": "uint256"
        }
      ],
      "name": "supportedRewards",
      "outputs": [
        {
          "internalType": "address",
          "name": "",
          "type": "address"
        }
      ],
      "stateMutability": "view",
      "type": "function"
    },
    {
      "inputs": [],
      "name": "swapPairPreSwap",
      "outputs": [
        {
          "internalType": "address",
          "name": "",
          "type": "address"
        }
      ],
      "stateMutability": "view",
      "type": "function"
    },
    {
      "inputs": [],
      "name": "swapPairToken",
      "outputs": [
        {
          "internalType": "address",
          "name": "",
          "type": "address"
        }
      ],
      "stateMutability": "view",
      "type": "function"
    },
    {
      "inputs": [],
      "name": "symbol",
      "outputs": [
        {
          "internalType": "string",
          "name": "",
          "type": "string"
        }
      ],
      "stateMutability": "view",
      "type": "function"
    },
    {
      "inputs": [],
      "name": "totalDeposits",
      "outputs": [
        {
          "internalType": "uint256",
          "name": "",
          "type": "uint256"
        }
      ],
      "stateMutability": "view",
      "type": "function"
    },
    {
      "inputs": [],
      "name": "totalSupply",
      "outputs": [
        {
          "internalType": "uint256",
          "name": "",
          "type": "uint256"
        }
      ],
      "stateMutability": "view",
      "type": "function"
    },
    {
      "inputs": [
        {
          "internalType": "address",
          "name": "dst",
          "type": "address"
        },
        {
          "internalType": "uint256",
          "name": "amount",
          "type": "uint256"
        }
      ],
      "name": "transfer",
      "outputs": [
        {
          "internalType": "bool",
          "name": "",
          "type": "bool"
        }
      ],
      "stateMutability": "nonpayable",
      "type": "function"
    },
    {
      "inputs": [
        {
          "internalType": "address",
          "name": "src",
          "type": "address"
        },
        {
          "internalType": "address",
          "name": "dst",
          "type": "address"
        },
        {
          "internalType": "uint256",
          "name": "amount",
          "type": "uint256"
        }
      ],
      "name": "transferFrom",
      "outputs": [
        {
          "internalType": "bool",
          "name": "",
          "type": "bool"
        }
      ],
      "stateMutability": "nonpayable",
      "type": "function"
    },
    {
      "inputs": [
        {
          "internalType": "address",
          "name": "newOwner",
          "type": "address"
        }
      ],
      "name": "transferOwnership",
      "outputs": [],
      "stateMutability": "nonpayable",
      "type": "function"
    },
    {
      "inputs": [
        {
          "internalType": "uint256",
          "name": "newValue",
          "type": "uint256"
        }
      ],
      "name": "updateAdminFee",
      "outputs": [],
      "stateMutability": "nonpayable",
      "type": "function"
    },
    {
      "inputs": [
        {
          "internalType": "bool",
          "name": "newValue",
          "type": "bool"
        }
      ],
      "name": "updateDepositsEnabled",
      "outputs": [],
      "stateMutability": "nonpayable",
      "type": "function"
    },
    {
      "inputs": [
        {
          "internalType": "address",
          "name": "newValue",
          "type": "address"
        }
      ],
      "name": "updateDevAddr",
      "outputs": [],
      "stateMutability": "nonpayable",
      "type": "function"
    },
    {
      "inputs": [
        {
          "internalType": "uint256",
          "name": "newValue",
          "type": "uint256"
        }
      ],
      "name": "updateDevFee",
      "outputs": [],
      "stateMutability": "nonpayable",
      "type": "function"
    },
    {
      "inputs": [
        {
          "internalType": "uint256",
          "name": "newValue",
          "type": "uint256"
        }
      ],
      "name": "updateMaxTokensToDepositWithoutReinvest",
      "outputs": [],
      "stateMutability": "nonpayable",
      "type": "function"
    },
    {
      "inputs": [
        {
          "internalType": "uint256",
          "name": "newValue",
          "type": "uint256"
        }
      ],
      "name": "updateMinTokensToReinvest",
      "outputs": [],
      "stateMutability": "nonpayable",
      "type": "function"
    },
    {
      "inputs": [
        {
          "internalType": "uint256",
          "name": "newValue",
          "type": "uint256"
        }
      ],
      "name": "updateReinvestReward",
      "outputs": [],
      "stateMutability": "nonpayable",
      "type": "function"
    },
    {
      "inputs": [
        {
          "internalType": "uint256",
          "name": "_amount",
          "type": "uint256"
        }
      ],
      "name": "withdraw",
      "outputs": [],
      "stateMutability": "nonpayable",
      "type": "function"
    }
  ],
  "bytecode": {
    "object": "0x60c060405260096080819052685969656c642059616b60b81b60a09081526200002c9160009190620009fb565b506040805180820190915260038082526216549560ea1b60209092019182526200005991600191620009fb565b503480156200006757600080fd5b5060405162004f5b38038062004f5b8339810160408190526200008a9162000c52565b888885848480600033600680546001600160a01b0319166001600160a01b0383169081179091556040519192509060009060008051602062004f3b833981519152908290a3508051620000dd9062000293565b6020810151620000ed9062000323565b6040810151620000fd90620003da565b50845162000113906000906020880190620009fb565b50600980546001600160a01b0386166001600160a01b031991821617909155600a8054821673b31f66aa3c1e785363f0875a1b74e27b85fd66c7179055600b8054909116732d580f9cf2fb2d09bc411532988f2afda4e7beff17905560005b8351811015620001e357620001ce84828151811062000195576200019562000dbb565b602002602001015160000151858381518110620001b657620001b662000dbb565b6020026020010151602001516200049160201b60201c565b80620001da8162000de7565b91505062000172565b50620001f060016200061a565b620001fb82620006c4565b60408051600080825260208201527fc7606d21ac05cd309191543e409f0845c016120563783d70e4f41419dc0ef234910160405180910390a15050601780546001600160a01b03199081166001600160a01b039b8c1617909155601680548216998b169990991790985550506018805487169888169890981790975550506015805490931693169290921790555062000e7892505050565b6006546001600160a01b03163314620002e25760405162461bcd60e51b8152602060048201819052602482015260008051602062004f1b83398151915260448201526064015b60405180910390fd5b600c5460408051918252602082018390527f481f79ac3a523b6d6db3c5a720e190e986d1cc1b41adcdf50f9caef849901100910160405180910390a1600c55565b6006546001600160a01b031633146200036e5760405162461bcd60e51b8152602060048201819052602482015260008051602062004f1b8339815191526044820152606401620002d9565b6127106200038d60105483620007c160201b6200200a1790919060201c565b11156200039957600080fd5b60115460408051918252602082018390527f2a42303d002f0ba6cfe8259c91d4684443fb0b3de286ba74991175d651726131910160405180910390a1601155565b6006546001600160a01b03163314620004255760405162461bcd60e51b8152602060048201819052602482015260008051602062004f1b8339815191526044820152606401620002d9565b6127106200044460115483620007c160201b6200200a1790919060201c565b11156200045057600080fd5b60105460408051918252602082018390527fe7f97d51d307dc44045597c9978bec0f842e6bb40d19b9444084cfa30d9ed4f2910160405180910390a1601055565b600a546001600160a01b038381169116146200054a57620004d48183600a60009054906101000a90046001600160a01b0316620007d660201b620020161760201c565b6200054a576040805162461bcd60e51b81526020600482015260248101919091527f5661726961626c655265776172647353747261746567793a3a5377617020706160448201527f697220646f6573206e6f7420636f6e7461696e2072657761726420746f6b656e6064820152608401620002d9565b6001600160a01b038083166000818152601260209081526040822080549486166001600160a01b03199586161790556013805460018181018355919093527f66de8ffda797e3de9c05e8fc57b3bf0ec28a930d40b0d285d93c06501cf6a0909092018054909416909217909255601454620005d09290916200200a620007c1821b17901c565b601455604080516001600160a01b038085168252831660208201527f916e172c080569186aa7ea048268267257cf7cc49505908863f747bca8620f80910160405180910390a15050565b6006546001600160a01b03163314620006655760405162461bcd60e51b8152602060048201819052602482015260008051602062004f1b8339815191526044820152606401620002d9565b600e5481151560ff9091161515036200067d57600080fd5b600e805460ff19168215159081179091556040519081527f7b014ed3854e7f5cb0218d58b3c6ae7d53a68bb0af2f67bfb029ea42c38a7e859060200160405180910390a150565b6006546001600160a01b031633146200070f5760405162461bcd60e51b8152602060048201819052602482015260008051602062004f1b8339815191526044820152606401620002d9565b6001600160a01b038116620007765760405162461bcd60e51b815260206004820152602660248201527f4f776e61626c653a206e6577206f776e657220697320746865207a65726f206160448201526564647265737360d01b6064820152608401620002d9565b6006546040516001600160a01b0380841692169060008051602062004f3b83398151915290600090a3600680546001600160a01b0319166001600160a01b0392909216919091179055565b6000620007cf828462000e03565b9392505050565b6000836001600160a01b0316630dfe16816040518163ffffffff1660e01b8152600401602060405180830381865afa15801562000817573d6000803e3d6000fd5b505050506040513d601f19601f820116820180604052508101906200083d919062000e1e565b6001600160a01b0316836001600160a01b03161480620008d25750836001600160a01b031663d21220a76040518163ffffffff1660e01b8152600401602060405180830381865afa15801562000897573d6000803e3d6000fd5b505050506040513d601f19601f82011682018060405250810190620008bd919062000e1e565b6001600160a01b0316836001600160a01b0316145b8015620009d45750836001600160a01b0316630dfe16816040518163ffffffff1660e01b8152600401602060405180830381865afa15801562000919573d6000803e3d6000fd5b505050506040513d601f19601f820116820180604052508101906200093f919062000e1e565b6001600160a01b0316826001600160a01b03161480620009d45750836001600160a01b031663d21220a76040518163ffffffff1660e01b8152600401602060405180830381865afa15801562000999573d6000803e3d6000fd5b505050506040513d601f19601f82011682018060405250810190620009bf919062000e1e565b6001600160a01b0316826001600160a01b0316145b8015620009f35750816001600160a01b0316836001600160a01b031614155b949350505050565b82805462000a099062000e3c565b90600052602060002090601f01602090048101928262000a2d576000855562000a78565b82601f1062000a4857805160ff191683800117855562000a78565b8280016001018555821562000a78579182015b8281111562000a7857825182559160200191906001019062000a5b565b5062000a8692915062000a8a565b5090565b5b8082111562000a86576000815560010162000a8b565b634e487b7160e01b600052604160045260246000fd5b604080519081016001600160401b038111828210171562000adc5762000adc62000aa1565b60405290565b604051601f8201601f191681016001600160401b038111828210171562000b0d5762000b0d62000aa1565b604052919050565b80516001600160a01b038116811462000b2d57600080fd5b919050565b600082601f83011262000b4457600080fd5b815160206001600160401b0382111562000b625762000b6262000aa1565b62000b72818360051b0162000ae2565b82815260069290921b8401810191818101908684111562000b9257600080fd5b8286015b8481101562000be8576040818903121562000bb15760008081fd5b62000bbb62000ab7565b62000bc68262000b15565b815262000bd585830162000b15565b8186015283529183019160400162000b96565b509695505050505050565b60006060828403121562000c0657600080fd5b604051606081016001600160401b038111828210171562000c2b5762000c2b62000aa1565b80604052508091508251815260208301516020820152604083015160408201525092915050565b60008060008060008060008060006101608a8c03121562000c7257600080fd5b89516001600160401b038082111562000c8a57600080fd5b818c0191508c601f83011262000c9f57600080fd5b81518181111562000cb45762000cb462000aa1565b602062000cca601f8301601f1916820162000ae2565b8281528f8284870101111562000cdf57600080fd5b60005b8381101562000cff57858101830151828201840152820162000ce2565b8381111562000d115760008385840101525b509c5062000d218e820162000b15565b9b50505062000d3360408d0162000b15565b985062000d4360608d0162000b15565b975062000d5360808d0162000b15565b965060a08c015191508082111562000d6a57600080fd5b5062000d798c828d0162000b32565b94505062000d8a60c08b0162000b15565b925062000d9a60e08b0162000b15565b915062000dac8b6101008c0162000bf3565b90509295985092959850929598565b634e487b7160e01b600052603260045260246000fd5b634e487b7160e01b600052601160045260246000fd5b60006001820162000dfc5762000dfc62000dd1565b5060010190565b6000821982111562000e195762000e1962000dd1565b500190565b60006020828403121562000e3157600080fd5b620007cf8262000b15565b600181811c9082168062000e5157607f821691505b60208210810362000e7257634e487b7160e01b600052602260045260246000fd5b50919050565b6140938062000e886000396000f3fe608060405234801561001057600080fd5b50600436106103d05760003560e01c80638980f11f116101ff578063bd079f551161011a578063e21ac825116100ad578063ee99205c1161007c578063ee99205c14610899578063f2fde38b146108ac578063f7c618c1146108bf578063fdb5a03e146108d257600080fd5b8063e21ac82514610858578063e75ab0451461086b578063eab89a5a1461087e578063ed24911d1461089157600080fd5b8063d505accf116100e9578063d505accf146107e6578063da09c72c146107f9578063dd62ed3e1461080c578063dd8ce4d61461084557600080fd5b8063bd079f55146107af578063c4b24a46146107b8578063c89039c5146107c0578063cff1b6ef146107d357600080fd5b8063a4d5e67c11610192578063ac0d31ff11610161578063ac0d31ff14610774578063b52a321f14610787578063b6b55f2514610794578063b9e57b80146107a757600080fd5b8063a4d5e67c14610712578063a5534e7114610725578063a8ae2b7c1461074e578063a9059cbb1461076157600080fd5b80639291d563116101ce5780639291d563146106bd57806395d89b41146106d057806399729ec1146106d85780639e4e7318146106eb57600080fd5b80638980f11f1461067d5780638aff733d146106905780638b73e606146106995780638da5cb5b146106ac57600080fd5b8063483c2ef0116102ef57806370a08231116102825780637ae26773116102515780637ae267731461062f5780637d882097146106425780637ecebe001461064a578063818372301461066a57600080fd5b806370a08231146105ec578063715018a614610615578063789139bc1461061d578063790854251461062657600080fd5b80634e77ace5116102be5780634e77ace5146105aa5780634ebb7916146105bd5780635ea682ea146105d0578063633afd28146105d957600080fd5b8063483c2ef01461054e5780634a970be7146105715780634bebd1e7146105845780634c30e1271461059757600080fd5b8063247d284b11610367578063313ce56711610336578063313ce567146104ed578063318caf2b146105075780633bdc6e721461053257806340b47e1a1461053b57600080fd5b8063247d284b1461048b5780632e1a7d4d1461049e5780632f4f21e2146104b357806330adf81f146104c657600080fd5b806311056035116103a3578063110560351461043557806318160ddd1461044857806320606b701461045157806323b872dd1461047857600080fd5b806306fdde03146103d557806307677111146103f3578063095ea7b31461040a5780630f23475d1461042d575b600080fd5b6103dd6108da565b6040516103ea9190613a49565b60405180910390f35b6103fc600f5481565b6040519081526020016103ea565b61041d610418366004613a71565b610968565b60405190151581526020016103ea565b6103fc61097e565b6103fc610443366004613a9d565b6109a9565b6103fc60025481565b6103fc7f8b73c3c69bb8fe3d512ecc4cf759cc79239f7b179b0ffacaa9a75d522b39400f81565b61041d610486366004613ab6565b6109ba565b6103fc610499366004613a9d565b610a9e565b6104b16104ac366004613a9d565b610aa9565b005b6104b16104c1366004613a71565b610ba4565b6103fc7f6e71edae12b1b97f4d1f60370fef10105fa2faae0126114a169c64845d6126c981565b6104f5601281565b60405160ff90911681526020016103ea565b60185461051a906001600160a01b031681565b6040516001600160a01b0390911681526020016103ea565b6103fc60075481565b6104b1610549366004613af7565b610bb2565b61041d61055c366004613b30565b60086020526000908152604090205460ff1681565b6104b161057f366004613b63565b610be6565b6104b1610592366004613b30565b610c7f565b60175461051a906001600160a01b031681565b6104b16105b8366004613bb8565b610d7e565b6104b16105cb366004613a9d565b610e07565b6103fc60115481565b60165461051a906001600160a01b031681565b6103fc6105fa366004613b30565b6001600160a01b031660009081526004602052604090205490565b6104b1610ea3565b6103fc600d5481565b6103fc60145481565b6104b161063d366004613af7565b610f17565b6103fc610fbd565b6103fc610658366004613b30565b60056020526000908152604090205481565b6104b1610678366004613a9d565b61103b565b6104b161068b366004613a71565b6110a6565b6103fc60105481565b6104b16106a7366004613b30565b61119e565b6006546001600160a01b031661051a565b6104b16106cb366004613b30565b61131f565b6103dd6113b2565b6104b16106e6366004613a9d565b6113bf565b6103fc7fc89efdaa54c0f20c7adf612882df0950f5a951637e0307cdcb4c672f298b8bc681565b6104b1610720366004613b30565b61144d565b61051a610733366004613b30565b6012602052600090815260409020546001600160a01b031681565b6104b161075c366004613a9d565b611653565b61041d61076f366004613a71565b6116e1565b6104b1610782366004613bd5565b6116ee565b600e5461041d9060ff1681565b6104b16107a2366004613a9d565b6118f6565b6103fc611903565b6103fc600c5481565b6103fc611948565b60095461051a906001600160a01b031681565b6104b16107e1366004613a9d565b611baf565b6104b16107f4366004613bfa565b611c25565b600b5461051a906001600160a01b031681565b6103fc61081a366004613af7565b6001600160a01b03918216600090815260036020908152604080832093909416825291909152205490565b6103fc610853366004613a9d565b611d2a565b6104b1610866366004613a9d565b611d64565b61051a610879366004613a9d565b611dcf565b6103fc61088c366004613a9d565b611df9565b6103fc611e2d565b60155461051a906001600160a01b031681565b6104b16108ba366004613b30565b611ecd565b600a5461051a906001600160a01b031681565b6104b1611fb8565b600080546108e790613c68565b80601f016020809104026020016040519081016040528092919081815260200182805461091390613c68565b80156109605780601f1061093557610100808354040283529160200191610960565b820191906000526020600020905b81548152906001019060200180831161094357829003601f168201915b505050505081565b600061097533848461222b565b50600192915050565b600080610989610fbd565b9050600061099682612339565b90506109a28282612350565b9250505090565b60006109b482612339565b92915050565b6001600160a01b0383166000818152600360209081526040808320338085529252822054919290919082148015906109f457506000198114155b15610a85576000610a20856040518060600160405280602f8152602001613fda602f913984919061235c565b6001600160a01b038881166000818152600360209081526040808320948916808452948252918290208590559051848152939450919290917f8c5be1e5ebec7d5bd14f71427d1e84f3dd0314c0f7b2291e5b200ac8c7c3b925910160405180910390a3505b610a90868686612388565b6001925050505b9392505050565b60006109b4826124bb565b6000610ab482611df9565b905060008111610b245760405162461bcd60e51b815260206004820152603060248201527f5661726961626c655265776172647353747261746567793a3a5769746864726160448201526f7720616d6f756e7420746f6f206c6f7760801b60648201526084015b60405180910390fd5b6000610b2f826124c6565b90506000610b3c83612339565b9050610b5f33610b4c8484612350565b6009546001600160a01b0316919061252b565b610b693385612582565b60405183815233907f884edad9ce6fa2440d8a54cc123490eb96d2768479d49ff9c7366125a94243649060200160405180910390a250505050565b610bae8282612658565b5050565b600b546001600160a01b03163314610bdc5760405162461bcd60e51b8152600401610b1b90613ca2565b610bae8282612846565b60095460405163d505accf60e01b8152336004820152306024820152604481018790526064810186905260ff8516608482015260a4810184905260c481018390526001600160a01b039091169063d505accf9060e401600060405180830381600087803b158015610c5657600080fd5b505af1158015610c6a573d6000803e3d6000fd5b50505050610c783386612658565b5050505050565b6006546001600160a01b03163314610ca95760405162461bcd60e51b8152600401610b1b90613cd0565b6001600160a01b03811660009081526008602052604090205460ff1615610d125760405162461bcd60e51b815260206004820152601c60248201527f5065726d697373696f6e65643a3a616c6c6f774465706f7369746f72000000006044820152606401610b1b565b6001600160a01b0381166000908152600860205260409020805460ff19166001908117909155600754610d449161200a565b6007556040516001600160a01b038216907fc0a1035c16faf8d1304056d92c00edf028f87e62b8235a938f00af9e3c0312c590600090a250565b6006546001600160a01b03163314610da85760405162461bcd60e51b8152600401610b1b90613cd0565b600e5481151560ff909116151503610dbf57600080fd5b600e805460ff19168215159081179091556040519081527f7b014ed3854e7f5cb0218d58b3c6ae7d53a68bb0af2f67bfb029ea42c38a7e85906020015b60405180910390a150565b6006546001600160a01b03163314610e315760405162461bcd60e51b8152600401610b1b90613cd0565b60008111610e3e57600080fd5b604051339082156108fc029083906000818181858888f19350505050158015610e6b573d6000803e3d6000fd5b506040805160008152602081018390527f8c1256b8896378cd5044f80c202f9772b9d77dc85c8a6eb51967210b09bfaa289101610dfc565b6006546001600160a01b03163314610ecd5760405162461bcd60e51b8152600401610b1b90613cd0565b6006546040516000916001600160a01b0316907f8be0079c531659141344cd1fd0a4f28419497f9722a3daafe3b4186f6b6457e0908390a3600680546001600160a01b0319169055565b6006546001600160a01b03163314610f415760405162461bcd60e51b8152600401610b1b90613cd0565b60405163095ea7b360e01b81526001600160a01b0382811660048301526000602483015283169063095ea7b3906044016020604051808303816000875af1158015610f90573d6000803e3d6000fd5b505050506040513d601f19601f82011682018060405250810190610fb49190613d05565b610bae57600080fd5b60155460405163f2801fe760e01b81523060048201526000602482018190529182916001600160a01b039091169063f2801fe7906044016040805180830381865afa158015611010573d6000803e3d6000fd5b505050506040513d601f19601f820116820180604052508101906110349190613d22565b5092915050565b6006546001600160a01b031633146110655760405162461bcd60e51b8152600401610b1b90613cd0565b600c5460408051918252602082018390527f481f79ac3a523b6d6db3c5a720e190e986d1cc1b41adcdf50f9caef849901100910160405180910390a1600c55565b6006546001600160a01b031633146110d05760405162461bcd60e51b8152600401610b1b90613cd0565b600081116110dd57600080fd5b60405163a9059cbb60e01b8152336004820152602481018290526001600160a01b0383169063a9059cbb906044016020604051808303816000875af115801561112a573d6000803e3d6000fd5b505050506040513d601f19601f8201168201806040525081019061114e9190613d05565b61115757600080fd5b604080516001600160a01b0384168152602081018390527f8c1256b8896378cd5044f80c202f9772b9d77dc85c8a6eb51967210b09bfaa2891015b60405180910390a15050565b6006546001600160a01b031633146111c85760405162461bcd60e51b8152600401610b1b90613cd0565b6000600754116112375760405162461bcd60e51b815260206004820152603460248201527f5065726d697373696f6e65643a3a72656d6f76654465706f7369746f722c206e6044820152736f20616c6c6f776564206465706f7369746f727360601b6064820152608401610b1b565b6001600160a01b03811660009081526008602052604090205460ff1615156001146112b75760405162461bcd60e51b815260206004820152602a60248201527f5065726d697373696f6e65643a3a72656d6f76654465706f7369746f722c206e6044820152691bdd08185b1b1bddd95960b21b6064820152608401610b1b565b6001600160a01b0381166000908152600860205260409020805460ff191690556007546112e5906001612350565b6007556040516001600160a01b038216907f0e86f6608b536e5339a25b65ff531f5ea91e1313d056ecd4752b35cbd16137d490600090a250565b600b546001600160a01b031633146113495760405162461bcd60e51b8152600401610b1b90613ca2565b600b54604080516001600160a01b03928316815291831660208301527fa8e91499ed37682f43cffb045fcc7d379a91e8c9a14e6321877ee34dee564c00910160405180910390a1600b80546001600160a01b0319166001600160a01b0392909216919091179055565b600180546108e790613c68565b6006546001600160a01b031633146113e95760405162461bcd60e51b8152600401610b1b90613cd0565b6127106114016010548361200a90919063ffffffff16565b111561140c57600080fd5b60115460408051918252602082018390527f2a42303d002f0ba6cfe8259c91d4684443fb0b3de286ba74991175d651726131910160405180910390a1601155565b600b546001600160a01b031633146114775760405162461bcd60e51b8152600401610b1b90613ca2565b6001600160a01b038116600090815260126020526040812080546001600160a01b0319169055805b60135481101561156b57601381815481106114bc576114bc613d46565b6000918252602090912001546001600160a01b03908116908416036115595760138054600193506114ee908490613d72565b815481106114fe576114fe613d46565b600091825260209091200154601380546001600160a01b03909216918390811061152a5761152a613d46565b9060005260206000200160006101000a8154816001600160a01b0302191690836001600160a01b031602179055505b8061156381613d89565b91505061149f565b50806115d65760405162461bcd60e51b815260206004820152603460248201527f5661726961626c655265776172647353747261746567793a3a52657761726420604482015273746f2064656c657465206e6f7420666f756e642160601b6064820152608401610b1b565b60138054806115e7576115e7613da2565b600082815260209020810160001990810180546001600160a01b0319169055019055601454611617906001612350565b6014556040516001600160a01b03831681527f963b7c735475147a62c589c2d7cb8ec4b0a6b7af4f97373d79ebfa42ab8aa7dc90602001611192565b6006546001600160a01b0316331461167d5760405162461bcd60e51b8152600401610b1b90613cd0565b6127106116956011548361200a90919063ffffffff16565b11156116a057600080fd5b60105460408051918252602082018390527fe7f97d51d307dc44045597c9978bec0f842e6bb40d19b9444084cfa30d9ed4f2910160405180910390a1601055565b6000610975338484612388565b6006546001600160a01b031633146117185760405162461bcd60e51b8152600401610b1b90613cd0565b6009546040516370a0823160e01b81523060048201526000916001600160a01b0316906370a0823190602401602060405180830381865afa158015611761573d6000803e3d6000fd5b505050506040513d601f19601f820116820180604052508101906117859190613db8565b905061178f6129a2565b6009546040516370a0823160e01b81523060048201526000916001600160a01b0316906370a0823190602401602060405180830381865afa1580156117d8573d6000803e3d6000fd5b505050506040513d601f19601f820116820180604052508101906117fc9190613db8565b9050836118098284612350565b10156118935760405162461bcd60e51b815260206004820152604d60248201527f5661726961626c655265776172647353747261746567793a3a456d657267656e60448201527f6379207769746864726177206d696e696d756d2072657475726e20616d6f756e60648201526c1d081b9bdd081c995858da1959609a1b608482015260a401610b1b565b7fc7606d21ac05cd309191543e409f0845c016120563783d70e4f41419dc0ef2346118bc610fbd565b6002546040805192835260208301919091520160405180910390a1600e5460ff1615156001036118f0576118f06000610d7e565b50505050565b6119003382612658565b50565b60008061190e611948565b9050600c5481106119405761193a61271061193460105484612a8390919063ffffffff16565b90612a8f565b91505090565b600091505090565b600080611953612a9b565b6040516370a0823160e01b815230600482015290915060009073b31f66aa3c1e785363f0875a1b74e27b85fd66c7906370a0823190602401602060405180830381865afa1580156119a8573d6000803e3d6000fd5b505050506040513d601f19601f820116820180604052508101906119cc9190613db8565b90506119d8814761200a565b5060005b82518110156110345760008382815181106119f9576119f9613d46565b602002602001015160000151905073b31f66aa3c1e785363f0875a1b74e27b85fd66c76001600160a01b0316816001600160a01b031603611a6b57611a64848381518110611a4957611a49613d46565b6020026020010151602001518461200a90919063ffffffff16565b9250611b9c565b6040516370a0823160e01b81523060048201526000906001600160a01b038316906370a0823190602401602060405180830381865afa158015611ab2573d6000803e3d6000fd5b505050506040513d601f19601f82011682018060405250810190611ad69190613db8565b90506000611b0a868581518110611aef57611aef613d46565b6020026020010151602001518361200a90919063ffffffff16565b9050600060126000888781518110611b2457611b24613d46565b602090810291909101810151516001600160a01b03908116835290820192909252604001600020541690508115801590611b6657506001600160a01b03811615155b15611b9857611b95611b8e838673b31f66aa3c1e785363f0875a1b74e27b85fd66c785612cc0565b879061200a565b95505b5050505b5080611ba781613d89565b9150506119dc565b6006546001600160a01b03163314611bd95760405162461bcd60e51b8152600401610b1b90613cd0565b8015611be457600080fd5b600f5460408051918252602082018390527f3cc372f330f95ac9540626dc8a25f5bf21ba607215a5d58304cb804d446f104a910160405180910390a1600f55565b42841015611c675760405162461bcd60e51b815260206004820152600f60248201526e1c195c9b5a5d0e8e995e1c1a5c9959608a1b6044820152606401610b1b565b6001600160a01b038716600090815260056020526040812080547f6e71edae12b1b97f4d1f60370fef10105fa2faae0126114a169c64845d6126c9918a918a918a919086611cb483613d89565b909155506040805160208101969096526001600160a01b0394851690860152929091166060840152608083015260a082015260c0810186905260e001604051602081830303815290604052805190602001209050611d158882868686612d7e565b611d2088888861222b565b5050505050505050565b6000611d40611d37610fbd565b60025490612a83565b600003611d4b575090565b6109b4611d56610fbd565b600254611934908590612a83565b6006546001600160a01b03163314611d8e5760405162461bcd60e51b8152600401610b1b90613cd0565b600d5460408051918252602082018390527fa5dae50539d56dfe1fb5273d883b0c39bc76750a25d036fc5fbd09ad8fd5f57f910160405180910390a1600d55565b60138181548110611ddf57600080fd5b6000918252602090912001546001600160a01b0316905081565b6000611e06611d37610fbd565b600003611e1557506000919050565b6109b4600254611934611e26610fbd565b8590612a83565b60007f8b73c3c69bb8fe3d512ecc4cf759cc79239f7b179b0ffacaa9a75d522b39400f60001b6000604051611e629190613dd1565b6040519081900390207fc89efdaa54c0f20c7adf612882df0950f5a951637e0307cdcb4c672f298b8bc646604080516020810195909552840192909252606083015260808201523060a082015260c00160405160208183030381529060405280519060200120905090565b6006546001600160a01b03163314611ef75760405162461bcd60e51b8152600401610b1b90613cd0565b6001600160a01b038116611f5c5760405162461bcd60e51b815260206004820152602660248201527f4f776e61626c653a206e6577206f776e657220697320746865207a65726f206160448201526564647265737360d01b6064820152608401610b1b565b6006546040516001600160a01b038084169216907f8be0079c531659141344cd1fd0a4f28419497f9722a3daafe3b4186f6b6457e090600090a3600680546001600160a01b0319166001600160a01b0392909216919091179055565b323314611ffe5760405162461bcd60e51b815260206004820152601460248201527359616b53747261746567793a3a6f6e6c79454f4160601b6044820152606401610b1b565b6120086000612eaa565b565b6000610a978284613e6c565b6000836001600160a01b0316630dfe16816040518163ffffffff1660e01b8152600401602060405180830381865afa158015612056573d6000803e3d6000fd5b505050506040513d601f19601f8201168201806040525081019061207a9190613e84565b6001600160a01b0316836001600160a01b0316148061210b5750836001600160a01b031663d21220a76040518163ffffffff1660e01b8152600401602060405180830381865afa1580156120d2573d6000803e3d6000fd5b505050506040513d601f19601f820116820180604052508101906120f69190613e84565b6001600160a01b0316836001600160a01b0316145b80156122055750836001600160a01b0316630dfe16816040518163ffffffff1660e01b8152600401602060405180830381865afa158015612150573d6000803e3d6000fd5b505050506040513d601f19601f820116820180604052508101906121749190613e84565b6001600160a01b0316826001600160a01b031614806122055750836001600160a01b031663d21220a76040518163ffffffff1660e01b8152600401602060405180830381865afa1580156121cc573d6000803e3d6000fd5b505050506040513d601f19601f820116820180604052508101906121f09190613e84565b6001600160a01b0316826001600160a01b0316145b80156122235750816001600160a01b0316836001600160a01b031614155b949350505050565b6001600160a01b0383166122815760405162461bcd60e51b815260206004820152601c60248201527f5f617070726f76653a3a6f776e6572207a65726f2061646472657373000000006044820152606401610b1b565b6001600160a01b0382166122d75760405162461bcd60e51b815260206004820152601e60248201527f5f617070726f76653a3a7370656e646572207a65726f206164647265737300006044820152606401610b1b565b6001600160a01b0383811660008181526003602090815260408083209487168084529482529182902085905590518481527f8c5be1e5ebec7d5bd14f71427d1e84f3dd0314c0f7b2291e5b200ac8c7c3b92591015b60405180910390a3505050565b600080805b9050610a976127106119348584612a83565b6000610a978284613d72565b600081848411156123805760405162461bcd60e51b8152600401610b1b9190613a49565b505050900390565b6001600160a01b0382166123fb5760405162461bcd60e51b815260206004820152603460248201527f5f7472616e73666572546f6b656e733a2063616e6e6f74207472616e7366657260448201527320746f20746865207a65726f206164647265737360601b6064820152608401610b1b565b612438816040518060600160405280602e8152602001614030602e91396001600160a01b038616600090815260046020526040902054919061235c565b6001600160a01b038085166000908152600460205260408082209390935590841681522054612467908261200a565b6001600160a01b0380841660008181526004602052604090819020939093559151908516907fddf252ad1be2c89b69c2b068fc378daa952ba7f163c4a11628f55a4df523b3ef9061232c9085815260200190565b60008061233e613020565b601554604051632e1a7d4d60e01b8152600481018390526000916001600160a01b031690632e1a7d4d90602401600060405180830381600087803b15801561250d57600080fd5b505af1158015612521573d6000803e3d6000fd5b5093949350505050565b604080516001600160a01b038416602482015260448082018490528251808303909101815260649091019091526020810180516001600160e01b031663a9059cbb60e01b17905261257d908490613093565b505050565b6125bf81604051806060016040528060278152602001614009602791396001600160a01b038516600090815260046020526040902054919061235c565b60046000846001600160a01b03166001600160a01b031681526020019081526020016000208190555061260f81604051806060016040528060278152602001613fb360279139600254919061235c565b6002556040518181526000906001600160a01b038416907fddf252ad1be2c89b69c2b068fc378daa952ba7f163c4a11628f55a4df523b3ef906020015b60405180910390a35050565b600e5460ff1615156001146126c25760405162461bcd60e51b815260206004820152602a60248201527f5661726961626c655265776172647353747261746567793a3a4465706f7369746044820152691cc8191a5cd8589b195960b21b6064820152608401610b1b565b600d54156126ec5760006126d4611948565b9050600d548111156126ea576126ea6001612eaa565b505b6009546040516323b872dd60e01b8152336004820152306024820152604481018390526001600160a01b03909116906323b872dd906064016020604051808303816000875af1158015612743573d6000803e3d6000fd5b505050506040513d601f19601f820116820180604052508101906127679190613d05565b6127d25760405162461bcd60e51b815260206004820152603660248201527f5661726961626c655265776172647353747261746567793a3a4465706f736974604482015275081d1bdad95b881d1c985b9cd9995c8819985a5b195960521b6064820152608401610b1b565b60006127dd826124bb565b90506127f5836127f06108538585612350565b613165565b6127fe826131e9565b826001600160a01b03167fe1fffcc4923d04b559f4d29a8bfc6cda04eb5b0d3c460751c2402c5c5cc9109c8360405161283991815260200190565b60405180910390a2505050565b600a546001600160a01b038381169116146128e857600a5461287490829084906001600160a01b0316612016565b6128e8576040805162461bcd60e51b81526020600482015260248101919091527f5661726961626c655265776172647353747261746567793a3a5377617020706160448201527f697220646f6573206e6f7420636f6e7461696e2072657761726420746f6b656e6064820152608401610b1b565b6001600160a01b03808316600081815260126020526040812080549385166001600160a01b03199485161790556013805460018181018355919092527f66de8ffda797e3de9c05e8fc57b3bf0ec28a930d40b0d285d93c06501cf6a090909101805490931690911790915560145461295f9161200a565b601455604080516001600160a01b038085168252831660208201527f916e172c080569186aa7ea048268267257cf7cc49505908863f747bca8620f809101611192565b601560009054906101000a90046001600160a01b03166001600160a01b031663db2e21bc6040518163ffffffff1660e01b8152600401600060405180830381600087803b1580156129f257600080fd5b505af1158015612a06573d6000803e3d6000fd5b505060095460155460405163095ea7b360e01b81526001600160a01b039182166004820152600060248201529116925063095ea7b391506044016020604051808303816000875af1158015612a5f573d6000803e3d6000fd5b505050506040513d601f19601f820116820180604052508101906119009190613d05565b6000610a978284613ea1565b6000610a978284613ec0565b60606000601560009054906101000a90046001600160a01b03166001600160a01b031663bf199e626040518163ffffffff1660e01b8152600401602060405180830381865afa158015612af2573d6000803e3d6000fd5b505050506040513d601f19601f82011682018060405250810190612b169190613db8565b905060008167ffffffffffffffff811115612b3357612b33613ee2565b604051908082528060200260200182016040528015612b7857816020015b6040805180820190915260008082526020820152815260200190600190039081612b515790505b50905060005b8281101561103457601554604051637bb7bed160e01b8152600481018390526000916001600160a01b031690637bb7bed190602401602060405180830381865afa158015612bd0573d6000803e3d6000fd5b505050506040513d601f19601f82011682018060405250810190612bf49190613e84565b601554604051634e76bf3b60e11b81523060048201526001600160a01b03808416602483015292935060009290911690639ced7e7690604401602060405180830381865afa158015612c4a573d6000803e3d6000fd5b505050506040513d601f19601f82011682018060405250810190612c6e9190613db8565b90506040518060400160405280836001600160a01b0316815260200182815250848481518110612ca057612ca0613d46565b602002602001018190525050508080612cb890613d89565b915050612b7e565b600080612ccd8585613258565b509050600080846001600160a01b0316630902f1ac6040518163ffffffff1660e01b8152600401606060405180830381865afa158015612d11573d6000803e3d6000fd5b505050506040513d601f19601f82011682018060405250810190612d359190613f0f565b5091509150866001600160a01b0316836001600160a01b031614612d5557905b612d7288836001600160701b0316836001600160701b0316613289565b98975050505050505050565b6000612d88611e2d565b60405161190160f01b602082015260228101919091526042810186905260620160408051601f198184030181528282528051602091820120600080855291840180845281905260ff88169284019290925260608301869052608083018590529092509060019060a0016020604051602081039080840390855afa158015612e13573d6000803e3d6000fd5b5050604051601f1901519150506001600160a01b03811615801590612e495750866001600160a01b0316816001600160a01b0316145b612ea15760405162461bcd60e51b8152602060048201526024808201527f417263683a3a76616c69646174655369673a20696e76616c6964207369676e616044820152637475726560e01b6064820152608401610b1b565b50505050505050565b612eb26132d7565b6000612ebc613331565b905081612f2e57600c54811015612f2e5760405162461bcd60e51b815260206004820152603060248201527f5661726961626c655265776172647353747261746567793a3a5265696e76657360448201526f7420616d6f756e7420746f6f206c6f7760801b6064820152608401610b1b565b6000612f4b61271061193460115485612a8390919063ffffffff16565b90508015612f7057600b54600a54612f70916001600160a01b0391821691168361252b565b6000612f8d61271061193460105486612a8390919063ffffffff16565b90508015612fac57600a54612fac906001600160a01b0316338361252b565b6000612fca612fc583612fbf8787612350565b90612350565b613562565b9050612fd5816131e9565b7fc7606d21ac05cd309191543e409f0845c016120563783d70e4f41419dc0ef234612ffe610fbd565b6002546040805192835260208301919091520160405180910390a15050505050565b60155460408051636609295760e11b815290516000926001600160a01b03169163cc1252ae9160048083019260209291908290030181865afa15801561306a573d6000803e3d6000fd5b505050506040513d601f19601f8201168201806040525081019061308e9190613db8565b905090565b60006130e8826040518060400160405280602081526020017f5361666545524332303a206c6f772d6c6576656c2063616c6c206661696c6564815250856001600160a01b03166135c39092919063ffffffff16565b80519091501561257d57808060200190518101906131069190613d05565b61257d5760405162461bcd60e51b815260206004820152602a60248201527f5361666545524332303a204552433230206f7065726174696f6e20646964206e6044820152691bdd081cdd58d8d9595960b21b6064820152608401610b1b565b600254613172908261200a565b6002556001600160a01b038216600090815260046020526040902054613198908261200a565b6001600160a01b0383166000818152600460205260408082209390935591519091907fddf252ad1be2c89b69c2b068fc378daa952ba7f163c4a11628f55a4df523b3ef9061264c9085815260200190565b6000811161324f5760405162461bcd60e51b815260206004820152602d60248201527f5661726961626c655265776172647353747261746567793a3a5374616b65206160448201526c6d6f756e7420746f6f206c6f7760981b6064820152608401610b1b565b611900816135d2565b600080826001600160a01b0316846001600160a01b03161061327b57828461327e565b83835b915091509250929050565b600080613298856103e5612a83565b905060006132a68285612a83565b905060006132c0836132ba886103e8612a83565b9061200a565b90506132cc8282612a8f565b979650505050505050565b60155460405163b6b55f2560e01b8152600060048201526001600160a01b039091169063b6b55f2590602401600060405180830381600087803b15801561331d57600080fd5b505af11580156118f0573d6000803e3d6000fd5b6040516370a0823160e01b8152306004820152600090819073b31f66aa3c1e785363f0875a1b74e27b85fd66c7906370a0823190602401602060405180830381865afa158015613385573d6000803e3d6000fd5b505050506040513d601f19601f820116820180604052508101906133a99190613db8565b60135490915060005b8181101561355a576000601382815481106133cf576133cf613d46565b6000918252602090912001546001600160a01b0316905073b31f66aa3c1e785363f0875a1b74e27b85fd66c619810161348e574780156134875773b31f66aa3c1e785363f0875a1b74e27b85fd66c76001600160a01b031663d0e30db0826040518263ffffffff1660e01b81526004016000604051808303818588803b15801561345857600080fd5b505af115801561346c573d6000803e3d6000fd5b5050505050613484818661200a90919063ffffffff16565b94505b5050613548565b6040516370a0823160e01b81523060048201526000906001600160a01b038316906370a0823190602401602060405180830381865afa1580156134d5573d6000803e3d6000fd5b505050506040513d601f19601f820116820180604052508101906134f99190613db8565b90508015613545576001600160a01b0380831660009081526012602052604090205416801561354357600a5461354090611b8e90849086906001600160a01b031685613723565b95505b505b50505b8061355281613d89565b9150506133b2565b509092915050565b6017546000906001600160a01b03161561359e57600a5460185460175461359b9285926001600160a01b03918216929082169116613723565b91505b6018546009546016546109b49285926001600160a01b03918216929082169116613723565b60606122238484600085613897565b60095460155460405163095ea7b360e01b81526001600160a01b0391821660048201526024810184905291169063095ea7b3906044016020604051808303816000875af1158015613627573d6000803e3d6000fd5b505050506040513d601f19601f8201168201806040525081019061364b9190613d05565b5060155460405163b6b55f2560e01b8152600481018390526001600160a01b039091169063b6b55f2590602401600060405180830381600087803b15801561369257600080fd5b505af11580156136a6573d6000803e3d6000fd5b505060095460155460405163095ea7b360e01b81526001600160a01b039182166004820152600060248201529116925063095ea7b391506044016020604051808303816000875af11580156136ff573d6000803e3d6000fd5b505050506040513d601f19601f82011682018060405250810190610bae9190613d05565b6000806137308585613258565b509050600080846001600160a01b0316630902f1ac6040518163ffffffff1660e01b8152600401606060405180830381865afa158015613774573d6000803e3d6000fd5b505050506040513d601f19601f820116820180604052508101906137989190613f0f565b5091509150866001600160a01b0316836001600160a01b0316146137b857905b6000806137d88a856001600160701b0316856001600160701b0316613289565b9050886001600160a01b0316856001600160a01b0316146137f557905b6138096001600160a01b038a16888c61252b565b6040805160008152602081019182905263022c0d9f60e01b9091526001600160a01b0388169063022c0d9f906138489085908590309060248101613f5f565b600060405180830381600087803b15801561386257600080fd5b505af1158015613876573d6000803e3d6000fd5b505050508181116138875781613889565b805b9a9950505050505050505050565b6060824710156138f85760405162461bcd60e51b815260206004820152602660248201527f416464726573733a20696e73756666696369656e742062616c616e636520666f6044820152651c8818d85b1b60d21b6064820152608401610b1b565b6001600160a01b0385163b61394f5760405162461bcd60e51b815260206004820152601d60248201527f416464726573733a2063616c6c20746f206e6f6e2d636f6e74726163740000006044820152606401610b1b565b600080866001600160a01b0316858760405161396b9190613f96565b60006040518083038185875af1925050503d80600081146139a8576040519150601f19603f3d011682016040523d82523d6000602084013e6139ad565b606091505b50915091506132cc828286606083156139c7575081610a97565b8251156139d75782518084602001fd5b8160405162461bcd60e51b8152600401610b1b9190613a49565b60005b83811015613a0c5781810151838201526020016139f4565b838111156118f05750506000910152565b60008151808452613a358160208601602086016139f1565b601f01601f19169290920160200192915050565b602081526000610a976020830184613a1d565b6001600160a01b038116811461190057600080fd5b60008060408385031215613a8457600080fd5b8235613a8f81613a5c565b946020939093013593505050565b600060208284031215613aaf57600080fd5b5035919050565b600080600060608486031215613acb57600080fd5b8335613ad681613a5c565b92506020840135613ae681613a5c565b929592945050506040919091013590565b60008060408385031215613b0a57600080fd5b8235613b1581613a5c565b91506020830135613b2581613a5c565b809150509250929050565b600060208284031215613b4257600080fd5b8135610a9781613a5c565b803560ff81168114613b5e57600080fd5b919050565b600080600080600060a08688031215613b7b57600080fd5b8535945060208601359350613b9260408701613b4d565b94979396509394606081013594506080013592915050565b801515811461190057600080fd5b600060208284031215613bca57600080fd5b8135610a9781613baa565b60008060408385031215613be857600080fd5b823591506020830135613b2581613baa565b600080600080600080600060e0888a031215613c1557600080fd5b8735613c2081613a5c565b96506020880135613c3081613a5c565b95506040880135945060608801359350613c4c60808901613b4d565b925060a0880135915060c0880135905092959891949750929550565b600181811c90821680613c7c57607f821691505b602082108103613c9c57634e487b7160e01b600052602260045260246000fd5b50919050565b6020808252601490820152732cb0b5a9ba3930ba32b3bc9d1d37b7363ca232bb60611b604082015260600190565b6020808252818101527f4f776e61626c653a2063616c6c6572206973206e6f7420746865206f776e6572604082015260600190565b600060208284031215613d1757600080fd5b8151610a9781613baa565b60008060408385031215613d3557600080fd5b505080516020909101519092909150565b634e487b7160e01b600052603260045260246000fd5b634e487b7160e01b600052601160045260246000fd5b600082821015613d8457613d84613d5c565b500390565b600060018201613d9b57613d9b613d5c565b5060010190565b634e487b7160e01b600052603160045260246000fd5b600060208284031215613dca57600080fd5b5051919050565b600080835481600182811c915080831680613ded57607f831692505b60208084108203613e0c57634e487b7160e01b86526022600452602486fd5b818015613e205760018114613e3157613e5e565b60ff19861689528489019650613e5e565b60008a81526020902060005b86811015613e565781548b820152908501908301613e3d565b505084890196505b509498975050505050505050565b60008219821115613e7f57613e7f613d5c565b500190565b600060208284031215613e9657600080fd5b8151610a9781613a5c565b6000816000190483118215151615613ebb57613ebb613d5c565b500290565b600082613edd57634e487b7160e01b600052601260045260246000fd5b500490565b634e487b7160e01b600052604160045260246000fd5b80516001600160701b0381168114613b5e57600080fd5b600080600060608486031215613f2457600080fd5b613f2d84613ef8565b9250613f3b60208501613ef8565b9150604084015163ffffffff81168114613f5457600080fd5b809150509250925092565b84815283602082015260018060a01b0383166040820152608060608201526000613f8c6080830184613a1d565b9695505050505050565b60008251613fa88184602087016139f1565b919091019291505056fe5f6275726e3a206275726e20616d6f756e74206578636565647320746f74616c20737570706c797472616e7366657246726f6d3a207472616e7366657220616d6f756e74206578636565647320616c6c6f77616e63655f6275726e3a206275726e20616d6f756e7420657863656564732066726f6d2062616c616e63655f7472616e73666572546f6b656e733a207472616e7366657220657863656564732066726f6d2062616c616e6365a26469706673582212204101da5ce100668c4cd74ba76dd74df945c65d9ac6d27923cf1e452ff3c1dd9d64736f6c634300080d00334f776e61626c653a2063616c6c6572206973206e6f7420746865206f776e65728be0079c531659141344cd1fd0a4f28419497f9722a3daafe3b4186f6b6457e0",
    "linkReferences": {}
  },
  "methodIdentifiers": {
    "ADMIN_FEE_BIPS()": "07677111",
    "DEPOSITS_ENABLED()": "b52a321f",
    "DEV_FEE_BIPS()": "5ea682ea",
    "DOMAIN_TYPEHASH()": "20606b70",
    "MAX_TOKENS_TO_DEPOSIT_WITHOUT_REINVEST()": "789139bc",
    "MIN_TOKENS_TO_REINVEST()": "bd079f55",
    "PERMIT_TYPEHASH()": "30adf81f",
    "REINVEST_REWARD_BIPS()": "8aff733d",
    "VERSION_HASH()": "9e4e7318",
    "addReward(address,address)": "40b47e1a",
    "allowDepositor(address)": "4bebd1e7",
    "allowance(address,address)": "dd62ed3e",
    "allowedDepositors(address)": "483c2ef0",
    "approve(address,uint256)": "095ea7b3",
    "balanceOf(address)": "70a08231",
    "calculateDepositFee(uint256)": "247d284b",
    "calculateWithdrawFee(uint256)": "11056035",
    "checkReward()": "c4b24a46",
    "decimals()": "313ce567",
    "deposit(uint256)": "b6b55f25",
    "depositFor(address,uint256)": "2f4f21e2",
    "depositToken()": "c89039c5",
    "depositWithPermit(uint256,uint256,uint8,bytes32,bytes32)": "4a970be7",
    "devAddr()": "da09c72c",
    "estimateDeployedBalance()": "0f23475d",
    "estimateReinvestReward()": "b9e57b80",
    "getDepositTokensForShares(uint256)": "eab89a5a",
    "getDomainSeparator()": "ed24911d",
    "getSharesForDepositTokens(uint256)": "dd8ce4d6",
    "name()": "06fdde03",
    "nonces(address)": "7ecebe00",
    "numberOfAllowedDepositors()": "3bdc6e72",
    "owner()": "8da5cb5b",
    "permit(address,address,uint256,uint256,uint8,bytes32,bytes32)": "d505accf",
    "preSwapToken()": "318caf2b",
    "recoverAVAX(uint256)": "4ebb7916",
    "recoverERC20(address,uint256)": "8980f11f",
    "reinvest()": "fdb5a03e",
    "removeDepositor(address)": "8b73e606",
    "removeReward(address)": "a4d5e67c",
    "renounceOwnership()": "715018a6",
    "rescueDeployedFunds(uint256,bool)": "ac0d31ff",
    "revokeAllowance(address,address)": "7ae26773",
    "rewardCount()": "79085425",
    "rewardSwapPairs(address)": "a5534e71",
    "rewardToken()": "f7c618c1",
    "stakingContract()": "ee99205c",
    "supportedRewards(uint256)": "e75ab045",
    "swapPairPreSwap()": "4c30e127",
    "swapPairToken()": "633afd28",
    "symbol()": "95d89b41",
    "totalDeposits()": "7d882097",
    "totalSupply()": "18160ddd",
    "transfer(address,uint256)": "a9059cbb",
    "transferFrom(address,address,uint256)": "23b872dd",
    "transferOwnership(address)": "f2fde38b",
    "updateAdminFee(uint256)": "cff1b6ef",
    "updateDepositsEnabled(bool)": "4e77ace5",
    "updateDevAddr(address)": "9291d563",
    "updateDevFee(uint256)": "99729ec1",
    "updateMaxTokensToDepositWithoutReinvest(uint256)": "e21ac825",
    "updateMinTokensToReinvest(uint256)": "81837230",
    "updateReinvestReward(uint256)": "a8ae2b7c",
    "withdraw(uint256)": "2e1a7d4d"
  },
  "id": 158
}