{
  "abi": [
    {
      "inputs": [
        {
          "internalType": "address",
          "name": "_manager",
          "type": "address"
        },
        {
          "internalType": "address",
          "name": "_tokenSweeper",
          "type": "address"
        },
        {
          "internalType": "address",
          "name": "_upgrader",
          "type": "address"
        },
        {
          "internalType": "address",
          "name": "_dev",
          "type": "address"
        }
      ],
      "stateMutability": "nonpayable",
      "type": "constructor"
    },
    {
      "anonymous": false,
      "inputs": [
        {
          "indexed": true,
          "internalType": "bytes32",
          "name": "role",
          "type": "bytes32"
        },
        {
          "indexed": true,
          "internalType": "bytes32",
          "name": "previousAdminRole",
          "type": "bytes32"
        },
        {
          "indexed": true,
          "internalType": "bytes32",
          "name": "newAdminRole",
          "type": "bytes32"
        }
      ],
      "name": "RoleAdminChanged",
      "type": "event"
    },
    {
      "anonymous": false,
      "inputs": [
        {
          "indexed": true,
          "internalType": "bytes32",
          "name": "role",
          "type": "bytes32"
        },
        {
          "indexed": true,
          "internalType": "address",
          "name": "account",
          "type": "address"
        },
        {
          "indexed": true,
          "internalType": "address",
          "name": "sender",
          "type": "address"
        }
      ],
      "name": "RoleGranted",
      "type": "event"
    },
    {
      "anonymous": false,
      "inputs": [
        {
          "indexed": true,
          "internalType": "bytes32",
          "name": "role",
          "type": "bytes32"
        },
        {
          "indexed": true,
          "internalType": "address",
          "name": "account",
          "type": "address"
        },
        {
          "indexed": true,
          "internalType": "address",
          "name": "sender",
          "type": "address"
        }
      ],
      "name": "RoleRevoked",
      "type": "event"
    },
    {
      "anonymous": false,
      "inputs": [
        {
          "indexed": true,
          "internalType": "address",
          "name": "upgrader",
          "type": "address"
        },
        {
          "indexed": true,
          "internalType": "address",
          "name": "strategy",
          "type": "address"
        },
        {
          "indexed": false,
          "internalType": "address",
          "name": "newValue",
          "type": "address"
        }
      ],
      "name": "SetDev",
      "type": "event"
    },
    {
      "anonymous": false,
      "inputs": [
        {
          "indexed": true,
          "internalType": "address",
          "name": "sweeper",
          "type": "address"
        },
        {
          "indexed": true,
          "internalType": "address",
          "name": "token",
          "type": "address"
        },
        {
          "indexed": false,
          "internalType": "uint256",
          "name": "amount",
          "type": "uint256"
        }
      ],
      "name": "Sweep",
      "type": "event"
    },
    {
      "inputs": [],
      "name": "DEFAULT_ADMIN_ROLE",
      "outputs": [
        {
          "internalType": "bytes32",
          "name": "",
          "type": "bytes32"
        }
      ],
      "stateMutability": "view",
      "type": "function"
    },
    {
      "inputs": [],
      "name": "DEV_ROLE",
      "outputs": [
        {
          "internalType": "bytes32",
          "name": "",
          "type": "bytes32"
        }
      ],
      "stateMutability": "view",
      "type": "function"
    },
    {
      "inputs": [],
      "name": "TOKEN_SWEEPER_ROLE",
      "outputs": [
        {
          "internalType": "bytes32",
          "name": "",
          "type": "bytes32"
        }
      ],
      "stateMutability": "view",
      "type": "function"
    },
    {
      "inputs": [],
      "name": "UPGRADER_ROLE",
      "outputs": [
        {
          "internalType": "bytes32",
          "name": "",
          "type": "bytes32"
        }
      ],
      "stateMutability": "view",
      "type": "function"
    },
    {
      "inputs": [
        {
          "internalType": "address",
          "name": "strategy",
          "type": "address"
        },
        {
          "internalType": "address",
          "name": "rewardToken",
          "type": "address"
        },
        {
          "internalType": "address",
          "name": "swapPair",
          "type": "address"
        }
      ],
      "name": "addReward",
      "outputs": [],
      "stateMutability": "nonpayable",
      "type": "function"
    },
    {
      "inputs": [
        {
          "internalType": "bytes32",
          "name": "role",
          "type": "bytes32"
        }
      ],
      "name": "getRoleAdmin",
      "outputs": [
        {
          "internalType": "bytes32",
          "name": "",
          "type": "bytes32"
        }
      ],
      "stateMutability": "view",
      "type": "function"
    },
    {
      "inputs": [
        {
          "internalType": "bytes32",
          "name": "role",
          "type": "bytes32"
        },
        {
          "internalType": "uint256",
          "name": "index",
          "type": "uint256"
        }
      ],
      "name": "getRoleMember",
      "outputs": [
        {
          "internalType": "address",
          "name": "",
          "type": "address"
        }
      ],
      "stateMutability": "view",
      "type": "function"
    },
    {
      "inputs": [
        {
          "internalType": "bytes32",
          "name": "role",
          "type": "bytes32"
        }
      ],
      "name": "getRoleMemberCount",
      "outputs": [
        {
          "internalType": "uint256",
          "name": "",
          "type": "uint256"
        }
      ],
      "stateMutability": "view",
      "type": "function"
    },
    {
      "inputs": [
        {
          "internalType": "bytes32",
          "name": "role",
          "type": "bytes32"
        },
        {
          "internalType": "address",
          "name": "account",
          "type": "address"
        }
      ],
      "name": "grantRole",
      "outputs": [],
      "stateMutability": "nonpayable",
      "type": "function"
    },
    {
      "inputs": [
        {
          "internalType": "bytes32",
          "name": "role",
          "type": "bytes32"
        },
        {
          "internalType": "address",
          "name": "account",
          "type": "address"
        }
      ],
      "name": "hasRole",
      "outputs": [
        {
          "internalType": "bool",
          "name": "",
          "type": "bool"
        }
      ],
      "stateMutability": "view",
      "type": "function"
    },
    {
      "inputs": [
        {
          "internalType": "address",
          "name": "strategy",
          "type": "address"
        },
        {
          "internalType": "address",
          "name": "rewardToken",
          "type": "address"
        }
      ],
      "name": "removeReward",
      "outputs": [],
      "stateMutability": "nonpayable",
      "type": "function"
    },
    {
      "inputs": [
        {
          "internalType": "bytes32",
          "name": "role",
          "type": "bytes32"
        },
        {
          "internalType": "address",
          "name": "account",
          "type": "address"
        }
      ],
      "name": "renounceRole",
      "outputs": [],
      "stateMutability": "nonpayable",
      "type": "function"
    },
    {
      "inputs": [
        {
          "internalType": "bytes32",
          "name": "role",
          "type": "bytes32"
        },
        {
          "internalType": "address",
          "name": "account",
          "type": "address"
        }
      ],
      "name": "revokeRole",
      "outputs": [],
      "stateMutability": "nonpayable",
      "type": "function"
    },
    {
      "inputs": [
        {
          "internalType": "address",
          "name": "strategy",
          "type": "address"
        },
        {
          "internalType": "address",
          "name": "newDevAddr",
          "type": "address"
        }
      ],
      "name": "setDev",
      "outputs": [],
      "stateMutability": "nonpayable",
      "type": "function"
    },
    {
      "inputs": [
        {
          "internalType": "address",
          "name": "strategy",
          "type": "address"
        },
        {
          "internalType": "address",
          "name": "swapPair",
          "type": "address"
        }
      ],
      "name": "setExtraRewardSwapPair",
      "outputs": [],
      "stateMutability": "nonpayable",
      "type": "function"
    },
    {
      "inputs": [
        {
          "internalType": "uint256",
          "name": "amount",
          "type": "uint256"
        }
      ],
      "name": "sweepAVAX",
      "outputs": [],
      "stateMutability": "nonpayable",
      "type": "function"
    },
    {
      "inputs": [
        {
          "internalType": "address",
          "name": "tokenAddress",
          "type": "address"
        },
        {
          "internalType": "uint256",
          "name": "tokenAmount",
          "type": "uint256"
        }
      ],
      "name": "sweepTokens",
      "outputs": [],
      "stateMutability": "nonpayable",
      "type": "function"
    },
    {
      "inputs": [
        {
          "internalType": "address",
          "name": "strategy",
          "type": "address"
        },
        {
          "internalType": "address",
          "name": "swapPair",
          "type": "address"
        }
      ],
      "name": "updateCrvAvaxSwapPair",
      "outputs": [],
      "stateMutability": "nonpayable",
      "type": "function"
    },
    {
      "inputs": [
        {
          "internalType": "address",
          "name": "strategy",
          "type": "address"
        },
        {
          "internalType": "uint256",
          "name": "leverageLevel",
          "type": "uint256"
        },
        {
          "internalType": "uint256",
          "name": "leverageBips",
          "type": "uint256"
        },
        {
          "internalType": "uint256",
          "name": "redeemLimitSafetyMargin",
          "type": "uint256"
        }
      ],
      "name": "updateLeverage",
      "outputs": [],
      "stateMutability": "nonpayable",
      "type": "function"
    },
    {
      "inputs": [
        {
          "internalType": "address",
          "name": "strategy",
          "type": "address"
        },
        {
          "internalType": "uint256",
          "name": "leverageLevel",
          "type": "uint256"
        },
        {
          "internalType": "uint256",
          "name": "safetyFactor",
          "type": "uint256"
        },
        {
          "internalType": "uint256",
          "name": "minMinting",
          "type": "uint256"
        },
        {
          "internalType": "uint256",
          "name": "leverageBips",
          "type": "uint256"
        }
      ],
      "name": "updateLeverage",
      "outputs": [],
      "stateMutability": "nonpayable",
      "type": "function"
    },
    {
      "inputs": [
        {
          "internalType": "address",
          "name": "strategy",
          "type": "address"
        },
        {
          "internalType": "uint256",
          "name": "leverageLevel",
          "type": "uint256"
        },
        {
          "internalType": "uint256",
          "name": "leverageBips",
          "type": "uint256"
        }
      ],
      "name": "updateLeverage",
      "outputs": [],
      "stateMutability": "nonpayable",
      "type": "function"
    },
    {
      "inputs": [
        {
          "internalType": "address",
          "name": "strategy",
          "type": "address"
        },
        {
          "internalType": "uint256",
          "name": "slippageBips",
          "type": "uint256"
        }
      ],
      "name": "updateMaxSwapSlippage",
      "outputs": [],
      "stateMutability": "nonpayable",
      "type": "function"
    },
    {
      "stateMutability": "payable",
      "type": "receive"
    }
  ],
  "bytecode": {
    "object": "0x60806040523480156200001157600080fd5b50604051620016b7380380620016b78339810160408190526200003491620001d5565b62000041600085620000cf565b6200006d7faaeb0e7b67698f8ec0689e359bbe895bc1bc081c58211f57940cf243fc05a21884620000cf565b620000997f189ab7a9244df0848122154315af71fe140f3db0fe014031783b0946b8c9d2e383620000cf565b620000c57f51b355059847d158e68950419dbcd54fad00bdfd0634c2515a5c533288c7f0a282620000cf565b5050505062000232565b620000db8282620000df565b5050565b6000828152602081815260409091206200010491839062000f1d62000146821b17901c565b15620000db5760405133906001600160a01b0383169084907f2f8788117e7eff1d82e926ec794901d17c78024a50270940304540a733656f0d90600090a45050565b60006200015d836001600160a01b03841662000166565b90505b92915050565b6000818152600183016020526040812054620001af5750815460018181018455600084815260208082209093018490558454848252828601909352604090209190915562000160565b50600062000160565b80516001600160a01b0381168114620001d057600080fd5b919050565b60008060008060808587031215620001ec57600080fd5b620001f785620001b8565b93506200020760208601620001b8565b92506200021760408601620001b8565b91506200022760608601620001b8565b905092959194509250565b61147580620002426000396000f3fe6080604052600436106101395760003560e01c806391d14854116100ab578063d547741f1161006f578063d547741f1461039b578063dec66036146103bb578063e327670f146103db578063e9129948146103fb578063f72c0d8b1461041b578063fcf0f0d31461044f57600080fd5b806391d14854146102f6578063a217fddf14610326578063afb50e8f1461033b578063ca15c8731461035b578063cc68d1ad1461037b57600080fd5b806336568abe116100fd57806336568abe1461021e578063588ad62c1461023e57806375b7a7f01461025e5780637f48b9471461027e5780638c9f5f051461029e5780639010d07c146102be57600080fd5b806310050f471461014557806312980afe14610167578063165d21c9146101ae578063248a9ca3146101ce5780632f2ff15d146101fe57600080fd5b3661014057005b600080fd5b34801561015157600080fd5b506101656101603660046111b9565b610471565b005b34801561017357600080fd5b5061019b7faaeb0e7b67698f8ec0689e359bbe895bc1bc081c58211f57940cf243fc05a21881565b6040519081526020015b60405180910390f35b3480156101ba57600080fd5b506101656101c93660046111f2565b61051c565b3480156101da57600080fd5b5061019b6101e9366004611225565b60009081526020819052604090206002015490565b34801561020a57600080fd5b5061016561021936600461123e565b6105b0565b34801561022a57600080fd5b5061016561023936600461123e565b61063e565b34801561024a57600080fd5b50610165610259366004611261565b6106b8565b34801561026a57600080fd5b506101656102793660046112a4565b610755565b34801561028a57600080fd5b506101656102993660046111f2565b6107ff565b3480156102aa57600080fd5b506101656102b93660046111f2565b610861565b3480156102ca57600080fd5b506102de6102d93660046112e6565b610967565b6040516001600160a01b0390911681526020016101a5565b34801561030257600080fd5b5061031661031136600461123e565b610988565b60405190151581526020016101a5565b34801561033257600080fd5b5061019b600081565b34801561034757600080fd5b50610165610356366004611308565b6109a0565b34801561036757600080fd5b5061019b610376366004611225565b610a08565b34801561038757600080fd5b5061016561039636600461133b565b610a1f565b3480156103a757600080fd5b506101656103b636600461123e565b610a80565b3480156103c757600080fd5b506101656103d636600461133b565b610b01565b3480156103e757600080fd5b506101656103f63660046111f2565b610d2e565b34801561040757600080fd5b50610165610416366004611225565b610d90565b34801561042757600080fd5b5061019b7f189ab7a9244df0848122154315af71fe140f3db0fe014031783b0946b8c9d2e381565b34801561045b57600080fd5b5061019b60008051602061142083398151915281565b61048960008051602061142083398151915233610988565b6104ae5760405162461bcd60e51b81526004016104a590611365565b60405180910390fd5b60405163d6ec2a4960e01b81526004810184905260248101839052604481018290526001600160a01b0385169063d6ec2a4990606401600060405180830381600087803b1580156104fe57600080fd5b505af1158015610512573d6000803e3d6000fd5b5050505050505050565b61053460008051602061142083398151915233610988565b6105505760405162461bcd60e51b81526004016104a590611365565b604051632935799f60e21b81526001600160a01b03828116600483015283169063a4d5e67c906024015b600060405180830381600087803b15801561059457600080fd5b505af11580156105a8573d6000803e3d6000fd5b505050505050565b6000828152602081905260409020600201546105cc9033610988565b6106305760405162461bcd60e51b815260206004820152602f60248201527f416363657373436f6e74726f6c3a2073656e646572206d75737420626520616e60448201526e0818591b5a5b881d1bc819dc985b9d608a1b60648201526084016104a5565b61063a8282610f32565b5050565b6001600160a01b03811633146106ae5760405162461bcd60e51b815260206004820152602f60248201527f416363657373436f6e74726f6c3a2063616e206f6e6c792072656e6f756e636560448201526e103937b632b9903337b91039b2b63360891b60648201526084016104a5565b61063a8282610f8b565b6106d060008051602061142083398151915233610988565b6106ec5760405162461bcd60e51b81526004016104a590611365565b60405163205a3f0d60e11b81526001600160a01b03838116600483015282811660248301528416906340b47e1a906044015b600060405180830381600087803b15801561073857600080fd5b505af115801561074c573d6000803e3d6000fd5b50505050505050565b61076d60008051602061142083398151915233610988565b6107895760405162461bcd60e51b81526004016104a590611365565b6040516322a0514160e01b8152600481018590526024810184905260448101839052606481018290526001600160a01b038616906322a0514190608401600060405180830381600087803b1580156107e057600080fd5b505af11580156107f4573d6000803e3d6000fd5b505050505050505050565b61081760008051602061142083398151915233610988565b6108335760405162461bcd60e51b81526004016104a590611365565b6040516308c7e68160e21b81526001600160a01b03828116600483015283169063231f9a049060240161057a565b61088b7f189ab7a9244df0848122154315af71fe140f3db0fe014031783b0946b8c9d2e333610988565b6108c65760405162461bcd60e51b815260206004820152600c60248201526b0e6cae888caec7474c2eae8d60a31b60448201526064016104a5565b604051639291d56360e01b81526001600160a01b038281166004830152831690639291d56390602401600060405180830381600087803b15801561090957600080fd5b505af115801561091d573d6000803e3d6000fd5b50506040516001600160a01b038481168252851692503391507f4a6c04b230e2bfc4a3583f9336e8acb0358523fac28d6119871f2a23fc0f59459060200160405180910390a35050565b600082815260208190526040812061097f9083610fe4565b90505b92915050565b600082815260208190526040812061097f9083610ff0565b6109b860008051602061142083398151915233610988565b6109d45760405162461bcd60e51b81526004016104a590611365565b60405163a24159d360e01b815260048101839052602481018290526001600160a01b0384169063a24159d39060440161071e565b600081815260208190526040812061098290611012565b610a3760008051602061142083398151915233610988565b610a535760405162461bcd60e51b81526004016104a590611365565b60405163abff196360e01b8152600481018290526001600160a01b0383169063abff19639060240161057a565b600082815260208190526040902060020154610a9c9033610988565b6106ae5760405162461bcd60e51b815260206004820152603060248201527f416363657373436f6e74726f6c3a2073656e646572206d75737420626520616e60448201526f2061646d696e20746f207265766f6b6560801b60648201526084016104a5565b610b2b7faaeb0e7b67698f8ec0689e359bbe895bc1bc081c58211f57940cf243fc05a21833610988565b610b6b5760405162461bcd60e51b81526020600482015260116024820152700e6eecacae0a8ded6cadce67474c2eae8d607b1b60448201526064016104a5565b6040516370a0823160e01b81523060048201526000906001600160a01b038416906370a0823190602401602060405180830381865afa158015610bb2573d6000803e3d6000fd5b505050506040513d601f19601f82011682018060405250810190610bd6919061138c565b905081811015610be4578091505b60008211610c2b5760405162461bcd60e51b81526020600482015260146024820152737377656570546f6b656e733a3a62616c616e636560601b60448201526064016104a5565b60405163a9059cbb60e01b8152336004820152602481018390526001600160a01b0384169063a9059cbb906044016020604051808303816000875af1158015610c78573d6000803e3d6000fd5b505050506040513d601f19601f82011682018060405250810190610c9c91906113a5565b610ce85760405162461bcd60e51b815260206004820152601c60248201527f7377656570546f6b656e733a3a7472616e73666572206661696c65640000000060448201526064016104a5565b6040518281526001600160a01b0384169033907fed679328aebf74ede77ae09efcf36e90244f83643dadac1c2d9f0b21a46f6ab7906020015b60405180910390a3505050565b610d4660008051602061142083398151915233610988565b610d625760405162461bcd60e51b81526004016104a590611365565b60405163210cba2560e21b81526001600160a01b038281166004830152831690638432e8949060240161057a565b610dba7faaeb0e7b67698f8ec0689e359bbe895bc1bc081c58211f57940cf243fc05a21833610988565b610df85760405162461bcd60e51b815260206004820152600f60248201526e0e6eecacae082ac82b07474c2eae8d608b1b60448201526064016104a5565b4781811015610e05578091505b60008211610e4a5760405162461bcd60e51b81526020600482015260126024820152717377656570415641583a3a62616c616e636560701b60448201526064016104a5565b604051600090339084908381818185875af1925050503d8060008114610e8c576040519150601f19603f3d011682016040523d82523d6000602084013e610e91565b606091505b5090915050600181151514610ee85760405162461bcd60e51b815260206004820152601a60248201527f7377656570415641583a3a7472616e73666572206661696c656400000000000060448201526064016104a5565b60405183815260009033907fed679328aebf74ede77ae09efcf36e90244f83643dadac1c2d9f0b21a46f6ab790602001610d21565b600061097f836001600160a01b03841661101c565b6000828152602081905260409020610f4a9082610f1d565b1561063a5760405133906001600160a01b0383169084907f2f8788117e7eff1d82e926ec794901d17c78024a50270940304540a733656f0d90600090a45050565b6000828152602081905260409020610fa3908261106b565b1561063a5760405133906001600160a01b0383169084907ff6391f5c32d9c69d2a47ea670b442974b53935d1edc7fd64eb21e047a839171b90600090a45050565b600061097f8383611080565b6001600160a01b0381166000908152600183016020526040812054151561097f565b6000610982825490565b600081815260018301602052604081205461106357508154600181810184556000848152602080822090930184905584548482528286019093526040902091909155610982565b506000610982565b600061097f836001600160a01b0384166110aa565b6000826000018281548110611097576110976113ce565b9060005260206000200154905092915050565b600081815260018301602052604081205480156111935760006110ce6001836113e4565b85549091506000906110e2906001906113e4565b9050818114611147576000866000018281548110611102576111026113ce565b9060005260206000200154905080876000018481548110611125576111256113ce565b6000918252602080832090910192909255918252600188019052604090208390555b855486908061115857611158611409565b600190038181906000526020600020016000905590558560010160008681526020019081526020016000206000905560019350505050610982565b6000915050610982565b80356001600160a01b03811681146111b457600080fd5b919050565b600080600080608085870312156111cf57600080fd5b6111d88561119d565b966020860135965060408601359560600135945092505050565b6000806040838503121561120557600080fd5b61120e8361119d565b915061121c6020840161119d565b90509250929050565b60006020828403121561123757600080fd5b5035919050565b6000806040838503121561125157600080fd5b8235915061121c6020840161119d565b60008060006060848603121561127657600080fd5b61127f8461119d565b925061128d6020850161119d565b915061129b6040850161119d565b90509250925092565b600080600080600060a086880312156112bc57600080fd5b6112c58661119d565b97602087013597506040870135966060810135965060800135945092505050565b600080604083850312156112f957600080fd5b50508035926020909101359150565b60008060006060848603121561131d57600080fd5b6113268461119d565b95602085013595506040909401359392505050565b6000806040838503121561134e57600080fd5b6113578361119d565b946020939093013593505050565b6020808252600d908201526c0caf0cac6eae8ca7474c2eae8d609b1b604082015260600190565b60006020828403121561139e57600080fd5b5051919050565b6000602082840312156113b757600080fd5b815180151581146113c757600080fd5b9392505050565b634e487b7160e01b600052603260045260246000fd5b60008282101561140457634e487b7160e01b600052601160045260246000fd5b500390565b634e487b7160e01b600052603160045260246000fdfe51b355059847d158e68950419dbcd54fad00bdfd0634c2515a5c533288c7f0a2a2646970667358221220bb67ef019fd3e32ce99346f242668db5abd03597e30d3c055e999bb7c1d50f1864736f6c634300080d0033",
    "linkReferences": {}
  },
  "methodIdentifiers": {
    "DEFAULT_ADMIN_ROLE()": "a217fddf",
    "DEV_ROLE()": "fcf0f0d3",
    "TOKEN_SWEEPER_ROLE()": "12980afe",
    "UPGRADER_ROLE()": "f72c0d8b",
    "addReward(address,address,address)": "588ad62c",
    "getRoleAdmin(bytes32)": "248a9ca3",
    "getRoleMember(bytes32,uint256)": "9010d07c",
    "getRoleMemberCount(bytes32)": "ca15c873",
    "grantRole(bytes32,address)": "2f2ff15d",
    "hasRole(bytes32,address)": "91d14854",
    "removeReward(address,address)": "165d21c9",
    "renounceRole(bytes32,address)": "36568abe",
    "revokeRole(bytes32,address)": "d547741f",
    "setDev(address,address)": "8c9f5f05",
    "setExtraRewardSwapPair(address,address)": "e327670f",
    "sweepAVAX(uint256)": "e9129948",
    "sweepTokens(address,uint256)": "dec66036",
    "updateCrvAvaxSwapPair(address,address)": "7f48b947",
    "updateLeverage(address,uint256,uint256)": "afb50e8f",
    "updateLeverage(address,uint256,uint256,uint256)": "10050f47",
    "updateLeverage(address,uint256,uint256,uint256,uint256)": "75b7a7f0",
    "updateMaxSwapSlippage(address,uint256)": "cc68d1ad"
  },
  "id": 171
}