{
  "abi": [
    {
      "inputs": [
        {
          "internalType": "string",
          "name": "_name",
          "type": "string"
        },
        {
          "internalType": "address",
          "name": "_depositToken",
          "type": "address"
        },
        {
          "internalType": "address",
          "name": "_rewardToken",
          "type": "address"
        },
        {
          "internalType": "address",
          "name": "_stakingContract",
          "type": "address"
        },
        {
          "internalType": "address",
          "name": "_fundContract",
          "type": "address"
        },
        {
          "internalType": "address",
          "name": "_swapPairWAVAXMfi",
          "type": "address"
        },
        {
          "internalType": "address",
          "name": "_swapPairToken",
          "type": "address"
        },
        {
          "internalType": "address",
          "name": "_timelock",
          "type": "address"
        },
        {
          "components": [
            {
              "internalType": "uint256",
              "name": "minTokensToReinvest",
              "type": "uint256"
            },
            {
              "internalType": "uint256",
              "name": "devFeeBips",
              "type": "uint256"
            },
            {
              "internalType": "uint256",
              "name": "reinvestRewardBips",
              "type": "uint256"
            }
          ],
          "internalType": "struct YakStrategyV2.StrategySettings",
          "name": "_strategySettings",
          "type": "tuple"
        }
      ],
      "stateMutability": "nonpayable",
      "type": "constructor"
    },
    {
      "anonymous": false,
      "inputs": [
        {
          "indexed": true,
          "internalType": "address",
          "name": "account",
          "type": "address"
        }
      ],
      "name": "AllowDepositor",
      "type": "event"
    },
    {
      "anonymous": false,
      "inputs": [
        {
          "indexed": true,
          "internalType": "address",
          "name": "owner",
          "type": "address"
        },
        {
          "indexed": true,
          "internalType": "address",
          "name": "spender",
          "type": "address"
        },
        {
          "indexed": false,
          "internalType": "uint256",
          "name": "value",
          "type": "uint256"
        }
      ],
      "name": "Approval",
      "type": "event"
    },
    {
      "anonymous": false,
      "inputs": [
        {
          "indexed": true,
          "internalType": "address",
          "name": "account",
          "type": "address"
        },
        {
          "indexed": false,
          "internalType": "uint256",
          "name": "amount",
          "type": "uint256"
        }
      ],
      "name": "Deposit",
      "type": "event"
    },
    {
      "anonymous": false,
      "inputs": [
        {
          "indexed": false,
          "internalType": "bool",
          "name": "newValue",
          "type": "bool"
        }
      ],
      "name": "DepositsEnabled",
      "type": "event"
    },
    {
      "anonymous": false,
      "inputs": [
        {
          "indexed": true,
          "internalType": "address",
          "name": "previousOwner",
          "type": "address"
        },
        {
          "indexed": true,
          "internalType": "address",
          "name": "newOwner",
          "type": "address"
        }
      ],
      "name": "OwnershipTransferred",
      "type": "event"
    },
    {
      "anonymous": false,
      "inputs": [
        {
          "indexed": false,
          "internalType": "address",
          "name": "token",
          "type": "address"
        },
        {
          "indexed": false,
          "internalType": "uint256",
          "name": "amount",
          "type": "uint256"
        }
      ],
      "name": "Recovered",
      "type": "event"
    },
    {
      "anonymous": false,
      "inputs": [
        {
          "indexed": false,
          "internalType": "uint256",
          "name": "newTotalDeposits",
          "type": "uint256"
        },
        {
          "indexed": false,
          "internalType": "uint256",
          "name": "newTotalSupply",
          "type": "uint256"
        }
      ],
      "name": "Reinvest",
      "type": "event"
    },
    {
      "anonymous": false,
      "inputs": [
        {
          "indexed": true,
          "internalType": "address",
          "name": "account",
          "type": "address"
        }
      ],
      "name": "RemoveDepositor",
      "type": "event"
    },
    {
      "anonymous": false,
      "inputs": [
        {
          "indexed": true,
          "internalType": "address",
          "name": "from",
          "type": "address"
        },
        {
          "indexed": true,
          "internalType": "address",
          "name": "to",
          "type": "address"
        },
        {
          "indexed": false,
          "internalType": "uint256",
          "name": "value",
          "type": "uint256"
        }
      ],
      "name": "Transfer",
      "type": "event"
    },
    {
      "anonymous": false,
      "inputs": [
        {
          "indexed": false,
          "internalType": "uint256",
          "name": "oldValue",
          "type": "uint256"
        },
        {
          "indexed": false,
          "internalType": "uint256",
          "name": "newValue",
          "type": "uint256"
        }
      ],
      "name": "UpdateAdminFee",
      "type": "event"
    },
    {
      "anonymous": false,
      "inputs": [
        {
          "indexed": false,
          "internalType": "address",
          "name": "oldValue",
          "type": "address"
        },
        {
          "indexed": false,
          "internalType": "address",
          "name": "newValue",
          "type": "address"
        }
      ],
      "name": "UpdateDevAddr",
      "type": "event"
    },
    {
      "anonymous": false,
      "inputs": [
        {
          "indexed": false,
          "internalType": "uint256",
          "name": "oldValue",
          "type": "uint256"
        },
        {
          "indexed": false,
          "internalType": "uint256",
          "name": "newValue",
          "type": "uint256"
        }
      ],
      "name": "UpdateDevFee",
      "type": "event"
    },
    {
      "anonymous": false,
      "inputs": [
        {
          "indexed": false,
          "internalType": "uint256",
          "name": "oldValue",
          "type": "uint256"
        },
        {
          "indexed": false,
          "internalType": "uint256",
          "name": "newValue",
          "type": "uint256"
        }
      ],
      "name": "UpdateMaxTokensToDepositWithoutReinvest",
      "type": "event"
    },
    {
      "anonymous": false,
      "inputs": [
        {
          "indexed": false,
          "internalType": "uint256",
          "name": "oldValue",
          "type": "uint256"
        },
        {
          "indexed": false,
          "internalType": "uint256",
          "name": "newValue",
          "type": "uint256"
        }
      ],
      "name": "UpdateMinTokensToReinvest",
      "type": "event"
    },
    {
      "anonymous": false,
      "inputs": [
        {
          "indexed": false,
          "internalType": "uint256",
          "name": "oldValue",
          "type": "uint256"
        },
        {
          "indexed": false,
          "internalType": "uint256",
          "name": "newValue",
          "type": "uint256"
        }
      ],
      "name": "UpdateReinvestReward",
      "type": "event"
    },
    {
      "anonymous": false,
      "inputs": [
        {
          "indexed": true,
          "internalType": "address",
          "name": "account",
          "type": "address"
        },
        {
          "indexed": false,
          "internalType": "uint256",
          "name": "amount",
          "type": "uint256"
        }
      ],
      "name": "Withdraw",
      "type": "event"
    },
    {
      "inputs": [],
      "name": "ADMIN_FEE_BIPS",
      "outputs": [
        {
          "internalType": "uint256",
          "name": "",
          "type": "uint256"
        }
      ],
      "stateMutability": "view",
      "type": "function"
    },
    {
      "inputs": [],
      "name": "DEPOSITS_ENABLED",
      "outputs": [
        {
          "internalType": "bool",
          "name": "",
          "type": "bool"
        }
      ],
      "stateMutability": "view",
      "type": "function"
    },
    {
      "inputs": [],
      "name": "DEV_FEE_BIPS",
      "outputs": [
        {
          "internalType": "uint256",
          "name": "",
          "type": "uint256"
        }
      ],
      "stateMutability": "view",
      "type": "function"
    },
    {
      "inputs": [],
      "name": "DOMAIN_TYPEHASH",
      "outputs": [
        {
          "internalType": "bytes32",
          "name": "",
          "type": "bytes32"
        }
      ],
      "stateMutability": "view",
      "type": "function"
    },
    {
      "inputs": [],
      "name": "MAX_TOKENS_TO_DEPOSIT_WITHOUT_REINVEST",
      "outputs": [
        {
          "internalType": "uint256",
          "name": "",
          "type": "uint256"
        }
      ],
      "stateMutability": "view",
      "type": "function"
    },
    {
      "inputs": [],
      "name": "MIN_TOKENS_TO_REINVEST",
      "outputs": [
        {
          "internalType": "uint256",
          "name": "",
          "type": "uint256"
        }
      ],
      "stateMutability": "view",
      "type": "function"
    },
    {
      "inputs": [],
      "name": "PERMIT_TYPEHASH",
      "outputs": [
        {
          "internalType": "bytes32",
          "name": "",
          "type": "bytes32"
        }
      ],
      "stateMutability": "view",
      "type": "function"
    },
    {
      "inputs": [],
      "name": "REINVEST_REWARD_BIPS",
      "outputs": [
        {
          "internalType": "uint256",
          "name": "",
          "type": "uint256"
        }
      ],
      "stateMutability": "view",
      "type": "function"
    },
    {
      "inputs": [],
      "name": "VERSION_HASH",
      "outputs": [
        {
          "internalType": "bytes32",
          "name": "",
          "type": "bytes32"
        }
      ],
      "stateMutability": "view",
      "type": "function"
    },
    {
      "inputs": [
        {
          "internalType": "address",
          "name": "depositor",
          "type": "address"
        }
      ],
      "name": "allowDepositor",
      "outputs": [],
      "stateMutability": "nonpayable",
      "type": "function"
    },
    {
      "inputs": [
        {
          "internalType": "address",
          "name": "account",
          "type": "address"
        },
        {
          "internalType": "address",
          "name": "spender",
          "type": "address"
        }
      ],
      "name": "allowance",
      "outputs": [
        {
          "internalType": "uint256",
          "name": "",
          "type": "uint256"
        }
      ],
      "stateMutability": "view",
      "type": "function"
    },
    {
      "inputs": [
        {
          "internalType": "address",
          "name": "",
          "type": "address"
        }
      ],
      "name": "allowedDepositors",
      "outputs": [
        {
          "internalType": "bool",
          "name": "",
          "type": "bool"
        }
      ],
      "stateMutability": "view",
      "type": "function"
    },
    {
      "inputs": [
        {
          "internalType": "address",
          "name": "spender",
          "type": "address"
        },
        {
          "internalType": "uint256",
          "name": "amount",
          "type": "uint256"
        }
      ],
      "name": "approve",
      "outputs": [
        {
          "internalType": "bool",
          "name": "",
          "type": "bool"
        }
      ],
      "stateMutability": "nonpayable",
      "type": "function"
    },
    {
      "inputs": [
        {
          "internalType": "address",
          "name": "account",
          "type": "address"
        }
      ],
      "name": "balanceOf",
      "outputs": [
        {
          "internalType": "uint256",
          "name": "",
          "type": "uint256"
        }
      ],
      "stateMutability": "view",
      "type": "function"
    },
    {
      "inputs": [],
      "name": "checkReward",
      "outputs": [
        {
          "internalType": "uint256",
          "name": "",
          "type": "uint256"
        }
      ],
      "stateMutability": "view",
      "type": "function"
    },
    {
      "inputs": [],
      "name": "decimals",
      "outputs": [
        {
          "internalType": "uint8",
          "name": "",
          "type": "uint8"
        }
      ],
      "stateMutability": "view",
      "type": "function"
    },
    {
      "inputs": [
        {
          "internalType": "uint256",
          "name": "amount",
          "type": "uint256"
        }
      ],
      "name": "deposit",
      "outputs": [],
      "stateMutability": "nonpayable",
      "type": "function"
    },
    {
      "inputs": [
        {
          "internalType": "address",
          "name": "account",
          "type": "address"
        },
        {
          "internalType": "uint256",
          "name": "amount",
          "type": "uint256"
        }
      ],
      "name": "depositFor",
      "outputs": [],
      "stateMutability": "nonpayable",
      "type": "function"
    },
    {
      "inputs": [],
      "name": "depositToken",
      "outputs": [
        {
          "internalType": "contract IERC20",
          "name": "",
          "type": "address"
        }
      ],
      "stateMutability": "view",
      "type": "function"
    },
    {
      "inputs": [
        {
          "internalType": "uint256",
          "name": "amount",
          "type": "uint256"
        },
        {
          "internalType": "uint256",
          "name": "deadline",
          "type": "uint256"
        },
        {
          "internalType": "uint8",
          "name": "v",
          "type": "uint8"
        },
        {
          "internalType": "bytes32",
          "name": "r",
          "type": "bytes32"
        },
        {
          "internalType": "bytes32",
          "name": "s",
          "type": "bytes32"
        }
      ],
      "name": "depositWithPermit",
      "outputs": [],
      "stateMutability": "nonpayable",
      "type": "function"
    },
    {
      "inputs": [],
      "name": "devAddr",
      "outputs": [
        {
          "internalType": "address",
          "name": "",
          "type": "address"
        }
      ],
      "stateMutability": "view",
      "type": "function"
    },
    {
      "inputs": [],
      "name": "estimateDeployedBalance",
      "outputs": [
        {
          "internalType": "uint256",
          "name": "",
          "type": "uint256"
        }
      ],
      "stateMutability": "view",
      "type": "function"
    },
    {
      "inputs": [],
      "name": "estimateReinvestReward",
      "outputs": [
        {
          "internalType": "uint256",
          "name": "",
          "type": "uint256"
        }
      ],
      "stateMutability": "view",
      "type": "function"
    },
    {
      "inputs": [
        {
          "internalType": "uint256",
          "name": "amount",
          "type": "uint256"
        }
      ],
      "name": "getDepositTokensForShares",
      "outputs": [
        {
          "internalType": "uint256",
          "name": "",
          "type": "uint256"
        }
      ],
      "stateMutability": "view",
      "type": "function"
    },
    {
      "inputs": [],
      "name": "getDomainSeparator",
      "outputs": [
        {
          "internalType": "bytes32",
          "name": "",
          "type": "bytes32"
        }
      ],
      "stateMutability": "view",
      "type": "function"
    },
    {
      "inputs": [
        {
          "internalType": "uint256",
          "name": "amount",
          "type": "uint256"
        }
      ],
      "name": "getSharesForDepositTokens",
      "outputs": [
        {
          "internalType": "uint256",
          "name": "",
          "type": "uint256"
        }
      ],
      "stateMutability": "view",
      "type": "function"
    },
    {
      "inputs": [],
      "name": "name",
      "outputs": [
        {
          "internalType": "string",
          "name": "",
          "type": "string"
        }
      ],
      "stateMutability": "view",
      "type": "function"
    },
    {
      "inputs": [
        {
          "internalType": "address",
          "name": "",
          "type": "address"
        }
      ],
      "name": "nonces",
      "outputs": [
        {
          "internalType": "uint256",
          "name": "",
          "type": "uint256"
        }
      ],
      "stateMutability": "view",
      "type": "function"
    },
    {
      "inputs": [],
      "name": "numberOfAllowedDepositors",
      "outputs": [
        {
          "internalType": "uint256",
          "name": "",
          "type": "uint256"
        }
      ],
      "stateMutability": "view",
      "type": "function"
    },
    {
      "inputs": [],
      "name": "owner",
      "outputs": [
        {
          "internalType": "address",
          "name": "",
          "type": "address"
        }
      ],
      "stateMutability": "view",
      "type": "function"
    },
    {
      "inputs": [
        {
          "internalType": "address",
          "name": "owner",
          "type": "address"
        },
        {
          "internalType": "address",
          "name": "spender",
          "type": "address"
        },
        {
          "internalType": "uint256",
          "name": "value",
          "type": "uint256"
        },
        {
          "internalType": "uint256",
          "name": "deadline",
          "type": "uint256"
        },
        {
          "internalType": "uint8",
          "name": "v",
          "type": "uint8"
        },
        {
          "internalType": "bytes32",
          "name": "r",
          "type": "bytes32"
        },
        {
          "internalType": "bytes32",
          "name": "s",
          "type": "bytes32"
        }
      ],
      "name": "permit",
      "outputs": [],
      "stateMutability": "nonpayable",
      "type": "function"
    },
    {
      "inputs": [
        {
          "internalType": "uint256",
          "name": "amount",
          "type": "uint256"
        }
      ],
      "name": "recoverAVAX",
      "outputs": [],
      "stateMutability": "nonpayable",
      "type": "function"
    },
    {
      "inputs": [
        {
          "internalType": "address",
          "name": "tokenAddress",
          "type": "address"
        },
        {
          "internalType": "uint256",
          "name": "tokenAmount",
          "type": "uint256"
        }
      ],
      "name": "recoverERC20",
      "outputs": [],
      "stateMutability": "nonpayable",
      "type": "function"
    },
    {
      "inputs": [],
      "name": "reinvest",
      "outputs": [],
      "stateMutability": "nonpayable",
      "type": "function"
    },
    {
      "inputs": [
        {
          "internalType": "address",
          "name": "depositor",
          "type": "address"
        }
      ],
      "name": "removeDepositor",
      "outputs": [],
      "stateMutability": "nonpayable",
      "type": "function"
    },
    {
      "inputs": [],
      "name": "renounceOwnership",
      "outputs": [],
      "stateMutability": "nonpayable",
      "type": "function"
    },
    {
      "inputs": [
        {
          "internalType": "uint256",
          "name": "minReturnAmountAccepted",
          "type": "uint256"
        },
        {
          "internalType": "bool",
          "name": "disableDeposits",
          "type": "bool"
        }
      ],
      "name": "rescueDeployedFunds",
      "outputs": [],
      "stateMutability": "nonpayable",
      "type": "function"
    },
    {
      "inputs": [
        {
          "internalType": "address",
          "name": "token",
          "type": "address"
        },
        {
          "internalType": "address",
          "name": "spender",
          "type": "address"
        }
      ],
      "name": "revokeAllowance",
      "outputs": [],
      "stateMutability": "nonpayable",
      "type": "function"
    },
    {
      "inputs": [],
      "name": "rewardToken",
      "outputs": [
        {
          "internalType": "contract IERC20",
          "name": "",
          "type": "address"
        }
      ],
      "stateMutability": "view",
      "type": "function"
    },
    {
      "inputs": [],
      "name": "stakingContract",
      "outputs": [
        {
          "internalType": "contract ILending",
          "name": "",
          "type": "address"
        }
      ],
      "stateMutability": "view",
      "type": "function"
    },
    {
      "inputs": [],
      "name": "symbol",
      "outputs": [
        {
          "internalType": "string",
          "name": "",
          "type": "string"
        }
      ],
      "stateMutability": "view",
      "type": "function"
    },
    {
      "inputs": [],
      "name": "totalDeposits",
      "outputs": [
        {
          "internalType": "uint256",
          "name": "",
          "type": "uint256"
        }
      ],
      "stateMutability": "view",
      "type": "function"
    },
    {
      "inputs": [],
      "name": "totalSupply",
      "outputs": [
        {
          "internalType": "uint256",
          "name": "",
          "type": "uint256"
        }
      ],
      "stateMutability": "view",
      "type": "function"
    },
    {
      "inputs": [
        {
          "internalType": "address",
          "name": "dst",
          "type": "address"
        },
        {
          "internalType": "uint256",
          "name": "amount",
          "type": "uint256"
        }
      ],
      "name": "transfer",
      "outputs": [
        {
          "internalType": "bool",
          "name": "",
          "type": "bool"
        }
      ],
      "stateMutability": "nonpayable",
      "type": "function"
    },
    {
      "inputs": [
        {
          "internalType": "address",
          "name": "src",
          "type": "address"
        },
        {
          "internalType": "address",
          "name": "dst",
          "type": "address"
        },
        {
          "internalType": "uint256",
          "name": "amount",
          "type": "uint256"
        }
      ],
      "name": "transferFrom",
      "outputs": [
        {
          "internalType": "bool",
          "name": "",
          "type": "bool"
        }
      ],
      "stateMutability": "nonpayable",
      "type": "function"
    },
    {
      "inputs": [
        {
          "internalType": "address",
          "name": "newOwner",
          "type": "address"
        }
      ],
      "name": "transferOwnership",
      "outputs": [],
      "stateMutability": "nonpayable",
      "type": "function"
    },
    {
      "inputs": [
        {
          "internalType": "uint256",
          "name": "newValue",
          "type": "uint256"
        }
      ],
      "name": "updateAdminFee",
      "outputs": [],
      "stateMutability": "nonpayable",
      "type": "function"
    },
    {
      "inputs": [
        {
          "internalType": "bool",
          "name": "newValue",
          "type": "bool"
        }
      ],
      "name": "updateDepositsEnabled",
      "outputs": [],
      "stateMutability": "nonpayable",
      "type": "function"
    },
    {
      "inputs": [
        {
          "internalType": "address",
          "name": "newValue",
          "type": "address"
        }
      ],
      "name": "updateDevAddr",
      "outputs": [],
      "stateMutability": "nonpayable",
      "type": "function"
    },
    {
      "inputs": [
        {
          "internalType": "uint256",
          "name": "newValue",
          "type": "uint256"
        }
      ],
      "name": "updateDevFee",
      "outputs": [],
      "stateMutability": "nonpayable",
      "type": "function"
    },
    {
      "inputs": [
        {
          "internalType": "uint256",
          "name": "newValue",
          "type": "uint256"
        }
      ],
      "name": "updateMaxTokensToDepositWithoutReinvest",
      "outputs": [],
      "stateMutability": "nonpayable",
      "type": "function"
    },
    {
      "inputs": [
        {
          "internalType": "uint256",
          "name": "newValue",
          "type": "uint256"
        }
      ],
      "name": "updateMinTokensToReinvest",
      "outputs": [],
      "stateMutability": "nonpayable",
      "type": "function"
    },
    {
      "inputs": [
        {
          "internalType": "uint256",
          "name": "newValue",
          "type": "uint256"
        }
      ],
      "name": "updateReinvestReward",
      "outputs": [],
      "stateMutability": "nonpayable",
      "type": "function"
    },
    {
      "inputs": [
        {
          "internalType": "uint256",
          "name": "amount",
          "type": "uint256"
        }
      ],
      "name": "withdraw",
      "outputs": [],
      "stateMutability": "nonpayable",
      "type": "function"
    }
  ],
  "bytecode": {
    "object": "0x60c060405260096080819052685969656c642059616b60b81b60a09081526200002c91600091906200059f565b506040805180820190915260038082526216549560ea1b602090920191825262000059916001916200059f565b503480156200006757600080fd5b5060405162003d8138038062003d818339810160408190526200008a916200070a565b600680546001600160a01b03191633908117909155604051829190819060009060008051602062003d61833981519152908290a3508051620000cc90620001e5565b6020810151620000dc9062000275565b6040810151620000ec906200032c565b508851620001029060009060208c01906200059f565b50600980546001600160a01b03808b166001600160a01b031992831617909255600a80548a84169083161790556012805489841690831617905560138054888416908316179055601480548784169083161790556015805492861692821692909217909155600b8054909116732d580f9cf2fb2d09bc411532988f2afda4e7beff179055620001926001620003e3565b6200019d826200048d565b60408051600080825260208201527fc7606d21ac05cd309191543e409f0845c016120563783d70e4f41419dc0ef234910160405180910390a1505050505050505050620008c3565b6006546001600160a01b03163314620002345760405162461bcd60e51b8152602060048201819052602482015260008051602062003d4183398151915260448201526064015b60405180910390fd5b600c5460408051918252602082018390527f481f79ac3a523b6d6db3c5a720e190e986d1cc1b41adcdf50f9caef849901100910160405180910390a1600c55565b6006546001600160a01b03163314620002c05760405162461bcd60e51b8152602060048201819052602482015260008051602062003d4183398151915260448201526064016200022b565b612710620002df601054836200058a60201b62001b3a1790919060201c565b1115620002eb57600080fd5b60115460408051918252602082018390527f2a42303d002f0ba6cfe8259c91d4684443fb0b3de286ba74991175d651726131910160405180910390a1601155565b6006546001600160a01b03163314620003775760405162461bcd60e51b8152602060048201819052602482015260008051602062003d4183398151915260448201526064016200022b565b61271062000396601154836200058a60201b62001b3a1790919060201c565b1115620003a257600080fd5b60105460408051918252602082018390527fe7f97d51d307dc44045597c9978bec0f842e6bb40d19b9444084cfa30d9ed4f2910160405180910390a1601055565b6006546001600160a01b031633146200042e5760405162461bcd60e51b8152602060048201819052602482015260008051602062003d4183398151915260448201526064016200022b565b600e5481151560ff9091161515036200044657600080fd5b600e805460ff19168215159081179091556040519081527f7b014ed3854e7f5cb0218d58b3c6ae7d53a68bb0af2f67bfb029ea42c38a7e859060200160405180910390a150565b6006546001600160a01b03163314620004d85760405162461bcd60e51b8152602060048201819052602482015260008051602062003d4183398151915260448201526064016200022b565b6001600160a01b0381166200053f5760405162461bcd60e51b815260206004820152602660248201527f4f776e61626c653a206e6577206f776e657220697320746865207a65726f206160448201526564647265737360d01b60648201526084016200022b565b6006546040516001600160a01b0380841692169060008051602062003d6183398151915290600090a3600680546001600160a01b0319166001600160a01b0392909216919091179055565b600062000598828462000860565b9392505050565b828054620005ad9062000887565b90600052602060002090601f016020900481019282620005d157600085556200061c565b82601f10620005ec57805160ff19168380011785556200061c565b828001600101855582156200061c579182015b828111156200061c578251825591602001919060010190620005ff565b506200062a9291506200062e565b5090565b5b808211156200062a57600081556001016200062f565b634e487b7160e01b600052604160045260246000fd5b604051601f8201601f191681016001600160401b038111828210171562000686576200068662000645565b604052919050565b80516001600160a01b0381168114620006a657600080fd5b919050565b600060608284031215620006be57600080fd5b604051606081016001600160401b0381118282101715620006e357620006e362000645565b80604052508091508251815260208301516020820152604083015160408201525092915050565b60008060008060008060008060006101608a8c0312156200072a57600080fd5b89516001600160401b03808211156200074257600080fd5b818c0191508c601f8301126200075757600080fd5b8151818111156200076c576200076c62000645565b6020915062000784601f8201601f191683016200065b565b8181528e838386010111156200079957600080fd5b60005b82811015620007b95784810184015182820185015283016200079c565b82811115620007cb5760008484840101525b509b50620007dd90508c82016200068e565b99505050620007ef60408b016200068e565b9650620007ff60608b016200068e565b95506200080f60808b016200068e565b94506200081f60a08b016200068e565b93506200082f60c08b016200068e565b92506200083f60e08b016200068e565b9150620008518b6101008c01620006ab565b90509295985092959850929598565b600082198211156200088257634e487b7160e01b600052601160045260246000fd5b500190565b600181811c908216806200089c57607f821691505b602082108103620008bd57634e487b7160e01b600052602260045260246000fd5b50919050565b61346e80620008d36000396000f3fe608060405234801561001057600080fd5b50600436106103425760003560e01c80638b73e606116101b8578063c4b24a4611610104578063e21ac825116100a2578063ee99205c1161007c578063ee99205c1461073d578063f2fde38b14610750578063f7c618c114610763578063fdb5a03e1461077657600080fd5b8063e21ac8251461070f578063eab89a5a14610722578063ed24911d1461073557600080fd5b8063d505accf116100de578063d505accf1461069d578063da09c72c146106b0578063dd62ed3e146106c3578063dd8ce4d6146106fc57600080fd5b8063c4b24a461461066f578063c89039c514610677578063cff1b6ef1461068a57600080fd5b8063a8ae2b7c11610171578063b52a321f1161014b578063b52a321f1461063e578063b6b55f251461064b578063b9e57b801461065e578063bd079f551461066657600080fd5b8063a8ae2b7c14610605578063a9059cbb14610618578063ac0d31ff1461062b57600080fd5b80638b73e606146105785780638da5cb5b1461058b5780639291d563146105b057806395d89b41146105c357806399729ec1146105cb5780639e4e7318146105de57600080fd5b80634a970be711610292578063789139bc116102305780637ecebe001161020a5780637ecebe001461052957806381837230146105495780638980f11f1461055c5780638aff733d1461056f57600080fd5b8063789139bc146105055780637ae267731461050e5780637d8820971461052157600080fd5b80634ebb79161161026c5780634ebb7916146104b85780635ea682ea146104cb57806370a08231146104d4578063715018a6146104fd57600080fd5b80634a970be71461047f5780634bebd1e7146104925780634e77ace5146104a557600080fd5b806323b872dd116102ff57806330adf81f116102d957806330adf81f14610412578063313ce567146104395780633bdc6e7214610453578063483c2ef01461045c57600080fd5b806323b872dd146103d75780632e1a7d4d146103ea5780632f4f21e2146103ff57600080fd5b806306fdde03146103475780630767711114610365578063095ea7b31461037c5780630f23475d1461039f57806318160ddd146103a757806320606b70146103b0575b600080fd5b61034f61077e565b60405161035c9190612e38565b60405180910390f35b61036e600f5481565b60405190815260200161035c565b61038f61038a366004612e67565b61080c565b604051901515815260200161035c565b61036e610823565b61036e60025481565b61036e7f8b73c3c69bb8fe3d512ecc4cf759cc79239f7b179b0ffacaa9a75d522b39400f81565b61038f6103e5366004612e91565b610832565b6103fd6103f8366004612ecd565b610916565b005b6103fd61040d366004612e67565b6109f0565b61036e7f6e71edae12b1b97f4d1f60370fef10105fa2faae0126114a169c64845d6126c981565b610441601281565b60405160ff909116815260200161035c565b61036e60075481565b61038f61046a366004612ee6565b60086020526000908152604090205460ff1681565b6103fd61048d366004612f12565b6109fe565b6103fd6104a0366004612ee6565b610a97565b6103fd6104b3366004612f67565b610b96565b6103fd6104c6366004612ecd565b610c1f565b61036e60115481565b61036e6104e2366004612ee6565b6001600160a01b031660009081526004602052604090205490565b6103fd610cb6565b61036e600d5481565b6103fd61051c366004612f84565b610d2a565b61036e610dcf565b61036e610537366004612ee6565b60056020526000908152604090205481565b6103fd610557366004612ecd565b610e4a565b6103fd61056a366004612e67565b610eb5565b61036e60105481565b6103fd610586366004612ee6565b610fa3565b6006546001600160a01b03165b6040516001600160a01b03909116815260200161035c565b6103fd6105be366004612ee6565b611124565b61034f6111de565b6103fd6105d9366004612ecd565b6111eb565b61036e7fc89efdaa54c0f20c7adf612882df0950f5a951637e0307cdcb4c672f298b8bc681565b6103fd610613366004612ecd565b611279565b61038f610626366004612e67565b611307565b6103fd610639366004612fb7565b611314565b600e5461038f9060ff1681565b6103fd610659366004612ecd565b6115dd565b61036e6115ea565b61036e600c5481565b61036e611629565b600954610598906001600160a01b031681565b6103fd610698366004612ecd565b6116ae565b6103fd6106ab366004612fe7565b611724565b600b54610598906001600160a01b031681565b61036e6106d1366004612f84565b6001600160a01b03918216600090815260036020908152604080832093909416825291909152205490565b61036e61070a366004612ecd565b611829565b6103fd61071d366004612ecd565b611863565b61036e610730366004612ecd565b6118ce565b61036e611902565b601254610598906001600160a01b031681565b6103fd61075e366004612ee6565b6119a2565b600a54610598906001600160a01b031681565b6103fd611a8d565b6000805461078b90613051565b80601f01602080910402602001604051908101604052809291908181526020018280546107b790613051565b80156108045780601f106107d957610100808354040283529160200191610804565b820191906000526020600020905b8154815290600101906020018083116107e757829003601f168201915b505050505081565b6000610819338484611b46565b5060015b92915050565b600061082d610dcf565b905090565b6001600160a01b03831660008181526003602090815260408083203380855292528220549192909190821480159061086c57506000198114155b156108fd576000610898856040518060600160405280602f81526020016133b5602f9139849190611c54565b6001600160a01b038881166000818152600360209081526040808320948916808452948252918290208590559051848152939450919290917f8c5be1e5ebec7d5bd14f71427d1e84f3dd0314c0f7b2291e5b200ac8c7c3b925910160405180910390a3505b610908868686611c80565b6001925050505b9392505050565b60006109366002546109308461092a610dcf565b90611db3565b90611dbf565b90506000821161098d5760405162461bcd60e51b815260206004820152601e60248201527f4d617267696e73776170537472617465677956313a3a7769746864726177000060448201526064015b60405180910390fd5b6109973383611dcb565b6109a081611ea1565b6009546109b7906001600160a01b03163383611f05565b60405181815233907f884edad9ce6fa2440d8a54cc123490eb96d2768479d49ff9c7366125a94243649060200160405180910390a25050565b6109fa8282611fda565b5050565b60095460405163d505accf60e01b8152336004820152306024820152604481018790526064810186905260ff8516608482015260a4810184905260c481018390526001600160a01b039091169063d505accf9060e401600060405180830381600087803b158015610a6e57600080fd5b505af1158015610a82573d6000803e3d6000fd5b50505050610a903386611fda565b5050505050565b6006546001600160a01b03163314610ac15760405162461bcd60e51b81526004016109849061308b565b6001600160a01b03811660009081526008602052604090205460ff1615610b2a5760405162461bcd60e51b815260206004820152601c60248201527f5065726d697373696f6e65643a3a616c6c6f774465706f7369746f72000000006044820152606401610984565b6001600160a01b0381166000908152600860205260409020805460ff19166001908117909155600754610b5c91611b3a565b6007556040516001600160a01b038216907fc0a1035c16faf8d1304056d92c00edf028f87e62b8235a938f00af9e3c0312c590600090a250565b6006546001600160a01b03163314610bc05760405162461bcd60e51b81526004016109849061308b565b600e5481151560ff909116151503610bd757600080fd5b600e805460ff19168215159081179091556040519081527f7b014ed3854e7f5cb0218d58b3c6ae7d53a68bb0af2f67bfb029ea42c38a7e85906020015b60405180910390a150565b6006546001600160a01b03163314610c495760405162461bcd60e51b81526004016109849061308b565b60008111610c5657600080fd5b604051339082156108fc029083906000818181858888f19350505050158015610c83573d6000803e3d6000fd5b507f8c1256b8896378cd5044f80c202f9772b9d77dc85c8a6eb51967210b09bfaa28600082604051610c149291906130c0565b6006546001600160a01b03163314610ce05760405162461bcd60e51b81526004016109849061308b565b6006546040516000916001600160a01b0316907f8be0079c531659141344cd1fd0a4f28419497f9722a3daafe3b4186f6b6457e0908390a3600680546001600160a01b0319169055565b6006546001600160a01b03163314610d545760405162461bcd60e51b81526004016109849061308b565b60405163095ea7b360e01b81526001600160a01b0383169063095ea7b390610d839084906000906004016130c0565b6020604051808303816000875af1158015610da2573d6000803e3d6000fd5b505050506040513d601f19601f82011682018060405250810190610dc691906130d9565b6109fa57600080fd5b601254600954604051636e60e24960e01b81526001600160a01b0391821660048201523060248201526000929190911690636e60e24990604401602060405180830381865afa158015610e26573d6000803e3d6000fd5b505050506040513d601f19601f8201168201806040525081019061082d91906130f6565b6006546001600160a01b03163314610e745760405162461bcd60e51b81526004016109849061308b565b600c5460408051918252602082018390527f481f79ac3a523b6d6db3c5a720e190e986d1cc1b41adcdf50f9caef849901100910160405180910390a1600c55565b6006546001600160a01b03163314610edf5760405162461bcd60e51b81526004016109849061308b565b60008111610eec57600080fd5b60405163a9059cbb60e01b81526001600160a01b0383169063a9059cbb90610f1a90339085906004016130c0565b6020604051808303816000875af1158015610f39573d6000803e3d6000fd5b505050506040513d601f19601f82011682018060405250810190610f5d91906130d9565b610f6657600080fd5b7f8c1256b8896378cd5044f80c202f9772b9d77dc85c8a6eb51967210b09bfaa288282604051610f979291906130c0565b60405180910390a15050565b6006546001600160a01b03163314610fcd5760405162461bcd60e51b81526004016109849061308b565b60006007541161103c5760405162461bcd60e51b815260206004820152603460248201527f5065726d697373696f6e65643a3a72656d6f76654465706f7369746f722c206e6044820152736f20616c6c6f776564206465706f7369746f727360601b6064820152608401610984565b6001600160a01b03811660009081526008602052604090205460ff1615156001146110bc5760405162461bcd60e51b815260206004820152602a60248201527f5065726d697373696f6e65643a3a72656d6f76654465706f7369746f722c206e6044820152691bdd08185b1b1bddd95960b21b6064820152608401610984565b6001600160a01b0381166000908152600860205260409020805460ff191690556007546110ea90600161222f565b6007556040516001600160a01b038216907f0e86f6608b536e5339a25b65ff531f5ea91e1313d056ecd4752b35cbd16137d490600090a250565b600b546001600160a01b031633146111755760405162461bcd60e51b81526020600482015260146024820152732cb0b5a9ba3930ba32b3bc9d1d37b7363ca232bb60611b6044820152606401610984565b600b54604080516001600160a01b03928316815291831660208301527fa8e91499ed37682f43cffb045fcc7d379a91e8c9a14e6321877ee34dee564c00910160405180910390a1600b80546001600160a01b0319166001600160a01b0392909216919091179055565b6001805461078b90613051565b6006546001600160a01b031633146112155760405162461bcd60e51b81526004016109849061308b565b61271061122d60105483611b3a90919063ffffffff16565b111561123857600080fd5b60115460408051918252602082018390527f2a42303d002f0ba6cfe8259c91d4684443fb0b3de286ba74991175d651726131910160405180910390a1601155565b6006546001600160a01b031633146112a35760405162461bcd60e51b81526004016109849061308b565b6127106112bb60115483611b3a90919063ffffffff16565b11156112c657600080fd5b60105460408051918252602082018390527fe7f97d51d307dc44045597c9978bec0f842e6bb40d19b9444084cfa30d9ed4f2910160405180910390a1601055565b6000610819338484611c80565b6006546001600160a01b0316331461133e5760405162461bcd60e51b81526004016109849061308b565b6009546040516370a0823160e01b81523060048201526000916001600160a01b0316906370a0823190602401602060405180830381865afa158015611387573d6000803e3d6000fd5b505050506040513d601f19601f820116820180604052508101906113ab91906130f6565b6012546009546040516303df10f760e21b81529293506001600160a01b0391821692630f7c43dc926113e392169087906004016130c0565b600060405180830381600087803b1580156113fd57600080fd5b505af1158015611411573d6000803e3d6000fd5b505060095460135460405163095ea7b360e01b81526001600160a01b03928316945063095ea7b3935061144d92909116906000906004016130c0565b6020604051808303816000875af115801561146c573d6000803e3d6000fd5b505050506040513d601f19601f8201168201806040525081019061149091906130d9565b506009546040516370a0823160e01b81523060048201526000916001600160a01b0316906370a0823190602401602060405180830381865afa1580156114da573d6000803e3d6000fd5b505050506040513d601f19601f820116820180604052508101906114fe91906130f6565b90508361150b828461222f565b101561156b5760405162461bcd60e51b815260206004820152602960248201527f4d617267696e73776170537472617465677956313a3a7265736375654465706c6044820152686f79656446756e647360b81b6064820152608401610984565b7fc7606d21ac05cd309191543e409f0845c016120563783d70e4f41419dc0ef234611594610dcf565b6002546040805192835260208301919091520160405180910390a1600e5460ff16151560011480156115c857506001831515145b156115d7576115d76000610b96565b50505050565b6115e73382611fda565b50565b6000806115f5611629565b9050600c5481106116215761161b61271061093060105484611db390919063ffffffff16565b91505090565b600091505090565b600a546040516370a0823160e01b815230600482015260009182916001600160a01b03909116906370a0823190602401602060405180830381865afa158015611676573d6000803e3d6000fd5b505050506040513d601f19601f8201168201806040525081019061169a91906130f6565b905061161b6116a761223b565b8290611b3a565b6006546001600160a01b031633146116d85760405162461bcd60e51b81526004016109849061308b565b80156116e357600080fd5b600f5460408051918252602082018390527f3cc372f330f95ac9540626dc8a25f5bf21ba607215a5d58304cb804d446f104a910160405180910390a1600f55565b428410156117665760405162461bcd60e51b815260206004820152600f60248201526e1c195c9b5a5d0e8e995e1c1a5c9959608a1b6044820152606401610984565b6001600160a01b038716600090815260056020526040812080547f6e71edae12b1b97f4d1f60370fef10105fa2faae0126114a169c64845d6126c9918a918a918a9190866117b383613125565b909155506040805160208101969096526001600160a01b0394851690860152929091166060840152608083015260a082015260c0810186905260e0016040516020818303038152906040528051906020012090506118148882868686612428565b61181f888888611b46565b5050505050505050565b600061183f611836610dcf565b60025490611db3565b60000361184a575090565b61081d611855610dcf565b600254610930908590611db3565b6006546001600160a01b0316331461188d5760405162461bcd60e51b81526004016109849061308b565b600d5460408051918252602082018390527fa5dae50539d56dfe1fb5273d883b0c39bc76750a25d036fc5fbd09ad8fd5f57f910160405180910390a1600d55565b60006118db611836610dcf565b6000036118ea57506000919050565b61081d6002546109306118fb610dcf565b8590611db3565b60007f8b73c3c69bb8fe3d512ecc4cf759cc79239f7b179b0ffacaa9a75d522b39400f60001b6000604051611937919061313e565b6040519081900390207fc89efdaa54c0f20c7adf612882df0950f5a951637e0307cdcb4c672f298b8bc646604080516020810195909552840192909252606083015260808201523060a082015260c00160405160208183030381529060405280519060200120905090565b6006546001600160a01b031633146119cc5760405162461bcd60e51b81526004016109849061308b565b6001600160a01b038116611a315760405162461bcd60e51b815260206004820152602660248201527f4f776e61626c653a206e6577206f776e657220697320746865207a65726f206160448201526564647265737360d01b6064820152608401610984565b6006546040516001600160a01b038084169216907f8be0079c531659141344cd1fd0a4f28419497f9722a3daafe3b4186f6b6457e090600090a3600680546001600160a01b0319166001600160a01b0392909216919091179055565b323314611ad35760405162461bcd60e51b815260206004820152601460248201527359616b53747261746567793a3a6f6e6c79454f4160601b6044820152606401610984565b6000611add611629565b9050600c54811015611b315760405162461bcd60e51b815260206004820152601e60248201527f4d617267696e73776170537472617465677956313a3a7265696e7665737400006044820152606401610984565b6115e781612554565b600061090f82846131d9565b6001600160a01b038316611b9c5760405162461bcd60e51b815260206004820152601c60248201527f5f617070726f76653a3a6f776e6572207a65726f2061646472657373000000006044820152606401610984565b6001600160a01b038216611bf25760405162461bcd60e51b815260206004820152601e60248201527f5f617070726f76653a3a7370656e646572207a65726f206164647265737300006044820152606401610984565b6001600160a01b0383811660008181526003602090815260408083209487168084529482529182902085905590518481527f8c5be1e5ebec7d5bd14f71427d1e84f3dd0314c0f7b2291e5b200ac8c7c3b92591015b60405180910390a3505050565b60008184841115611c785760405162461bcd60e51b81526004016109849190612e38565b505050900390565b6001600160a01b038216611cf35760405162461bcd60e51b815260206004820152603460248201527f5f7472616e73666572546f6b656e733a2063616e6e6f74207472616e7366657260448201527320746f20746865207a65726f206164647265737360601b6064820152608401610984565b611d30816040518060600160405280602e815260200161340b602e91396001600160a01b0386166000908152600460205260409020549190611c54565b6001600160a01b038085166000908152600460205260408082209390935590841681522054611d5f9082611b3a565b6001600160a01b0380841660008181526004602052604090819020939093559151908516907fddf252ad1be2c89b69c2b068fc378daa952ba7f163c4a11628f55a4df523b3ef90611c479085815260200190565b600061090f82846131f1565b600061090f8284613210565b611e08816040518060600160405280602781526020016133e4602791396001600160a01b0385166000908152600460205260409020549190611c54565b60046000846001600160a01b03166001600160a01b0316815260200190815260200160002081905550611e588160405180606001604052806027815260200161338e602791396002549190611c54565b6002556040518181526000906001600160a01b038416907fddf252ad1be2c89b69c2b068fc378daa952ba7f163c4a11628f55a4df523b3ef906020015b60405180910390a35050565b6012546009546040516303df10f760e21b81526001600160a01b0392831692630f7c43dc92611ed79291169085906004016130c0565b600060405180830381600087803b158015611ef157600080fd5b505af1158015610a90573d6000803e3d6000fd5b60405163a9059cbb60e01b81526001600160a01b0384169063a9059cbb90611f3390859085906004016130c0565b6020604051808303816000875af1158015611f52573d6000803e3d6000fd5b505050506040513d601f19601f82011682018060405250810190611f7691906130d9565b611fd55760405162461bcd60e51b815260206004820152602a60248201527f4d617267696e73776170537472617465677956313a3a5452414e534645525f466044820152691493d357d1905253115160b21b6064820152608401610984565b505050565b6007541561205d573360009081526008602052604090205460ff16151560011461205d5760405162461bcd60e51b815260206004820152602e60248201527f5065726d697373696f6e65643a3a6f6e6c79416c6c6f7765644465706f73697460448201526d1ccb081b9bdd08185b1b1bddd95960921b6064820152608401610984565b600e5460ff1615156001146120b45760405162461bcd60e51b815260206004820152601e60248201527f4d617267696e73776170537472617465677956313a3a5f6465706f73697400006044820152606401610984565b600d54156120dd5760006120c6611629565b9050600d548111156120db576120db81612554565b505b6009546040516323b872dd60e01b8152336004820152306024820152604481018390526001600160a01b03909116906323b872dd906064016020604051808303816000875af1158015612134573d6000803e3d6000fd5b505050506040513d601f19601f8201168201806040525081019061215891906130d9565b6121b25760405162461bcd60e51b815260206004820152602560248201527f4d617267696e73776170537472617465677956313a3a7472616e736665722066604482015264185a5b195960da1b6064820152608401610984565b8060006121c0611836610dcf565b11156121d4576121d1611855610dcf565b90505b6121de83826127ab565b6121e78261282f565b826001600160a01b03167fe1fffcc4923d04b559f4d29a8bfc6cda04eb5b0d3c460751c2402c5c5cc9109c8360405161222291815260200190565b60405180910390a2505050565b600061090f8284613232565b601254600954604051635681bd7b60e11b81526001600160a01b0391821660048201526000928392839283928392839291169063ad037af69060240160e060405180830381865afa158015612294573d6000803e3d6000fd5b505050506040513d601f19601f820116820180604052508101906122b89190613249565b96509650965096505050945060006122d08342612941565b90506000821180156122e157508381115b156123555760006122f2828661222f565b9050600061231684612311612307888a61222f565b6109308689611db3565b612941565b9050612322848261222f565b935061234d61234661233560018b611b3a565b610930846601000000000000611db3565b8890611b3a565b965042955050505b6012546009546040516383a0422960e01b81526001600160a01b039182166004820152306024820152600092839216906383a0422990604401608060405180830381865afa1580156123ab573d6000803e3d6000fd5b505050506040513d601f19601f820116820180604052508101906123cf919061329d565b93505050915060006123ea828961222f90919063ffffffff16565b9050801561241857600061240966010000000000006109308487611db3565b9b9a5050505050505050505050565b6000995050505050505050505090565b6000612432611902565b60405161190160f01b602082015260228101919091526042810186905260620160408051601f198184030181528282528051602091820120600080855291840180845281905260ff88169284019290925260608301869052608083018590529092509060019060a0016020604051602081039080840390855afa1580156124bd573d6000803e3d6000fd5b5050604051601f1901519150506001600160a01b038116158015906124f35750866001600160a01b0316816001600160a01b0316145b61254b5760405162461bcd60e51b8152602060048201526024808201527f417263683a3a76616c69646174655369673a20696e76616c6964207369676e616044820152637475726560e01b6064820152608401610984565b50505050505050565b60125460095460405163cfc14f5360e01b81526001600160a01b03918216600482015291169063cfc14f5390602401600060405180830381600087803b15801561259d57600080fd5b505af11580156125b1573d6000803e3d6000fd5b5050505060006125d261271061093060115485611db390919063ffffffff16565b905080156125f757600a54600b546125f7916001600160a01b03908116911683611f05565b600061261461271061093060105486611db390919063ffffffff16565b9050801561263357600a54612633906001600160a01b03163383611f05565b600061264982612643868661222f565b9061222f565b6014549091506001600160a01b03161561271f576015546001600160a01b0316156126e457600a546014546000916126a59184916001600160a01b039081169173b31f66aa3c1e785363f0875a1b74e27b85fd66c79116612959565b6009546015549192506126dc91839173b31f66aa3c1e785363f0875a1b74e27b85fd66c7916001600160a01b039182169116612959565b915050612758565b600a546014546127189183916001600160a01b039182169173b31f66aa3c1e785363f0875a1b74e27b85fd66c79116612959565b9050612758565b6015546001600160a01b03161561275857600a546009546015546127559284926001600160a01b03918216929082169116612959565b90505b6127618161282f565b7fc7606d21ac05cd309191543e409f0845c016120563783d70e4f41419dc0ef23461278a610dcf565b6002546040805192835260208301919091520160405180910390a150505050565b6002546127b89082611b3a565b6002556001600160a01b0382166000908152600460205260409020546127de9082611b3a565b6001600160a01b0383166000818152600460205260408082209390935591519091907fddf252ad1be2c89b69c2b068fc378daa952ba7f163c4a11628f55a4df523b3ef90611e959085815260200190565b600081116128915760405162461bcd60e51b815260206004820152602960248201527f4d617267696e73776170537472617465677956313a3a5f7374616b654465706f604482015268736974546f6b656e7360b81b6064820152608401610984565b60095460135460405163095ea7b360e01b81526001600160a01b039283169263095ea7b3926128c79291169085906004016130c0565b6020604051808303816000875af11580156128e6573d6000803e3d6000fd5b505050506040513d601f19601f8201168201806040525081019061290a91906130d9565b506012546009546040516316de7a4360e01b81526001600160a01b03928316926316de7a4392611ed79291169085906004016130c0565b60008183111561295257508061081d565b508161081d565b6000806129668585612acd565b509050600080846001600160a01b0316630902f1ac6040518163ffffffff1660e01b8152600401606060405180830381865afa1580156129aa573d6000803e3d6000fd5b505050506040513d601f19601f820116820180604052508101906129ce91906132ea565b5091509150866001600160a01b0316836001600160a01b0316146129ee57905b600080612a0e8a856001600160701b0316856001600160701b0316612afe565b9050886001600160a01b0316856001600160a01b031614612a2b57905b612a3f6001600160a01b038a16888c612b4c565b6040805160008152602081019182905263022c0d9f60e01b9091526001600160a01b0388169063022c0d9f90612a7e908590859030906024810161333a565b600060405180830381600087803b158015612a9857600080fd5b505af1158015612aac573d6000803e3d6000fd5b50505050818111612abd5781612abf565b805b9a9950505050505050505050565b600080826001600160a01b0316846001600160a01b031610612af0578284612af3565b83835b915091509250929050565b600080612b0d856103e5611db3565b90506000612b1b8285611db3565b90506000612b3583612b2f886103e8611db3565b90611b3a565b9050612b418282611dbf565b979650505050505050565b611fd58363a9059cbb60e01b8484604051602401612b6b9291906130c0565b60408051601f198184030181529190526020810180516001600160e01b03166001600160e01b0319909316929092179091526000612bf2826040518060400160405280602081526020017f5361666545524332303a206c6f772d6c6576656c2063616c6c206661696c6564815250856001600160a01b0316612c6f9092919063ffffffff16565b805190915015611fd55780806020019051810190612c1091906130d9565b611fd55760405162461bcd60e51b815260206004820152602a60248201527f5361666545524332303a204552433230206f7065726174696f6e20646964206e6044820152691bdd081cdd58d8d9595960b21b6064820152608401610984565b6060612c7e8484600085612c86565b949350505050565b606082471015612ce75760405162461bcd60e51b815260206004820152602660248201527f416464726573733a20696e73756666696369656e742062616c616e636520666f6044820152651c8818d85b1b60d21b6064820152608401610984565b6001600160a01b0385163b612d3e5760405162461bcd60e51b815260206004820152601d60248201527f416464726573733a2063616c6c20746f206e6f6e2d636f6e74726163740000006044820152606401610984565b600080866001600160a01b03168587604051612d5a9190613371565b60006040518083038185875af1925050503d8060008114612d97576040519150601f19603f3d011682016040523d82523d6000602084013e612d9c565b606091505b5091509150612b4182828660608315612db657508161090f565b825115612dc65782518084602001fd5b8160405162461bcd60e51b81526004016109849190612e38565b60005b83811015612dfb578181015183820152602001612de3565b838111156115d75750506000910152565b60008151808452612e24816020860160208601612de0565b601f01601f19169290920160200192915050565b60208152600061090f6020830184612e0c565b80356001600160a01b0381168114612e6257600080fd5b919050565b60008060408385031215612e7a57600080fd5b612e8383612e4b565b946020939093013593505050565b600080600060608486031215612ea657600080fd5b612eaf84612e4b565b9250612ebd60208501612e4b565b9150604084013590509250925092565b600060208284031215612edf57600080fd5b5035919050565b600060208284031215612ef857600080fd5b61090f82612e4b565b803560ff81168114612e6257600080fd5b600080600080600060a08688031215612f2a57600080fd5b8535945060208601359350612f4160408701612f01565b94979396509394606081013594506080013592915050565b80151581146115e757600080fd5b600060208284031215612f7957600080fd5b813561090f81612f59565b60008060408385031215612f9757600080fd5b612fa083612e4b565b9150612fae60208401612e4b565b90509250929050565b60008060408385031215612fca57600080fd5b823591506020830135612fdc81612f59565b809150509250929050565b600080600080600080600060e0888a03121561300257600080fd5b61300b88612e4b565b965061301960208901612e4b565b9550604088013594506060880135935061303560808901612f01565b925060a0880135915060c0880135905092959891949750929550565b600181811c9082168061306557607f821691505b60208210810361308557634e487b7160e01b600052602260045260246000fd5b50919050565b6020808252818101527f4f776e61626c653a2063616c6c6572206973206e6f7420746865206f776e6572604082015260600190565b6001600160a01b03929092168252602082015260400190565b6000602082840312156130eb57600080fd5b815161090f81612f59565b60006020828403121561310857600080fd5b5051919050565b634e487b7160e01b600052601160045260246000fd5b6000600182016131375761313761310f565b5060010190565b600080835481600182811c91508083168061315a57607f831692505b6020808410820361317957634e487b7160e01b86526022600452602486fd5b81801561318d576001811461319e576131cb565b60ff198616895284890196506131cb565b60008a81526020902060005b868110156131c35781548b8201529085019083016131aa565b505084890196505b509498975050505050505050565b600082198211156131ec576131ec61310f565b500190565b600081600019048311821515161561320b5761320b61310f565b500290565b60008261322d57634e487b7160e01b600052601260045260246000fd5b500490565b6000828210156132445761324461310f565b500390565b600080600080600080600060e0888a03121561326457600080fd5b5050855160208701516040880151606089015160808a015160a08b015160c0909b0151949c939b50919990985090965094509092509050565b600080600080608085870312156132b357600080fd5b505082516020840151604085015160609095015191969095509092509050565b80516001600160701b0381168114612e6257600080fd5b6000806000606084860312156132ff57600080fd5b613308846132d3565b9250613316602085016132d3565b9150604084015163ffffffff8116811461332f57600080fd5b809150509250925092565b84815283602082015260018060a01b03831660408201526080606082015260006133676080830184612e0c565b9695505050505050565b60008251613383818460208701612de0565b919091019291505056fe5f6275726e3a206275726e20616d6f756e74206578636565647320746f74616c20737570706c797472616e7366657246726f6d3a207472616e7366657220616d6f756e74206578636565647320616c6c6f77616e63655f6275726e3a206275726e20616d6f756e7420657863656564732066726f6d2062616c616e63655f7472616e73666572546f6b656e733a207472616e7366657220657863656564732066726f6d2062616c616e6365a26469706673582212206059feece04cccd348fa2a06914c44de8feb39cf9c1525ea01b4e78190168ca164736f6c634300080d00334f776e61626c653a2063616c6c6572206973206e6f7420746865206f776e65728be0079c531659141344cd1fd0a4f28419497f9722a3daafe3b4186f6b6457e0",
    "linkReferences": {}
  },
  "methodIdentifiers": {
    "ADMIN_FEE_BIPS()": "07677111",
    "DEPOSITS_ENABLED()": "b52a321f",
    "DEV_FEE_BIPS()": "5ea682ea",
    "DOMAIN_TYPEHASH()": "20606b70",
    "MAX_TOKENS_TO_DEPOSIT_WITHOUT_REINVEST()": "789139bc",
    "MIN_TOKENS_TO_REINVEST()": "bd079f55",
    "PERMIT_TYPEHASH()": "30adf81f",
    "REINVEST_REWARD_BIPS()": "8aff733d",
    "VERSION_HASH()": "9e4e7318",
    "allowDepositor(address)": "4bebd1e7",
    "allowance(address,address)": "dd62ed3e",
    "allowedDepositors(address)": "483c2ef0",
    "approve(address,uint256)": "095ea7b3",
    "balanceOf(address)": "70a08231",
    "checkReward()": "c4b24a46",
    "decimals()": "313ce567",
    "deposit(uint256)": "b6b55f25",
    "depositFor(address,uint256)": "2f4f21e2",
    "depositToken()": "c89039c5",
    "depositWithPermit(uint256,uint256,uint8,bytes32,bytes32)": "4a970be7",
    "devAddr()": "da09c72c",
    "estimateDeployedBalance()": "0f23475d",
    "estimateReinvestReward()": "b9e57b80",
    "getDepositTokensForShares(uint256)": "eab89a5a",
    "getDomainSeparator()": "ed24911d",
    "getSharesForDepositTokens(uint256)": "dd8ce4d6",
    "name()": "06fdde03",
    "nonces(address)": "7ecebe00",
    "numberOfAllowedDepositors()": "3bdc6e72",
    "owner()": "8da5cb5b",
    "permit(address,address,uint256,uint256,uint8,bytes32,bytes32)": "d505accf",
    "recoverAVAX(uint256)": "4ebb7916",
    "recoverERC20(address,uint256)": "8980f11f",
    "reinvest()": "fdb5a03e",
    "removeDepositor(address)": "8b73e606",
    "renounceOwnership()": "715018a6",
    "rescueDeployedFunds(uint256,bool)": "ac0d31ff",
    "revokeAllowance(address,address)": "7ae26773",
    "rewardToken()": "f7c618c1",
    "stakingContract()": "ee99205c",
    "symbol()": "95d89b41",
    "totalDeposits()": "7d882097",
    "totalSupply()": "18160ddd",
    "transfer(address,uint256)": "a9059cbb",
    "transferFrom(address,address,uint256)": "23b872dd",
    "transferOwnership(address)": "f2fde38b",
    "updateAdminFee(uint256)": "cff1b6ef",
    "updateDepositsEnabled(bool)": "4e77ace5",
    "updateDevAddr(address)": "9291d563",
    "updateDevFee(uint256)": "99729ec1",
    "updateMaxTokensToDepositWithoutReinvest(uint256)": "e21ac825",
    "updateMinTokensToReinvest(uint256)": "81837230",
    "updateReinvestReward(uint256)": "a8ae2b7c",
    "withdraw(uint256)": "2e1a7d4d"
  },
  "id": 111
}