{
  "abi": [
    {
      "inputs": [
        {
          "internalType": "string",
          "name": "_name",
          "type": "string"
        },
        {
          "internalType": "address",
          "name": "_depositToken",
          "type": "address"
        },
        {
          "internalType": "address",
          "name": "_rewardController",
          "type": "address"
        },
        {
          "internalType": "address",
          "name": "_tokenDelegator",
          "type": "address"
        },
        {
          "internalType": "address",
          "name": "_rewardToken0",
          "type": "address"
        },
        {
          "internalType": "address",
          "name": "_rewardToken1",
          "type": "address"
        },
        {
          "internalType": "address",
          "name": "_swapPairToken0",
          "type": "address"
        },
        {
          "internalType": "address",
          "name": "_swapPairToken1",
          "type": "address"
        },
        {
          "internalType": "address",
          "name": "_timelock",
          "type": "address"
        },
        {
          "components": [
            {
              "internalType": "uint256",
              "name": "leverageLevel",
              "type": "uint256"
            },
            {
              "internalType": "uint256",
              "name": "leverageBips",
              "type": "uint256"
            },
            {
              "internalType": "uint256",
              "name": "minMinting",
              "type": "uint256"
            }
          ],
          "internalType": "struct BenqiStrategyV3.LeverageSettings",
          "name": "_leverageSettings",
          "type": "tuple"
        },
        {
          "components": [
            {
              "internalType": "uint256",
              "name": "minTokensToReinvest",
              "type": "uint256"
            },
            {
              "internalType": "uint256",
              "name": "devFeeBips",
              "type": "uint256"
            },
            {
              "internalType": "uint256",
              "name": "reinvestRewardBips",
              "type": "uint256"
            }
          ],
          "internalType": "struct YakStrategyV2.StrategySettings",
          "name": "_strategySettings",
          "type": "tuple"
        }
      ],
      "stateMutability": "nonpayable",
      "type": "constructor"
    },
    {
      "anonymous": false,
      "inputs": [
        {
          "indexed": true,
          "internalType": "address",
          "name": "account",
          "type": "address"
        }
      ],
      "name": "AllowDepositor",
      "type": "event"
    },
    {
      "anonymous": false,
      "inputs": [
        {
          "indexed": true,
          "internalType": "address",
          "name": "owner",
          "type": "address"
        },
        {
          "indexed": true,
          "internalType": "address",
          "name": "spender",
          "type": "address"
        },
        {
          "indexed": false,
          "internalType": "uint256",
          "name": "value",
          "type": "uint256"
        }
      ],
      "name": "Approval",
      "type": "event"
    },
    {
      "anonymous": false,
      "inputs": [
        {
          "indexed": true,
          "internalType": "address",
          "name": "account",
          "type": "address"
        },
        {
          "indexed": false,
          "internalType": "uint256",
          "name": "amount",
          "type": "uint256"
        }
      ],
      "name": "Deposit",
      "type": "event"
    },
    {
      "anonymous": false,
      "inputs": [
        {
          "indexed": false,
          "internalType": "bool",
          "name": "newValue",
          "type": "bool"
        }
      ],
      "name": "DepositsEnabled",
      "type": "event"
    },
    {
      "anonymous": false,
      "inputs": [
        {
          "indexed": true,
          "internalType": "address",
          "name": "previousOwner",
          "type": "address"
        },
        {
          "indexed": true,
          "internalType": "address",
          "name": "newOwner",
          "type": "address"
        }
      ],
      "name": "OwnershipTransferred",
      "type": "event"
    },
    {
      "anonymous": false,
      "inputs": [
        {
          "indexed": false,
          "internalType": "address",
          "name": "token",
          "type": "address"
        },
        {
          "indexed": false,
          "internalType": "uint256",
          "name": "amount",
          "type": "uint256"
        }
      ],
      "name": "Recovered",
      "type": "event"
    },
    {
      "anonymous": false,
      "inputs": [
        {
          "indexed": false,
          "internalType": "uint256",
          "name": "newTotalDeposits",
          "type": "uint256"
        },
        {
          "indexed": false,
          "internalType": "uint256",
          "name": "newTotalSupply",
          "type": "uint256"
        }
      ],
      "name": "Reinvest",
      "type": "event"
    },
    {
      "anonymous": false,
      "inputs": [
        {
          "indexed": true,
          "internalType": "address",
          "name": "account",
          "type": "address"
        }
      ],
      "name": "RemoveDepositor",
      "type": "event"
    },
    {
      "anonymous": false,
      "inputs": [
        {
          "indexed": true,
          "internalType": "address",
          "name": "from",
          "type": "address"
        },
        {
          "indexed": true,
          "internalType": "address",
          "name": "to",
          "type": "address"
        },
        {
          "indexed": false,
          "internalType": "uint256",
          "name": "value",
          "type": "uint256"
        }
      ],
      "name": "Transfer",
      "type": "event"
    },
    {
      "anonymous": false,
      "inputs": [
        {
          "indexed": false,
          "internalType": "uint256",
          "name": "oldValue",
          "type": "uint256"
        },
        {
          "indexed": false,
          "internalType": "uint256",
          "name": "newValue",
          "type": "uint256"
        }
      ],
      "name": "UpdateAdminFee",
      "type": "event"
    },
    {
      "anonymous": false,
      "inputs": [
        {
          "indexed": false,
          "internalType": "address",
          "name": "oldValue",
          "type": "address"
        },
        {
          "indexed": false,
          "internalType": "address",
          "name": "newValue",
          "type": "address"
        }
      ],
      "name": "UpdateDevAddr",
      "type": "event"
    },
    {
      "anonymous": false,
      "inputs": [
        {
          "indexed": false,
          "internalType": "uint256",
          "name": "oldValue",
          "type": "uint256"
        },
        {
          "indexed": false,
          "internalType": "uint256",
          "name": "newValue",
          "type": "uint256"
        }
      ],
      "name": "UpdateDevFee",
      "type": "event"
    },
    {
      "anonymous": false,
      "inputs": [
        {
          "indexed": false,
          "internalType": "uint256",
          "name": "oldValue",
          "type": "uint256"
        },
        {
          "indexed": false,
          "internalType": "uint256",
          "name": "newValue",
          "type": "uint256"
        }
      ],
      "name": "UpdateMaxTokensToDepositWithoutReinvest",
      "type": "event"
    },
    {
      "anonymous": false,
      "inputs": [
        {
          "indexed": false,
          "internalType": "uint256",
          "name": "oldValue",
          "type": "uint256"
        },
        {
          "indexed": false,
          "internalType": "uint256",
          "name": "newValue",
          "type": "uint256"
        }
      ],
      "name": "UpdateMinTokensToReinvest",
      "type": "event"
    },
    {
      "anonymous": false,
      "inputs": [
        {
          "indexed": false,
          "internalType": "uint256",
          "name": "oldValue",
          "type": "uint256"
        },
        {
          "indexed": false,
          "internalType": "uint256",
          "name": "newValue",
          "type": "uint256"
        }
      ],
      "name": "UpdateReinvestReward",
      "type": "event"
    },
    {
      "anonymous": false,
      "inputs": [
        {
          "indexed": true,
          "internalType": "address",
          "name": "account",
          "type": "address"
        },
        {
          "indexed": false,
          "internalType": "uint256",
          "name": "amount",
          "type": "uint256"
        }
      ],
      "name": "Withdraw",
      "type": "event"
    },
    {
      "inputs": [],
      "name": "ADMIN_FEE_BIPS",
      "outputs": [
        {
          "internalType": "uint256",
          "name": "",
          "type": "uint256"
        }
      ],
      "stateMutability": "view",
      "type": "function"
    },
    {
      "inputs": [],
      "name": "DEPOSITS_ENABLED",
      "outputs": [
        {
          "internalType": "bool",
          "name": "",
          "type": "bool"
        }
      ],
      "stateMutability": "view",
      "type": "function"
    },
    {
      "inputs": [],
      "name": "DEV_FEE_BIPS",
      "outputs": [
        {
          "internalType": "uint256",
          "name": "",
          "type": "uint256"
        }
      ],
      "stateMutability": "view",
      "type": "function"
    },
    {
      "inputs": [],
      "name": "DOMAIN_TYPEHASH",
      "outputs": [
        {
          "internalType": "bytes32",
          "name": "",
          "type": "bytes32"
        }
      ],
      "stateMutability": "view",
      "type": "function"
    },
    {
      "inputs": [],
      "name": "MAX_TOKENS_TO_DEPOSIT_WITHOUT_REINVEST",
      "outputs": [
        {
          "internalType": "uint256",
          "name": "",
          "type": "uint256"
        }
      ],
      "stateMutability": "view",
      "type": "function"
    },
    {
      "inputs": [],
      "name": "MIN_TOKENS_TO_REINVEST",
      "outputs": [
        {
          "internalType": "uint256",
          "name": "",
          "type": "uint256"
        }
      ],
      "stateMutability": "view",
      "type": "function"
    },
    {
      "inputs": [],
      "name": "PERMIT_TYPEHASH",
      "outputs": [
        {
          "internalType": "bytes32",
          "name": "",
          "type": "bytes32"
        }
      ],
      "stateMutability": "view",
      "type": "function"
    },
    {
      "inputs": [],
      "name": "REINVEST_REWARD_BIPS",
      "outputs": [
        {
          "internalType": "uint256",
          "name": "",
          "type": "uint256"
        }
      ],
      "stateMutability": "view",
      "type": "function"
    },
    {
      "inputs": [],
      "name": "VERSION_HASH",
      "outputs": [
        {
          "internalType": "bytes32",
          "name": "",
          "type": "bytes32"
        }
      ],
      "stateMutability": "view",
      "type": "function"
    },
    {
      "inputs": [
        {
          "internalType": "address",
          "name": "depositor",
          "type": "address"
        }
      ],
      "name": "allowDepositor",
      "outputs": [],
      "stateMutability": "nonpayable",
      "type": "function"
    },
    {
      "inputs": [
        {
          "internalType": "address",
          "name": "account",
          "type": "address"
        },
        {
          "internalType": "address",
          "name": "spender",
          "type": "address"
        }
      ],
      "name": "allowance",
      "outputs": [
        {
          "internalType": "uint256",
          "name": "",
          "type": "uint256"
        }
      ],
      "stateMutability": "view",
      "type": "function"
    },
    {
      "inputs": [
        {
          "internalType": "address",
          "name": "",
          "type": "address"
        }
      ],
      "name": "allowedDepositors",
      "outputs": [
        {
          "internalType": "bool",
          "name": "",
          "type": "bool"
        }
      ],
      "stateMutability": "view",
      "type": "function"
    },
    {
      "inputs": [
        {
          "internalType": "address",
          "name": "spender",
          "type": "address"
        },
        {
          "internalType": "uint256",
          "name": "amount",
          "type": "uint256"
        }
      ],
      "name": "approve",
      "outputs": [
        {
          "internalType": "bool",
          "name": "",
          "type": "bool"
        }
      ],
      "stateMutability": "nonpayable",
      "type": "function"
    },
    {
      "inputs": [
        {
          "internalType": "address",
          "name": "account",
          "type": "address"
        }
      ],
      "name": "balanceOf",
      "outputs": [
        {
          "internalType": "uint256",
          "name": "",
          "type": "uint256"
        }
      ],
      "stateMutability": "view",
      "type": "function"
    },
    {
      "inputs": [],
      "name": "checkReward",
      "outputs": [
        {
          "internalType": "uint256",
          "name": "",
          "type": "uint256"
        }
      ],
      "stateMutability": "view",
      "type": "function"
    },
    {
      "inputs": [],
      "name": "decimals",
      "outputs": [
        {
          "internalType": "uint8",
          "name": "",
          "type": "uint8"
        }
      ],
      "stateMutability": "view",
      "type": "function"
    },
    {
      "inputs": [
        {
          "internalType": "uint256",
          "name": "amount",
          "type": "uint256"
        }
      ],
      "name": "deposit",
      "outputs": [],
      "stateMutability": "nonpayable",
      "type": "function"
    },
    {
      "inputs": [
        {
          "internalType": "address",
          "name": "account",
          "type": "address"
        },
        {
          "internalType": "uint256",
          "name": "amount",
          "type": "uint256"
        }
      ],
      "name": "depositFor",
      "outputs": [],
      "stateMutability": "nonpayable",
      "type": "function"
    },
    {
      "inputs": [],
      "name": "depositToken",
      "outputs": [
        {
          "internalType": "contract IERC20",
          "name": "",
          "type": "address"
        }
      ],
      "stateMutability": "view",
      "type": "function"
    },
    {
      "inputs": [
        {
          "internalType": "uint256",
          "name": "amount",
          "type": "uint256"
        },
        {
          "internalType": "uint256",
          "name": "deadline",
          "type": "uint256"
        },
        {
          "internalType": "uint8",
          "name": "v",
          "type": "uint8"
        },
        {
          "internalType": "bytes32",
          "name": "r",
          "type": "bytes32"
        },
        {
          "internalType": "bytes32",
          "name": "s",
          "type": "bytes32"
        }
      ],
      "name": "depositWithPermit",
      "outputs": [],
      "stateMutability": "nonpayable",
      "type": "function"
    },
    {
      "inputs": [],
      "name": "devAddr",
      "outputs": [
        {
          "internalType": "address",
          "name": "",
          "type": "address"
        }
      ],
      "stateMutability": "view",
      "type": "function"
    },
    {
      "inputs": [],
      "name": "estimateDeployedBalance",
      "outputs": [
        {
          "internalType": "uint256",
          "name": "",
          "type": "uint256"
        }
      ],
      "stateMutability": "view",
      "type": "function"
    },
    {
      "inputs": [],
      "name": "estimateReinvestReward",
      "outputs": [
        {
          "internalType": "uint256",
          "name": "",
          "type": "uint256"
        }
      ],
      "stateMutability": "view",
      "type": "function"
    },
    {
      "inputs": [],
      "name": "getActualLeverage",
      "outputs": [
        {
          "internalType": "uint256",
          "name": "",
          "type": "uint256"
        }
      ],
      "stateMutability": "view",
      "type": "function"
    },
    {
      "inputs": [
        {
          "internalType": "uint256",
          "name": "amount",
          "type": "uint256"
        }
      ],
      "name": "getDepositTokensForShares",
      "outputs": [
        {
          "internalType": "uint256",
          "name": "",
          "type": "uint256"
        }
      ],
      "stateMutability": "view",
      "type": "function"
    },
    {
      "inputs": [],
      "name": "getDomainSeparator",
      "outputs": [
        {
          "internalType": "bytes32",
          "name": "",
          "type": "bytes32"
        }
      ],
      "stateMutability": "view",
      "type": "function"
    },
    {
      "inputs": [
        {
          "internalType": "uint256",
          "name": "amount",
          "type": "uint256"
        }
      ],
      "name": "getSharesForDepositTokens",
      "outputs": [
        {
          "internalType": "uint256",
          "name": "",
          "type": "uint256"
        }
      ],
      "stateMutability": "view",
      "type": "function"
    },
    {
      "inputs": [],
      "name": "name",
      "outputs": [
        {
          "internalType": "string",
          "name": "",
          "type": "string"
        }
      ],
      "stateMutability": "view",
      "type": "function"
    },
    {
      "inputs": [
        {
          "internalType": "address",
          "name": "",
          "type": "address"
        }
      ],
      "name": "nonces",
      "outputs": [
        {
          "internalType": "uint256",
          "name": "",
          "type": "uint256"
        }
      ],
      "stateMutability": "view",
      "type": "function"
    },
    {
      "inputs": [],
      "name": "numberOfAllowedDepositors",
      "outputs": [
        {
          "internalType": "uint256",
          "name": "",
          "type": "uint256"
        }
      ],
      "stateMutability": "view",
      "type": "function"
    },
    {
      "inputs": [],
      "name": "owner",
      "outputs": [
        {
          "internalType": "address",
          "name": "",
          "type": "address"
        }
      ],
      "stateMutability": "view",
      "type": "function"
    },
    {
      "inputs": [
        {
          "internalType": "address",
          "name": "owner",
          "type": "address"
        },
        {
          "internalType": "address",
          "name": "spender",
          "type": "address"
        },
        {
          "internalType": "uint256",
          "name": "value",
          "type": "uint256"
        },
        {
          "internalType": "uint256",
          "name": "deadline",
          "type": "uint256"
        },
        {
          "internalType": "uint8",
          "name": "v",
          "type": "uint8"
        },
        {
          "internalType": "bytes32",
          "name": "r",
          "type": "bytes32"
        },
        {
          "internalType": "bytes32",
          "name": "s",
          "type": "bytes32"
        }
      ],
      "name": "permit",
      "outputs": [],
      "stateMutability": "nonpayable",
      "type": "function"
    },
    {
      "inputs": [
        {
          "internalType": "uint256",
          "name": "amount",
          "type": "uint256"
        }
      ],
      "name": "recoverAVAX",
      "outputs": [],
      "stateMutability": "nonpayable",
      "type": "function"
    },
    {
      "inputs": [
        {
          "internalType": "address",
          "name": "tokenAddress",
          "type": "address"
        },
        {
          "internalType": "uint256",
          "name": "tokenAmount",
          "type": "uint256"
        }
      ],
      "name": "recoverERC20",
      "outputs": [],
      "stateMutability": "nonpayable",
      "type": "function"
    },
    {
      "inputs": [],
      "name": "reinvest",
      "outputs": [],
      "stateMutability": "nonpayable",
      "type": "function"
    },
    {
      "inputs": [
        {
          "internalType": "address",
          "name": "depositor",
          "type": "address"
        }
      ],
      "name": "removeDepositor",
      "outputs": [],
      "stateMutability": "nonpayable",
      "type": "function"
    },
    {
      "inputs": [],
      "name": "renounceOwnership",
      "outputs": [],
      "stateMutability": "nonpayable",
      "type": "function"
    },
    {
      "inputs": [
        {
          "internalType": "uint256",
          "name": "minReturnAmountAccepted",
          "type": "uint256"
        },
        {
          "internalType": "bool",
          "name": "",
          "type": "bool"
        }
      ],
      "name": "rescueDeployedFunds",
      "outputs": [],
      "stateMutability": "nonpayable",
      "type": "function"
    },
    {
      "inputs": [
        {
          "internalType": "address",
          "name": "token",
          "type": "address"
        },
        {
          "internalType": "address",
          "name": "spender",
          "type": "address"
        }
      ],
      "name": "revokeAllowance",
      "outputs": [],
      "stateMutability": "nonpayable",
      "type": "function"
    },
    {
      "inputs": [],
      "name": "rewardToken",
      "outputs": [
        {
          "internalType": "contract IERC20",
          "name": "",
          "type": "address"
        }
      ],
      "stateMutability": "view",
      "type": "function"
    },
    {
      "inputs": [],
      "name": "symbol",
      "outputs": [
        {
          "internalType": "string",
          "name": "",
          "type": "string"
        }
      ],
      "stateMutability": "view",
      "type": "function"
    },
    {
      "inputs": [],
      "name": "totalDeposits",
      "outputs": [
        {
          "internalType": "uint256",
          "name": "",
          "type": "uint256"
        }
      ],
      "stateMutability": "view",
      "type": "function"
    },
    {
      "inputs": [],
      "name": "totalSupply",
      "outputs": [
        {
          "internalType": "uint256",
          "name": "",
          "type": "uint256"
        }
      ],
      "stateMutability": "view",
      "type": "function"
    },
    {
      "inputs": [
        {
          "internalType": "address",
          "name": "dst",
          "type": "address"
        },
        {
          "internalType": "uint256",
          "name": "amount",
          "type": "uint256"
        }
      ],
      "name": "transfer",
      "outputs": [
        {
          "internalType": "bool",
          "name": "",
          "type": "bool"
        }
      ],
      "stateMutability": "nonpayable",
      "type": "function"
    },
    {
      "inputs": [
        {
          "internalType": "address",
          "name": "src",
          "type": "address"
        },
        {
          "internalType": "address",
          "name": "dst",
          "type": "address"
        },
        {
          "internalType": "uint256",
          "name": "amount",
          "type": "uint256"
        }
      ],
      "name": "transferFrom",
      "outputs": [
        {
          "internalType": "bool",
          "name": "",
          "type": "bool"
        }
      ],
      "stateMutability": "nonpayable",
      "type": "function"
    },
    {
      "inputs": [
        {
          "internalType": "address",
          "name": "newOwner",
          "type": "address"
        }
      ],
      "name": "transferOwnership",
      "outputs": [],
      "stateMutability": "nonpayable",
      "type": "function"
    },
    {
      "inputs": [
        {
          "internalType": "uint256",
          "name": "newValue",
          "type": "uint256"
        }
      ],
      "name": "updateAdminFee",
      "outputs": [],
      "stateMutability": "nonpayable",
      "type": "function"
    },
    {
      "inputs": [
        {
          "internalType": "bool",
          "name": "newValue",
          "type": "bool"
        }
      ],
      "name": "updateDepositsEnabled",
      "outputs": [],
      "stateMutability": "nonpayable",
      "type": "function"
    },
    {
      "inputs": [
        {
          "internalType": "address",
          "name": "newValue",
          "type": "address"
        }
      ],
      "name": "updateDevAddr",
      "outputs": [],
      "stateMutability": "nonpayable",
      "type": "function"
    },
    {
      "inputs": [
        {
          "internalType": "uint256",
          "name": "newValue",
          "type": "uint256"
        }
      ],
      "name": "updateDevFee",
      "outputs": [],
      "stateMutability": "nonpayable",
      "type": "function"
    },
    {
      "inputs": [
        {
          "internalType": "uint256",
          "name": "_leverageLevel",
          "type": "uint256"
        },
        {
          "internalType": "uint256",
          "name": "_leverageBips",
          "type": "uint256"
        },
        {
          "internalType": "uint256",
          "name": "_redeemLimitSafetyMargin",
          "type": "uint256"
        }
      ],
      "name": "updateLeverage",
      "outputs": [],
      "stateMutability": "nonpayable",
      "type": "function"
    },
    {
      "inputs": [
        {
          "internalType": "uint256",
          "name": "newValue",
          "type": "uint256"
        }
      ],
      "name": "updateMaxTokensToDepositWithoutReinvest",
      "outputs": [],
      "stateMutability": "nonpayable",
      "type": "function"
    },
    {
      "inputs": [
        {
          "internalType": "uint256",
          "name": "newValue",
          "type": "uint256"
        }
      ],
      "name": "updateMinTokensToReinvest",
      "outputs": [],
      "stateMutability": "nonpayable",
      "type": "function"
    },
    {
      "inputs": [
        {
          "internalType": "uint256",
          "name": "newValue",
          "type": "uint256"
        }
      ],
      "name": "updateReinvestReward",
      "outputs": [],
      "stateMutability": "nonpayable",
      "type": "function"
    },
    {
      "inputs": [
        {
          "internalType": "uint256",
          "name": "amount",
          "type": "uint256"
        }
      ],
      "name": "withdraw",
      "outputs": [],
      "stateMutability": "nonpayable",
      "type": "function"
    },
    {
      "stateMutability": "payable",
      "type": "receive"
    }
  ],
  "bytecode": {
    "object": "0x60c060405260096080819052685969656c642059616b60b81b60a09081526200002c916000919062000d2b565b506040805180820190915260038082526216549560ea1b6020909201918252620000599160019162000d2b565b503480156200006757600080fd5b506040516200658f3803806200658f8339810160408190526200008a9162000e96565b600680546001600160a01b0319163390811790915560405182919081906000906000805160206200654f833981519152908290a3508051620000cc906200025b565b6020810151620000dc90620002eb565b6040810151620000ec90620003a2565b508a51620001029060009060208e019062000d2b565b50600980546001600160a01b03808d166001600160a01b031992831617909255601280548c8416908316179055601380548b8416908316179055601480548a84169083161790556015805492891692821683179055600a805490911690911790556040820151601a558151602080840151620001be9291620001b0906103e8906200019c9084906103de906200217362000459821b17901c565b6200046e60201b6200217f1790919060201c565b601892909255601955601b55565b600b80546001600160a01b031916732d580f9cf2fb2d09bc411532988f2afda4e7beff179055620001ee6200047c565b620001fa85856200054e565b62000206600162000b76565b620002118362000c20565b60408051600080825260208201527fc7606d21ac05cd309191543e409f0845c016120563783d70e4f41419dc0ef234910160405180910390a15050505050505050505050620011fd565b6006546001600160a01b03163314620002aa5760405162461bcd60e51b815260206004820181905260248201526000805160206200652f83398151915260448201526064015b60405180910390fd5b600c5460408051918252602082018390527f481f79ac3a523b6d6db3c5a720e190e986d1cc1b41adcdf50f9caef849901100910160405180910390a1600c55565b6006546001600160a01b03163314620003365760405162461bcd60e51b815260206004820181905260248201526000805160206200652f8339815191526044820152606401620002a1565b612710620003556010548362000d1d60201b6200218b1790919060201c565b11156200036157600080fd5b60115460408051918252602082018390527f2a42303d002f0ba6cfe8259c91d4684443fb0b3de286ba74991175d651726131910160405180910390a1601155565b6006546001600160a01b03163314620003ed5760405162461bcd60e51b815260206004820181905260248201526000805160206200652f8339815191526044820152606401620002a1565b6127106200040c6011548362000d1d60201b6200218b1790919060201c565b11156200041857600080fd5b60105460408051918252602082018390527fe7f97d51d307dc44045597c9978bec0f842e6bb40d19b9444084cfa30d9ed4f2910160405180910390a1601055565b60006200046782846200102e565b9392505050565b600062000467828462001050565b60408051600180825281830190925260009160208083019080368337505060135482519293506001600160a01b031691839150600090620004c157620004c162001073565b6001600160a01b039283166020918202929092010152601254604051631853304760e31b815291169063c2998238906200050090849060040162001089565b6000604051808303816000875af115801562000520573d6000803e3d6000fd5b505050506040513d6000823e601f3d908101601f191682016040526200054a9190810190620010d8565b5050565b6001600160a01b038216620005b85760405162461bcd60e51b815260206004820152602960248201527f5377617020706169722030206973206e656365737361727920627574206e6f74604482015268081cdd5c1c1b1a595960ba1b6064820152608401620002a1565b6001600160a01b038116620006225760405162461bcd60e51b815260206004820152602960248201527f5377617020706169722031206973206e656365737361727920627574206e6f74604482015268081cdd5c1c1b1a595960ba1b6064820152608401620002a1565b816001600160a01b0316630dfe16816040518163ffffffff1660e01b8152600401602060405180830381865afa15801562000661573d6000803e3d6000fd5b505050506040513d601f19601f8201168201806040525081019062000687919062001188565b6014546001600160a01b0390811691161480620007165750816001600160a01b031663d21220a76040518163ffffffff1660e01b8152600401602060405180830381865afa158015620006de573d6000803e3d6000fd5b505050506040513d601f19601f8201168201806040525081019062000704919062001188565b6014546001600160a01b039081169116145b620007635760405162461bcd60e51b815260206004820152602760248201526000805160206200656f833981519152604482015266064546f6b656e360cc1b6064820152608401620002a1565b816001600160a01b0316630dfe16816040518163ffffffff1660e01b8152600401602060405180830381865afa158015620007a2573d6000803e3d6000fd5b505050506040513d601f19601f82011682018060405250810190620007c8919062001188565b6015546001600160a01b0390811691161480620008575750816001600160a01b031663d21220a76040518163ffffffff1660e01b8152600401602060405180830381865afa1580156200081f573d6000803e3d6000fd5b505050506040513d601f19601f8201168201806040525081019062000845919062001188565b6015546001600160a01b039081169116145b620008a45760405162461bcd60e51b815260206004820152602760248201526000805160206200656f83398151915260448201526664546f6b656e3160c81b6064820152608401620002a1565b806001600160a01b0316630dfe16816040518163ffffffff1660e01b8152600401602060405180830381865afa158015620008e3573d6000803e3d6000fd5b505050506040513d601f19601f8201168201806040525081019062000909919062001188565b6009546001600160a01b0390811691161480620009985750806001600160a01b031663d21220a76040518163ffffffff1660e01b8152600401602060405180830381865afa15801562000960573d6000803e3d6000fd5b505050506040513d601f19601f8201168201806040525081019062000986919062001188565b6009546001600160a01b039081169116145b620009f65760405162461bcd60e51b815260206004820152602760248201527f537761702070616972203120646f6573206e6f74206d61746368206465706f7360448201526634ba2a37b5b2b760c91b6064820152608401620002a1565b806001600160a01b0316630dfe16816040518163ffffffff1660e01b8152600401602060405180830381865afa15801562000a35573d6000803e3d6000fd5b505050506040513d601f19601f8201168201806040525081019062000a5b919062001188565b6015546001600160a01b039081169116148062000aea5750806001600160a01b031663d21220a76040518163ffffffff1660e01b8152600401602060405180830381865afa15801562000ab2573d6000803e3d6000fd5b505050506040513d601f19601f8201168201806040525081019062000ad8919062001188565b6015546001600160a01b039081169116145b62000b485760405162461bcd60e51b815260206004820152602760248201527f537761702070616972203120646f6573206e6f74206d6174636820726577617260448201526664546f6b656e3160c81b6064820152608401620002a1565b601680546001600160a01b039384166001600160a01b03199182161790915560178054929093169116179055565b6006546001600160a01b0316331462000bc15760405162461bcd60e51b815260206004820181905260248201526000805160206200652f8339815191526044820152606401620002a1565b600e5481151560ff90911615150362000bd957600080fd5b600e805460ff19168215159081179091556040519081527f7b014ed3854e7f5cb0218d58b3c6ae7d53a68bb0af2f67bfb029ea42c38a7e859060200160405180910390a150565b6006546001600160a01b0316331462000c6b5760405162461bcd60e51b815260206004820181905260248201526000805160206200652f8339815191526044820152606401620002a1565b6001600160a01b03811662000cd25760405162461bcd60e51b815260206004820152602660248201527f4f776e61626c653a206e6577206f776e657220697320746865207a65726f206160448201526564647265737360d01b6064820152608401620002a1565b6006546040516001600160a01b038084169216906000805160206200654f83398151915290600090a3600680546001600160a01b0319166001600160a01b0392909216919091179055565b6000620004678284620011a6565b82805462000d3990620011c1565b90600052602060002090601f01602090048101928262000d5d576000855562000da8565b82601f1062000d7857805160ff191683800117855562000da8565b8280016001018555821562000da8579182015b8281111562000da857825182559160200191906001019062000d8b565b5062000db692915062000dba565b5090565b5b8082111562000db6576000815560010162000dbb565b634e487b7160e01b600052604160045260246000fd5b604051601f8201601f191681016001600160401b038111828210171562000e125762000e1262000dd1565b604052919050565b80516001600160a01b038116811462000e3257600080fd5b919050565b60006060828403121562000e4a57600080fd5b604051606081016001600160401b038111828210171562000e6f5762000e6f62000dd1565b80604052508091508251815260208301516020820152604083015160408201525092915050565b60008060008060008060008060008060006101e08c8e03121562000eb957600080fd5b8b516001600160401b038082111562000ed157600080fd5b818e0191508e601f83011262000ee657600080fd5b81518181111562000efb5762000efb62000dd1565b62000f10601f8201601f191660200162000de7565b91508082528f602082850101111562000f2857600080fd5b60005b8181101562000f495760208185018101518483018201520162000f2b565b8181111562000f5c576000602083850101525b5050809c50505062000f7160208d0162000e1a565b995062000f8160408d0162000e1a565b985062000f9160608d0162000e1a565b975062000fa160808d0162000e1a565b965062000fb160a08d0162000e1a565b955062000fc160c08d0162000e1a565b945062000fd160e08d0162000e1a565b935062000fe26101008d0162000e1a565b925062000ff48d6101208e0162000e37565b9150620010068d6101808e0162000e37565b90509295989b509295989b9093969950565b634e487b7160e01b600052601160045260246000fd5b60008160001904831182151516156200104b576200104b62001018565b500290565b6000826200106e57634e487b7160e01b600052601260045260246000fd5b500490565b634e487b7160e01b600052603260045260246000fd5b6020808252825182820181905260009190848201906040850190845b81811015620010cc5783516001600160a01b031683529284019291840191600101620010a5565b50909695505050505050565b60006020808385031215620010ec57600080fd5b82516001600160401b03808211156200110457600080fd5b818501915085601f8301126200111957600080fd5b8151818111156200112e576200112e62000dd1565b8060051b91506200114184830162000de7565b81815291830184019184810190888411156200115c57600080fd5b938501935b838510156200117c5784518252938501939085019062001161565b98975050505050505050565b6000602082840312156200119b57600080fd5b620004678262000e1a565b60008219821115620011bc57620011bc62001018565b500190565b600181811c90821680620011d657607f821691505b602082108103620011f757634e487b7160e01b600052602260045260246000fd5b50919050565b615322806200120d6000396000f3fe6080604052600436106103545760003560e01c80638b73e606116101c6578063c89039c5116100f7578063dd8ce4d611610095578063ed24911d1161006f578063ed24911d14610a6b578063f2fde38b14610a80578063f7c618c114610aa0578063fdb5a03e14610ac057600080fd5b8063dd8ce4d614610a0b578063e21ac82514610a2b578063eab89a5a14610a4b57600080fd5b8063d6ec2a49116100d1578063d6ec2a4914610970578063da09c72c14610990578063db8dd95c146109b0578063dd62ed3e146109c557600080fd5b8063c89039c514610910578063cff1b6ef14610930578063d505accf1461095057600080fd5b8063a9059cbb11610164578063b6b55f251161013e578063b6b55f25146108b0578063b9e57b80146108d0578063bd079f55146108e5578063c4b24a46146108fb57600080fd5b8063a9059cbb14610856578063ac0d31ff14610876578063b52a321f1461089657600080fd5b806395d89b41116101a057806395d89b41146107cd57806399729ec1146107e25780639e4e731814610802578063a8ae2b7c1461083657600080fd5b80638b73e6061461075b5780638da5cb5b1461077b5780639291d563146107ad57600080fd5b80634a970be7116102a0578063789139bc1161023e5780637ecebe00116102185780637ecebe00146106d857806381837230146107055780638980f11f146107255780638aff733d1461074557600080fd5b8063789139bc1461068d5780637ae26773146106a35780637d882097146106c357600080fd5b80634ebb79161161027a5780634ebb79161461060c5780635ea682ea1461062c57806370a0823114610642578063715018a61461067857600080fd5b80634a970be7146105ac5780634bebd1e7146105cc5780634e77ace5146105ec57600080fd5b806323b872dd1161030d57806330adf81f116102e757806330adf81f1461050b578063313ce5671461053f5780633bdc6e7214610566578063483c2ef01461057c57600080fd5b806323b872dd146104ab5780632e1a7d4d146104cb5780632f4f21e2146104eb57600080fd5b806306fdde03146103cd57806307677111146103f8578063095ea7b31461041c5780630f23475d1461044c57806318160ddd1461046157806320606b701461047757600080fd5b366103c8576012546001600160a01b031633146103c65760405162461bcd60e51b815260206004820152602560248201527f42656e7169537472617465677956333a3a7061796d656e7473206e6f7420616c6044820152641b1bddd95960da1b60648201526084015b60405180910390fd5b005b600080fd5b3480156103d957600080fd5b506103e2610ad5565b6040516103ef9190614bdf565b60405180910390f35b34801561040457600080fd5b5061040e600f5481565b6040519081526020016103ef565b34801561042857600080fd5b5061043c610437366004614c0e565b610b63565b60405190151581526020016103ef565b34801561045857600080fd5b5061040e610b79565b34801561046d57600080fd5b5061040e60025481565b34801561048357600080fd5b5061040e7f8b73c3c69bb8fe3d512ecc4cf759cc79239f7b179b0ffacaa9a75d522b39400f81565b3480156104b757600080fd5b5061043c6104c6366004614c38565b610b88565b3480156104d757600080fd5b506103c66104e6366004614c74565b610c6c565b3480156104f757600080fd5b506103c6610506366004614c0e565b610d41565b34801561051757600080fd5b5061040e7f6e71edae12b1b97f4d1f60370fef10105fa2faae0126114a169c64845d6126c981565b34801561054b57600080fd5b50610554601281565b60405160ff90911681526020016103ef565b34801561057257600080fd5b5061040e60075481565b34801561058857600080fd5b5061043c610597366004614c8d565b60086020526000908152604090205460ff1681565b3480156105b857600080fd5b506103c66105c7366004614cb9565b610d4f565b3480156105d857600080fd5b506103c66105e7366004614c8d565b610de8565b3480156105f857600080fd5b506103c6610607366004614d0e565b610ee7565b34801561061857600080fd5b506103c6610627366004614c74565b610f70565b34801561063857600080fd5b5061040e60115481565b34801561064e57600080fd5b5061040e61065d366004614c8d565b6001600160a01b031660009081526004602052604090205490565b34801561068457600080fd5b506103c6611007565b34801561069957600080fd5b5061040e600d5481565b3480156106af57600080fd5b506103c66106be366004614d2b565b61107b565b3480156106cf57600080fd5b5061040e611120565b3480156106e457600080fd5b5061040e6106f3366004614c8d565b60056020526000908152604090205481565b34801561071157600080fd5b506103c6610720366004614c74565b6111c6565b34801561073157600080fd5b506103c6610740366004614c0e565b611231565b34801561075157600080fd5b5061040e60105481565b34801561076757600080fd5b506103c6610776366004614c8d565b61131f565b34801561078757600080fd5b506006546001600160a01b03165b6040516001600160a01b0390911681526020016103ef565b3480156107b957600080fd5b506103c66107c8366004614c8d565b6114a0565b3480156107d957600080fd5b506103e261155a565b3480156107ee57600080fd5b506103c66107fd366004614c74565b611567565b34801561080e57600080fd5b5061040e7fc89efdaa54c0f20c7adf612882df0950f5a951637e0307cdcb4c672f298b8bc681565b34801561084257600080fd5b506103c6610851366004614c74565b6115f5565b34801561086257600080fd5b5061043c610871366004614c0e565b611683565b34801561088257600080fd5b506103c6610891366004614d5e565b611690565b3480156108a257600080fd5b50600e5461043c9060ff1681565b3480156108bc57600080fd5b506103c66108cb366004614c74565b611a34565b3480156108dc57600080fd5b5061040e611a41565b3480156108f157600080fd5b5061040e600c5481565b34801561090757600080fd5b5061040e611a80565b34801561091c57600080fd5b50600954610795906001600160a01b031681565b34801561093c57600080fd5b506103c661094b366004614c74565b611aff565b34801561095c57600080fd5b506103c661096b366004614d8e565b611b75565b34801561097c57600080fd5b506103c661098b366004614df8565b611c7a565b34801561099c57600080fd5b50600b54610795906001600160a01b031681565b3480156109bc57600080fd5b5061040e611df7565b3480156109d157600080fd5b5061040e6109e0366004614d2b565b6001600160a01b03918216600090815260036020908152604080832093909416825291909152205490565b348015610a1757600080fd5b5061040e610a26366004614c74565b611eb7565b348015610a3757600080fd5b506103c6610a46366004614c74565b611ef7565b348015610a5757600080fd5b5061040e610a66366004614c74565b611f62565b348015610a7757600080fd5b5061040e611f96565b348015610a8c57600080fd5b506103c6610a9b366004614c8d565b612036565b348015610aac57600080fd5b50600a54610795906001600160a01b031681565b348015610acc57600080fd5b506103c6612121565b60008054610ae290614e24565b80601f0160208091040260200160405190810160405280929190818152602001828054610b0e90614e24565b8015610b5b5780601f10610b3057610100808354040283529160200191610b5b565b820191906000526020600020905b815481529060010190602001808311610b3e57829003601f168201915b505050505081565b6000610b70338484612197565b50600192915050565b6000610b83611120565b905090565b6001600160a01b038316600081815260036020908152604080832033808552925282205491929091908214801590610bc257506000198114155b15610c53576000610bee856040518060600160405280602f8152602001615269602f91398491906122a5565b6001600160a01b038881166000818152600360209081526040808320948916808452948252918290208590559051848152939450919290917f8c5be1e5ebec7d5bd14f71427d1e84f3dd0314c0f7b2291e5b200ac8c7c3b925910160405180910390a3505b610c5e8686866122d1565b6001925050505b9392505050565b6000610c8c600254610c8684610c80612404565b90612173565b9061217f565b905060008111610cde5760405162461bcd60e51b815260206004820152601960248201527f42656e7169537472617465677956333a3a77697468647261770000000000000060448201526064016103bd565b610ce833836124fe565b610cf1816125d4565b600954610d08906001600160a01b03163383612669565b60405181815233907f884edad9ce6fa2440d8a54cc123490eb96d2768479d49ff9c7366125a94243649060200160405180910390a25050565b610d4b8282612739565b5050565b60095460405163d505accf60e01b8152336004820152306024820152604481018790526064810186905260ff8516608482015260a4810184905260c481018390526001600160a01b039091169063d505accf9060e401600060405180830381600087803b158015610dbf57600080fd5b505af1158015610dd3573d6000803e3d6000fd5b50505050610de13386612739565b5050505050565b6006546001600160a01b03163314610e125760405162461bcd60e51b81526004016103bd90614e5e565b6001600160a01b03811660009081526008602052604090205460ff1615610e7b5760405162461bcd60e51b815260206004820152601c60248201527f5065726d697373696f6e65643a3a616c6c6f774465706f7369746f720000000060448201526064016103bd565b6001600160a01b0381166000908152600860205260409020805460ff19166001908117909155600754610ead9161218b565b6007556040516001600160a01b038216907fc0a1035c16faf8d1304056d92c00edf028f87e62b8235a938f00af9e3c0312c590600090a250565b6006546001600160a01b03163314610f115760405162461bcd60e51b81526004016103bd90614e5e565b600e5481151560ff909116151503610f2857600080fd5b600e805460ff19168215159081179091556040519081527f7b014ed3854e7f5cb0218d58b3c6ae7d53a68bb0af2f67bfb029ea42c38a7e85906020015b60405180910390a150565b6006546001600160a01b03163314610f9a5760405162461bcd60e51b81526004016103bd90614e5e565b60008111610fa757600080fd5b604051339082156108fc029083906000818181858888f19350505050158015610fd4573d6000803e3d6000fd5b507f8c1256b8896378cd5044f80c202f9772b9d77dc85c8a6eb51967210b09bfaa28600082604051610f65929190614e93565b6006546001600160a01b031633146110315760405162461bcd60e51b81526004016103bd90614e5e565b6006546040516000916001600160a01b0316907f8be0079c531659141344cd1fd0a4f28419497f9722a3daafe3b4186f6b6457e0908390a3600680546001600160a01b0319169055565b6006546001600160a01b031633146110a55760405162461bcd60e51b81526004016103bd90614e5e565b60405163095ea7b360e01b81526001600160a01b0383169063095ea7b3906110d4908490600090600401614e93565b6020604051808303816000875af11580156110f3573d6000803e3d6000fd5b505050506040513d601f19601f820116820180604052508101906111179190614eac565b610d4b57600080fd5b6013546040516361bfb47160e11b81523060048201526000918291829182916001600160a01b039091169063c37f68e290602401608060405180830381865afa158015611171573d6000803e3d6000fd5b505050506040513d601f19601f820116820180604052508101906111959190614ec9565b919550935091506111be9050826111b8670de0b6b3a7640000610c868786612173565b906129a6565b935050505090565b6006546001600160a01b031633146111f05760405162461bcd60e51b81526004016103bd90614e5e565b600c5460408051918252602082018390527f481f79ac3a523b6d6db3c5a720e190e986d1cc1b41adcdf50f9caef849901100910160405180910390a1600c55565b6006546001600160a01b0316331461125b5760405162461bcd60e51b81526004016103bd90614e5e565b6000811161126857600080fd5b60405163a9059cbb60e01b81526001600160a01b0383169063a9059cbb906112969033908590600401614e93565b6020604051808303816000875af11580156112b5573d6000803e3d6000fd5b505050506040513d601f19601f820116820180604052508101906112d99190614eac565b6112e257600080fd5b7f8c1256b8896378cd5044f80c202f9772b9d77dc85c8a6eb51967210b09bfaa288282604051611313929190614e93565b60405180910390a15050565b6006546001600160a01b031633146113495760405162461bcd60e51b81526004016103bd90614e5e565b6000600754116113b85760405162461bcd60e51b815260206004820152603460248201527f5065726d697373696f6e65643a3a72656d6f76654465706f7369746f722c206e6044820152736f20616c6c6f776564206465706f7369746f727360601b60648201526084016103bd565b6001600160a01b03811660009081526008602052604090205460ff1615156001146114385760405162461bcd60e51b815260206004820152602a60248201527f5065726d697373696f6e65643a3a72656d6f76654465706f7369746f722c206e6044820152691bdd08185b1b1bddd95960b21b60648201526084016103bd565b6001600160a01b0381166000908152600860205260409020805460ff191690556007546114669060016129a6565b6007556040516001600160a01b038216907f0e86f6608b536e5339a25b65ff531f5ea91e1313d056ecd4752b35cbd16137d490600090a250565b600b546001600160a01b031633146114f15760405162461bcd60e51b81526020600482015260146024820152732cb0b5a9ba3930ba32b3bc9d1d37b7363ca232bb60611b60448201526064016103bd565b600b54604080516001600160a01b03928316815291831660208301527fa8e91499ed37682f43cffb045fcc7d379a91e8c9a14e6321877ee34dee564c00910160405180910390a1600b80546001600160a01b0319166001600160a01b0392909216919091179055565b60018054610ae290614e24565b6006546001600160a01b031633146115915760405162461bcd60e51b81526004016103bd90614e5e565b6127106115a96010548361218b90919063ffffffff16565b11156115b457600080fd5b60115460408051918252602082018390527f2a42303d002f0ba6cfe8259c91d4684443fb0b3de286ba74991175d651726131910160405180910390a1601155565b6006546001600160a01b0316331461161f5760405162461bcd60e51b81526004016103bd90614e5e565b6127106116376011548361218b90919063ffffffff16565b111561164257600080fd5b60105460408051918252602082018390527fe7f97d51d307dc44045597c9978bec0f842e6bb40d19b9444084cfa30d9ed4f2910160405180910390a1601055565b6000610b703384846122d1565b6006546001600160a01b031633146116ba5760405162461bcd60e51b81526004016103bd90614e5e565b6009546040516370a0823160e01b81523060048201526000916001600160a01b0316906370a0823190602401602060405180830381865afa158015611703573d6000803e3d6000fd5b505050506040513d601f19601f820116820180604052508101906117279190614eff565b6013546040516305eff7ef60e21b81523060048201529192506000916001600160a01b03909116906317bfdfbc906024016020604051808303816000875af1158015611777573d6000803e3d6000fd5b505050506040513d601f19601f8201168201806040525081019061179b9190614eff565b601354604051633af9e66960e01b81523060048201529192506000916001600160a01b0390911690633af9e669906024016020604051808303816000875af11580156117eb573d6000803e3d6000fd5b505050506040513d601f19601f8201168201806040525081019061180f9190614eff565b905061182361181e82846129a6565b6129b2565b601354604051633af9e66960e01b81523060048201526001600160a01b039091169063852a12e3908290633af9e669906024016020604051808303816000875af1158015611875573d6000803e3d6000fd5b505050506040513d601f19601f820116820180604052508101906118999190614eff565b6040518263ffffffff1660e01b81526004016118b791815260200190565b6020604051808303816000875af11580156118d6573d6000803e3d6000fd5b505050506040513d601f19601f820116820180604052508101906118fa9190614eff565b506009546040516370a0823160e01b81523060048201526000916001600160a01b0316906370a0823190602401602060405180830381865afa158015611944573d6000803e3d6000fd5b505050506040513d601f19601f820116820180604052508101906119689190614eff565b90508561197582866129a6565b10156119cf5760405162461bcd60e51b8152602060048201526024808201527f42656e7169537472617465677956333a3a7265736375654465706c6f79656446604482015263756e647360e01b60648201526084016103bd565b7fc7606d21ac05cd309191543e409f0845c016120563783d70e4f41419dc0ef2346119f8611120565b6002546040805192835260208301919091520160405180910390a1600e5460ff161515600103611a2c57611a2c6000610ee7565b505050505050565b611a3e3382612739565b50565b600080611a4c611a80565b9050600c548110611a7857611a72612710610c866010548461217390919063ffffffff16565b91505090565b600091505090565b6012546013546000918291611aa3916001600160a01b0390811691168330612e59565b601254601354919250600091611ac8916001600160a01b039081169116600130612e59565b601454601554601654929350600092611af39286926001600160a01b03918216929082169116612f0a565b90506111be828261218b565b6006546001600160a01b03163314611b295760405162461bcd60e51b81526004016103bd90614e5e565b8015611b3457600080fd5b600f5460408051918252602082018390527f3cc372f330f95ac9540626dc8a25f5bf21ba607215a5d58304cb804d446f104a910160405180910390a1600f55565b42841015611bb75760405162461bcd60e51b815260206004820152600f60248201526e1c195c9b5a5d0e8e995e1c1a5c9959608a1b60448201526064016103bd565b6001600160a01b038716600090815260056020526040812080547f6e71edae12b1b97f4d1f60370fef10105fa2faae0126114a169c64845d6126c9918a918a918a919086611c0483614f2e565b909155506040805160208101969096526001600160a01b0394851690860152929091166060840152608083015260a082015260c0810186905260e001604051602081830303815290604052805190602001209050611c658882868686612fc8565b611c70888888612197565b5050505050505050565b600b546001600160a01b03163314611ccb5760405162461bcd60e51b81526020600482015260146024820152732cb0b5a9ba3930ba32b3bc9d1d37b7363ca232bb60611b60448201526064016103bd565b611cdf838383601892909255601955601b55565b6013546040516305eff7ef60e21b81523060048201526000916001600160a01b0316906317bfdfbc906024016020604051808303816000875af1158015611d2a573d6000803e3d6000fd5b505050506040513d601f19601f82011682018060405250810190611d4e9190614eff565b601354604051633af9e66960e01b81523060048201529192506000916001600160a01b0390911690633af9e669906024016020604051808303816000875af1158015611d9e573d6000803e3d6000fd5b505050506040513d601f19601f82011682018060405250810190611dc29190614eff565b9050611dd161181e82846129a6565b6000611ddd82846129a6565b1115610de157610de1611df082846129a6565b60006130f4565b6013546040516361bfb47160e11b81523060048201526000918291829182916001600160a01b039091169063c37f68e290602401608060405180830381865afa158015611e48573d6000803e3d6000fd5b505050506040513d601f19601f82011682018060405250810190611e6c9190614ec9565b9195509350915060009050611e8d670de0b6b3a7640000610c868685612173565b9050611eae611e9c82856129a6565b610c8683670de0b6b3a7640000612173565b94505050505090565b6000611ecd611ec4611120565b60025490612173565b600003611ed8575090565b611ef1611ee3611120565b600254610c86908590612173565b92915050565b6006546001600160a01b03163314611f215760405162461bcd60e51b81526004016103bd90614e5e565b600d5460408051918252602082018390527fa5dae50539d56dfe1fb5273d883b0c39bc76750a25d036fc5fbd09ad8fd5f57f910160405180910390a1600d55565b6000611f6f611ec4611120565b600003611f7e57506000919050565b611ef1600254610c86611f8f611120565b8590612173565b60007f8b73c3c69bb8fe3d512ecc4cf759cc79239f7b179b0ffacaa9a75d522b39400f60001b6000604051611fcb9190614f47565b6040519081900390207fc89efdaa54c0f20c7adf612882df0950f5a951637e0307cdcb4c672f298b8bc646604080516020810195909552840192909252606083015260808201523060a082015260c00160405160208183030381529060405280519060200120905090565b6006546001600160a01b031633146120605760405162461bcd60e51b81526004016103bd90614e5e565b6001600160a01b0381166120c55760405162461bcd60e51b815260206004820152602660248201527f4f776e61626c653a206e6577206f776e657220697320746865207a65726f206160448201526564647265737360d01b60648201526084016103bd565b6006546040516001600160a01b038084169216907f8be0079c531659141344cd1fd0a4f28419497f9722a3daafe3b4186f6b6457e090600090a3600680546001600160a01b0319166001600160a01b0392909216919091179055565b3233146121675760405162461bcd60e51b815260206004820152601460248201527359616b53747261746567793a3a6f6e6c79454f4160601b60448201526064016103bd565b61217160006133f3565b565b6000610c658284614fe2565b6000610c658284615001565b6000610c658284615023565b6001600160a01b0383166121ed5760405162461bcd60e51b815260206004820152601c60248201527f5f617070726f76653a3a6f776e6572207a65726f20616464726573730000000060448201526064016103bd565b6001600160a01b0382166122435760405162461bcd60e51b815260206004820152601e60248201527f5f617070726f76653a3a7370656e646572207a65726f2061646472657373000060448201526064016103bd565b6001600160a01b0383811660008181526003602090815260408083209487168084529482529182902085905590518481527f8c5be1e5ebec7d5bd14f71427d1e84f3dd0314c0f7b2291e5b200ac8c7c3b92591015b60405180910390a3505050565b600081848411156122c95760405162461bcd60e51b81526004016103bd9190614bdf565b505050900390565b6001600160a01b0382166123445760405162461bcd60e51b815260206004820152603460248201527f5f7472616e73666572546f6b656e733a2063616e6e6f74207472616e7366657260448201527320746f20746865207a65726f206164647265737360601b60648201526084016103bd565b612381816040518060600160405280602e81526020016152bf602e91396001600160a01b03861660009081526004602052604090205491906122a5565b6001600160a01b0380851660009081526004602052604080822093909355908416815220546123b0908261218b565b6001600160a01b0380841660008181526004602052604090819020939093559151908516907fddf252ad1be2c89b69c2b068fc378daa952ba7f163c4a11628f55a4df523b3ef906122989085815260200190565b6013546040516305eff7ef60e21b815230600482015260009182916001600160a01b03909116906317bfdfbc906024016020604051808303816000875af1158015612453573d6000803e3d6000fd5b505050506040513d601f19601f820116820180604052508101906124779190614eff565b601354604051633af9e66960e01b81523060048201529192506000916001600160a01b0390911690633af9e669906024016020604051808303816000875af11580156124c7573d6000803e3d6000fd5b505050506040513d601f19601f820116820180604052508101906124eb9190614eff565b90506124f781836129a6565b9250505090565b61253b81604051806060016040528060278152602001615298602791396001600160a01b03851660009081526004602052604090205491906122a5565b60046000846001600160a01b03166001600160a01b031681526020019081526020016000208190555061258b816040518060600160405280602781526020016152426027913960025491906122a5565b6002556040518181526000906001600160a01b038416907fddf252ad1be2c89b69c2b068fc378daa952ba7f163c4a11628f55a4df523b3ef906020015b60405180910390a35050565b6125dd816129b2565b60135460405163852a12e360e01b8152600481018390526001600160a01b039091169063852a12e3906024016020604051808303816000875af1158015612628573d6000803e3d6000fd5b505050506040513d601f19601f8201168201806040525081019061264c9190614eff565b15611a3e5760405162461bcd60e51b81526004016103bd9061503b565b60405163a9059cbb60e01b81526001600160a01b0384169063a9059cbb906126979085908590600401614e93565b6020604051808303816000875af11580156126b6573d6000803e3d6000fd5b505050506040513d601f19601f820116820180604052508101906126da9190614eac565b6127345760405162461bcd60e51b815260206004820152602560248201527f42656e7169537472617465677956333a3a5452414e534645525f46524f4d5f46604482015264105253115160da1b60648201526084016103bd565b505050565b600754156127bc573360009081526008602052604090205460ff1615156001146127bc5760405162461bcd60e51b815260206004820152602e60248201527f5065726d697373696f6e65643a3a6f6e6c79416c6c6f7765644465706f73697460448201526d1ccb081b9bdd08185b1b1bddd95960921b60648201526084016103bd565b600e5460ff1615156001146128135760405162461bcd60e51b815260206004820152601960248201527f42656e7169537472617465677956333a3a5f6465706f7369740000000000000060448201526064016103bd565b600d541561283d576000612825611a80565b9050600d5481111561283b5761283b60016133f3565b505b6009546040516323b872dd60e01b8152336004820152306024820152604481018390526001600160a01b03909116906323b872dd906064016020604051808303816000875af1158015612894573d6000803e3d6000fd5b505050506040513d601f19601f820116820180604052508101906128b89190614eac565b6129045760405162461bcd60e51b815260206004820181905260248201527f42656e7169537472617465677956333a3a7472616e73666572206661696c656460448201526064016103bd565b80600061290f612404565b905060006129288260025461217390919063ffffffff16565b111561294a5761294781610c866002548661217390919063ffffffff16565b91505b61295484836137ed565b61295d83613871565b836001600160a01b03167fe1fffcc4923d04b559f4d29a8bfc6cda04eb5b0d3c460751c2402c5c5cc9109c8460405161299891815260200190565b60405180910390a250505050565b6000610c65828461507c565b6013546040516305eff7ef60e21b81523060048201526000916001600160a01b0316906317bfdfbc906024016020604051808303816000875af11580156129fd573d6000803e3d6000fd5b505050506040513d601f19601f82011682018060405250810190612a219190614eff565b601354604051633af9e66960e01b81523060048201529192506000916001600160a01b0390911690633af9e669906024016020604051808303816000875af1158015612a71573d6000803e3d6000fd5b505050506040513d601f19601f82011682018060405250810190612a959190614eff565b90506000612acd612aaa856111b885876129a6565b6111b8601954610c86601854610c808a6111b88b8b6129a690919063ffffffff16565b90506000612adb84836129a6565b9050600080612ae8613b6d565b60095460135460405163095ea7b360e01b81529395509193506001600160a01b039081169263095ea7b392612b239216908a90600401614e93565b6020604051808303816000875af1158015612b42573d6000803e3d6000fd5b505050506040513d601f19601f82011682018060405250810190612b669190614eac565b505b8215612ddf576000612b7c86888585613bf5565b905083811115612b895750825b60135460405163852a12e360e01b8152600481018390526001600160a01b039091169063852a12e3906024016020604051808303816000875af1158015612bd4573d6000803e3d6000fd5b505050506040513d601f19601f82011682018060405250810190612bf89190614eff565b15612c155760405162461bcd60e51b81526004016103bd9061503b565b60135460405163073a938160e11b8152600481018390526001600160a01b0390911690630e752702906024016020604051808303816000875af1158015612c60573d6000803e3d6000fd5b505050506040513d601f19601f82011682018060405250810190612c849190614eff565b15612ce15760405162461bcd60e51b815260206004820152602760248201527f42656e7169537472617465677956333a3a6661696c656420746f20726570617960448201526620626f72726f7760c81b60648201526084016103bd565b601354604051633af9e66960e01b81523060048201526001600160a01b0390911690633af9e669906024016020604051808303816000875af1158015612d2b573d6000803e3d6000fd5b505050506040513d601f19601f82011682018060405250810190612d4f9190614eff565b6013546040516305eff7ef60e21b81523060048201529197506001600160a01b0316906317bfdfbc906024016020604051808303816000875af1158015612d9a573d6000803e3d6000fd5b505050506040513d601f19601f82011682018060405250810190612dbe9190614eff565b9650868510612dcd5750612ddf565b612dd787866129a6565b935050612b68565b60095460135460405163095ea7b360e01b81526001600160a01b039283169263095ea7b392612e1692911690600090600401614e93565b6020604051808303816000875af1158015612e35573d6000803e3d6000fd5b505050506040513d601f19601f82011682018060405250810190611c709190614eac565b6040516305b9783d60e01b815260ff831660048201526001600160a01b03828116602483015260009182918716906305b9783d90604401602060405180830381865afa158015612ead573d6000803e3d6000fd5b505050506040513d601f19601f82011682018060405250810190612ed19190614eff565b9050612efe612ee287878787613c2d565b612ef8612ef189898989613e0b565b849061218b565b9061218b565b9150505b949350505050565b600080612f178585613f86565b509050600080846001600160a01b0316630902f1ac6040518163ffffffff1660e01b8152600401606060405180830381865afa158015612f5b573d6000803e3d6000fd5b505050506040513d601f19601f82011682018060405250810190612f7f91906150be565b5091509150866001600160a01b0316836001600160a01b031614612f9f57905b612fbc88836001600160701b0316836001600160701b0316613fb7565b98975050505050505050565b6000612fd2611f96565b60405161190160f01b602082015260228101919091526042810186905260620160408051601f198184030181528282528051602091820120600080855291840180845281905260ff88169284019290925260608301869052608083018590529092509060019060a0016020604051602081039080840390855afa15801561305d573d6000803e3d6000fd5b5050604051601f1901519150506001600160a01b038116158015906130935750866001600160a01b0316816001600160a01b0316145b6130eb5760405162461bcd60e51b8152602060048201526024808201527f417263683a3a76616c69646174655369673a20696e76616c6964207369676e616044820152637475726560e01b60648201526084016103bd565b50505050505050565b6000806130ff613b6d565b9150915060008490506000613129601954610c86601854610c80898b6129a690919063ffffffff16565b60095460135460405163095ea7b360e01b815292935087926001600160a01b039283169263095ea7b392613164929116908690600401614e93565b6020604051808303816000875af1158015613183573d6000803e3d6000fd5b505050506040513d601f19601f820116820180604052508101906131a79190614eac565b505b81831015612ddf5760006131bf84838888613fff565b9050826131cc858361218b565b11156131df576131dc83856129a6565b90505b601a548110156131ef5750612ddf565b60135460405163317afabb60e21b8152600481018390526001600160a01b039091169063c5ebeaec906024016020604051808303816000875af115801561323a573d6000803e3d6000fd5b505050506040513d601f19601f8201168201806040525081019061325e9190614eff565b156132b55760405162461bcd60e51b815260206004820152602160248201527f42656e7169537472617465677956333a3a626f72726f77696e67206661696c656044820152601960fa1b60648201526084016103bd565b60135460405163140e25ad60e31b8152600481018390526001600160a01b039091169063a0712d68906024016020604051808303816000875af1158015613300573d6000803e3d6000fd5b505050506040513d601f19601f820116820180604052508101906133249190614eff565b156133715760405162461bcd60e51b815260206004820152601f60248201527f42656e7169537472617465677956333a3a6c656e64696e67206661696c65640060448201526064016103bd565b601354604051633af9e66960e01b81523060048201526001600160a01b0390911690633af9e669906024016020604051808303816000875af11580156133bb573d6000803e3d6000fd5b505050506040513d601f19601f820116820180604052508101906133df9190614eff565b93506133eb828261218b565b9150506131a9565b60408051600180825281830190925260009160208083019080368337505060135482519293506001600160a01b03169183915060009061343557613435615101565b6001600160a01b039283166020918202929092010152601254604051633a22995760e11b815291169063744532ae90613477906000903090869060040161515b565b600060405180830381600087803b15801561349157600080fd5b505af11580156134a5573d6000803e3d6000fd5b5050601254604051633a22995760e11b81526001600160a01b03909116925063744532ae91506134de906001903090869060040161515b565b600060405180830381600087803b1580156134f857600080fd5b505af115801561350c573d6000803e3d6000fd5b5047925050811590506135825773b31f66aa3c1e785363f0875a1b74e27b85fd66c76001600160a01b031663d0e30db0826040518263ffffffff1660e01b81526004016000604051808303818588803b15801561356857600080fd5b505af115801561357c573d6000803e3d6000fd5b50505050505b6014546040516370a0823160e01b81523060048201526000916001600160a01b0316906370a0823190602401602060405180830381865afa1580156135cb573d6000803e3d6000fd5b505050506040513d601f19601f820116820180604052508101906135ef9190614eff565b9050801561361e5760145460155460165461361c9284926001600160a01b03918216929082169116614013565b505b600a546040516370a0823160e01b81523060048201526000916001600160a01b0316906370a0823190602401602060405180830381865afa158015613667573d6000803e3d6000fd5b505050506040513d601f19601f8201168201806040525081019061368b9190614eff565b9050846136e457600c548110156136e45760405162461bcd60e51b815260206004820152601960248201527f42656e7169537472617465677956333a3a7265696e766573740000000000000060448201526064016103bd565b6000613701612710610c866011548561217390919063ffffffff16565b9050801561372657600a54600b54613726916001600160a01b03908116911683612669565b6000613743612710610c866010548661217390919063ffffffff16565b9050801561376257600a54613762906001600160a01b03163383612669565b6000613794613775836111b887876129a6565b600a546009546017546001600160a01b03928316929182169116614013565b905061379f81613871565b7fc7606d21ac05cd309191543e409f0845c016120563783d70e4f41419dc0ef2346137c8611120565b6002546040805192835260208301919091520160405180910390a15050505050505050565b6002546137fa908261218b565b6002556001600160a01b038216600090815260046020526040902054613820908261218b565b6001600160a01b0383166000818152600460205260408082209390935591519091907fddf252ad1be2c89b69c2b068fc378daa952ba7f163c4a11628f55a4df523b3ef906125c89085815260200190565b600081116138cd5760405162461bcd60e51b8152602060048201526024808201527f42656e7169537472617465677956333a3a5f7374616b654465706f736974546f6044820152636b656e7360e01b60648201526084016103bd565b60095460135460405163095ea7b360e01b81526001600160a01b039283169263095ea7b392613903929116908590600401614e93565b6020604051808303816000875af1158015613922573d6000803e3d6000fd5b505050506040513d601f19601f820116820180604052508101906139469190614eac565b5060135460405163140e25ad60e31b8152600481018390526001600160a01b039091169063a0712d68906024016020604051808303816000875af1158015613992573d6000803e3d6000fd5b505050506040513d601f19601f820116820180604052508101906139b69190614eff565b15613a035760405162461bcd60e51b815260206004820152601f60248201527f42656e7169537472617465677956333a3a4465706f736974206661696c65640060448201526064016103bd565b60095460135460405163095ea7b360e01b81526001600160a01b039283169263095ea7b392613a3a92911690600090600401614e93565b6020604051808303816000875af1158015613a59573d6000803e3d6000fd5b505050506040513d601f19601f82011682018060405250810190613a7d9190614eac565b506013546040516305eff7ef60e21b81523060048201526000916001600160a01b0316906317bfdfbc906024016020604051808303816000875af1158015613ac9573d6000803e3d6000fd5b505050506040513d601f19601f82011682018060405250810190613aed9190614eff565b601354604051633af9e66960e01b81523060048201529192506000916001600160a01b0390911690633af9e669906024016020604051808303816000875af1158015613b3d573d6000803e3d6000fd5b505050506040513d601f19601f82011682018060405250810190613b619190614eff565b905061273481836130f4565b601254601354604051638e8f294b60e01b81526001600160a01b03918216600482015260009283928392911690638e8f294b906024016040805180830381865afa158015613bbf573d6000803e3d6000fd5b505050506040513d601f19601f82011682018060405250810190613be39190615188565b94670de0b6b3a7640000945092505050565b6000613c24601954610c86601b54610c80613c1d88610c86898c61217390919063ffffffff16565b8a906129a6565b95945050505050565b604080516020810191829052637937969d60e01b90915260ff831660248201526001600160a01b0384811660448301528281166064830152600091829181908816637937969d60848301602060405180830381865afa158015613c94573d6000803e3d6000fd5b505050506040513d601f19601f82011682018060405250810190613cb89190614eff565b905280516000935090915015613e025760006040518060200160405280876001600160a01b031663aa5af0fd6040518163ffffffff1660e01b8152600401602060405180830381865afa158015613d13573d6000803e3d6000fd5b505050506040513d601f19601f82011682018060405250810190613d379190614eff565b815250905060006040518060200160405280613d558a8a8a87614184565b6001600160e01b03169052805190915015613dff576000613d7682856143d4565b6040516395dd919360e01b8152306004820152909150600090613dee906001600160a01b038b16906395dd919390602401602060405180830381865afa158015613dc4573d6000803e3d6000fd5b505050506040513d601f19601f82011682018060405250810190613de89190614eff565b85614409565b9050613dfa8183614427565b955050505b50505b50949350505050565b6000806040518060200160405280613e24888888614451565b6001600160e01b0316905260408051602081019182905263111d2e5760e31b90915260ff861660248201526001600160a01b0387811660448301528581166064830152919250600091819089166388e972b860848301602060405180830381865afa158015613e97573d6000803e3d6000fd5b505050506040513d601f19601f82011682018060405250810190613ebb9190614eff565b90528051909150158015613ecf5750815115155b15613ee7576ec097ce7bc90715b34b9f100000000081525b8151600090613f055760405180602001604052806000815250613f0f565b613f0f83836143d4565b6040516370a0823160e01b81526001600160a01b038781166004830152919250612fbc918916906370a0823190602401602060405180830381865afa158015613f5c573d6000803e3d6000fd5b505050506040513d601f19601f82011682018060405250810190613f809190614eff565b82614427565b600080826001600160a01b0316846001600160a01b031610613fa9578284613fac565b83835b915091509250929050565b600080613fc6856103e5612173565b90506000613fd48285612173565b90506000613fe883612ef8886103e8612173565b9050613ff4828261217f565b979650505050505050565b6000613c24846111b884610c868988612173565b6000806140208585613f86565b509050600080846001600160a01b0316630902f1ac6040518163ffffffff1660e01b8152600401606060405180830381865afa158015614064573d6000803e3d6000fd5b505050506040513d601f19601f8201168201806040525081019061408891906150be565b5091509150866001600160a01b0316836001600160a01b0316146140a857905b6000806140c88a856001600160701b0316856001600160701b0316613fb7565b9050886001600160a01b0316856001600160a01b0316146140e557905b6140f96001600160a01b038a16888c614697565b6040805160008152602081019182905263022c0d9f60e01b9091526001600160a01b0388169063022c0d9f9061413890859085903090602481016151b6565b600060405180830381600087803b15801561415257600080fd5b505af1158015614166573d6000803e3d6000fd5b505050508181116141775781613dfa565b9998505050505050505050565b6040516312ce829d60e21b815260ff831660048201526001600160a01b0384811660248301526000918291829190881690634b3a0a74906044016040805180830381865afa1580156141da573d6000803e3d6000fd5b505050506040513d601f19601f820116820180604052508101906141fe91906151ed565b6040516361bb7d6d60e11b815260ff881660048201526001600160a01b03898116602483015292945063ffffffff91909116925060009189169063c376fada90604401602060405180830381865afa15801561425e573d6000803e3d6000fd5b505050506040513d601f19601f820116820180604052508101906142829190614eff565b9050600061429042846146ed565b90506000811180156142a25750600082115b156143c5576000614314896001600160a01b03166347bd37186040518163ffffffff1660e01b8152600401602060405180830381865afa1580156142ea573d6000803e3d6000fd5b505050506040513d601f19601f8201168201806040525081019061430e9190614eff565b88614409565b905060006143228385614727565b90506000808311614342576040518060200160405280600081525061434c565b61434c8284614769565b9050600061437160405180602001604052808a6001600160e01b0316815250836147a5565b90506143b681600001516040518060400160405280601a81526020017f6e657720696e64657820657863656564732032323420626974730000000000008152506147d1565b98505050505050505050612f02565b50600098975050505050505050565b6040805160208101909152600081526040518060200160405280614400856000015185600001516146ed565b90529392505050565b6000610c6561442084670de0b6b3a7640000614727565b8351614800565b60006ec097ce7bc90715b34b9f1000000000614447848460000151614727565b610c659190615001565b60405163d81c5e4560e01b815260ff821660048201526001600160a01b038381166024830152600091829182919087169063d81c5e45906044016040805180830381865afa1580156144a7573d6000803e3d6000fd5b505050506040513d601f19601f820116820180604052508101906144cb91906151ed565b60405163cf9cfb6160e01b815260ff871660048201526001600160a01b03888116602483015292945063ffffffff91909116925060009188169063cf9cfb6190604401602060405180830381865afa15801561452b573d6000803e3d6000fd5b505050506040513d601f19601f8201168201806040525081019061454f9190614eff565b9050600061455d42846146ed565b905060008111801561456f5750600082115b15614689576000876001600160a01b03166318160ddd6040518163ffffffff1660e01b8152600401602060405180830381865afa1580156145b4573d6000803e3d6000fd5b505050506040513d601f19601f820116820180604052508101906145d89190614eff565b905060006145e68385614727565b905060008083116146065760405180602001604052806000815250614610565b6146108284614769565b9050600061463560405180602001604052808a6001600160e01b0316815250836147a5565b905061467a81600001516040518060400160405280601a81526020017f6e657720696e64657820657863656564732032323420626974730000000000008152506147d1565b98505050505050505050610c65565b506000979650505050505050565b6127348363a9059cbb60e01b84846040516024016146b6929190614e93565b60408051601f198184030181529190526020810180516001600160e01b03166001600160e01b031990931692909217909152614833565b6000610c658383604051806040016040528060158152602001747375627472616374696f6e20756e646572666c6f7760581b815250614905565b6000610c6583836040518060400160405280601781526020017f6d756c7469706c69636174696f6e206f766572666c6f77000000000000000000815250614934565b604080516020810190915260008152604051806020016040528061440061479f866ec097ce7bc90715b34b9f1000000000614727565b85614800565b604080516020810190915260008152604051806020016040528061440085600001518560000151614987565b600081600160e01b84106147f85760405162461bcd60e51b81526004016103bd9190614bdf565b509192915050565b6000610c6583836040518060400160405280600e81526020016d646976696465206279207a65726f60901b8152506149bd565b6000614888826040518060400160405280602081526020017f5361666545524332303a206c6f772d6c6576656c2063616c6c206661696c6564815250856001600160a01b03166149e99092919063ffffffff16565b80519091501561273457808060200190518101906148a69190614eac565b6127345760405162461bcd60e51b815260206004820152602a60248201527f5361666545524332303a204552433230206f7065726174696f6e20646964206e6044820152691bdd081cdd58d8d9595960b21b60648201526084016103bd565b600081848411156149295760405162461bcd60e51b81526004016103bd9190614bdf565b50612f02838561507c565b6000831580614941575082155b1561494e57506000610c65565b600061495a8486614fe2565b9050836149678683615001565b148390613e025760405162461bcd60e51b81526004016103bd9190614bdf565b6000610c658383604051806040016040528060118152602001706164646974696f6e206f766572666c6f7760781b8152506149f8565b600081836149de5760405162461bcd60e51b81526004016103bd9190614bdf565b50612f028385615001565b6060612f028484600085614a29565b600080614a058486615023565b90508285821015613e025760405162461bcd60e51b81526004016103bd9190614bdf565b606082471015614a8a5760405162461bcd60e51b815260206004820152602660248201527f416464726573733a20696e73756666696369656e742062616c616e636520666f6044820152651c8818d85b1b60d21b60648201526084016103bd565b6001600160a01b0385163b614ae15760405162461bcd60e51b815260206004820152601d60248201527f416464726573733a2063616c6c20746f206e6f6e2d636f6e747261637400000060448201526064016103bd565b600080866001600160a01b03168587604051614afd9190615225565b60006040518083038185875af1925050503d8060008114614b3a576040519150601f19603f3d011682016040523d82523d6000602084013e614b3f565b606091505b5091509150613ff482828660608315614b59575081610c65565b825115614b695782518084602001fd5b8160405162461bcd60e51b81526004016103bd9190614bdf565b60005b83811015614b9e578181015183820152602001614b86565b83811115614bad576000848401525b50505050565b60008151808452614bcb816020860160208601614b83565b601f01601f19169290920160200192915050565b602081526000610c656020830184614bb3565b80356001600160a01b0381168114614c0957600080fd5b919050565b60008060408385031215614c2157600080fd5b614c2a83614bf2565b946020939093013593505050565b600080600060608486031215614c4d57600080fd5b614c5684614bf2565b9250614c6460208501614bf2565b9150604084013590509250925092565b600060208284031215614c8657600080fd5b5035919050565b600060208284031215614c9f57600080fd5b610c6582614bf2565b803560ff81168114614c0957600080fd5b600080600080600060a08688031215614cd157600080fd5b8535945060208601359350614ce860408701614ca8565b94979396509394606081013594506080013592915050565b8015158114611a3e57600080fd5b600060208284031215614d2057600080fd5b8135610c6581614d00565b60008060408385031215614d3e57600080fd5b614d4783614bf2565b9150614d5560208401614bf2565b90509250929050565b60008060408385031215614d7157600080fd5b823591506020830135614d8381614d00565b809150509250929050565b600080600080600080600060e0888a031215614da957600080fd5b614db288614bf2565b9650614dc060208901614bf2565b95506040880135945060608801359350614ddc60808901614ca8565b925060a0880135915060c0880135905092959891949750929550565b600080600060608486031215614e0d57600080fd5b505081359360208301359350604090920135919050565b600181811c90821680614e3857607f821691505b602082108103614e5857634e487b7160e01b600052602260045260246000fd5b50919050565b6020808252818101527f4f776e61626c653a2063616c6c6572206973206e6f7420746865206f776e6572604082015260600190565b6001600160a01b03929092168252602082015260400190565b600060208284031215614ebe57600080fd5b8151610c6581614d00565b60008060008060808587031215614edf57600080fd5b505082516020840151604085015160609095015191969095509092509050565b600060208284031215614f1157600080fd5b5051919050565b634e487b7160e01b600052601160045260246000fd5b600060018201614f4057614f40614f18565b5060010190565b600080835481600182811c915080831680614f6357607f831692505b60208084108203614f8257634e487b7160e01b86526022600452602486fd5b818015614f965760018114614fa757614fd4565b60ff19861689528489019650614fd4565b60008a81526020902060005b86811015614fcc5781548b820152908501908301614fb3565b505084890196505b509498975050505050505050565b6000816000190483118215151615614ffc57614ffc614f18565b500290565b60008261501e57634e487b7160e01b600052601260045260246000fd5b500490565b6000821982111561503657615036614f18565b500190565b60208082526021908201527f42656e7169537472617465677956333a3a6661696c656420746f2072656465656040820152606d60f81b606082015260800190565b60008282101561508e5761508e614f18565b500390565b80516001600160701b0381168114614c0957600080fd5b805163ffffffff81168114614c0957600080fd5b6000806000606084860312156150d357600080fd5b6150dc84615093565b92506150ea60208501615093565b91506150f8604085016150aa565b90509250925092565b634e487b7160e01b600052603260045260246000fd5b600081518084526020808501945080840160005b838110156151505781516001600160a01b03168752958201959082019060010161512b565b509495945050505050565b60ff841681526001600160a01b0383166020820152606060408201819052600090613c2490830184615117565b6000806040838503121561519b57600080fd5b82516151a681614d00565b6020939093015192949293505050565b84815283602082015260018060a01b03831660408201526080606082015260006151e36080830184614bb3565b9695505050505050565b6000806040838503121561520057600080fd5b82516001600160e01b038116811461521757600080fd5b9150614d55602084016150aa565b60008251615237818460208701614b83565b919091019291505056fe5f6275726e3a206275726e20616d6f756e74206578636565647320746f74616c20737570706c797472616e7366657246726f6d3a207472616e7366657220616d6f756e74206578636565647320616c6c6f77616e63655f6275726e3a206275726e20616d6f756e7420657863656564732066726f6d2062616c616e63655f7472616e73666572546f6b656e733a207472616e7366657220657863656564732066726f6d2062616c616e6365a2646970667358221220596364d6b84a7ed24861e270c5c69ac356a6469f35363299243476d6ef211b0f64736f6c634300080d00334f776e61626c653a2063616c6c6572206973206e6f7420746865206f776e65728be0079c531659141344cd1fd0a4f28419497f9722a3daafe3b4186f6b6457e0537761702070616972203020646f6573206e6f74206d61746368207265776172",
    "linkReferences": {}
  },
  "methodIdentifiers": {
    "ADMIN_FEE_BIPS()": "07677111",
    "DEPOSITS_ENABLED()": "b52a321f",
    "DEV_FEE_BIPS()": "5ea682ea",
    "DOMAIN_TYPEHASH()": "20606b70",
    "MAX_TOKENS_TO_DEPOSIT_WITHOUT_REINVEST()": "789139bc",
    "MIN_TOKENS_TO_REINVEST()": "bd079f55",
    "PERMIT_TYPEHASH()": "30adf81f",
    "REINVEST_REWARD_BIPS()": "8aff733d",
    "VERSION_HASH()": "9e4e7318",
    "allowDepositor(address)": "4bebd1e7",
    "allowance(address,address)": "dd62ed3e",
    "allowedDepositors(address)": "483c2ef0",
    "approve(address,uint256)": "095ea7b3",
    "balanceOf(address)": "70a08231",
    "checkReward()": "c4b24a46",
    "decimals()": "313ce567",
    "deposit(uint256)": "b6b55f25",
    "depositFor(address,uint256)": "2f4f21e2",
    "depositToken()": "c89039c5",
    "depositWithPermit(uint256,uint256,uint8,bytes32,bytes32)": "4a970be7",
    "devAddr()": "da09c72c",
    "estimateDeployedBalance()": "0f23475d",
    "estimateReinvestReward()": "b9e57b80",
    "getActualLeverage()": "db8dd95c",
    "getDepositTokensForShares(uint256)": "eab89a5a",
    "getDomainSeparator()": "ed24911d",
    "getSharesForDepositTokens(uint256)": "dd8ce4d6",
    "name()": "06fdde03",
    "nonces(address)": "7ecebe00",
    "numberOfAllowedDepositors()": "3bdc6e72",
    "owner()": "8da5cb5b",
    "permit(address,address,uint256,uint256,uint8,bytes32,bytes32)": "d505accf",
    "recoverAVAX(uint256)": "4ebb7916",
    "recoverERC20(address,uint256)": "8980f11f",
    "reinvest()": "fdb5a03e",
    "removeDepositor(address)": "8b73e606",
    "renounceOwnership()": "715018a6",
    "rescueDeployedFunds(uint256,bool)": "ac0d31ff",
    "revokeAllowance(address,address)": "7ae26773",
    "rewardToken()": "f7c618c1",
    "symbol()": "95d89b41",
    "totalDeposits()": "7d882097",
    "totalSupply()": "18160ddd",
    "transfer(address,uint256)": "a9059cbb",
    "transferFrom(address,address,uint256)": "23b872dd",
    "transferOwnership(address)": "f2fde38b",
    "updateAdminFee(uint256)": "cff1b6ef",
    "updateDepositsEnabled(bool)": "4e77ace5",
    "updateDevAddr(address)": "9291d563",
    "updateDevFee(uint256)": "99729ec1",
    "updateLeverage(uint256,uint256,uint256)": "d6ec2a49",
    "updateMaxTokensToDepositWithoutReinvest(uint256)": "e21ac825",
    "updateMinTokensToReinvest(uint256)": "81837230",
    "updateReinvestReward(uint256)": "a8ae2b7c",
    "withdraw(uint256)": "2e1a7d4d"
  },
  "id": 60
}